{
  "contractName": "CeeLow",
  "abi": [
    {
      "anonymous": false,
      "inputs": [
        {
          "indexed": false,
          "internalType": "bool",
          "name": "allRolled",
          "type": "bool"
        }
      ],
      "name": "AllRolled",
      "type": "event"
    },
    {
      "anonymous": false,
      "inputs": [
        {
          "indexed": false,
          "internalType": "uint256",
          "name": "betPool",
          "type": "uint256"
        }
      ],
      "name": "BetPool",
      "type": "event"
    },
    {
      "anonymous": false,
      "inputs": [
        {
          "indexed": false,
          "internalType": "uint256",
          "name": "balance",
          "type": "uint256"
        }
      ],
      "name": "ContractBalance",
      "type": "event"
    },
    {
      "anonymous": false,
      "inputs": [
        {
          "indexed": false,
          "internalType": "uint8",
          "name": "currentHighScore",
          "type": "uint8"
        }
      ],
      "name": "HighScore",
      "type": "event"
    },
    {
      "anonymous": false,
      "inputs": [
        {
          "components": [
            {
              "internalType": "address payable",
              "name": "addr",
              "type": "address"
            },
            {
              "internalType": "uint8[4][]",
              "name": "score",
              "type": "uint8[4][]"
            },
            {
              "internalType": "uint8",
              "name": "currentScore",
              "type": "uint8"
            },
            {
              "internalType": "uint256",
              "name": "balance",
              "type": "uint256"
            },
            {
              "internalType": "uint256",
              "name": "betThisRound",
              "type": "uint256"
            },
            {
              "internalType": "bool",
              "name": "inGame",
              "type": "bool"
            },
            {
              "internalType": "uint8",
              "name": "playerId",
              "type": "uint8"
            },
            {
              "internalType": "bool",
              "name": "isTurn",
              "type": "bool"
            },
            {
              "internalType": "bool",
              "name": "isFirstRoll",
              "type": "bool"
            },
            {
              "internalType": "bool",
              "name": "isWaitForBet",
              "type": "bool"
            },
            {
              "internalType": "bool",
              "name": "isWaitForCall",
              "type": "bool"
            },
            {
              "internalType": "bool",
              "name": "hasRolled",
              "type": "bool"
            }
          ],
          "indexed": false,
          "internalType": "struct CeeLow.Player[]",
          "name": "players",
          "type": "tuple[]"
        }
      ],
      "name": "Players",
      "type": "event"
    },
    {
      "anonymous": false,
      "inputs": [
        {
          "indexed": false,
          "internalType": "uint8[3][25]",
          "name": "rolls",
          "type": "uint8[3][25]"
        },
        {
          "indexed": false,
          "internalType": "uint8",
          "name": "r1",
          "type": "uint8"
        },
        {
          "indexed": false,
          "internalType": "uint8",
          "name": "r2",
          "type": "uint8"
        },
        {
          "indexed": false,
          "internalType": "uint8",
          "name": "r3",
          "type": "uint8"
        }
      ],
      "name": "Rolls",
      "type": "event"
    },
    {
      "anonymous": false,
      "inputs": [
        {
          "indexed": false,
          "internalType": "uint8",
          "name": "round",
          "type": "uint8"
        }
      ],
      "name": "Round",
      "type": "event"
    },
    {
      "anonymous": false,
      "inputs": [
        {
          "indexed": false,
          "internalType": "uint8",
          "name": "playerId",
          "type": "uint8"
        },
        {
          "indexed": false,
          "internalType": "uint8",
          "name": "s1",
          "type": "uint8"
        },
        {
          "indexed": false,
          "internalType": "uint8",
          "name": "s2",
          "type": "uint8"
        },
        {
          "indexed": false,
          "internalType": "uint8",
          "name": "s3",
          "type": "uint8"
        },
        {
          "indexed": false,
          "internalType": "uint8",
          "name": "currentScore",
          "type": "uint8"
        }
      ],
      "name": "Scores",
      "type": "event"
    },
    {
      "anonymous": false,
      "inputs": [
        {
          "indexed": false,
          "internalType": "uint8",
          "name": "stageOfMatch",
          "type": "uint8"
        }
      ],
      "name": "StageOfMatch",
      "type": "event"
    },
    {
      "anonymous": false,
      "inputs": [
        {
          "indexed": false,
          "internalType": "uint8",
          "name": "turn",
          "type": "uint8"
        }
      ],
      "name": "Turn",
      "type": "event"
    },
    {
      "anonymous": false,
      "inputs": [
        {
          "indexed": false,
          "internalType": "uint8[]",
          "name": "winners",
          "type": "uint8[]"
        }
      ],
      "name": "Winners",
      "type": "event"
    },
    {
      "inputs": [],
      "name": "activePlayers",
      "outputs": [
        {
          "internalType": "uint8",
          "name": "",
          "type": "uint8"
        }
      ],
      "stateMutability": "view",
      "type": "function",
      "constant": true
    },
    {
      "inputs": [],
      "name": "currentPlayerId",
      "outputs": [
        {
          "internalType": "uint8",
          "name": "",
          "type": "uint8"
        }
      ],
      "stateMutability": "view",
      "type": "function",
      "constant": true
    },
    {
      "inputs": [],
      "name": "firstRoll",
      "outputs": [
        {
          "internalType": "uint8",
          "name": "",
          "type": "uint8"
        }
      ],
      "stateMutability": "view",
      "type": "function",
      "constant": true
    },
    {
      "inputs": [],
      "name": "numPlayers",
      "outputs": [
        {
          "internalType": "uint8",
          "name": "",
          "type": "uint8"
        }
      ],
      "stateMutability": "view",
      "type": "function",
      "constant": true
    },
    {
      "inputs": [],
      "name": "stageOfMatch",
      "outputs": [
        {
          "internalType": "uint8",
          "name": "",
          "type": "uint8"
        }
      ],
      "stateMutability": "view",
      "type": "function",
      "constant": true
    },
    {
      "inputs": [],
      "name": "turn",
      "outputs": [
        {
          "internalType": "uint8",
          "name": "",
          "type": "uint8"
        }
      ],
      "stateMutability": "view",
      "type": "function",
      "constant": true
    },
    {
      "inputs": [],
      "name": "startRound",
      "outputs": [],
      "stateMutability": "nonpayable",
      "type": "function"
    },
    {
      "inputs": [
        {
          "internalType": "uint256",
          "name": "betSize",
          "type": "uint256"
        }
      ],
      "name": "takeFirstBet",
      "outputs": [],
      "stateMutability": "nonpayable",
      "type": "function"
    },
    {
      "inputs": [
        {
          "internalType": "uint8",
          "name": "playerIndex",
          "type": "uint8"
        },
        {
          "internalType": "uint256",
          "name": "betSize",
          "type": "uint256"
        }
      ],
      "name": "callBet",
      "outputs": [],
      "stateMutability": "nonpayable",
      "type": "function"
    },
    {
      "inputs": [
        {
          "internalType": "uint8",
          "name": "index",
          "type": "uint8"
        }
      ],
      "name": "withdrawPlayer",
      "outputs": [],
      "stateMutability": "nonpayable",
      "type": "function"
    },
    {
      "inputs": [
        {
          "internalType": "address payable",
          "name": "_playerAddr",
          "type": "address"
        },
        {
          "internalType": "uint256",
          "name": "_balance",
          "type": "uint256"
        }
      ],
      "name": "addPlayer",
      "outputs": [],
      "stateMutability": "payable",
      "type": "function",
      "payable": true
    },
    {
      "inputs": [],
      "name": "resetGame",
      "outputs": [],
      "stateMutability": "nonpayable",
      "type": "function"
    },
    {
      "inputs": [
        {
          "internalType": "uint8",
          "name": "index",
          "type": "uint8"
        }
      ],
      "name": "addToBalance",
      "outputs": [],
      "stateMutability": "payable",
      "type": "function",
      "payable": true
    },
    {
      "inputs": [
        {
          "internalType": "uint8",
          "name": "playerIndex",
          "type": "uint8"
        },
        {
          "internalType": "uint8[3][25]",
          "name": "rolls",
          "type": "uint8[3][25]"
        }
      ],
      "name": "roll",
      "outputs": [],
      "stateMutability": "nonpayable",
      "type": "function"
    }
  ],
  "bytecode": "0x60806040526001600260006101000a81548160ff021916908360ff1602179055506001600260016101000a81548160ff021916908360ff1602179055506000600560006101000a81548160ff021916908360ff16021790555034801561006457600080fd5b50615ea980620000756000396000f3fe6080604052600436106100dd5760003560e01c806387e22a851161007f57806397b2f5561161005957806397b2f55614610258578063bb47221914610283578063ebb30b431461029a578063ffdf2312146102c3576100dd565b806387e22a85146101e85780638b299903146102115780638c4c1cf21461023c576100dd565b806355e3f086116100bb57806355e3f086146101615780636254db80146101785780636fd075fc146101a15780638723b083146101bd576100dd565b806314b9b3da146100e25780631a79a9131461010b57806348a0080d14610136575b600080fd5b3480156100ee57600080fd5b5061010960048036038101906101049190613ea6565b6102ee565b005b34801561011757600080fd5b506101206105dc565b60405161012d919061542c565b60405180910390f35b34801561014257600080fd5b5061014b6105ed565b604051610158919061542c565b60405180910390f35b34801561016d57600080fd5b50610176610600565b005b34801561018457600080fd5b5061019f600480360381019061019a9190613ecf565b610844565b005b6101bb60048036038101906101b69190613e6a565b610a7f565b005b3480156101c957600080fd5b506101d2610dae565b6040516101df919061542c565b60405180910390f35b3480156101f457600080fd5b5061020f600480360381019061020a9190613f35565b610dc1565b005b34801561021d57600080fd5b50610226611086565b604051610233919061542c565b60405180910390f35b61025660048036038101906102519190613ecf565b611099565b005b34801561026457600080fd5b5061026d6111c4565b60405161027a919061542c565b60405180910390f35b34801561028f57600080fd5b506102986111d7565b005b3480156102a657600080fd5b506102c160048036038101906102bc9190613ef8565b6115db565b005b3480156102cf57600080fd5b506102d8611c6a565b6040516102e5919061542c565b60405180910390f35b806003600060049054906101000a900460ff1660ff168154811061033b577f4e487b7100000000000000000000000000000000000000000000000000000000600052603260045260246000fd5b9060005260206000209060060201600301600082825461035b91906156cb565b9250508190555080600181905550806003600060049054906101000a900460ff1660ff16815481106103b6577f4e487b7100000000000000000000000000000000000000000000000000000000600052603260045260246000fd5b9060005260206000209060060201600401819055506002600560006101000a81548160ff021916908360ff16021790555060006003600060049054906101000a900460ff1660ff1681548110610435577f4e487b7100000000000000000000000000000000000000000000000000000000600052603260045260246000fd5b906000526020600020906006020160050160046101000a81548160ff02191690831515021790555060005b600060019054906101000a900460ff1660ff168160ff16101561051457600060049054906101000a900460ff1660ff168160ff161461050157600160038260ff16815481106104d8577f4e487b7100000000000000000000000000000000000000000000000000000000600052603260045260246000fd5b906000526020600020906006020160050160056101000a81548160ff0219169083151502179055505b808061050c90615c06565b915050610460565b507fc10f7f17f63e8d93f47783cd5e4fb4ca75a5ead0404e4ef93fd6c497817ac524600060039054906101000a900460ff16604051610553919061542c565b60405180910390a17f3caa42ff5cce41956b36e51d96f7586ad16e90ecd64f1489794875c66236da5b600360405161058b91906153b2565b60405180910390a17f4e56b265471bd01ae52b36ae93b5d6e432e780cf55f7c1ce2f954415d060ec88600560009054906101000a900460ff166040516105d1919061542c565b60405180910390a150565b60008054906101000a900460ff1681565b600560009054906101000a900460ff1681565b6001600560006101000a81548160ff021916908360ff16021790555060016003600060049054906101000a900460ff1660ff168154811061066a577f4e487b7100000000000000000000000000000000000000000000000000000000600052603260045260246000fd5b906000526020600020906006020160050160026101000a81548160ff02191690831515021790555060016003600060049054906101000a900460ff1660ff16815481106106e0577f4e487b7100000000000000000000000000000000000000000000000000000000600052603260045260246000fd5b906000526020600020906006020160050160036101000a81548160ff02191690831515021790555060016003600060049054906101000a900460ff1660ff1681548110610756577f4e487b7100000000000000000000000000000000000000000000000000000000600052603260045260246000fd5b906000526020600020906006020160050160046101000a81548160ff0219169083151502179055507fc10f7f17f63e8d93f47783cd5e4fb4ca75a5ead0404e4ef93fd6c497817ac524600060039054906101000a900460ff166040516107bc919061542c565b60405180910390a17f3caa42ff5cce41956b36e51d96f7586ad16e90ecd64f1489794875c66236da5b60036040516107f491906153b2565b60405180910390a17f4e56b265471bd01ae52b36ae93b5d6e432e780cf55f7c1ce2f954415d060ec88600560009054906101000a900460ff1660405161083a919061542c565b60405180910390a1565b600060038260ff1681548110610883577f4e487b7100000000000000000000000000000000000000000000000000000000600052603260045260246000fd5b906000526020600020906006020160030154111561099f5760038160ff16815481106108d8577f4e487b7100000000000000000000000000000000000000000000000000000000600052603260045260246000fd5b906000526020600020906006020160000160009054906101000a900473ffffffffffffffffffffffffffffffffffffffff1673ffffffffffffffffffffffffffffffffffffffff166108fc60038360ff1681548110610960577f4e487b7100000000000000000000000000000000000000000000000000000000600052603260045260246000fd5b9060005260206000209060060201600301549081150290604051600060405180830381858888f1935050505015801561099d573d6000803e3d6000fd5b505b600060049054906101000a900460ff1660ff168160ff1614156109c5576109c4611c7d565b5b6109ce81611cfe565b6000600181819054906101000a900460ff16809291906109ed906157cc565b91906101000a81548160ff021916908360ff160217905550507f3caa42ff5cce41956b36e51d96f7586ad16e90ecd64f1489794875c66236da5b6003604051610a3691906153b2565b60405180910390a17f9eda563474dcf999b0332c34dedb9066a385693682ea01c43234fa4e95668a0e610a67612125565b604051610a749190615411565b60405180910390a150565b606060006040518061018001604052808573ffffffffffffffffffffffffffffffffffffffff168152602001838152602001600060ff16815260200184815260200160008152602001600115158152602001600060029054906101000a900460ff1660ff168152602001600015158152602001600015158152602001600015158152602001600015158152602001600015158152509050600381908060018154018082558091505060019003906000526020600020906006020160009091909190915060008201518160000160006101000a81548173ffffffffffffffffffffffffffffffffffffffff021916908373ffffffffffffffffffffffffffffffffffffffff1602179055506020820151816001019080519060200190610ba5929190613acb565b5060408201518160020160006101000a81548160ff021916908360ff160217905550606082015181600301556080820151816004015560a08201518160050160006101000a81548160ff02191690831515021790555060c08201518160050160016101000a81548160ff021916908360ff16021790555060e08201518160050160026101000a81548160ff0219169083151502179055506101008201518160050160036101000a81548160ff0219169083151502179055506101208201518160050160046101000a81548160ff0219169083151502179055506101408201518160050160056101000a81548160ff0219169083151502179055506101608201518160050160066101000a81548160ff02191690831515021790555050506000600181819054906101000a900460ff1680929190610ce190615c06565b91906101000a81548160ff021916908360ff160217905550506000600281819054906101000a900460ff1680929190610d1990615c06565b91906101000a81548160ff021916908360ff160217905550507f3caa42ff5cce41956b36e51d96f7586ad16e90ecd64f1489794875c66236da5b6003604051610d6291906153b2565b60405180910390a17f9eda563474dcf999b0332c34dedb9066a385693682ea01c43234fa4e95668a0e610d93612125565b604051610da09190615411565b60405180910390a150505050565b600060049054906101000a900460ff1681565b8060038360ff1681548110610dff577f4e487b7100000000000000000000000000000000000000000000000000000000600052603260045260246000fd5b90600052602060002090600602016003016000828254610e1f91906156cb565b925050819055508060038360ff1681548110610e64577f4e487b7100000000000000000000000000000000000000000000000000000000600052603260045260246000fd5b906000526020600020906006020160040181905550600060038360ff1681548110610eb8577f4e487b7100000000000000000000000000000000000000000000000000000000600052603260045260246000fd5b906000526020600020906006020160050160056101000a81548160ff0219169083151502179055508060016000828254610ef2919061563e565b9250508190555060006001905060005b600060019054906101000a900460ff1660ff168160ff161015610f9f576001151560038260ff1681548110610f60577f4e487b7100000000000000000000000000000000000000000000000000000000600052603260045260246000fd5b906000526020600020906006020160050160059054906101000a900460ff1615151415610f8c57600091505b8080610f9790615c06565b915050610f02565b50600115158115151415610fca576003600560006101000a81548160ff021916908360ff1602179055505b7f3caa42ff5cce41956b36e51d96f7586ad16e90ecd64f1489794875c66236da5b6003604051610ffa91906153b2565b60405180910390a17f4e56b265471bd01ae52b36ae93b5d6e432e780cf55f7c1ce2f954415d060ec88600560009054906101000a900460ff16604051611040919061542c565b60405180910390a17ff92f581b6e2e176314bf0dd0c1f2b7adb5c970b0bfb8841aacc182346fd210296001546040516110799190615411565b60405180910390a1505050565b600060039054906101000a900460ff1681565b600060038260ff16815481106110d8577f4e487b7100000000000000000000000000000000000000000000000000000000600052603260045260246000fd5b906000526020600020906006020160030154905034816110f8919061563e565b60038360ff1681548110611135577f4e487b7100000000000000000000000000000000000000000000000000000000600052603260045260246000fd5b9060005260206000209060060201600301819055507f3caa42ff5cce41956b36e51d96f7586ad16e90ecd64f1489794875c66236da5b600360405161117a91906153b2565b60405180910390a17f9eda563474dcf999b0332c34dedb9066a385693682ea01c43234fa4e95668a0e6111ab612125565b6040516111b89190615411565b60405180910390a15050565b600060019054906101000a900460ff1681565b5b60008060019054906101000a900460ff1660ff1611156114e45760006001600060019054906101000a900460ff1661121091906156ff565b905060038160ff168154811061124f577f4e487b7100000000000000000000000000000000000000000000000000000000600052603260045260246000fd5b906000526020600020906006020160000160009054906101000a900473ffffffffffffffffffffffffffffffffffffffff1673ffffffffffffffffffffffffffffffffffffffff166108fc60038360ff16815481106112d7577f4e487b7100000000000000000000000000000000000000000000000000000000600052603260045260246000fd5b90600052602060002090600602016004015460038460ff1681548110611326577f4e487b7100000000000000000000000000000000000000000000000000000000600052603260045260246000fd5b906000526020600020906006020160030154611342919061563e565b9081150290604051600060405180830381858888f1935050505015801561136d573d6000803e3d6000fd5b506000600181819054906101000a900460ff168092919061138d906157cc565b91906101000a81548160ff021916908360ff1602179055505060038054806113de577f4e487b7100000000000000000000000000000000000000000000000000000000600052603160045260246000fd5b6001900381819060005260206000209060060201600080820160006101000a81549073ffffffffffffffffffffffffffffffffffffffff021916905560018201600061142a9190613b26565b6002820160006101000a81549060ff0219169055600382016000905560048201600090556005820160006101000a81549060ff02191690556005820160016101000a81549060ff02191690556005820160026101000a81549060ff02191690556005820160036101000a81549060ff02191690556005820160046101000a81549060ff02191690556005820160056101000a81549060ff02191690556005820160066101000a81549060ff021916905550509055506111d8565b6114ec61212d565b60008060026101000a81548160ff021916908360ff160217905550600060018190555060008060036101000a81548160ff021916908360ff16021790555060008060046101000a81548160ff021916908360ff1602179055506000600560006101000a81548160ff021916908360ff16021790555060006001819055506001600260006101000a81548160ff021916908360ff1602179055506001600260016101000a81548160ff021916908360ff1602179055507f3caa42ff5cce41956b36e51d96f7586ad16e90ecd64f1489794875c66236da5b60036040516115d191906153b2565b60405180910390a1565b60006115e6826121a5565b90506003600060039054906101000a900460ff1660ff1681548110611634577f4e487b7100000000000000000000000000000000000000000000000000000000600052603260045260246000fd5b90600052602060002090600602016001018190806001815401808255809150506001900390600052602060002001600090919091909150906004611679929190613b47565b50806003600481106116b4577f4e487b7100000000000000000000000000000000000000000000000000000000600052603260045260246000fd5b60200201516003600060039054906101000a900460ff1660ff1681548110611705577f4e487b7100000000000000000000000000000000000000000000000000000000600052603260045260246000fd5b906000526020600020906006020160020160006101000a81548160ff021916908360ff16021790555060006003600060039054906101000a900460ff1660ff168154811061177c577f4e487b7100000000000000000000000000000000000000000000000000000000600052603260045260246000fd5b906000526020600020906006020160050160026101000a81548160ff02191690831515021790555060016003600060039054906101000a900460ff1660ff16815481106117f2577f4e487b7100000000000000000000000000000000000000000000000000000000600052603260045260246000fd5b906000526020600020906006020160050160066101000a81548160ff0219169083151502179055506000600381819054906101000a900460ff168092919061183990615c06565b91906101000a81548160ff021916908360ff16021790555050600060019054906101000a900460ff1660ff16600060039054906101000a900460ff1660ff16106118995760008060036101000a81548160ff021916908360ff1602179055505b60016003600060039054906101000a900460ff1660ff16815481106118e7577f4e487b7100000000000000000000000000000000000000000000000000000000600052603260045260246000fd5b906000526020600020906006020160050160026101000a81548160ff0219169083151502179055506119176127d1565b61191f61212d565b61192761293c565b7fa0f9f52678909970c868491aa543b6fc87543eb74934cafd9a3de360ff7bf6f1600060039054906101000a900460ff1682600060048110611992577f4e487b7100000000000000000000000000000000000000000000000000000000600052603260045260246000fd5b6020020151836001600481106119d1577f4e487b7100000000000000000000000000000000000000000000000000000000600052603260045260246000fd5b602002015184600260048110611a10577f4e487b7100000000000000000000000000000000000000000000000000000000600052603260045260246000fd5b602002015185600360048110611a4f577f4e487b7100000000000000000000000000000000000000000000000000000000600052603260045260246000fd5b6020020151604051611a65959493929190615447565b60405180910390a17f5a7a12ef92355b7ec2d71d97f5c3f030b63c513cd7d6a9b800324ad50ffca7926004604051611a9d91906153d4565b60405180910390a16000611aaf612bb6565b90507feeea12739c129d1f238ef77123bfc366d75adec773ac930bc689bf12cdea062381604051611ae091906153f6565b60405180910390a18015611b5a576004600560006101000a81548160ff021916908360ff1602179055506000600260016101000a81548160ff021916908360ff16021790555060016004805490501115611b4157611b3c612c61565b611b59565b60016004805490501415611b5857611b57612cdb565b5b5b5b7f3caa42ff5cce41956b36e51d96f7586ad16e90ecd64f1489794875c66236da5b6003604051611b8a91906153b2565b60405180910390a17f3c4354e4b45e8e4568dc8e3a4db004932d24f8d2086fa0ec2db653cd3e8dcd13600260009054906101000a900460ff16604051611bd0919061542c565b60405180910390a17f4e56b265471bd01ae52b36ae93b5d6e432e780cf55f7c1ce2f954415d060ec88600560009054906101000a900460ff16604051611c16919061542c565b60405180910390a17fc10f7f17f63e8d93f47783cd5e4fb4ca75a5ead0404e4ef93fd6c497817ac524600060039054906101000a900460ff16604051611c5c919061542c565b60405180910390a150505050565b600060029054906101000a900460ff1681565b6000600481819054906101000a900460ff1680929190611c9c90615c06565b91906101000a81548160ff021916908360ff16021790555050600060019054906101000a900460ff1660ff16600060049054906101000a900460ff1660ff1610611cfc5760008060046101000a81548160ff021916908360ff1602179055505b565b6003805490508160ff1610611d1257612122565b60008190505b6001600380549050611d2a91906156cb565b8160ff161015611fe8576003600182611d439190615694565b60ff1681548110611d7d577f4e487b7100000000000000000000000000000000000000000000000000000000600052603260045260246000fd5b906000526020600020906006020160038260ff1681548110611dc8577f4e487b7100000000000000000000000000000000000000000000000000000000600052603260045260246000fd5b90600052602060002090600602016000820160009054906101000a900473ffffffffffffffffffffffffffffffffffffffff168160000160006101000a81548173ffffffffffffffffffffffffffffffffffffffff021916908373ffffffffffffffffffffffffffffffffffffffff1602179055506001820181600101908054611e53929190613be1565b506002820160009054906101000a900460ff168160020160006101000a81548160ff021916908360ff16021790555060038201548160030155600482015481600401556005820160009054906101000a900460ff168160050160006101000a81548160ff0219169083151502179055506005820160019054906101000a900460ff168160050160016101000a81548160ff021916908360ff1602179055506005820160029054906101000a900460ff168160050160026101000a81548160ff0219169083151502179055506005820160039054906101000a900460ff168160050160036101000a81548160ff0219169083151502179055506005820160049054906101000a900460ff168160050160046101000a81548160ff0219169083151502179055506005820160059054906101000a900460ff168160050160056101000a81548160ff0219169083151502179055506005820160069054906101000a900460ff168160050160066101000a81548160ff0219169083151502179055509050508080611fe090615c06565b915050611d18565b506003805480612021577f4e487b7100000000000000000000000000000000000000000000000000000000600052603160045260246000fd5b6001900381819060005260206000209060060201600080820160006101000a81549073ffffffffffffffffffffffffffffffffffffffff021916905560018201600061206d9190613b26565b6002820160006101000a81549060ff0219169055600382016000905560048201600090556005820160006101000a81549060ff02191690556005820160016101000a81549060ff02191690556005820160026101000a81549060ff02191690556005820160036101000a81549060ff02191690556005820160046101000a81549060ff02191690556005820160056101000a81549060ff02191690556005820160066101000a81549060ff0219169055505090555b50565b600047905090565b5b600060048054905011156121a3576004805480612174577f4e487b7100000000000000000000000000000000000000000000000000000000600052603160045260246000fd5b60019003818190600052602060002090602091828204019190066101000a81549060ff0219169055905561212e565b565b6121ad613c40565b60008060007ff47d4275428bed058dc18be1bcba0dbe7e2893237e45c4d55a85a089c98c85f3858660006019811061220e577f4e487b7100000000000000000000000000000000000000000000000000000000600052603260045260246000fd5b602002015160006003811061224c577f4e487b7100000000000000000000000000000000000000000000000000000000600052603260045260246000fd5b60200201518760006019811061228b577f4e487b7100000000000000000000000000000000000000000000000000000000600052603260045260246000fd5b60200201516001600381106122c9577f4e487b7100000000000000000000000000000000000000000000000000000000600052603260045260246000fd5b602002015188600060198110612308577f4e487b7100000000000000000000000000000000000000000000000000000000600052603260045260246000fd5b6020020151600260038110612346577f4e487b7100000000000000000000000000000000000000000000000000000000600052603260045260246000fd5b602002015160405161235b9493929190615369565b60405180910390a161236b613c62565b5b8315801561237d575060198360ff16105b1561261357858360ff16601981106123be577f4e487b7100000000000000000000000000000000000000000000000000000000600052603260045260246000fd5b60200201516000600381106123fc577f4e487b7100000000000000000000000000000000000000000000000000000000600052603260045260246000fd5b60200201518160006003811061243b577f4e487b7100000000000000000000000000000000000000000000000000000000600052603260045260246000fd5b602002019060ff16908160ff1681525050858360ff1660198110612488577f4e487b7100000000000000000000000000000000000000000000000000000000600052603260045260246000fd5b60200201516001600381106124c6577f4e487b7100000000000000000000000000000000000000000000000000000000600052603260045260246000fd5b602002015181600160038110612505577f4e487b7100000000000000000000000000000000000000000000000000000000600052603260045260246000fd5b602002019060ff16908160ff1681525050858360ff1660198110612552577f4e487b7100000000000000000000000000000000000000000000000000000000600052603260045260246000fd5b6020020151600260038110612590577f4e487b7100000000000000000000000000000000000000000000000000000000600052603260045260246000fd5b6020020151816002600381106125cf577f4e487b7100000000000000000000000000000000000000000000000000000000600052603260045260246000fd5b602002019060ff16908160ff16815250506125e981612ea3565b915060008260ff16146125ff576001935061260e565b828061260a90615c06565b9350505b61236c565b6040518060800160405280878560ff166019811061265a577f4e487b7100000000000000000000000000000000000000000000000000000000600052603260045260246000fd5b6020020151600060038110612698577f4e487b7100000000000000000000000000000000000000000000000000000000600052603260045260246000fd5b602002015160ff1660ff168152602001878560ff16601981106126e4577f4e487b7100000000000000000000000000000000000000000000000000000000600052603260045260246000fd5b6020020151600160038110612722577f4e487b7100000000000000000000000000000000000000000000000000000000600052603260045260246000fd5b602002015160ff1660ff168152602001878560ff166019811061276e577f4e487b7100000000000000000000000000000000000000000000000000000000600052603260045260246000fd5b60200201516002600381106127ac577f4e487b7100000000000000000000000000000000000000000000000000000000600052603260045260246000fd5b602002015160ff1660ff1681526020018360ff1660ff16815250945050505050919050565b60005b600060019054906101000a900460ff1660ff168160ff1610156128f357600260019054906101000a900460ff1660ff1660038260ff1681548110612841577f4e487b7100000000000000000000000000000000000000000000000000000000600052603260045260246000fd5b906000526020600020906006020160020160009054906101000a900460ff1660ff1611156128e05760038160ff16815481106128a6577f4e487b7100000000000000000000000000000000000000000000000000000000600052603260045260246000fd5b906000526020600020906006020160020160009054906101000a900460ff16600260016101000a81548160ff021916908360ff1602179055505b80806128eb90615c06565b9150506127d4565b507f4f9d0b859b5216bbf1e4db5a57a01eb1477b780ca7d539a3ea03ac705017ad9c600260019054906101000a900460ff16604051612932919061542c565b60405180910390a1565b60005b6003805490508160ff161015612bb357600260019054906101000a900460ff1660ff1660038260ff168154811061299f577f4e487b7100000000000000000000000000000000000000000000000000000000600052603260045260246000fd5b906000526020600020906006020160020160009054906101000a900460ff1660ff1610612b4057600460038260ff1681548110612a05577f4e487b7100000000000000000000000000000000000000000000000000000000600052603260045260246000fd5b906000526020600020906006020160050160019054906101000a900460ff1690806001815401808255809150506001900390600052602060002090602091828204019190069091909190916101000a81548160ff021916908360ff1602179055506001151560038260ff1681548110612aa7577f4e487b7100000000000000000000000000000000000000000000000000000000600052603260045260246000fd5b906000526020600020906006020160050160009054906101000a9050505060038160ff1681548110612b02577f4e487b7100000000000000000000000000000000000000000000000000000000600052603260045260246000fd5b906000526020600020906006020160020160009054906101000a900460ff16600260016101000a81548160ff021916908360ff160217905550612ba0565b6000151560038260ff1681548110612b81577f4e487b7100000000000000000000000000000000000000000000000000000000600052603260045260246000fd5b906000526020600020906006020160050160009054906101000a905050505b8080612bab90615c06565b91505061293f565b50565b600080600090505b600060019054906101000a900460ff1660ff168160ff161015612c585760038160ff1681548110612c18577f4e487b7100000000000000000000000000000000000000000000000000000000600052603260045260246000fd5b906000526020600020906006020160050160069054906101000a900460ff16612c45576000915050612c5e565b8080612c5090615c06565b915050612bbe565b50600190505b90565b6002600081819054906101000a900460ff1680929190612c8090615c06565b91906101000a81548160ff021916908360ff160217905550506002600560006101000a81548160ff021916908360ff1602179055506001600260016101000a81548160ff021916908360ff160217905550612cd961306b565b565b60015460036004600081548110612d1b577f4e487b7100000000000000000000000000000000000000000000000000000000600052603260045260246000fd5b90600052602060002090602091828204019190069054906101000a900460ff1660ff1681548110612d75577f4e487b7100000000000000000000000000000000000000000000000000000000600052603260045260246000fd5b90600052602060002090600602016003016000828254612d95919061563e565b925050819055506001600260006101000a81548160ff021916908360ff1602179055506000600560006101000a81548160ff021916908360ff1602179055506001600260016101000a81548160ff021916908360ff1602179055506000600481819054906101000a900460ff1680929190612e0f90615c06565b91906101000a81548160ff021916908360ff16021790555050600060019054906101000a900460ff1660ff16600060049054906101000a900460ff1660ff1610612e6f5760008060046101000a81548160ff021916908360ff1602179055505b600060049054906101000a900460ff16600060036101000a81548160ff021916908360ff160217905550612ea1613511565b565b60008082600060038110612ee0577f4e487b7100000000000000000000000000000000000000000000000000000000600052603260045260246000fd5b60200201519050600083600160038110612f23577f4e487b7100000000000000000000000000000000000000000000000000000000600052603260045260246000fd5b60200201519050600084600260038110612f66577f4e487b7100000000000000000000000000000000000000000000000000000000600052603260045260246000fd5b602002015190508160ff168360ff16148015612f8757508060ff168260ff16145b15612f9f57612f95836139b7565b9350505050613066565b8160ff168360ff161415612fc057612fb681613a41565b9350505050613066565b8060ff168360ff161415612fe157612fd782613a41565b9350505050613066565b8060ff168260ff16141561300257612ff883613a41565b9350505050613066565b600f8183856130119190615694565b61301b9190615694565b60ff16141561303057600e9350505050613066565b600681838561303f9190615694565b6130499190615694565b60ff16141561305e5760019350505050613066565b600093505050505b919050565b606060005b6003805490508160ff16101561350d578160038260ff16815481106130be577f4e487b7100000000000000000000000000000000000000000000000000000000600052603260045260246000fd5b906000526020600020906006020160010190805190602001906130e2929190613acb565b50600060038260ff1681548110613122577f4e487b7100000000000000000000000000000000000000000000000000000000600052603260045260246000fd5b906000526020600020906006020160020160006101000a81548160ff021916908360ff160217905550600060038260ff168154811061318a577f4e487b7100000000000000000000000000000000000000000000000000000000600052603260045260246000fd5b906000526020600020906006020160040181905550600160038260ff16815481106131de577f4e487b7100000000000000000000000000000000000000000000000000000000600052603260045260246000fd5b906000526020600020906006020160050160006101000a81548160ff021916908315150217905550600060049054906101000a900460ff1660ff168160ff1614156132f657600160038260ff1681548110613262577f4e487b7100000000000000000000000000000000000000000000000000000000600052603260045260246000fd5b906000526020600020906006020160050160026101000a81548160ff021916908315150217905550600160038260ff16815481106132c9577f4e487b7100000000000000000000000000000000000000000000000000000000600052603260045260246000fd5b906000526020600020906006020160050160036101000a81548160ff0219169083151502179055506133c5565b600060038260ff1681548110613335577f4e487b7100000000000000000000000000000000000000000000000000000000600052603260045260246000fd5b906000526020600020906006020160050160026101000a81548160ff021916908315150217905550600060038260ff168154811061339c577f4e487b7100000000000000000000000000000000000000000000000000000000600052603260045260246000fd5b906000526020600020906006020160050160036101000a81548160ff0219169083151502179055505b600060038260ff1681548110613404577f4e487b7100000000000000000000000000000000000000000000000000000000600052603260045260246000fd5b906000526020600020906006020160050160046101000a81548160ff021916908315150217905550600160038260ff168154811061346b577f4e487b7100000000000000000000000000000000000000000000000000000000600052603260045260246000fd5b906000526020600020906006020160050160056101000a81548160ff021916908315150217905550600060038260ff16815481106134d2577f4e487b7100000000000000000000000000000000000000000000000000000000600052603260045260246000fd5b906000526020600020906006020160050160066101000a81548160ff021916908315150217905550808061350590615c06565b915050613070565b5050565b606060005b6003805490508160ff1610156139b3578160038260ff1681548110613564577f4e487b7100000000000000000000000000000000000000000000000000000000600052603260045260246000fd5b90600052602060002090600602016001019080519060200190613588929190613acb565b50600060038260ff16815481106135c8577f4e487b7100000000000000000000000000000000000000000000000000000000600052603260045260246000fd5b906000526020600020906006020160020160006101000a81548160ff021916908360ff160217905550600060038260ff1681548110613630577f4e487b7100000000000000000000000000000000000000000000000000000000600052603260045260246000fd5b906000526020600020906006020160040181905550600160038260ff1681548110613684577f4e487b7100000000000000000000000000000000000000000000000000000000600052603260045260246000fd5b906000526020600020906006020160050160006101000a81548160ff021916908315150217905550600060049054906101000a900460ff1660ff168160ff16141561379c57600160038260ff1681548110613708577f4e487b7100000000000000000000000000000000000000000000000000000000600052603260045260246000fd5b906000526020600020906006020160050160026101000a81548160ff021916908315150217905550600160038260ff168154811061376f577f4e487b7100000000000000000000000000000000000000000000000000000000600052603260045260246000fd5b906000526020600020906006020160050160036101000a81548160ff02191690831515021790555061386b565b600060038260ff16815481106137db577f4e487b7100000000000000000000000000000000000000000000000000000000600052603260045260246000fd5b906000526020600020906006020160050160026101000a81548160ff021916908315150217905550600060038260ff1681548110613842577f4e487b7100000000000000000000000000000000000000000000000000000000600052603260045260246000fd5b906000526020600020906006020160050160036101000a81548160ff0219169083151502179055505b600060038260ff16815481106138aa577f4e487b7100000000000000000000000000000000000000000000000000000000600052603260045260246000fd5b906000526020600020906006020160050160046101000a81548160ff021916908315150217905550600060038260ff1681548110613911577f4e487b7100000000000000000000000000000000000000000000000000000000600052603260045260246000fd5b906000526020600020906006020160050160056101000a81548160ff021916908315150217905550600060038260ff1681548110613978577f4e487b7100000000000000000000000000000000000000000000000000000000600052603260045260246000fd5b906000526020600020906006020160050160066101000a81548160ff02191690831515021790555080806139ab90615c06565b915050613516565b5050565b600060018260ff1614156139ce5760089050613a3c565b60028260ff1614156139e35760099050613a3c565b60038260ff1614156139f857600a9050613a3c565b60048260ff161415613a0d57600b9050613a3c565b60058260ff161415613a2257600c9050613a3c565b60068260ff161415613a3757600d9050613a3c565b600090505b919050565b600060018260ff161415613a585760029050613ac6565b60028260ff161415613a6d5760039050613ac6565b60038260ff161415613a825760049050613ac6565b60048260ff161415613a975760059050613ac6565b60058260ff161415613aac5760069050613ac6565b60068260ff161415613ac15760079050613ac6565b600090505b919050565b828054828255906000526020600020908101928215613b15579160200282015b82811115613b1457825182906004613b04929190613b47565b5091602001919060010190613aeb565b5b509050613b229190613c84565b5090565b5080546000825590600052602060002090810190613b449190613c84565b50565b826004601f01602090048101928215613bd05791602002820160005b83821115613ba157835183826101000a81548160ff021916908360ff1602179055509260200192600101602081600001049283019260010302613b63565b8015613bce5782816101000a81549060ff0219169055600101602081600001049283019260010302613ba1565b505b509050613bdd9190613ca8565b5090565b828054828255906000526020600020908101928215613c2f5760005260206000209182015b82811115613c2e578282906004613c1e929190613cc5565b5091600101919060010190613c06565b5b509050613c3c9190613c84565b5090565b6040518060800160405280600490602082028036833780820191505090505090565b6040518060600160405280600390602082028036833780820191505090505090565b5b80821115613ca45760008181613c9b9190613d10565b50600101613c85565b5090565b5b80821115613cc1576000816000905550600101613ca9565b5090565b826004601f01602090048101928215613cff5791601f016020900482015b82811115613cfe578254825591600101919060010190613ce3565b5b509050613d0c9190613ca8565b5090565b5060009055565b6000613d2a613d25846154cb565b61549a565b90508082856060860282011115613d4057600080fd5b60005b85811015613d705781613d568882613e19565b845260208401935060608301925050600181019050613d43565b5050509392505050565b6000613d8d613d88846154f1565b61549a565b90508082856020860282011115613da357600080fd5b60005b85811015613dd35781613db98882613e55565b845260208401935060208301925050600181019050613da6565b5050509392505050565b600081359050613dec81615e2e565b92915050565b600082601f830112613e0357600080fd5b6019613e10848285613d17565b91505092915050565b600082601f830112613e2a57600080fd5b6003613e37848285613d7a565b91505092915050565b600081359050613e4f81615e45565b92915050565b600081359050613e6481615e5c565b92915050565b60008060408385031215613e7d57600080fd5b6000613e8b85828601613ddd565b9250506020613e9c85828601613e40565b9150509250929050565b600060208284031215613eb857600080fd5b6000613ec684828501613e40565b91505092915050565b600060208284031215613ee157600080fd5b6000613eef84828501613e55565b91505092915050565b6000806109808385031215613f0c57600080fd5b6000613f1a85828601613e55565b9250506020613f2b85828601613df2565b9150509250929050565b60008060408385031215613f4857600080fd5b6000613f5685828601613e55565b9250506020613f6785828601613e40565b9150509250929050565b6000613f7d8383614104565b60608301905092915050565b6000613f95838361415b565b60808301905092915050565b6000613fad83836151dd565b905092915050565b6000613fc1838361534b565b60208301905092915050565b613fd681615777565b82525050565b613fe581615574565b613fef81846155ea565b9250613ffa82615517565b8060005b8381101561402b5781516140128782613f71565b965061401d836155b6565b925050600181019050613ffe565b505050505050565b600061403e8261557f565b61404881856155f5565b935061405383615521565b8060005b83811015614083578161406a8882613f89565b9750614075836155c3565b925050600181019050614057565b5085935050505092915050565b600061409b8261558a565b6140a58185615606565b9350836020820285016140b785615536565b8060005b858110156140f2578484038952816140d38582613fa1565b94506140de836155d0565b925060208a019950506001810190506140bb565b50829750879550505050505092915050565b61410d81615595565b6141178184615617565b92506141228261554b565b8060005b8381101561415357815161413a8782613fb5565b9650614145836155dd565b925050600181019050614126565b505050505050565b614164816155a0565b61416e8184615622565b92508261417a83615555565b600080156144a6575b836001602003820110156144a55781546141a5876141a083615844565b61534b565b6020870196506141bd876141b883615962565b61534b565b6020870196506141d5876141d083615a9a565b61534b565b6020870196506141ed876141e883615b02565b61534b565b6020870196506142058761420083615b36565b61534b565b60208701965061421d8761421883615b6a565b61534b565b6020870196506142358761423083615b9e565b61534b565b60208701965061424d8761424883615bb8565b61534b565b6020870196506142658761426083615bd2565b61534b565b60208701965061427d8761427883615bec565b61534b565b602087019650614295876142908361585e565b61534b565b6020870196506142ad876142a883615878565b61534b565b6020870196506142c5876142c083615892565b61534b565b6020870196506142dd876142d8836158ac565b61534b565b6020870196506142f5876142f0836158c6565b61534b565b60208701965061430d87614308836158e0565b61534b565b60208701965061432587614320836158fa565b61534b565b60208701965061433d8761433883615914565b61534b565b602087019650614355876143508361592e565b61534b565b60208701965061436d8761436883615948565b61534b565b602087019650614385876143808361597c565b61534b565b60208701965061439d8761439883615996565b61534b565b6020870196506143b5876143b0836159b0565b61534b565b6020870196506143cd876143c8836159ca565b61534b565b6020870196506143e5876143e0836159e4565b61534b565b6020870196506143fd876143f8836159fe565b61534b565b6020870196506144158761441083615a18565b61534b565b60208701965061442d8761442883615a32565b61534b565b6020870196506144458761444083615a4c565b61534b565b60208701965061445d8761445883615a66565b61534b565b6020870196506144758761447083615ab4565b61534b565b60208701965061448d8761448883615ace565b61534b565b60208701965060018301925050602081019050614183565b5b6001156149715781546001156144d5576144c8876144c383615844565b61534b565b6020870196506001820191505b6001156144fb576144ee876144e983615962565b61534b565b6020870196506001820191505b600115614521576145148761450f83615a9a565b61534b565b6020870196506001820191505b6001156145475761453a8761453583615b02565b61534b565b6020870196506001820191505b60001561456d576145608761455b83615b36565b61534b565b6020870196506001820191505b600015614593576145868761458183615b6a565b61534b565b6020870196506001820191505b6000156145b9576145ac876145a783615b9e565b61534b565b6020870196506001820191505b6000156145df576145d2876145cd83615bb8565b61534b565b6020870196506001820191505b600015614605576145f8876145f383615bd2565b61534b565b6020870196506001820191505b60001561462b5761461e8761461983615bec565b61534b565b6020870196506001820191505b600015614651576146448761463f8361585e565b61534b565b6020870196506001820191505b6000156146775761466a8761466583615878565b61534b565b6020870196506001820191505b60001561469d576146908761468b83615892565b61534b565b6020870196506001820191505b6000156146c3576146b6876146b1836158ac565b61534b565b6020870196506001820191505b6000156146e9576146dc876146d7836158c6565b61534b565b6020870196506001820191505b60001561470f57614702876146fd836158e0565b61534b565b6020870196506001820191505b6000156147355761472887614723836158fa565b61534b565b6020870196506001820191505b60001561475b5761474e8761474983615914565b61534b565b6020870196506001820191505b600015614781576147748761476f8361592e565b61534b565b6020870196506001820191505b6000156147a75761479a8761479583615948565b61534b565b6020870196506001820191505b6000156147cd576147c0876147bb8361597c565b61534b565b6020870196506001820191505b6000156147f3576147e6876147e183615996565b61534b565b6020870196506001820191505b6000156148195761480c87614807836159b0565b61534b565b6020870196506001820191505b60001561483f576148328761482d836159ca565b61534b565b6020870196506001820191505b6000156148655761485887614853836159e4565b61534b565b6020870196506001820191505b60001561488b5761487e87614879836159fe565b61534b565b6020870196506001820191505b6000156148b1576148a48761489f83615a18565b61534b565b6020870196506001820191505b6000156148d7576148ca876148c583615a32565b61534b565b6020870196506001820191505b6000156148fd576148f0876148eb83615a4c565b61534b565b6020870196506001820191505b600015614923576149168761491183615a66565b61534b565b6020870196506001820191505b6000156149495761493c8761493783615ab4565b61534b565b6020870196506001820191505b60001561496f576149628761495d83615ace565b61534b565b6020870196506001820191505b505b505050505050565b6000614984826155ab565b61498e818561562d565b93508361499a8461555f565b6000600115614cc7575b83600160200382011015614cc65781546149c6886149c183615844565b61534b565b6020880197506149de886149d983615962565b61534b565b6020880197506149f6886149f183615a9a565b61534b565b602088019750614a0e88614a0983615b02565b61534b565b602088019750614a2688614a2183615b36565b61534b565b602088019750614a3e88614a3983615b6a565b61534b565b602088019750614a5688614a5183615b9e565b61534b565b602088019750614a6e88614a6983615bb8565b61534b565b602088019750614a8688614a8183615bd2565b61534b565b602088019750614a9e88614a9983615bec565b61534b565b602088019750614ab688614ab18361585e565b61534b565b602088019750614ace88614ac983615878565b61534b565b602088019750614ae688614ae183615892565b61534b565b602088019750614afe88614af9836158ac565b61534b565b602088019750614b1688614b11836158c6565b61534b565b602088019750614b2e88614b29836158e0565b61534b565b602088019750614b4688614b41836158fa565b61534b565b602088019750614b5e88614b5983615914565b61534b565b602088019750614b7688614b718361592e565b61534b565b602088019750614b8e88614b8983615948565b61534b565b602088019750614ba688614ba18361597c565b61534b565b602088019750614bbe88614bb983615996565b61534b565b602088019750614bd688614bd1836159b0565b61534b565b602088019750614bee88614be9836159ca565b61534b565b602088019750614c0688614c01836159e4565b61534b565b602088019750614c1e88614c19836159fe565b61534b565b602088019750614c3688614c3183615a18565b61534b565b602088019750614c4e88614c4983615a32565b61534b565b602088019750614c6688614c6183615a4c565b61534b565b602088019750614c7e88614c7983615a66565b61534b565b602088019750614c9688614c9183615ab4565b61534b565b602088019750614cae88614ca983615ace565b61534b565b602088019750600183019250506020810190506149a4565b5b6001156151b257815484821015614cf757614cea88614ce583615844565b61534b565b6020880197506001820191505b84821015614d1e57614d1188614d0c83615962565b61534b565b6020880197506001820191505b84821015614d4557614d3888614d3383615a9a565b61534b565b6020880197506001820191505b84821015614d6c57614d5f88614d5a83615b02565b61534b565b6020880197506001820191505b84821015614d9357614d8688614d8183615b36565b61534b565b6020880197506001820191505b84821015614dba57614dad88614da883615b6a565b61534b565b6020880197506001820191505b84821015614de157614dd488614dcf83615b9e565b61534b565b6020880197506001820191505b84821015614e0857614dfb88614df683615bb8565b61534b565b6020880197506001820191505b84821015614e2f57614e2288614e1d83615bd2565b61534b565b6020880197506001820191505b84821015614e5657614e4988614e4483615bec565b61534b565b6020880197506001820191505b84821015614e7d57614e7088614e6b8361585e565b61534b565b6020880197506001820191505b84821015614ea457614e9788614e9283615878565b61534b565b6020880197506001820191505b84821015614ecb57614ebe88614eb983615892565b61534b565b6020880197506001820191505b84821015614ef257614ee588614ee0836158ac565b61534b565b6020880197506001820191505b84821015614f1957614f0c88614f07836158c6565b61534b565b6020880197506001820191505b84821015614f4057614f3388614f2e836158e0565b61534b565b6020880197506001820191505b84821015614f6757614f5a88614f55836158fa565b61534b565b6020880197506001820191505b84821015614f8e57614f8188614f7c83615914565b61534b565b6020880197506001820191505b84821015614fb557614fa888614fa38361592e565b61534b565b6020880197506001820191505b84821015614fdc57614fcf88614fca83615948565b61534b565b6020880197506001820191505b8482101561500357614ff688614ff18361597c565b61534b565b6020880197506001820191505b8482101561502a5761501d8861501883615996565b61534b565b6020880197506001820191505b84821015615051576150448861503f836159b0565b61534b565b6020880197506001820191505b848210156150785761506b88615066836159ca565b61534b565b6020880197506001820191505b8482101561509f576150928861508d836159e4565b61534b565b6020880197506001820191505b848210156150c6576150b9886150b4836159fe565b61534b565b6020880197506001820191505b848210156150ed576150e0886150db83615a18565b61534b565b6020880197506001820191505b84821015615114576151078861510283615a32565b61534b565b6020880197506001820191505b8482101561513b5761512e8861512983615a4c565b61534b565b6020880197506001820191505b84821015615162576151558861515083615a66565b61534b565b6020880197506001820191505b848210156151895761517c8861517783615ab4565b61534b565b6020880197506001820191505b848210156151b0576151a38861519e83615ace565b61534b565b6020880197506001820191505b505b8694505050505092915050565b6151c881615789565b82525050565b6151d781615789565b82525050565b6000610180830160008084015490506151f5816157f6565b6152026000870182613fcd565b506001840185830360208701526152198382614033565b9250506002840154905061522c81615844565b615239604087018261534b565b506003840154905061524a8161582a565b615257606087018261532d565b50600484015490506152688161582a565b615275608087018261532d565b506005840154905061528681615810565b61529360a08701826151bf565b5061529d81615962565b6152aa60c087018261534b565b506152b481615a80565b6152c160e08701826151bf565b506152cb81615ae8565b6152d96101008701826151bf565b506152e381615b1c565b6152f16101208701826151bf565b506152fb81615b50565b6153096101408701826151bf565b5061531381615b84565b6153216101608701826151bf565b50819250505092915050565b615336816157b5565b82525050565b615345816157b5565b82525050565b615354816157bf565b82525050565b615363816157bf565b82525050565b60006109c08201905061537f6000830187613fdc565b61538d61096083018661535a565b61539b61098083018561535a565b6153a96109a083018461535a565b95945050505050565b600060208201905081810360008301526153cc8184614090565b905092915050565b600060208201905081810360008301526153ee8184614979565b905092915050565b600060208201905061540b60008301846151ce565b92915050565b6000602082019050615426600083018461533c565b92915050565b6000602082019050615441600083018461535a565b92915050565b600060a08201905061545c600083018861535a565b615469602083018761535a565b615476604083018661535a565b615483606083018561535a565b615490608083018461535a565b9695505050505050565b6000604051905081810181811067ffffffffffffffff821117156154c1576154c0615c5f565b5b8060405250919050565b600067ffffffffffffffff8211156154e6576154e5615c5f565b5b602082029050919050565b600067ffffffffffffffff82111561550c5761550b615c5f565b5b602082029050919050565b6000819050919050565b60008190508160005260206000209050919050565b60008190508160005260206000209050919050565b6000819050919050565b6000819050919050565b60008190508160005260206000209050919050565b600060199050919050565b600081549050919050565b600081549050919050565b600060039050919050565b600060049050919050565b600081549050919050565b6000602082019050919050565b6000600182019050919050565b6000600682019050919050565b6000602082019050919050565b600081905092915050565b600082825260208201905092915050565b600082825260208201905092915050565b600081905092915050565b600081905092915050565b600082825260208201905092915050565b6000615649826157b5565b9150615654836157b5565b9250827fffffffffffffffffffffffffffffffffffffffffffffffffffffffffffffffff0382111561568957615688615c30565b5b828201905092915050565b600061569f826157bf565b91506156aa836157bf565b92508260ff038211156156c0576156bf615c30565b5b828201905092915050565b60006156d6826157b5565b91506156e1836157b5565b9250828210156156f4576156f3615c30565b5b828203905092915050565b600061570a826157bf565b9150615715836157bf565b92508282101561572857615727615c30565b5b828203905092915050565b600073ffffffffffffffffffffffffffffffffffffffff82169050919050565b600060ff82169050919050565b6000819050919050565b600060ff82169050919050565b600061578282615795565b9050919050565b60008115159050919050565b600073ffffffffffffffffffffffffffffffffffffffff82169050919050565b6000819050919050565b600060ff82169050919050565b60006157d7826157bf565b915060008214156157eb576157ea615c30565b5b600182039050919050565b600061580961580483615c8e565b615733565b9050919050565b600061582361581e83615c8e565b615753565b9050919050565b600061583d61583883615c8e565b615760565b9050919050565b600061585761585283615c8e565b61576a565b9050919050565b600061587161586c83615dfa565b61576a565b9050919050565b600061588b61588683615e07565b61576a565b9050919050565b60006158a56158a083615e21565b61576a565b9050919050565b60006158bf6158ba83615c9b565b61576a565b9050919050565b60006158d96158d483615ca8565b61576a565b9050919050565b60006158f36158ee83615cb5565b61576a565b9050919050565b600061590d61590883615cc2565b61576a565b9050919050565b600061592761592283615ccf565b61576a565b9050919050565b600061594161593c83615cdc565b61576a565b9050919050565b600061595b61595683615ce9565b61576a565b9050919050565b600061597561597083615e14565b61576a565b9050919050565b600061598f61598a83615cf6565b61576a565b9050919050565b60006159a96159a483615d03565b61576a565b9050919050565b60006159c36159be83615d1d565b61576a565b9050919050565b60006159dd6159d883615d2a565b61576a565b9050919050565b60006159f76159f283615d37565b61576a565b9050919050565b6000615a11615a0c83615d44565b61576a565b9050919050565b6000615a2b615a2683615d51565b61576a565b9050919050565b6000615a45615a4083615d5e565b61576a565b9050919050565b6000615a5f615a5a83615d6b565b61576a565b9050919050565b6000615a79615a7483615d78565b61576a565b9050919050565b6000615a93615a8e83615d10565b615753565b9050919050565b6000615aad615aa883615d10565b61576a565b9050919050565b6000615ac7615ac283615d85565b61576a565b9050919050565b6000615ae1615adc83615d92565b61576a565b9050919050565b6000615afb615af683615d9f565b615753565b9050919050565b6000615b15615b1083615d9f565b61576a565b9050919050565b6000615b2f615b2a83615dac565b615753565b9050919050565b6000615b49615b4483615dac565b61576a565b9050919050565b6000615b63615b5e83615db9565b615753565b9050919050565b6000615b7d615b7883615db9565b61576a565b9050919050565b6000615b97615b9283615dc6565b615753565b9050919050565b6000615bb1615bac83615dc6565b61576a565b9050919050565b6000615bcb615bc683615dd3565b61576a565b9050919050565b6000615be5615be083615de0565b61576a565b9050919050565b6000615bff615bfa83615ded565b61576a565b9050919050565b6000615c11826157bf565b915060ff821415615c2557615c24615c30565b5b600182019050919050565b7f4e487b7100000000000000000000000000000000000000000000000000000000600052601160045260246000fd5b7f4e487b7100000000000000000000000000000000000000000000000000000000600052604160045260246000fd5b60008160001c9050919050565b60008160681c9050919050565b60008160701c9050919050565b60008160781c9050919050565b60008160801c9050919050565b60008160881c9050919050565b60008160901c9050919050565b60008160981c9050919050565b60008160a01c9050919050565b60008160a81c9050919050565b60008160101c9050919050565b60008160b01c9050919050565b60008160b81c9050919050565b60008160c01c9050919050565b60008160c81c9050919050565b60008160d01c9050919050565b60008160d81c9050919050565b60008160e01c9050919050565b60008160e81c9050919050565b60008160f01c9050919050565b60008160f81c9050919050565b60008160181c9050919050565b60008160201c9050919050565b60008160281c9050919050565b60008160301c9050919050565b60008160381c9050919050565b60008160401c9050919050565b60008160481c9050919050565b60008160501c9050919050565b60008160581c9050919050565b60008160081c9050919050565b60008160601c9050919050565b615e3781615777565b8114615e4257600080fd5b50565b615e4e816157b5565b8114615e5957600080fd5b50565b615e65816157bf565b8114615e7057600080fd5b5056fea2646970667358221220760ab11f7dfc73ffa5902c572e4af69dc5677c6d3851512eab211de282363ac764736f6c63430008000033",
  "immutableReferences": {},
  "source": "// SPDX-License-Identifier: MIT\npragma solidity ^0.8.0;\n\ncontract CeeLow {\n    uint8 public activePlayers;\n    uint8 public numPlayers;\n    uint8 public currentPlayerId;\n    uint8 public turn;\n    uint8 public firstRoll;\n    uint8 constant MAX_PLAYERS = 5;\n    uint8 constant MIN_PLAYERS = 2;\n    uint8 constant MAX_OVERALL_SCORE = 14;\n    uint constant BET_SIZE = 100;\n    uint betPool;\n    uint8 round = 1;\n    uint8 currentHighScore = 1;\n\n    struct Player{\n        address payable addr;\n        uint8[4][] score;\n        uint8 currentScore;\n        uint balance;\n        uint betThisRound;\n        bool inGame;\n        uint8 playerId;\n        bool isTurn;\n        bool isFirstRoll;\n        bool isWaitForBet;\n        bool isWaitForCall;\n        bool hasRolled;\n    }\n    Player[] players;\n    uint8[] winners;\n    // stage of match 0 = between game, 1 = wait for first bet, 2 = wait for calls, 3 = in round, 4 = between rounds \n    uint8 public stageOfMatch = 0; \n    \n    event Turn(uint8 turn);\n    event Players(Player[] players);\n    event Winners(uint8[] winners);\n    event ContractBalance(uint balance);\n    event StageOfMatch(uint8 stageOfMatch);\n    event BetPool(uint betPool);\n    event Rolls(uint8[3][25] rolls, uint8 r1, uint8 r2, uint8 r3);\n    event Scores(uint8 playerId, uint8 s1, uint8 s2, uint8 s3, uint8 currentScore);\n    event Round(uint8 round);\n    event HighScore(uint8 currentHighScore);\n    event AllRolled(bool allRolled);\n\n    function startRound() external{\n        //require(numPlayers > MIN_PLAYERS, \"more players are needed\");\n        //require(playerNum == firstRoll, \"player who has the first turn must act\");\n        //require(stageOfMatch == 0, \"must be between matches to start a match\");\n        //takeBets();\n        stageOfMatch = 1;\n\n        players[firstRoll].isTurn = true;\n        players[firstRoll].isFirstRoll = true;\n        players[firstRoll].isWaitForBet = true;\n        emit Turn(turn);\n        emit Players(players);\n        emit StageOfMatch(stageOfMatch);\n        //emit BetSizes(bets);\n    }\n\n    function takeFirstBet(uint betSize) external {\n        //require(players[firstRoll].balance >= betSize, \"player balance does not cover bet size\");\n        players[firstRoll].balance -= betSize;\n        betPool = betSize;\n        players[firstRoll].betThisRound = betSize;\n        stageOfMatch = 2;\n        players[firstRoll].isWaitForBet = false;\n\n        for(uint8 i = 0; i < numPlayers; i++){\n            if(i != firstRoll){\n                players[i].isWaitForCall = true;\n            }\n        }\n\n        emit Turn(turn);\n        emit Players(players);\n        emit StageOfMatch(stageOfMatch);\n        //emit BetSizes(bets); \n    }\n    \n    function callBet(uint8 playerIndex, uint betSize) external {\n        //require(players[playerIndex].balance >= betSize, \"player balance does not cover bet size\");\n        players[playerIndex].balance -= betSize;\n        players[playerIndex].betThisRound = betSize;\n        players[playerIndex].isWaitForCall = false;\n        betPool += betSize;\n\n        bool allCallsIn = true;\n        for(uint8 i = 0; i < numPlayers; i++){\n            if(players[i].isWaitForCall == true){\n                allCallsIn = false;\n            }\n        }\n        if(allCallsIn == true){\n            stageOfMatch = 3;\n        }\n        emit Players(players);\n        emit StageOfMatch(stageOfMatch);\n        emit BetPool(betPool);\n    }\n\n    function simulateRolls(uint8[3][25] memory rolls) internal returns(uint8[4] memory) {\n        bool isValidRoll;\n        uint8 i;\n        uint8 overallScore;\n\n        emit Rolls(rolls, rolls[0][0], rolls[0][1], rolls[0][2]);\n        uint8[3] memory dieRolls;\n        while(!isValidRoll && i < 25){\n            dieRolls[0] = rolls[i][0];\n            dieRolls[1] = rolls[i][1];\n            dieRolls[2] = rolls[i][2];\n            overallScore = calculateOverallScore(dieRolls);\n\n            if(overallScore != 0) isValidRoll = true;\n            else i++;\n        }\n        return [rolls[i][0], rolls[i][1], rolls[i][2], overallScore];\n    }\n\n    function checkAllRolled() view internal returns (bool){\n        for(uint8 i = 0; i < numPlayers; i++){\n            if(!players[i].hasRolled) return false;\n        }\n        return true;\n    }\n\n    function checkHighScore() internal{\n        for(uint8 i = 0; i < numPlayers; i++){\n            if(players[i].currentScore > currentHighScore){\n                currentHighScore = players[i].currentScore;\n            }\n        }\n        emit HighScore(currentHighScore);\n    }\n\n    function findWinners() internal{\n        for(uint8 i = 0; i < players.length; i++){\n\n            if(players[i].currentScore >= currentHighScore){\n                winners.push(players[i].playerId);\n                players[i].inGame == true;\n                currentHighScore = players[i].currentScore;\n            }\n            else{\n                players[i].inGame == false;\n            }\n        }\n    }\n\n    function calculateOverallScore(uint8[3] memory scores) pure internal returns(uint8 score){\n        uint8 die1 = scores[0];\n        uint8 die2 = scores[1];\n        uint8 die3 = scores[2];\n\n        if(die1 == die2 && die2 == die3) return threeMatch(die1);\n\n        else if(die1 == die2) return twoMatch(die3);\n\n        else if (die1 == die3) return twoMatch(die2);\n\n        else if(die2 == die3) return twoMatch(die1);\n\n        else if(die1 + die2 + die3 == 15) return 14;\n\n        else if(die1 + die2 + die3 == 6) return 1;\n\n        else return 0;\n    }\n\n    function twoMatch(uint8 notMatch) pure internal returns(uint8 score){\n        if(notMatch == 1){\n            return 2;\n        }\n        else if(notMatch == 2){\n            return 3; \n        }\n        else if(notMatch == 3){\n            return 4; \n        }\n        else if(notMatch == 4){\n            return 5; \n        }\n        else if(notMatch == 5){\n            return 6; \n        }\n        else if(notMatch == 6){\n            return 7; \n        }\n        return 0;\n    }\n\n    function threeMatch(uint8 isMatch) pure internal returns(uint8 score){\n        if(isMatch == 1){\n            return 8;\n        }\n        else if(isMatch == 2){\n            return 9; \n        }\n        else if(isMatch == 3){\n            return 10; \n        }\n        else if(isMatch == 4){\n            return 11; \n        }\n        else if(isMatch == 5){\n            return 12; \n        }\n        else if(isMatch == 6){\n            return 13; \n        }\n        return 0;\n    }\n\n    function getBalance() internal view returns (uint){\n        return address(this).balance;\n    }\n\n    modifier playerNotInGame(address payable _player_addr){\n        for(uint8 i = 0; i < numPlayers; i++){\n            require(players[i].addr != _player_addr, \"player already in game\");\n        }\n        _;\n    } \n\n    function withdrawPlayer(uint8 index) external {\n        //require(stageOfMatch == 0, \"players can only withdraw between games\");\n        //require(index < players.length, \"Player ID does not exist\");\n\n        if(players[index].balance > 0){\n            payable(address(players[index].addr)).transfer(players[index].balance);\n        }\n\n        if(index == firstRoll){\n            moveFirstRoll();\n        }\n\n        removePlayer(index);\n        numPlayers--;\n        emit Players(players);\n        emit ContractBalance(getBalance());\n    }\n\n    function removePlayer(uint8 index) internal{\n        if (index >= players.length) return;\n\n        for (uint8 i = index; i < players.length-1; i++){\n            players[i] = players[i+1];\n        }\n        players.pop();\n    }\n\n    function addPlayer(address payable _playerAddr, uint _balance) public payable /*playerNotInGame(_player_addr)*/ {\n        //require(numPlayers <= MAX_PLAYERS, \"game is full\");\n        //require(stageOfMatch == 0, \"players can only join between games\");\n        uint8[4][] memory tempScore;\n        Player memory newPlayer = Player({\n                                            score: tempScore,\n                                            currentScore: 0, \n                                            balance: _balance, \n                                            betThisRound: 0, \n                                            addr: _playerAddr, \n                                            inGame: true, \n                                            playerId: currentPlayerId, \n                                            isTurn: false, \n                                            isFirstRoll: false, \n                                            isWaitForBet: false,\n                                            isWaitForCall: false,\n                                            hasRolled: false\n                                        });\n        players.push(newPlayer);\n        numPlayers++;\n        currentPlayerId++;\n        emit Players(players);\n        emit ContractBalance(getBalance());\n    }\n\n    function clearWinners() internal{\n        while(winners.length > 0){\n           winners.pop();\n        }\n    }\n\n    function endMatch() internal{\n        players[winners[0]].balance += betPool;\n        round = 1;\n        stageOfMatch = 0;\n        currentHighScore = 1;\n        \n        firstRoll++;\n        if(firstRoll >= numPlayers){\n            firstRoll = 0;\n        }\n        turn = firstRoll;\n\n        resetPlayersForNewMatch();\n    }\n\n    function resetRound() internal{\n        round++;\n        stageOfMatch = 2;\n        currentHighScore = 1;\n        resetPlayersForNewRound();\n    }\n\n    function resetPlayersForNewMatch() internal{\n        uint8[4][] memory tempScore;\n        for(uint8 i = 0; i < players.length; i++){\n            players[i].score = tempScore;\n            players[i].currentScore = 0; \n            //balance: _balance, \n            players[i].betThisRound = 0; \n            //addr: _playerAddr, \n            players[i].inGame = true; \n            //playerId: currentPlayerId, \n            if(i == firstRoll){\n                players[i].isTurn = true; \n                players[i].isFirstRoll = true; \n            }\n            else{\n                players[i].isTurn = false; \n                players[i].isFirstRoll = false; \n            }\n            players[i].isWaitForBet = false;\n            players[i].isWaitForCall = false;\n            players[i].hasRolled = false;\n        }\n    }\n\n    function resetPlayersForNewRound() internal {\n        uint8[4][] memory tempScore;\n        for(uint8 i = 0; i < players.length; i++){\n            players[i].score = tempScore;\n            players[i].currentScore = 0; \n            //balance: _balance, \n            players[i].betThisRound = 0; \n            //addr: _playerAddr, \n            players[i].inGame = true; \n            //playerId: currentPlayerId, \n            if(i == firstRoll){\n                players[i].isTurn = true; \n                players[i].isFirstRoll = true; \n            }\n            else{\n                players[i].isTurn = false; \n                players[i].isFirstRoll = false; \n            } \n            players[i].isWaitForBet = false;\n            players[i].isWaitForCall = true;\n            players[i].hasRolled = false;\n        }\n    }\n\n    function moveFirstRoll()internal {\n        firstRoll++;\n        if(firstRoll >= numPlayers){\n            firstRoll = 0;\n        }\n    }\n\n    function resetGame() external{\n        \n        while(numPlayers > 0){\n            uint8 index = numPlayers - 1;\n            payable(address(players[index].addr)).transfer(players[index].balance + players[index].betThisRound);\n            numPlayers--;\n            players.pop();\n        }\n\n        clearWinners();\n        currentPlayerId = 0;\n        betPool = 0;\n        turn = 0;\n        firstRoll = 0;\n        stageOfMatch = 0;\n        betPool = 0;\n        round = 1;\n        currentHighScore = 1;\n        emit Players(players);\n    }\n\n    function addToBalance(uint8 index) external payable {\n        //require(index < numPlayers, \"player not in game\");\n        uint balance = players[index].balance;\n        players[index].balance = balance + msg.value;\n        emit Players(players);\n        emit ContractBalance(getBalance());\n    }\n\n    function roll(uint8 playerIndex, uint8[3][25] memory rolls) external{\n        //require(stageOfMatch == 3, \"must be in a match to roll\");\n        //require(playerIndex == turn, \"it is not your turn\");\n\n        //simulate random dice roll\n        //replace with chainlink when ready for testnet\n        uint8[4] memory scores = simulateRolls(rolls);\n        players[turn].score.push(scores);\n        players[turn].currentScore = scores[3];\n        players[turn].isTurn = false;\n        players[turn].hasRolled = true;\n        turn++;\n        if(turn >= numPlayers){\n            turn = 0;\n        }\n        players[turn].isTurn = true;\n\n        checkHighScore();\n        clearWinners();\n        findWinners();\n        emit Scores(turn, scores[0], scores[1], scores[2], scores[3]);\n        emit Winners(winners);\n        //emit HighScore(currentHighScore); see checkHighScore()\n        //emit Winners(winners); see findWinners()\n        bool allRolled = checkAllRolled();\n        emit AllRolled(allRolled);\n        if(allRolled){\n            stageOfMatch = 4;\n            currentHighScore = 0;\n\n            if(winners.length > 1){\n                //new round needed\n                resetRound();\n            }\n            else if (winners.length == 1){\n                //declare winner\n                endMatch();\n            }\n            \n        }\n        emit Players(players);\n        emit Round(round);\n        emit StageOfMatch(stageOfMatch);\n        emit Turn(turn);\n    }\n}",
  "sourcePath": "/home/smeee/dice/contracts/CeeLow.sol",
  "compiler": {
    "name": "solc",
    "version": "0.8.0+commit.c7dfd78e.Emscripten.clang"
  },
  "schemaVersion": "3.4.1",
  "updatedAt": "2021-06-10T15:13:49.796Z",
  "networkType": "ethereum",
  "devdoc": {
    "kind": "dev",
    "methods": {},
    "version": 1
  },
  "userdoc": {
    "kind": "user",
    "methods": {},
    "version": 1
  }
}