{
  "contractName": "BurnPit",
  "abi": [
    {
      "anonymous": false,
      "inputs": [
        {
          "indexed": false,
          "internalType": "address",
          "name": "poolToken",
          "type": "address"
        },
        {
          "indexed": false,
          "internalType": "address[]",
          "name": "tco2s",
          "type": "address[]"
        },
        {
          "indexed": false,
          "internalType": "uint256[]",
          "name": "amounts",
          "type": "uint256[]"
        }
      ],
      "name": "ETHBurned",
      "type": "event"
    },
    {
      "anonymous": false,
      "inputs": [
        {
          "indexed": false,
          "internalType": "uint256",
          "name": "tokenBalance",
          "type": "uint256"
        },
        {
          "indexed": false,
          "internalType": "address",
          "name": "tokenAddr",
          "type": "address"
        }
      ],
      "name": "NoBal",
      "type": "event"
    },
    {
      "anonymous": false,
      "inputs": [
        {
          "indexed": false,
          "internalType": "address[]",
          "name": "_acceptedTokens",
          "type": "address[]"
        }
      ],
      "name": "Test",
      "type": "event"
    },
    {
      "anonymous": false,
      "inputs": [
        {
          "indexed": false,
          "internalType": "uint256",
          "name": "balance",
          "type": "uint256"
        },
        {
          "indexed": false,
          "internalType": "address",
          "name": "poolToken",
          "type": "address"
        },
        {
          "indexed": false,
          "internalType": "address[]",
          "name": "tco2s",
          "type": "address[]"
        },
        {
          "indexed": false,
          "internalType": "uint256[]",
          "name": "amounts",
          "type": "uint256[]"
        }
      ],
      "name": "TokenBurned",
      "type": "event"
    },
    {
      "inputs": [],
      "name": "nctAddr",
      "outputs": [
        {
          "internalType": "address",
          "name": "",
          "type": "address"
        }
      ],
      "stateMutability": "view",
      "type": "function"
    },
    {
      "inputs": [],
      "name": "sushiRouterAddress",
      "outputs": [
        {
          "internalType": "address",
          "name": "",
          "type": "address"
        }
      ],
      "stateMutability": "view",
      "type": "function"
    },
    {
      "stateMutability": "payable",
      "type": "receive"
    },
    {
      "inputs": [],
      "name": "burnTokens",
      "outputs": [],
      "stateMutability": "nonpayable",
      "type": "function"
    }
  ],
  "bytecode": "0x60806040526040518060600160405280732791bca1f2de4661ed88a30c99a7a9449aa8417473ffffffffffffffffffffffffffffffffffffffff1673ffffffffffffffffffffffffffffffffffffffff168152602001737ceb23fd6bc0add59e62ac25578270cff1b9f61973ffffffffffffffffffffffffffffffffffffffff1673ffffffffffffffffffffffffffffffffffffffff168152602001730d500b1d8e8ef31e21c99d1db9a6444d3adf127073ffffffffffffffffffffffffffffffffffffffff1673ffffffffffffffffffffffffffffffffffffffff168152506000906003620000f1929190620001b0565b50731b02da8cb0d097eb8d57a175b88c7d8b47997506600160006101000a81548173ffffffffffffffffffffffffffffffffffffffff021916908373ffffffffffffffffffffffffffffffffffffffff16021790555073d838290e877e0188a4a44700463419ed96c16107600260006101000a81548173ffffffffffffffffffffffffffffffffffffffff021916908373ffffffffffffffffffffffffffffffffffffffff160217905550348015620001a957600080fd5b506200025e565b8280548282559060005260206000209081019282156200022c579160200282015b828111156200022b5782518260006101000a81548173ffffffffffffffffffffffffffffffffffffffff021916908373ffffffffffffffffffffffffffffffffffffffff16021790555091602001919060010190620001d1565b5b5090506200023b91906200023f565b5090565b5b808211156200025a57600081600090555060010162000240565b5090565b611c03806200026e6000396000f3fe6080604052600436106100385760003560e01c806308003f78146100445780636cae19fe1461005b57806379bbce8f146100865761003f565b3661003f57005b600080fd5b34801561005057600080fd5b506100596100b1565b005b34801561006757600080fd5b5061007061054c565b60405161007d91906110f9565b60405180910390f35b34801561009257600080fd5b5061009b610572565b6040516100a891906110f9565b60405180910390f35b60004711156100e6576100e5600260009054906101000a900473ffffffffffffffffffffffffffffffffffffffff16610598565b5b600073fafccd01c395e4542beed819de61f02f5562faea905060008080548060200260200160405190810160405280929190818152602001828054801561018257602002820191906000526020600020905b8160009054906101000a900473ffffffffffffffffffffffffffffffffffffffff1673ffffffffffffffffffffffffffffffffffffffff1681526020019060010190808311610138575b5050505050905060005b81518160ff1610156102b0576000828260ff16815181106101b0576101af611114565b5b6020026020010151905060008173ffffffffffffffffffffffffffffffffffffffff166370a08231306040518263ffffffff1660e01b81526004016101f591906110f9565b60206040518083038186803b15801561020d57600080fd5b505afa158015610221573d6000803e3d6000fd5b505050506040513d601f19601f82011682018060405250810190610245919061118d565b9050600081111561029b5761029a848460ff168151811061026957610268611114565b5b6020026020010151600260009054906101000a900473ffffffffffffffffffffffffffffffffffffffff1683610861565b5b505080806102a8906111f6565b91505061018c565b506000600260009054906101000a900473ffffffffffffffffffffffffffffffffffffffff16905060008173ffffffffffffffffffffffffffffffffffffffff166370a08231306040518263ffffffff1660e01b815260040161031391906110f9565b60206040518083038186803b15801561032b57600080fd5b505afa15801561033f573d6000803e3d6000fd5b505050506040513d601f19601f82011682018060405250810190610363919061118d565b905060008111156104ea5760608061039d8660008673ffffffffffffffffffffffffffffffffffffffff16610ab19092919063ffffffff16565b6103c886848673ffffffffffffffffffffffffffffffffffffffff16610ab19092919063ffffffff16565b8573ffffffffffffffffffffffffffffffffffffffff1663612e2feb600260009054906101000a900473ffffffffffffffffffffffffffffffffffffffff16856040518363ffffffff1660e01b815260040161042592919061122f565b600060405180830381600087803b15801561043f57600080fd5b505af1158015610453573d6000803e3d6000fd5b505050506040513d6000823e3d601f19601f8201168201806040525081019061047c91906114a0565b80925081935050507fe2dec8d8d6c9034c3ffd466cdfcfb80b9677e65d0539d48da5adb261e685b7bf83600260009054906101000a900473ffffffffffffffffffffffffffffffffffffffff1684846040516104db9493929190611694565b60405180910390a15050610546565b7f09e1df0cae3b0cee9e220b11af14d9d75dd58c46edee58dfbb41afd5f35b7ad881600260009054906101000a900473ffffffffffffffffffffffffffffffffffffffff1660405161053d9291906116e7565b60405180910390a15b50505050565b600260009054906101000a900473ffffffffffffffffffffffffffffffffffffffff1681565b600160009054906101000a900473ffffffffffffffffffffffffffffffffffffffff1681565b60004790506000600160009054906101000a900473ffffffffffffffffffffffffffffffffffffffff1690506000600267ffffffffffffffff8111156105e1576105e061126e565b5b60405190808252806020026020018201604052801561060f5781602001602082028036833780820191505090505b5090508173ffffffffffffffffffffffffffffffffffffffff1663ad5c46486040518163ffffffff1660e01b815260040160206040518083038186803b15801561065857600080fd5b505afa15801561066c573d6000803e3d6000fd5b505050506040513d601f19601f820116820180604052508101906106909190611710565b816000815181106106a4576106a3611114565b5b602002602001019073ffffffffffffffffffffffffffffffffffffffff16908173ffffffffffffffffffffffffffffffffffffffff168152505083816001815181106106f3576106f2611114565b5b602002602001019073ffffffffffffffffffffffffffffffffffffffff16908173ffffffffffffffffffffffffffffffffffffffff168152505060008273ffffffffffffffffffffffffffffffffffffffff1663d06ca61f85846040518363ffffffff1660e01b815260040161076a92919061173d565b60006040518083038186803b15801561078257600080fd5b505afa158015610796573d6000803e3d6000fd5b505050506040513d6000823e3d601f19601f820116820180604052508101906107bf919061176d565b90508273ffffffffffffffffffffffffffffffffffffffff16637ff36ab58560008530426040518663ffffffff1660e01b815260040161080294939291906117fb565b6000604051808303818588803b15801561081b57600080fd5b505af115801561082f573d6000803e3d6000fd5b50505050506040513d6000823e3d601f19601f82011682018060405250810190610859919061176d565b505050505050565b6000600160009054906101000a900473ffffffffffffffffffffffffffffffffffffffff16905060006108948585610c0f565b905060008273ffffffffffffffffffffffffffffffffffffffff1663d06ca61f85846040518363ffffffff1660e01b81526004016108d392919061173d565b60006040518083038186803b1580156108eb57600080fd5b505afa1580156108ff573d6000803e3d6000fd5b505050506040513d6000823e3d601f19601f82011682018060405250810190610928919061176d565b90508573ffffffffffffffffffffffffffffffffffffffff1663095ea7b3600160009054906101000a900473ffffffffffffffffffffffffffffffffffffffff168360008151811061097d5761097c611114565b5b60200260200101516040518363ffffffff1660e01b81526004016109a292919061122f565b602060405180830381600087803b1580156109bc57600080fd5b505af11580156109d0573d6000803e3d6000fd5b505050506040513d601f19601f820116820180604052508101906109f4919061187f565b508273ffffffffffffffffffffffffffffffffffffffff166338ed17398583600081518110610a2657610a25611114565b5b60200260200101518530426040518663ffffffff1660e01b8152600401610a519594939291906118ac565b600060405180830381600087803b158015610a6b57600080fd5b505af1158015610a7f573d6000803e3d6000fd5b505050506040513d6000823e3d601f19601f82011682018060405250810190610aa8919061176d565b50505050505050565b6000811480610b4a575060008373ffffffffffffffffffffffffffffffffffffffff1663dd62ed3e30856040518363ffffffff1660e01b8152600401610af8929190611906565b60206040518083038186803b158015610b1057600080fd5b505afa158015610b24573d6000803e3d6000fd5b505050506040513d601f19601f82011682018060405250810190610b48919061118d565b145b610b89576040517f08c379a0000000000000000000000000000000000000000000000000000000008152600401610b80906119b2565b60405180910390fd5b610c0a8363095ea7b360e01b8484604051602401610ba892919061122f565b604051602081830303815290604052907bffffffffffffffffffffffffffffffffffffffffffffffffffffffff19166020820180517bffffffffffffffffffffffffffffffffffffffffffffffffffffffff8381831617835250505050610efc565b505050565b606060008081548110610c2557610c24611114565b5b9060005260206000200160009054906101000a900473ffffffffffffffffffffffffffffffffffffffff1673ffffffffffffffffffffffffffffffffffffffff168373ffffffffffffffffffffffffffffffffffffffff161415610d78576000600267ffffffffffffffff811115610ca057610c9f61126e565b5b604051908082528060200260200182016040528015610cce5781602001602082028036833780820191505090505b5090508381600081518110610ce657610ce5611114565b5b602002602001019073ffffffffffffffffffffffffffffffffffffffff16908173ffffffffffffffffffffffffffffffffffffffff16815250508281600181518110610d3557610d34611114565b5b602002602001019073ffffffffffffffffffffffffffffffffffffffff16908173ffffffffffffffffffffffffffffffffffffffff168152505080915050610ef6565b6000600367ffffffffffffffff811115610d9557610d9461126e565b5b604051908082528060200260200182016040528015610dc35781602001602082028036833780820191505090505b5090508381600081518110610ddb57610dda611114565b5b602002602001019073ffffffffffffffffffffffffffffffffffffffff16908173ffffffffffffffffffffffffffffffffffffffff168152505060008081548110610e2957610e28611114565b5b9060005260206000200160009054906101000a900473ffffffffffffffffffffffffffffffffffffffff1681600181518110610e6857610e67611114565b5b602002602001019073ffffffffffffffffffffffffffffffffffffffff16908173ffffffffffffffffffffffffffffffffffffffff16815250508281600281518110610eb757610eb6611114565b5b602002602001019073ffffffffffffffffffffffffffffffffffffffff16908173ffffffffffffffffffffffffffffffffffffffff1681525050809150505b92915050565b610f1b8273ffffffffffffffffffffffffffffffffffffffff1661106d565b610f5a576040517f08c379a0000000000000000000000000000000000000000000000000000000008152600401610f5190611a1e565b60405180910390fd5b6000808373ffffffffffffffffffffffffffffffffffffffff1683604051610f829190611ab8565b6000604051808303816000865af19150503d8060008114610fbf576040519150601f19603f3d011682016040523d82523d6000602084013e610fc4565b606091505b509150915081611009576040517f08c379a000000000000000000000000000000000000000000000000000000000815260040161100090611b1b565b60405180910390fd5b6000815111156110675780806020019051810190611027919061187f565b611066576040517f08c379a000000000000000000000000000000000000000000000000000000000815260040161105d90611bad565b60405180910390fd5b5b50505050565b60008060007fc5d2460186f7233c927e7db2dcc703c0e500b653ca82273b7bfad8045d85a47060001b9050833f91508082141580156110af57506000801b8214155b92505050919050565b600073ffffffffffffffffffffffffffffffffffffffff82169050919050565b60006110e3826110b8565b9050919050565b6110f3816110d8565b82525050565b600060208201905061110e60008301846110ea565b92915050565b7f4e487b7100000000000000000000000000000000000000000000000000000000600052603260045260246000fd5b6000604051905090565b600080fd5b600080fd5b6000819050919050565b61116a81611157565b811461117557600080fd5b50565b60008151905061118781611161565b92915050565b6000602082840312156111a3576111a261114d565b5b60006111b184828501611178565b91505092915050565b7f4e487b7100000000000000000000000000000000000000000000000000000000600052601160045260246000fd5b600060ff82169050919050565b6000611201826111e9565b915060ff821415611215576112146111ba565b5b600182019050919050565b61122981611157565b82525050565b600060408201905061124460008301856110ea565b6112516020830184611220565b9392505050565b600080fd5b6000601f19601f8301169050919050565b7f4e487b7100000000000000000000000000000000000000000000000000000000600052604160045260246000fd5b6112a68261125d565b810181811067ffffffffffffffff821117156112c5576112c461126e565b5b80604052505050565b60006112d8611143565b90506112e4828261129d565b919050565b600067ffffffffffffffff8211156113045761130361126e565b5b602082029050602081019050919050565b600080fd5b611323816110d8565b811461132e57600080fd5b50565b6000815190506113408161131a565b92915050565b6000611359611354846112e9565b6112ce565b9050808382526020820190506020840283018581111561137c5761137b611315565b5b835b818110156113a557806113918882611331565b84526020840193505060208101905061137e565b5050509392505050565b600082601f8301126113c4576113c3611258565b5b81516113d4848260208601611346565b91505092915050565b600067ffffffffffffffff8211156113f8576113f761126e565b5b602082029050602081019050919050565b600061141c611417846113dd565b6112ce565b9050808382526020820190506020840283018581111561143f5761143e611315565b5b835b8181101561146857806114548882611178565b845260208401935050602081019050611441565b5050509392505050565b600082601f83011261148757611486611258565b5b8151611497848260208601611409565b91505092915050565b600080604083850312156114b7576114b661114d565b5b600083015167ffffffffffffffff8111156114d5576114d4611152565b5b6114e1858286016113af565b925050602083015167ffffffffffffffff81111561150257611501611152565b5b61150e85828601611472565b9150509250929050565b600081519050919050565b600082825260208201905092915050565b6000819050602082019050919050565b61154d816110d8565b82525050565b600061155f8383611544565b60208301905092915050565b6000602082019050919050565b600061158382611518565b61158d8185611523565b935061159883611534565b8060005b838110156115c95781516115b08882611553565b97506115bb8361156b565b92505060018101905061159c565b5085935050505092915050565b600081519050919050565b600082825260208201905092915050565b6000819050602082019050919050565b61160b81611157565b82525050565b600061161d8383611602565b60208301905092915050565b6000602082019050919050565b6000611641826115d6565b61164b81856115e1565b9350611656836115f2565b8060005b8381101561168757815161166e8882611611565b975061167983611629565b92505060018101905061165a565b5085935050505092915050565b60006080820190506116a96000830187611220565b6116b660208301866110ea565b81810360408301526116c88185611578565b905081810360608301526116dc8184611636565b905095945050505050565b60006040820190506116fc6000830185611220565b61170960208301846110ea565b9392505050565b6000602082840312156117265761172561114d565b5b600061173484828501611331565b91505092915050565b60006040820190506117526000830185611220565b81810360208301526117648184611578565b90509392505050565b6000602082840312156117835761178261114d565b5b600082015167ffffffffffffffff8111156117a1576117a0611152565b5b6117ad84828501611472565b91505092915050565b6000819050919050565b6000819050919050565b60006117e56117e06117db846117b6565b6117c0565b611157565b9050919050565b6117f5816117ca565b82525050565b600060808201905061181060008301876117ec565b81810360208301526118228186611578565b905061183160408301856110ea565b61183e6060830184611220565b95945050505050565b60008115159050919050565b61185c81611847565b811461186757600080fd5b50565b60008151905061187981611853565b92915050565b6000602082840312156118955761189461114d565b5b60006118a38482850161186a565b91505092915050565b600060a0820190506118c16000830188611220565b6118ce6020830187611220565b81810360408301526118e08186611578565b90506118ef60608301856110ea565b6118fc6080830184611220565b9695505050505050565b600060408201905061191b60008301856110ea565b61192860208301846110ea565b9392505050565b600082825260208201905092915050565b7f5361666545524332303a20617070726f76652066726f6d206e6f6e2d7a65726f60008201527f20746f206e6f6e2d7a65726f20616c6c6f77616e636500000000000000000000602082015250565b600061199c60368361192f565b91506119a782611940565b604082019050919050565b600060208201905081810360008301526119cb8161198f565b9050919050565b7f5361666545524332303a2063616c6c20746f206e6f6e2d636f6e747261637400600082015250565b6000611a08601f8361192f565b9150611a13826119d2565b602082019050919050565b60006020820190508181036000830152611a37816119fb565b9050919050565b600081519050919050565b600081905092915050565b60005b83811015611a72578082015181840152602081019050611a57565b83811115611a81576000848401525b50505050565b6000611a9282611a3e565b611a9c8185611a49565b9350611aac818560208601611a54565b80840191505092915050565b6000611ac48284611a87565b915081905092915050565b7f5361666545524332303a206c6f772d6c6576656c2063616c6c206661696c6564600082015250565b6000611b0560208361192f565b9150611b1082611acf565b602082019050919050565b60006020820190508181036000830152611b3481611af8565b9050919050565b7f5361666545524332303a204552433230206f7065726174696f6e20646964206e60008201527f6f74207375636365656400000000000000000000000000000000000000000000602082015250565b6000611b97602a8361192f565b9150611ba282611b3b565b604082019050919050565b60006020820190508181036000830152611bc681611b8a565b905091905056fea264697066735822122075898ceaac495d5c9f5a112fbdd9bfecfb24700ebf4c134cbab3be67f21e64b364736f6c63430008090033",
  "immutableReferences": {},
  "source": "// SPDX-License-Identifier: MIT\npragma solidity 0.8.9;\n\nimport { IOffsetHelper} from './interfaces/toucan/IOffsetHelper.sol';\nimport { IERC20} from './interfaces/other/IERC20.sol';\nimport { IWETH} from './interfaces/other/IWETH.sol';\nimport { SafeERC20 } from './libraries/SafeERC20.sol';\nimport { IUniswapV2Router02 } from './interfaces/uniswapv2/IUniswapV2Router02.sol';\n\ncontract BurnPit {\n    using SafeERC20 for IERC20;\n\n    // OffsetHelper addr 0x79E63048B355F4FBa192c5b28687B852a5521b31\n    // USDC + WETH on matic\n    address[] acceptedTokens = [0x2791Bca1f2de4661ED88A30C99A7a9449Aa84174,\n                                0x7ceB23fD6bC0adD59E62ac25578270cFf1b9f619,\n                                0x0d500B1d8E8eF31E21C99d1Db9A6444d3ADf1270];\n\n    address public sushiRouterAddress = 0x1b02dA8Cb0d097eB8D57A175b88c7D8b47997506;\n    address public nctAddr = 0xD838290e877E0188a4A44700463419ED96c16107;\n\n    event TokenBurned(\n        uint256 balance,\n        address poolToken,\n        address[] tco2s,\n        uint256[] amounts\n    );\n\n    event ETHBurned(\n        address poolToken,\n        address[] tco2s,\n        uint256[] amounts\n    );\n\n    event NoBal(\n        uint256 tokenBalance,\n        address tokenAddr\n    );\n\n    event Test(\n        address[] _acceptedTokens\n    );\n\n    function burnTokens(\n        //address _poolToken\n    ) public {\n        if(address(this).balance > 0){\n            swap(nctAddr);\n        }\n        address offsetHelperAddr = 0xFAFcCd01C395e4542BEed819De61f02f5562fAEa;\n        address[] memory _acceptedTokens = acceptedTokens;\n        for(uint8 i = 0; i < _acceptedTokens.length; i++){\n            IERC20 token = IERC20(_acceptedTokens[i]);\n            uint256 tokenBalance = token.balanceOf(address(this));\n            if(tokenBalance > 0){\n                swap(_acceptedTokens[i], nctAddr, tokenBalance);\n            }\n        }\n\n        IERC20 nct = IERC20(nctAddr);\n        uint256 nctBalance = nct.balanceOf(address(this));\n        if(nctBalance > 0){\n            address[] memory tco2s;\n            uint256[] memory amounts;\n            nct.safeApprove(offsetHelperAddr, 0);\n            nct.safeApprove(offsetHelperAddr, nctBalance);\n            (tco2s, amounts) = IOffsetHelper(offsetHelperAddr).autoOffsetUsingPoolToken(nctAddr, nctBalance);\n            emit TokenBurned(nctBalance, nctAddr, tco2s, amounts);\n        }\n        else{\n            emit NoBal(nctBalance, nctAddr);\n        }\n    }\n\n    receive() external payable{}\n\n    function generatePath(address _fromToken, address _toToken)\n        internal\n        view\n        returns (address[] memory)\n    {\n        if (_fromToken == acceptedTokens[0]) {\n            address[] memory path = new address[](2);\n            path[0] = _fromToken;\n            path[1] = _toToken;\n            return path;\n        } else {\n            address[] memory path = new address[](3);\n            path[0] = _fromToken;\n            path[1] = acceptedTokens[0];\n            path[2] = _toToken;\n            return path;\n        }\n    }\n\n    function swap(address _toToken) internal {\n        uint256 balance = address(this).balance;\n\n        // instantiate router\n        IUniswapV2Router02 routerSushi = IUniswapV2Router02(sushiRouterAddress);\n\n        // generate path\n        address[] memory path = new address[](2);\n        path[0] = address(routerSushi.WETH());\n        path[1] = address(_toToken);\n\n        // estimate amountsOut\n        uint256[] memory expectedAmountsOut = routerSushi.getAmountsOut(\n            balance,\n            path\n        );\n\n        // swap\n        routerSushi.swapExactETHForTokens{\n            value: balance\n        }(0, path, address(this), block.timestamp);\n    }\n\n    /**\n     * @notice Swap eligible ERC20 tokens for NCT on SushiSwap\n     * @dev Needs to be approved on the client side\n     * @param _fromToken The ERC20 token to deposit and swap\n     * @param _toToken The token to swap for (will be held within contract)\n     * @param _amount The amount of _fromToken to be swapped\n     */\n    function swap(\n        address _fromToken,\n        address _toToken,\n        uint256 _amount\n    ) internal {\n        // instantiate router\n        IUniswapV2Router02 routerSushi = IUniswapV2Router02(sushiRouterAddress);\n\n        // generate path\n        address[] memory path = generatePath(_fromToken, _toToken);\n\n        // estimate amountsOut\n        uint256[] memory expectedAmountsOut = routerSushi.getAmountsOut(\n            _amount,\n            path\n        );\n\n        // approve router\n        IERC20(_fromToken).approve(sushiRouterAddress, expectedAmountsOut[0]);\n\n        // swap\n        routerSushi.swapExactTokensForTokens(\n            _amount,\n            expectedAmountsOut[0],\n            path,\n            address(this),\n            block.timestamp\n        );\n    }\n}",
  "sourcePath": "/home/smeee/projects/just_cause/contracts/polygon/BurnPit.sol",
  "compiler": {
    "name": "solc",
    "version": "0.8.9+commit.e5eed63a.Emscripten.clang"
  },
  "schemaVersion": "3.4.7",
  "updatedAt": "2022-10-08T02:20:38.269Z",
  "devdoc": {
    "kind": "dev",
    "methods": {},
    "version": 1
  },
  "userdoc": {
    "kind": "user",
    "methods": {},
    "version": 1
  }
}