{
  "contractName": "BurnPit",
  "abi": [
    {
      "anonymous": false,
      "inputs": [
        {
          "indexed": false,
          "internalType": "address",
          "name": "poolToken",
          "type": "address"
        },
        {
          "indexed": false,
          "internalType": "address[]",
          "name": "tco2s",
          "type": "address[]"
        },
        {
          "indexed": false,
          "internalType": "uint256[]",
          "name": "amounts",
          "type": "uint256[]"
        }
      ],
      "name": "ETHBurned",
      "type": "event"
    },
    {
      "anonymous": false,
      "inputs": [
        {
          "indexed": false,
          "internalType": "address",
          "name": "token",
          "type": "address"
        },
        {
          "indexed": false,
          "internalType": "address",
          "name": "poolToken",
          "type": "address"
        },
        {
          "indexed": false,
          "internalType": "address[]",
          "name": "tco2s",
          "type": "address[]"
        },
        {
          "indexed": false,
          "internalType": "uint256[]",
          "name": "amounts",
          "type": "uint256[]"
        }
      ],
      "name": "TokenBurned",
      "type": "event"
    },
    {
      "stateMutability": "payable",
      "type": "receive"
    },
    {
      "inputs": [],
      "name": "burnTokens",
      "outputs": [],
      "stateMutability": "nonpayable",
      "type": "function"
    }
  ],
  "bytecode": "0x60806040526040518060400160405280732791bca1f2de4661ed88a30c99a7a9449aa8417473ffffffffffffffffffffffffffffffffffffffff1673ffffffffffffffffffffffffffffffffffffffff168152602001737ceb23fd6bc0add59e62ac25578270cff1b9f61973ffffffffffffffffffffffffffffffffffffffff1673ffffffffffffffffffffffffffffffffffffffff1681525060009060026100a99291906100bc565b503480156100b657600080fd5b50610163565b828054828255906000526020600020908101928215610135579160200282015b828111156101345782518260006101000a81548173ffffffffffffffffffffffffffffffffffffffff021916908373ffffffffffffffffffffffffffffffffffffffff160217905550916020019190600101906100dc565b5b5090506101429190610146565b5090565b5b8082111561015f576000816000905550600101610147565b5090565b61115f806101726000396000f3fe6080604052600436106100225760003560e01c806308003f781461002e57610029565b3661002957005b600080fd5b34801561003a57600080fd5b50610043610045565b005b60007379e63048b355f4fba192c5b28687b852a5521b319050600073d838290e877e0188a4a44700463419ed96c1610790506000808054806020026020016040519081016040528092919081815260200182805480156100fa57602002820191906000526020600020905b8160009054906101000a900473ffffffffffffffffffffffffffffffffffffffff1673ffffffffffffffffffffffffffffffffffffffff16815260200190600101908083116100b0575b5050505050905060005b81518160ff16101561034d576000828260ff168151811061012857610127610752565b5b6020026020010151905060008173ffffffffffffffffffffffffffffffffffffffff166370a08231306040518263ffffffff1660e01b815260040161016d91906107c2565b60206040518083038186803b15801561018557600080fd5b505afa158015610199573d6000803e3d6000fd5b505050506040513d601f19601f820116820180604052508101906101bd9190610827565b90506000811115610338576060806101f78860008673ffffffffffffffffffffffffffffffffffffffff166104389092919063ffffffff16565b61022288848673ffffffffffffffffffffffffffffffffffffffff166104389092919063ffffffff16565b8773ffffffffffffffffffffffffffffffffffffffff1663781ae710878760ff168151811061025457610253610752565b5b602002602001015189866040518463ffffffff1660e01b815260040161027c93929190610863565b600060405180830381600087803b15801561029657600080fd5b505af11580156102aa573d6000803e3d6000fd5b505050506040513d6000823e3d601f19601f820116820180604052508101906102d39190610ae2565b80925081935050507f2c2bb6ff3db558bf19f53f977139d29d0fc5a0b2c9e5c632aaab6c4e3307dc6f868660ff168151811061031257610311610752565b5b602002602001015188848460405161032d9493929190610cd6565b60405180910390a150505b5050808061034590610d65565b915050610104565b506000471115610433576060808473ffffffffffffffffffffffffffffffffffffffff166382168f4b4786476040518463ffffffff1660e01b8152600401610396929190610d8f565b6000604051808303818588803b1580156103af57600080fd5b505af11580156103c3573d6000803e3d6000fd5b50505050506040513d6000823e3d601f19601f820116820180604052508101906103ed9190610ae2565b80925081935050507f164598e70b0a8e07a17e0cdbf777221183a1ec75edb2db47ea885b4eae53a1aa84838360405161042893929190610db8565b60405180910390a150505b505050565b60008114806104d1575060008373ffffffffffffffffffffffffffffffffffffffff1663dd62ed3e30856040518363ffffffff1660e01b815260040161047f929190610dfd565b60206040518083038186803b15801561049757600080fd5b505afa1580156104ab573d6000803e3d6000fd5b505050506040513d601f19601f820116820180604052508101906104cf9190610827565b145b610510576040517f08c379a000000000000000000000000000000000000000000000000000000000815260040161050790610ea9565b60405180910390fd5b6105918363095ea7b360e01b848460405160240161052f929190610d8f565b604051602081830303815290604052907bffffffffffffffffffffffffffffffffffffffffffffffffffffffff19166020820180517bffffffffffffffffffffffffffffffffffffffffffffffffffffffff8381831617835250505050610596565b505050565b6105b58273ffffffffffffffffffffffffffffffffffffffff16610707565b6105f4576040517f08c379a00000000000000000000000000000000000000000000000000000000081526004016105eb90610f15565b60405180910390fd5b6000808373ffffffffffffffffffffffffffffffffffffffff168360405161061c9190610faf565b6000604051808303816000865af19150503d8060008114610659576040519150601f19603f3d011682016040523d82523d6000602084013e61065e565b606091505b5091509150816106a3576040517f08c379a000000000000000000000000000000000000000000000000000000000815260040161069a90611012565b60405180910390fd5b60008151111561070157808060200190518101906106c1919061106a565b610700576040517f08c379a00000000000000000000000000000000000000000000000000000000081526004016106f790611109565b60405180910390fd5b5b50505050565b60008060007fc5d2460186f7233c927e7db2dcc703c0e500b653ca82273b7bfad8045d85a47060001b9050833f915080821415801561074957506000801b8214155b92505050919050565b7f4e487b7100000000000000000000000000000000000000000000000000000000600052603260045260246000fd5b600073ffffffffffffffffffffffffffffffffffffffff82169050919050565b60006107ac82610781565b9050919050565b6107bc816107a1565b82525050565b60006020820190506107d760008301846107b3565b92915050565b6000604051905090565b600080fd5b600080fd5b6000819050919050565b610804816107f1565b811461080f57600080fd5b50565b600081519050610821816107fb565b92915050565b60006020828403121561083d5761083c6107e7565b5b600061084b84828501610812565b91505092915050565b61085d816107f1565b82525050565b600060608201905061087860008301866107b3565b61088560208301856107b3565b6108926040830184610854565b949350505050565b600080fd5b6000601f19601f8301169050919050565b7f4e487b7100000000000000000000000000000000000000000000000000000000600052604160045260246000fd5b6108e88261089f565b810181811067ffffffffffffffff82111715610907576109066108b0565b5b80604052505050565b600061091a6107dd565b905061092682826108df565b919050565b600067ffffffffffffffff821115610946576109456108b0565b5b602082029050602081019050919050565b600080fd5b610965816107a1565b811461097057600080fd5b50565b6000815190506109828161095c565b92915050565b600061099b6109968461092b565b610910565b905080838252602082019050602084028301858111156109be576109bd610957565b5b835b818110156109e757806109d38882610973565b8452602084019350506020810190506109c0565b5050509392505050565b600082601f830112610a0657610a0561089a565b5b8151610a16848260208601610988565b91505092915050565b600067ffffffffffffffff821115610a3a57610a396108b0565b5b602082029050602081019050919050565b6000610a5e610a5984610a1f565b610910565b90508083825260208201905060208402830185811115610a8157610a80610957565b5b835b81811015610aaa5780610a968882610812565b845260208401935050602081019050610a83565b5050509392505050565b600082601f830112610ac957610ac861089a565b5b8151610ad9848260208601610a4b565b91505092915050565b60008060408385031215610af957610af86107e7565b5b600083015167ffffffffffffffff811115610b1757610b166107ec565b5b610b23858286016109f1565b925050602083015167ffffffffffffffff811115610b4457610b436107ec565b5b610b5085828601610ab4565b9150509250929050565b600081519050919050565b600082825260208201905092915050565b6000819050602082019050919050565b610b8f816107a1565b82525050565b6000610ba18383610b86565b60208301905092915050565b6000602082019050919050565b6000610bc582610b5a565b610bcf8185610b65565b9350610bda83610b76565b8060005b83811015610c0b578151610bf28882610b95565b9750610bfd83610bad565b925050600181019050610bde565b5085935050505092915050565b600081519050919050565b600082825260208201905092915050565b6000819050602082019050919050565b610c4d816107f1565b82525050565b6000610c5f8383610c44565b60208301905092915050565b6000602082019050919050565b6000610c8382610c18565b610c8d8185610c23565b9350610c9883610c34565b8060005b83811015610cc9578151610cb08882610c53565b9750610cbb83610c6b565b925050600181019050610c9c565b5085935050505092915050565b6000608082019050610ceb60008301876107b3565b610cf860208301866107b3565b8181036040830152610d0a8185610bba565b90508181036060830152610d1e8184610c78565b905095945050505050565b7f4e487b7100000000000000000000000000000000000000000000000000000000600052601160045260246000fd5b600060ff82169050919050565b6000610d7082610d58565b915060ff821415610d8457610d83610d29565b5b600182019050919050565b6000604082019050610da460008301856107b3565b610db16020830184610854565b9392505050565b6000606082019050610dcd60008301866107b3565b8181036020830152610ddf8185610bba565b90508181036040830152610df38184610c78565b9050949350505050565b6000604082019050610e1260008301856107b3565b610e1f60208301846107b3565b9392505050565b600082825260208201905092915050565b7f5361666545524332303a20617070726f76652066726f6d206e6f6e2d7a65726f60008201527f20746f206e6f6e2d7a65726f20616c6c6f77616e636500000000000000000000602082015250565b6000610e93603683610e26565b9150610e9e82610e37565b604082019050919050565b60006020820190508181036000830152610ec281610e86565b9050919050565b7f5361666545524332303a2063616c6c20746f206e6f6e2d636f6e747261637400600082015250565b6000610eff601f83610e26565b9150610f0a82610ec9565b602082019050919050565b60006020820190508181036000830152610f2e81610ef2565b9050919050565b600081519050919050565b600081905092915050565b60005b83811015610f69578082015181840152602081019050610f4e565b83811115610f78576000848401525b50505050565b6000610f8982610f35565b610f938185610f40565b9350610fa3818560208601610f4b565b80840191505092915050565b6000610fbb8284610f7e565b915081905092915050565b7f5361666545524332303a206c6f772d6c6576656c2063616c6c206661696c6564600082015250565b6000610ffc602083610e26565b915061100782610fc6565b602082019050919050565b6000602082019050818103600083015261102b81610fef565b9050919050565b60008115159050919050565b61104781611032565b811461105257600080fd5b50565b6000815190506110648161103e565b92915050565b6000602082840312156110805761107f6107e7565b5b600061108e84828501611055565b91505092915050565b7f5361666545524332303a204552433230206f7065726174696f6e20646964206e60008201527f6f74207375636365656400000000000000000000000000000000000000000000602082015250565b60006110f3602a83610e26565b91506110fe82611097565b604082019050919050565b60006020820190508181036000830152611122816110e6565b905091905056fea2646970667358221220f1dfd99bf4811db5b5b4d75da90808c61e067b48b70851f25a8dc8b1105a3fc564736f6c63430008090033",
  "immutableReferences": {},
  "source": "// SPDX-License-Identifier: MIT\npragma solidity 0.8.9;\n\nimport { IOffsetHelper} from './interfaces/toucan/IOffsetHelper.sol';\nimport { IERC20} from './interfaces/other/IERC20.sol';\nimport { SafeERC20 } from './libraries/SafeERC20.sol';\n\n//import Ownable from '@openzeppelin/contracts/access/Ownable.sol';\n\ncontract BurnPit {\n    using SafeERC20 for IERC20;\n\n    // OffsetHelper addr 0x79E63048B355F4FBa192c5b28687B852a5521b31\n    // USDC + WETH on matic\n    address[] acceptedTokens = [0x2791Bca1f2de4661ED88A30C99A7a9449Aa84174, 0x7ceB23fD6bC0adD59E62ac25578270cFf1b9f619 ];\n\n    event TokenBurned(\n        address token,\n        address poolToken,\n        address[] tco2s,\n        uint256[] amounts\n    );\n\n    event ETHBurned(\n        address poolToken,\n        address[] tco2s,\n        uint256[] amounts\n    );\n\n    function burnTokens(\n        //address _poolToken\n    ) public {\n        address offsetHelperAddr = 0x79E63048B355F4FBa192c5b28687B852a5521b31;\n        address nctAddr = 0xD838290e877E0188a4A44700463419ED96c16107;\n        address[] memory _acceptedTokens = acceptedTokens;\n        for(uint8 i = 0; i < _acceptedTokens.length; i++){\n            IERC20 token = IERC20(_acceptedTokens[i]);\n            uint256 balance = token.balanceOf(address(this));\n            if(balance > 0){\n                address[] memory tco2s;\n                uint256[] memory amounts;\n                token.safeApprove(offsetHelperAddr, 0);\n                token.safeApprove(offsetHelperAddr, balance);\n                (tco2s, amounts) = IOffsetHelper(offsetHelperAddr).autoOffsetUsingToken(_acceptedTokens[i], nctAddr, balance);\n                emit TokenBurned(_acceptedTokens[i], nctAddr, tco2s, amounts);\n            }\n        }\n        if(address(this).balance > 0){\n            address[] memory tco2s;\n            uint256[] memory amounts;\n            (tco2s, amounts) = IOffsetHelper(offsetHelperAddr).autoOffsetUsingETH{value: address(this).balance}(nctAddr, address(this).balance);\n            emit ETHBurned(nctAddr, tco2s, amounts);\n        }\n    }\n\n    receive() external payable{}\n}",
  "sourcePath": "/home/smeee/projects/just_cause/contracts/polygon/BurnPit.sol",
  "compiler": {
    "name": "solc",
    "version": "0.8.9+commit.e5eed63a.Emscripten.clang"
  },
  "schemaVersion": "3.4.7",
  "updatedAt": "2022-10-01T03:10:44.166Z",
  "devdoc": {
    "kind": "dev",
    "methods": {},
    "version": 1
  },
  "userdoc": {
    "kind": "user",
    "methods": {},
    "version": 1
  }
}