{
  "contractName": "JCDepositorERC721",
  "abi": [
    {
      "inputs": [],
      "stateMutability": "nonpayable",
      "type": "constructor"
    },
    {
      "anonymous": false,
      "inputs": [
        {
          "indexed": true,
          "internalType": "address",
          "name": "owner",
          "type": "address"
        },
        {
          "indexed": true,
          "internalType": "address",
          "name": "approved",
          "type": "address"
        },
        {
          "indexed": true,
          "internalType": "uint256",
          "name": "tokenId",
          "type": "uint256"
        }
      ],
      "name": "Approval",
      "type": "event"
    },
    {
      "anonymous": false,
      "inputs": [
        {
          "indexed": true,
          "internalType": "address",
          "name": "owner",
          "type": "address"
        },
        {
          "indexed": true,
          "internalType": "address",
          "name": "operator",
          "type": "address"
        },
        {
          "indexed": false,
          "internalType": "bool",
          "name": "approved",
          "type": "bool"
        }
      ],
      "name": "ApprovalForAll",
      "type": "event"
    },
    {
      "anonymous": false,
      "inputs": [
        {
          "indexed": true,
          "internalType": "address",
          "name": "previousOwner",
          "type": "address"
        },
        {
          "indexed": true,
          "internalType": "address",
          "name": "newOwner",
          "type": "address"
        }
      ],
      "name": "OwnershipTransferred",
      "type": "event"
    },
    {
      "anonymous": false,
      "inputs": [
        {
          "indexed": true,
          "internalType": "address",
          "name": "from",
          "type": "address"
        },
        {
          "indexed": true,
          "internalType": "address",
          "name": "to",
          "type": "address"
        },
        {
          "indexed": true,
          "internalType": "uint256",
          "name": "tokenId",
          "type": "uint256"
        }
      ],
      "name": "Transfer",
      "type": "event"
    },
    {
      "inputs": [
        {
          "internalType": "address",
          "name": "to",
          "type": "address"
        },
        {
          "internalType": "uint256",
          "name": "tokenId",
          "type": "uint256"
        }
      ],
      "name": "approve",
      "outputs": [],
      "stateMutability": "nonpayable",
      "type": "function"
    },
    {
      "inputs": [
        {
          "internalType": "address",
          "name": "owner",
          "type": "address"
        }
      ],
      "name": "balanceOf",
      "outputs": [
        {
          "internalType": "uint256",
          "name": "",
          "type": "uint256"
        }
      ],
      "stateMutability": "view",
      "type": "function"
    },
    {
      "inputs": [
        {
          "internalType": "uint256",
          "name": "tokenId",
          "type": "uint256"
        }
      ],
      "name": "getApproved",
      "outputs": [
        {
          "internalType": "address",
          "name": "",
          "type": "address"
        }
      ],
      "stateMutability": "view",
      "type": "function"
    },
    {
      "inputs": [
        {
          "internalType": "address",
          "name": "owner",
          "type": "address"
        },
        {
          "internalType": "address",
          "name": "operator",
          "type": "address"
        }
      ],
      "name": "isApprovedForAll",
      "outputs": [
        {
          "internalType": "bool",
          "name": "",
          "type": "bool"
        }
      ],
      "stateMutability": "view",
      "type": "function"
    },
    {
      "inputs": [],
      "name": "name",
      "outputs": [
        {
          "internalType": "string",
          "name": "",
          "type": "string"
        }
      ],
      "stateMutability": "view",
      "type": "function"
    },
    {
      "inputs": [],
      "name": "owner",
      "outputs": [
        {
          "internalType": "address",
          "name": "",
          "type": "address"
        }
      ],
      "stateMutability": "view",
      "type": "function"
    },
    {
      "inputs": [
        {
          "internalType": "uint256",
          "name": "tokenId",
          "type": "uint256"
        }
      ],
      "name": "ownerOf",
      "outputs": [
        {
          "internalType": "address",
          "name": "",
          "type": "address"
        }
      ],
      "stateMutability": "view",
      "type": "function"
    },
    {
      "inputs": [],
      "name": "renounceOwnership",
      "outputs": [],
      "stateMutability": "nonpayable",
      "type": "function"
    },
    {
      "inputs": [
        {
          "internalType": "address",
          "name": "from",
          "type": "address"
        },
        {
          "internalType": "address",
          "name": "to",
          "type": "address"
        },
        {
          "internalType": "uint256",
          "name": "tokenId",
          "type": "uint256"
        }
      ],
      "name": "safeTransferFrom",
      "outputs": [],
      "stateMutability": "nonpayable",
      "type": "function"
    },
    {
      "inputs": [
        {
          "internalType": "address",
          "name": "from",
          "type": "address"
        },
        {
          "internalType": "address",
          "name": "to",
          "type": "address"
        },
        {
          "internalType": "uint256",
          "name": "tokenId",
          "type": "uint256"
        },
        {
          "internalType": "bytes",
          "name": "_data",
          "type": "bytes"
        }
      ],
      "name": "safeTransferFrom",
      "outputs": [],
      "stateMutability": "nonpayable",
      "type": "function"
    },
    {
      "inputs": [
        {
          "internalType": "address",
          "name": "operator",
          "type": "address"
        },
        {
          "internalType": "bool",
          "name": "approved",
          "type": "bool"
        }
      ],
      "name": "setApprovalForAll",
      "outputs": [],
      "stateMutability": "nonpayable",
      "type": "function"
    },
    {
      "inputs": [
        {
          "internalType": "bytes4",
          "name": "interfaceId",
          "type": "bytes4"
        }
      ],
      "name": "supportsInterface",
      "outputs": [
        {
          "internalType": "bool",
          "name": "",
          "type": "bool"
        }
      ],
      "stateMutability": "view",
      "type": "function"
    },
    {
      "inputs": [],
      "name": "symbol",
      "outputs": [
        {
          "internalType": "string",
          "name": "",
          "type": "string"
        }
      ],
      "stateMutability": "view",
      "type": "function"
    },
    {
      "inputs": [
        {
          "internalType": "uint256",
          "name": "index",
          "type": "uint256"
        }
      ],
      "name": "tokenByIndex",
      "outputs": [
        {
          "internalType": "uint256",
          "name": "",
          "type": "uint256"
        }
      ],
      "stateMutability": "view",
      "type": "function"
    },
    {
      "inputs": [
        {
          "internalType": "address",
          "name": "owner",
          "type": "address"
        },
        {
          "internalType": "uint256",
          "name": "index",
          "type": "uint256"
        }
      ],
      "name": "tokenOfOwnerByIndex",
      "outputs": [
        {
          "internalType": "uint256",
          "name": "",
          "type": "uint256"
        }
      ],
      "stateMutability": "view",
      "type": "function"
    },
    {
      "inputs": [
        {
          "internalType": "uint256",
          "name": "tokenId",
          "type": "uint256"
        }
      ],
      "name": "tokenURI",
      "outputs": [
        {
          "internalType": "string",
          "name": "",
          "type": "string"
        }
      ],
      "stateMutability": "view",
      "type": "function"
    },
    {
      "inputs": [],
      "name": "totalSupply",
      "outputs": [
        {
          "internalType": "uint256",
          "name": "",
          "type": "uint256"
        }
      ],
      "stateMutability": "view",
      "type": "function"
    },
    {
      "inputs": [
        {
          "internalType": "address",
          "name": "from",
          "type": "address"
        },
        {
          "internalType": "address",
          "name": "to",
          "type": "address"
        },
        {
          "internalType": "uint256",
          "name": "tokenId",
          "type": "uint256"
        }
      ],
      "name": "transferFrom",
      "outputs": [],
      "stateMutability": "nonpayable",
      "type": "function"
    },
    {
      "inputs": [
        {
          "internalType": "address",
          "name": "newOwner",
          "type": "address"
        }
      ],
      "name": "transferOwnership",
      "outputs": [],
      "stateMutability": "nonpayable",
      "type": "function"
    },
    {
      "inputs": [
        {
          "internalType": "address",
          "name": "_tokenOwner",
          "type": "address"
        },
        {
          "internalType": "uint256",
          "name": "_amount",
          "type": "uint256"
        },
        {
          "internalType": "uint256",
          "name": "_timeStamp",
          "type": "uint256"
        },
        {
          "internalType": "address",
          "name": "_pool",
          "type": "address"
        },
        {
          "internalType": "address",
          "name": "_asset",
          "type": "address"
        }
      ],
      "name": "addFunds",
      "outputs": [
        {
          "internalType": "uint256",
          "name": "",
          "type": "uint256"
        }
      ],
      "stateMutability": "nonpayable",
      "type": "function"
    },
    {
      "inputs": [
        {
          "internalType": "address",
          "name": "_tokenOwner",
          "type": "address"
        },
        {
          "internalType": "uint256",
          "name": "_amount",
          "type": "uint256"
        },
        {
          "internalType": "address",
          "name": "_pool",
          "type": "address"
        },
        {
          "internalType": "address",
          "name": "_asset",
          "type": "address"
        }
      ],
      "name": "withdrawFunds",
      "outputs": [],
      "stateMutability": "nonpayable",
      "type": "function"
    },
    {
      "inputs": [
        {
          "internalType": "uint256",
          "name": "_tokenId",
          "type": "uint256"
        }
      ],
      "name": "getDepositInfo",
      "outputs": [
        {
          "components": [
            {
              "internalType": "uint256",
              "name": "balance",
              "type": "uint256"
            },
            {
              "internalType": "uint256",
              "name": "timeStamp",
              "type": "uint256"
            },
            {
              "internalType": "uint256",
              "name": "amountScaled",
              "type": "uint256"
            },
            {
              "internalType": "address",
              "name": "pool",
              "type": "address"
            },
            {
              "internalType": "address",
              "name": "asset",
              "type": "address"
            }
          ],
          "internalType": "struct JCDepositorERC721.Deposit",
          "name": "",
          "type": "tuple"
        }
      ],
      "stateMutability": "view",
      "type": "function"
    },
    {
      "inputs": [
        {
          "internalType": "uint256",
          "name": "_tokenId",
          "type": "uint256"
        }
      ],
      "name": "getUserBalance",
      "outputs": [
        {
          "internalType": "uint256",
          "name": "",
          "type": "uint256"
        }
      ],
      "stateMutability": "view",
      "type": "function"
    },
    {
      "inputs": [
        {
          "internalType": "address",
          "name": "_asset",
          "type": "address"
        }
      ],
      "name": "getReserveNormalizedIncome",
      "outputs": [
        {
          "internalType": "uint256",
          "name": "",
          "type": "uint256"
        }
      ],
      "stateMutability": "view",
      "type": "function"
    },
    {
      "inputs": [
        {
          "internalType": "address",
          "name": "_asset",
          "type": "address"
        }
      ],
      "name": "getAaveLiquidityIndex",
      "outputs": [
        {
          "internalType": "uint256",
          "name": "liquidityIndex",
          "type": "uint256"
        }
      ],
      "stateMutability": "view",
      "type": "function"
    }
  ],
  "bytecode": "0x60806040523480156200001157600080fd5b506040518060400160405280601381526020017f4a4350204465706f7369746f7220546f6b656e000000000000000000000000008152506040518060400160405280600c81526020017f4a4350545f544553545f44310000000000000000000000000000000000000000815250816000908051906020019062000096929190620002df565b508060019080519060200190620000af929190620002df565b505050620000d2620000c66200021160201b60201c565b6200021960201b60201c565b735343b5ba672ae99d627a1c87866b8e53f47db2e6600b60006101000a81548173ffffffffffffffffffffffffffffffffffffffff021916908373ffffffffffffffffffffffffffffffffffffffff160217905550600b60009054906101000a900473ffffffffffffffffffffffffffffffffffffffff1673ffffffffffffffffffffffffffffffffffffffff1663026b1d5f6040518163ffffffff1660e01b815260040160206040518083038186803b1580156200019057600080fd5b505afa158015620001a5573d6000803e3d6000fd5b505050506040513d601f19601f82011682018060405250810190620001cb9190620003f9565b600c60006101000a81548173ffffffffffffffffffffffffffffffffffffffff021916908373ffffffffffffffffffffffffffffffffffffffff16021790555062000490565b600033905090565b6000600a60009054906101000a900473ffffffffffffffffffffffffffffffffffffffff16905081600a60006101000a81548173ffffffffffffffffffffffffffffffffffffffff021916908373ffffffffffffffffffffffffffffffffffffffff1602179055508173ffffffffffffffffffffffffffffffffffffffff168173ffffffffffffffffffffffffffffffffffffffff167f8be0079c531659141344cd1fd0a4f28419497f9722a3daafe3b4186f6b6457e060405160405180910390a35050565b828054620002ed906200045a565b90600052602060002090601f0160209004810192826200031157600085556200035d565b82601f106200032c57805160ff19168380011785556200035d565b828001600101855582156200035d579182015b828111156200035c5782518255916020019190600101906200033f565b5b5090506200036c919062000370565b5090565b5b808211156200038b57600081600090555060010162000371565b5090565b600080fd5b600073ffffffffffffffffffffffffffffffffffffffff82169050919050565b6000620003c18262000394565b9050919050565b620003d381620003b4565b8114620003df57600080fd5b50565b600081519050620003f381620003c8565b92915050565b6000602082840312156200041257620004116200038f565b5b60006200042284828501620003e2565b91505092915050565b7f4e487b7100000000000000000000000000000000000000000000000000000000600052602260045260246000fd5b600060028204905060018216806200047357607f821691505b602082108114156200048a57620004896200042b565b5b50919050565b6142ca80620004a06000396000f3fe608060405234801561001057600080fd5b50600436106101735760003560e01c80636ba3fef2116100de57806395d89b4111610097578063c87b56dd11610071578063c87b56dd14610482578063d15e0053146104b2578063e985e9c5146104e2578063f2fde38b1461051257610173565b806395d89b411461042c578063a22cb4651461044a578063b88d4fde1461046657610173565b80636ba3fef21461035857806370a0823114610374578063715018a6146103a457806387fb12bd146103ae5780638aebe8d6146103de5780638da5cb5b1461040e57610173565b80632e0c3f3c116101305780632e0c3f3c1461024c5780632f745c591461027c57806342842e0e146102ac5780634f6ccce7146102c85780635328c2bf146102f85780636352211e1461032857610173565b806301ffc9a71461017857806306fdde03146101a8578063081812fc146101c6578063095ea7b3146101f657806318160ddd1461021257806323b872dd14610230575b600080fd5b610192600480360381019061018d9190612901565b61052e565b60405161019f9190612949565b60405180910390f35b6101b06105a8565b6040516101bd91906129fd565b60405180910390f35b6101e060048036038101906101db9190612a55565b61063a565b6040516101ed9190612ac3565b60405180910390f35b610210600480360381019061020b9190612b0a565b6106bf565b005b61021a6107d7565b6040516102279190612b59565b60405180910390f35b61024a60048036038101906102459190612b74565b6107e4565b005b61026660048036038101906102619190612a55565b610844565b6040516102739190612b59565b60405180910390f35b61029660048036038101906102919190612b0a565b610864565b6040516102a39190612b59565b60405180910390f35b6102c660048036038101906102c19190612b74565b610909565b005b6102e260048036038101906102dd9190612a55565b610929565b6040516102ef9190612b59565b60405180910390f35b610312600480360381019061030d9190612a55565b61099a565b60405161031f9190612c4d565b60405180910390f35b610342600480360381019061033d9190612a55565b610a91565b60405161034f9190612ac3565b60405180910390f35b610372600480360381019061036d9190612c68565b610b43565b005b61038e60048036038101906103899190612ccf565b610d4d565b60405161039b9190612b59565b60405180910390f35b6103ac610e05565b005b6103c860048036038101906103c39190612cfc565b610e8d565b6040516103d59190612b59565b60405180910390f35b6103f860048036038101906103f39190612ccf565b6110f7565b6040516104059190612b59565b60405180910390f35b6104166111c2565b6040516104239190612ac3565b60405180910390f35b6104346111ec565b60405161044191906129fd565b60405180910390f35b610464600480360381019061045f9190612da3565b61127e565b005b610480600480360381019061047b9190612f18565b611294565b005b61049c60048036038101906104979190612a55565b6112f6565b6040516104a991906129fd565b60405180910390f35b6104cc60048036038101906104c79190612ccf565b61139d565b6040516104d99190612b59565b60405180910390f35b6104fc60048036038101906104f79190612f9b565b611451565b6040516105099190612949565b60405180910390f35b61052c60048036038101906105279190612ccf565b6114e5565b005b60007f780e9d63000000000000000000000000000000000000000000000000000000007bffffffffffffffffffffffffffffffffffffffffffffffffffffffff1916827bffffffffffffffffffffffffffffffffffffffffffffffffffffffff191614806105a157506105a0826115dd565b5b9050919050565b6060600080546105b79061300a565b80601f01602080910402602001604051908101604052809291908181526020018280546105e39061300a565b80156106305780601f1061060557610100808354040283529160200191610630565b820191906000526020600020905b81548152906001019060200180831161061357829003601f168201915b5050505050905090565b6000610645826116bf565b610684576040517f08c379a000000000000000000000000000000000000000000000000000000000815260040161067b906130ae565b60405180910390fd5b6004600083815260200190815260200160002060009054906101000a900473ffffffffffffffffffffffffffffffffffffffff169050919050565b60006106ca82610a91565b90508073ffffffffffffffffffffffffffffffffffffffff168373ffffffffffffffffffffffffffffffffffffffff16141561073b576040517f08c379a000000000000000000000000000000000000000000000000000000000815260040161073290613140565b60405180910390fd5b8073ffffffffffffffffffffffffffffffffffffffff1661075a61172b565b73ffffffffffffffffffffffffffffffffffffffff16148061078957506107888161078361172b565b611451565b5b6107c8576040517f08c379a00000000000000000000000000000000000000000000000000000000081526004016107bf906131d2565b60405180910390fd5b6107d28383611733565b505050565b6000600880549050905090565b6107f56107ef61172b565b826117ec565b610834576040517f08c379a000000000000000000000000000000000000000000000000000000000815260040161082b90613264565b60405180910390fd5b61083f8383836118ca565b505050565b6000600d6000838152602001908152602001600020600001549050919050565b600061086f83610d4d565b82106108b0576040517f08c379a00000000000000000000000000000000000000000000000000000000081526004016108a7906132f6565b60405180910390fd5b600660008473ffffffffffffffffffffffffffffffffffffffff1673ffffffffffffffffffffffffffffffffffffffff168152602001908152602001600020600083815260200190815260200160002054905092915050565b61092483838360405180602001604052806000815250611294565b505050565b60006109336107d7565b8210610974576040517f08c379a000000000000000000000000000000000000000000000000000000000815260040161096b90613388565b60405180910390fd5b60088281548110610988576109876133a8565b5b90600052602060002001549050919050565b6109a261283a565b600d60008381526020019081526020016000206040518060a00160405290816000820154815260200160018201548152602001600282015481526020016003820160009054906101000a900473ffffffffffffffffffffffffffffffffffffffff1673ffffffffffffffffffffffffffffffffffffffff1673ffffffffffffffffffffffffffffffffffffffff1681526020016004820160009054906101000a900473ffffffffffffffffffffffffffffffffffffffff1673ffffffffffffffffffffffffffffffffffffffff1673ffffffffffffffffffffffffffffffffffffffff16815250509050919050565b6000806002600084815260200190815260200160002060009054906101000a900473ffffffffffffffffffffffffffffffffffffffff169050600073ffffffffffffffffffffffffffffffffffffffff168173ffffffffffffffffffffffffffffffffffffffff161415610b3a576040517f08c379a0000000000000000000000000000000000000000000000000000000008152600401610b3190613449565b60405180910390fd5b80915050919050565b610b4b61172b565b73ffffffffffffffffffffffffffffffffffffffff16610b696111c2565b73ffffffffffffffffffffffffffffffffffffffff1614610bbf576040517f08c379a0000000000000000000000000000000000000000000000000000000008152600401610bb6906134b5565b60405180910390fd5b6000848383604051602001610bd69392919061351d565b6040516020818303038152906040528051906020012060001c9050610bfa816116bf565b610c39576040517f08c379a0000000000000000000000000000000000000000000000000000000008152600401610c30906135a6565b60405180910390fd5b6000600d600083815260200190815260200160002060000154905084811015610c97576040517f08c379a0000000000000000000000000000000000000000000000000000000008152600401610c8e90613612565b60405180910390fd5b8481610ca39190613661565b90506000811415610ceb576000600d6000848152602001908152602001600020600101819055506000600d600084815260200190815260200160002060020181905550610d2a565b610cfd85610cf8856110f7565b611b26565b600d60008481526020019081526020016000206002016000828254610d229190613661565b925050819055505b80600d600084815260200190815260200160002060000181905550505050505050565b60008073ffffffffffffffffffffffffffffffffffffffff168273ffffffffffffffffffffffffffffffffffffffff161415610dbe576040517f08c379a0000000000000000000000000000000000000000000000000000000008152600401610db590613707565b60405180910390fd5b600360008373ffffffffffffffffffffffffffffffffffffffff1673ffffffffffffffffffffffffffffffffffffffff168152602001908152602001600020549050919050565b610e0d61172b565b73ffffffffffffffffffffffffffffffffffffffff16610e2b6111c2565b73ffffffffffffffffffffffffffffffffffffffff1614610e81576040517f08c379a0000000000000000000000000000000000000000000000000000000008152600401610e78906134b5565b60405180910390fd5b610e8b6000611c32565b565b6000610e9761172b565b73ffffffffffffffffffffffffffffffffffffffff16610eb56111c2565b73ffffffffffffffffffffffffffffffffffffffff1614610f0b576040517f08c379a0000000000000000000000000000000000000000000000000000000008152600401610f02906134b5565b60405180910390fd5b6000868484604051602001610f229392919061351d565b6040516020818303038152906040528051906020012060001c90506000610f48846110f7565b9050610f53826116bf565b15610fc05786600d60008481526020019081526020016000206000016000828254610f7e9190613727565b92505081905550610f8f8782611b26565b600d60008481526020019081526020016000206002016000828254610fb49190613727565b925050819055506110e9565b6040518060a00160405280888152602001878152602001610fe18984611b26565b81526020018673ffffffffffffffffffffffffffffffffffffffff1681526020018573ffffffffffffffffffffffffffffffffffffffff16815250600d600084815260200190815260200160002060008201518160000155602082015181600101556040820151816002015560608201518160030160006101000a81548173ffffffffffffffffffffffffffffffffffffffff021916908373ffffffffffffffffffffffffffffffffffffffff16021790555060808201518160040160006101000a81548173ffffffffffffffffffffffffffffffffffffffff021916908373ffffffffffffffffffffffffffffffffffffffff1602179055509050506110e88883611cf8565b5b819250505095945050505050565b6000600c60009054906101000a900473ffffffffffffffffffffffffffffffffffffffff1673ffffffffffffffffffffffffffffffffffffffff166335ea6a75836040518263ffffffff1660e01b81526004016111549190612ac3565b6101e06040518083038186803b15801561116d57600080fd5b505afa158015611181573d6000803e3d6000fd5b505050506040513d601f19601f820116820180604052508101906111a59190613a0b565b602001516fffffffffffffffffffffffffffffffff169050919050565b6000600a60009054906101000a900473ffffffffffffffffffffffffffffffffffffffff16905090565b6060600180546111fb9061300a565b80601f01602080910402602001604051908101604052809291908181526020018280546112279061300a565b80156112745780601f1061124957610100808354040283529160200191611274565b820191906000526020600020905b81548152906001019060200180831161125757829003601f168201915b5050505050905090565b61129061128961172b565b8383611ec6565b5050565b6112a561129f61172b565b836117ec565b6112e4576040517f08c379a00000000000000000000000000000000000000000000000000000000081526004016112db90613264565b60405180910390fd5b6112f084848484612033565b50505050565b6060611301826116bf565b611340576040517f08c379a000000000000000000000000000000000000000000000000000000000815260040161133790613aab565b60405180910390fd5b600061134a61208f565b9050600081511161136a5760405180602001604052806000815250611395565b80611374846120a6565b604051602001611385929190613b07565b6040516020818303038152906040525b915050919050565b6000600c60009054906101000a900473ffffffffffffffffffffffffffffffffffffffff1673ffffffffffffffffffffffffffffffffffffffff1663d15e0053836040518263ffffffff1660e01b81526004016113fa9190612ac3565b60206040518083038186803b15801561141257600080fd5b505afa158015611426573d6000803e3d6000fd5b505050506040513d601f19601f8201168201806040525081019061144a9190613b2b565b9050919050565b6000600560008473ffffffffffffffffffffffffffffffffffffffff1673ffffffffffffffffffffffffffffffffffffffff16815260200190815260200160002060008373ffffffffffffffffffffffffffffffffffffffff1673ffffffffffffffffffffffffffffffffffffffff16815260200190815260200160002060009054906101000a900460ff16905092915050565b6114ed61172b565b73ffffffffffffffffffffffffffffffffffffffff1661150b6111c2565b73ffffffffffffffffffffffffffffffffffffffff1614611561576040517f08c379a0000000000000000000000000000000000000000000000000000000008152600401611558906134b5565b60405180910390fd5b600073ffffffffffffffffffffffffffffffffffffffff168173ffffffffffffffffffffffffffffffffffffffff1614156115d1576040517f08c379a00000000000000000000000000000000000000000000000000000000081526004016115c890613bca565b60405180910390fd5b6115da81611c32565b50565b60007f80ac58cd000000000000000000000000000000000000000000000000000000007bffffffffffffffffffffffffffffffffffffffffffffffffffffffff1916827bffffffffffffffffffffffffffffffffffffffffffffffffffffffff191614806116a857507f5b5e139f000000000000000000000000000000000000000000000000000000007bffffffffffffffffffffffffffffffffffffffffffffffffffffffff1916827bffffffffffffffffffffffffffffffffffffffffffffffffffffffff1916145b806116b857506116b782612207565b5b9050919050565b60008073ffffffffffffffffffffffffffffffffffffffff166002600084815260200190815260200160002060009054906101000a900473ffffffffffffffffffffffffffffffffffffffff1673ffffffffffffffffffffffffffffffffffffffff1614159050919050565b600033905090565b816004600083815260200190815260200160002060006101000a81548173ffffffffffffffffffffffffffffffffffffffff021916908373ffffffffffffffffffffffffffffffffffffffff160217905550808273ffffffffffffffffffffffffffffffffffffffff166117a683610a91565b73ffffffffffffffffffffffffffffffffffffffff167f8c5be1e5ebec7d5bd14f71427d1e84f3dd0314c0f7b2291e5b200ac8c7c3b92560405160405180910390a45050565b60006117f7826116bf565b611836576040517f08c379a000000000000000000000000000000000000000000000000000000000815260040161182d90613c5c565b60405180910390fd5b600061184183610a91565b90508073ffffffffffffffffffffffffffffffffffffffff168473ffffffffffffffffffffffffffffffffffffffff1614806118b057508373ffffffffffffffffffffffffffffffffffffffff166118988461063a565b73ffffffffffffffffffffffffffffffffffffffff16145b806118c157506118c08185611451565b5b91505092915050565b8273ffffffffffffffffffffffffffffffffffffffff166118ea82610a91565b73ffffffffffffffffffffffffffffffffffffffff1614611940576040517f08c379a000000000000000000000000000000000000000000000000000000000815260040161193790613cee565b60405180910390fd5b600073ffffffffffffffffffffffffffffffffffffffff168273ffffffffffffffffffffffffffffffffffffffff1614156119b0576040517f08c379a00000000000000000000000000000000000000000000000000000000081526004016119a790613d80565b60405180910390fd5b6119bb838383612271565b6119c6600082611733565b6001600360008573ffffffffffffffffffffffffffffffffffffffff1673ffffffffffffffffffffffffffffffffffffffff1681526020019081526020016000206000828254611a169190613661565b925050819055506001600360008473ffffffffffffffffffffffffffffffffffffffff1673ffffffffffffffffffffffffffffffffffffffff1681526020019081526020016000206000828254611a6d9190613727565b92505081905550816002600083815260200190815260200160002060006101000a81548173ffffffffffffffffffffffffffffffffffffffff021916908373ffffffffffffffffffffffffffffffffffffffff160217905550808273ffffffffffffffffffffffffffffffffffffffff168473ffffffffffffffffffffffffffffffffffffffff167fddf252ad1be2c89b69c2b068fc378daa952ba7f163c4a11628f55a4df523b3ef60405160405180910390a4505050565b600080821415611b6b576040517f08c379a0000000000000000000000000000000000000000000000000000000008152600401611b6290613dec565b60405180910390fd5b6000600283611b7a9190613e3b565b905060006b033b2e3c9fd0803ce8000000905080827fffffffffffffffffffffffffffffffffffffffffffffffffffffffffffffffff611bba9190613661565b611bc49190613e3b565b851115611c06576040517f08c379a0000000000000000000000000000000000000000000000000000000008152600401611bfd90613eb8565b60405180910390fd5b83828287611c149190613ed8565b611c1e9190613727565b611c289190613e3b565b9250505092915050565b6000600a60009054906101000a900473ffffffffffffffffffffffffffffffffffffffff16905081600a60006101000a81548173ffffffffffffffffffffffffffffffffffffffff021916908373ffffffffffffffffffffffffffffffffffffffff1602179055508173ffffffffffffffffffffffffffffffffffffffff168173ffffffffffffffffffffffffffffffffffffffff167f8be0079c531659141344cd1fd0a4f28419497f9722a3daafe3b4186f6b6457e060405160405180910390a35050565b600073ffffffffffffffffffffffffffffffffffffffff168273ffffffffffffffffffffffffffffffffffffffff161415611d68576040517f08c379a0000000000000000000000000000000000000000000000000000000008152600401611d5f90613f7e565b60405180910390fd5b611d71816116bf565b15611db1576040517f08c379a0000000000000000000000000000000000000000000000000000000008152600401611da890613fea565b60405180910390fd5b611dbd60008383612271565b6001600360008473ffffffffffffffffffffffffffffffffffffffff1673ffffffffffffffffffffffffffffffffffffffff1681526020019081526020016000206000828254611e0d9190613727565b92505081905550816002600083815260200190815260200160002060006101000a81548173ffffffffffffffffffffffffffffffffffffffff021916908373ffffffffffffffffffffffffffffffffffffffff160217905550808273ffffffffffffffffffffffffffffffffffffffff16600073ffffffffffffffffffffffffffffffffffffffff167fddf252ad1be2c89b69c2b068fc378daa952ba7f163c4a11628f55a4df523b3ef60405160405180910390a45050565b8173ffffffffffffffffffffffffffffffffffffffff168373ffffffffffffffffffffffffffffffffffffffff161415611f35576040517f08c379a0000000000000000000000000000000000000000000000000000000008152600401611f2c90614056565b60405180910390fd5b80600560008573ffffffffffffffffffffffffffffffffffffffff1673ffffffffffffffffffffffffffffffffffffffff16815260200190815260200160002060008473ffffffffffffffffffffffffffffffffffffffff1673ffffffffffffffffffffffffffffffffffffffff16815260200190815260200160002060006101000a81548160ff0219169083151502179055508173ffffffffffffffffffffffffffffffffffffffff168373ffffffffffffffffffffffffffffffffffffffff167f17307eab39ab6107e8899845ad3d59bd9653f200f220920489ca2b5937696c31836040516120269190612949565b60405180910390a3505050565b61203e8484846118ca565b61204a84848484612385565b612089576040517f08c379a0000000000000000000000000000000000000000000000000000000008152600401612080906140e8565b60405180910390fd5b50505050565b606060405180602001604052806000815250905090565b606060008214156120ee576040518060400160405280600181526020017f30000000000000000000000000000000000000000000000000000000000000008152509050612202565b600082905060005b6000821461212057808061210990614108565b915050600a826121199190613e3b565b91506120f6565b60008167ffffffffffffffff81111561213c5761213b612ded565b5b6040519080825280601f01601f19166020018201604052801561216e5781602001600182028036833780820191505090505b5090505b600085146121fb576001826121879190613661565b9150600a856121969190614151565b60306121a29190613727565b60f81b8183815181106121b8576121b76133a8565b5b60200101907effffffffffffffffffffffffffffffffffffffffffffffffffffffffffffff1916908160001a905350600a856121f49190613e3b565b9450612172565b8093505050505b919050565b60007f01ffc9a7000000000000000000000000000000000000000000000000000000007bffffffffffffffffffffffffffffffffffffffffffffffffffffffff1916827bffffffffffffffffffffffffffffffffffffffffffffffffffffffff1916149050919050565b61227c83838361251c565b600073ffffffffffffffffffffffffffffffffffffffff168373ffffffffffffffffffffffffffffffffffffffff1614156122bf576122ba81612521565b6122fe565b8173ffffffffffffffffffffffffffffffffffffffff168373ffffffffffffffffffffffffffffffffffffffff16146122fd576122fc838261256a565b5b5b600073ffffffffffffffffffffffffffffffffffffffff168273ffffffffffffffffffffffffffffffffffffffff1614156123415761233c816126d7565b612380565b8273ffffffffffffffffffffffffffffffffffffffff168273ffffffffffffffffffffffffffffffffffffffff161461237f5761237e82826127a8565b5b5b505050565b60006123a68473ffffffffffffffffffffffffffffffffffffffff16612827565b1561250f578373ffffffffffffffffffffffffffffffffffffffff1663150b7a026123cf61172b565b8786866040518563ffffffff1660e01b81526004016123f194939291906141d7565b602060405180830381600087803b15801561240b57600080fd5b505af192505050801561243c57506040513d601f19601f820116820180604052508101906124399190614238565b60015b6124bf573d806000811461246c576040519150601f19603f3d011682016040523d82523d6000602084013e612471565b606091505b506000815114156124b7576040517f08c379a00000000000000000000000000000000000000000000000000000000081526004016124ae906140e8565b60405180910390fd5b805181602001fd5b63150b7a0260e01b7bffffffffffffffffffffffffffffffffffffffffffffffffffffffff1916817bffffffffffffffffffffffffffffffffffffffffffffffffffffffff191614915050612514565b600190505b949350505050565b505050565b6008805490506009600083815260200190815260200160002081905550600881908060018154018082558091505060019003906000526020600020016000909190919091505550565b6000600161257784610d4d565b6125819190613661565b9050600060076000848152602001908152602001600020549050818114612666576000600660008673ffffffffffffffffffffffffffffffffffffffff1673ffffffffffffffffffffffffffffffffffffffff168152602001908152602001600020600084815260200190815260200160002054905080600660008773ffffffffffffffffffffffffffffffffffffffff1673ffffffffffffffffffffffffffffffffffffffff168152602001908152602001600020600084815260200190815260200160002081905550816007600083815260200190815260200160002081905550505b6007600084815260200190815260200160002060009055600660008573ffffffffffffffffffffffffffffffffffffffff1673ffffffffffffffffffffffffffffffffffffffff16815260200190815260200160002060008381526020019081526020016000206000905550505050565b600060016008805490506126eb9190613661565b905060006009600084815260200190815260200160002054905060006008838154811061271b5761271a6133a8565b5b90600052602060002001549050806008838154811061273d5761273c6133a8565b5b90600052602060002001819055508160096000838152602001908152602001600020819055506009600085815260200190815260200160002060009055600880548061278c5761278b614265565b5b6001900381819060005260206000200160009055905550505050565b60006127b383610d4d565b905081600660008573ffffffffffffffffffffffffffffffffffffffff1673ffffffffffffffffffffffffffffffffffffffff168152602001908152602001600020600083815260200190815260200160002081905550806007600084815260200190815260200160002081905550505050565b600080823b905060008111915050919050565b6040518060a00160405280600081526020016000815260200160008152602001600073ffffffffffffffffffffffffffffffffffffffff168152602001600073ffffffffffffffffffffffffffffffffffffffff1681525090565b6000604051905090565b600080fd5b600080fd5b60007fffffffff0000000000000000000000000000000000000000000000000000000082169050919050565b6128de816128a9565b81146128e957600080fd5b50565b6000813590506128fb816128d5565b92915050565b6000602082840312156129175761291661289f565b5b6000612925848285016128ec565b91505092915050565b60008115159050919050565b6129438161292e565b82525050565b600060208201905061295e600083018461293a565b92915050565b600081519050919050565b600082825260208201905092915050565b60005b8381101561299e578082015181840152602081019050612983565b838111156129ad576000848401525b50505050565b6000601f19601f8301169050919050565b60006129cf82612964565b6129d9818561296f565b93506129e9818560208601612980565b6129f2816129b3565b840191505092915050565b60006020820190508181036000830152612a1781846129c4565b905092915050565b6000819050919050565b612a3281612a1f565b8114612a3d57600080fd5b50565b600081359050612a4f81612a29565b92915050565b600060208284031215612a6b57612a6a61289f565b5b6000612a7984828501612a40565b91505092915050565b600073ffffffffffffffffffffffffffffffffffffffff82169050919050565b6000612aad82612a82565b9050919050565b612abd81612aa2565b82525050565b6000602082019050612ad86000830184612ab4565b92915050565b612ae781612aa2565b8114612af257600080fd5b50565b600081359050612b0481612ade565b92915050565b60008060408385031215612b2157612b2061289f565b5b6000612b2f85828601612af5565b9250506020612b4085828601612a40565b9150509250929050565b612b5381612a1f565b82525050565b6000602082019050612b6e6000830184612b4a565b92915050565b600080600060608486031215612b8d57612b8c61289f565b5b6000612b9b86828701612af5565b9350506020612bac86828701612af5565b9250506040612bbd86828701612a40565b9150509250925092565b612bd081612a1f565b82525050565b612bdf81612aa2565b82525050565b60a082016000820151612bfb6000850182612bc7565b506020820151612c0e6020850182612bc7565b506040820151612c216040850182612bc7565b506060820151612c346060850182612bd6565b506080820151612c476080850182612bd6565b50505050565b600060a082019050612c626000830184612be5565b92915050565b60008060008060808587031215612c8257612c8161289f565b5b6000612c9087828801612af5565b9450506020612ca187828801612a40565b9350506040612cb287828801612af5565b9250506060612cc387828801612af5565b91505092959194509250565b600060208284031215612ce557612ce461289f565b5b6000612cf384828501612af5565b91505092915050565b600080600080600060a08688031215612d1857612d1761289f565b5b6000612d2688828901612af5565b9550506020612d3788828901612a40565b9450506040612d4888828901612a40565b9350506060612d5988828901612af5565b9250506080612d6a88828901612af5565b9150509295509295909350565b612d808161292e565b8114612d8b57600080fd5b50565b600081359050612d9d81612d77565b92915050565b60008060408385031215612dba57612db961289f565b5b6000612dc885828601612af5565b9250506020612dd985828601612d8e565b9150509250929050565b600080fd5b600080fd5b7f4e487b7100000000000000000000000000000000000000000000000000000000600052604160045260246000fd5b612e25826129b3565b810181811067ffffffffffffffff82111715612e4457612e43612ded565b5b80604052505050565b6000612e57612895565b9050612e638282612e1c565b919050565b600067ffffffffffffffff821115612e8357612e82612ded565b5b612e8c826129b3565b9050602081019050919050565b82818337600083830152505050565b6000612ebb612eb684612e68565b612e4d565b905082815260208101848484011115612ed757612ed6612de8565b5b612ee2848285612e99565b509392505050565b600082601f830112612eff57612efe612de3565b5b8135612f0f848260208601612ea8565b91505092915050565b60008060008060808587031215612f3257612f3161289f565b5b6000612f4087828801612af5565b9450506020612f5187828801612af5565b9350506040612f6287828801612a40565b925050606085013567ffffffffffffffff811115612f8357612f826128a4565b5b612f8f87828801612eea565b91505092959194509250565b60008060408385031215612fb257612fb161289f565b5b6000612fc085828601612af5565b9250506020612fd185828601612af5565b9150509250929050565b7f4e487b7100000000000000000000000000000000000000000000000000000000600052602260045260246000fd5b6000600282049050600182168061302257607f821691505b6020821081141561303657613035612fdb565b5b50919050565b7f4552433732313a20617070726f76656420717565727920666f72206e6f6e657860008201527f697374656e7420746f6b656e0000000000000000000000000000000000000000602082015250565b6000613098602c8361296f565b91506130a38261303c565b604082019050919050565b600060208201905081810360008301526130c78161308b565b9050919050565b7f4552433732313a20617070726f76616c20746f2063757272656e74206f776e6560008201527f7200000000000000000000000000000000000000000000000000000000000000602082015250565b600061312a60218361296f565b9150613135826130ce565b604082019050919050565b600060208201905081810360008301526131598161311d565b9050919050565b7f4552433732313a20617070726f76652063616c6c6572206973206e6f74206f7760008201527f6e6572206e6f7220617070726f76656420666f7220616c6c0000000000000000602082015250565b60006131bc60388361296f565b91506131c782613160565b604082019050919050565b600060208201905081810360008301526131eb816131af565b9050919050565b7f4552433732313a207472616e736665722063616c6c6572206973206e6f74206f60008201527f776e6572206e6f7220617070726f766564000000000000000000000000000000602082015250565b600061324e60318361296f565b9150613259826131f2565b604082019050919050565b6000602082019050818103600083015261327d81613241565b9050919050565b7f455243373231456e756d657261626c653a206f776e657220696e646578206f7560008201527f74206f6620626f756e6473000000000000000000000000000000000000000000602082015250565b60006132e0602b8361296f565b91506132eb82613284565b604082019050919050565b6000602082019050818103600083015261330f816132d3565b9050919050565b7f455243373231456e756d657261626c653a20676c6f62616c20696e646578206f60008201527f7574206f6620626f756e64730000000000000000000000000000000000000000602082015250565b6000613372602c8361296f565b915061337d82613316565b604082019050919050565b600060208201905081810360008301526133a181613365565b9050919050565b7f4e487b7100000000000000000000000000000000000000000000000000000000600052603260045260246000fd5b7f4552433732313a206f776e657220717565727920666f72206e6f6e657869737460008201527f656e7420746f6b656e0000000000000000000000000000000000000000000000602082015250565b600061343360298361296f565b915061343e826133d7565b604082019050919050565b6000602082019050818103600083015261346281613426565b9050919050565b7f4f776e61626c653a2063616c6c6572206973206e6f7420746865206f776e6572600082015250565b600061349f60208361296f565b91506134aa82613469565b602082019050919050565b600060208201905081810360008301526134ce81613492565b9050919050565b60008160601b9050919050565b60006134ed826134d5565b9050919050565b60006134ff826134e2565b9050919050565b61351761351282612aa2565b6134f4565b82525050565b60006135298286613506565b6014820191506135398285613506565b6014820191506135498284613506565b601482019150819050949350505050565b7f746f6b656e496420646f65736e27742065786973740000000000000000000000600082015250565b600061359060158361296f565b915061359b8261355a565b602082019050919050565b600060208201905081810360008301526135bf81613583565b9050919050565b7f696e73756666696369656e742062616c616e6365000000000000000000000000600082015250565b60006135fc60148361296f565b9150613607826135c6565b602082019050919050565b6000602082019050818103600083015261362b816135ef565b9050919050565b7f4e487b7100000000000000000000000000000000000000000000000000000000600052601160045260246000fd5b600061366c82612a1f565b915061367783612a1f565b92508282101561368a57613689613632565b5b828203905092915050565b7f4552433732313a2062616c616e636520717565727920666f7220746865207a6560008201527f726f206164647265737300000000000000000000000000000000000000000000602082015250565b60006136f1602a8361296f565b91506136fc82613695565b604082019050919050565b60006020820190508181036000830152613720816136e4565b9050919050565b600061373282612a1f565b915061373d83612a1f565b9250827fffffffffffffffffffffffffffffffffffffffffffffffffffffffffffffffff0382111561377257613771613632565b5b828201905092915050565b600080fd5b60008151905061379181612a29565b92915050565b6000602082840312156137ad576137ac61377d565b5b6137b76020612e4d565b905060006137c784828501613782565b60008301525092915050565b60006fffffffffffffffffffffffffffffffff82169050919050565b6137f8816137d3565b811461380357600080fd5b50565b600081519050613815816137ef565b92915050565b600064ffffffffff82169050919050565b6138358161381b565b811461384057600080fd5b50565b6000815190506138528161382c565b92915050565b600061ffff82169050919050565b61386f81613858565b811461387a57600080fd5b50565b60008151905061388c81613866565b92915050565b6000815190506138a181612ade565b92915050565b60006101e082840312156138be576138bd61377d565b5b6138c96101e0612e4d565b905060006138d984828501613797565b60008301525060206138ed84828501613806565b602083015250604061390184828501613806565b604083015250606061391584828501613806565b606083015250608061392984828501613806565b60808301525060a061393d84828501613806565b60a08301525060c061395184828501613843565b60c08301525060e06139658482850161387d565b60e08301525061010061397a84828501613892565b6101008301525061012061399084828501613892565b610120830152506101406139a684828501613892565b610140830152506101606139bc84828501613892565b610160830152506101806139d284828501613806565b610180830152506101a06139e884828501613806565b6101a0830152506101c06139fe84828501613806565b6101c08301525092915050565b60006101e08284031215613a2257613a2161289f565b5b6000613a30848285016138a7565b91505092915050565b7f4552433732314d657461646174613a2055524920717565727920666f72206e6f60008201527f6e6578697374656e7420746f6b656e0000000000000000000000000000000000602082015250565b6000613a95602f8361296f565b9150613aa082613a39565b604082019050919050565b60006020820190508181036000830152613ac481613a88565b9050919050565b600081905092915050565b6000613ae182612964565b613aeb8185613acb565b9350613afb818560208601612980565b80840191505092915050565b6000613b138285613ad6565b9150613b1f8284613ad6565b91508190509392505050565b600060208284031215613b4157613b4061289f565b5b6000613b4f84828501613782565b91505092915050565b7f4f776e61626c653a206e6577206f776e657220697320746865207a65726f206160008201527f6464726573730000000000000000000000000000000000000000000000000000602082015250565b6000613bb460268361296f565b9150613bbf82613b58565b604082019050919050565b60006020820190508181036000830152613be381613ba7565b9050919050565b7f4552433732313a206f70657261746f7220717565727920666f72206e6f6e657860008201527f697374656e7420746f6b656e0000000000000000000000000000000000000000602082015250565b6000613c46602c8361296f565b9150613c5182613bea565b604082019050919050565b60006020820190508181036000830152613c7581613c39565b9050919050565b7f4552433732313a207472616e73666572206f6620746f6b656e2074686174206960008201527f73206e6f74206f776e0000000000000000000000000000000000000000000000602082015250565b6000613cd860298361296f565b9150613ce382613c7c565b604082019050919050565b60006020820190508181036000830152613d0781613ccb565b9050919050565b7f4552433732313a207472616e7366657220746f20746865207a65726f2061646460008201527f7265737300000000000000000000000000000000000000000000000000000000602082015250565b6000613d6a60248361296f565b9150613d7582613d0e565b604082019050919050565b60006020820190508181036000830152613d9981613d5d565b9050919050565b7f6469766973696f6e206279203000000000000000000000000000000000000000600082015250565b6000613dd6600d8361296f565b9150613de182613da0565b602082019050919050565b60006020820190508181036000830152613e0581613dc9565b9050919050565b7f4e487b7100000000000000000000000000000000000000000000000000000000600052601260045260246000fd5b6000613e4682612a1f565b9150613e5183612a1f565b925082613e6157613e60613e0c565b5b828204905092915050565b7f6d756c7469706c69636174696f6e206f766572666c6f77000000000000000000600082015250565b6000613ea260178361296f565b9150613ead82613e6c565b602082019050919050565b60006020820190508181036000830152613ed181613e95565b9050919050565b6000613ee382612a1f565b9150613eee83612a1f565b9250817fffffffffffffffffffffffffffffffffffffffffffffffffffffffffffffffff0483118215151615613f2757613f26613632565b5b828202905092915050565b7f4552433732313a206d696e7420746f20746865207a65726f2061646472657373600082015250565b6000613f6860208361296f565b9150613f7382613f32565b602082019050919050565b60006020820190508181036000830152613f9781613f5b565b9050919050565b7f4552433732313a20746f6b656e20616c7265616479206d696e74656400000000600082015250565b6000613fd4601c8361296f565b9150613fdf82613f9e565b602082019050919050565b6000602082019050818103600083015261400381613fc7565b9050919050565b7f4552433732313a20617070726f766520746f2063616c6c657200000000000000600082015250565b600061404060198361296f565b915061404b8261400a565b602082019050919050565b6000602082019050818103600083015261406f81614033565b9050919050565b7f4552433732313a207472616e7366657220746f206e6f6e20455243373231526560008201527f63656976657220696d706c656d656e7465720000000000000000000000000000602082015250565b60006140d260328361296f565b91506140dd82614076565b604082019050919050565b60006020820190508181036000830152614101816140c5565b9050919050565b600061411382612a1f565b91507fffffffffffffffffffffffffffffffffffffffffffffffffffffffffffffffff82141561414657614145613632565b5b600182019050919050565b600061415c82612a1f565b915061416783612a1f565b92508261417757614176613e0c565b5b828206905092915050565b600081519050919050565b600082825260208201905092915050565b60006141a982614182565b6141b3818561418d565b93506141c3818560208601612980565b6141cc816129b3565b840191505092915050565b60006080820190506141ec6000830187612ab4565b6141f96020830186612ab4565b6142066040830185612b4a565b8181036060830152614218818461419e565b905095945050505050565b600081519050614232816128d5565b92915050565b60006020828403121561424e5761424d61289f565b5b600061425c84828501614223565b91505092915050565b7f4e487b7100000000000000000000000000000000000000000000000000000000600052603160045260246000fdfea264697066735822122019d5c241a5c345ccc0c52e60156bcc1e2a3e8cbe05f53671e5d4c3680ff5402764736f6c63430008090033",
  "immutableReferences": {},
  "source": "// SPDX-License-Identifier: MIT\npragma solidity 0.8.9;\n\nimport {IPool, IPoolAddressesProvider} from './Interfaces.sol';\n\nimport \"@openzeppelin/contracts/token/ERC721/extensions/ERC721Enumerable.sol\";\nimport \"@openzeppelin/contracts/access/Ownable.sol\";\n\n\ncontract JCDepositorERC721 is ERC721Enumerable, Ownable {\n\n    struct Deposit {\n        uint256 balance;\n        //uint256 interestEarned;\n        uint256 timeStamp;\n        uint256 amountScaled;\n        address pool;\n        address asset;\n    }\n\n    IPoolAddressesProvider provider;\n    address poolAddr;\n    //IProtocolDataProvider constant dataProvider = IProtocolDataProvider(address(0x3c73A5E5785cAC854D468F727c606C07488a29D6)); // Kovan\n\n    //key = keccak hash of depositor, pool and asset addresses\n    mapping (uint256 => Deposit) deposits;\n\n    constructor() ERC721(\"JCP Depositor Token\", \"JCPT_TEST_D1\") {\n        provider = IPoolAddressesProvider(address(0x5343b5bA672Ae99d627A1C87866b8E53F47Db2E6)); // polygon mumbai v3\n        poolAddr = provider.getPool();\n    }\n\n    function addFunds(address _tokenOwner, uint256 _amount, uint256 _timeStamp, address _pool, address _asset) onlyOwner public returns (uint256) {\n        //_tokenIds.increment();\n        //uint256 tokenId = _tokenIds.current();\n        uint256 tokenId = uint256(keccak256(abi.encodePacked(_tokenOwner, _pool, _asset)));\n        uint256 liquidityIndex = getAaveLiquidityIndex(_asset);\n        if(_exists(tokenId)){\n            deposits[tokenId].balance += _amount;\n            deposits[tokenId].amountScaled += rayDiv(_amount, liquidityIndex);\n        }\n        else{\n            deposits[tokenId] = Deposit(_amount, _timeStamp, rayDiv(_amount, liquidityIndex), _pool, _asset);\n            _mint(_tokenOwner, tokenId);\n        }\n        //_setTokenURI(tokenId, tokenURI);\n\n        return tokenId;\n    }\n\n    function withdrawFunds(address _tokenOwner, uint256 _amount, address _pool, address _asset) onlyOwner external {\n        uint256 tokenId = uint256(keccak256(abi.encodePacked(_tokenOwner, _pool, _asset)));\n        require(_exists(tokenId), \"tokenId doesn't exist\");\n\n        uint256 balance = deposits[tokenId].balance;\n        require(balance >= _amount, \"insufficient balance\");\n        balance -= _amount;\n        if(balance == 0){\n            // problem is if claimant calls claim this alters the interest earned\n            //deposits[tokenId].interestEarned += getATokenAmount(tokenId) - _amount;\n            deposits[tokenId].timeStamp = 0;\n            deposits[tokenId].amountScaled = 0;\n        }\n        else{\n            deposits[tokenId].amountScaled -= rayDiv(_amount, getAaveLiquidityIndex(_asset));\n        }\n        deposits[tokenId].balance = balance;\n    }\n\n    function getDepositInfo(uint256 _tokenId) public view returns (Deposit memory){\n        return deposits[_tokenId];\n    }\n\n    function getUserBalance(uint256 _tokenId) public view returns (uint256){\n        return deposits[_tokenId].balance;\n    }\n\n    function getATokenAmount(uint256 _tokenId) internal view returns(uint256){\n        return rayMul(deposits[_tokenId].amountScaled, getReserveNormalizedIncome(deposits[_tokenId].asset));\n    }\n\n    function getReserveNormalizedIncome(address _asset) public view returns(uint256){\n        return IPool(poolAddr).getReserveNormalizedIncome(_asset);\n    }\n\n    function getAaveLiquidityIndex(address _asset) public view returns(uint256 liquidityIndex){\n        //(,liquidityIndex,,,,,,,,,,,,,) = IPool(poolAddr).getReserveData(_asset);\n        liquidityIndex = IPool(poolAddr).getReserveData(_asset).liquidityIndex;\n    }\n\n    /**\n   * @dev Divides two ray, rounding half up to the nearest ray\n   * @param a Ray\n   * @param b Ray\n   * @return The result of a/b, in ray\n   **/\n    function rayDiv(uint256 a, uint256 b) internal pure returns (uint256) {\n        require(b != 0, 'division by 0');\n        uint256 halfB = b / 2;\n\n        uint256 ray = 1e27;\n        require(a <= (type(uint256).max - halfB) / ray, 'multiplication overflow');\n\n        return (a * ray + halfB) / b;\n    }\n\n   /**\n   * @dev Multiplies two ray, rounding half up to the nearest ray\n   * @param a Ray\n   * @param b Ray\n   * @return The result of a*b, in ray\n   **/\n  function rayMul(uint256 a, uint256 b) internal pure returns (uint256) {\n    if (a == 0 || b == 0) {\n      return 0;\n    }\n\n    uint256 ray = 1e27;\n    uint256 halfRAY = ray / 2;\n    require(a <= (type(uint256).max - halfRAY) / b, 'multiplication overflow');\n\n    return (a * b + halfRAY) / ray;\n  }\n}",
  "sourcePath": "/home/smeee/just_cause/contracts/polygon/JCDepositorERC721.sol",
  "compiler": {
    "name": "solc",
    "version": "0.8.9+commit.e5eed63a.Emscripten.clang"
  },
  "schemaVersion": "3.4.5",
  "updatedAt": "2022-04-06T03:54:03.364Z",
  "devdoc": {
    "kind": "dev",
    "methods": {
      "approve(address,uint256)": {
        "details": "See {IERC721-approve}."
      },
      "balanceOf(address)": {
        "details": "See {IERC721-balanceOf}."
      },
      "getApproved(uint256)": {
        "details": "See {IERC721-getApproved}."
      },
      "isApprovedForAll(address,address)": {
        "details": "See {IERC721-isApprovedForAll}."
      },
      "name()": {
        "details": "See {IERC721Metadata-name}."
      },
      "owner()": {
        "details": "Returns the address of the current owner."
      },
      "ownerOf(uint256)": {
        "details": "See {IERC721-ownerOf}."
      },
      "renounceOwnership()": {
        "details": "Leaves the contract without owner. It will not be possible to call `onlyOwner` functions anymore. Can only be called by the current owner. NOTE: Renouncing ownership will leave the contract without an owner, thereby removing any functionality that is only available to the owner."
      },
      "safeTransferFrom(address,address,uint256)": {
        "details": "See {IERC721-safeTransferFrom}."
      },
      "safeTransferFrom(address,address,uint256,bytes)": {
        "details": "See {IERC721-safeTransferFrom}."
      },
      "setApprovalForAll(address,bool)": {
        "details": "See {IERC721-setApprovalForAll}."
      },
      "supportsInterface(bytes4)": {
        "details": "See {IERC165-supportsInterface}."
      },
      "symbol()": {
        "details": "See {IERC721Metadata-symbol}."
      },
      "tokenByIndex(uint256)": {
        "details": "See {IERC721Enumerable-tokenByIndex}."
      },
      "tokenOfOwnerByIndex(address,uint256)": {
        "details": "See {IERC721Enumerable-tokenOfOwnerByIndex}."
      },
      "tokenURI(uint256)": {
        "details": "See {IERC721Metadata-tokenURI}."
      },
      "totalSupply()": {
        "details": "See {IERC721Enumerable-totalSupply}."
      },
      "transferFrom(address,address,uint256)": {
        "details": "See {IERC721-transferFrom}."
      },
      "transferOwnership(address)": {
        "details": "Transfers ownership of the contract to a new account (`newOwner`). Can only be called by the current owner."
      }
    },
    "version": 1
  },
  "userdoc": {
    "kind": "user",
    "methods": {},
    "version": 1
  }
}