{
  "contractName": "JCDepositorERC721",
  "abi": [
    {
      "inputs": [],
      "stateMutability": "nonpayable",
      "type": "constructor"
    },
    {
      "anonymous": false,
      "inputs": [
        {
          "indexed": true,
          "internalType": "address",
          "name": "owner",
          "type": "address"
        },
        {
          "indexed": true,
          "internalType": "address",
          "name": "approved",
          "type": "address"
        },
        {
          "indexed": true,
          "internalType": "uint256",
          "name": "tokenId",
          "type": "uint256"
        }
      ],
      "name": "Approval",
      "type": "event"
    },
    {
      "anonymous": false,
      "inputs": [
        {
          "indexed": true,
          "internalType": "address",
          "name": "owner",
          "type": "address"
        },
        {
          "indexed": true,
          "internalType": "address",
          "name": "operator",
          "type": "address"
        },
        {
          "indexed": false,
          "internalType": "bool",
          "name": "approved",
          "type": "bool"
        }
      ],
      "name": "ApprovalForAll",
      "type": "event"
    },
    {
      "anonymous": false,
      "inputs": [
        {
          "indexed": true,
          "internalType": "address",
          "name": "previousOwner",
          "type": "address"
        },
        {
          "indexed": true,
          "internalType": "address",
          "name": "newOwner",
          "type": "address"
        }
      ],
      "name": "OwnershipTransferred",
      "type": "event"
    },
    {
      "anonymous": false,
      "inputs": [
        {
          "indexed": true,
          "internalType": "address",
          "name": "from",
          "type": "address"
        },
        {
          "indexed": true,
          "internalType": "address",
          "name": "to",
          "type": "address"
        },
        {
          "indexed": true,
          "internalType": "uint256",
          "name": "tokenId",
          "type": "uint256"
        }
      ],
      "name": "Transfer",
      "type": "event"
    },
    {
      "inputs": [
        {
          "internalType": "address",
          "name": "to",
          "type": "address"
        },
        {
          "internalType": "uint256",
          "name": "tokenId",
          "type": "uint256"
        }
      ],
      "name": "approve",
      "outputs": [],
      "stateMutability": "nonpayable",
      "type": "function"
    },
    {
      "inputs": [
        {
          "internalType": "address",
          "name": "owner",
          "type": "address"
        }
      ],
      "name": "balanceOf",
      "outputs": [
        {
          "internalType": "uint256",
          "name": "",
          "type": "uint256"
        }
      ],
      "stateMutability": "view",
      "type": "function"
    },
    {
      "inputs": [
        {
          "internalType": "uint256",
          "name": "tokenId",
          "type": "uint256"
        }
      ],
      "name": "getApproved",
      "outputs": [
        {
          "internalType": "address",
          "name": "",
          "type": "address"
        }
      ],
      "stateMutability": "view",
      "type": "function"
    },
    {
      "inputs": [
        {
          "internalType": "address",
          "name": "owner",
          "type": "address"
        },
        {
          "internalType": "address",
          "name": "operator",
          "type": "address"
        }
      ],
      "name": "isApprovedForAll",
      "outputs": [
        {
          "internalType": "bool",
          "name": "",
          "type": "bool"
        }
      ],
      "stateMutability": "view",
      "type": "function"
    },
    {
      "inputs": [],
      "name": "name",
      "outputs": [
        {
          "internalType": "string",
          "name": "",
          "type": "string"
        }
      ],
      "stateMutability": "view",
      "type": "function"
    },
    {
      "inputs": [],
      "name": "owner",
      "outputs": [
        {
          "internalType": "address",
          "name": "",
          "type": "address"
        }
      ],
      "stateMutability": "view",
      "type": "function"
    },
    {
      "inputs": [
        {
          "internalType": "uint256",
          "name": "tokenId",
          "type": "uint256"
        }
      ],
      "name": "ownerOf",
      "outputs": [
        {
          "internalType": "address",
          "name": "",
          "type": "address"
        }
      ],
      "stateMutability": "view",
      "type": "function"
    },
    {
      "inputs": [],
      "name": "renounceOwnership",
      "outputs": [],
      "stateMutability": "nonpayable",
      "type": "function"
    },
    {
      "inputs": [
        {
          "internalType": "address",
          "name": "from",
          "type": "address"
        },
        {
          "internalType": "address",
          "name": "to",
          "type": "address"
        },
        {
          "internalType": "uint256",
          "name": "tokenId",
          "type": "uint256"
        }
      ],
      "name": "safeTransferFrom",
      "outputs": [],
      "stateMutability": "nonpayable",
      "type": "function"
    },
    {
      "inputs": [
        {
          "internalType": "address",
          "name": "from",
          "type": "address"
        },
        {
          "internalType": "address",
          "name": "to",
          "type": "address"
        },
        {
          "internalType": "uint256",
          "name": "tokenId",
          "type": "uint256"
        },
        {
          "internalType": "bytes",
          "name": "_data",
          "type": "bytes"
        }
      ],
      "name": "safeTransferFrom",
      "outputs": [],
      "stateMutability": "nonpayable",
      "type": "function"
    },
    {
      "inputs": [
        {
          "internalType": "address",
          "name": "operator",
          "type": "address"
        },
        {
          "internalType": "bool",
          "name": "approved",
          "type": "bool"
        }
      ],
      "name": "setApprovalForAll",
      "outputs": [],
      "stateMutability": "nonpayable",
      "type": "function"
    },
    {
      "inputs": [
        {
          "internalType": "bytes4",
          "name": "interfaceId",
          "type": "bytes4"
        }
      ],
      "name": "supportsInterface",
      "outputs": [
        {
          "internalType": "bool",
          "name": "",
          "type": "bool"
        }
      ],
      "stateMutability": "view",
      "type": "function"
    },
    {
      "inputs": [],
      "name": "symbol",
      "outputs": [
        {
          "internalType": "string",
          "name": "",
          "type": "string"
        }
      ],
      "stateMutability": "view",
      "type": "function"
    },
    {
      "inputs": [
        {
          "internalType": "uint256",
          "name": "index",
          "type": "uint256"
        }
      ],
      "name": "tokenByIndex",
      "outputs": [
        {
          "internalType": "uint256",
          "name": "",
          "type": "uint256"
        }
      ],
      "stateMutability": "view",
      "type": "function"
    },
    {
      "inputs": [
        {
          "internalType": "address",
          "name": "owner",
          "type": "address"
        },
        {
          "internalType": "uint256",
          "name": "index",
          "type": "uint256"
        }
      ],
      "name": "tokenOfOwnerByIndex",
      "outputs": [
        {
          "internalType": "uint256",
          "name": "",
          "type": "uint256"
        }
      ],
      "stateMutability": "view",
      "type": "function"
    },
    {
      "inputs": [
        {
          "internalType": "uint256",
          "name": "tokenId",
          "type": "uint256"
        }
      ],
      "name": "tokenURI",
      "outputs": [
        {
          "internalType": "string",
          "name": "",
          "type": "string"
        }
      ],
      "stateMutability": "view",
      "type": "function"
    },
    {
      "inputs": [],
      "name": "totalSupply",
      "outputs": [
        {
          "internalType": "uint256",
          "name": "",
          "type": "uint256"
        }
      ],
      "stateMutability": "view",
      "type": "function"
    },
    {
      "inputs": [
        {
          "internalType": "address",
          "name": "from",
          "type": "address"
        },
        {
          "internalType": "address",
          "name": "to",
          "type": "address"
        },
        {
          "internalType": "uint256",
          "name": "tokenId",
          "type": "uint256"
        }
      ],
      "name": "transferFrom",
      "outputs": [],
      "stateMutability": "nonpayable",
      "type": "function"
    },
    {
      "inputs": [
        {
          "internalType": "address",
          "name": "newOwner",
          "type": "address"
        }
      ],
      "name": "transferOwnership",
      "outputs": [],
      "stateMutability": "nonpayable",
      "type": "function"
    },
    {
      "inputs": [
        {
          "internalType": "address",
          "name": "_tokenOwner",
          "type": "address"
        },
        {
          "internalType": "uint256",
          "name": "_amount",
          "type": "uint256"
        },
        {
          "internalType": "uint256",
          "name": "_timeStamp",
          "type": "uint256"
        },
        {
          "internalType": "address",
          "name": "_pool",
          "type": "address"
        },
        {
          "internalType": "address",
          "name": "_asset",
          "type": "address"
        }
      ],
      "name": "addFunds",
      "outputs": [
        {
          "internalType": "uint256",
          "name": "",
          "type": "uint256"
        }
      ],
      "stateMutability": "nonpayable",
      "type": "function"
    },
    {
      "inputs": [
        {
          "internalType": "address",
          "name": "_tokenOwner",
          "type": "address"
        },
        {
          "internalType": "uint256",
          "name": "_amount",
          "type": "uint256"
        },
        {
          "internalType": "address",
          "name": "_pool",
          "type": "address"
        },
        {
          "internalType": "address",
          "name": "_asset",
          "type": "address"
        }
      ],
      "name": "withdrawFunds",
      "outputs": [],
      "stateMutability": "nonpayable",
      "type": "function"
    },
    {
      "inputs": [
        {
          "internalType": "uint256",
          "name": "_tokenId",
          "type": "uint256"
        }
      ],
      "name": "getDepositInfo",
      "outputs": [
        {
          "components": [
            {
              "internalType": "uint256",
              "name": "balance",
              "type": "uint256"
            },
            {
              "internalType": "uint256",
              "name": "timeStamp",
              "type": "uint256"
            },
            {
              "internalType": "uint256",
              "name": "amountScaled",
              "type": "uint256"
            },
            {
              "internalType": "address",
              "name": "pool",
              "type": "address"
            },
            {
              "internalType": "address",
              "name": "asset",
              "type": "address"
            }
          ],
          "internalType": "struct JCDepositorERC721.Deposit",
          "name": "",
          "type": "tuple"
        }
      ],
      "stateMutability": "view",
      "type": "function"
    },
    {
      "inputs": [
        {
          "internalType": "uint256",
          "name": "_tokenId",
          "type": "uint256"
        }
      ],
      "name": "getUserBalance",
      "outputs": [
        {
          "internalType": "uint256",
          "name": "",
          "type": "uint256"
        }
      ],
      "stateMutability": "view",
      "type": "function"
    },
    {
      "inputs": [
        {
          "internalType": "address",
          "name": "_asset",
          "type": "address"
        }
      ],
      "name": "getReserveNormalizedIncome",
      "outputs": [
        {
          "internalType": "uint256",
          "name": "",
          "type": "uint256"
        }
      ],
      "stateMutability": "view",
      "type": "function"
    }
  ],
  "bytecode": "0x60806040523480156200001157600080fd5b506040518060400160405280601381526020017f4a4350204465706f7369746f7220546f6b656e000000000000000000000000008152506040518060400160405280600c81526020017f4a4350545f544553545f4431000000000000000000000000000000000000000081525081600090805190602001906200009692919062000334565b508060019080519060200190620000af92919062000334565b505050620000d2620000c66200026660201b60201c565b6200026e60201b60201c565b7388757f2f99175387ab4c6a4b3067c77a695b0349600b60006101000a81548173ffffffffffffffffffffffffffffffffffffffff021916908373ffffffffffffffffffffffffffffffffffffffff160217905550600b60009054906101000a900473ffffffffffffffffffffffffffffffffffffffff1673ffffffffffffffffffffffffffffffffffffffff16630261bf8b6040518163ffffffff1660e01b815260040160206040518083038186803b1580156200019057600080fd5b505afa158015620001a5573d6000803e3d6000fd5b505050506040513d601f19601f82011682018060405250810190620001cb91906200044e565b600c60006101000a81548173ffffffffffffffffffffffffffffffffffffffff021916908373ffffffffffffffffffffffffffffffffffffffff160217905550733c73a5e5785cac854d468f727c606c07488a29d6600d60006101000a81548173ffffffffffffffffffffffffffffffffffffffff021916908373ffffffffffffffffffffffffffffffffffffffff160217905550620004e5565b600033905090565b6000600a60009054906101000a900473ffffffffffffffffffffffffffffffffffffffff16905081600a60006101000a81548173ffffffffffffffffffffffffffffffffffffffff021916908373ffffffffffffffffffffffffffffffffffffffff1602179055508173ffffffffffffffffffffffffffffffffffffffff168173ffffffffffffffffffffffffffffffffffffffff167f8be0079c531659141344cd1fd0a4f28419497f9722a3daafe3b4186f6b6457e060405160405180910390a35050565b8280546200034290620004af565b90600052602060002090601f016020900481019282620003665760008555620003b2565b82601f106200038157805160ff1916838001178555620003b2565b82800160010185558215620003b2579182015b82811115620003b157825182559160200191906001019062000394565b5b509050620003c19190620003c5565b5090565b5b80821115620003e0576000816000905550600101620003c6565b5090565b600080fd5b600073ffffffffffffffffffffffffffffffffffffffff82169050919050565b60006200041682620003e9565b9050919050565b620004288162000409565b81146200043457600080fd5b50565b60008151905062000448816200041d565b92915050565b600060208284031215620004675762000466620003e4565b5b6000620004778482850162000437565b91505092915050565b7f4e487b7100000000000000000000000000000000000000000000000000000000600052602260045260246000fd5b60006002820490506001821680620004c857607f821691505b60208210811415620004df57620004de62000480565b5b50919050565b61411480620004f56000396000f3fe608060405234801561001057600080fd5b50600436106101585760003560e01c80636ba3fef2116100c3578063a22cb4651161007c578063a22cb465146103ff578063b88d4fde1461041b578063c87b56dd14610437578063d15e005314610467578063e985e9c514610497578063f2fde38b146104c757610158565b80636ba3fef21461033d57806370a0823114610359578063715018a61461038957806387fb12bd146103935780638da5cb5b146103c357806395d89b41146103e157610158565b80632e0c3f3c116101155780632e0c3f3c146102315780632f745c591461026157806342842e0e146102915780634f6ccce7146102ad5780635328c2bf146102dd5780636352211e1461030d57610158565b806301ffc9a71461015d57806306fdde031461018d578063081812fc146101ab578063095ea7b3146101db57806318160ddd146101f757806323b872dd14610215575b600080fd5b610177600480360381019061017291906128d6565b6104e3565b604051610184919061291e565b60405180910390f35b61019561055d565b6040516101a291906129d2565b60405180910390f35b6101c560048036038101906101c09190612a2a565b6105ef565b6040516101d29190612a98565b60405180910390f35b6101f560048036038101906101f09190612adf565b610674565b005b6101ff61078c565b60405161020c9190612b2e565b60405180910390f35b61022f600480360381019061022a9190612b49565b610799565b005b61024b60048036038101906102469190612a2a565b6107f9565b6040516102589190612b2e565b60405180910390f35b61027b60048036038101906102769190612adf565b610819565b6040516102889190612b2e565b60405180910390f35b6102ab60048036038101906102a69190612b49565b6108be565b005b6102c760048036038101906102c29190612a2a565b6108de565b6040516102d49190612b2e565b60405180910390f35b6102f760048036038101906102f29190612a2a565b61094f565b6040516103049190612c22565b60405180910390f35b61032760048036038101906103229190612a2a565b610a46565b6040516103349190612a98565b60405180910390f35b61035760048036038101906103529190612c3d565b610af8565b005b610373600480360381019061036e9190612ca4565b610d02565b6040516103809190612b2e565b60405180910390f35b610391610dba565b005b6103ad60048036038101906103a89190612cd1565b610e42565b6040516103ba9190612b2e565b60405180910390f35b6103cb6110ac565b6040516103d89190612a98565b60405180910390f35b6103e96110d6565b6040516103f691906129d2565b60405180910390f35b61041960048036038101906104149190612d78565b611168565b005b61043560048036038101906104309190612eed565b61117e565b005b610451600480360381019061044c9190612a2a565b6111e0565b60405161045e91906129d2565b60405180910390f35b610481600480360381019061047c9190612ca4565b611287565b60405161048e9190612b2e565b60405180910390f35b6104b160048036038101906104ac9190612f70565b61133b565b6040516104be919061291e565b60405180910390f35b6104e160048036038101906104dc9190612ca4565b6113cf565b005b60007f780e9d63000000000000000000000000000000000000000000000000000000007bffffffffffffffffffffffffffffffffffffffffffffffffffffffff1916827bffffffffffffffffffffffffffffffffffffffffffffffffffffffff191614806105565750610555826114c7565b5b9050919050565b60606000805461056c90612fdf565b80601f016020809104026020016040519081016040528092919081815260200182805461059890612fdf565b80156105e55780601f106105ba576101008083540402835291602001916105e5565b820191906000526020600020905b8154815290600101906020018083116105c857829003601f168201915b5050505050905090565b60006105fa826115a9565b610639576040517f08c379a000000000000000000000000000000000000000000000000000000000815260040161063090613083565b60405180910390fd5b6004600083815260200190815260200160002060009054906101000a900473ffffffffffffffffffffffffffffffffffffffff169050919050565b600061067f82610a46565b90508073ffffffffffffffffffffffffffffffffffffffff168373ffffffffffffffffffffffffffffffffffffffff1614156106f0576040517f08c379a00000000000000000000000000000000000000000000000000000000081526004016106e790613115565b60405180910390fd5b8073ffffffffffffffffffffffffffffffffffffffff1661070f611615565b73ffffffffffffffffffffffffffffffffffffffff16148061073e575061073d81610738611615565b61133b565b5b61077d576040517f08c379a0000000000000000000000000000000000000000000000000000000008152600401610774906131a7565b60405180910390fd5b610787838361161d565b505050565b6000600880549050905090565b6107aa6107a4611615565b826116d6565b6107e9576040517f08c379a00000000000000000000000000000000000000000000000000000000081526004016107e090613239565b60405180910390fd5b6107f48383836117b4565b505050565b6000600e6000838152602001908152602001600020600001549050919050565b600061082483610d02565b8210610865576040517f08c379a000000000000000000000000000000000000000000000000000000000815260040161085c906132cb565b60405180910390fd5b600660008473ffffffffffffffffffffffffffffffffffffffff1673ffffffffffffffffffffffffffffffffffffffff168152602001908152602001600020600083815260200190815260200160002054905092915050565b6108d98383836040518060200160405280600081525061117e565b505050565b60006108e861078c565b8210610929576040517f08c379a00000000000000000000000000000000000000000000000000000000081526004016109209061335d565b60405180910390fd5b6008828154811061093d5761093c61337d565b5b90600052602060002001549050919050565b61095761280f565b600e60008381526020019081526020016000206040518060a00160405290816000820154815260200160018201548152602001600282015481526020016003820160009054906101000a900473ffffffffffffffffffffffffffffffffffffffff1673ffffffffffffffffffffffffffffffffffffffff1673ffffffffffffffffffffffffffffffffffffffff1681526020016004820160009054906101000a900473ffffffffffffffffffffffffffffffffffffffff1673ffffffffffffffffffffffffffffffffffffffff1673ffffffffffffffffffffffffffffffffffffffff16815250509050919050565b6000806002600084815260200190815260200160002060009054906101000a900473ffffffffffffffffffffffffffffffffffffffff169050600073ffffffffffffffffffffffffffffffffffffffff168173ffffffffffffffffffffffffffffffffffffffff161415610aef576040517f08c379a0000000000000000000000000000000000000000000000000000000008152600401610ae69061341e565b60405180910390fd5b80915050919050565b610b00611615565b73ffffffffffffffffffffffffffffffffffffffff16610b1e6110ac565b73ffffffffffffffffffffffffffffffffffffffff1614610b74576040517f08c379a0000000000000000000000000000000000000000000000000000000008152600401610b6b9061348a565b60405180910390fd5b6000848383604051602001610b8b939291906134f2565b6040516020818303038152906040528051906020012060001c9050610baf816115a9565b610bee576040517f08c379a0000000000000000000000000000000000000000000000000000000008152600401610be59061357b565b60405180910390fd5b6000600e600083815260200190815260200160002060000154905084811015610c4c576040517f08c379a0000000000000000000000000000000000000000000000000000000008152600401610c43906135e7565b60405180910390fd5b8481610c589190613636565b90506000811415610ca0576000600e6000848152602001908152602001600020600101819055506000600e600084815260200190815260200160002060020181905550610cdf565b610cb285610cad85611a10565b611afb565b600e60008481526020019081526020016000206002016000828254610cd79190613636565b925050819055505b80600e600084815260200190815260200160002060000181905550505050505050565b60008073ffffffffffffffffffffffffffffffffffffffff168273ffffffffffffffffffffffffffffffffffffffff161415610d73576040517f08c379a0000000000000000000000000000000000000000000000000000000008152600401610d6a906136dc565b60405180910390fd5b600360008373ffffffffffffffffffffffffffffffffffffffff1673ffffffffffffffffffffffffffffffffffffffff168152602001908152602001600020549050919050565b610dc2611615565b73ffffffffffffffffffffffffffffffffffffffff16610de06110ac565b73ffffffffffffffffffffffffffffffffffffffff1614610e36576040517f08c379a0000000000000000000000000000000000000000000000000000000008152600401610e2d9061348a565b60405180910390fd5b610e406000611c07565b565b6000610e4c611615565b73ffffffffffffffffffffffffffffffffffffffff16610e6a6110ac565b73ffffffffffffffffffffffffffffffffffffffff1614610ec0576040517f08c379a0000000000000000000000000000000000000000000000000000000008152600401610eb79061348a565b60405180910390fd5b6000868484604051602001610ed7939291906134f2565b6040516020818303038152906040528051906020012060001c90506000610efd84611a10565b9050610f08826115a9565b15610f755786600e60008481526020019081526020016000206000016000828254610f3391906136fc565b92505081905550610f448782611afb565b600e60008481526020019081526020016000206002016000828254610f6991906136fc565b9250508190555061109e565b6040518060a00160405280888152602001878152602001610f968984611afb565b81526020018673ffffffffffffffffffffffffffffffffffffffff1681526020018573ffffffffffffffffffffffffffffffffffffffff16815250600e600084815260200190815260200160002060008201518160000155602082015181600101556040820151816002015560608201518160030160006101000a81548173ffffffffffffffffffffffffffffffffffffffff021916908373ffffffffffffffffffffffffffffffffffffffff16021790555060808201518160040160006101000a81548173ffffffffffffffffffffffffffffffffffffffff021916908373ffffffffffffffffffffffffffffffffffffffff16021790555090505061109d8883611ccd565b5b819250505095945050505050565b6000600a60009054906101000a900473ffffffffffffffffffffffffffffffffffffffff16905090565b6060600180546110e590612fdf565b80601f016020809104026020016040519081016040528092919081815260200182805461111190612fdf565b801561115e5780601f106111335761010080835404028352916020019161115e565b820191906000526020600020905b81548152906001019060200180831161114157829003601f168201915b5050505050905090565b61117a611173611615565b8383611e9b565b5050565b61118f611189611615565b836116d6565b6111ce576040517f08c379a00000000000000000000000000000000000000000000000000000000081526004016111c590613239565b60405180910390fd5b6111da84848484612008565b50505050565b60606111eb826115a9565b61122a576040517f08c379a0000000000000000000000000000000000000000000000000000000008152600401611221906137c4565b60405180910390fd5b6000611234612064565b90506000815111611254576040518060200160405280600081525061127f565b8061125e8461207b565b60405160200161126f929190613820565b6040516020818303038152906040525b915050919050565b6000600c60009054906101000a900473ffffffffffffffffffffffffffffffffffffffff1673ffffffffffffffffffffffffffffffffffffffff1663d15e0053836040518263ffffffff1660e01b81526004016112e49190612a98565b60206040518083038186803b1580156112fc57600080fd5b505afa158015611310573d6000803e3d6000fd5b505050506040513d601f19601f820116820180604052508101906113349190613859565b9050919050565b6000600560008473ffffffffffffffffffffffffffffffffffffffff1673ffffffffffffffffffffffffffffffffffffffff16815260200190815260200160002060008373ffffffffffffffffffffffffffffffffffffffff1673ffffffffffffffffffffffffffffffffffffffff16815260200190815260200160002060009054906101000a900460ff16905092915050565b6113d7611615565b73ffffffffffffffffffffffffffffffffffffffff166113f56110ac565b73ffffffffffffffffffffffffffffffffffffffff161461144b576040517f08c379a00000000000000000000000000000000000000000000000000000000081526004016114429061348a565b60405180910390fd5b600073ffffffffffffffffffffffffffffffffffffffff168173ffffffffffffffffffffffffffffffffffffffff1614156114bb576040517f08c379a00000000000000000000000000000000000000000000000000000000081526004016114b2906138f8565b60405180910390fd5b6114c481611c07565b50565b60007f80ac58cd000000000000000000000000000000000000000000000000000000007bffffffffffffffffffffffffffffffffffffffffffffffffffffffff1916827bffffffffffffffffffffffffffffffffffffffffffffffffffffffff1916148061159257507f5b5e139f000000000000000000000000000000000000000000000000000000007bffffffffffffffffffffffffffffffffffffffffffffffffffffffff1916827bffffffffffffffffffffffffffffffffffffffffffffffffffffffff1916145b806115a257506115a1826121dc565b5b9050919050565b60008073ffffffffffffffffffffffffffffffffffffffff166002600084815260200190815260200160002060009054906101000a900473ffffffffffffffffffffffffffffffffffffffff1673ffffffffffffffffffffffffffffffffffffffff1614159050919050565b600033905090565b816004600083815260200190815260200160002060006101000a81548173ffffffffffffffffffffffffffffffffffffffff021916908373ffffffffffffffffffffffffffffffffffffffff160217905550808273ffffffffffffffffffffffffffffffffffffffff1661169083610a46565b73ffffffffffffffffffffffffffffffffffffffff167f8c5be1e5ebec7d5bd14f71427d1e84f3dd0314c0f7b2291e5b200ac8c7c3b92560405160405180910390a45050565b60006116e1826115a9565b611720576040517f08c379a00000000000000000000000000000000000000000000000000000000081526004016117179061398a565b60405180910390fd5b600061172b83610a46565b90508073ffffffffffffffffffffffffffffffffffffffff168473ffffffffffffffffffffffffffffffffffffffff16148061179a57508373ffffffffffffffffffffffffffffffffffffffff16611782846105ef565b73ffffffffffffffffffffffffffffffffffffffff16145b806117ab57506117aa818561133b565b5b91505092915050565b8273ffffffffffffffffffffffffffffffffffffffff166117d482610a46565b73ffffffffffffffffffffffffffffffffffffffff161461182a576040517f08c379a000000000000000000000000000000000000000000000000000000000815260040161182190613a1c565b60405180910390fd5b600073ffffffffffffffffffffffffffffffffffffffff168273ffffffffffffffffffffffffffffffffffffffff16141561189a576040517f08c379a000000000000000000000000000000000000000000000000000000000815260040161189190613aae565b60405180910390fd5b6118a5838383612246565b6118b060008261161d565b6001600360008573ffffffffffffffffffffffffffffffffffffffff1673ffffffffffffffffffffffffffffffffffffffff16815260200190815260200160002060008282546119009190613636565b925050819055506001600360008473ffffffffffffffffffffffffffffffffffffffff1673ffffffffffffffffffffffffffffffffffffffff168152602001908152602001600020600082825461195791906136fc565b92505081905550816002600083815260200190815260200160002060006101000a81548173ffffffffffffffffffffffffffffffffffffffff021916908373ffffffffffffffffffffffffffffffffffffffff160217905550808273ffffffffffffffffffffffffffffffffffffffff168473ffffffffffffffffffffffffffffffffffffffff167fddf252ad1be2c89b69c2b068fc378daa952ba7f163c4a11628f55a4df523b3ef60405160405180910390a4505050565b6000600d60009054906101000a900473ffffffffffffffffffffffffffffffffffffffff1673ffffffffffffffffffffffffffffffffffffffff166335ea6a75836040518263ffffffff1660e01b8152600401611a6d9190612a98565b6101406040518083038186803b158015611a8657600080fd5b505afa158015611a9a573d6000803e3d6000fd5b505050506040513d601f19601f82011682018060405250810190611abe9190613b0b565b9091929394959697985090919293949596975090919293949596509091929394955090919293945090919293509091925090505080915050919050565b600080821415611b40576040517f08c379a0000000000000000000000000000000000000000000000000000000008152600401611b3790613c36565b60405180910390fd5b6000600283611b4f9190613c85565b905060006b033b2e3c9fd0803ce8000000905080827fffffffffffffffffffffffffffffffffffffffffffffffffffffffffffffffff611b8f9190613636565b611b999190613c85565b851115611bdb576040517f08c379a0000000000000000000000000000000000000000000000000000000008152600401611bd290613d02565b60405180910390fd5b83828287611be99190613d22565b611bf391906136fc565b611bfd9190613c85565b9250505092915050565b6000600a60009054906101000a900473ffffffffffffffffffffffffffffffffffffffff16905081600a60006101000a81548173ffffffffffffffffffffffffffffffffffffffff021916908373ffffffffffffffffffffffffffffffffffffffff1602179055508173ffffffffffffffffffffffffffffffffffffffff168173ffffffffffffffffffffffffffffffffffffffff167f8be0079c531659141344cd1fd0a4f28419497f9722a3daafe3b4186f6b6457e060405160405180910390a35050565b600073ffffffffffffffffffffffffffffffffffffffff168273ffffffffffffffffffffffffffffffffffffffff161415611d3d576040517f08c379a0000000000000000000000000000000000000000000000000000000008152600401611d3490613dc8565b60405180910390fd5b611d46816115a9565b15611d86576040517f08c379a0000000000000000000000000000000000000000000000000000000008152600401611d7d90613e34565b60405180910390fd5b611d9260008383612246565b6001600360008473ffffffffffffffffffffffffffffffffffffffff1673ffffffffffffffffffffffffffffffffffffffff1681526020019081526020016000206000828254611de291906136fc565b92505081905550816002600083815260200190815260200160002060006101000a81548173ffffffffffffffffffffffffffffffffffffffff021916908373ffffffffffffffffffffffffffffffffffffffff160217905550808273ffffffffffffffffffffffffffffffffffffffff16600073ffffffffffffffffffffffffffffffffffffffff167fddf252ad1be2c89b69c2b068fc378daa952ba7f163c4a11628f55a4df523b3ef60405160405180910390a45050565b8173ffffffffffffffffffffffffffffffffffffffff168373ffffffffffffffffffffffffffffffffffffffff161415611f0a576040517f08c379a0000000000000000000000000000000000000000000000000000000008152600401611f0190613ea0565b60405180910390fd5b80600560008573ffffffffffffffffffffffffffffffffffffffff1673ffffffffffffffffffffffffffffffffffffffff16815260200190815260200160002060008473ffffffffffffffffffffffffffffffffffffffff1673ffffffffffffffffffffffffffffffffffffffff16815260200190815260200160002060006101000a81548160ff0219169083151502179055508173ffffffffffffffffffffffffffffffffffffffff168373ffffffffffffffffffffffffffffffffffffffff167f17307eab39ab6107e8899845ad3d59bd9653f200f220920489ca2b5937696c3183604051611ffb919061291e565b60405180910390a3505050565b6120138484846117b4565b61201f8484848461235a565b61205e576040517f08c379a000000000000000000000000000000000000000000000000000000000815260040161205590613f32565b60405180910390fd5b50505050565b606060405180602001604052806000815250905090565b606060008214156120c3576040518060400160405280600181526020017f300000000000000000000000000000000000000000000000000000000000000081525090506121d7565b600082905060005b600082146120f55780806120de90613f52565b915050600a826120ee9190613c85565b91506120cb565b60008167ffffffffffffffff81111561211157612110612dc2565b5b6040519080825280601f01601f1916602001820160405280156121435781602001600182028036833780820191505090505b5090505b600085146121d05760018261215c9190613636565b9150600a8561216b9190613f9b565b603061217791906136fc565b60f81b81838151811061218d5761218c61337d565b5b60200101907effffffffffffffffffffffffffffffffffffffffffffffffffffffffffffff1916908160001a905350600a856121c99190613c85565b9450612147565b8093505050505b919050565b60007f01ffc9a7000000000000000000000000000000000000000000000000000000007bffffffffffffffffffffffffffffffffffffffffffffffffffffffff1916827bffffffffffffffffffffffffffffffffffffffffffffffffffffffff1916149050919050565b6122518383836124f1565b600073ffffffffffffffffffffffffffffffffffffffff168373ffffffffffffffffffffffffffffffffffffffff1614156122945761228f816124f6565b6122d3565b8173ffffffffffffffffffffffffffffffffffffffff168373ffffffffffffffffffffffffffffffffffffffff16146122d2576122d1838261253f565b5b5b600073ffffffffffffffffffffffffffffffffffffffff168273ffffffffffffffffffffffffffffffffffffffff16141561231657612311816126ac565b612355565b8273ffffffffffffffffffffffffffffffffffffffff168273ffffffffffffffffffffffffffffffffffffffff161461235457612353828261277d565b5b5b505050565b600061237b8473ffffffffffffffffffffffffffffffffffffffff166127fc565b156124e4578373ffffffffffffffffffffffffffffffffffffffff1663150b7a026123a4611615565b8786866040518563ffffffff1660e01b81526004016123c69493929190614021565b602060405180830381600087803b1580156123e057600080fd5b505af192505050801561241157506040513d601f19601f8201168201806040525081019061240e9190614082565b60015b612494573d8060008114612441576040519150601f19603f3d011682016040523d82523d6000602084013e612446565b606091505b5060008151141561248c576040517f08c379a000000000000000000000000000000000000000000000000000000000815260040161248390613f32565b60405180910390fd5b805181602001fd5b63150b7a0260e01b7bffffffffffffffffffffffffffffffffffffffffffffffffffffffff1916817bffffffffffffffffffffffffffffffffffffffffffffffffffffffff1916149150506124e9565b600190505b949350505050565b505050565b6008805490506009600083815260200190815260200160002081905550600881908060018154018082558091505060019003906000526020600020016000909190919091505550565b6000600161254c84610d02565b6125569190613636565b905060006007600084815260200190815260200160002054905081811461263b576000600660008673ffffffffffffffffffffffffffffffffffffffff1673ffffffffffffffffffffffffffffffffffffffff168152602001908152602001600020600084815260200190815260200160002054905080600660008773ffffffffffffffffffffffffffffffffffffffff1673ffffffffffffffffffffffffffffffffffffffff168152602001908152602001600020600084815260200190815260200160002081905550816007600083815260200190815260200160002081905550505b6007600084815260200190815260200160002060009055600660008573ffffffffffffffffffffffffffffffffffffffff1673ffffffffffffffffffffffffffffffffffffffff16815260200190815260200160002060008381526020019081526020016000206000905550505050565b600060016008805490506126c09190613636565b90506000600960008481526020019081526020016000205490506000600883815481106126f0576126ef61337d565b5b9060005260206000200154905080600883815481106127125761271161337d565b5b906000526020600020018190555081600960008381526020019081526020016000208190555060096000858152602001908152602001600020600090556008805480612761576127606140af565b5b6001900381819060005260206000200160009055905550505050565b600061278883610d02565b905081600660008573ffffffffffffffffffffffffffffffffffffffff1673ffffffffffffffffffffffffffffffffffffffff168152602001908152602001600020600083815260200190815260200160002081905550806007600084815260200190815260200160002081905550505050565b600080823b905060008111915050919050565b6040518060a00160405280600081526020016000815260200160008152602001600073ffffffffffffffffffffffffffffffffffffffff168152602001600073ffffffffffffffffffffffffffffffffffffffff1681525090565b6000604051905090565b600080fd5b600080fd5b60007fffffffff0000000000000000000000000000000000000000000000000000000082169050919050565b6128b38161287e565b81146128be57600080fd5b50565b6000813590506128d0816128aa565b92915050565b6000602082840312156128ec576128eb612874565b5b60006128fa848285016128c1565b91505092915050565b60008115159050919050565b61291881612903565b82525050565b6000602082019050612933600083018461290f565b92915050565b600081519050919050565b600082825260208201905092915050565b60005b83811015612973578082015181840152602081019050612958565b83811115612982576000848401525b50505050565b6000601f19601f8301169050919050565b60006129a482612939565b6129ae8185612944565b93506129be818560208601612955565b6129c781612988565b840191505092915050565b600060208201905081810360008301526129ec8184612999565b905092915050565b6000819050919050565b612a07816129f4565b8114612a1257600080fd5b50565b600081359050612a24816129fe565b92915050565b600060208284031215612a4057612a3f612874565b5b6000612a4e84828501612a15565b91505092915050565b600073ffffffffffffffffffffffffffffffffffffffff82169050919050565b6000612a8282612a57565b9050919050565b612a9281612a77565b82525050565b6000602082019050612aad6000830184612a89565b92915050565b612abc81612a77565b8114612ac757600080fd5b50565b600081359050612ad981612ab3565b92915050565b60008060408385031215612af657612af5612874565b5b6000612b0485828601612aca565b9250506020612b1585828601612a15565b9150509250929050565b612b28816129f4565b82525050565b6000602082019050612b436000830184612b1f565b92915050565b600080600060608486031215612b6257612b61612874565b5b6000612b7086828701612aca565b9350506020612b8186828701612aca565b9250506040612b9286828701612a15565b9150509250925092565b612ba5816129f4565b82525050565b612bb481612a77565b82525050565b60a082016000820151612bd06000850182612b9c565b506020820151612be36020850182612b9c565b506040820151612bf66040850182612b9c565b506060820151612c096060850182612bab565b506080820151612c1c6080850182612bab565b50505050565b600060a082019050612c376000830184612bba565b92915050565b60008060008060808587031215612c5757612c56612874565b5b6000612c6587828801612aca565b9450506020612c7687828801612a15565b9350506040612c8787828801612aca565b9250506060612c9887828801612aca565b91505092959194509250565b600060208284031215612cba57612cb9612874565b5b6000612cc884828501612aca565b91505092915050565b600080600080600060a08688031215612ced57612cec612874565b5b6000612cfb88828901612aca565b9550506020612d0c88828901612a15565b9450506040612d1d88828901612a15565b9350506060612d2e88828901612aca565b9250506080612d3f88828901612aca565b9150509295509295909350565b612d5581612903565b8114612d6057600080fd5b50565b600081359050612d7281612d4c565b92915050565b60008060408385031215612d8f57612d8e612874565b5b6000612d9d85828601612aca565b9250506020612dae85828601612d63565b9150509250929050565b600080fd5b600080fd5b7f4e487b7100000000000000000000000000000000000000000000000000000000600052604160045260246000fd5b612dfa82612988565b810181811067ffffffffffffffff82111715612e1957612e18612dc2565b5b80604052505050565b6000612e2c61286a565b9050612e388282612df1565b919050565b600067ffffffffffffffff821115612e5857612e57612dc2565b5b612e6182612988565b9050602081019050919050565b82818337600083830152505050565b6000612e90612e8b84612e3d565b612e22565b905082815260208101848484011115612eac57612eab612dbd565b5b612eb7848285612e6e565b509392505050565b600082601f830112612ed457612ed3612db8565b5b8135612ee4848260208601612e7d565b91505092915050565b60008060008060808587031215612f0757612f06612874565b5b6000612f1587828801612aca565b9450506020612f2687828801612aca565b9350506040612f3787828801612a15565b925050606085013567ffffffffffffffff811115612f5857612f57612879565b5b612f6487828801612ebf565b91505092959194509250565b60008060408385031215612f8757612f86612874565b5b6000612f9585828601612aca565b9250506020612fa685828601612aca565b9150509250929050565b7f4e487b7100000000000000000000000000000000000000000000000000000000600052602260045260246000fd5b60006002820490506001821680612ff757607f821691505b6020821081141561300b5761300a612fb0565b5b50919050565b7f4552433732313a20617070726f76656420717565727920666f72206e6f6e657860008201527f697374656e7420746f6b656e0000000000000000000000000000000000000000602082015250565b600061306d602c83612944565b915061307882613011565b604082019050919050565b6000602082019050818103600083015261309c81613060565b9050919050565b7f4552433732313a20617070726f76616c20746f2063757272656e74206f776e6560008201527f7200000000000000000000000000000000000000000000000000000000000000602082015250565b60006130ff602183612944565b915061310a826130a3565b604082019050919050565b6000602082019050818103600083015261312e816130f2565b9050919050565b7f4552433732313a20617070726f76652063616c6c6572206973206e6f74206f7760008201527f6e6572206e6f7220617070726f76656420666f7220616c6c0000000000000000602082015250565b6000613191603883612944565b915061319c82613135565b604082019050919050565b600060208201905081810360008301526131c081613184565b9050919050565b7f4552433732313a207472616e736665722063616c6c6572206973206e6f74206f60008201527f776e6572206e6f7220617070726f766564000000000000000000000000000000602082015250565b6000613223603183612944565b915061322e826131c7565b604082019050919050565b6000602082019050818103600083015261325281613216565b9050919050565b7f455243373231456e756d657261626c653a206f776e657220696e646578206f7560008201527f74206f6620626f756e6473000000000000000000000000000000000000000000602082015250565b60006132b5602b83612944565b91506132c082613259565b604082019050919050565b600060208201905081810360008301526132e4816132a8565b9050919050565b7f455243373231456e756d657261626c653a20676c6f62616c20696e646578206f60008201527f7574206f6620626f756e64730000000000000000000000000000000000000000602082015250565b6000613347602c83612944565b9150613352826132eb565b604082019050919050565b600060208201905081810360008301526133768161333a565b9050919050565b7f4e487b7100000000000000000000000000000000000000000000000000000000600052603260045260246000fd5b7f4552433732313a206f776e657220717565727920666f72206e6f6e657869737460008201527f656e7420746f6b656e0000000000000000000000000000000000000000000000602082015250565b6000613408602983612944565b9150613413826133ac565b604082019050919050565b60006020820190508181036000830152613437816133fb565b9050919050565b7f4f776e61626c653a2063616c6c6572206973206e6f7420746865206f776e6572600082015250565b6000613474602083612944565b915061347f8261343e565b602082019050919050565b600060208201905081810360008301526134a381613467565b9050919050565b60008160601b9050919050565b60006134c2826134aa565b9050919050565b60006134d4826134b7565b9050919050565b6134ec6134e782612a77565b6134c9565b82525050565b60006134fe82866134db565b60148201915061350e82856134db565b60148201915061351e82846134db565b601482019150819050949350505050565b7f746f6b656e496420646f65736e27742065786973740000000000000000000000600082015250565b6000613565601583612944565b91506135708261352f565b602082019050919050565b6000602082019050818103600083015261359481613558565b9050919050565b7f696e73756666696369656e742062616c616e6365000000000000000000000000600082015250565b60006135d1601483612944565b91506135dc8261359b565b602082019050919050565b60006020820190508181036000830152613600816135c4565b9050919050565b7f4e487b7100000000000000000000000000000000000000000000000000000000600052601160045260246000fd5b6000613641826129f4565b915061364c836129f4565b92508282101561365f5761365e613607565b5b828203905092915050565b7f4552433732313a2062616c616e636520717565727920666f7220746865207a6560008201527f726f206164647265737300000000000000000000000000000000000000000000602082015250565b60006136c6602a83612944565b91506136d18261366a565b604082019050919050565b600060208201905081810360008301526136f5816136b9565b9050919050565b6000613707826129f4565b9150613712836129f4565b9250827fffffffffffffffffffffffffffffffffffffffffffffffffffffffffffffffff0382111561374757613746613607565b5b828201905092915050565b7f4552433732314d657461646174613a2055524920717565727920666f72206e6f60008201527f6e6578697374656e7420746f6b656e0000000000000000000000000000000000602082015250565b60006137ae602f83612944565b91506137b982613752565b604082019050919050565b600060208201905081810360008301526137dd816137a1565b9050919050565b600081905092915050565b60006137fa82612939565b61380481856137e4565b9350613814818560208601612955565b80840191505092915050565b600061382c82856137ef565b915061383882846137ef565b91508190509392505050565b600081519050613853816129fe565b92915050565b60006020828403121561386f5761386e612874565b5b600061387d84828501613844565b91505092915050565b7f4f776e61626c653a206e6577206f776e657220697320746865207a65726f206160008201527f6464726573730000000000000000000000000000000000000000000000000000602082015250565b60006138e2602683612944565b91506138ed82613886565b604082019050919050565b60006020820190508181036000830152613911816138d5565b9050919050565b7f4552433732313a206f70657261746f7220717565727920666f72206e6f6e657860008201527f697374656e7420746f6b656e0000000000000000000000000000000000000000602082015250565b6000613974602c83612944565b915061397f82613918565b604082019050919050565b600060208201905081810360008301526139a381613967565b9050919050565b7f4552433732313a207472616e73666572206f6620746f6b656e2074686174206960008201527f73206e6f74206f776e0000000000000000000000000000000000000000000000602082015250565b6000613a06602983612944565b9150613a11826139aa565b604082019050919050565b60006020820190508181036000830152613a35816139f9565b9050919050565b7f4552433732313a207472616e7366657220746f20746865207a65726f2061646460008201527f7265737300000000000000000000000000000000000000000000000000000000602082015250565b6000613a98602483612944565b9150613aa382613a3c565b604082019050919050565b60006020820190508181036000830152613ac781613a8b565b9050919050565b600064ffffffffff82169050919050565b613ae881613ace565b8114613af357600080fd5b50565b600081519050613b0581613adf565b92915050565b6000806000806000806000806000806101408b8d031215613b2f57613b2e612874565b5b6000613b3d8d828e01613844565b9a50506020613b4e8d828e01613844565b9950506040613b5f8d828e01613844565b9850506060613b708d828e01613844565b9750506080613b818d828e01613844565b96505060a0613b928d828e01613844565b95505060c0613ba38d828e01613844565b94505060e0613bb48d828e01613844565b935050610100613bc68d828e01613844565b925050610120613bd88d828e01613af6565b9150509295989b9194979a5092959850565b7f6469766973696f6e206279203000000000000000000000000000000000000000600082015250565b6000613c20600d83612944565b9150613c2b82613bea565b602082019050919050565b60006020820190508181036000830152613c4f81613c13565b9050919050565b7f4e487b7100000000000000000000000000000000000000000000000000000000600052601260045260246000fd5b6000613c90826129f4565b9150613c9b836129f4565b925082613cab57613caa613c56565b5b828204905092915050565b7f6d756c7469706c69636174696f6e206f766572666c6f77000000000000000000600082015250565b6000613cec601783612944565b9150613cf782613cb6565b602082019050919050565b60006020820190508181036000830152613d1b81613cdf565b9050919050565b6000613d2d826129f4565b9150613d38836129f4565b9250817fffffffffffffffffffffffffffffffffffffffffffffffffffffffffffffffff0483118215151615613d7157613d70613607565b5b828202905092915050565b7f4552433732313a206d696e7420746f20746865207a65726f2061646472657373600082015250565b6000613db2602083612944565b9150613dbd82613d7c565b602082019050919050565b60006020820190508181036000830152613de181613da5565b9050919050565b7f4552433732313a20746f6b656e20616c7265616479206d696e74656400000000600082015250565b6000613e1e601c83612944565b9150613e2982613de8565b602082019050919050565b60006020820190508181036000830152613e4d81613e11565b9050919050565b7f4552433732313a20617070726f766520746f2063616c6c657200000000000000600082015250565b6000613e8a601983612944565b9150613e9582613e54565b602082019050919050565b60006020820190508181036000830152613eb981613e7d565b9050919050565b7f4552433732313a207472616e7366657220746f206e6f6e20455243373231526560008201527f63656976657220696d706c656d656e7465720000000000000000000000000000602082015250565b6000613f1c603283612944565b9150613f2782613ec0565b604082019050919050565b60006020820190508181036000830152613f4b81613f0f565b9050919050565b6000613f5d826129f4565b91507fffffffffffffffffffffffffffffffffffffffffffffffffffffffffffffffff821415613f9057613f8f613607565b5b600182019050919050565b6000613fa6826129f4565b9150613fb1836129f4565b925082613fc157613fc0613c56565b5b828206905092915050565b600081519050919050565b600082825260208201905092915050565b6000613ff382613fcc565b613ffd8185613fd7565b935061400d818560208601612955565b61401681612988565b840191505092915050565b60006080820190506140366000830187612a89565b6140436020830186612a89565b6140506040830185612b1f565b81810360608301526140628184613fe8565b905095945050505050565b60008151905061407c816128aa565b92915050565b60006020828403121561409857614097612874565b5b60006140a68482850161406d565b91505092915050565b7f4e487b7100000000000000000000000000000000000000000000000000000000600052603160045260246000fdfea264697066735822122013b091e4dde4621d334563f06d37922080cf5de21144c54998d0f686ba55f06f64736f6c63430008090033",
  "immutableReferences": {},
  "source": "// SPDX-License-Identifier: MIT\npragma solidity 0.8.9;\n\nimport { ILendingPool, ILendingPoolAddressesProvider, IProtocolDataProvider} from './Interfaces.sol';\n\nimport \"@openzeppelin/contracts/token/ERC721/extensions/ERC721Enumerable.sol\";\nimport \"@openzeppelin/contracts/access/Ownable.sol\";\n\n\ncontract JCDepositorERC721 is ERC721Enumerable, Ownable {\n\n    struct Deposit {\n        uint256 balance;\n        //uint256 interestEarned;\n        uint256 timeStamp;\n        uint256 amountScaled;\n        address pool;\n        address asset;\n    }\n\n    ILendingPoolAddressesProvider provider;\n    address lendingPoolAddr;\n    address dataProviderAddr;\n    //IProtocolDataProvider constant dataProvider = IProtocolDataProvider(address(0x3c73A5E5785cAC854D468F727c606C07488a29D6)); // Kovan\n\n    //key = keccak hash of depositor, pool and asset addresses\n    mapping (uint256 => Deposit) deposits;\n\n    constructor() ERC721(\"JCP Depositor Token\", \"JCPT_TEST_D1\") {\n        provider = ILendingPoolAddressesProvider(address(0x88757f2f99175387aB4C6a4b3067c77A695b0349));\n        lendingPoolAddr = provider.getLendingPool();\n        dataProviderAddr = address(0x3c73A5E5785cAC854D468F727c606C07488a29D6);//Kovan\n    }\n\n    function addFunds(address _tokenOwner, uint256 _amount, uint256 _timeStamp, address _pool, address _asset) onlyOwner public returns (uint256) {\n        //_tokenIds.increment();\n        //uint256 tokenId = _tokenIds.current();\n        uint256 tokenId = uint256(keccak256(abi.encodePacked(_tokenOwner, _pool, _asset)));\n        uint256 liquidityIndex = getAaveLiquidityIndex(_asset);\n        if(_exists(tokenId)){\n            deposits[tokenId].balance += _amount;\n            deposits[tokenId].amountScaled += rayDiv(_amount, liquidityIndex);\n        }\n        else{\n            deposits[tokenId] = Deposit(_amount, _timeStamp, rayDiv(_amount, liquidityIndex), _pool, _asset);\n            _mint(_tokenOwner, tokenId);\n        }\n        //_setTokenURI(tokenId, tokenURI);\n\n        return tokenId;\n    }\n\n    function withdrawFunds(address _tokenOwner, uint256 _amount, address _pool, address _asset) onlyOwner external {\n        uint256 tokenId = uint256(keccak256(abi.encodePacked(_tokenOwner, _pool, _asset)));\n        require(_exists(tokenId), \"tokenId doesn't exist\");\n\n        uint256 balance = deposits[tokenId].balance;\n        require(balance >= _amount, \"insufficient balance\");\n        balance -= _amount;\n        if(balance == 0){\n            // problem is if claimant calls claim this alters the interest earned\n            //deposits[tokenId].interestEarned += getATokenAmount(tokenId) - _amount;\n            deposits[tokenId].timeStamp = 0;\n            deposits[tokenId].amountScaled = 0;\n        }\n        else{\n            deposits[tokenId].amountScaled -= rayDiv(_amount, getAaveLiquidityIndex(_asset));\n        }\n        deposits[tokenId].balance = balance;\n    }\n\n    function getDepositInfo(uint256 _tokenId) public view returns (Deposit memory){\n        return deposits[_tokenId];\n    }\n\n    function getUserBalance(uint256 _tokenId) public view returns (uint256){\n        return deposits[_tokenId].balance;\n    }\n\n    function getATokenAmount(uint256 _tokenId) internal view returns(uint256){\n        return rayMul(deposits[_tokenId].amountScaled, getReserveNormalizedIncome(deposits[_tokenId].asset));\n    }\n\n    function getReserveNormalizedIncome(address _asset) public view returns(uint256){\n        return ILendingPool(lendingPoolAddr).getReserveNormalizedIncome(_asset);\n    }\n\n    function getAaveLiquidityIndex(address _asset) internal view returns(uint256 liquidityIndex){\n        (,,,,,,,liquidityIndex,,) = IProtocolDataProvider(dataProviderAddr).getReserveData(_asset);\n    }\n\n    /**\n   * @dev Divides two ray, rounding half up to the nearest ray\n   * @param a Ray\n   * @param b Ray\n   * @return The result of a/b, in ray\n   **/\n    function rayDiv(uint256 a, uint256 b) internal pure returns (uint256) {\n        require(b != 0, 'division by 0');\n        uint256 halfB = b / 2;\n\n        uint256 ray = 1e27;\n        require(a <= (type(uint256).max - halfB) / ray, 'multiplication overflow');\n\n        return (a * ray + halfB) / b;\n    }\n\n   /**\n   * @dev Multiplies two ray, rounding half up to the nearest ray\n   * @param a Ray\n   * @param b Ray\n   * @return The result of a*b, in ray\n   **/\n  function rayMul(uint256 a, uint256 b) internal pure returns (uint256) {\n    if (a == 0 || b == 0) {\n      return 0;\n    }\n\n    uint256 ray = 1e27;\n    uint256 halfRAY = ray / 2;\n    require(a <= (type(uint256).max - halfRAY) / b, 'multiplication overflow');\n\n    return (a * b + halfRAY) / ray;\n  }\n}",
  "sourcePath": "/home/smeee/just_cause/contracts/JCDepositorERC721.sol",
  "compiler": {
    "name": "solc",
    "version": "0.8.9+commit.e5eed63a.Emscripten.clang"
  },
  "schemaVersion": "3.4.5",
  "updatedAt": "2022-03-16T02:19:39.791Z",
  "devdoc": {
    "kind": "dev",
    "methods": {
      "approve(address,uint256)": {
        "details": "See {IERC721-approve}."
      },
      "balanceOf(address)": {
        "details": "See {IERC721-balanceOf}."
      },
      "getApproved(uint256)": {
        "details": "See {IERC721-getApproved}."
      },
      "isApprovedForAll(address,address)": {
        "details": "See {IERC721-isApprovedForAll}."
      },
      "name()": {
        "details": "See {IERC721Metadata-name}."
      },
      "owner()": {
        "details": "Returns the address of the current owner."
      },
      "ownerOf(uint256)": {
        "details": "See {IERC721-ownerOf}."
      },
      "renounceOwnership()": {
        "details": "Leaves the contract without owner. It will not be possible to call `onlyOwner` functions anymore. Can only be called by the current owner. NOTE: Renouncing ownership will leave the contract without an owner, thereby removing any functionality that is only available to the owner."
      },
      "safeTransferFrom(address,address,uint256)": {
        "details": "See {IERC721-safeTransferFrom}."
      },
      "safeTransferFrom(address,address,uint256,bytes)": {
        "details": "See {IERC721-safeTransferFrom}."
      },
      "setApprovalForAll(address,bool)": {
        "details": "See {IERC721-setApprovalForAll}."
      },
      "supportsInterface(bytes4)": {
        "details": "See {IERC165-supportsInterface}."
      },
      "symbol()": {
        "details": "See {IERC721Metadata-symbol}."
      },
      "tokenByIndex(uint256)": {
        "details": "See {IERC721Enumerable-tokenByIndex}."
      },
      "tokenOfOwnerByIndex(address,uint256)": {
        "details": "See {IERC721Enumerable-tokenOfOwnerByIndex}."
      },
      "tokenURI(uint256)": {
        "details": "See {IERC721Metadata-tokenURI}."
      },
      "totalSupply()": {
        "details": "See {IERC721Enumerable-totalSupply}."
      },
      "transferFrom(address,address,uint256)": {
        "details": "See {IERC721-transferFrom}."
      },
      "transferOwnership(address)": {
        "details": "Transfers ownership of the contract to a new account (`newOwner`). Can only be called by the current owner."
      }
    },
    "version": 1
  },
  "userdoc": {
    "kind": "user",
    "methods": {},
    "version": 1
  }
}