{
  "contractName": "JCDepositorERC721",
  "abi": [
    {
      "inputs": [],
      "stateMutability": "nonpayable",
      "type": "constructor"
    },
    {
      "anonymous": false,
      "inputs": [
        {
          "indexed": true,
          "internalType": "address",
          "name": "owner",
          "type": "address"
        },
        {
          "indexed": true,
          "internalType": "address",
          "name": "approved",
          "type": "address"
        },
        {
          "indexed": true,
          "internalType": "uint256",
          "name": "tokenId",
          "type": "uint256"
        }
      ],
      "name": "Approval",
      "type": "event"
    },
    {
      "anonymous": false,
      "inputs": [
        {
          "indexed": true,
          "internalType": "address",
          "name": "owner",
          "type": "address"
        },
        {
          "indexed": true,
          "internalType": "address",
          "name": "operator",
          "type": "address"
        },
        {
          "indexed": false,
          "internalType": "bool",
          "name": "approved",
          "type": "bool"
        }
      ],
      "name": "ApprovalForAll",
      "type": "event"
    },
    {
      "anonymous": false,
      "inputs": [
        {
          "indexed": true,
          "internalType": "address",
          "name": "previousOwner",
          "type": "address"
        },
        {
          "indexed": true,
          "internalType": "address",
          "name": "newOwner",
          "type": "address"
        }
      ],
      "name": "OwnershipTransferred",
      "type": "event"
    },
    {
      "anonymous": false,
      "inputs": [
        {
          "indexed": true,
          "internalType": "address",
          "name": "from",
          "type": "address"
        },
        {
          "indexed": true,
          "internalType": "address",
          "name": "to",
          "type": "address"
        },
        {
          "indexed": true,
          "internalType": "uint256",
          "name": "tokenId",
          "type": "uint256"
        }
      ],
      "name": "Transfer",
      "type": "event"
    },
    {
      "inputs": [
        {
          "internalType": "address",
          "name": "to",
          "type": "address"
        },
        {
          "internalType": "uint256",
          "name": "tokenId",
          "type": "uint256"
        }
      ],
      "name": "approve",
      "outputs": [],
      "stateMutability": "nonpayable",
      "type": "function"
    },
    {
      "inputs": [
        {
          "internalType": "address",
          "name": "owner",
          "type": "address"
        }
      ],
      "name": "balanceOf",
      "outputs": [
        {
          "internalType": "uint256",
          "name": "",
          "type": "uint256"
        }
      ],
      "stateMutability": "view",
      "type": "function"
    },
    {
      "inputs": [
        {
          "internalType": "uint256",
          "name": "tokenId",
          "type": "uint256"
        }
      ],
      "name": "getApproved",
      "outputs": [
        {
          "internalType": "address",
          "name": "",
          "type": "address"
        }
      ],
      "stateMutability": "view",
      "type": "function"
    },
    {
      "inputs": [
        {
          "internalType": "address",
          "name": "owner",
          "type": "address"
        },
        {
          "internalType": "address",
          "name": "operator",
          "type": "address"
        }
      ],
      "name": "isApprovedForAll",
      "outputs": [
        {
          "internalType": "bool",
          "name": "",
          "type": "bool"
        }
      ],
      "stateMutability": "view",
      "type": "function"
    },
    {
      "inputs": [],
      "name": "name",
      "outputs": [
        {
          "internalType": "string",
          "name": "",
          "type": "string"
        }
      ],
      "stateMutability": "view",
      "type": "function"
    },
    {
      "inputs": [],
      "name": "owner",
      "outputs": [
        {
          "internalType": "address",
          "name": "",
          "type": "address"
        }
      ],
      "stateMutability": "view",
      "type": "function"
    },
    {
      "inputs": [
        {
          "internalType": "uint256",
          "name": "tokenId",
          "type": "uint256"
        }
      ],
      "name": "ownerOf",
      "outputs": [
        {
          "internalType": "address",
          "name": "",
          "type": "address"
        }
      ],
      "stateMutability": "view",
      "type": "function"
    },
    {
      "inputs": [],
      "name": "renounceOwnership",
      "outputs": [],
      "stateMutability": "nonpayable",
      "type": "function"
    },
    {
      "inputs": [
        {
          "internalType": "address",
          "name": "from",
          "type": "address"
        },
        {
          "internalType": "address",
          "name": "to",
          "type": "address"
        },
        {
          "internalType": "uint256",
          "name": "tokenId",
          "type": "uint256"
        }
      ],
      "name": "safeTransferFrom",
      "outputs": [],
      "stateMutability": "nonpayable",
      "type": "function"
    },
    {
      "inputs": [
        {
          "internalType": "address",
          "name": "from",
          "type": "address"
        },
        {
          "internalType": "address",
          "name": "to",
          "type": "address"
        },
        {
          "internalType": "uint256",
          "name": "tokenId",
          "type": "uint256"
        },
        {
          "internalType": "bytes",
          "name": "_data",
          "type": "bytes"
        }
      ],
      "name": "safeTransferFrom",
      "outputs": [],
      "stateMutability": "nonpayable",
      "type": "function"
    },
    {
      "inputs": [
        {
          "internalType": "address",
          "name": "operator",
          "type": "address"
        },
        {
          "internalType": "bool",
          "name": "approved",
          "type": "bool"
        }
      ],
      "name": "setApprovalForAll",
      "outputs": [],
      "stateMutability": "nonpayable",
      "type": "function"
    },
    {
      "inputs": [
        {
          "internalType": "bytes4",
          "name": "interfaceId",
          "type": "bytes4"
        }
      ],
      "name": "supportsInterface",
      "outputs": [
        {
          "internalType": "bool",
          "name": "",
          "type": "bool"
        }
      ],
      "stateMutability": "view",
      "type": "function"
    },
    {
      "inputs": [],
      "name": "symbol",
      "outputs": [
        {
          "internalType": "string",
          "name": "",
          "type": "string"
        }
      ],
      "stateMutability": "view",
      "type": "function"
    },
    {
      "inputs": [
        {
          "internalType": "uint256",
          "name": "index",
          "type": "uint256"
        }
      ],
      "name": "tokenByIndex",
      "outputs": [
        {
          "internalType": "uint256",
          "name": "",
          "type": "uint256"
        }
      ],
      "stateMutability": "view",
      "type": "function"
    },
    {
      "inputs": [
        {
          "internalType": "address",
          "name": "owner",
          "type": "address"
        },
        {
          "internalType": "uint256",
          "name": "index",
          "type": "uint256"
        }
      ],
      "name": "tokenOfOwnerByIndex",
      "outputs": [
        {
          "internalType": "uint256",
          "name": "",
          "type": "uint256"
        }
      ],
      "stateMutability": "view",
      "type": "function"
    },
    {
      "inputs": [
        {
          "internalType": "uint256",
          "name": "tokenId",
          "type": "uint256"
        }
      ],
      "name": "tokenURI",
      "outputs": [
        {
          "internalType": "string",
          "name": "",
          "type": "string"
        }
      ],
      "stateMutability": "view",
      "type": "function"
    },
    {
      "inputs": [],
      "name": "totalSupply",
      "outputs": [
        {
          "internalType": "uint256",
          "name": "",
          "type": "uint256"
        }
      ],
      "stateMutability": "view",
      "type": "function"
    },
    {
      "inputs": [
        {
          "internalType": "address",
          "name": "from",
          "type": "address"
        },
        {
          "internalType": "address",
          "name": "to",
          "type": "address"
        },
        {
          "internalType": "uint256",
          "name": "tokenId",
          "type": "uint256"
        }
      ],
      "name": "transferFrom",
      "outputs": [],
      "stateMutability": "nonpayable",
      "type": "function"
    },
    {
      "inputs": [
        {
          "internalType": "address",
          "name": "newOwner",
          "type": "address"
        }
      ],
      "name": "transferOwnership",
      "outputs": [],
      "stateMutability": "nonpayable",
      "type": "function"
    },
    {
      "inputs": [
        {
          "internalType": "address",
          "name": "_tokenOwner",
          "type": "address"
        },
        {
          "internalType": "uint256",
          "name": "_amount",
          "type": "uint256"
        },
        {
          "internalType": "uint256",
          "name": "_liquidityIndex",
          "type": "uint256"
        },
        {
          "internalType": "uint256",
          "name": "_timeStamp",
          "type": "uint256"
        },
        {
          "internalType": "address",
          "name": "_pool",
          "type": "address"
        },
        {
          "internalType": "address",
          "name": "_asset",
          "type": "address"
        }
      ],
      "name": "addFunds",
      "outputs": [
        {
          "internalType": "uint256",
          "name": "",
          "type": "uint256"
        }
      ],
      "stateMutability": "nonpayable",
      "type": "function"
    },
    {
      "inputs": [
        {
          "internalType": "address",
          "name": "_tokenOwner",
          "type": "address"
        },
        {
          "internalType": "uint256",
          "name": "_amount",
          "type": "uint256"
        },
        {
          "internalType": "uint256",
          "name": "_liquidityIndex",
          "type": "uint256"
        },
        {
          "internalType": "address",
          "name": "_pool",
          "type": "address"
        },
        {
          "internalType": "address",
          "name": "_asset",
          "type": "address"
        }
      ],
      "name": "withdrawFunds",
      "outputs": [
        {
          "internalType": "uint256",
          "name": "",
          "type": "uint256"
        }
      ],
      "stateMutability": "nonpayable",
      "type": "function"
    },
    {
      "inputs": [
        {
          "internalType": "uint256",
          "name": "_tokenId",
          "type": "uint256"
        }
      ],
      "name": "getDepositInfo",
      "outputs": [
        {
          "components": [
            {
              "internalType": "uint256",
              "name": "balance",
              "type": "uint256"
            },
            {
              "internalType": "uint256",
              "name": "totalDeposits",
              "type": "uint256"
            },
            {
              "internalType": "uint256",
              "name": "amountScaled",
              "type": "uint256"
            },
            {
              "internalType": "uint256",
              "name": "timeStamp",
              "type": "uint256"
            },
            {
              "internalType": "uint256",
              "name": "liquidityIndex",
              "type": "uint256"
            },
            {
              "internalType": "address",
              "name": "pool",
              "type": "address"
            },
            {
              "internalType": "address",
              "name": "asset",
              "type": "address"
            }
          ],
          "internalType": "struct JCDepositorERC721.Deposit",
          "name": "",
          "type": "tuple"
        }
      ],
      "stateMutability": "view",
      "type": "function"
    }
  ],
  "bytecode": "0x60806040523480156200001157600080fd5b506040518060400160405280601381526020017f4a4350204465706f7369746f7220546f6b656e000000000000000000000000008152506040518060400160405280600c81526020017f4a4350545f544553545f44310000000000000000000000000000000000000000815250816000908051906020019062000096929190620001a6565b508060019080519060200190620000af929190620001a6565b505050620000d2620000c6620000d860201b60201c565b620000e060201b60201c565b620002bb565b600033905090565b6000600a60009054906101000a900473ffffffffffffffffffffffffffffffffffffffff16905081600a60006101000a81548173ffffffffffffffffffffffffffffffffffffffff021916908373ffffffffffffffffffffffffffffffffffffffff1602179055508173ffffffffffffffffffffffffffffffffffffffff168173ffffffffffffffffffffffffffffffffffffffff167f8be0079c531659141344cd1fd0a4f28419497f9722a3daafe3b4186f6b6457e060405160405180910390a35050565b828054620001b49062000285565b90600052602060002090601f016020900481019282620001d8576000855562000224565b82601f10620001f357805160ff191683800117855562000224565b8280016001018555821562000224579182015b828111156200022357825182559160200191906001019062000206565b5b50905062000233919062000237565b5090565b5b808211156200025257600081600090555060010162000238565b5090565b7f4e487b7100000000000000000000000000000000000000000000000000000000600052602260045260246000fd5b600060028204905060018216806200029e57607f821691505b60208210811415620002b557620002b462000256565b5b50919050565b613dfc80620002cb6000396000f3fe608060405234801561001057600080fd5b50600436106101425760003560e01c80636352211e116100b8578063a22cb4651161007c578063a22cb4651461039d578063b88d4fde146103b9578063c87b56dd146103d5578063e985e9c514610405578063ecd8d05414610435578063f2fde38b1461046557610142565b80636352211e146102f757806370a0823114610327578063715018a6146103575780638da5cb5b1461036157806395d89b411461037f57610142565b8063236e9c991161010a578063236e9c99146101ff57806323b872dd1461022f5780632f745c591461024b57806342842e0e1461027b5780634f6ccce7146102975780635328c2bf146102c757610142565b806301ffc9a71461014757806306fdde0314610177578063081812fc14610195578063095ea7b3146101c557806318160ddd146101e1575b600080fd5b610161600480360381019061015c91906126d0565b610481565b60405161016e9190612718565b60405180910390f35b61017f6104fb565b60405161018c91906127cc565b60405180910390f35b6101af60048036038101906101aa9190612824565b61058d565b6040516101bc9190612892565b60405180910390f35b6101df60048036038101906101da91906128d9565b610612565b005b6101e961072a565b6040516101f69190612928565b60405180910390f35b61021960048036038101906102149190612943565b610737565b6040516102269190612928565b60405180910390f35b610249600480360381019061024491906129be565b6108fa565b005b610265600480360381019061026091906128d9565b61095a565b6040516102729190612928565b60405180910390f35b610295600480360381019061029091906129be565b6109ff565b005b6102b160048036038101906102ac9190612824565b610a1f565b6040516102be9190612928565b60405180910390f35b6102e160048036038101906102dc9190612824565b610a90565b6040516102ee9190612abd565b60405180910390f35b610311600480360381019061030c9190612824565b610b9b565b60405161031e9190612892565b60405180910390f35b610341600480360381019061033c9190612ad8565b610c4d565b60405161034e9190612928565b60405180910390f35b61035f610d05565b005b610369610d8d565b6040516103769190612892565b60405180910390f35b610387610db7565b60405161039491906127cc565b60405180910390f35b6103b760048036038101906103b29190612b31565b610e49565b005b6103d360048036038101906103ce9190612ca6565b610e5f565b005b6103ef60048036038101906103ea9190612824565b610ec1565b6040516103fc91906127cc565b60405180910390f35b61041f600480360381019061041a9190612d29565b610f68565b60405161042c9190612718565b60405180910390f35b61044f600480360381019061044a9190612d69565b610ffc565b60405161045c9190612928565b60405180910390f35b61047f600480360381019061047a9190612ad8565b6112a6565b005b60007f780e9d63000000000000000000000000000000000000000000000000000000007bffffffffffffffffffffffffffffffffffffffffffffffffffffffff1916827bffffffffffffffffffffffffffffffffffffffffffffffffffffffff191614806104f457506104f38261139e565b5b9050919050565b60606000805461050a90612e25565b80601f016020809104026020016040519081016040528092919081815260200182805461053690612e25565b80156105835780601f1061055857610100808354040283529160200191610583565b820191906000526020600020905b81548152906001019060200180831161056657829003601f168201915b5050505050905090565b600061059882611480565b6105d7576040517f08c379a00000000000000000000000000000000000000000000000000000000081526004016105ce90612ec9565b60405180910390fd5b6004600083815260200190815260200160002060009054906101000a900473ffffffffffffffffffffffffffffffffffffffff169050919050565b600061061d82610b9b565b90508073ffffffffffffffffffffffffffffffffffffffff168373ffffffffffffffffffffffffffffffffffffffff16141561068e576040517f08c379a000000000000000000000000000000000000000000000000000000000815260040161068590612f5b565b60405180910390fd5b8073ffffffffffffffffffffffffffffffffffffffff166106ad6114ec565b73ffffffffffffffffffffffffffffffffffffffff1614806106dc57506106db816106d66114ec565b610f68565b5b61071b576040517f08c379a000000000000000000000000000000000000000000000000000000000815260040161071290612fed565b60405180910390fd5b61072583836114f4565b505050565b6000600880549050905090565b60006107416114ec565b73ffffffffffffffffffffffffffffffffffffffff1661075f610d8d565b73ffffffffffffffffffffffffffffffffffffffff16146107b5576040517f08c379a00000000000000000000000000000000000000000000000000000000081526004016107ac90613059565b60405180910390fd5b60008684846040516020016107cc939291906130c1565b6040516020818303038152906040528051906020012060001c90506107f081611480565b61082f576040517f08c379a00000000000000000000000000000000000000000000000000000000081526004016108269061314a565b60405180910390fd5b6000600b60008381526020019081526020016000206000015490508681101561088d576040517f08c379a0000000000000000000000000000000000000000000000000000000008152600401610884906131b6565b60405180910390fd5b86816108999190613205565b905080600b6000848152602001908152602001600020600001819055506108c087876115ad565b600b600084815260200190815260200160002060020160008282546108e59190613205565b92505081905550819250505095945050505050565b61090b6109056114ec565b826116b9565b61094a576040517f08c379a0000000000000000000000000000000000000000000000000000000008152600401610941906132ab565b60405180910390fd5b610955838383611797565b505050565b600061096583610c4d565b82106109a6576040517f08c379a000000000000000000000000000000000000000000000000000000000815260040161099d9061333d565b60405180910390fd5b600660008473ffffffffffffffffffffffffffffffffffffffff1673ffffffffffffffffffffffffffffffffffffffff168152602001908152602001600020600083815260200190815260200160002054905092915050565b610a1a83838360405180602001604052806000815250610e5f565b505050565b6000610a2961072a565b8210610a6a576040517f08c379a0000000000000000000000000000000000000000000000000000000008152600401610a61906133cf565b60405180910390fd5b60088281548110610a7e57610a7d6133ef565b5b90600052602060002001549050919050565b610a986125fb565b600b60008381526020019081526020016000206040518060e001604052908160008201548152602001600182015481526020016002820154815260200160038201548152602001600482015481526020016005820160009054906101000a900473ffffffffffffffffffffffffffffffffffffffff1673ffffffffffffffffffffffffffffffffffffffff1673ffffffffffffffffffffffffffffffffffffffff1681526020016006820160009054906101000a900473ffffffffffffffffffffffffffffffffffffffff1673ffffffffffffffffffffffffffffffffffffffff1673ffffffffffffffffffffffffffffffffffffffff16815250509050919050565b6000806002600084815260200190815260200160002060009054906101000a900473ffffffffffffffffffffffffffffffffffffffff169050600073ffffffffffffffffffffffffffffffffffffffff168173ffffffffffffffffffffffffffffffffffffffff161415610c44576040517f08c379a0000000000000000000000000000000000000000000000000000000008152600401610c3b90613490565b60405180910390fd5b80915050919050565b60008073ffffffffffffffffffffffffffffffffffffffff168273ffffffffffffffffffffffffffffffffffffffff161415610cbe576040517f08c379a0000000000000000000000000000000000000000000000000000000008152600401610cb590613522565b60405180910390fd5b600360008373ffffffffffffffffffffffffffffffffffffffff1673ffffffffffffffffffffffffffffffffffffffff168152602001908152602001600020549050919050565b610d0d6114ec565b73ffffffffffffffffffffffffffffffffffffffff16610d2b610d8d565b73ffffffffffffffffffffffffffffffffffffffff1614610d81576040517f08c379a0000000000000000000000000000000000000000000000000000000008152600401610d7890613059565b60405180910390fd5b610d8b60006119f3565b565b6000600a60009054906101000a900473ffffffffffffffffffffffffffffffffffffffff16905090565b606060018054610dc690612e25565b80601f0160208091040260200160405190810160405280929190818152602001828054610df290612e25565b8015610e3f5780601f10610e1457610100808354040283529160200191610e3f565b820191906000526020600020905b815481529060010190602001808311610e2257829003601f168201915b5050505050905090565b610e5b610e546114ec565b8383611ab9565b5050565b610e70610e6a6114ec565b836116b9565b610eaf576040517f08c379a0000000000000000000000000000000000000000000000000000000008152600401610ea6906132ab565b60405180910390fd5b610ebb84848484611c26565b50505050565b6060610ecc82611480565b610f0b576040517f08c379a0000000000000000000000000000000000000000000000000000000008152600401610f02906135b4565b60405180910390fd5b6000610f15611c82565b90506000815111610f355760405180602001604052806000815250610f60565b80610f3f84611c99565b604051602001610f50929190613610565b6040516020818303038152906040525b915050919050565b6000600560008473ffffffffffffffffffffffffffffffffffffffff1673ffffffffffffffffffffffffffffffffffffffff16815260200190815260200160002060008373ffffffffffffffffffffffffffffffffffffffff1673ffffffffffffffffffffffffffffffffffffffff16815260200190815260200160002060009054906101000a900460ff16905092915050565b60006110066114ec565b73ffffffffffffffffffffffffffffffffffffffff16611024610d8d565b73ffffffffffffffffffffffffffffffffffffffff161461107a576040517f08c379a000000000000000000000000000000000000000000000000000000000815260040161107190613059565b60405180910390fd5b6000878484604051602001611091939291906130c1565b6040516020818303038152906040528051906020012060001c90506110b581611480565b1561114f5786600b600083815260200190815260200160002060000160008282546110e09190613634565b9250508190555086600b6000838152602001908152602001600020600101600082825461110d9190613634565b9250508190555061111e87876115ad565b600b600083815260200190815260200160002060020160008282546111439190613634565b92505081905550611298565b6040518060e0016040528088815260200188815260200161117089896115ad565b81526020018681526020018781526020018573ffffffffffffffffffffffffffffffffffffffff1681526020018473ffffffffffffffffffffffffffffffffffffffff16815250600b6000838152602001908152602001600020600082015181600001556020820151816001015560408201518160020155606082015181600301556080820151816004015560a08201518160050160006101000a81548173ffffffffffffffffffffffffffffffffffffffff021916908373ffffffffffffffffffffffffffffffffffffffff16021790555060c08201518160060160006101000a81548173ffffffffffffffffffffffffffffffffffffffff021916908373ffffffffffffffffffffffffffffffffffffffff1602179055509050506112978882611dfa565b5b809150509695505050505050565b6112ae6114ec565b73ffffffffffffffffffffffffffffffffffffffff166112cc610d8d565b73ffffffffffffffffffffffffffffffffffffffff1614611322576040517f08c379a000000000000000000000000000000000000000000000000000000000815260040161131990613059565b60405180910390fd5b600073ffffffffffffffffffffffffffffffffffffffff168173ffffffffffffffffffffffffffffffffffffffff161415611392576040517f08c379a0000000000000000000000000000000000000000000000000000000008152600401611389906136fc565b60405180910390fd5b61139b816119f3565b50565b60007f80ac58cd000000000000000000000000000000000000000000000000000000007bffffffffffffffffffffffffffffffffffffffffffffffffffffffff1916827bffffffffffffffffffffffffffffffffffffffffffffffffffffffff1916148061146957507f5b5e139f000000000000000000000000000000000000000000000000000000007bffffffffffffffffffffffffffffffffffffffffffffffffffffffff1916827bffffffffffffffffffffffffffffffffffffffffffffffffffffffff1916145b80611479575061147882611fc8565b5b9050919050565b60008073ffffffffffffffffffffffffffffffffffffffff166002600084815260200190815260200160002060009054906101000a900473ffffffffffffffffffffffffffffffffffffffff1673ffffffffffffffffffffffffffffffffffffffff1614159050919050565b600033905090565b816004600083815260200190815260200160002060006101000a81548173ffffffffffffffffffffffffffffffffffffffff021916908373ffffffffffffffffffffffffffffffffffffffff160217905550808273ffffffffffffffffffffffffffffffffffffffff1661156783610b9b565b73ffffffffffffffffffffffffffffffffffffffff167f8c5be1e5ebec7d5bd14f71427d1e84f3dd0314c0f7b2291e5b200ac8c7c3b92560405160405180910390a45050565b6000808214156115f2576040517f08c379a00000000000000000000000000000000000000000000000000000000081526004016115e990613768565b60405180910390fd5b600060028361160191906137b7565b905060006b033b2e3c9fd0803ce8000000905080827fffffffffffffffffffffffffffffffffffffffffffffffffffffffffffffffff6116419190613205565b61164b91906137b7565b85111561168d576040517f08c379a000000000000000000000000000000000000000000000000000000000815260040161168490613834565b60405180910390fd5b8382828761169b9190613854565b6116a59190613634565b6116af91906137b7565b9250505092915050565b60006116c482611480565b611703576040517f08c379a00000000000000000000000000000000000000000000000000000000081526004016116fa90613920565b60405180910390fd5b600061170e83610b9b565b90508073ffffffffffffffffffffffffffffffffffffffff168473ffffffffffffffffffffffffffffffffffffffff16148061177d57508373ffffffffffffffffffffffffffffffffffffffff166117658461058d565b73ffffffffffffffffffffffffffffffffffffffff16145b8061178e575061178d8185610f68565b5b91505092915050565b8273ffffffffffffffffffffffffffffffffffffffff166117b782610b9b565b73ffffffffffffffffffffffffffffffffffffffff161461180d576040517f08c379a0000000000000000000000000000000000000000000000000000000008152600401611804906139b2565b60405180910390fd5b600073ffffffffffffffffffffffffffffffffffffffff168273ffffffffffffffffffffffffffffffffffffffff16141561187d576040517f08c379a000000000000000000000000000000000000000000000000000000000815260040161187490613a44565b60405180910390fd5b611888838383612032565b6118936000826114f4565b6001600360008573ffffffffffffffffffffffffffffffffffffffff1673ffffffffffffffffffffffffffffffffffffffff16815260200190815260200160002060008282546118e39190613205565b925050819055506001600360008473ffffffffffffffffffffffffffffffffffffffff1673ffffffffffffffffffffffffffffffffffffffff168152602001908152602001600020600082825461193a9190613634565b92505081905550816002600083815260200190815260200160002060006101000a81548173ffffffffffffffffffffffffffffffffffffffff021916908373ffffffffffffffffffffffffffffffffffffffff160217905550808273ffffffffffffffffffffffffffffffffffffffff168473ffffffffffffffffffffffffffffffffffffffff167fddf252ad1be2c89b69c2b068fc378daa952ba7f163c4a11628f55a4df523b3ef60405160405180910390a4505050565b6000600a60009054906101000a900473ffffffffffffffffffffffffffffffffffffffff16905081600a60006101000a81548173ffffffffffffffffffffffffffffffffffffffff021916908373ffffffffffffffffffffffffffffffffffffffff1602179055508173ffffffffffffffffffffffffffffffffffffffff168173ffffffffffffffffffffffffffffffffffffffff167f8be0079c531659141344cd1fd0a4f28419497f9722a3daafe3b4186f6b6457e060405160405180910390a35050565b8173ffffffffffffffffffffffffffffffffffffffff168373ffffffffffffffffffffffffffffffffffffffff161415611b28576040517f08c379a0000000000000000000000000000000000000000000000000000000008152600401611b1f90613ab0565b60405180910390fd5b80600560008573ffffffffffffffffffffffffffffffffffffffff1673ffffffffffffffffffffffffffffffffffffffff16815260200190815260200160002060008473ffffffffffffffffffffffffffffffffffffffff1673ffffffffffffffffffffffffffffffffffffffff16815260200190815260200160002060006101000a81548160ff0219169083151502179055508173ffffffffffffffffffffffffffffffffffffffff168373ffffffffffffffffffffffffffffffffffffffff167f17307eab39ab6107e8899845ad3d59bd9653f200f220920489ca2b5937696c3183604051611c199190612718565b60405180910390a3505050565b611c31848484611797565b611c3d84848484612146565b611c7c576040517f08c379a0000000000000000000000000000000000000000000000000000000008152600401611c7390613b42565b60405180910390fd5b50505050565b606060405180602001604052806000815250905090565b60606000821415611ce1576040518060400160405280600181526020017f30000000000000000000000000000000000000000000000000000000000000008152509050611df5565b600082905060005b60008214611d13578080611cfc90613b62565b915050600a82611d0c91906137b7565b9150611ce9565b60008167ffffffffffffffff811115611d2f57611d2e612b7b565b5b6040519080825280601f01601f191660200182016040528015611d615781602001600182028036833780820191505090505b5090505b60008514611dee57600182611d7a9190613205565b9150600a85611d899190613bab565b6030611d959190613634565b60f81b818381518110611dab57611daa6133ef565b5b60200101907effffffffffffffffffffffffffffffffffffffffffffffffffffffffffffff1916908160001a905350600a85611de791906137b7565b9450611d65565b8093505050505b919050565b600073ffffffffffffffffffffffffffffffffffffffff168273ffffffffffffffffffffffffffffffffffffffff161415611e6a576040517f08c379a0000000000000000000000000000000000000000000000000000000008152600401611e6190613c28565b60405180910390fd5b611e7381611480565b15611eb3576040517f08c379a0000000000000000000000000000000000000000000000000000000008152600401611eaa90613c94565b60405180910390fd5b611ebf60008383612032565b6001600360008473ffffffffffffffffffffffffffffffffffffffff1673ffffffffffffffffffffffffffffffffffffffff1681526020019081526020016000206000828254611f0f9190613634565b92505081905550816002600083815260200190815260200160002060006101000a81548173ffffffffffffffffffffffffffffffffffffffff021916908373ffffffffffffffffffffffffffffffffffffffff160217905550808273ffffffffffffffffffffffffffffffffffffffff16600073ffffffffffffffffffffffffffffffffffffffff167fddf252ad1be2c89b69c2b068fc378daa952ba7f163c4a11628f55a4df523b3ef60405160405180910390a45050565b60007f01ffc9a7000000000000000000000000000000000000000000000000000000007bffffffffffffffffffffffffffffffffffffffffffffffffffffffff1916827bffffffffffffffffffffffffffffffffffffffffffffffffffffffff1916149050919050565b61203d8383836122dd565b600073ffffffffffffffffffffffffffffffffffffffff168373ffffffffffffffffffffffffffffffffffffffff1614156120805761207b816122e2565b6120bf565b8173ffffffffffffffffffffffffffffffffffffffff168373ffffffffffffffffffffffffffffffffffffffff16146120be576120bd838261232b565b5b5b600073ffffffffffffffffffffffffffffffffffffffff168273ffffffffffffffffffffffffffffffffffffffff161415612102576120fd81612498565b612141565b8273ffffffffffffffffffffffffffffffffffffffff168273ffffffffffffffffffffffffffffffffffffffff16146121405761213f8282612569565b5b5b505050565b60006121678473ffffffffffffffffffffffffffffffffffffffff166125e8565b156122d0578373ffffffffffffffffffffffffffffffffffffffff1663150b7a026121906114ec565b8786866040518563ffffffff1660e01b81526004016121b29493929190613d09565b602060405180830381600087803b1580156121cc57600080fd5b505af19250505080156121fd57506040513d601f19601f820116820180604052508101906121fa9190613d6a565b60015b612280573d806000811461222d576040519150601f19603f3d011682016040523d82523d6000602084013e612232565b606091505b50600081511415612278576040517f08c379a000000000000000000000000000000000000000000000000000000000815260040161226f90613b42565b60405180910390fd5b805181602001fd5b63150b7a0260e01b7bffffffffffffffffffffffffffffffffffffffffffffffffffffffff1916817bffffffffffffffffffffffffffffffffffffffffffffffffffffffff1916149150506122d5565b600190505b949350505050565b505050565b6008805490506009600083815260200190815260200160002081905550600881908060018154018082558091505060019003906000526020600020016000909190919091505550565b6000600161233884610c4d565b6123429190613205565b9050600060076000848152602001908152602001600020549050818114612427576000600660008673ffffffffffffffffffffffffffffffffffffffff1673ffffffffffffffffffffffffffffffffffffffff168152602001908152602001600020600084815260200190815260200160002054905080600660008773ffffffffffffffffffffffffffffffffffffffff1673ffffffffffffffffffffffffffffffffffffffff168152602001908152602001600020600084815260200190815260200160002081905550816007600083815260200190815260200160002081905550505b6007600084815260200190815260200160002060009055600660008573ffffffffffffffffffffffffffffffffffffffff1673ffffffffffffffffffffffffffffffffffffffff16815260200190815260200160002060008381526020019081526020016000206000905550505050565b600060016008805490506124ac9190613205565b90506000600960008481526020019081526020016000205490506000600883815481106124dc576124db6133ef565b5b9060005260206000200154905080600883815481106124fe576124fd6133ef565b5b90600052602060002001819055508160096000838152602001908152602001600020819055506009600085815260200190815260200160002060009055600880548061254d5761254c613d97565b5b6001900381819060005260206000200160009055905550505050565b600061257483610c4d565b905081600660008573ffffffffffffffffffffffffffffffffffffffff1673ffffffffffffffffffffffffffffffffffffffff168152602001908152602001600020600083815260200190815260200160002081905550806007600084815260200190815260200160002081905550505050565b600080823b905060008111915050919050565b6040518060e001604052806000815260200160008152602001600081526020016000815260200160008152602001600073ffffffffffffffffffffffffffffffffffffffff168152602001600073ffffffffffffffffffffffffffffffffffffffff1681525090565b6000604051905090565b600080fd5b600080fd5b60007fffffffff0000000000000000000000000000000000000000000000000000000082169050919050565b6126ad81612678565b81146126b857600080fd5b50565b6000813590506126ca816126a4565b92915050565b6000602082840312156126e6576126e561266e565b5b60006126f4848285016126bb565b91505092915050565b60008115159050919050565b612712816126fd565b82525050565b600060208201905061272d6000830184612709565b92915050565b600081519050919050565b600082825260208201905092915050565b60005b8381101561276d578082015181840152602081019050612752565b8381111561277c576000848401525b50505050565b6000601f19601f8301169050919050565b600061279e82612733565b6127a8818561273e565b93506127b881856020860161274f565b6127c181612782565b840191505092915050565b600060208201905081810360008301526127e68184612793565b905092915050565b6000819050919050565b612801816127ee565b811461280c57600080fd5b50565b60008135905061281e816127f8565b92915050565b60006020828403121561283a5761283961266e565b5b60006128488482850161280f565b91505092915050565b600073ffffffffffffffffffffffffffffffffffffffff82169050919050565b600061287c82612851565b9050919050565b61288c81612871565b82525050565b60006020820190506128a76000830184612883565b92915050565b6128b681612871565b81146128c157600080fd5b50565b6000813590506128d3816128ad565b92915050565b600080604083850312156128f0576128ef61266e565b5b60006128fe858286016128c4565b925050602061290f8582860161280f565b9150509250929050565b612922816127ee565b82525050565b600060208201905061293d6000830184612919565b92915050565b600080600080600060a0868803121561295f5761295e61266e565b5b600061296d888289016128c4565b955050602061297e8882890161280f565b945050604061298f8882890161280f565b93505060606129a0888289016128c4565b92505060806129b1888289016128c4565b9150509295509295909350565b6000806000606084860312156129d7576129d661266e565b5b60006129e5868287016128c4565b93505060206129f6868287016128c4565b9250506040612a078682870161280f565b9150509250925092565b612a1a816127ee565b82525050565b612a2981612871565b82525050565b60e082016000820151612a456000850182612a11565b506020820151612a586020850182612a11565b506040820151612a6b6040850182612a11565b506060820151612a7e6060850182612a11565b506080820151612a916080850182612a11565b5060a0820151612aa460a0850182612a20565b5060c0820151612ab760c0850182612a20565b50505050565b600060e082019050612ad26000830184612a2f565b92915050565b600060208284031215612aee57612aed61266e565b5b6000612afc848285016128c4565b91505092915050565b612b0e816126fd565b8114612b1957600080fd5b50565b600081359050612b2b81612b05565b92915050565b60008060408385031215612b4857612b4761266e565b5b6000612b56858286016128c4565b9250506020612b6785828601612b1c565b9150509250929050565b600080fd5b600080fd5b7f4e487b7100000000000000000000000000000000000000000000000000000000600052604160045260246000fd5b612bb382612782565b810181811067ffffffffffffffff82111715612bd257612bd1612b7b565b5b80604052505050565b6000612be5612664565b9050612bf18282612baa565b919050565b600067ffffffffffffffff821115612c1157612c10612b7b565b5b612c1a82612782565b9050602081019050919050565b82818337600083830152505050565b6000612c49612c4484612bf6565b612bdb565b905082815260208101848484011115612c6557612c64612b76565b5b612c70848285612c27565b509392505050565b600082601f830112612c8d57612c8c612b71565b5b8135612c9d848260208601612c36565b91505092915050565b60008060008060808587031215612cc057612cbf61266e565b5b6000612cce878288016128c4565b9450506020612cdf878288016128c4565b9350506040612cf08782880161280f565b925050606085013567ffffffffffffffff811115612d1157612d10612673565b5b612d1d87828801612c78565b91505092959194509250565b60008060408385031215612d4057612d3f61266e565b5b6000612d4e858286016128c4565b9250506020612d5f858286016128c4565b9150509250929050565b60008060008060008060c08789031215612d8657612d8561266e565b5b6000612d9489828a016128c4565b9650506020612da589828a0161280f565b9550506040612db689828a0161280f565b9450506060612dc789828a0161280f565b9350506080612dd889828a016128c4565b92505060a0612de989828a016128c4565b9150509295509295509295565b7f4e487b7100000000000000000000000000000000000000000000000000000000600052602260045260246000fd5b60006002820490506001821680612e3d57607f821691505b60208210811415612e5157612e50612df6565b5b50919050565b7f4552433732313a20617070726f76656420717565727920666f72206e6f6e657860008201527f697374656e7420746f6b656e0000000000000000000000000000000000000000602082015250565b6000612eb3602c8361273e565b9150612ebe82612e57565b604082019050919050565b60006020820190508181036000830152612ee281612ea6565b9050919050565b7f4552433732313a20617070726f76616c20746f2063757272656e74206f776e6560008201527f7200000000000000000000000000000000000000000000000000000000000000602082015250565b6000612f4560218361273e565b9150612f5082612ee9565b604082019050919050565b60006020820190508181036000830152612f7481612f38565b9050919050565b7f4552433732313a20617070726f76652063616c6c6572206973206e6f74206f7760008201527f6e6572206e6f7220617070726f76656420666f7220616c6c0000000000000000602082015250565b6000612fd760388361273e565b9150612fe282612f7b565b604082019050919050565b6000602082019050818103600083015261300681612fca565b9050919050565b7f4f776e61626c653a2063616c6c6572206973206e6f7420746865206f776e6572600082015250565b600061304360208361273e565b915061304e8261300d565b602082019050919050565b6000602082019050818103600083015261307281613036565b9050919050565b60008160601b9050919050565b600061309182613079565b9050919050565b60006130a382613086565b9050919050565b6130bb6130b682612871565b613098565b82525050565b60006130cd82866130aa565b6014820191506130dd82856130aa565b6014820191506130ed82846130aa565b601482019150819050949350505050565b7f746f6b656e496420646f65736e27742065786973740000000000000000000000600082015250565b600061313460158361273e565b915061313f826130fe565b602082019050919050565b6000602082019050818103600083015261316381613127565b9050919050565b7f696e73756666696369656e742062616c616e6365000000000000000000000000600082015250565b60006131a060148361273e565b91506131ab8261316a565b602082019050919050565b600060208201905081810360008301526131cf81613193565b9050919050565b7f4e487b7100000000000000000000000000000000000000000000000000000000600052601160045260246000fd5b6000613210826127ee565b915061321b836127ee565b92508282101561322e5761322d6131d6565b5b828203905092915050565b7f4552433732313a207472616e736665722063616c6c6572206973206e6f74206f60008201527f776e6572206e6f7220617070726f766564000000000000000000000000000000602082015250565b600061329560318361273e565b91506132a082613239565b604082019050919050565b600060208201905081810360008301526132c481613288565b9050919050565b7f455243373231456e756d657261626c653a206f776e657220696e646578206f7560008201527f74206f6620626f756e6473000000000000000000000000000000000000000000602082015250565b6000613327602b8361273e565b9150613332826132cb565b604082019050919050565b600060208201905081810360008301526133568161331a565b9050919050565b7f455243373231456e756d657261626c653a20676c6f62616c20696e646578206f60008201527f7574206f6620626f756e64730000000000000000000000000000000000000000602082015250565b60006133b9602c8361273e565b91506133c48261335d565b604082019050919050565b600060208201905081810360008301526133e8816133ac565b9050919050565b7f4e487b7100000000000000000000000000000000000000000000000000000000600052603260045260246000fd5b7f4552433732313a206f776e657220717565727920666f72206e6f6e657869737460008201527f656e7420746f6b656e0000000000000000000000000000000000000000000000602082015250565b600061347a60298361273e565b91506134858261341e565b604082019050919050565b600060208201905081810360008301526134a98161346d565b9050919050565b7f4552433732313a2062616c616e636520717565727920666f7220746865207a6560008201527f726f206164647265737300000000000000000000000000000000000000000000602082015250565b600061350c602a8361273e565b9150613517826134b0565b604082019050919050565b6000602082019050818103600083015261353b816134ff565b9050919050565b7f4552433732314d657461646174613a2055524920717565727920666f72206e6f60008201527f6e6578697374656e7420746f6b656e0000000000000000000000000000000000602082015250565b600061359e602f8361273e565b91506135a982613542565b604082019050919050565b600060208201905081810360008301526135cd81613591565b9050919050565b600081905092915050565b60006135ea82612733565b6135f481856135d4565b935061360481856020860161274f565b80840191505092915050565b600061361c82856135df565b915061362882846135df565b91508190509392505050565b600061363f826127ee565b915061364a836127ee565b9250827fffffffffffffffffffffffffffffffffffffffffffffffffffffffffffffffff0382111561367f5761367e6131d6565b5b828201905092915050565b7f4f776e61626c653a206e6577206f776e657220697320746865207a65726f206160008201527f6464726573730000000000000000000000000000000000000000000000000000602082015250565b60006136e660268361273e565b91506136f18261368a565b604082019050919050565b60006020820190508181036000830152613715816136d9565b9050919050565b7f6469766973696f6e206279203000000000000000000000000000000000000000600082015250565b6000613752600d8361273e565b915061375d8261371c565b602082019050919050565b6000602082019050818103600083015261378181613745565b9050919050565b7f4e487b7100000000000000000000000000000000000000000000000000000000600052601260045260246000fd5b60006137c2826127ee565b91506137cd836127ee565b9250826137dd576137dc613788565b5b828204905092915050565b7f6d756c7469706c69636174696f6e206f766572666c6f77000000000000000000600082015250565b600061381e60178361273e565b9150613829826137e8565b602082019050919050565b6000602082019050818103600083015261384d81613811565b9050919050565b600061385f826127ee565b915061386a836127ee565b9250817fffffffffffffffffffffffffffffffffffffffffffffffffffffffffffffffff04831182151516156138a3576138a26131d6565b5b828202905092915050565b7f4552433732313a206f70657261746f7220717565727920666f72206e6f6e657860008201527f697374656e7420746f6b656e0000000000000000000000000000000000000000602082015250565b600061390a602c8361273e565b9150613915826138ae565b604082019050919050565b60006020820190508181036000830152613939816138fd565b9050919050565b7f4552433732313a207472616e73666572206f6620746f6b656e2074686174206960008201527f73206e6f74206f776e0000000000000000000000000000000000000000000000602082015250565b600061399c60298361273e565b91506139a782613940565b604082019050919050565b600060208201905081810360008301526139cb8161398f565b9050919050565b7f4552433732313a207472616e7366657220746f20746865207a65726f2061646460008201527f7265737300000000000000000000000000000000000000000000000000000000602082015250565b6000613a2e60248361273e565b9150613a39826139d2565b604082019050919050565b60006020820190508181036000830152613a5d81613a21565b9050919050565b7f4552433732313a20617070726f766520746f2063616c6c657200000000000000600082015250565b6000613a9a60198361273e565b9150613aa582613a64565b602082019050919050565b60006020820190508181036000830152613ac981613a8d565b9050919050565b7f4552433732313a207472616e7366657220746f206e6f6e20455243373231526560008201527f63656976657220696d706c656d656e7465720000000000000000000000000000602082015250565b6000613b2c60328361273e565b9150613b3782613ad0565b604082019050919050565b60006020820190508181036000830152613b5b81613b1f565b9050919050565b6000613b6d826127ee565b91507fffffffffffffffffffffffffffffffffffffffffffffffffffffffffffffffff821415613ba057613b9f6131d6565b5b600182019050919050565b6000613bb6826127ee565b9150613bc1836127ee565b925082613bd157613bd0613788565b5b828206905092915050565b7f4552433732313a206d696e7420746f20746865207a65726f2061646472657373600082015250565b6000613c1260208361273e565b9150613c1d82613bdc565b602082019050919050565b60006020820190508181036000830152613c4181613c05565b9050919050565b7f4552433732313a20746f6b656e20616c7265616479206d696e74656400000000600082015250565b6000613c7e601c8361273e565b9150613c8982613c48565b602082019050919050565b60006020820190508181036000830152613cad81613c71565b9050919050565b600081519050919050565b600082825260208201905092915050565b6000613cdb82613cb4565b613ce58185613cbf565b9350613cf581856020860161274f565b613cfe81612782565b840191505092915050565b6000608082019050613d1e6000830187612883565b613d2b6020830186612883565b613d386040830185612919565b8181036060830152613d4a8184613cd0565b905095945050505050565b600081519050613d64816126a4565b92915050565b600060208284031215613d8057613d7f61266e565b5b6000613d8e84828501613d55565b91505092915050565b7f4e487b7100000000000000000000000000000000000000000000000000000000600052603160045260246000fdfea26469706673582212207bc8dbe3fe9fe1aeea069fa1f3c2d18165f87628d2e0789edd3953f926844e3064736f6c63430008090033",
  "immutableReferences": {},
  "source": "// SPDX-License-Identifier: MIT\npragma solidity 0.8.9;\n\nimport \"@openzeppelin/contracts/token/ERC721/extensions/ERC721Enumerable.sol\";\nimport \"@openzeppelin/contracts/access/Ownable.sol\";\n\ncontract JCDepositorERC721 is ERC721Enumerable, Ownable {\n\n    struct Deposit {\n        uint256 balance;\n        uint256 totalDeposits;\n        uint256 amountScaled;\n        uint256 timeStamp;\n        uint256 liquidityIndex;\n        address pool;\n        address asset;\n    }\n\n    //key = keccak hash of depositor, pool and asset addresses\n    mapping (uint256 => Deposit) deposits;\n\n    constructor() ERC721(\"JCP Depositor Token\", \"JCPT_TEST_D1\") {\n\n    }\n\n    function addFunds(address _tokenOwner, uint256 _amount, uint256 _liquidityIndex, uint256 _timeStamp, address _pool, address _asset) onlyOwner public returns (uint256) {\n        //_tokenIds.increment();\n        //uint256 tokenId = _tokenIds.current();\n        uint256 tokenId = uint256(keccak256(abi.encodePacked(_tokenOwner, _pool, _asset)));\n        if(_exists(tokenId)){\n            deposits[tokenId].balance += _amount;\n            deposits[tokenId].totalDeposits += _amount;\n            deposits[tokenId].amountScaled += rayDiv(_amount, _liquidityIndex);\n        }\n        else{\n            deposits[tokenId] = Deposit(_amount, _amount, rayDiv(_amount, _liquidityIndex), _timeStamp, _liquidityIndex, _pool, _asset);\n            _mint(_tokenOwner, tokenId);\n        }\n        //_setTokenURI(tokenId, tokenURI);\n\n        return tokenId;\n    }\n\n    function withdrawFunds(address _tokenOwner, uint256 _amount, uint256 _liquidityIndex, address _pool, address _asset) onlyOwner public returns (uint256) {\n        uint256 tokenId = uint256(keccak256(abi.encodePacked(_tokenOwner, _pool, _asset)));\n        require(_exists(tokenId), \"tokenId doesn't exist\");\n\n        uint256 balance = deposits[tokenId].balance;\n        require(balance >= _amount, \"insufficient balance\");\n        balance -= _amount;\n        /*if(balance == 0){\n            //delete deposits[tokenId];\n            //_burn(tokenId);\n        }*/\n        //_setTokenURI(tokenId, tokenURI);\n        deposits[tokenId].balance = balance;\n        deposits[tokenId].amountScaled -= rayDiv(_amount, _liquidityIndex);\n        return tokenId;\n    }\n\n    function getDepositInfo(uint256 _tokenId) public view returns (Deposit memory){ //uint256 balace, uint256 totalDeposits, uint256 timeStamp, uint256 liquidityIndex, address pool, address asset) {\n        return deposits[_tokenId];\n    }\n\n    /**\n   * @dev Divides two ray, rounding half up to the nearest ray\n   * @param a Ray\n   * @param b Ray\n   * @return The result of a/b, in ray\n   **/\n    function rayDiv(uint256 a, uint256 b) internal pure returns (uint256) {\n    require(b != 0, 'division by 0');\n    uint256 halfB = b / 2;\n\n    uint256 ray = 1e27;\n    require(a <= (type(uint256).max - halfB) / ray, 'multiplication overflow');\n\n    return (a * ray + halfB) / b;\n  }\n}",
  "sourcePath": "/home/smeee/just_cause/contracts/JCDepositorERC721.sol",
  "compiler": {
    "name": "solc",
    "version": "0.8.9+commit.e5eed63a.Emscripten.clang"
  },
  "schemaVersion": "3.4.3",
  "updatedAt": "2022-02-05T19:11:56.139Z",
  "devdoc": {
    "kind": "dev",
    "methods": {
      "approve(address,uint256)": {
        "details": "See {IERC721-approve}."
      },
      "balanceOf(address)": {
        "details": "See {IERC721-balanceOf}."
      },
      "getApproved(uint256)": {
        "details": "See {IERC721-getApproved}."
      },
      "isApprovedForAll(address,address)": {
        "details": "See {IERC721-isApprovedForAll}."
      },
      "name()": {
        "details": "See {IERC721Metadata-name}."
      },
      "owner()": {
        "details": "Returns the address of the current owner."
      },
      "ownerOf(uint256)": {
        "details": "See {IERC721-ownerOf}."
      },
      "renounceOwnership()": {
        "details": "Leaves the contract without owner. It will not be possible to call `onlyOwner` functions anymore. Can only be called by the current owner. NOTE: Renouncing ownership will leave the contract without an owner, thereby removing any functionality that is only available to the owner."
      },
      "safeTransferFrom(address,address,uint256)": {
        "details": "See {IERC721-safeTransferFrom}."
      },
      "safeTransferFrom(address,address,uint256,bytes)": {
        "details": "See {IERC721-safeTransferFrom}."
      },
      "setApprovalForAll(address,bool)": {
        "details": "See {IERC721-setApprovalForAll}."
      },
      "supportsInterface(bytes4)": {
        "details": "See {IERC165-supportsInterface}."
      },
      "symbol()": {
        "details": "See {IERC721Metadata-symbol}."
      },
      "tokenByIndex(uint256)": {
        "details": "See {IERC721Enumerable-tokenByIndex}."
      },
      "tokenOfOwnerByIndex(address,uint256)": {
        "details": "See {IERC721Enumerable-tokenOfOwnerByIndex}."
      },
      "tokenURI(uint256)": {
        "details": "See {IERC721Metadata-tokenURI}."
      },
      "totalSupply()": {
        "details": "See {IERC721Enumerable-totalSupply}."
      },
      "transferFrom(address,address,uint256)": {
        "details": "See {IERC721-transferFrom}."
      },
      "transferOwnership(address)": {
        "details": "Transfers ownership of the contract to a new account (`newOwner`). Can only be called by the current owner."
      }
    },
    "version": 1
  },
  "userdoc": {
    "kind": "user",
    "methods": {},
    "version": 1
  }
}