{
  "contractName": "JCDepositorERC721",
  "abi": [
    {
      "inputs": [],
      "stateMutability": "nonpayable",
      "type": "constructor"
    },
    {
      "anonymous": false,
      "inputs": [
        {
          "indexed": true,
          "internalType": "address",
          "name": "owner",
          "type": "address"
        },
        {
          "indexed": true,
          "internalType": "address",
          "name": "approved",
          "type": "address"
        },
        {
          "indexed": true,
          "internalType": "uint256",
          "name": "tokenId",
          "type": "uint256"
        }
      ],
      "name": "Approval",
      "type": "event"
    },
    {
      "anonymous": false,
      "inputs": [
        {
          "indexed": true,
          "internalType": "address",
          "name": "owner",
          "type": "address"
        },
        {
          "indexed": true,
          "internalType": "address",
          "name": "operator",
          "type": "address"
        },
        {
          "indexed": false,
          "internalType": "bool",
          "name": "approved",
          "type": "bool"
        }
      ],
      "name": "ApprovalForAll",
      "type": "event"
    },
    {
      "anonymous": false,
      "inputs": [
        {
          "indexed": true,
          "internalType": "address",
          "name": "previousOwner",
          "type": "address"
        },
        {
          "indexed": true,
          "internalType": "address",
          "name": "newOwner",
          "type": "address"
        }
      ],
      "name": "OwnershipTransferred",
      "type": "event"
    },
    {
      "anonymous": false,
      "inputs": [
        {
          "indexed": true,
          "internalType": "address",
          "name": "from",
          "type": "address"
        },
        {
          "indexed": true,
          "internalType": "address",
          "name": "to",
          "type": "address"
        },
        {
          "indexed": true,
          "internalType": "uint256",
          "name": "tokenId",
          "type": "uint256"
        }
      ],
      "name": "Transfer",
      "type": "event"
    },
    {
      "inputs": [
        {
          "internalType": "address",
          "name": "to",
          "type": "address"
        },
        {
          "internalType": "uint256",
          "name": "tokenId",
          "type": "uint256"
        }
      ],
      "name": "approve",
      "outputs": [],
      "stateMutability": "nonpayable",
      "type": "function"
    },
    {
      "inputs": [
        {
          "internalType": "address",
          "name": "owner",
          "type": "address"
        }
      ],
      "name": "balanceOf",
      "outputs": [
        {
          "internalType": "uint256",
          "name": "",
          "type": "uint256"
        }
      ],
      "stateMutability": "view",
      "type": "function"
    },
    {
      "inputs": [
        {
          "internalType": "uint256",
          "name": "tokenId",
          "type": "uint256"
        }
      ],
      "name": "getApproved",
      "outputs": [
        {
          "internalType": "address",
          "name": "",
          "type": "address"
        }
      ],
      "stateMutability": "view",
      "type": "function"
    },
    {
      "inputs": [
        {
          "internalType": "address",
          "name": "owner",
          "type": "address"
        },
        {
          "internalType": "address",
          "name": "operator",
          "type": "address"
        }
      ],
      "name": "isApprovedForAll",
      "outputs": [
        {
          "internalType": "bool",
          "name": "",
          "type": "bool"
        }
      ],
      "stateMutability": "view",
      "type": "function"
    },
    {
      "inputs": [],
      "name": "name",
      "outputs": [
        {
          "internalType": "string",
          "name": "",
          "type": "string"
        }
      ],
      "stateMutability": "view",
      "type": "function"
    },
    {
      "inputs": [],
      "name": "owner",
      "outputs": [
        {
          "internalType": "address",
          "name": "",
          "type": "address"
        }
      ],
      "stateMutability": "view",
      "type": "function"
    },
    {
      "inputs": [
        {
          "internalType": "uint256",
          "name": "tokenId",
          "type": "uint256"
        }
      ],
      "name": "ownerOf",
      "outputs": [
        {
          "internalType": "address",
          "name": "",
          "type": "address"
        }
      ],
      "stateMutability": "view",
      "type": "function"
    },
    {
      "inputs": [],
      "name": "renounceOwnership",
      "outputs": [],
      "stateMutability": "nonpayable",
      "type": "function"
    },
    {
      "inputs": [
        {
          "internalType": "address",
          "name": "from",
          "type": "address"
        },
        {
          "internalType": "address",
          "name": "to",
          "type": "address"
        },
        {
          "internalType": "uint256",
          "name": "tokenId",
          "type": "uint256"
        }
      ],
      "name": "safeTransferFrom",
      "outputs": [],
      "stateMutability": "nonpayable",
      "type": "function"
    },
    {
      "inputs": [
        {
          "internalType": "address",
          "name": "from",
          "type": "address"
        },
        {
          "internalType": "address",
          "name": "to",
          "type": "address"
        },
        {
          "internalType": "uint256",
          "name": "tokenId",
          "type": "uint256"
        },
        {
          "internalType": "bytes",
          "name": "_data",
          "type": "bytes"
        }
      ],
      "name": "safeTransferFrom",
      "outputs": [],
      "stateMutability": "nonpayable",
      "type": "function"
    },
    {
      "inputs": [
        {
          "internalType": "address",
          "name": "operator",
          "type": "address"
        },
        {
          "internalType": "bool",
          "name": "approved",
          "type": "bool"
        }
      ],
      "name": "setApprovalForAll",
      "outputs": [],
      "stateMutability": "nonpayable",
      "type": "function"
    },
    {
      "inputs": [],
      "name": "symbol",
      "outputs": [
        {
          "internalType": "string",
          "name": "",
          "type": "string"
        }
      ],
      "stateMutability": "view",
      "type": "function"
    },
    {
      "inputs": [
        {
          "internalType": "uint256",
          "name": "index",
          "type": "uint256"
        }
      ],
      "name": "tokenByIndex",
      "outputs": [
        {
          "internalType": "uint256",
          "name": "",
          "type": "uint256"
        }
      ],
      "stateMutability": "view",
      "type": "function"
    },
    {
      "inputs": [
        {
          "internalType": "address",
          "name": "owner",
          "type": "address"
        },
        {
          "internalType": "uint256",
          "name": "index",
          "type": "uint256"
        }
      ],
      "name": "tokenOfOwnerByIndex",
      "outputs": [
        {
          "internalType": "uint256",
          "name": "",
          "type": "uint256"
        }
      ],
      "stateMutability": "view",
      "type": "function"
    },
    {
      "inputs": [],
      "name": "totalSupply",
      "outputs": [
        {
          "internalType": "uint256",
          "name": "",
          "type": "uint256"
        }
      ],
      "stateMutability": "view",
      "type": "function"
    },
    {
      "inputs": [
        {
          "internalType": "address",
          "name": "from",
          "type": "address"
        },
        {
          "internalType": "address",
          "name": "to",
          "type": "address"
        },
        {
          "internalType": "uint256",
          "name": "tokenId",
          "type": "uint256"
        }
      ],
      "name": "transferFrom",
      "outputs": [],
      "stateMutability": "nonpayable",
      "type": "function"
    },
    {
      "inputs": [
        {
          "internalType": "address",
          "name": "newOwner",
          "type": "address"
        }
      ],
      "name": "transferOwnership",
      "outputs": [],
      "stateMutability": "nonpayable",
      "type": "function"
    },
    {
      "inputs": [
        {
          "internalType": "address",
          "name": "_tokenOwner",
          "type": "address"
        },
        {
          "internalType": "uint256",
          "name": "_amount",
          "type": "uint256"
        },
        {
          "internalType": "uint256",
          "name": "_timeStamp",
          "type": "uint256"
        },
        {
          "internalType": "address",
          "name": "_pool",
          "type": "address"
        },
        {
          "internalType": "address",
          "name": "_asset",
          "type": "address"
        },
        {
          "internalType": "string",
          "name": "_metaUri",
          "type": "string"
        }
      ],
      "name": "addFunds",
      "outputs": [
        {
          "internalType": "uint256",
          "name": "",
          "type": "uint256"
        }
      ],
      "stateMutability": "nonpayable",
      "type": "function"
    },
    {
      "inputs": [
        {
          "internalType": "address",
          "name": "_tokenOwner",
          "type": "address"
        },
        {
          "internalType": "uint256",
          "name": "_amount",
          "type": "uint256"
        },
        {
          "internalType": "address",
          "name": "_pool",
          "type": "address"
        },
        {
          "internalType": "address",
          "name": "_asset",
          "type": "address"
        }
      ],
      "name": "withdrawFunds",
      "outputs": [],
      "stateMutability": "nonpayable",
      "type": "function"
    },
    {
      "inputs": [
        {
          "internalType": "uint256",
          "name": "_tokenId",
          "type": "uint256"
        }
      ],
      "name": "getDepositInfo",
      "outputs": [
        {
          "components": [
            {
              "internalType": "uint256",
              "name": "balance",
              "type": "uint256"
            },
            {
              "internalType": "uint256",
              "name": "timeStamp",
              "type": "uint256"
            },
            {
              "internalType": "uint256",
              "name": "amountScaled",
              "type": "uint256"
            },
            {
              "internalType": "address",
              "name": "pool",
              "type": "address"
            },
            {
              "internalType": "address",
              "name": "asset",
              "type": "address"
            }
          ],
          "internalType": "struct JCDepositorERC721.Deposit",
          "name": "",
          "type": "tuple"
        }
      ],
      "stateMutability": "view",
      "type": "function"
    },
    {
      "inputs": [
        {
          "internalType": "uint256",
          "name": "_tokenId",
          "type": "uint256"
        }
      ],
      "name": "getUserBalance",
      "outputs": [
        {
          "internalType": "uint256",
          "name": "",
          "type": "uint256"
        }
      ],
      "stateMutability": "view",
      "type": "function"
    },
    {
      "inputs": [
        {
          "internalType": "address",
          "name": "_asset",
          "type": "address"
        }
      ],
      "name": "getReserveNormalizedIncome",
      "outputs": [
        {
          "internalType": "uint256",
          "name": "",
          "type": "uint256"
        }
      ],
      "stateMutability": "view",
      "type": "function"
    },
    {
      "inputs": [
        {
          "internalType": "address",
          "name": "_asset",
          "type": "address"
        }
      ],
      "name": "getAaveLiquidityIndex",
      "outputs": [
        {
          "internalType": "uint256",
          "name": "liquidityIndex",
          "type": "uint256"
        }
      ],
      "stateMutability": "view",
      "type": "function"
    },
    {
      "inputs": [
        {
          "internalType": "bytes4",
          "name": "interfaceId",
          "type": "bytes4"
        }
      ],
      "name": "supportsInterface",
      "outputs": [
        {
          "internalType": "bool",
          "name": "",
          "type": "bool"
        }
      ],
      "stateMutability": "view",
      "type": "function"
    },
    {
      "inputs": [
        {
          "internalType": "uint256",
          "name": "tokenId",
          "type": "uint256"
        }
      ],
      "name": "tokenURI",
      "outputs": [
        {
          "internalType": "string",
          "name": "",
          "type": "string"
        }
      ],
      "stateMutability": "view",
      "type": "function"
    }
  ],
  "bytecode": "0x60806040523480156200001157600080fd5b506040518060400160405280601581526020017f4a435020436f6e7472696275746f7220546f6b656e00000000000000000000008152506040518060400160405280600481526020017f4a43504300000000000000000000000000000000000000000000000000000000815250816000908051906020019062000096929190620002df565b508060019080519060200190620000af929190620002df565b505050620000d2620000c66200021160201b60201c565b6200021960201b60201c565b735343b5ba672ae99d627a1c87866b8e53f47db2e6600c60006101000a81548173ffffffffffffffffffffffffffffffffffffffff021916908373ffffffffffffffffffffffffffffffffffffffff160217905550600c60009054906101000a900473ffffffffffffffffffffffffffffffffffffffff1673ffffffffffffffffffffffffffffffffffffffff1663026b1d5f6040518163ffffffff1660e01b815260040160206040518083038186803b1580156200019057600080fd5b505afa158015620001a5573d6000803e3d6000fd5b505050506040513d601f19601f82011682018060405250810190620001cb9190620003f9565b600d60006101000a81548173ffffffffffffffffffffffffffffffffffffffff021916908373ffffffffffffffffffffffffffffffffffffffff16021790555062000490565b600033905090565b6000600b60009054906101000a900473ffffffffffffffffffffffffffffffffffffffff16905081600b60006101000a81548173ffffffffffffffffffffffffffffffffffffffff021916908373ffffffffffffffffffffffffffffffffffffffff1602179055508173ffffffffffffffffffffffffffffffffffffffff168173ffffffffffffffffffffffffffffffffffffffff167f8be0079c531659141344cd1fd0a4f28419497f9722a3daafe3b4186f6b6457e060405160405180910390a35050565b828054620002ed906200045a565b90600052602060002090601f0160209004810192826200031157600085556200035d565b82601f106200032c57805160ff19168380011785556200035d565b828001600101855582156200035d579182015b828111156200035c5782518255916020019190600101906200033f565b5b5090506200036c919062000370565b5090565b5b808211156200038b57600081600090555060010162000371565b5090565b600080fd5b600073ffffffffffffffffffffffffffffffffffffffff82169050919050565b6000620003c18262000394565b9050919050565b620003d381620003b4565b8114620003df57600080fd5b50565b600081519050620003f381620003c8565b92915050565b6000602082840312156200041257620004116200038f565b5b60006200042284828501620003e2565b91505092915050565b7f4e487b7100000000000000000000000000000000000000000000000000000000600052602260045260246000fd5b600060028204905060018216806200047357607f821691505b602082108114156200048a57620004896200042b565b5b50919050565b61478080620004a06000396000f3fe608060405234801561001057600080fd5b50600436106101735760003560e01c80636352211e116100de57806395d89b4111610097578063c87b56dd11610071578063c87b56dd14610482578063d15e0053146104b2578063e985e9c5146104e2578063f2fde38b1461051257610173565b806395d89b411461042c578063a22cb4651461044a578063b88d4fde1461046657610173565b80636352211e146103585780636ba3fef21461038857806370a08231146103a4578063715018a6146103d45780638aebe8d6146103de5780638da5cb5b1461040e57610173565b806323b872dd1161013057806323b872dd146102605780632e0c3f3c1461027c5780632f745c59146102ac57806342842e0e146102dc5780634f6ccce7146102f85780635328c2bf1461032857610173565b806301ffc9a71461017857806306fdde03146101a8578063081812fc146101c6578063095ea7b3146101f65780631310fef71461021257806318160ddd14610242575b600080fd5b610192600480360381019061018d9190612bc4565b61052e565b60405161019f9190612c0c565b60405180910390f35b6101b0610540565b6040516101bd9190612cc0565b60405180910390f35b6101e060048036038101906101db9190612d18565b6105d2565b6040516101ed9190612d86565b60405180910390f35b610210600480360381019061020b9190612dcd565b610657565b005b61022c60048036038101906102279190612f42565b61076f565b6040516102399190612ffa565b60405180910390f35b61024a6109ff565b6040516102579190612ffa565b60405180910390f35b61027a60048036038101906102759190613015565b610a0c565b005b61029660048036038101906102919190612d18565b610a6c565b6040516102a39190612ffa565b60405180910390f35b6102c660048036038101906102c19190612dcd565b610a8c565b6040516102d39190612ffa565b60405180910390f35b6102f660048036038101906102f19190613015565b610b31565b005b610312600480360381019061030d9190612d18565b610b51565b60405161031f9190612ffa565b60405180910390f35b610342600480360381019061033d9190612d18565b610bc2565b60405161034f91906130ee565b60405180910390f35b610372600480360381019061036d9190612d18565b610cb9565b60405161037f9190612d86565b60405180910390f35b6103a2600480360381019061039d9190613109565b610d6b565b005b6103be60048036038101906103b99190613170565b610f75565b6040516103cb9190612ffa565b60405180910390f35b6103dc61102d565b005b6103f860048036038101906103f39190613170565b6110b5565b6040516104059190612ffa565b60405180910390f35b610416611180565b6040516104239190612d86565b60405180910390f35b6104346111aa565b6040516104419190612cc0565b60405180910390f35b610464600480360381019061045f91906131c9565b61123c565b005b610480600480360381019061047b91906132aa565b611252565b005b61049c60048036038101906104979190612d18565b6112b4565b6040516104a99190612cc0565b60405180910390f35b6104cc60048036038101906104c79190613170565b6112c6565b6040516104d99190612ffa565b60405180910390f35b6104fc60048036038101906104f7919061332d565b61137a565b6040516105099190612c0c565b60405180910390f35b61052c60048036038101906105279190613170565b61140e565b005b600061053982611506565b9050919050565b60606000805461054f9061339c565b80601f016020809104026020016040519081016040528092919081815260200182805461057b9061339c565b80156105c85780601f1061059d576101008083540402835291602001916105c8565b820191906000526020600020905b8154815290600101906020018083116105ab57829003601f168201915b5050505050905090565b60006105dd82611580565b61061c576040517f08c379a000000000000000000000000000000000000000000000000000000000815260040161061390613440565b60405180910390fd5b6004600083815260200190815260200160002060009054906101000a900473ffffffffffffffffffffffffffffffffffffffff169050919050565b600061066282610cb9565b90508073ffffffffffffffffffffffffffffffffffffffff168373ffffffffffffffffffffffffffffffffffffffff1614156106d3576040517f08c379a00000000000000000000000000000000000000000000000000000000081526004016106ca906134d2565b60405180910390fd5b8073ffffffffffffffffffffffffffffffffffffffff166106f26115ec565b73ffffffffffffffffffffffffffffffffffffffff16148061072157506107208161071b6115ec565b61137a565b5b610760576040517f08c379a000000000000000000000000000000000000000000000000000000000815260040161075790613564565b60405180910390fd5b61076a83836115f4565b505050565b60006107796115ec565b73ffffffffffffffffffffffffffffffffffffffff16610797611180565b73ffffffffffffffffffffffffffffffffffffffff16146107ed576040517f08c379a00000000000000000000000000000000000000000000000000000000081526004016107e4906135d0565b60405180910390fd5b600087858560405160200161080493929190613638565b6040516020818303038152906040528051906020012060001c9050600061082a856110b5565b905061083582611580565b156108bd5786600e60008481526020019081526020016000206001018190555087600e6000848152602001908152602001600020600001600082825461087b91906136a4565b9250508190555061088c88826116ad565b600e600084815260200190815260200160002060020160008282546108b191906136a4565b925050819055506109f0565b6040518060a001604052808981526020018881526020016108de8a846116ad565b81526020018773ffffffffffffffffffffffffffffffffffffffff1681526020018673ffffffffffffffffffffffffffffffffffffffff16815250600e600084815260200190815260200160002060008201518160000155602082015181600101556040820151816002015560608201518160030160006101000a81548173ffffffffffffffffffffffffffffffffffffffff021916908373ffffffffffffffffffffffffffffffffffffffff16021790555060808201518160040160006101000a81548173ffffffffffffffffffffffffffffffffffffffff021916908373ffffffffffffffffffffffffffffffffffffffff1602179055509050506109e589836117b9565b6109ef8285611987565b5b81925050509695505050505050565b6000600880549050905090565b610a1d610a176115ec565b826119fb565b610a5c576040517f08c379a0000000000000000000000000000000000000000000000000000000008152600401610a539061376c565b60405180910390fd5b610a67838383611ad9565b505050565b6000600e6000838152602001908152602001600020600001549050919050565b6000610a9783610f75565b8210610ad8576040517f08c379a0000000000000000000000000000000000000000000000000000000008152600401610acf906137fe565b60405180910390fd5b600660008473ffffffffffffffffffffffffffffffffffffffff1673ffffffffffffffffffffffffffffffffffffffff168152602001908152602001600020600083815260200190815260200160002054905092915050565b610b4c83838360405180602001604052806000815250611252565b505050565b6000610b5b6109ff565b8210610b9c576040517f08c379a0000000000000000000000000000000000000000000000000000000008152600401610b9390613890565b60405180910390fd5b60088281548110610bb057610baf6138b0565b5b90600052602060002001549050919050565b610bca612a5a565b600e60008381526020019081526020016000206040518060a00160405290816000820154815260200160018201548152602001600282015481526020016003820160009054906101000a900473ffffffffffffffffffffffffffffffffffffffff1673ffffffffffffffffffffffffffffffffffffffff1673ffffffffffffffffffffffffffffffffffffffff1681526020016004820160009054906101000a900473ffffffffffffffffffffffffffffffffffffffff1673ffffffffffffffffffffffffffffffffffffffff1673ffffffffffffffffffffffffffffffffffffffff16815250509050919050565b6000806002600084815260200190815260200160002060009054906101000a900473ffffffffffffffffffffffffffffffffffffffff169050600073ffffffffffffffffffffffffffffffffffffffff168173ffffffffffffffffffffffffffffffffffffffff161415610d62576040517f08c379a0000000000000000000000000000000000000000000000000000000008152600401610d5990613951565b60405180910390fd5b80915050919050565b610d736115ec565b73ffffffffffffffffffffffffffffffffffffffff16610d91611180565b73ffffffffffffffffffffffffffffffffffffffff1614610de7576040517f08c379a0000000000000000000000000000000000000000000000000000000008152600401610dde906135d0565b60405180910390fd5b6000848383604051602001610dfe93929190613638565b6040516020818303038152906040528051906020012060001c9050610e2281611580565b610e61576040517f08c379a0000000000000000000000000000000000000000000000000000000008152600401610e58906139bd565b60405180910390fd5b6000600e600083815260200190815260200160002060000154905084811015610ebf576040517f08c379a0000000000000000000000000000000000000000000000000000000008152600401610eb690613a29565b60405180910390fd5b8481610ecb9190613a49565b90506000811415610f13576000600e6000848152602001908152602001600020600101819055506000600e600084815260200190815260200160002060020181905550610f52565b610f2585610f20856110b5565b6116ad565b600e60008481526020019081526020016000206002016000828254610f4a9190613a49565b925050819055505b80600e600084815260200190815260200160002060000181905550505050505050565b60008073ffffffffffffffffffffffffffffffffffffffff168273ffffffffffffffffffffffffffffffffffffffff161415610fe6576040517f08c379a0000000000000000000000000000000000000000000000000000000008152600401610fdd90613aef565b60405180910390fd5b600360008373ffffffffffffffffffffffffffffffffffffffff1673ffffffffffffffffffffffffffffffffffffffff168152602001908152602001600020549050919050565b6110356115ec565b73ffffffffffffffffffffffffffffffffffffffff16611053611180565b73ffffffffffffffffffffffffffffffffffffffff16146110a9576040517f08c379a00000000000000000000000000000000000000000000000000000000081526004016110a0906135d0565b60405180910390fd5b6110b36000611d35565b565b6000600d60009054906101000a900473ffffffffffffffffffffffffffffffffffffffff1673ffffffffffffffffffffffffffffffffffffffff166335ea6a75836040518263ffffffff1660e01b81526004016111129190612d86565b6101e06040518083038186803b15801561112b57600080fd5b505afa15801561113f573d6000803e3d6000fd5b505050506040513d601f19601f820116820180604052508101906111639190613d9d565b602001516fffffffffffffffffffffffffffffffff169050919050565b6000600b60009054906101000a900473ffffffffffffffffffffffffffffffffffffffff16905090565b6060600180546111b99061339c565b80601f01602080910402602001604051908101604052809291908181526020018280546111e59061339c565b80156112325780601f1061120757610100808354040283529160200191611232565b820191906000526020600020905b81548152906001019060200180831161121557829003601f168201915b5050505050905090565b61124e6112476115ec565b8383611dfb565b5050565b61126361125d6115ec565b836119fb565b6112a2576040517f08c379a00000000000000000000000000000000000000000000000000000000081526004016112999061376c565b60405180910390fd5b6112ae84848484611f68565b50505050565b60606112bf82611fc4565b9050919050565b6000600d60009054906101000a900473ffffffffffffffffffffffffffffffffffffffff1673ffffffffffffffffffffffffffffffffffffffff1663d15e0053836040518263ffffffff1660e01b81526004016113239190612d86565b60206040518083038186803b15801561133b57600080fd5b505afa15801561134f573d6000803e3d6000fd5b505050506040513d601f19601f820116820180604052508101906113739190613dcb565b9050919050565b6000600560008473ffffffffffffffffffffffffffffffffffffffff1673ffffffffffffffffffffffffffffffffffffffff16815260200190815260200160002060008373ffffffffffffffffffffffffffffffffffffffff1673ffffffffffffffffffffffffffffffffffffffff16815260200190815260200160002060009054906101000a900460ff16905092915050565b6114166115ec565b73ffffffffffffffffffffffffffffffffffffffff16611434611180565b73ffffffffffffffffffffffffffffffffffffffff161461148a576040517f08c379a0000000000000000000000000000000000000000000000000000000008152600401611481906135d0565b60405180910390fd5b600073ffffffffffffffffffffffffffffffffffffffff168173ffffffffffffffffffffffffffffffffffffffff1614156114fa576040517f08c379a00000000000000000000000000000000000000000000000000000000081526004016114f190613e6a565b60405180910390fd5b61150381611d35565b50565b60007f780e9d63000000000000000000000000000000000000000000000000000000007bffffffffffffffffffffffffffffffffffffffffffffffffffffffff1916827bffffffffffffffffffffffffffffffffffffffffffffffffffffffff19161480611579575061157882612116565b5b9050919050565b60008073ffffffffffffffffffffffffffffffffffffffff166002600084815260200190815260200160002060009054906101000a900473ffffffffffffffffffffffffffffffffffffffff1673ffffffffffffffffffffffffffffffffffffffff1614159050919050565b600033905090565b816004600083815260200190815260200160002060006101000a81548173ffffffffffffffffffffffffffffffffffffffff021916908373ffffffffffffffffffffffffffffffffffffffff160217905550808273ffffffffffffffffffffffffffffffffffffffff1661166783610cb9565b73ffffffffffffffffffffffffffffffffffffffff167f8c5be1e5ebec7d5bd14f71427d1e84f3dd0314c0f7b2291e5b200ac8c7c3b92560405160405180910390a45050565b6000808214156116f2576040517f08c379a00000000000000000000000000000000000000000000000000000000081526004016116e990613ed6565b60405180910390fd5b60006002836117019190613f25565b905060006b033b2e3c9fd0803ce8000000905080827fffffffffffffffffffffffffffffffffffffffffffffffffffffffffffffffff6117419190613a49565b61174b9190613f25565b85111561178d576040517f08c379a000000000000000000000000000000000000000000000000000000000815260040161178490613fa2565b60405180910390fd5b8382828761179b9190613fc2565b6117a591906136a4565b6117af9190613f25565b9250505092915050565b600073ffffffffffffffffffffffffffffffffffffffff168273ffffffffffffffffffffffffffffffffffffffff161415611829576040517f08c379a000000000000000000000000000000000000000000000000000000000815260040161182090614068565b60405180910390fd5b61183281611580565b15611872576040517f08c379a0000000000000000000000000000000000000000000000000000000008152600401611869906140d4565b60405180910390fd5b61187e600083836121f8565b6001600360008473ffffffffffffffffffffffffffffffffffffffff1673ffffffffffffffffffffffffffffffffffffffff16815260200190815260200160002060008282546118ce91906136a4565b92505081905550816002600083815260200190815260200160002060006101000a81548173ffffffffffffffffffffffffffffffffffffffff021916908373ffffffffffffffffffffffffffffffffffffffff160217905550808273ffffffffffffffffffffffffffffffffffffffff16600073ffffffffffffffffffffffffffffffffffffffff167fddf252ad1be2c89b69c2b068fc378daa952ba7f163c4a11628f55a4df523b3ef60405160405180910390a45050565b61199082611580565b6119cf576040517f08c379a00000000000000000000000000000000000000000000000000000000081526004016119c690614166565b60405180910390fd5b80600a600084815260200190815260200160002090805190602001906119f6929190612ab5565b505050565b6000611a0682611580565b611a45576040517f08c379a0000000000000000000000000000000000000000000000000000000008152600401611a3c906141f8565b60405180910390fd5b6000611a5083610cb9565b90508073ffffffffffffffffffffffffffffffffffffffff168473ffffffffffffffffffffffffffffffffffffffff161480611abf57508373ffffffffffffffffffffffffffffffffffffffff16611aa7846105d2565b73ffffffffffffffffffffffffffffffffffffffff16145b80611ad05750611acf818561137a565b5b91505092915050565b8273ffffffffffffffffffffffffffffffffffffffff16611af982610cb9565b73ffffffffffffffffffffffffffffffffffffffff1614611b4f576040517f08c379a0000000000000000000000000000000000000000000000000000000008152600401611b469061428a565b60405180910390fd5b600073ffffffffffffffffffffffffffffffffffffffff168273ffffffffffffffffffffffffffffffffffffffff161415611bbf576040517f08c379a0000000000000000000000000000000000000000000000000000000008152600401611bb69061431c565b60405180910390fd5b611bca8383836121f8565b611bd56000826115f4565b6001600360008573ffffffffffffffffffffffffffffffffffffffff1673ffffffffffffffffffffffffffffffffffffffff1681526020019081526020016000206000828254611c259190613a49565b925050819055506001600360008473ffffffffffffffffffffffffffffffffffffffff1673ffffffffffffffffffffffffffffffffffffffff1681526020019081526020016000206000828254611c7c91906136a4565b92505081905550816002600083815260200190815260200160002060006101000a81548173ffffffffffffffffffffffffffffffffffffffff021916908373ffffffffffffffffffffffffffffffffffffffff160217905550808273ffffffffffffffffffffffffffffffffffffffff168473ffffffffffffffffffffffffffffffffffffffff167fddf252ad1be2c89b69c2b068fc378daa952ba7f163c4a11628f55a4df523b3ef60405160405180910390a4505050565b6000600b60009054906101000a900473ffffffffffffffffffffffffffffffffffffffff16905081600b60006101000a81548173ffffffffffffffffffffffffffffffffffffffff021916908373ffffffffffffffffffffffffffffffffffffffff1602179055508173ffffffffffffffffffffffffffffffffffffffff168173ffffffffffffffffffffffffffffffffffffffff167f8be0079c531659141344cd1fd0a4f28419497f9722a3daafe3b4186f6b6457e060405160405180910390a35050565b8173ffffffffffffffffffffffffffffffffffffffff168373ffffffffffffffffffffffffffffffffffffffff161415611e6a576040517f08c379a0000000000000000000000000000000000000000000000000000000008152600401611e6190614388565b60405180910390fd5b80600560008573ffffffffffffffffffffffffffffffffffffffff1673ffffffffffffffffffffffffffffffffffffffff16815260200190815260200160002060008473ffffffffffffffffffffffffffffffffffffffff1673ffffffffffffffffffffffffffffffffffffffff16815260200190815260200160002060006101000a81548160ff0219169083151502179055508173ffffffffffffffffffffffffffffffffffffffff168373ffffffffffffffffffffffffffffffffffffffff167f17307eab39ab6107e8899845ad3d59bd9653f200f220920489ca2b5937696c3183604051611f5b9190612c0c565b60405180910390a3505050565b611f73848484611ad9565b611f7f84848484612208565b611fbe576040517f08c379a0000000000000000000000000000000000000000000000000000000008152600401611fb59061441a565b60405180910390fd5b50505050565b6060611fcf82611580565b61200e576040517f08c379a0000000000000000000000000000000000000000000000000000000008152600401612005906144ac565b60405180910390fd5b6000600a6000848152602001908152602001600020805461202e9061339c565b80601f016020809104026020016040519081016040528092919081815260200182805461205a9061339c565b80156120a75780601f1061207c576101008083540402835291602001916120a7565b820191906000526020600020905b81548152906001019060200180831161208a57829003601f168201915b5050505050905060006120b861239f565b90506000815114156120ce578192505050612111565b6000825111156121035780826040516020016120eb929190614508565b60405160208183030381529060405292505050612111565b61210c846123b6565b925050505b919050565b60007f80ac58cd000000000000000000000000000000000000000000000000000000007bffffffffffffffffffffffffffffffffffffffffffffffffffffffff1916827bffffffffffffffffffffffffffffffffffffffffffffffffffffffff191614806121e157507f5b5e139f000000000000000000000000000000000000000000000000000000007bffffffffffffffffffffffffffffffffffffffffffffffffffffffff1916827bffffffffffffffffffffffffffffffffffffffffffffffffffffffff1916145b806121f157506121f08261245d565b5b9050919050565b6122038383836124c7565b505050565b60006122298473ffffffffffffffffffffffffffffffffffffffff166125db565b15612392578373ffffffffffffffffffffffffffffffffffffffff1663150b7a026122526115ec565b8786866040518563ffffffff1660e01b81526004016122749493929190614581565b602060405180830381600087803b15801561228e57600080fd5b505af19250505080156122bf57506040513d601f19601f820116820180604052508101906122bc91906145e2565b60015b612342573d80600081146122ef576040519150601f19603f3d011682016040523d82523d6000602084013e6122f4565b606091505b5060008151141561233a576040517f08c379a00000000000000000000000000000000000000000000000000000000081526004016123319061441a565b60405180910390fd5b805181602001fd5b63150b7a0260e01b7bffffffffffffffffffffffffffffffffffffffffffffffffffffffff1916817bffffffffffffffffffffffffffffffffffffffffffffffffffffffff191614915050612397565b600190505b949350505050565b606060405180602001604052806000815250905090565b60606123c182611580565b612400576040517f08c379a00000000000000000000000000000000000000000000000000000000081526004016123f790614681565b60405180910390fd5b600061240a61239f565b9050600081511161242a5760405180602001604052806000815250612455565b80612434846125ee565b604051602001612445929190614508565b6040516020818303038152906040525b915050919050565b60007f01ffc9a7000000000000000000000000000000000000000000000000000000007bffffffffffffffffffffffffffffffffffffffffffffffffffffffff1916827bffffffffffffffffffffffffffffffffffffffffffffffffffffffff1916149050919050565b6124d283838361274f565b600073ffffffffffffffffffffffffffffffffffffffff168373ffffffffffffffffffffffffffffffffffffffff1614156125155761251081612754565b612554565b8173ffffffffffffffffffffffffffffffffffffffff168373ffffffffffffffffffffffffffffffffffffffff161461255357612552838261279d565b5b5b600073ffffffffffffffffffffffffffffffffffffffff168273ffffffffffffffffffffffffffffffffffffffff161415612597576125928161290a565b6125d6565b8273ffffffffffffffffffffffffffffffffffffffff168273ffffffffffffffffffffffffffffffffffffffff16146125d5576125d482826129db565b5b5b505050565b600080823b905060008111915050919050565b60606000821415612636576040518060400160405280600181526020017f3000000000000000000000000000000000000000000000000000000000000000815250905061274a565b600082905060005b60008214612668578080612651906146a1565b915050600a826126619190613f25565b915061263e565b60008167ffffffffffffffff81111561268457612683612e17565b5b6040519080825280601f01601f1916602001820160405280156126b65781602001600182028036833780820191505090505b5090505b60008514612743576001826126cf9190613a49565b9150600a856126de91906146ea565b60306126ea91906136a4565b60f81b818381518110612700576126ff6138b0565b5b60200101907effffffffffffffffffffffffffffffffffffffffffffffffffffffffffffff1916908160001a905350600a8561273c9190613f25565b94506126ba565b8093505050505b919050565b505050565b6008805490506009600083815260200190815260200160002081905550600881908060018154018082558091505060019003906000526020600020016000909190919091505550565b600060016127aa84610f75565b6127b49190613a49565b9050600060076000848152602001908152602001600020549050818114612899576000600660008673ffffffffffffffffffffffffffffffffffffffff1673ffffffffffffffffffffffffffffffffffffffff168152602001908152602001600020600084815260200190815260200160002054905080600660008773ffffffffffffffffffffffffffffffffffffffff1673ffffffffffffffffffffffffffffffffffffffff168152602001908152602001600020600084815260200190815260200160002081905550816007600083815260200190815260200160002081905550505b6007600084815260200190815260200160002060009055600660008573ffffffffffffffffffffffffffffffffffffffff1673ffffffffffffffffffffffffffffffffffffffff16815260200190815260200160002060008381526020019081526020016000206000905550505050565b6000600160088054905061291e9190613a49565b905060006009600084815260200190815260200160002054905060006008838154811061294e5761294d6138b0565b5b9060005260206000200154905080600883815481106129705761296f6138b0565b5b9060005260206000200181905550816009600083815260200190815260200160002081905550600960008581526020019081526020016000206000905560088054806129bf576129be61471b565b5b6001900381819060005260206000200160009055905550505050565b60006129e683610f75565b905081600660008573ffffffffffffffffffffffffffffffffffffffff1673ffffffffffffffffffffffffffffffffffffffff168152602001908152602001600020600083815260200190815260200160002081905550806007600084815260200190815260200160002081905550505050565b6040518060a00160405280600081526020016000815260200160008152602001600073ffffffffffffffffffffffffffffffffffffffff168152602001600073ffffffffffffffffffffffffffffffffffffffff1681525090565b828054612ac19061339c565b90600052602060002090601f016020900481019282612ae35760008555612b2a565b82601f10612afc57805160ff1916838001178555612b2a565b82800160010185558215612b2a579182015b82811115612b29578251825591602001919060010190612b0e565b5b509050612b379190612b3b565b5090565b5b80821115612b54576000816000905550600101612b3c565b5090565b6000604051905090565b600080fd5b600080fd5b60007fffffffff0000000000000000000000000000000000000000000000000000000082169050919050565b612ba181612b6c565b8114612bac57600080fd5b50565b600081359050612bbe81612b98565b92915050565b600060208284031215612bda57612bd9612b62565b5b6000612be884828501612baf565b91505092915050565b60008115159050919050565b612c0681612bf1565b82525050565b6000602082019050612c216000830184612bfd565b92915050565b600081519050919050565b600082825260208201905092915050565b60005b83811015612c61578082015181840152602081019050612c46565b83811115612c70576000848401525b50505050565b6000601f19601f8301169050919050565b6000612c9282612c27565b612c9c8185612c32565b9350612cac818560208601612c43565b612cb581612c76565b840191505092915050565b60006020820190508181036000830152612cda8184612c87565b905092915050565b6000819050919050565b612cf581612ce2565b8114612d0057600080fd5b50565b600081359050612d1281612cec565b92915050565b600060208284031215612d2e57612d2d612b62565b5b6000612d3c84828501612d03565b91505092915050565b600073ffffffffffffffffffffffffffffffffffffffff82169050919050565b6000612d7082612d45565b9050919050565b612d8081612d65565b82525050565b6000602082019050612d9b6000830184612d77565b92915050565b612daa81612d65565b8114612db557600080fd5b50565b600081359050612dc781612da1565b92915050565b60008060408385031215612de457612de3612b62565b5b6000612df285828601612db8565b9250506020612e0385828601612d03565b9150509250929050565b600080fd5b600080fd5b7f4e487b7100000000000000000000000000000000000000000000000000000000600052604160045260246000fd5b612e4f82612c76565b810181811067ffffffffffffffff82111715612e6e57612e6d612e17565b5b80604052505050565b6000612e81612b58565b9050612e8d8282612e46565b919050565b600067ffffffffffffffff821115612ead57612eac612e17565b5b612eb682612c76565b9050602081019050919050565b82818337600083830152505050565b6000612ee5612ee084612e92565b612e77565b905082815260208101848484011115612f0157612f00612e12565b5b612f0c848285612ec3565b509392505050565b600082601f830112612f2957612f28612e0d565b5b8135612f39848260208601612ed2565b91505092915050565b60008060008060008060c08789031215612f5f57612f5e612b62565b5b6000612f6d89828a01612db8565b9650506020612f7e89828a01612d03565b9550506040612f8f89828a01612d03565b9450506060612fa089828a01612db8565b9350506080612fb189828a01612db8565b92505060a087013567ffffffffffffffff811115612fd257612fd1612b67565b5b612fde89828a01612f14565b9150509295509295509295565b612ff481612ce2565b82525050565b600060208201905061300f6000830184612feb565b92915050565b60008060006060848603121561302e5761302d612b62565b5b600061303c86828701612db8565b935050602061304d86828701612db8565b925050604061305e86828701612d03565b9150509250925092565b61307181612ce2565b82525050565b61308081612d65565b82525050565b60a08201600082015161309c6000850182613068565b5060208201516130af6020850182613068565b5060408201516130c26040850182613068565b5060608201516130d56060850182613077565b5060808201516130e86080850182613077565b50505050565b600060a0820190506131036000830184613086565b92915050565b6000806000806080858703121561312357613122612b62565b5b600061313187828801612db8565b945050602061314287828801612d03565b935050604061315387828801612db8565b925050606061316487828801612db8565b91505092959194509250565b60006020828403121561318657613185612b62565b5b600061319484828501612db8565b91505092915050565b6131a681612bf1565b81146131b157600080fd5b50565b6000813590506131c38161319d565b92915050565b600080604083850312156131e0576131df612b62565b5b60006131ee85828601612db8565b92505060206131ff858286016131b4565b9150509250929050565b600067ffffffffffffffff82111561322457613223612e17565b5b61322d82612c76565b9050602081019050919050565b600061324d61324884613209565b612e77565b90508281526020810184848401111561326957613268612e12565b5b613274848285612ec3565b509392505050565b600082601f83011261329157613290612e0d565b5b81356132a184826020860161323a565b91505092915050565b600080600080608085870312156132c4576132c3612b62565b5b60006132d287828801612db8565b94505060206132e387828801612db8565b93505060406132f487828801612d03565b925050606085013567ffffffffffffffff81111561331557613314612b67565b5b6133218782880161327c565b91505092959194509250565b6000806040838503121561334457613343612b62565b5b600061335285828601612db8565b925050602061336385828601612db8565b9150509250929050565b7f4e487b7100000000000000000000000000000000000000000000000000000000600052602260045260246000fd5b600060028204905060018216806133b457607f821691505b602082108114156133c8576133c761336d565b5b50919050565b7f4552433732313a20617070726f76656420717565727920666f72206e6f6e657860008201527f697374656e7420746f6b656e0000000000000000000000000000000000000000602082015250565b600061342a602c83612c32565b9150613435826133ce565b604082019050919050565b600060208201905081810360008301526134598161341d565b9050919050565b7f4552433732313a20617070726f76616c20746f2063757272656e74206f776e6560008201527f7200000000000000000000000000000000000000000000000000000000000000602082015250565b60006134bc602183612c32565b91506134c782613460565b604082019050919050565b600060208201905081810360008301526134eb816134af565b9050919050565b7f4552433732313a20617070726f76652063616c6c6572206973206e6f74206f7760008201527f6e6572206e6f7220617070726f76656420666f7220616c6c0000000000000000602082015250565b600061354e603883612c32565b9150613559826134f2565b604082019050919050565b6000602082019050818103600083015261357d81613541565b9050919050565b7f4f776e61626c653a2063616c6c6572206973206e6f7420746865206f776e6572600082015250565b60006135ba602083612c32565b91506135c582613584565b602082019050919050565b600060208201905081810360008301526135e9816135ad565b9050919050565b60008160601b9050919050565b6000613608826135f0565b9050919050565b600061361a826135fd565b9050919050565b61363261362d82612d65565b61360f565b82525050565b60006136448286613621565b6014820191506136548285613621565b6014820191506136648284613621565b601482019150819050949350505050565b7f4e487b7100000000000000000000000000000000000000000000000000000000600052601160045260246000fd5b60006136af82612ce2565b91506136ba83612ce2565b9250827fffffffffffffffffffffffffffffffffffffffffffffffffffffffffffffffff038211156136ef576136ee613675565b5b828201905092915050565b7f4552433732313a207472616e736665722063616c6c6572206973206e6f74206f60008201527f776e6572206e6f7220617070726f766564000000000000000000000000000000602082015250565b6000613756603183612c32565b9150613761826136fa565b604082019050919050565b6000602082019050818103600083015261378581613749565b9050919050565b7f455243373231456e756d657261626c653a206f776e657220696e646578206f7560008201527f74206f6620626f756e6473000000000000000000000000000000000000000000602082015250565b60006137e8602b83612c32565b91506137f38261378c565b604082019050919050565b60006020820190508181036000830152613817816137db565b9050919050565b7f455243373231456e756d657261626c653a20676c6f62616c20696e646578206f60008201527f7574206f6620626f756e64730000000000000000000000000000000000000000602082015250565b600061387a602c83612c32565b91506138858261381e565b604082019050919050565b600060208201905081810360008301526138a98161386d565b9050919050565b7f4e487b7100000000000000000000000000000000000000000000000000000000600052603260045260246000fd5b7f4552433732313a206f776e657220717565727920666f72206e6f6e657869737460008201527f656e7420746f6b656e0000000000000000000000000000000000000000000000602082015250565b600061393b602983612c32565b9150613946826138df565b604082019050919050565b6000602082019050818103600083015261396a8161392e565b9050919050565b7f746f6b656e496420646f65736e27742065786973740000000000000000000000600082015250565b60006139a7601583612c32565b91506139b282613971565b602082019050919050565b600060208201905081810360008301526139d68161399a565b9050919050565b7f696e73756666696369656e742062616c616e6365000000000000000000000000600082015250565b6000613a13601483612c32565b9150613a1e826139dd565b602082019050919050565b60006020820190508181036000830152613a4281613a06565b9050919050565b6000613a5482612ce2565b9150613a5f83612ce2565b925082821015613a7257613a71613675565b5b828203905092915050565b7f4552433732313a2062616c616e636520717565727920666f7220746865207a6560008201527f726f206164647265737300000000000000000000000000000000000000000000602082015250565b6000613ad9602a83612c32565b9150613ae482613a7d565b604082019050919050565b60006020820190508181036000830152613b0881613acc565b9050919050565b600080fd5b600081519050613b2381612cec565b92915050565b600060208284031215613b3f57613b3e613b0f565b5b613b496020612e77565b90506000613b5984828501613b14565b60008301525092915050565b60006fffffffffffffffffffffffffffffffff82169050919050565b613b8a81613b65565b8114613b9557600080fd5b50565b600081519050613ba781613b81565b92915050565b600064ffffffffff82169050919050565b613bc781613bad565b8114613bd257600080fd5b50565b600081519050613be481613bbe565b92915050565b600061ffff82169050919050565b613c0181613bea565b8114613c0c57600080fd5b50565b600081519050613c1e81613bf8565b92915050565b600081519050613c3381612da1565b92915050565b60006101e08284031215613c5057613c4f613b0f565b5b613c5b6101e0612e77565b90506000613c6b84828501613b29565b6000830152506020613c7f84828501613b98565b6020830152506040613c9384828501613b98565b6040830152506060613ca784828501613b98565b6060830152506080613cbb84828501613b98565b60808301525060a0613ccf84828501613b98565b60a08301525060c0613ce384828501613bd5565b60c08301525060e0613cf784828501613c0f565b60e083015250610100613d0c84828501613c24565b61010083015250610120613d2284828501613c24565b61012083015250610140613d3884828501613c24565b61014083015250610160613d4e84828501613c24565b61016083015250610180613d6484828501613b98565b610180830152506101a0613d7a84828501613b98565b6101a0830152506101c0613d9084828501613b98565b6101c08301525092915050565b60006101e08284031215613db457613db3612b62565b5b6000613dc284828501613c39565b91505092915050565b600060208284031215613de157613de0612b62565b5b6000613def84828501613b14565b91505092915050565b7f4f776e61626c653a206e6577206f776e657220697320746865207a65726f206160008201527f6464726573730000000000000000000000000000000000000000000000000000602082015250565b6000613e54602683612c32565b9150613e5f82613df8565b604082019050919050565b60006020820190508181036000830152613e8381613e47565b9050919050565b7f6469766973696f6e206279203000000000000000000000000000000000000000600082015250565b6000613ec0600d83612c32565b9150613ecb82613e8a565b602082019050919050565b60006020820190508181036000830152613eef81613eb3565b9050919050565b7f4e487b7100000000000000000000000000000000000000000000000000000000600052601260045260246000fd5b6000613f3082612ce2565b9150613f3b83612ce2565b925082613f4b57613f4a613ef6565b5b828204905092915050565b7f6d756c7469706c69636174696f6e206f766572666c6f77000000000000000000600082015250565b6000613f8c601783612c32565b9150613f9782613f56565b602082019050919050565b60006020820190508181036000830152613fbb81613f7f565b9050919050565b6000613fcd82612ce2565b9150613fd883612ce2565b9250817fffffffffffffffffffffffffffffffffffffffffffffffffffffffffffffffff048311821515161561401157614010613675565b5b828202905092915050565b7f4552433732313a206d696e7420746f20746865207a65726f2061646472657373600082015250565b6000614052602083612c32565b915061405d8261401c565b602082019050919050565b6000602082019050818103600083015261408181614045565b9050919050565b7f4552433732313a20746f6b656e20616c7265616479206d696e74656400000000600082015250565b60006140be601c83612c32565b91506140c982614088565b602082019050919050565b600060208201905081810360008301526140ed816140b1565b9050919050565b7f45524337323155524953746f726167653a2055524920736574206f66206e6f6e60008201527f6578697374656e7420746f6b656e000000000000000000000000000000000000602082015250565b6000614150602e83612c32565b915061415b826140f4565b604082019050919050565b6000602082019050818103600083015261417f81614143565b9050919050565b7f4552433732313a206f70657261746f7220717565727920666f72206e6f6e657860008201527f697374656e7420746f6b656e0000000000000000000000000000000000000000602082015250565b60006141e2602c83612c32565b91506141ed82614186565b604082019050919050565b60006020820190508181036000830152614211816141d5565b9050919050565b7f4552433732313a207472616e73666572206f6620746f6b656e2074686174206960008201527f73206e6f74206f776e0000000000000000000000000000000000000000000000602082015250565b6000614274602983612c32565b915061427f82614218565b604082019050919050565b600060208201905081810360008301526142a381614267565b9050919050565b7f4552433732313a207472616e7366657220746f20746865207a65726f2061646460008201527f7265737300000000000000000000000000000000000000000000000000000000602082015250565b6000614306602483612c32565b9150614311826142aa565b604082019050919050565b60006020820190508181036000830152614335816142f9565b9050919050565b7f4552433732313a20617070726f766520746f2063616c6c657200000000000000600082015250565b6000614372601983612c32565b915061437d8261433c565b602082019050919050565b600060208201905081810360008301526143a181614365565b9050919050565b7f4552433732313a207472616e7366657220746f206e6f6e20455243373231526560008201527f63656976657220696d706c656d656e7465720000000000000000000000000000602082015250565b6000614404603283612c32565b915061440f826143a8565b604082019050919050565b60006020820190508181036000830152614433816143f7565b9050919050565b7f45524337323155524953746f726167653a2055524920717565727920666f722060008201527f6e6f6e6578697374656e7420746f6b656e000000000000000000000000000000602082015250565b6000614496603183612c32565b91506144a18261443a565b604082019050919050565b600060208201905081810360008301526144c581614489565b9050919050565b600081905092915050565b60006144e282612c27565b6144ec81856144cc565b93506144fc818560208601612c43565b80840191505092915050565b600061451482856144d7565b915061452082846144d7565b91508190509392505050565b600081519050919050565b600082825260208201905092915050565b60006145538261452c565b61455d8185614537565b935061456d818560208601612c43565b61457681612c76565b840191505092915050565b60006080820190506145966000830187612d77565b6145a36020830186612d77565b6145b06040830185612feb565b81810360608301526145c28184614548565b905095945050505050565b6000815190506145dc81612b98565b92915050565b6000602082840312156145f8576145f7612b62565b5b6000614606848285016145cd565b91505092915050565b7f4552433732314d657461646174613a2055524920717565727920666f72206e6f60008201527f6e6578697374656e7420746f6b656e0000000000000000000000000000000000602082015250565b600061466b602f83612c32565b91506146768261460f565b604082019050919050565b6000602082019050818103600083015261469a8161465e565b9050919050565b60006146ac82612ce2565b91507fffffffffffffffffffffffffffffffffffffffffffffffffffffffffffffffff8214156146df576146de613675565b5b600182019050919050565b60006146f582612ce2565b915061470083612ce2565b9250826147105761470f613ef6565b5b828206905092915050565b7f4e487b7100000000000000000000000000000000000000000000000000000000600052603160045260246000fdfea26469706673582212202251c51e2be734b58faaf262a8670480a1d977da648b910b1f5a7a6d2ad20c1e64736f6c63430008090033",
  "immutableReferences": {},
  "source": "// SPDX-License-Identifier: MIT\npragma solidity 0.8.9;\n\nimport {IPool, IPoolAddressesProvider} from './Interfaces.sol';\n\nimport \"@openzeppelin/contracts/token/ERC721/extensions/ERC721Enumerable.sol\";\nimport \"@openzeppelin/contracts/token/ERC721/extensions/ERC721URIStorage.sol\";\nimport \"@openzeppelin/contracts/access/Ownable.sol\";\n\n\ncontract JCDepositorERC721 is ERC721Enumerable, ERC721URIStorage, Ownable {\n\n    struct Deposit {\n        uint256 balance;\n        //uint256 interestEarned;\n        uint256 timeStamp;\n        uint256 amountScaled;\n        address pool;\n        address asset;\n    }\n\n    IPoolAddressesProvider provider;\n    address poolAddr;\n    //IProtocolDataProvider constant dataProvider = IProtocolDataProvider(address(0x3c73A5E5785cAC854D468F727c606C07488a29D6)); // Kovan\n\n    //key = keccak hash of depositor, pool and asset addresses\n    mapping (uint256 => Deposit) deposits;\n\n    constructor() ERC721(\"JCP Contributor Token\", \"JCPC\") {\n        provider = IPoolAddressesProvider(address(0x5343b5bA672Ae99d627A1C87866b8E53F47Db2E6)); // polygon mumbai v3\n        poolAddr = provider.getPool();\n    }\n\n    function addFunds(address _tokenOwner, uint256 _amount, uint256 _timeStamp, address _pool, address _asset, string memory _metaUri) onlyOwner public returns (uint256) {\n        //_tokenIds.increment();\n        //uint256 tokenId = _tokenIds.current();\n        uint256 tokenId = uint256(keccak256(abi.encodePacked(_tokenOwner, _pool, _asset)));\n        uint256 liquidityIndex = getAaveLiquidityIndex(_asset);\n        if(_exists(tokenId)){\n            deposits[tokenId].timeStamp = _timeStamp;\n            deposits[tokenId].balance += _amount;\n            deposits[tokenId].amountScaled += rayDiv(_amount, liquidityIndex);\n        }\n        else{\n            deposits[tokenId] = Deposit(_amount, _timeStamp, rayDiv(_amount, liquidityIndex), _pool, _asset);\n            _mint(_tokenOwner, tokenId);\n            _setTokenURI(tokenId, _metaUri);\n        }\n\n        return tokenId;\n    }\n\n    function withdrawFunds(address _tokenOwner, uint256 _amount, address _pool, address _asset) onlyOwner external {\n        uint256 tokenId = uint256(keccak256(abi.encodePacked(_tokenOwner, _pool, _asset)));\n        require(_exists(tokenId), \"tokenId doesn't exist\");\n\n        uint256 balance = deposits[tokenId].balance;\n        require(balance >= _amount, \"insufficient balance\");\n        balance -= _amount;\n        if(balance == 0){\n            // problem is if claimant calls claim this alters the interest earned\n            //deposits[tokenId].interestEarned += getATokenAmount(tokenId) - _amount;\n            deposits[tokenId].timeStamp = 0;\n            deposits[tokenId].amountScaled = 0;\n        }\n        else{\n            deposits[tokenId].amountScaled -= rayDiv(_amount, getAaveLiquidityIndex(_asset));\n        }\n        deposits[tokenId].balance = balance;\n    }\n\n    function getDepositInfo(uint256 _tokenId) public view returns (Deposit memory){\n        return deposits[_tokenId];\n    }\n\n    function getUserBalance(uint256 _tokenId) public view returns (uint256){\n        return deposits[_tokenId].balance;\n    }\n\n    function getATokenAmount(uint256 _tokenId) internal view returns(uint256){\n        return rayMul(deposits[_tokenId].amountScaled, getReserveNormalizedIncome(deposits[_tokenId].asset));\n    }\n\n    function getReserveNormalizedIncome(address _asset) public view returns(uint256){\n        return IPool(poolAddr).getReserveNormalizedIncome(_asset);\n    }\n\n    function getAaveLiquidityIndex(address _asset) public view returns(uint256 liquidityIndex){\n        //(,liquidityIndex,,,,,,,,,,,,,) = IPool(poolAddr).getReserveData(_asset);\n        liquidityIndex = IPool(poolAddr).getReserveData(_asset).liquidityIndex;\n    }\n\n    /**\n   * @dev Divides two ray, rounding half up to the nearest ray\n   * @param a Ray\n   * @param b Ray\n   * @return The result of a/b, in ray\n   **/\n    function rayDiv(uint256 a, uint256 b) internal pure returns (uint256) {\n        require(b != 0, 'division by 0');\n        uint256 halfB = b / 2;\n\n        uint256 ray = 1e27;\n        require(a <= (type(uint256).max - halfB) / ray, 'multiplication overflow');\n\n        return (a * ray + halfB) / b;\n    }\n\n   /**\n   * @dev Multiplies two ray, rounding half up to the nearest ray\n   * @param a Ray\n   * @param b Ray\n   * @return The result of a*b, in ray\n   **/\n  function rayMul(uint256 a, uint256 b) internal pure returns (uint256) {\n    if (a == 0 || b == 0) {\n      return 0;\n    }\n\n    uint256 ray = 1e27;\n    uint256 halfRAY = ray / 2;\n    require(a <= (type(uint256).max - halfRAY) / b, 'multiplication overflow');\n\n    return (a * b + halfRAY) / ray;\n  }\n  function _beforeTokenTransfer(address from, address to, uint256 tokenId)\n        internal\n        override(ERC721, ERC721Enumerable)\n    {\n        super._beforeTokenTransfer(from, to, tokenId);\n    }\n\n    function _burn(uint256 tokenId) internal override(ERC721, ERC721URIStorage) {\n        super._burn(tokenId);\n    }\n    function supportsInterface(bytes4 interfaceId)\n        public\n        view\n        override(ERC721, ERC721Enumerable)\n        returns (bool)\n    {\n        return super.supportsInterface(interfaceId);\n    }\n    function tokenURI(uint256 tokenId)\n        public\n        view\n        override(ERC721, ERC721URIStorage)\n        returns (string memory)\n    {\n        return super.tokenURI(tokenId);\n    }\n}",
  "sourcePath": "/home/smeee/just_cause/contracts/polygon/JCDepositorERC721.sol",
  "compiler": {
    "name": "solc",
    "version": "0.8.9+commit.e5eed63a.Emscripten.clang"
  },
  "schemaVersion": "3.4.5",
  "updatedAt": "2022-04-10T02:58:21.888Z",
  "devdoc": {
    "kind": "dev",
    "methods": {
      "approve(address,uint256)": {
        "details": "See {IERC721-approve}."
      },
      "balanceOf(address)": {
        "details": "See {IERC721-balanceOf}."
      },
      "getApproved(uint256)": {
        "details": "See {IERC721-getApproved}."
      },
      "isApprovedForAll(address,address)": {
        "details": "See {IERC721-isApprovedForAll}."
      },
      "name()": {
        "details": "See {IERC721Metadata-name}."
      },
      "owner()": {
        "details": "Returns the address of the current owner."
      },
      "ownerOf(uint256)": {
        "details": "See {IERC721-ownerOf}."
      },
      "renounceOwnership()": {
        "details": "Leaves the contract without owner. It will not be possible to call `onlyOwner` functions anymore. Can only be called by the current owner. NOTE: Renouncing ownership will leave the contract without an owner, thereby removing any functionality that is only available to the owner."
      },
      "safeTransferFrom(address,address,uint256)": {
        "details": "See {IERC721-safeTransferFrom}."
      },
      "safeTransferFrom(address,address,uint256,bytes)": {
        "details": "See {IERC721-safeTransferFrom}."
      },
      "setApprovalForAll(address,bool)": {
        "details": "See {IERC721-setApprovalForAll}."
      },
      "symbol()": {
        "details": "See {IERC721Metadata-symbol}."
      },
      "tokenByIndex(uint256)": {
        "details": "See {IERC721Enumerable-tokenByIndex}."
      },
      "tokenOfOwnerByIndex(address,uint256)": {
        "details": "See {IERC721Enumerable-tokenOfOwnerByIndex}."
      },
      "totalSupply()": {
        "details": "See {IERC721Enumerable-totalSupply}."
      },
      "transferFrom(address,address,uint256)": {
        "details": "See {IERC721-transferFrom}."
      },
      "transferOwnership(address)": {
        "details": "Transfers ownership of the contract to a new account (`newOwner`). Can only be called by the current owner."
      }
    },
    "version": 1
  },
  "userdoc": {
    "kind": "user",
    "methods": {},
    "version": 1
  }
}