{
  "contractName": "JCDepositorERC721",
  "abi": [
    {
      "inputs": [],
      "stateMutability": "nonpayable",
      "type": "constructor"
    },
    {
      "anonymous": false,
      "inputs": [
        {
          "indexed": true,
          "internalType": "address",
          "name": "owner",
          "type": "address"
        },
        {
          "indexed": true,
          "internalType": "address",
          "name": "approved",
          "type": "address"
        },
        {
          "indexed": true,
          "internalType": "uint256",
          "name": "tokenId",
          "type": "uint256"
        }
      ],
      "name": "Approval",
      "type": "event"
    },
    {
      "anonymous": false,
      "inputs": [
        {
          "indexed": true,
          "internalType": "address",
          "name": "owner",
          "type": "address"
        },
        {
          "indexed": true,
          "internalType": "address",
          "name": "operator",
          "type": "address"
        },
        {
          "indexed": false,
          "internalType": "bool",
          "name": "approved",
          "type": "bool"
        }
      ],
      "name": "ApprovalForAll",
      "type": "event"
    },
    {
      "anonymous": false,
      "inputs": [
        {
          "indexed": true,
          "internalType": "address",
          "name": "previousOwner",
          "type": "address"
        },
        {
          "indexed": true,
          "internalType": "address",
          "name": "newOwner",
          "type": "address"
        }
      ],
      "name": "OwnershipTransferred",
      "type": "event"
    },
    {
      "anonymous": false,
      "inputs": [
        {
          "indexed": true,
          "internalType": "address",
          "name": "from",
          "type": "address"
        },
        {
          "indexed": true,
          "internalType": "address",
          "name": "to",
          "type": "address"
        },
        {
          "indexed": true,
          "internalType": "uint256",
          "name": "tokenId",
          "type": "uint256"
        }
      ],
      "name": "Transfer",
      "type": "event"
    },
    {
      "inputs": [
        {
          "internalType": "address",
          "name": "to",
          "type": "address"
        },
        {
          "internalType": "uint256",
          "name": "tokenId",
          "type": "uint256"
        }
      ],
      "name": "approve",
      "outputs": [],
      "stateMutability": "nonpayable",
      "type": "function"
    },
    {
      "inputs": [
        {
          "internalType": "address",
          "name": "owner",
          "type": "address"
        }
      ],
      "name": "balanceOf",
      "outputs": [
        {
          "internalType": "uint256",
          "name": "",
          "type": "uint256"
        }
      ],
      "stateMutability": "view",
      "type": "function"
    },
    {
      "inputs": [
        {
          "internalType": "uint256",
          "name": "tokenId",
          "type": "uint256"
        }
      ],
      "name": "getApproved",
      "outputs": [
        {
          "internalType": "address",
          "name": "",
          "type": "address"
        }
      ],
      "stateMutability": "view",
      "type": "function"
    },
    {
      "inputs": [
        {
          "internalType": "address",
          "name": "owner",
          "type": "address"
        },
        {
          "internalType": "address",
          "name": "operator",
          "type": "address"
        }
      ],
      "name": "isApprovedForAll",
      "outputs": [
        {
          "internalType": "bool",
          "name": "",
          "type": "bool"
        }
      ],
      "stateMutability": "view",
      "type": "function"
    },
    {
      "inputs": [],
      "name": "name",
      "outputs": [
        {
          "internalType": "string",
          "name": "",
          "type": "string"
        }
      ],
      "stateMutability": "view",
      "type": "function"
    },
    {
      "inputs": [],
      "name": "owner",
      "outputs": [
        {
          "internalType": "address",
          "name": "",
          "type": "address"
        }
      ],
      "stateMutability": "view",
      "type": "function"
    },
    {
      "inputs": [
        {
          "internalType": "uint256",
          "name": "tokenId",
          "type": "uint256"
        }
      ],
      "name": "ownerOf",
      "outputs": [
        {
          "internalType": "address",
          "name": "",
          "type": "address"
        }
      ],
      "stateMutability": "view",
      "type": "function"
    },
    {
      "inputs": [],
      "name": "renounceOwnership",
      "outputs": [],
      "stateMutability": "nonpayable",
      "type": "function"
    },
    {
      "inputs": [
        {
          "internalType": "address",
          "name": "from",
          "type": "address"
        },
        {
          "internalType": "address",
          "name": "to",
          "type": "address"
        },
        {
          "internalType": "uint256",
          "name": "tokenId",
          "type": "uint256"
        }
      ],
      "name": "safeTransferFrom",
      "outputs": [],
      "stateMutability": "nonpayable",
      "type": "function"
    },
    {
      "inputs": [
        {
          "internalType": "address",
          "name": "from",
          "type": "address"
        },
        {
          "internalType": "address",
          "name": "to",
          "type": "address"
        },
        {
          "internalType": "uint256",
          "name": "tokenId",
          "type": "uint256"
        },
        {
          "internalType": "bytes",
          "name": "_data",
          "type": "bytes"
        }
      ],
      "name": "safeTransferFrom",
      "outputs": [],
      "stateMutability": "nonpayable",
      "type": "function"
    },
    {
      "inputs": [
        {
          "internalType": "address",
          "name": "operator",
          "type": "address"
        },
        {
          "internalType": "bool",
          "name": "approved",
          "type": "bool"
        }
      ],
      "name": "setApprovalForAll",
      "outputs": [],
      "stateMutability": "nonpayable",
      "type": "function"
    },
    {
      "inputs": [
        {
          "internalType": "bytes4",
          "name": "interfaceId",
          "type": "bytes4"
        }
      ],
      "name": "supportsInterface",
      "outputs": [
        {
          "internalType": "bool",
          "name": "",
          "type": "bool"
        }
      ],
      "stateMutability": "view",
      "type": "function"
    },
    {
      "inputs": [],
      "name": "symbol",
      "outputs": [
        {
          "internalType": "string",
          "name": "",
          "type": "string"
        }
      ],
      "stateMutability": "view",
      "type": "function"
    },
    {
      "inputs": [
        {
          "internalType": "uint256",
          "name": "index",
          "type": "uint256"
        }
      ],
      "name": "tokenByIndex",
      "outputs": [
        {
          "internalType": "uint256",
          "name": "",
          "type": "uint256"
        }
      ],
      "stateMutability": "view",
      "type": "function"
    },
    {
      "inputs": [
        {
          "internalType": "address",
          "name": "owner",
          "type": "address"
        },
        {
          "internalType": "uint256",
          "name": "index",
          "type": "uint256"
        }
      ],
      "name": "tokenOfOwnerByIndex",
      "outputs": [
        {
          "internalType": "uint256",
          "name": "",
          "type": "uint256"
        }
      ],
      "stateMutability": "view",
      "type": "function"
    },
    {
      "inputs": [
        {
          "internalType": "uint256",
          "name": "tokenId",
          "type": "uint256"
        }
      ],
      "name": "tokenURI",
      "outputs": [
        {
          "internalType": "string",
          "name": "",
          "type": "string"
        }
      ],
      "stateMutability": "view",
      "type": "function"
    },
    {
      "inputs": [],
      "name": "totalSupply",
      "outputs": [
        {
          "internalType": "uint256",
          "name": "",
          "type": "uint256"
        }
      ],
      "stateMutability": "view",
      "type": "function"
    },
    {
      "inputs": [
        {
          "internalType": "address",
          "name": "from",
          "type": "address"
        },
        {
          "internalType": "address",
          "name": "to",
          "type": "address"
        },
        {
          "internalType": "uint256",
          "name": "tokenId",
          "type": "uint256"
        }
      ],
      "name": "transferFrom",
      "outputs": [],
      "stateMutability": "nonpayable",
      "type": "function"
    },
    {
      "inputs": [
        {
          "internalType": "address",
          "name": "newOwner",
          "type": "address"
        }
      ],
      "name": "transferOwnership",
      "outputs": [],
      "stateMutability": "nonpayable",
      "type": "function"
    },
    {
      "inputs": [
        {
          "internalType": "address",
          "name": "_tokenOwner",
          "type": "address"
        },
        {
          "internalType": "uint256",
          "name": "_amount",
          "type": "uint256"
        },
        {
          "internalType": "uint256",
          "name": "_liquidityIndex",
          "type": "uint256"
        },
        {
          "internalType": "uint256",
          "name": "_timeStamp",
          "type": "uint256"
        },
        {
          "internalType": "address",
          "name": "_pool",
          "type": "address"
        },
        {
          "internalType": "address",
          "name": "_asset",
          "type": "address"
        }
      ],
      "name": "addFunds",
      "outputs": [
        {
          "internalType": "uint256",
          "name": "",
          "type": "uint256"
        }
      ],
      "stateMutability": "nonpayable",
      "type": "function"
    },
    {
      "inputs": [
        {
          "internalType": "address",
          "name": "_tokenOwner",
          "type": "address"
        },
        {
          "internalType": "uint256",
          "name": "_amount",
          "type": "uint256"
        },
        {
          "internalType": "address",
          "name": "_pool",
          "type": "address"
        },
        {
          "internalType": "address",
          "name": "_asset",
          "type": "address"
        }
      ],
      "name": "withdrawFunds",
      "outputs": [
        {
          "internalType": "uint256",
          "name": "",
          "type": "uint256"
        }
      ],
      "stateMutability": "nonpayable",
      "type": "function"
    },
    {
      "inputs": [
        {
          "internalType": "uint256",
          "name": "_tokenId",
          "type": "uint256"
        }
      ],
      "name": "getDepositInfo",
      "outputs": [
        {
          "components": [
            {
              "internalType": "uint256",
              "name": "balance",
              "type": "uint256"
            },
            {
              "internalType": "uint256",
              "name": "totalDeposits",
              "type": "uint256"
            },
            {
              "internalType": "uint256",
              "name": "timeStamp",
              "type": "uint256"
            },
            {
              "internalType": "uint256",
              "name": "liquidityIndex",
              "type": "uint256"
            },
            {
              "internalType": "address",
              "name": "pool",
              "type": "address"
            },
            {
              "internalType": "address",
              "name": "asset",
              "type": "address"
            }
          ],
          "internalType": "struct JCDepositorERC721.Deposit",
          "name": "",
          "type": "tuple"
        }
      ],
      "stateMutability": "view",
      "type": "function"
    }
  ],
  "bytecode": "0x60806040523480156200001157600080fd5b506040518060400160405280601381526020017f4a4350204465706f7369746f7220546f6b656e000000000000000000000000008152506040518060400160405280600c81526020017f4a4350545f544553545f44310000000000000000000000000000000000000000815250816000908051906020019062000096929190620001a6565b508060019080519060200190620000af929190620001a6565b505050620000d2620000c6620000d860201b60201c565b620000e060201b60201c565b620002bb565b600033905090565b6000600a60009054906101000a900473ffffffffffffffffffffffffffffffffffffffff16905081600a60006101000a81548173ffffffffffffffffffffffffffffffffffffffff021916908373ffffffffffffffffffffffffffffffffffffffff1602179055508173ffffffffffffffffffffffffffffffffffffffff168173ffffffffffffffffffffffffffffffffffffffff167f8be0079c531659141344cd1fd0a4f28419497f9722a3daafe3b4186f6b6457e060405160405180910390a35050565b828054620001b49062000285565b90600052602060002090601f016020900481019282620001d8576000855562000224565b82601f10620001f357805160ff191683800117855562000224565b8280016001018555821562000224579182015b828111156200022357825182559160200191906001019062000206565b5b50905062000233919062000237565b5090565b5b808211156200025257600081600090555060010162000238565b5090565b7f4e487b7100000000000000000000000000000000000000000000000000000000600052602260045260246000fd5b600060028204905060018216806200029e57607f821691505b60208210811415620002b557620002b462000256565b5b50919050565b613b0080620002cb6000396000f3fe608060405234801561001057600080fd5b50600436106101425760003560e01c80636ba3fef2116100b8578063a22cb4651161007c578063a22cb4651461039d578063b88d4fde146103b9578063c87b56dd146103d5578063e985e9c514610405578063ecd8d05414610435578063f2fde38b1461046557610142565b80636ba3fef2146102f757806370a0823114610327578063715018a6146103575780638da5cb5b1461036157806395d89b411461037f57610142565b806323b872dd1161010a57806323b872dd146101ff5780632f745c591461021b57806342842e0e1461024b5780634f6ccce7146102675780635328c2bf146102975780636352211e146102c757610142565b806301ffc9a71461014757806306fdde0314610177578063081812fc14610195578063095ea7b3146101c557806318160ddd146101e1575b600080fd5b610161600480360381019061015c919061252d565b610481565b60405161016e9190612575565b60405180910390f35b61017f6104fb565b60405161018c9190612629565b60405180910390f35b6101af60048036038101906101aa9190612681565b61058d565b6040516101bc91906126ef565b60405180910390f35b6101df60048036038101906101da9190612736565b610612565b005b6101e961072a565b6040516101f69190612785565b60405180910390f35b610219600480360381019061021491906127a0565b610737565b005b61023560048036038101906102309190612736565b610797565b6040516102429190612785565b60405180910390f35b610265600480360381019061026091906127a0565b61083c565b005b610281600480360381019061027c9190612681565b61085c565b60405161028e9190612785565b60405180910390f35b6102b160048036038101906102ac9190612681565b6108cd565b6040516102be919061288c565b60405180910390f35b6102e160048036038101906102dc9190612681565b6109ce565b6040516102ee91906126ef565b60405180910390f35b610311600480360381019061030c91906128a7565b610a80565b60405161031e9190612785565b60405180910390f35b610341600480360381019061033c919061290e565b610c0c565b60405161034e9190612785565b60405180910390f35b61035f610cc4565b005b610369610d4c565b60405161037691906126ef565b60405180910390f35b610387610d76565b6040516103949190612629565b60405180910390f35b6103b760048036038101906103b29190612967565b610e08565b005b6103d360048036038101906103ce9190612adc565b610e1e565b005b6103ef60048036038101906103ea9190612681565b610e80565b6040516103fc9190612629565b60405180910390f35b61041f600480360381019061041a9190612b5f565b610f27565b60405161042c9190612575565b60405180910390f35b61044f600480360381019061044a9190612b9f565b610fbb565b60405161045c9190612785565b60405180910390f35b61047f600480360381019061047a919061290e565b611216565b005b60007f780e9d63000000000000000000000000000000000000000000000000000000007bffffffffffffffffffffffffffffffffffffffffffffffffffffffff1916827bffffffffffffffffffffffffffffffffffffffffffffffffffffffff191614806104f457506104f38261130e565b5b9050919050565b60606000805461050a90612c5b565b80601f016020809104026020016040519081016040528092919081815260200182805461053690612c5b565b80156105835780601f1061055857610100808354040283529160200191610583565b820191906000526020600020905b81548152906001019060200180831161056657829003601f168201915b5050505050905090565b6000610598826113f0565b6105d7576040517f08c379a00000000000000000000000000000000000000000000000000000000081526004016105ce90612cff565b60405180910390fd5b6004600083815260200190815260200160002060009054906101000a900473ffffffffffffffffffffffffffffffffffffffff169050919050565b600061061d826109ce565b90508073ffffffffffffffffffffffffffffffffffffffff168373ffffffffffffffffffffffffffffffffffffffff16141561068e576040517f08c379a000000000000000000000000000000000000000000000000000000000815260040161068590612d91565b60405180910390fd5b8073ffffffffffffffffffffffffffffffffffffffff166106ad61145c565b73ffffffffffffffffffffffffffffffffffffffff1614806106dc57506106db816106d661145c565b610f27565b5b61071b576040517f08c379a000000000000000000000000000000000000000000000000000000000815260040161071290612e23565b60405180910390fd5b6107258383611464565b505050565b6000600880549050905090565b61074861074261145c565b8261151d565b610787576040517f08c379a000000000000000000000000000000000000000000000000000000000815260040161077e90612eb5565b60405180910390fd5b6107928383836115fb565b505050565b60006107a283610c0c565b82106107e3576040517f08c379a00000000000000000000000000000000000000000000000000000000081526004016107da90612f47565b60405180910390fd5b600660008473ffffffffffffffffffffffffffffffffffffffff1673ffffffffffffffffffffffffffffffffffffffff168152602001908152602001600020600083815260200190815260200160002054905092915050565b61085783838360405180602001604052806000815250610e1e565b505050565b600061086661072a565b82106108a7576040517f08c379a000000000000000000000000000000000000000000000000000000000815260040161089e90612fd9565b60405180910390fd5b600882815481106108bb576108ba612ff9565b5b90600052602060002001549050919050565b6108d561245f565b600b60008381526020019081526020016000206040518060c0016040529081600082015481526020016001820154815260200160028201548152602001600382015481526020016004820160009054906101000a900473ffffffffffffffffffffffffffffffffffffffff1673ffffffffffffffffffffffffffffffffffffffff1673ffffffffffffffffffffffffffffffffffffffff1681526020016005820160009054906101000a900473ffffffffffffffffffffffffffffffffffffffff1673ffffffffffffffffffffffffffffffffffffffff1673ffffffffffffffffffffffffffffffffffffffff16815250509050919050565b6000806002600084815260200190815260200160002060009054906101000a900473ffffffffffffffffffffffffffffffffffffffff169050600073ffffffffffffffffffffffffffffffffffffffff168173ffffffffffffffffffffffffffffffffffffffff161415610a77576040517f08c379a0000000000000000000000000000000000000000000000000000000008152600401610a6e9061309a565b60405180910390fd5b80915050919050565b6000610a8a61145c565b73ffffffffffffffffffffffffffffffffffffffff16610aa8610d4c565b73ffffffffffffffffffffffffffffffffffffffff1614610afe576040517f08c379a0000000000000000000000000000000000000000000000000000000008152600401610af590613106565b60405180910390fd5b6000858484604051602001610b159392919061316e565b6040516020818303038152906040528051906020012060001c9050610b39816113f0565b610b78576040517f08c379a0000000000000000000000000000000000000000000000000000000008152600401610b6f906131f7565b60405180910390fd5b6000600b600083815260200190815260200160002060000154905085811015610bd6576040517f08c379a0000000000000000000000000000000000000000000000000000000008152600401610bcd90613263565b60405180910390fd5b8581610be291906132b2565b905080600b6000848152602001908152602001600020600001819055508192505050949350505050565b60008073ffffffffffffffffffffffffffffffffffffffff168273ffffffffffffffffffffffffffffffffffffffff161415610c7d576040517f08c379a0000000000000000000000000000000000000000000000000000000008152600401610c7490613358565b60405180910390fd5b600360008373ffffffffffffffffffffffffffffffffffffffff1673ffffffffffffffffffffffffffffffffffffffff168152602001908152602001600020549050919050565b610ccc61145c565b73ffffffffffffffffffffffffffffffffffffffff16610cea610d4c565b73ffffffffffffffffffffffffffffffffffffffff1614610d40576040517f08c379a0000000000000000000000000000000000000000000000000000000008152600401610d3790613106565b60405180910390fd5b610d4a6000611857565b565b6000600a60009054906101000a900473ffffffffffffffffffffffffffffffffffffffff16905090565b606060018054610d8590612c5b565b80601f0160208091040260200160405190810160405280929190818152602001828054610db190612c5b565b8015610dfe5780601f10610dd357610100808354040283529160200191610dfe565b820191906000526020600020905b815481529060010190602001808311610de157829003601f168201915b5050505050905090565b610e1a610e1361145c565b838361191d565b5050565b610e2f610e2961145c565b8361151d565b610e6e576040517f08c379a0000000000000000000000000000000000000000000000000000000008152600401610e6590612eb5565b60405180910390fd5b610e7a84848484611a8a565b50505050565b6060610e8b826113f0565b610eca576040517f08c379a0000000000000000000000000000000000000000000000000000000008152600401610ec1906133ea565b60405180910390fd5b6000610ed4611ae6565b90506000815111610ef45760405180602001604052806000815250610f1f565b80610efe84611afd565b604051602001610f0f929190613446565b6040516020818303038152906040525b915050919050565b6000600560008473ffffffffffffffffffffffffffffffffffffffff1673ffffffffffffffffffffffffffffffffffffffff16815260200190815260200160002060008373ffffffffffffffffffffffffffffffffffffffff1673ffffffffffffffffffffffffffffffffffffffff16815260200190815260200160002060009054906101000a900460ff16905092915050565b6000610fc561145c565b73ffffffffffffffffffffffffffffffffffffffff16610fe3610d4c565b73ffffffffffffffffffffffffffffffffffffffff1614611039576040517f08c379a000000000000000000000000000000000000000000000000000000000815260040161103090613106565b60405180910390fd5b60008784846040516020016110509392919061316e565b6040516020818303038152906040528051906020012060001c9050611074816113f0565b156110d85786600b6000838152602001908152602001600020600001600082825461109f919061346a565b9250508190555086600b600083815260200190815260200160002060010160008282546110cc919061346a565b92505081905550611208565b6040518060c001604052808881526020018881526020018681526020018781526020018573ffffffffffffffffffffffffffffffffffffffff1681526020018473ffffffffffffffffffffffffffffffffffffffff16815250600b60008381526020019081526020016000206000820151816000015560208201518160010155604082015181600201556060820151816003015560808201518160040160006101000a81548173ffffffffffffffffffffffffffffffffffffffff021916908373ffffffffffffffffffffffffffffffffffffffff16021790555060a08201518160050160006101000a81548173ffffffffffffffffffffffffffffffffffffffff021916908373ffffffffffffffffffffffffffffffffffffffff1602179055509050506112078882611c5e565b5b809150509695505050505050565b61121e61145c565b73ffffffffffffffffffffffffffffffffffffffff1661123c610d4c565b73ffffffffffffffffffffffffffffffffffffffff1614611292576040517f08c379a000000000000000000000000000000000000000000000000000000000815260040161128990613106565b60405180910390fd5b600073ffffffffffffffffffffffffffffffffffffffff168173ffffffffffffffffffffffffffffffffffffffff161415611302576040517f08c379a00000000000000000000000000000000000000000000000000000000081526004016112f990613532565b60405180910390fd5b61130b81611857565b50565b60007f80ac58cd000000000000000000000000000000000000000000000000000000007bffffffffffffffffffffffffffffffffffffffffffffffffffffffff1916827bffffffffffffffffffffffffffffffffffffffffffffffffffffffff191614806113d957507f5b5e139f000000000000000000000000000000000000000000000000000000007bffffffffffffffffffffffffffffffffffffffffffffffffffffffff1916827bffffffffffffffffffffffffffffffffffffffffffffffffffffffff1916145b806113e957506113e882611e2c565b5b9050919050565b60008073ffffffffffffffffffffffffffffffffffffffff166002600084815260200190815260200160002060009054906101000a900473ffffffffffffffffffffffffffffffffffffffff1673ffffffffffffffffffffffffffffffffffffffff1614159050919050565b600033905090565b816004600083815260200190815260200160002060006101000a81548173ffffffffffffffffffffffffffffffffffffffff021916908373ffffffffffffffffffffffffffffffffffffffff160217905550808273ffffffffffffffffffffffffffffffffffffffff166114d7836109ce565b73ffffffffffffffffffffffffffffffffffffffff167f8c5be1e5ebec7d5bd14f71427d1e84f3dd0314c0f7b2291e5b200ac8c7c3b92560405160405180910390a45050565b6000611528826113f0565b611567576040517f08c379a000000000000000000000000000000000000000000000000000000000815260040161155e906135c4565b60405180910390fd5b6000611572836109ce565b90508073ffffffffffffffffffffffffffffffffffffffff168473ffffffffffffffffffffffffffffffffffffffff1614806115e157508373ffffffffffffffffffffffffffffffffffffffff166115c98461058d565b73ffffffffffffffffffffffffffffffffffffffff16145b806115f257506115f18185610f27565b5b91505092915050565b8273ffffffffffffffffffffffffffffffffffffffff1661161b826109ce565b73ffffffffffffffffffffffffffffffffffffffff1614611671576040517f08c379a000000000000000000000000000000000000000000000000000000000815260040161166890613656565b60405180910390fd5b600073ffffffffffffffffffffffffffffffffffffffff168273ffffffffffffffffffffffffffffffffffffffff1614156116e1576040517f08c379a00000000000000000000000000000000000000000000000000000000081526004016116d8906136e8565b60405180910390fd5b6116ec838383611e96565b6116f7600082611464565b6001600360008573ffffffffffffffffffffffffffffffffffffffff1673ffffffffffffffffffffffffffffffffffffffff168152602001908152602001600020600082825461174791906132b2565b925050819055506001600360008473ffffffffffffffffffffffffffffffffffffffff1673ffffffffffffffffffffffffffffffffffffffff168152602001908152602001600020600082825461179e919061346a565b92505081905550816002600083815260200190815260200160002060006101000a81548173ffffffffffffffffffffffffffffffffffffffff021916908373ffffffffffffffffffffffffffffffffffffffff160217905550808273ffffffffffffffffffffffffffffffffffffffff168473ffffffffffffffffffffffffffffffffffffffff167fddf252ad1be2c89b69c2b068fc378daa952ba7f163c4a11628f55a4df523b3ef60405160405180910390a4505050565b6000600a60009054906101000a900473ffffffffffffffffffffffffffffffffffffffff16905081600a60006101000a81548173ffffffffffffffffffffffffffffffffffffffff021916908373ffffffffffffffffffffffffffffffffffffffff1602179055508173ffffffffffffffffffffffffffffffffffffffff168173ffffffffffffffffffffffffffffffffffffffff167f8be0079c531659141344cd1fd0a4f28419497f9722a3daafe3b4186f6b6457e060405160405180910390a35050565b8173ffffffffffffffffffffffffffffffffffffffff168373ffffffffffffffffffffffffffffffffffffffff16141561198c576040517f08c379a000000000000000000000000000000000000000000000000000000000815260040161198390613754565b60405180910390fd5b80600560008573ffffffffffffffffffffffffffffffffffffffff1673ffffffffffffffffffffffffffffffffffffffff16815260200190815260200160002060008473ffffffffffffffffffffffffffffffffffffffff1673ffffffffffffffffffffffffffffffffffffffff16815260200190815260200160002060006101000a81548160ff0219169083151502179055508173ffffffffffffffffffffffffffffffffffffffff168373ffffffffffffffffffffffffffffffffffffffff167f17307eab39ab6107e8899845ad3d59bd9653f200f220920489ca2b5937696c3183604051611a7d9190612575565b60405180910390a3505050565b611a958484846115fb565b611aa184848484611faa565b611ae0576040517f08c379a0000000000000000000000000000000000000000000000000000000008152600401611ad7906137e6565b60405180910390fd5b50505050565b606060405180602001604052806000815250905090565b60606000821415611b45576040518060400160405280600181526020017f30000000000000000000000000000000000000000000000000000000000000008152509050611c59565b600082905060005b60008214611b77578080611b6090613806565b915050600a82611b70919061387e565b9150611b4d565b60008167ffffffffffffffff811115611b9357611b926129b1565b5b6040519080825280601f01601f191660200182016040528015611bc55781602001600182028036833780820191505090505b5090505b60008514611c5257600182611bde91906132b2565b9150600a85611bed91906138af565b6030611bf9919061346a565b60f81b818381518110611c0f57611c0e612ff9565b5b60200101907effffffffffffffffffffffffffffffffffffffffffffffffffffffffffffff1916908160001a905350600a85611c4b919061387e565b9450611bc9565b8093505050505b919050565b600073ffffffffffffffffffffffffffffffffffffffff168273ffffffffffffffffffffffffffffffffffffffff161415611cce576040517f08c379a0000000000000000000000000000000000000000000000000000000008152600401611cc59061392c565b60405180910390fd5b611cd7816113f0565b15611d17576040517f08c379a0000000000000000000000000000000000000000000000000000000008152600401611d0e90613998565b60405180910390fd5b611d2360008383611e96565b6001600360008473ffffffffffffffffffffffffffffffffffffffff1673ffffffffffffffffffffffffffffffffffffffff1681526020019081526020016000206000828254611d73919061346a565b92505081905550816002600083815260200190815260200160002060006101000a81548173ffffffffffffffffffffffffffffffffffffffff021916908373ffffffffffffffffffffffffffffffffffffffff160217905550808273ffffffffffffffffffffffffffffffffffffffff16600073ffffffffffffffffffffffffffffffffffffffff167fddf252ad1be2c89b69c2b068fc378daa952ba7f163c4a11628f55a4df523b3ef60405160405180910390a45050565b60007f01ffc9a7000000000000000000000000000000000000000000000000000000007bffffffffffffffffffffffffffffffffffffffffffffffffffffffff1916827bffffffffffffffffffffffffffffffffffffffffffffffffffffffff1916149050919050565b611ea1838383612141565b600073ffffffffffffffffffffffffffffffffffffffff168373ffffffffffffffffffffffffffffffffffffffff161415611ee457611edf81612146565b611f23565b8173ffffffffffffffffffffffffffffffffffffffff168373ffffffffffffffffffffffffffffffffffffffff1614611f2257611f21838261218f565b5b5b600073ffffffffffffffffffffffffffffffffffffffff168273ffffffffffffffffffffffffffffffffffffffff161415611f6657611f61816122fc565b611fa5565b8273ffffffffffffffffffffffffffffffffffffffff168273ffffffffffffffffffffffffffffffffffffffff1614611fa457611fa382826123cd565b5b5b505050565b6000611fcb8473ffffffffffffffffffffffffffffffffffffffff1661244c565b15612134578373ffffffffffffffffffffffffffffffffffffffff1663150b7a02611ff461145c565b8786866040518563ffffffff1660e01b81526004016120169493929190613a0d565b602060405180830381600087803b15801561203057600080fd5b505af192505050801561206157506040513d601f19601f8201168201806040525081019061205e9190613a6e565b60015b6120e4573d8060008114612091576040519150601f19603f3d011682016040523d82523d6000602084013e612096565b606091505b506000815114156120dc576040517f08c379a00000000000000000000000000000000000000000000000000000000081526004016120d3906137e6565b60405180910390fd5b805181602001fd5b63150b7a0260e01b7bffffffffffffffffffffffffffffffffffffffffffffffffffffffff1916817bffffffffffffffffffffffffffffffffffffffffffffffffffffffff191614915050612139565b600190505b949350505050565b505050565b6008805490506009600083815260200190815260200160002081905550600881908060018154018082558091505060019003906000526020600020016000909190919091505550565b6000600161219c84610c0c565b6121a691906132b2565b905060006007600084815260200190815260200160002054905081811461228b576000600660008673ffffffffffffffffffffffffffffffffffffffff1673ffffffffffffffffffffffffffffffffffffffff168152602001908152602001600020600084815260200190815260200160002054905080600660008773ffffffffffffffffffffffffffffffffffffffff1673ffffffffffffffffffffffffffffffffffffffff168152602001908152602001600020600084815260200190815260200160002081905550816007600083815260200190815260200160002081905550505b6007600084815260200190815260200160002060009055600660008573ffffffffffffffffffffffffffffffffffffffff1673ffffffffffffffffffffffffffffffffffffffff16815260200190815260200160002060008381526020019081526020016000206000905550505050565b6000600160088054905061231091906132b2565b90506000600960008481526020019081526020016000205490506000600883815481106123405761233f612ff9565b5b90600052602060002001549050806008838154811061236257612361612ff9565b5b9060005260206000200181905550816009600083815260200190815260200160002081905550600960008581526020019081526020016000206000905560088054806123b1576123b0613a9b565b5b6001900381819060005260206000200160009055905550505050565b60006123d883610c0c565b905081600660008573ffffffffffffffffffffffffffffffffffffffff1673ffffffffffffffffffffffffffffffffffffffff168152602001908152602001600020600083815260200190815260200160002081905550806007600084815260200190815260200160002081905550505050565b600080823b905060008111915050919050565b6040518060c0016040528060008152602001600081526020016000815260200160008152602001600073ffffffffffffffffffffffffffffffffffffffff168152602001600073ffffffffffffffffffffffffffffffffffffffff1681525090565b6000604051905090565b600080fd5b600080fd5b60007fffffffff0000000000000000000000000000000000000000000000000000000082169050919050565b61250a816124d5565b811461251557600080fd5b50565b60008135905061252781612501565b92915050565b600060208284031215612543576125426124cb565b5b600061255184828501612518565b91505092915050565b60008115159050919050565b61256f8161255a565b82525050565b600060208201905061258a6000830184612566565b92915050565b600081519050919050565b600082825260208201905092915050565b60005b838110156125ca5780820151818401526020810190506125af565b838111156125d9576000848401525b50505050565b6000601f19601f8301169050919050565b60006125fb82612590565b612605818561259b565b93506126158185602086016125ac565b61261e816125df565b840191505092915050565b6000602082019050818103600083015261264381846125f0565b905092915050565b6000819050919050565b61265e8161264b565b811461266957600080fd5b50565b60008135905061267b81612655565b92915050565b600060208284031215612697576126966124cb565b5b60006126a58482850161266c565b91505092915050565b600073ffffffffffffffffffffffffffffffffffffffff82169050919050565b60006126d9826126ae565b9050919050565b6126e9816126ce565b82525050565b600060208201905061270460008301846126e0565b92915050565b612713816126ce565b811461271e57600080fd5b50565b6000813590506127308161270a565b92915050565b6000806040838503121561274d5761274c6124cb565b5b600061275b85828601612721565b925050602061276c8582860161266c565b9150509250929050565b61277f8161264b565b82525050565b600060208201905061279a6000830184612776565b92915050565b6000806000606084860312156127b9576127b86124cb565b5b60006127c786828701612721565b93505060206127d886828701612721565b92505060406127e98682870161266c565b9150509250925092565b6127fc8161264b565b82525050565b61280b816126ce565b82525050565b60c08201600082015161282760008501826127f3565b50602082015161283a60208501826127f3565b50604082015161284d60408501826127f3565b50606082015161286060608501826127f3565b5060808201516128736080850182612802565b5060a082015161288660a0850182612802565b50505050565b600060c0820190506128a16000830184612811565b92915050565b600080600080608085870312156128c1576128c06124cb565b5b60006128cf87828801612721565b94505060206128e08782880161266c565b93505060406128f187828801612721565b925050606061290287828801612721565b91505092959194509250565b600060208284031215612924576129236124cb565b5b600061293284828501612721565b91505092915050565b6129448161255a565b811461294f57600080fd5b50565b6000813590506129618161293b565b92915050565b6000806040838503121561297e5761297d6124cb565b5b600061298c85828601612721565b925050602061299d85828601612952565b9150509250929050565b600080fd5b600080fd5b7f4e487b7100000000000000000000000000000000000000000000000000000000600052604160045260246000fd5b6129e9826125df565b810181811067ffffffffffffffff82111715612a0857612a076129b1565b5b80604052505050565b6000612a1b6124c1565b9050612a2782826129e0565b919050565b600067ffffffffffffffff821115612a4757612a466129b1565b5b612a50826125df565b9050602081019050919050565b82818337600083830152505050565b6000612a7f612a7a84612a2c565b612a11565b905082815260208101848484011115612a9b57612a9a6129ac565b5b612aa6848285612a5d565b509392505050565b600082601f830112612ac357612ac26129a7565b5b8135612ad3848260208601612a6c565b91505092915050565b60008060008060808587031215612af657612af56124cb565b5b6000612b0487828801612721565b9450506020612b1587828801612721565b9350506040612b268782880161266c565b925050606085013567ffffffffffffffff811115612b4757612b466124d0565b5b612b5387828801612aae565b91505092959194509250565b60008060408385031215612b7657612b756124cb565b5b6000612b8485828601612721565b9250506020612b9585828601612721565b9150509250929050565b60008060008060008060c08789031215612bbc57612bbb6124cb565b5b6000612bca89828a01612721565b9650506020612bdb89828a0161266c565b9550506040612bec89828a0161266c565b9450506060612bfd89828a0161266c565b9350506080612c0e89828a01612721565b92505060a0612c1f89828a01612721565b9150509295509295509295565b7f4e487b7100000000000000000000000000000000000000000000000000000000600052602260045260246000fd5b60006002820490506001821680612c7357607f821691505b60208210811415612c8757612c86612c2c565b5b50919050565b7f4552433732313a20617070726f76656420717565727920666f72206e6f6e657860008201527f697374656e7420746f6b656e0000000000000000000000000000000000000000602082015250565b6000612ce9602c8361259b565b9150612cf482612c8d565b604082019050919050565b60006020820190508181036000830152612d1881612cdc565b9050919050565b7f4552433732313a20617070726f76616c20746f2063757272656e74206f776e6560008201527f7200000000000000000000000000000000000000000000000000000000000000602082015250565b6000612d7b60218361259b565b9150612d8682612d1f565b604082019050919050565b60006020820190508181036000830152612daa81612d6e565b9050919050565b7f4552433732313a20617070726f76652063616c6c6572206973206e6f74206f7760008201527f6e6572206e6f7220617070726f76656420666f7220616c6c0000000000000000602082015250565b6000612e0d60388361259b565b9150612e1882612db1565b604082019050919050565b60006020820190508181036000830152612e3c81612e00565b9050919050565b7f4552433732313a207472616e736665722063616c6c6572206973206e6f74206f60008201527f776e6572206e6f7220617070726f766564000000000000000000000000000000602082015250565b6000612e9f60318361259b565b9150612eaa82612e43565b604082019050919050565b60006020820190508181036000830152612ece81612e92565b9050919050565b7f455243373231456e756d657261626c653a206f776e657220696e646578206f7560008201527f74206f6620626f756e6473000000000000000000000000000000000000000000602082015250565b6000612f31602b8361259b565b9150612f3c82612ed5565b604082019050919050565b60006020820190508181036000830152612f6081612f24565b9050919050565b7f455243373231456e756d657261626c653a20676c6f62616c20696e646578206f60008201527f7574206f6620626f756e64730000000000000000000000000000000000000000602082015250565b6000612fc3602c8361259b565b9150612fce82612f67565b604082019050919050565b60006020820190508181036000830152612ff281612fb6565b9050919050565b7f4e487b7100000000000000000000000000000000000000000000000000000000600052603260045260246000fd5b7f4552433732313a206f776e657220717565727920666f72206e6f6e657869737460008201527f656e7420746f6b656e0000000000000000000000000000000000000000000000602082015250565b600061308460298361259b565b915061308f82613028565b604082019050919050565b600060208201905081810360008301526130b381613077565b9050919050565b7f4f776e61626c653a2063616c6c6572206973206e6f7420746865206f776e6572600082015250565b60006130f060208361259b565b91506130fb826130ba565b602082019050919050565b6000602082019050818103600083015261311f816130e3565b9050919050565b60008160601b9050919050565b600061313e82613126565b9050919050565b600061315082613133565b9050919050565b613168613163826126ce565b613145565b82525050565b600061317a8286613157565b60148201915061318a8285613157565b60148201915061319a8284613157565b601482019150819050949350505050565b7f746f6b656e496420646f65736e27742065786973740000000000000000000000600082015250565b60006131e160158361259b565b91506131ec826131ab565b602082019050919050565b60006020820190508181036000830152613210816131d4565b9050919050565b7f696e73756666696369656e742062616c616e6365000000000000000000000000600082015250565b600061324d60148361259b565b915061325882613217565b602082019050919050565b6000602082019050818103600083015261327c81613240565b9050919050565b7f4e487b7100000000000000000000000000000000000000000000000000000000600052601160045260246000fd5b60006132bd8261264b565b91506132c88361264b565b9250828210156132db576132da613283565b5b828203905092915050565b7f4552433732313a2062616c616e636520717565727920666f7220746865207a6560008201527f726f206164647265737300000000000000000000000000000000000000000000602082015250565b6000613342602a8361259b565b915061334d826132e6565b604082019050919050565b6000602082019050818103600083015261337181613335565b9050919050565b7f4552433732314d657461646174613a2055524920717565727920666f72206e6f60008201527f6e6578697374656e7420746f6b656e0000000000000000000000000000000000602082015250565b60006133d4602f8361259b565b91506133df82613378565b604082019050919050565b60006020820190508181036000830152613403816133c7565b9050919050565b600081905092915050565b600061342082612590565b61342a818561340a565b935061343a8185602086016125ac565b80840191505092915050565b60006134528285613415565b915061345e8284613415565b91508190509392505050565b60006134758261264b565b91506134808361264b565b9250827fffffffffffffffffffffffffffffffffffffffffffffffffffffffffffffffff038211156134b5576134b4613283565b5b828201905092915050565b7f4f776e61626c653a206e6577206f776e657220697320746865207a65726f206160008201527f6464726573730000000000000000000000000000000000000000000000000000602082015250565b600061351c60268361259b565b9150613527826134c0565b604082019050919050565b6000602082019050818103600083015261354b8161350f565b9050919050565b7f4552433732313a206f70657261746f7220717565727920666f72206e6f6e657860008201527f697374656e7420746f6b656e0000000000000000000000000000000000000000602082015250565b60006135ae602c8361259b565b91506135b982613552565b604082019050919050565b600060208201905081810360008301526135dd816135a1565b9050919050565b7f4552433732313a207472616e73666572206f6620746f6b656e2074686174206960008201527f73206e6f74206f776e0000000000000000000000000000000000000000000000602082015250565b600061364060298361259b565b915061364b826135e4565b604082019050919050565b6000602082019050818103600083015261366f81613633565b9050919050565b7f4552433732313a207472616e7366657220746f20746865207a65726f2061646460008201527f7265737300000000000000000000000000000000000000000000000000000000602082015250565b60006136d260248361259b565b91506136dd82613676565b604082019050919050565b60006020820190508181036000830152613701816136c5565b9050919050565b7f4552433732313a20617070726f766520746f2063616c6c657200000000000000600082015250565b600061373e60198361259b565b915061374982613708565b602082019050919050565b6000602082019050818103600083015261376d81613731565b9050919050565b7f4552433732313a207472616e7366657220746f206e6f6e20455243373231526560008201527f63656976657220696d706c656d656e7465720000000000000000000000000000602082015250565b60006137d060328361259b565b91506137db82613774565b604082019050919050565b600060208201905081810360008301526137ff816137c3565b9050919050565b60006138118261264b565b91507fffffffffffffffffffffffffffffffffffffffffffffffffffffffffffffffff82141561384457613843613283565b5b600182019050919050565b7f4e487b7100000000000000000000000000000000000000000000000000000000600052601260045260246000fd5b60006138898261264b565b91506138948361264b565b9250826138a4576138a361384f565b5b828204905092915050565b60006138ba8261264b565b91506138c58361264b565b9250826138d5576138d461384f565b5b828206905092915050565b7f4552433732313a206d696e7420746f20746865207a65726f2061646472657373600082015250565b600061391660208361259b565b9150613921826138e0565b602082019050919050565b6000602082019050818103600083015261394581613909565b9050919050565b7f4552433732313a20746f6b656e20616c7265616479206d696e74656400000000600082015250565b6000613982601c8361259b565b915061398d8261394c565b602082019050919050565b600060208201905081810360008301526139b181613975565b9050919050565b600081519050919050565b600082825260208201905092915050565b60006139df826139b8565b6139e981856139c3565b93506139f98185602086016125ac565b613a02816125df565b840191505092915050565b6000608082019050613a2260008301876126e0565b613a2f60208301866126e0565b613a3c6040830185612776565b8181036060830152613a4e81846139d4565b905095945050505050565b600081519050613a6881612501565b92915050565b600060208284031215613a8457613a836124cb565b5b6000613a9284828501613a59565b91505092915050565b7f4e487b7100000000000000000000000000000000000000000000000000000000600052603160045260246000fdfea2646970667358221220c2b214a0731c73739fbbb66242a460f388fa8add53eb4dc9478340321b4ef9e564736f6c63430008090033",
  "immutableReferences": {},
  "source": "// SPDX-License-Identifier: MIT\npragma solidity 0.8.9;\n\n//import \"@openzeppelin/contracts/token/ERC721/ERC721.sol\";\nimport \"@openzeppelin/contracts/token/ERC721/extensions/ERC721Enumerable.sol\";\nimport \"@openzeppelin/contracts/access/Ownable.sol\";\n\ncontract JCDepositorERC721 is ERC721Enumerable, Ownable {\n    //using Counters for Counters.Counter;\n    //Counters.Counter private _tokenIndexes;\n\n    struct Deposit {\n        uint256 balance;\n        uint256 totalDeposits;\n        uint256 timeStamp;\n        uint256 liquidityIndex;\n        address pool;\n        address asset;\n    }\n\n    //key = keccak hash of depositor, pool and asset addresses\n    mapping (uint256 => Deposit) deposits;\n\n    constructor() ERC721(\"JCP Depositor Token\", \"JCPT_TEST_D1\") {\n\n    }\n\n    function addFunds(address _tokenOwner, uint256 _amount, uint256 _liquidityIndex, uint256 _timeStamp, address _pool, address _asset) onlyOwner public returns (uint256) {\n        //_tokenIds.increment();\n        //uint256 tokenId = _tokenIds.current();\n        uint256 tokenId = uint256(keccak256(abi.encodePacked(_tokenOwner, _pool, _asset)));\n        if(_exists(tokenId)){\n            deposits[tokenId].balance += _amount;\n            deposits[tokenId].totalDeposits += _amount;\n        }\n        else{\n            deposits[tokenId] = Deposit(_amount, _amount, _timeStamp, _liquidityIndex, _pool, _asset);\n            _mint(_tokenOwner, tokenId);\n        }\n        //_setTokenURI(tokenId, tokenURI);\n\n        return tokenId;\n    }\n\n    function withdrawFunds(address _tokenOwner, uint256 _amount, address _pool, address _asset) onlyOwner public returns (uint256) {\n        uint256 tokenId = uint256(keccak256(abi.encodePacked(_tokenOwner, _pool, _asset)));\n        require(_exists(tokenId), \"tokenId doesn't exist\");\n\n        uint256 balance = deposits[tokenId].balance;\n        require(balance >= _amount, \"insufficient balance\");\n        balance -= _amount;\n        /*if(balance == 0){\n            //delete deposits[tokenId];\n            //_burn(tokenId);\n        }*/\n        //_setTokenURI(tokenId, tokenURI);\n        deposits[tokenId].balance = balance;\n        return tokenId;\n    }\n\n    function getDepositInfo(uint256 _tokenId) public view returns (Deposit memory){ //uint256 balace, uint256 totalDeposits, uint256 timeStamp, uint256 liquidityIndex, address pool, address asset) {\n        return deposits[_tokenId];\n    }\n}",
  "sourcePath": "/home/smeee/just_cause/contracts/JCDepositorERC721.sol",
  "compiler": {
    "name": "solc",
    "version": "0.8.9+commit.e5eed63a.Emscripten.clang"
  },
  "schemaVersion": "3.4.3",
  "updatedAt": "2022-02-02T03:14:27.601Z",
  "devdoc": {
    "kind": "dev",
    "methods": {
      "approve(address,uint256)": {
        "details": "See {IERC721-approve}."
      },
      "balanceOf(address)": {
        "details": "See {IERC721-balanceOf}."
      },
      "getApproved(uint256)": {
        "details": "See {IERC721-getApproved}."
      },
      "isApprovedForAll(address,address)": {
        "details": "See {IERC721-isApprovedForAll}."
      },
      "name()": {
        "details": "See {IERC721Metadata-name}."
      },
      "owner()": {
        "details": "Returns the address of the current owner."
      },
      "ownerOf(uint256)": {
        "details": "See {IERC721-ownerOf}."
      },
      "renounceOwnership()": {
        "details": "Leaves the contract without owner. It will not be possible to call `onlyOwner` functions anymore. Can only be called by the current owner. NOTE: Renouncing ownership will leave the contract without an owner, thereby removing any functionality that is only available to the owner."
      },
      "safeTransferFrom(address,address,uint256)": {
        "details": "See {IERC721-safeTransferFrom}."
      },
      "safeTransferFrom(address,address,uint256,bytes)": {
        "details": "See {IERC721-safeTransferFrom}."
      },
      "setApprovalForAll(address,bool)": {
        "details": "See {IERC721-setApprovalForAll}."
      },
      "supportsInterface(bytes4)": {
        "details": "See {IERC165-supportsInterface}."
      },
      "symbol()": {
        "details": "See {IERC721Metadata-symbol}."
      },
      "tokenByIndex(uint256)": {
        "details": "See {IERC721Enumerable-tokenByIndex}."
      },
      "tokenOfOwnerByIndex(address,uint256)": {
        "details": "See {IERC721Enumerable-tokenOfOwnerByIndex}."
      },
      "tokenURI(uint256)": {
        "details": "See {IERC721Metadata-tokenURI}."
      },
      "totalSupply()": {
        "details": "See {IERC721Enumerable-totalSupply}."
      },
      "transferFrom(address,address,uint256)": {
        "details": "See {IERC721-transferFrom}."
      },
      "transferOwnership(address)": {
        "details": "Transfers ownership of the contract to a new account (`newOwner`). Can only be called by the current owner."
      }
    },
    "version": 1
  },
  "userdoc": {
    "kind": "user",
    "methods": {},
    "version": 1
  }
}