{
  "contractName": "JCDepositorERC721",
  "abi": [
    {
      "inputs": [],
      "stateMutability": "nonpayable",
      "type": "constructor"
    },
    {
      "anonymous": false,
      "inputs": [
        {
          "indexed": true,
          "internalType": "address",
          "name": "owner",
          "type": "address"
        },
        {
          "indexed": true,
          "internalType": "address",
          "name": "approved",
          "type": "address"
        },
        {
          "indexed": true,
          "internalType": "uint256",
          "name": "tokenId",
          "type": "uint256"
        }
      ],
      "name": "Approval",
      "type": "event"
    },
    {
      "anonymous": false,
      "inputs": [
        {
          "indexed": true,
          "internalType": "address",
          "name": "owner",
          "type": "address"
        },
        {
          "indexed": true,
          "internalType": "address",
          "name": "operator",
          "type": "address"
        },
        {
          "indexed": false,
          "internalType": "bool",
          "name": "approved",
          "type": "bool"
        }
      ],
      "name": "ApprovalForAll",
      "type": "event"
    },
    {
      "anonymous": false,
      "inputs": [
        {
          "indexed": true,
          "internalType": "address",
          "name": "previousOwner",
          "type": "address"
        },
        {
          "indexed": true,
          "internalType": "address",
          "name": "newOwner",
          "type": "address"
        }
      ],
      "name": "OwnershipTransferred",
      "type": "event"
    },
    {
      "anonymous": false,
      "inputs": [
        {
          "indexed": true,
          "internalType": "address",
          "name": "from",
          "type": "address"
        },
        {
          "indexed": true,
          "internalType": "address",
          "name": "to",
          "type": "address"
        },
        {
          "indexed": true,
          "internalType": "uint256",
          "name": "tokenId",
          "type": "uint256"
        }
      ],
      "name": "Transfer",
      "type": "event"
    },
    {
      "inputs": [
        {
          "internalType": "address",
          "name": "to",
          "type": "address"
        },
        {
          "internalType": "uint256",
          "name": "tokenId",
          "type": "uint256"
        }
      ],
      "name": "approve",
      "outputs": [],
      "stateMutability": "nonpayable",
      "type": "function"
    },
    {
      "inputs": [
        {
          "internalType": "address",
          "name": "owner",
          "type": "address"
        }
      ],
      "name": "balanceOf",
      "outputs": [
        {
          "internalType": "uint256",
          "name": "",
          "type": "uint256"
        }
      ],
      "stateMutability": "view",
      "type": "function"
    },
    {
      "inputs": [
        {
          "internalType": "uint256",
          "name": "tokenId",
          "type": "uint256"
        }
      ],
      "name": "getApproved",
      "outputs": [
        {
          "internalType": "address",
          "name": "",
          "type": "address"
        }
      ],
      "stateMutability": "view",
      "type": "function"
    },
    {
      "inputs": [
        {
          "internalType": "address",
          "name": "owner",
          "type": "address"
        },
        {
          "internalType": "address",
          "name": "operator",
          "type": "address"
        }
      ],
      "name": "isApprovedForAll",
      "outputs": [
        {
          "internalType": "bool",
          "name": "",
          "type": "bool"
        }
      ],
      "stateMutability": "view",
      "type": "function"
    },
    {
      "inputs": [],
      "name": "name",
      "outputs": [
        {
          "internalType": "string",
          "name": "",
          "type": "string"
        }
      ],
      "stateMutability": "view",
      "type": "function"
    },
    {
      "inputs": [],
      "name": "owner",
      "outputs": [
        {
          "internalType": "address",
          "name": "",
          "type": "address"
        }
      ],
      "stateMutability": "view",
      "type": "function"
    },
    {
      "inputs": [
        {
          "internalType": "uint256",
          "name": "tokenId",
          "type": "uint256"
        }
      ],
      "name": "ownerOf",
      "outputs": [
        {
          "internalType": "address",
          "name": "",
          "type": "address"
        }
      ],
      "stateMutability": "view",
      "type": "function"
    },
    {
      "inputs": [],
      "name": "renounceOwnership",
      "outputs": [],
      "stateMutability": "nonpayable",
      "type": "function"
    },
    {
      "inputs": [
        {
          "internalType": "address",
          "name": "from",
          "type": "address"
        },
        {
          "internalType": "address",
          "name": "to",
          "type": "address"
        },
        {
          "internalType": "uint256",
          "name": "tokenId",
          "type": "uint256"
        }
      ],
      "name": "safeTransferFrom",
      "outputs": [],
      "stateMutability": "nonpayable",
      "type": "function"
    },
    {
      "inputs": [
        {
          "internalType": "address",
          "name": "from",
          "type": "address"
        },
        {
          "internalType": "address",
          "name": "to",
          "type": "address"
        },
        {
          "internalType": "uint256",
          "name": "tokenId",
          "type": "uint256"
        },
        {
          "internalType": "bytes",
          "name": "_data",
          "type": "bytes"
        }
      ],
      "name": "safeTransferFrom",
      "outputs": [],
      "stateMutability": "nonpayable",
      "type": "function"
    },
    {
      "inputs": [
        {
          "internalType": "address",
          "name": "operator",
          "type": "address"
        },
        {
          "internalType": "bool",
          "name": "approved",
          "type": "bool"
        }
      ],
      "name": "setApprovalForAll",
      "outputs": [],
      "stateMutability": "nonpayable",
      "type": "function"
    },
    {
      "inputs": [
        {
          "internalType": "bytes4",
          "name": "interfaceId",
          "type": "bytes4"
        }
      ],
      "name": "supportsInterface",
      "outputs": [
        {
          "internalType": "bool",
          "name": "",
          "type": "bool"
        }
      ],
      "stateMutability": "view",
      "type": "function"
    },
    {
      "inputs": [],
      "name": "symbol",
      "outputs": [
        {
          "internalType": "string",
          "name": "",
          "type": "string"
        }
      ],
      "stateMutability": "view",
      "type": "function"
    },
    {
      "inputs": [
        {
          "internalType": "uint256",
          "name": "index",
          "type": "uint256"
        }
      ],
      "name": "tokenByIndex",
      "outputs": [
        {
          "internalType": "uint256",
          "name": "",
          "type": "uint256"
        }
      ],
      "stateMutability": "view",
      "type": "function"
    },
    {
      "inputs": [
        {
          "internalType": "address",
          "name": "owner",
          "type": "address"
        },
        {
          "internalType": "uint256",
          "name": "index",
          "type": "uint256"
        }
      ],
      "name": "tokenOfOwnerByIndex",
      "outputs": [
        {
          "internalType": "uint256",
          "name": "",
          "type": "uint256"
        }
      ],
      "stateMutability": "view",
      "type": "function"
    },
    {
      "inputs": [
        {
          "internalType": "uint256",
          "name": "tokenId",
          "type": "uint256"
        }
      ],
      "name": "tokenURI",
      "outputs": [
        {
          "internalType": "string",
          "name": "",
          "type": "string"
        }
      ],
      "stateMutability": "view",
      "type": "function"
    },
    {
      "inputs": [],
      "name": "totalSupply",
      "outputs": [
        {
          "internalType": "uint256",
          "name": "",
          "type": "uint256"
        }
      ],
      "stateMutability": "view",
      "type": "function"
    },
    {
      "inputs": [
        {
          "internalType": "address",
          "name": "from",
          "type": "address"
        },
        {
          "internalType": "address",
          "name": "to",
          "type": "address"
        },
        {
          "internalType": "uint256",
          "name": "tokenId",
          "type": "uint256"
        }
      ],
      "name": "transferFrom",
      "outputs": [],
      "stateMutability": "nonpayable",
      "type": "function"
    },
    {
      "inputs": [
        {
          "internalType": "address",
          "name": "newOwner",
          "type": "address"
        }
      ],
      "name": "transferOwnership",
      "outputs": [],
      "stateMutability": "nonpayable",
      "type": "function"
    },
    {
      "inputs": [
        {
          "internalType": "address",
          "name": "_tokenOwner",
          "type": "address"
        },
        {
          "internalType": "uint256",
          "name": "_amount",
          "type": "uint256"
        },
        {
          "internalType": "uint256",
          "name": "_liquidityIndex",
          "type": "uint256"
        },
        {
          "internalType": "uint256",
          "name": "_timeStamp",
          "type": "uint256"
        },
        {
          "internalType": "address",
          "name": "_pool",
          "type": "address"
        },
        {
          "internalType": "address",
          "name": "_asset",
          "type": "address"
        }
      ],
      "name": "addFunds",
      "outputs": [
        {
          "internalType": "uint256",
          "name": "",
          "type": "uint256"
        }
      ],
      "stateMutability": "nonpayable",
      "type": "function"
    },
    {
      "inputs": [
        {
          "internalType": "address",
          "name": "_tokenOwner",
          "type": "address"
        },
        {
          "internalType": "uint256",
          "name": "_amount",
          "type": "uint256"
        },
        {
          "internalType": "uint256",
          "name": "_liquidityIndex",
          "type": "uint256"
        },
        {
          "internalType": "address",
          "name": "_pool",
          "type": "address"
        },
        {
          "internalType": "address",
          "name": "_asset",
          "type": "address"
        }
      ],
      "name": "withdrawFunds",
      "outputs": [
        {
          "internalType": "uint256",
          "name": "",
          "type": "uint256"
        },
        {
          "internalType": "uint256",
          "name": "",
          "type": "uint256"
        },
        {
          "internalType": "uint256",
          "name": "",
          "type": "uint256"
        },
        {
          "internalType": "uint256",
          "name": "",
          "type": "uint256"
        },
        {
          "internalType": "uint256",
          "name": "",
          "type": "uint256"
        }
      ],
      "stateMutability": "nonpayable",
      "type": "function"
    },
    {
      "inputs": [
        {
          "internalType": "uint256",
          "name": "_tokenId",
          "type": "uint256"
        }
      ],
      "name": "getDepositInfo",
      "outputs": [
        {
          "components": [
            {
              "internalType": "uint256",
              "name": "balance",
              "type": "uint256"
            },
            {
              "internalType": "uint256",
              "name": "totalDeposits",
              "type": "uint256"
            },
            {
              "internalType": "uint256",
              "name": "amountScaled",
              "type": "uint256"
            },
            {
              "internalType": "uint256",
              "name": "timeStamp",
              "type": "uint256"
            },
            {
              "internalType": "uint256",
              "name": "liquidityIndex",
              "type": "uint256"
            },
            {
              "internalType": "address",
              "name": "pool",
              "type": "address"
            },
            {
              "internalType": "address",
              "name": "asset",
              "type": "address"
            }
          ],
          "internalType": "struct JCDepositorERC721.Deposit",
          "name": "",
          "type": "tuple"
        }
      ],
      "stateMutability": "view",
      "type": "function"
    },
    {
      "inputs": [
        {
          "internalType": "uint256",
          "name": "_tokenId",
          "type": "uint256"
        },
        {
          "internalType": "uint256",
          "name": "_reserveNormalizedIncome",
          "type": "uint256"
        }
      ],
      "name": "getATokenAmount",
      "outputs": [
        {
          "internalType": "uint256",
          "name": "",
          "type": "uint256"
        }
      ],
      "stateMutability": "view",
      "type": "function"
    }
  ],
  "bytecode": "0x60806040523480156200001157600080fd5b506040518060400160405280601381526020017f4a4350204465706f7369746f7220546f6b656e000000000000000000000000008152506040518060400160405280600c81526020017f4a4350545f544553545f44310000000000000000000000000000000000000000815250816000908051906020019062000096929190620001a6565b508060019080519060200190620000af929190620001a6565b505050620000d2620000c6620000d860201b60201c565b620000e060201b60201c565b620002bb565b600033905090565b6000600a60009054906101000a900473ffffffffffffffffffffffffffffffffffffffff16905081600a60006101000a81548173ffffffffffffffffffffffffffffffffffffffff021916908373ffffffffffffffffffffffffffffffffffffffff1602179055508173ffffffffffffffffffffffffffffffffffffffff168173ffffffffffffffffffffffffffffffffffffffff167f8be0079c531659141344cd1fd0a4f28419497f9722a3daafe3b4186f6b6457e060405160405180910390a35050565b828054620001b49062000285565b90600052602060002090601f016020900481019282620001d8576000855562000224565b82601f10620001f357805160ff191683800117855562000224565b8280016001018555821562000224579182015b828111156200022357825182559160200191906001019062000206565b5b50905062000233919062000237565b5090565b5b808211156200025257600081600090555060010162000238565b5090565b7f4e487b7100000000000000000000000000000000000000000000000000000000600052602260045260246000fd5b600060028204905060018216806200029e57607f821691505b60208210811415620002b557620002b462000256565b5b50919050565b61403c80620002cb6000396000f3fe608060405234801561001057600080fd5b506004361061014d5760003560e01c80636352211e116100c3578063b88d4fde1161007c578063b88d4fde146103c8578063c87b56dd146103e4578063e985e9c514610414578063ecd8d05414610444578063f2fde38b14610474578063f7f814b0146104905761014d565b80636352211e1461030657806370a0823114610336578063715018a6146103665780638da5cb5b1461037057806395d89b411461038e578063a22cb465146103ac5761014d565b8063236e9c9911610115578063236e9c991461020a57806323b872dd1461023e5780632f745c591461025a57806342842e0e1461028a5780634f6ccce7146102a65780635328c2bf146102d65761014d565b806301ffc9a71461015257806306fdde0314610182578063081812fc146101a0578063095ea7b3146101d057806318160ddd146101ec575b600080fd5b61016c6004803603810190610167919061287d565b6104c0565b60405161017991906128c5565b60405180910390f35b61018a61053a565b6040516101979190612979565b60405180910390f35b6101ba60048036038101906101b591906129d1565b6105cc565b6040516101c79190612a3f565b60405180910390f35b6101ea60048036038101906101e59190612a86565b610651565b005b6101f4610769565b6040516102019190612ad5565b60405180910390f35b610224600480360381019061021f9190612af0565b610776565b604051610235959493929190612b6b565b60405180910390f35b61025860048036038101906102539190612bbe565b610997565b005b610274600480360381019061026f9190612a86565b6109f7565b6040516102819190612ad5565b60405180910390f35b6102a4600480360381019061029f9190612bbe565b610a9c565b005b6102c060048036038101906102bb91906129d1565b610abc565b6040516102cd9190612ad5565b60405180910390f35b6102f060048036038101906102eb91906129d1565b610b2d565b6040516102fd9190612cbd565b60405180910390f35b610320600480360381019061031b91906129d1565b610c38565b60405161032d9190612a3f565b60405180910390f35b610350600480360381019061034b9190612cd8565b610cea565b60405161035d9190612ad5565b60405180910390f35b61036e610da2565b005b610378610e2a565b6040516103859190612a3f565b60405180910390f35b610396610e54565b6040516103a39190612979565b60405180910390f35b6103c660048036038101906103c19190612d31565b610ee6565b005b6103e260048036038101906103dd9190612ea6565b610efc565b005b6103fe60048036038101906103f991906129d1565b610f5e565b60405161040b9190612979565b60405180910390f35b61042e60048036038101906104299190612f29565b611005565b60405161043b91906128c5565b60405180910390f35b61045e60048036038101906104599190612f69565b611099565b60405161046b9190612ad5565b60405180910390f35b61048e60048036038101906104899190612cd8565b611343565b005b6104aa60048036038101906104a59190612ff6565b61143b565b6040516104b79190612ad5565b60405180910390f35b60007f780e9d63000000000000000000000000000000000000000000000000000000007bffffffffffffffffffffffffffffffffffffffffffffffffffffffff1916827bffffffffffffffffffffffffffffffffffffffffffffffffffffffff19161480610533575061053282611465565b5b9050919050565b60606000805461054990613065565b80601f016020809104026020016040519081016040528092919081815260200182805461057590613065565b80156105c25780601f10610597576101008083540402835291602001916105c2565b820191906000526020600020905b8154815290600101906020018083116105a557829003601f168201915b5050505050905090565b60006105d782611547565b610616576040517f08c379a000000000000000000000000000000000000000000000000000000000815260040161060d90613109565b60405180910390fd5b6004600083815260200190815260200160002060009054906101000a900473ffffffffffffffffffffffffffffffffffffffff169050919050565b600061065c82610c38565b90508073ffffffffffffffffffffffffffffffffffffffff168373ffffffffffffffffffffffffffffffffffffffff1614156106cd576040517f08c379a00000000000000000000000000000000000000000000000000000000081526004016106c49061319b565b60405180910390fd5b8073ffffffffffffffffffffffffffffffffffffffff166106ec6115b3565b73ffffffffffffffffffffffffffffffffffffffff16148061071b575061071a816107156115b3565b611005565b5b61075a576040517f08c379a00000000000000000000000000000000000000000000000000000000081526004016107519061322d565b60405180910390fd5b61076483836115bb565b505050565b6000600880549050905090565b60008060008060006107866115b3565b73ffffffffffffffffffffffffffffffffffffffff166107a4610e2a565b73ffffffffffffffffffffffffffffffffffffffff16146107fa576040517f08c379a00000000000000000000000000000000000000000000000000000000081526004016107f190613299565b60405180910390fd5b60008a888860405160200161081193929190613301565b6040516020818303038152906040528051906020012060001c905061083581611547565b610874576040517f08c379a000000000000000000000000000000000000000000000000000000000815260040161086b9061338a565b60405180910390fd5b6000600b60008381526020019081526020016000206000015490508a8110156108d2576040517f08c379a00000000000000000000000000000000000000000000000000000000081526004016108c9906133f6565b60405180910390fd5b8a816108de9190613445565b905080600b6000848152602001908152602001600020600001819055506000600b60008481526020019081526020016000206002015490506109208c8c611674565b600b600085815260200190815260200160002060020160008282546109459190613445565b925050819055508b81600b600086815260200190815260200160002060020154600b6000878152602001908152602001600020600401548e975097509750975097505050509550955095509550959050565b6109a86109a26115b3565b82611780565b6109e7576040517f08c379a00000000000000000000000000000000000000000000000000000000081526004016109de906134eb565b60405180910390fd5b6109f283838361185e565b505050565b6000610a0283610cea565b8210610a43576040517f08c379a0000000000000000000000000000000000000000000000000000000008152600401610a3a9061357d565b60405180910390fd5b600660008473ffffffffffffffffffffffffffffffffffffffff1673ffffffffffffffffffffffffffffffffffffffff168152602001908152602001600020600083815260200190815260200160002054905092915050565b610ab783838360405180602001604052806000815250610efc565b505050565b6000610ac6610769565b8210610b07576040517f08c379a0000000000000000000000000000000000000000000000000000000008152600401610afe9061360f565b60405180910390fd5b60088281548110610b1b57610b1a61362f565b5b90600052602060002001549050919050565b610b356127a8565b600b60008381526020019081526020016000206040518060e001604052908160008201548152602001600182015481526020016002820154815260200160038201548152602001600482015481526020016005820160009054906101000a900473ffffffffffffffffffffffffffffffffffffffff1673ffffffffffffffffffffffffffffffffffffffff1673ffffffffffffffffffffffffffffffffffffffff1681526020016006820160009054906101000a900473ffffffffffffffffffffffffffffffffffffffff1673ffffffffffffffffffffffffffffffffffffffff1673ffffffffffffffffffffffffffffffffffffffff16815250509050919050565b6000806002600084815260200190815260200160002060009054906101000a900473ffffffffffffffffffffffffffffffffffffffff169050600073ffffffffffffffffffffffffffffffffffffffff168173ffffffffffffffffffffffffffffffffffffffff161415610ce1576040517f08c379a0000000000000000000000000000000000000000000000000000000008152600401610cd8906136d0565b60405180910390fd5b80915050919050565b60008073ffffffffffffffffffffffffffffffffffffffff168273ffffffffffffffffffffffffffffffffffffffff161415610d5b576040517f08c379a0000000000000000000000000000000000000000000000000000000008152600401610d5290613762565b60405180910390fd5b600360008373ffffffffffffffffffffffffffffffffffffffff1673ffffffffffffffffffffffffffffffffffffffff168152602001908152602001600020549050919050565b610daa6115b3565b73ffffffffffffffffffffffffffffffffffffffff16610dc8610e2a565b73ffffffffffffffffffffffffffffffffffffffff1614610e1e576040517f08c379a0000000000000000000000000000000000000000000000000000000008152600401610e1590613299565b60405180910390fd5b610e286000611aba565b565b6000600a60009054906101000a900473ffffffffffffffffffffffffffffffffffffffff16905090565b606060018054610e6390613065565b80601f0160208091040260200160405190810160405280929190818152602001828054610e8f90613065565b8015610edc5780601f10610eb157610100808354040283529160200191610edc565b820191906000526020600020905b815481529060010190602001808311610ebf57829003601f168201915b5050505050905090565b610ef8610ef16115b3565b8383611b80565b5050565b610f0d610f076115b3565b83611780565b610f4c576040517f08c379a0000000000000000000000000000000000000000000000000000000008152600401610f43906134eb565b60405180910390fd5b610f5884848484611ced565b50505050565b6060610f6982611547565b610fa8576040517f08c379a0000000000000000000000000000000000000000000000000000000008152600401610f9f906137f4565b60405180910390fd5b6000610fb2611d49565b90506000815111610fd25760405180602001604052806000815250610ffd565b80610fdc84611d60565b604051602001610fed929190613850565b6040516020818303038152906040525b915050919050565b6000600560008473ffffffffffffffffffffffffffffffffffffffff1673ffffffffffffffffffffffffffffffffffffffff16815260200190815260200160002060008373ffffffffffffffffffffffffffffffffffffffff1673ffffffffffffffffffffffffffffffffffffffff16815260200190815260200160002060009054906101000a900460ff16905092915050565b60006110a36115b3565b73ffffffffffffffffffffffffffffffffffffffff166110c1610e2a565b73ffffffffffffffffffffffffffffffffffffffff1614611117576040517f08c379a000000000000000000000000000000000000000000000000000000000815260040161110e90613299565b60405180910390fd5b600087848460405160200161112e93929190613301565b6040516020818303038152906040528051906020012060001c905061115281611547565b156111ec5786600b6000838152602001908152602001600020600001600082825461117d9190613874565b9250508190555086600b600083815260200190815260200160002060010160008282546111aa9190613874565b925050819055506111bb8787611674565b600b600083815260200190815260200160002060020160008282546111e09190613874565b92505081905550611335565b6040518060e0016040528088815260200188815260200161120d8989611674565b81526020018681526020018781526020018573ffffffffffffffffffffffffffffffffffffffff1681526020018473ffffffffffffffffffffffffffffffffffffffff16815250600b6000838152602001908152602001600020600082015181600001556020820151816001015560408201518160020155606082015181600301556080820151816004015560a08201518160050160006101000a81548173ffffffffffffffffffffffffffffffffffffffff021916908373ffffffffffffffffffffffffffffffffffffffff16021790555060c08201518160060160006101000a81548173ffffffffffffffffffffffffffffffffffffffff021916908373ffffffffffffffffffffffffffffffffffffffff1602179055509050506113348882611ec1565b5b809150509695505050505050565b61134b6115b3565b73ffffffffffffffffffffffffffffffffffffffff16611369610e2a565b73ffffffffffffffffffffffffffffffffffffffff16146113bf576040517f08c379a00000000000000000000000000000000000000000000000000000000081526004016113b690613299565b60405180910390fd5b600073ffffffffffffffffffffffffffffffffffffffff168173ffffffffffffffffffffffffffffffffffffffff16141561142f576040517f08c379a00000000000000000000000000000000000000000000000000000000081526004016114269061393c565b60405180910390fd5b61143881611aba565b50565b600061145d600b6000858152602001908152602001600020600201548361208f565b905092915050565b60007f80ac58cd000000000000000000000000000000000000000000000000000000007bffffffffffffffffffffffffffffffffffffffffffffffffffffffff1916827bffffffffffffffffffffffffffffffffffffffffffffffffffffffff1916148061153057507f5b5e139f000000000000000000000000000000000000000000000000000000007bffffffffffffffffffffffffffffffffffffffffffffffffffffffff1916827bffffffffffffffffffffffffffffffffffffffffffffffffffffffff1916145b80611540575061153f82612175565b5b9050919050565b60008073ffffffffffffffffffffffffffffffffffffffff166002600084815260200190815260200160002060009054906101000a900473ffffffffffffffffffffffffffffffffffffffff1673ffffffffffffffffffffffffffffffffffffffff1614159050919050565b600033905090565b816004600083815260200190815260200160002060006101000a81548173ffffffffffffffffffffffffffffffffffffffff021916908373ffffffffffffffffffffffffffffffffffffffff160217905550808273ffffffffffffffffffffffffffffffffffffffff1661162e83610c38565b73ffffffffffffffffffffffffffffffffffffffff167f8c5be1e5ebec7d5bd14f71427d1e84f3dd0314c0f7b2291e5b200ac8c7c3b92560405160405180910390a45050565b6000808214156116b9576040517f08c379a00000000000000000000000000000000000000000000000000000000081526004016116b0906139a8565b60405180910390fd5b60006002836116c891906139f7565b905060006b033b2e3c9fd0803ce8000000905080827fffffffffffffffffffffffffffffffffffffffffffffffffffffffffffffffff6117089190613445565b61171291906139f7565b851115611754576040517f08c379a000000000000000000000000000000000000000000000000000000000815260040161174b90613a74565b60405180910390fd5b838282876117629190613a94565b61176c9190613874565b61177691906139f7565b9250505092915050565b600061178b82611547565b6117ca576040517f08c379a00000000000000000000000000000000000000000000000000000000081526004016117c190613b60565b60405180910390fd5b60006117d583610c38565b90508073ffffffffffffffffffffffffffffffffffffffff168473ffffffffffffffffffffffffffffffffffffffff16148061184457508373ffffffffffffffffffffffffffffffffffffffff1661182c846105cc565b73ffffffffffffffffffffffffffffffffffffffff16145b8061185557506118548185611005565b5b91505092915050565b8273ffffffffffffffffffffffffffffffffffffffff1661187e82610c38565b73ffffffffffffffffffffffffffffffffffffffff16146118d4576040517f08c379a00000000000000000000000000000000000000000000000000000000081526004016118cb90613bf2565b60405180910390fd5b600073ffffffffffffffffffffffffffffffffffffffff168273ffffffffffffffffffffffffffffffffffffffff161415611944576040517f08c379a000000000000000000000000000000000000000000000000000000000815260040161193b90613c84565b60405180910390fd5b61194f8383836121df565b61195a6000826115bb565b6001600360008573ffffffffffffffffffffffffffffffffffffffff1673ffffffffffffffffffffffffffffffffffffffff16815260200190815260200160002060008282546119aa9190613445565b925050819055506001600360008473ffffffffffffffffffffffffffffffffffffffff1673ffffffffffffffffffffffffffffffffffffffff1681526020019081526020016000206000828254611a019190613874565b92505081905550816002600083815260200190815260200160002060006101000a81548173ffffffffffffffffffffffffffffffffffffffff021916908373ffffffffffffffffffffffffffffffffffffffff160217905550808273ffffffffffffffffffffffffffffffffffffffff168473ffffffffffffffffffffffffffffffffffffffff167fddf252ad1be2c89b69c2b068fc378daa952ba7f163c4a11628f55a4df523b3ef60405160405180910390a4505050565b6000600a60009054906101000a900473ffffffffffffffffffffffffffffffffffffffff16905081600a60006101000a81548173ffffffffffffffffffffffffffffffffffffffff021916908373ffffffffffffffffffffffffffffffffffffffff1602179055508173ffffffffffffffffffffffffffffffffffffffff168173ffffffffffffffffffffffffffffffffffffffff167f8be0079c531659141344cd1fd0a4f28419497f9722a3daafe3b4186f6b6457e060405160405180910390a35050565b8173ffffffffffffffffffffffffffffffffffffffff168373ffffffffffffffffffffffffffffffffffffffff161415611bef576040517f08c379a0000000000000000000000000000000000000000000000000000000008152600401611be690613cf0565b60405180910390fd5b80600560008573ffffffffffffffffffffffffffffffffffffffff1673ffffffffffffffffffffffffffffffffffffffff16815260200190815260200160002060008473ffffffffffffffffffffffffffffffffffffffff1673ffffffffffffffffffffffffffffffffffffffff16815260200190815260200160002060006101000a81548160ff0219169083151502179055508173ffffffffffffffffffffffffffffffffffffffff168373ffffffffffffffffffffffffffffffffffffffff167f17307eab39ab6107e8899845ad3d59bd9653f200f220920489ca2b5937696c3183604051611ce091906128c5565b60405180910390a3505050565b611cf884848461185e565b611d04848484846122f3565b611d43576040517f08c379a0000000000000000000000000000000000000000000000000000000008152600401611d3a90613d82565b60405180910390fd5b50505050565b606060405180602001604052806000815250905090565b60606000821415611da8576040518060400160405280600181526020017f30000000000000000000000000000000000000000000000000000000000000008152509050611ebc565b600082905060005b60008214611dda578080611dc390613da2565b915050600a82611dd391906139f7565b9150611db0565b60008167ffffffffffffffff811115611df657611df5612d7b565b5b6040519080825280601f01601f191660200182016040528015611e285781602001600182028036833780820191505090505b5090505b60008514611eb557600182611e419190613445565b9150600a85611e509190613deb565b6030611e5c9190613874565b60f81b818381518110611e7257611e7161362f565b5b60200101907effffffffffffffffffffffffffffffffffffffffffffffffffffffffffffff1916908160001a905350600a85611eae91906139f7565b9450611e2c565b8093505050505b919050565b600073ffffffffffffffffffffffffffffffffffffffff168273ffffffffffffffffffffffffffffffffffffffff161415611f31576040517f08c379a0000000000000000000000000000000000000000000000000000000008152600401611f2890613e68565b60405180910390fd5b611f3a81611547565b15611f7a576040517f08c379a0000000000000000000000000000000000000000000000000000000008152600401611f7190613ed4565b60405180910390fd5b611f86600083836121df565b6001600360008473ffffffffffffffffffffffffffffffffffffffff1673ffffffffffffffffffffffffffffffffffffffff1681526020019081526020016000206000828254611fd69190613874565b92505081905550816002600083815260200190815260200160002060006101000a81548173ffffffffffffffffffffffffffffffffffffffff021916908373ffffffffffffffffffffffffffffffffffffffff160217905550808273ffffffffffffffffffffffffffffffffffffffff16600073ffffffffffffffffffffffffffffffffffffffff167fddf252ad1be2c89b69c2b068fc378daa952ba7f163c4a11628f55a4df523b3ef60405160405180910390a45050565b60008083148061209f5750600082145b156120ad576000905061216f565b60006b033b2e3c9fd0803ce8000000905060006002826120cd91906139f7565b905083817fffffffffffffffffffffffffffffffffffffffffffffffffffffffffffffffff6120fc9190613445565b61210691906139f7565b851115612148576040517f08c379a000000000000000000000000000000000000000000000000000000000815260040161213f90613a74565b60405180910390fd5b818185876121569190613a94565b6121609190613874565b61216a91906139f7565b925050505b92915050565b60007f01ffc9a7000000000000000000000000000000000000000000000000000000007bffffffffffffffffffffffffffffffffffffffffffffffffffffffff1916827bffffffffffffffffffffffffffffffffffffffffffffffffffffffff1916149050919050565b6121ea83838361248a565b600073ffffffffffffffffffffffffffffffffffffffff168373ffffffffffffffffffffffffffffffffffffffff16141561222d576122288161248f565b61226c565b8173ffffffffffffffffffffffffffffffffffffffff168373ffffffffffffffffffffffffffffffffffffffff161461226b5761226a83826124d8565b5b5b600073ffffffffffffffffffffffffffffffffffffffff168273ffffffffffffffffffffffffffffffffffffffff1614156122af576122aa81612645565b6122ee565b8273ffffffffffffffffffffffffffffffffffffffff168273ffffffffffffffffffffffffffffffffffffffff16146122ed576122ec8282612716565b5b5b505050565b60006123148473ffffffffffffffffffffffffffffffffffffffff16612795565b1561247d578373ffffffffffffffffffffffffffffffffffffffff1663150b7a0261233d6115b3565b8786866040518563ffffffff1660e01b815260040161235f9493929190613f49565b602060405180830381600087803b15801561237957600080fd5b505af19250505080156123aa57506040513d601f19601f820116820180604052508101906123a79190613faa565b60015b61242d573d80600081146123da576040519150601f19603f3d011682016040523d82523d6000602084013e6123df565b606091505b50600081511415612425576040517f08c379a000000000000000000000000000000000000000000000000000000000815260040161241c90613d82565b60405180910390fd5b805181602001fd5b63150b7a0260e01b7bffffffffffffffffffffffffffffffffffffffffffffffffffffffff1916817bffffffffffffffffffffffffffffffffffffffffffffffffffffffff191614915050612482565b600190505b949350505050565b505050565b6008805490506009600083815260200190815260200160002081905550600881908060018154018082558091505060019003906000526020600020016000909190919091505550565b600060016124e584610cea565b6124ef9190613445565b90506000600760008481526020019081526020016000205490508181146125d4576000600660008673ffffffffffffffffffffffffffffffffffffffff1673ffffffffffffffffffffffffffffffffffffffff168152602001908152602001600020600084815260200190815260200160002054905080600660008773ffffffffffffffffffffffffffffffffffffffff1673ffffffffffffffffffffffffffffffffffffffff168152602001908152602001600020600084815260200190815260200160002081905550816007600083815260200190815260200160002081905550505b6007600084815260200190815260200160002060009055600660008573ffffffffffffffffffffffffffffffffffffffff1673ffffffffffffffffffffffffffffffffffffffff16815260200190815260200160002060008381526020019081526020016000206000905550505050565b600060016008805490506126599190613445565b90506000600960008481526020019081526020016000205490506000600883815481106126895761268861362f565b5b9060005260206000200154905080600883815481106126ab576126aa61362f565b5b9060005260206000200181905550816009600083815260200190815260200160002081905550600960008581526020019081526020016000206000905560088054806126fa576126f9613fd7565b5b6001900381819060005260206000200160009055905550505050565b600061272183610cea565b905081600660008573ffffffffffffffffffffffffffffffffffffffff1673ffffffffffffffffffffffffffffffffffffffff168152602001908152602001600020600083815260200190815260200160002081905550806007600084815260200190815260200160002081905550505050565b600080823b905060008111915050919050565b6040518060e001604052806000815260200160008152602001600081526020016000815260200160008152602001600073ffffffffffffffffffffffffffffffffffffffff168152602001600073ffffffffffffffffffffffffffffffffffffffff1681525090565b6000604051905090565b600080fd5b600080fd5b60007fffffffff0000000000000000000000000000000000000000000000000000000082169050919050565b61285a81612825565b811461286557600080fd5b50565b60008135905061287781612851565b92915050565b6000602082840312156128935761289261281b565b5b60006128a184828501612868565b91505092915050565b60008115159050919050565b6128bf816128aa565b82525050565b60006020820190506128da60008301846128b6565b92915050565b600081519050919050565b600082825260208201905092915050565b60005b8381101561291a5780820151818401526020810190506128ff565b83811115612929576000848401525b50505050565b6000601f19601f8301169050919050565b600061294b826128e0565b61295581856128eb565b93506129658185602086016128fc565b61296e8161292f565b840191505092915050565b600060208201905081810360008301526129938184612940565b905092915050565b6000819050919050565b6129ae8161299b565b81146129b957600080fd5b50565b6000813590506129cb816129a5565b92915050565b6000602082840312156129e7576129e661281b565b5b60006129f5848285016129bc565b91505092915050565b600073ffffffffffffffffffffffffffffffffffffffff82169050919050565b6000612a29826129fe565b9050919050565b612a3981612a1e565b82525050565b6000602082019050612a546000830184612a30565b92915050565b612a6381612a1e565b8114612a6e57600080fd5b50565b600081359050612a8081612a5a565b92915050565b60008060408385031215612a9d57612a9c61281b565b5b6000612aab85828601612a71565b9250506020612abc858286016129bc565b9150509250929050565b612acf8161299b565b82525050565b6000602082019050612aea6000830184612ac6565b92915050565b600080600080600060a08688031215612b0c57612b0b61281b565b5b6000612b1a88828901612a71565b9550506020612b2b888289016129bc565b9450506040612b3c888289016129bc565b9350506060612b4d88828901612a71565b9250506080612b5e88828901612a71565b9150509295509295909350565b600060a082019050612b806000830188612ac6565b612b8d6020830187612ac6565b612b9a6040830186612ac6565b612ba76060830185612ac6565b612bb46080830184612ac6565b9695505050505050565b600080600060608486031215612bd757612bd661281b565b5b6000612be586828701612a71565b9350506020612bf686828701612a71565b9250506040612c07868287016129bc565b9150509250925092565b612c1a8161299b565b82525050565b612c2981612a1e565b82525050565b60e082016000820151612c456000850182612c11565b506020820151612c586020850182612c11565b506040820151612c6b6040850182612c11565b506060820151612c7e6060850182612c11565b506080820151612c916080850182612c11565b5060a0820151612ca460a0850182612c20565b5060c0820151612cb760c0850182612c20565b50505050565b600060e082019050612cd26000830184612c2f565b92915050565b600060208284031215612cee57612ced61281b565b5b6000612cfc84828501612a71565b91505092915050565b612d0e816128aa565b8114612d1957600080fd5b50565b600081359050612d2b81612d05565b92915050565b60008060408385031215612d4857612d4761281b565b5b6000612d5685828601612a71565b9250506020612d6785828601612d1c565b9150509250929050565b600080fd5b600080fd5b7f4e487b7100000000000000000000000000000000000000000000000000000000600052604160045260246000fd5b612db38261292f565b810181811067ffffffffffffffff82111715612dd257612dd1612d7b565b5b80604052505050565b6000612de5612811565b9050612df18282612daa565b919050565b600067ffffffffffffffff821115612e1157612e10612d7b565b5b612e1a8261292f565b9050602081019050919050565b82818337600083830152505050565b6000612e49612e4484612df6565b612ddb565b905082815260208101848484011115612e6557612e64612d76565b5b612e70848285612e27565b509392505050565b600082601f830112612e8d57612e8c612d71565b5b8135612e9d848260208601612e36565b91505092915050565b60008060008060808587031215612ec057612ebf61281b565b5b6000612ece87828801612a71565b9450506020612edf87828801612a71565b9350506040612ef0878288016129bc565b925050606085013567ffffffffffffffff811115612f1157612f10612820565b5b612f1d87828801612e78565b91505092959194509250565b60008060408385031215612f4057612f3f61281b565b5b6000612f4e85828601612a71565b9250506020612f5f85828601612a71565b9150509250929050565b60008060008060008060c08789031215612f8657612f8561281b565b5b6000612f9489828a01612a71565b9650506020612fa589828a016129bc565b9550506040612fb689828a016129bc565b9450506060612fc789828a016129bc565b9350506080612fd889828a01612a71565b92505060a0612fe989828a01612a71565b9150509295509295509295565b6000806040838503121561300d5761300c61281b565b5b600061301b858286016129bc565b925050602061302c858286016129bc565b9150509250929050565b7f4e487b7100000000000000000000000000000000000000000000000000000000600052602260045260246000fd5b6000600282049050600182168061307d57607f821691505b6020821081141561309157613090613036565b5b50919050565b7f4552433732313a20617070726f76656420717565727920666f72206e6f6e657860008201527f697374656e7420746f6b656e0000000000000000000000000000000000000000602082015250565b60006130f3602c836128eb565b91506130fe82613097565b604082019050919050565b60006020820190508181036000830152613122816130e6565b9050919050565b7f4552433732313a20617070726f76616c20746f2063757272656e74206f776e6560008201527f7200000000000000000000000000000000000000000000000000000000000000602082015250565b60006131856021836128eb565b915061319082613129565b604082019050919050565b600060208201905081810360008301526131b481613178565b9050919050565b7f4552433732313a20617070726f76652063616c6c6572206973206e6f74206f7760008201527f6e6572206e6f7220617070726f76656420666f7220616c6c0000000000000000602082015250565b60006132176038836128eb565b9150613222826131bb565b604082019050919050565b600060208201905081810360008301526132468161320a565b9050919050565b7f4f776e61626c653a2063616c6c6572206973206e6f7420746865206f776e6572600082015250565b60006132836020836128eb565b915061328e8261324d565b602082019050919050565b600060208201905081810360008301526132b281613276565b9050919050565b60008160601b9050919050565b60006132d1826132b9565b9050919050565b60006132e3826132c6565b9050919050565b6132fb6132f682612a1e565b6132d8565b82525050565b600061330d82866132ea565b60148201915061331d82856132ea565b60148201915061332d82846132ea565b601482019150819050949350505050565b7f746f6b656e496420646f65736e27742065786973740000000000000000000000600082015250565b60006133746015836128eb565b915061337f8261333e565b602082019050919050565b600060208201905081810360008301526133a381613367565b9050919050565b7f696e73756666696369656e742062616c616e6365000000000000000000000000600082015250565b60006133e06014836128eb565b91506133eb826133aa565b602082019050919050565b6000602082019050818103600083015261340f816133d3565b9050919050565b7f4e487b7100000000000000000000000000000000000000000000000000000000600052601160045260246000fd5b60006134508261299b565b915061345b8361299b565b92508282101561346e5761346d613416565b5b828203905092915050565b7f4552433732313a207472616e736665722063616c6c6572206973206e6f74206f60008201527f776e6572206e6f7220617070726f766564000000000000000000000000000000602082015250565b60006134d56031836128eb565b91506134e082613479565b604082019050919050565b60006020820190508181036000830152613504816134c8565b9050919050565b7f455243373231456e756d657261626c653a206f776e657220696e646578206f7560008201527f74206f6620626f756e6473000000000000000000000000000000000000000000602082015250565b6000613567602b836128eb565b91506135728261350b565b604082019050919050565b600060208201905081810360008301526135968161355a565b9050919050565b7f455243373231456e756d657261626c653a20676c6f62616c20696e646578206f60008201527f7574206f6620626f756e64730000000000000000000000000000000000000000602082015250565b60006135f9602c836128eb565b91506136048261359d565b604082019050919050565b60006020820190508181036000830152613628816135ec565b9050919050565b7f4e487b7100000000000000000000000000000000000000000000000000000000600052603260045260246000fd5b7f4552433732313a206f776e657220717565727920666f72206e6f6e657869737460008201527f656e7420746f6b656e0000000000000000000000000000000000000000000000602082015250565b60006136ba6029836128eb565b91506136c58261365e565b604082019050919050565b600060208201905081810360008301526136e9816136ad565b9050919050565b7f4552433732313a2062616c616e636520717565727920666f7220746865207a6560008201527f726f206164647265737300000000000000000000000000000000000000000000602082015250565b600061374c602a836128eb565b9150613757826136f0565b604082019050919050565b6000602082019050818103600083015261377b8161373f565b9050919050565b7f4552433732314d657461646174613a2055524920717565727920666f72206e6f60008201527f6e6578697374656e7420746f6b656e0000000000000000000000000000000000602082015250565b60006137de602f836128eb565b91506137e982613782565b604082019050919050565b6000602082019050818103600083015261380d816137d1565b9050919050565b600081905092915050565b600061382a826128e0565b6138348185613814565b93506138448185602086016128fc565b80840191505092915050565b600061385c828561381f565b9150613868828461381f565b91508190509392505050565b600061387f8261299b565b915061388a8361299b565b9250827fffffffffffffffffffffffffffffffffffffffffffffffffffffffffffffffff038211156138bf576138be613416565b5b828201905092915050565b7f4f776e61626c653a206e6577206f776e657220697320746865207a65726f206160008201527f6464726573730000000000000000000000000000000000000000000000000000602082015250565b60006139266026836128eb565b9150613931826138ca565b604082019050919050565b6000602082019050818103600083015261395581613919565b9050919050565b7f6469766973696f6e206279203000000000000000000000000000000000000000600082015250565b6000613992600d836128eb565b915061399d8261395c565b602082019050919050565b600060208201905081810360008301526139c181613985565b9050919050565b7f4e487b7100000000000000000000000000000000000000000000000000000000600052601260045260246000fd5b6000613a028261299b565b9150613a0d8361299b565b925082613a1d57613a1c6139c8565b5b828204905092915050565b7f6d756c7469706c69636174696f6e206f766572666c6f77000000000000000000600082015250565b6000613a5e6017836128eb565b9150613a6982613a28565b602082019050919050565b60006020820190508181036000830152613a8d81613a51565b9050919050565b6000613a9f8261299b565b9150613aaa8361299b565b9250817fffffffffffffffffffffffffffffffffffffffffffffffffffffffffffffffff0483118215151615613ae357613ae2613416565b5b828202905092915050565b7f4552433732313a206f70657261746f7220717565727920666f72206e6f6e657860008201527f697374656e7420746f6b656e0000000000000000000000000000000000000000602082015250565b6000613b4a602c836128eb565b9150613b5582613aee565b604082019050919050565b60006020820190508181036000830152613b7981613b3d565b9050919050565b7f4552433732313a207472616e73666572206f6620746f6b656e2074686174206960008201527f73206e6f74206f776e0000000000000000000000000000000000000000000000602082015250565b6000613bdc6029836128eb565b9150613be782613b80565b604082019050919050565b60006020820190508181036000830152613c0b81613bcf565b9050919050565b7f4552433732313a207472616e7366657220746f20746865207a65726f2061646460008201527f7265737300000000000000000000000000000000000000000000000000000000602082015250565b6000613c6e6024836128eb565b9150613c7982613c12565b604082019050919050565b60006020820190508181036000830152613c9d81613c61565b9050919050565b7f4552433732313a20617070726f766520746f2063616c6c657200000000000000600082015250565b6000613cda6019836128eb565b9150613ce582613ca4565b602082019050919050565b60006020820190508181036000830152613d0981613ccd565b9050919050565b7f4552433732313a207472616e7366657220746f206e6f6e20455243373231526560008201527f63656976657220696d706c656d656e7465720000000000000000000000000000602082015250565b6000613d6c6032836128eb565b9150613d7782613d10565b604082019050919050565b60006020820190508181036000830152613d9b81613d5f565b9050919050565b6000613dad8261299b565b91507fffffffffffffffffffffffffffffffffffffffffffffffffffffffffffffffff821415613de057613ddf613416565b5b600182019050919050565b6000613df68261299b565b9150613e018361299b565b925082613e1157613e106139c8565b5b828206905092915050565b7f4552433732313a206d696e7420746f20746865207a65726f2061646472657373600082015250565b6000613e526020836128eb565b9150613e5d82613e1c565b602082019050919050565b60006020820190508181036000830152613e8181613e45565b9050919050565b7f4552433732313a20746f6b656e20616c7265616479206d696e74656400000000600082015250565b6000613ebe601c836128eb565b9150613ec982613e88565b602082019050919050565b60006020820190508181036000830152613eed81613eb1565b9050919050565b600081519050919050565b600082825260208201905092915050565b6000613f1b82613ef4565b613f258185613eff565b9350613f358185602086016128fc565b613f3e8161292f565b840191505092915050565b6000608082019050613f5e6000830187612a30565b613f6b6020830186612a30565b613f786040830185612ac6565b8181036060830152613f8a8184613f10565b905095945050505050565b600081519050613fa481612851565b92915050565b600060208284031215613fc057613fbf61281b565b5b6000613fce84828501613f95565b91505092915050565b7f4e487b7100000000000000000000000000000000000000000000000000000000600052603160045260246000fdfea26469706673582212203f9df27aea069c0935f294e920878cff94d96ba65f867d8b79f48307a557b41464736f6c63430008090033",
  "immutableReferences": {},
  "source": "// SPDX-License-Identifier: MIT\npragma solidity 0.8.9;\n\nimport \"@openzeppelin/contracts/token/ERC721/extensions/ERC721Enumerable.sol\";\nimport \"@openzeppelin/contracts/access/Ownable.sol\";\n\ncontract JCDepositorERC721 is ERC721Enumerable, Ownable {\n\n    struct Deposit {\n        uint256 balance;\n        uint256 totalDeposits;\n        uint256 amountScaled;\n        uint256 timeStamp;\n        uint256 liquidityIndex;\n        address pool;\n        address asset;\n    }\n    //key = keccak hash of depositor, pool and asset addresses\n    mapping (uint256 => Deposit) deposits;\n\n    constructor() ERC721(\"JCP Depositor Token\", \"JCPT_TEST_D1\") {\n\n    }\n\n    function addFunds(address _tokenOwner, uint256 _amount, uint256 _liquidityIndex, uint256 _timeStamp, address _pool, address _asset) onlyOwner public returns (uint256) {\n        //_tokenIds.increment();\n        //uint256 tokenId = _tokenIds.current();\n        uint256 tokenId = uint256(keccak256(abi.encodePacked(_tokenOwner, _pool, _asset)));\n        if(_exists(tokenId)){\n            deposits[tokenId].balance += _amount;\n            deposits[tokenId].totalDeposits += _amount;\n            deposits[tokenId].amountScaled += rayDiv(_amount, _liquidityIndex);\n        }\n        else{\n            deposits[tokenId] = Deposit(_amount, _amount, rayDiv(_amount, _liquidityIndex), _timeStamp, _liquidityIndex, _pool, _asset);\n            _mint(_tokenOwner, tokenId);\n        }\n        //_setTokenURI(tokenId, tokenURI);\n\n        return tokenId;\n    }\n\n    //event Withdraw(uint256 amount, uint256 oldAmountScaled, uint256 newAmountScaled, uint256 oldLiquidityIndex, uint256 liquidityIndex);\n    function withdrawFunds(address _tokenOwner, uint256 _amount, uint256 _liquidityIndex, address _pool, address _asset) onlyOwner\n                        public returns (uint256, uint256, uint256, uint256, uint256) {\n        uint256 tokenId = uint256(keccak256(abi.encodePacked(_tokenOwner, _pool, _asset)));\n        require(_exists(tokenId), \"tokenId doesn't exist\");\n\n        uint256 balance = deposits[tokenId].balance;\n        require(balance >= _amount, \"insufficient balance\");\n        balance -= _amount;\n        /*if(balance == 0){\n            //delete deposits[tokenId];\n            //_burn(tokenId);\n        }*/\n        //_setTokenURI(tokenId, tokenURI);\n        deposits[tokenId].balance = balance;\n        uint256 oldAmountScaled = deposits[tokenId].amountScaled;\n        deposits[tokenId].amountScaled -= rayDiv(_amount, _liquidityIndex);\n        return(_amount, oldAmountScaled, deposits[tokenId].amountScaled , deposits[tokenId].liquidityIndex, _liquidityIndex);\n    }\n\n    function getDepositInfo(uint256 _tokenId) public view returns (Deposit memory){ //uint256 balace, uint256 totalDeposits, uint256 timeStamp, uint256 liquidityIndex, address pool, address asset) {\n        return deposits[_tokenId];\n    }\n\n    function getATokenAmount(uint256 _tokenId, uint256 _reserveNormalizedIncome) external view returns(uint256){\n        return rayMul(deposits[_tokenId].amountScaled, _reserveNormalizedIncome);\n    }\n    /**\n   * @dev Divides two ray, rounding half up to the nearest ray\n   * @param a Ray\n   * @param b Ray\n   * @return The result of a/b, in ray\n   **/\n    function rayDiv(uint256 a, uint256 b) internal pure returns (uint256) {\n        require(b != 0, 'division by 0');\n        uint256 halfB = b / 2;\n\n        uint256 ray = 1e27;\n        require(a <= (type(uint256).max - halfB) / ray, 'multiplication overflow');\n\n        return (a * ray + halfB) / b;\n    }\n\n   /**\n   * @dev Multiplies two ray, rounding half up to the nearest ray\n   * @param a Ray\n   * @param b Ray\n   * @return The result of a*b, in ray\n   **/\n  function rayMul(uint256 a, uint256 b) internal pure returns (uint256) {\n    if (a == 0 || b == 0) {\n      return 0;\n    }\n\n    uint256 ray = 1e27;\n    uint256 halfRAY = ray / 2;\n    require(a <= (type(uint256).max - halfRAY) / b, 'multiplication overflow');\n\n    return (a * b + halfRAY) / ray;\n  }\n}",
  "sourcePath": "/home/smeee/just_cause/contracts/JCDepositorERC721.sol",
  "compiler": {
    "name": "solc",
    "version": "0.8.9+commit.e5eed63a.Emscripten.clang"
  },
  "schemaVersion": "3.4.3",
  "updatedAt": "2022-02-09T18:59:21.925Z",
  "devdoc": {
    "kind": "dev",
    "methods": {
      "approve(address,uint256)": {
        "details": "See {IERC721-approve}."
      },
      "balanceOf(address)": {
        "details": "See {IERC721-balanceOf}."
      },
      "getApproved(uint256)": {
        "details": "See {IERC721-getApproved}."
      },
      "isApprovedForAll(address,address)": {
        "details": "See {IERC721-isApprovedForAll}."
      },
      "name()": {
        "details": "See {IERC721Metadata-name}."
      },
      "owner()": {
        "details": "Returns the address of the current owner."
      },
      "ownerOf(uint256)": {
        "details": "See {IERC721-ownerOf}."
      },
      "renounceOwnership()": {
        "details": "Leaves the contract without owner. It will not be possible to call `onlyOwner` functions anymore. Can only be called by the current owner. NOTE: Renouncing ownership will leave the contract without an owner, thereby removing any functionality that is only available to the owner."
      },
      "safeTransferFrom(address,address,uint256)": {
        "details": "See {IERC721-safeTransferFrom}."
      },
      "safeTransferFrom(address,address,uint256,bytes)": {
        "details": "See {IERC721-safeTransferFrom}."
      },
      "setApprovalForAll(address,bool)": {
        "details": "See {IERC721-setApprovalForAll}."
      },
      "supportsInterface(bytes4)": {
        "details": "See {IERC165-supportsInterface}."
      },
      "symbol()": {
        "details": "See {IERC721Metadata-symbol}."
      },
      "tokenByIndex(uint256)": {
        "details": "See {IERC721Enumerable-tokenByIndex}."
      },
      "tokenOfOwnerByIndex(address,uint256)": {
        "details": "See {IERC721Enumerable-tokenOfOwnerByIndex}."
      },
      "tokenURI(uint256)": {
        "details": "See {IERC721Metadata-tokenURI}."
      },
      "totalSupply()": {
        "details": "See {IERC721Enumerable-totalSupply}."
      },
      "transferFrom(address,address,uint256)": {
        "details": "See {IERC721-transferFrom}."
      },
      "transferOwnership(address)": {
        "details": "Transfers ownership of the contract to a new account (`newOwner`). Can only be called by the current owner."
      }
    },
    "version": 1
  },
  "userdoc": {
    "kind": "user",
    "methods": {},
    "version": 1
  }
}