{
  "contractName": "JCDepositorERC721",
  "abi": [
    {
      "inputs": [
        {
          "internalType": "address",
          "name": "_poolAddressesProviderAddr",
          "type": "address"
        }
      ],
      "stateMutability": "nonpayable",
      "type": "constructor"
    },
    {
      "anonymous": false,
      "inputs": [
        {
          "indexed": true,
          "internalType": "address",
          "name": "owner",
          "type": "address"
        },
        {
          "indexed": true,
          "internalType": "address",
          "name": "approved",
          "type": "address"
        },
        {
          "indexed": true,
          "internalType": "uint256",
          "name": "tokenId",
          "type": "uint256"
        }
      ],
      "name": "Approval",
      "type": "event"
    },
    {
      "anonymous": false,
      "inputs": [
        {
          "indexed": true,
          "internalType": "address",
          "name": "owner",
          "type": "address"
        },
        {
          "indexed": true,
          "internalType": "address",
          "name": "operator",
          "type": "address"
        },
        {
          "indexed": false,
          "internalType": "bool",
          "name": "approved",
          "type": "bool"
        }
      ],
      "name": "ApprovalForAll",
      "type": "event"
    },
    {
      "anonymous": false,
      "inputs": [
        {
          "indexed": true,
          "internalType": "address",
          "name": "previousOwner",
          "type": "address"
        },
        {
          "indexed": true,
          "internalType": "address",
          "name": "newOwner",
          "type": "address"
        }
      ],
      "name": "OwnershipTransferred",
      "type": "event"
    },
    {
      "anonymous": false,
      "inputs": [
        {
          "indexed": true,
          "internalType": "address",
          "name": "from",
          "type": "address"
        },
        {
          "indexed": true,
          "internalType": "address",
          "name": "to",
          "type": "address"
        },
        {
          "indexed": true,
          "internalType": "uint256",
          "name": "tokenId",
          "type": "uint256"
        }
      ],
      "name": "Transfer",
      "type": "event"
    },
    {
      "inputs": [
        {
          "internalType": "address",
          "name": "to",
          "type": "address"
        },
        {
          "internalType": "uint256",
          "name": "tokenId",
          "type": "uint256"
        }
      ],
      "name": "approve",
      "outputs": [],
      "stateMutability": "nonpayable",
      "type": "function"
    },
    {
      "inputs": [
        {
          "internalType": "address",
          "name": "owner",
          "type": "address"
        }
      ],
      "name": "balanceOf",
      "outputs": [
        {
          "internalType": "uint256",
          "name": "",
          "type": "uint256"
        }
      ],
      "stateMutability": "view",
      "type": "function"
    },
    {
      "inputs": [
        {
          "internalType": "uint256",
          "name": "tokenId",
          "type": "uint256"
        }
      ],
      "name": "getApproved",
      "outputs": [
        {
          "internalType": "address",
          "name": "",
          "type": "address"
        }
      ],
      "stateMutability": "view",
      "type": "function"
    },
    {
      "inputs": [
        {
          "internalType": "address",
          "name": "owner",
          "type": "address"
        },
        {
          "internalType": "address",
          "name": "operator",
          "type": "address"
        }
      ],
      "name": "isApprovedForAll",
      "outputs": [
        {
          "internalType": "bool",
          "name": "",
          "type": "bool"
        }
      ],
      "stateMutability": "view",
      "type": "function"
    },
    {
      "inputs": [],
      "name": "name",
      "outputs": [
        {
          "internalType": "string",
          "name": "",
          "type": "string"
        }
      ],
      "stateMutability": "view",
      "type": "function"
    },
    {
      "inputs": [],
      "name": "owner",
      "outputs": [
        {
          "internalType": "address",
          "name": "",
          "type": "address"
        }
      ],
      "stateMutability": "view",
      "type": "function"
    },
    {
      "inputs": [
        {
          "internalType": "uint256",
          "name": "tokenId",
          "type": "uint256"
        }
      ],
      "name": "ownerOf",
      "outputs": [
        {
          "internalType": "address",
          "name": "",
          "type": "address"
        }
      ],
      "stateMutability": "view",
      "type": "function"
    },
    {
      "inputs": [],
      "name": "renounceOwnership",
      "outputs": [],
      "stateMutability": "nonpayable",
      "type": "function"
    },
    {
      "inputs": [
        {
          "internalType": "address",
          "name": "from",
          "type": "address"
        },
        {
          "internalType": "address",
          "name": "to",
          "type": "address"
        },
        {
          "internalType": "uint256",
          "name": "tokenId",
          "type": "uint256"
        }
      ],
      "name": "safeTransferFrom",
      "outputs": [],
      "stateMutability": "nonpayable",
      "type": "function"
    },
    {
      "inputs": [
        {
          "internalType": "address",
          "name": "from",
          "type": "address"
        },
        {
          "internalType": "address",
          "name": "to",
          "type": "address"
        },
        {
          "internalType": "uint256",
          "name": "tokenId",
          "type": "uint256"
        },
        {
          "internalType": "bytes",
          "name": "_data",
          "type": "bytes"
        }
      ],
      "name": "safeTransferFrom",
      "outputs": [],
      "stateMutability": "nonpayable",
      "type": "function"
    },
    {
      "inputs": [
        {
          "internalType": "address",
          "name": "operator",
          "type": "address"
        },
        {
          "internalType": "bool",
          "name": "approved",
          "type": "bool"
        }
      ],
      "name": "setApprovalForAll",
      "outputs": [],
      "stateMutability": "nonpayable",
      "type": "function"
    },
    {
      "inputs": [],
      "name": "symbol",
      "outputs": [
        {
          "internalType": "string",
          "name": "",
          "type": "string"
        }
      ],
      "stateMutability": "view",
      "type": "function"
    },
    {
      "inputs": [
        {
          "internalType": "uint256",
          "name": "index",
          "type": "uint256"
        }
      ],
      "name": "tokenByIndex",
      "outputs": [
        {
          "internalType": "uint256",
          "name": "",
          "type": "uint256"
        }
      ],
      "stateMutability": "view",
      "type": "function"
    },
    {
      "inputs": [
        {
          "internalType": "address",
          "name": "owner",
          "type": "address"
        },
        {
          "internalType": "uint256",
          "name": "index",
          "type": "uint256"
        }
      ],
      "name": "tokenOfOwnerByIndex",
      "outputs": [
        {
          "internalType": "uint256",
          "name": "",
          "type": "uint256"
        }
      ],
      "stateMutability": "view",
      "type": "function"
    },
    {
      "inputs": [],
      "name": "totalSupply",
      "outputs": [
        {
          "internalType": "uint256",
          "name": "",
          "type": "uint256"
        }
      ],
      "stateMutability": "view",
      "type": "function"
    },
    {
      "inputs": [
        {
          "internalType": "address",
          "name": "from",
          "type": "address"
        },
        {
          "internalType": "address",
          "name": "to",
          "type": "address"
        },
        {
          "internalType": "uint256",
          "name": "tokenId",
          "type": "uint256"
        }
      ],
      "name": "transferFrom",
      "outputs": [],
      "stateMutability": "nonpayable",
      "type": "function"
    },
    {
      "inputs": [
        {
          "internalType": "address",
          "name": "newOwner",
          "type": "address"
        }
      ],
      "name": "transferOwnership",
      "outputs": [],
      "stateMutability": "nonpayable",
      "type": "function"
    },
    {
      "inputs": [
        {
          "internalType": "address",
          "name": "_tokenOwner",
          "type": "address"
        },
        {
          "internalType": "uint256",
          "name": "_amount",
          "type": "uint256"
        },
        {
          "internalType": "uint256",
          "name": "_timeStamp",
          "type": "uint256"
        },
        {
          "internalType": "address",
          "name": "_pool",
          "type": "address"
        },
        {
          "internalType": "address",
          "name": "_asset",
          "type": "address"
        },
        {
          "internalType": "string",
          "name": "_metaUri",
          "type": "string"
        }
      ],
      "name": "addFunds",
      "outputs": [
        {
          "internalType": "uint256",
          "name": "",
          "type": "uint256"
        }
      ],
      "stateMutability": "nonpayable",
      "type": "function"
    },
    {
      "inputs": [
        {
          "internalType": "address",
          "name": "_tokenOwner",
          "type": "address"
        },
        {
          "internalType": "uint256",
          "name": "_amount",
          "type": "uint256"
        },
        {
          "internalType": "address",
          "name": "_pool",
          "type": "address"
        },
        {
          "internalType": "address",
          "name": "_asset",
          "type": "address"
        }
      ],
      "name": "withdrawFunds",
      "outputs": [],
      "stateMutability": "nonpayable",
      "type": "function"
    },
    {
      "inputs": [
        {
          "internalType": "uint256",
          "name": "_tokenId",
          "type": "uint256"
        }
      ],
      "name": "getDepositInfo",
      "outputs": [
        {
          "components": [
            {
              "internalType": "uint256",
              "name": "balance",
              "type": "uint256"
            },
            {
              "internalType": "uint256",
              "name": "timeStamp",
              "type": "uint256"
            },
            {
              "internalType": "uint256",
              "name": "amountScaled",
              "type": "uint256"
            },
            {
              "internalType": "address",
              "name": "pool",
              "type": "address"
            },
            {
              "internalType": "address",
              "name": "asset",
              "type": "address"
            }
          ],
          "internalType": "struct JCDepositorERC721.Deposit",
          "name": "",
          "type": "tuple"
        }
      ],
      "stateMutability": "view",
      "type": "function"
    },
    {
      "inputs": [
        {
          "internalType": "uint256",
          "name": "_tokenId",
          "type": "uint256"
        }
      ],
      "name": "getUserBalance",
      "outputs": [
        {
          "internalType": "uint256",
          "name": "",
          "type": "uint256"
        }
      ],
      "stateMutability": "view",
      "type": "function"
    },
    {
      "inputs": [
        {
          "internalType": "address",
          "name": "_asset",
          "type": "address"
        }
      ],
      "name": "getReserveNormalizedIncome",
      "outputs": [
        {
          "internalType": "uint256",
          "name": "",
          "type": "uint256"
        }
      ],
      "stateMutability": "view",
      "type": "function"
    },
    {
      "inputs": [
        {
          "internalType": "address",
          "name": "_asset",
          "type": "address"
        }
      ],
      "name": "getAaveLiquidityIndex",
      "outputs": [
        {
          "internalType": "uint256",
          "name": "liquidityIndex",
          "type": "uint256"
        }
      ],
      "stateMutability": "view",
      "type": "function"
    },
    {
      "inputs": [
        {
          "internalType": "bytes4",
          "name": "interfaceId",
          "type": "bytes4"
        }
      ],
      "name": "supportsInterface",
      "outputs": [
        {
          "internalType": "bool",
          "name": "",
          "type": "bool"
        }
      ],
      "stateMutability": "view",
      "type": "function"
    },
    {
      "inputs": [
        {
          "internalType": "uint256",
          "name": "tokenId",
          "type": "uint256"
        }
      ],
      "name": "tokenURI",
      "outputs": [
        {
          "internalType": "string",
          "name": "",
          "type": "string"
        }
      ],
      "stateMutability": "view",
      "type": "function"
    }
  ],
  "bytecode": "0x60806040523480156200001157600080fd5b5060405162004d0d38038062004d0d83398181016040528101906200003791906200040b565b6040518060400160405280601581526020017f4a435020436f6e7472696275746f7220546f6b656e00000000000000000000008152506040518060400160405280600481526020017f4a435043000000000000000000000000000000000000000000000000000000008152508160009080519060200190620000bb929190620002f1565b508060019080519060200190620000d4929190620002f1565b505050620000f7620000eb6200022360201b60201c565b6200022b60201b60201c565b80600c60006101000a81548173ffffffffffffffffffffffffffffffffffffffff021916908373ffffffffffffffffffffffffffffffffffffffff160217905550600c60009054906101000a900473ffffffffffffffffffffffffffffffffffffffff1673ffffffffffffffffffffffffffffffffffffffff1663026b1d5f6040518163ffffffff1660e01b815260040160206040518083038186803b158015620001a157600080fd5b505afa158015620001b6573d6000803e3d6000fd5b505050506040513d601f19601f82011682018060405250810190620001dc91906200040b565b600d60006101000a81548173ffffffffffffffffffffffffffffffffffffffff021916908373ffffffffffffffffffffffffffffffffffffffff16021790555050620004a2565b600033905090565b6000600b60009054906101000a900473ffffffffffffffffffffffffffffffffffffffff16905081600b60006101000a81548173ffffffffffffffffffffffffffffffffffffffff021916908373ffffffffffffffffffffffffffffffffffffffff1602179055508173ffffffffffffffffffffffffffffffffffffffff168173ffffffffffffffffffffffffffffffffffffffff167f8be0079c531659141344cd1fd0a4f28419497f9722a3daafe3b4186f6b6457e060405160405180910390a35050565b828054620002ff906200046c565b90600052602060002090601f0160209004810192826200032357600085556200036f565b82601f106200033e57805160ff19168380011785556200036f565b828001600101855582156200036f579182015b828111156200036e57825182559160200191906001019062000351565b5b5090506200037e919062000382565b5090565b5b808211156200039d57600081600090555060010162000383565b5090565b600080fd5b600073ffffffffffffffffffffffffffffffffffffffff82169050919050565b6000620003d382620003a6565b9050919050565b620003e581620003c6565b8114620003f157600080fd5b50565b6000815190506200040581620003da565b92915050565b600060208284031215620004245762000423620003a1565b5b60006200043484828501620003f4565b91505092915050565b7f4e487b7100000000000000000000000000000000000000000000000000000000600052602260045260246000fd5b600060028204905060018216806200048557607f821691505b602082108114156200049c576200049b6200043d565b5b50919050565b61485b80620004b26000396000f3fe608060405234801561001057600080fd5b50600436106101735760003560e01c80636352211e116100de57806395d89b4111610097578063c87b56dd11610071578063c87b56dd14610482578063d15e0053146104b2578063e985e9c5146104e2578063f2fde38b1461051257610173565b806395d89b411461042c578063a22cb4651461044a578063b88d4fde1461046657610173565b80636352211e146103585780636ba3fef21461038857806370a08231146103a4578063715018a6146103d45780638aebe8d6146103de5780638da5cb5b1461040e57610173565b806323b872dd1161013057806323b872dd146102605780632e0c3f3c1461027c5780632f745c59146102ac57806342842e0e146102dc5780634f6ccce7146102f85780635328c2bf1461032857610173565b806301ffc9a71461017857806306fdde03146101a8578063081812fc146101c6578063095ea7b3146101f65780631310fef71461021257806318160ddd14610242575b600080fd5b610192600480360381019061018d9190612c33565b61052e565b60405161019f9190612c7b565b60405180910390f35b6101b0610540565b6040516101bd9190612d2f565b60405180910390f35b6101e060048036038101906101db9190612d87565b6105d2565b6040516101ed9190612df5565b60405180910390f35b610210600480360381019061020b9190612e3c565b610657565b005b61022c60048036038101906102279190612fb1565b61076f565b6040516102399190613069565b60405180910390f35b61024a6109ff565b6040516102579190613069565b60405180910390f35b61027a60048036038101906102759190613084565b610a0c565b005b61029660048036038101906102919190612d87565b610a6c565b6040516102a39190613069565b60405180910390f35b6102c660048036038101906102c19190612e3c565b610a8c565b6040516102d39190613069565b60405180910390f35b6102f660048036038101906102f19190613084565b610b31565b005b610312600480360381019061030d9190612d87565b610b51565b60405161031f9190613069565b60405180910390f35b610342600480360381019061033d9190612d87565b610bc2565b60405161034f919061315d565b60405180910390f35b610372600480360381019061036d9190612d87565b610cb9565b60405161037f9190612df5565b60405180910390f35b6103a2600480360381019061039d9190613178565b610d6b565b005b6103be60048036038101906103b991906131df565b610f75565b6040516103cb9190613069565b60405180910390f35b6103dc61102d565b005b6103f860048036038101906103f391906131df565b6110b5565b6040516104059190613069565b60405180910390f35b610416611180565b6040516104239190612df5565b60405180910390f35b6104346111aa565b6040516104419190612d2f565b60405180910390f35b610464600480360381019061045f9190613238565b61123c565b005b610480600480360381019061047b9190613319565b611252565b005b61049c60048036038101906104979190612d87565b6112b4565b6040516104a99190612d2f565b60405180910390f35b6104cc60048036038101906104c791906131df565b6112c6565b6040516104d99190613069565b60405180910390f35b6104fc60048036038101906104f7919061339c565b61137a565b6040516105099190612c7b565b60405180910390f35b61052c600480360381019061052791906131df565b61140e565b005b600061053982611506565b9050919050565b60606000805461054f9061340b565b80601f016020809104026020016040519081016040528092919081815260200182805461057b9061340b565b80156105c85780601f1061059d576101008083540402835291602001916105c8565b820191906000526020600020905b8154815290600101906020018083116105ab57829003601f168201915b5050505050905090565b60006105dd82611580565b61061c576040517f08c379a0000000000000000000000000000000000000000000000000000000008152600401610613906134af565b60405180910390fd5b6004600083815260200190815260200160002060009054906101000a900473ffffffffffffffffffffffffffffffffffffffff169050919050565b600061066282610cb9565b90508073ffffffffffffffffffffffffffffffffffffffff168373ffffffffffffffffffffffffffffffffffffffff1614156106d3576040517f08c379a00000000000000000000000000000000000000000000000000000000081526004016106ca90613541565b60405180910390fd5b8073ffffffffffffffffffffffffffffffffffffffff166106f26115ec565b73ffffffffffffffffffffffffffffffffffffffff16148061072157506107208161071b6115ec565b61137a565b5b610760576040517f08c379a0000000000000000000000000000000000000000000000000000000008152600401610757906135d3565b60405180910390fd5b61076a83836115f4565b505050565b60006107796115ec565b73ffffffffffffffffffffffffffffffffffffffff16610797611180565b73ffffffffffffffffffffffffffffffffffffffff16146107ed576040517f08c379a00000000000000000000000000000000000000000000000000000000081526004016107e49061363f565b60405180910390fd5b6000878585604051602001610804939291906136a7565b6040516020818303038152906040528051906020012060001c9050600061082a856110b5565b905061083582611580565b156108bd5786600e60008481526020019081526020016000206001018190555087600e6000848152602001908152602001600020600001600082825461087b9190613713565b9250508190555061088c88826116ad565b600e600084815260200190815260200160002060020160008282546108b19190613713565b925050819055506109f0565b6040518060a001604052808981526020018881526020016108de8a846116ad565b81526020018773ffffffffffffffffffffffffffffffffffffffff1681526020018673ffffffffffffffffffffffffffffffffffffffff16815250600e600084815260200190815260200160002060008201518160000155602082015181600101556040820151816002015560608201518160030160006101000a81548173ffffffffffffffffffffffffffffffffffffffff021916908373ffffffffffffffffffffffffffffffffffffffff16021790555060808201518160040160006101000a81548173ffffffffffffffffffffffffffffffffffffffff021916908373ffffffffffffffffffffffffffffffffffffffff1602179055509050506109e589836117b9565b6109ef8285611987565b5b81925050509695505050505050565b6000600880549050905090565b610a1d610a176115ec565b826119fb565b610a5c576040517f08c379a0000000000000000000000000000000000000000000000000000000008152600401610a53906137db565b60405180910390fd5b610a67838383611ad9565b505050565b6000600e6000838152602001908152602001600020600001549050919050565b6000610a9783610f75565b8210610ad8576040517f08c379a0000000000000000000000000000000000000000000000000000000008152600401610acf9061386d565b60405180910390fd5b600660008473ffffffffffffffffffffffffffffffffffffffff1673ffffffffffffffffffffffffffffffffffffffff168152602001908152602001600020600083815260200190815260200160002054905092915050565b610b4c83838360405180602001604052806000815250611252565b505050565b6000610b5b6109ff565b8210610b9c576040517f08c379a0000000000000000000000000000000000000000000000000000000008152600401610b93906138ff565b60405180910390fd5b60088281548110610bb057610baf61391f565b5b90600052602060002001549050919050565b610bca612ac9565b600e60008381526020019081526020016000206040518060a00160405290816000820154815260200160018201548152602001600282015481526020016003820160009054906101000a900473ffffffffffffffffffffffffffffffffffffffff1673ffffffffffffffffffffffffffffffffffffffff1673ffffffffffffffffffffffffffffffffffffffff1681526020016004820160009054906101000a900473ffffffffffffffffffffffffffffffffffffffff1673ffffffffffffffffffffffffffffffffffffffff1673ffffffffffffffffffffffffffffffffffffffff16815250509050919050565b6000806002600084815260200190815260200160002060009054906101000a900473ffffffffffffffffffffffffffffffffffffffff169050600073ffffffffffffffffffffffffffffffffffffffff168173ffffffffffffffffffffffffffffffffffffffff161415610d62576040517f08c379a0000000000000000000000000000000000000000000000000000000008152600401610d59906139c0565b60405180910390fd5b80915050919050565b610d736115ec565b73ffffffffffffffffffffffffffffffffffffffff16610d91611180565b73ffffffffffffffffffffffffffffffffffffffff1614610de7576040517f08c379a0000000000000000000000000000000000000000000000000000000008152600401610dde9061363f565b60405180910390fd5b6000848383604051602001610dfe939291906136a7565b6040516020818303038152906040528051906020012060001c9050610e2281611580565b610e61576040517f08c379a0000000000000000000000000000000000000000000000000000000008152600401610e5890613a2c565b60405180910390fd5b6000600e600083815260200190815260200160002060000154905084811015610ebf576040517f08c379a0000000000000000000000000000000000000000000000000000000008152600401610eb690613a98565b60405180910390fd5b8481610ecb9190613ab8565b90506000811415610f13576000600e6000848152602001908152602001600020600101819055506000600e600084815260200190815260200160002060020181905550610f52565b610f2585610f20856110b5565b6116ad565b600e60008481526020019081526020016000206002016000828254610f4a9190613ab8565b925050819055505b80600e600084815260200190815260200160002060000181905550505050505050565b60008073ffffffffffffffffffffffffffffffffffffffff168273ffffffffffffffffffffffffffffffffffffffff161415610fe6576040517f08c379a0000000000000000000000000000000000000000000000000000000008152600401610fdd90613b5e565b60405180910390fd5b600360008373ffffffffffffffffffffffffffffffffffffffff1673ffffffffffffffffffffffffffffffffffffffff168152602001908152602001600020549050919050565b6110356115ec565b73ffffffffffffffffffffffffffffffffffffffff16611053611180565b73ffffffffffffffffffffffffffffffffffffffff16146110a9576040517f08c379a00000000000000000000000000000000000000000000000000000000081526004016110a09061363f565b60405180910390fd5b6110b36000611d35565b565b6000600d60009054906101000a900473ffffffffffffffffffffffffffffffffffffffff1673ffffffffffffffffffffffffffffffffffffffff166335ea6a75836040518263ffffffff1660e01b81526004016111129190612df5565b6101e06040518083038186803b15801561112b57600080fd5b505afa15801561113f573d6000803e3d6000fd5b505050506040513d601f19601f820116820180604052508101906111639190613e0c565b602001516fffffffffffffffffffffffffffffffff169050919050565b6000600b60009054906101000a900473ffffffffffffffffffffffffffffffffffffffff16905090565b6060600180546111b99061340b565b80601f01602080910402602001604051908101604052809291908181526020018280546111e59061340b565b80156112325780601f1061120757610100808354040283529160200191611232565b820191906000526020600020905b81548152906001019060200180831161121557829003601f168201915b5050505050905090565b61124e6112476115ec565b8383611dfb565b5050565b61126361125d6115ec565b836119fb565b6112a2576040517f08c379a0000000000000000000000000000000000000000000000000000000008152600401611299906137db565b60405180910390fd5b6112ae84848484611f68565b50505050565b60606112bf82611fc4565b9050919050565b6000600d60009054906101000a900473ffffffffffffffffffffffffffffffffffffffff1673ffffffffffffffffffffffffffffffffffffffff1663d15e0053836040518263ffffffff1660e01b81526004016113239190612df5565b60206040518083038186803b15801561133b57600080fd5b505afa15801561134f573d6000803e3d6000fd5b505050506040513d601f19601f820116820180604052508101906113739190613e3a565b9050919050565b6000600560008473ffffffffffffffffffffffffffffffffffffffff1673ffffffffffffffffffffffffffffffffffffffff16815260200190815260200160002060008373ffffffffffffffffffffffffffffffffffffffff1673ffffffffffffffffffffffffffffffffffffffff16815260200190815260200160002060009054906101000a900460ff16905092915050565b6114166115ec565b73ffffffffffffffffffffffffffffffffffffffff16611434611180565b73ffffffffffffffffffffffffffffffffffffffff161461148a576040517f08c379a00000000000000000000000000000000000000000000000000000000081526004016114819061363f565b60405180910390fd5b600073ffffffffffffffffffffffffffffffffffffffff168173ffffffffffffffffffffffffffffffffffffffff1614156114fa576040517f08c379a00000000000000000000000000000000000000000000000000000000081526004016114f190613ed9565b60405180910390fd5b61150381611d35565b50565b60007f780e9d63000000000000000000000000000000000000000000000000000000007bffffffffffffffffffffffffffffffffffffffffffffffffffffffff1916827bffffffffffffffffffffffffffffffffffffffffffffffffffffffff19161480611579575061157882612116565b5b9050919050565b60008073ffffffffffffffffffffffffffffffffffffffff166002600084815260200190815260200160002060009054906101000a900473ffffffffffffffffffffffffffffffffffffffff1673ffffffffffffffffffffffffffffffffffffffff1614159050919050565b600033905090565b816004600083815260200190815260200160002060006101000a81548173ffffffffffffffffffffffffffffffffffffffff021916908373ffffffffffffffffffffffffffffffffffffffff160217905550808273ffffffffffffffffffffffffffffffffffffffff1661166783610cb9565b73ffffffffffffffffffffffffffffffffffffffff167f8c5be1e5ebec7d5bd14f71427d1e84f3dd0314c0f7b2291e5b200ac8c7c3b92560405160405180910390a45050565b6000808214156116f2576040517f08c379a00000000000000000000000000000000000000000000000000000000081526004016116e990613f45565b60405180910390fd5b60006002836117019190613f94565b905060006b033b2e3c9fd0803ce8000000905080827fffffffffffffffffffffffffffffffffffffffffffffffffffffffffffffffff6117419190613ab8565b61174b9190613f94565b85111561178d576040517f08c379a000000000000000000000000000000000000000000000000000000000815260040161178490614011565b60405180910390fd5b8382828761179b9190614031565b6117a59190613713565b6117af9190613f94565b9250505092915050565b600073ffffffffffffffffffffffffffffffffffffffff168273ffffffffffffffffffffffffffffffffffffffff161415611829576040517f08c379a0000000000000000000000000000000000000000000000000000000008152600401611820906140d7565b60405180910390fd5b61183281611580565b15611872576040517f08c379a000000000000000000000000000000000000000000000000000000000815260040161186990614143565b60405180910390fd5b61187e600083836121f8565b6001600360008473ffffffffffffffffffffffffffffffffffffffff1673ffffffffffffffffffffffffffffffffffffffff16815260200190815260200160002060008282546118ce9190613713565b92505081905550816002600083815260200190815260200160002060006101000a81548173ffffffffffffffffffffffffffffffffffffffff021916908373ffffffffffffffffffffffffffffffffffffffff160217905550808273ffffffffffffffffffffffffffffffffffffffff16600073ffffffffffffffffffffffffffffffffffffffff167fddf252ad1be2c89b69c2b068fc378daa952ba7f163c4a11628f55a4df523b3ef60405160405180910390a45050565b61199082611580565b6119cf576040517f08c379a00000000000000000000000000000000000000000000000000000000081526004016119c6906141d5565b60405180910390fd5b80600a600084815260200190815260200160002090805190602001906119f6929190612b24565b505050565b6000611a0682611580565b611a45576040517f08c379a0000000000000000000000000000000000000000000000000000000008152600401611a3c90614267565b60405180910390fd5b6000611a5083610cb9565b90508073ffffffffffffffffffffffffffffffffffffffff168473ffffffffffffffffffffffffffffffffffffffff161480611abf57508373ffffffffffffffffffffffffffffffffffffffff16611aa7846105d2565b73ffffffffffffffffffffffffffffffffffffffff16145b80611ad05750611acf818561137a565b5b91505092915050565b8273ffffffffffffffffffffffffffffffffffffffff16611af982610cb9565b73ffffffffffffffffffffffffffffffffffffffff1614611b4f576040517f08c379a0000000000000000000000000000000000000000000000000000000008152600401611b46906142f9565b60405180910390fd5b600073ffffffffffffffffffffffffffffffffffffffff168273ffffffffffffffffffffffffffffffffffffffff161415611bbf576040517f08c379a0000000000000000000000000000000000000000000000000000000008152600401611bb69061438b565b60405180910390fd5b611bca8383836121f8565b611bd56000826115f4565b6001600360008573ffffffffffffffffffffffffffffffffffffffff1673ffffffffffffffffffffffffffffffffffffffff1681526020019081526020016000206000828254611c259190613ab8565b925050819055506001600360008473ffffffffffffffffffffffffffffffffffffffff1673ffffffffffffffffffffffffffffffffffffffff1681526020019081526020016000206000828254611c7c9190613713565b92505081905550816002600083815260200190815260200160002060006101000a81548173ffffffffffffffffffffffffffffffffffffffff021916908373ffffffffffffffffffffffffffffffffffffffff160217905550808273ffffffffffffffffffffffffffffffffffffffff168473ffffffffffffffffffffffffffffffffffffffff167fddf252ad1be2c89b69c2b068fc378daa952ba7f163c4a11628f55a4df523b3ef60405160405180910390a4505050565b6000600b60009054906101000a900473ffffffffffffffffffffffffffffffffffffffff16905081600b60006101000a81548173ffffffffffffffffffffffffffffffffffffffff021916908373ffffffffffffffffffffffffffffffffffffffff1602179055508173ffffffffffffffffffffffffffffffffffffffff168173ffffffffffffffffffffffffffffffffffffffff167f8be0079c531659141344cd1fd0a4f28419497f9722a3daafe3b4186f6b6457e060405160405180910390a35050565b8173ffffffffffffffffffffffffffffffffffffffff168373ffffffffffffffffffffffffffffffffffffffff161415611e6a576040517f08c379a0000000000000000000000000000000000000000000000000000000008152600401611e61906143f7565b60405180910390fd5b80600560008573ffffffffffffffffffffffffffffffffffffffff1673ffffffffffffffffffffffffffffffffffffffff16815260200190815260200160002060008473ffffffffffffffffffffffffffffffffffffffff1673ffffffffffffffffffffffffffffffffffffffff16815260200190815260200160002060006101000a81548160ff0219169083151502179055508173ffffffffffffffffffffffffffffffffffffffff168373ffffffffffffffffffffffffffffffffffffffff167f17307eab39ab6107e8899845ad3d59bd9653f200f220920489ca2b5937696c3183604051611f5b9190612c7b565b60405180910390a3505050565b611f73848484611ad9565b611f7f84848484612277565b611fbe576040517f08c379a0000000000000000000000000000000000000000000000000000000008152600401611fb590614489565b60405180910390fd5b50505050565b6060611fcf82611580565b61200e576040517f08c379a00000000000000000000000000000000000000000000000000000000081526004016120059061451b565b60405180910390fd5b6000600a6000848152602001908152602001600020805461202e9061340b565b80601f016020809104026020016040519081016040528092919081815260200182805461205a9061340b565b80156120a75780601f1061207c576101008083540402835291602001916120a7565b820191906000526020600020905b81548152906001019060200180831161208a57829003601f168201915b5050505050905060006120b861240e565b90506000815114156120ce578192505050612111565b6000825111156121035780826040516020016120eb929190614577565b60405160208183030381529060405292505050612111565b61210c84612425565b925050505b919050565b60007f80ac58cd000000000000000000000000000000000000000000000000000000007bffffffffffffffffffffffffffffffffffffffffffffffffffffffff1916827bffffffffffffffffffffffffffffffffffffffffffffffffffffffff191614806121e157507f5b5e139f000000000000000000000000000000000000000000000000000000007bffffffffffffffffffffffffffffffffffffffffffffffffffffffff1916827bffffffffffffffffffffffffffffffffffffffffffffffffffffffff1916145b806121f157506121f0826124cc565b5b9050919050565b600073ffffffffffffffffffffffffffffffffffffffff168373ffffffffffffffffffffffffffffffffffffffff1614612267576040517f08c379a000000000000000000000000000000000000000000000000000000000815260040161225e906145e7565b60405180910390fd5b612272838383612536565b505050565b60006122988473ffffffffffffffffffffffffffffffffffffffff1661264a565b15612401578373ffffffffffffffffffffffffffffffffffffffff1663150b7a026122c16115ec565b8786866040518563ffffffff1660e01b81526004016122e3949392919061465c565b602060405180830381600087803b1580156122fd57600080fd5b505af192505050801561232e57506040513d601f19601f8201168201806040525081019061232b91906146bd565b60015b6123b1573d806000811461235e576040519150601f19603f3d011682016040523d82523d6000602084013e612363565b606091505b506000815114156123a9576040517f08c379a00000000000000000000000000000000000000000000000000000000081526004016123a090614489565b60405180910390fd5b805181602001fd5b63150b7a0260e01b7bffffffffffffffffffffffffffffffffffffffffffffffffffffffff1916817bffffffffffffffffffffffffffffffffffffffffffffffffffffffff191614915050612406565b600190505b949350505050565b606060405180602001604052806000815250905090565b606061243082611580565b61246f576040517f08c379a00000000000000000000000000000000000000000000000000000000081526004016124669061475c565b60405180910390fd5b600061247961240e565b9050600081511161249957604051806020016040528060008152506124c4565b806124a38461265d565b6040516020016124b4929190614577565b6040516020818303038152906040525b915050919050565b60007f01ffc9a7000000000000000000000000000000000000000000000000000000007bffffffffffffffffffffffffffffffffffffffffffffffffffffffff1916827bffffffffffffffffffffffffffffffffffffffffffffffffffffffff1916149050919050565b6125418383836127be565b600073ffffffffffffffffffffffffffffffffffffffff168373ffffffffffffffffffffffffffffffffffffffff1614156125845761257f816127c3565b6125c3565b8173ffffffffffffffffffffffffffffffffffffffff168373ffffffffffffffffffffffffffffffffffffffff16146125c2576125c1838261280c565b5b5b600073ffffffffffffffffffffffffffffffffffffffff168273ffffffffffffffffffffffffffffffffffffffff1614156126065761260181612979565b612645565b8273ffffffffffffffffffffffffffffffffffffffff168273ffffffffffffffffffffffffffffffffffffffff1614612644576126438282612a4a565b5b5b505050565b600080823b905060008111915050919050565b606060008214156126a5576040518060400160405280600181526020017f300000000000000000000000000000000000000000000000000000000000000081525090506127b9565b600082905060005b600082146126d75780806126c09061477c565b915050600a826126d09190613f94565b91506126ad565b60008167ffffffffffffffff8111156126f3576126f2612e86565b5b6040519080825280601f01601f1916602001820160405280156127255781602001600182028036833780820191505090505b5090505b600085146127b25760018261273e9190613ab8565b9150600a8561274d91906147c5565b60306127599190613713565b60f81b81838151811061276f5761276e61391f565b5b60200101907effffffffffffffffffffffffffffffffffffffffffffffffffffffffffffff1916908160001a905350600a856127ab9190613f94565b9450612729565b8093505050505b919050565b505050565b6008805490506009600083815260200190815260200160002081905550600881908060018154018082558091505060019003906000526020600020016000909190919091505550565b6000600161281984610f75565b6128239190613ab8565b9050600060076000848152602001908152602001600020549050818114612908576000600660008673ffffffffffffffffffffffffffffffffffffffff1673ffffffffffffffffffffffffffffffffffffffff168152602001908152602001600020600084815260200190815260200160002054905080600660008773ffffffffffffffffffffffffffffffffffffffff1673ffffffffffffffffffffffffffffffffffffffff168152602001908152602001600020600084815260200190815260200160002081905550816007600083815260200190815260200160002081905550505b6007600084815260200190815260200160002060009055600660008573ffffffffffffffffffffffffffffffffffffffff1673ffffffffffffffffffffffffffffffffffffffff16815260200190815260200160002060008381526020019081526020016000206000905550505050565b6000600160088054905061298d9190613ab8565b90506000600960008481526020019081526020016000205490506000600883815481106129bd576129bc61391f565b5b9060005260206000200154905080600883815481106129df576129de61391f565b5b906000526020600020018190555081600960008381526020019081526020016000208190555060096000858152602001908152602001600020600090556008805480612a2e57612a2d6147f6565b5b6001900381819060005260206000200160009055905550505050565b6000612a5583610f75565b905081600660008573ffffffffffffffffffffffffffffffffffffffff1673ffffffffffffffffffffffffffffffffffffffff168152602001908152602001600020600083815260200190815260200160002081905550806007600084815260200190815260200160002081905550505050565b6040518060a00160405280600081526020016000815260200160008152602001600073ffffffffffffffffffffffffffffffffffffffff168152602001600073ffffffffffffffffffffffffffffffffffffffff1681525090565b828054612b309061340b565b90600052602060002090601f016020900481019282612b525760008555612b99565b82601f10612b6b57805160ff1916838001178555612b99565b82800160010185558215612b99579182015b82811115612b98578251825591602001919060010190612b7d565b5b509050612ba69190612baa565b5090565b5b80821115612bc3576000816000905550600101612bab565b5090565b6000604051905090565b600080fd5b600080fd5b60007fffffffff0000000000000000000000000000000000000000000000000000000082169050919050565b612c1081612bdb565b8114612c1b57600080fd5b50565b600081359050612c2d81612c07565b92915050565b600060208284031215612c4957612c48612bd1565b5b6000612c5784828501612c1e565b91505092915050565b60008115159050919050565b612c7581612c60565b82525050565b6000602082019050612c906000830184612c6c565b92915050565b600081519050919050565b600082825260208201905092915050565b60005b83811015612cd0578082015181840152602081019050612cb5565b83811115612cdf576000848401525b50505050565b6000601f19601f8301169050919050565b6000612d0182612c96565b612d0b8185612ca1565b9350612d1b818560208601612cb2565b612d2481612ce5565b840191505092915050565b60006020820190508181036000830152612d498184612cf6565b905092915050565b6000819050919050565b612d6481612d51565b8114612d6f57600080fd5b50565b600081359050612d8181612d5b565b92915050565b600060208284031215612d9d57612d9c612bd1565b5b6000612dab84828501612d72565b91505092915050565b600073ffffffffffffffffffffffffffffffffffffffff82169050919050565b6000612ddf82612db4565b9050919050565b612def81612dd4565b82525050565b6000602082019050612e0a6000830184612de6565b92915050565b612e1981612dd4565b8114612e2457600080fd5b50565b600081359050612e3681612e10565b92915050565b60008060408385031215612e5357612e52612bd1565b5b6000612e6185828601612e27565b9250506020612e7285828601612d72565b9150509250929050565b600080fd5b600080fd5b7f4e487b7100000000000000000000000000000000000000000000000000000000600052604160045260246000fd5b612ebe82612ce5565b810181811067ffffffffffffffff82111715612edd57612edc612e86565b5b80604052505050565b6000612ef0612bc7565b9050612efc8282612eb5565b919050565b600067ffffffffffffffff821115612f1c57612f1b612e86565b5b612f2582612ce5565b9050602081019050919050565b82818337600083830152505050565b6000612f54612f4f84612f01565b612ee6565b905082815260208101848484011115612f7057612f6f612e81565b5b612f7b848285612f32565b509392505050565b600082601f830112612f9857612f97612e7c565b5b8135612fa8848260208601612f41565b91505092915050565b60008060008060008060c08789031215612fce57612fcd612bd1565b5b6000612fdc89828a01612e27565b9650506020612fed89828a01612d72565b9550506040612ffe89828a01612d72565b945050606061300f89828a01612e27565b935050608061302089828a01612e27565b92505060a087013567ffffffffffffffff81111561304157613040612bd6565b5b61304d89828a01612f83565b9150509295509295509295565b61306381612d51565b82525050565b600060208201905061307e600083018461305a565b92915050565b60008060006060848603121561309d5761309c612bd1565b5b60006130ab86828701612e27565b93505060206130bc86828701612e27565b92505060406130cd86828701612d72565b9150509250925092565b6130e081612d51565b82525050565b6130ef81612dd4565b82525050565b60a08201600082015161310b60008501826130d7565b50602082015161311e60208501826130d7565b50604082015161313160408501826130d7565b50606082015161314460608501826130e6565b50608082015161315760808501826130e6565b50505050565b600060a08201905061317260008301846130f5565b92915050565b6000806000806080858703121561319257613191612bd1565b5b60006131a087828801612e27565b94505060206131b187828801612d72565b93505060406131c287828801612e27565b92505060606131d387828801612e27565b91505092959194509250565b6000602082840312156131f5576131f4612bd1565b5b600061320384828501612e27565b91505092915050565b61321581612c60565b811461322057600080fd5b50565b6000813590506132328161320c565b92915050565b6000806040838503121561324f5761324e612bd1565b5b600061325d85828601612e27565b925050602061326e85828601613223565b9150509250929050565b600067ffffffffffffffff82111561329357613292612e86565b5b61329c82612ce5565b9050602081019050919050565b60006132bc6132b784613278565b612ee6565b9050828152602081018484840111156132d8576132d7612e81565b5b6132e3848285612f32565b509392505050565b600082601f830112613300576132ff612e7c565b5b81356133108482602086016132a9565b91505092915050565b6000806000806080858703121561333357613332612bd1565b5b600061334187828801612e27565b945050602061335287828801612e27565b935050604061336387828801612d72565b925050606085013567ffffffffffffffff81111561338457613383612bd6565b5b613390878288016132eb565b91505092959194509250565b600080604083850312156133b3576133b2612bd1565b5b60006133c185828601612e27565b92505060206133d285828601612e27565b9150509250929050565b7f4e487b7100000000000000000000000000000000000000000000000000000000600052602260045260246000fd5b6000600282049050600182168061342357607f821691505b60208210811415613437576134366133dc565b5b50919050565b7f4552433732313a20617070726f76656420717565727920666f72206e6f6e657860008201527f697374656e7420746f6b656e0000000000000000000000000000000000000000602082015250565b6000613499602c83612ca1565b91506134a48261343d565b604082019050919050565b600060208201905081810360008301526134c88161348c565b9050919050565b7f4552433732313a20617070726f76616c20746f2063757272656e74206f776e6560008201527f7200000000000000000000000000000000000000000000000000000000000000602082015250565b600061352b602183612ca1565b9150613536826134cf565b604082019050919050565b6000602082019050818103600083015261355a8161351e565b9050919050565b7f4552433732313a20617070726f76652063616c6c6572206973206e6f74206f7760008201527f6e6572206e6f7220617070726f76656420666f7220616c6c0000000000000000602082015250565b60006135bd603883612ca1565b91506135c882613561565b604082019050919050565b600060208201905081810360008301526135ec816135b0565b9050919050565b7f4f776e61626c653a2063616c6c6572206973206e6f7420746865206f776e6572600082015250565b6000613629602083612ca1565b9150613634826135f3565b602082019050919050565b600060208201905081810360008301526136588161361c565b9050919050565b60008160601b9050919050565b60006136778261365f565b9050919050565b60006136898261366c565b9050919050565b6136a161369c82612dd4565b61367e565b82525050565b60006136b38286613690565b6014820191506136c38285613690565b6014820191506136d38284613690565b601482019150819050949350505050565b7f4e487b7100000000000000000000000000000000000000000000000000000000600052601160045260246000fd5b600061371e82612d51565b915061372983612d51565b9250827fffffffffffffffffffffffffffffffffffffffffffffffffffffffffffffffff0382111561375e5761375d6136e4565b5b828201905092915050565b7f4552433732313a207472616e736665722063616c6c6572206973206e6f74206f60008201527f776e6572206e6f7220617070726f766564000000000000000000000000000000602082015250565b60006137c5603183612ca1565b91506137d082613769565b604082019050919050565b600060208201905081810360008301526137f4816137b8565b9050919050565b7f455243373231456e756d657261626c653a206f776e657220696e646578206f7560008201527f74206f6620626f756e6473000000000000000000000000000000000000000000602082015250565b6000613857602b83612ca1565b9150613862826137fb565b604082019050919050565b600060208201905081810360008301526138868161384a565b9050919050565b7f455243373231456e756d657261626c653a20676c6f62616c20696e646578206f60008201527f7574206f6620626f756e64730000000000000000000000000000000000000000602082015250565b60006138e9602c83612ca1565b91506138f48261388d565b604082019050919050565b60006020820190508181036000830152613918816138dc565b9050919050565b7f4e487b7100000000000000000000000000000000000000000000000000000000600052603260045260246000fd5b7f4552433732313a206f776e657220717565727920666f72206e6f6e657869737460008201527f656e7420746f6b656e0000000000000000000000000000000000000000000000602082015250565b60006139aa602983612ca1565b91506139b58261394e565b604082019050919050565b600060208201905081810360008301526139d98161399d565b9050919050565b7f746f6b656e496420646f65736e27742065786973740000000000000000000000600082015250565b6000613a16601583612ca1565b9150613a21826139e0565b602082019050919050565b60006020820190508181036000830152613a4581613a09565b9050919050565b7f696e73756666696369656e742062616c616e6365000000000000000000000000600082015250565b6000613a82601483612ca1565b9150613a8d82613a4c565b602082019050919050565b60006020820190508181036000830152613ab181613a75565b9050919050565b6000613ac382612d51565b9150613ace83612d51565b925082821015613ae157613ae06136e4565b5b828203905092915050565b7f4552433732313a2062616c616e636520717565727920666f7220746865207a6560008201527f726f206164647265737300000000000000000000000000000000000000000000602082015250565b6000613b48602a83612ca1565b9150613b5382613aec565b604082019050919050565b60006020820190508181036000830152613b7781613b3b565b9050919050565b600080fd5b600081519050613b9281612d5b565b92915050565b600060208284031215613bae57613bad613b7e565b5b613bb86020612ee6565b90506000613bc884828501613b83565b60008301525092915050565b60006fffffffffffffffffffffffffffffffff82169050919050565b613bf981613bd4565b8114613c0457600080fd5b50565b600081519050613c1681613bf0565b92915050565b600064ffffffffff82169050919050565b613c3681613c1c565b8114613c4157600080fd5b50565b600081519050613c5381613c2d565b92915050565b600061ffff82169050919050565b613c7081613c59565b8114613c7b57600080fd5b50565b600081519050613c8d81613c67565b92915050565b600081519050613ca281612e10565b92915050565b60006101e08284031215613cbf57613cbe613b7e565b5b613cca6101e0612ee6565b90506000613cda84828501613b98565b6000830152506020613cee84828501613c07565b6020830152506040613d0284828501613c07565b6040830152506060613d1684828501613c07565b6060830152506080613d2a84828501613c07565b60808301525060a0613d3e84828501613c07565b60a08301525060c0613d5284828501613c44565b60c08301525060e0613d6684828501613c7e565b60e083015250610100613d7b84828501613c93565b61010083015250610120613d9184828501613c93565b61012083015250610140613da784828501613c93565b61014083015250610160613dbd84828501613c93565b61016083015250610180613dd384828501613c07565b610180830152506101a0613de984828501613c07565b6101a0830152506101c0613dff84828501613c07565b6101c08301525092915050565b60006101e08284031215613e2357613e22612bd1565b5b6000613e3184828501613ca8565b91505092915050565b600060208284031215613e5057613e4f612bd1565b5b6000613e5e84828501613b83565b91505092915050565b7f4f776e61626c653a206e6577206f776e657220697320746865207a65726f206160008201527f6464726573730000000000000000000000000000000000000000000000000000602082015250565b6000613ec3602683612ca1565b9150613ece82613e67565b604082019050919050565b60006020820190508181036000830152613ef281613eb6565b9050919050565b7f6469766973696f6e206279203000000000000000000000000000000000000000600082015250565b6000613f2f600d83612ca1565b9150613f3a82613ef9565b602082019050919050565b60006020820190508181036000830152613f5e81613f22565b9050919050565b7f4e487b7100000000000000000000000000000000000000000000000000000000600052601260045260246000fd5b6000613f9f82612d51565b9150613faa83612d51565b925082613fba57613fb9613f65565b5b828204905092915050565b7f6d756c7469706c69636174696f6e206f766572666c6f77000000000000000000600082015250565b6000613ffb601783612ca1565b915061400682613fc5565b602082019050919050565b6000602082019050818103600083015261402a81613fee565b9050919050565b600061403c82612d51565b915061404783612d51565b9250817fffffffffffffffffffffffffffffffffffffffffffffffffffffffffffffffff04831182151516156140805761407f6136e4565b5b828202905092915050565b7f4552433732313a206d696e7420746f20746865207a65726f2061646472657373600082015250565b60006140c1602083612ca1565b91506140cc8261408b565b602082019050919050565b600060208201905081810360008301526140f0816140b4565b9050919050565b7f4552433732313a20746f6b656e20616c7265616479206d696e74656400000000600082015250565b600061412d601c83612ca1565b9150614138826140f7565b602082019050919050565b6000602082019050818103600083015261415c81614120565b9050919050565b7f45524337323155524953746f726167653a2055524920736574206f66206e6f6e60008201527f6578697374656e7420746f6b656e000000000000000000000000000000000000602082015250565b60006141bf602e83612ca1565b91506141ca82614163565b604082019050919050565b600060208201905081810360008301526141ee816141b2565b9050919050565b7f4552433732313a206f70657261746f7220717565727920666f72206e6f6e657860008201527f697374656e7420746f6b656e0000000000000000000000000000000000000000602082015250565b6000614251602c83612ca1565b915061425c826141f5565b604082019050919050565b6000602082019050818103600083015261428081614244565b9050919050565b7f4552433732313a207472616e73666572206f6620746f6b656e2074686174206960008201527f73206e6f74206f776e0000000000000000000000000000000000000000000000602082015250565b60006142e3602983612ca1565b91506142ee82614287565b604082019050919050565b60006020820190508181036000830152614312816142d6565b9050919050565b7f4552433732313a207472616e7366657220746f20746865207a65726f2061646460008201527f7265737300000000000000000000000000000000000000000000000000000000602082015250565b6000614375602483612ca1565b915061438082614319565b604082019050919050565b600060208201905081810360008301526143a481614368565b9050919050565b7f4552433732313a20617070726f766520746f2063616c6c657200000000000000600082015250565b60006143e1601983612ca1565b91506143ec826143ab565b602082019050919050565b60006020820190508181036000830152614410816143d4565b9050919050565b7f4552433732313a207472616e7366657220746f206e6f6e20455243373231526560008201527f63656976657220696d706c656d656e7465720000000000000000000000000000602082015250565b6000614473603283612ca1565b915061447e82614417565b604082019050919050565b600060208201905081810360008301526144a281614466565b9050919050565b7f45524337323155524953746f726167653a2055524920717565727920666f722060008201527f6e6f6e6578697374656e7420746f6b656e000000000000000000000000000000602082015250565b6000614505603183612ca1565b9150614510826144a9565b604082019050919050565b60006020820190508181036000830152614534816144f8565b9050919050565b600081905092915050565b600061455182612c96565b61455b818561453b565b935061456b818560208601612cb2565b80840191505092915050565b60006145838285614546565b915061458f8284614546565b91508190509392505050565b7f6e6f6e207472616e736665727261626c65000000000000000000000000000000600082015250565b60006145d1601183612ca1565b91506145dc8261459b565b602082019050919050565b60006020820190508181036000830152614600816145c4565b9050919050565b600081519050919050565b600082825260208201905092915050565b600061462e82614607565b6146388185614612565b9350614648818560208601612cb2565b61465181612ce5565b840191505092915050565b60006080820190506146716000830187612de6565b61467e6020830186612de6565b61468b604083018561305a565b818103606083015261469d8184614623565b905095945050505050565b6000815190506146b781612c07565b92915050565b6000602082840312156146d3576146d2612bd1565b5b60006146e1848285016146a8565b91505092915050565b7f4552433732314d657461646174613a2055524920717565727920666f72206e6f60008201527f6e6578697374656e7420746f6b656e0000000000000000000000000000000000602082015250565b6000614746602f83612ca1565b9150614751826146ea565b604082019050919050565b6000602082019050818103600083015261477581614739565b9050919050565b600061478782612d51565b91507fffffffffffffffffffffffffffffffffffffffffffffffffffffffffffffffff8214156147ba576147b96136e4565b5b600182019050919050565b60006147d082612d51565b91506147db83612d51565b9250826147eb576147ea613f65565b5b828206905092915050565b7f4e487b7100000000000000000000000000000000000000000000000000000000600052603160045260246000fdfea26469706673582212203707a29e6d786368d8d420c7687b9825471a0b81cd7deb04784f9c151ec3b6ae64736f6c63430008090033",
  "immutableReferences": {},
  "source": "// SPDX-License-Identifier: MIT\npragma solidity 0.8.9;\n\nimport {IPool, IPoolAddressesProvider} from './Interfaces.sol';\n\nimport \"@openzeppelin/contracts/token/ERC721/extensions/ERC721Enumerable.sol\";\nimport \"@openzeppelin/contracts/token/ERC721/extensions/ERC721URIStorage.sol\";\nimport \"@openzeppelin/contracts/access/Ownable.sol\";\n\n/**\n * @title JCDepositorERC721\n * @author JustCause\n * This is a proof of concept starter contract for lossless donations\n *\n * Aave v3 is used to generate interest for crowdfunding\n *\n * Creates an ERC721 with info regarding each Just Cause Pool depositor\n *\n * Inherets from openzeppelin ERC721 contracts\n *\n **/\n\ncontract JCDepositorERC721 is ERC721Enumerable, ERC721URIStorage, Ownable {\n\n    struct Deposit {\n        uint256 balance;\n        //uint256 interestEarned;\n        uint256 timeStamp;\n        uint256 amountScaled;\n        address pool;\n        address asset;\n    }\n\n    IPoolAddressesProvider provider;\n    address poolAddr;\n\n    //key = keccak hash of depositor, pool and asset addresses\n    mapping (uint256 => Deposit) deposits;\n\n    /**\n    * @dev Constructor.\n    */\n    constructor(address _poolAddressesProviderAddr) ERC721(\"JCP Contributor Token\", \"JCPC\") {\n        provider = IPoolAddressesProvider(_poolAddressesProviderAddr); // polygon mumbai v3\n        poolAddr = provider.getPool();\n    }\n\n    /**\n    * @dev Creates NFT for depositor if first deposit for pool and asset\n    * @param _tokenOwner address of depositor\n    * @param _timeStamp timeStamp of token creation\n    * @param _pool address of JCP\n    * @param _metaUri meta info uri for nft of JCP\n    * @param _asset The address of the underlying asset of the reserve\n    * @return tokenId unique tokenId keccak hash of depositor, pool and asset addresses\n    **/\n    function addFunds(\n        address _tokenOwner,\n        uint256 _amount,\n        uint256 _timeStamp,\n        address _pool,\n        address _asset,\n        string memory _metaUri\n    ) onlyOwner public returns (uint256) {\n\n        //tokenId is keccak hash of depositor, pool and asset addresses\n        uint256 tokenId = uint256(keccak256(abi.encodePacked(_tokenOwner, _pool, _asset)));\n        uint256 liquidityIndex = getAaveLiquidityIndex(_asset);\n        if(_exists(tokenId)){\n            //if(deposits[tokenId][_asset].pool != address(0)){\n                deposits[tokenId].timeStamp = _timeStamp;\n                deposits[tokenId].balance += _amount;\n                deposits[tokenId].amountScaled += rayDiv(_amount, liquidityIndex);\n            //}\n        }\n        else{\n            deposits[tokenId] = Deposit(_amount, _timeStamp, rayDiv(_amount, liquidityIndex), _pool, _asset);\n            _mint(_tokenOwner, tokenId);\n            _setTokenURI(tokenId, _metaUri);\n        }\n\n        return tokenId;\n    }\n\n    /**\n    * @dev Withdraw balance for depositor\n    * @param _tokenOwner address of depositor\n    * @param _amount amount to withdraw\n    * @param _pool address of JCP\n    * @param _asset The address of the underlying asset of the reserve\n    **/\n    function withdrawFunds(address _tokenOwner, uint256 _amount, address _pool, address _asset) onlyOwner external {\n        uint256 tokenId = uint256(keccak256(abi.encodePacked(_tokenOwner, _pool, _asset)));\n        require(_exists(tokenId), \"tokenId doesn't exist\");\n\n        uint256 balance = deposits[tokenId].balance;\n        require(balance >= _amount, \"insufficient balance\");\n        balance -= _amount;\n        if(balance == 0){\n            // problem is if claimant calls claim this alters the interest earned\n            //deposits[tokenId].interestEarned += getATokenAmount(tokenId) - _amount;\n            deposits[tokenId].timeStamp = 0;\n            deposits[tokenId].amountScaled = 0;\n        }\n        else{\n            deposits[tokenId].amountScaled -= rayDiv(_amount, getAaveLiquidityIndex(_asset));\n        }\n        deposits[tokenId].balance = balance;\n    }\n\n    /**\n    * @param _tokenId unique tokenId keccak hash of depositor, pool and asset addresses\n    * @return Deposit struct containing info about deposit\n    **/\n    function getDepositInfo(uint256 _tokenId) public view returns (Deposit memory){\n        return deposits[_tokenId];\n    }\n\n    /**\n    * @param _tokenId unique tokenId keccak hash of depositor, pool and asset addresses\n    * @return asset balance of user in pool\n    **/\n    function getUserBalance(uint256 _tokenId) public view returns (uint256){\n        return deposits[_tokenId].balance;\n    }\n\n    /**\n    * @param _tokenId unique tokenId keccak hash of depositor, pool and asset addresses\n    * @return aToken accrued\n    **/\n    function getATokenAmount(uint256 _tokenId) internal view returns(uint256){\n        //if claimant calls claim this alters the amount\n        return rayMul(deposits[_tokenId].amountScaled, getReserveNormalizedIncome(deposits[_tokenId].asset));\n    }\n\n    /**\n    * @param _asset The address of the underlying asset of the reserve\n    * @return reserve normalized income from aave\n    **/\n    function getReserveNormalizedIncome(address _asset) public view returns(uint256){\n        return IPool(poolAddr).getReserveNormalizedIncome(_asset);\n    }\n\n    /**\n    * @param _asset The address of the underlying asset of the reserve\n    * @return liquidityIndex liquidity index from aave\n    **/\n    function getAaveLiquidityIndex(address _asset) public view returns(uint256 liquidityIndex){\n        liquidityIndex = IPool(poolAddr).getReserveData(_asset).liquidityIndex;\n    }\n\n    /**\n   * @dev Divides two ray, rounding half up to the nearest ray\n   * @param a Ray\n   * @param b Ray\n   * @return The result of a/b, in ray\n   **/\n    function rayDiv(uint256 a, uint256 b) internal pure returns (uint256) {\n        require(b != 0, 'division by 0');\n        uint256 halfB = b / 2;\n\n        uint256 ray = 1e27;\n        require(a <= (type(uint256).max - halfB) / ray, 'multiplication overflow');\n\n        return (a * ray + halfB) / b;\n    }\n\n   /**\n   * @dev Multiplies two ray, rounding half up to the nearest ray\n   * @param a Ray\n   * @param b Ray\n   * @return The result of a*b, in ray\n   **/\n  function rayMul(uint256 a, uint256 b) internal pure returns (uint256) {\n    if (a == 0 || b == 0) {\n      return 0;\n    }\n\n    uint256 ray = 1e27;\n    uint256 halfRAY = ray / 2;\n    require(a <= (type(uint256).max - halfRAY) / b, 'multiplication overflow');\n\n    return (a * b + halfRAY) / ray;\n  }\n\n  function _beforeTokenTransfer(address from, address to, uint256 tokenId)\n        internal\n        override(ERC721, ERC721Enumerable)\n    {\n        require(from == address(0), \"non transferrable\");\n        super._beforeTokenTransfer(from, to, tokenId);\n    }\n\n    function _burn(uint256 tokenId) internal override(ERC721, ERC721URIStorage) {\n        super._burn(tokenId);\n    }\n    function supportsInterface(bytes4 interfaceId)\n        public\n        view\n        override(ERC721, ERC721Enumerable)\n        returns (bool)\n    {\n        return super.supportsInterface(interfaceId);\n    }\n    function tokenURI(uint256 tokenId)\n        public\n        view\n        override(ERC721, ERC721URIStorage)\n        returns (string memory)\n    {\n        return super.tokenURI(tokenId);\n    }\n}",
  "sourcePath": "/home/smeee/just_cause/contracts/polygon/JCDepositorERC721.sol",
  "compiler": {
    "name": "solc",
    "version": "0.8.9+commit.e5eed63a.Emscripten.clang"
  },
  "schemaVersion": "3.4.7",
  "updatedAt": "2022-05-01T03:08:02.816Z",
  "devdoc": {
    "author": "JustCause This is a proof of concept starter contract for lossless donations Aave v3 is used to generate interest for crowdfunding Creates an ERC721 with info regarding each Just Cause Pool depositor Inherets from openzeppelin ERC721 contracts*",
    "kind": "dev",
    "methods": {
      "addFunds(address,uint256,uint256,address,address,string)": {
        "details": "Creates NFT for depositor if first deposit for pool and asset",
        "params": {
          "_asset": "The address of the underlying asset of the reserve",
          "_metaUri": "meta info uri for nft of JCP",
          "_pool": "address of JCP",
          "_timeStamp": "timeStamp of token creation",
          "_tokenOwner": "address of depositor"
        },
        "returns": {
          "_0": "tokenId unique tokenId keccak hash of depositor, pool and asset addresses*"
        }
      },
      "approve(address,uint256)": {
        "details": "See {IERC721-approve}."
      },
      "balanceOf(address)": {
        "details": "See {IERC721-balanceOf}."
      },
      "constructor": {
        "details": "Constructor."
      },
      "getAaveLiquidityIndex(address)": {
        "params": {
          "_asset": "The address of the underlying asset of the reserve"
        },
        "returns": {
          "liquidityIndex": "liquidity index from aave*"
        }
      },
      "getApproved(uint256)": {
        "details": "See {IERC721-getApproved}."
      },
      "getDepositInfo(uint256)": {
        "params": {
          "_tokenId": "unique tokenId keccak hash of depositor, pool and asset addresses"
        },
        "returns": {
          "_0": "Deposit struct containing info about deposit*"
        }
      },
      "getReserveNormalizedIncome(address)": {
        "params": {
          "_asset": "The address of the underlying asset of the reserve"
        },
        "returns": {
          "_0": "reserve normalized income from aave*"
        }
      },
      "getUserBalance(uint256)": {
        "params": {
          "_tokenId": "unique tokenId keccak hash of depositor, pool and asset addresses"
        },
        "returns": {
          "_0": "asset balance of user in pool*"
        }
      },
      "isApprovedForAll(address,address)": {
        "details": "See {IERC721-isApprovedForAll}."
      },
      "name()": {
        "details": "See {IERC721Metadata-name}."
      },
      "owner()": {
        "details": "Returns the address of the current owner."
      },
      "ownerOf(uint256)": {
        "details": "See {IERC721-ownerOf}."
      },
      "renounceOwnership()": {
        "details": "Leaves the contract without owner. It will not be possible to call `onlyOwner` functions anymore. Can only be called by the current owner. NOTE: Renouncing ownership will leave the contract without an owner, thereby removing any functionality that is only available to the owner."
      },
      "safeTransferFrom(address,address,uint256)": {
        "details": "See {IERC721-safeTransferFrom}."
      },
      "safeTransferFrom(address,address,uint256,bytes)": {
        "details": "See {IERC721-safeTransferFrom}."
      },
      "setApprovalForAll(address,bool)": {
        "details": "See {IERC721-setApprovalForAll}."
      },
      "symbol()": {
        "details": "See {IERC721Metadata-symbol}."
      },
      "tokenByIndex(uint256)": {
        "details": "See {IERC721Enumerable-tokenByIndex}."
      },
      "tokenOfOwnerByIndex(address,uint256)": {
        "details": "See {IERC721Enumerable-tokenOfOwnerByIndex}."
      },
      "totalSupply()": {
        "details": "See {IERC721Enumerable-totalSupply}."
      },
      "transferFrom(address,address,uint256)": {
        "details": "See {IERC721-transferFrom}."
      },
      "transferOwnership(address)": {
        "details": "Transfers ownership of the contract to a new account (`newOwner`). Can only be called by the current owner."
      },
      "withdrawFunds(address,uint256,address,address)": {
        "details": "Withdraw balance for depositor",
        "params": {
          "_amount": "amount to withdraw",
          "_asset": "The address of the underlying asset of the reserve*",
          "_pool": "address of JCP",
          "_tokenOwner": "address of depositor"
        }
      }
    },
    "title": "JCDepositorERC721",
    "version": 1
  },
  "userdoc": {
    "kind": "user",
    "methods": {},
    "version": 1
  }
}