{
  "contractName": "JustCausePool",
  "abi": [
    {
      "inputs": [],
      "stateMutability": "nonpayable",
      "type": "constructor"
    },
    {
      "anonymous": false,
      "inputs": [
        {
          "indexed": false,
          "internalType": "address",
          "name": "tokenAddress",
          "type": "address"
        },
        {
          "indexed": false,
          "internalType": "address",
          "name": "depositor",
          "type": "address"
        },
        {
          "indexed": false,
          "internalType": "uint256",
          "name": "amount",
          "type": "uint256"
        }
      ],
      "name": "Deposit",
      "type": "event"
    },
    {
      "anonymous": false,
      "inputs": [
        {
          "indexed": false,
          "internalType": "address",
          "name": "tokenAddress",
          "type": "address"
        },
        {
          "indexed": false,
          "internalType": "address",
          "name": "caller",
          "type": "address"
        },
        {
          "indexed": false,
          "internalType": "uint256",
          "name": "amount",
          "type": "uint256"
        }
      ],
      "name": "Withdraw",
      "type": "event"
    },
    {
      "anonymous": false,
      "inputs": [
        {
          "indexed": false,
          "internalType": "address",
          "name": "tokenAddress",
          "type": "address"
        },
        {
          "indexed": false,
          "internalType": "uint256",
          "name": "amount",
          "type": "uint256"
        }
      ],
      "name": "WithdrawDonations",
      "type": "event"
    },
    {
      "inputs": [
        {
          "internalType": "address[]",
          "name": "_acceptedTokens",
          "type": "address[]"
        },
        {
          "internalType": "string",
          "name": "_name",
          "type": "string"
        },
        {
          "internalType": "string",
          "name": "_about",
          "type": "string"
        },
        {
          "internalType": "address",
          "name": "_receiver",
          "type": "address"
        }
      ],
      "name": "initialize",
      "outputs": [],
      "stateMutability": "nonpayable",
      "type": "function"
    },
    {
      "inputs": [
        {
          "internalType": "address",
          "name": "_assetAddress",
          "type": "address"
        },
        {
          "internalType": "uint256",
          "name": "_amount",
          "type": "uint256"
        }
      ],
      "name": "deposit",
      "outputs": [],
      "stateMutability": "nonpayable",
      "type": "function"
    },
    {
      "inputs": [
        {
          "internalType": "address",
          "name": "_wethAddress",
          "type": "address"
        },
        {
          "internalType": "uint256",
          "name": "_value",
          "type": "uint256"
        }
      ],
      "name": "depositETH",
      "outputs": [],
      "stateMutability": "nonpayable",
      "type": "function"
    },
    {
      "inputs": [
        {
          "internalType": "address",
          "name": "_assetAddress",
          "type": "address"
        },
        {
          "internalType": "uint256",
          "name": "_amount",
          "type": "uint256"
        },
        {
          "internalType": "address",
          "name": "_depositor",
          "type": "address"
        }
      ],
      "name": "withdraw",
      "outputs": [],
      "stateMutability": "nonpayable",
      "type": "function"
    },
    {
      "inputs": [
        {
          "internalType": "address",
          "name": "_assetAddress",
          "type": "address"
        }
      ],
      "name": "withdrawDonations",
      "outputs": [
        {
          "internalType": "uint256",
          "name": "",
          "type": "uint256"
        }
      ],
      "stateMutability": "nonpayable",
      "type": "function"
    },
    {
      "inputs": [
        {
          "internalType": "address",
          "name": "_token",
          "type": "address"
        }
      ],
      "name": "getTotalDeposits",
      "outputs": [
        {
          "internalType": "uint256",
          "name": "",
          "type": "uint256"
        }
      ],
      "stateMutability": "view",
      "type": "function"
    },
    {
      "inputs": [],
      "name": "getAcceptedTokens",
      "outputs": [
        {
          "internalType": "address[]",
          "name": "",
          "type": "address[]"
        }
      ],
      "stateMutability": "view",
      "type": "function"
    },
    {
      "inputs": [],
      "name": "getName",
      "outputs": [
        {
          "internalType": "string",
          "name": "",
          "type": "string"
        }
      ],
      "stateMutability": "view",
      "type": "function"
    },
    {
      "inputs": [],
      "name": "getAbout",
      "outputs": [
        {
          "internalType": "string",
          "name": "",
          "type": "string"
        }
      ],
      "stateMutability": "view",
      "type": "function"
    },
    {
      "inputs": [
        {
          "internalType": "address",
          "name": "_assetAddress",
          "type": "address"
        }
      ],
      "name": "getATokenAddress",
      "outputs": [
        {
          "internalType": "address",
          "name": "",
          "type": "address"
        }
      ],
      "stateMutability": "view",
      "type": "function"
    },
    {
      "inputs": [
        {
          "internalType": "address",
          "name": "_assetAddress",
          "type": "address"
        }
      ],
      "name": "getUnclaimedInterest",
      "outputs": [
        {
          "internalType": "uint256",
          "name": "",
          "type": "uint256"
        }
      ],
      "stateMutability": "view",
      "type": "function"
    },
    {
      "inputs": [
        {
          "internalType": "address",
          "name": "_assetAddress",
          "type": "address"
        }
      ],
      "name": "getClaimedInterest",
      "outputs": [
        {
          "internalType": "uint256",
          "name": "",
          "type": "uint256"
        }
      ],
      "stateMutability": "view",
      "type": "function"
    },
    {
      "inputs": [
        {
          "internalType": "address",
          "name": "_assetAddress",
          "type": "address"
        }
      ],
      "name": "getATokenBalance",
      "outputs": [
        {
          "internalType": "uint256",
          "name": "",
          "type": "uint256"
        }
      ],
      "stateMutability": "view",
      "type": "function"
    },
    {
      "inputs": [],
      "name": "getRecipient",
      "outputs": [
        {
          "internalType": "address",
          "name": "",
          "type": "address"
        }
      ],
      "stateMutability": "view",
      "type": "function"
    },
    {
      "inputs": [],
      "name": "getByteCode",
      "outputs": [
        {
          "internalType": "bytes",
          "name": "",
          "type": "bytes"
        }
      ],
      "stateMutability": "view",
      "type": "function"
    },
    {
      "inputs": [],
      "name": "getHashByteCode",
      "outputs": [
        {
          "internalType": "bytes32",
          "name": "",
          "type": "bytes32"
        }
      ],
      "stateMutability": "view",
      "type": "function"
    },
    {
      "inputs": [
        {
          "internalType": "address",
          "name": "_asset",
          "type": "address"
        }
      ],
      "name": "getReserveNormalizedIncome",
      "outputs": [
        {
          "internalType": "uint256",
          "name": "",
          "type": "uint256"
        }
      ],
      "stateMutability": "view",
      "type": "function"
    },
    {
      "inputs": [
        {
          "internalType": "address",
          "name": "_asset",
          "type": "address"
        }
      ],
      "name": "getAaveLiquidityIndex",
      "outputs": [
        {
          "internalType": "uint256",
          "name": "liquidityIndex",
          "type": "uint256"
        }
      ],
      "stateMutability": "view",
      "type": "function"
    }
  ],
  "bytecode": "0x608060405234801561001057600080fd5b506001600460006101000a81548160ff0219169083151502179055506129fd8061003b6000396000f3fe608060405234801561001057600080fd5b50600436106101165760003560e01c806347e7ef24116100a257806369328dec1161007157806369328dec146102e3578063711cc005146102ff5780638aebe8d61461032f578063a56f5b531461035f578063d15e00531461038f57610116565b806347e7ef241461025d57806350d02d711461027957806357ac6566146102955780635ff189b9146102b357610116565b80631b88094d116100e95780631b88094d146101b75780632e599054146101d55780632f757006146101f1578063343d693b1461020f5780633735ef881461022d57610116565b80630251cfa11461011b5780630712f6b31461014b5780630835d21a1461017b57806317d7de7c14610199575b600080fd5b61013560048036038101906101309190611c0b565b6103bf565b6040516101429190611c51565b60405180910390f35b61016560048036038101906101609190611c0b565b610408565b6040516101729190611c51565b60405180910390f35b61018361054b565b6040516101909190611c85565b60405180910390f35b6101a16105ab565b6040516101ae9190611d39565b60405180910390f35b6101bf61063d565b6040516101cc9190611d6a565b60405180910390f35b6101ef60048036038101906101ea9190611db1565b610667565b005b6101f9610753565b6040516102069190611eaf565b60405180910390f35b6102176107e1565b6040516102249190611d39565b60405180910390f35b61024760048036038101906102429190611c0b565b610873565b6040516102549190611c51565b60405180910390f35b61027760048036038101906102729190611db1565b610a06565b005b610293600480360381019061028e91906120ce565b610bdf565b005b61029d6110f6565b6040516102aa91906121de565b60405180910390f35b6102cd60048036038101906102c89190611c0b565b611130565b6040516102da9190611c51565b60405180910390f35b6102fd60048036038101906102f89190612200565b611179565b005b61031960048036038101906103149190611c0b565b61139c565b6040516103269190611d6a565b60405180910390f35b61034960048036038101906103449190611c0b565b611457565b6040516103569190611c51565b60405180910390f35b61037960048036038101906103749190611c0b565b611542565b6040516103869190611c51565b60405180910390f35b6103a960048036038101906103a49190611c0b565b611994565b6040516103b69190611c51565b60405180910390f35b6000600160008373ffffffffffffffffffffffffffffffffffffffff1673ffffffffffffffffffffffffffffffffffffffff168152602001908152602001600020549050919050565b600080600660009054906101000a900473ffffffffffffffffffffffffffffffffffffffff1673ffffffffffffffffffffffffffffffffffffffff1663d2493b6c846040518263ffffffff1660e01b81526004016104669190611d6a565b60606040518083038186803b15801561047e57600080fd5b505afa158015610492573d6000803e3d6000fd5b505050506040513d601f19601f820116820180604052508101906104b69190612268565b505090508073ffffffffffffffffffffffffffffffffffffffff166370a08231306040518263ffffffff1660e01b81526004016104f39190611d6a565b60206040518083038186803b15801561050b57600080fd5b505afa15801561051f573d6000803e3d6000fd5b505050506040513d601f19601f8201168201806040525081019061054391906122d0565b915050919050565b60003073ffffffffffffffffffffffffffffffffffffffff16803b806020016040519081016040528181526000908060200190933c6040516020016105909190612339565b60405160208183030381529060405280519060200120905090565b6060600b80546105ba9061237f565b80601f01602080910402602001604051908101604052809291908181526020018280546105e69061237f565b80156106335780601f1061060857610100808354040283529160200191610633565b820191906000526020600020905b81548152906001019060200180831161061657829003601f168201915b5050505050905090565b6000600960009054906101000a900473ffffffffffffffffffffffffffffffffffffffff16905090565b338073ffffffffffffffffffffffffffffffffffffffff16600a60009054906101000a900473ffffffffffffffffffffffffffffffffffffffff1673ffffffffffffffffffffffffffffffffffffffff16146106f8576040517f08c379a00000000000000000000000000000000000000000000000000000000081526004016106ef906123fd565b60405180910390fd5b81600160008573ffffffffffffffffffffffffffffffffffffffff1673ffffffffffffffffffffffffffffffffffffffff1681526020019081526020016000206000828254610747919061244c565b92505081905550505050565b606060088054806020026020016040519081016040528092919081815260200182805480156107d757602002820191906000526020600020905b8160009054906101000a900473ffffffffffffffffffffffffffffffffffffffff1673ffffffffffffffffffffffffffffffffffffffff168152602001906001019080831161078d575b5050505050905090565b6060600c80546107f09061237f565b80601f016020809104026020016040519081016040528092919081815260200182805461081c9061237f565b80156108695780601f1061083e57610100808354040283529160200191610869565b820191906000526020600020905b81548152906001019060200180831161084c57829003601f168201915b5050505050905090565b600080600660009054906101000a900473ffffffffffffffffffffffffffffffffffffffff1673ffffffffffffffffffffffffffffffffffffffff1663d2493b6c846040518263ffffffff1660e01b81526004016108d19190611d6a565b60606040518083038186803b1580156108e957600080fd5b505afa1580156108fd573d6000803e3d6000fd5b505050506040513d601f19601f820116820180604052508101906109219190612268565b5050905060008173ffffffffffffffffffffffffffffffffffffffff166370a08231306040518263ffffffff1660e01b81526004016109609190611d6a565b60206040518083038186803b15801561097857600080fd5b505afa15801561098c573d6000803e3d6000fd5b505050506040513d601f19601f820116820180604052508101906109b091906122d0565b9050600160008573ffffffffffffffffffffffffffffffffffffffff1673ffffffffffffffffffffffffffffffffffffffff16815260200190815260200160002054816109fd91906124a2565b92505050919050565b338073ffffffffffffffffffffffffffffffffffffffff16600a60009054906101000a900473ffffffffffffffffffffffffffffffffffffffff1673ffffffffffffffffffffffffffffffffffffffff1614610a97576040517f08c379a0000000000000000000000000000000000000000000000000000000008152600401610a8e906123fd565b60405180910390fd5b82600080600090505b6008805490508160ff161015610b415760088160ff1681548110610ac757610ac66124d6565b5b9060005260206000200160009054906101000a900473ffffffffffffffffffffffffffffffffffffffff1673ffffffffffffffffffffffffffffffffffffffff168373ffffffffffffffffffffffffffffffffffffffff161415610b2e5760019150610b41565b8080610b3990612512565b915050610aa0565b5080610b82576040517f08c379a0000000000000000000000000000000000000000000000000000000008152600401610b79906125ae565b60405180910390fd5b83600160008773ffffffffffffffffffffffffffffffffffffffff1673ffffffffffffffffffffffffffffffffffffffff1681526020019081526020016000206000828254610bd1919061244c565b925050819055505050505050565b82601e60008290508160ff16815110610c2d576040517f08c379a0000000000000000000000000000000000000000000000000000000008152600401610c249061261a565b60405180910390fd5b8460c860008290508160ff16815110610c7b576040517f08c379a0000000000000000000000000000000000000000000000000000000008152600401610c729061261a565b60405180910390fd5b600060019054906101000a900460ff16610ca35760008054906101000a900460ff1615610cac565b610cab611a48565b5b610ceb576040517f08c379a0000000000000000000000000000000000000000000000000000000008152600401610ce2906126ac565b60405180910390fd5b60008060019054906101000a900460ff161590508015610d3b576001600060016101000a81548160ff02191690831515021790555060016000806101000a81548160ff0219169083151502179055505b60001515600460009054906101000a900460ff16151514610d91576040517f08c379a0000000000000000000000000000000000000000000000000000000008152600401610d8890612718565b60405180910390fd5b600073ffffffffffffffffffffffffffffffffffffffff16600960009054906101000a900473ffffffffffffffffffffffffffffffffffffffff1673ffffffffffffffffffffffffffffffffffffffff1614610e22576040517f08c379a0000000000000000000000000000000000000000000000000000000008152600401610e1990612784565b60405180910390fd5b87600960006101000a81548173ffffffffffffffffffffffffffffffffffffffff021916908373ffffffffffffffffffffffffffffffffffffffff16021790555033600a60006101000a81548173ffffffffffffffffffffffffffffffffffffffff021916908373ffffffffffffffffffffffffffffffffffffffff16021790555089600b9080519060200190610eba929190611a6c565b5088600c9080519060200190610ed1929190611a6c565b507388757f2f99175387ab4c6a4b3067c77a695b0349600460016101000a81548173ffffffffffffffffffffffffffffffffffffffff021916908373ffffffffffffffffffffffffffffffffffffffff160217905550600460019054906101000a900473ffffffffffffffffffffffffffffffffffffffff1673ffffffffffffffffffffffffffffffffffffffff16630261bf8b6040518163ffffffff1660e01b815260040160206040518083038186803b158015610f8f57600080fd5b505afa158015610fa3573d6000803e3d6000fd5b505050506040513d601f19601f82011682018060405250810190610fc791906127a4565b600560006101000a81548173ffffffffffffffffffffffffffffffffffffffff021916908373ffffffffffffffffffffffffffffffffffffffff160217905550733c73a5e5785cac854d468f727c606c07488a29d6600660006101000a81548173ffffffffffffffffffffffffffffffffffffffff021916908373ffffffffffffffffffffffffffffffffffffffff16021790555073a61ca04df33b72b235a8a28cfb535bb7a5271b70600760006101000a81548173ffffffffffffffffffffffffffffffffffffffff021916908373ffffffffffffffffffffffffffffffffffffffff1602179055508a600890805190602001906110c7929190611af2565b5080156110e95760008060016101000a81548160ff0219169083151502179055505b5050505050505050505050565b60603073ffffffffffffffffffffffffffffffffffffffff16803b806020016040519081016040528181526000908060200190933c905090565b6000600260008373ffffffffffffffffffffffffffffffffffffffff1673ffffffffffffffffffffffffffffffffffffffff168152602001908152602001600020549050919050565b338073ffffffffffffffffffffffffffffffffffffffff16600a60009054906101000a900473ffffffffffffffffffffffffffffffffffffffff1673ffffffffffffffffffffffffffffffffffffffff161461120a576040517f08c379a0000000000000000000000000000000000000000000000000000000008152600401611201906123fd565b60405180910390fd5b81848460008111611250576040517f08c379a00000000000000000000000000000000000000000000000000000000081526004016112479061281d565b60405180910390fd5b600560009054906101000a900473ffffffffffffffffffffffffffffffffffffffff1673ffffffffffffffffffffffffffffffffffffffff166369328dec8888886040518463ffffffff1660e01b81526004016112af9392919061283d565b602060405180830381600087803b1580156112c957600080fd5b505af11580156112dd573d6000803e3d6000fd5b505050506040513d601f19601f8201168201806040525081019061130191906122d0565b5085600160008973ffffffffffffffffffffffffffffffffffffffff1673ffffffffffffffffffffffffffffffffffffffff168152602001908152602001600020600082825461135191906124a2565b925050819055507f9b1bfa7fa9ee420a16e124f794c35ac9f90472acc99140eb2f6447c714cad8eb87868860405161138b93929190612874565b60405180910390a150505050505050565b600080600660009054906101000a900473ffffffffffffffffffffffffffffffffffffffff1673ffffffffffffffffffffffffffffffffffffffff1663d2493b6c846040518263ffffffff1660e01b81526004016113fa9190611d6a565b60606040518083038186803b15801561141257600080fd5b505afa158015611426573d6000803e3d6000fd5b505050506040513d601f19601f8201168201806040525081019061144a9190612268565b5050905080915050919050565b6000600660009054906101000a900473ffffffffffffffffffffffffffffffffffffffff1673ffffffffffffffffffffffffffffffffffffffff166335ea6a75836040518263ffffffff1660e01b81526004016114b49190611d6a565b6101406040518083038186803b1580156114cd57600080fd5b505afa1580156114e1573d6000803e3d6000fd5b505050506040513d601f19601f8201168201806040525081019061150591906128e8565b9091929394959697985090919293949596975090919293949596509091929394955090919293945090919293509091925090505080915050919050565b6000338073ffffffffffffffffffffffffffffffffffffffff16600a60009054906101000a900473ffffffffffffffffffffffffffffffffffffffff1673ffffffffffffffffffffffffffffffffffffffff16146115d5576040517f08c379a00000000000000000000000000000000000000000000000000000000081526004016115cc906123fd565b60405180910390fd5b82600080600090505b6008805490508160ff16101561167f5760088160ff1681548110611605576116046124d6565b5b9060005260206000200160009054906101000a900473ffffffffffffffffffffffffffffffffffffffff1673ffffffffffffffffffffffffffffffffffffffff168373ffffffffffffffffffffffffffffffffffffffff16141561166c576001915061167f565b808061167790612512565b9150506115de565b50806116c0576040517f08c379a00000000000000000000000000000000000000000000000000000000081526004016116b7906125ae565b60405180910390fd5b6000600660009054906101000a900473ffffffffffffffffffffffffffffffffffffffff1673ffffffffffffffffffffffffffffffffffffffff1663d2493b6c876040518263ffffffff1660e01b815260040161171d9190611d6a565b60606040518083038186803b15801561173557600080fd5b505afa158015611749573d6000803e3d6000fd5b505050506040513d601f19601f8201168201806040525081019061176d9190612268565b5050905060008173ffffffffffffffffffffffffffffffffffffffff166370a08231306040518263ffffffff1660e01b81526004016117ac9190611d6a565b60206040518083038186803b1580156117c457600080fd5b505afa1580156117d8573d6000803e3d6000fd5b505050506040513d601f19601f820116820180604052508101906117fc91906122d0565b90506000600160008973ffffffffffffffffffffffffffffffffffffffff1673ffffffffffffffffffffffffffffffffffffffff168152602001908152602001600020548261184b91906124a2565b9050600560009054906101000a900473ffffffffffffffffffffffffffffffffffffffff1673ffffffffffffffffffffffffffffffffffffffff166369328dec8983600960009054906101000a900473ffffffffffffffffffffffffffffffffffffffff166040518463ffffffff1660e01b81526004016118ce9392919061283d565b602060405180830381600087803b1580156118e857600080fd5b505af11580156118fc573d6000803e3d6000fd5b505050506040513d601f19601f8201168201806040525081019061192091906122d0565b5061192a88611457565b60038190555080600260008a73ffffffffffffffffffffffffffffffffffffffff1673ffffffffffffffffffffffffffffffffffffffff168152602001908152602001600020600082825461197f919061244c565b92505081905550809650505050505050919050565b6000600560009054906101000a900473ffffffffffffffffffffffffffffffffffffffff1673ffffffffffffffffffffffffffffffffffffffff1663d15e0053836040518263ffffffff1660e01b81526004016119f19190611d6a565b60206040518083038186803b158015611a0957600080fd5b505afa158015611a1d573d6000803e3d6000fd5b505050506040513d601f19601f82011682018060405250810190611a4191906122d0565b9050919050565b6000611a5330611a59565b15905090565b600080823b905060008111915050919050565b828054611a789061237f565b90600052602060002090601f016020900481019282611a9a5760008555611ae1565b82601f10611ab357805160ff1916838001178555611ae1565b82800160010185558215611ae1579182015b82811115611ae0578251825591602001919060010190611ac5565b5b509050611aee9190611b7c565b5090565b828054828255906000526020600020908101928215611b6b579160200282015b82811115611b6a5782518260006101000a81548173ffffffffffffffffffffffffffffffffffffffff021916908373ffffffffffffffffffffffffffffffffffffffff16021790555091602001919060010190611b12565b5b509050611b789190611b7c565b5090565b5b80821115611b95576000816000905550600101611b7d565b5090565b6000604051905090565b600080fd5b600080fd5b600073ffffffffffffffffffffffffffffffffffffffff82169050919050565b6000611bd882611bad565b9050919050565b611be881611bcd565b8114611bf357600080fd5b50565b600081359050611c0581611bdf565b92915050565b600060208284031215611c2157611c20611ba3565b5b6000611c2f84828501611bf6565b91505092915050565b6000819050919050565b611c4b81611c38565b82525050565b6000602082019050611c666000830184611c42565b92915050565b6000819050919050565b611c7f81611c6c565b82525050565b6000602082019050611c9a6000830184611c76565b92915050565b600081519050919050565b600082825260208201905092915050565b60005b83811015611cda578082015181840152602081019050611cbf565b83811115611ce9576000848401525b50505050565b6000601f19601f8301169050919050565b6000611d0b82611ca0565b611d158185611cab565b9350611d25818560208601611cbc565b611d2e81611cef565b840191505092915050565b60006020820190508181036000830152611d538184611d00565b905092915050565b611d6481611bcd565b82525050565b6000602082019050611d7f6000830184611d5b565b92915050565b611d8e81611c38565b8114611d9957600080fd5b50565b600081359050611dab81611d85565b92915050565b60008060408385031215611dc857611dc7611ba3565b5b6000611dd685828601611bf6565b9250506020611de785828601611d9c565b9150509250929050565b600081519050919050565b600082825260208201905092915050565b6000819050602082019050919050565b611e2681611bcd565b82525050565b6000611e388383611e1d565b60208301905092915050565b6000602082019050919050565b6000611e5c82611df1565b611e668185611dfc565b9350611e7183611e0d565b8060005b83811015611ea2578151611e898882611e2c565b9750611e9483611e44565b925050600181019050611e75565b5085935050505092915050565b60006020820190508181036000830152611ec98184611e51565b905092915050565b600080fd5b7f4e487b7100000000000000000000000000000000000000000000000000000000600052604160045260246000fd5b611f0e82611cef565b810181811067ffffffffffffffff82111715611f2d57611f2c611ed6565b5b80604052505050565b6000611f40611b99565b9050611f4c8282611f05565b919050565b600067ffffffffffffffff821115611f6c57611f6b611ed6565b5b602082029050602081019050919050565b600080fd5b6000611f95611f9084611f51565b611f36565b90508083825260208201905060208402830185811115611fb857611fb7611f7d565b5b835b81811015611fe15780611fcd8882611bf6565b845260208401935050602081019050611fba565b5050509392505050565b600082601f83011261200057611fff611ed1565b5b8135612010848260208601611f82565b91505092915050565b600080fd5b600067ffffffffffffffff82111561203957612038611ed6565b5b61204282611cef565b9050602081019050919050565b82818337600083830152505050565b600061207161206c8461201e565b611f36565b90508281526020810184848401111561208d5761208c612019565b5b61209884828561204f565b509392505050565b600082601f8301126120b5576120b4611ed1565b5b81356120c584826020860161205e565b91505092915050565b600080600080608085870312156120e8576120e7611ba3565b5b600085013567ffffffffffffffff81111561210657612105611ba8565b5b61211287828801611feb565b945050602085013567ffffffffffffffff81111561213357612132611ba8565b5b61213f878288016120a0565b935050604085013567ffffffffffffffff8111156121605761215f611ba8565b5b61216c878288016120a0565b925050606061217d87828801611bf6565b91505092959194509250565b600081519050919050565b600082825260208201905092915050565b60006121b082612189565b6121ba8185612194565b93506121ca818560208601611cbc565b6121d381611cef565b840191505092915050565b600060208201905081810360008301526121f881846121a5565b905092915050565b60008060006060848603121561221957612218611ba3565b5b600061222786828701611bf6565b935050602061223886828701611d9c565b925050604061224986828701611bf6565b9150509250925092565b60008151905061226281611bdf565b92915050565b60008060006060848603121561228157612280611ba3565b5b600061228f86828701612253565b93505060206122a086828701612253565b92505060406122b186828701612253565b9150509250925092565b6000815190506122ca81611d85565b92915050565b6000602082840312156122e6576122e5611ba3565b5b60006122f4848285016122bb565b91505092915050565b600081905092915050565b600061231382612189565b61231d81856122fd565b935061232d818560208601611cbc565b80840191505092915050565b60006123458284612308565b915081905092915050565b7f4e487b7100000000000000000000000000000000000000000000000000000000600052602260045260246000fd5b6000600282049050600182168061239757607f821691505b602082108114156123ab576123aa612350565b5b50919050565b7f796f7520617265206e6f7420746865206f776e65720000000000000000000000600082015250565b60006123e7601583611cab565b91506123f2826123b1565b602082019050919050565b60006020820190508181036000830152612416816123da565b9050919050565b7f4e487b7100000000000000000000000000000000000000000000000000000000600052601160045260246000fd5b600061245782611c38565b915061246283611c38565b9250827fffffffffffffffffffffffffffffffffffffffffffffffffffffffffffffffff038211156124975761249661241d565b5b828201905092915050565b60006124ad82611c38565b91506124b883611c38565b9250828210156124cb576124ca61241d565b5b828203905092915050565b7f4e487b7100000000000000000000000000000000000000000000000000000000600052603260045260246000fd5b600060ff82169050919050565b600061251d82612505565b915060ff8214156125315761253061241d565b5b600182019050919050565b7f7375626d697474656420746f6b656e2061646472657373206973206e6f74206160008201527f6363657074656420627920706f6f6c0000000000000000000000000000000000602082015250565b6000612598602f83611cab565b91506125a38261253c565b604082019050919050565b600060208201905081810360008301526125c78161258b565b9050919050565b7f737472696e67206f76657220636861726163746572206c696d69740000000000600082015250565b6000612604601b83611cab565b915061260f826125ce565b602082019050919050565b60006020820190508181036000830152612633816125f7565b9050919050565b7f496e697469616c697a61626c653a20636f6e747261637420697320616c72656160008201527f647920696e697469616c697a6564000000000000000000000000000000000000602082015250565b6000612696602e83611cab565b91506126a18261263a565b604082019050919050565b600060208201905081810360008301526126c581612689565b9050919050565b7f43616e6e6f7420696e697469616c697a65206261736500000000000000000000600082015250565b6000612702601683611cab565b915061270d826126cc565b602082019050919050565b60006020820190508181036000830152612731816126f5565b9050919050565b7f496e697469616c697a6520616c72656164792063616c6c656400000000000000600082015250565b600061276e601983611cab565b915061277982612738565b602082019050919050565b6000602082019050818103600083015261279d81612761565b9050919050565b6000602082840312156127ba576127b9611ba3565b5b60006127c884828501612253565b91505092915050565b7f616d6f756e74206d757374206578636565642030000000000000000000000000600082015250565b6000612807601483611cab565b9150612812826127d1565b602082019050919050565b60006020820190508181036000830152612836816127fa565b9050919050565b60006060820190506128526000830186611d5b565b61285f6020830185611c42565b61286c6040830184611d5b565b949350505050565b60006060820190506128896000830186611d5b565b6128966020830185611d5b565b6128a36040830184611c42565b949350505050565b600064ffffffffff82169050919050565b6128c5816128ab565b81146128d057600080fd5b50565b6000815190506128e2816128bc565b92915050565b6000806000806000806000806000806101408b8d03121561290c5761290b611ba3565b5b600061291a8d828e016122bb565b9a5050602061292b8d828e016122bb565b995050604061293c8d828e016122bb565b985050606061294d8d828e016122bb565b975050608061295e8d828e016122bb565b96505060a061296f8d828e016122bb565b95505060c06129808d828e016122bb565b94505060e06129918d828e016122bb565b9350506101006129a38d828e016122bb565b9250506101206129b58d828e016128d3565b9150509295989b9194979a509295985056fea2646970667358221220110b415122f780567a653135d8ee49f532b8d10f6ba07b9a27235b0fc1a18c1164736f6c63430008090033",
  "immutableReferences": {},
  "source": "// SPDX-License-Identifier: MIT\npragma solidity 0.8.9;\n\nimport { IERC20, ILendingPool, ILendingPoolAddressesProvider, IProtocolDataProvider, IWETHGateway} from './Interfaces.sol';\nimport { SafeERC20 } from './Libraries.sol';\nimport \"@openzeppelin/contracts/proxy/utils/Initializable.sol\";\n/**\n * This is a proof of concept starter contract, showing how uncollaterised loans are possible\n * using Aave v2 credit delegation.\n * This example supports stable interest rate borrows.\n * It is not production ready (!). User permissions and user accounting of loans should be implemented.\n * See @dev comments\n */\n\ncontract JustCausePool is Initializable {\n    //mapping(address => mapping(address => uint256)) private depositors;\n    mapping(address => uint256) private totalDeposits;\n    mapping(address => uint256) private interestWithdrawn;\n    uint256 private claimIndex;\n    bool private isBase;\n\n    ILendingPoolAddressesProvider provider;\n    address lendingPoolAddr;\n    address dataProviderAddr;\n    address wethGatewayAddr;\n\n    /*ILendingPoolAddressesProvider provider;\n    ILendingPool lendingPool;\n    IProtocolDataProvider constant dataProvider = IProtocolDataProvider(address(0x3c73A5E5785cAC854D468F727c606C07488a29D6));*/ // Kovan\n    //IWETHGateway constant wethGateway = IWETHGateway(address(0xA61ca04DF33B72b235a8A28CfB535bb7A5271B70)); //Kovan\n\n    address[] acceptedTokens;\n\n    event Deposit(address tokenAddress, address depositor, uint256 amount);\n    event Withdraw(address tokenAddress, address caller, uint256 amount);\n    event WithdrawDonations(address tokenAddress, uint256 amount);\n\n    address receiver;\n    address master;\n    string name;\n    string about;\n\n    modifier onlyAllowedTokens(address _tokenAddr){\n        bool isAccepted;\n        for (uint8 i = 0; i < acceptedTokens.length; i++){\n            if(_tokenAddr == acceptedTokens[i]){\n                isAccepted = true;\n                break;\n            }\n        }\n        require(isAccepted, \"submitted token address is not accepted by pool\");\n        _;\n    }\n\n    modifier enoughFunds(address _userAddr, address _tokenAddr, uint256 _amount) {\n        require(_amount > 0, \"amount must exceed 0\");\n        //require(depositors[_userAddr][_tokenAddr]  >= _amount, \"no funds deposited for selected token\");\n        _;\n    }\n\n    modifier onlyReceiver(address _sender){\n        require(receiver == _sender, \"you are not the current reciever for this pool\");\n        _;\n    }\n\n    modifier onlyMaster(address _sender){\n        require(master == _sender, \"you are not the owner\");\n        _;\n    }\n\n    modifier strLength(string memory _str, uint8 _limit ){\n        bytes memory strBytes = bytes(_str);\n        require(strBytes.length < _limit, \"string over character limit\");\n        _;\n    }\n\n    constructor () {\n        isBase = true;\n    }\n\n    function initialize(\n        address[] memory _acceptedTokens,\n        string memory _name,\n        string memory _about,\n        address _receiver)\n\n    strLength(_name, 30) strLength(_about, 200) initializer() external {\n\n        require(isBase == false, \"Cannot initialize base\");\n        require(receiver == address(0), \"Initialize already called\");\n\n        receiver = _receiver;\n        master = msg.sender;\n        name = _name;\n        about = _about;\n\n        provider = ILendingPoolAddressesProvider(address(0x88757f2f99175387aB4C6a4b3067c77A695b0349));\n        lendingPoolAddr = provider.getLendingPool();\n        dataProviderAddr = address(0x3c73A5E5785cAC854D468F727c606C07488a29D6);//Kovan\n        wethGatewayAddr = address(0xA61ca04DF33B72b235a8A28CfB535bb7A5271B70);//Kovan\n        acceptedTokens = _acceptedTokens;\n\n        /*provider = ILendingPoolAddressesProvider(address(0x88757f2f99175387aB4C6a4b3067c77A695b0349));\n        address lendingPoolAddr = provider.getLendingPool();\n        lendingPool = ILendingPool(lendingPoolAddr); // Kovan*/\n    }\n\n    function deposit(address _assetAddress, uint256 _amount/*, address _depositor*/) onlyMaster(msg.sender) onlyAllowedTokens(_assetAddress) external {\n        //IERC20 token = IERC20(_assetAddress);\n        //require(token.allowance(_depositor, address(this)) >= _amount, \"sender not approved\");\n        //token.transferFrom(_depositor, address(this), _amount);\n        //address poolAddr = address(lendingPool);\n        //token.approve(lendingPoolAddr, _amount);\n        //ILendingPool(lendingPoolAddr).deposit(address(token), _amount, address(this), 0);\n        totalDeposits[_assetAddress] += _amount;\n        //emit Deposit(_assetAddress, _depositor, _amount);\n    }\n\n    function depositETH(address _wethAddress , /*address _depositor,*/ uint256 _value) onlyMaster(msg.sender) external {\n        //IWETHGateway(wethGatewayAddr).depositETH{value: msg.value}(lendingPoolAddr, address(this), 0);\n        totalDeposits[_wethAddress] += _value;\n    }\n\n    /*function tallyDeposit(uint256 _amount, address _assetAddress, address _depositor) internal {\n        uint256 depositedAmount = depositors[_depositor][_assetAddress];\n        //uint256 liquidityIndex = getAaveLiquidityIndex(_assetAddress);\n        //if(depositedAmount == 0){\n            //poolTracker.addDeposit(_depositor, _amount, liquidityIndex, block.timestamp, _assetAddress);\n        //}\n        depositedAmount += _amount;\n        totalDeposits[_assetAddress] += _amount;\n        depositors[_depositor][_assetAddress] = depositedAmount;\n    }*/\n\n    function withdraw(address _assetAddress, uint256 _amount, address _depositor) onlyMaster(msg.sender) enoughFunds(_depositor, _assetAddress, _amount) external {\n        ILendingPool(lendingPoolAddr).withdraw(_assetAddress, _amount, _depositor);\n        totalDeposits[_assetAddress] -= _amount;\n        emit Withdraw(_assetAddress, _depositor, _amount);\n    }\n\n    function withdrawDonations(address _assetAddress) onlyMaster(msg.sender) onlyAllowedTokens(_assetAddress) external returns(uint256){\n        (address aTokenAddress,,) = IProtocolDataProvider(dataProviderAddr).getReserveTokensAddresses(_assetAddress);\n        uint256 aTokenBalance = IERC20(aTokenAddress).balanceOf(address(this));\n        uint256 interestEarned = aTokenBalance - totalDeposits[_assetAddress];\n        ILendingPool(lendingPoolAddr).withdraw(_assetAddress, interestEarned, receiver);\n        claimIndex = getAaveLiquidityIndex(_assetAddress);\n        interestWithdrawn[_assetAddress] += interestEarned;\n        return interestEarned;\n    }\n\n    /*function getUserBalance(address _userAddr, address _token) external view returns(uint256){\n        return depositors[_userAddr][_token];\n    }*/\n\n    function getTotalDeposits(address _token) external view returns(uint256){\n        return totalDeposits[_token];\n    }\n\n    function getAcceptedTokens() external view returns(address[] memory){\n        return acceptedTokens;\n    }\n\n    function getName() external view returns(string memory){\n        return name;\n    }\n\n    function getAbout() external view returns(string memory){\n        return about;\n    }\n\n    function getATokenAddress(address _assetAddress) external view returns(address){\n        (address aTokenAddress,,) = IProtocolDataProvider(dataProviderAddr).getReserveTokensAddresses(_assetAddress);\n        return aTokenAddress;\n    }\n\n    function getUnclaimedInterest(address _assetAddress) external view returns (uint256){\n        (address aTokenAddress,,) = IProtocolDataProvider(dataProviderAddr).getReserveTokensAddresses(_assetAddress);\n            uint256 aTokenBalance = IERC20(aTokenAddress).balanceOf(address(this));\n            return aTokenBalance - totalDeposits[_assetAddress];\n    }\n\n    function getClaimedInterest(address _assetAddress) external view returns (uint256){\n        return interestWithdrawn[_assetAddress];\n    }\n\n    function getATokenBalance(address _assetAddress) external view returns (uint256){\n        (address aTokenAddress,,) = IProtocolDataProvider(dataProviderAddr).getReserveTokensAddresses(_assetAddress);\n        return IERC20(aTokenAddress).balanceOf(address(this));\n    }\n\n    function getRecipient() external view returns(address){\n        return receiver;\n    }\n\n    function getByteCode() external view returns(bytes memory) {\n        return address(this).code;\n    }\n\n    function getHashByteCode() public view returns(bytes32) {\n        return keccak256(abi.encodePacked(address(this).code));\n    }\n\n    function getReserveNormalizedIncome(address _asset) public view returns(uint256){\n        return ILendingPool(lendingPoolAddr).getReserveNormalizedIncome(_asset);\n    }\n\n    function getAaveLiquidityIndex(address _asset) public view returns(uint256 liquidityIndex){\n        (,,,,,,,liquidityIndex,,) = IProtocolDataProvider(dataProviderAddr).getReserveData(_asset);\n    }\n}",
  "sourcePath": "/home/smeee/just_cause/contracts/JustCausePool.sol",
  "compiler": {
    "name": "solc",
    "version": "0.8.9+commit.e5eed63a.Emscripten.clang"
  },
  "schemaVersion": "3.4.3",
  "updatedAt": "2022-02-24T03:24:14.699Z",
  "devdoc": {
    "details": "comments",
    "kind": "dev",
    "methods": {},
    "version": 1
  },
  "userdoc": {
    "kind": "user",
    "methods": {},
    "notice": "This is a proof of concept starter contract, showing how uncollaterised loans are possible using Aave v2 credit delegation. This example supports stable interest rate borrows. It is not production ready (!). User permissions and user accounting of loans should be implemented.",
    "version": 1
  }
}