{
  "contractName": "JustCausePoolAaveV3",
  "abi": [
    {
      "inputs": [],
      "stateMutability": "nonpayable",
      "type": "constructor"
    },
    {
      "anonymous": false,
      "inputs": [
        {
          "indexed": false,
          "internalType": "address",
          "name": "tokenAddress",
          "type": "address"
        },
        {
          "indexed": false,
          "internalType": "address",
          "name": "depositor",
          "type": "address"
        },
        {
          "indexed": false,
          "internalType": "uint256",
          "name": "amount",
          "type": "uint256"
        }
      ],
      "name": "Deposit",
      "type": "event"
    },
    {
      "anonymous": false,
      "inputs": [
        {
          "indexed": false,
          "internalType": "address",
          "name": "tokenAddress",
          "type": "address"
        },
        {
          "indexed": false,
          "internalType": "address",
          "name": "caller",
          "type": "address"
        },
        {
          "indexed": false,
          "internalType": "uint256",
          "name": "amount",
          "type": "uint256"
        }
      ],
      "name": "Withdraw",
      "type": "event"
    },
    {
      "anonymous": false,
      "inputs": [
        {
          "indexed": false,
          "internalType": "address",
          "name": "tokenAddress",
          "type": "address"
        },
        {
          "indexed": false,
          "internalType": "uint256",
          "name": "amount",
          "type": "uint256"
        }
      ],
      "name": "WithdrawDonations",
      "type": "event"
    },
    {
      "inputs": [
        {
          "internalType": "address[]",
          "name": "_acceptedTokens",
          "type": "address[]"
        },
        {
          "internalType": "string",
          "name": "_name",
          "type": "string"
        },
        {
          "internalType": "string",
          "name": "_about",
          "type": "string"
        },
        {
          "internalType": "address",
          "name": "_receiver",
          "type": "address"
        }
      ],
      "name": "initialize",
      "outputs": [],
      "stateMutability": "nonpayable",
      "type": "function"
    },
    {
      "inputs": [
        {
          "internalType": "address",
          "name": "_assetAddress",
          "type": "address"
        },
        {
          "internalType": "uint256",
          "name": "_amount",
          "type": "uint256"
        }
      ],
      "name": "deposit",
      "outputs": [],
      "stateMutability": "nonpayable",
      "type": "function"
    },
    {
      "inputs": [
        {
          "internalType": "address",
          "name": "_wethAddress",
          "type": "address"
        },
        {
          "internalType": "uint256",
          "name": "_value",
          "type": "uint256"
        }
      ],
      "name": "depositETH",
      "outputs": [],
      "stateMutability": "nonpayable",
      "type": "function"
    },
    {
      "inputs": [
        {
          "internalType": "address",
          "name": "_assetAddress",
          "type": "address"
        },
        {
          "internalType": "uint256",
          "name": "_amount",
          "type": "uint256"
        },
        {
          "internalType": "address",
          "name": "_depositor",
          "type": "address"
        },
        {
          "internalType": "bool",
          "name": "isETH",
          "type": "bool"
        }
      ],
      "name": "withdraw",
      "outputs": [],
      "stateMutability": "nonpayable",
      "type": "function"
    },
    {
      "inputs": [
        {
          "internalType": "address",
          "name": "_assetAddress",
          "type": "address"
        },
        {
          "internalType": "bool",
          "name": "isETH",
          "type": "bool"
        }
      ],
      "name": "withdrawDonations",
      "outputs": [
        {
          "internalType": "uint256",
          "name": "",
          "type": "uint256"
        }
      ],
      "stateMutability": "nonpayable",
      "type": "function"
    },
    {
      "inputs": [
        {
          "internalType": "address",
          "name": "_token",
          "type": "address"
        }
      ],
      "name": "getTotalDeposits",
      "outputs": [
        {
          "internalType": "uint256",
          "name": "",
          "type": "uint256"
        }
      ],
      "stateMutability": "view",
      "type": "function"
    },
    {
      "inputs": [],
      "name": "getAcceptedTokens",
      "outputs": [
        {
          "internalType": "address[]",
          "name": "",
          "type": "address[]"
        }
      ],
      "stateMutability": "view",
      "type": "function"
    },
    {
      "inputs": [],
      "name": "getName",
      "outputs": [
        {
          "internalType": "string",
          "name": "",
          "type": "string"
        }
      ],
      "stateMutability": "view",
      "type": "function"
    },
    {
      "inputs": [],
      "name": "getAbout",
      "outputs": [
        {
          "internalType": "string",
          "name": "",
          "type": "string"
        }
      ],
      "stateMutability": "view",
      "type": "function"
    },
    {
      "inputs": [
        {
          "internalType": "address",
          "name": "_assetAddress",
          "type": "address"
        }
      ],
      "name": "getATokenAddress",
      "outputs": [
        {
          "internalType": "address",
          "name": "aTokenAddress",
          "type": "address"
        }
      ],
      "stateMutability": "view",
      "type": "function"
    },
    {
      "inputs": [
        {
          "internalType": "address",
          "name": "_assetAddress",
          "type": "address"
        }
      ],
      "name": "getUnclaimedInterest",
      "outputs": [
        {
          "internalType": "uint256",
          "name": "",
          "type": "uint256"
        }
      ],
      "stateMutability": "view",
      "type": "function"
    },
    {
      "inputs": [
        {
          "internalType": "address",
          "name": "_assetAddress",
          "type": "address"
        }
      ],
      "name": "getClaimedInterest",
      "outputs": [
        {
          "internalType": "uint256",
          "name": "",
          "type": "uint256"
        }
      ],
      "stateMutability": "view",
      "type": "function"
    },
    {
      "inputs": [
        {
          "internalType": "address",
          "name": "_assetAddress",
          "type": "address"
        }
      ],
      "name": "getATokenBalance",
      "outputs": [
        {
          "internalType": "uint256",
          "name": "",
          "type": "uint256"
        }
      ],
      "stateMutability": "view",
      "type": "function"
    },
    {
      "inputs": [],
      "name": "getRecipient",
      "outputs": [
        {
          "internalType": "address",
          "name": "",
          "type": "address"
        }
      ],
      "stateMutability": "view",
      "type": "function"
    },
    {
      "inputs": [],
      "name": "getByteCode",
      "outputs": [
        {
          "internalType": "bytes",
          "name": "",
          "type": "bytes"
        }
      ],
      "stateMutability": "view",
      "type": "function"
    },
    {
      "inputs": [],
      "name": "getHashByteCode",
      "outputs": [
        {
          "internalType": "bytes32",
          "name": "",
          "type": "bytes32"
        }
      ],
      "stateMutability": "view",
      "type": "function"
    },
    {
      "inputs": [
        {
          "internalType": "address",
          "name": "_asset",
          "type": "address"
        }
      ],
      "name": "getReserveNormalizedIncome",
      "outputs": [
        {
          "internalType": "uint256",
          "name": "",
          "type": "uint256"
        }
      ],
      "stateMutability": "view",
      "type": "function"
    },
    {
      "inputs": [
        {
          "internalType": "address",
          "name": "_asset",
          "type": "address"
        }
      ],
      "name": "getAaveLiquidityIndex",
      "outputs": [
        {
          "internalType": "uint256",
          "name": "liquidityIndex",
          "type": "uint256"
        }
      ],
      "stateMutability": "view",
      "type": "function"
    }
  ],
  "bytecode": "0x608060405234801561001057600080fd5b506001600360006101000a81548160ff021916908315150217905550612cb48061003b6000396000f3fe608060405234801561001057600080fd5b50600436106101165760003560e01c8063343d693b116100a257806357ac65661161007157806357ac6566146102e15780635ff189b9146102ff578063711cc0051461032f5780638aebe8d61461035f578063d15e00531461038f57610116565b8063343d693b1461025b5780633735ef881461027957806347e7ef24146102a957806350d02d71146102c557610116565b806317d7de7c116100e957806317d7de7c146101b55780631b88094d146101d35780632e599054146101f15780632f7570061461020d578063322ce09e1461022b57610116565b80630251cfa11461011b5780630712f6b31461014b5780630835d21a1461017b57806312eeff7e14610199575b600080fd5b61013560048036038101906101309190611ca8565b6103bf565b6040516101429190611cee565b60405180910390f35b61016560048036038101906101609190611ca8565b610408565b6040516101729190611cee565b60405180910390f35b6101836104a7565b6040516101909190611d22565b60405180910390f35b6101b360048036038101906101ae9190611da1565b610507565b005b6101bd6108a7565b6040516101ca9190611ea1565b60405180910390f35b6101db610939565b6040516101e89190611ed2565b60405180910390f35b61020b60048036038101906102069190611eed565b610963565b005b610215610a4f565b6040516102229190611feb565b60405180910390f35b6102456004803603810190610240919061200d565b610add565b6040516102529190611cee565b60405180910390f35b61026361100d565b6040516102709190611ea1565b60405180910390f35b610293600480360381019061028e9190611ca8565b61109f565b6040516102a09190611cee565b60405180910390f35b6102c360048036038101906102be9190611eed565b61118e565b005b6102df60048036038101906102da919061224a565b611367565b005b6102e9611829565b6040516102f6919061235a565b60405180910390f35b61031960048036038101906103149190611ca8565b611863565b6040516103269190611cee565b60405180910390f35b61034960048036038101906103449190611ca8565b6118ac565b6040516103569190611ed2565b60405180910390f35b61037960048036038101906103749190611ca8565b611966565b6040516103869190611cee565b60405180910390f35b6103a960048036038101906103a49190611ca8565b611a31565b6040516103b69190611cee565b60405180910390f35b6000600160008373ffffffffffffffffffffffffffffffffffffffff1673ffffffffffffffffffffffffffffffffffffffff168152602001908152602001600020549050919050565b600080610414836118ac565b90508073ffffffffffffffffffffffffffffffffffffffff166370a08231306040518263ffffffff1660e01b815260040161044f9190611ed2565b60206040518083038186803b15801561046757600080fd5b505afa15801561047b573d6000803e3d6000fd5b505050506040513d601f19601f8201168201806040525081019061049f9190612391565b915050919050565b60003073ffffffffffffffffffffffffffffffffffffffff16803b806020016040519081016040528181526000908060200190933c6040516020016104ec91906123fa565b60405160208183030381529060405280519060200120905090565b338073ffffffffffffffffffffffffffffffffffffffff16600860009054906101000a900473ffffffffffffffffffffffffffffffffffffffff1673ffffffffffffffffffffffffffffffffffffffff1614610598576040517f08c379a000000000000000000000000000000000000000000000000000000000815260040161058f9061245d565b60405180910390fd5b828585600081116105de576040517f08c379a00000000000000000000000000000000000000000000000000000000081526004016105d5906124c9565b60405180910390fd5b86600160008a73ffffffffffffffffffffffffffffffffffffffff1673ffffffffffffffffffffffffffffffffffffffff168152602001908152602001600020600082825461062d9190612518565b92505081905550846106f057600460009054906101000a900473ffffffffffffffffffffffffffffffffffffffff1673ffffffffffffffffffffffffffffffffffffffff166369328dec8989896040518463ffffffff1660e01b81526004016106989392919061254c565b602060405180830381600087803b1580156106b257600080fd5b505af11580156106c6573d6000803e3d6000fd5b505050506040513d601f19601f820116820180604052508101906106ea9190612391565b50610862565b60006106fb896118ac565b90508073ffffffffffffffffffffffffffffffffffffffff1663095ea7b3600560009054906101000a900473ffffffffffffffffffffffffffffffffffffffff168a6040518363ffffffff1660e01b815260040161075a929190612583565b602060405180830381600087803b15801561077457600080fd5b505af1158015610788573d6000803e3d6000fd5b505050506040513d601f19601f820116820180604052508101906107ac91906125c1565b50600560009054906101000a900473ffffffffffffffffffffffffffffffffffffffff1673ffffffffffffffffffffffffffffffffffffffff166380500d20600460009054906101000a900473ffffffffffffffffffffffffffffffffffffffff168a8a6040518463ffffffff1660e01b815260040161082e9392919061254c565b600060405180830381600087803b15801561084857600080fd5b505af115801561085c573d6000803e3d6000fd5b50505050505b7f9b1bfa7fa9ee420a16e124f794c35ac9f90472acc99140eb2f6447c714cad8eb888789604051610895939291906125ee565b60405180910390a15050505050505050565b6060600980546108b690612654565b80601f01602080910402602001604051908101604052809291908181526020018280546108e290612654565b801561092f5780601f106109045761010080835404028352916020019161092f565b820191906000526020600020905b81548152906001019060200180831161091257829003601f168201915b5050505050905090565b6000600760009054906101000a900473ffffffffffffffffffffffffffffffffffffffff16905090565b338073ffffffffffffffffffffffffffffffffffffffff16600860009054906101000a900473ffffffffffffffffffffffffffffffffffffffff1673ffffffffffffffffffffffffffffffffffffffff16146109f4576040517f08c379a00000000000000000000000000000000000000000000000000000000081526004016109eb9061245d565b60405180910390fd5b81600160008573ffffffffffffffffffffffffffffffffffffffff1673ffffffffffffffffffffffffffffffffffffffff1681526020019081526020016000206000828254610a439190612686565b92505081905550505050565b60606006805480602002602001604051908101604052809291908181526020018280548015610ad357602002820191906000526020600020905b8160009054906101000a900473ffffffffffffffffffffffffffffffffffffffff1673ffffffffffffffffffffffffffffffffffffffff1681526020019060010190808311610a89575b5050505050905090565b6000338073ffffffffffffffffffffffffffffffffffffffff16600860009054906101000a900473ffffffffffffffffffffffffffffffffffffffff1673ffffffffffffffffffffffffffffffffffffffff1614610b70576040517f08c379a0000000000000000000000000000000000000000000000000000000008152600401610b679061245d565b60405180910390fd5b83600080600090505b6006805490508160ff161015610c1a5760068160ff1681548110610ba057610b9f6126dc565b5b9060005260206000200160009054906101000a900473ffffffffffffffffffffffffffffffffffffffff1673ffffffffffffffffffffffffffffffffffffffff168373ffffffffffffffffffffffffffffffffffffffff161415610c075760019150610c1a565b8080610c1290612718565b915050610b79565b5080610c5b576040517f08c379a0000000000000000000000000000000000000000000000000000000008152600401610c52906127b4565b60405180910390fd5b6000610c66876118ac565b905060008173ffffffffffffffffffffffffffffffffffffffff166370a08231306040518263ffffffff1660e01b8152600401610ca39190611ed2565b60206040518083038186803b158015610cbb57600080fd5b505afa158015610ccf573d6000803e3d6000fd5b505050506040513d601f19601f82011682018060405250810190610cf39190612391565b90506000600160008a73ffffffffffffffffffffffffffffffffffffffff1673ffffffffffffffffffffffffffffffffffffffff1681526020019081526020016000205482610d429190612518565b905080600260008b73ffffffffffffffffffffffffffffffffffffffff1673ffffffffffffffffffffffffffffffffffffffff1681526020019081526020016000206000828254610d939190612686565b9250508190555087610e7857600460009054906101000a900473ffffffffffffffffffffffffffffffffffffffff1673ffffffffffffffffffffffffffffffffffffffff166369328dec8a83600760009054906101000a900473ffffffffffffffffffffffffffffffffffffffff166040518463ffffffff1660e01b8152600401610e209392919061254c565b602060405180830381600087803b158015610e3a57600080fd5b505af1158015610e4e573d6000803e3d6000fd5b505050506040513d601f19601f82011682018060405250810190610e729190612391565b50610ffe565b8273ffffffffffffffffffffffffffffffffffffffff1663095ea7b3600560009054906101000a900473ffffffffffffffffffffffffffffffffffffffff16836040518363ffffffff1660e01b8152600401610ed5929190612583565b602060405180830381600087803b158015610eef57600080fd5b505af1158015610f03573d6000803e3d6000fd5b505050506040513d601f19601f82011682018060405250810190610f2791906125c1565b50600560009054906101000a900473ffffffffffffffffffffffffffffffffffffffff1673ffffffffffffffffffffffffffffffffffffffff166380500d20600460009054906101000a900473ffffffffffffffffffffffffffffffffffffffff1683600760009054906101000a900473ffffffffffffffffffffffffffffffffffffffff166040518463ffffffff1660e01b8152600401610fcb9392919061254c565b600060405180830381600087803b158015610fe557600080fd5b505af1158015610ff9573d6000803e3d6000fd5b505050505b80965050505050505092915050565b6060600a805461101c90612654565b80601f016020809104026020016040519081016040528092919081815260200182805461104890612654565b80156110955780601f1061106a57610100808354040283529160200191611095565b820191906000526020600020905b81548152906001019060200180831161107857829003601f168201915b5050505050905090565b6000806110ab836118ac565b905060008173ffffffffffffffffffffffffffffffffffffffff166370a08231306040518263ffffffff1660e01b81526004016110e89190611ed2565b60206040518083038186803b15801561110057600080fd5b505afa158015611114573d6000803e3d6000fd5b505050506040513d601f19601f820116820180604052508101906111389190612391565b9050600160008573ffffffffffffffffffffffffffffffffffffffff1673ffffffffffffffffffffffffffffffffffffffff16815260200190815260200160002054816111859190612518565b92505050919050565b338073ffffffffffffffffffffffffffffffffffffffff16600860009054906101000a900473ffffffffffffffffffffffffffffffffffffffff1673ffffffffffffffffffffffffffffffffffffffff161461121f576040517f08c379a00000000000000000000000000000000000000000000000000000000081526004016112169061245d565b60405180910390fd5b82600080600090505b6006805490508160ff1610156112c95760068160ff168154811061124f5761124e6126dc565b5b9060005260206000200160009054906101000a900473ffffffffffffffffffffffffffffffffffffffff1673ffffffffffffffffffffffffffffffffffffffff168373ffffffffffffffffffffffffffffffffffffffff1614156112b657600191506112c9565b80806112c190612718565b915050611228565b508061130a576040517f08c379a0000000000000000000000000000000000000000000000000000000008152600401611301906127b4565b60405180910390fd5b83600160008773ffffffffffffffffffffffffffffffffffffffff1673ffffffffffffffffffffffffffffffffffffffff16815260200190815260200160002060008282546113599190612686565b925050819055505050505050565b82601e60008290508160ff168151106113b5576040517f08c379a00000000000000000000000000000000000000000000000000000000081526004016113ac90612820565b60405180910390fd5b8460c860008290508160ff16815110611403576040517f08c379a00000000000000000000000000000000000000000000000000000000081526004016113fa90612820565b60405180910390fd5b600060019054906101000a900460ff1661142b5760008054906101000a900460ff1615611434565b611433611ae5565b5b611473576040517f08c379a000000000000000000000000000000000000000000000000000000000815260040161146a906128b2565b60405180910390fd5b60008060019054906101000a900460ff1615905080156114c3576001600060016101000a81548160ff02191690831515021790555060016000806101000a81548160ff0219169083151502179055505b60001515600360009054906101000a900460ff16151514611519576040517f08c379a00000000000000000000000000000000000000000000000000000000081526004016115109061291e565b60405180910390fd5b600073ffffffffffffffffffffffffffffffffffffffff16600760009054906101000a900473ffffffffffffffffffffffffffffffffffffffff1673ffffffffffffffffffffffffffffffffffffffff16146115aa576040517f08c379a00000000000000000000000000000000000000000000000000000000081526004016115a19061298a565b60405180910390fd5b87600760006101000a81548173ffffffffffffffffffffffffffffffffffffffff021916908373ffffffffffffffffffffffffffffffffffffffff16021790555033600860006101000a81548173ffffffffffffffffffffffffffffffffffffffff021916908373ffffffffffffffffffffffffffffffffffffffff1602179055508960099080519060200190611642929190611b09565b5088600a9080519060200190611659929190611b09565b50735343b5ba672ae99d627a1c87866b8e53f47db2e6600360016101000a81548173ffffffffffffffffffffffffffffffffffffffff021916908373ffffffffffffffffffffffffffffffffffffffff160217905550600360019054906101000a900473ffffffffffffffffffffffffffffffffffffffff1673ffffffffffffffffffffffffffffffffffffffff1663026b1d5f6040518163ffffffff1660e01b815260040160206040518083038186803b15801561171757600080fd5b505afa15801561172b573d6000803e3d6000fd5b505050506040513d601f19601f8201168201806040525081019061174f91906129bf565b600460006101000a81548173ffffffffffffffffffffffffffffffffffffffff021916908373ffffffffffffffffffffffffffffffffffffffff160217905550732a58e9bbb5434fda7ff78051a4b82cb0ef669c17600560006101000a81548173ffffffffffffffffffffffffffffffffffffffff021916908373ffffffffffffffffffffffffffffffffffffffff1602179055508a600690805190602001906117fa929190611b8f565b50801561181c5760008060016101000a81548160ff0219169083151502179055505b5050505050505050505050565b60603073ffffffffffffffffffffffffffffffffffffffff16803b806020016040519081016040528181526000908060200190933c905090565b6000600260008373ffffffffffffffffffffffffffffffffffffffff1673ffffffffffffffffffffffffffffffffffffffff168152602001908152602001600020549050919050565b6000600460009054906101000a900473ffffffffffffffffffffffffffffffffffffffff1673ffffffffffffffffffffffffffffffffffffffff166335ea6a75836040518263ffffffff1660e01b81526004016119099190611ed2565b6101e06040518083038186803b15801561192257600080fd5b505afa158015611936573d6000803e3d6000fd5b505050506040513d601f19601f8201168201806040525081019061195a9190612c50565b61010001519050919050565b6000600460009054906101000a900473ffffffffffffffffffffffffffffffffffffffff1673ffffffffffffffffffffffffffffffffffffffff166335ea6a75836040518263ffffffff1660e01b81526004016119c39190611ed2565b6101e06040518083038186803b1580156119dc57600080fd5b505afa1580156119f0573d6000803e3d6000fd5b505050506040513d601f19601f82011682018060405250810190611a149190612c50565b602001516fffffffffffffffffffffffffffffffff169050919050565b6000600460009054906101000a900473ffffffffffffffffffffffffffffffffffffffff1673ffffffffffffffffffffffffffffffffffffffff1663d15e0053836040518263ffffffff1660e01b8152600401611a8e9190611ed2565b60206040518083038186803b158015611aa657600080fd5b505afa158015611aba573d6000803e3d6000fd5b505050506040513d601f19601f82011682018060405250810190611ade9190612391565b9050919050565b6000611af030611af6565b15905090565b600080823b905060008111915050919050565b828054611b1590612654565b90600052602060002090601f016020900481019282611b375760008555611b7e565b82601f10611b5057805160ff1916838001178555611b7e565b82800160010185558215611b7e579182015b82811115611b7d578251825591602001919060010190611b62565b5b509050611b8b9190611c19565b5090565b828054828255906000526020600020908101928215611c08579160200282015b82811115611c075782518260006101000a81548173ffffffffffffffffffffffffffffffffffffffff021916908373ffffffffffffffffffffffffffffffffffffffff16021790555091602001919060010190611baf565b5b509050611c159190611c19565b5090565b5b80821115611c32576000816000905550600101611c1a565b5090565b6000604051905090565b600080fd5b600080fd5b600073ffffffffffffffffffffffffffffffffffffffff82169050919050565b6000611c7582611c4a565b9050919050565b611c8581611c6a565b8114611c9057600080fd5b50565b600081359050611ca281611c7c565b92915050565b600060208284031215611cbe57611cbd611c40565b5b6000611ccc84828501611c93565b91505092915050565b6000819050919050565b611ce881611cd5565b82525050565b6000602082019050611d036000830184611cdf565b92915050565b6000819050919050565b611d1c81611d09565b82525050565b6000602082019050611d376000830184611d13565b92915050565b611d4681611cd5565b8114611d5157600080fd5b50565b600081359050611d6381611d3d565b92915050565b60008115159050919050565b611d7e81611d69565b8114611d8957600080fd5b50565b600081359050611d9b81611d75565b92915050565b60008060008060808587031215611dbb57611dba611c40565b5b6000611dc987828801611c93565b9450506020611dda87828801611d54565b9350506040611deb87828801611c93565b9250506060611dfc87828801611d8c565b91505092959194509250565b600081519050919050565b600082825260208201905092915050565b60005b83811015611e42578082015181840152602081019050611e27565b83811115611e51576000848401525b50505050565b6000601f19601f8301169050919050565b6000611e7382611e08565b611e7d8185611e13565b9350611e8d818560208601611e24565b611e9681611e57565b840191505092915050565b60006020820190508181036000830152611ebb8184611e68565b905092915050565b611ecc81611c6a565b82525050565b6000602082019050611ee76000830184611ec3565b92915050565b60008060408385031215611f0457611f03611c40565b5b6000611f1285828601611c93565b9250506020611f2385828601611d54565b9150509250929050565b600081519050919050565b600082825260208201905092915050565b6000819050602082019050919050565b611f6281611c6a565b82525050565b6000611f748383611f59565b60208301905092915050565b6000602082019050919050565b6000611f9882611f2d565b611fa28185611f38565b9350611fad83611f49565b8060005b83811015611fde578151611fc58882611f68565b9750611fd083611f80565b925050600181019050611fb1565b5085935050505092915050565b600060208201905081810360008301526120058184611f8d565b905092915050565b6000806040838503121561202457612023611c40565b5b600061203285828601611c93565b925050602061204385828601611d8c565b9150509250929050565b600080fd5b7f4e487b7100000000000000000000000000000000000000000000000000000000600052604160045260246000fd5b61208a82611e57565b810181811067ffffffffffffffff821117156120a9576120a8612052565b5b80604052505050565b60006120bc611c36565b90506120c88282612081565b919050565b600067ffffffffffffffff8211156120e8576120e7612052565b5b602082029050602081019050919050565b600080fd5b600061211161210c846120cd565b6120b2565b90508083825260208201905060208402830185811115612134576121336120f9565b5b835b8181101561215d57806121498882611c93565b845260208401935050602081019050612136565b5050509392505050565b600082601f83011261217c5761217b61204d565b5b813561218c8482602086016120fe565b91505092915050565b600080fd5b600067ffffffffffffffff8211156121b5576121b4612052565b5b6121be82611e57565b9050602081019050919050565b82818337600083830152505050565b60006121ed6121e88461219a565b6120b2565b90508281526020810184848401111561220957612208612195565b5b6122148482856121cb565b509392505050565b600082601f8301126122315761223061204d565b5b81356122418482602086016121da565b91505092915050565b6000806000806080858703121561226457612263611c40565b5b600085013567ffffffffffffffff81111561228257612281611c45565b5b61228e87828801612167565b945050602085013567ffffffffffffffff8111156122af576122ae611c45565b5b6122bb8782880161221c565b935050604085013567ffffffffffffffff8111156122dc576122db611c45565b5b6122e88782880161221c565b92505060606122f987828801611c93565b91505092959194509250565b600081519050919050565b600082825260208201905092915050565b600061232c82612305565b6123368185612310565b9350612346818560208601611e24565b61234f81611e57565b840191505092915050565b600060208201905081810360008301526123748184612321565b905092915050565b60008151905061238b81611d3d565b92915050565b6000602082840312156123a7576123a6611c40565b5b60006123b58482850161237c565b91505092915050565b600081905092915050565b60006123d482612305565b6123de81856123be565b93506123ee818560208601611e24565b80840191505092915050565b600061240682846123c9565b915081905092915050565b7f796f7520617265206e6f7420746865206f776e65720000000000000000000000600082015250565b6000612447601583611e13565b915061245282612411565b602082019050919050565b600060208201905081810360008301526124768161243a565b9050919050565b7f616d6f756e74206d757374206578636565642030000000000000000000000000600082015250565b60006124b3601483611e13565b91506124be8261247d565b602082019050919050565b600060208201905081810360008301526124e2816124a6565b9050919050565b7f4e487b7100000000000000000000000000000000000000000000000000000000600052601160045260246000fd5b600061252382611cd5565b915061252e83611cd5565b925082821015612541576125406124e9565b5b828203905092915050565b60006060820190506125616000830186611ec3565b61256e6020830185611cdf565b61257b6040830184611ec3565b949350505050565b60006040820190506125986000830185611ec3565b6125a56020830184611cdf565b9392505050565b6000815190506125bb81611d75565b92915050565b6000602082840312156125d7576125d6611c40565b5b60006125e5848285016125ac565b91505092915050565b60006060820190506126036000830186611ec3565b6126106020830185611ec3565b61261d6040830184611cdf565b949350505050565b7f4e487b7100000000000000000000000000000000000000000000000000000000600052602260045260246000fd5b6000600282049050600182168061266c57607f821691505b602082108114156126805761267f612625565b5b50919050565b600061269182611cd5565b915061269c83611cd5565b9250827fffffffffffffffffffffffffffffffffffffffffffffffffffffffffffffffff038211156126d1576126d06124e9565b5b828201905092915050565b7f4e487b7100000000000000000000000000000000000000000000000000000000600052603260045260246000fd5b600060ff82169050919050565b60006127238261270b565b915060ff821415612737576127366124e9565b5b600182019050919050565b7f7375626d697474656420746f6b656e2061646472657373206973206e6f74206160008201527f6363657074656420627920706f6f6c0000000000000000000000000000000000602082015250565b600061279e602f83611e13565b91506127a982612742565b604082019050919050565b600060208201905081810360008301526127cd81612791565b9050919050565b7f737472696e67206f76657220636861726163746572206c696d69740000000000600082015250565b600061280a601b83611e13565b9150612815826127d4565b602082019050919050565b60006020820190508181036000830152612839816127fd565b9050919050565b7f496e697469616c697a61626c653a20636f6e747261637420697320616c72656160008201527f647920696e697469616c697a6564000000000000000000000000000000000000602082015250565b600061289c602e83611e13565b91506128a782612840565b604082019050919050565b600060208201905081810360008301526128cb8161288f565b9050919050565b7f43616e6e6f7420696e697469616c697a65206261736500000000000000000000600082015250565b6000612908601683611e13565b9150612913826128d2565b602082019050919050565b60006020820190508181036000830152612937816128fb565b9050919050565b7f496e697469616c697a6520616c72656164792063616c6c656400000000000000600082015250565b6000612974601983611e13565b915061297f8261293e565b602082019050919050565b600060208201905081810360008301526129a381612967565b9050919050565b6000815190506129b981611c7c565b92915050565b6000602082840312156129d5576129d4611c40565b5b60006129e3848285016129aa565b91505092915050565b600080fd5b600060208284031215612a0757612a066129ec565b5b612a1160206120b2565b90506000612a218482850161237c565b60008301525092915050565b60006fffffffffffffffffffffffffffffffff82169050919050565b612a5281612a2d565b8114612a5d57600080fd5b50565b600081519050612a6f81612a49565b92915050565b600064ffffffffff82169050919050565b612a8f81612a75565b8114612a9a57600080fd5b50565b600081519050612aac81612a86565b92915050565b600061ffff82169050919050565b612ac981612ab2565b8114612ad457600080fd5b50565b600081519050612ae681612ac0565b92915050565b60006101e08284031215612b0357612b026129ec565b5b612b0e6101e06120b2565b90506000612b1e848285016129f1565b6000830152506020612b3284828501612a60565b6020830152506040612b4684828501612a60565b6040830152506060612b5a84828501612a60565b6060830152506080612b6e84828501612a60565b60808301525060a0612b8284828501612a60565b60a08301525060c0612b9684828501612a9d565b60c08301525060e0612baa84828501612ad7565b60e083015250610100612bbf848285016129aa565b61010083015250610120612bd5848285016129aa565b61012083015250610140612beb848285016129aa565b61014083015250610160612c01848285016129aa565b61016083015250610180612c1784828501612a60565b610180830152506101a0612c2d84828501612a60565b6101a0830152506101c0612c4384828501612a60565b6101c08301525092915050565b60006101e08284031215612c6757612c66611c40565b5b6000612c7584828501612aec565b9150509291505056fea26469706673582212206bcdd2b786d34505d79205e8a973a2300445ccd8b1b2b907b3fad9f80a161c4964736f6c63430008090033",
  "immutableReferences": {},
  "source": "// SPDX-License-Identifier: MIT\npragma solidity 0.8.9;\n\nimport { IERC20, IPool, IPoolAddressesProvider, IWETHGateway} from './Interfaces.sol';\nimport { SafeERC20 } from './Libraries.sol';\nimport \"@openzeppelin/contracts/proxy/utils/Initializable.sol\";\n/**\n * This is a proof of concept starter contract, showing how uncollaterised loans are possible\n * using Aave v2 credit delegation.\n * This example supports stable interest rate borrows.\n * It is not production ready (!). User permissions and user accounting of loans should be implemented.\n * See @dev comments\n */\n\ncontract JustCausePoolAaveV3 is Initializable {\n    //mapping(address => mapping(address => uint256)) private depositors;\n    mapping(address => uint256) private totalDeposits;\n    mapping(address => uint256) private interestWithdrawn;\n    bool private isBase;\n\n    IPoolAddressesProvider provider;\n    address poolAddr;\n    address wethGatewayAddr;\n\n    address[] acceptedTokens;\n\n    event Deposit(address tokenAddress, address depositor, uint256 amount);\n    event Withdraw(address tokenAddress, address caller, uint256 amount);\n    event WithdrawDonations(address tokenAddress, uint256 amount);\n\n    address receiver;\n    address master;\n    string name;\n    string about;\n\n    modifier onlyAllowedTokens(address _tokenAddr){\n        bool isAccepted;\n        for (uint8 i = 0; i < acceptedTokens.length; i++){\n            if(_tokenAddr == acceptedTokens[i]){\n                isAccepted = true;\n                break;\n            }\n        }\n        require(isAccepted, \"submitted token address is not accepted by pool\");\n        _;\n    }\n\n    modifier enoughFunds(address _userAddr, address _tokenAddr, uint256 _amount) {\n        require(_amount > 0, \"amount must exceed 0\");\n        //require(depositors[_userAddr][_tokenAddr]  >= _amount, \"no funds deposited for selected token\");\n        _;\n    }\n\n    modifier onlyReceiver(address _sender){\n        require(receiver == _sender, \"you are not the current reciever for this pool\");\n        _;\n    }\n\n    modifier onlyMaster(address _sender){\n        require(master == _sender, \"you are not the owner\");\n        _;\n    }\n\n    modifier strLength(string memory _str, uint8 _limit ){\n        bytes memory strBytes = bytes(_str);\n        require(strBytes.length < _limit, \"string over character limit\");\n        _;\n    }\n\n    constructor () {\n        isBase = true;\n    }\n\n    function initialize(\n        address[] memory _acceptedTokens,\n        string memory _name,\n        string memory _about,\n        address _receiver)\n\n    strLength(_name, 30) strLength(_about, 200) initializer() external {\n\n        require(isBase == false, \"Cannot initialize base\");\n        require(receiver == address(0), \"Initialize already called\");\n\n        receiver = _receiver;\n        master = msg.sender;\n        name = _name;\n        about = _about;\n\n        provider = IPoolAddressesProvider(address(0x5343b5bA672Ae99d627A1C87866b8E53F47Db2E6)); // polygon mumbai v3\n        poolAddr = provider.getPool();\n        wethGatewayAddr = address(0x2a58E9bbb5434FdA7FF78051a4B82cb0EF669C17);// polygon mumbai v3\n        acceptedTokens = _acceptedTokens;\n    }\n\n    function deposit(address _assetAddress, uint256 _amount/*, address _depositor*/) onlyMaster(msg.sender) onlyAllowedTokens(_assetAddress) external {\n        //IERC20 token = IERC20(_assetAddress);\n        //require(token.allowance(_depositor, address(this)) >= _amount, \"sender not approved\");\n        //token.transferFrom(_depositor, address(this), _amount);\n        //address poolAddr = address(Pool);\n        //token.approve(poolAddr, _amount);\n        //IPool(poolAddr).deposit(address(token), _amount, address(this), 0);\n        totalDeposits[_assetAddress] += _amount;\n        //emit Deposit(_assetAddress, _depositor, _amount);\n    }\n\n    function depositETH(address _wethAddress , /*address _depositor,*/ uint256 _value) onlyMaster(msg.sender) external {\n        //IWETHGateway(wethGatewayAddr).depositETH{value: msg.value}(poolAddr, address(this), 0);\n        totalDeposits[_wethAddress] += _value;\n    }\n\n    /*function tallyDeposit(uint256 _amount, address _assetAddress, address _depositor) internal {\n        uint256 depositedAmount = depositors[_depositor][_assetAddress];\n        //uint256 liquidityIndex = getAaveLiquidityIndex(_assetAddress);\n        //if(depositedAmount == 0){\n            //poolTracker.addDeposit(_depositor, _amount, liquidityIndex, block.timestamp, _assetAddress);\n        //}\n        depositedAmount += _amount;\n        totalDeposits[_assetAddress] += _amount;\n        depositors[_depositor][_assetAddress] = depositedAmount;\n    }*/\n\n    function withdraw(address _assetAddress, uint256 _amount, address _depositor, bool isETH) onlyMaster(msg.sender) enoughFunds(_depositor, _assetAddress, _amount) external {\n        totalDeposits[_assetAddress] -= _amount;\n        if(!isETH){\n            IPool(poolAddr).withdraw(_assetAddress, _amount, _depositor);\n        }\n        else{\n            address aTokenAddress = getATokenAddress(_assetAddress);\n            IERC20(aTokenAddress).approve(wethGatewayAddr, _amount);\n            IWETHGateway(wethGatewayAddr).withdrawETH(poolAddr, _amount, _depositor);\n        }\n        emit Withdraw(_assetAddress, _depositor, _amount);\n    }\n\n    function withdrawDonations(address _assetAddress, bool isETH) onlyMaster(msg.sender) onlyAllowedTokens(_assetAddress) external returns(uint256){\n        address aTokenAddress = getATokenAddress(_assetAddress);\n        uint256 aTokenBalance = IERC20(aTokenAddress).balanceOf(address(this));\n        uint256 interestEarned = aTokenBalance - totalDeposits[_assetAddress];\n        interestWithdrawn[_assetAddress] += interestEarned;\n\n        if(!isETH){\n            IPool(poolAddr).withdraw(_assetAddress, interestEarned, receiver);\n        }\n        else{\n            IERC20(aTokenAddress).approve(wethGatewayAddr, interestEarned);\n            IWETHGateway(wethGatewayAddr).withdrawETH(poolAddr, interestEarned, receiver);\n        }\n\n        return interestEarned;\n    }\n\n    /*function getUserBalance(address _userAddr, address _token) external view returns(uint256){\n        return depositors[_userAddr][_token];\n    }*/\n\n    function getTotalDeposits(address _token) external view returns(uint256){\n        return totalDeposits[_token];\n    }\n\n    function getAcceptedTokens() external view returns(address[] memory){\n        return acceptedTokens;\n    }\n\n    function getName() external view returns(string memory){\n        return name;\n    }\n\n    function getAbout() external view returns(string memory){\n        return about;\n    }\n\n    function getATokenAddress(address _assetAddress) public view returns(address aTokenAddress){\n        //(,,,,,,,, aTokenAddress,,,,,,) = IPool(poolAddr).getReserveData(_assetAddress);\n        aTokenAddress = IPool(poolAddr).getReserveData(_assetAddress).aTokenAddress;\n    }\n\n    function getUnclaimedInterest(address _assetAddress) external view returns (uint256){\n        address aTokenAddress = getATokenAddress(_assetAddress);\n        uint256 aTokenBalance = IERC20(aTokenAddress).balanceOf(address(this));\n        return aTokenBalance - totalDeposits[_assetAddress];\n    }\n\n    function getClaimedInterest(address _assetAddress) external view returns (uint256){\n        return interestWithdrawn[_assetAddress];\n    }\n\n    function getATokenBalance(address _assetAddress) external view returns (uint256){\n        address aTokenAddress = getATokenAddress(_assetAddress);\n        return IERC20(aTokenAddress).balanceOf(address(this));\n    }\n\n    function getRecipient() external view returns(address){\n        return receiver;\n    }\n\n    function getByteCode() external view returns(bytes memory) {\n        return address(this).code;\n    }\n\n    function getHashByteCode() public view returns(bytes32) {\n        return keccak256(abi.encodePacked(address(this).code));\n    }\n\n    function getReserveNormalizedIncome(address _asset) public view returns(uint256){\n        return IPool(poolAddr).getReserveNormalizedIncome(_asset);\n    }\n\n    function getAaveLiquidityIndex(address _asset) public view returns(uint256 liquidityIndex){\n        //(,liquidityIndex,,,,,,,,,,,,,) = IPool(poolAddr).getReserveData(_asset);\n        liquidityIndex = IPool(poolAddr).getReserveData(_asset).liquidityIndex;\n    }\n}",
  "sourcePath": "/home/smeee/just_cause/contracts/polygon/JustCausePoolAaveV3.sol",
  "compiler": {
    "name": "solc",
    "version": "0.8.9+commit.e5eed63a.Emscripten.clang"
  },
  "schemaVersion": "3.4.5",
  "updatedAt": "2022-04-04T03:31:34.638Z",
  "devdoc": {
    "details": "comments",
    "kind": "dev",
    "methods": {},
    "version": 1
  },
  "userdoc": {
    "kind": "user",
    "methods": {},
    "notice": "This is a proof of concept starter contract, showing how uncollaterised loans are possible using Aave v2 credit delegation. This example supports stable interest rate borrows. It is not production ready (!). User permissions and user accounting of loans should be implemented.",
    "version": 1
  }
}