{
  "contractName": "JustCausePoolAaveV3",
  "abi": [
    {
      "inputs": [],
      "stateMutability": "nonpayable",
      "type": "constructor"
    },
    {
      "anonymous": false,
      "inputs": [
        {
          "indexed": false,
          "internalType": "address",
          "name": "tokenAddress",
          "type": "address"
        },
        {
          "indexed": false,
          "internalType": "address",
          "name": "depositor",
          "type": "address"
        },
        {
          "indexed": false,
          "internalType": "uint256",
          "name": "amount",
          "type": "uint256"
        }
      ],
      "name": "Deposit",
      "type": "event"
    },
    {
      "anonymous": false,
      "inputs": [
        {
          "indexed": false,
          "internalType": "address",
          "name": "tokenAddress",
          "type": "address"
        },
        {
          "indexed": false,
          "internalType": "address",
          "name": "caller",
          "type": "address"
        },
        {
          "indexed": false,
          "internalType": "uint256",
          "name": "amount",
          "type": "uint256"
        }
      ],
      "name": "Withdraw",
      "type": "event"
    },
    {
      "anonymous": false,
      "inputs": [
        {
          "indexed": false,
          "internalType": "address",
          "name": "tokenAddress",
          "type": "address"
        },
        {
          "indexed": false,
          "internalType": "uint256",
          "name": "amount",
          "type": "uint256"
        }
      ],
      "name": "WithdrawDonations",
      "type": "event"
    },
    {
      "inputs": [
        {
          "internalType": "address[]",
          "name": "_acceptedTokens",
          "type": "address[]"
        },
        {
          "internalType": "string",
          "name": "_name",
          "type": "string"
        },
        {
          "internalType": "string",
          "name": "_about",
          "type": "string"
        },
        {
          "internalType": "string",
          "name": "_picHash",
          "type": "string"
        },
        {
          "internalType": "string",
          "name": "_metaUri",
          "type": "string"
        },
        {
          "internalType": "address",
          "name": "_receiver",
          "type": "address"
        }
      ],
      "name": "initialize",
      "outputs": [],
      "stateMutability": "nonpayable",
      "type": "function"
    },
    {
      "inputs": [
        {
          "internalType": "address",
          "name": "_assetAddress",
          "type": "address"
        },
        {
          "internalType": "uint256",
          "name": "_amount",
          "type": "uint256"
        }
      ],
      "name": "deposit",
      "outputs": [],
      "stateMutability": "nonpayable",
      "type": "function"
    },
    {
      "inputs": [
        {
          "internalType": "address",
          "name": "_wethAddress",
          "type": "address"
        },
        {
          "internalType": "uint256",
          "name": "_value",
          "type": "uint256"
        }
      ],
      "name": "depositETH",
      "outputs": [],
      "stateMutability": "nonpayable",
      "type": "function"
    },
    {
      "inputs": [
        {
          "internalType": "address",
          "name": "_assetAddress",
          "type": "address"
        },
        {
          "internalType": "uint256",
          "name": "_amount",
          "type": "uint256"
        },
        {
          "internalType": "address",
          "name": "_depositor",
          "type": "address"
        },
        {
          "internalType": "bool",
          "name": "isETH",
          "type": "bool"
        }
      ],
      "name": "withdraw",
      "outputs": [],
      "stateMutability": "nonpayable",
      "type": "function"
    },
    {
      "inputs": [
        {
          "internalType": "address",
          "name": "_assetAddress",
          "type": "address"
        },
        {
          "internalType": "bool",
          "name": "isETH",
          "type": "bool"
        }
      ],
      "name": "withdrawDonations",
      "outputs": [
        {
          "internalType": "uint256",
          "name": "",
          "type": "uint256"
        }
      ],
      "stateMutability": "nonpayable",
      "type": "function"
    },
    {
      "inputs": [
        {
          "internalType": "address",
          "name": "_token",
          "type": "address"
        }
      ],
      "name": "getTotalDeposits",
      "outputs": [
        {
          "internalType": "uint256",
          "name": "",
          "type": "uint256"
        }
      ],
      "stateMutability": "view",
      "type": "function"
    },
    {
      "inputs": [],
      "name": "getAcceptedTokens",
      "outputs": [
        {
          "internalType": "address[]",
          "name": "",
          "type": "address[]"
        }
      ],
      "stateMutability": "view",
      "type": "function"
    },
    {
      "inputs": [],
      "name": "getName",
      "outputs": [
        {
          "internalType": "string",
          "name": "",
          "type": "string"
        }
      ],
      "stateMutability": "view",
      "type": "function"
    },
    {
      "inputs": [],
      "name": "getAbout",
      "outputs": [
        {
          "internalType": "string",
          "name": "",
          "type": "string"
        }
      ],
      "stateMutability": "view",
      "type": "function"
    },
    {
      "inputs": [],
      "name": "getPicHash",
      "outputs": [
        {
          "internalType": "string",
          "name": "",
          "type": "string"
        }
      ],
      "stateMutability": "view",
      "type": "function"
    },
    {
      "inputs": [],
      "name": "getMetaUri",
      "outputs": [
        {
          "internalType": "string",
          "name": "",
          "type": "string"
        }
      ],
      "stateMutability": "view",
      "type": "function"
    },
    {
      "inputs": [
        {
          "internalType": "address",
          "name": "_assetAddress",
          "type": "address"
        }
      ],
      "name": "getATokenAddress",
      "outputs": [
        {
          "internalType": "address",
          "name": "aTokenAddress",
          "type": "address"
        }
      ],
      "stateMutability": "view",
      "type": "function"
    },
    {
      "inputs": [
        {
          "internalType": "address",
          "name": "_assetAddress",
          "type": "address"
        }
      ],
      "name": "getUnclaimedInterest",
      "outputs": [
        {
          "internalType": "uint256",
          "name": "",
          "type": "uint256"
        }
      ],
      "stateMutability": "view",
      "type": "function"
    },
    {
      "inputs": [
        {
          "internalType": "address",
          "name": "_assetAddress",
          "type": "address"
        }
      ],
      "name": "getClaimedInterest",
      "outputs": [
        {
          "internalType": "uint256",
          "name": "",
          "type": "uint256"
        }
      ],
      "stateMutability": "view",
      "type": "function"
    },
    {
      "inputs": [
        {
          "internalType": "address",
          "name": "_assetAddress",
          "type": "address"
        }
      ],
      "name": "getATokenBalance",
      "outputs": [
        {
          "internalType": "uint256",
          "name": "",
          "type": "uint256"
        }
      ],
      "stateMutability": "view",
      "type": "function"
    },
    {
      "inputs": [],
      "name": "getRecipient",
      "outputs": [
        {
          "internalType": "address",
          "name": "",
          "type": "address"
        }
      ],
      "stateMutability": "view",
      "type": "function"
    },
    {
      "inputs": [],
      "name": "getByteCode",
      "outputs": [
        {
          "internalType": "bytes",
          "name": "",
          "type": "bytes"
        }
      ],
      "stateMutability": "view",
      "type": "function"
    },
    {
      "inputs": [],
      "name": "getHashByteCode",
      "outputs": [
        {
          "internalType": "bytes32",
          "name": "",
          "type": "bytes32"
        }
      ],
      "stateMutability": "view",
      "type": "function"
    },
    {
      "inputs": [
        {
          "internalType": "address",
          "name": "_asset",
          "type": "address"
        }
      ],
      "name": "getReserveNormalizedIncome",
      "outputs": [
        {
          "internalType": "uint256",
          "name": "",
          "type": "uint256"
        }
      ],
      "stateMutability": "view",
      "type": "function"
    },
    {
      "inputs": [
        {
          "internalType": "address",
          "name": "_asset",
          "type": "address"
        }
      ],
      "name": "getAaveLiquidityIndex",
      "outputs": [
        {
          "internalType": "uint256",
          "name": "liquidityIndex",
          "type": "uint256"
        }
      ],
      "stateMutability": "view",
      "type": "function"
    }
  ],
  "bytecode": "0x608060405234801561001057600080fd5b506001600360006101000a81548160ff021916908315150217905550612e678061003b6000396000f3fe608060405234801561001057600080fd5b506004361061012c5760003560e01c8063343d693b116100ad5780635ff189b9116100715780635ff189b914610335578063711cc005146103655780638aebe8d614610395578063a94da5e5146103c5578063d15e0053146103e15761012c565b8063343d693b1461028f5780633735ef88146102ad578063373d7c3f146102dd57806347e7ef24146102fb57806357ac6566146103175761012c565b806317d7de7c116100f457806317d7de7c146101e95780631b88094d146102075780632e599054146102255780632f75700614610241578063322ce09e1461025f5761012c565b80630251cfa1146101315780630712f6b3146101615780630835d21a1461019157806312eeff7e146101af578063155d8e9c146101cb575b600080fd5b61014b60048036038101906101469190611dfd565b610411565b6040516101589190611e43565b60405180910390f35b61017b60048036038101906101769190611dfd565b61045a565b6040516101889190611e43565b60405180910390f35b6101996104f9565b6040516101a69190611e77565b60405180910390f35b6101c960048036038101906101c49190611ef6565b610559565b005b6101d36108f9565b6040516101e09190611ff6565b60405180910390f35b6101f161098b565b6040516101fe9190611ff6565b60405180910390f35b61020f610a1d565b60405161021c9190612027565b60405180910390f35b61023f600480360381019061023a9190612042565b610a47565b005b610249610b33565b6040516102569190612140565b60405180910390f35b61027960048036038101906102749190612162565b610bc1565b6040516102869190611e43565b60405180910390f35b6102976110f1565b6040516102a49190611ff6565b60405180910390f35b6102c760048036038101906102c29190611dfd565b611183565b6040516102d49190611e43565b60405180910390f35b6102e5611272565b6040516102f29190611ff6565b60405180910390f35b61031560048036038101906103109190612042565b611304565b005b61031f6114dd565b60405161032c91906121f7565b60405180910390f35b61034f600480360381019061034a9190611dfd565b611517565b60405161035c9190611e43565b60405180910390f35b61037f600480360381019061037a9190611dfd565b611560565b60405161038c9190612027565b60405180910390f35b6103af60048036038101906103aa9190611dfd565b61161a565b6040516103bc9190611e43565b60405180910390f35b6103df60048036038101906103da9190612416565b6116e5565b005b6103fb60048036038101906103f69190611dfd565b611b86565b6040516104089190611e43565b60405180910390f35b6000600160008373ffffffffffffffffffffffffffffffffffffffff1673ffffffffffffffffffffffffffffffffffffffff168152602001908152602001600020549050919050565b60008061046683611560565b90508073ffffffffffffffffffffffffffffffffffffffff166370a08231306040518263ffffffff1660e01b81526004016104a19190612027565b60206040518083038186803b1580156104b957600080fd5b505afa1580156104cd573d6000803e3d6000fd5b505050506040513d601f19601f820116820180604052508101906104f19190612544565b915050919050565b60003073ffffffffffffffffffffffffffffffffffffffff16803b806020016040519081016040528181526000908060200190933c60405160200161053e91906125ad565b60405160208183030381529060405280519060200120905090565b338073ffffffffffffffffffffffffffffffffffffffff16600860009054906101000a900473ffffffffffffffffffffffffffffffffffffffff1673ffffffffffffffffffffffffffffffffffffffff16146105ea576040517f08c379a00000000000000000000000000000000000000000000000000000000081526004016105e190612610565b60405180910390fd5b82858560008111610630576040517f08c379a00000000000000000000000000000000000000000000000000000000081526004016106279061267c565b60405180910390fd5b86600160008a73ffffffffffffffffffffffffffffffffffffffff1673ffffffffffffffffffffffffffffffffffffffff168152602001908152602001600020600082825461067f91906126cb565b925050819055508461074257600460009054906101000a900473ffffffffffffffffffffffffffffffffffffffff1673ffffffffffffffffffffffffffffffffffffffff166369328dec8989896040518463ffffffff1660e01b81526004016106ea939291906126ff565b602060405180830381600087803b15801561070457600080fd5b505af1158015610718573d6000803e3d6000fd5b505050506040513d601f19601f8201168201806040525081019061073c9190612544565b506108b4565b600061074d89611560565b90508073ffffffffffffffffffffffffffffffffffffffff1663095ea7b3600560009054906101000a900473ffffffffffffffffffffffffffffffffffffffff168a6040518363ffffffff1660e01b81526004016107ac929190612736565b602060405180830381600087803b1580156107c657600080fd5b505af11580156107da573d6000803e3d6000fd5b505050506040513d601f19601f820116820180604052508101906107fe9190612774565b50600560009054906101000a900473ffffffffffffffffffffffffffffffffffffffff1673ffffffffffffffffffffffffffffffffffffffff166380500d20600460009054906101000a900473ffffffffffffffffffffffffffffffffffffffff168a8a6040518463ffffffff1660e01b8152600401610880939291906126ff565b600060405180830381600087803b15801561089a57600080fd5b505af11580156108ae573d6000803e3d6000fd5b50505050505b7f9b1bfa7fa9ee420a16e124f794c35ac9f90472acc99140eb2f6447c714cad8eb8887896040516108e7939291906127a1565b60405180910390a15050505050505050565b6060600b805461090890612807565b80601f016020809104026020016040519081016040528092919081815260200182805461093490612807565b80156109815780601f1061095657610100808354040283529160200191610981565b820191906000526020600020905b81548152906001019060200180831161096457829003601f168201915b5050505050905090565b60606009805461099a90612807565b80601f01602080910402602001604051908101604052809291908181526020018280546109c690612807565b8015610a135780601f106109e857610100808354040283529160200191610a13565b820191906000526020600020905b8154815290600101906020018083116109f657829003601f168201915b5050505050905090565b6000600760009054906101000a900473ffffffffffffffffffffffffffffffffffffffff16905090565b338073ffffffffffffffffffffffffffffffffffffffff16600860009054906101000a900473ffffffffffffffffffffffffffffffffffffffff1673ffffffffffffffffffffffffffffffffffffffff1614610ad8576040517f08c379a0000000000000000000000000000000000000000000000000000000008152600401610acf90612610565b60405180910390fd5b81600160008573ffffffffffffffffffffffffffffffffffffffff1673ffffffffffffffffffffffffffffffffffffffff1681526020019081526020016000206000828254610b279190612839565b92505081905550505050565b60606006805480602002602001604051908101604052809291908181526020018280548015610bb757602002820191906000526020600020905b8160009054906101000a900473ffffffffffffffffffffffffffffffffffffffff1673ffffffffffffffffffffffffffffffffffffffff1681526020019060010190808311610b6d575b5050505050905090565b6000338073ffffffffffffffffffffffffffffffffffffffff16600860009054906101000a900473ffffffffffffffffffffffffffffffffffffffff1673ffffffffffffffffffffffffffffffffffffffff1614610c54576040517f08c379a0000000000000000000000000000000000000000000000000000000008152600401610c4b90612610565b60405180910390fd5b83600080600090505b6006805490508160ff161015610cfe5760068160ff1681548110610c8457610c8361288f565b5b9060005260206000200160009054906101000a900473ffffffffffffffffffffffffffffffffffffffff1673ffffffffffffffffffffffffffffffffffffffff168373ffffffffffffffffffffffffffffffffffffffff161415610ceb5760019150610cfe565b8080610cf6906128cb565b915050610c5d565b5080610d3f576040517f08c379a0000000000000000000000000000000000000000000000000000000008152600401610d3690612967565b60405180910390fd5b6000610d4a87611560565b905060008173ffffffffffffffffffffffffffffffffffffffff166370a08231306040518263ffffffff1660e01b8152600401610d879190612027565b60206040518083038186803b158015610d9f57600080fd5b505afa158015610db3573d6000803e3d6000fd5b505050506040513d601f19601f82011682018060405250810190610dd79190612544565b90506000600160008a73ffffffffffffffffffffffffffffffffffffffff1673ffffffffffffffffffffffffffffffffffffffff1681526020019081526020016000205482610e2691906126cb565b905080600260008b73ffffffffffffffffffffffffffffffffffffffff1673ffffffffffffffffffffffffffffffffffffffff1681526020019081526020016000206000828254610e779190612839565b9250508190555087610f5c57600460009054906101000a900473ffffffffffffffffffffffffffffffffffffffff1673ffffffffffffffffffffffffffffffffffffffff166369328dec8a83600760009054906101000a900473ffffffffffffffffffffffffffffffffffffffff166040518463ffffffff1660e01b8152600401610f04939291906126ff565b602060405180830381600087803b158015610f1e57600080fd5b505af1158015610f32573d6000803e3d6000fd5b505050506040513d601f19601f82011682018060405250810190610f569190612544565b506110e2565b8273ffffffffffffffffffffffffffffffffffffffff1663095ea7b3600560009054906101000a900473ffffffffffffffffffffffffffffffffffffffff16836040518363ffffffff1660e01b8152600401610fb9929190612736565b602060405180830381600087803b158015610fd357600080fd5b505af1158015610fe7573d6000803e3d6000fd5b505050506040513d601f19601f8201168201806040525081019061100b9190612774565b50600560009054906101000a900473ffffffffffffffffffffffffffffffffffffffff1673ffffffffffffffffffffffffffffffffffffffff166380500d20600460009054906101000a900473ffffffffffffffffffffffffffffffffffffffff1683600760009054906101000a900473ffffffffffffffffffffffffffffffffffffffff166040518463ffffffff1660e01b81526004016110af939291906126ff565b600060405180830381600087803b1580156110c957600080fd5b505af11580156110dd573d6000803e3d6000fd5b505050505b80965050505050505092915050565b6060600a805461110090612807565b80601f016020809104026020016040519081016040528092919081815260200182805461112c90612807565b80156111795780601f1061114e57610100808354040283529160200191611179565b820191906000526020600020905b81548152906001019060200180831161115c57829003601f168201915b5050505050905090565b60008061118f83611560565b905060008173ffffffffffffffffffffffffffffffffffffffff166370a08231306040518263ffffffff1660e01b81526004016111cc9190612027565b60206040518083038186803b1580156111e457600080fd5b505afa1580156111f8573d6000803e3d6000fd5b505050506040513d601f19601f8201168201806040525081019061121c9190612544565b9050600160008573ffffffffffffffffffffffffffffffffffffffff1673ffffffffffffffffffffffffffffffffffffffff168152602001908152602001600020548161126991906126cb565b92505050919050565b6060600c805461128190612807565b80601f01602080910402602001604051908101604052809291908181526020018280546112ad90612807565b80156112fa5780601f106112cf576101008083540402835291602001916112fa565b820191906000526020600020905b8154815290600101906020018083116112dd57829003601f168201915b5050505050905090565b338073ffffffffffffffffffffffffffffffffffffffff16600860009054906101000a900473ffffffffffffffffffffffffffffffffffffffff1673ffffffffffffffffffffffffffffffffffffffff1614611395576040517f08c379a000000000000000000000000000000000000000000000000000000000815260040161138c90612610565b60405180910390fd5b82600080600090505b6006805490508160ff16101561143f5760068160ff16815481106113c5576113c461288f565b5b9060005260206000200160009054906101000a900473ffffffffffffffffffffffffffffffffffffffff1673ffffffffffffffffffffffffffffffffffffffff168373ffffffffffffffffffffffffffffffffffffffff16141561142c576001915061143f565b8080611437906128cb565b91505061139e565b5080611480576040517f08c379a000000000000000000000000000000000000000000000000000000000815260040161147790612967565b60405180910390fd5b83600160008773ffffffffffffffffffffffffffffffffffffffff1673ffffffffffffffffffffffffffffffffffffffff16815260200190815260200160002060008282546114cf9190612839565b925050819055505050505050565b60603073ffffffffffffffffffffffffffffffffffffffff16803b806020016040519081016040528181526000908060200190933c905090565b6000600260008373ffffffffffffffffffffffffffffffffffffffff1673ffffffffffffffffffffffffffffffffffffffff168152602001908152602001600020549050919050565b6000600460009054906101000a900473ffffffffffffffffffffffffffffffffffffffff1673ffffffffffffffffffffffffffffffffffffffff166335ea6a75836040518263ffffffff1660e01b81526004016115bd9190612027565b6101e06040518083038186803b1580156115d657600080fd5b505afa1580156115ea573d6000803e3d6000fd5b505050506040513d601f19601f8201168201806040525081019061160e9190612c00565b61010001519050919050565b6000600460009054906101000a900473ffffffffffffffffffffffffffffffffffffffff1673ffffffffffffffffffffffffffffffffffffffff166335ea6a75836040518263ffffffff1660e01b81526004016116779190612027565b6101e06040518083038186803b15801561169057600080fd5b505afa1580156116a4573d6000803e3d6000fd5b505050506040513d601f19601f820116820180604052508101906116c89190612c00565b602001516fffffffffffffffffffffffffffffffff169050919050565b84601e60008290508160ff16815110611733576040517f08c379a000000000000000000000000000000000000000000000000000000000815260040161172a90612c7a565b60405180910390fd5b600060019054906101000a900460ff1661175b5760008054906101000a900460ff1615611764565b611763611c3a565b5b6117a3576040517f08c379a000000000000000000000000000000000000000000000000000000000815260040161179a90612d0c565b60405180910390fd5b60008060019054906101000a900460ff1615905080156117f3576001600060016101000a81548160ff02191690831515021790555060016000806101000a81548160ff0219169083151502179055505b60001515600360009054906101000a900460ff16151514611849576040517f08c379a000000000000000000000000000000000000000000000000000000000815260040161184090612d78565b60405180910390fd5b600073ffffffffffffffffffffffffffffffffffffffff16600760009054906101000a900473ffffffffffffffffffffffffffffffffffffffff1673ffffffffffffffffffffffffffffffffffffffff16146118da576040517f08c379a00000000000000000000000000000000000000000000000000000000081526004016118d190612de4565b60405180910390fd5b84600760006101000a81548173ffffffffffffffffffffffffffffffffffffffff021916908373ffffffffffffffffffffffffffffffffffffffff16021790555033600860006101000a81548173ffffffffffffffffffffffffffffffffffffffff021916908373ffffffffffffffffffffffffffffffffffffffff1602179055508860099080519060200190611972929190611c5e565b5087600a9080519060200190611989929190611c5e565b5086600b90805190602001906119a0929190611c5e565b5085600c90805190602001906119b7929190611c5e565b50735343b5ba672ae99d627a1c87866b8e53f47db2e6600360016101000a81548173ffffffffffffffffffffffffffffffffffffffff021916908373ffffffffffffffffffffffffffffffffffffffff160217905550600360019054906101000a900473ffffffffffffffffffffffffffffffffffffffff1673ffffffffffffffffffffffffffffffffffffffff1663026b1d5f6040518163ffffffff1660e01b815260040160206040518083038186803b158015611a7557600080fd5b505afa158015611a89573d6000803e3d6000fd5b505050506040513d601f19601f82011682018060405250810190611aad9190612e04565b600460006101000a81548173ffffffffffffffffffffffffffffffffffffffff021916908373ffffffffffffffffffffffffffffffffffffffff160217905550732a58e9bbb5434fda7ff78051a4b82cb0ef669c17600560006101000a81548173ffffffffffffffffffffffffffffffffffffffff021916908373ffffffffffffffffffffffffffffffffffffffff1602179055508960069080519060200190611b58929190611ce4565b508015611b7a5760008060016101000a81548160ff0219169083151502179055505b50505050505050505050565b6000600460009054906101000a900473ffffffffffffffffffffffffffffffffffffffff1673ffffffffffffffffffffffffffffffffffffffff1663d15e0053836040518263ffffffff1660e01b8152600401611be39190612027565b60206040518083038186803b158015611bfb57600080fd5b505afa158015611c0f573d6000803e3d6000fd5b505050506040513d601f19601f82011682018060405250810190611c339190612544565b9050919050565b6000611c4530611c4b565b15905090565b600080823b905060008111915050919050565b828054611c6a90612807565b90600052602060002090601f016020900481019282611c8c5760008555611cd3565b82601f10611ca557805160ff1916838001178555611cd3565b82800160010185558215611cd3579182015b82811115611cd2578251825591602001919060010190611cb7565b5b509050611ce09190611d6e565b5090565b828054828255906000526020600020908101928215611d5d579160200282015b82811115611d5c5782518260006101000a81548173ffffffffffffffffffffffffffffffffffffffff021916908373ffffffffffffffffffffffffffffffffffffffff16021790555091602001919060010190611d04565b5b509050611d6a9190611d6e565b5090565b5b80821115611d87576000816000905550600101611d6f565b5090565b6000604051905090565b600080fd5b600080fd5b600073ffffffffffffffffffffffffffffffffffffffff82169050919050565b6000611dca82611d9f565b9050919050565b611dda81611dbf565b8114611de557600080fd5b50565b600081359050611df781611dd1565b92915050565b600060208284031215611e1357611e12611d95565b5b6000611e2184828501611de8565b91505092915050565b6000819050919050565b611e3d81611e2a565b82525050565b6000602082019050611e586000830184611e34565b92915050565b6000819050919050565b611e7181611e5e565b82525050565b6000602082019050611e8c6000830184611e68565b92915050565b611e9b81611e2a565b8114611ea657600080fd5b50565b600081359050611eb881611e92565b92915050565b60008115159050919050565b611ed381611ebe565b8114611ede57600080fd5b50565b600081359050611ef081611eca565b92915050565b60008060008060808587031215611f1057611f0f611d95565b5b6000611f1e87828801611de8565b9450506020611f2f87828801611ea9565b9350506040611f4087828801611de8565b9250506060611f5187828801611ee1565b91505092959194509250565b600081519050919050565b600082825260208201905092915050565b60005b83811015611f97578082015181840152602081019050611f7c565b83811115611fa6576000848401525b50505050565b6000601f19601f8301169050919050565b6000611fc882611f5d565b611fd28185611f68565b9350611fe2818560208601611f79565b611feb81611fac565b840191505092915050565b600060208201905081810360008301526120108184611fbd565b905092915050565b61202181611dbf565b82525050565b600060208201905061203c6000830184612018565b92915050565b6000806040838503121561205957612058611d95565b5b600061206785828601611de8565b925050602061207885828601611ea9565b9150509250929050565b600081519050919050565b600082825260208201905092915050565b6000819050602082019050919050565b6120b781611dbf565b82525050565b60006120c983836120ae565b60208301905092915050565b6000602082019050919050565b60006120ed82612082565b6120f7818561208d565b93506121028361209e565b8060005b8381101561213357815161211a88826120bd565b9750612125836120d5565b925050600181019050612106565b5085935050505092915050565b6000602082019050818103600083015261215a81846120e2565b905092915050565b6000806040838503121561217957612178611d95565b5b600061218785828601611de8565b925050602061219885828601611ee1565b9150509250929050565b600081519050919050565b600082825260208201905092915050565b60006121c9826121a2565b6121d381856121ad565b93506121e3818560208601611f79565b6121ec81611fac565b840191505092915050565b6000602082019050818103600083015261221181846121be565b905092915050565b600080fd5b7f4e487b7100000000000000000000000000000000000000000000000000000000600052604160045260246000fd5b61225682611fac565b810181811067ffffffffffffffff821117156122755761227461221e565b5b80604052505050565b6000612288611d8b565b9050612294828261224d565b919050565b600067ffffffffffffffff8211156122b4576122b361221e565b5b602082029050602081019050919050565b600080fd5b60006122dd6122d884612299565b61227e565b90508083825260208201905060208402830185811115612300576122ff6122c5565b5b835b8181101561232957806123158882611de8565b845260208401935050602081019050612302565b5050509392505050565b600082601f83011261234857612347612219565b5b81356123588482602086016122ca565b91505092915050565b600080fd5b600067ffffffffffffffff8211156123815761238061221e565b5b61238a82611fac565b9050602081019050919050565b82818337600083830152505050565b60006123b96123b484612366565b61227e565b9050828152602081018484840111156123d5576123d4612361565b5b6123e0848285612397565b509392505050565b600082601f8301126123fd576123fc612219565b5b813561240d8482602086016123a6565b91505092915050565b60008060008060008060c0878903121561243357612432611d95565b5b600087013567ffffffffffffffff81111561245157612450611d9a565b5b61245d89828a01612333565b965050602087013567ffffffffffffffff81111561247e5761247d611d9a565b5b61248a89828a016123e8565b955050604087013567ffffffffffffffff8111156124ab576124aa611d9a565b5b6124b789828a016123e8565b945050606087013567ffffffffffffffff8111156124d8576124d7611d9a565b5b6124e489828a016123e8565b935050608087013567ffffffffffffffff81111561250557612504611d9a565b5b61251189828a016123e8565b92505060a061252289828a01611de8565b9150509295509295509295565b60008151905061253e81611e92565b92915050565b60006020828403121561255a57612559611d95565b5b60006125688482850161252f565b91505092915050565b600081905092915050565b6000612587826121a2565b6125918185612571565b93506125a1818560208601611f79565b80840191505092915050565b60006125b9828461257c565b915081905092915050565b7f796f7520617265206e6f7420746865206f776e65720000000000000000000000600082015250565b60006125fa601583611f68565b9150612605826125c4565b602082019050919050565b60006020820190508181036000830152612629816125ed565b9050919050565b7f616d6f756e74206d757374206578636565642030000000000000000000000000600082015250565b6000612666601483611f68565b915061267182612630565b602082019050919050565b6000602082019050818103600083015261269581612659565b9050919050565b7f4e487b7100000000000000000000000000000000000000000000000000000000600052601160045260246000fd5b60006126d682611e2a565b91506126e183611e2a565b9250828210156126f4576126f361269c565b5b828203905092915050565b60006060820190506127146000830186612018565b6127216020830185611e34565b61272e6040830184612018565b949350505050565b600060408201905061274b6000830185612018565b6127586020830184611e34565b9392505050565b60008151905061276e81611eca565b92915050565b60006020828403121561278a57612789611d95565b5b60006127988482850161275f565b91505092915050565b60006060820190506127b66000830186612018565b6127c36020830185612018565b6127d06040830184611e34565b949350505050565b7f4e487b7100000000000000000000000000000000000000000000000000000000600052602260045260246000fd5b6000600282049050600182168061281f57607f821691505b60208210811415612833576128326127d8565b5b50919050565b600061284482611e2a565b915061284f83611e2a565b9250827fffffffffffffffffffffffffffffffffffffffffffffffffffffffffffffffff038211156128845761288361269c565b5b828201905092915050565b7f4e487b7100000000000000000000000000000000000000000000000000000000600052603260045260246000fd5b600060ff82169050919050565b60006128d6826128be565b915060ff8214156128ea576128e961269c565b5b600182019050919050565b7f7375626d697474656420746f6b656e2061646472657373206973206e6f74206160008201527f6363657074656420627920706f6f6c0000000000000000000000000000000000602082015250565b6000612951602f83611f68565b915061295c826128f5565b604082019050919050565b6000602082019050818103600083015261298081612944565b9050919050565b600080fd5b6000602082840312156129a2576129a1612987565b5b6129ac602061227e565b905060006129bc8482850161252f565b60008301525092915050565b60006fffffffffffffffffffffffffffffffff82169050919050565b6129ed816129c8565b81146129f857600080fd5b50565b600081519050612a0a816129e4565b92915050565b600064ffffffffff82169050919050565b612a2a81612a10565b8114612a3557600080fd5b50565b600081519050612a4781612a21565b92915050565b600061ffff82169050919050565b612a6481612a4d565b8114612a6f57600080fd5b50565b600081519050612a8181612a5b565b92915050565b600081519050612a9681611dd1565b92915050565b60006101e08284031215612ab357612ab2612987565b5b612abe6101e061227e565b90506000612ace8482850161298c565b6000830152506020612ae2848285016129fb565b6020830152506040612af6848285016129fb565b6040830152506060612b0a848285016129fb565b6060830152506080612b1e848285016129fb565b60808301525060a0612b32848285016129fb565b60a08301525060c0612b4684828501612a38565b60c08301525060e0612b5a84828501612a72565b60e083015250610100612b6f84828501612a87565b61010083015250610120612b8584828501612a87565b61012083015250610140612b9b84828501612a87565b61014083015250610160612bb184828501612a87565b61016083015250610180612bc7848285016129fb565b610180830152506101a0612bdd848285016129fb565b6101a0830152506101c0612bf3848285016129fb565b6101c08301525092915050565b60006101e08284031215612c1757612c16611d95565b5b6000612c2584828501612a9c565b91505092915050565b7f737472696e67206f76657220636861726163746572206c696d69740000000000600082015250565b6000612c64601b83611f68565b9150612c6f82612c2e565b602082019050919050565b60006020820190508181036000830152612c9381612c57565b9050919050565b7f496e697469616c697a61626c653a20636f6e747261637420697320616c72656160008201527f647920696e697469616c697a6564000000000000000000000000000000000000602082015250565b6000612cf6602e83611f68565b9150612d0182612c9a565b604082019050919050565b60006020820190508181036000830152612d2581612ce9565b9050919050565b7f43616e6e6f7420696e697469616c697a65206261736500000000000000000000600082015250565b6000612d62601683611f68565b9150612d6d82612d2c565b602082019050919050565b60006020820190508181036000830152612d9181612d55565b9050919050565b7f496e697469616c697a6520616c72656164792063616c6c656400000000000000600082015250565b6000612dce601983611f68565b9150612dd982612d98565b602082019050919050565b60006020820190508181036000830152612dfd81612dc1565b9050919050565b600060208284031215612e1a57612e19611d95565b5b6000612e2884828501612a87565b9150509291505056fea26469706673582212202e8bc97db3f750d5c58c78d6d13c57c2e6175919ba41084ec57121bd7ad61d4864736f6c63430008090033",
  "immutableReferences": {},
  "source": "// SPDX-License-Identifier: MIT\npragma solidity 0.8.9;\n\nimport { IERC20, IPool, IPoolAddressesProvider, IWETHGateway} from './Interfaces.sol';\nimport { SafeERC20 } from './Libraries.sol';\nimport \"@openzeppelin/contracts/proxy/utils/Initializable.sol\";\n/**\n * This is a proof of concept starter contract, showing how uncollaterised loans are possible\n * using Aave v2 credit delegation.\n * This example supports stable interest rate borrows.\n * It is not production ready (!). User permissions and user accounting of loans should be implemented.\n * See @dev comments\n */\n\ncontract JustCausePoolAaveV3 is Initializable {\n    //mapping(address => mapping(address => uint256)) private depositors;\n    mapping(address => uint256) private totalDeposits;\n    mapping(address => uint256) private interestWithdrawn;\n    bool private isBase;\n\n    IPoolAddressesProvider provider;\n    address poolAddr;\n    address wethGatewayAddr;\n\n    address[] acceptedTokens;\n\n    event Deposit(address tokenAddress, address depositor, uint256 amount);\n    event Withdraw(address tokenAddress, address caller, uint256 amount);\n    event WithdrawDonations(address tokenAddress, uint256 amount);\n\n    address receiver;\n    address master;\n    string name;\n    string about;\n    string picHash;\n    string metaUri;\n\n    modifier onlyAllowedTokens(address _tokenAddr){\n        bool isAccepted;\n        for (uint8 i = 0; i < acceptedTokens.length; i++){\n            if(_tokenAddr == acceptedTokens[i]){\n                isAccepted = true;\n                break;\n            }\n        }\n        require(isAccepted, \"submitted token address is not accepted by pool\");\n        _;\n    }\n\n    modifier enoughFunds(address _userAddr, address _tokenAddr, uint256 _amount) {\n        require(_amount > 0, \"amount must exceed 0\");\n        //require(depositors[_userAddr][_tokenAddr]  >= _amount, \"no funds deposited for selected token\");\n        _;\n    }\n\n    modifier onlyReceiver(address _sender){\n        require(receiver == _sender, \"you are not the current reciever for this pool\");\n        _;\n    }\n\n    modifier onlyMaster(address _sender){\n        require(master == _sender, \"you are not the owner\");\n        _;\n    }\n\n    modifier strLength(string memory _str, uint8 _limit ){\n        bytes memory strBytes = bytes(_str);\n        require(strBytes.length < _limit, \"string over character limit\");\n        _;\n    }\n\n    constructor () {\n        isBase = true;\n    }\n\n    function initialize(\n        address[] memory _acceptedTokens,\n        string memory _name,\n        string memory _about,\n        string memory _picHash,\n        string memory _metaUri,\n        address _receiver)\n\n    strLength(_name, 30) initializer() external {\n\n        require(isBase == false, \"Cannot initialize base\");\n        require(receiver == address(0), \"Initialize already called\");\n\n        receiver = _receiver;\n        master = msg.sender;\n        name = _name;\n        about = _about;\n        picHash = _picHash;\n        metaUri = _metaUri;\n\n        provider = IPoolAddressesProvider(address(0x5343b5bA672Ae99d627A1C87866b8E53F47Db2E6)); // polygon mumbai v3\n        poolAddr = provider.getPool();\n        wethGatewayAddr = address(0x2a58E9bbb5434FdA7FF78051a4B82cb0EF669C17);// polygon mumbai v3\n        acceptedTokens = _acceptedTokens;\n    }\n\n    function deposit(address _assetAddress, uint256 _amount/*, address _depositor*/) onlyMaster(msg.sender) onlyAllowedTokens(_assetAddress) external {\n        //IERC20 token = IERC20(_assetAddress);\n        //require(token.allowance(_depositor, address(this)) >= _amount, \"sender not approved\");\n        //token.transferFrom(_depositor, address(this), _amount);\n        //address poolAddr = address(Pool);\n        //token.approve(poolAddr, _amount);\n        //IPool(poolAddr).deposit(address(token), _amount, address(this), 0);\n        totalDeposits[_assetAddress] += _amount;\n        //emit Deposit(_assetAddress, _depositor, _amount);\n    }\n\n    function depositETH(address _wethAddress , /*address _depositor,*/ uint256 _value) onlyMaster(msg.sender) external {\n        //IWETHGateway(wethGatewayAddr).depositETH{value: msg.value}(poolAddr, address(this), 0);\n        totalDeposits[_wethAddress] += _value;\n    }\n\n    /*function tallyDeposit(uint256 _amount, address _assetAddress, address _depositor) internal {\n        uint256 depositedAmount = depositors[_depositor][_assetAddress];\n        //uint256 liquidityIndex = getAaveLiquidityIndex(_assetAddress);\n        //if(depositedAmount == 0){\n            //poolTracker.addDeposit(_depositor, _amount, liquidityIndex, block.timestamp, _assetAddress);\n        //}\n        depositedAmount += _amount;\n        totalDeposits[_assetAddress] += _amount;\n        depositors[_depositor][_assetAddress] = depositedAmount;\n    }*/\n\n    function withdraw(address _assetAddress, uint256 _amount, address _depositor, bool isETH) onlyMaster(msg.sender) enoughFunds(_depositor, _assetAddress, _amount) external {\n        totalDeposits[_assetAddress] -= _amount;\n        if(!isETH){\n            IPool(poolAddr).withdraw(_assetAddress, _amount, _depositor);\n        }\n        else{\n            address aTokenAddress = getATokenAddress(_assetAddress);\n            IERC20(aTokenAddress).approve(wethGatewayAddr, _amount);\n            IWETHGateway(wethGatewayAddr).withdrawETH(poolAddr, _amount, _depositor);\n        }\n        emit Withdraw(_assetAddress, _depositor, _amount);\n    }\n\n    function withdrawDonations(address _assetAddress, bool isETH) onlyMaster(msg.sender) onlyAllowedTokens(_assetAddress) external returns(uint256){\n        address aTokenAddress = getATokenAddress(_assetAddress);\n        uint256 aTokenBalance = IERC20(aTokenAddress).balanceOf(address(this));\n        uint256 interestEarned = aTokenBalance - totalDeposits[_assetAddress];\n        interestWithdrawn[_assetAddress] += interestEarned;\n\n        if(!isETH){\n            IPool(poolAddr).withdraw(_assetAddress, interestEarned, receiver);\n        }\n        else{\n            IERC20(aTokenAddress).approve(wethGatewayAddr, interestEarned);\n            IWETHGateway(wethGatewayAddr).withdrawETH(poolAddr, interestEarned, receiver);\n        }\n\n        return interestEarned;\n    }\n\n    /*function getUserBalance(address _userAddr, address _token) external view returns(uint256){\n        return depositors[_userAddr][_token];\n    }*/\n\n    function getTotalDeposits(address _token) external view returns(uint256){\n        return totalDeposits[_token];\n    }\n\n    function getAcceptedTokens() external view returns(address[] memory){\n        return acceptedTokens;\n    }\n\n    function getName() external view returns(string memory){\n        return name;\n    }\n\n    function getAbout() external view returns(string memory){\n        return about;\n    }\n\n    function getPicHash() external view returns(string memory){\n        return picHash;\n    }\n\n    function getMetaUri() external view returns(string memory){\n        return metaUri;\n    }\n\n    function getATokenAddress(address _assetAddress) public view returns(address aTokenAddress){\n        //(,,,,,,,, aTokenAddress,,,,,,) = IPool(poolAddr).getReserveData(_assetAddress);\n        aTokenAddress = IPool(poolAddr).getReserveData(_assetAddress).aTokenAddress;\n    }\n\n    function getUnclaimedInterest(address _assetAddress) external view returns (uint256){\n        address aTokenAddress = getATokenAddress(_assetAddress);\n        uint256 aTokenBalance = IERC20(aTokenAddress).balanceOf(address(this));\n        return aTokenBalance - totalDeposits[_assetAddress];\n    }\n\n    function getClaimedInterest(address _assetAddress) external view returns (uint256){\n        return interestWithdrawn[_assetAddress];\n    }\n\n    function getATokenBalance(address _assetAddress) external view returns (uint256){\n        address aTokenAddress = getATokenAddress(_assetAddress);\n        return IERC20(aTokenAddress).balanceOf(address(this));\n    }\n\n    function getRecipient() external view returns(address){\n        return receiver;\n    }\n\n    function getByteCode() external view returns(bytes memory) {\n        return address(this).code;\n    }\n\n    function getHashByteCode() public view returns(bytes32) {\n        return keccak256(abi.encodePacked(address(this).code));\n    }\n\n    function getReserveNormalizedIncome(address _asset) public view returns(uint256){\n        return IPool(poolAddr).getReserveNormalizedIncome(_asset);\n    }\n\n    function getAaveLiquidityIndex(address _asset) public view returns(uint256 liquidityIndex){\n        //(,liquidityIndex,,,,,,,,,,,,,) = IPool(poolAddr).getReserveData(_asset);\n        liquidityIndex = IPool(poolAddr).getReserveData(_asset).liquidityIndex;\n    }\n}",
  "sourcePath": "/home/smeee/just_cause/contracts/polygon/JustCausePoolAaveV3.sol",
  "compiler": {
    "name": "solc",
    "version": "0.8.9+commit.e5eed63a.Emscripten.clang"
  },
  "schemaVersion": "3.4.5",
  "updatedAt": "2022-04-09T20:40:38.527Z",
  "devdoc": {
    "details": "comments",
    "kind": "dev",
    "methods": {},
    "version": 1
  },
  "userdoc": {
    "kind": "user",
    "methods": {},
    "notice": "This is a proof of concept starter contract, showing how uncollaterised loans are possible using Aave v2 credit delegation. This example supports stable interest rate borrows. It is not production ready (!). User permissions and user accounting of loans should be implemented.",
    "version": 1
  }
}