{
  "contractName": "JustCauseERC721",
  "abi": [
    {
      "inputs": [],
      "stateMutability": "nonpayable",
      "type": "constructor"
    },
    {
      "anonymous": false,
      "inputs": [
        {
          "indexed": true,
          "internalType": "address",
          "name": "owner",
          "type": "address"
        },
        {
          "indexed": true,
          "internalType": "address",
          "name": "approved",
          "type": "address"
        },
        {
          "indexed": true,
          "internalType": "uint256",
          "name": "tokenId",
          "type": "uint256"
        }
      ],
      "name": "Approval",
      "type": "event"
    },
    {
      "anonymous": false,
      "inputs": [
        {
          "indexed": true,
          "internalType": "address",
          "name": "owner",
          "type": "address"
        },
        {
          "indexed": true,
          "internalType": "address",
          "name": "operator",
          "type": "address"
        },
        {
          "indexed": false,
          "internalType": "bool",
          "name": "approved",
          "type": "bool"
        }
      ],
      "name": "ApprovalForAll",
      "type": "event"
    },
    {
      "anonymous": false,
      "inputs": [
        {
          "indexed": true,
          "internalType": "address",
          "name": "from",
          "type": "address"
        },
        {
          "indexed": true,
          "internalType": "address",
          "name": "to",
          "type": "address"
        },
        {
          "indexed": true,
          "internalType": "uint256",
          "name": "tokenId",
          "type": "uint256"
        }
      ],
      "name": "Transfer",
      "type": "event"
    },
    {
      "inputs": [
        {
          "internalType": "address",
          "name": "to",
          "type": "address"
        },
        {
          "internalType": "uint256",
          "name": "tokenId",
          "type": "uint256"
        }
      ],
      "name": "approve",
      "outputs": [],
      "stateMutability": "nonpayable",
      "type": "function"
    },
    {
      "inputs": [
        {
          "internalType": "address",
          "name": "owner",
          "type": "address"
        }
      ],
      "name": "balanceOf",
      "outputs": [
        {
          "internalType": "uint256",
          "name": "",
          "type": "uint256"
        }
      ],
      "stateMutability": "view",
      "type": "function",
      "constant": true
    },
    {
      "inputs": [
        {
          "internalType": "uint256",
          "name": "tokenId",
          "type": "uint256"
        }
      ],
      "name": "getApproved",
      "outputs": [
        {
          "internalType": "address",
          "name": "",
          "type": "address"
        }
      ],
      "stateMutability": "view",
      "type": "function",
      "constant": true
    },
    {
      "inputs": [
        {
          "internalType": "address",
          "name": "owner",
          "type": "address"
        },
        {
          "internalType": "address",
          "name": "operator",
          "type": "address"
        }
      ],
      "name": "isApprovedForAll",
      "outputs": [
        {
          "internalType": "bool",
          "name": "",
          "type": "bool"
        }
      ],
      "stateMutability": "view",
      "type": "function",
      "constant": true
    },
    {
      "inputs": [],
      "name": "name",
      "outputs": [
        {
          "internalType": "string",
          "name": "",
          "type": "string"
        }
      ],
      "stateMutability": "view",
      "type": "function",
      "constant": true
    },
    {
      "inputs": [
        {
          "internalType": "uint256",
          "name": "tokenId",
          "type": "uint256"
        }
      ],
      "name": "ownerOf",
      "outputs": [
        {
          "internalType": "address",
          "name": "",
          "type": "address"
        }
      ],
      "stateMutability": "view",
      "type": "function",
      "constant": true
    },
    {
      "inputs": [
        {
          "internalType": "address",
          "name": "from",
          "type": "address"
        },
        {
          "internalType": "address",
          "name": "to",
          "type": "address"
        },
        {
          "internalType": "uint256",
          "name": "tokenId",
          "type": "uint256"
        }
      ],
      "name": "safeTransferFrom",
      "outputs": [],
      "stateMutability": "nonpayable",
      "type": "function"
    },
    {
      "inputs": [
        {
          "internalType": "address",
          "name": "from",
          "type": "address"
        },
        {
          "internalType": "address",
          "name": "to",
          "type": "address"
        },
        {
          "internalType": "uint256",
          "name": "tokenId",
          "type": "uint256"
        },
        {
          "internalType": "bytes",
          "name": "_data",
          "type": "bytes"
        }
      ],
      "name": "safeTransferFrom",
      "outputs": [],
      "stateMutability": "nonpayable",
      "type": "function"
    },
    {
      "inputs": [
        {
          "internalType": "address",
          "name": "operator",
          "type": "address"
        },
        {
          "internalType": "bool",
          "name": "approved",
          "type": "bool"
        }
      ],
      "name": "setApprovalForAll",
      "outputs": [],
      "stateMutability": "nonpayable",
      "type": "function"
    },
    {
      "inputs": [
        {
          "internalType": "bytes4",
          "name": "interfaceId",
          "type": "bytes4"
        }
      ],
      "name": "supportsInterface",
      "outputs": [
        {
          "internalType": "bool",
          "name": "",
          "type": "bool"
        }
      ],
      "stateMutability": "view",
      "type": "function",
      "constant": true
    },
    {
      "inputs": [],
      "name": "symbol",
      "outputs": [
        {
          "internalType": "string",
          "name": "",
          "type": "string"
        }
      ],
      "stateMutability": "view",
      "type": "function",
      "constant": true
    },
    {
      "inputs": [
        {
          "internalType": "uint256",
          "name": "tokenId",
          "type": "uint256"
        }
      ],
      "name": "tokenURI",
      "outputs": [
        {
          "internalType": "string",
          "name": "",
          "type": "string"
        }
      ],
      "stateMutability": "view",
      "type": "function",
      "constant": true
    },
    {
      "inputs": [
        {
          "internalType": "address",
          "name": "from",
          "type": "address"
        },
        {
          "internalType": "address",
          "name": "to",
          "type": "address"
        },
        {
          "internalType": "uint256",
          "name": "tokenId",
          "type": "uint256"
        }
      ],
      "name": "transferFrom",
      "outputs": [],
      "stateMutability": "nonpayable",
      "type": "function"
    },
    {
      "inputs": [
        {
          "internalType": "address",
          "name": "_tokenOwner",
          "type": "address"
        },
        {
          "internalType": "uint256",
          "name": "_amount",
          "type": "uint256"
        },
        {
          "internalType": "uint256",
          "name": "_liquidityIndex",
          "type": "uint256"
        },
        {
          "internalType": "uint256",
          "name": "_timeStamp",
          "type": "uint256"
        },
        {
          "internalType": "address",
          "name": "_pool",
          "type": "address"
        },
        {
          "internalType": "address",
          "name": "_asset",
          "type": "address"
        }
      ],
      "name": "createItem",
      "outputs": [
        {
          "internalType": "uint256",
          "name": "",
          "type": "uint256"
        }
      ],
      "stateMutability": "nonpayable",
      "type": "function"
    },
    {
      "inputs": [
        {
          "internalType": "uint256",
          "name": "_tokenId",
          "type": "uint256"
        }
      ],
      "name": "getDeposit",
      "outputs": [
        {
          "internalType": "uint256",
          "name": "amount",
          "type": "uint256"
        },
        {
          "internalType": "uint256",
          "name": "liquidityIndex",
          "type": "uint256"
        },
        {
          "internalType": "uint256",
          "name": "timeStamp",
          "type": "uint256"
        },
        {
          "internalType": "address",
          "name": "pool",
          "type": "address"
        },
        {
          "internalType": "address",
          "name": "asset",
          "type": "address"
        }
      ],
      "stateMutability": "view",
      "type": "function",
      "constant": true
    }
  ],
  "bytecode": "0x60806040523480156200001157600080fd5b506040518060400160405280601481526020017f4a757374436175736520506f6f6c20546f6b656e0000000000000000000000008152506040518060400160405280600481526020017f4a43505400000000000000000000000000000000000000000000000000000000815250816000908051906020019062000096929190620000b8565b508060019080519060200190620000af929190620000b8565b505050620001cd565b828054620000c69062000197565b90600052602060002090601f016020900481019282620000ea576000855562000136565b82601f106200010557805160ff191683800117855562000136565b8280016001018555821562000136579182015b828111156200013557825182559160200191906001019062000118565b5b50905062000145919062000149565b5090565b5b80821115620001645760008160009055506001016200014a565b5090565b7f4e487b7100000000000000000000000000000000000000000000000000000000600052602260045260246000fd5b60006002820490506001821680620001b057607f821691505b60208210811415620001c757620001c662000168565b5b50919050565b612a6980620001dd6000396000f3fe608060405234801561001057600080fd5b50600436106100f55760003560e01c80636352211e11610097578063a22cb46511610066578063a22cb465146102ae578063b88d4fde146102ca578063c87b56dd146102e6578063e985e9c514610316576100f5565b80636352211e146101fc57806370a082311461022c57806395d89b411461025c5780639f9fb9681461027a576100f5565b8063095ea7b3116100d3578063095ea7b31461017857806323b872dd1461019457806342842e0e146101b05780634f16e398146101cc576100f5565b806301ffc9a7146100fa57806306fdde031461012a578063081812fc14610148575b600080fd5b610114600480360381019061010f919061190c565b610346565b6040516101219190611954565b60405180910390f35b610132610428565b60405161013f9190611a08565b60405180910390f35b610162600480360381019061015d9190611a60565b6104ba565b60405161016f9190611ace565b60405180910390f35b610192600480360381019061018d9190611b15565b61053f565b005b6101ae60048036038101906101a99190611b55565b610657565b005b6101ca60048036038101906101c59190611b55565b6106b7565b005b6101e660048036038101906101e19190611ba8565b6106d7565b6040516101f39190611c44565b60405180910390f35b61021660048036038101906102119190611a60565b61081e565b6040516102239190611ace565b60405180910390f35b61024660048036038101906102419190611c5f565b6108d0565b6040516102539190611c44565b60405180910390f35b610264610988565b6040516102719190611a08565b60405180910390f35b610294600480360381019061028f9190611a60565b610a1a565b6040516102a5959493929190611c8c565b60405180910390f35b6102c860048036038101906102c39190611d0b565b610b3a565b005b6102e460048036038101906102df9190611e80565b610b50565b005b61030060048036038101906102fb9190611a60565b610bb2565b60405161030d9190611a08565b60405180910390f35b610330600480360381019061032b9190611f03565b610c59565b60405161033d9190611954565b60405180910390f35b60007f80ac58cd000000000000000000000000000000000000000000000000000000007bffffffffffffffffffffffffffffffffffffffffffffffffffffffff1916827bffffffffffffffffffffffffffffffffffffffffffffffffffffffff1916148061041157507f5b5e139f000000000000000000000000000000000000000000000000000000007bffffffffffffffffffffffffffffffffffffffffffffffffffffffff1916827bffffffffffffffffffffffffffffffffffffffffffffffffffffffff1916145b80610421575061042082610ced565b5b9050919050565b60606000805461043790611f72565b80601f016020809104026020016040519081016040528092919081815260200182805461046390611f72565b80156104b05780601f10610485576101008083540402835291602001916104b0565b820191906000526020600020905b81548152906001019060200180831161049357829003601f168201915b5050505050905090565b60006104c582610d57565b610504576040517f08c379a00000000000000000000000000000000000000000000000000000000081526004016104fb90612016565b60405180910390fd5b6004600083815260200190815260200160002060009054906101000a900473ffffffffffffffffffffffffffffffffffffffff169050919050565b600061054a8261081e565b90508073ffffffffffffffffffffffffffffffffffffffff168373ffffffffffffffffffffffffffffffffffffffff1614156105bb576040517f08c379a00000000000000000000000000000000000000000000000000000000081526004016105b2906120a8565b60405180910390fd5b8073ffffffffffffffffffffffffffffffffffffffff166105da610dc3565b73ffffffffffffffffffffffffffffffffffffffff161480610609575061060881610603610dc3565b610c59565b5b610648576040517f08c379a000000000000000000000000000000000000000000000000000000000815260040161063f9061213a565b60405180910390fd5b6106528383610dcb565b505050565b610668610662610dc3565b82610e84565b6106a7576040517f08c379a000000000000000000000000000000000000000000000000000000000815260040161069e906121cc565b60405180910390fd5b6106b2838383610f62565b505050565b6106d283838360405180602001604052806000815250610b50565b505050565b60006106e360066111be565b60006106ef60066111d4565b90506040518060a001604052808881526020018781526020018681526020018573ffffffffffffffffffffffffffffffffffffffff1681526020018473ffffffffffffffffffffffffffffffffffffffff168152506007600083815260200190815260200160002060008201518160000155602082015181600101556040820151816002015560608201518160030160006101000a81548173ffffffffffffffffffffffffffffffffffffffff021916908373ffffffffffffffffffffffffffffffffffffffff16021790555060808201518160040160006101000a81548173ffffffffffffffffffffffffffffffffffffffff021916908373ffffffffffffffffffffffffffffffffffffffff16021790555090505061081088826111e2565b809150509695505050505050565b6000806002600084815260200190815260200160002060009054906101000a900473ffffffffffffffffffffffffffffffffffffffff169050600073ffffffffffffffffffffffffffffffffffffffff168173ffffffffffffffffffffffffffffffffffffffff1614156108c7576040517f08c379a00000000000000000000000000000000000000000000000000000000081526004016108be9061225e565b60405180910390fd5b80915050919050565b60008073ffffffffffffffffffffffffffffffffffffffff168273ffffffffffffffffffffffffffffffffffffffff161415610941576040517f08c379a0000000000000000000000000000000000000000000000000000000008152600401610938906122f0565b60405180910390fd5b600360008373ffffffffffffffffffffffffffffffffffffffff1673ffffffffffffffffffffffffffffffffffffffff168152602001908152602001600020549050919050565b60606001805461099790611f72565b80601f01602080910402602001604051908101604052809291908181526020018280546109c390611f72565b8015610a105780601f106109e557610100808354040283529160200191610a10565b820191906000526020600020905b8154815290600101906020018083116109f357829003601f168201915b5050505050905090565b600080600080600080600760008881526020019081526020016000206040518060a00160405290816000820154815260200160018201548152602001600282015481526020016003820160009054906101000a900473ffffffffffffffffffffffffffffffffffffffff1673ffffffffffffffffffffffffffffffffffffffff1673ffffffffffffffffffffffffffffffffffffffff1681526020016004820160009054906101000a900473ffffffffffffffffffffffffffffffffffffffff1673ffffffffffffffffffffffffffffffffffffffff1673ffffffffffffffffffffffffffffffffffffffff1681525050905080600001519550806020015194508060400151935080606001519250806080015191505091939590929450565b610b4c610b45610dc3565b83836113b0565b5050565b610b61610b5b610dc3565b83610e84565b610ba0576040517f08c379a0000000000000000000000000000000000000000000000000000000008152600401610b97906121cc565b60405180910390fd5b610bac8484848461151d565b50505050565b6060610bbd82610d57565b610bfc576040517f08c379a0000000000000000000000000000000000000000000000000000000008152600401610bf390612382565b60405180910390fd5b6000610c06611579565b90506000815111610c265760405180602001604052806000815250610c51565b80610c3084611590565b604051602001610c419291906123de565b6040516020818303038152906040525b915050919050565b6000600560008473ffffffffffffffffffffffffffffffffffffffff1673ffffffffffffffffffffffffffffffffffffffff16815260200190815260200160002060008373ffffffffffffffffffffffffffffffffffffffff1673ffffffffffffffffffffffffffffffffffffffff16815260200190815260200160002060009054906101000a900460ff16905092915050565b60007f01ffc9a7000000000000000000000000000000000000000000000000000000007bffffffffffffffffffffffffffffffffffffffffffffffffffffffff1916827bffffffffffffffffffffffffffffffffffffffffffffffffffffffff1916149050919050565b60008073ffffffffffffffffffffffffffffffffffffffff166002600084815260200190815260200160002060009054906101000a900473ffffffffffffffffffffffffffffffffffffffff1673ffffffffffffffffffffffffffffffffffffffff1614159050919050565b600033905090565b816004600083815260200190815260200160002060006101000a81548173ffffffffffffffffffffffffffffffffffffffff021916908373ffffffffffffffffffffffffffffffffffffffff160217905550808273ffffffffffffffffffffffffffffffffffffffff16610e3e8361081e565b73ffffffffffffffffffffffffffffffffffffffff167f8c5be1e5ebec7d5bd14f71427d1e84f3dd0314c0f7b2291e5b200ac8c7c3b92560405160405180910390a45050565b6000610e8f82610d57565b610ece576040517f08c379a0000000000000000000000000000000000000000000000000000000008152600401610ec590612474565b60405180910390fd5b6000610ed98361081e565b90508073ffffffffffffffffffffffffffffffffffffffff168473ffffffffffffffffffffffffffffffffffffffff161480610f4857508373ffffffffffffffffffffffffffffffffffffffff16610f30846104ba565b73ffffffffffffffffffffffffffffffffffffffff16145b80610f595750610f588185610c59565b5b91505092915050565b8273ffffffffffffffffffffffffffffffffffffffff16610f828261081e565b73ffffffffffffffffffffffffffffffffffffffff1614610fd8576040517f08c379a0000000000000000000000000000000000000000000000000000000008152600401610fcf90612506565b60405180910390fd5b600073ffffffffffffffffffffffffffffffffffffffff168273ffffffffffffffffffffffffffffffffffffffff161415611048576040517f08c379a000000000000000000000000000000000000000000000000000000000815260040161103f90612598565b60405180910390fd5b6110538383836116f1565b61105e600082610dcb565b6001600360008573ffffffffffffffffffffffffffffffffffffffff1673ffffffffffffffffffffffffffffffffffffffff16815260200190815260200160002060008282546110ae91906125e7565b925050819055506001600360008473ffffffffffffffffffffffffffffffffffffffff1673ffffffffffffffffffffffffffffffffffffffff1681526020019081526020016000206000828254611105919061261b565b92505081905550816002600083815260200190815260200160002060006101000a81548173ffffffffffffffffffffffffffffffffffffffff021916908373ffffffffffffffffffffffffffffffffffffffff160217905550808273ffffffffffffffffffffffffffffffffffffffff168473ffffffffffffffffffffffffffffffffffffffff167fddf252ad1be2c89b69c2b068fc378daa952ba7f163c4a11628f55a4df523b3ef60405160405180910390a4505050565b6001816000016000828254019250508190555050565b600081600001549050919050565b600073ffffffffffffffffffffffffffffffffffffffff168273ffffffffffffffffffffffffffffffffffffffff161415611252576040517f08c379a0000000000000000000000000000000000000000000000000000000008152600401611249906126bd565b60405180910390fd5b61125b81610d57565b1561129b576040517f08c379a000000000000000000000000000000000000000000000000000000000815260040161129290612729565b60405180910390fd5b6112a7600083836116f1565b6001600360008473ffffffffffffffffffffffffffffffffffffffff1673ffffffffffffffffffffffffffffffffffffffff16815260200190815260200160002060008282546112f7919061261b565b92505081905550816002600083815260200190815260200160002060006101000a81548173ffffffffffffffffffffffffffffffffffffffff021916908373ffffffffffffffffffffffffffffffffffffffff160217905550808273ffffffffffffffffffffffffffffffffffffffff16600073ffffffffffffffffffffffffffffffffffffffff167fddf252ad1be2c89b69c2b068fc378daa952ba7f163c4a11628f55a4df523b3ef60405160405180910390a45050565b8173ffffffffffffffffffffffffffffffffffffffff168373ffffffffffffffffffffffffffffffffffffffff16141561141f576040517f08c379a000000000000000000000000000000000000000000000000000000000815260040161141690612795565b60405180910390fd5b80600560008573ffffffffffffffffffffffffffffffffffffffff1673ffffffffffffffffffffffffffffffffffffffff16815260200190815260200160002060008473ffffffffffffffffffffffffffffffffffffffff1673ffffffffffffffffffffffffffffffffffffffff16815260200190815260200160002060006101000a81548160ff0219169083151502179055508173ffffffffffffffffffffffffffffffffffffffff168373ffffffffffffffffffffffffffffffffffffffff167f17307eab39ab6107e8899845ad3d59bd9653f200f220920489ca2b5937696c31836040516115109190611954565b60405180910390a3505050565b611528848484610f62565b611534848484846116f6565b611573576040517f08c379a000000000000000000000000000000000000000000000000000000000815260040161156a90612827565b60405180910390fd5b50505050565b606060405180602001604052806000815250905090565b606060008214156115d8576040518060400160405280600181526020017f300000000000000000000000000000000000000000000000000000000000000081525090506116ec565b600082905060005b6000821461160a5780806115f390612847565b915050600a8261160391906128bf565b91506115e0565b60008167ffffffffffffffff81111561162657611625611d55565b5b6040519080825280601f01601f1916602001820160405280156116585781602001600182028036833780820191505090505b5090505b600085146116e55760018261167191906125e7565b9150600a8561168091906128f0565b603061168c919061261b565b60f81b8183815181106116a2576116a1612921565b5b60200101907effffffffffffffffffffffffffffffffffffffffffffffffffffffffffffff1916908160001a905350600a856116de91906128bf565b945061165c565b8093505050505b919050565b505050565b60006117178473ffffffffffffffffffffffffffffffffffffffff1661188d565b15611880578373ffffffffffffffffffffffffffffffffffffffff1663150b7a02611740610dc3565b8786866040518563ffffffff1660e01b815260040161176294939291906129a5565b602060405180830381600087803b15801561177c57600080fd5b505af19250505080156117ad57506040513d601f19601f820116820180604052508101906117aa9190612a06565b60015b611830573d80600081146117dd576040519150601f19603f3d011682016040523d82523d6000602084013e6117e2565b606091505b50600081511415611828576040517f08c379a000000000000000000000000000000000000000000000000000000000815260040161181f90612827565b60405180910390fd5b805181602001fd5b63150b7a0260e01b7bffffffffffffffffffffffffffffffffffffffffffffffffffffffff1916817bffffffffffffffffffffffffffffffffffffffffffffffffffffffff191614915050611885565b600190505b949350505050565b600080823b905060008111915050919050565b6000604051905090565b600080fd5b600080fd5b60007fffffffff0000000000000000000000000000000000000000000000000000000082169050919050565b6118e9816118b4565b81146118f457600080fd5b50565b600081359050611906816118e0565b92915050565b600060208284031215611922576119216118aa565b5b6000611930848285016118f7565b91505092915050565b60008115159050919050565b61194e81611939565b82525050565b60006020820190506119696000830184611945565b92915050565b600081519050919050565b600082825260208201905092915050565b60005b838110156119a957808201518184015260208101905061198e565b838111156119b8576000848401525b50505050565b6000601f19601f8301169050919050565b60006119da8261196f565b6119e4818561197a565b93506119f481856020860161198b565b6119fd816119be565b840191505092915050565b60006020820190508181036000830152611a2281846119cf565b905092915050565b6000819050919050565b611a3d81611a2a565b8114611a4857600080fd5b50565b600081359050611a5a81611a34565b92915050565b600060208284031215611a7657611a756118aa565b5b6000611a8484828501611a4b565b91505092915050565b600073ffffffffffffffffffffffffffffffffffffffff82169050919050565b6000611ab882611a8d565b9050919050565b611ac881611aad565b82525050565b6000602082019050611ae36000830184611abf565b92915050565b611af281611aad565b8114611afd57600080fd5b50565b600081359050611b0f81611ae9565b92915050565b60008060408385031215611b2c57611b2b6118aa565b5b6000611b3a85828601611b00565b9250506020611b4b85828601611a4b565b9150509250929050565b600080600060608486031215611b6e57611b6d6118aa565b5b6000611b7c86828701611b00565b9350506020611b8d86828701611b00565b9250506040611b9e86828701611a4b565b9150509250925092565b60008060008060008060c08789031215611bc557611bc46118aa565b5b6000611bd389828a01611b00565b9650506020611be489828a01611a4b565b9550506040611bf589828a01611a4b565b9450506060611c0689828a01611a4b565b9350506080611c1789828a01611b00565b92505060a0611c2889828a01611b00565b9150509295509295509295565b611c3e81611a2a565b82525050565b6000602082019050611c596000830184611c35565b92915050565b600060208284031215611c7557611c746118aa565b5b6000611c8384828501611b00565b91505092915050565b600060a082019050611ca16000830188611c35565b611cae6020830187611c35565b611cbb6040830186611c35565b611cc86060830185611abf565b611cd56080830184611abf565b9695505050505050565b611ce881611939565b8114611cf357600080fd5b50565b600081359050611d0581611cdf565b92915050565b60008060408385031215611d2257611d216118aa565b5b6000611d3085828601611b00565b9250506020611d4185828601611cf6565b9150509250929050565b600080fd5b600080fd5b7f4e487b7100000000000000000000000000000000000000000000000000000000600052604160045260246000fd5b611d8d826119be565b810181811067ffffffffffffffff82111715611dac57611dab611d55565b5b80604052505050565b6000611dbf6118a0565b9050611dcb8282611d84565b919050565b600067ffffffffffffffff821115611deb57611dea611d55565b5b611df4826119be565b9050602081019050919050565b82818337600083830152505050565b6000611e23611e1e84611dd0565b611db5565b905082815260208101848484011115611e3f57611e3e611d50565b5b611e4a848285611e01565b509392505050565b600082601f830112611e6757611e66611d4b565b5b8135611e77848260208601611e10565b91505092915050565b60008060008060808587031215611e9a57611e996118aa565b5b6000611ea887828801611b00565b9450506020611eb987828801611b00565b9350506040611eca87828801611a4b565b925050606085013567ffffffffffffffff811115611eeb57611eea6118af565b5b611ef787828801611e52565b91505092959194509250565b60008060408385031215611f1a57611f196118aa565b5b6000611f2885828601611b00565b9250506020611f3985828601611b00565b9150509250929050565b7f4e487b7100000000000000000000000000000000000000000000000000000000600052602260045260246000fd5b60006002820490506001821680611f8a57607f821691505b60208210811415611f9e57611f9d611f43565b5b50919050565b7f4552433732313a20617070726f76656420717565727920666f72206e6f6e657860008201527f697374656e7420746f6b656e0000000000000000000000000000000000000000602082015250565b6000612000602c8361197a565b915061200b82611fa4565b604082019050919050565b6000602082019050818103600083015261202f81611ff3565b9050919050565b7f4552433732313a20617070726f76616c20746f2063757272656e74206f776e6560008201527f7200000000000000000000000000000000000000000000000000000000000000602082015250565b600061209260218361197a565b915061209d82612036565b604082019050919050565b600060208201905081810360008301526120c181612085565b9050919050565b7f4552433732313a20617070726f76652063616c6c6572206973206e6f74206f7760008201527f6e6572206e6f7220617070726f76656420666f7220616c6c0000000000000000602082015250565b600061212460388361197a565b915061212f826120c8565b604082019050919050565b6000602082019050818103600083015261215381612117565b9050919050565b7f4552433732313a207472616e736665722063616c6c6572206973206e6f74206f60008201527f776e6572206e6f7220617070726f766564000000000000000000000000000000602082015250565b60006121b660318361197a565b91506121c18261215a565b604082019050919050565b600060208201905081810360008301526121e5816121a9565b9050919050565b7f4552433732313a206f776e657220717565727920666f72206e6f6e657869737460008201527f656e7420746f6b656e0000000000000000000000000000000000000000000000602082015250565b600061224860298361197a565b9150612253826121ec565b604082019050919050565b600060208201905081810360008301526122778161223b565b9050919050565b7f4552433732313a2062616c616e636520717565727920666f7220746865207a6560008201527f726f206164647265737300000000000000000000000000000000000000000000602082015250565b60006122da602a8361197a565b91506122e58261227e565b604082019050919050565b60006020820190508181036000830152612309816122cd565b9050919050565b7f4552433732314d657461646174613a2055524920717565727920666f72206e6f60008201527f6e6578697374656e7420746f6b656e0000000000000000000000000000000000602082015250565b600061236c602f8361197a565b915061237782612310565b604082019050919050565b6000602082019050818103600083015261239b8161235f565b9050919050565b600081905092915050565b60006123b88261196f565b6123c281856123a2565b93506123d281856020860161198b565b80840191505092915050565b60006123ea82856123ad565b91506123f682846123ad565b91508190509392505050565b7f4552433732313a206f70657261746f7220717565727920666f72206e6f6e657860008201527f697374656e7420746f6b656e0000000000000000000000000000000000000000602082015250565b600061245e602c8361197a565b915061246982612402565b604082019050919050565b6000602082019050818103600083015261248d81612451565b9050919050565b7f4552433732313a207472616e73666572206f6620746f6b656e2074686174206960008201527f73206e6f74206f776e0000000000000000000000000000000000000000000000602082015250565b60006124f060298361197a565b91506124fb82612494565b604082019050919050565b6000602082019050818103600083015261251f816124e3565b9050919050565b7f4552433732313a207472616e7366657220746f20746865207a65726f2061646460008201527f7265737300000000000000000000000000000000000000000000000000000000602082015250565b600061258260248361197a565b915061258d82612526565b604082019050919050565b600060208201905081810360008301526125b181612575565b9050919050565b7f4e487b7100000000000000000000000000000000000000000000000000000000600052601160045260246000fd5b60006125f282611a2a565b91506125fd83611a2a565b9250828210156126105761260f6125b8565b5b828203905092915050565b600061262682611a2a565b915061263183611a2a565b9250827fffffffffffffffffffffffffffffffffffffffffffffffffffffffffffffffff03821115612666576126656125b8565b5b828201905092915050565b7f4552433732313a206d696e7420746f20746865207a65726f2061646472657373600082015250565b60006126a760208361197a565b91506126b282612671565b602082019050919050565b600060208201905081810360008301526126d68161269a565b9050919050565b7f4552433732313a20746f6b656e20616c7265616479206d696e74656400000000600082015250565b6000612713601c8361197a565b915061271e826126dd565b602082019050919050565b6000602082019050818103600083015261274281612706565b9050919050565b7f4552433732313a20617070726f766520746f2063616c6c657200000000000000600082015250565b600061277f60198361197a565b915061278a82612749565b602082019050919050565b600060208201905081810360008301526127ae81612772565b9050919050565b7f4552433732313a207472616e7366657220746f206e6f6e20455243373231526560008201527f63656976657220696d706c656d656e7465720000000000000000000000000000602082015250565b600061281160328361197a565b915061281c826127b5565b604082019050919050565b6000602082019050818103600083015261284081612804565b9050919050565b600061285282611a2a565b91507fffffffffffffffffffffffffffffffffffffffffffffffffffffffffffffffff821415612885576128846125b8565b5b600182019050919050565b7f4e487b7100000000000000000000000000000000000000000000000000000000600052601260045260246000fd5b60006128ca82611a2a565b91506128d583611a2a565b9250826128e5576128e4612890565b5b828204905092915050565b60006128fb82611a2a565b915061290683611a2a565b92508261291657612915612890565b5b828206905092915050565b7f4e487b7100000000000000000000000000000000000000000000000000000000600052603260045260246000fd5b600081519050919050565b600082825260208201905092915050565b600061297782612950565b612981818561295b565b935061299181856020860161198b565b61299a816119be565b840191505092915050565b60006080820190506129ba6000830187611abf565b6129c76020830186611abf565b6129d46040830185611c35565b81810360608301526129e6818461296c565b905095945050505050565b600081519050612a00816118e0565b92915050565b600060208284031215612a1c57612a1b6118aa565b5b6000612a2a848285016129f1565b9150509291505056fea2646970667358221220af8ba7a005ba28d4da1bbfd160813579ee7147440eb90898960df587eb7eeb1564736f6c63430008090033",
  "immutableReferences": {},
  "source": "// SPDX-License-Identifier: MIT\npragma solidity 0.8.9;\n\nimport \"@openzeppelin/contracts/token/ERC721/ERC721.sol\";\nimport \"@openzeppelin/contracts/utils/Counters.sol\";\n\ncontract JustCauseERC721 is ERC721 {\n    using Counters for Counters.Counter;\n    Counters.Counter private _tokenIds;\n\n    struct Deposit {\n        uint256 amount;\n        uint256 liquidityIndex;\n        uint256 timeStamp;\n        address pool;\n        address asset;\n    }\n\n    mapping (uint256 => Deposit) deposits;\n\n    constructor() ERC721(\"JustCause Pool Token\", \"JCPT\") {\n\n    }\n\n    function createItem(address _tokenOwner, uint256 _amount, uint256 _liquidityIndex, uint256 _timeStamp, address _pool, address _asset) public returns (uint256) {\n        _tokenIds.increment();\n        uint256 newItemId = _tokenIds.current();\n        deposits[newItemId] = Deposit(_amount, _liquidityIndex, _timeStamp, _pool, _asset);\n        _mint(_tokenOwner, newItemId);\n//      _setTokenURI(newItemId, tokenURI);\n\n        return newItemId;\n    }\n\n    function getDeposit(uint256 _tokenId) public view returns (uint256 amount, uint256 liquidityIndex, uint256 timeStamp, address pool, address asset) {\n        Deposit memory deposit = deposits[_tokenId];\n        amount = deposit.amount;\n        liquidityIndex = deposit.liquidityIndex;\n        timeStamp = deposit.timeStamp;\n        pool = deposit.pool;\n        asset = deposit.asset;\n    }\n}",
  "sourcePath": "/home/smeee/just_cause/contracts/JustCauseERC721.sol",
  "compiler": {
    "name": "solc",
    "version": "0.8.9+commit.e5eed63a.Emscripten.clang"
  },
  "schemaVersion": "3.4.3",
  "updatedAt": "2022-01-19T03:51:13.805Z",
  "networkType": "ethereum",
  "devdoc": {
    "kind": "dev",
    "methods": {
      "approve(address,uint256)": {
        "details": "See {IERC721-approve}."
      },
      "balanceOf(address)": {
        "details": "See {IERC721-balanceOf}."
      },
      "getApproved(uint256)": {
        "details": "See {IERC721-getApproved}."
      },
      "isApprovedForAll(address,address)": {
        "details": "See {IERC721-isApprovedForAll}."
      },
      "name()": {
        "details": "See {IERC721Metadata-name}."
      },
      "ownerOf(uint256)": {
        "details": "See {IERC721-ownerOf}."
      },
      "safeTransferFrom(address,address,uint256)": {
        "details": "See {IERC721-safeTransferFrom}."
      },
      "safeTransferFrom(address,address,uint256,bytes)": {
        "details": "See {IERC721-safeTransferFrom}."
      },
      "setApprovalForAll(address,bool)": {
        "details": "See {IERC721-setApprovalForAll}."
      },
      "supportsInterface(bytes4)": {
        "details": "See {IERC165-supportsInterface}."
      },
      "symbol()": {
        "details": "See {IERC721Metadata-symbol}."
      },
      "tokenURI(uint256)": {
        "details": "See {IERC721Metadata-tokenURI}."
      },
      "transferFrom(address,address,uint256)": {
        "details": "See {IERC721-transferFrom}."
      }
    },
    "version": 1
  },
  "userdoc": {
    "kind": "user",
    "methods": {},
    "version": 1
  }
}