{
  "contractName": "JustCausePool",
  "abi": [
    {
      "inputs": [
        {
          "internalType": "address[]",
          "name": "_acceptedTokens",
          "type": "address[]"
        },
        {
          "internalType": "string",
          "name": "_name",
          "type": "string"
        },
        {
          "internalType": "string",
          "name": "_about",
          "type": "string"
        },
        {
          "internalType": "address",
          "name": "_poolTrackerAddr",
          "type": "address"
        },
        {
          "internalType": "address",
          "name": "_receiver",
          "type": "address"
        }
      ],
      "stateMutability": "nonpayable",
      "type": "constructor"
    },
    {
      "anonymous": false,
      "inputs": [
        {
          "indexed": false,
          "internalType": "address",
          "name": "FROM",
          "type": "address"
        },
        {
          "indexed": false,
          "internalType": "uint256",
          "name": "AMOUNT",
          "type": "uint256"
        },
        {
          "indexed": false,
          "internalType": "uint256",
          "name": "BALANCE",
          "type": "uint256"
        }
      ],
      "name": "BalanceOf",
      "type": "event"
    },
    {
      "anonymous": false,
      "inputs": [
        {
          "indexed": false,
          "internalType": "address",
          "name": "tokenAddress",
          "type": "address"
        },
        {
          "indexed": false,
          "internalType": "address",
          "name": "depositor",
          "type": "address"
        },
        {
          "indexed": false,
          "internalType": "uint256",
          "name": "amount",
          "type": "uint256"
        },
        {
          "indexed": false,
          "internalType": "uint256",
          "name": "totalDeposits",
          "type": "uint256"
        }
      ],
      "name": "Deposit",
      "type": "event"
    },
    {
      "anonymous": false,
      "inputs": [
        {
          "indexed": false,
          "internalType": "address",
          "name": "addr",
          "type": "address"
        }
      ],
      "name": "GetLPAddress",
      "type": "event"
    },
    {
      "anonymous": false,
      "inputs": [
        {
          "indexed": false,
          "internalType": "address",
          "name": "test",
          "type": "address"
        }
      ],
      "name": "GetPoolTracker",
      "type": "event"
    },
    {
      "anonymous": false,
      "inputs": [
        {
          "indexed": false,
          "internalType": "uint256",
          "name": "allowance",
          "type": "uint256"
        }
      ],
      "name": "SeeAllowance",
      "type": "event"
    },
    {
      "anonymous": false,
      "inputs": [
        {
          "indexed": false,
          "internalType": "address",
          "name": "tokenAddress",
          "type": "address"
        },
        {
          "indexed": false,
          "internalType": "address",
          "name": "depositor",
          "type": "address"
        },
        {
          "indexed": false,
          "internalType": "uint256",
          "name": "amount",
          "type": "uint256"
        },
        {
          "indexed": false,
          "internalType": "uint256",
          "name": "userDeposits",
          "type": "uint256"
        },
        {
          "indexed": false,
          "internalType": "uint256",
          "name": "donation",
          "type": "uint256"
        }
      ],
      "name": "Withdraw",
      "type": "event"
    },
    {
      "anonymous": false,
      "inputs": [
        {
          "indexed": false,
          "internalType": "address",
          "name": "tokenAddress",
          "type": "address"
        },
        {
          "indexed": false,
          "internalType": "address",
          "name": "depositor",
          "type": "address"
        },
        {
          "indexed": false,
          "internalType": "uint256",
          "name": "amount",
          "type": "uint256"
        },
        {
          "indexed": false,
          "internalType": "uint256",
          "name": "totalDeposits",
          "type": "uint256"
        },
        {
          "indexed": false,
          "internalType": "address",
          "name": "aTokenAddress",
          "type": "address"
        }
      ],
      "name": "WithdrawDonations",
      "type": "event"
    },
    {
      "inputs": [
        {
          "internalType": "address",
          "name": "_assetAddress",
          "type": "address"
        },
        {
          "internalType": "uint256",
          "name": "_amount",
          "type": "uint256"
        }
      ],
      "name": "deposit",
      "outputs": [],
      "stateMutability": "nonpayable",
      "type": "function"
    },
    {
      "inputs": [
        {
          "internalType": "address",
          "name": "_wethAddress",
          "type": "address"
        }
      ],
      "name": "depositETH",
      "outputs": [],
      "stateMutability": "payable",
      "type": "function"
    },
    {
      "inputs": [
        {
          "internalType": "address",
          "name": "_assetAddress",
          "type": "address"
        },
        {
          "internalType": "uint256",
          "name": "_amount",
          "type": "uint256"
        },
        {
          "internalType": "uint256",
          "name": "_donation",
          "type": "uint256"
        }
      ],
      "name": "withdraw",
      "outputs": [],
      "stateMutability": "nonpayable",
      "type": "function"
    },
    {
      "inputs": [
        {
          "internalType": "address",
          "name": "_assetAddress",
          "type": "address"
        },
        {
          "internalType": "bool",
          "name": "_isETH",
          "type": "bool"
        }
      ],
      "name": "withdrawDonations",
      "outputs": [],
      "stateMutability": "nonpayable",
      "type": "function"
    },
    {
      "inputs": [
        {
          "internalType": "address",
          "name": "_userAddr",
          "type": "address"
        },
        {
          "internalType": "address",
          "name": "_token",
          "type": "address"
        }
      ],
      "name": "getUserBalance",
      "outputs": [
        {
          "internalType": "uint256",
          "name": "",
          "type": "uint256"
        }
      ],
      "stateMutability": "view",
      "type": "function"
    },
    {
      "inputs": [
        {
          "internalType": "address",
          "name": "_token",
          "type": "address"
        }
      ],
      "name": "getTotalDeposits",
      "outputs": [
        {
          "internalType": "uint256",
          "name": "",
          "type": "uint256"
        }
      ],
      "stateMutability": "view",
      "type": "function"
    },
    {
      "inputs": [],
      "name": "getAcceptedTokens",
      "outputs": [
        {
          "internalType": "address[]",
          "name": "",
          "type": "address[]"
        }
      ],
      "stateMutability": "view",
      "type": "function"
    },
    {
      "inputs": [],
      "name": "getName",
      "outputs": [
        {
          "internalType": "string",
          "name": "",
          "type": "string"
        }
      ],
      "stateMutability": "view",
      "type": "function"
    },
    {
      "inputs": [],
      "name": "getAbout",
      "outputs": [
        {
          "internalType": "string",
          "name": "",
          "type": "string"
        }
      ],
      "stateMutability": "view",
      "type": "function"
    },
    {
      "inputs": [
        {
          "internalType": "address",
          "name": "_assetAddress",
          "type": "address"
        }
      ],
      "name": "getATokenAddress",
      "outputs": [
        {
          "internalType": "address",
          "name": "",
          "type": "address"
        }
      ],
      "stateMutability": "view",
      "type": "function"
    },
    {
      "inputs": [
        {
          "internalType": "address",
          "name": "_assetAddress",
          "type": "address"
        }
      ],
      "name": "getUnclaimedInterest",
      "outputs": [
        {
          "internalType": "uint256",
          "name": "",
          "type": "uint256"
        }
      ],
      "stateMutability": "view",
      "type": "function"
    },
    {
      "inputs": [
        {
          "internalType": "address",
          "name": "_assetAddress",
          "type": "address"
        }
      ],
      "name": "getClaimedInterest",
      "outputs": [
        {
          "internalType": "uint256",
          "name": "",
          "type": "uint256"
        }
      ],
      "stateMutability": "view",
      "type": "function"
    },
    {
      "inputs": [
        {
          "internalType": "address",
          "name": "_assetAddress",
          "type": "address"
        }
      ],
      "name": "getATokenBalance",
      "outputs": [
        {
          "internalType": "uint256",
          "name": "",
          "type": "uint256"
        }
      ],
      "stateMutability": "view",
      "type": "function"
    },
    {
      "inputs": [],
      "name": "getRecipient",
      "outputs": [
        {
          "internalType": "address",
          "name": "",
          "type": "address"
        }
      ],
      "stateMutability": "view",
      "type": "function"
    },
    {
      "inputs": [],
      "name": "getByteCode",
      "outputs": [
        {
          "internalType": "bytes",
          "name": "",
          "type": "bytes"
        }
      ],
      "stateMutability": "view",
      "type": "function"
    },
    {
      "inputs": [],
      "name": "getHashByteCode",
      "outputs": [
        {
          "internalType": "bytes32",
          "name": "",
          "type": "bytes32"
        }
      ],
      "stateMutability": "view",
      "type": "function"
    },
    {
      "inputs": [
        {
          "internalType": "address",
          "name": "_asset",
          "type": "address"
        }
      ],
      "name": "getAaveContractData",
      "outputs": [
        {
          "internalType": "uint256",
          "name": "currentATokenBalance",
          "type": "uint256"
        },
        {
          "internalType": "uint256",
          "name": "liquidityRate",
          "type": "uint256"
        },
        {
          "internalType": "uint40",
          "name": "stableRateLastUpdated",
          "type": "uint40"
        },
        {
          "internalType": "bool",
          "name": "usageAsCollateralEnabled",
          "type": "bool"
        }
      ],
      "stateMutability": "view",
      "type": "function"
    },
    {
      "inputs": [
        {
          "internalType": "address",
          "name": "_asset",
          "type": "address"
        }
      ],
      "name": "getAaveGeneralData",
      "outputs": [
        {
          "internalType": "uint256",
          "name": "availableLiquidity",
          "type": "uint256"
        },
        {
          "internalType": "uint256",
          "name": "liquidityRate",
          "type": "uint256"
        },
        {
          "internalType": "uint256",
          "name": "liquidityIndex",
          "type": "uint256"
        },
        {
          "internalType": "uint40",
          "name": "lastUpdateTimestamp",
          "type": "uint40"
        }
      ],
      "stateMutability": "view",
      "type": "function"
    }
  ],
  "bytecode": "0x60806040523480156200001157600080fd5b50604051620039d2380380620039d28339818101604052810190620000379190620008f4565b83601e60008290508160ff1681511062000088576040517f08c379a00000000000000000000000000000000000000000000000000000000081526004016200007f9062000a3a565b60405180910390fd5b8560c860008290508160ff16815110620000d9576040517f08c379a0000000000000000000000000000000000000000000000000000000008152600401620000d09062000a3a565b60405180910390fd5b33600760006101000a81548173ffffffffffffffffffffffffffffffffffffffff021916908373ffffffffffffffffffffffffffffffffffffffff16021790555086600860006101000a81548173ffffffffffffffffffffffffffffffffffffffff021916908373ffffffffffffffffffffffffffffffffffffffff160217905550896009908051906020019062000173929190620004d8565b5088600a90805190602001906200018c929190620004d8565b507388757f2f99175387ab4c6a4b3067c77a695b0349600460006101000a81548173ffffffffffffffffffffffffffffffffffffffff021916908373ffffffffffffffffffffffffffffffffffffffff1602179055506000600460009054906101000a900473ffffffffffffffffffffffffffffffffffffffff1673ffffffffffffffffffffffffffffffffffffffff16630261bf8b6040518163ffffffff1660e01b815260040160206040518083038186803b1580156200024d57600080fd5b505afa15801562000262573d6000803e3d6000fd5b505050506040513d601f19601f8201168201806040525081019062000288919062000a5c565b905080600560006101000a81548173ffffffffffffffffffffffffffffffffffffffff021916908373ffffffffffffffffffffffffffffffffffffffff1602179055508b60069080519060200190620002e392919062000569565b5088600360006101000a81548173ffffffffffffffffffffffffffffffffffffffff021916908373ffffffffffffffffffffffffffffffffffffffff1602179055507f36ac3f21e23b63ede25b34d24a735e877430bc3884df25935f44448497e1e922600360009054906101000a900473ffffffffffffffffffffffffffffffffffffffff1673ffffffffffffffffffffffffffffffffffffffff16638e61514e60096040518263ffffffff1660e01b8152600401620003a4919062000b94565b60206040518083038186803b158015620003bd57600080fd5b505afa158015620003d2573d6000803e3d6000fd5b505050506040513d601f19601f82011682018060405250810190620003f8919062000a5c565b60405162000407919062000bc9565b60405180910390a1600360009054906101000a900473ffffffffffffffffffffffffffffffffffffffff1673ffffffffffffffffffffffffffffffffffffffff166345cdf64230600760009054906101000a900473ffffffffffffffffffffffffffffffffffffffff168e6040518463ffffffff1660e01b8152600401620004929392919062000c32565b600060405180830381600087803b158015620004ad57600080fd5b505af1158015620004c2573d6000803e3d6000fd5b5050505050505050505050505050505062000c76565b828054620004e69062000abd565b90600052602060002090601f0160209004810192826200050a576000855562000556565b82601f106200052557805160ff191683800117855562000556565b8280016001018555821562000556579182015b828111156200055557825182559160200191906001019062000538565b5b509050620005659190620005f8565b5090565b828054828255906000526020600020908101928215620005e5579160200282015b82811115620005e45782518260006101000a81548173ffffffffffffffffffffffffffffffffffffffff021916908373ffffffffffffffffffffffffffffffffffffffff160217905550916020019190600101906200058a565b5b509050620005f49190620005f8565b5090565b5b8082111562000613576000816000905550600101620005f9565b5090565b6000604051905090565b600080fd5b600080fd5b600080fd5b6000601f19601f8301169050919050565b7f4e487b7100000000000000000000000000000000000000000000000000000000600052604160045260246000fd5b6200067b8262000630565b810181811067ffffffffffffffff821117156200069d576200069c62000641565b5b80604052505050565b6000620006b262000617565b9050620006c0828262000670565b919050565b600067ffffffffffffffff821115620006e357620006e262000641565b5b602082029050602081019050919050565b600080fd5b600073ffffffffffffffffffffffffffffffffffffffff82169050919050565b60006200072682620006f9565b9050919050565b620007388162000719565b81146200074457600080fd5b50565b60008151905062000758816200072d565b92915050565b6000620007756200076f84620006c5565b620006a6565b905080838252602082019050602084028301858111156200079b576200079a620006f4565b5b835b81811015620007c85780620007b3888262000747565b8452602084019350506020810190506200079d565b5050509392505050565b600082601f830112620007ea57620007e96200062b565b5b8151620007fc8482602086016200075e565b91505092915050565b600080fd5b600067ffffffffffffffff82111562000828576200082762000641565b5b620008338262000630565b9050602081019050919050565b60005b838110156200086057808201518184015260208101905062000843565b8381111562000870576000848401525b50505050565b60006200088d62000887846200080a565b620006a6565b905082815260208101848484011115620008ac57620008ab62000805565b5b620008b984828562000840565b509392505050565b600082601f830112620008d957620008d86200062b565b5b8151620008eb84826020860162000876565b91505092915050565b600080600080600060a0868803121562000913576200091262000621565b5b600086015167ffffffffffffffff81111562000934576200093362000626565b5b6200094288828901620007d2565b955050602086015167ffffffffffffffff81111562000966576200096562000626565b5b6200097488828901620008c1565b945050604086015167ffffffffffffffff81111562000998576200099762000626565b5b620009a688828901620008c1565b9350506060620009b98882890162000747565b9250506080620009cc8882890162000747565b9150509295509295909350565b600082825260208201905092915050565b7f737472696e67206f76657220636861726163746572206c696d69740000000000600082015250565b600062000a22601b83620009d9565b915062000a2f82620009ea565b602082019050919050565b6000602082019050818103600083015262000a558162000a13565b9050919050565b60006020828403121562000a755762000a7462000621565b5b600062000a858482850162000747565b91505092915050565b7f4e487b7100000000000000000000000000000000000000000000000000000000600052602260045260246000fd5b6000600282049050600182168062000ad657607f821691505b6020821081141562000aed5762000aec62000a8e565b5b50919050565b60008190508160005260206000209050919050565b6000815462000b178162000abd565b62000b238186620009d9565b9450600182166000811462000b41576001811462000b545762000b8b565b60ff198316865260208601935062000b8b565b62000b5f8562000af3565b60005b8381101562000b835781548189015260018201915060208101905062000b62565b808801955050505b50505092915050565b6000602082019050818103600083015262000bb0818462000b08565b905092915050565b62000bc38162000719565b82525050565b600060208201905062000be0600083018462000bb8565b92915050565b600081519050919050565b600062000bfe8262000be6565b62000c0a8185620009d9565b935062000c1c81856020860162000840565b62000c278162000630565b840191505092915050565b600060608201905062000c49600083018662000bb8565b62000c58602083018562000bb8565b818103604083015262000c6c818462000bf1565b9050949350505050565b612d4c8062000c866000396000f3fe6080604052600436106101095760003560e01c8063343d693b116100955780635ff189b9116100645780635ff189b9146103755780636805d6ad146103b2578063711cc005146103ef5780638290da531461042c578063b5c5f6721461046c57610109565b8063343d693b146102b95780633735ef88146102e457806347e7ef241461032157806357ac65661461034a57610109565b8063186f3e5e116100dc578063186f3e5e146101de5780631b88094d1461021e5780632d2da806146102495780632f75700614610265578063322ce09e1461029057610109565b80630251cfa11461010e5780630712f6b31461014b5780630835d21a1461018857806317d7de7c146101b3575b600080fd5b34801561011a57600080fd5b5061013560048036038101906101309190611ebe565b610495565b6040516101429190611f04565b60405180910390f35b34801561015757600080fd5b50610172600480360381019061016d9190611ebe565b6104de565b60405161017f9190611f04565b60405180910390f35b34801561019457600080fd5b5061019d610613565b6040516101aa9190611f38565b60405180910390f35b3480156101bf57600080fd5b506101c8610673565b6040516101d59190611fec565b60405180910390f35b3480156101ea57600080fd5b5061020560048036038101906102009190611ebe565b610705565b604051610215949392919061202e565b60405180910390f35b34801561022a57600080fd5b506102336107e2565b6040516102409190612082565b60405180910390f35b610263600480360381019061025e9190611ebe565b61080c565b005b34801561027157600080fd5b5061027a6108c6565b604051610287919061215b565b60405180910390f35b34801561029c57600080fd5b506102b760048036038101906102b291906121b5565b610954565b005b3480156102c557600080fd5b506102ce610d91565b6040516102db9190611fec565b60405180910390f35b3480156102f057600080fd5b5061030b60048036038101906103069190611ebe565b610e23565b6040516103189190611f04565b60405180910390f35b34801561032d57600080fd5b5061034860048036038101906103439190612221565b610fa8565b005b34801561035657600080fd5b5061035f611350565b60405161036c91906122b6565b60405180910390f35b34801561038157600080fd5b5061039c60048036038101906103979190611ebe565b61138a565b6040516103a99190611f04565b60405180910390f35b3480156103be57600080fd5b506103d960048036038101906103d491906122d8565b6113d3565b6040516103e69190611f04565b60405180910390f35b3480156103fb57600080fd5b5061041660048036038101906104119190611ebe565b611459565b6040516104239190612082565b60405180910390f35b34801561043857600080fd5b50610453600480360381019061044e9190611ebe565b611506565b6040516104639493929190612327565b60405180910390f35b34801561047857600080fd5b50610493600480360381019061048e919061236c565b6115ca565b005b6000600160008373ffffffffffffffffffffffffffffffffffffffff1673ffffffffffffffffffffffffffffffffffffffff168152602001908152602001600020549050919050565b600080733c73a5e5785cac854d468f727c606c07488a29d673ffffffffffffffffffffffffffffffffffffffff1663d2493b6c846040518263ffffffff1660e01b815260040161052e9190612082565b60606040518083038186803b15801561054657600080fd5b505afa15801561055a573d6000803e3d6000fd5b505050506040513d601f19601f8201168201806040525081019061057e91906123d4565b505090508073ffffffffffffffffffffffffffffffffffffffff166370a08231306040518263ffffffff1660e01b81526004016105bb9190612082565b60206040518083038186803b1580156105d357600080fd5b505afa1580156105e7573d6000803e3d6000fd5b505050506040513d601f19601f8201168201806040525081019061060b919061243c565b915050919050565b60003073ffffffffffffffffffffffffffffffffffffffff16803b806020016040519081016040528181526000908060200190933c60405160200161065891906124a5565b60405160208183030381529060405280519060200120905090565b606060098054610682906124eb565b80601f01602080910402602001604051908101604052809291908181526020018280546106ae906124eb565b80156106fb5780601f106106d0576101008083540402835291602001916106fb565b820191906000526020600020905b8154815290600101906020018083116106de57829003601f168201915b5050505050905090565b600080600080733c73a5e5785cac854d468f727c606c07488a29d673ffffffffffffffffffffffffffffffffffffffff166335ea6a75866040518263ffffffff1660e01b81526004016107589190612082565b6101406040518083038186803b15801561077157600080fd5b505afa158015610785573d6000803e3d6000fd5b505050506040513d601f19601f820116820180604052508101906107a99190612549565b90919293949596975090919293949596509091929394509091929350909192509050809450819550829650839750505050509193509193565b6000600860009054906101000a900473ffffffffffffffffffffffffffffffffffffffff16905090565b6000600560009054906101000a900473ffffffffffffffffffffffffffffffffffffffff16905073a61ca04df33b72b235a8a28cfb535bb7a5271b7073ffffffffffffffffffffffffffffffffffffffff1663474cf53d34833060006040518563ffffffff1660e01b81526004016108869392919061267b565b6000604051808303818588803b15801561089f57600080fd5b505af11580156108b3573d6000803e3d6000fd5b50505050506108c23483611c59565b5050565b6060600680548060200260200160405190810160405280929190818152602001828054801561094a57602002820191906000526020600020905b8160009054906101000a900473ffffffffffffffffffffffffffffffffffffffff1673ffffffffffffffffffffffffffffffffffffffff1681526020019060010190808311610900575b5050505050905090565b81600080600090505b6006805490508160ff1610156109fe5760068160ff1681548110610984576109836126b2565b5b9060005260206000200160009054906101000a900473ffffffffffffffffffffffffffffffffffffffff1673ffffffffffffffffffffffffffffffffffffffff168373ffffffffffffffffffffffffffffffffffffffff1614156109eb57600191506109fe565b80806109f69061271d565b91505061095d565b5080610a3f576040517f08c379a0000000000000000000000000000000000000000000000000000000008152600401610a36906127b9565b60405180910390fd5b6000733c73a5e5785cac854d468f727c606c07488a29d673ffffffffffffffffffffffffffffffffffffffff1663d2493b6c866040518263ffffffff1660e01b8152600401610a8e9190612082565b60606040518083038186803b158015610aa657600080fd5b505afa158015610aba573d6000803e3d6000fd5b505050506040513d601f19601f82011682018060405250810190610ade91906123d4565b5050905060008173ffffffffffffffffffffffffffffffffffffffff166370a08231306040518263ffffffff1660e01b8152600401610b1d9190612082565b60206040518083038186803b158015610b3557600080fd5b505afa158015610b49573d6000803e3d6000fd5b505050506040513d601f19601f82011682018060405250810190610b6d919061243c565b90506000600160008873ffffffffffffffffffffffffffffffffffffffff1673ffffffffffffffffffffffffffffffffffffffff1681526020019081526020016000205482610bbc91906127d9565b905080600260008973ffffffffffffffffffffffffffffffffffffffff1673ffffffffffffffffffffffffffffffffffffffff1681526020019081526020016000206000828254610c0d919061280d565b92505081905550600560009054906101000a900473ffffffffffffffffffffffffffffffffffffffff1673ffffffffffffffffffffffffffffffffffffffff166369328dec8883600860009054906101000a900473ffffffffffffffffffffffffffffffffffffffff166040518463ffffffff1660e01b8152600401610c9593929190612863565b602060405180830381600087803b158015610caf57600080fd5b505af1158015610cc3573d6000803e3d6000fd5b505050506040513d601f19601f82011682018060405250810190610ce7919061243c565b507ffb42c6fc06609281806d5b0ad4bd7b7bb222a7ac7fa9e5211fa7ac032fa491ae87600860009054906101000a900473ffffffffffffffffffffffffffffffffffffffff1683600160008c73ffffffffffffffffffffffffffffffffffffffff1673ffffffffffffffffffffffffffffffffffffffff1681526020019081526020016000205487604051610d8095949392919061289a565b60405180910390a150505050505050565b6060600a8054610da0906124eb565b80601f0160208091040260200160405190810160405280929190818152602001828054610dcc906124eb565b8015610e195780601f10610dee57610100808354040283529160200191610e19565b820191906000526020600020905b815481529060010190602001808311610dfc57829003601f168201915b5050505050905090565b600080733c73a5e5785cac854d468f727c606c07488a29d673ffffffffffffffffffffffffffffffffffffffff1663d2493b6c846040518263ffffffff1660e01b8152600401610e739190612082565b60606040518083038186803b158015610e8b57600080fd5b505afa158015610e9f573d6000803e3d6000fd5b505050506040513d601f19601f82011682018060405250810190610ec391906123d4565b5050905060008173ffffffffffffffffffffffffffffffffffffffff166370a08231306040518263ffffffff1660e01b8152600401610f029190612082565b60206040518083038186803b158015610f1a57600080fd5b505afa158015610f2e573d6000803e3d6000fd5b505050506040513d601f19601f82011682018060405250810190610f52919061243c565b9050600160008573ffffffffffffffffffffffffffffffffffffffff1673ffffffffffffffffffffffffffffffffffffffff1681526020019081526020016000205481610f9f91906127d9565b92505050919050565b81600080600090505b6006805490508160ff1610156110525760068160ff1681548110610fd857610fd76126b2565b5b9060005260206000200160009054906101000a900473ffffffffffffffffffffffffffffffffffffffff1673ffffffffffffffffffffffffffffffffffffffff168373ffffffffffffffffffffffffffffffffffffffff16141561103f5760019150611052565b808061104a9061271d565b915050610fb1565b5080611093576040517f08c379a000000000000000000000000000000000000000000000000000000000815260040161108a906127b9565b60405180910390fd5b6000849050838173ffffffffffffffffffffffffffffffffffffffff1663dd62ed3e33306040518363ffffffff1660e01b81526004016110d49291906128ed565b60206040518083038186803b1580156110ec57600080fd5b505afa158015611100573d6000803e3d6000fd5b505050506040513d601f19601f82011682018060405250810190611124919061243c565b1015611165576040517f08c379a000000000000000000000000000000000000000000000000000000000815260040161115c90612962565b60405180910390fd5b8073ffffffffffffffffffffffffffffffffffffffff166323b872dd3330876040518463ffffffff1660e01b81526004016111a293929190612982565b602060405180830381600087803b1580156111bc57600080fd5b505af11580156111d0573d6000803e3d6000fd5b505050506040513d601f19601f820116820180604052508101906111f491906129ce565b506000600560009054906101000a900473ffffffffffffffffffffffffffffffffffffffff1690508173ffffffffffffffffffffffffffffffffffffffff1663095ea7b382876040518363ffffffff1660e01b81526004016112579291906129fb565b602060405180830381600087803b15801561127157600080fd5b505af1158015611285573d6000803e3d6000fd5b505050506040513d601f19601f820116820180604052508101906112a991906129ce565b50600560009054906101000a900473ffffffffffffffffffffffffffffffffffffffff1673ffffffffffffffffffffffffffffffffffffffff1663e8eda9df83873060006040518563ffffffff1660e01b815260040161130c9493929190612a24565b600060405180830381600087803b15801561132657600080fd5b505af115801561133a573d6000803e3d6000fd5b505050506113488587611c59565b505050505050565b60603073ffffffffffffffffffffffffffffffffffffffff16803b806020016040519081016040528181526000908060200190933c905090565b6000600260008373ffffffffffffffffffffffffffffffffffffffff1673ffffffffffffffffffffffffffffffffffffffff168152602001908152602001600020549050919050565b60008060008473ffffffffffffffffffffffffffffffffffffffff1673ffffffffffffffffffffffffffffffffffffffff16815260200190815260200160002060008373ffffffffffffffffffffffffffffffffffffffff1673ffffffffffffffffffffffffffffffffffffffff16815260200190815260200160002054905092915050565b600080733c73a5e5785cac854d468f727c606c07488a29d673ffffffffffffffffffffffffffffffffffffffff1663d2493b6c846040518263ffffffff1660e01b81526004016114a99190612082565b60606040518083038186803b1580156114c157600080fd5b505afa1580156114d5573d6000803e3d6000fd5b505050506040513d601f19601f820116820180604052508101906114f991906123d4565b5050905080915050919050565b600080600080600080600080733c73a5e5785cac854d468f727c606c07488a29d673ffffffffffffffffffffffffffffffffffffffff166328dd2d018a306040518363ffffffff1660e01b81526004016115619291906128ed565b6101206040518083038186803b15801561157a57600080fd5b505afa15801561158e573d6000803e3d6000fd5b505050506040513d601f19601f820116820180604052508101906115b29190612a69565b98509850985050505050509350505050509193509193565b3383838360008211611611576040517f08c379a000000000000000000000000000000000000000000000000000000000815260040161160890612b7f565b60405180910390fd5b816000808673ffffffffffffffffffffffffffffffffffffffff1673ffffffffffffffffffffffffffffffffffffffff16815260200190815260200160002060008573ffffffffffffffffffffffffffffffffffffffff1673ffffffffffffffffffffffffffffffffffffffff1681526020019081526020016000205410156116cf576040517f08c379a00000000000000000000000000000000000000000000000000000000081526004016116c690612c11565b60405180910390fd5b80821015611712576040517f08c379a000000000000000000000000000000000000000000000000000000000815260040161170990612ca3565b60405180910390fd5b6000600560009054906101000a900473ffffffffffffffffffffffffffffffffffffffff169050600086146118e6576000868861174f91906127d9565b9050600560009054906101000a900473ffffffffffffffffffffffffffffffffffffffff1673ffffffffffffffffffffffffffffffffffffffff166369328dec8a89600860009054906101000a900473ffffffffffffffffffffffffffffffffffffffff166040518463ffffffff1660e01b81526004016117d293929190612863565b602060405180830381600087803b1580156117ec57600080fd5b505af1158015611800573d6000803e3d6000fd5b505050506040513d601f19601f82011682018060405250810190611824919061243c565b50600081146118e057600560009054906101000a900473ffffffffffffffffffffffffffffffffffffffff1673ffffffffffffffffffffffffffffffffffffffff166369328dec8a83336040518463ffffffff1660e01b815260040161188c93929190612863565b602060405180830381600087803b1580156118a657600080fd5b505af11580156118ba573d6000803e3d6000fd5b505050506040513d601f19601f820116820180604052508101906118de919061243c565b505b50611999565b600560009054906101000a900473ffffffffffffffffffffffffffffffffffffffff1673ffffffffffffffffffffffffffffffffffffffff166369328dec8989336040518463ffffffff1660e01b815260040161194593929190612863565b602060405180830381600087803b15801561195f57600080fd5b505af1158015611973573d6000803e3d6000fd5b505050506040513d601f19601f82011682018060405250810190611997919061243c565b505b866000803373ffffffffffffffffffffffffffffffffffffffff1673ffffffffffffffffffffffffffffffffffffffff16815260200190815260200160002060008a73ffffffffffffffffffffffffffffffffffffffff1673ffffffffffffffffffffffffffffffffffffffff1681526020019081526020016000206000828254611a2491906127d9565b9250508190555086600160008a73ffffffffffffffffffffffffffffffffffffffff1673ffffffffffffffffffffffffffffffffffffffff1681526020019081526020016000206000828254611a7a91906127d9565b9250508190555060008060003373ffffffffffffffffffffffffffffffffffffffff1673ffffffffffffffffffffffffffffffffffffffff16815260200190815260200160002060008a73ffffffffffffffffffffffffffffffffffffffff1673ffffffffffffffffffffffffffffffffffffffff168152602001908152602001600020541415611b9557600360009054906101000a900473ffffffffffffffffffffffffffffffffffffffff1673ffffffffffffffffffffffffffffffffffffffff16633be273d633306040518363ffffffff1660e01b8152600401611b629291906128ed565b600060405180830381600087803b158015611b7c57600080fd5b505af1158015611b90573d6000803e3d6000fd5b505050505b7febff2602b3f468259e1e99f613fed6691f3a6526effe6ef3e768ba7ae7a36c4f8833896000803373ffffffffffffffffffffffffffffffffffffffff1673ffffffffffffffffffffffffffffffffffffffff16815260200190815260200160002060008d73ffffffffffffffffffffffffffffffffffffffff1673ffffffffffffffffffffffffffffffffffffffff168152602001908152602001600020548a604051611c47959493929190612cc3565b60405180910390a15050505050505050565b60008060003373ffffffffffffffffffffffffffffffffffffffff1673ffffffffffffffffffffffffffffffffffffffff16815260200190815260200160002060008373ffffffffffffffffffffffffffffffffffffffff1673ffffffffffffffffffffffffffffffffffffffff1681526020019081526020016000205490506000811415611d7257600360009054906101000a900473ffffffffffffffffffffffffffffffffffffffff1673ffffffffffffffffffffffffffffffffffffffff16632f1c563e33306040518363ffffffff1660e01b8152600401611d3f9291906128ed565b600060405180830381600087803b158015611d5957600080fd5b505af1158015611d6d573d6000803e3d6000fd5b505050505b8281611d7e919061280d565b905082600160008473ffffffffffffffffffffffffffffffffffffffff1673ffffffffffffffffffffffffffffffffffffffff1681526020019081526020016000206000828254611dcf919061280d565b92505081905550806000803373ffffffffffffffffffffffffffffffffffffffff1673ffffffffffffffffffffffffffffffffffffffff16815260200190815260200160002060008473ffffffffffffffffffffffffffffffffffffffff1673ffffffffffffffffffffffffffffffffffffffff16815260200190815260200160002081905550505050565b600080fd5b600073ffffffffffffffffffffffffffffffffffffffff82169050919050565b6000611e8b82611e60565b9050919050565b611e9b81611e80565b8114611ea657600080fd5b50565b600081359050611eb881611e92565b92915050565b600060208284031215611ed457611ed3611e5b565b5b6000611ee284828501611ea9565b91505092915050565b6000819050919050565b611efe81611eeb565b82525050565b6000602082019050611f196000830184611ef5565b92915050565b6000819050919050565b611f3281611f1f565b82525050565b6000602082019050611f4d6000830184611f29565b92915050565b600081519050919050565b600082825260208201905092915050565b60005b83811015611f8d578082015181840152602081019050611f72565b83811115611f9c576000848401525b50505050565b6000601f19601f8301169050919050565b6000611fbe82611f53565b611fc88185611f5e565b9350611fd8818560208601611f6f565b611fe181611fa2565b840191505092915050565b600060208201905081810360008301526120068184611fb3565b905092915050565b600064ffffffffff82169050919050565b6120288161200e565b82525050565b60006080820190506120436000830187611ef5565b6120506020830186611ef5565b61205d6040830185611ef5565b61206a606083018461201f565b95945050505050565b61207c81611e80565b82525050565b60006020820190506120976000830184612073565b92915050565b600081519050919050565b600082825260208201905092915050565b6000819050602082019050919050565b6120d281611e80565b82525050565b60006120e483836120c9565b60208301905092915050565b6000602082019050919050565b60006121088261209d565b61211281856120a8565b935061211d836120b9565b8060005b8381101561214e57815161213588826120d8565b9750612140836120f0565b925050600181019050612121565b5085935050505092915050565b6000602082019050818103600083015261217581846120fd565b905092915050565b60008115159050919050565b6121928161217d565b811461219d57600080fd5b50565b6000813590506121af81612189565b92915050565b600080604083850312156121cc576121cb611e5b565b5b60006121da85828601611ea9565b92505060206121eb858286016121a0565b9150509250929050565b6121fe81611eeb565b811461220957600080fd5b50565b60008135905061221b816121f5565b92915050565b6000806040838503121561223857612237611e5b565b5b600061224685828601611ea9565b92505060206122578582860161220c565b9150509250929050565b600081519050919050565b600082825260208201905092915050565b600061228882612261565b612292818561226c565b93506122a2818560208601611f6f565b6122ab81611fa2565b840191505092915050565b600060208201905081810360008301526122d0818461227d565b905092915050565b600080604083850312156122ef576122ee611e5b565b5b60006122fd85828601611ea9565b925050602061230e85828601611ea9565b9150509250929050565b6123218161217d565b82525050565b600060808201905061233c6000830187611ef5565b6123496020830186611ef5565b612356604083018561201f565b6123636060830184612318565b95945050505050565b60008060006060848603121561238557612384611e5b565b5b600061239386828701611ea9565b93505060206123a48682870161220c565b92505060406123b58682870161220c565b9150509250925092565b6000815190506123ce81611e92565b92915050565b6000806000606084860312156123ed576123ec611e5b565b5b60006123fb868287016123bf565b935050602061240c868287016123bf565b925050604061241d868287016123bf565b9150509250925092565b600081519050612436816121f5565b92915050565b60006020828403121561245257612451611e5b565b5b600061246084828501612427565b91505092915050565b600081905092915050565b600061247f82612261565b6124898185612469565b9350612499818560208601611f6f565b80840191505092915050565b60006124b18284612474565b915081905092915050565b7f4e487b7100000000000000000000000000000000000000000000000000000000600052602260045260246000fd5b6000600282049050600182168061250357607f821691505b60208210811415612517576125166124bc565b5b50919050565b6125268161200e565b811461253157600080fd5b50565b6000815190506125438161251d565b92915050565b6000806000806000806000806000806101408b8d03121561256d5761256c611e5b565b5b600061257b8d828e01612427565b9a5050602061258c8d828e01612427565b995050604061259d8d828e01612427565b98505060606125ae8d828e01612427565b97505060806125bf8d828e01612427565b96505060a06125d08d828e01612427565b95505060c06125e18d828e01612427565b94505060e06125f28d828e01612427565b9350506101006126048d828e01612427565b9250506101206126168d828e01612534565b9150509295989b9194979a5092959850565b6000819050919050565b600061ffff82169050919050565b6000819050919050565b600061266561266061265b84612628565b612640565b612632565b9050919050565b6126758161264a565b82525050565b60006060820190506126906000830186612073565b61269d6020830185612073565b6126aa604083018461266c565b949350505050565b7f4e487b7100000000000000000000000000000000000000000000000000000000600052603260045260246000fd5b7f4e487b7100000000000000000000000000000000000000000000000000000000600052601160045260246000fd5b600060ff82169050919050565b600061272882612710565b915060ff82141561273c5761273b6126e1565b5b600182019050919050565b7f7375626d697474656420746f6b656e2061646472657373206973206e6f74206160008201527f6363657074656420627920706f6f6c0000000000000000000000000000000000602082015250565b60006127a3602f83611f5e565b91506127ae82612747565b604082019050919050565b600060208201905081810360008301526127d281612796565b9050919050565b60006127e482611eeb565b91506127ef83611eeb565b925082821015612802576128016126e1565b5b828203905092915050565b600061281882611eeb565b915061282383611eeb565b9250827fffffffffffffffffffffffffffffffffffffffffffffffffffffffffffffffff03821115612858576128576126e1565b5b828201905092915050565b60006060820190506128786000830186612073565b6128856020830185611ef5565b6128926040830184612073565b949350505050565b600060a0820190506128af6000830188612073565b6128bc6020830187612073565b6128c96040830186611ef5565b6128d66060830185611ef5565b6128e36080830184612073565b9695505050505050565b60006040820190506129026000830185612073565b61290f6020830184612073565b9392505050565b7f73656e646572206e6f7420617070726f76656400000000000000000000000000600082015250565b600061294c601383611f5e565b915061295782612916565b602082019050919050565b6000602082019050818103600083015261297b8161293f565b9050919050565b60006060820190506129976000830186612073565b6129a46020830185612073565b6129b16040830184611ef5565b949350505050565b6000815190506129c881612189565b92915050565b6000602082840312156129e4576129e3611e5b565b5b60006129f2848285016129b9565b91505092915050565b6000604082019050612a106000830185612073565b612a1d6020830184611ef5565b9392505050565b6000608082019050612a396000830187612073565b612a466020830186611ef5565b612a536040830185612073565b612a60606083018461266c565b95945050505050565b60008060008060008060008060006101208a8c031215612a8c57612a8b611e5b565b5b6000612a9a8c828d01612427565b9950506020612aab8c828d01612427565b9850506040612abc8c828d01612427565b9750506060612acd8c828d01612427565b9650506080612ade8c828d01612427565b95505060a0612aef8c828d01612427565b94505060c0612b008c828d01612427565b93505060e0612b118c828d01612534565b925050610100612b238c828d016129b9565b9150509295985092959850929598565b7f616d6f756e74206d757374206578636565642030000000000000000000000000600082015250565b6000612b69601483611f5e565b9150612b7482612b33565b602082019050919050565b60006020820190508181036000830152612b9881612b5c565b9050919050565b7f6e6f2066756e6473206465706f736974656420666f722073656c65637465642060008201527f746f6b656e000000000000000000000000000000000000000000000000000000602082015250565b6000612bfb602583611f5e565b9150612c0682612b9f565b604082019050919050565b60006020820190508181036000830152612c2a81612bee565b9050919050565b7f646f6e6174696f6e2063616e6e6f74206578636565642077697468647261776160008201527f6c20616d6f756e74000000000000000000000000000000000000000000000000602082015250565b6000612c8d602883611f5e565b9150612c9882612c31565b604082019050919050565b60006020820190508181036000830152612cbc81612c80565b9050919050565b600060a082019050612cd86000830188612073565b612ce56020830187612073565b612cf26040830186611ef5565b612cff6060830185611ef5565b612d0c6080830184611ef5565b969550505050505056fea26469706673582212204635fc6c95ff631fa07ec33cff2cba37f060a0ac92ffc88b4dc52152d4ab468a64736f6c63430008090033",
  "immutableReferences": {},
  "source": "// SPDX-License-Identifier: MIT\npragma solidity 0.8.9;\n\nimport { IERC20, ILendingPool, ILendingPoolAddressesProvider, IPoolTracker, IProtocolDataProvider, IWETHGateway} from './Interfaces.sol';\nimport { SafeERC20 } from './Libraries.sol';\n\n/**\n * This is a proof of concept starter contract, showing how uncollaterised loans are possible\n * using Aave v2 credit delegation.\n * This example supports stable interest rate borrows.\n * It is not production ready (!). User permissions and user accounting of loans should be implemented.\n * See @dev comments\n */\n\ncontract JustCausePool {\n    mapping(address => mapping(address => uint256)) private depositors;\n    mapping(address => uint256) private totalDeposits;\n    mapping(address => uint256) private interestWithdrawn;\n\n    IPoolTracker poolTracker;\n\n    ILendingPoolAddressesProvider provider;\n    ILendingPool lendingPool;\n    IProtocolDataProvider constant dataProvider = IProtocolDataProvider(address(0x3c73A5E5785cAC854D468F727c606C07488a29D6)); // Kovan\n    IWETHGateway constant wethGateway = IWETHGateway(address(0xA61ca04DF33B72b235a8A28CfB535bb7A5271B70)); //Kovan\n\n    address[] acceptedTokens;\n\n    event Deposit(address tokenAddress, address depositor, uint256 amount, uint256 totalDeposits);\n    event Withdraw(address tokenAddress, address depositor, uint256 amount, uint256 userDeposits, uint256 donation);\n    event WithdrawDonations(address tokenAddress, address depositor, uint256 amount, uint256 totalDeposits, address aTokenAddress);\n    event BalanceOf(address FROM, uint256 AMOUNT, uint256 BALANCE);\n    event GetLPAddress(address addr);\n    event SeeAllowance(uint256 allowance);\n    event GetPoolTracker(address test);\n    address owner;\n    address receiver;\n    string name;\n    string about;\n\n    modifier onlyAllowedTokens(address _tokenAddr){\n        bool isAccepted;\n        for (uint8 i = 0; i < acceptedTokens.length; i++){\n            if(_tokenAddr == acceptedTokens[i]){\n                isAccepted = true;\n                break;\n            }\n        }\n        require(isAccepted, \"submitted token address is not accepted by pool\");\n        _;\n    }\n\n    modifier enoughFunds(address _userAddr, address _tokenAddr, uint256 _amount, uint256 _donation) {\n        require(_amount > 0, \"amount must exceed 0\");\n        require(depositors[_userAddr][_tokenAddr]  >= _amount, \"no funds deposited for selected token\");\n        require(_amount >= _donation, \"donation cannot exceed withdrawal amount\");\n        _;\n    }\n\n    modifier onlyReceiver(address _requestAddr){\n        require(receiver == _requestAddr, \"you are not the current reciever for this pool\");\n        _;\n    }\n\n    modifier strLength(string memory _str, uint8 _limit ){\n        bytes memory strBytes = bytes(_str);\n        require(strBytes.length < _limit, \"string over character limit\");\n        _;\n    }\n\n    constructor (address[] memory _acceptedTokens, string memory _name, string memory _about, address _poolTrackerAddr, address _receiver) strLength(_name, 30) strLength(_about, 200) {\n            owner = msg.sender;\n            receiver = _receiver;\n            name = _name;\n            about = _about;\n            provider = ILendingPoolAddressesProvider(address(0x88757f2f99175387aB4C6a4b3067c77A695b0349));\n            address lendingPoolAddr = provider.getLendingPool();\n            lendingPool = ILendingPool(lendingPoolAddr); // Kovan\n            acceptedTokens = _acceptedTokens;\n\n            poolTracker = IPoolTracker(address(_poolTrackerAddr));\n            emit GetPoolTracker(poolTracker.getAddressFromName(name));\n            poolTracker.addVerifiedPools(address(this), owner, _name);\n    }\n\n    function deposit(address _assetAddress, uint256 _amount) onlyAllowedTokens(_assetAddress) public {\n        IERC20 token = IERC20(_assetAddress);\n        require(token.allowance(msg.sender, address(this)) >= _amount, \"sender not approved\");\n        token.transferFrom(msg.sender, address(this), _amount);\n        address poolAddr = address(lendingPool);\n        token.approve(poolAddr, _amount);\n        lendingPool.deposit(address(token), _amount, address(this), 0);\n        tallyDeposit(_amount, _assetAddress);\n    }\n\n    function depositETH(address _wethAddress) public payable {\n        address poolAddr = address(lendingPool);\n        wethGateway.depositETH{value: msg.value}(poolAddr, address(this), 0);\n        tallyDeposit(msg.value, _wethAddress);\n    }\n\n    function tallyDeposit(uint256 _amount, address _assetAddress) internal {\n        uint256 depositedAmount = depositors[msg.sender][_assetAddress];\n        if(depositedAmount == 0){\n            poolTracker.addDeposit(msg.sender, address(this));\n        }\n        depositedAmount += _amount;\n        totalDeposits[_assetAddress] += _amount;\n        depositors[msg.sender][_assetAddress] = depositedAmount;\n    }\n\n    function withdraw(address _assetAddress, uint256 _amount, uint256 _donation) enoughFunds(msg.sender, _assetAddress, _amount, _donation) public {\n        address poolAddr = address(lendingPool);\n        if(_donation != 0){\n            uint256 newAmount = _amount - _donation;\n            lendingPool.withdraw(_assetAddress, _donation, receiver);\n            if(newAmount != 0)\n                lendingPool.withdraw(_assetAddress, newAmount, msg.sender);\n        }\n        else\n            lendingPool.withdraw(_assetAddress, _amount, msg.sender);\n\n        depositors[msg.sender][_assetAddress] -= _amount;\n        totalDeposits[_assetAddress] -= _amount;\n\n        if(depositors[msg.sender][_assetAddress] == 0){\n            poolTracker.withdrawDeposit(msg.sender, address(this));\n        }\n        emit Withdraw(_assetAddress, msg.sender, _amount, depositors[msg.sender][_assetAddress], _donation);\n    }\n\n    function withdrawDonations(address _assetAddress, bool _isETH) onlyAllowedTokens(_assetAddress) public{\n        (address aTokenAddress,,) = dataProvider.getReserveTokensAddresses(_assetAddress);\n\n        uint256 aTokenBalance = IERC20(aTokenAddress).balanceOf(address(this));\n        uint256 interestEarned = aTokenBalance - totalDeposits[_assetAddress];\n        interestWithdrawn[_assetAddress] += interestEarned;\n        lendingPool.withdraw(_assetAddress, interestEarned, receiver);\n        emit WithdrawDonations(_assetAddress, receiver, interestEarned, totalDeposits[_assetAddress], aTokenAddress);\n    }\n\n    function getUserBalance(address _userAddr, address _token) external view returns(uint256){\n        return depositors[_userAddr][_token];\n    }\n\n    function getTotalDeposits(address _token) external view returns(uint256){\n        return totalDeposits[_token];\n    }\n\n    function getAcceptedTokens() external view returns(address[] memory){\n        return acceptedTokens;\n    }\n\n    function getName() external view returns(string memory){\n        return name;\n    }\n\n    function getAbout() external view returns(string memory){\n        return about;\n    }\n\n    function getATokenAddress(address _assetAddress) external view returns(address){\n        (address aTokenAddress,,) = dataProvider.getReserveTokensAddresses(_assetAddress);\n        return aTokenAddress;\n    }\n\n    function getUnclaimedInterest(address _assetAddress) external view returns (uint256){\n        (address aTokenAddress,,) = dataProvider.getReserveTokensAddresses(_assetAddress);\n            uint256 aTokenBalance = IERC20(aTokenAddress).balanceOf(address(this));\n            return aTokenBalance - totalDeposits[_assetAddress];\n    }\n\n    function getClaimedInterest(address _assetAddress) external view returns (uint256){\n        return interestWithdrawn[_assetAddress];\n    }\n\n    function getATokenBalance(address _assetAddress) external view returns (uint256){\n        (address aTokenAddress,,) = dataProvider.getReserveTokensAddresses(_assetAddress);\n        return IERC20(aTokenAddress).balanceOf(address(this));\n    }\n\n    function getRecipient() external view returns(address){\n        return receiver;\n    }\n\n    function getByteCode() external view returns(bytes memory) {\n        return address(this).code;\n    }\n\n    function getHashByteCode() public view returns(bytes32) {\n        return keccak256(abi.encodePacked(address(this).code));\n    }\n\n    function getAaveContractData(address _asset) public view returns(uint256 currentATokenBalance, uint256 liquidityRate,\n                                                                     uint40 stableRateLastUpdated, bool usageAsCollateralEnabled){\n        (uint256 currentATokenBalance,,,,,, uint256 liquidityRate, uint40 stableRateLastUpdated, bool usageAsCollateralEnabled) =\n                                                                    dataProvider.getUserReserveData(_asset, address(this));\n    }\n    function getAaveGeneralData(address _asset) public view returns(uint256 availableLiquidity, uint256 liquidityRate,\n                                                                    uint256 liquidityIndex, uint40 lastUpdateTimestamp){\n        (availableLiquidity,,, liquidityRate,,,, liquidityIndex,, lastUpdateTimestamp) =\n                                                                    dataProvider.getReserveData(_asset);\n    }\n}",
  "sourcePath": "/home/smeee/just_cause/contracts/JustCausePool.sol",
  "compiler": {
    "name": "solc",
    "version": "0.8.9+commit.e5eed63a.Emscripten.clang"
  },
  "schemaVersion": "3.4.3",
  "updatedAt": "2022-01-12T03:28:43.751Z",
  "devdoc": {
    "details": "comments",
    "kind": "dev",
    "methods": {},
    "version": 1
  },
  "userdoc": {
    "kind": "user",
    "methods": {},
    "notice": "This is a proof of concept starter contract, showing how uncollaterised loans are possible using Aave v2 credit delegation. This example supports stable interest rate borrows. It is not production ready (!). User permissions and user accounting of loans should be implemented.",
    "version": 1
  }
}