{
  "contractName": "JustCausePool",
  "abi": [
    {
      "inputs": [],
      "stateMutability": "nonpayable",
      "type": "constructor"
    },
    {
      "anonymous": false,
      "inputs": [
        {
          "indexed": false,
          "internalType": "address",
          "name": "tokenAddress",
          "type": "address"
        },
        {
          "indexed": false,
          "internalType": "address",
          "name": "depositor",
          "type": "address"
        },
        {
          "indexed": false,
          "internalType": "uint256",
          "name": "amount",
          "type": "uint256"
        }
      ],
      "name": "Deposit",
      "type": "event"
    },
    {
      "anonymous": false,
      "inputs": [
        {
          "indexed": false,
          "internalType": "address",
          "name": "tokenAddress",
          "type": "address"
        },
        {
          "indexed": false,
          "internalType": "address",
          "name": "caller",
          "type": "address"
        },
        {
          "indexed": false,
          "internalType": "uint256",
          "name": "amount",
          "type": "uint256"
        }
      ],
      "name": "Withdraw",
      "type": "event"
    },
    {
      "anonymous": false,
      "inputs": [
        {
          "indexed": false,
          "internalType": "address",
          "name": "tokenAddress",
          "type": "address"
        },
        {
          "indexed": false,
          "internalType": "uint256",
          "name": "amount",
          "type": "uint256"
        }
      ],
      "name": "WithdrawDonations",
      "type": "event"
    },
    {
      "inputs": [
        {
          "internalType": "address[]",
          "name": "_acceptedTokens",
          "type": "address[]"
        },
        {
          "internalType": "string",
          "name": "_name",
          "type": "string"
        },
        {
          "internalType": "string",
          "name": "_about",
          "type": "string"
        },
        {
          "internalType": "address",
          "name": "_receiver",
          "type": "address"
        }
      ],
      "name": "initialize",
      "outputs": [],
      "stateMutability": "nonpayable",
      "type": "function"
    },
    {
      "inputs": [
        {
          "internalType": "address",
          "name": "_assetAddress",
          "type": "address"
        },
        {
          "internalType": "uint256",
          "name": "_amount",
          "type": "uint256"
        }
      ],
      "name": "deposit",
      "outputs": [],
      "stateMutability": "nonpayable",
      "type": "function"
    },
    {
      "inputs": [
        {
          "internalType": "address",
          "name": "_wethAddress",
          "type": "address"
        },
        {
          "internalType": "uint256",
          "name": "_value",
          "type": "uint256"
        }
      ],
      "name": "depositETH",
      "outputs": [],
      "stateMutability": "nonpayable",
      "type": "function"
    },
    {
      "inputs": [
        {
          "internalType": "address",
          "name": "_assetAddress",
          "type": "address"
        },
        {
          "internalType": "uint256",
          "name": "_amount",
          "type": "uint256"
        },
        {
          "internalType": "address",
          "name": "_depositor",
          "type": "address"
        },
        {
          "internalType": "bool",
          "name": "isETH",
          "type": "bool"
        }
      ],
      "name": "withdraw",
      "outputs": [],
      "stateMutability": "nonpayable",
      "type": "function"
    },
    {
      "inputs": [
        {
          "internalType": "address",
          "name": "_assetAddress",
          "type": "address"
        }
      ],
      "name": "withdrawDonations",
      "outputs": [
        {
          "internalType": "uint256",
          "name": "",
          "type": "uint256"
        }
      ],
      "stateMutability": "nonpayable",
      "type": "function"
    },
    {
      "inputs": [
        {
          "internalType": "address",
          "name": "_token",
          "type": "address"
        }
      ],
      "name": "getTotalDeposits",
      "outputs": [
        {
          "internalType": "uint256",
          "name": "",
          "type": "uint256"
        }
      ],
      "stateMutability": "view",
      "type": "function"
    },
    {
      "inputs": [],
      "name": "getAcceptedTokens",
      "outputs": [
        {
          "internalType": "address[]",
          "name": "",
          "type": "address[]"
        }
      ],
      "stateMutability": "view",
      "type": "function"
    },
    {
      "inputs": [],
      "name": "getName",
      "outputs": [
        {
          "internalType": "string",
          "name": "",
          "type": "string"
        }
      ],
      "stateMutability": "view",
      "type": "function"
    },
    {
      "inputs": [],
      "name": "getAbout",
      "outputs": [
        {
          "internalType": "string",
          "name": "",
          "type": "string"
        }
      ],
      "stateMutability": "view",
      "type": "function"
    },
    {
      "inputs": [
        {
          "internalType": "address",
          "name": "_assetAddress",
          "type": "address"
        }
      ],
      "name": "getATokenAddress",
      "outputs": [
        {
          "internalType": "address",
          "name": "",
          "type": "address"
        }
      ],
      "stateMutability": "view",
      "type": "function"
    },
    {
      "inputs": [
        {
          "internalType": "address",
          "name": "_assetAddress",
          "type": "address"
        }
      ],
      "name": "getUnclaimedInterest",
      "outputs": [
        {
          "internalType": "uint256",
          "name": "",
          "type": "uint256"
        }
      ],
      "stateMutability": "view",
      "type": "function"
    },
    {
      "inputs": [
        {
          "internalType": "address",
          "name": "_assetAddress",
          "type": "address"
        }
      ],
      "name": "getClaimedInterest",
      "outputs": [
        {
          "internalType": "uint256",
          "name": "",
          "type": "uint256"
        }
      ],
      "stateMutability": "view",
      "type": "function"
    },
    {
      "inputs": [
        {
          "internalType": "address",
          "name": "_assetAddress",
          "type": "address"
        }
      ],
      "name": "getATokenBalance",
      "outputs": [
        {
          "internalType": "uint256",
          "name": "",
          "type": "uint256"
        }
      ],
      "stateMutability": "view",
      "type": "function"
    },
    {
      "inputs": [],
      "name": "getRecipient",
      "outputs": [
        {
          "internalType": "address",
          "name": "",
          "type": "address"
        }
      ],
      "stateMutability": "view",
      "type": "function"
    },
    {
      "inputs": [],
      "name": "getByteCode",
      "outputs": [
        {
          "internalType": "bytes",
          "name": "",
          "type": "bytes"
        }
      ],
      "stateMutability": "view",
      "type": "function"
    },
    {
      "inputs": [],
      "name": "getHashByteCode",
      "outputs": [
        {
          "internalType": "bytes32",
          "name": "",
          "type": "bytes32"
        }
      ],
      "stateMutability": "view",
      "type": "function"
    },
    {
      "inputs": [
        {
          "internalType": "address",
          "name": "_asset",
          "type": "address"
        }
      ],
      "name": "getReserveNormalizedIncome",
      "outputs": [
        {
          "internalType": "uint256",
          "name": "",
          "type": "uint256"
        }
      ],
      "stateMutability": "view",
      "type": "function"
    },
    {
      "inputs": [
        {
          "internalType": "address",
          "name": "_asset",
          "type": "address"
        }
      ],
      "name": "getAaveLiquidityIndex",
      "outputs": [
        {
          "internalType": "uint256",
          "name": "liquidityIndex",
          "type": "uint256"
        }
      ],
      "stateMutability": "view",
      "type": "function"
    }
  ],
  "bytecode": "0x608060405234801561001057600080fd5b506001600460006101000a81548160ff021916908315150217905550612c318061003b6000396000f3fe608060405234801561001057600080fd5b50600436106101165760003560e01c80633735ef88116100a25780635ff189b9116100715780635ff189b9146102cf578063711cc005146102ff5780638aebe8d61461032f578063a56f5b531461035f578063d15e00531461038f57610116565b80633735ef881461024957806347e7ef241461027957806350d02d711461029557806357ac6566146102b157610116565b806317d7de7c116100e957806317d7de7c146101b55780631b88094d146101d35780632e599054146101f15780632f7570061461020d578063343d693b1461022b57610116565b80630251cfa11461011b5780630712f6b31461014b5780630835d21a1461017b57806312eeff7e14610199575b600080fd5b61013560048036038101906101309190611d88565b6103bf565b6040516101429190611dce565b60405180910390f35b61016560048036038101906101609190611d88565b610408565b6040516101729190611dce565b60405180910390f35b61018361054b565b6040516101909190611e02565b60405180910390f35b6101b360048036038101906101ae9190611e81565b6105ab565b005b6101bd61094b565b6040516101ca9190611f81565b60405180910390f35b6101db6109dd565b6040516101e89190611fb2565b60405180910390f35b61020b60048036038101906102069190611fcd565b610a07565b005b610215610af3565b60405161022291906120cb565b60405180910390f35b610233610b81565b6040516102409190611f81565b60405180910390f35b610263600480360381019061025e9190611d88565b610c13565b6040516102709190611dce565b60405180910390f35b610293600480360381019061028e9190611fcd565b610da6565b005b6102af60048036038101906102aa91906122ea565b610f7f565b005b6102b9611496565b6040516102c691906123fa565b60405180910390f35b6102e960048036038101906102e49190611d88565b6114d0565b6040516102f69190611dce565b60405180910390f35b61031960048036038101906103149190611d88565b611519565b6040516103269190611fb2565b60405180910390f35b61034960048036038101906103449190611d88565b6115d4565b6040516103569190611dce565b60405180910390f35b61037960048036038101906103749190611d88565b6116bf565b6040516103869190611dce565b60405180910390f35b6103a960048036038101906103a49190611d88565b611b11565b6040516103b69190611dce565b60405180910390f35b6000600160008373ffffffffffffffffffffffffffffffffffffffff1673ffffffffffffffffffffffffffffffffffffffff168152602001908152602001600020549050919050565b600080600660009054906101000a900473ffffffffffffffffffffffffffffffffffffffff1673ffffffffffffffffffffffffffffffffffffffff1663d2493b6c846040518263ffffffff1660e01b81526004016104669190611fb2565b60606040518083038186803b15801561047e57600080fd5b505afa158015610492573d6000803e3d6000fd5b505050506040513d601f19601f820116820180604052508101906104b69190612431565b505090508073ffffffffffffffffffffffffffffffffffffffff166370a08231306040518263ffffffff1660e01b81526004016104f39190611fb2565b60206040518083038186803b15801561050b57600080fd5b505afa15801561051f573d6000803e3d6000fd5b505050506040513d601f19601f820116820180604052508101906105439190612499565b915050919050565b60003073ffffffffffffffffffffffffffffffffffffffff16803b806020016040519081016040528181526000908060200190933c6040516020016105909190612502565b60405160208183030381529060405280519060200120905090565b338073ffffffffffffffffffffffffffffffffffffffff16600a60009054906101000a900473ffffffffffffffffffffffffffffffffffffffff1673ffffffffffffffffffffffffffffffffffffffff161461063c576040517f08c379a000000000000000000000000000000000000000000000000000000000815260040161063390612565565b60405180910390fd5b82858560008111610682576040517f08c379a0000000000000000000000000000000000000000000000000000000008152600401610679906125d1565b60405180910390fd5b86600160008a73ffffffffffffffffffffffffffffffffffffffff1673ffffffffffffffffffffffffffffffffffffffff16815260200190815260200160002060008282546106d19190612620565b925050819055508461079457600560009054906101000a900473ffffffffffffffffffffffffffffffffffffffff1673ffffffffffffffffffffffffffffffffffffffff166369328dec8989896040518463ffffffff1660e01b815260040161073c93929190612654565b602060405180830381600087803b15801561075657600080fd5b505af115801561076a573d6000803e3d6000fd5b505050506040513d601f19601f8201168201806040525081019061078e9190612499565b50610906565b600061079f89611519565b90508073ffffffffffffffffffffffffffffffffffffffff1663095ea7b3600760009054906101000a900473ffffffffffffffffffffffffffffffffffffffff168a6040518363ffffffff1660e01b81526004016107fe92919061268b565b602060405180830381600087803b15801561081857600080fd5b505af115801561082c573d6000803e3d6000fd5b505050506040513d601f19601f8201168201806040525081019061085091906126c9565b50600760009054906101000a900473ffffffffffffffffffffffffffffffffffffffff1673ffffffffffffffffffffffffffffffffffffffff166380500d20600560009054906101000a900473ffffffffffffffffffffffffffffffffffffffff168a8a6040518463ffffffff1660e01b81526004016108d293929190612654565b600060405180830381600087803b1580156108ec57600080fd5b505af1158015610900573d6000803e3d6000fd5b50505050505b7f9b1bfa7fa9ee420a16e124f794c35ac9f90472acc99140eb2f6447c714cad8eb888789604051610939939291906126f6565b60405180910390a15050505050505050565b6060600b805461095a9061275c565b80601f01602080910402602001604051908101604052809291908181526020018280546109869061275c565b80156109d35780601f106109a8576101008083540402835291602001916109d3565b820191906000526020600020905b8154815290600101906020018083116109b657829003601f168201915b5050505050905090565b6000600960009054906101000a900473ffffffffffffffffffffffffffffffffffffffff16905090565b338073ffffffffffffffffffffffffffffffffffffffff16600a60009054906101000a900473ffffffffffffffffffffffffffffffffffffffff1673ffffffffffffffffffffffffffffffffffffffff1614610a98576040517f08c379a0000000000000000000000000000000000000000000000000000000008152600401610a8f90612565565b60405180910390fd5b81600160008573ffffffffffffffffffffffffffffffffffffffff1673ffffffffffffffffffffffffffffffffffffffff1681526020019081526020016000206000828254610ae7919061278e565b92505081905550505050565b60606008805480602002602001604051908101604052809291908181526020018280548015610b7757602002820191906000526020600020905b8160009054906101000a900473ffffffffffffffffffffffffffffffffffffffff1673ffffffffffffffffffffffffffffffffffffffff1681526020019060010190808311610b2d575b5050505050905090565b6060600c8054610b909061275c565b80601f0160208091040260200160405190810160405280929190818152602001828054610bbc9061275c565b8015610c095780601f10610bde57610100808354040283529160200191610c09565b820191906000526020600020905b815481529060010190602001808311610bec57829003601f168201915b5050505050905090565b600080600660009054906101000a900473ffffffffffffffffffffffffffffffffffffffff1673ffffffffffffffffffffffffffffffffffffffff1663d2493b6c846040518263ffffffff1660e01b8152600401610c719190611fb2565b60606040518083038186803b158015610c8957600080fd5b505afa158015610c9d573d6000803e3d6000fd5b505050506040513d601f19601f82011682018060405250810190610cc19190612431565b5050905060008173ffffffffffffffffffffffffffffffffffffffff166370a08231306040518263ffffffff1660e01b8152600401610d009190611fb2565b60206040518083038186803b158015610d1857600080fd5b505afa158015610d2c573d6000803e3d6000fd5b505050506040513d601f19601f82011682018060405250810190610d509190612499565b9050600160008573ffffffffffffffffffffffffffffffffffffffff1673ffffffffffffffffffffffffffffffffffffffff1681526020019081526020016000205481610d9d9190612620565b92505050919050565b338073ffffffffffffffffffffffffffffffffffffffff16600a60009054906101000a900473ffffffffffffffffffffffffffffffffffffffff1673ffffffffffffffffffffffffffffffffffffffff1614610e37576040517f08c379a0000000000000000000000000000000000000000000000000000000008152600401610e2e90612565565b60405180910390fd5b82600080600090505b6008805490508160ff161015610ee15760088160ff1681548110610e6757610e666127e4565b5b9060005260206000200160009054906101000a900473ffffffffffffffffffffffffffffffffffffffff1673ffffffffffffffffffffffffffffffffffffffff168373ffffffffffffffffffffffffffffffffffffffff161415610ece5760019150610ee1565b8080610ed990612820565b915050610e40565b5080610f22576040517f08c379a0000000000000000000000000000000000000000000000000000000008152600401610f19906128bc565b60405180910390fd5b83600160008773ffffffffffffffffffffffffffffffffffffffff1673ffffffffffffffffffffffffffffffffffffffff1681526020019081526020016000206000828254610f71919061278e565b925050819055505050505050565b82601e60008290508160ff16815110610fcd576040517f08c379a0000000000000000000000000000000000000000000000000000000008152600401610fc490612928565b60405180910390fd5b8460c860008290508160ff1681511061101b576040517f08c379a000000000000000000000000000000000000000000000000000000000815260040161101290612928565b60405180910390fd5b600060019054906101000a900460ff166110435760008054906101000a900460ff161561104c565b61104b611bc5565b5b61108b576040517f08c379a0000000000000000000000000000000000000000000000000000000008152600401611082906129ba565b60405180910390fd5b60008060019054906101000a900460ff1615905080156110db576001600060016101000a81548160ff02191690831515021790555060016000806101000a81548160ff0219169083151502179055505b60001515600460009054906101000a900460ff16151514611131576040517f08c379a000000000000000000000000000000000000000000000000000000000815260040161112890612a26565b60405180910390fd5b600073ffffffffffffffffffffffffffffffffffffffff16600960009054906101000a900473ffffffffffffffffffffffffffffffffffffffff1673ffffffffffffffffffffffffffffffffffffffff16146111c2576040517f08c379a00000000000000000000000000000000000000000000000000000000081526004016111b990612a92565b60405180910390fd5b87600960006101000a81548173ffffffffffffffffffffffffffffffffffffffff021916908373ffffffffffffffffffffffffffffffffffffffff16021790555033600a60006101000a81548173ffffffffffffffffffffffffffffffffffffffff021916908373ffffffffffffffffffffffffffffffffffffffff16021790555089600b908051906020019061125a929190611be9565b5088600c9080519060200190611271929190611be9565b507388757f2f99175387ab4c6a4b3067c77a695b0349600460016101000a81548173ffffffffffffffffffffffffffffffffffffffff021916908373ffffffffffffffffffffffffffffffffffffffff160217905550600460019054906101000a900473ffffffffffffffffffffffffffffffffffffffff1673ffffffffffffffffffffffffffffffffffffffff16630261bf8b6040518163ffffffff1660e01b815260040160206040518083038186803b15801561132f57600080fd5b505afa158015611343573d6000803e3d6000fd5b505050506040513d601f19601f820116820180604052508101906113679190612ab2565b600560006101000a81548173ffffffffffffffffffffffffffffffffffffffff021916908373ffffffffffffffffffffffffffffffffffffffff160217905550733c73a5e5785cac854d468f727c606c07488a29d6600660006101000a81548173ffffffffffffffffffffffffffffffffffffffff021916908373ffffffffffffffffffffffffffffffffffffffff16021790555073a61ca04df33b72b235a8a28cfb535bb7a5271b70600760006101000a81548173ffffffffffffffffffffffffffffffffffffffff021916908373ffffffffffffffffffffffffffffffffffffffff1602179055508a60089080519060200190611467929190611c6f565b5080156114895760008060016101000a81548160ff0219169083151502179055505b5050505050505050505050565b60603073ffffffffffffffffffffffffffffffffffffffff16803b806020016040519081016040528181526000908060200190933c905090565b6000600260008373ffffffffffffffffffffffffffffffffffffffff1673ffffffffffffffffffffffffffffffffffffffff168152602001908152602001600020549050919050565b600080600660009054906101000a900473ffffffffffffffffffffffffffffffffffffffff1673ffffffffffffffffffffffffffffffffffffffff1663d2493b6c846040518263ffffffff1660e01b81526004016115779190611fb2565b60606040518083038186803b15801561158f57600080fd5b505afa1580156115a3573d6000803e3d6000fd5b505050506040513d601f19601f820116820180604052508101906115c79190612431565b5050905080915050919050565b6000600660009054906101000a900473ffffffffffffffffffffffffffffffffffffffff1673ffffffffffffffffffffffffffffffffffffffff166335ea6a75836040518263ffffffff1660e01b81526004016116319190611fb2565b6101406040518083038186803b15801561164a57600080fd5b505afa15801561165e573d6000803e3d6000fd5b505050506040513d601f19601f820116820180604052508101906116829190612b1c565b9091929394959697985090919293949596975090919293949596509091929394955090919293945090919293509091925090505080915050919050565b6000338073ffffffffffffffffffffffffffffffffffffffff16600a60009054906101000a900473ffffffffffffffffffffffffffffffffffffffff1673ffffffffffffffffffffffffffffffffffffffff1614611752576040517f08c379a000000000000000000000000000000000000000000000000000000000815260040161174990612565565b60405180910390fd5b82600080600090505b6008805490508160ff1610156117fc5760088160ff1681548110611782576117816127e4565b5b9060005260206000200160009054906101000a900473ffffffffffffffffffffffffffffffffffffffff1673ffffffffffffffffffffffffffffffffffffffff168373ffffffffffffffffffffffffffffffffffffffff1614156117e957600191506117fc565b80806117f490612820565b91505061175b565b508061183d576040517f08c379a0000000000000000000000000000000000000000000000000000000008152600401611834906128bc565b60405180910390fd5b6000600660009054906101000a900473ffffffffffffffffffffffffffffffffffffffff1673ffffffffffffffffffffffffffffffffffffffff1663d2493b6c876040518263ffffffff1660e01b815260040161189a9190611fb2565b60606040518083038186803b1580156118b257600080fd5b505afa1580156118c6573d6000803e3d6000fd5b505050506040513d601f19601f820116820180604052508101906118ea9190612431565b5050905060008173ffffffffffffffffffffffffffffffffffffffff166370a08231306040518263ffffffff1660e01b81526004016119299190611fb2565b60206040518083038186803b15801561194157600080fd5b505afa158015611955573d6000803e3d6000fd5b505050506040513d601f19601f820116820180604052508101906119799190612499565b90506000600160008973ffffffffffffffffffffffffffffffffffffffff1673ffffffffffffffffffffffffffffffffffffffff16815260200190815260200160002054826119c89190612620565b9050600560009054906101000a900473ffffffffffffffffffffffffffffffffffffffff1673ffffffffffffffffffffffffffffffffffffffff166369328dec8983600960009054906101000a900473ffffffffffffffffffffffffffffffffffffffff166040518463ffffffff1660e01b8152600401611a4b93929190612654565b602060405180830381600087803b158015611a6557600080fd5b505af1158015611a79573d6000803e3d6000fd5b505050506040513d601f19601f82011682018060405250810190611a9d9190612499565b50611aa7886115d4565b60038190555080600260008a73ffffffffffffffffffffffffffffffffffffffff1673ffffffffffffffffffffffffffffffffffffffff1681526020019081526020016000206000828254611afc919061278e565b92505081905550809650505050505050919050565b6000600560009054906101000a900473ffffffffffffffffffffffffffffffffffffffff1673ffffffffffffffffffffffffffffffffffffffff1663d15e0053836040518263ffffffff1660e01b8152600401611b6e9190611fb2565b60206040518083038186803b158015611b8657600080fd5b505afa158015611b9a573d6000803e3d6000fd5b505050506040513d601f19601f82011682018060405250810190611bbe9190612499565b9050919050565b6000611bd030611bd6565b15905090565b600080823b905060008111915050919050565b828054611bf59061275c565b90600052602060002090601f016020900481019282611c175760008555611c5e565b82601f10611c3057805160ff1916838001178555611c5e565b82800160010185558215611c5e579182015b82811115611c5d578251825591602001919060010190611c42565b5b509050611c6b9190611cf9565b5090565b828054828255906000526020600020908101928215611ce8579160200282015b82811115611ce75782518260006101000a81548173ffffffffffffffffffffffffffffffffffffffff021916908373ffffffffffffffffffffffffffffffffffffffff16021790555091602001919060010190611c8f565b5b509050611cf59190611cf9565b5090565b5b80821115611d12576000816000905550600101611cfa565b5090565b6000604051905090565b600080fd5b600080fd5b600073ffffffffffffffffffffffffffffffffffffffff82169050919050565b6000611d5582611d2a565b9050919050565b611d6581611d4a565b8114611d7057600080fd5b50565b600081359050611d8281611d5c565b92915050565b600060208284031215611d9e57611d9d611d20565b5b6000611dac84828501611d73565b91505092915050565b6000819050919050565b611dc881611db5565b82525050565b6000602082019050611de36000830184611dbf565b92915050565b6000819050919050565b611dfc81611de9565b82525050565b6000602082019050611e176000830184611df3565b92915050565b611e2681611db5565b8114611e3157600080fd5b50565b600081359050611e4381611e1d565b92915050565b60008115159050919050565b611e5e81611e49565b8114611e6957600080fd5b50565b600081359050611e7b81611e55565b92915050565b60008060008060808587031215611e9b57611e9a611d20565b5b6000611ea987828801611d73565b9450506020611eba87828801611e34565b9350506040611ecb87828801611d73565b9250506060611edc87828801611e6c565b91505092959194509250565b600081519050919050565b600082825260208201905092915050565b60005b83811015611f22578082015181840152602081019050611f07565b83811115611f31576000848401525b50505050565b6000601f19601f8301169050919050565b6000611f5382611ee8565b611f5d8185611ef3565b9350611f6d818560208601611f04565b611f7681611f37565b840191505092915050565b60006020820190508181036000830152611f9b8184611f48565b905092915050565b611fac81611d4a565b82525050565b6000602082019050611fc76000830184611fa3565b92915050565b60008060408385031215611fe457611fe3611d20565b5b6000611ff285828601611d73565b925050602061200385828601611e34565b9150509250929050565b600081519050919050565b600082825260208201905092915050565b6000819050602082019050919050565b61204281611d4a565b82525050565b60006120548383612039565b60208301905092915050565b6000602082019050919050565b60006120788261200d565b6120828185612018565b935061208d83612029565b8060005b838110156120be5781516120a58882612048565b97506120b083612060565b925050600181019050612091565b5085935050505092915050565b600060208201905081810360008301526120e5818461206d565b905092915050565b600080fd5b7f4e487b7100000000000000000000000000000000000000000000000000000000600052604160045260246000fd5b61212a82611f37565b810181811067ffffffffffffffff82111715612149576121486120f2565b5b80604052505050565b600061215c611d16565b90506121688282612121565b919050565b600067ffffffffffffffff821115612188576121876120f2565b5b602082029050602081019050919050565b600080fd5b60006121b16121ac8461216d565b612152565b905080838252602082019050602084028301858111156121d4576121d3612199565b5b835b818110156121fd57806121e98882611d73565b8452602084019350506020810190506121d6565b5050509392505050565b600082601f83011261221c5761221b6120ed565b5b813561222c84826020860161219e565b91505092915050565b600080fd5b600067ffffffffffffffff821115612255576122546120f2565b5b61225e82611f37565b9050602081019050919050565b82818337600083830152505050565b600061228d6122888461223a565b612152565b9050828152602081018484840111156122a9576122a8612235565b5b6122b484828561226b565b509392505050565b600082601f8301126122d1576122d06120ed565b5b81356122e184826020860161227a565b91505092915050565b6000806000806080858703121561230457612303611d20565b5b600085013567ffffffffffffffff81111561232257612321611d25565b5b61232e87828801612207565b945050602085013567ffffffffffffffff81111561234f5761234e611d25565b5b61235b878288016122bc565b935050604085013567ffffffffffffffff81111561237c5761237b611d25565b5b612388878288016122bc565b925050606061239987828801611d73565b91505092959194509250565b600081519050919050565b600082825260208201905092915050565b60006123cc826123a5565b6123d681856123b0565b93506123e6818560208601611f04565b6123ef81611f37565b840191505092915050565b6000602082019050818103600083015261241481846123c1565b905092915050565b60008151905061242b81611d5c565b92915050565b60008060006060848603121561244a57612449611d20565b5b60006124588682870161241c565b93505060206124698682870161241c565b925050604061247a8682870161241c565b9150509250925092565b60008151905061249381611e1d565b92915050565b6000602082840312156124af576124ae611d20565b5b60006124bd84828501612484565b91505092915050565b600081905092915050565b60006124dc826123a5565b6124e681856124c6565b93506124f6818560208601611f04565b80840191505092915050565b600061250e82846124d1565b915081905092915050565b7f796f7520617265206e6f7420746865206f776e65720000000000000000000000600082015250565b600061254f601583611ef3565b915061255a82612519565b602082019050919050565b6000602082019050818103600083015261257e81612542565b9050919050565b7f616d6f756e74206d757374206578636565642030000000000000000000000000600082015250565b60006125bb601483611ef3565b91506125c682612585565b602082019050919050565b600060208201905081810360008301526125ea816125ae565b9050919050565b7f4e487b7100000000000000000000000000000000000000000000000000000000600052601160045260246000fd5b600061262b82611db5565b915061263683611db5565b925082821015612649576126486125f1565b5b828203905092915050565b60006060820190506126696000830186611fa3565b6126766020830185611dbf565b6126836040830184611fa3565b949350505050565b60006040820190506126a06000830185611fa3565b6126ad6020830184611dbf565b9392505050565b6000815190506126c381611e55565b92915050565b6000602082840312156126df576126de611d20565b5b60006126ed848285016126b4565b91505092915050565b600060608201905061270b6000830186611fa3565b6127186020830185611fa3565b6127256040830184611dbf565b949350505050565b7f4e487b7100000000000000000000000000000000000000000000000000000000600052602260045260246000fd5b6000600282049050600182168061277457607f821691505b602082108114156127885761278761272d565b5b50919050565b600061279982611db5565b91506127a483611db5565b9250827fffffffffffffffffffffffffffffffffffffffffffffffffffffffffffffffff038211156127d9576127d86125f1565b5b828201905092915050565b7f4e487b7100000000000000000000000000000000000000000000000000000000600052603260045260246000fd5b600060ff82169050919050565b600061282b82612813565b915060ff82141561283f5761283e6125f1565b5b600182019050919050565b7f7375626d697474656420746f6b656e2061646472657373206973206e6f74206160008201527f6363657074656420627920706f6f6c0000000000000000000000000000000000602082015250565b60006128a6602f83611ef3565b91506128b18261284a565b604082019050919050565b600060208201905081810360008301526128d581612899565b9050919050565b7f737472696e67206f76657220636861726163746572206c696d69740000000000600082015250565b6000612912601b83611ef3565b915061291d826128dc565b602082019050919050565b6000602082019050818103600083015261294181612905565b9050919050565b7f496e697469616c697a61626c653a20636f6e747261637420697320616c72656160008201527f647920696e697469616c697a6564000000000000000000000000000000000000602082015250565b60006129a4602e83611ef3565b91506129af82612948565b604082019050919050565b600060208201905081810360008301526129d381612997565b9050919050565b7f43616e6e6f7420696e697469616c697a65206261736500000000000000000000600082015250565b6000612a10601683611ef3565b9150612a1b826129da565b602082019050919050565b60006020820190508181036000830152612a3f81612a03565b9050919050565b7f496e697469616c697a6520616c72656164792063616c6c656400000000000000600082015250565b6000612a7c601983611ef3565b9150612a8782612a46565b602082019050919050565b60006020820190508181036000830152612aab81612a6f565b9050919050565b600060208284031215612ac857612ac7611d20565b5b6000612ad68482850161241c565b91505092915050565b600064ffffffffff82169050919050565b612af981612adf565b8114612b0457600080fd5b50565b600081519050612b1681612af0565b92915050565b6000806000806000806000806000806101408b8d031215612b4057612b3f611d20565b5b6000612b4e8d828e01612484565b9a50506020612b5f8d828e01612484565b9950506040612b708d828e01612484565b9850506060612b818d828e01612484565b9750506080612b928d828e01612484565b96505060a0612ba38d828e01612484565b95505060c0612bb48d828e01612484565b94505060e0612bc58d828e01612484565b935050610100612bd78d828e01612484565b925050610120612be98d828e01612b07565b9150509295989b9194979a509295985056fea2646970667358221220ad1a4e395d57354a61e01015c3601ae026f9cafb89bb5161867fe0e53edd10c464736f6c63430008090033",
  "immutableReferences": {},
  "source": "// SPDX-License-Identifier: MIT\npragma solidity 0.8.9;\n\nimport { IERC20, ILendingPool, ILendingPoolAddressesProvider, IProtocolDataProvider, IWETHGateway} from './Interfaces.sol';\nimport { SafeERC20 } from './Libraries.sol';\nimport \"@openzeppelin/contracts/proxy/utils/Initializable.sol\";\n/**\n * This is a proof of concept starter contract, showing how uncollaterised loans are possible\n * using Aave v2 credit delegation.\n * This example supports stable interest rate borrows.\n * It is not production ready (!). User permissions and user accounting of loans should be implemented.\n * See @dev comments\n */\n\ncontract JustCausePool is Initializable {\n    //mapping(address => mapping(address => uint256)) private depositors;\n    mapping(address => uint256) private totalDeposits;\n    mapping(address => uint256) private interestWithdrawn;\n    uint256 private claimIndex;\n    bool private isBase;\n\n    ILendingPoolAddressesProvider provider;\n    address lendingPoolAddr;\n    address dataProviderAddr;\n    address wethGatewayAddr;\n\n    /*ILendingPoolAddressesProvider provider;\n    ILendingPool lendingPool;\n    IProtocolDataProvider constant dataProvider = IProtocolDataProvider(address(0x3c73A5E5785cAC854D468F727c606C07488a29D6));*/ // Kovan\n    //IWETHGateway constant wethGateway = IWETHGateway(address(0xA61ca04DF33B72b235a8A28CfB535bb7A5271B70)); //Kovan\n\n    address[] acceptedTokens;\n\n    event Deposit(address tokenAddress, address depositor, uint256 amount);\n    event Withdraw(address tokenAddress, address caller, uint256 amount);\n    event WithdrawDonations(address tokenAddress, uint256 amount);\n\n    address receiver;\n    address master;\n    string name;\n    string about;\n\n    modifier onlyAllowedTokens(address _tokenAddr){\n        bool isAccepted;\n        for (uint8 i = 0; i < acceptedTokens.length; i++){\n            if(_tokenAddr == acceptedTokens[i]){\n                isAccepted = true;\n                break;\n            }\n        }\n        require(isAccepted, \"submitted token address is not accepted by pool\");\n        _;\n    }\n\n    modifier enoughFunds(address _userAddr, address _tokenAddr, uint256 _amount) {\n        require(_amount > 0, \"amount must exceed 0\");\n        //require(depositors[_userAddr][_tokenAddr]  >= _amount, \"no funds deposited for selected token\");\n        _;\n    }\n\n    modifier onlyReceiver(address _sender){\n        require(receiver == _sender, \"you are not the current reciever for this pool\");\n        _;\n    }\n\n    modifier onlyMaster(address _sender){\n        require(master == _sender, \"you are not the owner\");\n        _;\n    }\n\n    modifier strLength(string memory _str, uint8 _limit ){\n        bytes memory strBytes = bytes(_str);\n        require(strBytes.length < _limit, \"string over character limit\");\n        _;\n    }\n\n    constructor () {\n        isBase = true;\n    }\n\n    function initialize(\n        address[] memory _acceptedTokens,\n        string memory _name,\n        string memory _about,\n        address _receiver)\n\n    strLength(_name, 30) strLength(_about, 200) initializer() external {\n\n        require(isBase == false, \"Cannot initialize base\");\n        require(receiver == address(0), \"Initialize already called\");\n\n        receiver = _receiver;\n        master = msg.sender;\n        name = _name;\n        about = _about;\n\n        provider = ILendingPoolAddressesProvider(address(0x88757f2f99175387aB4C6a4b3067c77A695b0349));\n        lendingPoolAddr = provider.getLendingPool();\n        dataProviderAddr = address(0x3c73A5E5785cAC854D468F727c606C07488a29D6);//Kovan\n        wethGatewayAddr = address(0xA61ca04DF33B72b235a8A28CfB535bb7A5271B70);//Kovan\n        acceptedTokens = _acceptedTokens;\n\n        /*provider = ILendingPoolAddressesProvider(address(0x88757f2f99175387aB4C6a4b3067c77A695b0349));\n        address lendingPoolAddr = provider.getLendingPool();\n        lendingPool = ILendingPool(lendingPoolAddr); // Kovan*/\n    }\n\n    function deposit(address _assetAddress, uint256 _amount/*, address _depositor*/) onlyMaster(msg.sender) onlyAllowedTokens(_assetAddress) external {\n        //IERC20 token = IERC20(_assetAddress);\n        //require(token.allowance(_depositor, address(this)) >= _amount, \"sender not approved\");\n        //token.transferFrom(_depositor, address(this), _amount);\n        //address poolAddr = address(lendingPool);\n        //token.approve(lendingPoolAddr, _amount);\n        //ILendingPool(lendingPoolAddr).deposit(address(token), _amount, address(this), 0);\n        totalDeposits[_assetAddress] += _amount;\n        //emit Deposit(_assetAddress, _depositor, _amount);\n    }\n\n    function depositETH(address _wethAddress , /*address _depositor,*/ uint256 _value) onlyMaster(msg.sender) external {\n        //IWETHGateway(wethGatewayAddr).depositETH{value: msg.value}(lendingPoolAddr, address(this), 0);\n        totalDeposits[_wethAddress] += _value;\n    }\n\n    /*function tallyDeposit(uint256 _amount, address _assetAddress, address _depositor) internal {\n        uint256 depositedAmount = depositors[_depositor][_assetAddress];\n        //uint256 liquidityIndex = getAaveLiquidityIndex(_assetAddress);\n        //if(depositedAmount == 0){\n            //poolTracker.addDeposit(_depositor, _amount, liquidityIndex, block.timestamp, _assetAddress);\n        //}\n        depositedAmount += _amount;\n        totalDeposits[_assetAddress] += _amount;\n        depositors[_depositor][_assetAddress] = depositedAmount;\n    }*/\n\n    function withdraw(address _assetAddress, uint256 _amount, address _depositor, bool isETH) onlyMaster(msg.sender) enoughFunds(_depositor, _assetAddress, _amount) external {\n        totalDeposits[_assetAddress] -= _amount;\n        if(!isETH){\n            ILendingPool(lendingPoolAddr).withdraw(_assetAddress, _amount, _depositor);\n        }\n        else{\n            address aTokenAddress = getATokenAddress(_assetAddress);\n            IERC20(aTokenAddress).approve(wethGatewayAddr, _amount);\n            IWETHGateway(wethGatewayAddr).withdrawETH(lendingPoolAddr, _amount, _depositor);\n        }\n        emit Withdraw(_assetAddress, _depositor, _amount);\n    }\n\n    function withdrawDonations(address _assetAddress) onlyMaster(msg.sender) onlyAllowedTokens(_assetAddress) external returns(uint256){\n        (address aTokenAddress,,) = IProtocolDataProvider(dataProviderAddr).getReserveTokensAddresses(_assetAddress);\n        uint256 aTokenBalance = IERC20(aTokenAddress).balanceOf(address(this));\n        uint256 interestEarned = aTokenBalance - totalDeposits[_assetAddress];\n        ILendingPool(lendingPoolAddr).withdraw(_assetAddress, interestEarned, receiver);\n        claimIndex = getAaveLiquidityIndex(_assetAddress);\n        interestWithdrawn[_assetAddress] += interestEarned;\n        return interestEarned;\n    }\n\n    /*function getUserBalance(address _userAddr, address _token) external view returns(uint256){\n        return depositors[_userAddr][_token];\n    }*/\n\n    function getTotalDeposits(address _token) external view returns(uint256){\n        return totalDeposits[_token];\n    }\n\n    function getAcceptedTokens() external view returns(address[] memory){\n        return acceptedTokens;\n    }\n\n    function getName() external view returns(string memory){\n        return name;\n    }\n\n    function getAbout() external view returns(string memory){\n        return about;\n    }\n\n    function getATokenAddress(address _assetAddress) public view returns(address){\n        (address aTokenAddress,,) = IProtocolDataProvider(dataProviderAddr).getReserveTokensAddresses(_assetAddress);\n        return aTokenAddress;\n    }\n\n    function getUnclaimedInterest(address _assetAddress) external view returns (uint256){\n        (address aTokenAddress,,) = IProtocolDataProvider(dataProviderAddr).getReserveTokensAddresses(_assetAddress);\n            uint256 aTokenBalance = IERC20(aTokenAddress).balanceOf(address(this));\n            return aTokenBalance - totalDeposits[_assetAddress];\n    }\n\n    function getClaimedInterest(address _assetAddress) external view returns (uint256){\n        return interestWithdrawn[_assetAddress];\n    }\n\n    function getATokenBalance(address _assetAddress) external view returns (uint256){\n        (address aTokenAddress,,) = IProtocolDataProvider(dataProviderAddr).getReserveTokensAddresses(_assetAddress);\n        return IERC20(aTokenAddress).balanceOf(address(this));\n    }\n\n    function getRecipient() external view returns(address){\n        return receiver;\n    }\n\n    function getByteCode() external view returns(bytes memory) {\n        return address(this).code;\n    }\n\n    function getHashByteCode() public view returns(bytes32) {\n        return keccak256(abi.encodePacked(address(this).code));\n    }\n\n    function getReserveNormalizedIncome(address _asset) public view returns(uint256){\n        return ILendingPool(lendingPoolAddr).getReserveNormalizedIncome(_asset);\n    }\n\n    function getAaveLiquidityIndex(address _asset) public view returns(uint256 liquidityIndex){\n        (,,,,,,,liquidityIndex,,) = IProtocolDataProvider(dataProviderAddr).getReserveData(_asset);\n    }\n}",
  "sourcePath": "/home/smeee/just_cause/contracts/JustCausePool.sol",
  "compiler": {
    "name": "solc",
    "version": "0.8.9+commit.e5eed63a.Emscripten.clang"
  },
  "schemaVersion": "3.4.5",
  "updatedAt": "2022-03-21T03:37:38.219Z",
  "devdoc": {
    "details": "comments",
    "kind": "dev",
    "methods": {},
    "version": 1
  },
  "userdoc": {
    "kind": "user",
    "methods": {},
    "notice": "This is a proof of concept starter contract, showing how uncollaterised loans are possible using Aave v2 credit delegation. This example supports stable interest rate borrows. It is not production ready (!). User permissions and user accounting of loans should be implemented.",
    "version": 1
  }
}