{
  "contractName": "JustCausePool",
  "abi": [
    {
      "inputs": [
        {
          "internalType": "address[]",
          "name": "_acceptedTokens",
          "type": "address[]"
        },
        {
          "internalType": "string",
          "name": "_name",
          "type": "string"
        },
        {
          "internalType": "address",
          "name": "_poolTrackerAddr",
          "type": "address"
        }
      ],
      "stateMutability": "nonpayable",
      "type": "constructor"
    },
    {
      "anonymous": false,
      "inputs": [
        {
          "indexed": false,
          "internalType": "address",
          "name": "FROM",
          "type": "address"
        },
        {
          "indexed": false,
          "internalType": "uint256",
          "name": "AMOUNT",
          "type": "uint256"
        },
        {
          "indexed": false,
          "internalType": "uint256",
          "name": "BALANCE",
          "type": "uint256"
        }
      ],
      "name": "BalanceOf",
      "type": "event"
    },
    {
      "anonymous": false,
      "inputs": [
        {
          "indexed": false,
          "internalType": "address",
          "name": "tokenAddress",
          "type": "address"
        },
        {
          "indexed": false,
          "internalType": "address",
          "name": "depositor",
          "type": "address"
        },
        {
          "indexed": false,
          "internalType": "uint256",
          "name": "amount",
          "type": "uint256"
        },
        {
          "indexed": false,
          "internalType": "uint256",
          "name": "totalDeposits",
          "type": "uint256"
        }
      ],
      "name": "Deposit",
      "type": "event"
    },
    {
      "anonymous": false,
      "inputs": [
        {
          "indexed": false,
          "internalType": "address",
          "name": "addr",
          "type": "address"
        }
      ],
      "name": "GetLPAddress",
      "type": "event"
    },
    {
      "anonymous": false,
      "inputs": [
        {
          "indexed": false,
          "internalType": "address",
          "name": "test",
          "type": "address"
        }
      ],
      "name": "GetPoolTracker",
      "type": "event"
    },
    {
      "anonymous": false,
      "inputs": [
        {
          "indexed": false,
          "internalType": "uint256",
          "name": "allowance",
          "type": "uint256"
        }
      ],
      "name": "SeeAllowance",
      "type": "event"
    },
    {
      "anonymous": false,
      "inputs": [
        {
          "indexed": false,
          "internalType": "address",
          "name": "tokenAddress",
          "type": "address"
        },
        {
          "indexed": false,
          "internalType": "address",
          "name": "depositor",
          "type": "address"
        },
        {
          "indexed": false,
          "internalType": "uint256",
          "name": "amount",
          "type": "uint256"
        },
        {
          "indexed": false,
          "internalType": "uint256",
          "name": "totalDeposits",
          "type": "uint256"
        }
      ],
      "name": "Withdraw",
      "type": "event"
    },
    {
      "anonymous": false,
      "inputs": [
        {
          "indexed": false,
          "internalType": "address",
          "name": "tokenAddress",
          "type": "address"
        },
        {
          "indexed": false,
          "internalType": "address",
          "name": "depositor",
          "type": "address"
        },
        {
          "indexed": false,
          "internalType": "uint256",
          "name": "amount",
          "type": "uint256"
        },
        {
          "indexed": false,
          "internalType": "uint256",
          "name": "totalDeposits",
          "type": "uint256"
        },
        {
          "indexed": false,
          "internalType": "uint256",
          "name": "assetBalance",
          "type": "uint256"
        },
        {
          "indexed": false,
          "internalType": "address",
          "name": "aTokenAddress",
          "type": "address"
        }
      ],
      "name": "WithdrawDonations",
      "type": "event"
    },
    {
      "inputs": [
        {
          "internalType": "address",
          "name": "",
          "type": "address"
        }
      ],
      "name": "totalDeposits",
      "outputs": [
        {
          "internalType": "uint256",
          "name": "",
          "type": "uint256"
        }
      ],
      "stateMutability": "view",
      "type": "function"
    },
    {
      "inputs": [
        {
          "internalType": "address",
          "name": "_assetAddress",
          "type": "address"
        },
        {
          "internalType": "uint256",
          "name": "_amount",
          "type": "uint256"
        }
      ],
      "name": "deposit",
      "outputs": [],
      "stateMutability": "nonpayable",
      "type": "function"
    },
    {
      "inputs": [
        {
          "internalType": "address",
          "name": "_assetAddress",
          "type": "address"
        },
        {
          "internalType": "uint256",
          "name": "_amount",
          "type": "uint256"
        }
      ],
      "name": "withdraw",
      "outputs": [],
      "stateMutability": "nonpayable",
      "type": "function"
    },
    {
      "inputs": [
        {
          "internalType": "address",
          "name": "_userAddr",
          "type": "address"
        },
        {
          "internalType": "address",
          "name": "_token",
          "type": "address"
        }
      ],
      "name": "getUserBalance",
      "outputs": [
        {
          "internalType": "uint256",
          "name": "",
          "type": "uint256"
        }
      ],
      "stateMutability": "view",
      "type": "function"
    },
    {
      "inputs": [
        {
          "internalType": "address",
          "name": "_token",
          "type": "address"
        }
      ],
      "name": "getTotalDeposits",
      "outputs": [
        {
          "internalType": "uint256",
          "name": "",
          "type": "uint256"
        }
      ],
      "stateMutability": "view",
      "type": "function"
    },
    {
      "inputs": [],
      "name": "getAcceptedTokens",
      "outputs": [
        {
          "internalType": "address[]",
          "name": "",
          "type": "address[]"
        }
      ],
      "stateMutability": "view",
      "type": "function"
    }
  ],
  "bytecode": "0x60806040523480156200001157600080fd5b5060405162001cd738038062001cd783398181016040528101906200003791906200088e565b33600760006101000a81548173ffffffffffffffffffffffffffffffffffffffff021916908373ffffffffffffffffffffffffffffffffffffffff16021790555033600860006101000a81548173ffffffffffffffffffffffffffffffffffffffff021916908373ffffffffffffffffffffffffffffffffffffffff1602179055508160099080519060200190620000d192919062000472565b507388757f2f99175387ab4c6a4b3067c77a695b0349600360006101000a81548173ffffffffffffffffffffffffffffffffffffffff021916908373ffffffffffffffffffffffffffffffffffffffff160217905550600360009054906101000a900473ffffffffffffffffffffffffffffffffffffffff1673ffffffffffffffffffffffffffffffffffffffff16630261bf8b6040518163ffffffff1660e01b815260040160206040518083038186803b1580156200019057600080fd5b505afa158015620001a5573d6000803e3d6000fd5b505050506040513d601f19601f82011682018060405250810190620001cb919062000928565b600560006101000a81548173ffffffffffffffffffffffffffffffffffffffff021916908373ffffffffffffffffffffffffffffffffffffffff160217905550600560009054906101000a900473ffffffffffffffffffffffffffffffffffffffff16600460006101000a81548173ffffffffffffffffffffffffffffffffffffffff021916908373ffffffffffffffffffffffffffffffffffffffff16021790555082600690805190602001906200028692919062000503565b5080600260006101000a81548173ffffffffffffffffffffffffffffffffffffffff021916908373ffffffffffffffffffffffffffffffffffffffff1602179055507f36ac3f21e23b63ede25b34d24a735e877430bc3884df25935f44448497e1e922600260009054906101000a900473ffffffffffffffffffffffffffffffffffffffff1673ffffffffffffffffffffffffffffffffffffffff16638e61514e60096040518263ffffffff1660e01b815260040162000347919062000a71565b60206040518083038186803b1580156200036057600080fd5b505afa15801562000375573d6000803e3d6000fd5b505050506040513d601f19601f820116820180604052508101906200039b919062000928565b604051620003aa919062000aa6565b60405180910390a1600260009054906101000a900473ffffffffffffffffffffffffffffffffffffffff1673ffffffffffffffffffffffffffffffffffffffff166345cdf64230600760009054906101000a900473ffffffffffffffffffffffffffffffffffffffff16856040518463ffffffff1660e01b8152600401620004359392919062000b0f565b600060405180830381600087803b1580156200045057600080fd5b505af115801562000465573d6000803e3d6000fd5b5050505050505062000b53565b828054620004809062000989565b90600052602060002090601f016020900481019282620004a45760008555620004f0565b82601f10620004bf57805160ff1916838001178555620004f0565b82800160010185558215620004f0579182015b82811115620004ef578251825591602001919060010190620004d2565b5b509050620004ff919062000592565b5090565b8280548282559060005260206000209081019282156200057f579160200282015b828111156200057e5782518260006101000a81548173ffffffffffffffffffffffffffffffffffffffff021916908373ffffffffffffffffffffffffffffffffffffffff1602179055509160200191906001019062000524565b5b5090506200058e919062000592565b5090565b5b80821115620005ad57600081600090555060010162000593565b5090565b6000604051905090565b600080fd5b600080fd5b600080fd5b6000601f19601f8301169050919050565b7f4e487b7100000000000000000000000000000000000000000000000000000000600052604160045260246000fd5b6200061582620005ca565b810181811067ffffffffffffffff82111715620006375762000636620005db565b5b80604052505050565b60006200064c620005b1565b90506200065a82826200060a565b919050565b600067ffffffffffffffff8211156200067d576200067c620005db565b5b602082029050602081019050919050565b600080fd5b600073ffffffffffffffffffffffffffffffffffffffff82169050919050565b6000620006c08262000693565b9050919050565b620006d281620006b3565b8114620006de57600080fd5b50565b600081519050620006f281620006c7565b92915050565b60006200070f62000709846200065f565b62000640565b905080838252602082019050602084028301858111156200073557620007346200068e565b5b835b818110156200076257806200074d8882620006e1565b84526020840193505060208101905062000737565b5050509392505050565b600082601f830112620007845762000783620005c5565b5b815162000796848260208601620006f8565b91505092915050565b600080fd5b600067ffffffffffffffff821115620007c257620007c1620005db565b5b620007cd82620005ca565b9050602081019050919050565b60005b83811015620007fa578082015181840152602081019050620007dd565b838111156200080a576000848401525b50505050565b6000620008276200082184620007a4565b62000640565b9050828152602081018484840111156200084657620008456200079f565b5b62000853848285620007da565b509392505050565b600082601f830112620008735762000872620005c5565b5b81516200088584826020860162000810565b91505092915050565b600080600060608486031215620008aa57620008a9620005bb565b5b600084015167ffffffffffffffff811115620008cb57620008ca620005c0565b5b620008d9868287016200076c565b935050602084015167ffffffffffffffff811115620008fd57620008fc620005c0565b5b6200090b868287016200085b565b92505060406200091e86828701620006e1565b9150509250925092565b600060208284031215620009415762000940620005bb565b5b60006200095184828501620006e1565b91505092915050565b7f4e487b7100000000000000000000000000000000000000000000000000000000600052602260045260246000fd5b60006002820490506001821680620009a257607f821691505b60208210811415620009b957620009b86200095a565b5b50919050565b600082825260208201905092915050565b60008190508160005260206000209050919050565b60008154620009f48162000989565b62000a008186620009bf565b9450600182166000811462000a1e576001811462000a315762000a68565b60ff198316865260208601935062000a68565b62000a3c85620009d0565b60005b8381101562000a605781548189015260018201915060208101905062000a3f565b808801955050505b50505092915050565b6000602082019050818103600083015262000a8d8184620009e5565b905092915050565b62000aa081620006b3565b82525050565b600060208201905062000abd600083018462000a95565b92915050565b600081519050919050565b600062000adb8262000ac3565b62000ae78185620009bf565b935062000af9818560208601620007da565b62000b0481620005ca565b840191505092915050565b600060608201905062000b26600083018662000a95565b62000b35602083018562000a95565b818103604083015262000b49818462000ace565b9050949350505050565b6111748062000b636000396000f3fe608060405234801561001057600080fd5b50600436106100625760003560e01c80630251cfa1146100675780632f7570061461009757806347e7ef24146100b55780636805d6ad146100d1578063e940325614610101578063f3fef3a314610131575b600080fd5b610081600480360381019061007c9190610b36565b61014d565b60405161008e9190610b7c565b60405180910390f35b61009f610196565b6040516100ac9190610c55565b60405180910390f35b6100cf60048036038101906100ca9190610ca3565b610224565b005b6100eb60048036038101906100e69190610ce3565b6106c8565b6040516100f89190610b7c565b60405180910390f35b61011b60048036038101906101169190610b36565b61074e565b6040516101289190610b7c565b60405180910390f35b61014b60048036038101906101469190610ca3565b610766565b005b6000600160008373ffffffffffffffffffffffffffffffffffffffff1673ffffffffffffffffffffffffffffffffffffffff168152602001908152602001600020549050919050565b6060600680548060200260200160405190810160405280929190818152602001828054801561021a57602002820191906000526020600020905b8160009054906101000a900473ffffffffffffffffffffffffffffffffffffffff1673ffffffffffffffffffffffffffffffffffffffff16815260200190600101908083116101d0575b5050505050905090565b6000829050818173ffffffffffffffffffffffffffffffffffffffff1663dd62ed3e33306040518363ffffffff1660e01b8152600401610265929190610d32565b60206040518083038186803b15801561027d57600080fd5b505afa158015610291573d6000803e3d6000fd5b505050506040513d601f19601f820116820180604052508101906102b59190610d70565b10156102f6576040517f08c379a00000000000000000000000000000000000000000000000000000000081526004016102ed90610dfa565b60405180910390fd5b8073ffffffffffffffffffffffffffffffffffffffff166323b872dd3330856040518463ffffffff1660e01b815260040161033393929190610e1a565b602060405180830381600087803b15801561034d57600080fd5b505af1158015610361573d6000803e3d6000fd5b505050506040513d601f19601f820116820180604052508101906103859190610e89565b506000600460009054906101000a900473ffffffffffffffffffffffffffffffffffffffff1690508173ffffffffffffffffffffffffffffffffffffffff1663095ea7b382856040518363ffffffff1660e01b81526004016103e8929190610eb6565b602060405180830381600087803b15801561040257600080fd5b505af1158015610416573d6000803e3d6000fd5b505050506040513d601f19601f8201168201806040525081019061043a9190610e89565b50600460009054906101000a900473ffffffffffffffffffffffffffffffffffffffff1673ffffffffffffffffffffffffffffffffffffffff1663e8eda9df83853060006040518563ffffffff1660e01b815260040161049d9493929190610f32565b600060405180830381600087803b1580156104b757600080fd5b505af11580156104cb573d6000803e3d6000fd5b50505050826000803373ffffffffffffffffffffffffffffffffffffffff1673ffffffffffffffffffffffffffffffffffffffff16815260200190815260200160002060008673ffffffffffffffffffffffffffffffffffffffff1673ffffffffffffffffffffffffffffffffffffffff168152602001908152602001600020600082825461055a9190610fa6565b92505081905550600260009054906101000a900473ffffffffffffffffffffffffffffffffffffffff1673ffffffffffffffffffffffffffffffffffffffff16632f1c563e33306040518363ffffffff1660e01b81526004016105be929190610d32565b600060405180830381600087803b1580156105d857600080fd5b505af11580156105ec573d6000803e3d6000fd5b5050505082600160008673ffffffffffffffffffffffffffffffffffffffff1673ffffffffffffffffffffffffffffffffffffffff168152602001908152602001600020600082825461063f9190610fa6565b925050819055507fdcbc1c05240f31ff3ad067ef1ee35ce4997762752e3a095284754544f4c709d7823385600160008973ffffffffffffffffffffffffffffffffffffffff1673ffffffffffffffffffffffffffffffffffffffff168152602001908152602001600020546040516106ba9493929190610ffc565b60405180910390a150505050565b60008060008473ffffffffffffffffffffffffffffffffffffffff1673ffffffffffffffffffffffffffffffffffffffff16815260200190815260200160002060008373ffffffffffffffffffffffffffffffffffffffff1673ffffffffffffffffffffffffffffffffffffffff16815260200190815260200160002054905092915050565b60016020528060005260406000206000915090505481565b338282806000808573ffffffffffffffffffffffffffffffffffffffff1673ffffffffffffffffffffffffffffffffffffffff16815260200190815260200160002060008473ffffffffffffffffffffffffffffffffffffffff1673ffffffffffffffffffffffffffffffffffffffff168152602001908152602001600020541015610827576040517f08c379a000000000000000000000000000000000000000000000000000000000815260040161081e906110b3565b60405180910390fd5b600460009054906101000a900473ffffffffffffffffffffffffffffffffffffffff1673ffffffffffffffffffffffffffffffffffffffff166369328dec8686336040518463ffffffff1660e01b8152600401610886939291906110d3565b602060405180830381600087803b1580156108a057600080fd5b505af11580156108b4573d6000803e3d6000fd5b505050506040513d601f19601f820116820180604052508101906108d89190610d70565b50600260009054906101000a900473ffffffffffffffffffffffffffffffffffffffff1673ffffffffffffffffffffffffffffffffffffffff16633be273d633306040518363ffffffff1660e01b8152600401610936929190610d32565b600060405180830381600087803b15801561095057600080fd5b505af1158015610964573d6000803e3d6000fd5b50505050836000803373ffffffffffffffffffffffffffffffffffffffff1673ffffffffffffffffffffffffffffffffffffffff16815260200190815260200160002060008773ffffffffffffffffffffffffffffffffffffffff1673ffffffffffffffffffffffffffffffffffffffff16815260200190815260200160002060008282546109f3919061110a565b9250508190555083600160008773ffffffffffffffffffffffffffffffffffffffff1673ffffffffffffffffffffffffffffffffffffffff1681526020019081526020016000206000828254610a49919061110a565b925050819055507ff341246adaac6f497bc2a656f546ab9e182111d630394f0c57c710a59a2cb567853386600160008a73ffffffffffffffffffffffffffffffffffffffff1673ffffffffffffffffffffffffffffffffffffffff16815260200190815260200160002054604051610ac49493929190610ffc565b60405180910390a15050505050565b600080fd5b600073ffffffffffffffffffffffffffffffffffffffff82169050919050565b6000610b0382610ad8565b9050919050565b610b1381610af8565b8114610b1e57600080fd5b50565b600081359050610b3081610b0a565b92915050565b600060208284031215610b4c57610b4b610ad3565b5b6000610b5a84828501610b21565b91505092915050565b6000819050919050565b610b7681610b63565b82525050565b6000602082019050610b916000830184610b6d565b92915050565b600081519050919050565b600082825260208201905092915050565b6000819050602082019050919050565b610bcc81610af8565b82525050565b6000610bde8383610bc3565b60208301905092915050565b6000602082019050919050565b6000610c0282610b97565b610c0c8185610ba2565b9350610c1783610bb3565b8060005b83811015610c48578151610c2f8882610bd2565b9750610c3a83610bea565b925050600181019050610c1b565b5085935050505092915050565b60006020820190508181036000830152610c6f8184610bf7565b905092915050565b610c8081610b63565b8114610c8b57600080fd5b50565b600081359050610c9d81610c77565b92915050565b60008060408385031215610cba57610cb9610ad3565b5b6000610cc885828601610b21565b9250506020610cd985828601610c8e565b9150509250929050565b60008060408385031215610cfa57610cf9610ad3565b5b6000610d0885828601610b21565b9250506020610d1985828601610b21565b9150509250929050565b610d2c81610af8565b82525050565b6000604082019050610d476000830185610d23565b610d546020830184610d23565b9392505050565b600081519050610d6a81610c77565b92915050565b600060208284031215610d8657610d85610ad3565b5b6000610d9484828501610d5b565b91505092915050565b600082825260208201905092915050565b7f73656e646572206e6f7420617070726f76656400000000000000000000000000600082015250565b6000610de4601383610d9d565b9150610def82610dae565b602082019050919050565b60006020820190508181036000830152610e1381610dd7565b9050919050565b6000606082019050610e2f6000830186610d23565b610e3c6020830185610d23565b610e496040830184610b6d565b949350505050565b60008115159050919050565b610e6681610e51565b8114610e7157600080fd5b50565b600081519050610e8381610e5d565b92915050565b600060208284031215610e9f57610e9e610ad3565b5b6000610ead84828501610e74565b91505092915050565b6000604082019050610ecb6000830185610d23565b610ed86020830184610b6d565b9392505050565b6000819050919050565b600061ffff82169050919050565b6000819050919050565b6000610f1c610f17610f1284610edf565b610ef7565b610ee9565b9050919050565b610f2c81610f01565b82525050565b6000608082019050610f476000830187610d23565b610f546020830186610b6d565b610f616040830185610d23565b610f6e6060830184610f23565b95945050505050565b7f4e487b7100000000000000000000000000000000000000000000000000000000600052601160045260246000fd5b6000610fb182610b63565b9150610fbc83610b63565b9250827fffffffffffffffffffffffffffffffffffffffffffffffffffffffffffffffff03821115610ff157610ff0610f77565b5b828201905092915050565b60006080820190506110116000830187610d23565b61101e6020830186610d23565b61102b6040830185610b6d565b6110386060830184610b6d565b95945050505050565b7f6e6f2066756e6473206465706f736974656420666f722073656c65637465642060008201527f746f6b656e000000000000000000000000000000000000000000000000000000602082015250565b600061109d602583610d9d565b91506110a882611041565b604082019050919050565b600060208201905081810360008301526110cc81611090565b9050919050565b60006060820190506110e86000830186610d23565b6110f56020830185610b6d565b6111026040830184610d23565b949350505050565b600061111582610b63565b915061112083610b63565b92508282101561113357611132610f77565b5b82820390509291505056fea264697066735822122087861c700b773d37a158cb9bd060385ff85201dad0a556ae136cde3392d28fcb64736f6c63430008090033",
  "immutableReferences": {},
  "source": "// SPDX-License-Identifier: agpl-3.0\npragma solidity 0.8.9;\n\nimport { IERC20, ILendingPool, ILendingPoolAddressesProvider, IPoolTracker} from './Interfaces.sol';\nimport { SafeERC20 } from './Libraries.sol';\n\n/**\n * This is a proof of concept starter contract, showing how uncollaterised loans are possible\n * using Aave v2 credit delegation.\n * This example supports stable interest rate borrows.\n * It is not production ready (!). User permissions and user accounting of loans should be implemented.\n * See @dev comments\n */\n\ncontract JustCausePool {\n    //using SafeERC20 for IERC20;\n    mapping(address => mapping(address => uint256)) private depositors;\n    mapping(address => uint256) public totalDeposits;\n    //mapping(address => mapping(address => uint256)) public deposits;\n    IPoolTracker poolTracker;\n    ILendingPoolAddressesProvider provider;\n    //address private kovanDAI;v\n    ILendingPool lendingPool;\n    //IERC20 daiToken;\n    //uint256 amount;\n    address lendingPoolAddr;\n    address[] acceptedTokens;\n\n    event Deposit(address tokenAddress, address depositor, uint256 amount, uint256 totalDeposits);\n    event Withdraw(address tokenAddress, address depositor, uint256 amount, uint256 totalDeposits);\n    event WithdrawDonations(address tokenAddress, address depositor, uint256 amount, uint256 totalDeposits, uint256 assetBalance, address aTokenAddress);\n    event BalanceOf(address FROM, uint256 AMOUNT, uint256 BALANCE);\n    event GetLPAddress(address addr);\n    event SeeAllowance(uint256 allowance);\n    event GetPoolTracker(address test);\n    address owner;\n    address reciever;\n    string name;\n\n    modifier onlyAllowedTokens(address _tokenAddr){\n        bool isAccepted;\n        for (uint8 i = 0; i < acceptedTokens.length; i++){\n            if(_tokenAddr == acceptedTokens[i]){\n                isAccepted = true;\n                break;\n            }\n        }\n        require(isAccepted, \"submitted token address is not accepted by pool\");\n        _;\n    }\n\n    modifier enoughFunds(address _userAddr, address _tokenAddr, uint256 _amount) {\n        require(depositors[_userAddr][_tokenAddr]  >= _amount, \"no funds deposited for selected token\");\n        _;\n    }\n\n    modifier onlyReciever(address _requestAddr){\n        require(reciever == _requestAddr, \"you are not the current reciever for this pool\");\n        _;\n    }\n\n    constructor (address[] memory _acceptedTokens, string memory _name, address _poolTrackerAddr) {\n        owner = msg.sender;\n        reciever = msg.sender;\n        name = _name;\n        provider = ILendingPoolAddressesProvider(address(0x88757f2f99175387aB4C6a4b3067c77A695b0349));\n        lendingPoolAddr = provider.getLendingPool();\n        lendingPool = ILendingPool(lendingPoolAddr); // Kovan\n        acceptedTokens = _acceptedTokens;\n\n        poolTracker = IPoolTracker(address(_poolTrackerAddr));\n        emit GetPoolTracker(poolTracker.getAddressFromName(name));\n        poolTracker.addVerifiedPools(address(this), owner, _name);\n    }\n\n    function deposit(address _assetAddress, uint256 _amount) public {\n        IERC20 token = IERC20(_assetAddress);\n        require(token.allowance(msg.sender, address(this)) >= _amount, \"sender not approved\");\n        token.transferFrom(msg.sender, address(this), _amount);\n        address poolAddr = address(lendingPool);\n        token.approve(poolAddr, _amount);\n        lendingPool.deposit(address(token), _amount, address(this), 0);\n        depositors[msg.sender][_assetAddress] += _amount;\n        poolTracker.addDeposit(msg.sender, address(this));\n        totalDeposits[_assetAddress] += _amount;\n        emit Deposit(address(token), msg.sender, _amount, totalDeposits[_assetAddress]);\n    }\n\n    function withdraw(address _assetAddress, uint256 _amount) enoughFunds(msg.sender, _assetAddress, _amount) public {\n        lendingPool.withdraw(_assetAddress, _amount, msg.sender);\n        poolTracker.withdrawDeposit(msg.sender, address(this));\n        depositors[msg.sender][_assetAddress] -= _amount;\n        totalDeposits[_assetAddress] -= _amount;\n        emit Withdraw(_assetAddress, msg.sender, _amount, totalDeposits[_assetAddress]);\n    }\n\n    function getUserBalance(address _userAddr, address _token) external view returns(uint256){\n        return depositors[_userAddr][_token];\n    }\n\n    function getTotalDeposits(address _token) external view returns(uint256){\n        return totalDeposits[_token];\n    }\n\n    function getAcceptedTokens() external view returns(address[] memory){\n        return acceptedTokens;\n    }\n    /**\n     * Repay an uncollaterised loan\n     * @param amount The amount to repay\n     * @param asset The asset to be repaid\n     *\n     * User calling this function must have approved this contract with an allowance to transfer the tokens\n     *\n     * You should keep internal accounting of borrowers, if your contract will have multiple borrowers\n     */\n    /*function repayBorrower(uint256 amount, address asset) public {\n        IERC20(asset).safeTransferFrom(msg.sender, address(this), amount);\n        IERC20(asset).safeApprove(address(lendingPool), amount);\n        lendingPool.repay(asset, amount, 1, address(this));\n    }*/\n\n    /**\n     * Withdraw all of a collateral as the underlying asset, if no outstanding loans delegated\n     *\n     *\n     * Add permissions to this call, e.g. only the owner should be able to withdraw the collateral!\n     */\n\n    /*function withdrawDonations() public{\n        //(address aTokenAddress,,) = dataProvider.getReserveTokensAddresses(address(daiToken));\n        //uint256 assetBalance = IERC20(aTokenAddress).balanceOf(address(this));\n        address testATokenAddress = address(0xdCf0aF9e59C002FA3AA091a46196b37530FD48a8);\n        uint256 assetBalance = IERC20(testATokenAddress).balanceOf(address(this));\n        uint256 interestEarned = assetBalance - totalDeposits;\n        lendingPool.withdraw(address(daiToken), interestEarned, owner);\n        emit WithdrawDonations(address(daiToken), owner, interestEarned, totalDeposits, assetBalance, testATokenAddress);\n    }*/\n}",
  "sourcePath": "/home/smeee/just_cause/contracts/JustCausePool.sol",
  "compiler": {
    "name": "solc",
    "version": "0.8.9+commit.e5eed63a.Emscripten.clang"
  },
  "schemaVersion": "3.4.3",
  "updatedAt": "2021-10-19T02:34:28.039Z",
  "devdoc": {
    "details": "comments",
    "kind": "dev",
    "methods": {},
    "version": 1
  },
  "userdoc": {
    "kind": "user",
    "methods": {},
    "notice": "This is a proof of concept starter contract, showing how uncollaterised loans are possible using Aave v2 credit delegation. This example supports stable interest rate borrows. It is not production ready (!). User permissions and user accounting of loans should be implemented.",
    "version": 1
  }
}