{
  "contractName": "JustCausePool",
  "abi": [
    {
      "inputs": [],
      "stateMutability": "nonpayable",
      "type": "constructor"
    },
    {
      "inputs": [
        {
          "internalType": "address[]",
          "name": "_acceptedTokens",
          "type": "address[]"
        },
        {
          "internalType": "string",
          "name": "_name",
          "type": "string"
        },
        {
          "internalType": "string",
          "name": "_about",
          "type": "string"
        },
        {
          "internalType": "string",
          "name": "_picHash",
          "type": "string"
        },
        {
          "internalType": "string",
          "name": "_metaUri",
          "type": "string"
        },
        {
          "internalType": "address",
          "name": "_receiver",
          "type": "address"
        },
        {
          "internalType": "address",
          "name": "_poolAddr",
          "type": "address"
        },
        {
          "internalType": "address",
          "name": "_wethGatewayAddr",
          "type": "address"
        },
        {
          "internalType": "address",
          "name": "_erc721Addr",
          "type": "address"
        },
        {
          "internalType": "bool",
          "name": "_isVerified",
          "type": "bool"
        }
      ],
      "name": "initialize",
      "outputs": [],
      "stateMutability": "nonpayable",
      "type": "function"
    },
    {
      "inputs": [
        {
          "internalType": "address",
          "name": "_assetAddress",
          "type": "address"
        },
        {
          "internalType": "uint256",
          "name": "_amount",
          "type": "uint256"
        }
      ],
      "name": "deposit",
      "outputs": [],
      "stateMutability": "nonpayable",
      "type": "function"
    },
    {
      "inputs": [
        {
          "internalType": "address",
          "name": "_assetAddress",
          "type": "address"
        },
        {
          "internalType": "uint256",
          "name": "_amount",
          "type": "uint256"
        },
        {
          "internalType": "address",
          "name": "_depositor",
          "type": "address"
        },
        {
          "internalType": "bool",
          "name": "_isETH",
          "type": "bool"
        }
      ],
      "name": "withdraw",
      "outputs": [],
      "stateMutability": "nonpayable",
      "type": "function"
    },
    {
      "inputs": [
        {
          "internalType": "address",
          "name": "_assetAddress",
          "type": "address"
        },
        {
          "internalType": "address",
          "name": "_feeAddress",
          "type": "address"
        },
        {
          "internalType": "bool",
          "name": "_isETH",
          "type": "bool"
        },
        {
          "internalType": "uint256",
          "name": "_bpFee",
          "type": "uint256"
        }
      ],
      "name": "withdrawDonations",
      "outputs": [
        {
          "internalType": "uint256",
          "name": "",
          "type": "uint256"
        }
      ],
      "stateMutability": "nonpayable",
      "type": "function"
    },
    {
      "inputs": [],
      "name": "getAcceptedTokens",
      "outputs": [
        {
          "internalType": "address[]",
          "name": "",
          "type": "address[]"
        }
      ],
      "stateMutability": "view",
      "type": "function"
    },
    {
      "inputs": [],
      "name": "getName",
      "outputs": [
        {
          "internalType": "string",
          "name": "",
          "type": "string"
        }
      ],
      "stateMutability": "view",
      "type": "function"
    },
    {
      "inputs": [],
      "name": "getAbout",
      "outputs": [
        {
          "internalType": "string",
          "name": "",
          "type": "string"
        }
      ],
      "stateMutability": "view",
      "type": "function"
    },
    {
      "inputs": [],
      "name": "getPicHash",
      "outputs": [
        {
          "internalType": "string",
          "name": "",
          "type": "string"
        }
      ],
      "stateMutability": "view",
      "type": "function"
    },
    {
      "inputs": [],
      "name": "getMetaUri",
      "outputs": [
        {
          "internalType": "string",
          "name": "",
          "type": "string"
        }
      ],
      "stateMutability": "view",
      "type": "function"
    },
    {
      "inputs": [],
      "name": "getIsVerified",
      "outputs": [
        {
          "internalType": "bool",
          "name": "",
          "type": "bool"
        }
      ],
      "stateMutability": "view",
      "type": "function"
    },
    {
      "inputs": [],
      "name": "getRecipient",
      "outputs": [
        {
          "internalType": "address",
          "name": "",
          "type": "address"
        }
      ],
      "stateMutability": "view",
      "type": "function"
    },
    {
      "inputs": [],
      "name": "getERC721Address",
      "outputs": [
        {
          "internalType": "address",
          "name": "",
          "type": "address"
        }
      ],
      "stateMutability": "view",
      "type": "function"
    },
    {
      "inputs": [],
      "name": "getPoolInfo",
      "outputs": [
        {
          "internalType": "address[]",
          "name": "",
          "type": "address[]"
        },
        {
          "internalType": "address",
          "name": "",
          "type": "address"
        },
        {
          "internalType": "bool",
          "name": "",
          "type": "bool"
        },
        {
          "internalType": "string",
          "name": "",
          "type": "string"
        },
        {
          "internalType": "string",
          "name": "",
          "type": "string"
        },
        {
          "internalType": "string",
          "name": "",
          "type": "string"
        },
        {
          "internalType": "string",
          "name": "",
          "type": "string"
        }
      ],
      "stateMutability": "view",
      "type": "function"
    },
    {
      "inputs": [
        {
          "internalType": "address",
          "name": "_assetAddress",
          "type": "address"
        }
      ],
      "name": "getATokenAddress",
      "outputs": [
        {
          "internalType": "address",
          "name": "aTokenAddress",
          "type": "address"
        }
      ],
      "stateMutability": "view",
      "type": "function"
    },
    {
      "inputs": [
        {
          "internalType": "address",
          "name": "_assetAddress",
          "type": "address"
        }
      ],
      "name": "getTotalDeposits",
      "outputs": [
        {
          "internalType": "uint256",
          "name": "",
          "type": "uint256"
        }
      ],
      "stateMutability": "view",
      "type": "function"
    },
    {
      "inputs": [
        {
          "internalType": "address",
          "name": "_assetAddress",
          "type": "address"
        }
      ],
      "name": "getUnclaimedInterest",
      "outputs": [
        {
          "internalType": "uint256",
          "name": "",
          "type": "uint256"
        }
      ],
      "stateMutability": "view",
      "type": "function"
    },
    {
      "inputs": [
        {
          "internalType": "address",
          "name": "_assetAddress",
          "type": "address"
        }
      ],
      "name": "getClaimedInterest",
      "outputs": [
        {
          "internalType": "uint256",
          "name": "",
          "type": "uint256"
        }
      ],
      "stateMutability": "view",
      "type": "function"
    },
    {
      "inputs": [
        {
          "internalType": "address",
          "name": "_assetAddress",
          "type": "address"
        }
      ],
      "name": "getATokenBalance",
      "outputs": [
        {
          "internalType": "uint256",
          "name": "",
          "type": "uint256"
        }
      ],
      "stateMutability": "view",
      "type": "function"
    },
    {
      "inputs": [
        {
          "internalType": "address",
          "name": "_assetAddress",
          "type": "address"
        }
      ],
      "name": "getReserveNormalizedIncome",
      "outputs": [
        {
          "internalType": "uint256",
          "name": "",
          "type": "uint256"
        }
      ],
      "stateMutability": "view",
      "type": "function"
    },
    {
      "inputs": [
        {
          "internalType": "address",
          "name": "_assetAddress",
          "type": "address"
        }
      ],
      "name": "getAaveLiquidityIndex",
      "outputs": [
        {
          "internalType": "uint256",
          "name": "liquidityIndex",
          "type": "uint256"
        }
      ],
      "stateMutability": "view",
      "type": "function"
    },
    {
      "inputs": [
        {
          "internalType": "address",
          "name": "_asset",
          "type": "address"
        }
      ],
      "name": "getPoolTokenInfo",
      "outputs": [
        {
          "internalType": "uint256",
          "name": "",
          "type": "uint256"
        },
        {
          "internalType": "uint256",
          "name": "",
          "type": "uint256"
        },
        {
          "internalType": "uint256",
          "name": "",
          "type": "uint256"
        },
        {
          "internalType": "uint256",
          "name": "",
          "type": "uint256"
        },
        {
          "internalType": "uint256",
          "name": "",
          "type": "uint256"
        },
        {
          "internalType": "uint256",
          "name": "",
          "type": "uint256"
        },
        {
          "internalType": "address",
          "name": "",
          "type": "address"
        }
      ],
      "stateMutability": "view",
      "type": "function"
    }
  ],
  "bytecode": "0x608060405234801561001057600080fd5b506001600360006101000a81548160ff0219169083151502179055506135858061003b6000396000f3fe608060405234801561001057600080fd5b50600436106101365760003560e01c80633735ef88116100b857806367e0e0761161007c57806367e0e07614610347578063711cc0051461037d5780638aebe8d6146103ad578063bbc41f48146103dd578063d15e0053146103f9578063eda9c2d21461042957610136565b80633735ef8814610289578063373d7c3f146102b957806347e7ef24146102d75780635ff189b9146102f357806360246c881461032357610136565b806317d7de7c116100ff57806317d7de7c146101f35780631b88094d146102115780632f7570061461022f578063343d693b1461024d578063357286d71461026b57610136565b80627ffb781461013b5780630251cfa1146101595780630712f6b31461018957806312eeff7e146101b9578063155d8e9c146101d5575b600080fd5b610143610459565b60405161015091906123e7565b60405180910390f35b610173600480360381019061016e9190612442565b610483565b6040516101809190612488565b60405180910390f35b6101a3600480360381019061019e9190612442565b6104cc565b6040516101b09190612488565b60405180910390f35b6101d360048036038101906101ce9190612507565b61056b565b005b6101dd610998565b6040516101ea9190612607565b60405180910390f35b6101fb610a2a565b6040516102089190612607565b60405180910390f35b610219610abc565b60405161022691906123e7565b60405180910390f35b610237610ae6565b60405161024491906126e7565b60405180910390f35b610255610b74565b6040516102629190612607565b60405180910390f35b610273610c06565b6040516102809190612718565b60405180910390f35b6102a3600480360381019061029e9190612442565b610c1d565b6040516102b09190612488565b60405180910390f35b6102c1610d0c565b6040516102ce9190612607565b60405180910390f35b6102f160048036038101906102ec9190612733565b610d9e565b005b61030d60048036038101906103089190612442565b610f75565b60405161031a9190612488565b60405180910390f35b61032b610fbe565b60405161033e9796959493929190612773565b60405180910390f35b610361600480360381019061035c9190612442565b6112d5565b6040516103749796959493929190612805565b60405180910390f35b61039760048036038101906103929190612442565b611338565b6040516103a491906123e7565b60405180910390f35b6103c760048036038101906103c29190612442565b6113f2565b6040516103d49190612488565b60405180910390f35b6103f760048036038101906103f29190612a71565b6114bd565b005b610413600480360381019061040e9190612442565b6118b6565b6040516104209190612488565b60405180910390f35b610443600480360381019061043e9190612bdc565b61196a565b6040516104509190612488565b60405180910390f35b6000600660009054906101000a900473ffffffffffffffffffffffffffffffffffffffff16905090565b6000600160008373ffffffffffffffffffffffffffffffffffffffff1673ffffffffffffffffffffffffffffffffffffffff168152602001908152602001600020549050919050565b6000806104d883611338565b90508073ffffffffffffffffffffffffffffffffffffffff166370a08231306040518263ffffffff1660e01b815260040161051391906123e7565b60206040518083038186803b15801561052b57600080fd5b505afa15801561053f573d6000803e3d6000fd5b505050506040513d601f19601f820116820180604052508101906105639190612c58565b915050919050565b3373ffffffffffffffffffffffffffffffffffffffff16600960009054906101000a900473ffffffffffffffffffffffffffffffffffffffff1673ffffffffffffffffffffffffffffffffffffffff16146105fb576040517f08c379a00000000000000000000000000000000000000000000000000000000081526004016105f290612cd1565b60405180910390fd5b82600160008673ffffffffffffffffffffffffffffffffffffffff1673ffffffffffffffffffffffffffffffffffffffff168152602001908152602001600020600082825461064a9190612d20565b925050819055508061070d57600460009054906101000a900473ffffffffffffffffffffffffffffffffffffffff1673ffffffffffffffffffffffffffffffffffffffff166369328dec8585856040518463ffffffff1660e01b81526004016106b593929190612d54565b602060405180830381600087803b1580156106cf57600080fd5b505af11580156106e3573d6000803e3d6000fd5b505050506040513d601f19601f820116820180604052508101906107079190612c58565b50610992565b6000600560009054906101000a900473ffffffffffffffffffffffffffffffffffffffff1673ffffffffffffffffffffffffffffffffffffffff1663affa88176040518163ffffffff1660e01b815260040160206040518083038186803b15801561077757600080fd5b505afa15801561078b573d6000803e3d6000fd5b505050506040513d601f19601f820116820180604052508101906107af9190612da0565b90508473ffffffffffffffffffffffffffffffffffffffff168173ffffffffffffffffffffffffffffffffffffffff161461081f576040517f08c379a000000000000000000000000000000000000000000000000000000000815260040161081690612e19565b60405180910390fd5b600061082a82611338565b90508073ffffffffffffffffffffffffffffffffffffffff1663095ea7b3600560009054906101000a900473ffffffffffffffffffffffffffffffffffffffff16876040518363ffffffff1660e01b8152600401610889929190612e39565b602060405180830381600087803b1580156108a357600080fd5b505af11580156108b7573d6000803e3d6000fd5b505050506040513d601f19601f820116820180604052508101906108db9190612e77565b50600560009054906101000a900473ffffffffffffffffffffffffffffffffffffffff1673ffffffffffffffffffffffffffffffffffffffff166380500d20600460009054906101000a900473ffffffffffffffffffffffffffffffffffffffff1687876040518463ffffffff1660e01b815260040161095d93929190612d54565b600060405180830381600087803b15801561097757600080fd5b505af115801561098b573d6000803e3d6000fd5b5050505050505b50505050565b6060600c80546109a790612ed3565b80601f01602080910402602001604051908101604052809291908181526020018280546109d390612ed3565b8015610a205780601f106109f557610100808354040283529160200191610a20565b820191906000526020600020905b815481529060010190602001808311610a0357829003601f168201915b5050505050905090565b6060600a8054610a3990612ed3565b80601f0160208091040260200160405190810160405280929190818152602001828054610a6590612ed3565b8015610ab25780601f10610a8757610100808354040283529160200191610ab2565b820191906000526020600020905b815481529060010190602001808311610a9557829003601f168201915b5050505050905090565b6000600860009054906101000a900473ffffffffffffffffffffffffffffffffffffffff16905090565b60606007805480602002602001604051908101604052809291908181526020018280548015610b6a57602002820191906000526020600020905b8160009054906101000a900473ffffffffffffffffffffffffffffffffffffffff1673ffffffffffffffffffffffffffffffffffffffff1681526020019060010190808311610b20575b5050505050905090565b6060600b8054610b8390612ed3565b80601f0160208091040260200160405190810160405280929190818152602001828054610baf90612ed3565b8015610bfc5780601f10610bd157610100808354040283529160200191610bfc565b820191906000526020600020905b815481529060010190602001808311610bdf57829003601f168201915b5050505050905090565b6000600e60009054906101000a900460ff16905090565b600080610c2983611338565b905060008173ffffffffffffffffffffffffffffffffffffffff166370a08231306040518263ffffffff1660e01b8152600401610c6691906123e7565b60206040518083038186803b158015610c7e57600080fd5b505afa158015610c92573d6000803e3d6000fd5b505050506040513d601f19601f82011682018060405250810190610cb69190612c58565b9050600160008573ffffffffffffffffffffffffffffffffffffffff1673ffffffffffffffffffffffffffffffffffffffff1681526020019081526020016000205481610d039190612d20565b92505050919050565b6060600d8054610d1b90612ed3565b80601f0160208091040260200160405190810160405280929190818152602001828054610d4790612ed3565b8015610d945780601f10610d6957610100808354040283529160200191610d94565b820191906000526020600020905b815481529060010190602001808311610d7757829003601f168201915b5050505050905090565b3373ffffffffffffffffffffffffffffffffffffffff16600960009054906101000a900473ffffffffffffffffffffffffffffffffffffffff1673ffffffffffffffffffffffffffffffffffffffff1614610e2e576040517f08c379a0000000000000000000000000000000000000000000000000000000008152600401610e2590612cd1565b60405180910390fd5b81600080600090505b6007805490508160ff161015610ed85760078160ff1681548110610e5e57610e5d612f05565b5b9060005260206000200160009054906101000a900473ffffffffffffffffffffffffffffffffffffffff1673ffffffffffffffffffffffffffffffffffffffff168373ffffffffffffffffffffffffffffffffffffffff161415610ec55760019150610ed8565b8080610ed090612f41565b915050610e37565b5080610f19576040517f08c379a0000000000000000000000000000000000000000000000000000000008152600401610f1090612fb7565b60405180910390fd5b82600160008673ffffffffffffffffffffffffffffffffffffffff1673ffffffffffffffffffffffffffffffffffffffff1681526020019081526020016000206000828254610f689190612fd7565b9250508190555050505050565b6000600260008373ffffffffffffffffffffffffffffffffffffffff1673ffffffffffffffffffffffffffffffffffffffff168152602001908152602001600020549050919050565b60606000806060806060806007600860009054906101000a900473ffffffffffffffffffffffffffffffffffffffff16600e60009054906101000a900460ff16600d600c600b600a8680548060200260200160405190810160405280929190818152602001828054801561108757602002820191906000526020600020905b8160009054906101000a900473ffffffffffffffffffffffffffffffffffffffff1673ffffffffffffffffffffffffffffffffffffffff168152602001906001019080831161103d575b5050505050965083805461109a90612ed3565b80601f01602080910402602001604051908101604052809291908181526020018280546110c690612ed3565b80156111135780601f106110e857610100808354040283529160200191611113565b820191906000526020600020905b8154815290600101906020018083116110f657829003601f168201915b5050505050935082805461112690612ed3565b80601f016020809104026020016040519081016040528092919081815260200182805461115290612ed3565b801561119f5780601f106111745761010080835404028352916020019161119f565b820191906000526020600020905b81548152906001019060200180831161118257829003601f168201915b505050505092508180546111b290612ed3565b80601f01602080910402602001604051908101604052809291908181526020018280546111de90612ed3565b801561122b5780601f106112005761010080835404028352916020019161122b565b820191906000526020600020905b81548152906001019060200180831161120e57829003601f168201915b5050505050915080805461123e90612ed3565b80601f016020809104026020016040519081016040528092919081815260200182805461126a90612ed3565b80156112b75780601f1061128c576101008083540402835291602001916112b7565b820191906000526020600020905b81548152906001019060200180831161129a57829003601f168201915b50505050509050965096509650965096509650965090919293949596565b60008060008060008060006112e9886113f2565b6112f2896118b6565b6112fb8a6104cc565b6113048b610f75565b61130d8c610c1d565b6113168d610483565b61131f8e611338565b9650965096509650965096509650919395979092949650565b6000600460009054906101000a900473ffffffffffffffffffffffffffffffffffffffff1673ffffffffffffffffffffffffffffffffffffffff166335ea6a75836040518263ffffffff1660e01b815260040161139591906123e7565b6101e06040518083038186803b1580156113ae57600080fd5b505afa1580156113c2573d6000803e3d6000fd5b505050506040513d601f19601f820116820180604052508101906113e69190613291565b61010001519050919050565b6000600460009054906101000a900473ffffffffffffffffffffffffffffffffffffffff1673ffffffffffffffffffffffffffffffffffffffff166335ea6a75836040518263ffffffff1660e01b815260040161144f91906123e7565b6101e06040518083038186803b15801561146857600080fd5b505afa15801561147c573d6000803e3d6000fd5b505050506040513d601f19601f820116820180604052508101906114a09190613291565b602001516fffffffffffffffffffffffffffffffff169050919050565b88601e60008290508160ff168151111561150c576040517f08c379a00000000000000000000000000000000000000000000000000000000081526004016115039061330b565b60405180910390fd5b600060019054906101000a900460ff166115345760008054906101000a900460ff161561153d565b61153c612232565b5b61157c576040517f08c379a00000000000000000000000000000000000000000000000000000000081526004016115739061339d565b60405180910390fd5b60008060019054906101000a900460ff1615905080156115cc576001600060016101000a81548160ff02191690831515021790555060016000806101000a81548160ff0219169083151502179055505b60001515600360009054906101000a900460ff16151514611622576040517f08c379a000000000000000000000000000000000000000000000000000000000815260040161161990613409565b60405180910390fd5b600073ffffffffffffffffffffffffffffffffffffffff16600860009054906101000a900473ffffffffffffffffffffffffffffffffffffffff1673ffffffffffffffffffffffffffffffffffffffff16146116b3576040517f08c379a00000000000000000000000000000000000000000000000000000000081526004016116aa90613475565b60405180910390fd5b88600860006101000a81548173ffffffffffffffffffffffffffffffffffffffff021916908373ffffffffffffffffffffffffffffffffffffffff16021790555033600960006101000a81548173ffffffffffffffffffffffffffffffffffffffff021916908373ffffffffffffffffffffffffffffffffffffffff1602179055508c600a908051906020019061174b929190612279565b508b600b9080519060200190611762929190612279565b508a600c9080519060200190611779929190612279565b5089600d9080519060200190611790929190612279565b5084600e60006101000a81548160ff02191690831515021790555087600460006101000a81548173ffffffffffffffffffffffffffffffffffffffff021916908373ffffffffffffffffffffffffffffffffffffffff16021790555086600560006101000a81548173ffffffffffffffffffffffffffffffffffffffff021916908373ffffffffffffffffffffffffffffffffffffffff16021790555085600660006101000a81548173ffffffffffffffffffffffffffffffffffffffff021916908373ffffffffffffffffffffffffffffffffffffffff1602179055508d600790805190602001906118849291906122ff565b5080156118a65760008060016101000a81548160ff0219169083151502179055505b5050505050505050505050505050565b6000600460009054906101000a900473ffffffffffffffffffffffffffffffffffffffff1673ffffffffffffffffffffffffffffffffffffffff1663d15e0053836040518263ffffffff1660e01b815260040161191391906123e7565b60206040518083038186803b15801561192b57600080fd5b505afa15801561193f573d6000803e3d6000fd5b505050506040513d601f19601f820116820180604052508101906119639190612c58565b9050919050565b60003373ffffffffffffffffffffffffffffffffffffffff16600960009054906101000a900473ffffffffffffffffffffffffffffffffffffffff1673ffffffffffffffffffffffffffffffffffffffff16146119fc576040517f08c379a00000000000000000000000000000000000000000000000000000000081526004016119f390612cd1565b60405180910390fd5b6000611a0786611338565b905060008173ffffffffffffffffffffffffffffffffffffffff166370a08231306040518263ffffffff1660e01b8152600401611a4491906123e7565b60206040518083038186803b158015611a5c57600080fd5b505afa158015611a70573d6000803e3d6000fd5b505050506040513d601f19601f82011682018060405250810190611a949190612c58565b90506000600160008973ffffffffffffffffffffffffffffffffffffffff1673ffffffffffffffffffffffffffffffffffffffff1681526020019081526020016000205482611ae39190612d20565b905080600260008a73ffffffffffffffffffffffffffffffffffffffff1673ffffffffffffffffffffffffffffffffffffffff1681526020019081526020016000206000828254611b349190612fd7565b92505081905550600081905086611dd6576000861415611c2757600460009054906101000a900473ffffffffffffffffffffffffffffffffffffffff1673ffffffffffffffffffffffffffffffffffffffff166369328dec8a84600860009054906101000a900473ffffffffffffffffffffffffffffffffffffffff166040518463ffffffff1660e01b8152600401611bcf93929190612d54565b602060405180830381600087803b158015611be957600080fd5b505af1158015611bfd573d6000803e3d6000fd5b505050506040513d601f19601f82011682018060405250810190611c219190612c58565b50611dd1565b6000611c338388612243565b905060008184611c439190612d20565b9050600460009054906101000a900473ffffffffffffffffffffffffffffffffffffffff1673ffffffffffffffffffffffffffffffffffffffff166369328dec8c83600860009054906101000a900473ffffffffffffffffffffffffffffffffffffffff166040518463ffffffff1660e01b8152600401611cc693929190612d54565b602060405180830381600087803b158015611ce057600080fd5b505af1158015611cf4573d6000803e3d6000fd5b505050506040513d601f19601f82011682018060405250810190611d189190612c58565b50600460009054906101000a900473ffffffffffffffffffffffffffffffffffffffff1673ffffffffffffffffffffffffffffffffffffffff166369328dec8c848d6040518463ffffffff1660e01b8152600401611d7893929190612d54565b602060405180830381600087803b158015611d9257600080fd5b505af1158015611da6573d6000803e3d6000fd5b505050506040513d601f19601f82011682018060405250810190611dca9190612c58565b5080925050505b612223565b8873ffffffffffffffffffffffffffffffffffffffff16600560009054906101000a900473ffffffffffffffffffffffffffffffffffffffff1673ffffffffffffffffffffffffffffffffffffffff1663affa88176040518163ffffffff1660e01b815260040160206040518083038186803b158015611e5557600080fd5b505afa158015611e69573d6000803e3d6000fd5b505050506040513d601f19601f82011682018060405250810190611e8d9190612da0565b73ffffffffffffffffffffffffffffffffffffffff1614611ee3576040517f08c379a0000000000000000000000000000000000000000000000000000000008152600401611eda90612e19565b60405180910390fd5b8373ffffffffffffffffffffffffffffffffffffffff1663095ea7b3600560009054906101000a900473ffffffffffffffffffffffffffffffffffffffff16846040518363ffffffff1660e01b8152600401611f40929190612e39565b602060405180830381600087803b158015611f5a57600080fd5b505af1158015611f6e573d6000803e3d6000fd5b505050506040513d601f19601f82011682018060405250810190611f929190612e77565b50600086141561207657600560009054906101000a900473ffffffffffffffffffffffffffffffffffffffff1673ffffffffffffffffffffffffffffffffffffffff166380500d20600460009054906101000a900473ffffffffffffffffffffffffffffffffffffffff1684600860009054906101000a900473ffffffffffffffffffffffffffffffffffffffff166040518463ffffffff1660e01b815260040161203f93929190612d54565b600060405180830381600087803b15801561205957600080fd5b505af115801561206d573d6000803e3d6000fd5b50505050612222565b60006120828388612243565b9050600081846120929190612d20565b9050600560009054906101000a900473ffffffffffffffffffffffffffffffffffffffff1673ffffffffffffffffffffffffffffffffffffffff166380500d20600460009054906101000a900473ffffffffffffffffffffffffffffffffffffffff1683600860009054906101000a900473ffffffffffffffffffffffffffffffffffffffff166040518463ffffffff1660e01b815260040161213793929190612d54565b600060405180830381600087803b15801561215157600080fd5b505af1158015612165573d6000803e3d6000fd5b50505050600560009054906101000a900473ffffffffffffffffffffffffffffffffffffffff1673ffffffffffffffffffffffffffffffffffffffff166380500d20600460009054906101000a900473ffffffffffffffffffffffffffffffffffffffff16848d6040518463ffffffff1660e01b81526004016121ea93929190612d54565b600060405180830381600087803b15801561220457600080fd5b505af1158015612218573d6000803e3d6000fd5b5050505080925050505b5b80945050505050949350505050565b600061223d30612266565b15905090565b600061271082846122549190613495565b61225e919061351e565b905092915050565b600080823b905060008111915050919050565b82805461228590612ed3565b90600052602060002090601f0160209004810192826122a757600085556122ee565b82601f106122c057805160ff19168380011785556122ee565b828001600101855582156122ee579182015b828111156122ed5782518255916020019190600101906122d2565b5b5090506122fb9190612389565b5090565b828054828255906000526020600020908101928215612378579160200282015b828111156123775782518260006101000a81548173ffffffffffffffffffffffffffffffffffffffff021916908373ffffffffffffffffffffffffffffffffffffffff1602179055509160200191906001019061231f565b5b5090506123859190612389565b5090565b5b808211156123a257600081600090555060010161238a565b5090565b600073ffffffffffffffffffffffffffffffffffffffff82169050919050565b60006123d1826123a6565b9050919050565b6123e1816123c6565b82525050565b60006020820190506123fc60008301846123d8565b92915050565b6000604051905090565b600080fd5b600080fd5b61241f816123c6565b811461242a57600080fd5b50565b60008135905061243c81612416565b92915050565b6000602082840312156124585761245761240c565b5b60006124668482850161242d565b91505092915050565b6000819050919050565b6124828161246f565b82525050565b600060208201905061249d6000830184612479565b92915050565b6124ac8161246f565b81146124b757600080fd5b50565b6000813590506124c9816124a3565b92915050565b60008115159050919050565b6124e4816124cf565b81146124ef57600080fd5b50565b600081359050612501816124db565b92915050565b600080600080608085870312156125215761252061240c565b5b600061252f8782880161242d565b9450506020612540878288016124ba565b93505060406125518782880161242d565b9250506060612562878288016124f2565b91505092959194509250565b600081519050919050565b600082825260208201905092915050565b60005b838110156125a857808201518184015260208101905061258d565b838111156125b7576000848401525b50505050565b6000601f19601f8301169050919050565b60006125d98261256e565b6125e38185612579565b93506125f381856020860161258a565b6125fc816125bd565b840191505092915050565b6000602082019050818103600083015261262181846125ce565b905092915050565b600081519050919050565b600082825260208201905092915050565b6000819050602082019050919050565b61265e816123c6565b82525050565b60006126708383612655565b60208301905092915050565b6000602082019050919050565b600061269482612629565b61269e8185612634565b93506126a983612645565b8060005b838110156126da5781516126c18882612664565b97506126cc8361267c565b9250506001810190506126ad565b5085935050505092915050565b600060208201905081810360008301526127018184612689565b905092915050565b612712816124cf565b82525050565b600060208201905061272d6000830184612709565b92915050565b6000806040838503121561274a5761274961240c565b5b60006127588582860161242d565b9250506020612769858286016124ba565b9150509250929050565b600060e082019050818103600083015261278d818a612689565b905061279c60208301896123d8565b6127a96040830188612709565b81810360608301526127bb81876125ce565b905081810360808301526127cf81866125ce565b905081810360a08301526127e381856125ce565b905081810360c08301526127f781846125ce565b905098975050505050505050565b600060e08201905061281a600083018a612479565b6128276020830189612479565b6128346040830188612479565b6128416060830187612479565b61284e6080830186612479565b61285b60a0830185612479565b61286860c08301846123d8565b98975050505050505050565b600080fd5b7f4e487b7100000000000000000000000000000000000000000000000000000000600052604160045260246000fd5b6128b1826125bd565b810181811067ffffffffffffffff821117156128d0576128cf612879565b5b80604052505050565b60006128e3612402565b90506128ef82826128a8565b919050565b600067ffffffffffffffff82111561290f5761290e612879565b5b602082029050602081019050919050565b600080fd5b6000612938612933846128f4565b6128d9565b9050808382526020820190506020840283018581111561295b5761295a612920565b5b835b818110156129845780612970888261242d565b84526020840193505060208101905061295d565b5050509392505050565b600082601f8301126129a3576129a2612874565b5b81356129b3848260208601612925565b91505092915050565b600080fd5b600067ffffffffffffffff8211156129dc576129db612879565b5b6129e5826125bd565b9050602081019050919050565b82818337600083830152505050565b6000612a14612a0f846129c1565b6128d9565b905082815260208101848484011115612a3057612a2f6129bc565b5b612a3b8482856129f2565b509392505050565b600082601f830112612a5857612a57612874565b5b8135612a68848260208601612a01565b91505092915050565b6000806000806000806000806000806101408b8d031215612a9557612a9461240c565b5b60008b013567ffffffffffffffff811115612ab357612ab2612411565b5b612abf8d828e0161298e565b9a505060208b013567ffffffffffffffff811115612ae057612adf612411565b5b612aec8d828e01612a43565b99505060408b013567ffffffffffffffff811115612b0d57612b0c612411565b5b612b198d828e01612a43565b98505060608b013567ffffffffffffffff811115612b3a57612b39612411565b5b612b468d828e01612a43565b97505060808b013567ffffffffffffffff811115612b6757612b66612411565b5b612b738d828e01612a43565b96505060a0612b848d828e0161242d565b95505060c0612b958d828e0161242d565b94505060e0612ba68d828e0161242d565b935050610100612bb88d828e0161242d565b925050610120612bca8d828e016124f2565b9150509295989b9194979a5092959850565b60008060008060808587031215612bf657612bf561240c565b5b6000612c048782880161242d565b9450506020612c158782880161242d565b9350506040612c26878288016124f2565b9250506060612c37878288016124ba565b91505092959194509250565b600081519050612c52816124a3565b92915050565b600060208284031215612c6e57612c6d61240c565b5b6000612c7c84828501612c43565b91505092915050565b7f6e6f7420746865206f776e657200000000000000000000000000000000000000600082015250565b6000612cbb600d83612579565b9150612cc682612c85565b602082019050919050565b60006020820190508181036000830152612cea81612cae565b9050919050565b7f4e487b7100000000000000000000000000000000000000000000000000000000600052601160045260246000fd5b6000612d2b8261246f565b9150612d368361246f565b925082821015612d4957612d48612cf1565b5b828203905092915050565b6000606082019050612d6960008301866123d8565b612d766020830185612479565b612d8360408301846123d8565b949350505050565b600081519050612d9a81612416565b92915050565b600060208284031215612db657612db561240c565b5b6000612dc484828501612d8b565b91505092915050565b7f617373657420646f6573206e6f74206d61746368205745544847617465776179600082015250565b6000612e03602083612579565b9150612e0e82612dcd565b602082019050919050565b60006020820190508181036000830152612e3281612df6565b9050919050565b6000604082019050612e4e60008301856123d8565b612e5b6020830184612479565b9392505050565b600081519050612e71816124db565b92915050565b600060208284031215612e8d57612e8c61240c565b5b6000612e9b84828501612e62565b91505092915050565b7f4e487b7100000000000000000000000000000000000000000000000000000000600052602260045260246000fd5b60006002820490506001821680612eeb57607f821691505b60208210811415612eff57612efe612ea4565b5b50919050565b7f4e487b7100000000000000000000000000000000000000000000000000000000600052603260045260246000fd5b600060ff82169050919050565b6000612f4c82612f34565b915060ff821415612f6057612f5f612cf1565b5b600182019050919050565b7f746f6b656e206e6f74206163636570746564206279206a63706f6f6c00000000600082015250565b6000612fa1601c83612579565b9150612fac82612f6b565b602082019050919050565b60006020820190508181036000830152612fd081612f94565b9050919050565b6000612fe28261246f565b9150612fed8361246f565b9250827fffffffffffffffffffffffffffffffffffffffffffffffffffffffffffffffff0382111561302257613021612cf1565b5b828201905092915050565b600080fd5b6000602082840312156130485761304761302d565b5b61305260206128d9565b9050600061306284828501612c43565b60008301525092915050565b60006fffffffffffffffffffffffffffffffff82169050919050565b6130938161306e565b811461309e57600080fd5b50565b6000815190506130b08161308a565b92915050565b600064ffffffffff82169050919050565b6130d0816130b6565b81146130db57600080fd5b50565b6000815190506130ed816130c7565b92915050565b600061ffff82169050919050565b61310a816130f3565b811461311557600080fd5b50565b60008151905061312781613101565b92915050565b60006101e082840312156131445761314361302d565b5b61314f6101e06128d9565b9050600061315f84828501613032565b6000830152506020613173848285016130a1565b6020830152506040613187848285016130a1565b604083015250606061319b848285016130a1565b60608301525060806131af848285016130a1565b60808301525060a06131c3848285016130a1565b60a08301525060c06131d7848285016130de565b60c08301525060e06131eb84828501613118565b60e08301525061010061320084828501612d8b565b6101008301525061012061321684828501612d8b565b6101208301525061014061322c84828501612d8b565b6101408301525061016061324284828501612d8b565b61016083015250610180613258848285016130a1565b610180830152506101a061326e848285016130a1565b6101a0830152506101c0613284848285016130a1565b6101c08301525092915050565b60006101e082840312156132a8576132a761240c565b5b60006132b68482850161312d565b91505092915050565b7f737472696e67206f76657220636861726163746572206c696d69740000000000600082015250565b60006132f5601b83612579565b9150613300826132bf565b602082019050919050565b60006020820190508181036000830152613324816132e8565b9050919050565b7f496e697469616c697a61626c653a20636f6e747261637420697320616c72656160008201527f647920696e697469616c697a6564000000000000000000000000000000000000602082015250565b6000613387602e83612579565b91506133928261332b565b604082019050919050565b600060208201905081810360008301526133b68161337a565b9050919050565b7f43616e6e6f7420696e697469616c697a65206261736500000000000000000000600082015250565b60006133f3601683612579565b91506133fe826133bd565b602082019050919050565b60006020820190508181036000830152613422816133e6565b9050919050565b7f496e697469616c697a6520616c72656164792063616c6c656400000000000000600082015250565b600061345f601983612579565b915061346a82613429565b602082019050919050565b6000602082019050818103600083015261348e81613452565b9050919050565b60006134a08261246f565b91506134ab8361246f565b9250817fffffffffffffffffffffffffffffffffffffffffffffffffffffffffffffffff04831182151516156134e4576134e3612cf1565b5b828202905092915050565b7f4e487b7100000000000000000000000000000000000000000000000000000000600052601260045260246000fd5b60006135298261246f565b91506135348361246f565b925082613544576135436134ef565b5b82820490509291505056fea2646970667358221220ee3de9ecce423a444892787a28a1c77d8f6d364d209c4d9caf3896749b0df2b864736f6c63430008090033",
  "immutableReferences": {},
  "source": "// SPDX-License-Identifier: MIT\npragma solidity 0.8.9;\n\nimport { IERC20} from './interfaces/other/IERC20.sol';\nimport { IPool} from './interfaces/aave/IPool.sol';\nimport { IPoolAddressesProvider} from './interfaces/aave/IPoolAddressesProvider.sol';\nimport { IWETHGateway} from './interfaces/aave/IWETHGateway.sol';\nimport { SafeERC20 } from './libraries/SafeERC20.sol';\nimport \"@openzeppelin/contracts/proxy/utils/Initializable.sol\";\n\n/**\n * @title JustCausePool contract\n * @author JustCause\n * This is a contract for lossless donations using Aave v3 on Polygon\n\n   Aave v3 is used to generate interest for crowdfunding\n\n   Contributors deposit tokens into JustCause Pools which deposit\n   them into Aave lending protocol\n\n   The interest earned is directed to the receiver associated with\n   the Pool\n\n   When Contributors need access to their funds they withdraw original deposit\n   and interest accrued is left behind for the receiver to claim\n\n   Functions withdraw() and withdrawDonations() directly call the aave Pool\n\n   Deposits are done through the PoolTracker contract to minimize approvals\n\n * @dev To be covered by a proxy contract\n * @dev deposits, withdraws, withdrawDonations controlled by the PoolTracker contract (Master)\n **/\n\ncontract JustCausePool is Initializable {\n\n    mapping(address => uint256) private totalDeposits;\n    mapping(address => uint256) private interestWithdrawn;\n    bool private isBase;\n\n    IPoolAddressesProvider provider;\n    address poolAddr;\n    address wethGatewayAddr;\n    address erc721Addr;\n\n    address[] acceptedTokens;\n\n    address receiver;\n    address poolTracker;\n    string name;\n    string about;\n    string picHash;\n    string metaUri;\n    bool isVerified;\n\n    /**\n    * @dev Only tokens that are on the accepted list can be passed\n    * to functions marked by this modifier.\n    **/\n    modifier onlyAllowedTokens(address _tokenAddr){\n        bool isAccepted;\n        for (uint8 i = 0; i < acceptedTokens.length; i++){\n            if(_tokenAddr == acceptedTokens[i]){\n                isAccepted = true;\n                break;\n            }\n        }\n        require(isAccepted, \"token not accepted by jcpool\");\n        _;\n    }\n\n    /**\n    * @dev Only Receiver can call functions marked by this modifier.\n    **/\n    modifier onlyReceiver(address _sender){\n        require(receiver == _sender, \"not the receiver\");\n        _;\n    }\n\n    /**\n    * @dev Only Master can call functions marked by this modifier.\n    **/\n    modifier onlyPoolTracker(){\n        require(poolTracker == msg.sender, \"not the owner\");\n        _;\n    }\n\n    /**\n    * @dev Limits string (pool name) to x characters when passed to\n    * functions marked by this modifier.\n    **/\n    modifier strLength(string memory _str, uint8 _limit ){\n        bytes memory strBytes = bytes(_str);\n        if(strBytes.length > _limit){\n            revert(\"string over character limit\");\n        }\n        _;\n    }\n\n    /**\n   * @dev Constructor.\n   */\n    constructor () {\n        isBase = true;\n    }\n\n    /**\n    * @notice Initializes the JustCause Pool proxy contracts.\n    * @dev Function is invoked by the PoolTacker contract when a Pool is created.\n    * @param _acceptedTokens List of tokens to be accepted by JCP.\n    * @param _name String name of JCP.\n    * @param _about ipfs hash of pool description of JCP.\n    * @param _picHash ipfs hash of pic of JCP.\n    * @param _metaUri meta info uri for nft of JCP.\n    * @param _receiver address of receiver of JCP donations.\n    * @param _isVerified indicates whether JCP is verified\n    **/\n    function initialize(\n        address[] memory _acceptedTokens,\n        string memory _name,\n        string memory _about,\n        string memory _picHash,\n        string memory _metaUri,\n        address _receiver,\n        address _poolAddr,\n        address _wethGatewayAddr,\n        address _erc721Addr,\n        bool _isVerified\n\n    ) external strLength(_name, 30) initializer() {\n\n        require(isBase == false, \"Cannot initialize base\");\n        require(receiver == address(0), \"Initialize already called\");\n\n        receiver = _receiver;\n        poolTracker = msg.sender;\n        name = _name;\n        about = _about;\n        picHash = _picHash;\n        metaUri = _metaUri;\n        isVerified = _isVerified;\n\n        poolAddr = _poolAddr;\n        wethGatewayAddr = _wethGatewayAddr;\n        erc721Addr = _erc721Addr;\n        acceptedTokens = _acceptedTokens;\n    }\n\n    /**\n    * @notice Only called by PoolTracker.\n    * @dev Function updates total deposits.\n    * @param _assetAddress The address of the underlying asset of the reserve\n    * @param _amount The amount of supplied assets\n    **/\n    function deposit(address _assetAddress, uint256 _amount) external  onlyPoolTracker onlyAllowedTokens(_assetAddress){\n        totalDeposits[_assetAddress] += _amount;\n    }\n\n    /**\n    * @notice Only called by PoolTracker.\n    * @dev Function withdraws from Aave pools, exchanging this contracts aTokens\n    * for reserve tokens for user deposits.\n    * @param _assetAddress The address of the underlying asset of the reserve\n    * @param _amount The amount of withdraw assets\n    * @param _depositor The address making the deposit\n    * @param _isETH bool indicating if asset is the base token of network (eth/matic/...)\n    **/\n    function withdraw(\n        address _assetAddress,\n        uint256 _amount,\n        address _depositor,\n        bool _isETH\n    ) external onlyPoolTracker {\n        totalDeposits[_assetAddress] -= _amount;\n        if(!_isETH){\n            IPool(poolAddr).withdraw(_assetAddress, _amount, _depositor);\n        }\n        else{\n            address wethAddress = IWETHGateway(wethGatewayAddr).getWETHAddress();\n            require(wethAddress == _assetAddress, \"asset does not match WETHGateway\");\n            address aTokenAddress = getATokenAddress(wethAddress);\n            IERC20(aTokenAddress).approve(wethGatewayAddr, _amount);\n            IWETHGateway(wethGatewayAddr).withdrawETH(poolAddr, _amount, _depositor);\n        }\n    }\n\n    /**\n    * @notice Only called by PoolTracker.\n    * @dev Function claims donations for receiver. Calls Aave pools exchanging this\n    * contracts aTokens for reserve tokens for interestEarned amount.\n    * Calculates interestEarned and subtracts 0.2% fee from claim amount.\n    * @param _assetAddress The address of the underlying asset of the reserve\n    * @param _feeAddress The address that collects the 0.2% protocol fee\n    * @param _isETH bool indicating if asset is the base token of network (eth/matic/...)\n    * @param _bpFee fee rate paid to the protocol\n    **/\n    function withdrawDonations(\n        address _assetAddress,\n        address _feeAddress,\n        bool _isETH,\n        uint256 _bpFee)\n     external onlyPoolTracker returns(uint256){\n        address aTokenAddress = getATokenAddress(_assetAddress);\n        uint256 aTokenBalance = IERC20(aTokenAddress).balanceOf(address(this));\n        uint256 interestEarned = aTokenBalance - totalDeposits[_assetAddress];\n        interestWithdrawn[_assetAddress] += interestEarned;\n        uint256 donated = interestEarned;\n\n        if(!_isETH){\n            if(_bpFee == 0){\n                IPool(poolAddr).withdraw(_assetAddress, interestEarned, receiver);\n            }\n            else{\n                uint256 feeValue = calcSplit(interestEarned, _bpFee);\n                uint256 newValue = interestEarned - feeValue;\n                IPool(poolAddr).withdraw(_assetAddress, newValue, receiver);\n                IPool(poolAddr).withdraw(_assetAddress, feeValue, _feeAddress);\n                donated = newValue;\n            }\n        }\n        else{\n            require(IWETHGateway(wethGatewayAddr).getWETHAddress() == _assetAddress, \"asset does not match WETHGateway\");\n            IERC20(aTokenAddress).approve(wethGatewayAddr, interestEarned);\n            if(_bpFee == 0){\n                IWETHGateway(wethGatewayAddr).withdrawETH(poolAddr, interestEarned, receiver);\n            }\n            else{\n                uint256 feeValue = calcSplit(interestEarned, _bpFee);\n                uint256 newValue = interestEarned - feeValue;\n                IWETHGateway(wethGatewayAddr).withdrawETH(poolAddr, newValue, receiver);\n                IWETHGateway(wethGatewayAddr).withdrawETH(poolAddr, feeValue, _feeAddress);\n                donated = newValue;\n            }\n        }\n\n        return donated;\n    }\n\n    /**\n    * @dev function calculates the fee paid out to protocol for non-verified pools\n    * @param _amount the amount to be split\n    * @param _bpFee basis points (parts per 10,000) ex. 20 = 0.2%\n    * @return uint256 fee to be paid from amount\n    **/\n    function calcSplit(uint256 _amount, uint256 _bpFee) internal pure returns(uint256) {\n        return (_amount * _bpFee) / 10000; // % in basis points (parts per 10,000)\n    }\n\n    /**\n    * @return acceptedTokens git\n    **/\n    function getAcceptedTokens() external view returns(address[] memory){\n        return acceptedTokens;\n    }\n\n    /**\n    * @return name String name of JCP.\n    **/\n    function getName() external view returns(string memory){\n        return name;\n    }\n\n    /**\n    * @return about ipfs hash of pool description of JCP.\n    **/\n    function getAbout() external view returns(string memory){\n        return about;\n    }\n\n    /**\n    * @return picHash ipfs hash of pic of JCP.\n    **/\n    function getPicHash() external view returns(string memory){\n        return picHash;\n    }\n\n    /**\n    * @return metaUri meta info uri for nft of JCP.\n    **/\n    function getMetaUri() external view returns(string memory){\n        return metaUri;\n    }\n\n    /**\n    * @return isVerified indicates whether JCP is verified\n    **/\n    function getIsVerified() external view returns(bool){\n        return isVerified;\n    }\n\n    /**\n    * @return receiver address of receiver of JCP donations.\n    **/\n    function getRecipient() external view returns(address){\n        return receiver;\n    }\n\n    /**\n    * @return erc721Addr address of the NFT contract for this Pool.\n    **/\n    function getERC721Address() external view returns(address){\n        return erc721Addr;\n    }\n\n    /**\n    * @notice Returns general pool information\n    * @return acceptedTokens List of tokens to be accepted by JCP.\n    * @return name String name of JCP.\n    * @return about ipfs hash of pool description of JCP.\n    * @return picHash ipfs hash of pic of JCP.\n    * @return metaUri meta info uri for nft of JCP.\n    * @return receiver address of receiver of JCP donations.\n    * @return isVerified indicates whether JCP is verified\n    **/\n    function getPoolInfo() external view returns (address[] memory, address, bool, string memory, string memory, string memory, string memory){\n        return (acceptedTokens, receiver, isVerified, metaUri, picHash, about, name);\n    }\n\n    /**\n    * @param _assetAddress The address of the underlying asset of the reserve\n    * @return aTokenAddress address of Aave's aToken for asset\n    **/\n    function getATokenAddress(address _assetAddress) public view returns(address aTokenAddress){\n        aTokenAddress = IPool(poolAddr).getReserveData(_assetAddress).aTokenAddress;\n    }\n\n    /**\n    * @param _assetAddress The address of the underlying asset of the reserve\n    * @return totalDeposit total assets deposited in pool\n    **/\n    function getTotalDeposits(address _assetAddress) public view returns(uint256){\n        return totalDeposits[_assetAddress];\n    }\n\n    /**\n    * @param _assetAddress The address of the underlying asset of the reserve\n    * @return unclaimedInterest accrued interest that has not yet been claimed\n    **/\n    function getUnclaimedInterest(address _assetAddress) public view returns (uint256){\n        address aTokenAddress = getATokenAddress(_assetAddress);\n        uint256 aTokenBalance = IERC20(aTokenAddress).balanceOf(address(this));\n        return aTokenBalance - totalDeposits[_assetAddress];\n    }\n\n    /**\n    * @param _assetAddress The address of the underlying asset of the reserve\n    * @return claimedInterest interest that has been claimed (no longer in contract)\n    **/\n    function getClaimedInterest(address _assetAddress) public view returns (uint256){\n        return interestWithdrawn[_assetAddress];\n    }\n\n    /**\n    * @param _assetAddress The address of the underlying asset of the reserve\n    * @return aTokenBalance Pool balance of aToken for the asset\n    **/\n    function getATokenBalance(address _assetAddress) public view returns (uint256){\n        address aTokenAddress = getATokenAddress(_assetAddress);\n        return IERC20(aTokenAddress).balanceOf(address(this));\n    }\n\n    /**\n    * @param _assetAddress The address of the underlying asset of the reserve\n    * @return normalizedIncome reserve's normalized income\n    */\n    function getReserveNormalizedIncome(address _assetAddress) public view returns(uint256){\n        return IPool(poolAddr).getReserveNormalizedIncome(_assetAddress);\n    }\n\n    /**\n    * @param _assetAddress The address of the underlying asset of the reserve\n    * @return liquidityIndex reserve's liquidity index\n    */\n    function getAaveLiquidityIndex(address _assetAddress) public view returns(uint256 liquidityIndex){\n        liquidityIndex = IPool(poolAddr).getReserveData(_assetAddress).liquidityIndex;\n    }\n\n    /**\n    * @notice Returns asset specific pool information\n    * @param _asset The address of the underlying asset of the reserve\n    * @return liquidityIndex reserve's liquidity index\n    * @return normalizedIncome reserve's normalized income\n    * @return aTokenBalance Pool balance of aToken for the asset\n    * @return claimedInterest interest that has been claimed (no longer in contract)\n    * @return unclaimedInterest accrued interest that has not yet been claimed\n    * @return totalDeposit total assets deposited in pool\n    * @return aTokenAddress address of Aave's aToken for asset\n    */\n    function getPoolTokenInfo(address _asset) external view returns(uint256, uint256, uint256, uint256, uint256, uint256, address){\n        return(getAaveLiquidityIndex(_asset), getReserveNormalizedIncome(_asset), getATokenBalance(_asset),\n                getClaimedInterest(_asset), getUnclaimedInterest(_asset), getTotalDeposits(_asset), getATokenAddress(_asset));\n    }\n}",
  "sourcePath": "/home/smeee/just_cause/contracts/polygon/JustCausePool.sol",
  "compiler": {
    "name": "solc",
    "version": "0.8.9+commit.e5eed63a.Emscripten.clang"
  },
  "schemaVersion": "3.4.7",
  "updatedAt": "2022-06-25T19:01:00.915Z",
  "devdoc": {
    "author": "JustCause This is a contract for lossless donations using Aave v3 on Polygon Aave v3 is used to generate interest for crowdfunding Contributors deposit tokens into JustCause Pools which deposit them into Aave lending protocol The interest earned is directed to the receiver associated with the Pool When Contributors need access to their funds they withdraw original deposit and interest accrued is left behind for the receiver to claim Functions withdraw() and withdrawDonations() directly call the aave Pool Deposits are done through the PoolTracker contract to minimize approvals",
    "details": "To be covered by a proxy contractdeposits, withdraws, withdrawDonations controlled by the PoolTracker contract (Master)*",
    "kind": "dev",
    "methods": {
      "constructor": {
        "details": "Constructor."
      },
      "deposit(address,uint256)": {
        "details": "Function updates total deposits.",
        "params": {
          "_amount": "The amount of supplied assets*",
          "_assetAddress": "The address of the underlying asset of the reserve"
        }
      },
      "getATokenAddress(address)": {
        "params": {
          "_assetAddress": "The address of the underlying asset of the reserve"
        },
        "returns": {
          "aTokenAddress": "address of Aave's aToken for asset*"
        }
      },
      "getATokenBalance(address)": {
        "params": {
          "_assetAddress": "The address of the underlying asset of the reserve"
        },
        "returns": {
          "_0": "aTokenBalance Pool balance of aToken for the asset*"
        }
      },
      "getAaveLiquidityIndex(address)": {
        "params": {
          "_assetAddress": "The address of the underlying asset of the reserve"
        },
        "returns": {
          "liquidityIndex": "reserve's liquidity index"
        }
      },
      "getAbout()": {
        "returns": {
          "_0": "about ipfs hash of pool description of JCP.*"
        }
      },
      "getAcceptedTokens()": {
        "returns": {
          "_0": "acceptedTokens git*"
        }
      },
      "getClaimedInterest(address)": {
        "params": {
          "_assetAddress": "The address of the underlying asset of the reserve"
        },
        "returns": {
          "_0": "claimedInterest interest that has been claimed (no longer in contract)*"
        }
      },
      "getERC721Address()": {
        "returns": {
          "_0": "erc721Addr address of the NFT contract for this Pool.*"
        }
      },
      "getIsVerified()": {
        "returns": {
          "_0": "isVerified indicates whether JCP is verified*"
        }
      },
      "getMetaUri()": {
        "returns": {
          "_0": "metaUri meta info uri for nft of JCP.*"
        }
      },
      "getName()": {
        "returns": {
          "_0": "name String name of JCP.*"
        }
      },
      "getPicHash()": {
        "returns": {
          "_0": "picHash ipfs hash of pic of JCP.*"
        }
      },
      "getPoolInfo()": {
        "returns": {
          "_0": "acceptedTokens List of tokens to be accepted by JCP.",
          "_1": "name String name of JCP.",
          "_2": "about ipfs hash of pool description of JCP.",
          "_3": "picHash ipfs hash of pic of JCP.",
          "_4": "metaUri meta info uri for nft of JCP.",
          "_5": "receiver address of receiver of JCP donations.",
          "_6": "isVerified indicates whether JCP is verified*"
        }
      },
      "getPoolTokenInfo(address)": {
        "params": {
          "_asset": "The address of the underlying asset of the reserve"
        },
        "returns": {
          "_0": "liquidityIndex reserve's liquidity index",
          "_1": "normalizedIncome reserve's normalized income",
          "_2": "aTokenBalance Pool balance of aToken for the asset",
          "_3": "claimedInterest interest that has been claimed (no longer in contract)",
          "_4": "unclaimedInterest accrued interest that has not yet been claimed",
          "_5": "totalDeposit total assets deposited in pool",
          "_6": "aTokenAddress address of Aave's aToken for asset"
        }
      },
      "getRecipient()": {
        "returns": {
          "_0": "receiver address of receiver of JCP donations.*"
        }
      },
      "getReserveNormalizedIncome(address)": {
        "params": {
          "_assetAddress": "The address of the underlying asset of the reserve"
        },
        "returns": {
          "_0": "normalizedIncome reserve's normalized income"
        }
      },
      "getTotalDeposits(address)": {
        "params": {
          "_assetAddress": "The address of the underlying asset of the reserve"
        },
        "returns": {
          "_0": "totalDeposit total assets deposited in pool*"
        }
      },
      "getUnclaimedInterest(address)": {
        "params": {
          "_assetAddress": "The address of the underlying asset of the reserve"
        },
        "returns": {
          "_0": "unclaimedInterest accrued interest that has not yet been claimed*"
        }
      },
      "initialize(address[],string,string,string,string,address,address,address,address,bool)": {
        "details": "Function is invoked by the PoolTacker contract when a Pool is created.",
        "params": {
          "_about": "ipfs hash of pool description of JCP.",
          "_acceptedTokens": "List of tokens to be accepted by JCP.",
          "_isVerified": "indicates whether JCP is verified*",
          "_metaUri": "meta info uri for nft of JCP.",
          "_name": "String name of JCP.",
          "_picHash": "ipfs hash of pic of JCP.",
          "_receiver": "address of receiver of JCP donations."
        }
      },
      "withdraw(address,uint256,address,bool)": {
        "details": "Function withdraws from Aave pools, exchanging this contracts aTokens for reserve tokens for user deposits.",
        "params": {
          "_amount": "The amount of withdraw assets",
          "_assetAddress": "The address of the underlying asset of the reserve",
          "_depositor": "The address making the deposit",
          "_isETH": "bool indicating if asset is the base token of network (eth/matic/...)*"
        }
      },
      "withdrawDonations(address,address,bool,uint256)": {
        "details": "Function claims donations for receiver. Calls Aave pools exchanging this contracts aTokens for reserve tokens for interestEarned amount. Calculates interestEarned and subtracts 0.2% fee from claim amount.",
        "params": {
          "_assetAddress": "The address of the underlying asset of the reserve",
          "_bpFee": "fee rate paid to the protocol*",
          "_feeAddress": "The address that collects the 0.2% protocol fee",
          "_isETH": "bool indicating if asset is the base token of network (eth/matic/...)"
        }
      }
    },
    "title": "JustCausePool contract",
    "version": 1
  },
  "userdoc": {
    "kind": "user",
    "methods": {
      "deposit(address,uint256)": {
        "notice": "Only called by PoolTracker."
      },
      "getPoolInfo()": {
        "notice": "Returns general pool information"
      },
      "getPoolTokenInfo(address)": {
        "notice": "Returns asset specific pool information"
      },
      "initialize(address[],string,string,string,string,address,address,address,address,bool)": {
        "notice": "Initializes the JustCause Pool proxy contracts."
      },
      "withdraw(address,uint256,address,bool)": {
        "notice": "Only called by PoolTracker."
      },
      "withdrawDonations(address,address,bool,uint256)": {
        "notice": "Only called by PoolTracker."
      }
    },
    "version": 1
  }
}