{
  "contractName": "JustCausePool",
  "abi": [
    {
      "inputs": [
        {
          "internalType": "address[]",
          "name": "_acceptedTokens",
          "type": "address[]"
        },
        {
          "internalType": "string",
          "name": "_name",
          "type": "string"
        },
        {
          "internalType": "string",
          "name": "_about",
          "type": "string"
        },
        {
          "internalType": "address",
          "name": "_poolTrackerAddr",
          "type": "address"
        },
        {
          "internalType": "address",
          "name": "_receiver",
          "type": "address"
        }
      ],
      "stateMutability": "nonpayable",
      "type": "constructor"
    },
    {
      "anonymous": false,
      "inputs": [
        {
          "indexed": false,
          "internalType": "address",
          "name": "FROM",
          "type": "address"
        },
        {
          "indexed": false,
          "internalType": "uint256",
          "name": "AMOUNT",
          "type": "uint256"
        },
        {
          "indexed": false,
          "internalType": "uint256",
          "name": "BALANCE",
          "type": "uint256"
        }
      ],
      "name": "BalanceOf",
      "type": "event"
    },
    {
      "anonymous": false,
      "inputs": [
        {
          "indexed": false,
          "internalType": "address",
          "name": "tokenAddress",
          "type": "address"
        },
        {
          "indexed": false,
          "internalType": "address",
          "name": "depositor",
          "type": "address"
        },
        {
          "indexed": false,
          "internalType": "uint256",
          "name": "amount",
          "type": "uint256"
        },
        {
          "indexed": false,
          "internalType": "uint256",
          "name": "totalDeposits",
          "type": "uint256"
        }
      ],
      "name": "Deposit",
      "type": "event"
    },
    {
      "anonymous": false,
      "inputs": [
        {
          "indexed": false,
          "internalType": "address",
          "name": "addr",
          "type": "address"
        }
      ],
      "name": "GetLPAddress",
      "type": "event"
    },
    {
      "anonymous": false,
      "inputs": [
        {
          "indexed": false,
          "internalType": "address",
          "name": "test",
          "type": "address"
        }
      ],
      "name": "GetPoolTracker",
      "type": "event"
    },
    {
      "anonymous": false,
      "inputs": [
        {
          "indexed": false,
          "internalType": "uint256",
          "name": "allowance",
          "type": "uint256"
        }
      ],
      "name": "SeeAllowance",
      "type": "event"
    },
    {
      "anonymous": false,
      "inputs": [
        {
          "indexed": false,
          "internalType": "address",
          "name": "tokenAddress",
          "type": "address"
        },
        {
          "indexed": false,
          "internalType": "address",
          "name": "depositor",
          "type": "address"
        },
        {
          "indexed": false,
          "internalType": "uint256",
          "name": "amount",
          "type": "uint256"
        },
        {
          "indexed": false,
          "internalType": "uint256",
          "name": "userDeposits",
          "type": "uint256"
        },
        {
          "indexed": false,
          "internalType": "uint256",
          "name": "donation",
          "type": "uint256"
        }
      ],
      "name": "Withdraw",
      "type": "event"
    },
    {
      "anonymous": false,
      "inputs": [
        {
          "indexed": false,
          "internalType": "address",
          "name": "tokenAddress",
          "type": "address"
        },
        {
          "indexed": false,
          "internalType": "address",
          "name": "depositor",
          "type": "address"
        },
        {
          "indexed": false,
          "internalType": "uint256",
          "name": "amount",
          "type": "uint256"
        },
        {
          "indexed": false,
          "internalType": "uint256",
          "name": "totalDeposits",
          "type": "uint256"
        },
        {
          "indexed": false,
          "internalType": "address",
          "name": "aTokenAddress",
          "type": "address"
        }
      ],
      "name": "WithdrawDonations",
      "type": "event"
    },
    {
      "inputs": [
        {
          "internalType": "address",
          "name": "_assetAddress",
          "type": "address"
        },
        {
          "internalType": "uint256",
          "name": "_amount",
          "type": "uint256"
        }
      ],
      "name": "deposit",
      "outputs": [],
      "stateMutability": "nonpayable",
      "type": "function"
    },
    {
      "inputs": [
        {
          "internalType": "address",
          "name": "_wethAddress",
          "type": "address"
        }
      ],
      "name": "depositETH",
      "outputs": [],
      "stateMutability": "payable",
      "type": "function"
    },
    {
      "inputs": [
        {
          "internalType": "address",
          "name": "_assetAddress",
          "type": "address"
        },
        {
          "internalType": "uint256",
          "name": "_amount",
          "type": "uint256"
        },
        {
          "internalType": "uint256",
          "name": "_donation",
          "type": "uint256"
        }
      ],
      "name": "withdraw",
      "outputs": [],
      "stateMutability": "nonpayable",
      "type": "function"
    },
    {
      "inputs": [
        {
          "internalType": "address",
          "name": "_assetAddress",
          "type": "address"
        },
        {
          "internalType": "bool",
          "name": "_isETH",
          "type": "bool"
        }
      ],
      "name": "withdrawDonations",
      "outputs": [],
      "stateMutability": "nonpayable",
      "type": "function"
    },
    {
      "inputs": [
        {
          "internalType": "address",
          "name": "_userAddr",
          "type": "address"
        },
        {
          "internalType": "address",
          "name": "_token",
          "type": "address"
        }
      ],
      "name": "getUserBalance",
      "outputs": [
        {
          "internalType": "uint256",
          "name": "",
          "type": "uint256"
        }
      ],
      "stateMutability": "view",
      "type": "function"
    },
    {
      "inputs": [
        {
          "internalType": "address",
          "name": "_token",
          "type": "address"
        }
      ],
      "name": "getTotalDeposits",
      "outputs": [
        {
          "internalType": "uint256",
          "name": "",
          "type": "uint256"
        }
      ],
      "stateMutability": "view",
      "type": "function"
    },
    {
      "inputs": [],
      "name": "getAcceptedTokens",
      "outputs": [
        {
          "internalType": "address[]",
          "name": "",
          "type": "address[]"
        }
      ],
      "stateMutability": "view",
      "type": "function"
    },
    {
      "inputs": [],
      "name": "getName",
      "outputs": [
        {
          "internalType": "string",
          "name": "",
          "type": "string"
        }
      ],
      "stateMutability": "view",
      "type": "function"
    },
    {
      "inputs": [],
      "name": "getAbout",
      "outputs": [
        {
          "internalType": "string",
          "name": "",
          "type": "string"
        }
      ],
      "stateMutability": "view",
      "type": "function"
    },
    {
      "inputs": [
        {
          "internalType": "address",
          "name": "_assetAddress",
          "type": "address"
        }
      ],
      "name": "getATokenAddress",
      "outputs": [
        {
          "internalType": "address",
          "name": "",
          "type": "address"
        }
      ],
      "stateMutability": "view",
      "type": "function"
    },
    {
      "inputs": [
        {
          "internalType": "address",
          "name": "_assetAddress",
          "type": "address"
        }
      ],
      "name": "getUnclaimedInterest",
      "outputs": [
        {
          "internalType": "uint256",
          "name": "",
          "type": "uint256"
        }
      ],
      "stateMutability": "view",
      "type": "function"
    },
    {
      "inputs": [
        {
          "internalType": "address",
          "name": "_assetAddress",
          "type": "address"
        }
      ],
      "name": "getClaimedInterest",
      "outputs": [
        {
          "internalType": "uint256",
          "name": "",
          "type": "uint256"
        }
      ],
      "stateMutability": "view",
      "type": "function"
    },
    {
      "inputs": [
        {
          "internalType": "address",
          "name": "_assetAddress",
          "type": "address"
        }
      ],
      "name": "getATokenBalance",
      "outputs": [
        {
          "internalType": "uint256",
          "name": "",
          "type": "uint256"
        }
      ],
      "stateMutability": "view",
      "type": "function"
    },
    {
      "inputs": [],
      "name": "getRecipient",
      "outputs": [
        {
          "internalType": "address",
          "name": "",
          "type": "address"
        }
      ],
      "stateMutability": "view",
      "type": "function"
    },
    {
      "inputs": [],
      "name": "getByteCode",
      "outputs": [
        {
          "internalType": "bytes",
          "name": "",
          "type": "bytes"
        }
      ],
      "stateMutability": "view",
      "type": "function"
    },
    {
      "inputs": [],
      "name": "getHashByteCode",
      "outputs": [
        {
          "internalType": "bytes32",
          "name": "",
          "type": "bytes32"
        }
      ],
      "stateMutability": "view",
      "type": "function"
    },
    {
      "inputs": [
        {
          "internalType": "address",
          "name": "_asset",
          "type": "address"
        }
      ],
      "name": "getAaveLiquidityIndex",
      "outputs": [
        {
          "internalType": "uint256",
          "name": "liquidityIndex",
          "type": "uint256"
        }
      ],
      "stateMutability": "view",
      "type": "function"
    }
  ],
  "bytecode": "0x60806040523480156200001157600080fd5b506040516200376f3803806200376f8339818101604052810190620000379190620008f4565b83601e60008290508160ff1681511062000088576040517f08c379a00000000000000000000000000000000000000000000000000000000081526004016200007f9062000a3a565b60405180910390fd5b8560c860008290508160ff16815110620000d9576040517f08c379a0000000000000000000000000000000000000000000000000000000008152600401620000d09062000a3a565b60405180910390fd5b33600760006101000a81548173ffffffffffffffffffffffffffffffffffffffff021916908373ffffffffffffffffffffffffffffffffffffffff16021790555086600860006101000a81548173ffffffffffffffffffffffffffffffffffffffff021916908373ffffffffffffffffffffffffffffffffffffffff160217905550896009908051906020019062000173929190620004d8565b5088600a90805190602001906200018c929190620004d8565b507388757f2f99175387ab4c6a4b3067c77a695b0349600460006101000a81548173ffffffffffffffffffffffffffffffffffffffff021916908373ffffffffffffffffffffffffffffffffffffffff1602179055506000600460009054906101000a900473ffffffffffffffffffffffffffffffffffffffff1673ffffffffffffffffffffffffffffffffffffffff16630261bf8b6040518163ffffffff1660e01b815260040160206040518083038186803b1580156200024d57600080fd5b505afa15801562000262573d6000803e3d6000fd5b505050506040513d601f19601f8201168201806040525081019062000288919062000a5c565b905080600560006101000a81548173ffffffffffffffffffffffffffffffffffffffff021916908373ffffffffffffffffffffffffffffffffffffffff1602179055508b60069080519060200190620002e392919062000569565b5088600360006101000a81548173ffffffffffffffffffffffffffffffffffffffff021916908373ffffffffffffffffffffffffffffffffffffffff1602179055507f36ac3f21e23b63ede25b34d24a735e877430bc3884df25935f44448497e1e922600360009054906101000a900473ffffffffffffffffffffffffffffffffffffffff1673ffffffffffffffffffffffffffffffffffffffff16638e61514e60096040518263ffffffff1660e01b8152600401620003a4919062000b94565b60206040518083038186803b158015620003bd57600080fd5b505afa158015620003d2573d6000803e3d6000fd5b505050506040513d601f19601f82011682018060405250810190620003f8919062000a5c565b60405162000407919062000bc9565b60405180910390a1600360009054906101000a900473ffffffffffffffffffffffffffffffffffffffff1673ffffffffffffffffffffffffffffffffffffffff166345cdf64230600760009054906101000a900473ffffffffffffffffffffffffffffffffffffffff168e6040518463ffffffff1660e01b8152600401620004929392919062000c32565b600060405180830381600087803b158015620004ad57600080fd5b505af1158015620004c2573d6000803e3d6000fd5b5050505050505050505050505050505062000c76565b828054620004e69062000abd565b90600052602060002090601f0160209004810192826200050a576000855562000556565b82601f106200052557805160ff191683800117855562000556565b8280016001018555821562000556579182015b828111156200055557825182559160200191906001019062000538565b5b509050620005659190620005f8565b5090565b828054828255906000526020600020908101928215620005e5579160200282015b82811115620005e45782518260006101000a81548173ffffffffffffffffffffffffffffffffffffffff021916908373ffffffffffffffffffffffffffffffffffffffff160217905550916020019190600101906200058a565b5b509050620005f49190620005f8565b5090565b5b8082111562000613576000816000905550600101620005f9565b5090565b6000604051905090565b600080fd5b600080fd5b600080fd5b6000601f19601f8301169050919050565b7f4e487b7100000000000000000000000000000000000000000000000000000000600052604160045260246000fd5b6200067b8262000630565b810181811067ffffffffffffffff821117156200069d576200069c62000641565b5b80604052505050565b6000620006b262000617565b9050620006c0828262000670565b919050565b600067ffffffffffffffff821115620006e357620006e262000641565b5b602082029050602081019050919050565b600080fd5b600073ffffffffffffffffffffffffffffffffffffffff82169050919050565b60006200072682620006f9565b9050919050565b620007388162000719565b81146200074457600080fd5b50565b60008151905062000758816200072d565b92915050565b6000620007756200076f84620006c5565b620006a6565b905080838252602082019050602084028301858111156200079b576200079a620006f4565b5b835b81811015620007c85780620007b3888262000747565b8452602084019350506020810190506200079d565b5050509392505050565b600082601f830112620007ea57620007e96200062b565b5b8151620007fc8482602086016200075e565b91505092915050565b600080fd5b600067ffffffffffffffff82111562000828576200082762000641565b5b620008338262000630565b9050602081019050919050565b60005b838110156200086057808201518184015260208101905062000843565b8381111562000870576000848401525b50505050565b60006200088d62000887846200080a565b620006a6565b905082815260208101848484011115620008ac57620008ab62000805565b5b620008b984828562000840565b509392505050565b600082601f830112620008d957620008d86200062b565b5b8151620008eb84826020860162000876565b91505092915050565b600080600080600060a0868803121562000913576200091262000621565b5b600086015167ffffffffffffffff81111562000934576200093362000626565b5b6200094288828901620007d2565b955050602086015167ffffffffffffffff81111562000966576200096562000626565b5b6200097488828901620008c1565b945050604086015167ffffffffffffffff81111562000998576200099762000626565b5b620009a688828901620008c1565b9350506060620009b98882890162000747565b9250506080620009cc8882890162000747565b9150509295509295909350565b600082825260208201905092915050565b7f737472696e67206f76657220636861726163746572206c696d69740000000000600082015250565b600062000a22601b83620009d9565b915062000a2f82620009ea565b602082019050919050565b6000602082019050818103600083015262000a558162000a13565b9050919050565b60006020828403121562000a755762000a7462000621565b5b600062000a858482850162000747565b91505092915050565b7f4e487b7100000000000000000000000000000000000000000000000000000000600052602260045260246000fd5b6000600282049050600182168062000ad657607f821691505b6020821081141562000aed5762000aec62000a8e565b5b50919050565b60008190508160005260206000209050919050565b6000815462000b178162000abd565b62000b238186620009d9565b9450600182166000811462000b41576001811462000b545762000b8b565b60ff198316865260208601935062000b8b565b62000b5f8562000af3565b60005b8381101562000b835781548189015260018201915060208101905062000b62565b808801955050505b50505092915050565b6000602082019050818103600083015262000bb0818462000b08565b905092915050565b62000bc38162000719565b82525050565b600060208201905062000be0600083018462000bb8565b92915050565b600081519050919050565b600062000bfe8262000be6565b62000c0a8185620009d9565b935062000c1c81856020860162000840565b62000c278162000630565b840191505092915050565b600060608201905062000c49600083018662000bb8565b62000c58602083018562000bb8565b818103604083015262000c6c818462000bf1565b9050949350505050565b612ae98062000c866000396000f3fe6080604052600436106100fe5760003560e01c8063343d693b116100955780635ff189b9116100645780635ff189b91461032a5780636805d6ad14610367578063711cc005146103a45780638aebe8d6146103e1578063b5c5f6721461041e576100fe565b8063343d693b1461026e5780633735ef881461029957806347e7ef24146102d657806357ac6566146102ff576100fe565b80631b88094d116100d15780631b88094d146101d35780632d2da806146101fe5780632f7570061461021a578063322ce09e14610245576100fe565b80630251cfa1146101035780630712f6b3146101405780630835d21a1461017d57806317d7de7c146101a8575b600080fd5b34801561010f57600080fd5b5061012a60048036038101906101259190611d35565b610447565b6040516101379190611d7b565b60405180910390f35b34801561014c57600080fd5b5061016760048036038101906101629190611d35565b610490565b6040516101749190611d7b565b60405180910390f35b34801561018957600080fd5b506101926105c5565b60405161019f9190611daf565b60405180910390f35b3480156101b457600080fd5b506101bd610625565b6040516101ca9190611e63565b60405180910390f35b3480156101df57600080fd5b506101e86106b7565b6040516101f59190611e94565b60405180910390f35b61021860048036038101906102139190611d35565b6106e1565b005b34801561022657600080fd5b5061022f61079b565b60405161023c9190611f6d565b60405180910390f35b34801561025157600080fd5b5061026c60048036038101906102679190611fc7565b610829565b005b34801561027a57600080fd5b50610283610c66565b6040516102909190611e63565b60405180910390f35b3480156102a557600080fd5b506102c060048036038101906102bb9190611d35565b610cf8565b6040516102cd9190611d7b565b60405180910390f35b3480156102e257600080fd5b506102fd60048036038101906102f89190612033565b610e7d565b005b34801561030b57600080fd5b50610314611225565b60405161032191906120c8565b60405180910390f35b34801561033657600080fd5b50610351600480360381019061034c9190611d35565b61125f565b60405161035e9190611d7b565b60405180910390f35b34801561037357600080fd5b5061038e600480360381019061038991906120ea565b6112a8565b60405161039b9190611d7b565b60405180910390f35b3480156103b057600080fd5b506103cb60048036038101906103c69190611d35565b61132e565b6040516103d89190611e94565b60405180910390f35b3480156103ed57600080fd5b5061040860048036038101906104039190611d35565b6113db565b6040516104159190611d7b565b60405180910390f35b34801561042a57600080fd5b506104456004803603810190610440919061212a565b6114b8565b005b6000600160008373ffffffffffffffffffffffffffffffffffffffff1673ffffffffffffffffffffffffffffffffffffffff168152602001908152602001600020549050919050565b600080733c73a5e5785cac854d468f727c606c07488a29d673ffffffffffffffffffffffffffffffffffffffff1663d2493b6c846040518263ffffffff1660e01b81526004016104e09190611e94565b60606040518083038186803b1580156104f857600080fd5b505afa15801561050c573d6000803e3d6000fd5b505050506040513d601f19601f820116820180604052508101906105309190612192565b505090508073ffffffffffffffffffffffffffffffffffffffff166370a08231306040518263ffffffff1660e01b815260040161056d9190611e94565b60206040518083038186803b15801561058557600080fd5b505afa158015610599573d6000803e3d6000fd5b505050506040513d601f19601f820116820180604052508101906105bd91906121fa565b915050919050565b60003073ffffffffffffffffffffffffffffffffffffffff16803b806020016040519081016040528181526000908060200190933c60405160200161060a9190612263565b60405160208183030381529060405280519060200120905090565b606060098054610634906122a9565b80601f0160208091040260200160405190810160405280929190818152602001828054610660906122a9565b80156106ad5780601f10610682576101008083540402835291602001916106ad565b820191906000526020600020905b81548152906001019060200180831161069057829003601f168201915b5050505050905090565b6000600860009054906101000a900473ffffffffffffffffffffffffffffffffffffffff16905090565b6000600560009054906101000a900473ffffffffffffffffffffffffffffffffffffffff16905073a61ca04df33b72b235a8a28cfb535bb7a5271b7073ffffffffffffffffffffffffffffffffffffffff1663474cf53d34833060006040518563ffffffff1660e01b815260040161075b9392919061232e565b6000604051808303818588803b15801561077457600080fd5b505af1158015610788573d6000803e3d6000fd5b50505050506107973483611ac6565b5050565b6060600680548060200260200160405190810160405280929190818152602001828054801561081f57602002820191906000526020600020905b8160009054906101000a900473ffffffffffffffffffffffffffffffffffffffff1673ffffffffffffffffffffffffffffffffffffffff16815260200190600101908083116107d5575b5050505050905090565b81600080600090505b6006805490508160ff1610156108d35760068160ff168154811061085957610858612365565b5b9060005260206000200160009054906101000a900473ffffffffffffffffffffffffffffffffffffffff1673ffffffffffffffffffffffffffffffffffffffff168373ffffffffffffffffffffffffffffffffffffffff1614156108c057600191506108d3565b80806108cb906123d0565b915050610832565b5080610914576040517f08c379a000000000000000000000000000000000000000000000000000000000815260040161090b9061246c565b60405180910390fd5b6000733c73a5e5785cac854d468f727c606c07488a29d673ffffffffffffffffffffffffffffffffffffffff1663d2493b6c866040518263ffffffff1660e01b81526004016109639190611e94565b60606040518083038186803b15801561097b57600080fd5b505afa15801561098f573d6000803e3d6000fd5b505050506040513d601f19601f820116820180604052508101906109b39190612192565b5050905060008173ffffffffffffffffffffffffffffffffffffffff166370a08231306040518263ffffffff1660e01b81526004016109f29190611e94565b60206040518083038186803b158015610a0a57600080fd5b505afa158015610a1e573d6000803e3d6000fd5b505050506040513d601f19601f82011682018060405250810190610a4291906121fa565b90506000600160008873ffffffffffffffffffffffffffffffffffffffff1673ffffffffffffffffffffffffffffffffffffffff1681526020019081526020016000205482610a91919061248c565b905080600260008973ffffffffffffffffffffffffffffffffffffffff1673ffffffffffffffffffffffffffffffffffffffff1681526020019081526020016000206000828254610ae291906124c0565b92505081905550600560009054906101000a900473ffffffffffffffffffffffffffffffffffffffff1673ffffffffffffffffffffffffffffffffffffffff166369328dec8883600860009054906101000a900473ffffffffffffffffffffffffffffffffffffffff166040518463ffffffff1660e01b8152600401610b6a93929190612516565b602060405180830381600087803b158015610b8457600080fd5b505af1158015610b98573d6000803e3d6000fd5b505050506040513d601f19601f82011682018060405250810190610bbc91906121fa565b507ffb42c6fc06609281806d5b0ad4bd7b7bb222a7ac7fa9e5211fa7ac032fa491ae87600860009054906101000a900473ffffffffffffffffffffffffffffffffffffffff1683600160008c73ffffffffffffffffffffffffffffffffffffffff1673ffffffffffffffffffffffffffffffffffffffff1681526020019081526020016000205487604051610c5595949392919061254d565b60405180910390a150505050505050565b6060600a8054610c75906122a9565b80601f0160208091040260200160405190810160405280929190818152602001828054610ca1906122a9565b8015610cee5780601f10610cc357610100808354040283529160200191610cee565b820191906000526020600020905b815481529060010190602001808311610cd157829003601f168201915b5050505050905090565b600080733c73a5e5785cac854d468f727c606c07488a29d673ffffffffffffffffffffffffffffffffffffffff1663d2493b6c846040518263ffffffff1660e01b8152600401610d489190611e94565b60606040518083038186803b158015610d6057600080fd5b505afa158015610d74573d6000803e3d6000fd5b505050506040513d601f19601f82011682018060405250810190610d989190612192565b5050905060008173ffffffffffffffffffffffffffffffffffffffff166370a08231306040518263ffffffff1660e01b8152600401610dd79190611e94565b60206040518083038186803b158015610def57600080fd5b505afa158015610e03573d6000803e3d6000fd5b505050506040513d601f19601f82011682018060405250810190610e2791906121fa565b9050600160008573ffffffffffffffffffffffffffffffffffffffff1673ffffffffffffffffffffffffffffffffffffffff1681526020019081526020016000205481610e74919061248c565b92505050919050565b81600080600090505b6006805490508160ff161015610f275760068160ff1681548110610ead57610eac612365565b5b9060005260206000200160009054906101000a900473ffffffffffffffffffffffffffffffffffffffff1673ffffffffffffffffffffffffffffffffffffffff168373ffffffffffffffffffffffffffffffffffffffff161415610f145760019150610f27565b8080610f1f906123d0565b915050610e86565b5080610f68576040517f08c379a0000000000000000000000000000000000000000000000000000000008152600401610f5f9061246c565b60405180910390fd5b6000849050838173ffffffffffffffffffffffffffffffffffffffff1663dd62ed3e33306040518363ffffffff1660e01b8152600401610fa99291906125a0565b60206040518083038186803b158015610fc157600080fd5b505afa158015610fd5573d6000803e3d6000fd5b505050506040513d601f19601f82011682018060405250810190610ff991906121fa565b101561103a576040517f08c379a000000000000000000000000000000000000000000000000000000000815260040161103190612615565b60405180910390fd5b8073ffffffffffffffffffffffffffffffffffffffff166323b872dd3330876040518463ffffffff1660e01b815260040161107793929190612635565b602060405180830381600087803b15801561109157600080fd5b505af11580156110a5573d6000803e3d6000fd5b505050506040513d601f19601f820116820180604052508101906110c99190612681565b506000600560009054906101000a900473ffffffffffffffffffffffffffffffffffffffff1690508173ffffffffffffffffffffffffffffffffffffffff1663095ea7b382876040518363ffffffff1660e01b815260040161112c9291906126ae565b602060405180830381600087803b15801561114657600080fd5b505af115801561115a573d6000803e3d6000fd5b505050506040513d601f19601f8201168201806040525081019061117e9190612681565b50600560009054906101000a900473ffffffffffffffffffffffffffffffffffffffff1673ffffffffffffffffffffffffffffffffffffffff1663e8eda9df83873060006040518563ffffffff1660e01b81526004016111e194939291906126d7565b600060405180830381600087803b1580156111fb57600080fd5b505af115801561120f573d6000803e3d6000fd5b5050505061121d8587611ac6565b505050505050565b60603073ffffffffffffffffffffffffffffffffffffffff16803b806020016040519081016040528181526000908060200190933c905090565b6000600260008373ffffffffffffffffffffffffffffffffffffffff1673ffffffffffffffffffffffffffffffffffffffff168152602001908152602001600020549050919050565b60008060008473ffffffffffffffffffffffffffffffffffffffff1673ffffffffffffffffffffffffffffffffffffffff16815260200190815260200160002060008373ffffffffffffffffffffffffffffffffffffffff1673ffffffffffffffffffffffffffffffffffffffff16815260200190815260200160002054905092915050565b600080733c73a5e5785cac854d468f727c606c07488a29d673ffffffffffffffffffffffffffffffffffffffff1663d2493b6c846040518263ffffffff1660e01b815260040161137e9190611e94565b60606040518083038186803b15801561139657600080fd5b505afa1580156113aa573d6000803e3d6000fd5b505050506040513d601f19601f820116820180604052508101906113ce9190612192565b5050905080915050919050565b6000733c73a5e5785cac854d468f727c606c07488a29d673ffffffffffffffffffffffffffffffffffffffff166335ea6a75836040518263ffffffff1660e01b815260040161142a9190611e94565b6101406040518083038186803b15801561144357600080fd5b505afa158015611457573d6000803e3d6000fd5b505050506040513d601f19601f8201168201806040525081019061147b9190612759565b9091929394959697985090919293949596975090919293949596509091929394955090919293945090919293509091925090505080915050919050565b33838383600082116114ff576040517f08c379a00000000000000000000000000000000000000000000000000000000081526004016114f690612884565b60405180910390fd5b816000808673ffffffffffffffffffffffffffffffffffffffff1673ffffffffffffffffffffffffffffffffffffffff16815260200190815260200160002060008573ffffffffffffffffffffffffffffffffffffffff1673ffffffffffffffffffffffffffffffffffffffff1681526020019081526020016000205410156115bd576040517f08c379a00000000000000000000000000000000000000000000000000000000081526004016115b490612916565b60405180910390fd5b80821015611600576040517f08c379a00000000000000000000000000000000000000000000000000000000081526004016115f7906129a8565b60405180910390fd5b6000600560009054906101000a900473ffffffffffffffffffffffffffffffffffffffff169050600086146117d4576000868861163d919061248c565b9050600560009054906101000a900473ffffffffffffffffffffffffffffffffffffffff1673ffffffffffffffffffffffffffffffffffffffff166369328dec8a89600860009054906101000a900473ffffffffffffffffffffffffffffffffffffffff166040518463ffffffff1660e01b81526004016116c093929190612516565b602060405180830381600087803b1580156116da57600080fd5b505af11580156116ee573d6000803e3d6000fd5b505050506040513d601f19601f8201168201806040525081019061171291906121fa565b50600081146117ce57600560009054906101000a900473ffffffffffffffffffffffffffffffffffffffff1673ffffffffffffffffffffffffffffffffffffffff166369328dec8a83336040518463ffffffff1660e01b815260040161177a93929190612516565b602060405180830381600087803b15801561179457600080fd5b505af11580156117a8573d6000803e3d6000fd5b505050506040513d601f19601f820116820180604052508101906117cc91906121fa565b505b50611887565b600560009054906101000a900473ffffffffffffffffffffffffffffffffffffffff1673ffffffffffffffffffffffffffffffffffffffff166369328dec8989336040518463ffffffff1660e01b815260040161183393929190612516565b602060405180830381600087803b15801561184d57600080fd5b505af1158015611861573d6000803e3d6000fd5b505050506040513d601f19601f8201168201806040525081019061188591906121fa565b505b866000803373ffffffffffffffffffffffffffffffffffffffff1673ffffffffffffffffffffffffffffffffffffffff16815260200190815260200160002060008a73ffffffffffffffffffffffffffffffffffffffff1673ffffffffffffffffffffffffffffffffffffffff1681526020019081526020016000206000828254611912919061248c565b9250508190555086600160008a73ffffffffffffffffffffffffffffffffffffffff1673ffffffffffffffffffffffffffffffffffffffff1681526020019081526020016000206000828254611968919061248c565b92505081905550600360009054906101000a900473ffffffffffffffffffffffffffffffffffffffff1673ffffffffffffffffffffffffffffffffffffffff166326132eb23389428c6040518563ffffffff1660e01b81526004016119d094939291906129c8565b600060405180830381600087803b1580156119ea57600080fd5b505af11580156119fe573d6000803e3d6000fd5b505050507febff2602b3f468259e1e99f613fed6691f3a6526effe6ef3e768ba7ae7a36c4f8833896000803373ffffffffffffffffffffffffffffffffffffffff1673ffffffffffffffffffffffffffffffffffffffff16815260200190815260200160002060008d73ffffffffffffffffffffffffffffffffffffffff1673ffffffffffffffffffffffffffffffffffffffff168152602001908152602001600020548a604051611ab4959493929190612a0d565b60405180910390a15050505050505050565b60008060003373ffffffffffffffffffffffffffffffffffffffff1673ffffffffffffffffffffffffffffffffffffffff16815260200190815260200160002060008373ffffffffffffffffffffffffffffffffffffffff1673ffffffffffffffffffffffffffffffffffffffff1681526020019081526020016000205490506000611b51836113db565b9050600360009054906101000a900473ffffffffffffffffffffffffffffffffffffffff1673ffffffffffffffffffffffffffffffffffffffff16637af5bcb833868442886040518663ffffffff1660e01b8152600401611bb6959493929190612a60565b600060405180830381600087803b158015611bd057600080fd5b505af1158015611be4573d6000803e3d6000fd5b505050508382611bf491906124c0565b915083600160008573ffffffffffffffffffffffffffffffffffffffff1673ffffffffffffffffffffffffffffffffffffffff1681526020019081526020016000206000828254611c4591906124c0565b92505081905550816000803373ffffffffffffffffffffffffffffffffffffffff1673ffffffffffffffffffffffffffffffffffffffff16815260200190815260200160002060008573ffffffffffffffffffffffffffffffffffffffff1673ffffffffffffffffffffffffffffffffffffffff1681526020019081526020016000208190555050505050565b600080fd5b600073ffffffffffffffffffffffffffffffffffffffff82169050919050565b6000611d0282611cd7565b9050919050565b611d1281611cf7565b8114611d1d57600080fd5b50565b600081359050611d2f81611d09565b92915050565b600060208284031215611d4b57611d4a611cd2565b5b6000611d5984828501611d20565b91505092915050565b6000819050919050565b611d7581611d62565b82525050565b6000602082019050611d906000830184611d6c565b92915050565b6000819050919050565b611da981611d96565b82525050565b6000602082019050611dc46000830184611da0565b92915050565b600081519050919050565b600082825260208201905092915050565b60005b83811015611e04578082015181840152602081019050611de9565b83811115611e13576000848401525b50505050565b6000601f19601f8301169050919050565b6000611e3582611dca565b611e3f8185611dd5565b9350611e4f818560208601611de6565b611e5881611e19565b840191505092915050565b60006020820190508181036000830152611e7d8184611e2a565b905092915050565b611e8e81611cf7565b82525050565b6000602082019050611ea96000830184611e85565b92915050565b600081519050919050565b600082825260208201905092915050565b6000819050602082019050919050565b611ee481611cf7565b82525050565b6000611ef68383611edb565b60208301905092915050565b6000602082019050919050565b6000611f1a82611eaf565b611f248185611eba565b9350611f2f83611ecb565b8060005b83811015611f60578151611f478882611eea565b9750611f5283611f02565b925050600181019050611f33565b5085935050505092915050565b60006020820190508181036000830152611f878184611f0f565b905092915050565b60008115159050919050565b611fa481611f8f565b8114611faf57600080fd5b50565b600081359050611fc181611f9b565b92915050565b60008060408385031215611fde57611fdd611cd2565b5b6000611fec85828601611d20565b9250506020611ffd85828601611fb2565b9150509250929050565b61201081611d62565b811461201b57600080fd5b50565b60008135905061202d81612007565b92915050565b6000806040838503121561204a57612049611cd2565b5b600061205885828601611d20565b92505060206120698582860161201e565b9150509250929050565b600081519050919050565b600082825260208201905092915050565b600061209a82612073565b6120a4818561207e565b93506120b4818560208601611de6565b6120bd81611e19565b840191505092915050565b600060208201905081810360008301526120e2818461208f565b905092915050565b6000806040838503121561210157612100611cd2565b5b600061210f85828601611d20565b925050602061212085828601611d20565b9150509250929050565b60008060006060848603121561214357612142611cd2565b5b600061215186828701611d20565b93505060206121628682870161201e565b92505060406121738682870161201e565b9150509250925092565b60008151905061218c81611d09565b92915050565b6000806000606084860312156121ab576121aa611cd2565b5b60006121b98682870161217d565b93505060206121ca8682870161217d565b92505060406121db8682870161217d565b9150509250925092565b6000815190506121f481612007565b92915050565b6000602082840312156122105761220f611cd2565b5b600061221e848285016121e5565b91505092915050565b600081905092915050565b600061223d82612073565b6122478185612227565b9350612257818560208601611de6565b80840191505092915050565b600061226f8284612232565b915081905092915050565b7f4e487b7100000000000000000000000000000000000000000000000000000000600052602260045260246000fd5b600060028204905060018216806122c157607f821691505b602082108114156122d5576122d461227a565b5b50919050565b6000819050919050565b600061ffff82169050919050565b6000819050919050565b600061231861231361230e846122db565b6122f3565b6122e5565b9050919050565b612328816122fd565b82525050565b60006060820190506123436000830186611e85565b6123506020830185611e85565b61235d604083018461231f565b949350505050565b7f4e487b7100000000000000000000000000000000000000000000000000000000600052603260045260246000fd5b7f4e487b7100000000000000000000000000000000000000000000000000000000600052601160045260246000fd5b600060ff82169050919050565b60006123db826123c3565b915060ff8214156123ef576123ee612394565b5b600182019050919050565b7f7375626d697474656420746f6b656e2061646472657373206973206e6f74206160008201527f6363657074656420627920706f6f6c0000000000000000000000000000000000602082015250565b6000612456602f83611dd5565b9150612461826123fa565b604082019050919050565b6000602082019050818103600083015261248581612449565b9050919050565b600061249782611d62565b91506124a283611d62565b9250828210156124b5576124b4612394565b5b828203905092915050565b60006124cb82611d62565b91506124d683611d62565b9250827fffffffffffffffffffffffffffffffffffffffffffffffffffffffffffffffff0382111561250b5761250a612394565b5b828201905092915050565b600060608201905061252b6000830186611e85565b6125386020830185611d6c565b6125456040830184611e85565b949350505050565b600060a0820190506125626000830188611e85565b61256f6020830187611e85565b61257c6040830186611d6c565b6125896060830185611d6c565b6125966080830184611e85565b9695505050505050565b60006040820190506125b56000830185611e85565b6125c26020830184611e85565b9392505050565b7f73656e646572206e6f7420617070726f76656400000000000000000000000000600082015250565b60006125ff601383611dd5565b915061260a826125c9565b602082019050919050565b6000602082019050818103600083015261262e816125f2565b9050919050565b600060608201905061264a6000830186611e85565b6126576020830185611e85565b6126646040830184611d6c565b949350505050565b60008151905061267b81611f9b565b92915050565b60006020828403121561269757612696611cd2565b5b60006126a58482850161266c565b91505092915050565b60006040820190506126c36000830185611e85565b6126d06020830184611d6c565b9392505050565b60006080820190506126ec6000830187611e85565b6126f96020830186611d6c565b6127066040830185611e85565b612713606083018461231f565b95945050505050565b600064ffffffffff82169050919050565b6127368161271c565b811461274157600080fd5b50565b6000815190506127538161272d565b92915050565b6000806000806000806000806000806101408b8d03121561277d5761277c611cd2565b5b600061278b8d828e016121e5565b9a5050602061279c8d828e016121e5565b99505060406127ad8d828e016121e5565b98505060606127be8d828e016121e5565b97505060806127cf8d828e016121e5565b96505060a06127e08d828e016121e5565b95505060c06127f18d828e016121e5565b94505060e06128028d828e016121e5565b9350506101006128148d828e016121e5565b9250506101206128268d828e01612744565b9150509295989b9194979a5092959850565b7f616d6f756e74206d757374206578636565642030000000000000000000000000600082015250565b600061286e601483611dd5565b915061287982612838565b602082019050919050565b6000602082019050818103600083015261289d81612861565b9050919050565b7f6e6f2066756e6473206465706f736974656420666f722073656c65637465642060008201527f746f6b656e000000000000000000000000000000000000000000000000000000602082015250565b6000612900602583611dd5565b915061290b826128a4565b604082019050919050565b6000602082019050818103600083015261292f816128f3565b9050919050565b7f646f6e6174696f6e2063616e6e6f74206578636565642077697468647261776160008201527f6c20616d6f756e74000000000000000000000000000000000000000000000000602082015250565b6000612992602883611dd5565b915061299d82612936565b604082019050919050565b600060208201905081810360008301526129c181612985565b9050919050565b60006080820190506129dd6000830187611e85565b6129ea6020830186611d6c565b6129f76040830185611d6c565b612a046060830184611e85565b95945050505050565b600060a082019050612a226000830188611e85565b612a2f6020830187611e85565b612a3c6040830186611d6c565b612a496060830185611d6c565b612a566080830184611d6c565b9695505050505050565b600060a082019050612a756000830188611e85565b612a826020830187611d6c565b612a8f6040830186611d6c565b612a9c6060830185611d6c565b612aa96080830184611e85565b969550505050505056fea2646970667358221220927feb0c0c692e9948a8db5c5976480585fecf295d680874e768cd96e9ad1b9c64736f6c63430008090033",
  "immutableReferences": {},
  "source": "// SPDX-License-Identifier: MIT\npragma solidity 0.8.9;\n\nimport { IERC20, ILendingPool, ILendingPoolAddressesProvider, IPoolTracker, IProtocolDataProvider, IWETHGateway} from './Interfaces.sol';\nimport { SafeERC20 } from './Libraries.sol';\n\n/**\n * This is a proof of concept starter contract, showing how uncollaterised loans are possible\n * using Aave v2 credit delegation.\n * This example supports stable interest rate borrows.\n * It is not production ready (!). User permissions and user accounting of loans should be implemented.\n * See @dev comments\n */\n\ncontract JustCausePool {\n    mapping(address => mapping(address => uint256)) private depositors;\n    mapping(address => uint256) private totalDeposits;\n    mapping(address => uint256) private interestWithdrawn;\n\n    IPoolTracker poolTracker;\n\n    ILendingPoolAddressesProvider provider;\n    ILendingPool lendingPool;\n    IProtocolDataProvider constant dataProvider = IProtocolDataProvider(address(0x3c73A5E5785cAC854D468F727c606C07488a29D6)); // Kovan\n    IWETHGateway constant wethGateway = IWETHGateway(address(0xA61ca04DF33B72b235a8A28CfB535bb7A5271B70)); //Kovan\n\n    address[] acceptedTokens;\n\n    event Deposit(address tokenAddress, address depositor, uint256 amount, uint256 totalDeposits);\n    event Withdraw(address tokenAddress, address depositor, uint256 amount, uint256 userDeposits, uint256 donation);\n    event WithdrawDonations(address tokenAddress, address depositor, uint256 amount, uint256 totalDeposits, address aTokenAddress);\n    event BalanceOf(address FROM, uint256 AMOUNT, uint256 BALANCE);\n    event GetLPAddress(address addr);\n    event SeeAllowance(uint256 allowance);\n    event GetPoolTracker(address test);\n    address owner;\n    address receiver;\n    string name;\n    string about;\n\n    modifier onlyAllowedTokens(address _tokenAddr){\n        bool isAccepted;\n        for (uint8 i = 0; i < acceptedTokens.length; i++){\n            if(_tokenAddr == acceptedTokens[i]){\n                isAccepted = true;\n                break;\n            }\n        }\n        require(isAccepted, \"submitted token address is not accepted by pool\");\n        _;\n    }\n\n    modifier enoughFunds(address _userAddr, address _tokenAddr, uint256 _amount, uint256 _donation) {\n        require(_amount > 0, \"amount must exceed 0\");\n        require(depositors[_userAddr][_tokenAddr]  >= _amount, \"no funds deposited for selected token\");\n        require(_amount >= _donation, \"donation cannot exceed withdrawal amount\");\n        _;\n    }\n\n    modifier onlyReceiver(address _requestAddr){\n        require(receiver == _requestAddr, \"you are not the current reciever for this pool\");\n        _;\n    }\n\n    modifier strLength(string memory _str, uint8 _limit ){\n        bytes memory strBytes = bytes(_str);\n        require(strBytes.length < _limit, \"string over character limit\");\n        _;\n    }\n\n    constructor (address[] memory _acceptedTokens, string memory _name, string memory _about, address _poolTrackerAddr, address _receiver) strLength(_name, 30) strLength(_about, 200) {\n            owner = msg.sender;\n            receiver = _receiver;\n            name = _name;\n            about = _about;\n            provider = ILendingPoolAddressesProvider(address(0x88757f2f99175387aB4C6a4b3067c77A695b0349));\n            address lendingPoolAddr = provider.getLendingPool();\n            lendingPool = ILendingPool(lendingPoolAddr); // Kovan\n            acceptedTokens = _acceptedTokens;\n\n            poolTracker = IPoolTracker(address(_poolTrackerAddr));\n            emit GetPoolTracker(poolTracker.getAddressFromName(name));\n            poolTracker.addVerifiedPools(address(this), owner, _name);\n    }\n\n    function deposit(address _assetAddress, uint256 _amount) onlyAllowedTokens(_assetAddress) public {\n        IERC20 token = IERC20(_assetAddress);\n        require(token.allowance(msg.sender, address(this)) >= _amount, \"sender not approved\");\n        token.transferFrom(msg.sender, address(this), _amount);\n        address poolAddr = address(lendingPool);\n        token.approve(poolAddr, _amount);\n        lendingPool.deposit(address(token), _amount, address(this), 0);\n        tallyDeposit(_amount, _assetAddress);\n    }\n\n    function depositETH(address _wethAddress) public payable {\n        address poolAddr = address(lendingPool);\n        wethGateway.depositETH{value: msg.value}(poolAddr, address(this), 0);\n        tallyDeposit(msg.value, _wethAddress);\n    }\n\n    function tallyDeposit(uint256 _amount, address _assetAddress) internal {\n        uint256 depositedAmount = depositors[msg.sender][_assetAddress];\n         uint256 liquidityIndex = getAaveLiquidityIndex(_assetAddress);\n        //if(depositedAmount == 0){\n            poolTracker.addDeposit(msg.sender, _amount, liquidityIndex, block.timestamp, _assetAddress);\n        //}\n        depositedAmount += _amount;\n        totalDeposits[_assetAddress] += _amount;\n        depositors[msg.sender][_assetAddress] = depositedAmount;\n    }\n\n    function withdraw(address _assetAddress, uint256 _amount, uint256 _donation) enoughFunds(msg.sender, _assetAddress, _amount, _donation) public {\n        address poolAddr = address(lendingPool);\n        if(_donation != 0){\n            uint256 newAmount = _amount - _donation;\n            lendingPool.withdraw(_assetAddress, _donation, receiver);\n            if(newAmount != 0)\n                lendingPool.withdraw(_assetAddress, newAmount, msg.sender);\n        }\n        else\n            lendingPool.withdraw(_assetAddress, _amount, msg.sender);\n\n        depositors[msg.sender][_assetAddress] -= _amount;\n        totalDeposits[_assetAddress] -= _amount;\n\n        //if(depositors[msg.sender][_assetAddress] == 0){\n            poolTracker.withdrawDeposit(msg.sender, _amount, block.timestamp, _assetAddress);\n        //}\n        emit Withdraw(_assetAddress, msg.sender, _amount, depositors[msg.sender][_assetAddress], _donation);\n    }\n\n    function withdrawDonations(address _assetAddress, bool _isETH) onlyAllowedTokens(_assetAddress) public{\n        (address aTokenAddress,,) = dataProvider.getReserveTokensAddresses(_assetAddress);\n\n        uint256 aTokenBalance = IERC20(aTokenAddress).balanceOf(address(this));\n        uint256 interestEarned = aTokenBalance - totalDeposits[_assetAddress];\n        interestWithdrawn[_assetAddress] += interestEarned;\n        lendingPool.withdraw(_assetAddress, interestEarned, receiver);\n        emit WithdrawDonations(_assetAddress, receiver, interestEarned, totalDeposits[_assetAddress], aTokenAddress);\n    }\n\n    function getUserBalance(address _userAddr, address _token) external view returns(uint256){\n        return depositors[_userAddr][_token];\n    }\n\n    function getTotalDeposits(address _token) external view returns(uint256){\n        return totalDeposits[_token];\n    }\n\n    function getAcceptedTokens() external view returns(address[] memory){\n        return acceptedTokens;\n    }\n\n    function getName() external view returns(string memory){\n        return name;\n    }\n\n    function getAbout() external view returns(string memory){\n        return about;\n    }\n\n    function getATokenAddress(address _assetAddress) external view returns(address){\n        (address aTokenAddress,,) = dataProvider.getReserveTokensAddresses(_assetAddress);\n        return aTokenAddress;\n    }\n\n    function getUnclaimedInterest(address _assetAddress) external view returns (uint256){\n        (address aTokenAddress,,) = dataProvider.getReserveTokensAddresses(_assetAddress);\n            uint256 aTokenBalance = IERC20(aTokenAddress).balanceOf(address(this));\n            return aTokenBalance - totalDeposits[_assetAddress];\n    }\n\n    function getClaimedInterest(address _assetAddress) external view returns (uint256){\n        return interestWithdrawn[_assetAddress];\n    }\n\n    function getATokenBalance(address _assetAddress) external view returns (uint256){\n        (address aTokenAddress,,) = dataProvider.getReserveTokensAddresses(_assetAddress);\n        return IERC20(aTokenAddress).balanceOf(address(this));\n    }\n\n    function getRecipient() external view returns(address){\n        return receiver;\n    }\n\n    function getByteCode() external view returns(bytes memory) {\n        return address(this).code;\n    }\n\n    function getHashByteCode() public view returns(bytes32) {\n        return keccak256(abi.encodePacked(address(this).code));\n    }\n\n    function getAaveLiquidityIndex(address _asset) public view returns(uint256 liquidityIndex){\n        (,,,,,,,liquidityIndex,,) = dataProvider.getReserveData(_asset);\n    }\n}",
  "sourcePath": "/home/smeee/just_cause/contracts/JustCausePool.sol",
  "compiler": {
    "name": "solc",
    "version": "0.8.9+commit.e5eed63a.Emscripten.clang"
  },
  "schemaVersion": "3.4.3",
  "updatedAt": "2022-01-20T04:39:29.904Z",
  "devdoc": {
    "details": "comments",
    "kind": "dev",
    "methods": {},
    "version": 1
  },
  "userdoc": {
    "kind": "user",
    "methods": {},
    "notice": "This is a proof of concept starter contract, showing how uncollaterised loans are possible using Aave v2 credit delegation. This example supports stable interest rate borrows. It is not production ready (!). User permissions and user accounting of loans should be implemented.",
    "version": 1
  }
}