{
  "contractName": "JustCausePool",
  "abi": [
    {
      "inputs": [
        {
          "internalType": "address[]",
          "name": "_acceptedTokens",
          "type": "address[]"
        },
        {
          "internalType": "string",
          "name": "_name",
          "type": "string"
        },
        {
          "internalType": "address",
          "name": "_poolTrackerAddr",
          "type": "address"
        },
        {
          "internalType": "address",
          "name": "_receiver",
          "type": "address"
        }
      ],
      "stateMutability": "nonpayable",
      "type": "constructor"
    },
    {
      "anonymous": false,
      "inputs": [
        {
          "indexed": false,
          "internalType": "address",
          "name": "FROM",
          "type": "address"
        },
        {
          "indexed": false,
          "internalType": "uint256",
          "name": "AMOUNT",
          "type": "uint256"
        },
        {
          "indexed": false,
          "internalType": "uint256",
          "name": "BALANCE",
          "type": "uint256"
        }
      ],
      "name": "BalanceOf",
      "type": "event"
    },
    {
      "anonymous": false,
      "inputs": [
        {
          "indexed": false,
          "internalType": "address",
          "name": "tokenAddress",
          "type": "address"
        },
        {
          "indexed": false,
          "internalType": "address",
          "name": "depositor",
          "type": "address"
        },
        {
          "indexed": false,
          "internalType": "uint256",
          "name": "amount",
          "type": "uint256"
        },
        {
          "indexed": false,
          "internalType": "uint256",
          "name": "totalDeposits",
          "type": "uint256"
        }
      ],
      "name": "Deposit",
      "type": "event"
    },
    {
      "anonymous": false,
      "inputs": [
        {
          "indexed": false,
          "internalType": "address",
          "name": "addr",
          "type": "address"
        }
      ],
      "name": "GetLPAddress",
      "type": "event"
    },
    {
      "anonymous": false,
      "inputs": [
        {
          "indexed": false,
          "internalType": "address",
          "name": "test",
          "type": "address"
        }
      ],
      "name": "GetPoolTracker",
      "type": "event"
    },
    {
      "anonymous": false,
      "inputs": [
        {
          "indexed": false,
          "internalType": "uint256",
          "name": "allowance",
          "type": "uint256"
        }
      ],
      "name": "SeeAllowance",
      "type": "event"
    },
    {
      "anonymous": false,
      "inputs": [
        {
          "indexed": false,
          "internalType": "address",
          "name": "tokenAddress",
          "type": "address"
        },
        {
          "indexed": false,
          "internalType": "address",
          "name": "depositor",
          "type": "address"
        },
        {
          "indexed": false,
          "internalType": "uint256",
          "name": "amount",
          "type": "uint256"
        },
        {
          "indexed": false,
          "internalType": "uint256",
          "name": "userDeposits",
          "type": "uint256"
        },
        {
          "indexed": false,
          "internalType": "uint256",
          "name": "donation",
          "type": "uint256"
        }
      ],
      "name": "Withdraw",
      "type": "event"
    },
    {
      "anonymous": false,
      "inputs": [
        {
          "indexed": false,
          "internalType": "address",
          "name": "tokenAddress",
          "type": "address"
        },
        {
          "indexed": false,
          "internalType": "address",
          "name": "depositor",
          "type": "address"
        },
        {
          "indexed": false,
          "internalType": "uint256",
          "name": "amount",
          "type": "uint256"
        },
        {
          "indexed": false,
          "internalType": "uint256",
          "name": "totalDeposits",
          "type": "uint256"
        },
        {
          "indexed": false,
          "internalType": "address",
          "name": "aTokenAddress",
          "type": "address"
        }
      ],
      "name": "WithdrawDonations",
      "type": "event"
    },
    {
      "inputs": [
        {
          "internalType": "address",
          "name": "_assetAddress",
          "type": "address"
        },
        {
          "internalType": "uint256",
          "name": "_amount",
          "type": "uint256"
        }
      ],
      "name": "deposit",
      "outputs": [],
      "stateMutability": "nonpayable",
      "type": "function"
    },
    {
      "inputs": [
        {
          "internalType": "address",
          "name": "_assetAddress",
          "type": "address"
        },
        {
          "internalType": "uint256",
          "name": "_amount",
          "type": "uint256"
        },
        {
          "internalType": "uint256",
          "name": "_donation",
          "type": "uint256"
        }
      ],
      "name": "withdraw",
      "outputs": [],
      "stateMutability": "nonpayable",
      "type": "function"
    },
    {
      "inputs": [
        {
          "internalType": "address",
          "name": "_userAddr",
          "type": "address"
        },
        {
          "internalType": "address",
          "name": "_token",
          "type": "address"
        }
      ],
      "name": "getUserBalance",
      "outputs": [
        {
          "internalType": "uint256",
          "name": "",
          "type": "uint256"
        }
      ],
      "stateMutability": "view",
      "type": "function"
    },
    {
      "inputs": [
        {
          "internalType": "address",
          "name": "_token",
          "type": "address"
        }
      ],
      "name": "getTotalDeposits",
      "outputs": [
        {
          "internalType": "uint256",
          "name": "",
          "type": "uint256"
        }
      ],
      "stateMutability": "view",
      "type": "function"
    },
    {
      "inputs": [],
      "name": "getAcceptedTokens",
      "outputs": [
        {
          "internalType": "address[]",
          "name": "",
          "type": "address[]"
        }
      ],
      "stateMutability": "view",
      "type": "function"
    },
    {
      "inputs": [],
      "name": "getName",
      "outputs": [
        {
          "internalType": "string",
          "name": "",
          "type": "string"
        }
      ],
      "stateMutability": "view",
      "type": "function"
    },
    {
      "inputs": [
        {
          "internalType": "address",
          "name": "_assetAddress",
          "type": "address"
        }
      ],
      "name": "getATokenAddress",
      "outputs": [
        {
          "internalType": "address",
          "name": "",
          "type": "address"
        }
      ],
      "stateMutability": "view",
      "type": "function"
    },
    {
      "inputs": [
        {
          "internalType": "address",
          "name": "_assetAddress",
          "type": "address"
        }
      ],
      "name": "getUnclaimedInterest",
      "outputs": [
        {
          "internalType": "uint256",
          "name": "",
          "type": "uint256"
        }
      ],
      "stateMutability": "view",
      "type": "function"
    },
    {
      "inputs": [
        {
          "internalType": "address",
          "name": "_assetAddress",
          "type": "address"
        }
      ],
      "name": "getClaimedInterest",
      "outputs": [
        {
          "internalType": "uint256",
          "name": "",
          "type": "uint256"
        }
      ],
      "stateMutability": "view",
      "type": "function"
    },
    {
      "inputs": [
        {
          "internalType": "address",
          "name": "_assetAddress",
          "type": "address"
        }
      ],
      "name": "getATokenBalance",
      "outputs": [
        {
          "internalType": "uint256",
          "name": "",
          "type": "uint256"
        }
      ],
      "stateMutability": "view",
      "type": "function"
    },
    {
      "inputs": [],
      "name": "getRecipient",
      "outputs": [
        {
          "internalType": "address",
          "name": "",
          "type": "address"
        }
      ],
      "stateMutability": "view",
      "type": "function"
    },
    {
      "inputs": [
        {
          "internalType": "address",
          "name": "_assetAddress",
          "type": "address"
        }
      ],
      "name": "withdrawDonations",
      "outputs": [],
      "stateMutability": "nonpayable",
      "type": "function"
    }
  ],
  "bytecode": "0x60806040527388757f2f99175387ab4c6a4b3067c77a695b0349600460006101000a81548173ffffffffffffffffffffffffffffffffffffffff021916908373ffffffffffffffffffffffffffffffffffffffff160217905550600460009054906101000a900473ffffffffffffffffffffffffffffffffffffffff1673ffffffffffffffffffffffffffffffffffffffff16630261bf8b6040518163ffffffff1660e01b815260040160206040518083038186803b158015620000c257600080fd5b505afa158015620000d7573d6000803e3d6000fd5b505050506040513d601f19601f82011682018060405250810190620000fd9190620007c7565b600560006101000a81548173ffffffffffffffffffffffffffffffffffffffff021916908373ffffffffffffffffffffffffffffffffffffffff160217905550600560009054906101000a900473ffffffffffffffffffffffffffffffffffffffff16600660006101000a81548173ffffffffffffffffffffffffffffffffffffffff021916908373ffffffffffffffffffffffffffffffffffffffff160217905550348015620001ad57600080fd5b50604051620030b8380380620030b88339818101604052810190620001d3919062000a5d565b33600860006101000a81548173ffffffffffffffffffffffffffffffffffffffff021916908373ffffffffffffffffffffffffffffffffffffffff16021790555080600960006101000a81548173ffffffffffffffffffffffffffffffffffffffff021916908373ffffffffffffffffffffffffffffffffffffffff16021790555082600a90805190602001906200026d9291906200060f565b507388757f2f99175387ab4c6a4b3067c77a695b0349600460006101000a81548173ffffffffffffffffffffffffffffffffffffffff021916908373ffffffffffffffffffffffffffffffffffffffff160217905550600460009054906101000a900473ffffffffffffffffffffffffffffffffffffffff1673ffffffffffffffffffffffffffffffffffffffff16630261bf8b6040518163ffffffff1660e01b815260040160206040518083038186803b1580156200032c57600080fd5b505afa15801562000341573d6000803e3d6000fd5b505050506040513d601f19601f82011682018060405250810190620003679190620007c7565b600560006101000a81548173ffffffffffffffffffffffffffffffffffffffff021916908373ffffffffffffffffffffffffffffffffffffffff160217905550600560009054906101000a900473ffffffffffffffffffffffffffffffffffffffff16600660006101000a81548173ffffffffffffffffffffffffffffffffffffffff021916908373ffffffffffffffffffffffffffffffffffffffff160217905550836007908051906020019062000422929190620006a0565b5081600360006101000a81548173ffffffffffffffffffffffffffffffffffffffff021916908373ffffffffffffffffffffffffffffffffffffffff1602179055507f36ac3f21e23b63ede25b34d24a735e877430bc3884df25935f44448497e1e922600360009054906101000a900473ffffffffffffffffffffffffffffffffffffffff1673ffffffffffffffffffffffffffffffffffffffff16638e61514e600a6040518263ffffffff1660e01b8152600401620004e3919062000c24565b60206040518083038186803b158015620004fc57600080fd5b505afa15801562000511573d6000803e3d6000fd5b505050506040513d601f19601f82011682018060405250810190620005379190620007c7565b60405162000546919062000c59565b60405180910390a1600360009054906101000a900473ffffffffffffffffffffffffffffffffffffffff1673ffffffffffffffffffffffffffffffffffffffff166345cdf64230600860009054906101000a900473ffffffffffffffffffffffffffffffffffffffff16866040518463ffffffff1660e01b8152600401620005d19392919062000cc2565b600060405180830381600087803b158015620005ec57600080fd5b505af115801562000601573d6000803e3d6000fd5b505050505050505062000d06565b8280546200061d9062000b3c565b90600052602060002090601f0160209004810192826200064157600085556200068d565b82601f106200065c57805160ff19168380011785556200068d565b828001600101855582156200068d579182015b828111156200068c5782518255916020019190600101906200066f565b5b5090506200069c91906200072f565b5090565b8280548282559060005260206000209081019282156200071c579160200282015b828111156200071b5782518260006101000a81548173ffffffffffffffffffffffffffffffffffffffff021916908373ffffffffffffffffffffffffffffffffffffffff16021790555091602001919060010190620006c1565b5b5090506200072b91906200072f565b5090565b5b808211156200074a57600081600090555060010162000730565b5090565b6000604051905090565b600080fd5b600080fd5b600073ffffffffffffffffffffffffffffffffffffffff82169050919050565b60006200078f8262000762565b9050919050565b620007a18162000782565b8114620007ad57600080fd5b50565b600081519050620007c18162000796565b92915050565b600060208284031215620007e057620007df62000758565b5b6000620007f084828501620007b0565b91505092915050565b600080fd5b6000601f19601f8301169050919050565b7f4e487b7100000000000000000000000000000000000000000000000000000000600052604160045260246000fd5b6200084982620007fe565b810181811067ffffffffffffffff821117156200086b576200086a6200080f565b5b80604052505050565b6000620008806200074e565b90506200088e82826200083e565b919050565b600067ffffffffffffffff821115620008b157620008b06200080f565b5b602082029050602081019050919050565b600080fd5b6000620008de620008d88462000893565b62000874565b90508083825260208201905060208402830185811115620009045762000903620008c2565b5b835b818110156200093157806200091c8882620007b0565b84526020840193505060208101905062000906565b5050509392505050565b600082601f830112620009535762000952620007f9565b5b815162000965848260208601620008c7565b91505092915050565b600080fd5b600067ffffffffffffffff8211156200099157620009906200080f565b5b6200099c82620007fe565b9050602081019050919050565b60005b83811015620009c9578082015181840152602081019050620009ac565b83811115620009d9576000848401525b50505050565b6000620009f6620009f08462000973565b62000874565b90508281526020810184848401111562000a155762000a146200096e565b5b62000a22848285620009a9565b509392505050565b600082601f83011262000a425762000a41620007f9565b5b815162000a54848260208601620009df565b91505092915050565b6000806000806080858703121562000a7a5762000a7962000758565b5b600085015167ffffffffffffffff81111562000a9b5762000a9a6200075d565b5b62000aa9878288016200093b565b945050602085015167ffffffffffffffff81111562000acd5762000acc6200075d565b5b62000adb8782880162000a2a565b935050604062000aee87828801620007b0565b925050606062000b0187828801620007b0565b91505092959194509250565b7f4e487b7100000000000000000000000000000000000000000000000000000000600052602260045260246000fd5b6000600282049050600182168062000b5557607f821691505b6020821081141562000b6c5762000b6b62000b0d565b5b50919050565b600082825260208201905092915050565b60008190508160005260206000209050919050565b6000815462000ba78162000b3c565b62000bb3818662000b72565b9450600182166000811462000bd1576001811462000be45762000c1b565b60ff198316865260208601935062000c1b565b62000bef8562000b83565b60005b8381101562000c135781548189015260018201915060208101905062000bf2565b808801955050505b50505092915050565b6000602082019050818103600083015262000c40818462000b98565b905092915050565b62000c538162000782565b82525050565b600060208201905062000c70600083018462000c48565b92915050565b600081519050919050565b600062000c8e8262000c76565b62000c9a818562000b72565b935062000cac818560208601620009a9565b62000cb781620007fe565b840191505092915050565b600060608201905062000cd9600083018662000c48565b62000ce8602083018562000c48565b818103604083015262000cfc818462000c81565b9050949350505050565b6123a28062000d166000396000f3fe608060405234801561001057600080fd5b50600436106100b45760003560e01c806347e7ef241161007157806347e7ef24146101a35780635ff189b9146101bf5780636805d6ad146101ef578063711cc0051461021f578063a56f5b531461024f578063b5c5f6721461026b576100b4565b80630251cfa1146100b95780630712f6b3146100e957806317d7de7c146101195780631b88094d146101375780632f757006146101555780633735ef8814610173575b600080fd5b6100d360048036038101906100ce91906118e7565b610287565b6040516100e0919061192d565b60405180910390f35b61010360048036038101906100fe91906118e7565b6102d0565b604051610110919061192d565b60405180910390f35b610121610405565b60405161012e91906119e1565b60405180910390f35b61013f610497565b60405161014c9190611a12565b60405180910390f35b61015d6104c1565b60405161016a9190611aeb565b60405180910390f35b61018d600480360381019061018891906118e7565b61054f565b60405161019a919061192d565b60405180910390f35b6101bd60048036038101906101b89190611b39565b6106d4565b005b6101d960048036038101906101d491906118e7565b610c65565b6040516101e6919061192d565b60405180910390f35b61020960048036038101906102049190611b79565b610cae565b604051610216919061192d565b60405180910390f35b610239600480360381019061023491906118e7565b610d34565b6040516102469190611a12565b60405180910390f35b610269600480360381019061026491906118e7565b610de1565b005b61028560048036038101906102809190611bb9565b61121d565b005b6000600160008373ffffffffffffffffffffffffffffffffffffffff1673ffffffffffffffffffffffffffffffffffffffff168152602001908152602001600020549050919050565b600080733c73a5e5785cac854d468f727c606c07488a29d673ffffffffffffffffffffffffffffffffffffffff1663d2493b6c846040518263ffffffff1660e01b81526004016103209190611a12565b60606040518083038186803b15801561033857600080fd5b505afa15801561034c573d6000803e3d6000fd5b505050506040513d601f19601f820116820180604052508101906103709190611c21565b505090508073ffffffffffffffffffffffffffffffffffffffff166370a08231306040518263ffffffff1660e01b81526004016103ad9190611a12565b60206040518083038186803b1580156103c557600080fd5b505afa1580156103d9573d6000803e3d6000fd5b505050506040513d601f19601f820116820180604052508101906103fd9190611c89565b915050919050565b6060600a805461041490611ce5565b80601f016020809104026020016040519081016040528092919081815260200182805461044090611ce5565b801561048d5780601f106104625761010080835404028352916020019161048d565b820191906000526020600020905b81548152906001019060200180831161047057829003601f168201915b5050505050905090565b6000600960009054906101000a900473ffffffffffffffffffffffffffffffffffffffff16905090565b6060600780548060200260200160405190810160405280929190818152602001828054801561054557602002820191906000526020600020905b8160009054906101000a900473ffffffffffffffffffffffffffffffffffffffff1673ffffffffffffffffffffffffffffffffffffffff16815260200190600101908083116104fb575b5050505050905090565b600080733c73a5e5785cac854d468f727c606c07488a29d673ffffffffffffffffffffffffffffffffffffffff1663d2493b6c846040518263ffffffff1660e01b815260040161059f9190611a12565b60606040518083038186803b1580156105b757600080fd5b505afa1580156105cb573d6000803e3d6000fd5b505050506040513d601f19601f820116820180604052508101906105ef9190611c21565b5050905060008173ffffffffffffffffffffffffffffffffffffffff166370a08231306040518263ffffffff1660e01b815260040161062e9190611a12565b60206040518083038186803b15801561064657600080fd5b505afa15801561065a573d6000803e3d6000fd5b505050506040513d601f19601f8201168201806040525081019061067e9190611c89565b9050600160008573ffffffffffffffffffffffffffffffffffffffff1673ffffffffffffffffffffffffffffffffffffffff16815260200190815260200160002054816106cb9190611d46565b92505050919050565b81600080600090505b6007805490508160ff16101561077e5760078160ff168154811061070457610703611d7a565b5b9060005260206000200160009054906101000a900473ffffffffffffffffffffffffffffffffffffffff1673ffffffffffffffffffffffffffffffffffffffff168373ffffffffffffffffffffffffffffffffffffffff16141561076b576001915061077e565b808061077690611db6565b9150506106dd565b50806107bf576040517f08c379a00000000000000000000000000000000000000000000000000000000081526004016107b690611e52565b60405180910390fd5b6000849050838173ffffffffffffffffffffffffffffffffffffffff1663dd62ed3e33306040518363ffffffff1660e01b8152600401610800929190611e72565b60206040518083038186803b15801561081857600080fd5b505afa15801561082c573d6000803e3d6000fd5b505050506040513d601f19601f820116820180604052508101906108509190611c89565b1015610891576040517f08c379a000000000000000000000000000000000000000000000000000000000815260040161088890611ee7565b60405180910390fd5b8073ffffffffffffffffffffffffffffffffffffffff166323b872dd3330876040518463ffffffff1660e01b81526004016108ce93929190611f07565b602060405180830381600087803b1580156108e857600080fd5b505af11580156108fc573d6000803e3d6000fd5b505050506040513d601f19601f820116820180604052508101906109209190611f76565b506000600660009054906101000a900473ffffffffffffffffffffffffffffffffffffffff1690508173ffffffffffffffffffffffffffffffffffffffff1663095ea7b382876040518363ffffffff1660e01b8152600401610983929190611fa3565b602060405180830381600087803b15801561099d57600080fd5b505af11580156109b1573d6000803e3d6000fd5b505050506040513d601f19601f820116820180604052508101906109d59190611f76565b50600660009054906101000a900473ffffffffffffffffffffffffffffffffffffffff1673ffffffffffffffffffffffffffffffffffffffff1663e8eda9df83873060006040518563ffffffff1660e01b8152600401610a38949392919061201f565b600060405180830381600087803b158015610a5257600080fd5b505af1158015610a66573d6000803e3d6000fd5b50505050846000803373ffffffffffffffffffffffffffffffffffffffff1673ffffffffffffffffffffffffffffffffffffffff16815260200190815260200160002060008873ffffffffffffffffffffffffffffffffffffffff1673ffffffffffffffffffffffffffffffffffffffff1681526020019081526020016000206000828254610af59190612064565b92505081905550600360009054906101000a900473ffffffffffffffffffffffffffffffffffffffff1673ffffffffffffffffffffffffffffffffffffffff16632f1c563e33306040518363ffffffff1660e01b8152600401610b59929190611e72565b600060405180830381600087803b158015610b7357600080fd5b505af1158015610b87573d6000803e3d6000fd5b5050505084600160008873ffffffffffffffffffffffffffffffffffffffff1673ffffffffffffffffffffffffffffffffffffffff1681526020019081526020016000206000828254610bda9190612064565b925050819055507fdcbc1c05240f31ff3ad067ef1ee35ce4997762752e3a095284754544f4c709d7823387600160008b73ffffffffffffffffffffffffffffffffffffffff1673ffffffffffffffffffffffffffffffffffffffff16815260200190815260200160002054604051610c5594939291906120ba565b60405180910390a1505050505050565b6000600260008373ffffffffffffffffffffffffffffffffffffffff1673ffffffffffffffffffffffffffffffffffffffff168152602001908152602001600020549050919050565b60008060008473ffffffffffffffffffffffffffffffffffffffff1673ffffffffffffffffffffffffffffffffffffffff16815260200190815260200160002060008373ffffffffffffffffffffffffffffffffffffffff1673ffffffffffffffffffffffffffffffffffffffff16815260200190815260200160002054905092915050565b600080733c73a5e5785cac854d468f727c606c07488a29d673ffffffffffffffffffffffffffffffffffffffff1663d2493b6c846040518263ffffffff1660e01b8152600401610d849190611a12565b60606040518083038186803b158015610d9c57600080fd5b505afa158015610db0573d6000803e3d6000fd5b505050506040513d601f19601f82011682018060405250810190610dd49190611c21565b5050905080915050919050565b80600080600090505b6007805490508160ff161015610e8b5760078160ff1681548110610e1157610e10611d7a565b5b9060005260206000200160009054906101000a900473ffffffffffffffffffffffffffffffffffffffff1673ffffffffffffffffffffffffffffffffffffffff168373ffffffffffffffffffffffffffffffffffffffff161415610e785760019150610e8b565b8080610e8390611db6565b915050610dea565b5080610ecc576040517f08c379a0000000000000000000000000000000000000000000000000000000008152600401610ec390611e52565b60405180910390fd5b6000733c73a5e5785cac854d468f727c606c07488a29d673ffffffffffffffffffffffffffffffffffffffff1663d2493b6c856040518263ffffffff1660e01b8152600401610f1b9190611a12565b60606040518083038186803b158015610f3357600080fd5b505afa158015610f47573d6000803e3d6000fd5b505050506040513d601f19601f82011682018060405250810190610f6b9190611c21565b5050905060008173ffffffffffffffffffffffffffffffffffffffff166370a08231306040518263ffffffff1660e01b8152600401610faa9190611a12565b60206040518083038186803b158015610fc257600080fd5b505afa158015610fd6573d6000803e3d6000fd5b505050506040513d601f19601f82011682018060405250810190610ffa9190611c89565b90506000600160008773ffffffffffffffffffffffffffffffffffffffff1673ffffffffffffffffffffffffffffffffffffffff16815260200190815260200160002054826110499190611d46565b905080600260008873ffffffffffffffffffffffffffffffffffffffff1673ffffffffffffffffffffffffffffffffffffffff168152602001908152602001600020600082825461109a9190612064565b92505081905550600660009054906101000a900473ffffffffffffffffffffffffffffffffffffffff1673ffffffffffffffffffffffffffffffffffffffff166369328dec8783600860009054906101000a900473ffffffffffffffffffffffffffffffffffffffff166040518463ffffffff1660e01b8152600401611122939291906120ff565b602060405180830381600087803b15801561113c57600080fd5b505af1158015611150573d6000803e3d6000fd5b505050506040513d601f19601f820116820180604052508101906111749190611c89565b507ffb42c6fc06609281806d5b0ad4bd7b7bb222a7ac7fa9e5211fa7ac032fa491ae86600860009054906101000a900473ffffffffffffffffffffffffffffffffffffffff1683600160008b73ffffffffffffffffffffffffffffffffffffffff1673ffffffffffffffffffffffffffffffffffffffff168152602001908152602001600020548760405161120d959493929190612136565b60405180910390a1505050505050565b3383838360008211611264576040517f08c379a000000000000000000000000000000000000000000000000000000000815260040161125b906121d5565b60405180910390fd5b816000808673ffffffffffffffffffffffffffffffffffffffff1673ffffffffffffffffffffffffffffffffffffffff16815260200190815260200160002060008573ffffffffffffffffffffffffffffffffffffffff1673ffffffffffffffffffffffffffffffffffffffff168152602001908152602001600020541015611322576040517f08c379a000000000000000000000000000000000000000000000000000000000815260040161131990612267565b60405180910390fd5b80821015611365576040517f08c379a000000000000000000000000000000000000000000000000000000000815260040161135c906122f9565b60405180910390fd5b60008514611512576000858761137b9190611d46565b9050600660009054906101000a900473ffffffffffffffffffffffffffffffffffffffff1673ffffffffffffffffffffffffffffffffffffffff166369328dec8988600960009054906101000a900473ffffffffffffffffffffffffffffffffffffffff166040518463ffffffff1660e01b81526004016113fe939291906120ff565b602060405180830381600087803b15801561141857600080fd5b505af115801561142c573d6000803e3d6000fd5b505050506040513d601f19601f820116820180604052508101906114509190611c89565b506000811461150c57600660009054906101000a900473ffffffffffffffffffffffffffffffffffffffff1673ffffffffffffffffffffffffffffffffffffffff166369328dec8983336040518463ffffffff1660e01b81526004016114b8939291906120ff565b602060405180830381600087803b1580156114d257600080fd5b505af11580156114e6573d6000803e3d6000fd5b505050506040513d601f19601f8201168201806040525081019061150a9190611c89565b505b506115c5565b600660009054906101000a900473ffffffffffffffffffffffffffffffffffffffff1673ffffffffffffffffffffffffffffffffffffffff166369328dec8888336040518463ffffffff1660e01b8152600401611571939291906120ff565b602060405180830381600087803b15801561158b57600080fd5b505af115801561159f573d6000803e3d6000fd5b505050506040513d601f19601f820116820180604052508101906115c39190611c89565b505b856000803373ffffffffffffffffffffffffffffffffffffffff1673ffffffffffffffffffffffffffffffffffffffff16815260200190815260200160002060008973ffffffffffffffffffffffffffffffffffffffff1673ffffffffffffffffffffffffffffffffffffffff16815260200190815260200160002060008282546116509190611d46565b9250508190555085600160008973ffffffffffffffffffffffffffffffffffffffff1673ffffffffffffffffffffffffffffffffffffffff16815260200190815260200160002060008282546116a69190611d46565b9250508190555060008060003373ffffffffffffffffffffffffffffffffffffffff1673ffffffffffffffffffffffffffffffffffffffff16815260200190815260200160002060008973ffffffffffffffffffffffffffffffffffffffff1673ffffffffffffffffffffffffffffffffffffffff1681526020019081526020016000205414156117c157600360009054906101000a900473ffffffffffffffffffffffffffffffffffffffff1673ffffffffffffffffffffffffffffffffffffffff16633be273d633306040518363ffffffff1660e01b815260040161178e929190611e72565b600060405180830381600087803b1580156117a857600080fd5b505af11580156117bc573d6000803e3d6000fd5b505050505b7febff2602b3f468259e1e99f613fed6691f3a6526effe6ef3e768ba7ae7a36c4f8733886000803373ffffffffffffffffffffffffffffffffffffffff1673ffffffffffffffffffffffffffffffffffffffff16815260200190815260200160002060008c73ffffffffffffffffffffffffffffffffffffffff1673ffffffffffffffffffffffffffffffffffffffff1681526020019081526020016000205489604051611873959493929190612319565b60405180910390a150505050505050565b600080fd5b600073ffffffffffffffffffffffffffffffffffffffff82169050919050565b60006118b482611889565b9050919050565b6118c4816118a9565b81146118cf57600080fd5b50565b6000813590506118e1816118bb565b92915050565b6000602082840312156118fd576118fc611884565b5b600061190b848285016118d2565b91505092915050565b6000819050919050565b61192781611914565b82525050565b6000602082019050611942600083018461191e565b92915050565b600081519050919050565b600082825260208201905092915050565b60005b83811015611982578082015181840152602081019050611967565b83811115611991576000848401525b50505050565b6000601f19601f8301169050919050565b60006119b382611948565b6119bd8185611953565b93506119cd818560208601611964565b6119d681611997565b840191505092915050565b600060208201905081810360008301526119fb81846119a8565b905092915050565b611a0c816118a9565b82525050565b6000602082019050611a276000830184611a03565b92915050565b600081519050919050565b600082825260208201905092915050565b6000819050602082019050919050565b611a62816118a9565b82525050565b6000611a748383611a59565b60208301905092915050565b6000602082019050919050565b6000611a9882611a2d565b611aa28185611a38565b9350611aad83611a49565b8060005b83811015611ade578151611ac58882611a68565b9750611ad083611a80565b925050600181019050611ab1565b5085935050505092915050565b60006020820190508181036000830152611b058184611a8d565b905092915050565b611b1681611914565b8114611b2157600080fd5b50565b600081359050611b3381611b0d565b92915050565b60008060408385031215611b5057611b4f611884565b5b6000611b5e858286016118d2565b9250506020611b6f85828601611b24565b9150509250929050565b60008060408385031215611b9057611b8f611884565b5b6000611b9e858286016118d2565b9250506020611baf858286016118d2565b9150509250929050565b600080600060608486031215611bd257611bd1611884565b5b6000611be0868287016118d2565b9350506020611bf186828701611b24565b9250506040611c0286828701611b24565b9150509250925092565b600081519050611c1b816118bb565b92915050565b600080600060608486031215611c3a57611c39611884565b5b6000611c4886828701611c0c565b9350506020611c5986828701611c0c565b9250506040611c6a86828701611c0c565b9150509250925092565b600081519050611c8381611b0d565b92915050565b600060208284031215611c9f57611c9e611884565b5b6000611cad84828501611c74565b91505092915050565b7f4e487b7100000000000000000000000000000000000000000000000000000000600052602260045260246000fd5b60006002820490506001821680611cfd57607f821691505b60208210811415611d1157611d10611cb6565b5b50919050565b7f4e487b7100000000000000000000000000000000000000000000000000000000600052601160045260246000fd5b6000611d5182611914565b9150611d5c83611914565b925082821015611d6f57611d6e611d17565b5b828203905092915050565b7f4e487b7100000000000000000000000000000000000000000000000000000000600052603260045260246000fd5b600060ff82169050919050565b6000611dc182611da9565b915060ff821415611dd557611dd4611d17565b5b600182019050919050565b7f7375626d697474656420746f6b656e2061646472657373206973206e6f74206160008201527f6363657074656420627920706f6f6c0000000000000000000000000000000000602082015250565b6000611e3c602f83611953565b9150611e4782611de0565b604082019050919050565b60006020820190508181036000830152611e6b81611e2f565b9050919050565b6000604082019050611e876000830185611a03565b611e946020830184611a03565b9392505050565b7f73656e646572206e6f7420617070726f76656400000000000000000000000000600082015250565b6000611ed1601383611953565b9150611edc82611e9b565b602082019050919050565b60006020820190508181036000830152611f0081611ec4565b9050919050565b6000606082019050611f1c6000830186611a03565b611f296020830185611a03565b611f36604083018461191e565b949350505050565b60008115159050919050565b611f5381611f3e565b8114611f5e57600080fd5b50565b600081519050611f7081611f4a565b92915050565b600060208284031215611f8c57611f8b611884565b5b6000611f9a84828501611f61565b91505092915050565b6000604082019050611fb86000830185611a03565b611fc5602083018461191e565b9392505050565b6000819050919050565b600061ffff82169050919050565b6000819050919050565b6000612009612004611fff84611fcc565b611fe4565b611fd6565b9050919050565b61201981611fee565b82525050565b60006080820190506120346000830187611a03565b612041602083018661191e565b61204e6040830185611a03565b61205b6060830184612010565b95945050505050565b600061206f82611914565b915061207a83611914565b9250827fffffffffffffffffffffffffffffffffffffffffffffffffffffffffffffffff038211156120af576120ae611d17565b5b828201905092915050565b60006080820190506120cf6000830187611a03565b6120dc6020830186611a03565b6120e9604083018561191e565b6120f6606083018461191e565b95945050505050565b60006060820190506121146000830186611a03565b612121602083018561191e565b61212e6040830184611a03565b949350505050565b600060a08201905061214b6000830188611a03565b6121586020830187611a03565b612165604083018661191e565b612172606083018561191e565b61217f6080830184611a03565b9695505050505050565b7f616d6f756e74206d757374206578636565642030000000000000000000000000600082015250565b60006121bf601483611953565b91506121ca82612189565b602082019050919050565b600060208201905081810360008301526121ee816121b2565b9050919050565b7f6e6f2066756e6473206465706f736974656420666f722073656c65637465642060008201527f746f6b656e000000000000000000000000000000000000000000000000000000602082015250565b6000612251602583611953565b915061225c826121f5565b604082019050919050565b6000602082019050818103600083015261228081612244565b9050919050565b7f646f6e6174696f6e2063616e6e6f7420657863656564206465706f736974206160008201527f6d6f756e74000000000000000000000000000000000000000000000000000000602082015250565b60006122e3602583611953565b91506122ee82612287565b604082019050919050565b60006020820190508181036000830152612312816122d6565b9050919050565b600060a08201905061232e6000830188611a03565b61233b6020830187611a03565b612348604083018661191e565b612355606083018561191e565b612362608083018461191e565b969550505050505056fea2646970667358221220b1d01f5c35099316040d45fe65c4fc0b9b44dc8fe02283674adac10901c0b91a64736f6c63430008090033",
  "immutableReferences": {},
  "source": "// SPDX-License-Identifier: agpl-3.0\npragma solidity 0.8.9;\n\nimport { IERC20, ILendingPool, ILendingPoolAddressesProvider, IPoolTracker, IProtocolDataProvider} from './Interfaces.sol';\nimport { SafeERC20 } from './Libraries.sol';\n\n/**\n * This is a proof of concept starter contract, showing how uncollaterised loans are possible\n * using Aave v2 credit delegation.\n * This example supports stable interest rate borrows.\n * It is not production ready (!). User permissions and user accounting of loans should be implemented.\n * See @dev comments\n */\n\ncontract JustCausePool {\n    //using SafeERC20 for IERC20;\n    mapping(address => mapping(address => uint256)) private depositors;\n    mapping(address => uint256) private totalDeposits;\n    mapping(address => uint256) private interestWithdrawn;\n\n    //mapping(address => mapping(address => uint256)) public deposits;\n    IPoolTracker poolTracker;\n    //ILendingPoolAddressesProvider provider;\n    //address private kovanDAI;v\n    //ILendingPool lendingPool;\n\n    ILendingPoolAddressesProvider provider = ILendingPoolAddressesProvider(address(0x88757f2f99175387aB4C6a4b3067c77A695b0349));\n    address lendingPoolAddr = provider.getLendingPool();\n    ILendingPool lendingPool = ILendingPool(lendingPoolAddr); // Kovan\n    IProtocolDataProvider constant dataProvider = IProtocolDataProvider(address(0x3c73A5E5785cAC854D468F727c606C07488a29D6)); // Kovan\n\n    //IERC20 daiToken;\n    //uint256 amount;\n    //address lendingPoolAddr;\n    address[] acceptedTokens;\n\n    event Deposit(address tokenAddress, address depositor, uint256 amount, uint256 totalDeposits);\n    event Withdraw(address tokenAddress, address depositor, uint256 amount, uint256 userDeposits, uint256 donation);\n    event WithdrawDonations(address tokenAddress, address depositor, uint256 amount, uint256 totalDeposits, address aTokenAddress);\n    event BalanceOf(address FROM, uint256 AMOUNT, uint256 BALANCE);\n    event GetLPAddress(address addr);\n    event SeeAllowance(uint256 allowance);\n    event GetPoolTracker(address test);\n    address owner;\n    address receiver;\n    string name;\n\n    modifier onlyAllowedTokens(address _tokenAddr){\n        bool isAccepted;\n        for (uint8 i = 0; i < acceptedTokens.length; i++){\n            if(_tokenAddr == acceptedTokens[i]){\n                isAccepted = true;\n                break;\n            }\n        }\n        require(isAccepted, \"submitted token address is not accepted by pool\");\n        _;\n    }\n\n    modifier enoughFunds(address _userAddr, address _tokenAddr, uint256 _amount, uint256 _donation) {\n        require(_amount > 0, \"amount must exceed 0\");\n        require(depositors[_userAddr][_tokenAddr]  >= _amount, \"no funds deposited for selected token\");\n        require(_amount >= _donation, \"donation cannot exceed deposit amount\");\n        _;\n    }\n\n    modifier onlyReceiver(address _requestAddr){\n        require(receiver == _requestAddr, \"you are not the current reciever for this pool\");\n        _;\n    }\n\n    constructor (address[] memory _acceptedTokens, string memory _name, address _poolTrackerAddr, address _receiver) {\n        owner = msg.sender;\n        receiver = _receiver;\n        name = _name;\n        provider = ILendingPoolAddressesProvider(address(0x88757f2f99175387aB4C6a4b3067c77A695b0349));\n        lendingPoolAddr = provider.getLendingPool();\n        lendingPool = ILendingPool(lendingPoolAddr); // Kovan\n        acceptedTokens = _acceptedTokens;\n\n        poolTracker = IPoolTracker(address(_poolTrackerAddr));\n        emit GetPoolTracker(poolTracker.getAddressFromName(name));\n        poolTracker.addVerifiedPools(address(this), owner, _name);\n    }\n\n    function deposit(address _assetAddress, uint256 _amount) onlyAllowedTokens(_assetAddress) public {\n        IERC20 token = IERC20(_assetAddress);\n        require(token.allowance(msg.sender, address(this)) >= _amount, \"sender not approved\");\n        token.transferFrom(msg.sender, address(this), _amount);\n        address poolAddr = address(lendingPool);\n        token.approve(poolAddr, _amount);\n        lendingPool.deposit(address(token), _amount, address(this), 0);\n        depositors[msg.sender][_assetAddress] += _amount;\n        poolTracker.addDeposit(msg.sender, address(this));\n        totalDeposits[_assetAddress] += _amount;\n        emit Deposit(address(token), msg.sender, _amount, totalDeposits[_assetAddress]);\n    }\n\n    function withdraw(address _assetAddress, uint256 _amount, uint256 _donation) enoughFunds(msg.sender, _assetAddress, _amount, _donation) public {\n        if(_donation != 0){\n            uint256 newAmount = _amount - _donation;\n            lendingPool.withdraw(_assetAddress, _donation, receiver);\n            if(newAmount != 0)\n                lendingPool.withdraw(_assetAddress, newAmount, msg.sender);\n        }\n        else{\n            lendingPool.withdraw(_assetAddress, _amount, msg.sender);\n        }\n        depositors[msg.sender][_assetAddress] -= _amount;\n        totalDeposits[_assetAddress] -= _amount;\n\n        if(depositors[msg.sender][_assetAddress] == 0){\n            poolTracker.withdrawDeposit(msg.sender, address(this));\n        }\n        emit Withdraw(_assetAddress, msg.sender, _amount, depositors[msg.sender][_assetAddress], _donation);\n    }\n\n    function getUserBalance(address _userAddr, address _token) external view returns(uint256){\n        return depositors[_userAddr][_token];\n    }\n\n    function getTotalDeposits(address _token) external view returns(uint256){\n        return totalDeposits[_token];\n    }\n\n    function getAcceptedTokens() external view returns(address[] memory){\n        return acceptedTokens;\n    }\n\n    function getName() external view returns(string memory){\n        return name;\n    }\n\n    function getATokenAddress(address _assetAddress) external view returns(address){\n        (address aTokenAddress,,) = dataProvider.getReserveTokensAddresses(_assetAddress);\n        return aTokenAddress;\n    }\n\n    function getUnclaimedInterest(address _assetAddress) external view returns (uint256){\n        (address aTokenAddress,,) = dataProvider.getReserveTokensAddresses(_assetAddress);\n        uint256 aTokenBalance = IERC20(aTokenAddress).balanceOf(address(this));\n        return aTokenBalance - totalDeposits[_assetAddress];\n    }\n\n    function getClaimedInterest(address _assetAddress) external view returns (uint256){\n        return interestWithdrawn[_assetAddress];\n    }\n\n    function getATokenBalance(address _assetAddress) external view returns (uint256){\n        (address aTokenAddress,,) = dataProvider.getReserveTokensAddresses(_assetAddress);\n        return IERC20(aTokenAddress).balanceOf(address(this));\n    }\n\n    function getRecipient() external view returns(address){\n        return receiver;\n    }\n\n    /**\n     * Repay an uncollaterised loan\n     * @param amount The amount to repay\n     * @param asset The asset to be repaid\n     *\n     * User calling this function must have approved this contract with an allowance to transfer the tokens\n     *\n     * You should keep internal accounting of borrowers, if your contract will have multiple borrowers\n     */\n    /*function repayBorrower(uint256 amount, address asset) public {\n        IERC20(asset).safeTransferFrom(msg.sender, address(this), amount);\n        IERC20(asset).safeApprove(address(lendingPool), amount);\n        lendingPool.repay(asset, amount, 1, address(this));\n    }*/\n\n    /**\n     * Withdraw all of a collateral as the underlying asset, if no outstanding loans delegated\n     *\n     *\n     * Add permissions to this call, e.g. only the owner should be able to withdraw the collateral!\n     */\n\n    function withdrawDonations(address _assetAddress) onlyAllowedTokens(_assetAddress) public{\n        (address aTokenAddress,,) = dataProvider.getReserveTokensAddresses(_assetAddress);\n\n        uint256 aTokenBalance = IERC20(aTokenAddress).balanceOf(address(this));\n        uint256 interestEarned = aTokenBalance - totalDeposits[_assetAddress];\n        interestWithdrawn[_assetAddress] += interestEarned;\n        lendingPool.withdraw(_assetAddress, interestEarned, owner);\n        emit WithdrawDonations(_assetAddress, owner, interestEarned, totalDeposits[_assetAddress], aTokenAddress);\n    }\n}",
  "sourcePath": "/home/smeee/just_cause/contracts/JustCausePool.sol",
  "compiler": {
    "name": "solc",
    "version": "0.8.9+commit.e5eed63a.Emscripten.clang"
  },
  "schemaVersion": "3.4.3",
  "updatedAt": "2021-11-09T06:04:16.248Z",
  "devdoc": {
    "details": "comments",
    "kind": "dev",
    "methods": {},
    "version": 1
  },
  "userdoc": {
    "kind": "user",
    "methods": {
      "withdrawDonations(address)": {
        "notice": "Withdraw all of a collateral as the underlying asset, if no outstanding loans delegated Add permissions to this call, e.g. only the owner should be able to withdraw the collateral!"
      }
    },
    "notice": "This is a proof of concept starter contract, showing how uncollaterised loans are possible using Aave v2 credit delegation. This example supports stable interest rate borrows. It is not production ready (!). User permissions and user accounting of loans should be implemented.",
    "version": 1
  }
}