{
  "contractName": "JustCausePoolAaveV3",
  "abi": [
    {
      "inputs": [],
      "stateMutability": "nonpayable",
      "type": "constructor"
    },
    {
      "anonymous": false,
      "inputs": [
        {
          "indexed": false,
          "internalType": "address",
          "name": "tokenAddress",
          "type": "address"
        },
        {
          "indexed": false,
          "internalType": "address",
          "name": "depositor",
          "type": "address"
        },
        {
          "indexed": false,
          "internalType": "uint256",
          "name": "amount",
          "type": "uint256"
        }
      ],
      "name": "Deposit",
      "type": "event"
    },
    {
      "anonymous": false,
      "inputs": [
        {
          "indexed": false,
          "internalType": "address",
          "name": "tokenAddress",
          "type": "address"
        },
        {
          "indexed": false,
          "internalType": "address",
          "name": "caller",
          "type": "address"
        },
        {
          "indexed": false,
          "internalType": "uint256",
          "name": "amount",
          "type": "uint256"
        }
      ],
      "name": "Withdraw",
      "type": "event"
    },
    {
      "anonymous": false,
      "inputs": [
        {
          "indexed": false,
          "internalType": "address",
          "name": "tokenAddress",
          "type": "address"
        },
        {
          "indexed": false,
          "internalType": "uint256",
          "name": "amount",
          "type": "uint256"
        }
      ],
      "name": "WithdrawDonations",
      "type": "event"
    },
    {
      "inputs": [
        {
          "internalType": "address[]",
          "name": "_acceptedTokens",
          "type": "address[]"
        },
        {
          "internalType": "string",
          "name": "_name",
          "type": "string"
        },
        {
          "internalType": "string",
          "name": "_about",
          "type": "string"
        },
        {
          "internalType": "address",
          "name": "_receiver",
          "type": "address"
        }
      ],
      "name": "initialize",
      "outputs": [],
      "stateMutability": "nonpayable",
      "type": "function"
    },
    {
      "inputs": [
        {
          "internalType": "address",
          "name": "_assetAddress",
          "type": "address"
        },
        {
          "internalType": "uint256",
          "name": "_amount",
          "type": "uint256"
        }
      ],
      "name": "deposit",
      "outputs": [],
      "stateMutability": "nonpayable",
      "type": "function"
    },
    {
      "inputs": [
        {
          "internalType": "address",
          "name": "_wethAddress",
          "type": "address"
        },
        {
          "internalType": "uint256",
          "name": "_value",
          "type": "uint256"
        }
      ],
      "name": "depositETH",
      "outputs": [],
      "stateMutability": "nonpayable",
      "type": "function"
    },
    {
      "inputs": [
        {
          "internalType": "address",
          "name": "_assetAddress",
          "type": "address"
        },
        {
          "internalType": "uint256",
          "name": "_amount",
          "type": "uint256"
        },
        {
          "internalType": "address",
          "name": "_depositor",
          "type": "address"
        },
        {
          "internalType": "bool",
          "name": "isETH",
          "type": "bool"
        }
      ],
      "name": "withdraw",
      "outputs": [],
      "stateMutability": "nonpayable",
      "type": "function"
    },
    {
      "inputs": [
        {
          "internalType": "address",
          "name": "_assetAddress",
          "type": "address"
        }
      ],
      "name": "withdrawDonations",
      "outputs": [
        {
          "internalType": "uint256",
          "name": "",
          "type": "uint256"
        }
      ],
      "stateMutability": "nonpayable",
      "type": "function"
    },
    {
      "inputs": [
        {
          "internalType": "address",
          "name": "_token",
          "type": "address"
        }
      ],
      "name": "getTotalDeposits",
      "outputs": [
        {
          "internalType": "uint256",
          "name": "",
          "type": "uint256"
        }
      ],
      "stateMutability": "view",
      "type": "function"
    },
    {
      "inputs": [],
      "name": "getAcceptedTokens",
      "outputs": [
        {
          "internalType": "address[]",
          "name": "",
          "type": "address[]"
        }
      ],
      "stateMutability": "view",
      "type": "function"
    },
    {
      "inputs": [],
      "name": "getName",
      "outputs": [
        {
          "internalType": "string",
          "name": "",
          "type": "string"
        }
      ],
      "stateMutability": "view",
      "type": "function"
    },
    {
      "inputs": [],
      "name": "getAbout",
      "outputs": [
        {
          "internalType": "string",
          "name": "",
          "type": "string"
        }
      ],
      "stateMutability": "view",
      "type": "function"
    },
    {
      "inputs": [
        {
          "internalType": "address",
          "name": "_assetAddress",
          "type": "address"
        }
      ],
      "name": "getATokenAddress",
      "outputs": [
        {
          "internalType": "address",
          "name": "aTokenAddress",
          "type": "address"
        }
      ],
      "stateMutability": "view",
      "type": "function"
    },
    {
      "inputs": [
        {
          "internalType": "address",
          "name": "_assetAddress",
          "type": "address"
        }
      ],
      "name": "getUnclaimedInterest",
      "outputs": [
        {
          "internalType": "uint256",
          "name": "",
          "type": "uint256"
        }
      ],
      "stateMutability": "view",
      "type": "function"
    },
    {
      "inputs": [
        {
          "internalType": "address",
          "name": "_assetAddress",
          "type": "address"
        }
      ],
      "name": "getClaimedInterest",
      "outputs": [
        {
          "internalType": "uint256",
          "name": "",
          "type": "uint256"
        }
      ],
      "stateMutability": "view",
      "type": "function"
    },
    {
      "inputs": [
        {
          "internalType": "address",
          "name": "_assetAddress",
          "type": "address"
        }
      ],
      "name": "getATokenBalance",
      "outputs": [
        {
          "internalType": "uint256",
          "name": "",
          "type": "uint256"
        }
      ],
      "stateMutability": "view",
      "type": "function"
    },
    {
      "inputs": [],
      "name": "getRecipient",
      "outputs": [
        {
          "internalType": "address",
          "name": "",
          "type": "address"
        }
      ],
      "stateMutability": "view",
      "type": "function"
    },
    {
      "inputs": [],
      "name": "getByteCode",
      "outputs": [
        {
          "internalType": "bytes",
          "name": "",
          "type": "bytes"
        }
      ],
      "stateMutability": "view",
      "type": "function"
    },
    {
      "inputs": [],
      "name": "getHashByteCode",
      "outputs": [
        {
          "internalType": "bytes32",
          "name": "",
          "type": "bytes32"
        }
      ],
      "stateMutability": "view",
      "type": "function"
    },
    {
      "inputs": [
        {
          "internalType": "address",
          "name": "_asset",
          "type": "address"
        }
      ],
      "name": "getReserveNormalizedIncome",
      "outputs": [
        {
          "internalType": "uint256",
          "name": "",
          "type": "uint256"
        }
      ],
      "stateMutability": "view",
      "type": "function"
    },
    {
      "inputs": [
        {
          "internalType": "address",
          "name": "_asset",
          "type": "address"
        }
      ],
      "name": "getAaveLiquidityIndex",
      "outputs": [
        {
          "internalType": "uint256",
          "name": "liquidityIndex",
          "type": "uint256"
        }
      ],
      "stateMutability": "view",
      "type": "function"
    }
  ],
  "bytecode": "0x608060405234801561001057600080fd5b506001600460006101000a81548160ff021916908315150217905550612af28061003b6000396000f3fe608060405234801561001057600080fd5b50600436106101165760003560e01c80633735ef88116100a25780635ff189b9116100715780635ff189b9146102cf578063711cc005146102ff5780638aebe8d61461032f578063a56f5b531461035f578063d15e00531461038f57610116565b80633735ef881461024957806347e7ef241461027957806350d02d711461029557806357ac6566146102b157610116565b806317d7de7c116100e957806317d7de7c146101b55780631b88094d146101d35780632e599054146101f15780632f7570061461020d578063343d693b1461022b57610116565b80630251cfa11461011b5780630712f6b31461014b5780630835d21a1461017b57806312eeff7e14610199575b600080fd5b61013560048036038101906101309190611b26565b6103bf565b6040516101429190611b6c565b60405180910390f35b61016560048036038101906101609190611b26565b610408565b6040516101729190611b6c565b60405180910390f35b6101836104a7565b6040516101909190611ba0565b60405180910390f35b6101b360048036038101906101ae9190611c1f565b610507565b005b6101bd6108a7565b6040516101ca9190611d1f565b60405180910390f35b6101db610939565b6040516101e89190611d50565b60405180910390f35b61020b60048036038101906102069190611d6b565b610963565b005b610215610a4f565b6040516102229190611e69565b60405180910390f35b610233610add565b6040516102409190611d1f565b60405180910390f35b610263600480360381019061025e9190611b26565b610b6f565b6040516102709190611b6c565b60405180910390f35b610293600480360381019061028e9190611d6b565b610c5e565b005b6102af60048036038101906102aa9190612088565b610e37565b005b6102b96112f9565b6040516102c69190612198565b60405180910390f35b6102e960048036038101906102e49190611b26565b611333565b6040516102f69190611b6c565b60405180910390f35b61031960048036038101906103149190611b26565b61137c565b6040516103269190611d50565b60405180910390f35b61034960048036038101906103449190611b26565b611436565b6040516103569190611b6c565b60405180910390f35b61037960048036038101906103749190611b26565b611501565b6040516103869190611b6c565b60405180910390f35b6103a960048036038101906103a49190611b26565b6118af565b6040516103b69190611b6c565b60405180910390f35b6000600160008373ffffffffffffffffffffffffffffffffffffffff1673ffffffffffffffffffffffffffffffffffffffff168152602001908152602001600020549050919050565b6000806104148361137c565b90508073ffffffffffffffffffffffffffffffffffffffff166370a08231306040518263ffffffff1660e01b815260040161044f9190611d50565b60206040518083038186803b15801561046757600080fd5b505afa15801561047b573d6000803e3d6000fd5b505050506040513d601f19601f8201168201806040525081019061049f91906121cf565b915050919050565b60003073ffffffffffffffffffffffffffffffffffffffff16803b806020016040519081016040528181526000908060200190933c6040516020016104ec9190612238565b60405160208183030381529060405280519060200120905090565b338073ffffffffffffffffffffffffffffffffffffffff16600960009054906101000a900473ffffffffffffffffffffffffffffffffffffffff1673ffffffffffffffffffffffffffffffffffffffff1614610598576040517f08c379a000000000000000000000000000000000000000000000000000000000815260040161058f9061229b565b60405180910390fd5b828585600081116105de576040517f08c379a00000000000000000000000000000000000000000000000000000000081526004016105d590612307565b60405180910390fd5b86600160008a73ffffffffffffffffffffffffffffffffffffffff1673ffffffffffffffffffffffffffffffffffffffff168152602001908152602001600020600082825461062d9190612356565b92505081905550846106f057600560009054906101000a900473ffffffffffffffffffffffffffffffffffffffff1673ffffffffffffffffffffffffffffffffffffffff166369328dec8989896040518463ffffffff1660e01b81526004016106989392919061238a565b602060405180830381600087803b1580156106b257600080fd5b505af11580156106c6573d6000803e3d6000fd5b505050506040513d601f19601f820116820180604052508101906106ea91906121cf565b50610862565b60006106fb8961137c565b90508073ffffffffffffffffffffffffffffffffffffffff1663095ea7b3600660009054906101000a900473ffffffffffffffffffffffffffffffffffffffff168a6040518363ffffffff1660e01b815260040161075a9291906123c1565b602060405180830381600087803b15801561077457600080fd5b505af1158015610788573d6000803e3d6000fd5b505050506040513d601f19601f820116820180604052508101906107ac91906123ff565b50600660009054906101000a900473ffffffffffffffffffffffffffffffffffffffff1673ffffffffffffffffffffffffffffffffffffffff166380500d20600560009054906101000a900473ffffffffffffffffffffffffffffffffffffffff168a8a6040518463ffffffff1660e01b815260040161082e9392919061238a565b600060405180830381600087803b15801561084857600080fd5b505af115801561085c573d6000803e3d6000fd5b50505050505b7f9b1bfa7fa9ee420a16e124f794c35ac9f90472acc99140eb2f6447c714cad8eb8887896040516108959392919061242c565b60405180910390a15050505050505050565b6060600a80546108b690612492565b80601f01602080910402602001604051908101604052809291908181526020018280546108e290612492565b801561092f5780601f106109045761010080835404028352916020019161092f565b820191906000526020600020905b81548152906001019060200180831161091257829003601f168201915b5050505050905090565b6000600860009054906101000a900473ffffffffffffffffffffffffffffffffffffffff16905090565b338073ffffffffffffffffffffffffffffffffffffffff16600960009054906101000a900473ffffffffffffffffffffffffffffffffffffffff1673ffffffffffffffffffffffffffffffffffffffff16146109f4576040517f08c379a00000000000000000000000000000000000000000000000000000000081526004016109eb9061229b565b60405180910390fd5b81600160008573ffffffffffffffffffffffffffffffffffffffff1673ffffffffffffffffffffffffffffffffffffffff1681526020019081526020016000206000828254610a4391906124c4565b92505081905550505050565b60606007805480602002602001604051908101604052809291908181526020018280548015610ad357602002820191906000526020600020905b8160009054906101000a900473ffffffffffffffffffffffffffffffffffffffff1673ffffffffffffffffffffffffffffffffffffffff1681526020019060010190808311610a89575b5050505050905090565b6060600b8054610aec90612492565b80601f0160208091040260200160405190810160405280929190818152602001828054610b1890612492565b8015610b655780601f10610b3a57610100808354040283529160200191610b65565b820191906000526020600020905b815481529060010190602001808311610b4857829003601f168201915b5050505050905090565b600080610b7b8361137c565b905060008173ffffffffffffffffffffffffffffffffffffffff166370a08231306040518263ffffffff1660e01b8152600401610bb89190611d50565b60206040518083038186803b158015610bd057600080fd5b505afa158015610be4573d6000803e3d6000fd5b505050506040513d601f19601f82011682018060405250810190610c0891906121cf565b9050600160008573ffffffffffffffffffffffffffffffffffffffff1673ffffffffffffffffffffffffffffffffffffffff1681526020019081526020016000205481610c559190612356565b92505050919050565b338073ffffffffffffffffffffffffffffffffffffffff16600960009054906101000a900473ffffffffffffffffffffffffffffffffffffffff1673ffffffffffffffffffffffffffffffffffffffff1614610cef576040517f08c379a0000000000000000000000000000000000000000000000000000000008152600401610ce69061229b565b60405180910390fd5b82600080600090505b6007805490508160ff161015610d995760078160ff1681548110610d1f57610d1e61251a565b5b9060005260206000200160009054906101000a900473ffffffffffffffffffffffffffffffffffffffff1673ffffffffffffffffffffffffffffffffffffffff168373ffffffffffffffffffffffffffffffffffffffff161415610d865760019150610d99565b8080610d9190612556565b915050610cf8565b5080610dda576040517f08c379a0000000000000000000000000000000000000000000000000000000008152600401610dd1906125f2565b60405180910390fd5b83600160008773ffffffffffffffffffffffffffffffffffffffff1673ffffffffffffffffffffffffffffffffffffffff1681526020019081526020016000206000828254610e2991906124c4565b925050819055505050505050565b82601e60008290508160ff16815110610e85576040517f08c379a0000000000000000000000000000000000000000000000000000000008152600401610e7c9061265e565b60405180910390fd5b8460c860008290508160ff16815110610ed3576040517f08c379a0000000000000000000000000000000000000000000000000000000008152600401610eca9061265e565b60405180910390fd5b600060019054906101000a900460ff16610efb5760008054906101000a900460ff1615610f04565b610f03611963565b5b610f43576040517f08c379a0000000000000000000000000000000000000000000000000000000008152600401610f3a906126f0565b60405180910390fd5b60008060019054906101000a900460ff161590508015610f93576001600060016101000a81548160ff02191690831515021790555060016000806101000a81548160ff0219169083151502179055505b60001515600460009054906101000a900460ff16151514610fe9576040517f08c379a0000000000000000000000000000000000000000000000000000000008152600401610fe09061275c565b60405180910390fd5b600073ffffffffffffffffffffffffffffffffffffffff16600860009054906101000a900473ffffffffffffffffffffffffffffffffffffffff1673ffffffffffffffffffffffffffffffffffffffff161461107a576040517f08c379a0000000000000000000000000000000000000000000000000000000008152600401611071906127c8565b60405180910390fd5b87600860006101000a81548173ffffffffffffffffffffffffffffffffffffffff021916908373ffffffffffffffffffffffffffffffffffffffff16021790555033600960006101000a81548173ffffffffffffffffffffffffffffffffffffffff021916908373ffffffffffffffffffffffffffffffffffffffff16021790555089600a9080519060200190611112929190611987565b5088600b9080519060200190611129929190611987565b50735343b5ba672ae99d627a1c87866b8e53f47db2e6600460016101000a81548173ffffffffffffffffffffffffffffffffffffffff021916908373ffffffffffffffffffffffffffffffffffffffff160217905550600460019054906101000a900473ffffffffffffffffffffffffffffffffffffffff1673ffffffffffffffffffffffffffffffffffffffff1663026b1d5f6040518163ffffffff1660e01b815260040160206040518083038186803b1580156111e757600080fd5b505afa1580156111fb573d6000803e3d6000fd5b505050506040513d601f19601f8201168201806040525081019061121f91906127fd565b600560006101000a81548173ffffffffffffffffffffffffffffffffffffffff021916908373ffffffffffffffffffffffffffffffffffffffff160217905550732a58e9bbb5434fda7ff78051a4b82cb0ef669c17600660006101000a81548173ffffffffffffffffffffffffffffffffffffffff021916908373ffffffffffffffffffffffffffffffffffffffff1602179055508a600790805190602001906112ca929190611a0d565b5080156112ec5760008060016101000a81548160ff0219169083151502179055505b5050505050505050505050565b60603073ffffffffffffffffffffffffffffffffffffffff16803b806020016040519081016040528181526000908060200190933c905090565b6000600260008373ffffffffffffffffffffffffffffffffffffffff1673ffffffffffffffffffffffffffffffffffffffff168152602001908152602001600020549050919050565b6000600560009054906101000a900473ffffffffffffffffffffffffffffffffffffffff1673ffffffffffffffffffffffffffffffffffffffff166335ea6a75836040518263ffffffff1660e01b81526004016113d99190611d50565b6101e06040518083038186803b1580156113f257600080fd5b505afa158015611406573d6000803e3d6000fd5b505050506040513d601f19601f8201168201806040525081019061142a9190612a8e565b61010001519050919050565b6000600560009054906101000a900473ffffffffffffffffffffffffffffffffffffffff1673ffffffffffffffffffffffffffffffffffffffff166335ea6a75836040518263ffffffff1660e01b81526004016114939190611d50565b6101e06040518083038186803b1580156114ac57600080fd5b505afa1580156114c0573d6000803e3d6000fd5b505050506040513d601f19601f820116820180604052508101906114e49190612a8e565b602001516fffffffffffffffffffffffffffffffff169050919050565b6000338073ffffffffffffffffffffffffffffffffffffffff16600960009054906101000a900473ffffffffffffffffffffffffffffffffffffffff1673ffffffffffffffffffffffffffffffffffffffff1614611594576040517f08c379a000000000000000000000000000000000000000000000000000000000815260040161158b9061229b565b60405180910390fd5b82600080600090505b6007805490508160ff16101561163e5760078160ff16815481106115c4576115c361251a565b5b9060005260206000200160009054906101000a900473ffffffffffffffffffffffffffffffffffffffff1673ffffffffffffffffffffffffffffffffffffffff168373ffffffffffffffffffffffffffffffffffffffff16141561162b576001915061163e565b808061163690612556565b91505061159d565b508061167f576040517f08c379a0000000000000000000000000000000000000000000000000000000008152600401611676906125f2565b60405180910390fd5b600061168a8661137c565b905060008173ffffffffffffffffffffffffffffffffffffffff166370a08231306040518263ffffffff1660e01b81526004016116c79190611d50565b60206040518083038186803b1580156116df57600080fd5b505afa1580156116f3573d6000803e3d6000fd5b505050506040513d601f19601f8201168201806040525081019061171791906121cf565b90506000600160008973ffffffffffffffffffffffffffffffffffffffff1673ffffffffffffffffffffffffffffffffffffffff16815260200190815260200160002054826117669190612356565b9050600560009054906101000a900473ffffffffffffffffffffffffffffffffffffffff1673ffffffffffffffffffffffffffffffffffffffff166369328dec8983600860009054906101000a900473ffffffffffffffffffffffffffffffffffffffff166040518463ffffffff1660e01b81526004016117e99392919061238a565b602060405180830381600087803b15801561180357600080fd5b505af1158015611817573d6000803e3d6000fd5b505050506040513d601f19601f8201168201806040525081019061183b91906121cf565b5061184588611436565b60038190555080600260008a73ffffffffffffffffffffffffffffffffffffffff1673ffffffffffffffffffffffffffffffffffffffff168152602001908152602001600020600082825461189a91906124c4565b92505081905550809650505050505050919050565b6000600560009054906101000a900473ffffffffffffffffffffffffffffffffffffffff1673ffffffffffffffffffffffffffffffffffffffff1663d15e0053836040518263ffffffff1660e01b815260040161190c9190611d50565b60206040518083038186803b15801561192457600080fd5b505afa158015611938573d6000803e3d6000fd5b505050506040513d601f19601f8201168201806040525081019061195c91906121cf565b9050919050565b600061196e30611974565b15905090565b600080823b905060008111915050919050565b82805461199390612492565b90600052602060002090601f0160209004810192826119b557600085556119fc565b82601f106119ce57805160ff19168380011785556119fc565b828001600101855582156119fc579182015b828111156119fb5782518255916020019190600101906119e0565b5b509050611a099190611a97565b5090565b828054828255906000526020600020908101928215611a86579160200282015b82811115611a855782518260006101000a81548173ffffffffffffffffffffffffffffffffffffffff021916908373ffffffffffffffffffffffffffffffffffffffff16021790555091602001919060010190611a2d565b5b509050611a939190611a97565b5090565b5b80821115611ab0576000816000905550600101611a98565b5090565b6000604051905090565b600080fd5b600080fd5b600073ffffffffffffffffffffffffffffffffffffffff82169050919050565b6000611af382611ac8565b9050919050565b611b0381611ae8565b8114611b0e57600080fd5b50565b600081359050611b2081611afa565b92915050565b600060208284031215611b3c57611b3b611abe565b5b6000611b4a84828501611b11565b91505092915050565b6000819050919050565b611b6681611b53565b82525050565b6000602082019050611b816000830184611b5d565b92915050565b6000819050919050565b611b9a81611b87565b82525050565b6000602082019050611bb56000830184611b91565b92915050565b611bc481611b53565b8114611bcf57600080fd5b50565b600081359050611be181611bbb565b92915050565b60008115159050919050565b611bfc81611be7565b8114611c0757600080fd5b50565b600081359050611c1981611bf3565b92915050565b60008060008060808587031215611c3957611c38611abe565b5b6000611c4787828801611b11565b9450506020611c5887828801611bd2565b9350506040611c6987828801611b11565b9250506060611c7a87828801611c0a565b91505092959194509250565b600081519050919050565b600082825260208201905092915050565b60005b83811015611cc0578082015181840152602081019050611ca5565b83811115611ccf576000848401525b50505050565b6000601f19601f8301169050919050565b6000611cf182611c86565b611cfb8185611c91565b9350611d0b818560208601611ca2565b611d1481611cd5565b840191505092915050565b60006020820190508181036000830152611d398184611ce6565b905092915050565b611d4a81611ae8565b82525050565b6000602082019050611d656000830184611d41565b92915050565b60008060408385031215611d8257611d81611abe565b5b6000611d9085828601611b11565b9250506020611da185828601611bd2565b9150509250929050565b600081519050919050565b600082825260208201905092915050565b6000819050602082019050919050565b611de081611ae8565b82525050565b6000611df28383611dd7565b60208301905092915050565b6000602082019050919050565b6000611e1682611dab565b611e208185611db6565b9350611e2b83611dc7565b8060005b83811015611e5c578151611e438882611de6565b9750611e4e83611dfe565b925050600181019050611e2f565b5085935050505092915050565b60006020820190508181036000830152611e838184611e0b565b905092915050565b600080fd5b7f4e487b7100000000000000000000000000000000000000000000000000000000600052604160045260246000fd5b611ec882611cd5565b810181811067ffffffffffffffff82111715611ee757611ee6611e90565b5b80604052505050565b6000611efa611ab4565b9050611f068282611ebf565b919050565b600067ffffffffffffffff821115611f2657611f25611e90565b5b602082029050602081019050919050565b600080fd5b6000611f4f611f4a84611f0b565b611ef0565b90508083825260208201905060208402830185811115611f7257611f71611f37565b5b835b81811015611f9b5780611f878882611b11565b845260208401935050602081019050611f74565b5050509392505050565b600082601f830112611fba57611fb9611e8b565b5b8135611fca848260208601611f3c565b91505092915050565b600080fd5b600067ffffffffffffffff821115611ff357611ff2611e90565b5b611ffc82611cd5565b9050602081019050919050565b82818337600083830152505050565b600061202b61202684611fd8565b611ef0565b90508281526020810184848401111561204757612046611fd3565b5b612052848285612009565b509392505050565b600082601f83011261206f5761206e611e8b565b5b813561207f848260208601612018565b91505092915050565b600080600080608085870312156120a2576120a1611abe565b5b600085013567ffffffffffffffff8111156120c0576120bf611ac3565b5b6120cc87828801611fa5565b945050602085013567ffffffffffffffff8111156120ed576120ec611ac3565b5b6120f98782880161205a565b935050604085013567ffffffffffffffff81111561211a57612119611ac3565b5b6121268782880161205a565b925050606061213787828801611b11565b91505092959194509250565b600081519050919050565b600082825260208201905092915050565b600061216a82612143565b612174818561214e565b9350612184818560208601611ca2565b61218d81611cd5565b840191505092915050565b600060208201905081810360008301526121b2818461215f565b905092915050565b6000815190506121c981611bbb565b92915050565b6000602082840312156121e5576121e4611abe565b5b60006121f3848285016121ba565b91505092915050565b600081905092915050565b600061221282612143565b61221c81856121fc565b935061222c818560208601611ca2565b80840191505092915050565b60006122448284612207565b915081905092915050565b7f796f7520617265206e6f7420746865206f776e65720000000000000000000000600082015250565b6000612285601583611c91565b91506122908261224f565b602082019050919050565b600060208201905081810360008301526122b481612278565b9050919050565b7f616d6f756e74206d757374206578636565642030000000000000000000000000600082015250565b60006122f1601483611c91565b91506122fc826122bb565b602082019050919050565b60006020820190508181036000830152612320816122e4565b9050919050565b7f4e487b7100000000000000000000000000000000000000000000000000000000600052601160045260246000fd5b600061236182611b53565b915061236c83611b53565b92508282101561237f5761237e612327565b5b828203905092915050565b600060608201905061239f6000830186611d41565b6123ac6020830185611b5d565b6123b96040830184611d41565b949350505050565b60006040820190506123d66000830185611d41565b6123e36020830184611b5d565b9392505050565b6000815190506123f981611bf3565b92915050565b60006020828403121561241557612414611abe565b5b6000612423848285016123ea565b91505092915050565b60006060820190506124416000830186611d41565b61244e6020830185611d41565b61245b6040830184611b5d565b949350505050565b7f4e487b7100000000000000000000000000000000000000000000000000000000600052602260045260246000fd5b600060028204905060018216806124aa57607f821691505b602082108114156124be576124bd612463565b5b50919050565b60006124cf82611b53565b91506124da83611b53565b9250827fffffffffffffffffffffffffffffffffffffffffffffffffffffffffffffffff0382111561250f5761250e612327565b5b828201905092915050565b7f4e487b7100000000000000000000000000000000000000000000000000000000600052603260045260246000fd5b600060ff82169050919050565b600061256182612549565b915060ff82141561257557612574612327565b5b600182019050919050565b7f7375626d697474656420746f6b656e2061646472657373206973206e6f74206160008201527f6363657074656420627920706f6f6c0000000000000000000000000000000000602082015250565b60006125dc602f83611c91565b91506125e782612580565b604082019050919050565b6000602082019050818103600083015261260b816125cf565b9050919050565b7f737472696e67206f76657220636861726163746572206c696d69740000000000600082015250565b6000612648601b83611c91565b915061265382612612565b602082019050919050565b600060208201905081810360008301526126778161263b565b9050919050565b7f496e697469616c697a61626c653a20636f6e747261637420697320616c72656160008201527f647920696e697469616c697a6564000000000000000000000000000000000000602082015250565b60006126da602e83611c91565b91506126e58261267e565b604082019050919050565b60006020820190508181036000830152612709816126cd565b9050919050565b7f43616e6e6f7420696e697469616c697a65206261736500000000000000000000600082015250565b6000612746601683611c91565b915061275182612710565b602082019050919050565b6000602082019050818103600083015261277581612739565b9050919050565b7f496e697469616c697a6520616c72656164792063616c6c656400000000000000600082015250565b60006127b2601983611c91565b91506127bd8261277c565b602082019050919050565b600060208201905081810360008301526127e1816127a5565b9050919050565b6000815190506127f781611afa565b92915050565b60006020828403121561281357612812611abe565b5b6000612821848285016127e8565b91505092915050565b600080fd5b6000602082840312156128455761284461282a565b5b61284f6020611ef0565b9050600061285f848285016121ba565b60008301525092915050565b60006fffffffffffffffffffffffffffffffff82169050919050565b6128908161286b565b811461289b57600080fd5b50565b6000815190506128ad81612887565b92915050565b600064ffffffffff82169050919050565b6128cd816128b3565b81146128d857600080fd5b50565b6000815190506128ea816128c4565b92915050565b600061ffff82169050919050565b612907816128f0565b811461291257600080fd5b50565b600081519050612924816128fe565b92915050565b60006101e082840312156129415761294061282a565b5b61294c6101e0611ef0565b9050600061295c8482850161282f565b60008301525060206129708482850161289e565b60208301525060406129848482850161289e565b60408301525060606129988482850161289e565b60608301525060806129ac8482850161289e565b60808301525060a06129c08482850161289e565b60a08301525060c06129d4848285016128db565b60c08301525060e06129e884828501612915565b60e0830152506101006129fd848285016127e8565b61010083015250610120612a13848285016127e8565b61012083015250610140612a29848285016127e8565b61014083015250610160612a3f848285016127e8565b61016083015250610180612a558482850161289e565b610180830152506101a0612a6b8482850161289e565b6101a0830152506101c0612a818482850161289e565b6101c08301525092915050565b60006101e08284031215612aa557612aa4611abe565b5b6000612ab38482850161292a565b9150509291505056fea26469706673582212206334bf5278398d1625bb65cbcf5007c00d0fd25d801fb0e6071506d31309b44564736f6c63430008090033",
  "immutableReferences": {},
  "source": "// SPDX-License-Identifier: MIT\npragma solidity 0.8.9;\n\nimport { IERC20, IPool, IPoolAddressesProvider, IWETHGateway} from './Interfaces.sol';\nimport { SafeERC20 } from './Libraries.sol';\nimport \"@openzeppelin/contracts/proxy/utils/Initializable.sol\";\n/**\n * This is a proof of concept starter contract, showing how uncollaterised loans are possible\n * using Aave v2 credit delegation.\n * This example supports stable interest rate borrows.\n * It is not production ready (!). User permissions and user accounting of loans should be implemented.\n * See @dev comments\n */\n\ncontract JustCausePoolAaveV3 is Initializable {\n    //mapping(address => mapping(address => uint256)) private depositors;\n    mapping(address => uint256) private totalDeposits;\n    mapping(address => uint256) private interestWithdrawn;\n    uint256 private claimIndex;\n    bool private isBase;\n\n    IPoolAddressesProvider provider;\n    address poolAddr;\n    address wethGatewayAddr;\n\n    address[] acceptedTokens;\n\n    event Deposit(address tokenAddress, address depositor, uint256 amount);\n    event Withdraw(address tokenAddress, address caller, uint256 amount);\n    event WithdrawDonations(address tokenAddress, uint256 amount);\n\n    address receiver;\n    address master;\n    string name;\n    string about;\n\n    modifier onlyAllowedTokens(address _tokenAddr){\n        bool isAccepted;\n        for (uint8 i = 0; i < acceptedTokens.length; i++){\n            if(_tokenAddr == acceptedTokens[i]){\n                isAccepted = true;\n                break;\n            }\n        }\n        require(isAccepted, \"submitted token address is not accepted by pool\");\n        _;\n    }\n\n    modifier enoughFunds(address _userAddr, address _tokenAddr, uint256 _amount) {\n        require(_amount > 0, \"amount must exceed 0\");\n        //require(depositors[_userAddr][_tokenAddr]  >= _amount, \"no funds deposited for selected token\");\n        _;\n    }\n\n    modifier onlyReceiver(address _sender){\n        require(receiver == _sender, \"you are not the current reciever for this pool\");\n        _;\n    }\n\n    modifier onlyMaster(address _sender){\n        require(master == _sender, \"you are not the owner\");\n        _;\n    }\n\n    modifier strLength(string memory _str, uint8 _limit ){\n        bytes memory strBytes = bytes(_str);\n        require(strBytes.length < _limit, \"string over character limit\");\n        _;\n    }\n\n    constructor () {\n        isBase = true;\n    }\n\n    function initialize(\n        address[] memory _acceptedTokens,\n        string memory _name,\n        string memory _about,\n        address _receiver)\n\n    strLength(_name, 30) strLength(_about, 200) initializer() external {\n\n        require(isBase == false, \"Cannot initialize base\");\n        require(receiver == address(0), \"Initialize already called\");\n\n        receiver = _receiver;\n        master = msg.sender;\n        name = _name;\n        about = _about;\n\n        provider = IPoolAddressesProvider(address(0x5343b5bA672Ae99d627A1C87866b8E53F47Db2E6)); // polygon mumbai v3\n        poolAddr = provider.getPool();\n        wethGatewayAddr = address(0x2a58E9bbb5434FdA7FF78051a4B82cb0EF669C17);// polygon mumbai v3\n        acceptedTokens = _acceptedTokens;\n    }\n\n    function deposit(address _assetAddress, uint256 _amount/*, address _depositor*/) onlyMaster(msg.sender) onlyAllowedTokens(_assetAddress) external {\n        //IERC20 token = IERC20(_assetAddress);\n        //require(token.allowance(_depositor, address(this)) >= _amount, \"sender not approved\");\n        //token.transferFrom(_depositor, address(this), _amount);\n        //address poolAddr = address(Pool);\n        //token.approve(poolAddr, _amount);\n        //IPool(poolAddr).deposit(address(token), _amount, address(this), 0);\n        totalDeposits[_assetAddress] += _amount;\n        //emit Deposit(_assetAddress, _depositor, _amount);\n    }\n\n    function depositETH(address _wethAddress , /*address _depositor,*/ uint256 _value) onlyMaster(msg.sender) external {\n        //IWETHGateway(wethGatewayAddr).depositETH{value: msg.value}(poolAddr, address(this), 0);\n        totalDeposits[_wethAddress] += _value;\n    }\n\n    /*function tallyDeposit(uint256 _amount, address _assetAddress, address _depositor) internal {\n        uint256 depositedAmount = depositors[_depositor][_assetAddress];\n        //uint256 liquidityIndex = getAaveLiquidityIndex(_assetAddress);\n        //if(depositedAmount == 0){\n            //poolTracker.addDeposit(_depositor, _amount, liquidityIndex, block.timestamp, _assetAddress);\n        //}\n        depositedAmount += _amount;\n        totalDeposits[_assetAddress] += _amount;\n        depositors[_depositor][_assetAddress] = depositedAmount;\n    }*/\n\n    function withdraw(address _assetAddress, uint256 _amount, address _depositor, bool isETH) onlyMaster(msg.sender) enoughFunds(_depositor, _assetAddress, _amount) external {\n        totalDeposits[_assetAddress] -= _amount;\n        if(!isETH){\n            IPool(poolAddr).withdraw(_assetAddress, _amount, _depositor);\n        }\n        else{\n            address aTokenAddress = getATokenAddress(_assetAddress);\n            IERC20(aTokenAddress).approve(wethGatewayAddr, _amount);\n            IWETHGateway(wethGatewayAddr).withdrawETH(poolAddr, _amount, _depositor);\n        }\n        emit Withdraw(_assetAddress, _depositor, _amount);\n    }\n\n    function withdrawDonations(address _assetAddress) onlyMaster(msg.sender) onlyAllowedTokens(_assetAddress) external returns(uint256){\n        address aTokenAddress = getATokenAddress(_assetAddress);\n        uint256 aTokenBalance = IERC20(aTokenAddress).balanceOf(address(this));\n        uint256 interestEarned = aTokenBalance - totalDeposits[_assetAddress];\n        IPool(poolAddr).withdraw(_assetAddress, interestEarned, receiver);\n        claimIndex = getAaveLiquidityIndex(_assetAddress);\n        interestWithdrawn[_assetAddress] += interestEarned;\n        return interestEarned;\n    }\n\n    /*function getUserBalance(address _userAddr, address _token) external view returns(uint256){\n        return depositors[_userAddr][_token];\n    }*/\n\n    function getTotalDeposits(address _token) external view returns(uint256){\n        return totalDeposits[_token];\n    }\n\n    function getAcceptedTokens() external view returns(address[] memory){\n        return acceptedTokens;\n    }\n\n    function getName() external view returns(string memory){\n        return name;\n    }\n\n    function getAbout() external view returns(string memory){\n        return about;\n    }\n\n    function getATokenAddress(address _assetAddress) public view returns(address aTokenAddress){\n        //(,,,,,,,, aTokenAddress,,,,,,) = IPool(poolAddr).getReserveData(_assetAddress);\n        aTokenAddress = IPool(poolAddr).getReserveData(_assetAddress).aTokenAddress;\n    }\n\n    function getUnclaimedInterest(address _assetAddress) external view returns (uint256){\n        address aTokenAddress = getATokenAddress(_assetAddress);\n        uint256 aTokenBalance = IERC20(aTokenAddress).balanceOf(address(this));\n        return aTokenBalance - totalDeposits[_assetAddress];\n    }\n\n    function getClaimedInterest(address _assetAddress) external view returns (uint256){\n        return interestWithdrawn[_assetAddress];\n    }\n\n    function getATokenBalance(address _assetAddress) external view returns (uint256){\n        address aTokenAddress = getATokenAddress(_assetAddress);\n        return IERC20(aTokenAddress).balanceOf(address(this));\n    }\n\n    function getRecipient() external view returns(address){\n        return receiver;\n    }\n\n    function getByteCode() external view returns(bytes memory) {\n        return address(this).code;\n    }\n\n    function getHashByteCode() public view returns(bytes32) {\n        return keccak256(abi.encodePacked(address(this).code));\n    }\n\n    function getReserveNormalizedIncome(address _asset) public view returns(uint256){\n        return IPool(poolAddr).getReserveNormalizedIncome(_asset);\n    }\n\n    function getAaveLiquidityIndex(address _asset) public view returns(uint256 liquidityIndex){\n        //(,liquidityIndex,,,,,,,,,,,,,) = IPool(poolAddr).getReserveData(_asset);\n        liquidityIndex = IPool(poolAddr).getReserveData(_asset).liquidityIndex;\n    }\n}",
  "sourcePath": "/home/smeee/just_cause/contracts/polygon/JustCausePoolAaveV3.sol",
  "compiler": {
    "name": "solc",
    "version": "0.8.9+commit.e5eed63a.Emscripten.clang"
  },
  "schemaVersion": "3.4.5",
  "updatedAt": "2022-03-24T17:47:03.006Z",
  "devdoc": {
    "details": "comments",
    "kind": "dev",
    "methods": {},
    "version": 1
  },
  "userdoc": {
    "kind": "user",
    "methods": {},
    "notice": "This is a proof of concept starter contract, showing how uncollaterised loans are possible using Aave v2 credit delegation. This example supports stable interest rate borrows. It is not production ready (!). User permissions and user accounting of loans should be implemented.",
    "version": 1
  }
}