{
  "contractName": "JustCausePool",
  "abi": [
    {
      "inputs": [],
      "stateMutability": "nonpayable",
      "type": "constructor"
    },
    {
      "anonymous": false,
      "inputs": [
        {
          "indexed": false,
          "internalType": "address",
          "name": "tokenAddress",
          "type": "address"
        },
        {
          "indexed": false,
          "internalType": "address",
          "name": "depositor",
          "type": "address"
        },
        {
          "indexed": false,
          "internalType": "uint256",
          "name": "amount",
          "type": "uint256"
        },
        {
          "indexed": false,
          "internalType": "uint256",
          "name": "totalDeposits",
          "type": "uint256"
        }
      ],
      "name": "Deposit",
      "type": "event"
    },
    {
      "anonymous": false,
      "inputs": [
        {
          "indexed": false,
          "internalType": "address",
          "name": "tokenAddress",
          "type": "address"
        },
        {
          "indexed": false,
          "internalType": "address",
          "name": "depositor",
          "type": "address"
        },
        {
          "indexed": false,
          "internalType": "uint256",
          "name": "amount",
          "type": "uint256"
        },
        {
          "indexed": false,
          "internalType": "uint256",
          "name": "userDeposits",
          "type": "uint256"
        },
        {
          "indexed": false,
          "internalType": "uint256",
          "name": "donation",
          "type": "uint256"
        }
      ],
      "name": "Withdraw",
      "type": "event"
    },
    {
      "anonymous": false,
      "inputs": [
        {
          "indexed": false,
          "internalType": "address",
          "name": "tokenAddress",
          "type": "address"
        },
        {
          "indexed": false,
          "internalType": "address",
          "name": "depositor",
          "type": "address"
        },
        {
          "indexed": false,
          "internalType": "uint256",
          "name": "amount",
          "type": "uint256"
        },
        {
          "indexed": false,
          "internalType": "uint256",
          "name": "totalDeposits",
          "type": "uint256"
        },
        {
          "indexed": false,
          "internalType": "address",
          "name": "aTokenAddress",
          "type": "address"
        }
      ],
      "name": "WithdrawDonations",
      "type": "event"
    },
    {
      "inputs": [],
      "name": "isBase",
      "outputs": [
        {
          "internalType": "bool",
          "name": "",
          "type": "bool"
        }
      ],
      "stateMutability": "view",
      "type": "function"
    },
    {
      "inputs": [
        {
          "internalType": "address[]",
          "name": "_acceptedTokens",
          "type": "address[]"
        },
        {
          "internalType": "string",
          "name": "_name",
          "type": "string"
        },
        {
          "internalType": "string",
          "name": "_about",
          "type": "string"
        },
        {
          "internalType": "address",
          "name": "_receiver",
          "type": "address"
        }
      ],
      "name": "initialize",
      "outputs": [],
      "stateMutability": "nonpayable",
      "type": "function"
    },
    {
      "inputs": [
        {
          "internalType": "address",
          "name": "_assetAddress",
          "type": "address"
        },
        {
          "internalType": "uint256",
          "name": "_amount",
          "type": "uint256"
        },
        {
          "internalType": "address",
          "name": "_depositor",
          "type": "address"
        }
      ],
      "name": "deposit",
      "outputs": [],
      "stateMutability": "nonpayable",
      "type": "function"
    },
    {
      "inputs": [
        {
          "internalType": "address",
          "name": "_wethAddress",
          "type": "address"
        },
        {
          "internalType": "address",
          "name": "_depositor",
          "type": "address"
        }
      ],
      "name": "depositETH",
      "outputs": [],
      "stateMutability": "payable",
      "type": "function"
    },
    {
      "inputs": [
        {
          "internalType": "address",
          "name": "_assetAddress",
          "type": "address"
        },
        {
          "internalType": "uint256",
          "name": "_amount",
          "type": "uint256"
        },
        {
          "internalType": "uint256",
          "name": "_donation",
          "type": "uint256"
        },
        {
          "internalType": "address",
          "name": "_depositor",
          "type": "address"
        }
      ],
      "name": "withdraw",
      "outputs": [],
      "stateMutability": "nonpayable",
      "type": "function"
    },
    {
      "inputs": [
        {
          "internalType": "address",
          "name": "_assetAddress",
          "type": "address"
        }
      ],
      "name": "withdrawDonations",
      "outputs": [],
      "stateMutability": "nonpayable",
      "type": "function"
    },
    {
      "inputs": [
        {
          "internalType": "address",
          "name": "_userAddr",
          "type": "address"
        },
        {
          "internalType": "address",
          "name": "_token",
          "type": "address"
        }
      ],
      "name": "getUserBalance",
      "outputs": [
        {
          "internalType": "uint256",
          "name": "",
          "type": "uint256"
        }
      ],
      "stateMutability": "view",
      "type": "function"
    },
    {
      "inputs": [
        {
          "internalType": "address",
          "name": "_token",
          "type": "address"
        }
      ],
      "name": "getTotalDeposits",
      "outputs": [
        {
          "internalType": "uint256",
          "name": "",
          "type": "uint256"
        }
      ],
      "stateMutability": "view",
      "type": "function"
    },
    {
      "inputs": [],
      "name": "getAcceptedTokens",
      "outputs": [
        {
          "internalType": "address[]",
          "name": "",
          "type": "address[]"
        }
      ],
      "stateMutability": "view",
      "type": "function"
    },
    {
      "inputs": [],
      "name": "getName",
      "outputs": [
        {
          "internalType": "string",
          "name": "",
          "type": "string"
        }
      ],
      "stateMutability": "view",
      "type": "function"
    },
    {
      "inputs": [],
      "name": "getAbout",
      "outputs": [
        {
          "internalType": "string",
          "name": "",
          "type": "string"
        }
      ],
      "stateMutability": "view",
      "type": "function"
    },
    {
      "inputs": [
        {
          "internalType": "address",
          "name": "_assetAddress",
          "type": "address"
        }
      ],
      "name": "getATokenAddress",
      "outputs": [
        {
          "internalType": "address",
          "name": "",
          "type": "address"
        }
      ],
      "stateMutability": "view",
      "type": "function"
    },
    {
      "inputs": [
        {
          "internalType": "address",
          "name": "_assetAddress",
          "type": "address"
        }
      ],
      "name": "getUnclaimedInterest",
      "outputs": [
        {
          "internalType": "uint256",
          "name": "",
          "type": "uint256"
        }
      ],
      "stateMutability": "view",
      "type": "function"
    },
    {
      "inputs": [
        {
          "internalType": "address",
          "name": "_assetAddress",
          "type": "address"
        }
      ],
      "name": "getClaimedInterest",
      "outputs": [
        {
          "internalType": "uint256",
          "name": "",
          "type": "uint256"
        }
      ],
      "stateMutability": "view",
      "type": "function"
    },
    {
      "inputs": [
        {
          "internalType": "address",
          "name": "_assetAddress",
          "type": "address"
        }
      ],
      "name": "getATokenBalance",
      "outputs": [
        {
          "internalType": "uint256",
          "name": "",
          "type": "uint256"
        }
      ],
      "stateMutability": "view",
      "type": "function"
    },
    {
      "inputs": [],
      "name": "getRecipient",
      "outputs": [
        {
          "internalType": "address",
          "name": "",
          "type": "address"
        }
      ],
      "stateMutability": "view",
      "type": "function"
    },
    {
      "inputs": [],
      "name": "getByteCode",
      "outputs": [
        {
          "internalType": "bytes",
          "name": "",
          "type": "bytes"
        }
      ],
      "stateMutability": "view",
      "type": "function"
    },
    {
      "inputs": [],
      "name": "getHashByteCode",
      "outputs": [
        {
          "internalType": "bytes32",
          "name": "",
          "type": "bytes32"
        }
      ],
      "stateMutability": "view",
      "type": "function"
    },
    {
      "inputs": [
        {
          "internalType": "address",
          "name": "_asset",
          "type": "address"
        }
      ],
      "name": "getAaveLiquidityIndex",
      "outputs": [
        {
          "internalType": "uint256",
          "name": "liquidityIndex",
          "type": "uint256"
        }
      ],
      "stateMutability": "view",
      "type": "function"
    }
  ],
  "bytecode": "0x608060405234801561001057600080fd5b506001600460006101000a81548160ff0219169083151502179055506136b98061003b6000396000f3fe6080604052600436106101145760003560e01c806350d02d71116100a0578063734029bf11610064578063734029bf146103db5780637f80069a146103f75780638aebe8d614610422578063a56f5b531461045f578063f45346dc1461048857610114565b806350d02d71146102d057806357ac6566146102f95780635ff189b9146103245780636805d6ad14610361578063711cc0051461039e57610114565b806317d7de7c116100e757806317d7de7c146101e75780631b88094d146102125780632f7570061461023d578063343d693b146102685780633735ef881461029357610114565b80630251cfa1146101195780630712f6b3146101565780630835d21a1461019357806316762eed146101be575b600080fd5b34801561012557600080fd5b50610140600480360381019061013b919061247a565b6104b1565b60405161014d91906124c0565b60405180910390f35b34801561016257600080fd5b5061017d6004803603810190610178919061247a565b6104fa565b60405161018a91906124c0565b60405180910390f35b34801561019f57600080fd5b506101a861062f565b6040516101b591906124f4565b60405180910390f35b3480156101ca57600080fd5b506101e560048036038101906101e0919061253b565b61068f565b005b3480156101f357600080fd5b506101fc610c78565b604051610209919061263b565b60405180910390f35b34801561021e57600080fd5b50610227610d0a565b604051610234919061266c565b60405180910390f35b34801561024957600080fd5b50610252610d34565b60405161025f9190612745565b60405180910390f35b34801561027457600080fd5b5061027d610dc2565b60405161028a919061263b565b60405180910390f35b34801561029f57600080fd5b506102ba60048036038101906102b5919061247a565b610e54565b6040516102c791906124c0565b60405180910390f35b3480156102dc57600080fd5b506102f760048036038101906102f29190612964565b610fd9565b005b34801561030557600080fd5b5061030e61144c565b60405161031b9190612a74565b60405180910390f35b34801561033057600080fd5b5061034b6004803603810190610346919061247a565b611486565b60405161035891906124c0565b60405180910390f35b34801561036d57600080fd5b5061038860048036038101906103839190612a96565b6114cf565b60405161039591906124c0565b60405180910390f35b3480156103aa57600080fd5b506103c560048036038101906103c0919061247a565b611556565b6040516103d2919061266c565b60405180910390f35b6103f560048036038101906103f09190612a96565b611603565b005b34801561040357600080fd5b5061040c611751565b6040516104199190612af1565b60405180910390f35b34801561042e57600080fd5b506104496004803603810190610444919061247a565b611764565b60405161045691906124c0565b60405180910390f35b34801561046b57600080fd5b506104866004803603810190610481919061247a565b611841565b005b34801561049457600080fd5b506104af60048036038101906104aa9190612b0c565b611d0f565b005b6000600260008373ffffffffffffffffffffffffffffffffffffffff1673ffffffffffffffffffffffffffffffffffffffff168152602001908152602001600020549050919050565b600080733c73a5e5785cac854d468f727c606c07488a29d673ffffffffffffffffffffffffffffffffffffffff1663d2493b6c846040518263ffffffff1660e01b815260040161054a919061266c565b60606040518083038186803b15801561056257600080fd5b505afa158015610576573d6000803e3d6000fd5b505050506040513d601f19601f8201168201806040525081019061059a9190612b74565b505090508073ffffffffffffffffffffffffffffffffffffffff166370a08231306040518263ffffffff1660e01b81526004016105d7919061266c565b60206040518083038186803b1580156105ef57600080fd5b505afa158015610603573d6000803e3d6000fd5b505050506040513d601f19601f820116820180604052508101906106279190612bdc565b915050919050565b60003073ffffffffffffffffffffffffffffffffffffffff16803b806020016040519081016040528181526000908060200190933c6040516020016106749190612c45565b60405160208183030381529060405280519060200120905090565b338073ffffffffffffffffffffffffffffffffffffffff16600860009054906101000a900473ffffffffffffffffffffffffffffffffffffffff1673ffffffffffffffffffffffffffffffffffffffff1614610720576040517f08c379a000000000000000000000000000000000000000000000000000000000815260040161071790612ca8565b60405180910390fd5b8185858560008211610767576040517f08c379a000000000000000000000000000000000000000000000000000000000815260040161075e90612d14565b60405180910390fd5b81600160008673ffffffffffffffffffffffffffffffffffffffff1673ffffffffffffffffffffffffffffffffffffffff16815260200190815260200160002060008573ffffffffffffffffffffffffffffffffffffffff1673ffffffffffffffffffffffffffffffffffffffff168152602001908152602001600020541015610826576040517f08c379a000000000000000000000000000000000000000000000000000000000815260040161081d90612da6565b60405180910390fd5b80821015610869576040517f08c379a000000000000000000000000000000000000000000000000000000000815260040161086090612e38565b60405180910390fd5b60008714610a16576000878961087f9190612e87565b9050600560009054906101000a900473ffffffffffffffffffffffffffffffffffffffff1673ffffffffffffffffffffffffffffffffffffffff166369328dec8b8a600760009054906101000a900473ffffffffffffffffffffffffffffffffffffffff166040518463ffffffff1660e01b815260040161090293929190612ebb565b602060405180830381600087803b15801561091c57600080fd5b505af1158015610930573d6000803e3d6000fd5b505050506040513d601f19601f820116820180604052508101906109549190612bdc565b5060008114610a1057600560009054906101000a900473ffffffffffffffffffffffffffffffffffffffff1673ffffffffffffffffffffffffffffffffffffffff166369328dec8b838a6040518463ffffffff1660e01b81526004016109bc93929190612ebb565b602060405180830381600087803b1580156109d657600080fd5b505af11580156109ea573d6000803e3d6000fd5b505050506040513d601f19601f82011682018060405250810190610a0e9190612bdc565b505b50610ac9565b600560009054906101000a900473ffffffffffffffffffffffffffffffffffffffff1673ffffffffffffffffffffffffffffffffffffffff166369328dec8a8a896040518463ffffffff1660e01b8152600401610a7593929190612ebb565b602060405180830381600087803b158015610a8f57600080fd5b505af1158015610aa3573d6000803e3d6000fd5b505050506040513d601f19601f82011682018060405250810190610ac79190612bdc565b505b87600160008873ffffffffffffffffffffffffffffffffffffffff1673ffffffffffffffffffffffffffffffffffffffff16815260200190815260200160002060008b73ffffffffffffffffffffffffffffffffffffffff1673ffffffffffffffffffffffffffffffffffffffff1681526020019081526020016000206000828254610b559190612e87565b9250508190555087600260008b73ffffffffffffffffffffffffffffffffffffffff1673ffffffffffffffffffffffffffffffffffffffff1681526020019081526020016000206000828254610bab9190612e87565b925050819055507febff2602b3f468259e1e99f613fed6691f3a6526effe6ef3e768ba7ae7a36c4f89878a600160008b73ffffffffffffffffffffffffffffffffffffffff1673ffffffffffffffffffffffffffffffffffffffff16815260200190815260200160002060008e73ffffffffffffffffffffffffffffffffffffffff1673ffffffffffffffffffffffffffffffffffffffff168152602001908152602001600020548b604051610c65959493929190612ef2565b60405180910390a1505050505050505050565b606060098054610c8790612f74565b80601f0160208091040260200160405190810160405280929190818152602001828054610cb390612f74565b8015610d005780601f10610cd557610100808354040283529160200191610d00565b820191906000526020600020905b815481529060010190602001808311610ce357829003601f168201915b5050505050905090565b6000600760009054906101000a900473ffffffffffffffffffffffffffffffffffffffff16905090565b60606006805480602002602001604051908101604052809291908181526020018280548015610db857602002820191906000526020600020905b8160009054906101000a900473ffffffffffffffffffffffffffffffffffffffff1673ffffffffffffffffffffffffffffffffffffffff1681526020019060010190808311610d6e575b5050505050905090565b6060600a8054610dd190612f74565b80601f0160208091040260200160405190810160405280929190818152602001828054610dfd90612f74565b8015610e4a5780601f10610e1f57610100808354040283529160200191610e4a565b820191906000526020600020905b815481529060010190602001808311610e2d57829003601f168201915b5050505050905090565b600080733c73a5e5785cac854d468f727c606c07488a29d673ffffffffffffffffffffffffffffffffffffffff1663d2493b6c846040518263ffffffff1660e01b8152600401610ea4919061266c565b60606040518083038186803b158015610ebc57600080fd5b505afa158015610ed0573d6000803e3d6000fd5b505050506040513d601f19601f82011682018060405250810190610ef49190612b74565b5050905060008173ffffffffffffffffffffffffffffffffffffffff166370a08231306040518263ffffffff1660e01b8152600401610f33919061266c565b60206040518083038186803b158015610f4b57600080fd5b505afa158015610f5f573d6000803e3d6000fd5b505050506040513d601f19601f82011682018060405250810190610f839190612bdc565b9050600260008573ffffffffffffffffffffffffffffffffffffffff1673ffffffffffffffffffffffffffffffffffffffff1681526020019081526020016000205481610fd09190612e87565b92505050919050565b82601e60008290508160ff16815110611027576040517f08c379a000000000000000000000000000000000000000000000000000000000815260040161101e90612ff2565b60405180910390fd5b8460c860008290508160ff16815110611075576040517f08c379a000000000000000000000000000000000000000000000000000000000815260040161106c90612ff2565b60405180910390fd5b600060019054906101000a900460ff1661109d5760008054906101000a900460ff16156110a6565b6110a561214b565b5b6110e5576040517f08c379a00000000000000000000000000000000000000000000000000000000081526004016110dc90613084565b60405180910390fd5b60008060019054906101000a900460ff161590508015611135576001600060016101000a81548160ff02191690831515021790555060016000806101000a81548160ff0219169083151502179055505b60001515600460009054906101000a900460ff1615151461118b576040517f08c379a0000000000000000000000000000000000000000000000000000000008152600401611182906130f0565b60405180910390fd5b600073ffffffffffffffffffffffffffffffffffffffff16600760009054906101000a900473ffffffffffffffffffffffffffffffffffffffff1673ffffffffffffffffffffffffffffffffffffffff161461121c576040517f08c379a00000000000000000000000000000000000000000000000000000000081526004016112139061315c565b60405180910390fd5b87600760006101000a81548173ffffffffffffffffffffffffffffffffffffffff021916908373ffffffffffffffffffffffffffffffffffffffff16021790555033600860006101000a81548173ffffffffffffffffffffffffffffffffffffffff021916908373ffffffffffffffffffffffffffffffffffffffff16021790555089600990805190602001906112b49291906122db565b5088600a90805190602001906112cb9291906122db565b507388757f2f99175387ab4c6a4b3067c77a695b0349600460016101000a81548173ffffffffffffffffffffffffffffffffffffffff021916908373ffffffffffffffffffffffffffffffffffffffff1602179055506000600460019054906101000a900473ffffffffffffffffffffffffffffffffffffffff1673ffffffffffffffffffffffffffffffffffffffff16630261bf8b6040518163ffffffff1660e01b815260040160206040518083038186803b15801561138b57600080fd5b505afa15801561139f573d6000803e3d6000fd5b505050506040513d601f19601f820116820180604052508101906113c3919061317c565b905080600560006101000a81548173ffffffffffffffffffffffffffffffffffffffff021916908373ffffffffffffffffffffffffffffffffffffffff1602179055508b6006908051906020019061141c929190612361565b5050801561143f5760008060016101000a81548160ff0219169083151502179055505b5050505050505050505050565b60603073ffffffffffffffffffffffffffffffffffffffff16803b806020016040519081016040528181526000908060200190933c905090565b6000600360008373ffffffffffffffffffffffffffffffffffffffff1673ffffffffffffffffffffffffffffffffffffffff168152602001908152602001600020549050919050565b6000600160008473ffffffffffffffffffffffffffffffffffffffff1673ffffffffffffffffffffffffffffffffffffffff16815260200190815260200160002060008373ffffffffffffffffffffffffffffffffffffffff1673ffffffffffffffffffffffffffffffffffffffff16815260200190815260200160002054905092915050565b600080733c73a5e5785cac854d468f727c606c07488a29d673ffffffffffffffffffffffffffffffffffffffff1663d2493b6c846040518263ffffffff1660e01b81526004016115a6919061266c565b60606040518083038186803b1580156115be57600080fd5b505afa1580156115d2573d6000803e3d6000fd5b505050506040513d601f19601f820116820180604052508101906115f69190612b74565b5050905080915050919050565b338073ffffffffffffffffffffffffffffffffffffffff16600860009054906101000a900473ffffffffffffffffffffffffffffffffffffffff1673ffffffffffffffffffffffffffffffffffffffff1614611694576040517f08c379a000000000000000000000000000000000000000000000000000000000815260040161168b90612ca8565b60405180910390fd5b6000600560009054906101000a900473ffffffffffffffffffffffffffffffffffffffff16905073a61ca04df33b72b235a8a28cfb535bb7a5271b7073ffffffffffffffffffffffffffffffffffffffff1663474cf53d34833060006040518563ffffffff1660e01b815260040161170e939291906131fc565b6000604051808303818588803b15801561172757600080fd5b505af115801561173b573d6000803e3d6000fd5b505050505061174b34858561215c565b50505050565b600460009054906101000a900460ff1681565b6000733c73a5e5785cac854d468f727c606c07488a29d673ffffffffffffffffffffffffffffffffffffffff166335ea6a75836040518263ffffffff1660e01b81526004016117b3919061266c565b6101406040518083038186803b1580156117cc57600080fd5b505afa1580156117e0573d6000803e3d6000fd5b505050506040513d601f19601f820116820180604052508101906118049190613270565b9091929394959697985090919293949596975090919293949596509091929394955090919293945090919293509091925090505080915050919050565b338073ffffffffffffffffffffffffffffffffffffffff16600860009054906101000a900473ffffffffffffffffffffffffffffffffffffffff1673ffffffffffffffffffffffffffffffffffffffff16146118d2576040517f08c379a00000000000000000000000000000000000000000000000000000000081526004016118c990612ca8565b60405180910390fd5b81600080600090505b6006805490508160ff16101561197c5760068160ff16815481106119025761190161334f565b5b9060005260206000200160009054906101000a900473ffffffffffffffffffffffffffffffffffffffff1673ffffffffffffffffffffffffffffffffffffffff168373ffffffffffffffffffffffffffffffffffffffff161415611969576001915061197c565b80806119749061338b565b9150506118db565b50806119bd576040517f08c379a00000000000000000000000000000000000000000000000000000000081526004016119b490613427565b60405180910390fd5b6000733c73a5e5785cac854d468f727c606c07488a29d673ffffffffffffffffffffffffffffffffffffffff1663d2493b6c866040518263ffffffff1660e01b8152600401611a0c919061266c565b60606040518083038186803b158015611a2457600080fd5b505afa158015611a38573d6000803e3d6000fd5b505050506040513d601f19601f82011682018060405250810190611a5c9190612b74565b5050905060008173ffffffffffffffffffffffffffffffffffffffff166370a08231306040518263ffffffff1660e01b8152600401611a9b919061266c565b60206040518083038186803b158015611ab357600080fd5b505afa158015611ac7573d6000803e3d6000fd5b505050506040513d601f19601f82011682018060405250810190611aeb9190612bdc565b90506000600260008873ffffffffffffffffffffffffffffffffffffffff1673ffffffffffffffffffffffffffffffffffffffff1681526020019081526020016000205482611b3a9190612e87565b905080600360008973ffffffffffffffffffffffffffffffffffffffff1673ffffffffffffffffffffffffffffffffffffffff1681526020019081526020016000206000828254611b8b9190613447565b92505081905550600560009054906101000a900473ffffffffffffffffffffffffffffffffffffffff1673ffffffffffffffffffffffffffffffffffffffff166369328dec8883600760009054906101000a900473ffffffffffffffffffffffffffffffffffffffff166040518463ffffffff1660e01b8152600401611c1393929190612ebb565b602060405180830381600087803b158015611c2d57600080fd5b505af1158015611c41573d6000803e3d6000fd5b505050506040513d601f19601f82011682018060405250810190611c659190612bdc565b507ffb42c6fc06609281806d5b0ad4bd7b7bb222a7ac7fa9e5211fa7ac032fa491ae87600760009054906101000a900473ffffffffffffffffffffffffffffffffffffffff1683600260008c73ffffffffffffffffffffffffffffffffffffffff1673ffffffffffffffffffffffffffffffffffffffff1681526020019081526020016000205487604051611cfe95949392919061349d565b60405180910390a150505050505050565b338073ffffffffffffffffffffffffffffffffffffffff16600860009054906101000a900473ffffffffffffffffffffffffffffffffffffffff1673ffffffffffffffffffffffffffffffffffffffff1614611da0576040517f08c379a0000000000000000000000000000000000000000000000000000000008152600401611d9790612ca8565b60405180910390fd5b83600080600090505b6006805490508160ff161015611e4a5760068160ff1681548110611dd057611dcf61334f565b5b9060005260206000200160009054906101000a900473ffffffffffffffffffffffffffffffffffffffff1673ffffffffffffffffffffffffffffffffffffffff168373ffffffffffffffffffffffffffffffffffffffff161415611e375760019150611e4a565b8080611e429061338b565b915050611da9565b5080611e8b576040517f08c379a0000000000000000000000000000000000000000000000000000000008152600401611e8290613427565b60405180910390fd5b6000869050858173ffffffffffffffffffffffffffffffffffffffff1663dd62ed3e87306040518363ffffffff1660e01b8152600401611ecc9291906134f0565b60206040518083038186803b158015611ee457600080fd5b505afa158015611ef8573d6000803e3d6000fd5b505050506040513d601f19601f82011682018060405250810190611f1c9190612bdc565b1015611f5d576040517f08c379a0000000000000000000000000000000000000000000000000000000008152600401611f5490613565565b60405180910390fd5b8073ffffffffffffffffffffffffffffffffffffffff166323b872dd8630896040518463ffffffff1660e01b8152600401611f9a93929190613585565b602060405180830381600087803b158015611fb457600080fd5b505af1158015611fc8573d6000803e3d6000fd5b505050506040513d601f19601f82011682018060405250810190611fec91906135e8565b506000600560009054906101000a900473ffffffffffffffffffffffffffffffffffffffff1690508173ffffffffffffffffffffffffffffffffffffffff1663095ea7b382896040518363ffffffff1660e01b815260040161204f929190613615565b602060405180830381600087803b15801561206957600080fd5b505af115801561207d573d6000803e3d6000fd5b505050506040513d601f19601f820116820180604052508101906120a191906135e8565b50600560009054906101000a900473ffffffffffffffffffffffffffffffffffffffff1673ffffffffffffffffffffffffffffffffffffffff1663e8eda9df83893060006040518563ffffffff1660e01b8152600401612104949392919061363e565b600060405180830381600087803b15801561211e57600080fd5b505af1158015612132573d6000803e3d6000fd5b5050505061214187898861215c565b5050505050505050565b6000612156306122c8565b15905090565b6000600160008373ffffffffffffffffffffffffffffffffffffffff1673ffffffffffffffffffffffffffffffffffffffff16815260200190815260200160002060008473ffffffffffffffffffffffffffffffffffffffff1673ffffffffffffffffffffffffffffffffffffffff16815260200190815260200160002054905083816121e99190613447565b905083600260008573ffffffffffffffffffffffffffffffffffffffff1673ffffffffffffffffffffffffffffffffffffffff168152602001908152602001600020600082825461223a9190613447565b9250508190555080600160008473ffffffffffffffffffffffffffffffffffffffff1673ffffffffffffffffffffffffffffffffffffffff16815260200190815260200160002060008573ffffffffffffffffffffffffffffffffffffffff1673ffffffffffffffffffffffffffffffffffffffff1681526020019081526020016000208190555050505050565b600080823b905060008111915050919050565b8280546122e790612f74565b90600052602060002090601f0160209004810192826123095760008555612350565b82601f1061232257805160ff1916838001178555612350565b82800160010185558215612350579182015b8281111561234f578251825591602001919060010190612334565b5b50905061235d91906123eb565b5090565b8280548282559060005260206000209081019282156123da579160200282015b828111156123d95782518260006101000a81548173ffffffffffffffffffffffffffffffffffffffff021916908373ffffffffffffffffffffffffffffffffffffffff16021790555091602001919060010190612381565b5b5090506123e791906123eb565b5090565b5b808211156124045760008160009055506001016123ec565b5090565b6000604051905090565b600080fd5b600080fd5b600073ffffffffffffffffffffffffffffffffffffffff82169050919050565b60006124478261241c565b9050919050565b6124578161243c565b811461246257600080fd5b50565b6000813590506124748161244e565b92915050565b6000602082840312156124905761248f612412565b5b600061249e84828501612465565b91505092915050565b6000819050919050565b6124ba816124a7565b82525050565b60006020820190506124d560008301846124b1565b92915050565b6000819050919050565b6124ee816124db565b82525050565b600060208201905061250960008301846124e5565b92915050565b612518816124a7565b811461252357600080fd5b50565b6000813590506125358161250f565b92915050565b6000806000806080858703121561255557612554612412565b5b600061256387828801612465565b945050602061257487828801612526565b935050604061258587828801612526565b925050606061259687828801612465565b91505092959194509250565b600081519050919050565b600082825260208201905092915050565b60005b838110156125dc5780820151818401526020810190506125c1565b838111156125eb576000848401525b50505050565b6000601f19601f8301169050919050565b600061260d826125a2565b61261781856125ad565b93506126278185602086016125be565b612630816125f1565b840191505092915050565b600060208201905081810360008301526126558184612602565b905092915050565b6126668161243c565b82525050565b6000602082019050612681600083018461265d565b92915050565b600081519050919050565b600082825260208201905092915050565b6000819050602082019050919050565b6126bc8161243c565b82525050565b60006126ce83836126b3565b60208301905092915050565b6000602082019050919050565b60006126f282612687565b6126fc8185612692565b9350612707836126a3565b8060005b8381101561273857815161271f88826126c2565b975061272a836126da565b92505060018101905061270b565b5085935050505092915050565b6000602082019050818103600083015261275f81846126e7565b905092915050565b600080fd5b7f4e487b7100000000000000000000000000000000000000000000000000000000600052604160045260246000fd5b6127a4826125f1565b810181811067ffffffffffffffff821117156127c3576127c261276c565b5b80604052505050565b60006127d6612408565b90506127e2828261279b565b919050565b600067ffffffffffffffff8211156128025761280161276c565b5b602082029050602081019050919050565b600080fd5b600061282b612826846127e7565b6127cc565b9050808382526020820190506020840283018581111561284e5761284d612813565b5b835b8181101561287757806128638882612465565b845260208401935050602081019050612850565b5050509392505050565b600082601f83011261289657612895612767565b5b81356128a6848260208601612818565b91505092915050565b600080fd5b600067ffffffffffffffff8211156128cf576128ce61276c565b5b6128d8826125f1565b9050602081019050919050565b82818337600083830152505050565b6000612907612902846128b4565b6127cc565b905082815260208101848484011115612923576129226128af565b5b61292e8482856128e5565b509392505050565b600082601f83011261294b5761294a612767565b5b813561295b8482602086016128f4565b91505092915050565b6000806000806080858703121561297e5761297d612412565b5b600085013567ffffffffffffffff81111561299c5761299b612417565b5b6129a887828801612881565b945050602085013567ffffffffffffffff8111156129c9576129c8612417565b5b6129d587828801612936565b935050604085013567ffffffffffffffff8111156129f6576129f5612417565b5b612a0287828801612936565b9250506060612a1387828801612465565b91505092959194509250565b600081519050919050565b600082825260208201905092915050565b6000612a4682612a1f565b612a508185612a2a565b9350612a608185602086016125be565b612a69816125f1565b840191505092915050565b60006020820190508181036000830152612a8e8184612a3b565b905092915050565b60008060408385031215612aad57612aac612412565b5b6000612abb85828601612465565b9250506020612acc85828601612465565b9150509250929050565b60008115159050919050565b612aeb81612ad6565b82525050565b6000602082019050612b066000830184612ae2565b92915050565b600080600060608486031215612b2557612b24612412565b5b6000612b3386828701612465565b9350506020612b4486828701612526565b9250506040612b5586828701612465565b9150509250925092565b600081519050612b6e8161244e565b92915050565b600080600060608486031215612b8d57612b8c612412565b5b6000612b9b86828701612b5f565b9350506020612bac86828701612b5f565b9250506040612bbd86828701612b5f565b9150509250925092565b600081519050612bd68161250f565b92915050565b600060208284031215612bf257612bf1612412565b5b6000612c0084828501612bc7565b91505092915050565b600081905092915050565b6000612c1f82612a1f565b612c298185612c09565b9350612c398185602086016125be565b80840191505092915050565b6000612c518284612c14565b915081905092915050565b7f796f7520617265206e6f7420746865206f776e65720000000000000000000000600082015250565b6000612c926015836125ad565b9150612c9d82612c5c565b602082019050919050565b60006020820190508181036000830152612cc181612c85565b9050919050565b7f616d6f756e74206d757374206578636565642030000000000000000000000000600082015250565b6000612cfe6014836125ad565b9150612d0982612cc8565b602082019050919050565b60006020820190508181036000830152612d2d81612cf1565b9050919050565b7f6e6f2066756e6473206465706f736974656420666f722073656c65637465642060008201527f746f6b656e000000000000000000000000000000000000000000000000000000602082015250565b6000612d906025836125ad565b9150612d9b82612d34565b604082019050919050565b60006020820190508181036000830152612dbf81612d83565b9050919050565b7f646f6e6174696f6e2063616e6e6f74206578636565642077697468647261776160008201527f6c20616d6f756e74000000000000000000000000000000000000000000000000602082015250565b6000612e226028836125ad565b9150612e2d82612dc6565b604082019050919050565b60006020820190508181036000830152612e5181612e15565b9050919050565b7f4e487b7100000000000000000000000000000000000000000000000000000000600052601160045260246000fd5b6000612e92826124a7565b9150612e9d836124a7565b925082821015612eb057612eaf612e58565b5b828203905092915050565b6000606082019050612ed0600083018661265d565b612edd60208301856124b1565b612eea604083018461265d565b949350505050565b600060a082019050612f07600083018861265d565b612f14602083018761265d565b612f2160408301866124b1565b612f2e60608301856124b1565b612f3b60808301846124b1565b9695505050505050565b7f4e487b7100000000000000000000000000000000000000000000000000000000600052602260045260246000fd5b60006002820490506001821680612f8c57607f821691505b60208210811415612fa057612f9f612f45565b5b50919050565b7f737472696e67206f76657220636861726163746572206c696d69740000000000600082015250565b6000612fdc601b836125ad565b9150612fe782612fa6565b602082019050919050565b6000602082019050818103600083015261300b81612fcf565b9050919050565b7f496e697469616c697a61626c653a20636f6e747261637420697320616c72656160008201527f647920696e697469616c697a6564000000000000000000000000000000000000602082015250565b600061306e602e836125ad565b915061307982613012565b604082019050919050565b6000602082019050818103600083015261309d81613061565b9050919050565b7f43616e6e6f7420696e697469616c697a65206261736500000000000000000000600082015250565b60006130da6016836125ad565b91506130e5826130a4565b602082019050919050565b60006020820190508181036000830152613109816130cd565b9050919050565b7f496e697469616c697a6520616c72656164792063616c6c656400000000000000600082015250565b60006131466019836125ad565b915061315182613110565b602082019050919050565b6000602082019050818103600083015261317581613139565b9050919050565b60006020828403121561319257613191612412565b5b60006131a084828501612b5f565b91505092915050565b6000819050919050565b600061ffff82169050919050565b6000819050919050565b60006131e66131e16131dc846131a9565b6131c1565b6131b3565b9050919050565b6131f6816131cb565b82525050565b6000606082019050613211600083018661265d565b61321e602083018561265d565b61322b60408301846131ed565b949350505050565b600064ffffffffff82169050919050565b61324d81613233565b811461325857600080fd5b50565b60008151905061326a81613244565b92915050565b6000806000806000806000806000806101408b8d03121561329457613293612412565b5b60006132a28d828e01612bc7565b9a505060206132b38d828e01612bc7565b99505060406132c48d828e01612bc7565b98505060606132d58d828e01612bc7565b97505060806132e68d828e01612bc7565b96505060a06132f78d828e01612bc7565b95505060c06133088d828e01612bc7565b94505060e06133198d828e01612bc7565b93505061010061332b8d828e01612bc7565b92505061012061333d8d828e0161325b565b9150509295989b9194979a5092959850565b7f4e487b7100000000000000000000000000000000000000000000000000000000600052603260045260246000fd5b600060ff82169050919050565b60006133968261337e565b915060ff8214156133aa576133a9612e58565b5b600182019050919050565b7f7375626d697474656420746f6b656e2061646472657373206973206e6f74206160008201527f6363657074656420627920706f6f6c0000000000000000000000000000000000602082015250565b6000613411602f836125ad565b915061341c826133b5565b604082019050919050565b6000602082019050818103600083015261344081613404565b9050919050565b6000613452826124a7565b915061345d836124a7565b9250827fffffffffffffffffffffffffffffffffffffffffffffffffffffffffffffffff0382111561349257613491612e58565b5b828201905092915050565b600060a0820190506134b2600083018861265d565b6134bf602083018761265d565b6134cc60408301866124b1565b6134d960608301856124b1565b6134e6608083018461265d565b9695505050505050565b6000604082019050613505600083018561265d565b613512602083018461265d565b9392505050565b7f73656e646572206e6f7420617070726f76656400000000000000000000000000600082015250565b600061354f6013836125ad565b915061355a82613519565b602082019050919050565b6000602082019050818103600083015261357e81613542565b9050919050565b600060608201905061359a600083018661265d565b6135a7602083018561265d565b6135b460408301846124b1565b949350505050565b6135c581612ad6565b81146135d057600080fd5b50565b6000815190506135e2816135bc565b92915050565b6000602082840312156135fe576135fd612412565b5b600061360c848285016135d3565b91505092915050565b600060408201905061362a600083018561265d565b61363760208301846124b1565b9392505050565b6000608082019050613653600083018761265d565b61366060208301866124b1565b61366d604083018561265d565b61367a60608301846131ed565b9594505050505056fea2646970667358221220e68f92d1117167400eaaa032b674ddc0d3796fc33213b77461d708ea4bdbce8464736f6c63430008090033",
  "immutableReferences": {},
  "source": "// SPDX-License-Identifier: MIT\npragma solidity 0.8.9;\n\nimport { IERC20, ILendingPool, ILendingPoolAddressesProvider, IProtocolDataProvider, IWETHGateway} from './Interfaces.sol';\nimport { SafeERC20 } from './Libraries.sol';\nimport \"@openzeppelin/contracts/proxy/utils/Initializable.sol\";\n/**\n * This is a proof of concept starter contract, showing how uncollaterised loans are possible\n * using Aave v2 credit delegation.\n * This example supports stable interest rate borrows.\n * It is not production ready (!). User permissions and user accounting of loans should be implemented.\n * See @dev comments\n */\n\ncontract JustCausePool is Initializable {\n    mapping(address => mapping(address => uint256)) private depositors;\n    mapping(address => uint256) private totalDeposits;\n    mapping(address => uint256) private interestWithdrawn;\n    bool public isBase;\n\n    //IPoolTracker poolTracker;\n\n    ILendingPoolAddressesProvider provider;\n    ILendingPool lendingPool;\n    IProtocolDataProvider constant dataProvider = IProtocolDataProvider(address(0x3c73A5E5785cAC854D468F727c606C07488a29D6)); // Kovan\n    IWETHGateway constant wethGateway = IWETHGateway(address(0xA61ca04DF33B72b235a8A28CfB535bb7A5271B70)); //Kovan\n\n    address[] acceptedTokens;\n\n    event Deposit(address tokenAddress, address depositor, uint256 amount, uint256 totalDeposits);\n    event Withdraw(address tokenAddress, address depositor, uint256 amount, uint256 userDeposits, uint256 donation);\n    event WithdrawDonations(address tokenAddress, address depositor, uint256 amount, uint256 totalDeposits, address aTokenAddress);\n\n    address receiver;\n    address master;\n    string name;\n    string about;\n\n    modifier onlyAllowedTokens(address _tokenAddr){\n        bool isAccepted;\n        for (uint8 i = 0; i < acceptedTokens.length; i++){\n            if(_tokenAddr == acceptedTokens[i]){\n                isAccepted = true;\n                break;\n            }\n        }\n        require(isAccepted, \"submitted token address is not accepted by pool\");\n        _;\n    }\n\n    modifier enoughFunds(address _userAddr, address _tokenAddr, uint256 _amount, uint256 _donation) {\n        require(_amount > 0, \"amount must exceed 0\");\n        require(depositors[_userAddr][_tokenAddr]  >= _amount, \"no funds deposited for selected token\");\n        require(_amount >= _donation, \"donation cannot exceed withdrawal amount\");\n        _;\n    }\n\n    modifier onlyReceiver(address _sender){\n        require(receiver == _sender, \"you are not the current reciever for this pool\");\n        _;\n    }\n\n    modifier onlyMaster(address _sender){\n        require(master == _sender, \"you are not the owner\");\n        _;\n    }\n\n    modifier strLength(string memory _str, uint8 _limit ){\n        bytes memory strBytes = bytes(_str);\n        require(strBytes.length < _limit, \"string over character limit\");\n        _;\n    }\n\n    constructor () {\n        isBase = true;\n    }\n\n    function initialize(\n        address[] memory _acceptedTokens,\n        string memory _name,\n        string memory _about,\n        address _receiver)\n\n    strLength(_name, 30) strLength(_about, 200) initializer() external {\n\n        require(isBase == false, \"Cannot initialize base\");\n        require(receiver == address(0), \"Initialize already called\");\n\n        receiver = _receiver;\n        master = msg.sender;\n        name = _name;\n        about = _about;\n        provider = ILendingPoolAddressesProvider(address(0x88757f2f99175387aB4C6a4b3067c77A695b0349));\n        address lendingPoolAddr = provider.getLendingPool();\n        lendingPool = ILendingPool(lendingPoolAddr); // Kovan\n        acceptedTokens = _acceptedTokens;\n    }\n\n    function deposit(address _assetAddress, uint256 _amount, address _depositor) onlyMaster(msg.sender) onlyAllowedTokens(_assetAddress) public {\n        IERC20 token = IERC20(_assetAddress);\n        require(token.allowance(_depositor, address(this)) >= _amount, \"sender not approved\");\n        token.transferFrom(_depositor, address(this), _amount);\n        address poolAddr = address(lendingPool);\n        token.approve(poolAddr, _amount);\n        lendingPool.deposit(address(token), _amount, address(this), 0);\n        tallyDeposit(_amount, _assetAddress, _depositor);\n    }\n\n    function depositETH(address _wethAddress, address _depositor) onlyMaster(msg.sender) public payable {\n        address poolAddr = address(lendingPool);\n        wethGateway.depositETH{value: msg.value}(poolAddr, address(this), 0);\n        tallyDeposit(msg.value, _wethAddress, _depositor);\n    }\n\n    function tallyDeposit(uint256 _amount, address _assetAddress, address _depositor) internal {\n        uint256 depositedAmount = depositors[_depositor][_assetAddress];\n        //uint256 liquidityIndex = getAaveLiquidityIndex(_assetAddress);\n        //if(depositedAmount == 0){\n            //poolTracker.addDeposit(_depositor, _amount, liquidityIndex, block.timestamp, _assetAddress);\n        //}\n        depositedAmount += _amount;\n        totalDeposits[_assetAddress] += _amount;\n        depositors[_depositor][_assetAddress] = depositedAmount;\n    }\n\n    function withdraw(address _assetAddress, uint256 _amount, uint256 _donation, address _depositor) onlyMaster(msg.sender) enoughFunds(_depositor, _assetAddress, _amount, _donation) public {\n        //address poolAddr = address(lendingPool);\n        if(_donation != 0){\n            uint256 newAmount = _amount - _donation;\n            lendingPool.withdraw(_assetAddress, _donation, receiver);\n            if(newAmount != 0)\n                lendingPool.withdraw(_assetAddress, newAmount, _depositor);\n        }\n        else\n            lendingPool.withdraw(_assetAddress, _amount, _depositor);\n\n        depositors[_depositor][_assetAddress] -= _amount;\n        totalDeposits[_assetAddress] -= _amount;\n\n        //if(depositors[_depositor][_assetAddress] == 0){\n            //poolTracker.withdrawDeposit(_depositor, _amount, block.timestamp, _assetAddress);\n        //}\n        emit Withdraw(_assetAddress, _depositor, _amount, depositors[_depositor][_assetAddress], _donation);\n    }\n\n    function withdrawDonations(address _assetAddress) onlyMaster(msg.sender) onlyAllowedTokens(_assetAddress) public{\n        (address aTokenAddress,,) = dataProvider.getReserveTokensAddresses(_assetAddress);\n\n        uint256 aTokenBalance = IERC20(aTokenAddress).balanceOf(address(this));\n        uint256 interestEarned = aTokenBalance - totalDeposits[_assetAddress];\n        interestWithdrawn[_assetAddress] += interestEarned;\n        lendingPool.withdraw(_assetAddress, interestEarned, receiver);\n        emit WithdrawDonations(_assetAddress, receiver, interestEarned, totalDeposits[_assetAddress], aTokenAddress);\n    }\n\n    function getUserBalance(address _userAddr, address _token) external view returns(uint256){\n        return depositors[_userAddr][_token];\n    }\n\n    function getTotalDeposits(address _token) external view returns(uint256){\n        return totalDeposits[_token];\n    }\n\n    function getAcceptedTokens() external view returns(address[] memory){\n        return acceptedTokens;\n    }\n\n    function getName() external view returns(string memory){\n        return name;\n    }\n\n    function getAbout() external view returns(string memory){\n        return about;\n    }\n\n    function getATokenAddress(address _assetAddress) external view returns(address){\n        (address aTokenAddress,,) = dataProvider.getReserveTokensAddresses(_assetAddress);\n        return aTokenAddress;\n    }\n\n    function getUnclaimedInterest(address _assetAddress) external view returns (uint256){\n        (address aTokenAddress,,) = dataProvider.getReserveTokensAddresses(_assetAddress);\n            uint256 aTokenBalance = IERC20(aTokenAddress).balanceOf(address(this));\n            return aTokenBalance - totalDeposits[_assetAddress];\n    }\n\n    function getClaimedInterest(address _assetAddress) external view returns (uint256){\n        return interestWithdrawn[_assetAddress];\n    }\n\n    function getATokenBalance(address _assetAddress) external view returns (uint256){\n        (address aTokenAddress,,) = dataProvider.getReserveTokensAddresses(_assetAddress);\n        return IERC20(aTokenAddress).balanceOf(address(this));\n    }\n\n    function getRecipient() external view returns(address){\n        return receiver;\n    }\n\n    function getByteCode() external view returns(bytes memory) {\n        return address(this).code;\n    }\n\n    function getHashByteCode() public view returns(bytes32) {\n        return keccak256(abi.encodePacked(address(this).code));\n    }\n\n    function getAaveLiquidityIndex(address _asset) public view returns(uint256 liquidityIndex){\n        (,,,,,,,liquidityIndex,,) = dataProvider.getReserveData(_asset);\n    }\n}",
  "sourcePath": "/home/smeee/just_cause/contracts/JustCausePool.sol",
  "compiler": {
    "name": "solc",
    "version": "0.8.9+commit.e5eed63a.Emscripten.clang"
  },
  "schemaVersion": "3.4.3",
  "updatedAt": "2022-02-02T03:16:10.299Z",
  "devdoc": {
    "details": "comments",
    "kind": "dev",
    "methods": {},
    "version": 1
  },
  "userdoc": {
    "kind": "user",
    "methods": {},
    "notice": "This is a proof of concept starter contract, showing how uncollaterised loans are possible using Aave v2 credit delegation. This example supports stable interest rate borrows. It is not production ready (!). User permissions and user accounting of loans should be implemented.",
    "version": 1
  }
}