{
  "contractName": "JustCausePool",
  "abi": [
    {
      "inputs": [],
      "stateMutability": "nonpayable",
      "type": "constructor"
    },
    {
      "anonymous": false,
      "inputs": [
        {
          "indexed": false,
          "internalType": "address",
          "name": "tokenAddress",
          "type": "address"
        },
        {
          "indexed": false,
          "internalType": "address",
          "name": "depositor",
          "type": "address"
        },
        {
          "indexed": false,
          "internalType": "uint256",
          "name": "amount",
          "type": "uint256"
        },
        {
          "indexed": false,
          "internalType": "uint256",
          "name": "totalDeposits",
          "type": "uint256"
        }
      ],
      "name": "Deposit",
      "type": "event"
    },
    {
      "anonymous": false,
      "inputs": [
        {
          "indexed": false,
          "internalType": "address",
          "name": "tokenAddress",
          "type": "address"
        },
        {
          "indexed": false,
          "internalType": "address",
          "name": "depositor",
          "type": "address"
        },
        {
          "indexed": false,
          "internalType": "uint256",
          "name": "amount",
          "type": "uint256"
        }
      ],
      "name": "Withdraw",
      "type": "event"
    },
    {
      "anonymous": false,
      "inputs": [
        {
          "indexed": false,
          "internalType": "address",
          "name": "tokenAddress",
          "type": "address"
        },
        {
          "indexed": false,
          "internalType": "address",
          "name": "depositor",
          "type": "address"
        },
        {
          "indexed": false,
          "internalType": "uint256",
          "name": "amount",
          "type": "uint256"
        },
        {
          "indexed": false,
          "internalType": "uint256",
          "name": "totalDeposits",
          "type": "uint256"
        },
        {
          "indexed": false,
          "internalType": "address",
          "name": "aTokenAddress",
          "type": "address"
        }
      ],
      "name": "WithdrawDonations",
      "type": "event"
    },
    {
      "inputs": [],
      "name": "isBase",
      "outputs": [
        {
          "internalType": "bool",
          "name": "",
          "type": "bool"
        }
      ],
      "stateMutability": "view",
      "type": "function"
    },
    {
      "inputs": [
        {
          "internalType": "address[]",
          "name": "_acceptedTokens",
          "type": "address[]"
        },
        {
          "internalType": "string",
          "name": "_name",
          "type": "string"
        },
        {
          "internalType": "string",
          "name": "_about",
          "type": "string"
        },
        {
          "internalType": "address",
          "name": "_receiver",
          "type": "address"
        }
      ],
      "name": "initialize",
      "outputs": [],
      "stateMutability": "nonpayable",
      "type": "function"
    },
    {
      "inputs": [
        {
          "internalType": "address",
          "name": "_assetAddress",
          "type": "address"
        },
        {
          "internalType": "uint256",
          "name": "_amount",
          "type": "uint256"
        },
        {
          "internalType": "address",
          "name": "_depositor",
          "type": "address"
        }
      ],
      "name": "deposit",
      "outputs": [],
      "stateMutability": "nonpayable",
      "type": "function"
    },
    {
      "inputs": [
        {
          "internalType": "address",
          "name": "_wethAddress",
          "type": "address"
        }
      ],
      "name": "depositETH",
      "outputs": [],
      "stateMutability": "payable",
      "type": "function"
    },
    {
      "inputs": [
        {
          "internalType": "address",
          "name": "_assetAddress",
          "type": "address"
        },
        {
          "internalType": "uint256",
          "name": "_amount",
          "type": "uint256"
        },
        {
          "internalType": "address",
          "name": "_depositor",
          "type": "address"
        }
      ],
      "name": "withdraw",
      "outputs": [],
      "stateMutability": "nonpayable",
      "type": "function"
    },
    {
      "inputs": [
        {
          "internalType": "address",
          "name": "_assetAddress",
          "type": "address"
        }
      ],
      "name": "withdrawDonations",
      "outputs": [],
      "stateMutability": "nonpayable",
      "type": "function"
    },
    {
      "inputs": [
        {
          "internalType": "address",
          "name": "_token",
          "type": "address"
        }
      ],
      "name": "getTotalDeposits",
      "outputs": [
        {
          "internalType": "uint256",
          "name": "",
          "type": "uint256"
        }
      ],
      "stateMutability": "view",
      "type": "function"
    },
    {
      "inputs": [],
      "name": "getAcceptedTokens",
      "outputs": [
        {
          "internalType": "address[]",
          "name": "",
          "type": "address[]"
        }
      ],
      "stateMutability": "view",
      "type": "function"
    },
    {
      "inputs": [
        {
          "internalType": "address",
          "name": "_asset",
          "type": "address"
        }
      ],
      "name": "getReserveNormalizedIncome",
      "outputs": [
        {
          "internalType": "uint256",
          "name": "",
          "type": "uint256"
        }
      ],
      "stateMutability": "view",
      "type": "function"
    },
    {
      "inputs": [],
      "name": "getName",
      "outputs": [
        {
          "internalType": "string",
          "name": "",
          "type": "string"
        }
      ],
      "stateMutability": "view",
      "type": "function"
    },
    {
      "inputs": [],
      "name": "getAbout",
      "outputs": [
        {
          "internalType": "string",
          "name": "",
          "type": "string"
        }
      ],
      "stateMutability": "view",
      "type": "function"
    },
    {
      "inputs": [
        {
          "internalType": "address",
          "name": "_assetAddress",
          "type": "address"
        }
      ],
      "name": "getATokenAddress",
      "outputs": [
        {
          "internalType": "address",
          "name": "",
          "type": "address"
        }
      ],
      "stateMutability": "view",
      "type": "function"
    },
    {
      "inputs": [
        {
          "internalType": "address",
          "name": "_assetAddress",
          "type": "address"
        }
      ],
      "name": "getUnclaimedInterest",
      "outputs": [
        {
          "internalType": "uint256",
          "name": "",
          "type": "uint256"
        }
      ],
      "stateMutability": "view",
      "type": "function"
    },
    {
      "inputs": [
        {
          "internalType": "address",
          "name": "_assetAddress",
          "type": "address"
        }
      ],
      "name": "getClaimedInterest",
      "outputs": [
        {
          "internalType": "uint256",
          "name": "",
          "type": "uint256"
        }
      ],
      "stateMutability": "view",
      "type": "function"
    },
    {
      "inputs": [
        {
          "internalType": "address",
          "name": "_assetAddress",
          "type": "address"
        }
      ],
      "name": "getATokenBalance",
      "outputs": [
        {
          "internalType": "uint256",
          "name": "",
          "type": "uint256"
        }
      ],
      "stateMutability": "view",
      "type": "function"
    },
    {
      "inputs": [],
      "name": "getRecipient",
      "outputs": [
        {
          "internalType": "address",
          "name": "",
          "type": "address"
        }
      ],
      "stateMutability": "view",
      "type": "function"
    },
    {
      "inputs": [],
      "name": "getByteCode",
      "outputs": [
        {
          "internalType": "bytes",
          "name": "",
          "type": "bytes"
        }
      ],
      "stateMutability": "view",
      "type": "function"
    },
    {
      "inputs": [],
      "name": "getHashByteCode",
      "outputs": [
        {
          "internalType": "bytes32",
          "name": "",
          "type": "bytes32"
        }
      ],
      "stateMutability": "view",
      "type": "function"
    },
    {
      "inputs": [
        {
          "internalType": "address",
          "name": "_asset",
          "type": "address"
        }
      ],
      "name": "getAaveLiquidityIndex",
      "outputs": [
        {
          "internalType": "uint256",
          "name": "liquidityIndex",
          "type": "uint256"
        }
      ],
      "stateMutability": "view",
      "type": "function"
    }
  ],
  "bytecode": "0x608060405234801561001057600080fd5b506001600360006101000a81548160ff02191690831515021790555061302b8061003b6000396000f3fe6080604052600436106101145760003560e01c806350d02d71116100a05780637f80069a116100645780637f80069a146103ba5780638aebe8d6146103e5578063a56f5b5314610422578063d15e00531461044b578063f45346dc1461048857610114565b806350d02d71146102c357806357ac6566146102ec5780635ff189b91461031757806369328dec14610354578063711cc0051461037d57610114565b80631b88094d116100e75780631b88094d146101e95780632d2da806146102145780632f75700614610230578063343d693b1461025b5780633735ef881461028657610114565b80630251cfa1146101195780630712f6b3146101565780630835d21a1461019357806317d7de7c146101be575b600080fd5b34801561012557600080fd5b50610140600480360381019061013b919061200a565b6104b1565b60405161014d9190612050565b60405180910390f35b34801561016257600080fd5b5061017d6004803603810190610178919061200a565b6104fa565b60405161018a9190612050565b60405180910390f35b34801561019f57600080fd5b506101a861062f565b6040516101b59190612084565b60405180910390f35b3480156101ca57600080fd5b506101d361068f565b6040516101e09190612138565b60405180910390f35b3480156101f557600080fd5b506101fe610721565b60405161020b9190612169565b60405180910390f35b61022e6004803603810190610229919061200a565b61074b565b005b34801561023c57600080fd5b506102456108e3565b6040516102529190612242565b60405180910390f35b34801561026757600080fd5b50610270610971565b60405161027d9190612138565b60405180910390f35b34801561029257600080fd5b506102ad60048036038101906102a8919061200a565b610a03565b6040516102ba9190612050565b60405180910390f35b3480156102cf57600080fd5b506102ea60048036038101906102e59190612461565b610b88565b005b3480156102f857600080fd5b50610301610ffb565b60405161030e9190612571565b60405180910390f35b34801561032357600080fd5b5061033e6004803603810190610339919061200a565b611035565b60405161034b9190612050565b60405180910390f35b34801561036057600080fd5b5061037b600480360381019061037691906125bf565b61107e565b005b34801561038957600080fd5b506103a4600480360381019061039f919061200a565b6112a1565b6040516103b19190612169565b60405180910390f35b3480156103c657600080fd5b506103cf61134e565b6040516103dc919061262d565b60405180910390f35b3480156103f157600080fd5b5061040c6004803603810190610407919061200a565b611361565b6040516104199190612050565b60405180910390f35b34801561042e57600080fd5b506104496004803603810190610444919061200a565b61143e565b005b34801561045757600080fd5b50610472600480360381019061046d919061200a565b61190c565b60405161047f9190612050565b60405180910390f35b34801561049457600080fd5b506104af60048036038101906104aa91906125bf565b6119c0565b005b6000600160008373ffffffffffffffffffffffffffffffffffffffff1673ffffffffffffffffffffffffffffffffffffffff168152602001908152602001600020549050919050565b600080733c73a5e5785cac854d468f727c606c07488a29d673ffffffffffffffffffffffffffffffffffffffff1663d2493b6c846040518263ffffffff1660e01b815260040161054a9190612169565b60606040518083038186803b15801561056257600080fd5b505afa158015610576573d6000803e3d6000fd5b505050506040513d601f19601f8201168201806040525081019061059a919061265d565b505090508073ffffffffffffffffffffffffffffffffffffffff166370a08231306040518263ffffffff1660e01b81526004016105d79190612169565b60206040518083038186803b1580156105ef57600080fd5b505afa158015610603573d6000803e3d6000fd5b505050506040513d601f19601f8201168201806040525081019061062791906126c5565b915050919050565b60003073ffffffffffffffffffffffffffffffffffffffff16803b806020016040519081016040528181526000908060200190933c604051602001610674919061272e565b60405160208183030381529060405280519060200120905090565b60606008805461069e90612774565b80601f01602080910402602001604051908101604052809291908181526020018280546106ca90612774565b80156107175780601f106106ec57610100808354040283529160200191610717565b820191906000526020600020905b8154815290600101906020018083116106fa57829003601f168201915b5050505050905090565b6000600660009054906101000a900473ffffffffffffffffffffffffffffffffffffffff16905090565b338073ffffffffffffffffffffffffffffffffffffffff16600760009054906101000a900473ffffffffffffffffffffffffffffffffffffffff1673ffffffffffffffffffffffffffffffffffffffff16146107dc576040517f08c379a00000000000000000000000000000000000000000000000000000000081526004016107d3906127f2565b60405180910390fd5b6000600460009054906101000a900473ffffffffffffffffffffffffffffffffffffffff16905073a61ca04df33b72b235a8a28cfb535bb7a5271b7073ffffffffffffffffffffffffffffffffffffffff1663474cf53d34833060006040518563ffffffff1660e01b815260040161085693929190612865565b6000604051808303818588803b15801561086f57600080fd5b505af1158015610883573d6000803e3d6000fd5b505050505034600160008573ffffffffffffffffffffffffffffffffffffffff1673ffffffffffffffffffffffffffffffffffffffff16815260200190815260200160002060008282546108d791906128cb565b92505081905550505050565b6060600580548060200260200160405190810160405280929190818152602001828054801561096757602002820191906000526020600020905b8160009054906101000a900473ffffffffffffffffffffffffffffffffffffffff1673ffffffffffffffffffffffffffffffffffffffff168152602001906001019080831161091d575b5050505050905090565b60606009805461098090612774565b80601f01602080910402602001604051908101604052809291908181526020018280546109ac90612774565b80156109f95780601f106109ce576101008083540402835291602001916109f9565b820191906000526020600020905b8154815290600101906020018083116109dc57829003601f168201915b5050505050905090565b600080733c73a5e5785cac854d468f727c606c07488a29d673ffffffffffffffffffffffffffffffffffffffff1663d2493b6c846040518263ffffffff1660e01b8152600401610a539190612169565b60606040518083038186803b158015610a6b57600080fd5b505afa158015610a7f573d6000803e3d6000fd5b505050506040513d601f19601f82011682018060405250810190610aa3919061265d565b5050905060008173ffffffffffffffffffffffffffffffffffffffff166370a08231306040518263ffffffff1660e01b8152600401610ae29190612169565b60206040518083038186803b158015610afa57600080fd5b505afa158015610b0e573d6000803e3d6000fd5b505050506040513d601f19601f82011682018060405250810190610b3291906126c5565b9050600160008573ffffffffffffffffffffffffffffffffffffffff1673ffffffffffffffffffffffffffffffffffffffff1681526020019081526020016000205481610b7f9190612921565b92505050919050565b82601e60008290508160ff16815110610bd6576040517f08c379a0000000000000000000000000000000000000000000000000000000008152600401610bcd906129a1565b60405180910390fd5b8460c860008290508160ff16815110610c24576040517f08c379a0000000000000000000000000000000000000000000000000000000008152600401610c1b906129a1565b60405180910390fd5b600060019054906101000a900460ff16610c4c5760008054906101000a900460ff1615610c55565b610c54611e47565b5b610c94576040517f08c379a0000000000000000000000000000000000000000000000000000000008152600401610c8b90612a33565b60405180910390fd5b60008060019054906101000a900460ff161590508015610ce4576001600060016101000a81548160ff02191690831515021790555060016000806101000a81548160ff0219169083151502179055505b60001515600360009054906101000a900460ff16151514610d3a576040517f08c379a0000000000000000000000000000000000000000000000000000000008152600401610d3190612a9f565b60405180910390fd5b600073ffffffffffffffffffffffffffffffffffffffff16600660009054906101000a900473ffffffffffffffffffffffffffffffffffffffff1673ffffffffffffffffffffffffffffffffffffffff1614610dcb576040517f08c379a0000000000000000000000000000000000000000000000000000000008152600401610dc290612b0b565b60405180910390fd5b87600660006101000a81548173ffffffffffffffffffffffffffffffffffffffff021916908373ffffffffffffffffffffffffffffffffffffffff16021790555033600760006101000a81548173ffffffffffffffffffffffffffffffffffffffff021916908373ffffffffffffffffffffffffffffffffffffffff1602179055508960089080519060200190610e63929190611e6b565b508860099080519060200190610e7a929190611e6b565b507388757f2f99175387ab4c6a4b3067c77a695b0349600360016101000a81548173ffffffffffffffffffffffffffffffffffffffff021916908373ffffffffffffffffffffffffffffffffffffffff1602179055506000600360019054906101000a900473ffffffffffffffffffffffffffffffffffffffff1673ffffffffffffffffffffffffffffffffffffffff16630261bf8b6040518163ffffffff1660e01b815260040160206040518083038186803b158015610f3a57600080fd5b505afa158015610f4e573d6000803e3d6000fd5b505050506040513d601f19601f82011682018060405250810190610f729190612b2b565b905080600460006101000a81548173ffffffffffffffffffffffffffffffffffffffff021916908373ffffffffffffffffffffffffffffffffffffffff1602179055508b60059080519060200190610fcb929190611ef1565b50508015610fee5760008060016101000a81548160ff0219169083151502179055505b5050505050505050505050565b60603073ffffffffffffffffffffffffffffffffffffffff16803b806020016040519081016040528181526000908060200190933c905090565b6000600260008373ffffffffffffffffffffffffffffffffffffffff1673ffffffffffffffffffffffffffffffffffffffff168152602001908152602001600020549050919050565b338073ffffffffffffffffffffffffffffffffffffffff16600760009054906101000a900473ffffffffffffffffffffffffffffffffffffffff1673ffffffffffffffffffffffffffffffffffffffff161461110f576040517f08c379a0000000000000000000000000000000000000000000000000000000008152600401611106906127f2565b60405180910390fd5b81848460008111611155576040517f08c379a000000000000000000000000000000000000000000000000000000000815260040161114c90612ba4565b60405180910390fd5b600460009054906101000a900473ffffffffffffffffffffffffffffffffffffffff1673ffffffffffffffffffffffffffffffffffffffff166369328dec8888886040518463ffffffff1660e01b81526004016111b493929190612bc4565b602060405180830381600087803b1580156111ce57600080fd5b505af11580156111e2573d6000803e3d6000fd5b505050506040513d601f19601f8201168201806040525081019061120691906126c5565b5085600160008973ffffffffffffffffffffffffffffffffffffffff1673ffffffffffffffffffffffffffffffffffffffff16815260200190815260200160002060008282546112569190612921565b925050819055507f9b1bfa7fa9ee420a16e124f794c35ac9f90472acc99140eb2f6447c714cad8eb87868860405161129093929190612bfb565b60405180910390a150505050505050565b600080733c73a5e5785cac854d468f727c606c07488a29d673ffffffffffffffffffffffffffffffffffffffff1663d2493b6c846040518263ffffffff1660e01b81526004016112f19190612169565b60606040518083038186803b15801561130957600080fd5b505afa15801561131d573d6000803e3d6000fd5b505050506040513d601f19601f82011682018060405250810190611341919061265d565b5050905080915050919050565b600360009054906101000a900460ff1681565b6000733c73a5e5785cac854d468f727c606c07488a29d673ffffffffffffffffffffffffffffffffffffffff166335ea6a75836040518263ffffffff1660e01b81526004016113b09190612169565b6101406040518083038186803b1580156113c957600080fd5b505afa1580156113dd573d6000803e3d6000fd5b505050506040513d601f19601f820116820180604052508101906114019190612c6f565b9091929394959697985090919293949596975090919293949596509091929394955090919293945090919293509091925090505080915050919050565b338073ffffffffffffffffffffffffffffffffffffffff16600760009054906101000a900473ffffffffffffffffffffffffffffffffffffffff1673ffffffffffffffffffffffffffffffffffffffff16146114cf576040517f08c379a00000000000000000000000000000000000000000000000000000000081526004016114c6906127f2565b60405180910390fd5b81600080600090505b6005805490508160ff1610156115795760058160ff16815481106114ff576114fe612d4e565b5b9060005260206000200160009054906101000a900473ffffffffffffffffffffffffffffffffffffffff1673ffffffffffffffffffffffffffffffffffffffff168373ffffffffffffffffffffffffffffffffffffffff1614156115665760019150611579565b808061157190612d8a565b9150506114d8565b50806115ba576040517f08c379a00000000000000000000000000000000000000000000000000000000081526004016115b190612e26565b60405180910390fd5b6000733c73a5e5785cac854d468f727c606c07488a29d673ffffffffffffffffffffffffffffffffffffffff1663d2493b6c866040518263ffffffff1660e01b81526004016116099190612169565b60606040518083038186803b15801561162157600080fd5b505afa158015611635573d6000803e3d6000fd5b505050506040513d601f19601f82011682018060405250810190611659919061265d565b5050905060008173ffffffffffffffffffffffffffffffffffffffff166370a08231306040518263ffffffff1660e01b81526004016116989190612169565b60206040518083038186803b1580156116b057600080fd5b505afa1580156116c4573d6000803e3d6000fd5b505050506040513d601f19601f820116820180604052508101906116e891906126c5565b90506000600160008873ffffffffffffffffffffffffffffffffffffffff1673ffffffffffffffffffffffffffffffffffffffff16815260200190815260200160002054826117379190612921565b905080600260008973ffffffffffffffffffffffffffffffffffffffff1673ffffffffffffffffffffffffffffffffffffffff168152602001908152602001600020600082825461178891906128cb565b92505081905550600460009054906101000a900473ffffffffffffffffffffffffffffffffffffffff1673ffffffffffffffffffffffffffffffffffffffff166369328dec8883600660009054906101000a900473ffffffffffffffffffffffffffffffffffffffff166040518463ffffffff1660e01b815260040161181093929190612bc4565b602060405180830381600087803b15801561182a57600080fd5b505af115801561183e573d6000803e3d6000fd5b505050506040513d601f19601f8201168201806040525081019061186291906126c5565b507ffb42c6fc06609281806d5b0ad4bd7b7bb222a7ac7fa9e5211fa7ac032fa491ae87600660009054906101000a900473ffffffffffffffffffffffffffffffffffffffff1683600160008c73ffffffffffffffffffffffffffffffffffffffff1673ffffffffffffffffffffffffffffffffffffffff16815260200190815260200160002054876040516118fb959493929190612e46565b60405180910390a150505050505050565b6000600460009054906101000a900473ffffffffffffffffffffffffffffffffffffffff1673ffffffffffffffffffffffffffffffffffffffff1663d15e0053836040518263ffffffff1660e01b81526004016119699190612169565b60206040518083038186803b15801561198157600080fd5b505afa158015611995573d6000803e3d6000fd5b505050506040513d601f19601f820116820180604052508101906119b991906126c5565b9050919050565b338073ffffffffffffffffffffffffffffffffffffffff16600760009054906101000a900473ffffffffffffffffffffffffffffffffffffffff1673ffffffffffffffffffffffffffffffffffffffff1614611a51576040517f08c379a0000000000000000000000000000000000000000000000000000000008152600401611a48906127f2565b60405180910390fd5b83600080600090505b6005805490508160ff161015611afb5760058160ff1681548110611a8157611a80612d4e565b5b9060005260206000200160009054906101000a900473ffffffffffffffffffffffffffffffffffffffff1673ffffffffffffffffffffffffffffffffffffffff168373ffffffffffffffffffffffffffffffffffffffff161415611ae85760019150611afb565b8080611af390612d8a565b915050611a5a565b5080611b3c576040517f08c379a0000000000000000000000000000000000000000000000000000000008152600401611b3390612e26565b60405180910390fd5b6000869050858173ffffffffffffffffffffffffffffffffffffffff1663dd62ed3e87306040518363ffffffff1660e01b8152600401611b7d929190612e99565b60206040518083038186803b158015611b9557600080fd5b505afa158015611ba9573d6000803e3d6000fd5b505050506040513d601f19601f82011682018060405250810190611bcd91906126c5565b1015611c0e576040517f08c379a0000000000000000000000000000000000000000000000000000000008152600401611c0590612f0e565b60405180910390fd5b8073ffffffffffffffffffffffffffffffffffffffff166323b872dd8630896040518463ffffffff1660e01b8152600401611c4b93929190612bfb565b602060405180830381600087803b158015611c6557600080fd5b505af1158015611c79573d6000803e3d6000fd5b505050506040513d601f19601f82011682018060405250810190611c9d9190612f5a565b506000600460009054906101000a900473ffffffffffffffffffffffffffffffffffffffff1690508173ffffffffffffffffffffffffffffffffffffffff1663095ea7b382896040518363ffffffff1660e01b8152600401611d00929190612f87565b602060405180830381600087803b158015611d1a57600080fd5b505af1158015611d2e573d6000803e3d6000fd5b505050506040513d601f19601f82011682018060405250810190611d529190612f5a565b50600460009054906101000a900473ffffffffffffffffffffffffffffffffffffffff1673ffffffffffffffffffffffffffffffffffffffff1663e8eda9df83893060006040518563ffffffff1660e01b8152600401611db59493929190612fb0565b600060405180830381600087803b158015611dcf57600080fd5b505af1158015611de3573d6000803e3d6000fd5b5050505086600160008a73ffffffffffffffffffffffffffffffffffffffff1673ffffffffffffffffffffffffffffffffffffffff1681526020019081526020016000206000828254611e3691906128cb565b925050819055505050505050505050565b6000611e5230611e58565b15905090565b600080823b905060008111915050919050565b828054611e7790612774565b90600052602060002090601f016020900481019282611e995760008555611ee0565b82601f10611eb257805160ff1916838001178555611ee0565b82800160010185558215611ee0579182015b82811115611edf578251825591602001919060010190611ec4565b5b509050611eed9190611f7b565b5090565b828054828255906000526020600020908101928215611f6a579160200282015b82811115611f695782518260006101000a81548173ffffffffffffffffffffffffffffffffffffffff021916908373ffffffffffffffffffffffffffffffffffffffff16021790555091602001919060010190611f11565b5b509050611f779190611f7b565b5090565b5b80821115611f94576000816000905550600101611f7c565b5090565b6000604051905090565b600080fd5b600080fd5b600073ffffffffffffffffffffffffffffffffffffffff82169050919050565b6000611fd782611fac565b9050919050565b611fe781611fcc565b8114611ff257600080fd5b50565b60008135905061200481611fde565b92915050565b6000602082840312156120205761201f611fa2565b5b600061202e84828501611ff5565b91505092915050565b6000819050919050565b61204a81612037565b82525050565b60006020820190506120656000830184612041565b92915050565b6000819050919050565b61207e8161206b565b82525050565b60006020820190506120996000830184612075565b92915050565b600081519050919050565b600082825260208201905092915050565b60005b838110156120d95780820151818401526020810190506120be565b838111156120e8576000848401525b50505050565b6000601f19601f8301169050919050565b600061210a8261209f565b61211481856120aa565b93506121248185602086016120bb565b61212d816120ee565b840191505092915050565b6000602082019050818103600083015261215281846120ff565b905092915050565b61216381611fcc565b82525050565b600060208201905061217e600083018461215a565b92915050565b600081519050919050565b600082825260208201905092915050565b6000819050602082019050919050565b6121b981611fcc565b82525050565b60006121cb83836121b0565b60208301905092915050565b6000602082019050919050565b60006121ef82612184565b6121f9818561218f565b9350612204836121a0565b8060005b8381101561223557815161221c88826121bf565b9750612227836121d7565b925050600181019050612208565b5085935050505092915050565b6000602082019050818103600083015261225c81846121e4565b905092915050565b600080fd5b7f4e487b7100000000000000000000000000000000000000000000000000000000600052604160045260246000fd5b6122a1826120ee565b810181811067ffffffffffffffff821117156122c0576122bf612269565b5b80604052505050565b60006122d3611f98565b90506122df8282612298565b919050565b600067ffffffffffffffff8211156122ff576122fe612269565b5b602082029050602081019050919050565b600080fd5b6000612328612323846122e4565b6122c9565b9050808382526020820190506020840283018581111561234b5761234a612310565b5b835b8181101561237457806123608882611ff5565b84526020840193505060208101905061234d565b5050509392505050565b600082601f83011261239357612392612264565b5b81356123a3848260208601612315565b91505092915050565b600080fd5b600067ffffffffffffffff8211156123cc576123cb612269565b5b6123d5826120ee565b9050602081019050919050565b82818337600083830152505050565b60006124046123ff846123b1565b6122c9565b9050828152602081018484840111156124205761241f6123ac565b5b61242b8482856123e2565b509392505050565b600082601f83011261244857612447612264565b5b81356124588482602086016123f1565b91505092915050565b6000806000806080858703121561247b5761247a611fa2565b5b600085013567ffffffffffffffff81111561249957612498611fa7565b5b6124a58782880161237e565b945050602085013567ffffffffffffffff8111156124c6576124c5611fa7565b5b6124d287828801612433565b935050604085013567ffffffffffffffff8111156124f3576124f2611fa7565b5b6124ff87828801612433565b925050606061251087828801611ff5565b91505092959194509250565b600081519050919050565b600082825260208201905092915050565b60006125438261251c565b61254d8185612527565b935061255d8185602086016120bb565b612566816120ee565b840191505092915050565b6000602082019050818103600083015261258b8184612538565b905092915050565b61259c81612037565b81146125a757600080fd5b50565b6000813590506125b981612593565b92915050565b6000806000606084860312156125d8576125d7611fa2565b5b60006125e686828701611ff5565b93505060206125f7868287016125aa565b925050604061260886828701611ff5565b9150509250925092565b60008115159050919050565b61262781612612565b82525050565b6000602082019050612642600083018461261e565b92915050565b60008151905061265781611fde565b92915050565b60008060006060848603121561267657612675611fa2565b5b600061268486828701612648565b935050602061269586828701612648565b92505060406126a686828701612648565b9150509250925092565b6000815190506126bf81612593565b92915050565b6000602082840312156126db576126da611fa2565b5b60006126e9848285016126b0565b91505092915050565b600081905092915050565b60006127088261251c565b61271281856126f2565b93506127228185602086016120bb565b80840191505092915050565b600061273a82846126fd565b915081905092915050565b7f4e487b7100000000000000000000000000000000000000000000000000000000600052602260045260246000fd5b6000600282049050600182168061278c57607f821691505b602082108114156127a05761279f612745565b5b50919050565b7f796f7520617265206e6f7420746865206f776e65720000000000000000000000600082015250565b60006127dc6015836120aa565b91506127e7826127a6565b602082019050919050565b6000602082019050818103600083015261280b816127cf565b9050919050565b6000819050919050565b600061ffff82169050919050565b6000819050919050565b600061284f61284a61284584612812565b61282a565b61281c565b9050919050565b61285f81612834565b82525050565b600060608201905061287a600083018661215a565b612887602083018561215a565b6128946040830184612856565b949350505050565b7f4e487b7100000000000000000000000000000000000000000000000000000000600052601160045260246000fd5b60006128d682612037565b91506128e183612037565b9250827fffffffffffffffffffffffffffffffffffffffffffffffffffffffffffffffff038211156129165761291561289c565b5b828201905092915050565b600061292c82612037565b915061293783612037565b92508282101561294a5761294961289c565b5b828203905092915050565b7f737472696e67206f76657220636861726163746572206c696d69740000000000600082015250565b600061298b601b836120aa565b915061299682612955565b602082019050919050565b600060208201905081810360008301526129ba8161297e565b9050919050565b7f496e697469616c697a61626c653a20636f6e747261637420697320616c72656160008201527f647920696e697469616c697a6564000000000000000000000000000000000000602082015250565b6000612a1d602e836120aa565b9150612a28826129c1565b604082019050919050565b60006020820190508181036000830152612a4c81612a10565b9050919050565b7f43616e6e6f7420696e697469616c697a65206261736500000000000000000000600082015250565b6000612a896016836120aa565b9150612a9482612a53565b602082019050919050565b60006020820190508181036000830152612ab881612a7c565b9050919050565b7f496e697469616c697a6520616c72656164792063616c6c656400000000000000600082015250565b6000612af56019836120aa565b9150612b0082612abf565b602082019050919050565b60006020820190508181036000830152612b2481612ae8565b9050919050565b600060208284031215612b4157612b40611fa2565b5b6000612b4f84828501612648565b91505092915050565b7f616d6f756e74206d757374206578636565642030000000000000000000000000600082015250565b6000612b8e6014836120aa565b9150612b9982612b58565b602082019050919050565b60006020820190508181036000830152612bbd81612b81565b9050919050565b6000606082019050612bd9600083018661215a565b612be66020830185612041565b612bf3604083018461215a565b949350505050565b6000606082019050612c10600083018661215a565b612c1d602083018561215a565b612c2a6040830184612041565b949350505050565b600064ffffffffff82169050919050565b612c4c81612c32565b8114612c5757600080fd5b50565b600081519050612c6981612c43565b92915050565b6000806000806000806000806000806101408b8d031215612c9357612c92611fa2565b5b6000612ca18d828e016126b0565b9a50506020612cb28d828e016126b0565b9950506040612cc38d828e016126b0565b9850506060612cd48d828e016126b0565b9750506080612ce58d828e016126b0565b96505060a0612cf68d828e016126b0565b95505060c0612d078d828e016126b0565b94505060e0612d188d828e016126b0565b935050610100612d2a8d828e016126b0565b925050610120612d3c8d828e01612c5a565b9150509295989b9194979a5092959850565b7f4e487b7100000000000000000000000000000000000000000000000000000000600052603260045260246000fd5b600060ff82169050919050565b6000612d9582612d7d565b915060ff821415612da957612da861289c565b5b600182019050919050565b7f7375626d697474656420746f6b656e2061646472657373206973206e6f74206160008201527f6363657074656420627920706f6f6c0000000000000000000000000000000000602082015250565b6000612e10602f836120aa565b9150612e1b82612db4565b604082019050919050565b60006020820190508181036000830152612e3f81612e03565b9050919050565b600060a082019050612e5b600083018861215a565b612e68602083018761215a565b612e756040830186612041565b612e826060830185612041565b612e8f608083018461215a565b9695505050505050565b6000604082019050612eae600083018561215a565b612ebb602083018461215a565b9392505050565b7f73656e646572206e6f7420617070726f76656400000000000000000000000000600082015250565b6000612ef86013836120aa565b9150612f0382612ec2565b602082019050919050565b60006020820190508181036000830152612f2781612eeb565b9050919050565b612f3781612612565b8114612f4257600080fd5b50565b600081519050612f5481612f2e565b92915050565b600060208284031215612f7057612f6f611fa2565b5b6000612f7e84828501612f45565b91505092915050565b6000604082019050612f9c600083018561215a565b612fa96020830184612041565b9392505050565b6000608082019050612fc5600083018761215a565b612fd26020830186612041565b612fdf604083018561215a565b612fec6060830184612856565b9594505050505056fea26469706673582212202746ba150cbc15ca16e933e46573c7341e16e66ba0f90e123d050bcc180d985a64736f6c63430008090033",
  "immutableReferences": {},
  "source": "// SPDX-License-Identifier: MIT\npragma solidity 0.8.9;\n\nimport { IERC20, ILendingPool, ILendingPoolAddressesProvider, IProtocolDataProvider, IWETHGateway} from './Interfaces.sol';\nimport { SafeERC20 } from './Libraries.sol';\nimport \"@openzeppelin/contracts/proxy/utils/Initializable.sol\";\n/**\n * This is a proof of concept starter contract, showing how uncollaterised loans are possible\n * using Aave v2 credit delegation.\n * This example supports stable interest rate borrows.\n * It is not production ready (!). User permissions and user accounting of loans should be implemented.\n * See @dev comments\n */\n\ncontract JustCausePool is Initializable {\n    //mapping(address => mapping(address => uint256)) private depositors;\n    mapping(address => uint256) private totalDeposits;\n    mapping(address => uint256) private interestWithdrawn;\n    bool public isBase;\n\n    ILendingPoolAddressesProvider provider;\n    ILendingPool lendingPool;\n    IProtocolDataProvider constant dataProvider = IProtocolDataProvider(address(0x3c73A5E5785cAC854D468F727c606C07488a29D6)); // Kovan\n    IWETHGateway constant wethGateway = IWETHGateway(address(0xA61ca04DF33B72b235a8A28CfB535bb7A5271B70)); //Kovan\n\n    address[] acceptedTokens;\n\n    event Deposit(address tokenAddress, address depositor, uint256 amount, uint256 totalDeposits);\n    event Withdraw(address tokenAddress, address depositor, uint256 amount);\n    event WithdrawDonations(address tokenAddress, address depositor, uint256 amount, uint256 totalDeposits, address aTokenAddress);\n\n    address receiver;\n    address master;\n    string name;\n    string about;\n\n    modifier onlyAllowedTokens(address _tokenAddr){\n        bool isAccepted;\n        for (uint8 i = 0; i < acceptedTokens.length; i++){\n            if(_tokenAddr == acceptedTokens[i]){\n                isAccepted = true;\n                break;\n            }\n        }\n        require(isAccepted, \"submitted token address is not accepted by pool\");\n        _;\n    }\n\n    modifier enoughFunds(address _userAddr, address _tokenAddr, uint256 _amount) {\n        require(_amount > 0, \"amount must exceed 0\");\n        //require(depositors[_userAddr][_tokenAddr]  >= _amount, \"no funds deposited for selected token\");\n        _;\n    }\n\n    modifier onlyReceiver(address _sender){\n        require(receiver == _sender, \"you are not the current reciever for this pool\");\n        _;\n    }\n\n    modifier onlyMaster(address _sender){\n        require(master == _sender, \"you are not the owner\");\n        _;\n    }\n\n    modifier strLength(string memory _str, uint8 _limit ){\n        bytes memory strBytes = bytes(_str);\n        require(strBytes.length < _limit, \"string over character limit\");\n        _;\n    }\n\n    constructor () {\n        isBase = true;\n    }\n\n    function initialize(\n        address[] memory _acceptedTokens,\n        string memory _name,\n        string memory _about,\n        address _receiver)\n\n    strLength(_name, 30) strLength(_about, 200) initializer() external {\n\n        require(isBase == false, \"Cannot initialize base\");\n        require(receiver == address(0), \"Initialize already called\");\n\n        receiver = _receiver;\n        master = msg.sender;\n        name = _name;\n        about = _about;\n        provider = ILendingPoolAddressesProvider(address(0x88757f2f99175387aB4C6a4b3067c77A695b0349));\n        address lendingPoolAddr = provider.getLendingPool();\n        lendingPool = ILendingPool(lendingPoolAddr); // Kovan\n        acceptedTokens = _acceptedTokens;\n    }\n\n    function deposit(address _assetAddress, uint256 _amount, address _depositor) onlyMaster(msg.sender) onlyAllowedTokens(_assetAddress) external {\n        IERC20 token = IERC20(_assetAddress);\n        require(token.allowance(_depositor, address(this)) >= _amount, \"sender not approved\");\n        token.transferFrom(_depositor, address(this), _amount);\n        address poolAddr = address(lendingPool);\n        token.approve(poolAddr, _amount);\n        lendingPool.deposit(address(token), _amount, address(this), 0);\n        totalDeposits[_assetAddress] += _amount;\n        //tallyDeposit(_amount, _assetAddress, _depositor);\n    }\n\n    function depositETH(address _wethAddress /*, address _depositor*/) onlyMaster(msg.sender) external payable {\n        address poolAddr = address(lendingPool);\n        wethGateway.depositETH{value: msg.value}(poolAddr, address(this), 0);\n        totalDeposits[_wethAddress] += msg.value;\n        //tallyDeposit(msg.value, _wethAddress, _depositor);\n    }\n\n    /*function tallyDeposit(uint256 _amount, address _assetAddress, address _depositor) internal {\n        uint256 depositedAmount = depositors[_depositor][_assetAddress];\n        //uint256 liquidityIndex = getAaveLiquidityIndex(_assetAddress);\n        //if(depositedAmount == 0){\n            //poolTracker.addDeposit(_depositor, _amount, liquidityIndex, block.timestamp, _assetAddress);\n        //}\n        depositedAmount += _amount;\n        totalDeposits[_assetAddress] += _amount;\n        depositors[_depositor][_assetAddress] = depositedAmount;\n    }*/\n\n    function withdraw(address _assetAddress, uint256 _amount, address _depositor) onlyMaster(msg.sender) enoughFunds(_depositor, _assetAddress, _amount) external {\n        //address poolAddr = address(lendingPool);\n        lendingPool.withdraw(_assetAddress, _amount, _depositor);\n        //depositors[_depositor][_assetAddress] -= _amount;\n        totalDeposits[_assetAddress] -= _amount;\n\n        //if(depositors[_depositor][_assetAddress] == 0){\n            //poolTracker.withdrawDeposit(_depositor, _amount, block.timestamp, _assetAddress);\n        //}\n        emit Withdraw(_assetAddress, _depositor, _amount);\n    }\n\n    function withdrawDonations(address _assetAddress) onlyMaster(msg.sender) onlyAllowedTokens(_assetAddress) public{\n        (address aTokenAddress,,) = dataProvider.getReserveTokensAddresses(_assetAddress);\n\n        uint256 aTokenBalance = IERC20(aTokenAddress).balanceOf(address(this));\n        uint256 interestEarned = aTokenBalance - totalDeposits[_assetAddress];\n        interestWithdrawn[_assetAddress] += interestEarned;\n        lendingPool.withdraw(_assetAddress, interestEarned, receiver);\n        emit WithdrawDonations(_assetAddress, receiver, interestEarned, totalDeposits[_assetAddress], aTokenAddress);\n    }\n\n    /*function getUserBalance(address _userAddr, address _token) external view returns(uint256){\n        return depositors[_userAddr][_token];\n    }*/\n\n    function getTotalDeposits(address _token) external view returns(uint256){\n        return totalDeposits[_token];\n    }\n\n    function getAcceptedTokens() external view returns(address[] memory){\n        return acceptedTokens;\n    }\n\n    function getReserveNormalizedIncome(address _asset) external view returns(uint256){\n        return lendingPool.getReserveNormalizedIncome(_asset);\n    }\n\n    function getName() external view returns(string memory){\n        return name;\n    }\n\n    function getAbout() external view returns(string memory){\n        return about;\n    }\n\n    function getATokenAddress(address _assetAddress) external view returns(address){\n        (address aTokenAddress,,) = dataProvider.getReserveTokensAddresses(_assetAddress);\n        return aTokenAddress;\n    }\n\n    function getUnclaimedInterest(address _assetAddress) external view returns (uint256){\n        (address aTokenAddress,,) = dataProvider.getReserveTokensAddresses(_assetAddress);\n            uint256 aTokenBalance = IERC20(aTokenAddress).balanceOf(address(this));\n            return aTokenBalance - totalDeposits[_assetAddress];\n    }\n\n    function getClaimedInterest(address _assetAddress) external view returns (uint256){\n        return interestWithdrawn[_assetAddress];\n    }\n\n    function getATokenBalance(address _assetAddress) external view returns (uint256){\n        (address aTokenAddress,,) = dataProvider.getReserveTokensAddresses(_assetAddress);\n        return IERC20(aTokenAddress).balanceOf(address(this));\n    }\n\n    function getRecipient() external view returns(address){\n        return receiver;\n    }\n\n    function getByteCode() external view returns(bytes memory) {\n        return address(this).code;\n    }\n\n    function getHashByteCode() public view returns(bytes32) {\n        return keccak256(abi.encodePacked(address(this).code));\n    }\n\n    function getAaveLiquidityIndex(address _asset) public view returns(uint256 liquidityIndex){\n        (,,,,,,,liquidityIndex,,) = dataProvider.getReserveData(_asset);\n    }\n}",
  "sourcePath": "/home/smeee/just_cause/contracts/JustCausePool.sol",
  "compiler": {
    "name": "solc",
    "version": "0.8.9+commit.e5eed63a.Emscripten.clang"
  },
  "schemaVersion": "3.4.3",
  "updatedAt": "2022-02-09T19:16:42.799Z",
  "devdoc": {
    "details": "comments",
    "kind": "dev",
    "methods": {},
    "version": 1
  },
  "userdoc": {
    "kind": "user",
    "methods": {},
    "notice": "This is a proof of concept starter contract, showing how uncollaterised loans are possible using Aave v2 credit delegation. This example supports stable interest rate borrows. It is not production ready (!). User permissions and user accounting of loans should be implemented.",
    "version": 1
  }
}