{
  "contractName": "JustCausePool",
  "abi": [
    {
      "inputs": [
        {
          "internalType": "address[]",
          "name": "_acceptedTokens",
          "type": "address[]"
        },
        {
          "internalType": "string",
          "name": "_name",
          "type": "string"
        },
        {
          "internalType": "string",
          "name": "_about",
          "type": "string"
        },
        {
          "internalType": "address",
          "name": "_poolTrackerAddr",
          "type": "address"
        },
        {
          "internalType": "address",
          "name": "_receiver",
          "type": "address"
        }
      ],
      "stateMutability": "nonpayable",
      "type": "constructor"
    },
    {
      "anonymous": false,
      "inputs": [
        {
          "indexed": false,
          "internalType": "address",
          "name": "FROM",
          "type": "address"
        },
        {
          "indexed": false,
          "internalType": "uint256",
          "name": "AMOUNT",
          "type": "uint256"
        },
        {
          "indexed": false,
          "internalType": "uint256",
          "name": "BALANCE",
          "type": "uint256"
        }
      ],
      "name": "BalanceOf",
      "type": "event"
    },
    {
      "anonymous": false,
      "inputs": [
        {
          "indexed": false,
          "internalType": "address",
          "name": "tokenAddress",
          "type": "address"
        },
        {
          "indexed": false,
          "internalType": "address",
          "name": "depositor",
          "type": "address"
        },
        {
          "indexed": false,
          "internalType": "uint256",
          "name": "amount",
          "type": "uint256"
        },
        {
          "indexed": false,
          "internalType": "uint256",
          "name": "totalDeposits",
          "type": "uint256"
        }
      ],
      "name": "Deposit",
      "type": "event"
    },
    {
      "anonymous": false,
      "inputs": [
        {
          "indexed": false,
          "internalType": "address",
          "name": "addr",
          "type": "address"
        }
      ],
      "name": "GetLPAddress",
      "type": "event"
    },
    {
      "anonymous": false,
      "inputs": [
        {
          "indexed": false,
          "internalType": "address",
          "name": "test",
          "type": "address"
        }
      ],
      "name": "GetPoolTracker",
      "type": "event"
    },
    {
      "anonymous": false,
      "inputs": [
        {
          "indexed": false,
          "internalType": "uint256",
          "name": "allowance",
          "type": "uint256"
        }
      ],
      "name": "SeeAllowance",
      "type": "event"
    },
    {
      "anonymous": false,
      "inputs": [
        {
          "indexed": false,
          "internalType": "address",
          "name": "tokenAddress",
          "type": "address"
        },
        {
          "indexed": false,
          "internalType": "address",
          "name": "depositor",
          "type": "address"
        },
        {
          "indexed": false,
          "internalType": "uint256",
          "name": "amount",
          "type": "uint256"
        },
        {
          "indexed": false,
          "internalType": "uint256",
          "name": "userDeposits",
          "type": "uint256"
        },
        {
          "indexed": false,
          "internalType": "uint256",
          "name": "donation",
          "type": "uint256"
        }
      ],
      "name": "Withdraw",
      "type": "event"
    },
    {
      "anonymous": false,
      "inputs": [
        {
          "indexed": false,
          "internalType": "address",
          "name": "tokenAddress",
          "type": "address"
        },
        {
          "indexed": false,
          "internalType": "address",
          "name": "depositor",
          "type": "address"
        },
        {
          "indexed": false,
          "internalType": "uint256",
          "name": "amount",
          "type": "uint256"
        },
        {
          "indexed": false,
          "internalType": "uint256",
          "name": "totalDeposits",
          "type": "uint256"
        },
        {
          "indexed": false,
          "internalType": "address",
          "name": "aTokenAddress",
          "type": "address"
        }
      ],
      "name": "WithdrawDonations",
      "type": "event"
    },
    {
      "inputs": [
        {
          "internalType": "address",
          "name": "_assetAddress",
          "type": "address"
        },
        {
          "internalType": "uint256",
          "name": "_amount",
          "type": "uint256"
        }
      ],
      "name": "deposit",
      "outputs": [],
      "stateMutability": "nonpayable",
      "type": "function"
    },
    {
      "inputs": [
        {
          "internalType": "address",
          "name": "_wethAddress",
          "type": "address"
        }
      ],
      "name": "depositETH",
      "outputs": [],
      "stateMutability": "payable",
      "type": "function"
    },
    {
      "inputs": [
        {
          "internalType": "address",
          "name": "_assetAddress",
          "type": "address"
        },
        {
          "internalType": "uint256",
          "name": "_amount",
          "type": "uint256"
        },
        {
          "internalType": "uint256",
          "name": "_donation",
          "type": "uint256"
        },
        {
          "internalType": "bool",
          "name": "_isETH",
          "type": "bool"
        }
      ],
      "name": "withdraw",
      "outputs": [],
      "stateMutability": "nonpayable",
      "type": "function"
    },
    {
      "inputs": [
        {
          "internalType": "address",
          "name": "_assetAddress",
          "type": "address"
        },
        {
          "internalType": "bool",
          "name": "_isETH",
          "type": "bool"
        }
      ],
      "name": "withdrawDonations",
      "outputs": [],
      "stateMutability": "nonpayable",
      "type": "function"
    },
    {
      "inputs": [
        {
          "internalType": "address",
          "name": "_userAddr",
          "type": "address"
        },
        {
          "internalType": "address",
          "name": "_token",
          "type": "address"
        }
      ],
      "name": "getUserBalance",
      "outputs": [
        {
          "internalType": "uint256",
          "name": "",
          "type": "uint256"
        }
      ],
      "stateMutability": "view",
      "type": "function"
    },
    {
      "inputs": [
        {
          "internalType": "address",
          "name": "_token",
          "type": "address"
        }
      ],
      "name": "getTotalDeposits",
      "outputs": [
        {
          "internalType": "uint256",
          "name": "",
          "type": "uint256"
        }
      ],
      "stateMutability": "view",
      "type": "function"
    },
    {
      "inputs": [],
      "name": "getAcceptedTokens",
      "outputs": [
        {
          "internalType": "address[]",
          "name": "",
          "type": "address[]"
        }
      ],
      "stateMutability": "view",
      "type": "function"
    },
    {
      "inputs": [],
      "name": "getName",
      "outputs": [
        {
          "internalType": "string",
          "name": "",
          "type": "string"
        }
      ],
      "stateMutability": "view",
      "type": "function"
    },
    {
      "inputs": [],
      "name": "getAbout",
      "outputs": [
        {
          "internalType": "string",
          "name": "",
          "type": "string"
        }
      ],
      "stateMutability": "view",
      "type": "function"
    },
    {
      "inputs": [
        {
          "internalType": "address",
          "name": "_assetAddress",
          "type": "address"
        }
      ],
      "name": "getATokenAddress",
      "outputs": [
        {
          "internalType": "address",
          "name": "",
          "type": "address"
        }
      ],
      "stateMutability": "view",
      "type": "function"
    },
    {
      "inputs": [
        {
          "internalType": "address",
          "name": "_assetAddress",
          "type": "address"
        }
      ],
      "name": "getUnclaimedInterest",
      "outputs": [
        {
          "internalType": "uint256",
          "name": "",
          "type": "uint256"
        }
      ],
      "stateMutability": "view",
      "type": "function"
    },
    {
      "inputs": [
        {
          "internalType": "address",
          "name": "_assetAddress",
          "type": "address"
        }
      ],
      "name": "getClaimedInterest",
      "outputs": [
        {
          "internalType": "uint256",
          "name": "",
          "type": "uint256"
        }
      ],
      "stateMutability": "view",
      "type": "function"
    },
    {
      "inputs": [
        {
          "internalType": "address",
          "name": "_assetAddress",
          "type": "address"
        }
      ],
      "name": "getATokenBalance",
      "outputs": [
        {
          "internalType": "uint256",
          "name": "",
          "type": "uint256"
        }
      ],
      "stateMutability": "view",
      "type": "function"
    },
    {
      "inputs": [],
      "name": "getRecipient",
      "outputs": [
        {
          "internalType": "address",
          "name": "",
          "type": "address"
        }
      ],
      "stateMutability": "view",
      "type": "function"
    },
    {
      "inputs": [],
      "name": "getByteCode",
      "outputs": [
        {
          "internalType": "bytes",
          "name": "",
          "type": "bytes"
        }
      ],
      "stateMutability": "view",
      "type": "function"
    }
  ],
  "bytecode": "0x60806040527388757f2f99175387ab4c6a4b3067c77a695b0349600460006101000a81548173ffffffffffffffffffffffffffffffffffffffff021916908373ffffffffffffffffffffffffffffffffffffffff160217905550600460009054906101000a900473ffffffffffffffffffffffffffffffffffffffff1673ffffffffffffffffffffffffffffffffffffffff16630261bf8b6040518163ffffffff1660e01b815260040160206040518083038186803b158015620000c257600080fd5b505afa158015620000d7573d6000803e3d6000fd5b505050506040513d601f19601f82011682018060405250810190620000fd919062000889565b600560006101000a81548173ffffffffffffffffffffffffffffffffffffffff021916908373ffffffffffffffffffffffffffffffffffffffff160217905550600560009054906101000a900473ffffffffffffffffffffffffffffffffffffffff16600660006101000a81548173ffffffffffffffffffffffffffffffffffffffff021916908373ffffffffffffffffffffffffffffffffffffffff160217905550348015620001ad57600080fd5b50604051620037f2380380620037f28339818101604052810190620001d3919062000b1f565b83601e60008290508160ff1681511062000224576040517f08c379a00000000000000000000000000000000000000000000000000000000081526004016200021b9062000c65565b60405180910390fd5b8560c860008290508160ff1681511062000275576040517f08c379a00000000000000000000000000000000000000000000000000000000081526004016200026c9062000c65565b60405180910390fd5b33600860006101000a81548173ffffffffffffffffffffffffffffffffffffffff021916908373ffffffffffffffffffffffffffffffffffffffff16021790555086600960006101000a81548173ffffffffffffffffffffffffffffffffffffffff021916908373ffffffffffffffffffffffffffffffffffffffff16021790555089600a90805190602001906200030f929190620006d1565b5088600b908051906020019062000328929190620006d1565b507388757f2f99175387ab4c6a4b3067c77a695b0349600460006101000a81548173ffffffffffffffffffffffffffffffffffffffff021916908373ffffffffffffffffffffffffffffffffffffffff160217905550600460009054906101000a900473ffffffffffffffffffffffffffffffffffffffff1673ffffffffffffffffffffffffffffffffffffffff16630261bf8b6040518163ffffffff1660e01b815260040160206040518083038186803b158015620003e757600080fd5b505afa158015620003fc573d6000803e3d6000fd5b505050506040513d601f19601f8201168201806040525081019062000422919062000889565b600560006101000a81548173ffffffffffffffffffffffffffffffffffffffff021916908373ffffffffffffffffffffffffffffffffffffffff160217905550600560009054906101000a900473ffffffffffffffffffffffffffffffffffffffff16600660006101000a81548173ffffffffffffffffffffffffffffffffffffffff021916908373ffffffffffffffffffffffffffffffffffffffff1602179055508a60079080519060200190620004dd92919062000762565b5087600360006101000a81548173ffffffffffffffffffffffffffffffffffffffff021916908373ffffffffffffffffffffffffffffffffffffffff1602179055507f36ac3f21e23b63ede25b34d24a735e877430bc3884df25935f44448497e1e922600360009054906101000a900473ffffffffffffffffffffffffffffffffffffffff1673ffffffffffffffffffffffffffffffffffffffff16638e61514e600a6040518263ffffffff1660e01b81526004016200059e919062000d8d565b60206040518083038186803b158015620005b757600080fd5b505afa158015620005cc573d6000803e3d6000fd5b505050506040513d601f19601f82011682018060405250810190620005f2919062000889565b60405162000601919062000dc2565b60405180910390a1600360009054906101000a900473ffffffffffffffffffffffffffffffffffffffff1673ffffffffffffffffffffffffffffffffffffffff166345cdf64230600860009054906101000a900473ffffffffffffffffffffffffffffffffffffffff168d6040518463ffffffff1660e01b81526004016200068c9392919062000e2b565b600060405180830381600087803b158015620006a757600080fd5b505af1158015620006bc573d6000803e3d6000fd5b50505050505050505050505050505062000e6f565b828054620006df9062000cb6565b90600052602060002090601f0160209004810192826200070357600085556200074f565b82601f106200071e57805160ff19168380011785556200074f565b828001600101855582156200074f579182015b828111156200074e57825182559160200191906001019062000731565b5b5090506200075e9190620007f1565b5090565b828054828255906000526020600020908101928215620007de579160200282015b82811115620007dd5782518260006101000a81548173ffffffffffffffffffffffffffffffffffffffff021916908373ffffffffffffffffffffffffffffffffffffffff1602179055509160200191906001019062000783565b5b509050620007ed9190620007f1565b5090565b5b808211156200080c576000816000905550600101620007f2565b5090565b6000604051905090565b600080fd5b600080fd5b600073ffffffffffffffffffffffffffffffffffffffff82169050919050565b6000620008518262000824565b9050919050565b620008638162000844565b81146200086f57600080fd5b50565b600081519050620008838162000858565b92915050565b600060208284031215620008a257620008a16200081a565b5b6000620008b28482850162000872565b91505092915050565b600080fd5b6000601f19601f8301169050919050565b7f4e487b7100000000000000000000000000000000000000000000000000000000600052604160045260246000fd5b6200090b82620008c0565b810181811067ffffffffffffffff821117156200092d576200092c620008d1565b5b80604052505050565b60006200094262000810565b905062000950828262000900565b919050565b600067ffffffffffffffff821115620009735762000972620008d1565b5b602082029050602081019050919050565b600080fd5b6000620009a06200099a8462000955565b62000936565b90508083825260208201905060208402830185811115620009c657620009c562000984565b5b835b81811015620009f35780620009de888262000872565b845260208401935050602081019050620009c8565b5050509392505050565b600082601f83011262000a155762000a14620008bb565b5b815162000a2784826020860162000989565b91505092915050565b600080fd5b600067ffffffffffffffff82111562000a535762000a52620008d1565b5b62000a5e82620008c0565b9050602081019050919050565b60005b8381101562000a8b57808201518184015260208101905062000a6e565b8381111562000a9b576000848401525b50505050565b600062000ab862000ab28462000a35565b62000936565b90508281526020810184848401111562000ad75762000ad662000a30565b5b62000ae484828562000a6b565b509392505050565b600082601f83011262000b045762000b03620008bb565b5b815162000b1684826020860162000aa1565b91505092915050565b600080600080600060a0868803121562000b3e5762000b3d6200081a565b5b600086015167ffffffffffffffff81111562000b5f5762000b5e6200081f565b5b62000b6d88828901620009fd565b955050602086015167ffffffffffffffff81111562000b915762000b906200081f565b5b62000b9f8882890162000aec565b945050604086015167ffffffffffffffff81111562000bc35762000bc26200081f565b5b62000bd18882890162000aec565b935050606062000be48882890162000872565b925050608062000bf78882890162000872565b9150509295509295909350565b600082825260208201905092915050565b7f737472696e67206f76657220636861726163746572206c696d69740000000000600082015250565b600062000c4d601b8362000c04565b915062000c5a8262000c15565b602082019050919050565b6000602082019050818103600083015262000c808162000c3e565b9050919050565b7f4e487b7100000000000000000000000000000000000000000000000000000000600052602260045260246000fd5b6000600282049050600182168062000ccf57607f821691505b6020821081141562000ce65762000ce562000c87565b5b50919050565b60008190508160005260206000209050919050565b6000815462000d108162000cb6565b62000d1c818662000c04565b9450600182166000811462000d3a576001811462000d4d5762000d84565b60ff198316865260208601935062000d84565b62000d588562000cec565b60005b8381101562000d7c5781548189015260018201915060208101905062000d5b565b808801955050505b50505092915050565b6000602082019050818103600083015262000da9818462000d01565b905092915050565b62000dbc8162000844565b82525050565b600060208201905062000dd9600083018462000db1565b92915050565b600081519050919050565b600062000df78262000ddf565b62000e03818562000c04565b935062000e1581856020860162000a6b565b62000e2081620008c0565b840191505092915050565b600060608201905062000e42600083018662000db1565b62000e51602083018562000db1565b818103604083015262000e65818462000dea565b9050949350505050565b6129738062000e7f6000396000f3fe6080604052600436106100e85760003560e01c8063322ce09e1161008a57806357ac65661161005957806357ac6566146102e75780635ff189b9146103125780636805d6ad1461034f578063711cc0051461038c576100e8565b8063322ce09e1461022d578063343d693b146102565780633735ef881461028157806347e7ef24146102be576100e8565b80631b88094d116100c65780631b88094d14610192578063234b6745146101bd5780632d2da806146101e65780632f75700614610202576100e8565b80630251cfa1146100ed5780630712f6b31461012a57806317d7de7c14610167575b600080fd5b3480156100f957600080fd5b50610114600480360381019061010f9190611de6565b6103c9565b6040516101219190611e2c565b60405180910390f35b34801561013657600080fd5b50610151600480360381019061014c9190611de6565b610412565b60405161015e9190611e2c565b60405180910390f35b34801561017357600080fd5b5061017c610547565b6040516101899190611ee0565b60405180910390f35b34801561019e57600080fd5b506101a76105d9565b6040516101b49190611f11565b60405180910390f35b3480156101c957600080fd5b506101e460048036038101906101df9190611f90565b610603565b005b61020060048036038101906101fb9190611de6565b610daf565b005b34801561020e57600080fd5b50610217610e69565b60405161022491906120b5565b60405180910390f35b34801561023957600080fd5b50610254600480360381019061024f91906120d7565b610ef7565b005b34801561026257600080fd5b5061026b61140c565b6040516102789190611ee0565b60405180910390f35b34801561028d57600080fd5b506102a860048036038101906102a39190611de6565b61149e565b6040516102b59190611e2c565b60405180910390f35b3480156102ca57600080fd5b506102e560048036038101906102e09190612117565b611623565b005b3480156102f357600080fd5b506102fc6119cb565b60405161030991906121ac565b60405180910390f35b34801561031e57600080fd5b5061033960048036038101906103349190611de6565b611a05565b6040516103469190611e2c565b60405180910390f35b34801561035b57600080fd5b50610376600480360381019061037191906121ce565b611a4e565b6040516103839190611e2c565b60405180910390f35b34801561039857600080fd5b506103b360048036038101906103ae9190611de6565b611ad4565b6040516103c09190611f11565b60405180910390f35b6000600160008373ffffffffffffffffffffffffffffffffffffffff1673ffffffffffffffffffffffffffffffffffffffff168152602001908152602001600020549050919050565b600080733c73a5e5785cac854d468f727c606c07488a29d673ffffffffffffffffffffffffffffffffffffffff1663d2493b6c846040518263ffffffff1660e01b81526004016104629190611f11565b60606040518083038186803b15801561047a57600080fd5b505afa15801561048e573d6000803e3d6000fd5b505050506040513d601f19601f820116820180604052508101906104b29190612223565b505090508073ffffffffffffffffffffffffffffffffffffffff166370a08231306040518263ffffffff1660e01b81526004016104ef9190611f11565b60206040518083038186803b15801561050757600080fd5b505afa15801561051b573d6000803e3d6000fd5b505050506040513d601f19601f8201168201806040525081019061053f919061228b565b915050919050565b6060600a8054610556906122e7565b80601f0160208091040260200160405190810160405280929190818152602001828054610582906122e7565b80156105cf5780601f106105a4576101008083540402835291602001916105cf565b820191906000526020600020905b8154815290600101906020018083116105b257829003601f168201915b5050505050905090565b6000600960009054906101000a900473ffffffffffffffffffffffffffffffffffffffff16905090565b338484846000821161064a576040517f08c379a000000000000000000000000000000000000000000000000000000000815260040161064190612365565b60405180910390fd5b816000808673ffffffffffffffffffffffffffffffffffffffff1673ffffffffffffffffffffffffffffffffffffffff16815260200190815260200160002060008573ffffffffffffffffffffffffffffffffffffffff1673ffffffffffffffffffffffffffffffffffffffff168152602001908152602001600020541015610708576040517f08c379a00000000000000000000000000000000000000000000000000000000081526004016106ff906123f7565b60405180910390fd5b8082101561074b576040517f08c379a000000000000000000000000000000000000000000000000000000000815260040161074290612489565b60405180910390fd5b6000600660009054906101000a900473ffffffffffffffffffffffffffffffffffffffff169050600087146109ad576000878961078891906124d8565b9050600660009054906101000a900473ffffffffffffffffffffffffffffffffffffffff1673ffffffffffffffffffffffffffffffffffffffff166369328dec8b8a600960009054906101000a900473ffffffffffffffffffffffffffffffffffffffff166040518463ffffffff1660e01b815260040161080b9392919061250c565b602060405180830381600087803b15801561082557600080fd5b505af1158015610839573d6000803e3d6000fd5b505050506040513d601f19601f8201168201806040525081019061085d919061228b565b50600081146109a7578661092257600660009054906101000a900473ffffffffffffffffffffffffffffffffffffffff1673ffffffffffffffffffffffffffffffffffffffff166369328dec8b83336040518463ffffffff1660e01b81526004016108ca9392919061250c565b602060405180830381600087803b1580156108e457600080fd5b505af11580156108f8573d6000803e3d6000fd5b505050506040513d601f19601f8201168201806040525081019061091c919061228b565b506109a6565b73a61ca04df33b72b235a8a28cfb535bb7a5271b7073ffffffffffffffffffffffffffffffffffffffff166380500d208383336040518463ffffffff1660e01b81526004016109739392919061250c565b600060405180830381600087803b15801561098d57600080fd5b505af11580156109a1573d6000803e3d6000fd5b505050505b5b50610aee565b85610a6957600660009054906101000a900473ffffffffffffffffffffffffffffffffffffffff1673ffffffffffffffffffffffffffffffffffffffff166369328dec8a8a336040518463ffffffff1660e01b8152600401610a119392919061250c565b602060405180830381600087803b158015610a2b57600080fd5b505af1158015610a3f573d6000803e3d6000fd5b505050506040513d601f19601f82011682018060405250810190610a63919061228b565b50610aed565b73a61ca04df33b72b235a8a28cfb535bb7a5271b7073ffffffffffffffffffffffffffffffffffffffff166380500d20828a336040518463ffffffff1660e01b8152600401610aba9392919061250c565b600060405180830381600087803b158015610ad457600080fd5b505af1158015610ae8573d6000803e3d6000fd5b505050505b5b876000803373ffffffffffffffffffffffffffffffffffffffff1673ffffffffffffffffffffffffffffffffffffffff16815260200190815260200160002060008b73ffffffffffffffffffffffffffffffffffffffff1673ffffffffffffffffffffffffffffffffffffffff1681526020019081526020016000206000828254610b7991906124d8565b9250508190555087600160008b73ffffffffffffffffffffffffffffffffffffffff1673ffffffffffffffffffffffffffffffffffffffff1681526020019081526020016000206000828254610bcf91906124d8565b9250508190555060008060003373ffffffffffffffffffffffffffffffffffffffff1673ffffffffffffffffffffffffffffffffffffffff16815260200190815260200160002060008b73ffffffffffffffffffffffffffffffffffffffff1673ffffffffffffffffffffffffffffffffffffffff168152602001908152602001600020541415610cea57600360009054906101000a900473ffffffffffffffffffffffffffffffffffffffff1673ffffffffffffffffffffffffffffffffffffffff16633be273d633306040518363ffffffff1660e01b8152600401610cb7929190612543565b600060405180830381600087803b158015610cd157600080fd5b505af1158015610ce5573d6000803e3d6000fd5b505050505b7febff2602b3f468259e1e99f613fed6691f3a6526effe6ef3e768ba7ae7a36c4f89338a6000803373ffffffffffffffffffffffffffffffffffffffff1673ffffffffffffffffffffffffffffffffffffffff16815260200190815260200160002060008e73ffffffffffffffffffffffffffffffffffffffff1673ffffffffffffffffffffffffffffffffffffffff168152602001908152602001600020548b604051610d9c95949392919061256c565b60405180910390a1505050505050505050565b6000600660009054906101000a900473ffffffffffffffffffffffffffffffffffffffff16905073a61ca04df33b72b235a8a28cfb535bb7a5271b7073ffffffffffffffffffffffffffffffffffffffff1663474cf53d34833060006040518563ffffffff1660e01b8152600401610e2993929190612612565b6000604051808303818588803b158015610e4257600080fd5b505af1158015610e56573d6000803e3d6000fd5b5050505050610e653483611b81565b5050565b60606007805480602002602001604051908101604052809291908181526020018280548015610eed57602002820191906000526020600020905b8160009054906101000a900473ffffffffffffffffffffffffffffffffffffffff1673ffffffffffffffffffffffffffffffffffffffff1681526020019060010190808311610ea3575b5050505050905090565b81600080600090505b6007805490508160ff161015610fa15760078160ff1681548110610f2757610f26612649565b5b9060005260206000200160009054906101000a900473ffffffffffffffffffffffffffffffffffffffff1673ffffffffffffffffffffffffffffffffffffffff168373ffffffffffffffffffffffffffffffffffffffff161415610f8e5760019150610fa1565b8080610f9990612685565b915050610f00565b5080610fe2576040517f08c379a0000000000000000000000000000000000000000000000000000000008152600401610fd990612721565b60405180910390fd5b6000733c73a5e5785cac854d468f727c606c07488a29d673ffffffffffffffffffffffffffffffffffffffff1663d2493b6c866040518263ffffffff1660e01b81526004016110319190611f11565b60606040518083038186803b15801561104957600080fd5b505afa15801561105d573d6000803e3d6000fd5b505050506040513d601f19601f820116820180604052508101906110819190612223565b5050905060008173ffffffffffffffffffffffffffffffffffffffff166370a08231306040518263ffffffff1660e01b81526004016110c09190611f11565b60206040518083038186803b1580156110d857600080fd5b505afa1580156110ec573d6000803e3d6000fd5b505050506040513d601f19601f82011682018060405250810190611110919061228b565b90506000600160008873ffffffffffffffffffffffffffffffffffffffff1673ffffffffffffffffffffffffffffffffffffffff168152602001908152602001600020548261115f91906124d8565b905080600260008973ffffffffffffffffffffffffffffffffffffffff1673ffffffffffffffffffffffffffffffffffffffff16815260200190815260200160002060008282546111b09190612741565b925050819055508561129557600660009054906101000a900473ffffffffffffffffffffffffffffffffffffffff1673ffffffffffffffffffffffffffffffffffffffff166369328dec8883600960009054906101000a900473ffffffffffffffffffffffffffffffffffffffff166040518463ffffffff1660e01b815260040161123d9392919061250c565b602060405180830381600087803b15801561125757600080fd5b505af115801561126b573d6000803e3d6000fd5b505050506040513d601f19601f8201168201806040525081019061128f919061228b565b50611363565b6000600660009054906101000a900473ffffffffffffffffffffffffffffffffffffffff16905073a61ca04df33b72b235a8a28cfb535bb7a5271b7073ffffffffffffffffffffffffffffffffffffffff166380500d208284600960009054906101000a900473ffffffffffffffffffffffffffffffffffffffff166040518463ffffffff1660e01b815260040161132f9392919061250c565b600060405180830381600087803b15801561134957600080fd5b505af115801561135d573d6000803e3d6000fd5b50505050505b7ffb42c6fc06609281806d5b0ad4bd7b7bb222a7ac7fa9e5211fa7ac032fa491ae87600960009054906101000a900473ffffffffffffffffffffffffffffffffffffffff1683600160008c73ffffffffffffffffffffffffffffffffffffffff1673ffffffffffffffffffffffffffffffffffffffff16815260200190815260200160002054876040516113fb959493929190612797565b60405180910390a150505050505050565b6060600b805461141b906122e7565b80601f0160208091040260200160405190810160405280929190818152602001828054611447906122e7565b80156114945780601f1061146957610100808354040283529160200191611494565b820191906000526020600020905b81548152906001019060200180831161147757829003601f168201915b5050505050905090565b600080733c73a5e5785cac854d468f727c606c07488a29d673ffffffffffffffffffffffffffffffffffffffff1663d2493b6c846040518263ffffffff1660e01b81526004016114ee9190611f11565b60606040518083038186803b15801561150657600080fd5b505afa15801561151a573d6000803e3d6000fd5b505050506040513d601f19601f8201168201806040525081019061153e9190612223565b5050905060008173ffffffffffffffffffffffffffffffffffffffff166370a08231306040518263ffffffff1660e01b815260040161157d9190611f11565b60206040518083038186803b15801561159557600080fd5b505afa1580156115a9573d6000803e3d6000fd5b505050506040513d601f19601f820116820180604052508101906115cd919061228b565b9050600160008573ffffffffffffffffffffffffffffffffffffffff1673ffffffffffffffffffffffffffffffffffffffff168152602001908152602001600020548161161a91906124d8565b92505050919050565b81600080600090505b6007805490508160ff1610156116cd5760078160ff168154811061165357611652612649565b5b9060005260206000200160009054906101000a900473ffffffffffffffffffffffffffffffffffffffff1673ffffffffffffffffffffffffffffffffffffffff168373ffffffffffffffffffffffffffffffffffffffff1614156116ba57600191506116cd565b80806116c590612685565b91505061162c565b508061170e576040517f08c379a000000000000000000000000000000000000000000000000000000000815260040161170590612721565b60405180910390fd5b6000849050838173ffffffffffffffffffffffffffffffffffffffff1663dd62ed3e33306040518363ffffffff1660e01b815260040161174f929190612543565b60206040518083038186803b15801561176757600080fd5b505afa15801561177b573d6000803e3d6000fd5b505050506040513d601f19601f8201168201806040525081019061179f919061228b565b10156117e0576040517f08c379a00000000000000000000000000000000000000000000000000000000081526004016117d790612836565b60405180910390fd5b8073ffffffffffffffffffffffffffffffffffffffff166323b872dd3330876040518463ffffffff1660e01b815260040161181d93929190612856565b602060405180830381600087803b15801561183757600080fd5b505af115801561184b573d6000803e3d6000fd5b505050506040513d601f19601f8201168201806040525081019061186f91906128a2565b506000600660009054906101000a900473ffffffffffffffffffffffffffffffffffffffff1690508173ffffffffffffffffffffffffffffffffffffffff1663095ea7b382876040518363ffffffff1660e01b81526004016118d29291906128cf565b602060405180830381600087803b1580156118ec57600080fd5b505af1158015611900573d6000803e3d6000fd5b505050506040513d601f19601f8201168201806040525081019061192491906128a2565b50600660009054906101000a900473ffffffffffffffffffffffffffffffffffffffff1673ffffffffffffffffffffffffffffffffffffffff1663e8eda9df83873060006040518563ffffffff1660e01b815260040161198794939291906128f8565b600060405180830381600087803b1580156119a157600080fd5b505af11580156119b5573d6000803e3d6000fd5b505050506119c38587611b81565b505050505050565b60603073ffffffffffffffffffffffffffffffffffffffff16803b806020016040519081016040528181526000908060200190933c905090565b6000600260008373ffffffffffffffffffffffffffffffffffffffff1673ffffffffffffffffffffffffffffffffffffffff168152602001908152602001600020549050919050565b60008060008473ffffffffffffffffffffffffffffffffffffffff1673ffffffffffffffffffffffffffffffffffffffff16815260200190815260200160002060008373ffffffffffffffffffffffffffffffffffffffff1673ffffffffffffffffffffffffffffffffffffffff16815260200190815260200160002054905092915050565b600080733c73a5e5785cac854d468f727c606c07488a29d673ffffffffffffffffffffffffffffffffffffffff1663d2493b6c846040518263ffffffff1660e01b8152600401611b249190611f11565b60606040518083038186803b158015611b3c57600080fd5b505afa158015611b50573d6000803e3d6000fd5b505050506040513d601f19601f82011682018060405250810190611b749190612223565b5050905080915050919050565b60008060003373ffffffffffffffffffffffffffffffffffffffff1673ffffffffffffffffffffffffffffffffffffffff16815260200190815260200160002060008373ffffffffffffffffffffffffffffffffffffffff1673ffffffffffffffffffffffffffffffffffffffff1681526020019081526020016000205490506000811415611c9a57600360009054906101000a900473ffffffffffffffffffffffffffffffffffffffff1673ffffffffffffffffffffffffffffffffffffffff16632f1c563e33306040518363ffffffff1660e01b8152600401611c67929190612543565b600060405180830381600087803b158015611c8157600080fd5b505af1158015611c95573d6000803e3d6000fd5b505050505b8281611ca69190612741565b905082600160008473ffffffffffffffffffffffffffffffffffffffff1673ffffffffffffffffffffffffffffffffffffffff1681526020019081526020016000206000828254611cf79190612741565b92505081905550806000803373ffffffffffffffffffffffffffffffffffffffff1673ffffffffffffffffffffffffffffffffffffffff16815260200190815260200160002060008473ffffffffffffffffffffffffffffffffffffffff1673ffffffffffffffffffffffffffffffffffffffff16815260200190815260200160002081905550505050565b600080fd5b600073ffffffffffffffffffffffffffffffffffffffff82169050919050565b6000611db382611d88565b9050919050565b611dc381611da8565b8114611dce57600080fd5b50565b600081359050611de081611dba565b92915050565b600060208284031215611dfc57611dfb611d83565b5b6000611e0a84828501611dd1565b91505092915050565b6000819050919050565b611e2681611e13565b82525050565b6000602082019050611e416000830184611e1d565b92915050565b600081519050919050565b600082825260208201905092915050565b60005b83811015611e81578082015181840152602081019050611e66565b83811115611e90576000848401525b50505050565b6000601f19601f8301169050919050565b6000611eb282611e47565b611ebc8185611e52565b9350611ecc818560208601611e63565b611ed581611e96565b840191505092915050565b60006020820190508181036000830152611efa8184611ea7565b905092915050565b611f0b81611da8565b82525050565b6000602082019050611f266000830184611f02565b92915050565b611f3581611e13565b8114611f4057600080fd5b50565b600081359050611f5281611f2c565b92915050565b60008115159050919050565b611f6d81611f58565b8114611f7857600080fd5b50565b600081359050611f8a81611f64565b92915050565b60008060008060808587031215611faa57611fa9611d83565b5b6000611fb887828801611dd1565b9450506020611fc987828801611f43565b9350506040611fda87828801611f43565b9250506060611feb87828801611f7b565b91505092959194509250565b600081519050919050565b600082825260208201905092915050565b6000819050602082019050919050565b61202c81611da8565b82525050565b600061203e8383612023565b60208301905092915050565b6000602082019050919050565b600061206282611ff7565b61206c8185612002565b935061207783612013565b8060005b838110156120a857815161208f8882612032565b975061209a8361204a565b92505060018101905061207b565b5085935050505092915050565b600060208201905081810360008301526120cf8184612057565b905092915050565b600080604083850312156120ee576120ed611d83565b5b60006120fc85828601611dd1565b925050602061210d85828601611f7b565b9150509250929050565b6000806040838503121561212e5761212d611d83565b5b600061213c85828601611dd1565b925050602061214d85828601611f43565b9150509250929050565b600081519050919050565b600082825260208201905092915050565b600061217e82612157565b6121888185612162565b9350612198818560208601611e63565b6121a181611e96565b840191505092915050565b600060208201905081810360008301526121c68184612173565b905092915050565b600080604083850312156121e5576121e4611d83565b5b60006121f385828601611dd1565b925050602061220485828601611dd1565b9150509250929050565b60008151905061221d81611dba565b92915050565b60008060006060848603121561223c5761223b611d83565b5b600061224a8682870161220e565b935050602061225b8682870161220e565b925050604061226c8682870161220e565b9150509250925092565b60008151905061228581611f2c565b92915050565b6000602082840312156122a1576122a0611d83565b5b60006122af84828501612276565b91505092915050565b7f4e487b7100000000000000000000000000000000000000000000000000000000600052602260045260246000fd5b600060028204905060018216806122ff57607f821691505b60208210811415612313576123126122b8565b5b50919050565b7f616d6f756e74206d757374206578636565642030000000000000000000000000600082015250565b600061234f601483611e52565b915061235a82612319565b602082019050919050565b6000602082019050818103600083015261237e81612342565b9050919050565b7f6e6f2066756e6473206465706f736974656420666f722073656c65637465642060008201527f746f6b656e000000000000000000000000000000000000000000000000000000602082015250565b60006123e1602583611e52565b91506123ec82612385565b604082019050919050565b60006020820190508181036000830152612410816123d4565b9050919050565b7f646f6e6174696f6e2063616e6e6f7420657863656564206465706f736974206160008201527f6d6f756e74000000000000000000000000000000000000000000000000000000602082015250565b6000612473602583611e52565b915061247e82612417565b604082019050919050565b600060208201905081810360008301526124a281612466565b9050919050565b7f4e487b7100000000000000000000000000000000000000000000000000000000600052601160045260246000fd5b60006124e382611e13565b91506124ee83611e13565b925082821015612501576125006124a9565b5b828203905092915050565b60006060820190506125216000830186611f02565b61252e6020830185611e1d565b61253b6040830184611f02565b949350505050565b60006040820190506125586000830185611f02565b6125656020830184611f02565b9392505050565b600060a0820190506125816000830188611f02565b61258e6020830187611f02565b61259b6040830186611e1d565b6125a86060830185611e1d565b6125b56080830184611e1d565b9695505050505050565b6000819050919050565b600061ffff82169050919050565b6000819050919050565b60006125fc6125f76125f2846125bf565b6125d7565b6125c9565b9050919050565b61260c816125e1565b82525050565b60006060820190506126276000830186611f02565b6126346020830185611f02565b6126416040830184612603565b949350505050565b7f4e487b7100000000000000000000000000000000000000000000000000000000600052603260045260246000fd5b600060ff82169050919050565b600061269082612678565b915060ff8214156126a4576126a36124a9565b5b600182019050919050565b7f7375626d697474656420746f6b656e2061646472657373206973206e6f74206160008201527f6363657074656420627920706f6f6c0000000000000000000000000000000000602082015250565b600061270b602f83611e52565b9150612716826126af565b604082019050919050565b6000602082019050818103600083015261273a816126fe565b9050919050565b600061274c82611e13565b915061275783611e13565b9250827fffffffffffffffffffffffffffffffffffffffffffffffffffffffffffffffff0382111561278c5761278b6124a9565b5b828201905092915050565b600060a0820190506127ac6000830188611f02565b6127b96020830187611f02565b6127c66040830186611e1d565b6127d36060830185611e1d565b6127e06080830184611f02565b9695505050505050565b7f73656e646572206e6f7420617070726f76656400000000000000000000000000600082015250565b6000612820601383611e52565b915061282b826127ea565b602082019050919050565b6000602082019050818103600083015261284f81612813565b9050919050565b600060608201905061286b6000830186611f02565b6128786020830185611f02565b6128856040830184611e1d565b949350505050565b60008151905061289c81611f64565b92915050565b6000602082840312156128b8576128b7611d83565b5b60006128c68482850161288d565b91505092915050565b60006040820190506128e46000830185611f02565b6128f16020830184611e1d565b9392505050565b600060808201905061290d6000830187611f02565b61291a6020830186611e1d565b6129276040830185611f02565b6129346060830184612603565b9594505050505056fea2646970667358221220a09221d98df0563c80a0810a8d972b074baa5fa778a73fd16ab8a8963e30a13964736f6c63430008090033",
  "immutableReferences": {},
  "source": "// SPDX-License-Identifier: MIT\npragma solidity 0.8.9;\n\nimport { IERC20, ILendingPool, ILendingPoolAddressesProvider, IPoolTracker, IProtocolDataProvider, IWETHGateway} from './Interfaces.sol';\nimport { SafeERC20 } from './Libraries.sol';\n\n/**\n * This is a proof of concept starter contract, showing how uncollaterised loans are possible\n * using Aave v2 credit delegation.\n * This example supports stable interest rate borrows.\n * It is not production ready (!). User permissions and user accounting of loans should be implemented.\n * See @dev comments\n */\n\ncontract JustCausePool {\n    //using SafeERC20 for IERC20;\n    mapping(address => mapping(address => uint256)) private depositors;\n    mapping(address => uint256) private totalDeposits;\n    mapping(address => uint256) private interestWithdrawn;\n\n    //mapping(address => mapping(address => uint256)) public deposits;\n    IPoolTracker poolTracker;\n    //ILendingPoolAddressesProvider provider;\n    //address private kovanDAI;v\n    //ILendingPool lendingPool;\n\n    ILendingPoolAddressesProvider provider = ILendingPoolAddressesProvider(address(0x88757f2f99175387aB4C6a4b3067c77A695b0349));\n    address lendingPoolAddr = provider.getLendingPool();\n    ILendingPool lendingPool = ILendingPool(lendingPoolAddr); // Kovan\n    IProtocolDataProvider constant dataProvider = IProtocolDataProvider(address(0x3c73A5E5785cAC854D468F727c606C07488a29D6)); // Kovan\n    IWETHGateway constant wethGateway = IWETHGateway(address(0xA61ca04DF33B72b235a8A28CfB535bb7A5271B70));\n\n    //IERC20 daiToken;\n    //uint256 amount;\n    //address lendingPoolAddr;\n    address[] acceptedTokens;\n\n    event Deposit(address tokenAddress, address depositor, uint256 amount, uint256 totalDeposits);\n    event Withdraw(address tokenAddress, address depositor, uint256 amount, uint256 userDeposits, uint256 donation);\n    event WithdrawDonations(address tokenAddress, address depositor, uint256 amount, uint256 totalDeposits, address aTokenAddress);\n    event BalanceOf(address FROM, uint256 AMOUNT, uint256 BALANCE);\n    event GetLPAddress(address addr);\n    event SeeAllowance(uint256 allowance);\n    event GetPoolTracker(address test);\n    address owner;\n    address receiver;\n    string name;\n    string about;\n\n    modifier onlyAllowedTokens(address _tokenAddr){\n        bool isAccepted;\n        for (uint8 i = 0; i < acceptedTokens.length; i++){\n            if(_tokenAddr == acceptedTokens[i]){\n                isAccepted = true;\n                break;\n            }\n        }\n        require(isAccepted, \"submitted token address is not accepted by pool\");\n        _;\n    }\n\n    modifier enoughFunds(address _userAddr, address _tokenAddr, uint256 _amount, uint256 _donation) {\n        require(_amount > 0, \"amount must exceed 0\");\n        require(depositors[_userAddr][_tokenAddr]  >= _amount, \"no funds deposited for selected token\");\n        require(_amount >= _donation, \"donation cannot exceed deposit amount\");\n        _;\n    }\n\n    modifier onlyReceiver(address _requestAddr){\n        require(receiver == _requestAddr, \"you are not the current reciever for this pool\");\n        _;\n    }\n\n    modifier strLength(string memory _str, uint8 _limit ){\n        bytes memory strBytes = bytes(_str);\n        require(strBytes.length < _limit, \"string over character limit\");\n        _;\n    }\n\n    constructor (address[] memory _acceptedTokens, string memory _name, string memory _about, address _poolTrackerAddr, address _receiver) strLength(_name, 30) strLength(_about, 200) {\n            owner = msg.sender;\n            receiver = _receiver;\n            name = _name;\n            about = _about;\n            provider = ILendingPoolAddressesProvider(address(0x88757f2f99175387aB4C6a4b3067c77A695b0349));\n            lendingPoolAddr = provider.getLendingPool();\n            lendingPool = ILendingPool(lendingPoolAddr); // Kovan\n            acceptedTokens = _acceptedTokens;\n\n            poolTracker = IPoolTracker(address(_poolTrackerAddr));\n            emit GetPoolTracker(poolTracker.getAddressFromName(name));\n            poolTracker.addVerifiedPools(address(this), owner, _name);\n    }\n\n    function deposit(address _assetAddress, uint256 _amount) onlyAllowedTokens(_assetAddress) public {\n        IERC20 token = IERC20(_assetAddress);\n        require(token.allowance(msg.sender, address(this)) >= _amount, \"sender not approved\");\n        token.transferFrom(msg.sender, address(this), _amount);\n        address poolAddr = address(lendingPool);\n        token.approve(poolAddr, _amount);\n        lendingPool.deposit(address(token), _amount, address(this), 0);\n        tallyDeposit(_amount, _assetAddress);\n    }\n\n    function depositETH(address _wethAddress) public payable {\n        address poolAddr = address(lendingPool);\n        wethGateway.depositETH{value: msg.value}(poolAddr, address(this), 0);\n        tallyDeposit(msg.value, _wethAddress);\n    }\n\n    function tallyDeposit(uint256 _amount, address _assetAddress) internal {\n        uint256 depositedAmount = depositors[msg.sender][_assetAddress];\n        if(depositedAmount == 0){\n            poolTracker.addDeposit(msg.sender, address(this));\n        }\n        depositedAmount += _amount;\n        totalDeposits[_assetAddress] += _amount;\n        depositors[msg.sender][_assetAddress] = depositedAmount;\n    }\n\n    function withdraw(address _assetAddress, uint256 _amount, uint256 _donation, bool _isETH) enoughFunds(msg.sender, _assetAddress, _amount, _donation) public {\n        address poolAddr = address(lendingPool);\n        if(_donation != 0){\n            uint256 newAmount = _amount - _donation;\n            lendingPool.withdraw(_assetAddress, _donation, receiver);\n            if(newAmount != 0){\n                if(!_isETH)\n                    lendingPool.withdraw(_assetAddress, newAmount, msg.sender);\n                else\n                    wethGateway.withdrawETH(poolAddr, newAmount, msg.sender);\n            }\n        }\n        else{\n            if(!_isETH)\n                lendingPool.withdraw(_assetAddress, _amount, msg.sender);\n            else\n                wethGateway.withdrawETH(poolAddr, _amount, msg.sender);\n\n        }\n        depositors[msg.sender][_assetAddress] -= _amount;\n        totalDeposits[_assetAddress] -= _amount;\n\n        if(depositors[msg.sender][_assetAddress] == 0){\n            poolTracker.withdrawDeposit(msg.sender, address(this));\n        }\n        emit Withdraw(_assetAddress, msg.sender, _amount, depositors[msg.sender][_assetAddress], _donation);\n    }\n\n    function withdrawDonations(address _assetAddress, bool _isETH) onlyAllowedTokens(_assetAddress) public{\n        (address aTokenAddress,,) = dataProvider.getReserveTokensAddresses(_assetAddress);\n\n        uint256 aTokenBalance = IERC20(aTokenAddress).balanceOf(address(this));\n        uint256 interestEarned = aTokenBalance - totalDeposits[_assetAddress];\n        interestWithdrawn[_assetAddress] += interestEarned;\n        if(!_isETH){\n            lendingPool.withdraw(_assetAddress, interestEarned, receiver);\n        }\n        else{\n            address poolAddr = address(lendingPool);\n            wethGateway.withdrawETH(poolAddr, interestEarned, receiver);\n        }\n        emit WithdrawDonations(_assetAddress, receiver, interestEarned, totalDeposits[_assetAddress], aTokenAddress);\n    }\n\n\n\n    function getUserBalance(address _userAddr, address _token) external view returns(uint256){\n        return depositors[_userAddr][_token];\n    }\n\n    function getTotalDeposits(address _token) external view returns(uint256){\n        return totalDeposits[_token];\n    }\n\n    function getAcceptedTokens() external view returns(address[] memory){\n        return acceptedTokens;\n    }\n\n    function getName() external view returns(string memory){\n        return name;\n    }\n\n    function getAbout() external view returns(string memory){\n        return about;\n    }\n\n    function getATokenAddress(address _assetAddress) external view returns(address){\n        (address aTokenAddress,,) = dataProvider.getReserveTokensAddresses(_assetAddress);\n        return aTokenAddress;\n    }\n\n    function getUnclaimedInterest(address _assetAddress) external view returns (uint256){\n        (address aTokenAddress,,) = dataProvider.getReserveTokensAddresses(_assetAddress);\n            uint256 aTokenBalance = IERC20(aTokenAddress).balanceOf(address(this));\n            return aTokenBalance - totalDeposits[_assetAddress];\n    }\n\n    function getClaimedInterest(address _assetAddress) external view returns (uint256){\n        return interestWithdrawn[_assetAddress];\n    }\n\n    function getATokenBalance(address _assetAddress) external view returns (uint256){\n        (address aTokenAddress,,) = dataProvider.getReserveTokensAddresses(_assetAddress);\n        return IERC20(aTokenAddress).balanceOf(address(this));\n    }\n\n    function getRecipient() external view returns(address){\n        return receiver;\n    }\n\n    function getByteCode() external view returns(bytes memory) {\n        return address(this).code;\n    }\n}",
  "sourcePath": "/home/smeee/just_cause/contracts/JustCausePool.sol",
  "compiler": {
    "name": "solc",
    "version": "0.8.9+commit.e5eed63a.Emscripten.clang"
  },
  "schemaVersion": "3.4.3",
  "updatedAt": "2021-12-29T04:44:32.391Z",
  "devdoc": {
    "details": "comments",
    "kind": "dev",
    "methods": {},
    "version": 1
  },
  "userdoc": {
    "kind": "user",
    "methods": {},
    "notice": "This is a proof of concept starter contract, showing how uncollaterised loans are possible using Aave v2 credit delegation. This example supports stable interest rate borrows. It is not production ready (!). User permissions and user accounting of loans should be implemented.",
    "version": 1
  }
}