{
  "contractName": "JustCausePool",
  "abi": [
    {
      "inputs": [
        {
          "internalType": "address[]",
          "name": "_acceptedTokens",
          "type": "address[]"
        },
        {
          "internalType": "string",
          "name": "_name",
          "type": "string"
        },
        {
          "internalType": "address",
          "name": "_poolTrackerAddr",
          "type": "address"
        },
        {
          "internalType": "address",
          "name": "_receiver",
          "type": "address"
        }
      ],
      "stateMutability": "nonpayable",
      "type": "constructor"
    },
    {
      "anonymous": false,
      "inputs": [
        {
          "indexed": false,
          "internalType": "address",
          "name": "FROM",
          "type": "address"
        },
        {
          "indexed": false,
          "internalType": "uint256",
          "name": "AMOUNT",
          "type": "uint256"
        },
        {
          "indexed": false,
          "internalType": "uint256",
          "name": "BALANCE",
          "type": "uint256"
        }
      ],
      "name": "BalanceOf",
      "type": "event"
    },
    {
      "anonymous": false,
      "inputs": [
        {
          "indexed": false,
          "internalType": "address",
          "name": "tokenAddress",
          "type": "address"
        },
        {
          "indexed": false,
          "internalType": "address",
          "name": "depositor",
          "type": "address"
        },
        {
          "indexed": false,
          "internalType": "uint256",
          "name": "amount",
          "type": "uint256"
        },
        {
          "indexed": false,
          "internalType": "uint256",
          "name": "totalDeposits",
          "type": "uint256"
        }
      ],
      "name": "Deposit",
      "type": "event"
    },
    {
      "anonymous": false,
      "inputs": [
        {
          "indexed": false,
          "internalType": "address",
          "name": "addr",
          "type": "address"
        }
      ],
      "name": "GetLPAddress",
      "type": "event"
    },
    {
      "anonymous": false,
      "inputs": [
        {
          "indexed": false,
          "internalType": "address",
          "name": "test",
          "type": "address"
        }
      ],
      "name": "GetPoolTracker",
      "type": "event"
    },
    {
      "anonymous": false,
      "inputs": [
        {
          "indexed": false,
          "internalType": "uint256",
          "name": "allowance",
          "type": "uint256"
        }
      ],
      "name": "SeeAllowance",
      "type": "event"
    },
    {
      "anonymous": false,
      "inputs": [
        {
          "indexed": false,
          "internalType": "address",
          "name": "tokenAddress",
          "type": "address"
        },
        {
          "indexed": false,
          "internalType": "address",
          "name": "depositor",
          "type": "address"
        },
        {
          "indexed": false,
          "internalType": "uint256",
          "name": "amount",
          "type": "uint256"
        },
        {
          "indexed": false,
          "internalType": "uint256",
          "name": "userDeposits",
          "type": "uint256"
        },
        {
          "indexed": false,
          "internalType": "uint256",
          "name": "donation",
          "type": "uint256"
        }
      ],
      "name": "Withdraw",
      "type": "event"
    },
    {
      "anonymous": false,
      "inputs": [
        {
          "indexed": false,
          "internalType": "address",
          "name": "tokenAddress",
          "type": "address"
        },
        {
          "indexed": false,
          "internalType": "address",
          "name": "depositor",
          "type": "address"
        },
        {
          "indexed": false,
          "internalType": "uint256",
          "name": "amount",
          "type": "uint256"
        },
        {
          "indexed": false,
          "internalType": "uint256",
          "name": "totalDeposits",
          "type": "uint256"
        },
        {
          "indexed": false,
          "internalType": "address",
          "name": "aTokenAddress",
          "type": "address"
        }
      ],
      "name": "WithdrawDonations",
      "type": "event"
    },
    {
      "inputs": [
        {
          "internalType": "address",
          "name": "_assetAddress",
          "type": "address"
        },
        {
          "internalType": "uint256",
          "name": "_amount",
          "type": "uint256"
        }
      ],
      "name": "deposit",
      "outputs": [],
      "stateMutability": "nonpayable",
      "type": "function"
    },
    {
      "inputs": [
        {
          "internalType": "address",
          "name": "_assetAddress",
          "type": "address"
        },
        {
          "internalType": "uint256",
          "name": "_amount",
          "type": "uint256"
        },
        {
          "internalType": "uint256",
          "name": "_donation",
          "type": "uint256"
        }
      ],
      "name": "withdraw",
      "outputs": [],
      "stateMutability": "nonpayable",
      "type": "function"
    },
    {
      "inputs": [
        {
          "internalType": "address",
          "name": "_userAddr",
          "type": "address"
        },
        {
          "internalType": "address",
          "name": "_token",
          "type": "address"
        }
      ],
      "name": "getUserBalance",
      "outputs": [
        {
          "internalType": "uint256",
          "name": "",
          "type": "uint256"
        }
      ],
      "stateMutability": "view",
      "type": "function"
    },
    {
      "inputs": [
        {
          "internalType": "address",
          "name": "_token",
          "type": "address"
        }
      ],
      "name": "getTotalDeposits",
      "outputs": [
        {
          "internalType": "uint256",
          "name": "",
          "type": "uint256"
        }
      ],
      "stateMutability": "view",
      "type": "function"
    },
    {
      "inputs": [],
      "name": "getAcceptedTokens",
      "outputs": [
        {
          "internalType": "address[]",
          "name": "",
          "type": "address[]"
        }
      ],
      "stateMutability": "view",
      "type": "function"
    },
    {
      "inputs": [],
      "name": "getName",
      "outputs": [
        {
          "internalType": "string",
          "name": "",
          "type": "string"
        }
      ],
      "stateMutability": "view",
      "type": "function"
    },
    {
      "inputs": [
        {
          "internalType": "address",
          "name": "_assetAddress",
          "type": "address"
        }
      ],
      "name": "getUnclaimedInterest",
      "outputs": [
        {
          "internalType": "uint256",
          "name": "",
          "type": "uint256"
        }
      ],
      "stateMutability": "view",
      "type": "function"
    },
    {
      "inputs": [
        {
          "internalType": "address",
          "name": "_assetAddress",
          "type": "address"
        }
      ],
      "name": "getClaimedInterest",
      "outputs": [
        {
          "internalType": "uint256",
          "name": "",
          "type": "uint256"
        }
      ],
      "stateMutability": "view",
      "type": "function"
    },
    {
      "inputs": [],
      "name": "getATokenBalance",
      "outputs": [
        {
          "internalType": "uint256",
          "name": "",
          "type": "uint256"
        }
      ],
      "stateMutability": "view",
      "type": "function"
    },
    {
      "inputs": [],
      "name": "getRecipient",
      "outputs": [
        {
          "internalType": "address",
          "name": "",
          "type": "address"
        }
      ],
      "stateMutability": "view",
      "type": "function"
    },
    {
      "inputs": [
        {
          "internalType": "address",
          "name": "_assetAddress",
          "type": "address"
        }
      ],
      "name": "withdrawDonations",
      "outputs": [],
      "stateMutability": "nonpayable",
      "type": "function"
    }
  ],
  "bytecode": "0x60806040527388757f2f99175387ab4c6a4b3067c77a695b0349600460006101000a81548173ffffffffffffffffffffffffffffffffffffffff021916908373ffffffffffffffffffffffffffffffffffffffff160217905550600460009054906101000a900473ffffffffffffffffffffffffffffffffffffffff1673ffffffffffffffffffffffffffffffffffffffff16630261bf8b6040518163ffffffff1660e01b815260040160206040518083038186803b158015620000c257600080fd5b505afa158015620000d7573d6000803e3d6000fd5b505050506040513d601f19601f82011682018060405250810190620000fd91906200081c565b600560006101000a81548173ffffffffffffffffffffffffffffffffffffffff021916908373ffffffffffffffffffffffffffffffffffffffff160217905550600560009054906101000a900473ffffffffffffffffffffffffffffffffffffffff16600660006101000a81548173ffffffffffffffffffffffffffffffffffffffff021916908373ffffffffffffffffffffffffffffffffffffffff16021790555073dcf0af9e59c002fa3aa091a46196b37530fd48a8600760006101000a81548173ffffffffffffffffffffffffffffffffffffffff021916908373ffffffffffffffffffffffffffffffffffffffff1602179055503480156200020257600080fd5b5060405162002e4538038062002e45833981810160405281019062000228919062000ab2565b33600960006101000a81548173ffffffffffffffffffffffffffffffffffffffff021916908373ffffffffffffffffffffffffffffffffffffffff16021790555080600a60006101000a81548173ffffffffffffffffffffffffffffffffffffffff021916908373ffffffffffffffffffffffffffffffffffffffff16021790555082600b9080519060200190620002c292919062000664565b507388757f2f99175387ab4c6a4b3067c77a695b0349600460006101000a81548173ffffffffffffffffffffffffffffffffffffffff021916908373ffffffffffffffffffffffffffffffffffffffff160217905550600460009054906101000a900473ffffffffffffffffffffffffffffffffffffffff1673ffffffffffffffffffffffffffffffffffffffff16630261bf8b6040518163ffffffff1660e01b815260040160206040518083038186803b1580156200038157600080fd5b505afa15801562000396573d6000803e3d6000fd5b505050506040513d601f19601f82011682018060405250810190620003bc91906200081c565b600560006101000a81548173ffffffffffffffffffffffffffffffffffffffff021916908373ffffffffffffffffffffffffffffffffffffffff160217905550600560009054906101000a900473ffffffffffffffffffffffffffffffffffffffff16600660006101000a81548173ffffffffffffffffffffffffffffffffffffffff021916908373ffffffffffffffffffffffffffffffffffffffff160217905550836008908051906020019062000477929190620006f5565b5081600360006101000a81548173ffffffffffffffffffffffffffffffffffffffff021916908373ffffffffffffffffffffffffffffffffffffffff1602179055507f36ac3f21e23b63ede25b34d24a735e877430bc3884df25935f44448497e1e922600360009054906101000a900473ffffffffffffffffffffffffffffffffffffffff1673ffffffffffffffffffffffffffffffffffffffff16638e61514e600b6040518263ffffffff1660e01b815260040162000538919062000c79565b60206040518083038186803b1580156200055157600080fd5b505afa15801562000566573d6000803e3d6000fd5b505050506040513d601f19601f820116820180604052508101906200058c91906200081c565b6040516200059b919062000cae565b60405180910390a1600360009054906101000a900473ffffffffffffffffffffffffffffffffffffffff1673ffffffffffffffffffffffffffffffffffffffff166345cdf64230600960009054906101000a900473ffffffffffffffffffffffffffffffffffffffff16866040518463ffffffff1660e01b8152600401620006269392919062000d17565b600060405180830381600087803b1580156200064157600080fd5b505af115801562000656573d6000803e3d6000fd5b505050505050505062000d5b565b828054620006729062000b91565b90600052602060002090601f016020900481019282620006965760008555620006e2565b82601f10620006b157805160ff1916838001178555620006e2565b82800160010185558215620006e2579182015b82811115620006e1578251825591602001919060010190620006c4565b5b509050620006f1919062000784565b5090565b82805482825590600052602060002090810192821562000771579160200282015b82811115620007705782518260006101000a81548173ffffffffffffffffffffffffffffffffffffffff021916908373ffffffffffffffffffffffffffffffffffffffff1602179055509160200191906001019062000716565b5b50905062000780919062000784565b5090565b5b808211156200079f57600081600090555060010162000785565b5090565b6000604051905090565b600080fd5b600080fd5b600073ffffffffffffffffffffffffffffffffffffffff82169050919050565b6000620007e482620007b7565b9050919050565b620007f681620007d7565b81146200080257600080fd5b50565b6000815190506200081681620007eb565b92915050565b600060208284031215620008355762000834620007ad565b5b6000620008458482850162000805565b91505092915050565b600080fd5b6000601f19601f8301169050919050565b7f4e487b7100000000000000000000000000000000000000000000000000000000600052604160045260246000fd5b6200089e8262000853565b810181811067ffffffffffffffff82111715620008c057620008bf62000864565b5b80604052505050565b6000620008d5620007a3565b9050620008e3828262000893565b919050565b600067ffffffffffffffff82111562000906576200090562000864565b5b602082029050602081019050919050565b600080fd5b6000620009336200092d84620008e8565b620008c9565b9050808382526020820190506020840283018581111562000959576200095862000917565b5b835b8181101562000986578062000971888262000805565b8452602084019350506020810190506200095b565b5050509392505050565b600082601f830112620009a857620009a76200084e565b5b8151620009ba8482602086016200091c565b91505092915050565b600080fd5b600067ffffffffffffffff821115620009e657620009e562000864565b5b620009f18262000853565b9050602081019050919050565b60005b8381101562000a1e57808201518184015260208101905062000a01565b8381111562000a2e576000848401525b50505050565b600062000a4b62000a4584620009c8565b620008c9565b90508281526020810184848401111562000a6a5762000a69620009c3565b5b62000a77848285620009fe565b509392505050565b600082601f83011262000a975762000a966200084e565b5b815162000aa984826020860162000a34565b91505092915050565b6000806000806080858703121562000acf5762000ace620007ad565b5b600085015167ffffffffffffffff81111562000af05762000aef620007b2565b5b62000afe8782880162000990565b945050602085015167ffffffffffffffff81111562000b225762000b21620007b2565b5b62000b308782880162000a7f565b935050604062000b438782880162000805565b925050606062000b568782880162000805565b91505092959194509250565b7f4e487b7100000000000000000000000000000000000000000000000000000000600052602260045260246000fd5b6000600282049050600182168062000baa57607f821691505b6020821081141562000bc15762000bc062000b62565b5b50919050565b600082825260208201905092915050565b60008190508160005260206000209050919050565b6000815462000bfc8162000b91565b62000c08818662000bc7565b9450600182166000811462000c26576001811462000c395762000c70565b60ff198316865260208601935062000c70565b62000c448562000bd8565b60005b8381101562000c685781548189015260018201915060208101905062000c47565b808801955050505b50505092915050565b6000602082019050818103600083015262000c95818462000bed565b905092915050565b62000ca881620007d7565b82525050565b600060208201905062000cc5600083018462000c9d565b92915050565b600081519050919050565b600062000ce38262000ccb565b62000cef818562000bc7565b935062000d01818560208601620009fe565b62000d0c8162000853565b840191505092915050565b600060608201905062000d2e600083018662000c9d565b62000d3d602083018562000c9d565b818103604083015262000d51818462000cd6565b9050949350505050565b6120da8062000d6b6000396000f3fe608060405234801561001057600080fd5b50600436106100a85760003560e01c80633735ef88116100715780633735ef881461015557806347e7ef24146101855780635ff189b9146101a15780636805d6ad146101d1578063a56f5b5314610201578063b5c5f6721461021d576100a8565b8062c2d143146100ad5780630251cfa1146100cb57806317d7de7c146100fb5780631b88094d146101195780632f75700614610137575b600080fd5b6100b5610239565b6040516100c2919061163d565b60405180910390f35b6100e560048036038101906100e091906116bb565b6102eb565b6040516100f2919061163d565b60405180910390f35b610103610334565b6040516101109190611781565b60405180910390f35b6101216103c6565b60405161012e91906117b2565b60405180910390f35b61013f6103f0565b60405161014c919061188b565b60405180910390f35b61016f600480360381019061016a91906116bb565b61047e565b60405161017c919061163d565b60405180910390f35b61019f600480360381019061019a91906118d9565b610581565b005b6101bb60048036038101906101b691906116bb565b610b12565b6040516101c8919061163d565b60405180910390f35b6101eb60048036038101906101e69190611919565b610b5b565b6040516101f8919061163d565b60405180910390f35b61021b600480360381019061021691906116bb565b610be1565b005b61023760048036038101906102329190611959565b610fbd565b005b6000600760009054906101000a900473ffffffffffffffffffffffffffffffffffffffff1673ffffffffffffffffffffffffffffffffffffffff166370a08231306040518263ffffffff1660e01b815260040161029691906117b2565b60206040518083038186803b1580156102ae57600080fd5b505afa1580156102c2573d6000803e3d6000fd5b505050506040513d601f19601f820116820180604052508101906102e691906119c1565b905090565b6000600160008373ffffffffffffffffffffffffffffffffffffffff1673ffffffffffffffffffffffffffffffffffffffff168152602001908152602001600020549050919050565b6060600b805461034390611a1d565b80601f016020809104026020016040519081016040528092919081815260200182805461036f90611a1d565b80156103bc5780601f10610391576101008083540402835291602001916103bc565b820191906000526020600020905b81548152906001019060200180831161039f57829003601f168201915b5050505050905090565b6000600a60009054906101000a900473ffffffffffffffffffffffffffffffffffffffff16905090565b6060600880548060200260200160405190810160405280929190818152602001828054801561047457602002820191906000526020600020905b8160009054906101000a900473ffffffffffffffffffffffffffffffffffffffff1673ffffffffffffffffffffffffffffffffffffffff168152602001906001019080831161042a575b5050505050905090565b600080600760009054906101000a900473ffffffffffffffffffffffffffffffffffffffff1673ffffffffffffffffffffffffffffffffffffffff166370a08231306040518263ffffffff1660e01b81526004016104dc91906117b2565b60206040518083038186803b1580156104f457600080fd5b505afa158015610508573d6000803e3d6000fd5b505050506040513d601f19601f8201168201806040525081019061052c91906119c1565b9050600160008473ffffffffffffffffffffffffffffffffffffffff1673ffffffffffffffffffffffffffffffffffffffff16815260200190815260200160002054816105799190611a7e565b915050919050565b81600080600090505b6008805490508160ff16101561062b5760088160ff16815481106105b1576105b0611ab2565b5b9060005260206000200160009054906101000a900473ffffffffffffffffffffffffffffffffffffffff1673ffffffffffffffffffffffffffffffffffffffff168373ffffffffffffffffffffffffffffffffffffffff161415610618576001915061062b565b808061062390611aee565b91505061058a565b508061066c576040517f08c379a000000000000000000000000000000000000000000000000000000000815260040161066390611b8a565b60405180910390fd5b6000849050838173ffffffffffffffffffffffffffffffffffffffff1663dd62ed3e33306040518363ffffffff1660e01b81526004016106ad929190611baa565b60206040518083038186803b1580156106c557600080fd5b505afa1580156106d9573d6000803e3d6000fd5b505050506040513d601f19601f820116820180604052508101906106fd91906119c1565b101561073e576040517f08c379a000000000000000000000000000000000000000000000000000000000815260040161073590611c1f565b60405180910390fd5b8073ffffffffffffffffffffffffffffffffffffffff166323b872dd3330876040518463ffffffff1660e01b815260040161077b93929190611c3f565b602060405180830381600087803b15801561079557600080fd5b505af11580156107a9573d6000803e3d6000fd5b505050506040513d601f19601f820116820180604052508101906107cd9190611cae565b506000600660009054906101000a900473ffffffffffffffffffffffffffffffffffffffff1690508173ffffffffffffffffffffffffffffffffffffffff1663095ea7b382876040518363ffffffff1660e01b8152600401610830929190611cdb565b602060405180830381600087803b15801561084a57600080fd5b505af115801561085e573d6000803e3d6000fd5b505050506040513d601f19601f820116820180604052508101906108829190611cae565b50600660009054906101000a900473ffffffffffffffffffffffffffffffffffffffff1673ffffffffffffffffffffffffffffffffffffffff1663e8eda9df83873060006040518563ffffffff1660e01b81526004016108e59493929190611d57565b600060405180830381600087803b1580156108ff57600080fd5b505af1158015610913573d6000803e3d6000fd5b50505050846000803373ffffffffffffffffffffffffffffffffffffffff1673ffffffffffffffffffffffffffffffffffffffff16815260200190815260200160002060008873ffffffffffffffffffffffffffffffffffffffff1673ffffffffffffffffffffffffffffffffffffffff16815260200190815260200160002060008282546109a29190611d9c565b92505081905550600360009054906101000a900473ffffffffffffffffffffffffffffffffffffffff1673ffffffffffffffffffffffffffffffffffffffff16632f1c563e33306040518363ffffffff1660e01b8152600401610a06929190611baa565b600060405180830381600087803b158015610a2057600080fd5b505af1158015610a34573d6000803e3d6000fd5b5050505084600160008873ffffffffffffffffffffffffffffffffffffffff1673ffffffffffffffffffffffffffffffffffffffff1681526020019081526020016000206000828254610a879190611d9c565b925050819055507fdcbc1c05240f31ff3ad067ef1ee35ce4997762752e3a095284754544f4c709d7823387600160008b73ffffffffffffffffffffffffffffffffffffffff1673ffffffffffffffffffffffffffffffffffffffff16815260200190815260200160002054604051610b029493929190611df2565b60405180910390a1505050505050565b6000600260008373ffffffffffffffffffffffffffffffffffffffff1673ffffffffffffffffffffffffffffffffffffffff168152602001908152602001600020549050919050565b60008060008473ffffffffffffffffffffffffffffffffffffffff1673ffffffffffffffffffffffffffffffffffffffff16815260200190815260200160002060008373ffffffffffffffffffffffffffffffffffffffff1673ffffffffffffffffffffffffffffffffffffffff16815260200190815260200160002054905092915050565b80600080600090505b6008805490508160ff161015610c8b5760088160ff1681548110610c1157610c10611ab2565b5b9060005260206000200160009054906101000a900473ffffffffffffffffffffffffffffffffffffffff1673ffffffffffffffffffffffffffffffffffffffff168373ffffffffffffffffffffffffffffffffffffffff161415610c785760019150610c8b565b8080610c8390611aee565b915050610bea565b5080610ccc576040517f08c379a0000000000000000000000000000000000000000000000000000000008152600401610cc390611b8a565b60405180910390fd5b6000600760009054906101000a900473ffffffffffffffffffffffffffffffffffffffff1673ffffffffffffffffffffffffffffffffffffffff166370a08231306040518263ffffffff1660e01b8152600401610d2991906117b2565b60206040518083038186803b158015610d4157600080fd5b505afa158015610d55573d6000803e3d6000fd5b505050506040513d601f19601f82011682018060405250810190610d7991906119c1565b90506000600160008673ffffffffffffffffffffffffffffffffffffffff1673ffffffffffffffffffffffffffffffffffffffff1681526020019081526020016000205482610dc89190611a7e565b905080600260008773ffffffffffffffffffffffffffffffffffffffff1673ffffffffffffffffffffffffffffffffffffffff1681526020019081526020016000206000828254610e199190611d9c565b92505081905550600660009054906101000a900473ffffffffffffffffffffffffffffffffffffffff1673ffffffffffffffffffffffffffffffffffffffff166369328dec8683600960009054906101000a900473ffffffffffffffffffffffffffffffffffffffff166040518463ffffffff1660e01b8152600401610ea193929190611e37565b602060405180830381600087803b158015610ebb57600080fd5b505af1158015610ecf573d6000803e3d6000fd5b505050506040513d601f19601f82011682018060405250810190610ef391906119c1565b507ffb42c6fc06609281806d5b0ad4bd7b7bb222a7ac7fa9e5211fa7ac032fa491ae85600960009054906101000a900473ffffffffffffffffffffffffffffffffffffffff1683600160008a73ffffffffffffffffffffffffffffffffffffffff1673ffffffffffffffffffffffffffffffffffffffff16815260200190815260200160002054600760009054906101000a900473ffffffffffffffffffffffffffffffffffffffff16604051610fae959493929190611e6e565b60405180910390a15050505050565b3383838360008211611004576040517f08c379a0000000000000000000000000000000000000000000000000000000008152600401610ffb90611f0d565b60405180910390fd5b816000808673ffffffffffffffffffffffffffffffffffffffff1673ffffffffffffffffffffffffffffffffffffffff16815260200190815260200160002060008573ffffffffffffffffffffffffffffffffffffffff1673ffffffffffffffffffffffffffffffffffffffff1681526020019081526020016000205410156110c2576040517f08c379a00000000000000000000000000000000000000000000000000000000081526004016110b990611f9f565b60405180910390fd5b80821015611105576040517f08c379a00000000000000000000000000000000000000000000000000000000081526004016110fc90612031565b60405180910390fd5b600085146112b2576000858761111b9190611a7e565b9050600660009054906101000a900473ffffffffffffffffffffffffffffffffffffffff1673ffffffffffffffffffffffffffffffffffffffff166369328dec8988600a60009054906101000a900473ffffffffffffffffffffffffffffffffffffffff166040518463ffffffff1660e01b815260040161119e93929190611e37565b602060405180830381600087803b1580156111b857600080fd5b505af11580156111cc573d6000803e3d6000fd5b505050506040513d601f19601f820116820180604052508101906111f091906119c1565b50600081146112ac57600660009054906101000a900473ffffffffffffffffffffffffffffffffffffffff1673ffffffffffffffffffffffffffffffffffffffff166369328dec8983336040518463ffffffff1660e01b815260040161125893929190611e37565b602060405180830381600087803b15801561127257600080fd5b505af1158015611286573d6000803e3d6000fd5b505050506040513d601f19601f820116820180604052508101906112aa91906119c1565b505b50611365565b600660009054906101000a900473ffffffffffffffffffffffffffffffffffffffff1673ffffffffffffffffffffffffffffffffffffffff166369328dec8888336040518463ffffffff1660e01b815260040161131193929190611e37565b602060405180830381600087803b15801561132b57600080fd5b505af115801561133f573d6000803e3d6000fd5b505050506040513d601f19601f8201168201806040525081019061136391906119c1565b505b856000803373ffffffffffffffffffffffffffffffffffffffff1673ffffffffffffffffffffffffffffffffffffffff16815260200190815260200160002060008973ffffffffffffffffffffffffffffffffffffffff1673ffffffffffffffffffffffffffffffffffffffff16815260200190815260200160002060008282546113f09190611a7e565b9250508190555085600160008973ffffffffffffffffffffffffffffffffffffffff1673ffffffffffffffffffffffffffffffffffffffff16815260200190815260200160002060008282546114469190611a7e565b9250508190555060008060003373ffffffffffffffffffffffffffffffffffffffff1673ffffffffffffffffffffffffffffffffffffffff16815260200190815260200160002060008973ffffffffffffffffffffffffffffffffffffffff1673ffffffffffffffffffffffffffffffffffffffff16815260200190815260200160002054141561156157600360009054906101000a900473ffffffffffffffffffffffffffffffffffffffff1673ffffffffffffffffffffffffffffffffffffffff16633be273d633306040518363ffffffff1660e01b815260040161152e929190611baa565b600060405180830381600087803b15801561154857600080fd5b505af115801561155c573d6000803e3d6000fd5b505050505b7febff2602b3f468259e1e99f613fed6691f3a6526effe6ef3e768ba7ae7a36c4f8733886000803373ffffffffffffffffffffffffffffffffffffffff1673ffffffffffffffffffffffffffffffffffffffff16815260200190815260200160002060008c73ffffffffffffffffffffffffffffffffffffffff1673ffffffffffffffffffffffffffffffffffffffff1681526020019081526020016000205489604051611613959493929190612051565b60405180910390a150505050505050565b6000819050919050565b61163781611624565b82525050565b6000602082019050611652600083018461162e565b92915050565b600080fd5b600073ffffffffffffffffffffffffffffffffffffffff82169050919050565b60006116888261165d565b9050919050565b6116988161167d565b81146116a357600080fd5b50565b6000813590506116b58161168f565b92915050565b6000602082840312156116d1576116d0611658565b5b60006116df848285016116a6565b91505092915050565b600081519050919050565b600082825260208201905092915050565b60005b83811015611722578082015181840152602081019050611707565b83811115611731576000848401525b50505050565b6000601f19601f8301169050919050565b6000611753826116e8565b61175d81856116f3565b935061176d818560208601611704565b61177681611737565b840191505092915050565b6000602082019050818103600083015261179b8184611748565b905092915050565b6117ac8161167d565b82525050565b60006020820190506117c760008301846117a3565b92915050565b600081519050919050565b600082825260208201905092915050565b6000819050602082019050919050565b6118028161167d565b82525050565b600061181483836117f9565b60208301905092915050565b6000602082019050919050565b6000611838826117cd565b61184281856117d8565b935061184d836117e9565b8060005b8381101561187e5781516118658882611808565b975061187083611820565b925050600181019050611851565b5085935050505092915050565b600060208201905081810360008301526118a5818461182d565b905092915050565b6118b681611624565b81146118c157600080fd5b50565b6000813590506118d3816118ad565b92915050565b600080604083850312156118f0576118ef611658565b5b60006118fe858286016116a6565b925050602061190f858286016118c4565b9150509250929050565b600080604083850312156119305761192f611658565b5b600061193e858286016116a6565b925050602061194f858286016116a6565b9150509250929050565b60008060006060848603121561197257611971611658565b5b6000611980868287016116a6565b9350506020611991868287016118c4565b92505060406119a2868287016118c4565b9150509250925092565b6000815190506119bb816118ad565b92915050565b6000602082840312156119d7576119d6611658565b5b60006119e5848285016119ac565b91505092915050565b7f4e487b7100000000000000000000000000000000000000000000000000000000600052602260045260246000fd5b60006002820490506001821680611a3557607f821691505b60208210811415611a4957611a486119ee565b5b50919050565b7f4e487b7100000000000000000000000000000000000000000000000000000000600052601160045260246000fd5b6000611a8982611624565b9150611a9483611624565b925082821015611aa757611aa6611a4f565b5b828203905092915050565b7f4e487b7100000000000000000000000000000000000000000000000000000000600052603260045260246000fd5b600060ff82169050919050565b6000611af982611ae1565b915060ff821415611b0d57611b0c611a4f565b5b600182019050919050565b7f7375626d697474656420746f6b656e2061646472657373206973206e6f74206160008201527f6363657074656420627920706f6f6c0000000000000000000000000000000000602082015250565b6000611b74602f836116f3565b9150611b7f82611b18565b604082019050919050565b60006020820190508181036000830152611ba381611b67565b9050919050565b6000604082019050611bbf60008301856117a3565b611bcc60208301846117a3565b9392505050565b7f73656e646572206e6f7420617070726f76656400000000000000000000000000600082015250565b6000611c096013836116f3565b9150611c1482611bd3565b602082019050919050565b60006020820190508181036000830152611c3881611bfc565b9050919050565b6000606082019050611c5460008301866117a3565b611c6160208301856117a3565b611c6e604083018461162e565b949350505050565b60008115159050919050565b611c8b81611c76565b8114611c9657600080fd5b50565b600081519050611ca881611c82565b92915050565b600060208284031215611cc457611cc3611658565b5b6000611cd284828501611c99565b91505092915050565b6000604082019050611cf060008301856117a3565b611cfd602083018461162e565b9392505050565b6000819050919050565b600061ffff82169050919050565b6000819050919050565b6000611d41611d3c611d3784611d04565b611d1c565b611d0e565b9050919050565b611d5181611d26565b82525050565b6000608082019050611d6c60008301876117a3565b611d79602083018661162e565b611d8660408301856117a3565b611d936060830184611d48565b95945050505050565b6000611da782611624565b9150611db283611624565b9250827fffffffffffffffffffffffffffffffffffffffffffffffffffffffffffffffff03821115611de757611de6611a4f565b5b828201905092915050565b6000608082019050611e0760008301876117a3565b611e1460208301866117a3565b611e21604083018561162e565b611e2e606083018461162e565b95945050505050565b6000606082019050611e4c60008301866117a3565b611e59602083018561162e565b611e6660408301846117a3565b949350505050565b600060a082019050611e8360008301886117a3565b611e9060208301876117a3565b611e9d604083018661162e565b611eaa606083018561162e565b611eb760808301846117a3565b9695505050505050565b7f616d6f756e74206d757374206578636565642030000000000000000000000000600082015250565b6000611ef76014836116f3565b9150611f0282611ec1565b602082019050919050565b60006020820190508181036000830152611f2681611eea565b9050919050565b7f6e6f2066756e6473206465706f736974656420666f722073656c65637465642060008201527f746f6b656e000000000000000000000000000000000000000000000000000000602082015250565b6000611f896025836116f3565b9150611f9482611f2d565b604082019050919050565b60006020820190508181036000830152611fb881611f7c565b9050919050565b7f646f6e6174696f6e2063616e6e6f7420657863656564206465706f736974206160008201527f6d6f756e74000000000000000000000000000000000000000000000000000000602082015250565b600061201b6025836116f3565b915061202682611fbf565b604082019050919050565b6000602082019050818103600083015261204a8161200e565b9050919050565b600060a08201905061206660008301886117a3565b61207360208301876117a3565b612080604083018661162e565b61208d606083018561162e565b61209a608083018461162e565b969550505050505056fea2646970667358221220848f3e379101e28ed040b8dd7032956ce77a13d89dcedbadbb2b87c9841c068364736f6c63430008090033",
  "immutableReferences": {},
  "source": "// SPDX-License-Identifier: agpl-3.0\npragma solidity 0.8.9;\n\nimport { IERC20, ILendingPool, ILendingPoolAddressesProvider, IPoolTracker, IProtocolDataProvider} from './Interfaces.sol';\nimport { SafeERC20 } from './Libraries.sol';\n\n/**\n * This is a proof of concept starter contract, showing how uncollaterised loans are possible\n * using Aave v2 credit delegation.\n * This example supports stable interest rate borrows.\n * It is not production ready (!). User permissions and user accounting of loans should be implemented.\n * See @dev comments\n */\n\ncontract JustCausePool {\n    //using SafeERC20 for IERC20;\n    mapping(address => mapping(address => uint256)) private depositors;\n    mapping(address => uint256) private totalDeposits;\n    mapping(address => uint256) private interestWithdrawn;\n\n    //mapping(address => mapping(address => uint256)) public deposits;\n    IPoolTracker poolTracker;\n    //ILendingPoolAddressesProvider provider;\n    //address private kovanDAI;v\n    //ILendingPool lendingPool;\n\n    ILendingPoolAddressesProvider provider = ILendingPoolAddressesProvider(address(0x88757f2f99175387aB4C6a4b3067c77A695b0349));\n    address lendingPoolAddr = provider.getLendingPool();\n    ILendingPool lendingPool = ILendingPool(lendingPoolAddr); // Kovan\n    IProtocolDataProvider constant dataProvider = IProtocolDataProvider(address(0x744C1aaA95232EeF8A9994C4E0b3a89659D9AB79)); // Kovan\n    address aTokenAddressDai = address(0xdCf0aF9e59C002FA3AA091a46196b37530FD48a8);\n\n    //IERC20 daiToken;\n    //uint256 amount;\n    //address lendingPoolAddr;\n    address[] acceptedTokens;\n\n    event Deposit(address tokenAddress, address depositor, uint256 amount, uint256 totalDeposits);\n    event Withdraw(address tokenAddress, address depositor, uint256 amount, uint256 userDeposits, uint256 donation);\n    event WithdrawDonations(address tokenAddress, address depositor, uint256 amount, uint256 totalDeposits, address aTokenAddress);\n    event BalanceOf(address FROM, uint256 AMOUNT, uint256 BALANCE);\n    event GetLPAddress(address addr);\n    event SeeAllowance(uint256 allowance);\n    event GetPoolTracker(address test);\n    address owner;\n    address receiver;\n    string name;\n\n    modifier onlyAllowedTokens(address _tokenAddr){\n        bool isAccepted;\n        for (uint8 i = 0; i < acceptedTokens.length; i++){\n            if(_tokenAddr == acceptedTokens[i]){\n                isAccepted = true;\n                break;\n            }\n        }\n        require(isAccepted, \"submitted token address is not accepted by pool\");\n        _;\n    }\n\n    modifier enoughFunds(address _userAddr, address _tokenAddr, uint256 _amount, uint256 _donation) {\n        require(_amount > 0, \"amount must exceed 0\");\n        require(depositors[_userAddr][_tokenAddr]  >= _amount, \"no funds deposited for selected token\");\n        require(_amount >= _donation, \"donation cannot exceed deposit amount\");\n        _;\n    }\n\n    modifier onlyReceiver(address _requestAddr){\n        require(receiver == _requestAddr, \"you are not the current reciever for this pool\");\n        _;\n    }\n\n    constructor (address[] memory _acceptedTokens, string memory _name, address _poolTrackerAddr, address _receiver) {\n        owner = msg.sender;\n        receiver = _receiver;\n        name = _name;\n        provider = ILendingPoolAddressesProvider(address(0x88757f2f99175387aB4C6a4b3067c77A695b0349));\n        lendingPoolAddr = provider.getLendingPool();\n        lendingPool = ILendingPool(lendingPoolAddr); // Kovan\n        acceptedTokens = _acceptedTokens;\n\n        poolTracker = IPoolTracker(address(_poolTrackerAddr));\n        emit GetPoolTracker(poolTracker.getAddressFromName(name));\n        poolTracker.addVerifiedPools(address(this), owner, _name);\n    }\n\n    function deposit(address _assetAddress, uint256 _amount) onlyAllowedTokens(_assetAddress) public {\n        IERC20 token = IERC20(_assetAddress);\n        require(token.allowance(msg.sender, address(this)) >= _amount, \"sender not approved\");\n        token.transferFrom(msg.sender, address(this), _amount);\n        address poolAddr = address(lendingPool);\n        token.approve(poolAddr, _amount);\n        lendingPool.deposit(address(token), _amount, address(this), 0);\n        depositors[msg.sender][_assetAddress] += _amount;\n        poolTracker.addDeposit(msg.sender, address(this));\n        totalDeposits[_assetAddress] += _amount;\n        emit Deposit(address(token), msg.sender, _amount, totalDeposits[_assetAddress]);\n    }\n\n    function withdraw(address _assetAddress, uint256 _amount, uint256 _donation) enoughFunds(msg.sender, _assetAddress, _amount, _donation) public {\n        if(_donation != 0){\n            uint256 newAmount = _amount - _donation;\n            lendingPool.withdraw(_assetAddress, _donation, receiver);\n            if(newAmount != 0)\n                lendingPool.withdraw(_assetAddress, newAmount, msg.sender);\n        }\n        else{\n            lendingPool.withdraw(_assetAddress, _amount, msg.sender);\n        }\n        depositors[msg.sender][_assetAddress] -= _amount;\n        totalDeposits[_assetAddress] -= _amount;\n\n        if(depositors[msg.sender][_assetAddress] == 0){\n            poolTracker.withdrawDeposit(msg.sender, address(this));\n        }\n        emit Withdraw(_assetAddress, msg.sender, _amount, depositors[msg.sender][_assetAddress], _donation);\n    }\n\n    function getUserBalance(address _userAddr, address _token) external view returns(uint256){\n        return depositors[_userAddr][_token];\n    }\n\n    function getTotalDeposits(address _token) external view returns(uint256){\n        return totalDeposits[_token];\n    }\n\n    function getAcceptedTokens() external view returns(address[] memory){\n        return acceptedTokens;\n    }\n\n    function getName() external view returns(string memory){\n        return name;\n    }\n\n    function getUnclaimedInterest(address _assetAddress) external view returns (uint256){\n        uint256 aTokenBalance = IERC20(aTokenAddressDai).balanceOf(address(this));\n        return aTokenBalance - totalDeposits[_assetAddress];\n    }\n\n    function getClaimedInterest(address _assetAddress) external view returns (uint256){\n        return interestWithdrawn[_assetAddress];\n    }\n\n    function getATokenBalance() external view returns (uint256){\n        return IERC20(aTokenAddressDai).balanceOf(address(this));\n    }\n\n    function getRecipient() external view returns(address){\n        return receiver;\n    }\n\n    /**\n     * Repay an uncollaterised loan\n     * @param amount The amount to repay\n     * @param asset The asset to be repaid\n     *\n     * User calling this function must have approved this contract with an allowance to transfer the tokens\n     *\n     * You should keep internal accounting of borrowers, if your contract will have multiple borrowers\n     */\n    /*function repayBorrower(uint256 amount, address asset) public {\n        IERC20(asset).safeTransferFrom(msg.sender, address(this), amount);\n        IERC20(asset).safeApprove(address(lendingPool), amount);\n        lendingPool.repay(asset, amount, 1, address(this));\n    }*/\n\n    /**\n     * Withdraw all of a collateral as the underlying asset, if no outstanding loans delegated\n     *\n     *\n     * Add permissions to this call, e.g. only the owner should be able to withdraw the collateral!\n     */\n\n    function withdrawDonations(address _assetAddress) onlyAllowedTokens(_assetAddress) public{\n        //(address aTokenAddress,,) = dataProvider.getReserveTokensAddresses(address(daiToken));\n        //uint256 assetBalance = IERC20(aTokenAddress).balanceOf(address(this));\n        //uint256 assetBalance = IERC20(_assetAddress).balanceOf(address(this));\n\n        uint256 aTokenBalance = IERC20(aTokenAddressDai).balanceOf(address(this));\n        uint256 interestEarned = aTokenBalance - totalDeposits[_assetAddress];\n        interestWithdrawn[_assetAddress] += interestEarned;\n        lendingPool.withdraw(_assetAddress, interestEarned, owner);\n        emit WithdrawDonations(_assetAddress, owner, interestEarned, totalDeposits[_assetAddress], aTokenAddressDai);\n    }\n}",
  "sourcePath": "/home/smeee/just_cause/contracts/JustCausePool.sol",
  "compiler": {
    "name": "solc",
    "version": "0.8.9+commit.e5eed63a.Emscripten.clang"
  },
  "schemaVersion": "3.4.3",
  "updatedAt": "2021-11-04T04:00:57.649Z",
  "devdoc": {
    "details": "comments",
    "kind": "dev",
    "methods": {},
    "version": 1
  },
  "userdoc": {
    "kind": "user",
    "methods": {
      "withdrawDonations(address)": {
        "notice": "Withdraw all of a collateral as the underlying asset, if no outstanding loans delegated Add permissions to this call, e.g. only the owner should be able to withdraw the collateral!"
      }
    },
    "notice": "This is a proof of concept starter contract, showing how uncollaterised loans are possible using Aave v2 credit delegation. This example supports stable interest rate borrows. It is not production ready (!). User permissions and user accounting of loans should be implemented.",
    "version": 1
  }
}