{
  "contractName": "JustCausePool",
  "abi": [
    {
      "inputs": [],
      "stateMutability": "nonpayable",
      "type": "constructor"
    },
    {
      "anonymous": false,
      "inputs": [
        {
          "indexed": false,
          "internalType": "address",
          "name": "tokenAddress",
          "type": "address"
        },
        {
          "indexed": false,
          "internalType": "address",
          "name": "depositor",
          "type": "address"
        },
        {
          "indexed": false,
          "internalType": "uint256",
          "name": "amount",
          "type": "uint256"
        },
        {
          "indexed": false,
          "internalType": "uint256",
          "name": "totalDeposits",
          "type": "uint256"
        }
      ],
      "name": "Deposit",
      "type": "event"
    },
    {
      "anonymous": false,
      "inputs": [
        {
          "indexed": false,
          "internalType": "address",
          "name": "tokenAddress",
          "type": "address"
        },
        {
          "indexed": false,
          "internalType": "address",
          "name": "depositor",
          "type": "address"
        },
        {
          "indexed": false,
          "internalType": "uint256",
          "name": "amount",
          "type": "uint256"
        },
        {
          "indexed": false,
          "internalType": "uint256",
          "name": "donation",
          "type": "uint256"
        }
      ],
      "name": "Withdraw",
      "type": "event"
    },
    {
      "anonymous": false,
      "inputs": [
        {
          "indexed": false,
          "internalType": "address",
          "name": "tokenAddress",
          "type": "address"
        },
        {
          "indexed": false,
          "internalType": "address",
          "name": "depositor",
          "type": "address"
        },
        {
          "indexed": false,
          "internalType": "uint256",
          "name": "amount",
          "type": "uint256"
        },
        {
          "indexed": false,
          "internalType": "uint256",
          "name": "totalDeposits",
          "type": "uint256"
        },
        {
          "indexed": false,
          "internalType": "address",
          "name": "aTokenAddress",
          "type": "address"
        }
      ],
      "name": "WithdrawDonations",
      "type": "event"
    },
    {
      "inputs": [],
      "name": "isBase",
      "outputs": [
        {
          "internalType": "bool",
          "name": "",
          "type": "bool"
        }
      ],
      "stateMutability": "view",
      "type": "function"
    },
    {
      "inputs": [
        {
          "internalType": "address[]",
          "name": "_acceptedTokens",
          "type": "address[]"
        },
        {
          "internalType": "string",
          "name": "_name",
          "type": "string"
        },
        {
          "internalType": "string",
          "name": "_about",
          "type": "string"
        },
        {
          "internalType": "address",
          "name": "_receiver",
          "type": "address"
        }
      ],
      "name": "initialize",
      "outputs": [],
      "stateMutability": "nonpayable",
      "type": "function"
    },
    {
      "inputs": [
        {
          "internalType": "address",
          "name": "_assetAddress",
          "type": "address"
        },
        {
          "internalType": "uint256",
          "name": "_amount",
          "type": "uint256"
        },
        {
          "internalType": "address",
          "name": "_depositor",
          "type": "address"
        }
      ],
      "name": "deposit",
      "outputs": [],
      "stateMutability": "nonpayable",
      "type": "function"
    },
    {
      "inputs": [
        {
          "internalType": "address",
          "name": "_wethAddress",
          "type": "address"
        }
      ],
      "name": "depositETH",
      "outputs": [],
      "stateMutability": "payable",
      "type": "function"
    },
    {
      "inputs": [
        {
          "internalType": "address",
          "name": "_assetAddress",
          "type": "address"
        },
        {
          "internalType": "uint256",
          "name": "_amount",
          "type": "uint256"
        },
        {
          "internalType": "uint256",
          "name": "_donation",
          "type": "uint256"
        },
        {
          "internalType": "address",
          "name": "_depositor",
          "type": "address"
        }
      ],
      "name": "withdraw",
      "outputs": [],
      "stateMutability": "nonpayable",
      "type": "function"
    },
    {
      "inputs": [
        {
          "internalType": "address",
          "name": "_assetAddress",
          "type": "address"
        }
      ],
      "name": "withdrawDonations",
      "outputs": [],
      "stateMutability": "nonpayable",
      "type": "function"
    },
    {
      "inputs": [
        {
          "internalType": "address",
          "name": "_token",
          "type": "address"
        }
      ],
      "name": "getTotalDeposits",
      "outputs": [
        {
          "internalType": "uint256",
          "name": "",
          "type": "uint256"
        }
      ],
      "stateMutability": "view",
      "type": "function"
    },
    {
      "inputs": [],
      "name": "getAcceptedTokens",
      "outputs": [
        {
          "internalType": "address[]",
          "name": "",
          "type": "address[]"
        }
      ],
      "stateMutability": "view",
      "type": "function"
    },
    {
      "inputs": [],
      "name": "getName",
      "outputs": [
        {
          "internalType": "string",
          "name": "",
          "type": "string"
        }
      ],
      "stateMutability": "view",
      "type": "function"
    },
    {
      "inputs": [],
      "name": "getAbout",
      "outputs": [
        {
          "internalType": "string",
          "name": "",
          "type": "string"
        }
      ],
      "stateMutability": "view",
      "type": "function"
    },
    {
      "inputs": [
        {
          "internalType": "address",
          "name": "_assetAddress",
          "type": "address"
        }
      ],
      "name": "getATokenAddress",
      "outputs": [
        {
          "internalType": "address",
          "name": "",
          "type": "address"
        }
      ],
      "stateMutability": "view",
      "type": "function"
    },
    {
      "inputs": [
        {
          "internalType": "address",
          "name": "_assetAddress",
          "type": "address"
        }
      ],
      "name": "getUnclaimedInterest",
      "outputs": [
        {
          "internalType": "uint256",
          "name": "",
          "type": "uint256"
        }
      ],
      "stateMutability": "view",
      "type": "function"
    },
    {
      "inputs": [
        {
          "internalType": "address",
          "name": "_assetAddress",
          "type": "address"
        }
      ],
      "name": "getClaimedInterest",
      "outputs": [
        {
          "internalType": "uint256",
          "name": "",
          "type": "uint256"
        }
      ],
      "stateMutability": "view",
      "type": "function"
    },
    {
      "inputs": [
        {
          "internalType": "address",
          "name": "_assetAddress",
          "type": "address"
        }
      ],
      "name": "getATokenBalance",
      "outputs": [
        {
          "internalType": "uint256",
          "name": "",
          "type": "uint256"
        }
      ],
      "stateMutability": "view",
      "type": "function"
    },
    {
      "inputs": [],
      "name": "getRecipient",
      "outputs": [
        {
          "internalType": "address",
          "name": "",
          "type": "address"
        }
      ],
      "stateMutability": "view",
      "type": "function"
    },
    {
      "inputs": [],
      "name": "getByteCode",
      "outputs": [
        {
          "internalType": "bytes",
          "name": "",
          "type": "bytes"
        }
      ],
      "stateMutability": "view",
      "type": "function"
    },
    {
      "inputs": [],
      "name": "getHashByteCode",
      "outputs": [
        {
          "internalType": "bytes32",
          "name": "",
          "type": "bytes32"
        }
      ],
      "stateMutability": "view",
      "type": "function"
    },
    {
      "inputs": [
        {
          "internalType": "address",
          "name": "_asset",
          "type": "address"
        }
      ],
      "name": "getAaveLiquidityIndex",
      "outputs": [
        {
          "internalType": "uint256",
          "name": "liquidityIndex",
          "type": "uint256"
        }
      ],
      "stateMutability": "view",
      "type": "function"
    }
  ],
  "bytecode": "0x608060405234801561001057600080fd5b506001600360006101000a81548160ff0219169083151502179055506132638061003b6000396000f3fe6080604052600436106101095760003560e01c80633735ef8811610095578063711cc00511610064578063711cc005146103725780637f80069a146103af5780638aebe8d6146103da578063a56f5b5314610417578063f45346dc1461044057610109565b80633735ef88146102a457806350d02d71146102e157806357ac65661461030a5780635ff189b91461033557610109565b806317d7de7c116100dc57806317d7de7c146101dc5780631b88094d146102075780632d2da806146102325780632f7570061461024e578063343d693b1461027957610109565b80630251cfa11461010e5780630712f6b31461014b5780630835d21a1461018857806316762eed146101b3575b600080fd5b34801561011a57600080fd5b5061013560048036038101906101309190612104565b610469565b604051610142919061214a565b60405180910390f35b34801561015757600080fd5b50610172600480360381019061016d9190612104565b6104b2565b60405161017f919061214a565b60405180910390f35b34801561019457600080fd5b5061019d6105e7565b6040516101aa919061217e565b60405180910390f35b3480156101bf57600080fd5b506101da60048036038101906101d591906121c5565b610647565b005b3480156101e857600080fd5b506101f1610a60565b6040516101fe91906122c5565b60405180910390f35b34801561021357600080fd5b5061021c610af2565b60405161022991906122f6565b60405180910390f35b61024c60048036038101906102479190612104565b610b1c565b005b34801561025a57600080fd5b50610263610cb4565b60405161027091906123cf565b60405180910390f35b34801561028557600080fd5b5061028e610d42565b60405161029b91906122c5565b60405180910390f35b3480156102b057600080fd5b506102cb60048036038101906102c69190612104565b610dd4565b6040516102d8919061214a565b60405180910390f35b3480156102ed57600080fd5b50610308600480360381019061030391906125ee565b610f59565b005b34801561031657600080fd5b5061031f6113cc565b60405161032c91906126fe565b60405180910390f35b34801561034157600080fd5b5061035c60048036038101906103579190612104565b611406565b604051610369919061214a565b60405180910390f35b34801561037e57600080fd5b5061039960048036038101906103949190612104565b61144f565b6040516103a691906122f6565b60405180910390f35b3480156103bb57600080fd5b506103c46114fc565b6040516103d1919061273b565b60405180910390f35b3480156103e657600080fd5b5061040160048036038101906103fc9190612104565b61150f565b60405161040e919061214a565b60405180910390f35b34801561042357600080fd5b5061043e60048036038101906104399190612104565b6115ec565b005b34801561044c57600080fd5b5061046760048036038101906104629190612756565b611aba565b005b6000600160008373ffffffffffffffffffffffffffffffffffffffff1673ffffffffffffffffffffffffffffffffffffffff168152602001908152602001600020549050919050565b600080733c73a5e5785cac854d468f727c606c07488a29d673ffffffffffffffffffffffffffffffffffffffff1663d2493b6c846040518263ffffffff1660e01b815260040161050291906122f6565b60606040518083038186803b15801561051a57600080fd5b505afa15801561052e573d6000803e3d6000fd5b505050506040513d601f19601f8201168201806040525081019061055291906127be565b505090508073ffffffffffffffffffffffffffffffffffffffff166370a08231306040518263ffffffff1660e01b815260040161058f91906122f6565b60206040518083038186803b1580156105a757600080fd5b505afa1580156105bb573d6000803e3d6000fd5b505050506040513d601f19601f820116820180604052508101906105df9190612826565b915050919050565b60003073ffffffffffffffffffffffffffffffffffffffff16803b806020016040519081016040528181526000908060200190933c60405160200161062c919061288f565b60405160208183030381529060405280519060200120905090565b338073ffffffffffffffffffffffffffffffffffffffff16600760009054906101000a900473ffffffffffffffffffffffffffffffffffffffff1673ffffffffffffffffffffffffffffffffffffffff16146106d8576040517f08c379a00000000000000000000000000000000000000000000000000000000081526004016106cf906128f2565b60405180910390fd5b818585856000821161071f576040517f08c379a00000000000000000000000000000000000000000000000000000000081526004016107169061295e565b60405180910390fd5b80821015610762576040517f08c379a0000000000000000000000000000000000000000000000000000000008152600401610759906129f0565b60405180910390fd5b6000871461090f57600087896107789190612a3f565b9050600460009054906101000a900473ffffffffffffffffffffffffffffffffffffffff1673ffffffffffffffffffffffffffffffffffffffff166369328dec8b8a600660009054906101000a900473ffffffffffffffffffffffffffffffffffffffff166040518463ffffffff1660e01b81526004016107fb93929190612a73565b602060405180830381600087803b15801561081557600080fd5b505af1158015610829573d6000803e3d6000fd5b505050506040513d601f19601f8201168201806040525081019061084d9190612826565b506000811461090957600460009054906101000a900473ffffffffffffffffffffffffffffffffffffffff1673ffffffffffffffffffffffffffffffffffffffff166369328dec8b838a6040518463ffffffff1660e01b81526004016108b593929190612a73565b602060405180830381600087803b1580156108cf57600080fd5b505af11580156108e3573d6000803e3d6000fd5b505050506040513d601f19601f820116820180604052508101906109079190612826565b505b506109c2565b600460009054906101000a900473ffffffffffffffffffffffffffffffffffffffff1673ffffffffffffffffffffffffffffffffffffffff166369328dec8a8a896040518463ffffffff1660e01b815260040161096e93929190612a73565b602060405180830381600087803b15801561098857600080fd5b505af115801561099c573d6000803e3d6000fd5b505050506040513d601f19601f820116820180604052508101906109c09190612826565b505b87600160008b73ffffffffffffffffffffffffffffffffffffffff1673ffffffffffffffffffffffffffffffffffffffff1681526020019081526020016000206000828254610a119190612a3f565b925050819055507ff341246adaac6f497bc2a656f546ab9e182111d630394f0c57c710a59a2cb56789878a8a604051610a4d9493929190612aaa565b60405180910390a1505050505050505050565b606060088054610a6f90612b1e565b80601f0160208091040260200160405190810160405280929190818152602001828054610a9b90612b1e565b8015610ae85780601f10610abd57610100808354040283529160200191610ae8565b820191906000526020600020905b815481529060010190602001808311610acb57829003601f168201915b5050505050905090565b6000600660009054906101000a900473ffffffffffffffffffffffffffffffffffffffff16905090565b338073ffffffffffffffffffffffffffffffffffffffff16600760009054906101000a900473ffffffffffffffffffffffffffffffffffffffff1673ffffffffffffffffffffffffffffffffffffffff1614610bad576040517f08c379a0000000000000000000000000000000000000000000000000000000008152600401610ba4906128f2565b60405180910390fd5b6000600460009054906101000a900473ffffffffffffffffffffffffffffffffffffffff16905073a61ca04df33b72b235a8a28cfb535bb7a5271b7073ffffffffffffffffffffffffffffffffffffffff1663474cf53d34833060006040518563ffffffff1660e01b8152600401610c2793929190612ba3565b6000604051808303818588803b158015610c4057600080fd5b505af1158015610c54573d6000803e3d6000fd5b505050505034600160008573ffffffffffffffffffffffffffffffffffffffff1673ffffffffffffffffffffffffffffffffffffffff1681526020019081526020016000206000828254610ca89190612bda565b92505081905550505050565b60606005805480602002602001604051908101604052809291908181526020018280548015610d3857602002820191906000526020600020905b8160009054906101000a900473ffffffffffffffffffffffffffffffffffffffff1673ffffffffffffffffffffffffffffffffffffffff1681526020019060010190808311610cee575b5050505050905090565b606060098054610d5190612b1e565b80601f0160208091040260200160405190810160405280929190818152602001828054610d7d90612b1e565b8015610dca5780601f10610d9f57610100808354040283529160200191610dca565b820191906000526020600020905b815481529060010190602001808311610dad57829003601f168201915b5050505050905090565b600080733c73a5e5785cac854d468f727c606c07488a29d673ffffffffffffffffffffffffffffffffffffffff1663d2493b6c846040518263ffffffff1660e01b8152600401610e2491906122f6565b60606040518083038186803b158015610e3c57600080fd5b505afa158015610e50573d6000803e3d6000fd5b505050506040513d601f19601f82011682018060405250810190610e7491906127be565b5050905060008173ffffffffffffffffffffffffffffffffffffffff166370a08231306040518263ffffffff1660e01b8152600401610eb391906122f6565b60206040518083038186803b158015610ecb57600080fd5b505afa158015610edf573d6000803e3d6000fd5b505050506040513d601f19601f82011682018060405250810190610f039190612826565b9050600160008573ffffffffffffffffffffffffffffffffffffffff1673ffffffffffffffffffffffffffffffffffffffff1681526020019081526020016000205481610f509190612a3f565b92505050919050565b82601e60008290508160ff16815110610fa7576040517f08c379a0000000000000000000000000000000000000000000000000000000008152600401610f9e90612c7c565b60405180910390fd5b8460c860008290508160ff16815110610ff5576040517f08c379a0000000000000000000000000000000000000000000000000000000008152600401610fec90612c7c565b60405180910390fd5b600060019054906101000a900460ff1661101d5760008054906101000a900460ff1615611026565b611025611f41565b5b611065576040517f08c379a000000000000000000000000000000000000000000000000000000000815260040161105c90612d0e565b60405180910390fd5b60008060019054906101000a900460ff1615905080156110b5576001600060016101000a81548160ff02191690831515021790555060016000806101000a81548160ff0219169083151502179055505b60001515600360009054906101000a900460ff1615151461110b576040517f08c379a000000000000000000000000000000000000000000000000000000000815260040161110290612d7a565b60405180910390fd5b600073ffffffffffffffffffffffffffffffffffffffff16600660009054906101000a900473ffffffffffffffffffffffffffffffffffffffff1673ffffffffffffffffffffffffffffffffffffffff161461119c576040517f08c379a000000000000000000000000000000000000000000000000000000000815260040161119390612de6565b60405180910390fd5b87600660006101000a81548173ffffffffffffffffffffffffffffffffffffffff021916908373ffffffffffffffffffffffffffffffffffffffff16021790555033600760006101000a81548173ffffffffffffffffffffffffffffffffffffffff021916908373ffffffffffffffffffffffffffffffffffffffff1602179055508960089080519060200190611234929190611f65565b50886009908051906020019061124b929190611f65565b507388757f2f99175387ab4c6a4b3067c77a695b0349600360016101000a81548173ffffffffffffffffffffffffffffffffffffffff021916908373ffffffffffffffffffffffffffffffffffffffff1602179055506000600360019054906101000a900473ffffffffffffffffffffffffffffffffffffffff1673ffffffffffffffffffffffffffffffffffffffff16630261bf8b6040518163ffffffff1660e01b815260040160206040518083038186803b15801561130b57600080fd5b505afa15801561131f573d6000803e3d6000fd5b505050506040513d601f19601f820116820180604052508101906113439190612e06565b905080600460006101000a81548173ffffffffffffffffffffffffffffffffffffffff021916908373ffffffffffffffffffffffffffffffffffffffff1602179055508b6005908051906020019061139c929190611feb565b505080156113bf5760008060016101000a81548160ff0219169083151502179055505b5050505050505050505050565b60603073ffffffffffffffffffffffffffffffffffffffff16803b806020016040519081016040528181526000908060200190933c905090565b6000600260008373ffffffffffffffffffffffffffffffffffffffff1673ffffffffffffffffffffffffffffffffffffffff168152602001908152602001600020549050919050565b600080733c73a5e5785cac854d468f727c606c07488a29d673ffffffffffffffffffffffffffffffffffffffff1663d2493b6c846040518263ffffffff1660e01b815260040161149f91906122f6565b60606040518083038186803b1580156114b757600080fd5b505afa1580156114cb573d6000803e3d6000fd5b505050506040513d601f19601f820116820180604052508101906114ef91906127be565b5050905080915050919050565b600360009054906101000a900460ff1681565b6000733c73a5e5785cac854d468f727c606c07488a29d673ffffffffffffffffffffffffffffffffffffffff166335ea6a75836040518263ffffffff1660e01b815260040161155e91906122f6565b6101406040518083038186803b15801561157757600080fd5b505afa15801561158b573d6000803e3d6000fd5b505050506040513d601f19601f820116820180604052508101906115af9190612e70565b9091929394959697985090919293949596975090919293949596509091929394955090919293945090919293509091925090505080915050919050565b338073ffffffffffffffffffffffffffffffffffffffff16600760009054906101000a900473ffffffffffffffffffffffffffffffffffffffff1673ffffffffffffffffffffffffffffffffffffffff161461167d576040517f08c379a0000000000000000000000000000000000000000000000000000000008152600401611674906128f2565b60405180910390fd5b81600080600090505b6005805490508160ff1610156117275760058160ff16815481106116ad576116ac612f4f565b5b9060005260206000200160009054906101000a900473ffffffffffffffffffffffffffffffffffffffff1673ffffffffffffffffffffffffffffffffffffffff168373ffffffffffffffffffffffffffffffffffffffff1614156117145760019150611727565b808061171f90612f8b565b915050611686565b5080611768576040517f08c379a000000000000000000000000000000000000000000000000000000000815260040161175f90613027565b60405180910390fd5b6000733c73a5e5785cac854d468f727c606c07488a29d673ffffffffffffffffffffffffffffffffffffffff1663d2493b6c866040518263ffffffff1660e01b81526004016117b791906122f6565b60606040518083038186803b1580156117cf57600080fd5b505afa1580156117e3573d6000803e3d6000fd5b505050506040513d601f19601f8201168201806040525081019061180791906127be565b5050905060008173ffffffffffffffffffffffffffffffffffffffff166370a08231306040518263ffffffff1660e01b815260040161184691906122f6565b60206040518083038186803b15801561185e57600080fd5b505afa158015611872573d6000803e3d6000fd5b505050506040513d601f19601f820116820180604052508101906118969190612826565b90506000600160008873ffffffffffffffffffffffffffffffffffffffff1673ffffffffffffffffffffffffffffffffffffffff16815260200190815260200160002054826118e59190612a3f565b905080600260008973ffffffffffffffffffffffffffffffffffffffff1673ffffffffffffffffffffffffffffffffffffffff16815260200190815260200160002060008282546119369190612bda565b92505081905550600460009054906101000a900473ffffffffffffffffffffffffffffffffffffffff1673ffffffffffffffffffffffffffffffffffffffff166369328dec8883600660009054906101000a900473ffffffffffffffffffffffffffffffffffffffff166040518463ffffffff1660e01b81526004016119be93929190612a73565b602060405180830381600087803b1580156119d857600080fd5b505af11580156119ec573d6000803e3d6000fd5b505050506040513d601f19601f82011682018060405250810190611a109190612826565b507ffb42c6fc06609281806d5b0ad4bd7b7bb222a7ac7fa9e5211fa7ac032fa491ae87600660009054906101000a900473ffffffffffffffffffffffffffffffffffffffff1683600160008c73ffffffffffffffffffffffffffffffffffffffff1673ffffffffffffffffffffffffffffffffffffffff1681526020019081526020016000205487604051611aa9959493929190613047565b60405180910390a150505050505050565b338073ffffffffffffffffffffffffffffffffffffffff16600760009054906101000a900473ffffffffffffffffffffffffffffffffffffffff1673ffffffffffffffffffffffffffffffffffffffff1614611b4b576040517f08c379a0000000000000000000000000000000000000000000000000000000008152600401611b42906128f2565b60405180910390fd5b83600080600090505b6005805490508160ff161015611bf55760058160ff1681548110611b7b57611b7a612f4f565b5b9060005260206000200160009054906101000a900473ffffffffffffffffffffffffffffffffffffffff1673ffffffffffffffffffffffffffffffffffffffff168373ffffffffffffffffffffffffffffffffffffffff161415611be25760019150611bf5565b8080611bed90612f8b565b915050611b54565b5080611c36576040517f08c379a0000000000000000000000000000000000000000000000000000000008152600401611c2d90613027565b60405180910390fd5b6000869050858173ffffffffffffffffffffffffffffffffffffffff1663dd62ed3e87306040518363ffffffff1660e01b8152600401611c7792919061309a565b60206040518083038186803b158015611c8f57600080fd5b505afa158015611ca3573d6000803e3d6000fd5b505050506040513d601f19601f82011682018060405250810190611cc79190612826565b1015611d08576040517f08c379a0000000000000000000000000000000000000000000000000000000008152600401611cff9061310f565b60405180910390fd5b8073ffffffffffffffffffffffffffffffffffffffff166323b872dd8630896040518463ffffffff1660e01b8152600401611d459392919061312f565b602060405180830381600087803b158015611d5f57600080fd5b505af1158015611d73573d6000803e3d6000fd5b505050506040513d601f19601f82011682018060405250810190611d979190613192565b506000600460009054906101000a900473ffffffffffffffffffffffffffffffffffffffff1690508173ffffffffffffffffffffffffffffffffffffffff1663095ea7b382896040518363ffffffff1660e01b8152600401611dfa9291906131bf565b602060405180830381600087803b158015611e1457600080fd5b505af1158015611e28573d6000803e3d6000fd5b505050506040513d601f19601f82011682018060405250810190611e4c9190613192565b50600460009054906101000a900473ffffffffffffffffffffffffffffffffffffffff1673ffffffffffffffffffffffffffffffffffffffff1663e8eda9df83893060006040518563ffffffff1660e01b8152600401611eaf94939291906131e8565b600060405180830381600087803b158015611ec957600080fd5b505af1158015611edd573d6000803e3d6000fd5b5050505086600160008a73ffffffffffffffffffffffffffffffffffffffff1673ffffffffffffffffffffffffffffffffffffffff1681526020019081526020016000206000828254611f309190612bda565b925050819055505050505050505050565b6000611f4c30611f52565b15905090565b600080823b905060008111915050919050565b828054611f7190612b1e565b90600052602060002090601f016020900481019282611f935760008555611fda565b82601f10611fac57805160ff1916838001178555611fda565b82800160010185558215611fda579182015b82811115611fd9578251825591602001919060010190611fbe565b5b509050611fe79190612075565b5090565b828054828255906000526020600020908101928215612064579160200282015b828111156120635782518260006101000a81548173ffffffffffffffffffffffffffffffffffffffff021916908373ffffffffffffffffffffffffffffffffffffffff1602179055509160200191906001019061200b565b5b5090506120719190612075565b5090565b5b8082111561208e576000816000905550600101612076565b5090565b6000604051905090565b600080fd5b600080fd5b600073ffffffffffffffffffffffffffffffffffffffff82169050919050565b60006120d1826120a6565b9050919050565b6120e1816120c6565b81146120ec57600080fd5b50565b6000813590506120fe816120d8565b92915050565b60006020828403121561211a5761211961209c565b5b6000612128848285016120ef565b91505092915050565b6000819050919050565b61214481612131565b82525050565b600060208201905061215f600083018461213b565b92915050565b6000819050919050565b61217881612165565b82525050565b6000602082019050612193600083018461216f565b92915050565b6121a281612131565b81146121ad57600080fd5b50565b6000813590506121bf81612199565b92915050565b600080600080608085870312156121df576121de61209c565b5b60006121ed878288016120ef565b94505060206121fe878288016121b0565b935050604061220f878288016121b0565b9250506060612220878288016120ef565b91505092959194509250565b600081519050919050565b600082825260208201905092915050565b60005b8381101561226657808201518184015260208101905061224b565b83811115612275576000848401525b50505050565b6000601f19601f8301169050919050565b60006122978261222c565b6122a18185612237565b93506122b1818560208601612248565b6122ba8161227b565b840191505092915050565b600060208201905081810360008301526122df818461228c565b905092915050565b6122f0816120c6565b82525050565b600060208201905061230b60008301846122e7565b92915050565b600081519050919050565b600082825260208201905092915050565b6000819050602082019050919050565b612346816120c6565b82525050565b6000612358838361233d565b60208301905092915050565b6000602082019050919050565b600061237c82612311565b612386818561231c565b93506123918361232d565b8060005b838110156123c25781516123a9888261234c565b97506123b483612364565b925050600181019050612395565b5085935050505092915050565b600060208201905081810360008301526123e98184612371565b905092915050565b600080fd5b7f4e487b7100000000000000000000000000000000000000000000000000000000600052604160045260246000fd5b61242e8261227b565b810181811067ffffffffffffffff8211171561244d5761244c6123f6565b5b80604052505050565b6000612460612092565b905061246c8282612425565b919050565b600067ffffffffffffffff82111561248c5761248b6123f6565b5b602082029050602081019050919050565b600080fd5b60006124b56124b084612471565b612456565b905080838252602082019050602084028301858111156124d8576124d761249d565b5b835b8181101561250157806124ed88826120ef565b8452602084019350506020810190506124da565b5050509392505050565b600082601f8301126125205761251f6123f1565b5b81356125308482602086016124a2565b91505092915050565b600080fd5b600067ffffffffffffffff821115612559576125586123f6565b5b6125628261227b565b9050602081019050919050565b82818337600083830152505050565b600061259161258c8461253e565b612456565b9050828152602081018484840111156125ad576125ac612539565b5b6125b884828561256f565b509392505050565b600082601f8301126125d5576125d46123f1565b5b81356125e584826020860161257e565b91505092915050565b600080600080608085870312156126085761260761209c565b5b600085013567ffffffffffffffff811115612626576126256120a1565b5b6126328782880161250b565b945050602085013567ffffffffffffffff811115612653576126526120a1565b5b61265f878288016125c0565b935050604085013567ffffffffffffffff8111156126805761267f6120a1565b5b61268c878288016125c0565b925050606061269d878288016120ef565b91505092959194509250565b600081519050919050565b600082825260208201905092915050565b60006126d0826126a9565b6126da81856126b4565b93506126ea818560208601612248565b6126f38161227b565b840191505092915050565b6000602082019050818103600083015261271881846126c5565b905092915050565b60008115159050919050565b61273581612720565b82525050565b6000602082019050612750600083018461272c565b92915050565b60008060006060848603121561276f5761276e61209c565b5b600061277d868287016120ef565b935050602061278e868287016121b0565b925050604061279f868287016120ef565b9150509250925092565b6000815190506127b8816120d8565b92915050565b6000806000606084860312156127d7576127d661209c565b5b60006127e5868287016127a9565b93505060206127f6868287016127a9565b9250506040612807868287016127a9565b9150509250925092565b60008151905061282081612199565b92915050565b60006020828403121561283c5761283b61209c565b5b600061284a84828501612811565b91505092915050565b600081905092915050565b6000612869826126a9565b6128738185612853565b9350612883818560208601612248565b80840191505092915050565b600061289b828461285e565b915081905092915050565b7f796f7520617265206e6f7420746865206f776e65720000000000000000000000600082015250565b60006128dc601583612237565b91506128e7826128a6565b602082019050919050565b6000602082019050818103600083015261290b816128cf565b9050919050565b7f616d6f756e74206d757374206578636565642030000000000000000000000000600082015250565b6000612948601483612237565b915061295382612912565b602082019050919050565b600060208201905081810360008301526129778161293b565b9050919050565b7f646f6e6174696f6e2063616e6e6f74206578636565642077697468647261776160008201527f6c20616d6f756e74000000000000000000000000000000000000000000000000602082015250565b60006129da602883612237565b91506129e58261297e565b604082019050919050565b60006020820190508181036000830152612a09816129cd565b9050919050565b7f4e487b7100000000000000000000000000000000000000000000000000000000600052601160045260246000fd5b6000612a4a82612131565b9150612a5583612131565b925082821015612a6857612a67612a10565b5b828203905092915050565b6000606082019050612a8860008301866122e7565b612a95602083018561213b565b612aa260408301846122e7565b949350505050565b6000608082019050612abf60008301876122e7565b612acc60208301866122e7565b612ad9604083018561213b565b612ae6606083018461213b565b95945050505050565b7f4e487b7100000000000000000000000000000000000000000000000000000000600052602260045260246000fd5b60006002820490506001821680612b3657607f821691505b60208210811415612b4a57612b49612aef565b5b50919050565b6000819050919050565b600061ffff82169050919050565b6000819050919050565b6000612b8d612b88612b8384612b50565b612b68565b612b5a565b9050919050565b612b9d81612b72565b82525050565b6000606082019050612bb860008301866122e7565b612bc560208301856122e7565b612bd26040830184612b94565b949350505050565b6000612be582612131565b9150612bf083612131565b9250827fffffffffffffffffffffffffffffffffffffffffffffffffffffffffffffffff03821115612c2557612c24612a10565b5b828201905092915050565b7f737472696e67206f76657220636861726163746572206c696d69740000000000600082015250565b6000612c66601b83612237565b9150612c7182612c30565b602082019050919050565b60006020820190508181036000830152612c9581612c59565b9050919050565b7f496e697469616c697a61626c653a20636f6e747261637420697320616c72656160008201527f647920696e697469616c697a6564000000000000000000000000000000000000602082015250565b6000612cf8602e83612237565b9150612d0382612c9c565b604082019050919050565b60006020820190508181036000830152612d2781612ceb565b9050919050565b7f43616e6e6f7420696e697469616c697a65206261736500000000000000000000600082015250565b6000612d64601683612237565b9150612d6f82612d2e565b602082019050919050565b60006020820190508181036000830152612d9381612d57565b9050919050565b7f496e697469616c697a6520616c72656164792063616c6c656400000000000000600082015250565b6000612dd0601983612237565b9150612ddb82612d9a565b602082019050919050565b60006020820190508181036000830152612dff81612dc3565b9050919050565b600060208284031215612e1c57612e1b61209c565b5b6000612e2a848285016127a9565b91505092915050565b600064ffffffffff82169050919050565b612e4d81612e33565b8114612e5857600080fd5b50565b600081519050612e6a81612e44565b92915050565b6000806000806000806000806000806101408b8d031215612e9457612e9361209c565b5b6000612ea28d828e01612811565b9a50506020612eb38d828e01612811565b9950506040612ec48d828e01612811565b9850506060612ed58d828e01612811565b9750506080612ee68d828e01612811565b96505060a0612ef78d828e01612811565b95505060c0612f088d828e01612811565b94505060e0612f198d828e01612811565b935050610100612f2b8d828e01612811565b925050610120612f3d8d828e01612e5b565b9150509295989b9194979a5092959850565b7f4e487b7100000000000000000000000000000000000000000000000000000000600052603260045260246000fd5b600060ff82169050919050565b6000612f9682612f7e565b915060ff821415612faa57612fa9612a10565b5b600182019050919050565b7f7375626d697474656420746f6b656e2061646472657373206973206e6f74206160008201527f6363657074656420627920706f6f6c0000000000000000000000000000000000602082015250565b6000613011602f83612237565b915061301c82612fb5565b604082019050919050565b6000602082019050818103600083015261304081613004565b9050919050565b600060a08201905061305c60008301886122e7565b61306960208301876122e7565b613076604083018661213b565b613083606083018561213b565b61309060808301846122e7565b9695505050505050565b60006040820190506130af60008301856122e7565b6130bc60208301846122e7565b9392505050565b7f73656e646572206e6f7420617070726f76656400000000000000000000000000600082015250565b60006130f9601383612237565b9150613104826130c3565b602082019050919050565b60006020820190508181036000830152613128816130ec565b9050919050565b600060608201905061314460008301866122e7565b61315160208301856122e7565b61315e604083018461213b565b949350505050565b61316f81612720565b811461317a57600080fd5b50565b60008151905061318c81613166565b92915050565b6000602082840312156131a8576131a761209c565b5b60006131b68482850161317d565b91505092915050565b60006040820190506131d460008301856122e7565b6131e1602083018461213b565b9392505050565b60006080820190506131fd60008301876122e7565b61320a602083018661213b565b61321760408301856122e7565b6132246060830184612b94565b9594505050505056fea2646970667358221220b203e20410feef65698c05c868fa1773892881be38cb8495b9f076889549ed6d64736f6c63430008090033",
  "immutableReferences": {},
  "source": "// SPDX-License-Identifier: MIT\npragma solidity 0.8.9;\n\nimport { IERC20, ILendingPool, ILendingPoolAddressesProvider, IProtocolDataProvider, IWETHGateway} from './Interfaces.sol';\nimport { SafeERC20 } from './Libraries.sol';\nimport \"@openzeppelin/contracts/proxy/utils/Initializable.sol\";\n/**\n * This is a proof of concept starter contract, showing how uncollaterised loans are possible\n * using Aave v2 credit delegation.\n * This example supports stable interest rate borrows.\n * It is not production ready (!). User permissions and user accounting of loans should be implemented.\n * See @dev comments\n */\n\ncontract JustCausePool is Initializable {\n    //mapping(address => mapping(address => uint256)) private depositors;\n    mapping(address => uint256) private totalDeposits;\n    mapping(address => uint256) private interestWithdrawn;\n    bool public isBase;\n\n    ILendingPoolAddressesProvider provider;\n    ILendingPool lendingPool;\n    IProtocolDataProvider constant dataProvider = IProtocolDataProvider(address(0x3c73A5E5785cAC854D468F727c606C07488a29D6)); // Kovan\n    IWETHGateway constant wethGateway = IWETHGateway(address(0xA61ca04DF33B72b235a8A28CfB535bb7A5271B70)); //Kovan\n\n    address[] acceptedTokens;\n\n    event Deposit(address tokenAddress, address depositor, uint256 amount, uint256 totalDeposits);\n    event Withdraw(address tokenAddress, address depositor, uint256 amount, uint256 donation);\n    event WithdrawDonations(address tokenAddress, address depositor, uint256 amount, uint256 totalDeposits, address aTokenAddress);\n\n    address receiver;\n    address master;\n    string name;\n    string about;\n\n    modifier onlyAllowedTokens(address _tokenAddr){\n        bool isAccepted;\n        for (uint8 i = 0; i < acceptedTokens.length; i++){\n            if(_tokenAddr == acceptedTokens[i]){\n                isAccepted = true;\n                break;\n            }\n        }\n        require(isAccepted, \"submitted token address is not accepted by pool\");\n        _;\n    }\n\n    modifier enoughFunds(address _userAddr, address _tokenAddr, uint256 _amount, uint256 _donation) {\n        require(_amount > 0, \"amount must exceed 0\");\n        //require(depositors[_userAddr][_tokenAddr]  >= _amount, \"no funds deposited for selected token\");\n        require(_amount >= _donation, \"donation cannot exceed withdrawal amount\");\n        _;\n    }\n\n    modifier onlyReceiver(address _sender){\n        require(receiver == _sender, \"you are not the current reciever for this pool\");\n        _;\n    }\n\n    modifier onlyMaster(address _sender){\n        require(master == _sender, \"you are not the owner\");\n        _;\n    }\n\n    modifier strLength(string memory _str, uint8 _limit ){\n        bytes memory strBytes = bytes(_str);\n        require(strBytes.length < _limit, \"string over character limit\");\n        _;\n    }\n\n    constructor () {\n        isBase = true;\n    }\n\n    function initialize(\n        address[] memory _acceptedTokens,\n        string memory _name,\n        string memory _about,\n        address _receiver)\n\n    strLength(_name, 30) strLength(_about, 200) initializer() external {\n\n        require(isBase == false, \"Cannot initialize base\");\n        require(receiver == address(0), \"Initialize already called\");\n\n        receiver = _receiver;\n        master = msg.sender;\n        name = _name;\n        about = _about;\n        provider = ILendingPoolAddressesProvider(address(0x88757f2f99175387aB4C6a4b3067c77A695b0349));\n        address lendingPoolAddr = provider.getLendingPool();\n        lendingPool = ILendingPool(lendingPoolAddr); // Kovan\n        acceptedTokens = _acceptedTokens;\n    }\n\n    function deposit(address _assetAddress, uint256 _amount, address _depositor) onlyMaster(msg.sender) onlyAllowedTokens(_assetAddress) public {\n        IERC20 token = IERC20(_assetAddress);\n        require(token.allowance(_depositor, address(this)) >= _amount, \"sender not approved\");\n        token.transferFrom(_depositor, address(this), _amount);\n        address poolAddr = address(lendingPool);\n        token.approve(poolAddr, _amount);\n        lendingPool.deposit(address(token), _amount, address(this), 0);\n        totalDeposits[_assetAddress] += _amount;\n        //tallyDeposit(_amount, _assetAddress, _depositor);\n    }\n\n    function depositETH(address _wethAddress /*, address _depositor*/) onlyMaster(msg.sender) public payable {\n        address poolAddr = address(lendingPool);\n        wethGateway.depositETH{value: msg.value}(poolAddr, address(this), 0);\n        totalDeposits[_wethAddress] += msg.value;\n        //tallyDeposit(msg.value, _wethAddress, _depositor);\n    }\n\n    /*function tallyDeposit(uint256 _amount, address _assetAddress, address _depositor) internal {\n        uint256 depositedAmount = depositors[_depositor][_assetAddress];\n        //uint256 liquidityIndex = getAaveLiquidityIndex(_assetAddress);\n        //if(depositedAmount == 0){\n            //poolTracker.addDeposit(_depositor, _amount, liquidityIndex, block.timestamp, _assetAddress);\n        //}\n        depositedAmount += _amount;\n        totalDeposits[_assetAddress] += _amount;\n        depositors[_depositor][_assetAddress] = depositedAmount;\n    }*/\n\n    function withdraw(address _assetAddress, uint256 _amount, uint256 _donation, address _depositor) onlyMaster(msg.sender) enoughFunds(_depositor, _assetAddress, _amount, _donation) public {\n        //address poolAddr = address(lendingPool);\n        if(_donation != 0){\n            uint256 newAmount = _amount - _donation;\n            lendingPool.withdraw(_assetAddress, _donation, receiver);\n            if(newAmount != 0)\n                lendingPool.withdraw(_assetAddress, newAmount, _depositor);\n        }\n        else\n            lendingPool.withdraw(_assetAddress, _amount, _depositor);\n\n        //depositors[_depositor][_assetAddress] -= _amount;\n        totalDeposits[_assetAddress] -= _amount;\n\n        //if(depositors[_depositor][_assetAddress] == 0){\n            //poolTracker.withdrawDeposit(_depositor, _amount, block.timestamp, _assetAddress);\n        //}\n        emit Withdraw(_assetAddress, _depositor, _amount, _donation);\n    }\n\n    function withdrawDonations(address _assetAddress) onlyMaster(msg.sender) onlyAllowedTokens(_assetAddress) public{\n        (address aTokenAddress,,) = dataProvider.getReserveTokensAddresses(_assetAddress);\n\n        uint256 aTokenBalance = IERC20(aTokenAddress).balanceOf(address(this));\n        uint256 interestEarned = aTokenBalance - totalDeposits[_assetAddress];\n        interestWithdrawn[_assetAddress] += interestEarned;\n        lendingPool.withdraw(_assetAddress, interestEarned, receiver);\n        emit WithdrawDonations(_assetAddress, receiver, interestEarned, totalDeposits[_assetAddress], aTokenAddress);\n    }\n\n    /*function getUserBalance(address _userAddr, address _token) external view returns(uint256){\n        return depositors[_userAddr][_token];\n    }*/\n\n    function getTotalDeposits(address _token) external view returns(uint256){\n        return totalDeposits[_token];\n    }\n\n    function getAcceptedTokens() external view returns(address[] memory){\n        return acceptedTokens;\n    }\n\n    function getName() external view returns(string memory){\n        return name;\n    }\n\n    function getAbout() external view returns(string memory){\n        return about;\n    }\n\n    function getATokenAddress(address _assetAddress) external view returns(address){\n        (address aTokenAddress,,) = dataProvider.getReserveTokensAddresses(_assetAddress);\n        return aTokenAddress;\n    }\n\n    function getUnclaimedInterest(address _assetAddress) external view returns (uint256){\n        (address aTokenAddress,,) = dataProvider.getReserveTokensAddresses(_assetAddress);\n            uint256 aTokenBalance = IERC20(aTokenAddress).balanceOf(address(this));\n            return aTokenBalance - totalDeposits[_assetAddress];\n    }\n\n    function getClaimedInterest(address _assetAddress) external view returns (uint256){\n        return interestWithdrawn[_assetAddress];\n    }\n\n    function getATokenBalance(address _assetAddress) external view returns (uint256){\n        (address aTokenAddress,,) = dataProvider.getReserveTokensAddresses(_assetAddress);\n        return IERC20(aTokenAddress).balanceOf(address(this));\n    }\n\n    function getRecipient() external view returns(address){\n        return receiver;\n    }\n\n    function getByteCode() external view returns(bytes memory) {\n        return address(this).code;\n    }\n\n    function getHashByteCode() public view returns(bytes32) {\n        return keccak256(abi.encodePacked(address(this).code));\n    }\n\n    function getAaveLiquidityIndex(address _asset) public view returns(uint256 liquidityIndex){\n        (,,,,,,,liquidityIndex,,) = dataProvider.getReserveData(_asset);\n    }\n}",
  "sourcePath": "/home/smeee/just_cause/contracts/JustCausePool.sol",
  "compiler": {
    "name": "solc",
    "version": "0.8.9+commit.e5eed63a.Emscripten.clang"
  },
  "schemaVersion": "3.4.3",
  "updatedAt": "2022-02-05T19:11:56.157Z",
  "devdoc": {
    "details": "comments",
    "kind": "dev",
    "methods": {},
    "version": 1
  },
  "userdoc": {
    "kind": "user",
    "methods": {},
    "notice": "This is a proof of concept starter contract, showing how uncollaterised loans are possible using Aave v2 credit delegation. This example supports stable interest rate borrows. It is not production ready (!). User permissions and user accounting of loans should be implemented.",
    "version": 1
  }
}