{
  "contractName": "JustCausePool",
  "abi": [
    {
      "inputs": [],
      "stateMutability": "nonpayable",
      "type": "constructor"
    },
    {
      "anonymous": false,
      "inputs": [
        {
          "indexed": false,
          "internalType": "address",
          "name": "FROM",
          "type": "address"
        },
        {
          "indexed": false,
          "internalType": "uint256",
          "name": "AMOUNT",
          "type": "uint256"
        },
        {
          "indexed": false,
          "internalType": "uint256",
          "name": "BALANCE",
          "type": "uint256"
        }
      ],
      "name": "BalanceOf",
      "type": "event"
    },
    {
      "anonymous": false,
      "inputs": [
        {
          "indexed": false,
          "internalType": "address",
          "name": "tokenAddress",
          "type": "address"
        },
        {
          "indexed": false,
          "internalType": "address",
          "name": "depositor",
          "type": "address"
        },
        {
          "indexed": false,
          "internalType": "uint256",
          "name": "amount",
          "type": "uint256"
        },
        {
          "indexed": false,
          "internalType": "uint256",
          "name": "totalDeposits",
          "type": "uint256"
        }
      ],
      "name": "Deposit",
      "type": "event"
    },
    {
      "anonymous": false,
      "inputs": [
        {
          "indexed": false,
          "internalType": "address",
          "name": "addr",
          "type": "address"
        }
      ],
      "name": "GetLPAddress",
      "type": "event"
    },
    {
      "anonymous": false,
      "inputs": [
        {
          "indexed": false,
          "internalType": "uint256",
          "name": "allowance",
          "type": "uint256"
        }
      ],
      "name": "SeeAllowance",
      "type": "event"
    },
    {
      "anonymous": false,
      "inputs": [
        {
          "indexed": false,
          "internalType": "uint256",
          "name": "test",
          "type": "uint256"
        }
      ],
      "name": "Test",
      "type": "event"
    },
    {
      "anonymous": false,
      "inputs": [
        {
          "indexed": false,
          "internalType": "address",
          "name": "tokenAddress",
          "type": "address"
        },
        {
          "indexed": false,
          "internalType": "address",
          "name": "depositor",
          "type": "address"
        },
        {
          "indexed": false,
          "internalType": "uint256",
          "name": "amount",
          "type": "uint256"
        },
        {
          "indexed": false,
          "internalType": "uint256",
          "name": "totalDeposits",
          "type": "uint256"
        }
      ],
      "name": "Withdraw",
      "type": "event"
    },
    {
      "anonymous": false,
      "inputs": [
        {
          "indexed": false,
          "internalType": "address",
          "name": "tokenAddress",
          "type": "address"
        },
        {
          "indexed": false,
          "internalType": "address",
          "name": "depositor",
          "type": "address"
        },
        {
          "indexed": false,
          "internalType": "uint256",
          "name": "amount",
          "type": "uint256"
        },
        {
          "indexed": false,
          "internalType": "uint256",
          "name": "totalDeposits",
          "type": "uint256"
        },
        {
          "indexed": false,
          "internalType": "uint256",
          "name": "assetBalance",
          "type": "uint256"
        },
        {
          "indexed": false,
          "internalType": "address",
          "name": "aTokenAddress",
          "type": "address"
        }
      ],
      "name": "WithdrawDonations",
      "type": "event"
    },
    {
      "inputs": [
        {
          "internalType": "address",
          "name": "",
          "type": "address"
        }
      ],
      "name": "deposits",
      "outputs": [
        {
          "internalType": "uint256",
          "name": "",
          "type": "uint256"
        }
      ],
      "stateMutability": "view",
      "type": "function",
      "constant": true
    },
    {
      "inputs": [],
      "name": "totalDeposits",
      "outputs": [
        {
          "internalType": "uint256",
          "name": "",
          "type": "uint256"
        }
      ],
      "stateMutability": "view",
      "type": "function",
      "constant": true
    },
    {
      "inputs": [],
      "name": "transferIn",
      "outputs": [],
      "stateMutability": "nonpayable",
      "type": "function"
    },
    {
      "inputs": [],
      "name": "deposit",
      "outputs": [],
      "stateMutability": "nonpayable",
      "type": "function"
    },
    {
      "inputs": [],
      "name": "withdraw",
      "outputs": [],
      "stateMutability": "nonpayable",
      "type": "function"
    },
    {
      "inputs": [],
      "name": "withdrawDonations",
      "outputs": [],
      "stateMutability": "nonpayable",
      "type": "function"
    }
  ],
  "bytecode": "0x60806040523480156200001157600080fd5b5033600960006101000a81548173ffffffffffffffffffffffffffffffffffffffff021916908373ffffffffffffffffffffffffffffffffffffffff1602179055507388757f2f99175387ab4c6a4b3067c77a695b0349600260006101000a81548173ffffffffffffffffffffffffffffffffffffffff021916908373ffffffffffffffffffffffffffffffffffffffff16021790555073744c1aaa95232eef8a9994c4e0b3a89659d9ab79600360006101000a81548173ffffffffffffffffffffffffffffffffffffffff021916908373ffffffffffffffffffffffffffffffffffffffff160217905550600260009054906101000a900473ffffffffffffffffffffffffffffffffffffffff1673ffffffffffffffffffffffffffffffffffffffff16630261bf8b6040518163ffffffff1660e01b815260040160206040518083038186803b1580156200016657600080fd5b505afa1580156200017b573d6000803e3d6000fd5b505050506040513d601f19601f82011682018060405250810190620001a191906200037c565b600860006101000a81548173ffffffffffffffffffffffffffffffffffffffff021916908373ffffffffffffffffffffffffffffffffffffffff160217905550600860009054906101000a900473ffffffffffffffffffffffffffffffffffffffff16600560006101000a81548173ffffffffffffffffffffffffffffffffffffffff021916908373ffffffffffffffffffffffffffffffffffffffff16021790555073ff795577d9ac8bd7d90ee22b6c1703490b6512fd600460006101000a81548173ffffffffffffffffffffffffffffffffffffffff021916908373ffffffffffffffffffffffffffffffffffffffff1602179055506802b5e3af16b1880000600781905550600460009054906101000a900473ffffffffffffffffffffffffffffffffffffffff16600660006101000a81548173ffffffffffffffffffffffffffffffffffffffff021916908373ffffffffffffffffffffffffffffffffffffffff160217905550620003ae565b600080fd5b600073ffffffffffffffffffffffffffffffffffffffff82169050919050565b6000620003448262000317565b9050919050565b620003568162000337565b81146200036257600080fd5b50565b60008151905062000376816200034b565b92915050565b60006020828403121562000395576200039462000312565b5b6000620003a58482850162000365565b91505092915050565b610e6180620003be6000396000f3fe608060405234801561001057600080fd5b50600436106100625760003560e01c806303472fa4146100675780633ccfd60b146100715780637d8820971461007b578063ce1b088a14610099578063d0e30db0146100a3578063fc7e286d146100ad575b600080fd5b61006f6100dd565b005b6100796101ec565b005b6100836103d1565b60405161009091906109e1565b60405180910390f35b6100a16103d7565b005b6100ab610610565b005b6100c760048036038101906100c29190610a5f565b6109b0565b6040516100d491906109e1565b60405180910390f35b600660009054906101000a900473ffffffffffffffffffffffffffffffffffffffff1673ffffffffffffffffffffffffffffffffffffffff166323b872dd33306007546040518463ffffffff1660e01b815260040161013e93929190610a9b565b602060405180830381600087803b15801561015857600080fd5b505af115801561016c573d6000803e3d6000fd5b505050506040513d601f19601f820116820180604052508101906101909190610b0a565b507f340ae9b072ae89807c922595607762ed42fa3e83efdb563f25b46caa24a76be0600860009054906101000a900473ffffffffffffffffffffffffffffffffffffffff166040516101e29190610b37565b60405180910390a1565b600560009054906101000a900473ffffffffffffffffffffffffffffffffffffffff1673ffffffffffffffffffffffffffffffffffffffff166369328dec600660009054906101000a900473ffffffffffffffffffffffffffffffffffffffff16600754336040518463ffffffff1660e01b815260040161026f93929190610b52565b602060405180830381600087803b15801561028957600080fd5b505af115801561029d573d6000803e3d6000fd5b505050506040513d601f19601f820116820180604052508101906102c19190610bb5565b50600754600160003373ffffffffffffffffffffffffffffffffffffffff1673ffffffffffffffffffffffffffffffffffffffff1681526020019081526020016000205461030f9190610c11565b600160003373ffffffffffffffffffffffffffffffffffffffff1673ffffffffffffffffffffffffffffffffffffffff168152602001908152602001600020819055506007546000808282546103659190610c11565b925050819055507ff341246adaac6f497bc2a656f546ab9e182111d630394f0c57c710a59a2cb567600660009054906101000a900473ffffffffffffffffffffffffffffffffffffffff16336007546000546040516103c79493929190610c45565b60405180910390a1565b60005481565b600073dcf0af9e59c002fa3aa091a46196b37530fd48a8905060008173ffffffffffffffffffffffffffffffffffffffff166370a08231306040518263ffffffff1660e01b815260040161042b9190610b37565b60206040518083038186803b15801561044357600080fd5b505afa158015610457573d6000803e3d6000fd5b505050506040513d601f19601f8201168201806040525081019061047b9190610bb5565b9050600080548261048c9190610c11565b9050600560009054906101000a900473ffffffffffffffffffffffffffffffffffffffff1673ffffffffffffffffffffffffffffffffffffffff166369328dec600660009054906101000a900473ffffffffffffffffffffffffffffffffffffffff1683600960009054906101000a900473ffffffffffffffffffffffffffffffffffffffff166040518463ffffffff1660e01b815260040161053193929190610b52565b602060405180830381600087803b15801561054b57600080fd5b505af115801561055f573d6000803e3d6000fd5b505050506040513d601f19601f820116820180604052508101906105839190610bb5565b507ff3cc5250a69c66a1c5c36f04fd0650ec04c383364fba64ab812d8f23d077bc7a600660009054906101000a900473ffffffffffffffffffffffffffffffffffffffff16600960009054906101000a900473ffffffffffffffffffffffffffffffffffffffff1683600054868860405161060396959493929190610c8a565b60405180910390a1505050565b600660009054906101000a900473ffffffffffffffffffffffffffffffffffffffff1673ffffffffffffffffffffffffffffffffffffffff1663095ea7b3600560009054906101000a900473ffffffffffffffffffffffffffffffffffffffff166007546040518363ffffffff1660e01b8152600401610691929190610ceb565b602060405180830381600087803b1580156106ab57600080fd5b505af11580156106bf573d6000803e3d6000fd5b505050506040513d601f19601f820116820180604052508101906106e39190610b0a565b507f81378ad55ccc4f406d94c61351c178136d12f0ff999cc2b658aa87ef47b4f043600660009054906101000a900473ffffffffffffffffffffffffffffffffffffffff1673ffffffffffffffffffffffffffffffffffffffff1663dd62ed3e30600560009054906101000a900473ffffffffffffffffffffffffffffffffffffffff166040518363ffffffff1660e01b8152600401610784929190610d14565b60206040518083038186803b15801561079c57600080fd5b505afa1580156107b0573d6000803e3d6000fd5b505050506040513d601f19601f820116820180604052508101906107d49190610bb5565b6040516107e191906109e1565b60405180910390a1600560009054906101000a900473ffffffffffffffffffffffffffffffffffffffff1673ffffffffffffffffffffffffffffffffffffffff1663e8eda9df600660009054906101000a900473ffffffffffffffffffffffffffffffffffffffff166007543060006040518563ffffffff1660e01b815260040161086f9493929190610d90565b600060405180830381600087803b15801561088957600080fd5b505af115801561089d573d6000803e3d6000fd5b50505050600754600160003373ffffffffffffffffffffffffffffffffffffffff1673ffffffffffffffffffffffffffffffffffffffff168152602001908152602001600020546108ee9190610dd5565b600160003373ffffffffffffffffffffffffffffffffffffffff1673ffffffffffffffffffffffffffffffffffffffff168152602001908152602001600020819055506007546000808282546109449190610dd5565b925050819055507fdcbc1c05240f31ff3ad067ef1ee35ce4997762752e3a095284754544f4c709d7600660009054906101000a900473ffffffffffffffffffffffffffffffffffffffff16336007546000546040516109a69493929190610c45565b60405180910390a1565b60016020528060005260406000206000915090505481565b6000819050919050565b6109db816109c8565b82525050565b60006020820190506109f660008301846109d2565b92915050565b600080fd5b600073ffffffffffffffffffffffffffffffffffffffff82169050919050565b6000610a2c82610a01565b9050919050565b610a3c81610a21565b8114610a4757600080fd5b50565b600081359050610a5981610a33565b92915050565b600060208284031215610a7557610a746109fc565b5b6000610a8384828501610a4a565b91505092915050565b610a9581610a21565b82525050565b6000606082019050610ab06000830186610a8c565b610abd6020830185610a8c565b610aca60408301846109d2565b949350505050565b60008115159050919050565b610ae781610ad2565b8114610af257600080fd5b50565b600081519050610b0481610ade565b92915050565b600060208284031215610b2057610b1f6109fc565b5b6000610b2e84828501610af5565b91505092915050565b6000602082019050610b4c6000830184610a8c565b92915050565b6000606082019050610b676000830186610a8c565b610b7460208301856109d2565b610b816040830184610a8c565b949350505050565b610b92816109c8565b8114610b9d57600080fd5b50565b600081519050610baf81610b89565b92915050565b600060208284031215610bcb57610bca6109fc565b5b6000610bd984828501610ba0565b91505092915050565b7f4e487b7100000000000000000000000000000000000000000000000000000000600052601160045260246000fd5b6000610c1c826109c8565b9150610c27836109c8565b925082821015610c3a57610c39610be2565b5b828203905092915050565b6000608082019050610c5a6000830187610a8c565b610c676020830186610a8c565b610c7460408301856109d2565b610c8160608301846109d2565b95945050505050565b600060c082019050610c9f6000830189610a8c565b610cac6020830188610a8c565b610cb960408301876109d2565b610cc660608301866109d2565b610cd360808301856109d2565b610ce060a0830184610a8c565b979650505050505050565b6000604082019050610d006000830185610a8c565b610d0d60208301846109d2565b9392505050565b6000604082019050610d296000830185610a8c565b610d366020830184610a8c565b9392505050565b6000819050919050565b600061ffff82169050919050565b6000819050919050565b6000610d7a610d75610d7084610d3d565b610d55565b610d47565b9050919050565b610d8a81610d5f565b82525050565b6000608082019050610da56000830187610a8c565b610db260208301866109d2565b610dbf6040830185610a8c565b610dcc6060830184610d81565b95945050505050565b6000610de0826109c8565b9150610deb836109c8565b9250827fffffffffffffffffffffffffffffffffffffffffffffffffffffffffffffffff03821115610e2057610e1f610be2565b5b82820190509291505056fea2646970667358221220a84b4e97d38e404290e404db9e3a8dca23de54a1ce27c80d58d21e7f78003a1964736f6c63430008090033",
  "immutableReferences": {},
  "source": "// SPDX-License-Identifier: agpl-3.0\npragma solidity 0.8.9;\n\nimport { IERC20, ILendingPool, IProtocolDataProvider, IStableDebtToken, ILendingPoolAddressesProvider} from './Interfaces.sol';\nimport { SafeERC20 } from './Libraries.sol';\n\n/**\n * This is a proof of concept starter contract, showing how uncollaterised loans are possible\n * using Aave v2 credit delegation.\n * This example supports stable interest rate borrows.\n * It is not production ready (!). User permissions and user accounting of loans should be implemented.\n * See @dev comments\n */\n\ncontract JustCausePool {\n    //using SafeERC20 for IERC20;\n\n    uint256 public totalDeposits;\n    mapping(address => uint256) public deposits;\n    ILendingPoolAddressesProvider provider;\n    IProtocolDataProvider dataProvider; // Kovan\n    address private kovanDAI;\n    ILendingPool lendingPool;\n    IERC20 daiToken;\n    uint256 amount;\n    address lendingPoolAddr;\n\n    event Deposit(address tokenAddress, address depositor, uint256 amount, uint256 totalDeposits);\n    event Withdraw(address tokenAddress, address depositor, uint256 amount, uint256 totalDeposits);\n    event WithdrawDonations(address tokenAddress, address depositor, uint256 amount, uint256 totalDeposits, uint256 assetBalance, address aTokenAddress);\n    event BalanceOf(address FROM, uint256 AMOUNT, uint256 BALANCE);\n    event GetLPAddress(address addr);\n    event SeeAllowance(uint256 allowance);\n\n    event Test(uint256 test);\n    address owner;\n\n    constructor () public {\n        owner = msg.sender;\n        provider = ILendingPoolAddressesProvider(address(0x88757f2f99175387aB4C6a4b3067c77A695b0349));\n        dataProvider = IProtocolDataProvider(address(0x744C1aaA95232EeF8A9994C4E0b3a89659D9AB79));\n        lendingPoolAddr = provider.getLendingPool();\n        lendingPool = ILendingPool(lendingPoolAddr); // Kovan\n        //lendingPool = ILendingPool(address(0x9FE532197ad76c5a68961439604C037EB79681F0)); // Kovan\n        kovanDAI = address(0xFf795577d9AC8bD7D90Ee22b6C1703490b6512FD);\n        amount = 50 * 1e18;\n        daiToken = IERC20(kovanDAI);\n    }\n\n    function transferIn(/*address asset, uint256 amount*/) public {\n        //emit BalanceOf(msg.sender, amount, daiToken.balanceOf(msg.sender));\n        daiToken.transferFrom(msg.sender, address(this), amount);\n        emit GetLPAddress(lendingPoolAddr);\n    }\n\n    function deposit(/*address asset, uint256 amount*/) public {\n            daiToken.approve(address(lendingPool), amount);\n            emit SeeAllowance(daiToken.allowance(address(this), address(lendingPool)));\n            lendingPool.deposit(address(daiToken), amount, address(this), 0);\n            deposits[msg.sender] = deposits[msg.sender] + amount;\n            totalDeposits += amount;\n            emit Deposit(address(daiToken), msg.sender, amount, totalDeposits);\n    }\n\n    /**\n     * Repay an uncollaterised loan\n     * @param amount The amount to repay\n     * @param asset The asset to be repaid\n     *\n     * User calling this function must have approved this contract with an allowance to transfer the tokens\n     *\n     * You should keep internal accounting of borrowers, if your contract will have multiple borrowers\n     */\n    /*function repayBorrower(uint256 amount, address asset) public {\n        IERC20(asset).safeTransferFrom(msg.sender, address(this), amount);\n        IERC20(asset).safeApprove(address(lendingPool), amount);\n        lendingPool.repay(asset, amount, 1, address(this));\n    }*/\n\n    /**\n     * Withdraw all of a collateral as the underlying asset, if no outstanding loans delegated\n     *\n     *\n     * Add permissions to this call, e.g. only the owner should be able to withdraw the collateral!\n     */\n    function withdraw(/*address asset, uint256 amount*/) public {\n        //require(deposits[msg.sender] >= amount, \"insufficient balance\");\n        lendingPool.withdraw(address(daiToken), amount, msg.sender);\n        deposits[msg.sender] = deposits[msg.sender] - amount;\n        totalDeposits -= amount;\n        emit Withdraw(address(daiToken), msg.sender, amount, totalDeposits);\n    }\n\n    function withdrawDonations() public{\n        //(address aTokenAddress,,) = dataProvider.getReserveTokensAddresses(address(daiToken));\n        //uint256 assetBalance = IERC20(aTokenAddress).balanceOf(address(this));\n        address testATokenAddress = address(0xdCf0aF9e59C002FA3AA091a46196b37530FD48a8);\n        uint256 assetBalance = IERC20(testATokenAddress).balanceOf(address(this));\n        uint256 interestEarned = assetBalance - totalDeposits;\n        lendingPool.withdraw(address(daiToken), interestEarned, owner);\n        emit WithdrawDonations(address(daiToken), owner, interestEarned, totalDeposits, assetBalance, testATokenAddress);\n    }\n}",
  "sourcePath": "/home/smeee/just_cause/contracts/JustCausePool.sol",
  "compiler": {
    "name": "solc",
    "version": "0.8.9+commit.e5eed63a.Emscripten.clang"
  },
  "schemaVersion": "3.4.3",
  "updatedAt": "2021-10-11T03:52:29.026Z",
  "networkType": "ethereum",
  "devdoc": {
    "details": "comments",
    "kind": "dev",
    "methods": {},
    "version": 1
  },
  "userdoc": {
    "kind": "user",
    "methods": {
      "withdraw()": {
        "notice": "Withdraw all of a collateral as the underlying asset, if no outstanding loans delegated Add permissions to this call, e.g. only the owner should be able to withdraw the collateral!"
      }
    },
    "notice": "This is a proof of concept starter contract, showing how uncollaterised loans are possible using Aave v2 credit delegation. This example supports stable interest rate borrows. It is not production ready (!). User permissions and user accounting of loans should be implemented.",
    "version": 1
  }
}