{
  "contractName": "JustCausePool",
  "abi": [
    {
      "inputs": [],
      "stateMutability": "nonpayable",
      "type": "constructor"
    },
    {
      "anonymous": false,
      "inputs": [
        {
          "indexed": false,
          "internalType": "address",
          "name": "tokenAddress",
          "type": "address"
        },
        {
          "indexed": false,
          "internalType": "address",
          "name": "depositor",
          "type": "address"
        },
        {
          "indexed": false,
          "internalType": "uint256",
          "name": "amount",
          "type": "uint256"
        }
      ],
      "name": "Deposit",
      "type": "event"
    },
    {
      "anonymous": false,
      "inputs": [
        {
          "indexed": false,
          "internalType": "address",
          "name": "tokenAddress",
          "type": "address"
        },
        {
          "indexed": false,
          "internalType": "address",
          "name": "caller",
          "type": "address"
        },
        {
          "indexed": false,
          "internalType": "uint256",
          "name": "amount",
          "type": "uint256"
        }
      ],
      "name": "Withdraw",
      "type": "event"
    },
    {
      "anonymous": false,
      "inputs": [
        {
          "indexed": false,
          "internalType": "address",
          "name": "tokenAddress",
          "type": "address"
        },
        {
          "indexed": false,
          "internalType": "uint256",
          "name": "amount",
          "type": "uint256"
        }
      ],
      "name": "WithdrawDonations",
      "type": "event"
    },
    {
      "inputs": [],
      "name": "claimIndex",
      "outputs": [
        {
          "internalType": "uint256",
          "name": "",
          "type": "uint256"
        }
      ],
      "stateMutability": "view",
      "type": "function"
    },
    {
      "inputs": [],
      "name": "isBase",
      "outputs": [
        {
          "internalType": "bool",
          "name": "",
          "type": "bool"
        }
      ],
      "stateMutability": "view",
      "type": "function"
    },
    {
      "inputs": [
        {
          "internalType": "address[]",
          "name": "_acceptedTokens",
          "type": "address[]"
        },
        {
          "internalType": "string",
          "name": "_name",
          "type": "string"
        },
        {
          "internalType": "string",
          "name": "_about",
          "type": "string"
        },
        {
          "internalType": "address",
          "name": "_receiver",
          "type": "address"
        }
      ],
      "name": "initialize",
      "outputs": [],
      "stateMutability": "nonpayable",
      "type": "function"
    },
    {
      "inputs": [
        {
          "internalType": "address",
          "name": "_assetAddress",
          "type": "address"
        },
        {
          "internalType": "uint256",
          "name": "_amount",
          "type": "uint256"
        },
        {
          "internalType": "address",
          "name": "_depositor",
          "type": "address"
        }
      ],
      "name": "deposit",
      "outputs": [],
      "stateMutability": "nonpayable",
      "type": "function"
    },
    {
      "inputs": [
        {
          "internalType": "address",
          "name": "_wethAddress",
          "type": "address"
        },
        {
          "internalType": "address",
          "name": "_depositor",
          "type": "address"
        }
      ],
      "name": "depositETH",
      "outputs": [],
      "stateMutability": "payable",
      "type": "function"
    },
    {
      "inputs": [
        {
          "internalType": "address",
          "name": "_assetAddress",
          "type": "address"
        },
        {
          "internalType": "uint256",
          "name": "_amount",
          "type": "uint256"
        },
        {
          "internalType": "address",
          "name": "_depositor",
          "type": "address"
        }
      ],
      "name": "withdraw",
      "outputs": [],
      "stateMutability": "nonpayable",
      "type": "function"
    },
    {
      "inputs": [
        {
          "internalType": "address",
          "name": "_assetAddress",
          "type": "address"
        }
      ],
      "name": "withdrawDonations",
      "outputs": [
        {
          "internalType": "uint256",
          "name": "",
          "type": "uint256"
        }
      ],
      "stateMutability": "nonpayable",
      "type": "function"
    },
    {
      "inputs": [
        {
          "internalType": "address",
          "name": "_token",
          "type": "address"
        }
      ],
      "name": "getTotalDeposits",
      "outputs": [
        {
          "internalType": "uint256",
          "name": "",
          "type": "uint256"
        }
      ],
      "stateMutability": "view",
      "type": "function"
    },
    {
      "inputs": [],
      "name": "getAcceptedTokens",
      "outputs": [
        {
          "internalType": "address[]",
          "name": "",
          "type": "address[]"
        }
      ],
      "stateMutability": "view",
      "type": "function"
    },
    {
      "inputs": [],
      "name": "getName",
      "outputs": [
        {
          "internalType": "string",
          "name": "",
          "type": "string"
        }
      ],
      "stateMutability": "view",
      "type": "function"
    },
    {
      "inputs": [],
      "name": "getAbout",
      "outputs": [
        {
          "internalType": "string",
          "name": "",
          "type": "string"
        }
      ],
      "stateMutability": "view",
      "type": "function"
    },
    {
      "inputs": [
        {
          "internalType": "address",
          "name": "_assetAddress",
          "type": "address"
        }
      ],
      "name": "getATokenAddress",
      "outputs": [
        {
          "internalType": "address",
          "name": "",
          "type": "address"
        }
      ],
      "stateMutability": "view",
      "type": "function"
    },
    {
      "inputs": [
        {
          "internalType": "address",
          "name": "_assetAddress",
          "type": "address"
        }
      ],
      "name": "getUnclaimedInterest",
      "outputs": [
        {
          "internalType": "uint256",
          "name": "",
          "type": "uint256"
        }
      ],
      "stateMutability": "view",
      "type": "function"
    },
    {
      "inputs": [
        {
          "internalType": "address",
          "name": "_assetAddress",
          "type": "address"
        }
      ],
      "name": "getClaimedInterest",
      "outputs": [
        {
          "internalType": "uint256",
          "name": "",
          "type": "uint256"
        }
      ],
      "stateMutability": "view",
      "type": "function"
    },
    {
      "inputs": [
        {
          "internalType": "address",
          "name": "_assetAddress",
          "type": "address"
        }
      ],
      "name": "getATokenBalance",
      "outputs": [
        {
          "internalType": "uint256",
          "name": "",
          "type": "uint256"
        }
      ],
      "stateMutability": "view",
      "type": "function"
    },
    {
      "inputs": [],
      "name": "getRecipient",
      "outputs": [
        {
          "internalType": "address",
          "name": "",
          "type": "address"
        }
      ],
      "stateMutability": "view",
      "type": "function"
    },
    {
      "inputs": [],
      "name": "getByteCode",
      "outputs": [
        {
          "internalType": "bytes",
          "name": "",
          "type": "bytes"
        }
      ],
      "stateMutability": "view",
      "type": "function"
    },
    {
      "inputs": [],
      "name": "getHashByteCode",
      "outputs": [
        {
          "internalType": "bytes32",
          "name": "",
          "type": "bytes32"
        }
      ],
      "stateMutability": "view",
      "type": "function"
    },
    {
      "inputs": [
        {
          "internalType": "address",
          "name": "_asset",
          "type": "address"
        }
      ],
      "name": "getReserveNormalizedIncome",
      "outputs": [
        {
          "internalType": "uint256",
          "name": "",
          "type": "uint256"
        }
      ],
      "stateMutability": "view",
      "type": "function"
    },
    {
      "inputs": [
        {
          "internalType": "address",
          "name": "_asset",
          "type": "address"
        }
      ],
      "name": "getAaveLiquidityIndex",
      "outputs": [
        {
          "internalType": "uint256",
          "name": "liquidityIndex",
          "type": "uint256"
        }
      ],
      "stateMutability": "view",
      "type": "function"
    }
  ],
  "bytecode": "0x608060405234801561001057600080fd5b506001600460006101000a81548160ff0219169083151502179055506131418061003b6000396000f3fe60806040526004361061011f5760003560e01c80635ff189b9116100a05780638aebe8d6116100645780638aebe8d6146103f0578063a56f5b531461042d578063d15e00531461046a578063d41d9221146104a7578063f45346dc146104d25761011f565b80635ff189b91461030657806369328dec14610343578063711cc0051461036c578063734029bf146103a95780637f80069a146103c55761011f565b80632f757006116100e75780632f7570061461021f578063343d693b1461024a5780633735ef881461027557806350d02d71146102b257806357ac6566146102db5761011f565b80630251cfa1146101245780630712f6b3146101615780630835d21a1461019e57806317d7de7c146101c95780631b88094d146101f4575b600080fd5b34801561013057600080fd5b5061014b60048036038101906101469190612133565b6104fb565b6040516101589190612179565b60405180910390f35b34801561016d57600080fd5b5061018860048036038101906101839190612133565b610544565b6040516101959190612179565b60405180910390f35b3480156101aa57600080fd5b506101b3610687565b6040516101c091906121ad565b60405180910390f35b3480156101d557600080fd5b506101de6106e7565b6040516101eb9190612261565b60405180910390f35b34801561020057600080fd5b50610209610779565b6040516102169190612292565b60405180910390f35b34801561022b57600080fd5b506102346107a3565b604051610241919061236b565b60405180910390f35b34801561025657600080fd5b5061025f610831565b60405161026c9190612261565b60405180910390f35b34801561028157600080fd5b5061029c60048036038101906102979190612133565b6108c3565b6040516102a99190612179565b60405180910390f35b3480156102be57600080fd5b506102d960048036038101906102d4919061258a565b610a56565b005b3480156102e757600080fd5b506102f0610f6d565b6040516102fd919061269a565b60405180910390f35b34801561031257600080fd5b5061032d60048036038101906103289190612133565b610fa7565b60405161033a9190612179565b60405180910390f35b34801561034f57600080fd5b5061036a600480360381019061036591906126e8565b610ff0565b005b34801561037857600080fd5b50610393600480360381019061038e9190612133565b611213565b6040516103a09190612292565b60405180910390f35b6103c360048036038101906103be919061273b565b6112ce565b005b3480156103d157600080fd5b506103da6114aa565b6040516103e79190612796565b60405180910390f35b3480156103fc57600080fd5b5061041760048036038101906104129190612133565b6114bd565b6040516104249190612179565b60405180910390f35b34801561043957600080fd5b50610454600480360381019061044f9190612133565b6115a8565b6040516104619190612179565b60405180910390f35b34801561047657600080fd5b50610491600480360381019061048c9190612133565b6119fa565b60405161049e9190612179565b60405180910390f35b3480156104b357600080fd5b506104bc611aae565b6040516104c99190612179565b60405180910390f35b3480156104de57600080fd5b506104f960048036038101906104f491906126e8565b611ab4565b005b6000600160008373ffffffffffffffffffffffffffffffffffffffff1673ffffffffffffffffffffffffffffffffffffffff168152602001908152602001600020549050919050565b600080600660009054906101000a900473ffffffffffffffffffffffffffffffffffffffff1673ffffffffffffffffffffffffffffffffffffffff1663d2493b6c846040518263ffffffff1660e01b81526004016105a29190612292565b60606040518083038186803b1580156105ba57600080fd5b505afa1580156105ce573d6000803e3d6000fd5b505050506040513d601f19601f820116820180604052508101906105f291906127c6565b505090508073ffffffffffffffffffffffffffffffffffffffff166370a08231306040518263ffffffff1660e01b815260040161062f9190612292565b60206040518083038186803b15801561064757600080fd5b505afa15801561065b573d6000803e3d6000fd5b505050506040513d601f19601f8201168201806040525081019061067f919061282e565b915050919050565b60003073ffffffffffffffffffffffffffffffffffffffff16803b806020016040519081016040528181526000908060200190933c6040516020016106cc9190612897565b60405160208183030381529060405280519060200120905090565b6060600b80546106f6906128dd565b80601f0160208091040260200160405190810160405280929190818152602001828054610722906128dd565b801561076f5780601f106107445761010080835404028352916020019161076f565b820191906000526020600020905b81548152906001019060200180831161075257829003601f168201915b5050505050905090565b6000600960009054906101000a900473ffffffffffffffffffffffffffffffffffffffff16905090565b6060600880548060200260200160405190810160405280929190818152602001828054801561082757602002820191906000526020600020905b8160009054906101000a900473ffffffffffffffffffffffffffffffffffffffff1673ffffffffffffffffffffffffffffffffffffffff16815260200190600101908083116107dd575b5050505050905090565b6060600c8054610840906128dd565b80601f016020809104026020016040519081016040528092919081815260200182805461086c906128dd565b80156108b95780601f1061088e576101008083540402835291602001916108b9565b820191906000526020600020905b81548152906001019060200180831161089c57829003601f168201915b5050505050905090565b600080600660009054906101000a900473ffffffffffffffffffffffffffffffffffffffff1673ffffffffffffffffffffffffffffffffffffffff1663d2493b6c846040518263ffffffff1660e01b81526004016109219190612292565b60606040518083038186803b15801561093957600080fd5b505afa15801561094d573d6000803e3d6000fd5b505050506040513d601f19601f8201168201806040525081019061097191906127c6565b5050905060008173ffffffffffffffffffffffffffffffffffffffff166370a08231306040518263ffffffff1660e01b81526004016109b09190612292565b60206040518083038186803b1580156109c857600080fd5b505afa1580156109dc573d6000803e3d6000fd5b505050506040513d601f19601f82011682018060405250810190610a00919061282e565b9050600160008573ffffffffffffffffffffffffffffffffffffffff1673ffffffffffffffffffffffffffffffffffffffff1681526020019081526020016000205481610a4d919061293e565b92505050919050565b82601e60008290508160ff16815110610aa4576040517f08c379a0000000000000000000000000000000000000000000000000000000008152600401610a9b906129be565b60405180910390fd5b8460c860008290508160ff16815110610af2576040517f08c379a0000000000000000000000000000000000000000000000000000000008152600401610ae9906129be565b60405180910390fd5b600060019054906101000a900460ff16610b1a5760008054906101000a900460ff1615610b23565b610b22611f70565b5b610b62576040517f08c379a0000000000000000000000000000000000000000000000000000000008152600401610b5990612a50565b60405180910390fd5b60008060019054906101000a900460ff161590508015610bb2576001600060016101000a81548160ff02191690831515021790555060016000806101000a81548160ff0219169083151502179055505b60001515600460009054906101000a900460ff16151514610c08576040517f08c379a0000000000000000000000000000000000000000000000000000000008152600401610bff90612abc565b60405180910390fd5b600073ffffffffffffffffffffffffffffffffffffffff16600960009054906101000a900473ffffffffffffffffffffffffffffffffffffffff1673ffffffffffffffffffffffffffffffffffffffff1614610c99576040517f08c379a0000000000000000000000000000000000000000000000000000000008152600401610c9090612b28565b60405180910390fd5b87600960006101000a81548173ffffffffffffffffffffffffffffffffffffffff021916908373ffffffffffffffffffffffffffffffffffffffff16021790555033600a60006101000a81548173ffffffffffffffffffffffffffffffffffffffff021916908373ffffffffffffffffffffffffffffffffffffffff16021790555089600b9080519060200190610d31929190611f94565b5088600c9080519060200190610d48929190611f94565b507388757f2f99175387ab4c6a4b3067c77a695b0349600460016101000a81548173ffffffffffffffffffffffffffffffffffffffff021916908373ffffffffffffffffffffffffffffffffffffffff160217905550600460019054906101000a900473ffffffffffffffffffffffffffffffffffffffff1673ffffffffffffffffffffffffffffffffffffffff16630261bf8b6040518163ffffffff1660e01b815260040160206040518083038186803b158015610e0657600080fd5b505afa158015610e1a573d6000803e3d6000fd5b505050506040513d601f19601f82011682018060405250810190610e3e9190612b48565b600560006101000a81548173ffffffffffffffffffffffffffffffffffffffff021916908373ffffffffffffffffffffffffffffffffffffffff160217905550733c73a5e5785cac854d468f727c606c07488a29d6600660006101000a81548173ffffffffffffffffffffffffffffffffffffffff021916908373ffffffffffffffffffffffffffffffffffffffff16021790555073a61ca04df33b72b235a8a28cfb535bb7a5271b70600760006101000a81548173ffffffffffffffffffffffffffffffffffffffff021916908373ffffffffffffffffffffffffffffffffffffffff1602179055508a60089080519060200190610f3e92919061201a565b508015610f605760008060016101000a81548160ff0219169083151502179055505b5050505050505050505050565b60603073ffffffffffffffffffffffffffffffffffffffff16803b806020016040519081016040528181526000908060200190933c905090565b6000600260008373ffffffffffffffffffffffffffffffffffffffff1673ffffffffffffffffffffffffffffffffffffffff168152602001908152602001600020549050919050565b338073ffffffffffffffffffffffffffffffffffffffff16600a60009054906101000a900473ffffffffffffffffffffffffffffffffffffffff1673ffffffffffffffffffffffffffffffffffffffff1614611081576040517f08c379a000000000000000000000000000000000000000000000000000000000815260040161107890612bc1565b60405180910390fd5b818484600081116110c7576040517f08c379a00000000000000000000000000000000000000000000000000000000081526004016110be90612c2d565b60405180910390fd5b600560009054906101000a900473ffffffffffffffffffffffffffffffffffffffff1673ffffffffffffffffffffffffffffffffffffffff166369328dec8888886040518463ffffffff1660e01b815260040161112693929190612c4d565b602060405180830381600087803b15801561114057600080fd5b505af1158015611154573d6000803e3d6000fd5b505050506040513d601f19601f82011682018060405250810190611178919061282e565b5085600160008973ffffffffffffffffffffffffffffffffffffffff1673ffffffffffffffffffffffffffffffffffffffff16815260200190815260200160002060008282546111c8919061293e565b925050819055507f9b1bfa7fa9ee420a16e124f794c35ac9f90472acc99140eb2f6447c714cad8eb87868860405161120293929190612c84565b60405180910390a150505050505050565b600080600660009054906101000a900473ffffffffffffffffffffffffffffffffffffffff1673ffffffffffffffffffffffffffffffffffffffff1663d2493b6c846040518263ffffffff1660e01b81526004016112719190612292565b60606040518083038186803b15801561128957600080fd5b505afa15801561129d573d6000803e3d6000fd5b505050506040513d601f19601f820116820180604052508101906112c191906127c6565b5050905080915050919050565b338073ffffffffffffffffffffffffffffffffffffffff16600a60009054906101000a900473ffffffffffffffffffffffffffffffffffffffff1673ffffffffffffffffffffffffffffffffffffffff161461135f576040517f08c379a000000000000000000000000000000000000000000000000000000000815260040161135690612bc1565b60405180910390fd5b600760009054906101000a900473ffffffffffffffffffffffffffffffffffffffff1673ffffffffffffffffffffffffffffffffffffffff1663474cf53d34600560009054906101000a900473ffffffffffffffffffffffffffffffffffffffff163060006040518563ffffffff1660e01b81526004016113e293929190612d0e565b6000604051808303818588803b1580156113fb57600080fd5b505af115801561140f573d6000803e3d6000fd5b505050505034600160008573ffffffffffffffffffffffffffffffffffffffff1673ffffffffffffffffffffffffffffffffffffffff16815260200190815260200160002060008282546114639190612d45565b925050819055507f5548c837ab068cf56a2c2479df0882a4922fd203edb7517321831d95078c5f6283833460405161149d93929190612c84565b60405180910390a1505050565b600460009054906101000a900460ff1681565b6000600660009054906101000a900473ffffffffffffffffffffffffffffffffffffffff1673ffffffffffffffffffffffffffffffffffffffff166335ea6a75836040518263ffffffff1660e01b815260040161151a9190612292565b6101406040518083038186803b15801561153357600080fd5b505afa158015611547573d6000803e3d6000fd5b505050506040513d601f19601f8201168201806040525081019061156b9190612dd8565b9091929394959697985090919293949596975090919293949596509091929394955090919293945090919293509091925090505080915050919050565b6000338073ffffffffffffffffffffffffffffffffffffffff16600a60009054906101000a900473ffffffffffffffffffffffffffffffffffffffff1673ffffffffffffffffffffffffffffffffffffffff161461163b576040517f08c379a000000000000000000000000000000000000000000000000000000000815260040161163290612bc1565b60405180910390fd5b82600080600090505b6008805490508160ff1610156116e55760088160ff168154811061166b5761166a612eb7565b5b9060005260206000200160009054906101000a900473ffffffffffffffffffffffffffffffffffffffff1673ffffffffffffffffffffffffffffffffffffffff168373ffffffffffffffffffffffffffffffffffffffff1614156116d257600191506116e5565b80806116dd90612ef3565b915050611644565b5080611726576040517f08c379a000000000000000000000000000000000000000000000000000000000815260040161171d90612f8f565b60405180910390fd5b6000600660009054906101000a900473ffffffffffffffffffffffffffffffffffffffff1673ffffffffffffffffffffffffffffffffffffffff1663d2493b6c876040518263ffffffff1660e01b81526004016117839190612292565b60606040518083038186803b15801561179b57600080fd5b505afa1580156117af573d6000803e3d6000fd5b505050506040513d601f19601f820116820180604052508101906117d391906127c6565b5050905060008173ffffffffffffffffffffffffffffffffffffffff166370a08231306040518263ffffffff1660e01b81526004016118129190612292565b60206040518083038186803b15801561182a57600080fd5b505afa15801561183e573d6000803e3d6000fd5b505050506040513d601f19601f82011682018060405250810190611862919061282e565b90506000600160008973ffffffffffffffffffffffffffffffffffffffff1673ffffffffffffffffffffffffffffffffffffffff16815260200190815260200160002054826118b1919061293e565b9050600560009054906101000a900473ffffffffffffffffffffffffffffffffffffffff1673ffffffffffffffffffffffffffffffffffffffff166369328dec8983600960009054906101000a900473ffffffffffffffffffffffffffffffffffffffff166040518463ffffffff1660e01b815260040161193493929190612c4d565b602060405180830381600087803b15801561194e57600080fd5b505af1158015611962573d6000803e3d6000fd5b505050506040513d601f19601f82011682018060405250810190611986919061282e565b50611990886114bd565b60038190555080600260008a73ffffffffffffffffffffffffffffffffffffffff1673ffffffffffffffffffffffffffffffffffffffff16815260200190815260200160002060008282546119e59190612d45565b92505081905550809650505050505050919050565b6000600560009054906101000a900473ffffffffffffffffffffffffffffffffffffffff1673ffffffffffffffffffffffffffffffffffffffff1663d15e0053836040518263ffffffff1660e01b8152600401611a579190612292565b60206040518083038186803b158015611a6f57600080fd5b505afa158015611a83573d6000803e3d6000fd5b505050506040513d601f19601f82011682018060405250810190611aa7919061282e565b9050919050565b60035481565b338073ffffffffffffffffffffffffffffffffffffffff16600a60009054906101000a900473ffffffffffffffffffffffffffffffffffffffff1673ffffffffffffffffffffffffffffffffffffffff1614611b45576040517f08c379a0000000000000000000000000000000000000000000000000000000008152600401611b3c90612bc1565b60405180910390fd5b83600080600090505b6008805490508160ff161015611bef5760088160ff1681548110611b7557611b74612eb7565b5b9060005260206000200160009054906101000a900473ffffffffffffffffffffffffffffffffffffffff1673ffffffffffffffffffffffffffffffffffffffff168373ffffffffffffffffffffffffffffffffffffffff161415611bdc5760019150611bef565b8080611be790612ef3565b915050611b4e565b5080611c30576040517f08c379a0000000000000000000000000000000000000000000000000000000008152600401611c2790612f8f565b60405180910390fd5b6000869050858173ffffffffffffffffffffffffffffffffffffffff1663dd62ed3e87306040518363ffffffff1660e01b8152600401611c71929190612faf565b60206040518083038186803b158015611c8957600080fd5b505afa158015611c9d573d6000803e3d6000fd5b505050506040513d601f19601f82011682018060405250810190611cc1919061282e565b1015611d02576040517f08c379a0000000000000000000000000000000000000000000000000000000008152600401611cf990613024565b60405180910390fd5b8073ffffffffffffffffffffffffffffffffffffffff166323b872dd8630896040518463ffffffff1660e01b8152600401611d3f93929190612c84565b602060405180830381600087803b158015611d5957600080fd5b505af1158015611d6d573d6000803e3d6000fd5b505050506040513d601f19601f82011682018060405250810190611d919190613070565b508073ffffffffffffffffffffffffffffffffffffffff1663095ea7b3600560009054906101000a900473ffffffffffffffffffffffffffffffffffffffff16886040518363ffffffff1660e01b8152600401611def92919061309d565b602060405180830381600087803b158015611e0957600080fd5b505af1158015611e1d573d6000803e3d6000fd5b505050506040513d601f19601f82011682018060405250810190611e419190613070565b50600560009054906101000a900473ffffffffffffffffffffffffffffffffffffffff1673ffffffffffffffffffffffffffffffffffffffff1663e8eda9df82883060006040518563ffffffff1660e01b8152600401611ea494939291906130c6565b600060405180830381600087803b158015611ebe57600080fd5b505af1158015611ed2573d6000803e3d6000fd5b5050505085600160008973ffffffffffffffffffffffffffffffffffffffff1673ffffffffffffffffffffffffffffffffffffffff1681526020019081526020016000206000828254611f259190612d45565b925050819055507f5548c837ab068cf56a2c2479df0882a4922fd203edb7517321831d95078c5f62878688604051611f5f93929190612c84565b60405180910390a150505050505050565b6000611f7b30611f81565b15905090565b600080823b905060008111915050919050565b828054611fa0906128dd565b90600052602060002090601f016020900481019282611fc25760008555612009565b82601f10611fdb57805160ff1916838001178555612009565b82800160010185558215612009579182015b82811115612008578251825591602001919060010190611fed565b5b50905061201691906120a4565b5090565b828054828255906000526020600020908101928215612093579160200282015b828111156120925782518260006101000a81548173ffffffffffffffffffffffffffffffffffffffff021916908373ffffffffffffffffffffffffffffffffffffffff1602179055509160200191906001019061203a565b5b5090506120a091906120a4565b5090565b5b808211156120bd5760008160009055506001016120a5565b5090565b6000604051905090565b600080fd5b600080fd5b600073ffffffffffffffffffffffffffffffffffffffff82169050919050565b6000612100826120d5565b9050919050565b612110816120f5565b811461211b57600080fd5b50565b60008135905061212d81612107565b92915050565b600060208284031215612149576121486120cb565b5b60006121578482850161211e565b91505092915050565b6000819050919050565b61217381612160565b82525050565b600060208201905061218e600083018461216a565b92915050565b6000819050919050565b6121a781612194565b82525050565b60006020820190506121c2600083018461219e565b92915050565b600081519050919050565b600082825260208201905092915050565b60005b838110156122025780820151818401526020810190506121e7565b83811115612211576000848401525b50505050565b6000601f19601f8301169050919050565b6000612233826121c8565b61223d81856121d3565b935061224d8185602086016121e4565b61225681612217565b840191505092915050565b6000602082019050818103600083015261227b8184612228565b905092915050565b61228c816120f5565b82525050565b60006020820190506122a76000830184612283565b92915050565b600081519050919050565b600082825260208201905092915050565b6000819050602082019050919050565b6122e2816120f5565b82525050565b60006122f483836122d9565b60208301905092915050565b6000602082019050919050565b6000612318826122ad565b61232281856122b8565b935061232d836122c9565b8060005b8381101561235e57815161234588826122e8565b975061235083612300565b925050600181019050612331565b5085935050505092915050565b60006020820190508181036000830152612385818461230d565b905092915050565b600080fd5b7f4e487b7100000000000000000000000000000000000000000000000000000000600052604160045260246000fd5b6123ca82612217565b810181811067ffffffffffffffff821117156123e9576123e8612392565b5b80604052505050565b60006123fc6120c1565b905061240882826123c1565b919050565b600067ffffffffffffffff82111561242857612427612392565b5b602082029050602081019050919050565b600080fd5b600061245161244c8461240d565b6123f2565b9050808382526020820190506020840283018581111561247457612473612439565b5b835b8181101561249d5780612489888261211e565b845260208401935050602081019050612476565b5050509392505050565b600082601f8301126124bc576124bb61238d565b5b81356124cc84826020860161243e565b91505092915050565b600080fd5b600067ffffffffffffffff8211156124f5576124f4612392565b5b6124fe82612217565b9050602081019050919050565b82818337600083830152505050565b600061252d612528846124da565b6123f2565b905082815260208101848484011115612549576125486124d5565b5b61255484828561250b565b509392505050565b600082601f8301126125715761257061238d565b5b813561258184826020860161251a565b91505092915050565b600080600080608085870312156125a4576125a36120cb565b5b600085013567ffffffffffffffff8111156125c2576125c16120d0565b5b6125ce878288016124a7565b945050602085013567ffffffffffffffff8111156125ef576125ee6120d0565b5b6125fb8782880161255c565b935050604085013567ffffffffffffffff81111561261c5761261b6120d0565b5b6126288782880161255c565b92505060606126398782880161211e565b91505092959194509250565b600081519050919050565b600082825260208201905092915050565b600061266c82612645565b6126768185612650565b93506126868185602086016121e4565b61268f81612217565b840191505092915050565b600060208201905081810360008301526126b48184612661565b905092915050565b6126c581612160565b81146126d057600080fd5b50565b6000813590506126e2816126bc565b92915050565b600080600060608486031215612701576127006120cb565b5b600061270f8682870161211e565b9350506020612720868287016126d3565b92505060406127318682870161211e565b9150509250925092565b60008060408385031215612752576127516120cb565b5b60006127608582860161211e565b92505060206127718582860161211e565b9150509250929050565b60008115159050919050565b6127908161277b565b82525050565b60006020820190506127ab6000830184612787565b92915050565b6000815190506127c081612107565b92915050565b6000806000606084860312156127df576127de6120cb565b5b60006127ed868287016127b1565b93505060206127fe868287016127b1565b925050604061280f868287016127b1565b9150509250925092565b600081519050612828816126bc565b92915050565b600060208284031215612844576128436120cb565b5b600061285284828501612819565b91505092915050565b600081905092915050565b600061287182612645565b61287b818561285b565b935061288b8185602086016121e4565b80840191505092915050565b60006128a38284612866565b915081905092915050565b7f4e487b7100000000000000000000000000000000000000000000000000000000600052602260045260246000fd5b600060028204905060018216806128f557607f821691505b60208210811415612909576129086128ae565b5b50919050565b7f4e487b7100000000000000000000000000000000000000000000000000000000600052601160045260246000fd5b600061294982612160565b915061295483612160565b9250828210156129675761296661290f565b5b828203905092915050565b7f737472696e67206f76657220636861726163746572206c696d69740000000000600082015250565b60006129a8601b836121d3565b91506129b382612972565b602082019050919050565b600060208201905081810360008301526129d78161299b565b9050919050565b7f496e697469616c697a61626c653a20636f6e747261637420697320616c72656160008201527f647920696e697469616c697a6564000000000000000000000000000000000000602082015250565b6000612a3a602e836121d3565b9150612a45826129de565b604082019050919050565b60006020820190508181036000830152612a6981612a2d565b9050919050565b7f43616e6e6f7420696e697469616c697a65206261736500000000000000000000600082015250565b6000612aa66016836121d3565b9150612ab182612a70565b602082019050919050565b60006020820190508181036000830152612ad581612a99565b9050919050565b7f496e697469616c697a6520616c72656164792063616c6c656400000000000000600082015250565b6000612b126019836121d3565b9150612b1d82612adc565b602082019050919050565b60006020820190508181036000830152612b4181612b05565b9050919050565b600060208284031215612b5e57612b5d6120cb565b5b6000612b6c848285016127b1565b91505092915050565b7f796f7520617265206e6f7420746865206f776e65720000000000000000000000600082015250565b6000612bab6015836121d3565b9150612bb682612b75565b602082019050919050565b60006020820190508181036000830152612bda81612b9e565b9050919050565b7f616d6f756e74206d757374206578636565642030000000000000000000000000600082015250565b6000612c176014836121d3565b9150612c2282612be1565b602082019050919050565b60006020820190508181036000830152612c4681612c0a565b9050919050565b6000606082019050612c626000830186612283565b612c6f602083018561216a565b612c7c6040830184612283565b949350505050565b6000606082019050612c996000830186612283565b612ca66020830185612283565b612cb3604083018461216a565b949350505050565b6000819050919050565b600061ffff82169050919050565b6000819050919050565b6000612cf8612cf3612cee84612cbb565b612cd3565b612cc5565b9050919050565b612d0881612cdd565b82525050565b6000606082019050612d236000830186612283565b612d306020830185612283565b612d3d6040830184612cff565b949350505050565b6000612d5082612160565b9150612d5b83612160565b9250827fffffffffffffffffffffffffffffffffffffffffffffffffffffffffffffffff03821115612d9057612d8f61290f565b5b828201905092915050565b600064ffffffffff82169050919050565b612db581612d9b565b8114612dc057600080fd5b50565b600081519050612dd281612dac565b92915050565b6000806000806000806000806000806101408b8d031215612dfc57612dfb6120cb565b5b6000612e0a8d828e01612819565b9a50506020612e1b8d828e01612819565b9950506040612e2c8d828e01612819565b9850506060612e3d8d828e01612819565b9750506080612e4e8d828e01612819565b96505060a0612e5f8d828e01612819565b95505060c0612e708d828e01612819565b94505060e0612e818d828e01612819565b935050610100612e938d828e01612819565b925050610120612ea58d828e01612dc3565b9150509295989b9194979a5092959850565b7f4e487b7100000000000000000000000000000000000000000000000000000000600052603260045260246000fd5b600060ff82169050919050565b6000612efe82612ee6565b915060ff821415612f1257612f1161290f565b5b600182019050919050565b7f7375626d697474656420746f6b656e2061646472657373206973206e6f74206160008201527f6363657074656420627920706f6f6c0000000000000000000000000000000000602082015250565b6000612f79602f836121d3565b9150612f8482612f1d565b604082019050919050565b60006020820190508181036000830152612fa881612f6c565b9050919050565b6000604082019050612fc46000830185612283565b612fd16020830184612283565b9392505050565b7f73656e646572206e6f7420617070726f76656400000000000000000000000000600082015250565b600061300e6013836121d3565b915061301982612fd8565b602082019050919050565b6000602082019050818103600083015261303d81613001565b9050919050565b61304d8161277b565b811461305857600080fd5b50565b60008151905061306a81613044565b92915050565b600060208284031215613086576130856120cb565b5b60006130948482850161305b565b91505092915050565b60006040820190506130b26000830185612283565b6130bf602083018461216a565b9392505050565b60006080820190506130db6000830187612283565b6130e8602083018661216a565b6130f56040830185612283565b6131026060830184612cff565b9594505050505056fea2646970667358221220ec8e18e6a2add18e653e76c168d40953ca40cc7f1d7313594d2ff633d3dc63dc64736f6c63430008090033",
  "immutableReferences": {},
  "source": "// SPDX-License-Identifier: MIT\npragma solidity 0.8.9;\n\nimport { IERC20, ILendingPool, ILendingPoolAddressesProvider, IProtocolDataProvider, IWETHGateway} from './Interfaces.sol';\nimport { SafeERC20 } from './Libraries.sol';\nimport \"@openzeppelin/contracts/proxy/utils/Initializable.sol\";\n/**\n * This is a proof of concept starter contract, showing how uncollaterised loans are possible\n * using Aave v2 credit delegation.\n * This example supports stable interest rate borrows.\n * It is not production ready (!). User permissions and user accounting of loans should be implemented.\n * See @dev comments\n */\n\ncontract JustCausePool is Initializable {\n    //mapping(address => mapping(address => uint256)) private depositors;\n    mapping(address => uint256) private totalDeposits;\n    mapping(address => uint256) private interestWithdrawn;\n    uint256 public claimIndex;\n    bool public isBase;\n\n    ILendingPoolAddressesProvider provider;\n    address lendingPoolAddr;\n    address dataProviderAddr;\n    address wethGatewayAddr;\n\n    /*ILendingPoolAddressesProvider provider;\n    ILendingPool lendingPool;\n    IProtocolDataProvider constant dataProvider = IProtocolDataProvider(address(0x3c73A5E5785cAC854D468F727c606C07488a29D6));*/ // Kovan\n    //IWETHGateway constant wethGateway = IWETHGateway(address(0xA61ca04DF33B72b235a8A28CfB535bb7A5271B70)); //Kovan\n\n    address[] acceptedTokens;\n\n    event Deposit(address tokenAddress, address depositor, uint256 amount);\n    event Withdraw(address tokenAddress, address caller, uint256 amount);\n    event WithdrawDonations(address tokenAddress, uint256 amount);\n\n    address receiver;\n    address master;\n    string name;\n    string about;\n\n    modifier onlyAllowedTokens(address _tokenAddr){\n        bool isAccepted;\n        for (uint8 i = 0; i < acceptedTokens.length; i++){\n            if(_tokenAddr == acceptedTokens[i]){\n                isAccepted = true;\n                break;\n            }\n        }\n        require(isAccepted, \"submitted token address is not accepted by pool\");\n        _;\n    }\n\n    modifier enoughFunds(address _userAddr, address _tokenAddr, uint256 _amount) {\n        require(_amount > 0, \"amount must exceed 0\");\n        //require(depositors[_userAddr][_tokenAddr]  >= _amount, \"no funds deposited for selected token\");\n        _;\n    }\n\n    modifier onlyReceiver(address _sender){\n        require(receiver == _sender, \"you are not the current reciever for this pool\");\n        _;\n    }\n\n    modifier onlyMaster(address _sender){\n        require(master == _sender, \"you are not the owner\");\n        _;\n    }\n\n    modifier strLength(string memory _str, uint8 _limit ){\n        bytes memory strBytes = bytes(_str);\n        require(strBytes.length < _limit, \"string over character limit\");\n        _;\n    }\n\n    constructor () {\n        isBase = true;\n    }\n\n    function initialize(\n        address[] memory _acceptedTokens,\n        string memory _name,\n        string memory _about,\n        address _receiver)\n\n    strLength(_name, 30) strLength(_about, 200) initializer() external {\n\n        require(isBase == false, \"Cannot initialize base\");\n        require(receiver == address(0), \"Initialize already called\");\n\n        receiver = _receiver;\n        master = msg.sender;\n        name = _name;\n        about = _about;\n\n        provider = ILendingPoolAddressesProvider(address(0x88757f2f99175387aB4C6a4b3067c77A695b0349));\n        lendingPoolAddr = provider.getLendingPool();\n        dataProviderAddr = address(0x3c73A5E5785cAC854D468F727c606C07488a29D6);//Kovan\n        wethGatewayAddr = address(0xA61ca04DF33B72b235a8A28CfB535bb7A5271B70);//Kovan\n        acceptedTokens = _acceptedTokens;\n\n        /*provider = ILendingPoolAddressesProvider(address(0x88757f2f99175387aB4C6a4b3067c77A695b0349));\n        address lendingPoolAddr = provider.getLendingPool();\n        lendingPool = ILendingPool(lendingPoolAddr); // Kovan*/\n    }\n\n    function deposit(address _assetAddress, uint256 _amount, address _depositor) onlyMaster(msg.sender) onlyAllowedTokens(_assetAddress) external {\n        IERC20 token = IERC20(_assetAddress);\n        require(token.allowance(_depositor, address(this)) >= _amount, \"sender not approved\");\n        token.transferFrom(_depositor, address(this), _amount);\n        //address poolAddr = address(lendingPool);\n        token.approve(lendingPoolAddr, _amount);\n        ILendingPool(lendingPoolAddr).deposit(address(token), _amount, address(this), 0);\n        totalDeposits[_assetAddress] += _amount;\n        emit Deposit(_assetAddress, _depositor, _amount);\n    }\n\n    function depositETH(address _wethAddress , address _depositor) onlyMaster(msg.sender) external payable {\n        IWETHGateway(wethGatewayAddr).depositETH{value: msg.value}(lendingPoolAddr, address(this), 0);\n        totalDeposits[_wethAddress] += msg.value;\n        emit Deposit(_wethAddress, _depositor, msg.value);\n    }\n\n    /*function tallyDeposit(uint256 _amount, address _assetAddress, address _depositor) internal {\n        uint256 depositedAmount = depositors[_depositor][_assetAddress];\n        //uint256 liquidityIndex = getAaveLiquidityIndex(_assetAddress);\n        //if(depositedAmount == 0){\n            //poolTracker.addDeposit(_depositor, _amount, liquidityIndex, block.timestamp, _assetAddress);\n        //}\n        depositedAmount += _amount;\n        totalDeposits[_assetAddress] += _amount;\n        depositors[_depositor][_assetAddress] = depositedAmount;\n    }*/\n\n    function withdraw(address _assetAddress, uint256 _amount, address _depositor) onlyMaster(msg.sender) enoughFunds(_depositor, _assetAddress, _amount) external {\n        ILendingPool(lendingPoolAddr).withdraw(_assetAddress, _amount, _depositor);\n        totalDeposits[_assetAddress] -= _amount;\n        emit Withdraw(_assetAddress, _depositor, _amount);\n    }\n\n    function withdrawDonations(address _assetAddress) onlyMaster(msg.sender) onlyAllowedTokens(_assetAddress) external returns(uint256){\n        (address aTokenAddress,,) = IProtocolDataProvider(dataProviderAddr).getReserveTokensAddresses(_assetAddress);\n        uint256 aTokenBalance = IERC20(aTokenAddress).balanceOf(address(this));\n        uint256 interestEarned = aTokenBalance - totalDeposits[_assetAddress];\n        ILendingPool(lendingPoolAddr).withdraw(_assetAddress, interestEarned, receiver);\n        claimIndex = getAaveLiquidityIndex(_assetAddress);\n        interestWithdrawn[_assetAddress] += interestEarned;\n        return interestEarned;\n    }\n\n    /*function getUserBalance(address _userAddr, address _token) external view returns(uint256){\n        return depositors[_userAddr][_token];\n    }*/\n\n    function getTotalDeposits(address _token) external view returns(uint256){\n        return totalDeposits[_token];\n    }\n\n    function getAcceptedTokens() external view returns(address[] memory){\n        return acceptedTokens;\n    }\n\n    function getName() external view returns(string memory){\n        return name;\n    }\n\n    function getAbout() external view returns(string memory){\n        return about;\n    }\n\n    function getATokenAddress(address _assetAddress) external view returns(address){\n        (address aTokenAddress,,) = IProtocolDataProvider(dataProviderAddr).getReserveTokensAddresses(_assetAddress);\n        return aTokenAddress;\n    }\n\n    function getUnclaimedInterest(address _assetAddress) external view returns (uint256){\n        (address aTokenAddress,,) = IProtocolDataProvider(dataProviderAddr).getReserveTokensAddresses(_assetAddress);\n            uint256 aTokenBalance = IERC20(aTokenAddress).balanceOf(address(this));\n            return aTokenBalance - totalDeposits[_assetAddress];\n    }\n\n    function getClaimedInterest(address _assetAddress) external view returns (uint256){\n        return interestWithdrawn[_assetAddress];\n    }\n\n    function getATokenBalance(address _assetAddress) external view returns (uint256){\n        (address aTokenAddress,,) = IProtocolDataProvider(dataProviderAddr).getReserveTokensAddresses(_assetAddress);\n        return IERC20(aTokenAddress).balanceOf(address(this));\n    }\n\n    function getRecipient() external view returns(address){\n        return receiver;\n    }\n\n    function getByteCode() external view returns(bytes memory) {\n        return address(this).code;\n    }\n\n    function getHashByteCode() public view returns(bytes32) {\n        return keccak256(abi.encodePacked(address(this).code));\n    }\n\n    function getReserveNormalizedIncome(address _asset) public view returns(uint256){\n        return ILendingPool(lendingPoolAddr).getReserveNormalizedIncome(_asset);\n    }\n\n    function getAaveLiquidityIndex(address _asset) public view returns(uint256 liquidityIndex){\n        (,,,,,,,liquidityIndex,,) = IProtocolDataProvider(dataProviderAddr).getReserveData(_asset);\n    }\n}",
  "sourcePath": "/home/smeee/just_cause/contracts/JustCausePool.sol",
  "compiler": {
    "name": "solc",
    "version": "0.8.9+commit.e5eed63a.Emscripten.clang"
  },
  "schemaVersion": "3.4.3",
  "updatedAt": "2022-02-20T03:16:45.179Z",
  "devdoc": {
    "details": "comments",
    "kind": "dev",
    "methods": {},
    "version": 1
  },
  "userdoc": {
    "kind": "user",
    "methods": {},
    "notice": "This is a proof of concept starter contract, showing how uncollaterised loans are possible using Aave v2 credit delegation. This example supports stable interest rate borrows. It is not production ready (!). User permissions and user accounting of loans should be implemented.",
    "version": 1
  }
}