{
  "contractName": "JustCausePoolAaveV3",
  "abi": [
    {
      "inputs": [],
      "stateMutability": "nonpayable",
      "type": "constructor"
    },
    {
      "anonymous": false,
      "inputs": [
        {
          "indexed": false,
          "internalType": "address",
          "name": "tokenAddress",
          "type": "address"
        },
        {
          "indexed": false,
          "internalType": "address",
          "name": "depositor",
          "type": "address"
        },
        {
          "indexed": false,
          "internalType": "uint256",
          "name": "amount",
          "type": "uint256"
        }
      ],
      "name": "Deposit",
      "type": "event"
    },
    {
      "anonymous": false,
      "inputs": [
        {
          "indexed": false,
          "internalType": "address",
          "name": "tokenAddress",
          "type": "address"
        },
        {
          "indexed": false,
          "internalType": "address",
          "name": "caller",
          "type": "address"
        },
        {
          "indexed": false,
          "internalType": "uint256",
          "name": "amount",
          "type": "uint256"
        }
      ],
      "name": "Withdraw",
      "type": "event"
    },
    {
      "anonymous": false,
      "inputs": [
        {
          "indexed": false,
          "internalType": "address",
          "name": "tokenAddress",
          "type": "address"
        },
        {
          "indexed": false,
          "internalType": "uint256",
          "name": "amount",
          "type": "uint256"
        }
      ],
      "name": "WithdrawDonations",
      "type": "event"
    },
    {
      "inputs": [
        {
          "internalType": "address[]",
          "name": "_acceptedTokens",
          "type": "address[]"
        },
        {
          "internalType": "string",
          "name": "_name",
          "type": "string"
        },
        {
          "internalType": "string",
          "name": "_about",
          "type": "string"
        },
        {
          "internalType": "string",
          "name": "_picHash",
          "type": "string"
        },
        {
          "internalType": "string",
          "name": "_metaUri",
          "type": "string"
        },
        {
          "internalType": "address",
          "name": "_receiver",
          "type": "address"
        },
        {
          "internalType": "address",
          "name": "_poolAddr",
          "type": "address"
        },
        {
          "internalType": "address",
          "name": "_wethGatewayAddr",
          "type": "address"
        },
        {
          "internalType": "bool",
          "name": "_isVerified",
          "type": "bool"
        }
      ],
      "name": "initialize",
      "outputs": [],
      "stateMutability": "nonpayable",
      "type": "function"
    },
    {
      "inputs": [
        {
          "internalType": "address",
          "name": "_assetAddress",
          "type": "address"
        },
        {
          "internalType": "uint256",
          "name": "_amount",
          "type": "uint256"
        }
      ],
      "name": "deposit",
      "outputs": [],
      "stateMutability": "nonpayable",
      "type": "function"
    },
    {
      "inputs": [
        {
          "internalType": "address",
          "name": "_wethAddress",
          "type": "address"
        },
        {
          "internalType": "uint256",
          "name": "_value",
          "type": "uint256"
        }
      ],
      "name": "depositETH",
      "outputs": [],
      "stateMutability": "nonpayable",
      "type": "function"
    },
    {
      "inputs": [
        {
          "internalType": "address",
          "name": "_assetAddress",
          "type": "address"
        },
        {
          "internalType": "uint256",
          "name": "_amount",
          "type": "uint256"
        },
        {
          "internalType": "address",
          "name": "_depositor",
          "type": "address"
        },
        {
          "internalType": "bool",
          "name": "_isETH",
          "type": "bool"
        }
      ],
      "name": "withdraw",
      "outputs": [],
      "stateMutability": "nonpayable",
      "type": "function"
    },
    {
      "inputs": [
        {
          "internalType": "address",
          "name": "_assetAddress",
          "type": "address"
        },
        {
          "internalType": "bool",
          "name": "_isETH",
          "type": "bool"
        }
      ],
      "name": "withdrawDonations",
      "outputs": [
        {
          "internalType": "uint256",
          "name": "",
          "type": "uint256"
        }
      ],
      "stateMutability": "nonpayable",
      "type": "function"
    },
    {
      "inputs": [],
      "name": "getAcceptedTokens",
      "outputs": [
        {
          "internalType": "address[]",
          "name": "",
          "type": "address[]"
        }
      ],
      "stateMutability": "view",
      "type": "function"
    },
    {
      "inputs": [],
      "name": "getName",
      "outputs": [
        {
          "internalType": "string",
          "name": "",
          "type": "string"
        }
      ],
      "stateMutability": "view",
      "type": "function"
    },
    {
      "inputs": [],
      "name": "getAbout",
      "outputs": [
        {
          "internalType": "string",
          "name": "",
          "type": "string"
        }
      ],
      "stateMutability": "view",
      "type": "function"
    },
    {
      "inputs": [],
      "name": "getPicHash",
      "outputs": [
        {
          "internalType": "string",
          "name": "",
          "type": "string"
        }
      ],
      "stateMutability": "view",
      "type": "function"
    },
    {
      "inputs": [],
      "name": "getMetaUri",
      "outputs": [
        {
          "internalType": "string",
          "name": "",
          "type": "string"
        }
      ],
      "stateMutability": "view",
      "type": "function"
    },
    {
      "inputs": [],
      "name": "getIsVerified",
      "outputs": [
        {
          "internalType": "bool",
          "name": "",
          "type": "bool"
        }
      ],
      "stateMutability": "view",
      "type": "function"
    },
    {
      "inputs": [],
      "name": "getRecipient",
      "outputs": [
        {
          "internalType": "address",
          "name": "",
          "type": "address"
        }
      ],
      "stateMutability": "view",
      "type": "function"
    },
    {
      "inputs": [],
      "name": "getPoolInfo",
      "outputs": [
        {
          "internalType": "address[]",
          "name": "",
          "type": "address[]"
        },
        {
          "internalType": "address",
          "name": "",
          "type": "address"
        },
        {
          "internalType": "bool",
          "name": "",
          "type": "bool"
        },
        {
          "internalType": "string",
          "name": "",
          "type": "string"
        },
        {
          "internalType": "string",
          "name": "",
          "type": "string"
        },
        {
          "internalType": "string",
          "name": "",
          "type": "string"
        },
        {
          "internalType": "string",
          "name": "",
          "type": "string"
        }
      ],
      "stateMutability": "view",
      "type": "function"
    },
    {
      "inputs": [
        {
          "internalType": "address",
          "name": "_assetAddress",
          "type": "address"
        }
      ],
      "name": "getATokenAddress",
      "outputs": [
        {
          "internalType": "address",
          "name": "aTokenAddress",
          "type": "address"
        }
      ],
      "stateMutability": "view",
      "type": "function"
    },
    {
      "inputs": [
        {
          "internalType": "address",
          "name": "_assetAddress",
          "type": "address"
        }
      ],
      "name": "getTotalDeposits",
      "outputs": [
        {
          "internalType": "uint256",
          "name": "",
          "type": "uint256"
        }
      ],
      "stateMutability": "view",
      "type": "function"
    },
    {
      "inputs": [
        {
          "internalType": "address",
          "name": "_assetAddress",
          "type": "address"
        }
      ],
      "name": "getUnclaimedInterest",
      "outputs": [
        {
          "internalType": "uint256",
          "name": "",
          "type": "uint256"
        }
      ],
      "stateMutability": "view",
      "type": "function"
    },
    {
      "inputs": [
        {
          "internalType": "address",
          "name": "_assetAddress",
          "type": "address"
        }
      ],
      "name": "getClaimedInterest",
      "outputs": [
        {
          "internalType": "uint256",
          "name": "",
          "type": "uint256"
        }
      ],
      "stateMutability": "view",
      "type": "function"
    },
    {
      "inputs": [
        {
          "internalType": "address",
          "name": "_assetAddress",
          "type": "address"
        }
      ],
      "name": "getATokenBalance",
      "outputs": [
        {
          "internalType": "uint256",
          "name": "",
          "type": "uint256"
        }
      ],
      "stateMutability": "view",
      "type": "function"
    },
    {
      "inputs": [
        {
          "internalType": "address",
          "name": "_assetAddress",
          "type": "address"
        }
      ],
      "name": "getReserveNormalizedIncome",
      "outputs": [
        {
          "internalType": "uint256",
          "name": "",
          "type": "uint256"
        }
      ],
      "stateMutability": "view",
      "type": "function"
    },
    {
      "inputs": [
        {
          "internalType": "address",
          "name": "_assetAddress",
          "type": "address"
        }
      ],
      "name": "getAaveLiquidityIndex",
      "outputs": [
        {
          "internalType": "uint256",
          "name": "liquidityIndex",
          "type": "uint256"
        }
      ],
      "stateMutability": "view",
      "type": "function"
    },
    {
      "inputs": [
        {
          "internalType": "address",
          "name": "_asset",
          "type": "address"
        }
      ],
      "name": "getPoolTokenInfo",
      "outputs": [
        {
          "internalType": "uint256",
          "name": "",
          "type": "uint256"
        },
        {
          "internalType": "uint256",
          "name": "",
          "type": "uint256"
        },
        {
          "internalType": "uint256",
          "name": "",
          "type": "uint256"
        },
        {
          "internalType": "uint256",
          "name": "",
          "type": "uint256"
        },
        {
          "internalType": "uint256",
          "name": "",
          "type": "uint256"
        },
        {
          "internalType": "uint256",
          "name": "",
          "type": "uint256"
        },
        {
          "internalType": "address",
          "name": "",
          "type": "address"
        }
      ],
      "stateMutability": "view",
      "type": "function"
    }
  ],
  "bytecode": "0x608060405234801561001057600080fd5b506001600360006101000a81548160ff021916908315150217905550612f2f8061003b6000396000f3fe608060405234801561001057600080fd5b50600436106101375760003560e01c8063343d693b116100b85780635ff189b91161007c5780635ff189b91461033e57806360246c881461036e57806367e0e07614610392578063711cc005146103c85780638aebe8d6146103f8578063d15e00531461042857610137565b8063343d693b14610298578063357286d7146102b65780633735ef88146102d4578063373d7c3f1461030457806347e7ef241461032257610137565b806317d7de7c116100ff57806317d7de7c146101f25780631b88094d146102105780632e5990541461022e5780632f7570061461024a578063322ce09e1461026857610137565b80630251cfa11461013c5780630712f6b31461016c57806312eeff7e1461019c578063150aefee146101b8578063155d8e9c146101d4575b600080fd5b61015660048036038101906101519190611f1a565b610458565b6040516101639190611f60565b60405180910390f35b61018660048036038101906101819190611f1a565b6104a1565b6040516101939190611f60565b60405180910390f35b6101b660048036038101906101b19190611fdf565b610540565b005b6101d260048036038101906101cd9190612254565b610897565b005b6101dc610c4d565b6040516101e99190612432565b60405180910390f35b6101fa610cdf565b6040516102079190612432565b60405180910390f35b610218610d71565b6040516102259190612463565b60405180910390f35b6102486004803603810190610243919061247e565b610d9b565b005b610252610e87565b60405161025f919061257c565b60405180910390f35b610282600480360381019061027d919061259e565b610f15565b60405161028f9190611f60565b60405180910390f35b6102a0611358565b6040516102ad9190612432565b60405180910390f35b6102be6113ea565b6040516102cb91906125ed565b60405180910390f35b6102ee60048036038101906102e99190611f1a565b611401565b6040516102fb9190611f60565b60405180910390f35b61030c6114f0565b6040516103199190612432565b60405180910390f35b61033c6004803603810190610337919061247e565b611582565b005b61035860048036038101906103539190611f1a565b61175b565b6040516103659190611f60565b60405180910390f35b6103766117a4565b6040516103899796959493929190612608565b60405180910390f35b6103ac60048036038101906103a79190611f1a565b611abb565b6040516103bf979695949392919061269a565b60405180910390f35b6103e260048036038101906103dd9190611f1a565b611b1e565b6040516103ef9190612463565b60405180910390f35b610412600480360381019061040d9190611f1a565b611bd8565b60405161041f9190611f60565b60405180910390f35b610442600480360381019061043d9190611f1a565b611ca3565b60405161044f9190611f60565b60405180910390f35b6000600160008373ffffffffffffffffffffffffffffffffffffffff1673ffffffffffffffffffffffffffffffffffffffff168152602001908152602001600020549050919050565b6000806104ad83611b1e565b90508073ffffffffffffffffffffffffffffffffffffffff166370a08231306040518263ffffffff1660e01b81526004016104e89190612463565b60206040518083038186803b15801561050057600080fd5b505afa158015610514573d6000803e3d6000fd5b505050506040513d601f19601f82011682018060405250810190610538919061271e565b915050919050565b338073ffffffffffffffffffffffffffffffffffffffff16600860009054906101000a900473ffffffffffffffffffffffffffffffffffffffff1673ffffffffffffffffffffffffffffffffffffffff16146105d1576040517f08c379a00000000000000000000000000000000000000000000000000000000081526004016105c890612797565b60405180910390fd5b83600160008773ffffffffffffffffffffffffffffffffffffffff1673ffffffffffffffffffffffffffffffffffffffff168152602001908152602001600020600082825461062091906127e6565b92505081905550816106e357600460009054906101000a900473ffffffffffffffffffffffffffffffffffffffff1673ffffffffffffffffffffffffffffffffffffffff166369328dec8686866040518463ffffffff1660e01b815260040161068b9392919061281a565b602060405180830381600087803b1580156106a557600080fd5b505af11580156106b9573d6000803e3d6000fd5b505050506040513d601f19601f820116820180604052508101906106dd919061271e565b50610855565b60006106ee86611b1e565b90508073ffffffffffffffffffffffffffffffffffffffff1663095ea7b3600560009054906101000a900473ffffffffffffffffffffffffffffffffffffffff16876040518363ffffffff1660e01b815260040161074d929190612851565b602060405180830381600087803b15801561076757600080fd5b505af115801561077b573d6000803e3d6000fd5b505050506040513d601f19601f8201168201806040525081019061079f919061288f565b50600560009054906101000a900473ffffffffffffffffffffffffffffffffffffffff1673ffffffffffffffffffffffffffffffffffffffff166380500d20600460009054906101000a900473ffffffffffffffffffffffffffffffffffffffff1687876040518463ffffffff1660e01b81526004016108219392919061281a565b600060405180830381600087803b15801561083b57600080fd5b505af115801561084f573d6000803e3d6000fd5b50505050505b7f9b1bfa7fa9ee420a16e124f794c35ac9f90472acc99140eb2f6447c714cad8eb858486604051610888939291906128bc565b60405180910390a15050505050565b87601e60008290508160ff168151106108e5576040517f08c379a00000000000000000000000000000000000000000000000000000000081526004016108dc9061293f565b60405180910390fd5b600060019054906101000a900460ff1661090d5760008054906101000a900460ff1615610916565b610915611d57565b5b610955576040517f08c379a000000000000000000000000000000000000000000000000000000000815260040161094c906129d1565b60405180910390fd5b60008060019054906101000a900460ff1615905080156109a5576001600060016101000a81548160ff02191690831515021790555060016000806101000a81548160ff0219169083151502179055505b60001515600360009054906101000a900460ff161515146109fb576040517f08c379a00000000000000000000000000000000000000000000000000000000081526004016109f290612a3d565b60405180910390fd5b600073ffffffffffffffffffffffffffffffffffffffff16600760009054906101000a900473ffffffffffffffffffffffffffffffffffffffff1673ffffffffffffffffffffffffffffffffffffffff1614610a8c576040517f08c379a0000000000000000000000000000000000000000000000000000000008152600401610a8390612aa9565b60405180910390fd5b87600760006101000a81548173ffffffffffffffffffffffffffffffffffffffff021916908373ffffffffffffffffffffffffffffffffffffffff16021790555033600860006101000a81548173ffffffffffffffffffffffffffffffffffffffff021916908373ffffffffffffffffffffffffffffffffffffffff1602179055508b60099080519060200190610b24929190611d7b565b508a600a9080519060200190610b3b929190611d7b565b5089600b9080519060200190610b52929190611d7b565b5088600c9080519060200190610b69929190611d7b565b5084600d60006101000a81548160ff02191690831515021790555086600460006101000a81548173ffffffffffffffffffffffffffffffffffffffff021916908373ffffffffffffffffffffffffffffffffffffffff16021790555085600560006101000a81548173ffffffffffffffffffffffffffffffffffffffff021916908373ffffffffffffffffffffffffffffffffffffffff1602179055508c60069080519060200190610c1c929190611e01565b508015610c3e5760008060016101000a81548160ff0219169083151502179055505b50505050505050505050505050565b6060600b8054610c5c90612af8565b80601f0160208091040260200160405190810160405280929190818152602001828054610c8890612af8565b8015610cd55780601f10610caa57610100808354040283529160200191610cd5565b820191906000526020600020905b815481529060010190602001808311610cb857829003601f168201915b5050505050905090565b606060098054610cee90612af8565b80601f0160208091040260200160405190810160405280929190818152602001828054610d1a90612af8565b8015610d675780601f10610d3c57610100808354040283529160200191610d67565b820191906000526020600020905b815481529060010190602001808311610d4a57829003601f168201915b5050505050905090565b6000600760009054906101000a900473ffffffffffffffffffffffffffffffffffffffff16905090565b338073ffffffffffffffffffffffffffffffffffffffff16600860009054906101000a900473ffffffffffffffffffffffffffffffffffffffff1673ffffffffffffffffffffffffffffffffffffffff1614610e2c576040517f08c379a0000000000000000000000000000000000000000000000000000000008152600401610e2390612797565b60405180910390fd5b81600160008573ffffffffffffffffffffffffffffffffffffffff1673ffffffffffffffffffffffffffffffffffffffff1681526020019081526020016000206000828254610e7b9190612b2a565b92505081905550505050565b60606006805480602002602001604051908101604052809291908181526020018280548015610f0b57602002820191906000526020600020905b8160009054906101000a900473ffffffffffffffffffffffffffffffffffffffff1673ffffffffffffffffffffffffffffffffffffffff1681526020019060010190808311610ec1575b5050505050905090565b6000338073ffffffffffffffffffffffffffffffffffffffff16600860009054906101000a900473ffffffffffffffffffffffffffffffffffffffff1673ffffffffffffffffffffffffffffffffffffffff1614610fa8576040517f08c379a0000000000000000000000000000000000000000000000000000000008152600401610f9f90612797565b60405180910390fd5b6000610fb385611b1e565b905060008173ffffffffffffffffffffffffffffffffffffffff166370a08231306040518263ffffffff1660e01b8152600401610ff09190612463565b60206040518083038186803b15801561100857600080fd5b505afa15801561101c573d6000803e3d6000fd5b505050506040513d601f19601f82011682018060405250810190611040919061271e565b90506000600160008873ffffffffffffffffffffffffffffffffffffffff1673ffffffffffffffffffffffffffffffffffffffff168152602001908152602001600020548261108f91906127e6565b905080600260008973ffffffffffffffffffffffffffffffffffffffff1673ffffffffffffffffffffffffffffffffffffffff16815260200190815260200160002060008282546110e09190612b2a565b92505081905550856111c557600460009054906101000a900473ffffffffffffffffffffffffffffffffffffffff1673ffffffffffffffffffffffffffffffffffffffff166369328dec8883600760009054906101000a900473ffffffffffffffffffffffffffffffffffffffff166040518463ffffffff1660e01b815260040161116d9392919061281a565b602060405180830381600087803b15801561118757600080fd5b505af115801561119b573d6000803e3d6000fd5b505050506040513d601f19601f820116820180604052508101906111bf919061271e565b5061134b565b8273ffffffffffffffffffffffffffffffffffffffff1663095ea7b3600560009054906101000a900473ffffffffffffffffffffffffffffffffffffffff16836040518363ffffffff1660e01b8152600401611222929190612851565b602060405180830381600087803b15801561123c57600080fd5b505af1158015611250573d6000803e3d6000fd5b505050506040513d601f19601f82011682018060405250810190611274919061288f565b50600560009054906101000a900473ffffffffffffffffffffffffffffffffffffffff1673ffffffffffffffffffffffffffffffffffffffff166380500d20600460009054906101000a900473ffffffffffffffffffffffffffffffffffffffff1683600760009054906101000a900473ffffffffffffffffffffffffffffffffffffffff166040518463ffffffff1660e01b81526004016113189392919061281a565b600060405180830381600087803b15801561133257600080fd5b505af1158015611346573d6000803e3d6000fd5b505050505b8094505050505092915050565b6060600a805461136790612af8565b80601f016020809104026020016040519081016040528092919081815260200182805461139390612af8565b80156113e05780601f106113b5576101008083540402835291602001916113e0565b820191906000526020600020905b8154815290600101906020018083116113c357829003601f168201915b5050505050905090565b6000600d60009054906101000a900460ff16905090565b60008061140d83611b1e565b905060008173ffffffffffffffffffffffffffffffffffffffff166370a08231306040518263ffffffff1660e01b815260040161144a9190612463565b60206040518083038186803b15801561146257600080fd5b505afa158015611476573d6000803e3d6000fd5b505050506040513d601f19601f8201168201806040525081019061149a919061271e565b9050600160008573ffffffffffffffffffffffffffffffffffffffff1673ffffffffffffffffffffffffffffffffffffffff16815260200190815260200160002054816114e791906127e6565b92505050919050565b6060600c80546114ff90612af8565b80601f016020809104026020016040519081016040528092919081815260200182805461152b90612af8565b80156115785780601f1061154d57610100808354040283529160200191611578565b820191906000526020600020905b81548152906001019060200180831161155b57829003601f168201915b5050505050905090565b338073ffffffffffffffffffffffffffffffffffffffff16600860009054906101000a900473ffffffffffffffffffffffffffffffffffffffff1673ffffffffffffffffffffffffffffffffffffffff1614611613576040517f08c379a000000000000000000000000000000000000000000000000000000000815260040161160a90612797565b60405180910390fd5b82600080600090505b6006805490508160ff1610156116bd5760068160ff168154811061164357611642612b80565b5b9060005260206000200160009054906101000a900473ffffffffffffffffffffffffffffffffffffffff1673ffffffffffffffffffffffffffffffffffffffff168373ffffffffffffffffffffffffffffffffffffffff1614156116aa57600191506116bd565b80806116b590612bbc565b91505061161c565b50806116fe576040517f08c379a00000000000000000000000000000000000000000000000000000000081526004016116f590612c32565b60405180910390fd5b83600160008773ffffffffffffffffffffffffffffffffffffffff1673ffffffffffffffffffffffffffffffffffffffff168152602001908152602001600020600082825461174d9190612b2a565b925050819055505050505050565b6000600260008373ffffffffffffffffffffffffffffffffffffffff1673ffffffffffffffffffffffffffffffffffffffff168152602001908152602001600020549050919050565b60606000806060806060806006600760009054906101000a900473ffffffffffffffffffffffffffffffffffffffff16600d60009054906101000a900460ff16600c600b600a60098680548060200260200160405190810160405280929190818152602001828054801561186d57602002820191906000526020600020905b8160009054906101000a900473ffffffffffffffffffffffffffffffffffffffff1673ffffffffffffffffffffffffffffffffffffffff1681526020019060010190808311611823575b5050505050965083805461188090612af8565b80601f01602080910402602001604051908101604052809291908181526020018280546118ac90612af8565b80156118f95780601f106118ce576101008083540402835291602001916118f9565b820191906000526020600020905b8154815290600101906020018083116118dc57829003601f168201915b5050505050935082805461190c90612af8565b80601f016020809104026020016040519081016040528092919081815260200182805461193890612af8565b80156119855780601f1061195a57610100808354040283529160200191611985565b820191906000526020600020905b81548152906001019060200180831161196857829003601f168201915b5050505050925081805461199890612af8565b80601f01602080910402602001604051908101604052809291908181526020018280546119c490612af8565b8015611a115780601f106119e657610100808354040283529160200191611a11565b820191906000526020600020905b8154815290600101906020018083116119f457829003601f168201915b50505050509150808054611a2490612af8565b80601f0160208091040260200160405190810160405280929190818152602001828054611a5090612af8565b8015611a9d5780601f10611a7257610100808354040283529160200191611a9d565b820191906000526020600020905b815481529060010190602001808311611a8057829003601f168201915b50505050509050965096509650965096509650965090919293949596565b6000806000806000806000611acf88611bd8565b611ad889611ca3565b611ae18a6104a1565b611aea8b61175b565b611af38c611401565b611afc8d610458565b611b058e611b1e565b9650965096509650965096509650919395979092949650565b6000600460009054906101000a900473ffffffffffffffffffffffffffffffffffffffff1673ffffffffffffffffffffffffffffffffffffffff166335ea6a75836040518263ffffffff1660e01b8152600401611b7b9190612463565b6101e06040518083038186803b158015611b9457600080fd5b505afa158015611ba8573d6000803e3d6000fd5b505050506040513d601f19601f82011682018060405250810190611bcc9190612ecb565b61010001519050919050565b6000600460009054906101000a900473ffffffffffffffffffffffffffffffffffffffff1673ffffffffffffffffffffffffffffffffffffffff166335ea6a75836040518263ffffffff1660e01b8152600401611c359190612463565b6101e06040518083038186803b158015611c4e57600080fd5b505afa158015611c62573d6000803e3d6000fd5b505050506040513d601f19601f82011682018060405250810190611c869190612ecb565b602001516fffffffffffffffffffffffffffffffff169050919050565b6000600460009054906101000a900473ffffffffffffffffffffffffffffffffffffffff1673ffffffffffffffffffffffffffffffffffffffff1663d15e0053836040518263ffffffff1660e01b8152600401611d009190612463565b60206040518083038186803b158015611d1857600080fd5b505afa158015611d2c573d6000803e3d6000fd5b505050506040513d601f19601f82011682018060405250810190611d50919061271e565b9050919050565b6000611d6230611d68565b15905090565b600080823b905060008111915050919050565b828054611d8790612af8565b90600052602060002090601f016020900481019282611da95760008555611df0565b82601f10611dc257805160ff1916838001178555611df0565b82800160010185558215611df0579182015b82811115611def578251825591602001919060010190611dd4565b5b509050611dfd9190611e8b565b5090565b828054828255906000526020600020908101928215611e7a579160200282015b82811115611e795782518260006101000a81548173ffffffffffffffffffffffffffffffffffffffff021916908373ffffffffffffffffffffffffffffffffffffffff16021790555091602001919060010190611e21565b5b509050611e879190611e8b565b5090565b5b80821115611ea4576000816000905550600101611e8c565b5090565b6000604051905090565b600080fd5b600080fd5b600073ffffffffffffffffffffffffffffffffffffffff82169050919050565b6000611ee782611ebc565b9050919050565b611ef781611edc565b8114611f0257600080fd5b50565b600081359050611f1481611eee565b92915050565b600060208284031215611f3057611f2f611eb2565b5b6000611f3e84828501611f05565b91505092915050565b6000819050919050565b611f5a81611f47565b82525050565b6000602082019050611f756000830184611f51565b92915050565b611f8481611f47565b8114611f8f57600080fd5b50565b600081359050611fa181611f7b565b92915050565b60008115159050919050565b611fbc81611fa7565b8114611fc757600080fd5b50565b600081359050611fd981611fb3565b92915050565b60008060008060808587031215611ff957611ff8611eb2565b5b600061200787828801611f05565b945050602061201887828801611f92565b935050604061202987828801611f05565b925050606061203a87828801611fca565b91505092959194509250565b600080fd5b6000601f19601f8301169050919050565b7f4e487b7100000000000000000000000000000000000000000000000000000000600052604160045260246000fd5b6120948261204b565b810181811067ffffffffffffffff821117156120b3576120b261205c565b5b80604052505050565b60006120c6611ea8565b90506120d2828261208b565b919050565b600067ffffffffffffffff8211156120f2576120f161205c565b5b602082029050602081019050919050565b600080fd5b600061211b612116846120d7565b6120bc565b9050808382526020820190506020840283018581111561213e5761213d612103565b5b835b8181101561216757806121538882611f05565b845260208401935050602081019050612140565b5050509392505050565b600082601f83011261218657612185612046565b5b8135612196848260208601612108565b91505092915050565b600080fd5b600067ffffffffffffffff8211156121bf576121be61205c565b5b6121c88261204b565b9050602081019050919050565b82818337600083830152505050565b60006121f76121f2846121a4565b6120bc565b9050828152602081018484840111156122135761221261219f565b5b61221e8482856121d5565b509392505050565b600082601f83011261223b5761223a612046565b5b813561224b8482602086016121e4565b91505092915050565b60008060008060008060008060006101208a8c03121561227757612276611eb2565b5b60008a013567ffffffffffffffff81111561229557612294611eb7565b5b6122a18c828d01612171565b99505060208a013567ffffffffffffffff8111156122c2576122c1611eb7565b5b6122ce8c828d01612226565b98505060408a013567ffffffffffffffff8111156122ef576122ee611eb7565b5b6122fb8c828d01612226565b97505060608a013567ffffffffffffffff81111561231c5761231b611eb7565b5b6123288c828d01612226565b96505060808a013567ffffffffffffffff81111561234957612348611eb7565b5b6123558c828d01612226565b95505060a06123668c828d01611f05565b94505060c06123778c828d01611f05565b93505060e06123888c828d01611f05565b92505061010061239a8c828d01611fca565b9150509295985092959850929598565b600081519050919050565b600082825260208201905092915050565b60005b838110156123e45780820151818401526020810190506123c9565b838111156123f3576000848401525b50505050565b6000612404826123aa565b61240e81856123b5565b935061241e8185602086016123c6565b6124278161204b565b840191505092915050565b6000602082019050818103600083015261244c81846123f9565b905092915050565b61245d81611edc565b82525050565b60006020820190506124786000830184612454565b92915050565b6000806040838503121561249557612494611eb2565b5b60006124a385828601611f05565b92505060206124b485828601611f92565b9150509250929050565b600081519050919050565b600082825260208201905092915050565b6000819050602082019050919050565b6124f381611edc565b82525050565b600061250583836124ea565b60208301905092915050565b6000602082019050919050565b6000612529826124be565b61253381856124c9565b935061253e836124da565b8060005b8381101561256f57815161255688826124f9565b975061256183612511565b925050600181019050612542565b5085935050505092915050565b60006020820190508181036000830152612596818461251e565b905092915050565b600080604083850312156125b5576125b4611eb2565b5b60006125c385828601611f05565b92505060206125d485828601611fca565b9150509250929050565b6125e781611fa7565b82525050565b600060208201905061260260008301846125de565b92915050565b600060e0820190508181036000830152612622818a61251e565b90506126316020830189612454565b61263e60408301886125de565b818103606083015261265081876123f9565b9050818103608083015261266481866123f9565b905081810360a083015261267881856123f9565b905081810360c083015261268c81846123f9565b905098975050505050505050565b600060e0820190506126af600083018a611f51565b6126bc6020830189611f51565b6126c96040830188611f51565b6126d66060830187611f51565b6126e36080830186611f51565b6126f060a0830185611f51565b6126fd60c0830184612454565b98975050505050505050565b60008151905061271881611f7b565b92915050565b60006020828403121561273457612733611eb2565b5b600061274284828501612709565b91505092915050565b7f6e6f7420746865206f776e657200000000000000000000000000000000000000600082015250565b6000612781600d836123b5565b915061278c8261274b565b602082019050919050565b600060208201905081810360008301526127b081612774565b9050919050565b7f4e487b7100000000000000000000000000000000000000000000000000000000600052601160045260246000fd5b60006127f182611f47565b91506127fc83611f47565b92508282101561280f5761280e6127b7565b5b828203905092915050565b600060608201905061282f6000830186612454565b61283c6020830185611f51565b6128496040830184612454565b949350505050565b60006040820190506128666000830185612454565b6128736020830184611f51565b9392505050565b60008151905061288981611fb3565b92915050565b6000602082840312156128a5576128a4611eb2565b5b60006128b38482850161287a565b91505092915050565b60006060820190506128d16000830186612454565b6128de6020830185612454565b6128eb6040830184611f51565b949350505050565b7f737472696e67206f76657220636861726163746572206c696d69740000000000600082015250565b6000612929601b836123b5565b9150612934826128f3565b602082019050919050565b600060208201905081810360008301526129588161291c565b9050919050565b7f496e697469616c697a61626c653a20636f6e747261637420697320616c72656160008201527f647920696e697469616c697a6564000000000000000000000000000000000000602082015250565b60006129bb602e836123b5565b91506129c68261295f565b604082019050919050565b600060208201905081810360008301526129ea816129ae565b9050919050565b7f43616e6e6f7420696e697469616c697a65206261736500000000000000000000600082015250565b6000612a276016836123b5565b9150612a32826129f1565b602082019050919050565b60006020820190508181036000830152612a5681612a1a565b9050919050565b7f496e697469616c697a6520616c72656164792063616c6c656400000000000000600082015250565b6000612a936019836123b5565b9150612a9e82612a5d565b602082019050919050565b60006020820190508181036000830152612ac281612a86565b9050919050565b7f4e487b7100000000000000000000000000000000000000000000000000000000600052602260045260246000fd5b60006002820490506001821680612b1057607f821691505b60208210811415612b2457612b23612ac9565b5b50919050565b6000612b3582611f47565b9150612b4083611f47565b9250827fffffffffffffffffffffffffffffffffffffffffffffffffffffffffffffffff03821115612b7557612b746127b7565b5b828201905092915050565b7f4e487b7100000000000000000000000000000000000000000000000000000000600052603260045260246000fd5b600060ff82169050919050565b6000612bc782612baf565b915060ff821415612bdb57612bda6127b7565b5b600182019050919050565b7f746f6b656e206e6f7420616363657074656420627920706f6f6c000000000000600082015250565b6000612c1c601a836123b5565b9150612c2782612be6565b602082019050919050565b60006020820190508181036000830152612c4b81612c0f565b9050919050565b600080fd5b600060208284031215612c6d57612c6c612c52565b5b612c7760206120bc565b90506000612c8784828501612709565b60008301525092915050565b60006fffffffffffffffffffffffffffffffff82169050919050565b612cb881612c93565b8114612cc357600080fd5b50565b600081519050612cd581612caf565b92915050565b600064ffffffffff82169050919050565b612cf581612cdb565b8114612d0057600080fd5b50565b600081519050612d1281612cec565b92915050565b600061ffff82169050919050565b612d2f81612d18565b8114612d3a57600080fd5b50565b600081519050612d4c81612d26565b92915050565b600081519050612d6181611eee565b92915050565b60006101e08284031215612d7e57612d7d612c52565b5b612d896101e06120bc565b90506000612d9984828501612c57565b6000830152506020612dad84828501612cc6565b6020830152506040612dc184828501612cc6565b6040830152506060612dd584828501612cc6565b6060830152506080612de984828501612cc6565b60808301525060a0612dfd84828501612cc6565b60a08301525060c0612e1184828501612d03565b60c08301525060e0612e2584828501612d3d565b60e083015250610100612e3a84828501612d52565b61010083015250610120612e5084828501612d52565b61012083015250610140612e6684828501612d52565b61014083015250610160612e7c84828501612d52565b61016083015250610180612e9284828501612cc6565b610180830152506101a0612ea884828501612cc6565b6101a0830152506101c0612ebe84828501612cc6565b6101c08301525092915050565b60006101e08284031215612ee257612ee1611eb2565b5b6000612ef084828501612d67565b9150509291505056fea2646970667358221220c232c21088d6f7a42a6f7f66941275381b6baad57cbd09faed736d0246b6baf064736f6c63430008090033",
  "immutableReferences": {},
  "source": "// SPDX-License-Identifier: AGPL-3.0\npragma solidity 0.8.9;\n\nimport { IERC20, IPool, IPoolAddressesProvider, IWETHGateway} from './Interfaces.sol';\nimport { SafeERC20 } from './Libraries.sol';\nimport \"@openzeppelin/contracts/proxy/utils/Initializable.sol\";\n\n/**\n * @title JustCausePoolAaveV3 contract\n * @author JustCause\n * This is a proof of concept starter contract for lossless donations\n\n   Aave v3 is used to generate interest for crowdfunding\n\n   Contributors deposit tokens into JustCausePool which deposit\n   them into Aave lending protocol.\n\n   The interest earned is directed to the receiver associated with\n   the Pool.\n\n   When Contributors need access to their funds they withdraw original deposit\n   and interest accrued is left behind for the receiver to claim.\n\n * @dev To be covered by a proxy contract\n * @dev deposits, withdraws, withdrawDonations controlled by the PoolTracker contract (Master)\n **/\n\ncontract JustCausePoolAaveV3 is Initializable {\n\n    mapping(address => uint256) private totalDeposits;\n    mapping(address => uint256) private interestWithdrawn;\n    bool private isBase;\n\n    IPoolAddressesProvider provider;\n    address poolAddr;\n    address wethGatewayAddr;\n\n    address[] acceptedTokens;\n\n    event Deposit(address tokenAddress, address depositor, uint256 amount);\n    event Withdraw(address tokenAddress, address caller, uint256 amount);\n    event WithdrawDonations(address tokenAddress, uint256 amount);\n\n    address receiver;\n    address master;\n    string name;\n    string about;\n    string picHash;\n    string metaUri;\n    bool isVerified;\n\n    /**\n    * @dev Only tokens that are on the accepted list can be passed\n    * to functions marked by this modifier.\n    **/\n    modifier onlyAllowedTokens(address _tokenAddr){\n        bool isAccepted;\n        for (uint8 i = 0; i < acceptedTokens.length; i++){\n            if(_tokenAddr == acceptedTokens[i]){\n                isAccepted = true;\n                break;\n            }\n        }\n        require(isAccepted, \"token not accepted by pool\");\n        _;\n    }\n\n    /**\n    * @dev Only Receiver can call functions marked by this modifier.\n    **/\n    modifier onlyReceiver(address _sender){\n        require(receiver == _sender, \"not the receiver\");\n        _;\n    }\n\n    /**\n    * @dev Only Master can call functions marked by this modifier.\n    **/\n    modifier onlyMaster(address _sender){\n        require(master == _sender, \"not the owner\");\n        _;\n    }\n\n    /**\n    * @dev Limits string (pool name) to x characters when passed to\n    * functions marked by this modifier.\n    **/\n    modifier strLength(string memory _str, uint8 _limit ){\n        bytes memory strBytes = bytes(_str);\n        require(strBytes.length < _limit, \"string over character limit\");\n        _;\n    }\n\n    /**\n   * @dev Constructor.\n   */\n    constructor () {\n        isBase = true;\n    }\n\n    /**\n    * @notice Initializes the JustCause Pool.\n    * @dev Function is invoked by the PoolTacker contract when a Pool is created.\n    * @param _acceptedTokens List of tokens to be accepted by JCP.\n    * @param _name String name of JCP.\n    * @param _about ipfs hash of pool description of JCP.\n    * @param _picHash ipfs hash of pic of JCP.\n    * @param _metaUri meta info uri for nft of JCP.\n    * @param _receiver address of receiver of JCP donations.\n    * @param _isVerified indicates whether JCP is verified\n    **/\n    function initialize(\n        address[] memory _acceptedTokens,\n        string memory _name,\n        string memory _about,\n        string memory _picHash,\n        string memory _metaUri,\n        address _receiver,\n        address _poolAddr,\n        address _wethGatewayAddr,\n        bool _isVerified\n\n    ) external strLength(_name, 30) initializer() {\n\n        require(isBase == false, \"Cannot initialize base\");\n        require(receiver == address(0), \"Initialize already called\");\n\n        receiver = _receiver;\n        master = msg.sender;\n        name = _name;\n        about = _about;\n        picHash = _picHash;\n        metaUri = _metaUri;\n        isVerified = _isVerified;\n\n        poolAddr = _poolAddr;\n        wethGatewayAddr = _wethGatewayAddr;// polygon mumbai v3\n        acceptedTokens = _acceptedTokens;\n    }\n\n    /**\n    * @param _assetAddress The address of the underlying asset of the reserve\n    * @param _amount The amount of supplied assets\n    **/\n    function deposit(address _assetAddress, uint256 _amount) external  onlyMaster(msg.sender) onlyAllowedTokens(_assetAddress){\n        totalDeposits[_assetAddress] += _amount;\n    }\n\n    /**\n    * @param _wethAddress The address of the wrapped asset (eth/matic/...) for the chain\n    * @param _value The amount of supplied assets\n    **/\n    function depositETH(address _wethAddress, uint256 _value) external onlyMaster(msg.sender){\n        totalDeposits[_wethAddress] += _value;\n    }\n\n    /**\n    * @param _assetAddress The address of the underlying asset of the reserve\n    * @param _amount The amount of withdraw assets\n    * @param _depositor The address making the deposit\n    * @param _isETH bool indicating if asset is the base token of network (eth/matic/...)\n    **/\n    function withdraw(address _assetAddress, uint256 _amount, address _depositor, bool _isETH) onlyMaster(msg.sender) external {\n        totalDeposits[_assetAddress] -= _amount;\n        if(!_isETH){\n            IPool(poolAddr).withdraw(_assetAddress, _amount, _depositor);\n        }\n        else{\n            address aTokenAddress = getATokenAddress(_assetAddress);\n            IERC20(aTokenAddress).approve(wethGatewayAddr, _amount);\n            IWETHGateway(wethGatewayAddr).withdrawETH(poolAddr, _amount, _depositor);\n        }\n        emit Withdraw(_assetAddress, _depositor, _amount);\n    }\n\n    /**\n    * @param _assetAddress The address of the underlying asset of the reserve\n    * @param _isETH bool indicating if asset is the base token of network (eth/matic/...)\n    **/\n    function withdrawDonations(address _assetAddress, bool _isETH) onlyMaster(msg.sender) external returns(uint256){\n        address aTokenAddress = getATokenAddress(_assetAddress);\n        uint256 aTokenBalance = IERC20(aTokenAddress).balanceOf(address(this));\n        uint256 interestEarned = aTokenBalance - totalDeposits[_assetAddress];\n        interestWithdrawn[_assetAddress] += interestEarned;\n\n        if(!_isETH){\n            IPool(poolAddr).withdraw(_assetAddress, interestEarned, receiver);\n        }\n        else{\n            IERC20(aTokenAddress).approve(wethGatewayAddr, interestEarned);\n            IWETHGateway(wethGatewayAddr).withdrawETH(poolAddr, interestEarned, receiver);\n        }\n        return interestEarned;\n    }\n\n    /**\n    * @return acceptedTokens List of tokens to be accepted by JCP.\n    **/\n    function getAcceptedTokens() external view returns(address[] memory){\n        return acceptedTokens;\n    }\n\n    /**\n    * @return name String name of JCP.\n    **/\n    function getName() external view returns(string memory){\n        return name;\n    }\n\n    /**\n    * @return about ipfs hash of pool description of JCP.\n    **/\n    function getAbout() external view returns(string memory){\n        return about;\n    }\n\n    /**\n    * @return picHash ipfs hash of pic of JCP.\n    **/\n    function getPicHash() external view returns(string memory){\n        return picHash;\n    }\n\n    /**\n    * @return metaUri meta info uri for nft of JCP.\n    **/\n    function getMetaUri() external view returns(string memory){\n        return metaUri;\n    }\n\n    /**\n    * @return isVerified indicates whether JCP is verified\n    **/\n    function getIsVerified() external view returns(bool){\n        return isVerified;\n    }\n\n    /**\n    * @return receiver address of receiver of JCP donations.\n    **/\n    function getRecipient() external view returns(address){\n        return receiver;\n    }\n\n    /**\n    * @notice Returns general pool information\n    * @return acceptedTokens List of tokens to be accepted by JCP.\n    * @return name String name of JCP.\n    * @return about ipfs hash of pool description of JCP.\n    * @return picHash ipfs hash of pic of JCP.\n    * @return metaUri meta info uri for nft of JCP.\n    * @return receiver address of receiver of JCP donations.\n    * @return isVerified indicates whether JCP is verified\n    **/\n    function getPoolInfo() external view returns (address[] memory, address, bool, string memory, string memory, string memory, string memory){\n        return (acceptedTokens, receiver, isVerified, metaUri, picHash, about, name);\n    }\n\n    /**\n    * @param _assetAddress The address of the underlying asset of the reserve\n    * @return aTokenAddress address of Aave's aToken for asset\n    **/\n    function getATokenAddress(address _assetAddress) public view returns(address aTokenAddress){\n        aTokenAddress = IPool(poolAddr).getReserveData(_assetAddress).aTokenAddress;\n    }\n\n    /**\n    * @param _assetAddress The address of the underlying asset of the reserve\n    * @return totalDeposit total assets deposited in pool\n    **/\n    function getTotalDeposits(address _assetAddress) public view returns(uint256){\n        return totalDeposits[_assetAddress];\n    }\n\n    /**\n    * @param _assetAddress The address of the underlying asset of the reserve\n    * @return unclaimedInterest accrued interest that has not yet been claimed\n    **/\n    function getUnclaimedInterest(address _assetAddress) public view returns (uint256){\n        address aTokenAddress = getATokenAddress(_assetAddress);\n        uint256 aTokenBalance = IERC20(aTokenAddress).balanceOf(address(this));\n        return aTokenBalance - totalDeposits[_assetAddress];\n    }\n\n    /**\n    * @param _assetAddress The address of the underlying asset of the reserve\n    * @return claimedInterest interest that has been claimed (no longer in contract)\n    **/\n    function getClaimedInterest(address _assetAddress) public view returns (uint256){\n        return interestWithdrawn[_assetAddress];\n    }\n\n    /**\n    * @param _assetAddress The address of the underlying asset of the reserve\n    * @return aTokenBalance Pool balance of aToken for the asset\n    **/\n    function getATokenBalance(address _assetAddress) public view returns (uint256){\n        address aTokenAddress = getATokenAddress(_assetAddress);\n        return IERC20(aTokenAddress).balanceOf(address(this));\n    }\n\n    /**\n    * @param _assetAddress The address of the underlying asset of the reserve\n    * @return normalizedIncome reserve's normalized income\n    */\n    function getReserveNormalizedIncome(address _assetAddress) public view returns(uint256){\n        return IPool(poolAddr).getReserveNormalizedIncome(_assetAddress);\n    }\n\n    /**\n    * @param _assetAddress The address of the underlying asset of the reserve\n    * @return liquidityIndex reserve's liquidity index\n    */\n    function getAaveLiquidityIndex(address _assetAddress) public view returns(uint256 liquidityIndex){\n        liquidityIndex = IPool(poolAddr).getReserveData(_assetAddress).liquidityIndex;\n    }\n\n    /**\n    * @notice Returns asset specific pool information\n    * @param _asset The address of the underlying asset of the reserve\n    * @return liquidityIndex reserve's liquidity index\n    * @return normalizedIncome reserve's normalized income\n    * @return aTokenBalance Pool balance of aToken for the asset\n    * @return claimedInterest interest that has been claimed (no longer in contract)\n    * @return unclaimedInterest accrued interest that has not yet been claimed\n    * @return totalDeposit total assets deposited in pool\n    * @return aTokenAddress address of Aave's aToken for asset\n    */\n    function getPoolTokenInfo(address _asset) external view returns(uint256, uint256, uint256, uint256, uint256, uint256, address){\n        return(getAaveLiquidityIndex(_asset), getReserveNormalizedIncome(_asset), getATokenBalance(_asset),\n                getClaimedInterest(_asset), getUnclaimedInterest(_asset), getTotalDeposits(_asset), getATokenAddress(_asset));\n    }\n}",
  "sourcePath": "/home/smeee/just_cause/contracts/polygon/JustCausePoolAaveV3.sol",
  "compiler": {
    "name": "solc",
    "version": "0.8.9+commit.e5eed63a.Emscripten.clang"
  },
  "schemaVersion": "3.4.7",
  "updatedAt": "2022-05-01T03:08:02.832Z",
  "devdoc": {
    "author": "JustCause This is a proof of concept starter contract for lossless donations Aave v3 is used to generate interest for crowdfunding Contributors deposit tokens into JustCausePool which deposit them into Aave lending protocol. The interest earned is directed to the receiver associated with the Pool. When Contributors need access to their funds they withdraw original deposit and interest accrued is left behind for the receiver to claim.",
    "details": "To be covered by a proxy contractdeposits, withdraws, withdrawDonations controlled by the PoolTracker contract (Master)*",
    "kind": "dev",
    "methods": {
      "constructor": {
        "details": "Constructor."
      },
      "deposit(address,uint256)": {
        "params": {
          "_amount": "The amount of supplied assets*",
          "_assetAddress": "The address of the underlying asset of the reserve"
        }
      },
      "depositETH(address,uint256)": {
        "params": {
          "_value": "The amount of supplied assets*",
          "_wethAddress": "The address of the wrapped asset (eth/matic/...) for the chain"
        }
      },
      "getATokenAddress(address)": {
        "params": {
          "_assetAddress": "The address of the underlying asset of the reserve"
        },
        "returns": {
          "aTokenAddress": "address of Aave's aToken for asset*"
        }
      },
      "getATokenBalance(address)": {
        "params": {
          "_assetAddress": "The address of the underlying asset of the reserve"
        },
        "returns": {
          "_0": "aTokenBalance Pool balance of aToken for the asset*"
        }
      },
      "getAaveLiquidityIndex(address)": {
        "params": {
          "_assetAddress": "The address of the underlying asset of the reserve"
        },
        "returns": {
          "liquidityIndex": "reserve's liquidity index"
        }
      },
      "getAbout()": {
        "returns": {
          "_0": "about ipfs hash of pool description of JCP.*"
        }
      },
      "getAcceptedTokens()": {
        "returns": {
          "_0": "acceptedTokens List of tokens to be accepted by JCP.*"
        }
      },
      "getClaimedInterest(address)": {
        "params": {
          "_assetAddress": "The address of the underlying asset of the reserve"
        },
        "returns": {
          "_0": "claimedInterest interest that has been claimed (no longer in contract)*"
        }
      },
      "getIsVerified()": {
        "returns": {
          "_0": "isVerified indicates whether JCP is verified*"
        }
      },
      "getMetaUri()": {
        "returns": {
          "_0": "metaUri meta info uri for nft of JCP.*"
        }
      },
      "getName()": {
        "returns": {
          "_0": "name String name of JCP.*"
        }
      },
      "getPicHash()": {
        "returns": {
          "_0": "picHash ipfs hash of pic of JCP.*"
        }
      },
      "getPoolInfo()": {
        "returns": {
          "_0": "acceptedTokens List of tokens to be accepted by JCP.",
          "_1": "name String name of JCP.",
          "_2": "about ipfs hash of pool description of JCP.",
          "_3": "picHash ipfs hash of pic of JCP.",
          "_4": "metaUri meta info uri for nft of JCP.",
          "_5": "receiver address of receiver of JCP donations.",
          "_6": "isVerified indicates whether JCP is verified*"
        }
      },
      "getPoolTokenInfo(address)": {
        "params": {
          "_asset": "The address of the underlying asset of the reserve"
        },
        "returns": {
          "_0": "liquidityIndex reserve's liquidity index",
          "_1": "normalizedIncome reserve's normalized income",
          "_2": "aTokenBalance Pool balance of aToken for the asset",
          "_3": "claimedInterest interest that has been claimed (no longer in contract)",
          "_4": "unclaimedInterest accrued interest that has not yet been claimed",
          "_5": "totalDeposit total assets deposited in pool",
          "_6": "aTokenAddress address of Aave's aToken for asset"
        }
      },
      "getRecipient()": {
        "returns": {
          "_0": "receiver address of receiver of JCP donations.*"
        }
      },
      "getReserveNormalizedIncome(address)": {
        "params": {
          "_assetAddress": "The address of the underlying asset of the reserve"
        },
        "returns": {
          "_0": "normalizedIncome reserve's normalized income"
        }
      },
      "getTotalDeposits(address)": {
        "params": {
          "_assetAddress": "The address of the underlying asset of the reserve"
        },
        "returns": {
          "_0": "totalDeposit total assets deposited in pool*"
        }
      },
      "getUnclaimedInterest(address)": {
        "params": {
          "_assetAddress": "The address of the underlying asset of the reserve"
        },
        "returns": {
          "_0": "unclaimedInterest accrued interest that has not yet been claimed*"
        }
      },
      "initialize(address[],string,string,string,string,address,address,address,bool)": {
        "details": "Function is invoked by the PoolTacker contract when a Pool is created.",
        "params": {
          "_about": "ipfs hash of pool description of JCP.",
          "_acceptedTokens": "List of tokens to be accepted by JCP.",
          "_isVerified": "indicates whether JCP is verified*",
          "_metaUri": "meta info uri for nft of JCP.",
          "_name": "String name of JCP.",
          "_picHash": "ipfs hash of pic of JCP.",
          "_receiver": "address of receiver of JCP donations."
        }
      },
      "withdraw(address,uint256,address,bool)": {
        "params": {
          "_amount": "The amount of withdraw assets",
          "_assetAddress": "The address of the underlying asset of the reserve",
          "_depositor": "The address making the deposit",
          "_isETH": "bool indicating if asset is the base token of network (eth/matic/...)*"
        }
      },
      "withdrawDonations(address,bool)": {
        "params": {
          "_assetAddress": "The address of the underlying asset of the reserve",
          "_isETH": "bool indicating if asset is the base token of network (eth/matic/...)*"
        }
      }
    },
    "title": "JustCausePoolAaveV3 contract",
    "version": 1
  },
  "userdoc": {
    "kind": "user",
    "methods": {
      "getPoolInfo()": {
        "notice": "Returns general pool information"
      },
      "getPoolTokenInfo(address)": {
        "notice": "Returns asset specific pool information"
      },
      "initialize(address[],string,string,string,string,address,address,address,bool)": {
        "notice": "Initializes the JustCause Pool."
      }
    },
    "version": 1
  }
}