{
  "contractName": "JustCausePoolAaveV3",
  "abi": [
    {
      "inputs": [],
      "stateMutability": "nonpayable",
      "type": "constructor"
    },
    {
      "anonymous": false,
      "inputs": [
        {
          "indexed": false,
          "internalType": "address",
          "name": "tokenAddress",
          "type": "address"
        },
        {
          "indexed": false,
          "internalType": "address",
          "name": "depositor",
          "type": "address"
        },
        {
          "indexed": false,
          "internalType": "uint256",
          "name": "amount",
          "type": "uint256"
        }
      ],
      "name": "Deposit",
      "type": "event"
    },
    {
      "anonymous": false,
      "inputs": [
        {
          "indexed": false,
          "internalType": "address",
          "name": "tokenAddress",
          "type": "address"
        },
        {
          "indexed": false,
          "internalType": "address",
          "name": "caller",
          "type": "address"
        },
        {
          "indexed": false,
          "internalType": "uint256",
          "name": "amount",
          "type": "uint256"
        }
      ],
      "name": "Withdraw",
      "type": "event"
    },
    {
      "anonymous": false,
      "inputs": [
        {
          "indexed": false,
          "internalType": "address",
          "name": "tokenAddress",
          "type": "address"
        },
        {
          "indexed": false,
          "internalType": "uint256",
          "name": "amount",
          "type": "uint256"
        }
      ],
      "name": "WithdrawDonations",
      "type": "event"
    },
    {
      "inputs": [
        {
          "internalType": "address[]",
          "name": "_acceptedTokens",
          "type": "address[]"
        },
        {
          "internalType": "string",
          "name": "_name",
          "type": "string"
        },
        {
          "internalType": "string",
          "name": "_about",
          "type": "string"
        },
        {
          "internalType": "string",
          "name": "_picHash",
          "type": "string"
        },
        {
          "internalType": "string",
          "name": "_metaUri",
          "type": "string"
        },
        {
          "internalType": "address",
          "name": "_receiver",
          "type": "address"
        },
        {
          "internalType": "bool",
          "name": "_isVerified",
          "type": "bool"
        }
      ],
      "name": "initialize",
      "outputs": [],
      "stateMutability": "nonpayable",
      "type": "function"
    },
    {
      "inputs": [
        {
          "internalType": "address",
          "name": "_assetAddress",
          "type": "address"
        },
        {
          "internalType": "uint256",
          "name": "_amount",
          "type": "uint256"
        }
      ],
      "name": "deposit",
      "outputs": [],
      "stateMutability": "nonpayable",
      "type": "function"
    },
    {
      "inputs": [
        {
          "internalType": "address",
          "name": "_wethAddress",
          "type": "address"
        },
        {
          "internalType": "uint256",
          "name": "_value",
          "type": "uint256"
        }
      ],
      "name": "depositETH",
      "outputs": [],
      "stateMutability": "nonpayable",
      "type": "function"
    },
    {
      "inputs": [
        {
          "internalType": "address",
          "name": "_assetAddress",
          "type": "address"
        },
        {
          "internalType": "uint256",
          "name": "_amount",
          "type": "uint256"
        },
        {
          "internalType": "address",
          "name": "_depositor",
          "type": "address"
        },
        {
          "internalType": "bool",
          "name": "isETH",
          "type": "bool"
        }
      ],
      "name": "withdraw",
      "outputs": [],
      "stateMutability": "nonpayable",
      "type": "function"
    },
    {
      "inputs": [
        {
          "internalType": "address",
          "name": "_assetAddress",
          "type": "address"
        },
        {
          "internalType": "bool",
          "name": "isETH",
          "type": "bool"
        }
      ],
      "name": "withdrawDonations",
      "outputs": [
        {
          "internalType": "uint256",
          "name": "",
          "type": "uint256"
        }
      ],
      "stateMutability": "nonpayable",
      "type": "function"
    },
    {
      "inputs": [],
      "name": "getAcceptedTokens",
      "outputs": [
        {
          "internalType": "address[]",
          "name": "",
          "type": "address[]"
        }
      ],
      "stateMutability": "view",
      "type": "function"
    },
    {
      "inputs": [],
      "name": "getName",
      "outputs": [
        {
          "internalType": "string",
          "name": "",
          "type": "string"
        }
      ],
      "stateMutability": "view",
      "type": "function"
    },
    {
      "inputs": [],
      "name": "getAbout",
      "outputs": [
        {
          "internalType": "string",
          "name": "",
          "type": "string"
        }
      ],
      "stateMutability": "view",
      "type": "function"
    },
    {
      "inputs": [],
      "name": "getPicHash",
      "outputs": [
        {
          "internalType": "string",
          "name": "",
          "type": "string"
        }
      ],
      "stateMutability": "view",
      "type": "function"
    },
    {
      "inputs": [],
      "name": "getMetaUri",
      "outputs": [
        {
          "internalType": "string",
          "name": "",
          "type": "string"
        }
      ],
      "stateMutability": "view",
      "type": "function"
    },
    {
      "inputs": [],
      "name": "getIsVerified",
      "outputs": [
        {
          "internalType": "bool",
          "name": "",
          "type": "bool"
        }
      ],
      "stateMutability": "view",
      "type": "function"
    },
    {
      "inputs": [],
      "name": "getRecipient",
      "outputs": [
        {
          "internalType": "address",
          "name": "",
          "type": "address"
        }
      ],
      "stateMutability": "view",
      "type": "function"
    },
    {
      "inputs": [],
      "name": "getPoolInfo",
      "outputs": [
        {
          "internalType": "address[]",
          "name": "",
          "type": "address[]"
        },
        {
          "internalType": "address",
          "name": "",
          "type": "address"
        },
        {
          "internalType": "bool",
          "name": "",
          "type": "bool"
        },
        {
          "internalType": "string",
          "name": "",
          "type": "string"
        },
        {
          "internalType": "string",
          "name": "",
          "type": "string"
        },
        {
          "internalType": "string",
          "name": "",
          "type": "string"
        },
        {
          "internalType": "string",
          "name": "",
          "type": "string"
        }
      ],
      "stateMutability": "view",
      "type": "function"
    },
    {
      "inputs": [
        {
          "internalType": "address",
          "name": "_assetAddress",
          "type": "address"
        }
      ],
      "name": "getATokenAddress",
      "outputs": [
        {
          "internalType": "address",
          "name": "aTokenAddress",
          "type": "address"
        }
      ],
      "stateMutability": "view",
      "type": "function"
    },
    {
      "inputs": [
        {
          "internalType": "address",
          "name": "_assetAddress",
          "type": "address"
        }
      ],
      "name": "getTotalDeposits",
      "outputs": [
        {
          "internalType": "uint256",
          "name": "",
          "type": "uint256"
        }
      ],
      "stateMutability": "view",
      "type": "function"
    },
    {
      "inputs": [
        {
          "internalType": "address",
          "name": "_assetAddress",
          "type": "address"
        }
      ],
      "name": "getUnclaimedInterest",
      "outputs": [
        {
          "internalType": "uint256",
          "name": "",
          "type": "uint256"
        }
      ],
      "stateMutability": "view",
      "type": "function"
    },
    {
      "inputs": [
        {
          "internalType": "address",
          "name": "_assetAddress",
          "type": "address"
        }
      ],
      "name": "getClaimedInterest",
      "outputs": [
        {
          "internalType": "uint256",
          "name": "",
          "type": "uint256"
        }
      ],
      "stateMutability": "view",
      "type": "function"
    },
    {
      "inputs": [
        {
          "internalType": "address",
          "name": "_assetAddress",
          "type": "address"
        }
      ],
      "name": "getATokenBalance",
      "outputs": [
        {
          "internalType": "uint256",
          "name": "",
          "type": "uint256"
        }
      ],
      "stateMutability": "view",
      "type": "function"
    },
    {
      "inputs": [
        {
          "internalType": "address",
          "name": "_assetAddress",
          "type": "address"
        }
      ],
      "name": "getReserveNormalizedIncome",
      "outputs": [
        {
          "internalType": "uint256",
          "name": "",
          "type": "uint256"
        }
      ],
      "stateMutability": "view",
      "type": "function"
    },
    {
      "inputs": [
        {
          "internalType": "address",
          "name": "_assetAddress",
          "type": "address"
        }
      ],
      "name": "getAaveLiquidityIndex",
      "outputs": [
        {
          "internalType": "uint256",
          "name": "liquidityIndex",
          "type": "uint256"
        }
      ],
      "stateMutability": "view",
      "type": "function"
    },
    {
      "inputs": [
        {
          "internalType": "address",
          "name": "_asset",
          "type": "address"
        }
      ],
      "name": "getPoolTokenInfo",
      "outputs": [
        {
          "internalType": "uint256",
          "name": "",
          "type": "uint256"
        },
        {
          "internalType": "uint256",
          "name": "",
          "type": "uint256"
        },
        {
          "internalType": "uint256",
          "name": "",
          "type": "uint256"
        },
        {
          "internalType": "uint256",
          "name": "",
          "type": "uint256"
        },
        {
          "internalType": "uint256",
          "name": "",
          "type": "uint256"
        },
        {
          "internalType": "uint256",
          "name": "",
          "type": "uint256"
        },
        {
          "internalType": "address",
          "name": "",
          "type": "address"
        }
      ],
      "stateMutability": "view",
      "type": "function"
    }
  ],
  "bytecode": "0x608060405234801561001057600080fd5b506001600360006101000a81548160ff0219169083151502179055506132028061003b6000396000f3fe608060405234801561001057600080fd5b50600436106101375760003560e01c8063343d693b116100b85780635ff189b91161007c5780635ff189b91461033e57806360246c881461036e57806367e0e07614610392578063711cc005146103c85780638aebe8d6146103f8578063d15e00531461042857610137565b8063343d693b14610298578063357286d7146102b65780633735ef88146102d4578063373d7c3f1461030457806347e7ef241461032257610137565b806317d7de7c116100ff57806317d7de7c146101f25780631b88094d146102105780632e5990541461022e5780632f7570061461024a578063322ce09e1461026857610137565b80630251cfa11461013c5780630712f6b31461016c57806312eeff7e1461019c578063155d8e9c146101b857806316df1bab146101d6575b600080fd5b61015660048036038101906101519190612156565b610458565b604051610163919061219c565b60405180910390f35b61018660048036038101906101819190612156565b6104a1565b604051610193919061219c565b60405180910390f35b6101b660048036038101906101b1919061221b565b610540565b005b6101c06108e0565b6040516101cd919061231b565b60405180910390f35b6101f060048036038101906101eb919061253a565b610972565b005b6101fa610e2e565b604051610207919061231b565b60405180910390f35b610218610ec0565b6040516102259190612677565b60405180910390f35b61024860048036038101906102439190612692565b610eea565b005b610252610fd6565b60405161025f9190612790565b60405180910390f35b610282600480360381019061027d91906127b2565b611064565b60405161028f919061219c565b60405180910390f35b6102a0611594565b6040516102ad919061231b565b60405180910390f35b6102be611626565b6040516102cb9190612801565b60405180910390f35b6102ee60048036038101906102e99190612156565b61163d565b6040516102fb919061219c565b60405180910390f35b61030c61172c565b604051610319919061231b565b60405180910390f35b61033c60048036038101906103379190612692565b6117be565b005b61035860048036038101906103539190612156565b611997565b604051610365919061219c565b60405180910390f35b6103766119e0565b604051610389979695949392919061281c565b60405180910390f35b6103ac60048036038101906103a79190612156565b611cf7565b6040516103bf97969594939291906128ae565b60405180910390f35b6103e260048036038101906103dd9190612156565b611d5a565b6040516103ef9190612677565b60405180910390f35b610412600480360381019061040d9190612156565b611e14565b60405161041f919061219c565b60405180910390f35b610442600480360381019061043d9190612156565b611edf565b60405161044f919061219c565b60405180910390f35b6000600160008373ffffffffffffffffffffffffffffffffffffffff1673ffffffffffffffffffffffffffffffffffffffff168152602001908152602001600020549050919050565b6000806104ad83611d5a565b90508073ffffffffffffffffffffffffffffffffffffffff166370a08231306040518263ffffffff1660e01b81526004016104e89190612677565b60206040518083038186803b15801561050057600080fd5b505afa158015610514573d6000803e3d6000fd5b505050506040513d601f19601f820116820180604052508101906105389190612932565b915050919050565b338073ffffffffffffffffffffffffffffffffffffffff16600860009054906101000a900473ffffffffffffffffffffffffffffffffffffffff1673ffffffffffffffffffffffffffffffffffffffff16146105d1576040517f08c379a00000000000000000000000000000000000000000000000000000000081526004016105c8906129ab565b60405180910390fd5b82858560008111610617576040517f08c379a000000000000000000000000000000000000000000000000000000000815260040161060e90612a17565b60405180910390fd5b86600160008a73ffffffffffffffffffffffffffffffffffffffff1673ffffffffffffffffffffffffffffffffffffffff16815260200190815260200160002060008282546106669190612a66565b925050819055508461072957600460009054906101000a900473ffffffffffffffffffffffffffffffffffffffff1673ffffffffffffffffffffffffffffffffffffffff166369328dec8989896040518463ffffffff1660e01b81526004016106d193929190612a9a565b602060405180830381600087803b1580156106eb57600080fd5b505af11580156106ff573d6000803e3d6000fd5b505050506040513d601f19601f820116820180604052508101906107239190612932565b5061089b565b600061073489611d5a565b90508073ffffffffffffffffffffffffffffffffffffffff1663095ea7b3600560009054906101000a900473ffffffffffffffffffffffffffffffffffffffff168a6040518363ffffffff1660e01b8152600401610793929190612ad1565b602060405180830381600087803b1580156107ad57600080fd5b505af11580156107c1573d6000803e3d6000fd5b505050506040513d601f19601f820116820180604052508101906107e59190612b0f565b50600560009054906101000a900473ffffffffffffffffffffffffffffffffffffffff1673ffffffffffffffffffffffffffffffffffffffff166380500d20600460009054906101000a900473ffffffffffffffffffffffffffffffffffffffff168a8a6040518463ffffffff1660e01b815260040161086793929190612a9a565b600060405180830381600087803b15801561088157600080fd5b505af1158015610895573d6000803e3d6000fd5b50505050505b7f9b1bfa7fa9ee420a16e124f794c35ac9f90472acc99140eb2f6447c714cad8eb8887896040516108ce93929190612b3c565b60405180910390a15050505050505050565b6060600b80546108ef90612ba2565b80601f016020809104026020016040519081016040528092919081815260200182805461091b90612ba2565b80156109685780601f1061093d57610100808354040283529160200191610968565b820191906000526020600020905b81548152906001019060200180831161094b57829003601f168201915b5050505050905090565b85601e60008290508160ff168151106109c0576040517f08c379a00000000000000000000000000000000000000000000000000000000081526004016109b790612c20565b60405180910390fd5b600060019054906101000a900460ff166109e85760008054906101000a900460ff16156109f1565b6109f0611f93565b5b610a30576040517f08c379a0000000000000000000000000000000000000000000000000000000008152600401610a2790612cb2565b60405180910390fd5b60008060019054906101000a900460ff161590508015610a80576001600060016101000a81548160ff02191690831515021790555060016000806101000a81548160ff0219169083151502179055505b60001515600360009054906101000a900460ff16151514610ad6576040517f08c379a0000000000000000000000000000000000000000000000000000000008152600401610acd90612d1e565b60405180910390fd5b600073ffffffffffffffffffffffffffffffffffffffff16600760009054906101000a900473ffffffffffffffffffffffffffffffffffffffff1673ffffffffffffffffffffffffffffffffffffffff1614610b67576040517f08c379a0000000000000000000000000000000000000000000000000000000008152600401610b5e90612d8a565b60405180910390fd5b85600760006101000a81548173ffffffffffffffffffffffffffffffffffffffff021916908373ffffffffffffffffffffffffffffffffffffffff16021790555033600860006101000a81548173ffffffffffffffffffffffffffffffffffffffff021916908373ffffffffffffffffffffffffffffffffffffffff1602179055508960099080519060200190610bff929190611fb7565b5088600a9080519060200190610c16929190611fb7565b5087600b9080519060200190610c2d929190611fb7565b5086600c9080519060200190610c44929190611fb7565b5084600d60006101000a81548160ff021916908315150217905550735343b5ba672ae99d627a1c87866b8e53f47db2e6600360016101000a81548173ffffffffffffffffffffffffffffffffffffffff021916908373ffffffffffffffffffffffffffffffffffffffff160217905550600360019054906101000a900473ffffffffffffffffffffffffffffffffffffffff1673ffffffffffffffffffffffffffffffffffffffff1663026b1d5f6040518163ffffffff1660e01b815260040160206040518083038186803b158015610d1c57600080fd5b505afa158015610d30573d6000803e3d6000fd5b505050506040513d601f19601f82011682018060405250810190610d549190612dbf565b600460006101000a81548173ffffffffffffffffffffffffffffffffffffffff021916908373ffffffffffffffffffffffffffffffffffffffff160217905550732a58e9bbb5434fda7ff78051a4b82cb0ef669c17600560006101000a81548173ffffffffffffffffffffffffffffffffffffffff021916908373ffffffffffffffffffffffffffffffffffffffff1602179055508a60069080519060200190610dff92919061203d565b508015610e215760008060016101000a81548160ff0219169083151502179055505b5050505050505050505050565b606060098054610e3d90612ba2565b80601f0160208091040260200160405190810160405280929190818152602001828054610e6990612ba2565b8015610eb65780601f10610e8b57610100808354040283529160200191610eb6565b820191906000526020600020905b815481529060010190602001808311610e9957829003601f168201915b5050505050905090565b6000600760009054906101000a900473ffffffffffffffffffffffffffffffffffffffff16905090565b338073ffffffffffffffffffffffffffffffffffffffff16600860009054906101000a900473ffffffffffffffffffffffffffffffffffffffff1673ffffffffffffffffffffffffffffffffffffffff1614610f7b576040517f08c379a0000000000000000000000000000000000000000000000000000000008152600401610f72906129ab565b60405180910390fd5b81600160008573ffffffffffffffffffffffffffffffffffffffff1673ffffffffffffffffffffffffffffffffffffffff1681526020019081526020016000206000828254610fca9190612dec565b92505081905550505050565b6060600680548060200260200160405190810160405280929190818152602001828054801561105a57602002820191906000526020600020905b8160009054906101000a900473ffffffffffffffffffffffffffffffffffffffff1673ffffffffffffffffffffffffffffffffffffffff1681526020019060010190808311611010575b5050505050905090565b6000338073ffffffffffffffffffffffffffffffffffffffff16600860009054906101000a900473ffffffffffffffffffffffffffffffffffffffff1673ffffffffffffffffffffffffffffffffffffffff16146110f7576040517f08c379a00000000000000000000000000000000000000000000000000000000081526004016110ee906129ab565b60405180910390fd5b83600080600090505b6006805490508160ff1610156111a15760068160ff168154811061112757611126612e42565b5b9060005260206000200160009054906101000a900473ffffffffffffffffffffffffffffffffffffffff1673ffffffffffffffffffffffffffffffffffffffff168373ffffffffffffffffffffffffffffffffffffffff16141561118e57600191506111a1565b808061119990612e7e565b915050611100565b50806111e2576040517f08c379a00000000000000000000000000000000000000000000000000000000081526004016111d990612f1a565b60405180910390fd5b60006111ed87611d5a565b905060008173ffffffffffffffffffffffffffffffffffffffff166370a08231306040518263ffffffff1660e01b815260040161122a9190612677565b60206040518083038186803b15801561124257600080fd5b505afa158015611256573d6000803e3d6000fd5b505050506040513d601f19601f8201168201806040525081019061127a9190612932565b90506000600160008a73ffffffffffffffffffffffffffffffffffffffff1673ffffffffffffffffffffffffffffffffffffffff16815260200190815260200160002054826112c99190612a66565b905080600260008b73ffffffffffffffffffffffffffffffffffffffff1673ffffffffffffffffffffffffffffffffffffffff168152602001908152602001600020600082825461131a9190612dec565b92505081905550876113ff57600460009054906101000a900473ffffffffffffffffffffffffffffffffffffffff1673ffffffffffffffffffffffffffffffffffffffff166369328dec8a83600760009054906101000a900473ffffffffffffffffffffffffffffffffffffffff166040518463ffffffff1660e01b81526004016113a793929190612a9a565b602060405180830381600087803b1580156113c157600080fd5b505af11580156113d5573d6000803e3d6000fd5b505050506040513d601f19601f820116820180604052508101906113f99190612932565b50611585565b8273ffffffffffffffffffffffffffffffffffffffff1663095ea7b3600560009054906101000a900473ffffffffffffffffffffffffffffffffffffffff16836040518363ffffffff1660e01b815260040161145c929190612ad1565b602060405180830381600087803b15801561147657600080fd5b505af115801561148a573d6000803e3d6000fd5b505050506040513d601f19601f820116820180604052508101906114ae9190612b0f565b50600560009054906101000a900473ffffffffffffffffffffffffffffffffffffffff1673ffffffffffffffffffffffffffffffffffffffff166380500d20600460009054906101000a900473ffffffffffffffffffffffffffffffffffffffff1683600760009054906101000a900473ffffffffffffffffffffffffffffffffffffffff166040518463ffffffff1660e01b815260040161155293929190612a9a565b600060405180830381600087803b15801561156c57600080fd5b505af1158015611580573d6000803e3d6000fd5b505050505b80965050505050505092915050565b6060600a80546115a390612ba2565b80601f01602080910402602001604051908101604052809291908181526020018280546115cf90612ba2565b801561161c5780601f106115f15761010080835404028352916020019161161c565b820191906000526020600020905b8154815290600101906020018083116115ff57829003601f168201915b5050505050905090565b6000600d60009054906101000a900460ff16905090565b60008061164983611d5a565b905060008173ffffffffffffffffffffffffffffffffffffffff166370a08231306040518263ffffffff1660e01b81526004016116869190612677565b60206040518083038186803b15801561169e57600080fd5b505afa1580156116b2573d6000803e3d6000fd5b505050506040513d601f19601f820116820180604052508101906116d69190612932565b9050600160008573ffffffffffffffffffffffffffffffffffffffff1673ffffffffffffffffffffffffffffffffffffffff16815260200190815260200160002054816117239190612a66565b92505050919050565b6060600c805461173b90612ba2565b80601f016020809104026020016040519081016040528092919081815260200182805461176790612ba2565b80156117b45780601f10611789576101008083540402835291602001916117b4565b820191906000526020600020905b81548152906001019060200180831161179757829003601f168201915b5050505050905090565b338073ffffffffffffffffffffffffffffffffffffffff16600860009054906101000a900473ffffffffffffffffffffffffffffffffffffffff1673ffffffffffffffffffffffffffffffffffffffff161461184f576040517f08c379a0000000000000000000000000000000000000000000000000000000008152600401611846906129ab565b60405180910390fd5b82600080600090505b6006805490508160ff1610156118f95760068160ff168154811061187f5761187e612e42565b5b9060005260206000200160009054906101000a900473ffffffffffffffffffffffffffffffffffffffff1673ffffffffffffffffffffffffffffffffffffffff168373ffffffffffffffffffffffffffffffffffffffff1614156118e657600191506118f9565b80806118f190612e7e565b915050611858565b508061193a576040517f08c379a000000000000000000000000000000000000000000000000000000000815260040161193190612f1a565b60405180910390fd5b83600160008773ffffffffffffffffffffffffffffffffffffffff1673ffffffffffffffffffffffffffffffffffffffff16815260200190815260200160002060008282546119899190612dec565b925050819055505050505050565b6000600260008373ffffffffffffffffffffffffffffffffffffffff1673ffffffffffffffffffffffffffffffffffffffff168152602001908152602001600020549050919050565b60606000806060806060806006600760009054906101000a900473ffffffffffffffffffffffffffffffffffffffff16600d60009054906101000a900460ff16600c600b600a600986805480602002602001604051908101604052809291908181526020018280548015611aa957602002820191906000526020600020905b8160009054906101000a900473ffffffffffffffffffffffffffffffffffffffff1673ffffffffffffffffffffffffffffffffffffffff1681526020019060010190808311611a5f575b50505050509650838054611abc90612ba2565b80601f0160208091040260200160405190810160405280929190818152602001828054611ae890612ba2565b8015611b355780601f10611b0a57610100808354040283529160200191611b35565b820191906000526020600020905b815481529060010190602001808311611b1857829003601f168201915b50505050509350828054611b4890612ba2565b80601f0160208091040260200160405190810160405280929190818152602001828054611b7490612ba2565b8015611bc15780601f10611b9657610100808354040283529160200191611bc1565b820191906000526020600020905b815481529060010190602001808311611ba457829003601f168201915b50505050509250818054611bd490612ba2565b80601f0160208091040260200160405190810160405280929190818152602001828054611c0090612ba2565b8015611c4d5780601f10611c2257610100808354040283529160200191611c4d565b820191906000526020600020905b815481529060010190602001808311611c3057829003601f168201915b50505050509150808054611c6090612ba2565b80601f0160208091040260200160405190810160405280929190818152602001828054611c8c90612ba2565b8015611cd95780601f10611cae57610100808354040283529160200191611cd9565b820191906000526020600020905b815481529060010190602001808311611cbc57829003601f168201915b50505050509050965096509650965096509650965090919293949596565b6000806000806000806000611d0b88611e14565b611d1489611edf565b611d1d8a6104a1565b611d268b611997565b611d2f8c61163d565b611d388d610458565b611d418e611d5a565b9650965096509650965096509650919395979092949650565b6000600460009054906101000a900473ffffffffffffffffffffffffffffffffffffffff1673ffffffffffffffffffffffffffffffffffffffff166335ea6a75836040518263ffffffff1660e01b8152600401611db79190612677565b6101e06040518083038186803b158015611dd057600080fd5b505afa158015611de4573d6000803e3d6000fd5b505050506040513d601f19601f82011682018060405250810190611e08919061319e565b61010001519050919050565b6000600460009054906101000a900473ffffffffffffffffffffffffffffffffffffffff1673ffffffffffffffffffffffffffffffffffffffff166335ea6a75836040518263ffffffff1660e01b8152600401611e719190612677565b6101e06040518083038186803b158015611e8a57600080fd5b505afa158015611e9e573d6000803e3d6000fd5b505050506040513d601f19601f82011682018060405250810190611ec2919061319e565b602001516fffffffffffffffffffffffffffffffff169050919050565b6000600460009054906101000a900473ffffffffffffffffffffffffffffffffffffffff1673ffffffffffffffffffffffffffffffffffffffff1663d15e0053836040518263ffffffff1660e01b8152600401611f3c9190612677565b60206040518083038186803b158015611f5457600080fd5b505afa158015611f68573d6000803e3d6000fd5b505050506040513d601f19601f82011682018060405250810190611f8c9190612932565b9050919050565b6000611f9e30611fa4565b15905090565b600080823b905060008111915050919050565b828054611fc390612ba2565b90600052602060002090601f016020900481019282611fe5576000855561202c565b82601f10611ffe57805160ff191683800117855561202c565b8280016001018555821561202c579182015b8281111561202b578251825591602001919060010190612010565b5b50905061203991906120c7565b5090565b8280548282559060005260206000209081019282156120b6579160200282015b828111156120b55782518260006101000a81548173ffffffffffffffffffffffffffffffffffffffff021916908373ffffffffffffffffffffffffffffffffffffffff1602179055509160200191906001019061205d565b5b5090506120c391906120c7565b5090565b5b808211156120e05760008160009055506001016120c8565b5090565b6000604051905090565b600080fd5b600080fd5b600073ffffffffffffffffffffffffffffffffffffffff82169050919050565b6000612123826120f8565b9050919050565b61213381612118565b811461213e57600080fd5b50565b6000813590506121508161212a565b92915050565b60006020828403121561216c5761216b6120ee565b5b600061217a84828501612141565b91505092915050565b6000819050919050565b61219681612183565b82525050565b60006020820190506121b1600083018461218d565b92915050565b6121c081612183565b81146121cb57600080fd5b50565b6000813590506121dd816121b7565b92915050565b60008115159050919050565b6121f8816121e3565b811461220357600080fd5b50565b600081359050612215816121ef565b92915050565b60008060008060808587031215612235576122346120ee565b5b600061224387828801612141565b9450506020612254878288016121ce565b935050604061226587828801612141565b925050606061227687828801612206565b91505092959194509250565b600081519050919050565b600082825260208201905092915050565b60005b838110156122bc5780820151818401526020810190506122a1565b838111156122cb576000848401525b50505050565b6000601f19601f8301169050919050565b60006122ed82612282565b6122f7818561228d565b935061230781856020860161229e565b612310816122d1565b840191505092915050565b6000602082019050818103600083015261233581846122e2565b905092915050565b600080fd5b7f4e487b7100000000000000000000000000000000000000000000000000000000600052604160045260246000fd5b61237a826122d1565b810181811067ffffffffffffffff8211171561239957612398612342565b5b80604052505050565b60006123ac6120e4565b90506123b88282612371565b919050565b600067ffffffffffffffff8211156123d8576123d7612342565b5b602082029050602081019050919050565b600080fd5b60006124016123fc846123bd565b6123a2565b90508083825260208201905060208402830185811115612424576124236123e9565b5b835b8181101561244d57806124398882612141565b845260208401935050602081019050612426565b5050509392505050565b600082601f83011261246c5761246b61233d565b5b813561247c8482602086016123ee565b91505092915050565b600080fd5b600067ffffffffffffffff8211156124a5576124a4612342565b5b6124ae826122d1565b9050602081019050919050565b82818337600083830152505050565b60006124dd6124d88461248a565b6123a2565b9050828152602081018484840111156124f9576124f8612485565b5b6125048482856124bb565b509392505050565b600082601f8301126125215761252061233d565b5b81356125318482602086016124ca565b91505092915050565b600080600080600080600060e0888a031215612559576125586120ee565b5b600088013567ffffffffffffffff811115612577576125766120f3565b5b6125838a828b01612457565b975050602088013567ffffffffffffffff8111156125a4576125a36120f3565b5b6125b08a828b0161250c565b965050604088013567ffffffffffffffff8111156125d1576125d06120f3565b5b6125dd8a828b0161250c565b955050606088013567ffffffffffffffff8111156125fe576125fd6120f3565b5b61260a8a828b0161250c565b945050608088013567ffffffffffffffff81111561262b5761262a6120f3565b5b6126378a828b0161250c565b93505060a06126488a828b01612141565b92505060c06126598a828b01612206565b91505092959891949750929550565b61267181612118565b82525050565b600060208201905061268c6000830184612668565b92915050565b600080604083850312156126a9576126a86120ee565b5b60006126b785828601612141565b92505060206126c8858286016121ce565b9150509250929050565b600081519050919050565b600082825260208201905092915050565b6000819050602082019050919050565b61270781612118565b82525050565b600061271983836126fe565b60208301905092915050565b6000602082019050919050565b600061273d826126d2565b61274781856126dd565b9350612752836126ee565b8060005b8381101561278357815161276a888261270d565b975061277583612725565b925050600181019050612756565b5085935050505092915050565b600060208201905081810360008301526127aa8184612732565b905092915050565b600080604083850312156127c9576127c86120ee565b5b60006127d785828601612141565b92505060206127e885828601612206565b9150509250929050565b6127fb816121e3565b82525050565b600060208201905061281660008301846127f2565b92915050565b600060e0820190508181036000830152612836818a612732565b90506128456020830189612668565b61285260408301886127f2565b818103606083015261286481876122e2565b9050818103608083015261287881866122e2565b905081810360a083015261288c81856122e2565b905081810360c08301526128a081846122e2565b905098975050505050505050565b600060e0820190506128c3600083018a61218d565b6128d0602083018961218d565b6128dd604083018861218d565b6128ea606083018761218d565b6128f7608083018661218d565b61290460a083018561218d565b61291160c0830184612668565b98975050505050505050565b60008151905061292c816121b7565b92915050565b600060208284031215612948576129476120ee565b5b60006129568482850161291d565b91505092915050565b7f796f7520617265206e6f7420746865206f776e65720000000000000000000000600082015250565b600061299560158361228d565b91506129a08261295f565b602082019050919050565b600060208201905081810360008301526129c481612988565b9050919050565b7f616d6f756e74206d757374206578636565642030000000000000000000000000600082015250565b6000612a0160148361228d565b9150612a0c826129cb565b602082019050919050565b60006020820190508181036000830152612a30816129f4565b9050919050565b7f4e487b7100000000000000000000000000000000000000000000000000000000600052601160045260246000fd5b6000612a7182612183565b9150612a7c83612183565b925082821015612a8f57612a8e612a37565b5b828203905092915050565b6000606082019050612aaf6000830186612668565b612abc602083018561218d565b612ac96040830184612668565b949350505050565b6000604082019050612ae66000830185612668565b612af3602083018461218d565b9392505050565b600081519050612b09816121ef565b92915050565b600060208284031215612b2557612b246120ee565b5b6000612b3384828501612afa565b91505092915050565b6000606082019050612b516000830186612668565b612b5e6020830185612668565b612b6b604083018461218d565b949350505050565b7f4e487b7100000000000000000000000000000000000000000000000000000000600052602260045260246000fd5b60006002820490506001821680612bba57607f821691505b60208210811415612bce57612bcd612b73565b5b50919050565b7f737472696e67206f76657220636861726163746572206c696d69740000000000600082015250565b6000612c0a601b8361228d565b9150612c1582612bd4565b602082019050919050565b60006020820190508181036000830152612c3981612bfd565b9050919050565b7f496e697469616c697a61626c653a20636f6e747261637420697320616c72656160008201527f647920696e697469616c697a6564000000000000000000000000000000000000602082015250565b6000612c9c602e8361228d565b9150612ca782612c40565b604082019050919050565b60006020820190508181036000830152612ccb81612c8f565b9050919050565b7f43616e6e6f7420696e697469616c697a65206261736500000000000000000000600082015250565b6000612d0860168361228d565b9150612d1382612cd2565b602082019050919050565b60006020820190508181036000830152612d3781612cfb565b9050919050565b7f496e697469616c697a6520616c72656164792063616c6c656400000000000000600082015250565b6000612d7460198361228d565b9150612d7f82612d3e565b602082019050919050565b60006020820190508181036000830152612da381612d67565b9050919050565b600081519050612db98161212a565b92915050565b600060208284031215612dd557612dd46120ee565b5b6000612de384828501612daa565b91505092915050565b6000612df782612183565b9150612e0283612183565b9250827fffffffffffffffffffffffffffffffffffffffffffffffffffffffffffffffff03821115612e3757612e36612a37565b5b828201905092915050565b7f4e487b7100000000000000000000000000000000000000000000000000000000600052603260045260246000fd5b600060ff82169050919050565b6000612e8982612e71565b915060ff821415612e9d57612e9c612a37565b5b600182019050919050565b7f7375626d697474656420746f6b656e2061646472657373206973206e6f74206160008201527f6363657074656420627920706f6f6c0000000000000000000000000000000000602082015250565b6000612f04602f8361228d565b9150612f0f82612ea8565b604082019050919050565b60006020820190508181036000830152612f3381612ef7565b9050919050565b600080fd5b600060208284031215612f5557612f54612f3a565b5b612f5f60206123a2565b90506000612f6f8482850161291d565b60008301525092915050565b60006fffffffffffffffffffffffffffffffff82169050919050565b612fa081612f7b565b8114612fab57600080fd5b50565b600081519050612fbd81612f97565b92915050565b600064ffffffffff82169050919050565b612fdd81612fc3565b8114612fe857600080fd5b50565b600081519050612ffa81612fd4565b92915050565b600061ffff82169050919050565b61301781613000565b811461302257600080fd5b50565b6000815190506130348161300e565b92915050565b60006101e0828403121561305157613050612f3a565b5b61305c6101e06123a2565b9050600061306c84828501612f3f565b600083015250602061308084828501612fae565b602083015250604061309484828501612fae565b60408301525060606130a884828501612fae565b60608301525060806130bc84828501612fae565b60808301525060a06130d084828501612fae565b60a08301525060c06130e484828501612feb565b60c08301525060e06130f884828501613025565b60e08301525061010061310d84828501612daa565b6101008301525061012061312384828501612daa565b6101208301525061014061313984828501612daa565b6101408301525061016061314f84828501612daa565b6101608301525061018061316584828501612fae565b610180830152506101a061317b84828501612fae565b6101a0830152506101c061319184828501612fae565b6101c08301525092915050565b60006101e082840312156131b5576131b46120ee565b5b60006131c38482850161303a565b9150509291505056fea2646970667358221220ac07e16188948c44f67c13f947d0a3a0a492ea0372acdc0c2a53194de690be4964736f6c63430008090033",
  "immutableReferences": {},
  "source": "// SPDX-License-Identifier: MIT\npragma solidity 0.8.9;\n\nimport { IERC20, IPool, IPoolAddressesProvider, IWETHGateway} from './Interfaces.sol';\nimport { SafeERC20 } from './Libraries.sol';\nimport \"@openzeppelin/contracts/proxy/utils/Initializable.sol\";\n/**\n * This is a proof of concept starter contract, showing how uncollaterised loans are possible\n * using Aave v2 credit delegation.\n * This example supports stable interest rate borrows.\n * It is not production ready (!). User permissions and user accounting of loans should be implemented.\n * See @dev comments\n */\n\ncontract JustCausePoolAaveV3 is Initializable {\n    //mapping(address => mapping(address => uint256)) private depositors;\n    mapping(address => uint256) private totalDeposits;\n    mapping(address => uint256) private interestWithdrawn;\n    bool private isBase;\n\n    IPoolAddressesProvider provider;\n    address poolAddr;\n    address wethGatewayAddr;\n\n    address[] acceptedTokens;\n\n    event Deposit(address tokenAddress, address depositor, uint256 amount);\n    event Withdraw(address tokenAddress, address caller, uint256 amount);\n    event WithdrawDonations(address tokenAddress, uint256 amount);\n\n    address receiver;\n    address master;\n    string name;\n    string about;\n    string picHash;\n    string metaUri;\n    bool isVerified;\n\n    modifier onlyAllowedTokens(address _tokenAddr){\n        bool isAccepted;\n        for (uint8 i = 0; i < acceptedTokens.length; i++){\n            if(_tokenAddr == acceptedTokens[i]){\n                isAccepted = true;\n                break;\n            }\n        }\n        require(isAccepted, \"submitted token address is not accepted by pool\");\n        _;\n    }\n\n    modifier enoughFunds(address _userAddr, address _tokenAddr, uint256 _amount) {\n        require(_amount > 0, \"amount must exceed 0\");\n        //require(depositors[_userAddr][_tokenAddr]  >= _amount, \"no funds deposited for selected token\");\n        _;\n    }\n\n    modifier onlyReceiver(address _sender){\n        require(receiver == _sender, \"you are not the current reciever for this pool\");\n        _;\n    }\n\n    modifier onlyMaster(address _sender){\n        require(master == _sender, \"you are not the owner\");\n        _;\n    }\n\n    modifier strLength(string memory _str, uint8 _limit ){\n        bytes memory strBytes = bytes(_str);\n        require(strBytes.length < _limit, \"string over character limit\");\n        _;\n    }\n\n    constructor () {\n        isBase = true;\n    }\n\n    function initialize(\n        address[] memory _acceptedTokens,\n        string memory _name,\n        string memory _about,\n        string memory _picHash,\n        string memory _metaUri,\n        address _receiver,\n        bool _isVerified)\n\n    strLength(_name, 30) initializer() external {\n\n        require(isBase == false, \"Cannot initialize base\");\n        require(receiver == address(0), \"Initialize already called\");\n\n        receiver = _receiver;\n        master = msg.sender;\n        name = _name;\n        about = _about;\n        picHash = _picHash;\n        metaUri = _metaUri;\n        isVerified = _isVerified;\n\n        provider = IPoolAddressesProvider(address(0x5343b5bA672Ae99d627A1C87866b8E53F47Db2E6)); // polygon mumbai v3\n        poolAddr = provider.getPool();\n        wethGatewayAddr = address(0x2a58E9bbb5434FdA7FF78051a4B82cb0EF669C17);// polygon mumbai v3\n        acceptedTokens = _acceptedTokens;\n    }\n\n    function deposit(address _assetAddress, uint256 _amount/*, address _depositor*/) onlyMaster(msg.sender) onlyAllowedTokens(_assetAddress) external {\n        //IERC20 token = IERC20(_assetAddress);\n        //require(token.allowance(_depositor, address(this)) >= _amount, \"sender not approved\");\n        //token.transferFrom(_depositor, address(this), _amount);\n        //address poolAddr = address(Pool);\n        //token.approve(poolAddr, _amount);\n        //IPool(poolAddr).deposit(address(token), _amount, address(this), 0);\n        totalDeposits[_assetAddress] += _amount;\n        //emit Deposit(_assetAddress, _depositor, _amount);\n    }\n\n    function depositETH(address _wethAddress , /*address _depositor,*/ uint256 _value) onlyMaster(msg.sender) external {\n        //IWETHGateway(wethGatewayAddr).depositETH{value: msg.value}(poolAddr, address(this), 0);\n        totalDeposits[_wethAddress] += _value;\n    }\n\n    /*function tallyDeposit(uint256 _amount, address _assetAddress, address _depositor) internal {\n        uint256 depositedAmount = depositors[_depositor][_assetAddress];\n        //uint256 liquidityIndex = getAaveLiquidityIndex(_assetAddress);\n        //if(depositedAmount == 0){\n            //poolTracker.addDeposit(_depositor, _amount, liquidityIndex, block.timestamp, _assetAddress);\n        //}\n        depositedAmount += _amount;\n        totalDeposits[_assetAddress] += _amount;\n        depositors[_depositor][_assetAddress] = depositedAmount;\n    }*/\n\n    function withdraw(address _assetAddress, uint256 _amount, address _depositor, bool isETH) onlyMaster(msg.sender) enoughFunds(_depositor, _assetAddress, _amount) external {\n        totalDeposits[_assetAddress] -= _amount;\n        if(!isETH){\n            IPool(poolAddr).withdraw(_assetAddress, _amount, _depositor);\n        }\n        else{\n            address aTokenAddress = getATokenAddress(_assetAddress);\n            IERC20(aTokenAddress).approve(wethGatewayAddr, _amount);\n            IWETHGateway(wethGatewayAddr).withdrawETH(poolAddr, _amount, _depositor);\n        }\n        emit Withdraw(_assetAddress, _depositor, _amount);\n    }\n\n    function withdrawDonations(address _assetAddress, bool isETH) onlyMaster(msg.sender) onlyAllowedTokens(_assetAddress) external returns(uint256){\n        address aTokenAddress = getATokenAddress(_assetAddress);\n        uint256 aTokenBalance = IERC20(aTokenAddress).balanceOf(address(this));\n        uint256 interestEarned = aTokenBalance - totalDeposits[_assetAddress];\n        interestWithdrawn[_assetAddress] += interestEarned;\n\n        if(!isETH){\n            IPool(poolAddr).withdraw(_assetAddress, interestEarned, receiver);\n        }\n        else{\n            IERC20(aTokenAddress).approve(wethGatewayAddr, interestEarned);\n            IWETHGateway(wethGatewayAddr).withdrawETH(poolAddr, interestEarned, receiver);\n        }\n\n        return interestEarned;\n    }\n\n    function getAcceptedTokens() external view returns(address[] memory){\n        return acceptedTokens;\n    }\n\n    function getName() external view returns(string memory){\n        return name;\n    }\n\n    function getAbout() external view returns(string memory){\n        return about;\n    }\n\n    function getPicHash() external view returns(string memory){\n        return picHash;\n    }\n\n    function getMetaUri() external view returns(string memory){\n        return metaUri;\n    }\n\n    function getIsVerified() external view returns(bool){\n        return isVerified;\n    }\n\n    function getRecipient() external view returns(address){\n        return receiver;\n    }\n\n    function getPoolInfo() external view returns (address[] memory, address, bool, string memory, string memory, string memory, string memory){\n        return (acceptedTokens, receiver, isVerified, metaUri, picHash, about, name);\n    }\n    function getATokenAddress(address _assetAddress) public view returns(address aTokenAddress){\n        //(,,,,,,,, aTokenAddress,,,,,,) = IPool(poolAddr).getReserveData(_assetAddress);\n        aTokenAddress = IPool(poolAddr).getReserveData(_assetAddress).aTokenAddress;\n    }\n\n    function getTotalDeposits(address _assetAddress) public view returns(uint256){\n        return totalDeposits[_assetAddress];\n    }\n    function getUnclaimedInterest(address _assetAddress) public view returns (uint256){\n        address aTokenAddress = getATokenAddress(_assetAddress);\n        uint256 aTokenBalance = IERC20(aTokenAddress).balanceOf(address(this));\n        return aTokenBalance - totalDeposits[_assetAddress];\n    }\n\n    function getClaimedInterest(address _assetAddress) public view returns (uint256){\n        return interestWithdrawn[_assetAddress];\n    }\n\n    function getATokenBalance(address _assetAddress) public view returns (uint256){\n        address aTokenAddress = getATokenAddress(_assetAddress);\n        return IERC20(aTokenAddress).balanceOf(address(this));\n    }\n\n    function getReserveNormalizedIncome(address _assetAddress) public view returns(uint256){\n        return IPool(poolAddr).getReserveNormalizedIncome(_assetAddress);\n    }\n\n    function getAaveLiquidityIndex(address _assetAddress) public view returns(uint256 liquidityIndex){\n        liquidityIndex = IPool(poolAddr).getReserveData(_assetAddress).liquidityIndex;\n    }\n\n    function getPoolTokenInfo(address _asset) external view returns(uint256, uint256, uint256, uint256, uint256, uint256, address){\n        return(getAaveLiquidityIndex(_asset), getReserveNormalizedIncome(_asset), getATokenBalance(_asset),\n                getClaimedInterest(_asset), getUnclaimedInterest(_asset), getTotalDeposits(_asset), getATokenAddress(_asset));\n    }\n    /*function getByteCode() external view returns(bytes memory) {\n        return address(this).code;\n    }its\n\n    function getHashByteCode() public view returns(bytes32) {\n        return keccak256(abi.encodePacked(address(this).code));\n    }*/\n}",
  "sourcePath": "/home/smeee/just_cause/contracts/polygon/JustCausePoolAaveV3.sol",
  "compiler": {
    "name": "solc",
    "version": "0.8.9+commit.e5eed63a.Emscripten.clang"
  },
  "schemaVersion": "3.4.5",
  "updatedAt": "2022-04-12T13:59:29.612Z",
  "devdoc": {
    "details": "comments",
    "kind": "dev",
    "methods": {},
    "version": 1
  },
  "userdoc": {
    "kind": "user",
    "methods": {},
    "notice": "This is a proof of concept starter contract, showing how uncollaterised loans are possible using Aave v2 credit delegation. This example supports stable interest rate borrows. It is not production ready (!). User permissions and user accounting of loans should be implemented.",
    "version": 1
  }
}