{
  "contractName": "PoolTracker",
  "abi": [
    {
      "anonymous": false,
      "inputs": [
        {
          "indexed": false,
          "internalType": "address",
          "name": "_userAddr",
          "type": "address"
        },
        {
          "indexed": false,
          "internalType": "address",
          "name": "_pool",
          "type": "address"
        }
      ],
      "name": "AddDeposit",
      "type": "event"
    },
    {
      "anonymous": false,
      "inputs": [
        {
          "indexed": false,
          "internalType": "address",
          "name": "addressToAdd",
          "type": "address"
        }
      ],
      "name": "AddVerifiedPools",
      "type": "event"
    },
    {
      "anonymous": false,
      "inputs": [
        {
          "indexed": false,
          "internalType": "address",
          "name": "sentBy",
          "type": "address"
        }
      ],
      "name": "MessageSentBy",
      "type": "event"
    },
    {
      "anonymous": false,
      "inputs": [
        {
          "indexed": false,
          "internalType": "address",
          "name": "_owner",
          "type": "address"
        },
        {
          "indexed": false,
          "internalType": "address",
          "name": "_pool",
          "type": "address"
        }
      ],
      "name": "OwnerAddress",
      "type": "event"
    },
    {
      "anonymous": false,
      "inputs": [
        {
          "indexed": false,
          "internalType": "address",
          "name": "_userAddr",
          "type": "address"
        },
        {
          "indexed": false,
          "internalType": "address",
          "name": "_pool",
          "type": "address"
        }
      ],
      "name": "WithdrawDeposit",
      "type": "event"
    },
    {
      "inputs": [
        {
          "internalType": "bytes32",
          "name": "_hash",
          "type": "bytes32"
        }
      ],
      "name": "addValidByteCodeHash",
      "outputs": [],
      "stateMutability": "nonpayable",
      "type": "function"
    },
    {
      "inputs": [
        {
          "internalType": "address",
          "name": "_userAddr",
          "type": "address"
        },
        {
          "internalType": "address",
          "name": "_pool",
          "type": "address"
        }
      ],
      "name": "addDeposit",
      "outputs": [],
      "stateMutability": "nonpayable",
      "type": "function"
    },
    {
      "inputs": [
        {
          "internalType": "address",
          "name": "_userAddr",
          "type": "address"
        },
        {
          "internalType": "address",
          "name": "_pool",
          "type": "address"
        }
      ],
      "name": "withdrawDeposit",
      "outputs": [],
      "stateMutability": "nonpayable",
      "type": "function"
    },
    {
      "inputs": [
        {
          "internalType": "address",
          "name": "_pool",
          "type": "address"
        },
        {
          "internalType": "address",
          "name": "_owner",
          "type": "address"
        },
        {
          "internalType": "string",
          "name": "_name",
          "type": "string"
        }
      ],
      "name": "addVerifiedPools",
      "outputs": [],
      "stateMutability": "nonpayable",
      "type": "function"
    },
    {
      "inputs": [],
      "name": "getVerifiedPools",
      "outputs": [
        {
          "internalType": "address[]",
          "name": "",
          "type": "address[]"
        }
      ],
      "stateMutability": "view",
      "type": "function",
      "constant": true
    },
    {
      "inputs": [
        {
          "internalType": "address",
          "name": "_userAddr",
          "type": "address"
        }
      ],
      "name": "getUserDeposits",
      "outputs": [
        {
          "internalType": "address[]",
          "name": "",
          "type": "address[]"
        }
      ],
      "stateMutability": "view",
      "type": "function",
      "constant": true
    },
    {
      "inputs": [
        {
          "internalType": "address",
          "name": "_userAddr",
          "type": "address"
        }
      ],
      "name": "getUserOwned",
      "outputs": [
        {
          "internalType": "address[]",
          "name": "",
          "type": "address[]"
        }
      ],
      "stateMutability": "view",
      "type": "function",
      "constant": true
    },
    {
      "inputs": [
        {
          "internalType": "string",
          "name": "name",
          "type": "string"
        }
      ],
      "name": "getAddressFromName",
      "outputs": [
        {
          "internalType": "address",
          "name": "",
          "type": "address"
        }
      ],
      "stateMutability": "view",
      "type": "function",
      "constant": true
    },
    {
      "inputs": [
        {
          "internalType": "address",
          "name": "pool",
          "type": "address"
        }
      ],
      "name": "checkByteCode",
      "outputs": [
        {
          "internalType": "bool",
          "name": "",
          "type": "bool"
        }
      ],
      "stateMutability": "view",
      "type": "function",
      "constant": true
    }
  ],
  "bytecode": "0x608060405234801561001057600080fd5b5061142f806100206000396000f3fe608060405234801561001057600080fd5b50600436106100935760003560e01c806345cdf6421161006657806345cdf642146101305780634e1a58a81461014c578063748d6829146101685780638e61514e14610198578063b63ae6ee146101c857610093565b80631c1f905f146100985780632a5bf6d2146100c85780632f1c563e146100f85780633be273d614610114575b600080fd5b6100b260048036038101906100ad9190610d2e565b6101e6565b6040516100bf9190610e19565b60405180910390f35b6100e260048036038101906100dd9190610d2e565b6102b3565b6040516100ef9190610e19565b60405180910390f35b610112600480360381019061010d9190610e3b565b610380565b005b61012e60048036038101906101299190610e3b565b610521565b005b61014a60048036038101906101459190610fc1565b610931565b005b61016660048036038101906101619190611066565b610aed565b005b610182600480360381019061017d9190610d2e565b610b19565b60405161018f91906110ae565b60405180910390f35b6101b260048036038101906101ad91906110c9565b610c24565b6040516101bf9190611121565b60405180910390f35b6101d0610c2e565b6040516101dd9190610e19565b60405180910390f35b6060600260008373ffffffffffffffffffffffffffffffffffffffff1673ffffffffffffffffffffffffffffffffffffffff1681526020019081526020016000208054806020026020016040519081016040528092919081815260200182805480156102a757602002820191906000526020600020905b8160009054906101000a900473ffffffffffffffffffffffffffffffffffffffff1673ffffffffffffffffffffffffffffffffffffffff168152602001906001019080831161025d575b50505050509050919050565b6060600160008373ffffffffffffffffffffffffffffffffffffffff1673ffffffffffffffffffffffffffffffffffffffff16815260200190815260200160002080548060200260200160405190810160405280929190818152602001828054801561037457602002820191906000526020600020905b8160009054906101000a900473ffffffffffffffffffffffffffffffffffffffff1673ffffffffffffffffffffffffffffffffffffffff168152602001906001019080831161032a575b50505050509050919050565b336000808273ffffffffffffffffffffffffffffffffffffffff1673ffffffffffffffffffffffffffffffffffffffff16815260200190815260200160002060009054906101000a900460ff1661040c576040517f08c379a0000000000000000000000000000000000000000000000000000000008152600401610403906111bf565b60405180910390fd5b600160008473ffffffffffffffffffffffffffffffffffffffff1673ffffffffffffffffffffffffffffffffffffffff168152602001908152602001600020829080600181540180825580915050600190039060005260206000200160009091909190916101000a81548173ffffffffffffffffffffffffffffffffffffffff021916908373ffffffffffffffffffffffffffffffffffffffff1602179055507f81ba5b8ff9dd8503225df558117e2e7640a87c53418ab08237ad375c563a0dc383836040516104dd9291906111df565b60405180910390a17f274a386c22eb451962fea0499160d84da47852595d890c0d38b3e63fdd3867c0336040516105149190611121565b60405180910390a1505050565b336000808273ffffffffffffffffffffffffffffffffffffffff1673ffffffffffffffffffffffffffffffffffffffff16815260200190815260200160002060009054906101000a900460ff166105ad576040517f08c379a00000000000000000000000000000000000000000000000000000000081526004016105a4906111bf565b60405180910390fd5b60005b60018060008673ffffffffffffffffffffffffffffffffffffffff1673ffffffffffffffffffffffffffffffffffffffff168152602001908152602001600020805490506105fe9190611241565b8160ff161015610837578273ffffffffffffffffffffffffffffffffffffffff16600160008673ffffffffffffffffffffffffffffffffffffffff1673ffffffffffffffffffffffffffffffffffffffff1681526020019081526020016000208260ff168154811061067357610672611275565b5b9060005260206000200160009054906101000a900473ffffffffffffffffffffffffffffffffffffffff1673ffffffffffffffffffffffffffffffffffffffff16141561082457600160008573ffffffffffffffffffffffffffffffffffffffff1673ffffffffffffffffffffffffffffffffffffffff16815260200190815260200160002060018060008773ffffffffffffffffffffffffffffffffffffffff1673ffffffffffffffffffffffffffffffffffffffff168152602001908152602001600020805490506107479190611241565b8154811061075857610757611275565b5b9060005260206000200160009054906101000a900473ffffffffffffffffffffffffffffffffffffffff16600160008673ffffffffffffffffffffffffffffffffffffffff1673ffffffffffffffffffffffffffffffffffffffff1681526020019081526020016000208260ff16815481106107d7576107d6611275565b5b9060005260206000200160006101000a81548173ffffffffffffffffffffffffffffffffffffffff021916908373ffffffffffffffffffffffffffffffffffffffff160217905550610837565b808061082f906112b1565b9150506105b0565b50600160008473ffffffffffffffffffffffffffffffffffffffff1673ffffffffffffffffffffffffffffffffffffffff168152602001908152602001600020805480610887576108866112db565b5b6001900381819060005260206000200160006101000a81549073ffffffffffffffffffffffffffffffffffffffff021916905590557f96d37d4b9d9073b00191d43144d238a504757ba440e7708b7bad98762e32d40c83836040516108ed9291906111df565b60405180910390a17f274a386c22eb451962fea0499160d84da47852595d890c0d38b3e63fdd3867c0336040516109249190611121565b60405180910390a1505050565b826003826040516109429190611384565b908152602001604051809103902060006101000a81548173ffffffffffffffffffffffffffffffffffffffff021916908373ffffffffffffffffffffffffffffffffffffffff1602179055506004839080600181540180825580915050600190039060005260206000200160009091909190916101000a81548173ffffffffffffffffffffffffffffffffffffffff021916908373ffffffffffffffffffffffffffffffffffffffff160217905550600260008373ffffffffffffffffffffffffffffffffffffffff1673ffffffffffffffffffffffffffffffffffffffff168152602001908152602001600020839080600181540180825580915050600190039060005260206000200160009091909190916101000a81548173ffffffffffffffffffffffffffffffffffffffff021916908373ffffffffffffffffffffffffffffffffffffffff16021790555060016000808573ffffffffffffffffffffffffffffffffffffffff1673ffffffffffffffffffffffffffffffffffffffff16815260200190815260200160002060006101000a81548160ff021916908315150217905550505050565b600581908060018154018082558091505060019003906000526020600020016000909190919091505550565b6000806000905060006005805480602002602001604051908101604052809291908181526020018280548015610b6e57602002820191906000526020600020905b815481526020019060010190808311610b5a575b5050505050905060005b81518160ff161015610c1957818160ff1681518110610b9a57610b99611275565b5b60200260200101518573ffffffffffffffffffffffffffffffffffffffff16803b806020016040519081016040528181526000908060200190933c604051602001610be591906113e2565b604051602081830303815290604052805190602001201415610c0657600192505b8080610c11906112b1565b915050610b78565b508192505050919050565b6000309050919050565b60606004805480602002602001604051908101604052809291908181526020018280548015610cb257602002820191906000526020600020905b8160009054906101000a900473ffffffffffffffffffffffffffffffffffffffff1673ffffffffffffffffffffffffffffffffffffffff1681526020019060010190808311610c68575b5050505050905090565b6000604051905090565b600080fd5b600080fd5b600073ffffffffffffffffffffffffffffffffffffffff82169050919050565b6000610cfb82610cd0565b9050919050565b610d0b81610cf0565b8114610d1657600080fd5b50565b600081359050610d2881610d02565b92915050565b600060208284031215610d4457610d43610cc6565b5b6000610d5284828501610d19565b91505092915050565b600081519050919050565b600082825260208201905092915050565b6000819050602082019050919050565b610d9081610cf0565b82525050565b6000610da28383610d87565b60208301905092915050565b6000602082019050919050565b6000610dc682610d5b565b610dd08185610d66565b9350610ddb83610d77565b8060005b83811015610e0c578151610df38882610d96565b9750610dfe83610dae565b925050600181019050610ddf565b5085935050505092915050565b60006020820190508181036000830152610e338184610dbb565b905092915050565b60008060408385031215610e5257610e51610cc6565b5b6000610e6085828601610d19565b9250506020610e7185828601610d19565b9150509250929050565b600080fd5b600080fd5b6000601f19601f8301169050919050565b7f4e487b7100000000000000000000000000000000000000000000000000000000600052604160045260246000fd5b610ece82610e85565b810181811067ffffffffffffffff82111715610eed57610eec610e96565b5b80604052505050565b6000610f00610cbc565b9050610f0c8282610ec5565b919050565b600067ffffffffffffffff821115610f2c57610f2b610e96565b5b610f3582610e85565b9050602081019050919050565b82818337600083830152505050565b6000610f64610f5f84610f11565b610ef6565b905082815260208101848484011115610f8057610f7f610e80565b5b610f8b848285610f42565b509392505050565b600082601f830112610fa857610fa7610e7b565b5b8135610fb8848260208601610f51565b91505092915050565b600080600060608486031215610fda57610fd9610cc6565b5b6000610fe886828701610d19565b9350506020610ff986828701610d19565b925050604084013567ffffffffffffffff81111561101a57611019610ccb565b5b61102686828701610f93565b9150509250925092565b6000819050919050565b61104381611030565b811461104e57600080fd5b50565b6000813590506110608161103a565b92915050565b60006020828403121561107c5761107b610cc6565b5b600061108a84828501611051565b91505092915050565b60008115159050919050565b6110a881611093565b82525050565b60006020820190506110c3600083018461109f565b92915050565b6000602082840312156110df576110de610cc6565b5b600082013567ffffffffffffffff8111156110fd576110fc610ccb565b5b61110984828501610f93565b91505092915050565b61111b81610cf0565b82525050565b60006020820190506111366000830184611112565b92915050565b600082825260208201905092915050565b7f746869732066756e6374696f6e206d7573742062652063616c6c65642066726f60008201527f6d206120706f6f6c000000000000000000000000000000000000000000000000602082015250565b60006111a960288361113c565b91506111b48261114d565b604082019050919050565b600060208201905081810360008301526111d88161119c565b9050919050565b60006040820190506111f46000830185611112565b6112016020830184611112565b9392505050565b6000819050919050565b7f4e487b7100000000000000000000000000000000000000000000000000000000600052601160045260246000fd5b600061124c82611208565b915061125783611208565b92508282101561126a57611269611212565b5b828203905092915050565b7f4e487b7100000000000000000000000000000000000000000000000000000000600052603260045260246000fd5b600060ff82169050919050565b60006112bc826112a4565b915060ff8214156112d0576112cf611212565b5b600182019050919050565b7f4e487b7100000000000000000000000000000000000000000000000000000000600052603160045260246000fd5b600081519050919050565b600081905092915050565b60005b8381101561133e578082015181840152602081019050611323565b8381111561134d576000848401525b50505050565b600061135e8261130a565b6113688185611315565b9350611378818560208601611320565b80840191505092915050565b60006113908284611353565b915081905092915050565b600081519050919050565b600081905092915050565b60006113bc8261139b565b6113c681856113a6565b93506113d6818560208601611320565b80840191505092915050565b60006113ee82846113b1565b91508190509291505056fea2646970667358221220f7eeb9cc36a400207953c59203d576e12676d149da99c6bca42a04765096516464736f6c63430008090033",
  "immutableReferences": {},
  "source": "// SPDX-License-Identifier: agpl-3.0\npragma solidity 0.8.9;\n\ncontract PoolTracker {\n\n    //contract addresses will point to bool if they exist\n    mapping(address => bool) private isPool;\n    mapping(address => address[]) private depositors;\n    mapping(address => address[]) private owners;\n    mapping(string => address) private names;\n    address[] private verifiedPools;\n    bytes32[] validByteCodeHashes;\n\n    event AddVerifiedPools(address addressToAdd);\n    event AddDeposit(address _userAddr, address _pool);\n    event WithdrawDeposit(address _userAddr, address _pool);\n    event OwnerAddress(address _owner, address _pool);\n\n    event MessageSentBy(address sentBy);\n\n    modifier onlyVerifiedByteCode(address pool) {\n        bytes32 v1ByteCodeHash = 0x69e8ff0e7c2b29468c452ea99c81161f9d6137447623140dc2714549e6014d96;\n        require(keccak256(abi.encodePacked(pool.code)) == v1ByteCodeHash, \"byteCode not recognized\");\n        _;\n    }\n\n    modifier onlyPools(address _pool){\n        require(isPool[_pool], \"this function must be called from a pool\");\n        _;\n    }\n\n    function addValidByteCodeHash(bytes32 _hash) public {\n        validByteCodeHashes.push(_hash);\n    }\n    function addDeposit(address _userAddr, address _pool) onlyPools(msg.sender) external {\n        depositors[_userAddr].push(_pool);\n        emit AddDeposit(_userAddr, _pool);\n        emit MessageSentBy(msg.sender);\n    }\n\n    function withdrawDeposit(address _userAddr, address _pool) onlyPools(msg.sender) external {\n        for(uint8 i = 0; i < depositors[_userAddr].length -1; i++){\n            if(depositors[_userAddr][i] == _pool){\n                depositors[_userAddr][i] = depositors[_userAddr][depositors[_userAddr].length - 1];\n                break;\n            }\n        }\n        depositors[_userAddr].pop();\n        emit WithdrawDeposit(_userAddr, _pool);\n        emit MessageSentBy(msg.sender);\n    }\n\n    function addVerifiedPools(address _pool, address _owner, string memory _name) external {\n        //require(names[_name] == address(0), \"pool with name already exists\");\n        names[_name] =  _pool;\n        verifiedPools.push( _pool);\n        owners[_owner].push( _pool);\n        isPool[_pool] = true;\n        //emit AddVerifiedPools(_pool);\n        //emit MessageSentBy(msg.sender);\n    }\n\n    function getVerifiedPools() public view returns(address [] memory){\n        return verifiedPools;\n    }\n\n    function getUserDeposits(address _userAddr) external view returns(address[] memory){\n        return depositors[_userAddr];\n    }\n\n    function getUserOwned(address _userAddr) external view returns(address[] memory){\n        return owners[_userAddr];\n    }\n\n    function getAddressFromName(string memory name) external view returns(address){\n        return address(this);//names[name];\n    }\n\n    function checkByteCode(address pool) external view returns(bool) {\n        bool hashMatch = false;\n        bytes32[] memory validHashes = validByteCodeHashes;\n\n        for(uint8 i = 0; i < validHashes.length; i++){\n            if(keccak256(abi.encodePacked(pool.code)) == validHashes[i]){\n                hashMatch = true;\n            }\n        }\n        return hashMatch;\n    }\n}",
  "sourcePath": "/home/smeee/just_cause/contracts/PoolTracker.sol",
  "compiler": {
    "name": "solc",
    "version": "0.8.9+commit.e5eed63a.Emscripten.clang"
  },
  "schemaVersion": "3.4.3",
  "updatedAt": "2022-01-12T03:29:31.633Z",
  "networkType": "ethereum",
  "devdoc": {
    "kind": "dev",
    "methods": {},
    "version": 1
  },
  "userdoc": {
    "kind": "user",
    "methods": {},
    "version": 1
  }
}