{
  "contractName": "PoolTracker",
  "abi": [
    {
      "inputs": [],
      "stateMutability": "nonpayable",
      "type": "constructor"
    },
    {
      "anonymous": false,
      "inputs": [
        {
          "indexed": false,
          "internalType": "address",
          "name": "userAddr",
          "type": "address"
        },
        {
          "indexed": false,
          "internalType": "address",
          "name": "pool",
          "type": "address"
        },
        {
          "indexed": false,
          "internalType": "address",
          "name": "asset",
          "type": "address"
        },
        {
          "indexed": false,
          "internalType": "uint256",
          "name": "amount",
          "type": "uint256"
        }
      ],
      "name": "AddDeposit",
      "type": "event"
    },
    {
      "anonymous": false,
      "inputs": [
        {
          "indexed": false,
          "internalType": "address",
          "name": "pool",
          "type": "address"
        },
        {
          "indexed": false,
          "internalType": "string",
          "name": "name",
          "type": "string"
        },
        {
          "indexed": false,
          "internalType": "address",
          "name": "receiver",
          "type": "address"
        }
      ],
      "name": "AddPool",
      "type": "event"
    },
    {
      "anonymous": false,
      "inputs": [
        {
          "indexed": false,
          "internalType": "address",
          "name": "userAddr",
          "type": "address"
        },
        {
          "indexed": false,
          "internalType": "address",
          "name": "receiver",
          "type": "address"
        },
        {
          "indexed": false,
          "internalType": "address",
          "name": "pool",
          "type": "address"
        },
        {
          "indexed": false,
          "internalType": "address",
          "name": "asset",
          "type": "address"
        },
        {
          "indexed": false,
          "internalType": "uint256",
          "name": "amount",
          "type": "uint256"
        }
      ],
      "name": "Claim",
      "type": "event"
    },
    {
      "anonymous": false,
      "inputs": [
        {
          "indexed": false,
          "internalType": "address",
          "name": "userAddr",
          "type": "address"
        },
        {
          "indexed": false,
          "internalType": "address",
          "name": "pool",
          "type": "address"
        },
        {
          "indexed": false,
          "internalType": "address",
          "name": "asset",
          "type": "address"
        },
        {
          "indexed": false,
          "internalType": "uint256",
          "name": "amount",
          "type": "uint256"
        }
      ],
      "name": "WithdrawDeposit",
      "type": "event"
    },
    {
      "inputs": [
        {
          "internalType": "bytes32",
          "name": "_hash",
          "type": "bytes32"
        }
      ],
      "name": "addValidByteCodeHash",
      "outputs": [],
      "stateMutability": "nonpayable",
      "type": "function"
    },
    {
      "inputs": [
        {
          "internalType": "uint256",
          "name": "_amount",
          "type": "uint256"
        },
        {
          "internalType": "address",
          "name": "_asset",
          "type": "address"
        },
        {
          "internalType": "address",
          "name": "_pool",
          "type": "address"
        },
        {
          "internalType": "bool",
          "name": "isETH",
          "type": "bool"
        }
      ],
      "name": "addDeposit",
      "outputs": [],
      "stateMutability": "payable",
      "type": "function",
      "payable": true
    },
    {
      "inputs": [
        {
          "internalType": "uint256",
          "name": "_amount",
          "type": "uint256"
        },
        {
          "internalType": "address",
          "name": "_asset",
          "type": "address"
        },
        {
          "internalType": "address",
          "name": "_pool",
          "type": "address"
        },
        {
          "internalType": "bool",
          "name": "_isETH",
          "type": "bool"
        }
      ],
      "name": "withdrawDeposit",
      "outputs": [],
      "stateMutability": "nonpayable",
      "type": "function"
    },
    {
      "inputs": [
        {
          "internalType": "address",
          "name": "_asset",
          "type": "address"
        },
        {
          "internalType": "address",
          "name": "_pool",
          "type": "address"
        }
      ],
      "name": "claimInterest",
      "outputs": [],
      "stateMutability": "nonpayable",
      "type": "function"
    },
    {
      "inputs": [
        {
          "internalType": "address[]",
          "name": "_acceptedTokens",
          "type": "address[]"
        },
        {
          "internalType": "string",
          "name": "_name",
          "type": "string"
        },
        {
          "internalType": "string",
          "name": "_about",
          "type": "string"
        },
        {
          "internalType": "address",
          "name": "_receiver",
          "type": "address"
        }
      ],
      "name": "createJCPoolClone",
      "outputs": [],
      "stateMutability": "nonpayable",
      "type": "function"
    },
    {
      "inputs": [],
      "name": "getDepositorERC721Address",
      "outputs": [
        {
          "internalType": "address",
          "name": "",
          "type": "address"
        }
      ],
      "stateMutability": "view",
      "type": "function",
      "constant": true
    },
    {
      "inputs": [],
      "name": "getOwnerERC721Address",
      "outputs": [
        {
          "internalType": "address",
          "name": "",
          "type": "address"
        }
      ],
      "stateMutability": "view",
      "type": "function",
      "constant": true
    },
    {
      "inputs": [],
      "name": "getBaseJCPoolAddress",
      "outputs": [
        {
          "internalType": "address",
          "name": "",
          "type": "address"
        }
      ],
      "stateMutability": "view",
      "type": "function",
      "constant": true
    },
    {
      "inputs": [],
      "name": "getVerifiedPools",
      "outputs": [
        {
          "internalType": "address[]",
          "name": "",
          "type": "address[]"
        }
      ],
      "stateMutability": "view",
      "type": "function",
      "constant": true
    },
    {
      "inputs": [
        {
          "internalType": "address",
          "name": "_pool",
          "type": "address"
        }
      ],
      "name": "checkPool",
      "outputs": [
        {
          "internalType": "bool",
          "name": "",
          "type": "bool"
        }
      ],
      "stateMutability": "view",
      "type": "function",
      "constant": true
    },
    {
      "inputs": [
        {
          "internalType": "string",
          "name": "_name",
          "type": "string"
        }
      ],
      "name": "getAddressFromName",
      "outputs": [
        {
          "internalType": "address",
          "name": "",
          "type": "address"
        }
      ],
      "stateMutability": "view",
      "type": "function",
      "constant": true
    },
    {
      "inputs": [
        {
          "internalType": "address",
          "name": "_pool",
          "type": "address"
        }
      ],
      "name": "checkByteCode",
      "outputs": [
        {
          "internalType": "bool",
          "name": "",
          "type": "bool"
        }
      ],
      "stateMutability": "view",
      "type": "function",
      "constant": true
    }
  ],
  "bytecode": "0x60806040523480156200001157600080fd5b5060405162000020906200033f565b604051809103906000f0801580156200003d573d6000803e3d6000fd5b50600260006101000a81548173ffffffffffffffffffffffffffffffffffffffff021916908373ffffffffffffffffffffffffffffffffffffffff1602179055506040516200008c906200034d565b604051809103906000f080158015620000a9573d6000803e3d6000fd5b50600360006101000a81548173ffffffffffffffffffffffffffffffffffffffff021916908373ffffffffffffffffffffffffffffffffffffffff160217905550604051620000f8906200035b565b604051809103906000f08015801562000115573d6000803e3d6000fd5b50600160006101000a81548173ffffffffffffffffffffffffffffffffffffffff021916908373ffffffffffffffffffffffffffffffffffffffff1602179055507388757f2f99175387ab4c6a4b3067c77a695b0349600860006101000a81548173ffffffffffffffffffffffffffffffffffffffff021916908373ffffffffffffffffffffffffffffffffffffffff160217905550600860009054906101000a900473ffffffffffffffffffffffffffffffffffffffff1673ffffffffffffffffffffffffffffffffffffffff16630261bf8b6040518163ffffffff1660e01b815260040160206040518083038186803b1580156200021457600080fd5b505afa15801562000229573d6000803e3d6000fd5b505050506040513d601f19601f820116820180604052508101906200024f9190620003d3565b600960006101000a81548173ffffffffffffffffffffffffffffffffffffffff021916908373ffffffffffffffffffffffffffffffffffffffff160217905550733c73a5e5785cac854d468f727c606c07488a29d6600a60006101000a81548173ffffffffffffffffffffffffffffffffffffffff021916908373ffffffffffffffffffffffffffffffffffffffff16021790555073a61ca04df33b72b235a8a28cfb535bb7a5271b70600b60006101000a81548173ffffffffffffffffffffffffffffffffffffffff021916908373ffffffffffffffffffffffffffffffffffffffff16021790555062000405565b61460980620025fb83390190565b61381a8062006c0483390190565b612c6c806200a41e83390190565b600080fd5b600073ffffffffffffffffffffffffffffffffffffffff82169050919050565b60006200039b826200036e565b9050919050565b620003ad816200038e565b8114620003b957600080fd5b50565b600081519050620003cd81620003a2565b92915050565b600060208284031215620003ec57620003eb62000369565b5b6000620003fc84828501620003bc565b91505092915050565b6121e680620004156000396000f3fe6080604052600436106100a75760003560e01c80635aa38868116100645780635aa38868146101ad578063618b1e83146101d8578063748d6829146102015780638e61514e1461023e578063b63ae6ee1461027b578063ba437c68146102a6576100a7565b806308f52b3c146100ac5780630c1a4477146100c85780632f28012a146100f357806330b9d2a71461011c5780633989a671146101595780634e1a58a814610184575b600080fd5b6100c660048036038101906100c19190611444565b6102cf565b005b3480156100d457600080fd5b506100dd610898565b6040516100ea91906114ba565b60405180910390f35b3480156100ff57600080fd5b5061011a60048036038101906101159190611444565b6108c2565b005b34801561012857600080fd5b50610143600480360381019061013e91906114d5565b610a97565b6040516101509190611511565b60405180910390f35b34801561016557600080fd5b5061016e610aed565b60405161017b91906114ba565b60405180910390f35b34801561019057600080fd5b506101ab60048036038101906101a69190611562565b610b17565b005b3480156101b957600080fd5b506101c2610b43565b6040516101cf91906114ba565b60405180910390f35b3480156101e457600080fd5b506101ff60048036038101906101fa919061179d565b610b6d565b005b34801561020d57600080fd5b50610228600480360381019061022391906114d5565b610ec6565b6040516102359190611511565b60405180910390f35b34801561024a57600080fd5b5061026560048036038101906102609190611858565b610fdb565b60405161027291906114ba565b60405180910390f35b34801561028757600080fd5b50610290611023565b60405161029d919061195f565b60405180910390f35b3480156102b257600080fd5b506102cd60048036038101906102c89190611981565b6110b1565b005b81600460008273ffffffffffffffffffffffffffffffffffffffff1673ffffffffffffffffffffffffffffffffffffffff16815260200190815260200160002060009054906101000a900460ff1661035c576040517f08c379a000000000000000000000000000000000000000000000000000000000815260040161035390611a1e565b60405180910390fd5b811561048957600b60009054906101000a900473ffffffffffffffffffffffffffffffffffffffff1673ffffffffffffffffffffffffffffffffffffffff1663474cf53d34600960009054906101000a900473ffffffffffffffffffffffffffffffffffffffff168660006040518563ffffffff1660e01b81526004016103e593929190611a91565b6000604051808303818588803b1580156103fe57600080fd5b505af1158015610412573d6000803e3d6000fd5b50505050508273ffffffffffffffffffffffffffffffffffffffff16632e59905485346040518363ffffffff1660e01b8152600401610452929190611ad7565b600060405180830381600087803b15801561046c57600080fd5b505af1158015610480573d6000803e3d6000fd5b5050505061079e565b6000849050858173ffffffffffffffffffffffffffffffffffffffff1663dd62ed3e33306040518363ffffffff1660e01b81526004016104ca929190611b00565b60206040518083038186803b1580156104e257600080fd5b505afa1580156104f6573d6000803e3d6000fd5b505050506040513d601f19601f8201168201806040525081019061051a9190611b3e565b101561055b576040517f08c379a000000000000000000000000000000000000000000000000000000000815260040161055290611bb7565b60405180910390fd5b8073ffffffffffffffffffffffffffffffffffffffff166323b872dd3330896040518463ffffffff1660e01b815260040161059893929190611bd7565b602060405180830381600087803b1580156105b257600080fd5b505af11580156105c6573d6000803e3d6000fd5b505050506040513d601f19601f820116820180604052508101906105ea9190611c23565b508073ffffffffffffffffffffffffffffffffffffffff1663095ea7b3600960009054906101000a900473ffffffffffffffffffffffffffffffffffffffff16886040518363ffffffff1660e01b8152600401610648929190611ad7565b602060405180830381600087803b15801561066257600080fd5b505af1158015610676573d6000803e3d6000fd5b505050506040513d601f19601f8201168201806040525081019061069a9190611c23565b50600960009054906101000a900473ffffffffffffffffffffffffffffffffffffffff1673ffffffffffffffffffffffffffffffffffffffff1663e8eda9df82888760006040518563ffffffff1660e01b81526004016106fd9493929190611c50565b600060405180830381600087803b15801561071757600080fd5b505af115801561072b573d6000803e3d6000fd5b505050508373ffffffffffffffffffffffffffffffffffffffff166347e7ef2486886040518363ffffffff1660e01b815260040161076a929190611ad7565b600060405180830381600087803b15801561078457600080fd5b505af1158015610798573d6000803e3d6000fd5b50505050505b600260009054906101000a900473ffffffffffffffffffffffffffffffffffffffff1673ffffffffffffffffffffffffffffffffffffffff166387fb12bd33874287896040518663ffffffff1660e01b8152600401610801959493929190611c95565b602060405180830381600087803b15801561081b57600080fd5b505af115801561082f573d6000803e3d6000fd5b505050506040513d601f19601f820116820180604052508101906108539190611b3e565b507f20ca885e6c573d69bc931b3787127868f5b90568509fb8d4ff6f7102b8d0cd25338486886040516108899493929190611ce8565b60405180910390a15050505050565b6000600360009054906101000a900473ffffffffffffffffffffffffffffffffffffffff16905090565b81600460008273ffffffffffffffffffffffffffffffffffffffff1673ffffffffffffffffffffffffffffffffffffffff16815260200190815260200160002060009054906101000a900460ff1661094f576040517f08c379a000000000000000000000000000000000000000000000000000000000815260040161094690611a1e565b60405180910390fd5b600260009054906101000a900473ffffffffffffffffffffffffffffffffffffffff1673ffffffffffffffffffffffffffffffffffffffff16636ba3fef2338786886040518563ffffffff1660e01b81526004016109b09493929190611d2d565b600060405180830381600087803b1580156109ca57600080fd5b505af11580156109de573d6000803e3d6000fd5b505050508273ffffffffffffffffffffffffffffffffffffffff166312eeff7e858733866040518563ffffffff1660e01b8152600401610a219493929190611d72565b600060405180830381600087803b158015610a3b57600080fd5b505af1158015610a4f573d6000803e3d6000fd5b505050507fa657ed79c074c3489591adb7ba850f38c009bd846e47f2ffe3edc1d06f48a5a433848688604051610a889493929190611ce8565b60405180910390a15050505050565b6000600460008373ffffffffffffffffffffffffffffffffffffffff1673ffffffffffffffffffffffffffffffffffffffff16815260200190815260200160002060009054906101000a900460ff169050919050565b6000600260009054906101000a900473ffffffffffffffffffffffffffffffffffffffff16905090565b600781908060018154018082558091505060019003906000526020600020016000909190919091505550565b6000600160009054906101000a900473ffffffffffffffffffffffffffffffffffffffff16905090565b600073ffffffffffffffffffffffffffffffffffffffff16600584604051610b959190611e31565b908152602001604051809103902060009054906101000a900473ffffffffffffffffffffffffffffffffffffffff1673ffffffffffffffffffffffffffffffffffffffff1614610c1a576040517f08c379a0000000000000000000000000000000000000000000000000000000008152600401610c1190611e94565b60405180910390fd5b6000610c47600160009054906101000a900473ffffffffffffffffffffffffffffffffffffffff1661128f565b90508073ffffffffffffffffffffffffffffffffffffffff166350d02d71868686866040518563ffffffff1660e01b8152600401610c889493929190611eed565b600060405180830381600087803b158015610ca257600080fd5b505af1158015610cb6573d6000803e3d6000fd5b50505050600360009054906101000a900473ffffffffffffffffffffffffffffffffffffffff1673ffffffffffffffffffffffffffffffffffffffff166323579ba18342846040518463ffffffff1660e01b8152600401610d1993929190611f47565b602060405180830381600087803b158015610d3357600080fd5b505af1158015610d47573d6000803e3d6000fd5b505050506040513d601f19601f82011682018060405250810190610d6b9190611b3e565b5080600585604051610d7d9190611e31565b908152602001604051809103902060006101000a81548173ffffffffffffffffffffffffffffffffffffffff021916908373ffffffffffffffffffffffffffffffffffffffff1602179055506006819080600181540180825580915050600190039060005260206000200160009091909190916101000a81548173ffffffffffffffffffffffffffffffffffffffff021916908373ffffffffffffffffffffffffffffffffffffffff1602179055506001600460008373ffffffffffffffffffffffffffffffffffffffff1673ffffffffffffffffffffffffffffffffffffffff16815260200190815260200160002060006101000a81548160ff0219169083151502179055507f373adb264e07592e89e672b780912566106b06a5f7a7787e63a47ca627e915af818584604051610eb793929190611f7e565b60405180910390a15050505050565b6000806000905060008373ffffffffffffffffffffffffffffffffffffffff16803b806020016040519081016040528181526000908060200190933c604051602001610f129190612003565b60405160208183030381529060405280519060200120905060006007805480602002602001604051908101604052809291908181526020018280548015610f7857602002820191906000526020600020905b815481526020019060010190808311610f64575b5050505050905060005b81518160ff161015610fcf57818160ff1681518110610fa457610fa361201a565b5b6020026020010151831415610fbc5760019350610fcf565b8080610fc790612085565b915050610f82565b50829350505050919050565b6000600582604051610fed9190611e31565b908152602001604051809103902060009054906101000a900473ffffffffffffffffffffffffffffffffffffffff169050919050565b606060068054806020026020016040519081016040528092919081815260200182805480156110a757602002820191906000526020600020905b8160009054906101000a900473ffffffffffffffffffffffffffffffffffffffff1673ffffffffffffffffffffffffffffffffffffffff168152602001906001019080831161105d575b5050505050905090565b80600460008273ffffffffffffffffffffffffffffffffffffffff1673ffffffffffffffffffffffffffffffffffffffff16815260200190815260200160002060009054906101000a900460ff1661113e576040517f08c379a000000000000000000000000000000000000000000000000000000000815260040161113590611a1e565b60405180910390fd5b60008273ffffffffffffffffffffffffffffffffffffffff1663a56f5b53856040518263ffffffff1660e01b815260040161117991906114ba565b602060405180830381600087803b15801561119357600080fd5b505af11580156111a7573d6000803e3d6000fd5b505050506040513d601f19601f820116820180604052508101906111cb9190611b3e565b90507f7276c0285f260d667df9ded71ca6a988145d36de1d14252710532b9de5f089fe338473ffffffffffffffffffffffffffffffffffffffff16631b88094d6040518163ffffffff1660e01b815260040160206040518083038186803b15801561123557600080fd5b505afa158015611249573d6000803e3d6000fd5b505050506040513d601f19601f8201168201806040525081019061126d91906120c4565b8587856040516112819594939291906120f1565b60405180910390a150505050565b60006040517f3d602d80600a3d3981f3363d3d373d3d3d363d7300000000000000000000000081528260601b60148201527f5af43d82803e903d91602b57fd5bf3000000000000000000000000000000000060288201526037816000f0915050600073ffffffffffffffffffffffffffffffffffffffff168173ffffffffffffffffffffffffffffffffffffffff16141561135f576040517f08c379a000000000000000000000000000000000000000000000000000000000815260040161135690612190565b60405180910390fd5b919050565b6000604051905090565b600080fd5b600080fd5b6000819050919050565b61138b81611378565b811461139657600080fd5b50565b6000813590506113a881611382565b92915050565b600073ffffffffffffffffffffffffffffffffffffffff82169050919050565b60006113d9826113ae565b9050919050565b6113e9816113ce565b81146113f457600080fd5b50565b600081359050611406816113e0565b92915050565b60008115159050919050565b6114218161140c565b811461142c57600080fd5b50565b60008135905061143e81611418565b92915050565b6000806000806080858703121561145e5761145d61136e565b5b600061146c87828801611399565b945050602061147d878288016113f7565b935050604061148e878288016113f7565b925050606061149f8782880161142f565b91505092959194509250565b6114b4816113ce565b82525050565b60006020820190506114cf60008301846114ab565b92915050565b6000602082840312156114eb576114ea61136e565b5b60006114f9848285016113f7565b91505092915050565b61150b8161140c565b82525050565b60006020820190506115266000830184611502565b92915050565b6000819050919050565b61153f8161152c565b811461154a57600080fd5b50565b60008135905061155c81611536565b92915050565b6000602082840312156115785761157761136e565b5b60006115868482850161154d565b91505092915050565b600080fd5b6000601f19601f8301169050919050565b7f4e487b7100000000000000000000000000000000000000000000000000000000600052604160045260246000fd5b6115dd82611594565b810181811067ffffffffffffffff821117156115fc576115fb6115a5565b5b80604052505050565b600061160f611364565b905061161b82826115d4565b919050565b600067ffffffffffffffff82111561163b5761163a6115a5565b5b602082029050602081019050919050565b600080fd5b600061166461165f84611620565b611605565b905080838252602082019050602084028301858111156116875761168661164c565b5b835b818110156116b0578061169c88826113f7565b845260208401935050602081019050611689565b5050509392505050565b600082601f8301126116cf576116ce61158f565b5b81356116df848260208601611651565b91505092915050565b600080fd5b600067ffffffffffffffff821115611708576117076115a5565b5b61171182611594565b9050602081019050919050565b82818337600083830152505050565b600061174061173b846116ed565b611605565b90508281526020810184848401111561175c5761175b6116e8565b5b61176784828561171e565b509392505050565b600082601f8301126117845761178361158f565b5b813561179484826020860161172d565b91505092915050565b600080600080608085870312156117b7576117b661136e565b5b600085013567ffffffffffffffff8111156117d5576117d4611373565b5b6117e1878288016116ba565b945050602085013567ffffffffffffffff81111561180257611801611373565b5b61180e8782880161176f565b935050604085013567ffffffffffffffff81111561182f5761182e611373565b5b61183b8782880161176f565b925050606061184c878288016113f7565b91505092959194509250565b60006020828403121561186e5761186d61136e565b5b600082013567ffffffffffffffff81111561188c5761188b611373565b5b6118988482850161176f565b91505092915050565b600081519050919050565b600082825260208201905092915050565b6000819050602082019050919050565b6118d6816113ce565b82525050565b60006118e883836118cd565b60208301905092915050565b6000602082019050919050565b600061190c826118a1565b61191681856118ac565b9350611921836118bd565b8060005b8381101561195257815161193988826118dc565b9750611944836118f4565b925050600181019050611925565b5085935050505092915050565b600060208201905081810360008301526119798184611901565b905092915050565b600080604083850312156119985761199761136e565b5b60006119a6858286016113f7565b92505060206119b7858286016113f7565b9150509250929050565b600082825260208201905092915050565b7f6e6f742063616c6c65642066726f6d206120706f6f6c00000000000000000000600082015250565b6000611a086016836119c1565b9150611a13826119d2565b602082019050919050565b60006020820190508181036000830152611a37816119fb565b9050919050565b6000819050919050565b600061ffff82169050919050565b6000819050919050565b6000611a7b611a76611a7184611a3e565b611a56565b611a48565b9050919050565b611a8b81611a60565b82525050565b6000606082019050611aa660008301866114ab565b611ab360208301856114ab565b611ac06040830184611a82565b949350505050565b611ad181611378565b82525050565b6000604082019050611aec60008301856114ab565b611af96020830184611ac8565b9392505050565b6000604082019050611b1560008301856114ab565b611b2260208301846114ab565b9392505050565b600081519050611b3881611382565b92915050565b600060208284031215611b5457611b5361136e565b5b6000611b6284828501611b29565b91505092915050565b7f73656e646572206e6f7420617070726f76656400000000000000000000000000600082015250565b6000611ba16013836119c1565b9150611bac82611b6b565b602082019050919050565b60006020820190508181036000830152611bd081611b94565b9050919050565b6000606082019050611bec60008301866114ab565b611bf960208301856114ab565b611c066040830184611ac8565b949350505050565b600081519050611c1d81611418565b92915050565b600060208284031215611c3957611c3861136e565b5b6000611c4784828501611c0e565b91505092915050565b6000608082019050611c6560008301876114ab565b611c726020830186611ac8565b611c7f60408301856114ab565b611c8c6060830184611a82565b95945050505050565b600060a082019050611caa60008301886114ab565b611cb76020830187611ac8565b611cc46040830186611ac8565b611cd160608301856114ab565b611cde60808301846114ab565b9695505050505050565b6000608082019050611cfd60008301876114ab565b611d0a60208301866114ab565b611d1760408301856114ab565b611d246060830184611ac8565b95945050505050565b6000608082019050611d4260008301876114ab565b611d4f6020830186611ac8565b611d5c60408301856114ab565b611d6960608301846114ab565b95945050505050565b6000608082019050611d8760008301876114ab565b611d946020830186611ac8565b611da160408301856114ab565b611dae6060830184611502565b95945050505050565b600081519050919050565b600081905092915050565b60005b83811015611deb578082015181840152602081019050611dd0565b83811115611dfa576000848401525b50505050565b6000611e0b82611db7565b611e158185611dc2565b9350611e25818560208601611dcd565b80840191505092915050565b6000611e3d8284611e00565b915081905092915050565b7f706f6f6c2077697468206e616d6520616c726561647920657869737473000000600082015250565b6000611e7e601d836119c1565b9150611e8982611e48565b602082019050919050565b60006020820190508181036000830152611ead81611e71565b9050919050565b6000611ebf82611db7565b611ec981856119c1565b9350611ed9818560208601611dcd565b611ee281611594565b840191505092915050565b60006080820190508181036000830152611f078187611901565b90508181036020830152611f1b8186611eb4565b90508181036040830152611f2f8185611eb4565b9050611f3e60608301846114ab565b95945050505050565b6000606082019050611f5c60008301866114ab565b611f696020830185611ac8565b611f7660408301846114ab565b949350505050565b6000606082019050611f9360008301866114ab565b8181036020830152611fa58185611eb4565b9050611fb460408301846114ab565b949350505050565b600081519050919050565b600081905092915050565b6000611fdd82611fbc565b611fe78185611fc7565b9350611ff7818560208601611dcd565b80840191505092915050565b600061200f8284611fd2565b915081905092915050565b7f4e487b7100000000000000000000000000000000000000000000000000000000600052603260045260246000fd5b7f4e487b7100000000000000000000000000000000000000000000000000000000600052601160045260246000fd5b600060ff82169050919050565b600061209082612078565b915060ff8214156120a4576120a3612049565b5b600182019050919050565b6000815190506120be816113e0565b92915050565b6000602082840312156120da576120d961136e565b5b60006120e8848285016120af565b91505092915050565b600060a08201905061210660008301886114ab565b61211360208301876114ab565b61212060408301866114ab565b61212d60608301856114ab565b61213a6080830184611ac8565b9695505050505050565b7f455243313136373a20637265617465206661696c656400000000000000000000600082015250565b600061217a6016836119c1565b915061218582612144565b602082019050919050565b600060208201905081810360008301526121a98161216d565b905091905056fea2646970667358221220072ba2c38f5b126aef317e87a1e9f74764a4f82fa4e9fd8d04ce8fbce6508b5864736f6c6343000809003360806040523480156200001157600080fd5b506040518060400160405280601381526020017f4a4350204465706f7369746f7220546f6b656e000000000000000000000000008152506040518060400160405280600c81526020017f4a4350545f544553545f4431000000000000000000000000000000000000000081525081600090805190602001906200009692919062000334565b508060019080519060200190620000af92919062000334565b505050620000d2620000c66200026660201b60201c565b6200026e60201b60201c565b7388757f2f99175387ab4c6a4b3067c77a695b0349600b60006101000a81548173ffffffffffffffffffffffffffffffffffffffff021916908373ffffffffffffffffffffffffffffffffffffffff160217905550600b60009054906101000a900473ffffffffffffffffffffffffffffffffffffffff1673ffffffffffffffffffffffffffffffffffffffff16630261bf8b6040518163ffffffff1660e01b815260040160206040518083038186803b1580156200019057600080fd5b505afa158015620001a5573d6000803e3d6000fd5b505050506040513d601f19601f82011682018060405250810190620001cb91906200044e565b600c60006101000a81548173ffffffffffffffffffffffffffffffffffffffff021916908373ffffffffffffffffffffffffffffffffffffffff160217905550733c73a5e5785cac854d468f727c606c07488a29d6600d60006101000a81548173ffffffffffffffffffffffffffffffffffffffff021916908373ffffffffffffffffffffffffffffffffffffffff160217905550620004e5565b600033905090565b6000600a60009054906101000a900473ffffffffffffffffffffffffffffffffffffffff16905081600a60006101000a81548173ffffffffffffffffffffffffffffffffffffffff021916908373ffffffffffffffffffffffffffffffffffffffff1602179055508173ffffffffffffffffffffffffffffffffffffffff168173ffffffffffffffffffffffffffffffffffffffff167f8be0079c531659141344cd1fd0a4f28419497f9722a3daafe3b4186f6b6457e060405160405180910390a35050565b8280546200034290620004af565b90600052602060002090601f016020900481019282620003665760008555620003b2565b82601f106200038157805160ff1916838001178555620003b2565b82800160010185558215620003b2579182015b82811115620003b157825182559160200191906001019062000394565b5b509050620003c19190620003c5565b5090565b5b80821115620003e0576000816000905550600101620003c6565b5090565b600080fd5b600073ffffffffffffffffffffffffffffffffffffffff82169050919050565b60006200041682620003e9565b9050919050565b620004288162000409565b81146200043457600080fd5b50565b60008151905062000448816200041d565b92915050565b600060208284031215620004675762000466620003e4565b5b6000620004778482850162000437565b91505092915050565b7f4e487b7100000000000000000000000000000000000000000000000000000000600052602260045260246000fd5b60006002820490506001821680620004c857607f821691505b60208210811415620004df57620004de62000480565b5b50919050565b61411480620004f56000396000f3fe608060405234801561001057600080fd5b50600436106101585760003560e01c80636ba3fef2116100c3578063a22cb4651161007c578063a22cb465146103ff578063b88d4fde1461041b578063c87b56dd14610437578063d15e005314610467578063e985e9c514610497578063f2fde38b146104c757610158565b80636ba3fef21461033d57806370a0823114610359578063715018a61461038957806387fb12bd146103935780638da5cb5b146103c357806395d89b41146103e157610158565b80632e0c3f3c116101155780632e0c3f3c146102315780632f745c591461026157806342842e0e146102915780634f6ccce7146102ad5780635328c2bf146102dd5780636352211e1461030d57610158565b806301ffc9a71461015d57806306fdde031461018d578063081812fc146101ab578063095ea7b3146101db57806318160ddd146101f757806323b872dd14610215575b600080fd5b610177600480360381019061017291906128d6565b6104e3565b604051610184919061291e565b60405180910390f35b61019561055d565b6040516101a291906129d2565b60405180910390f35b6101c560048036038101906101c09190612a2a565b6105ef565b6040516101d29190612a98565b60405180910390f35b6101f560048036038101906101f09190612adf565b610674565b005b6101ff61078c565b60405161020c9190612b2e565b60405180910390f35b61022f600480360381019061022a9190612b49565b610799565b005b61024b60048036038101906102469190612a2a565b6107f9565b6040516102589190612b2e565b60405180910390f35b61027b60048036038101906102769190612adf565b610819565b6040516102889190612b2e565b60405180910390f35b6102ab60048036038101906102a69190612b49565b6108be565b005b6102c760048036038101906102c29190612a2a565b6108de565b6040516102d49190612b2e565b60405180910390f35b6102f760048036038101906102f29190612a2a565b61094f565b6040516103049190612c22565b60405180910390f35b61032760048036038101906103229190612a2a565b610a46565b6040516103349190612a98565b60405180910390f35b61035760048036038101906103529190612c3d565b610af8565b005b610373600480360381019061036e9190612ca4565b610d02565b6040516103809190612b2e565b60405180910390f35b610391610dba565b005b6103ad60048036038101906103a89190612cd1565b610e42565b6040516103ba9190612b2e565b60405180910390f35b6103cb6110ac565b6040516103d89190612a98565b60405180910390f35b6103e96110d6565b6040516103f691906129d2565b60405180910390f35b61041960048036038101906104149190612d78565b611168565b005b61043560048036038101906104309190612eed565b61117e565b005b610451600480360381019061044c9190612a2a565b6111e0565b60405161045e91906129d2565b60405180910390f35b610481600480360381019061047c9190612ca4565b611287565b60405161048e9190612b2e565b60405180910390f35b6104b160048036038101906104ac9190612f70565b61133b565b6040516104be919061291e565b60405180910390f35b6104e160048036038101906104dc9190612ca4565b6113cf565b005b60007f780e9d63000000000000000000000000000000000000000000000000000000007bffffffffffffffffffffffffffffffffffffffffffffffffffffffff1916827bffffffffffffffffffffffffffffffffffffffffffffffffffffffff191614806105565750610555826114c7565b5b9050919050565b60606000805461056c90612fdf565b80601f016020809104026020016040519081016040528092919081815260200182805461059890612fdf565b80156105e55780601f106105ba576101008083540402835291602001916105e5565b820191906000526020600020905b8154815290600101906020018083116105c857829003601f168201915b5050505050905090565b60006105fa826115a9565b610639576040517f08c379a000000000000000000000000000000000000000000000000000000000815260040161063090613083565b60405180910390fd5b6004600083815260200190815260200160002060009054906101000a900473ffffffffffffffffffffffffffffffffffffffff169050919050565b600061067f82610a46565b90508073ffffffffffffffffffffffffffffffffffffffff168373ffffffffffffffffffffffffffffffffffffffff1614156106f0576040517f08c379a00000000000000000000000000000000000000000000000000000000081526004016106e790613115565b60405180910390fd5b8073ffffffffffffffffffffffffffffffffffffffff1661070f611615565b73ffffffffffffffffffffffffffffffffffffffff16148061073e575061073d81610738611615565b61133b565b5b61077d576040517f08c379a0000000000000000000000000000000000000000000000000000000008152600401610774906131a7565b60405180910390fd5b610787838361161d565b505050565b6000600880549050905090565b6107aa6107a4611615565b826116d6565b6107e9576040517f08c379a00000000000000000000000000000000000000000000000000000000081526004016107e090613239565b60405180910390fd5b6107f48383836117b4565b505050565b6000600e6000838152602001908152602001600020600001549050919050565b600061082483610d02565b8210610865576040517f08c379a000000000000000000000000000000000000000000000000000000000815260040161085c906132cb565b60405180910390fd5b600660008473ffffffffffffffffffffffffffffffffffffffff1673ffffffffffffffffffffffffffffffffffffffff168152602001908152602001600020600083815260200190815260200160002054905092915050565b6108d98383836040518060200160405280600081525061117e565b505050565b60006108e861078c565b8210610929576040517f08c379a00000000000000000000000000000000000000000000000000000000081526004016109209061335d565b60405180910390fd5b6008828154811061093d5761093c61337d565b5b90600052602060002001549050919050565b61095761280f565b600e60008381526020019081526020016000206040518060a00160405290816000820154815260200160018201548152602001600282015481526020016003820160009054906101000a900473ffffffffffffffffffffffffffffffffffffffff1673ffffffffffffffffffffffffffffffffffffffff1673ffffffffffffffffffffffffffffffffffffffff1681526020016004820160009054906101000a900473ffffffffffffffffffffffffffffffffffffffff1673ffffffffffffffffffffffffffffffffffffffff1673ffffffffffffffffffffffffffffffffffffffff16815250509050919050565b6000806002600084815260200190815260200160002060009054906101000a900473ffffffffffffffffffffffffffffffffffffffff169050600073ffffffffffffffffffffffffffffffffffffffff168173ffffffffffffffffffffffffffffffffffffffff161415610aef576040517f08c379a0000000000000000000000000000000000000000000000000000000008152600401610ae69061341e565b60405180910390fd5b80915050919050565b610b00611615565b73ffffffffffffffffffffffffffffffffffffffff16610b1e6110ac565b73ffffffffffffffffffffffffffffffffffffffff1614610b74576040517f08c379a0000000000000000000000000000000000000000000000000000000008152600401610b6b9061348a565b60405180910390fd5b6000848383604051602001610b8b939291906134f2565b6040516020818303038152906040528051906020012060001c9050610baf816115a9565b610bee576040517f08c379a0000000000000000000000000000000000000000000000000000000008152600401610be59061357b565b60405180910390fd5b6000600e600083815260200190815260200160002060000154905084811015610c4c576040517f08c379a0000000000000000000000000000000000000000000000000000000008152600401610c43906135e7565b60405180910390fd5b8481610c589190613636565b90506000811415610ca0576000600e6000848152602001908152602001600020600101819055506000600e600084815260200190815260200160002060020181905550610cdf565b610cb285610cad85611a10565b611afb565b600e60008481526020019081526020016000206002016000828254610cd79190613636565b925050819055505b80600e600084815260200190815260200160002060000181905550505050505050565b60008073ffffffffffffffffffffffffffffffffffffffff168273ffffffffffffffffffffffffffffffffffffffff161415610d73576040517f08c379a0000000000000000000000000000000000000000000000000000000008152600401610d6a906136dc565b60405180910390fd5b600360008373ffffffffffffffffffffffffffffffffffffffff1673ffffffffffffffffffffffffffffffffffffffff168152602001908152602001600020549050919050565b610dc2611615565b73ffffffffffffffffffffffffffffffffffffffff16610de06110ac565b73ffffffffffffffffffffffffffffffffffffffff1614610e36576040517f08c379a0000000000000000000000000000000000000000000000000000000008152600401610e2d9061348a565b60405180910390fd5b610e406000611c07565b565b6000610e4c611615565b73ffffffffffffffffffffffffffffffffffffffff16610e6a6110ac565b73ffffffffffffffffffffffffffffffffffffffff1614610ec0576040517f08c379a0000000000000000000000000000000000000000000000000000000008152600401610eb79061348a565b60405180910390fd5b6000868484604051602001610ed7939291906134f2565b6040516020818303038152906040528051906020012060001c90506000610efd84611a10565b9050610f08826115a9565b15610f755786600e60008481526020019081526020016000206000016000828254610f3391906136fc565b92505081905550610f448782611afb565b600e60008481526020019081526020016000206002016000828254610f6991906136fc565b9250508190555061109e565b6040518060a00160405280888152602001878152602001610f968984611afb565b81526020018673ffffffffffffffffffffffffffffffffffffffff1681526020018573ffffffffffffffffffffffffffffffffffffffff16815250600e600084815260200190815260200160002060008201518160000155602082015181600101556040820151816002015560608201518160030160006101000a81548173ffffffffffffffffffffffffffffffffffffffff021916908373ffffffffffffffffffffffffffffffffffffffff16021790555060808201518160040160006101000a81548173ffffffffffffffffffffffffffffffffffffffff021916908373ffffffffffffffffffffffffffffffffffffffff16021790555090505061109d8883611ccd565b5b819250505095945050505050565b6000600a60009054906101000a900473ffffffffffffffffffffffffffffffffffffffff16905090565b6060600180546110e590612fdf565b80601f016020809104026020016040519081016040528092919081815260200182805461111190612fdf565b801561115e5780601f106111335761010080835404028352916020019161115e565b820191906000526020600020905b81548152906001019060200180831161114157829003601f168201915b5050505050905090565b61117a611173611615565b8383611e9b565b5050565b61118f611189611615565b836116d6565b6111ce576040517f08c379a00000000000000000000000000000000000000000000000000000000081526004016111c590613239565b60405180910390fd5b6111da84848484612008565b50505050565b60606111eb826115a9565b61122a576040517f08c379a0000000000000000000000000000000000000000000000000000000008152600401611221906137c4565b60405180910390fd5b6000611234612064565b90506000815111611254576040518060200160405280600081525061127f565b8061125e8461207b565b60405160200161126f929190613820565b6040516020818303038152906040525b915050919050565b6000600c60009054906101000a900473ffffffffffffffffffffffffffffffffffffffff1673ffffffffffffffffffffffffffffffffffffffff1663d15e0053836040518263ffffffff1660e01b81526004016112e49190612a98565b60206040518083038186803b1580156112fc57600080fd5b505afa158015611310573d6000803e3d6000fd5b505050506040513d601f19601f820116820180604052508101906113349190613859565b9050919050565b6000600560008473ffffffffffffffffffffffffffffffffffffffff1673ffffffffffffffffffffffffffffffffffffffff16815260200190815260200160002060008373ffffffffffffffffffffffffffffffffffffffff1673ffffffffffffffffffffffffffffffffffffffff16815260200190815260200160002060009054906101000a900460ff16905092915050565b6113d7611615565b73ffffffffffffffffffffffffffffffffffffffff166113f56110ac565b73ffffffffffffffffffffffffffffffffffffffff161461144b576040517f08c379a00000000000000000000000000000000000000000000000000000000081526004016114429061348a565b60405180910390fd5b600073ffffffffffffffffffffffffffffffffffffffff168173ffffffffffffffffffffffffffffffffffffffff1614156114bb576040517f08c379a00000000000000000000000000000000000000000000000000000000081526004016114b2906138f8565b60405180910390fd5b6114c481611c07565b50565b60007f80ac58cd000000000000000000000000000000000000000000000000000000007bffffffffffffffffffffffffffffffffffffffffffffffffffffffff1916827bffffffffffffffffffffffffffffffffffffffffffffffffffffffff1916148061159257507f5b5e139f000000000000000000000000000000000000000000000000000000007bffffffffffffffffffffffffffffffffffffffffffffffffffffffff1916827bffffffffffffffffffffffffffffffffffffffffffffffffffffffff1916145b806115a257506115a1826121dc565b5b9050919050565b60008073ffffffffffffffffffffffffffffffffffffffff166002600084815260200190815260200160002060009054906101000a900473ffffffffffffffffffffffffffffffffffffffff1673ffffffffffffffffffffffffffffffffffffffff1614159050919050565b600033905090565b816004600083815260200190815260200160002060006101000a81548173ffffffffffffffffffffffffffffffffffffffff021916908373ffffffffffffffffffffffffffffffffffffffff160217905550808273ffffffffffffffffffffffffffffffffffffffff1661169083610a46565b73ffffffffffffffffffffffffffffffffffffffff167f8c5be1e5ebec7d5bd14f71427d1e84f3dd0314c0f7b2291e5b200ac8c7c3b92560405160405180910390a45050565b60006116e1826115a9565b611720576040517f08c379a00000000000000000000000000000000000000000000000000000000081526004016117179061398a565b60405180910390fd5b600061172b83610a46565b90508073ffffffffffffffffffffffffffffffffffffffff168473ffffffffffffffffffffffffffffffffffffffff16148061179a57508373ffffffffffffffffffffffffffffffffffffffff16611782846105ef565b73ffffffffffffffffffffffffffffffffffffffff16145b806117ab57506117aa818561133b565b5b91505092915050565b8273ffffffffffffffffffffffffffffffffffffffff166117d482610a46565b73ffffffffffffffffffffffffffffffffffffffff161461182a576040517f08c379a000000000000000000000000000000000000000000000000000000000815260040161182190613a1c565b60405180910390fd5b600073ffffffffffffffffffffffffffffffffffffffff168273ffffffffffffffffffffffffffffffffffffffff16141561189a576040517f08c379a000000000000000000000000000000000000000000000000000000000815260040161189190613aae565b60405180910390fd5b6118a5838383612246565b6118b060008261161d565b6001600360008573ffffffffffffffffffffffffffffffffffffffff1673ffffffffffffffffffffffffffffffffffffffff16815260200190815260200160002060008282546119009190613636565b925050819055506001600360008473ffffffffffffffffffffffffffffffffffffffff1673ffffffffffffffffffffffffffffffffffffffff168152602001908152602001600020600082825461195791906136fc565b92505081905550816002600083815260200190815260200160002060006101000a81548173ffffffffffffffffffffffffffffffffffffffff021916908373ffffffffffffffffffffffffffffffffffffffff160217905550808273ffffffffffffffffffffffffffffffffffffffff168473ffffffffffffffffffffffffffffffffffffffff167fddf252ad1be2c89b69c2b068fc378daa952ba7f163c4a11628f55a4df523b3ef60405160405180910390a4505050565b6000600d60009054906101000a900473ffffffffffffffffffffffffffffffffffffffff1673ffffffffffffffffffffffffffffffffffffffff166335ea6a75836040518263ffffffff1660e01b8152600401611a6d9190612a98565b6101406040518083038186803b158015611a8657600080fd5b505afa158015611a9a573d6000803e3d6000fd5b505050506040513d601f19601f82011682018060405250810190611abe9190613b0b565b9091929394959697985090919293949596975090919293949596509091929394955090919293945090919293509091925090505080915050919050565b600080821415611b40576040517f08c379a0000000000000000000000000000000000000000000000000000000008152600401611b3790613c36565b60405180910390fd5b6000600283611b4f9190613c85565b905060006b033b2e3c9fd0803ce8000000905080827fffffffffffffffffffffffffffffffffffffffffffffffffffffffffffffffff611b8f9190613636565b611b999190613c85565b851115611bdb576040517f08c379a0000000000000000000000000000000000000000000000000000000008152600401611bd290613d02565b60405180910390fd5b83828287611be99190613d22565b611bf391906136fc565b611bfd9190613c85565b9250505092915050565b6000600a60009054906101000a900473ffffffffffffffffffffffffffffffffffffffff16905081600a60006101000a81548173ffffffffffffffffffffffffffffffffffffffff021916908373ffffffffffffffffffffffffffffffffffffffff1602179055508173ffffffffffffffffffffffffffffffffffffffff168173ffffffffffffffffffffffffffffffffffffffff167f8be0079c531659141344cd1fd0a4f28419497f9722a3daafe3b4186f6b6457e060405160405180910390a35050565b600073ffffffffffffffffffffffffffffffffffffffff168273ffffffffffffffffffffffffffffffffffffffff161415611d3d576040517f08c379a0000000000000000000000000000000000000000000000000000000008152600401611d3490613dc8565b60405180910390fd5b611d46816115a9565b15611d86576040517f08c379a0000000000000000000000000000000000000000000000000000000008152600401611d7d90613e34565b60405180910390fd5b611d9260008383612246565b6001600360008473ffffffffffffffffffffffffffffffffffffffff1673ffffffffffffffffffffffffffffffffffffffff1681526020019081526020016000206000828254611de291906136fc565b92505081905550816002600083815260200190815260200160002060006101000a81548173ffffffffffffffffffffffffffffffffffffffff021916908373ffffffffffffffffffffffffffffffffffffffff160217905550808273ffffffffffffffffffffffffffffffffffffffff16600073ffffffffffffffffffffffffffffffffffffffff167fddf252ad1be2c89b69c2b068fc378daa952ba7f163c4a11628f55a4df523b3ef60405160405180910390a45050565b8173ffffffffffffffffffffffffffffffffffffffff168373ffffffffffffffffffffffffffffffffffffffff161415611f0a576040517f08c379a0000000000000000000000000000000000000000000000000000000008152600401611f0190613ea0565b60405180910390fd5b80600560008573ffffffffffffffffffffffffffffffffffffffff1673ffffffffffffffffffffffffffffffffffffffff16815260200190815260200160002060008473ffffffffffffffffffffffffffffffffffffffff1673ffffffffffffffffffffffffffffffffffffffff16815260200190815260200160002060006101000a81548160ff0219169083151502179055508173ffffffffffffffffffffffffffffffffffffffff168373ffffffffffffffffffffffffffffffffffffffff167f17307eab39ab6107e8899845ad3d59bd9653f200f220920489ca2b5937696c3183604051611ffb919061291e565b60405180910390a3505050565b6120138484846117b4565b61201f8484848461235a565b61205e576040517f08c379a000000000000000000000000000000000000000000000000000000000815260040161205590613f32565b60405180910390fd5b50505050565b606060405180602001604052806000815250905090565b606060008214156120c3576040518060400160405280600181526020017f300000000000000000000000000000000000000000000000000000000000000081525090506121d7565b600082905060005b600082146120f55780806120de90613f52565b915050600a826120ee9190613c85565b91506120cb565b60008167ffffffffffffffff81111561211157612110612dc2565b5b6040519080825280601f01601f1916602001820160405280156121435781602001600182028036833780820191505090505b5090505b600085146121d05760018261215c9190613636565b9150600a8561216b9190613f9b565b603061217791906136fc565b60f81b81838151811061218d5761218c61337d565b5b60200101907effffffffffffffffffffffffffffffffffffffffffffffffffffffffffffff1916908160001a905350600a856121c99190613c85565b9450612147565b8093505050505b919050565b60007f01ffc9a7000000000000000000000000000000000000000000000000000000007bffffffffffffffffffffffffffffffffffffffffffffffffffffffff1916827bffffffffffffffffffffffffffffffffffffffffffffffffffffffff1916149050919050565b6122518383836124f1565b600073ffffffffffffffffffffffffffffffffffffffff168373ffffffffffffffffffffffffffffffffffffffff1614156122945761228f816124f6565b6122d3565b8173ffffffffffffffffffffffffffffffffffffffff168373ffffffffffffffffffffffffffffffffffffffff16146122d2576122d1838261253f565b5b5b600073ffffffffffffffffffffffffffffffffffffffff168273ffffffffffffffffffffffffffffffffffffffff16141561231657612311816126ac565b612355565b8273ffffffffffffffffffffffffffffffffffffffff168273ffffffffffffffffffffffffffffffffffffffff161461235457612353828261277d565b5b5b505050565b600061237b8473ffffffffffffffffffffffffffffffffffffffff166127fc565b156124e4578373ffffffffffffffffffffffffffffffffffffffff1663150b7a026123a4611615565b8786866040518563ffffffff1660e01b81526004016123c69493929190614021565b602060405180830381600087803b1580156123e057600080fd5b505af192505050801561241157506040513d601f19601f8201168201806040525081019061240e9190614082565b60015b612494573d8060008114612441576040519150601f19603f3d011682016040523d82523d6000602084013e612446565b606091505b5060008151141561248c576040517f08c379a000000000000000000000000000000000000000000000000000000000815260040161248390613f32565b60405180910390fd5b805181602001fd5b63150b7a0260e01b7bffffffffffffffffffffffffffffffffffffffffffffffffffffffff1916817bffffffffffffffffffffffffffffffffffffffffffffffffffffffff1916149150506124e9565b600190505b949350505050565b505050565b6008805490506009600083815260200190815260200160002081905550600881908060018154018082558091505060019003906000526020600020016000909190919091505550565b6000600161254c84610d02565b6125569190613636565b905060006007600084815260200190815260200160002054905081811461263b576000600660008673ffffffffffffffffffffffffffffffffffffffff1673ffffffffffffffffffffffffffffffffffffffff168152602001908152602001600020600084815260200190815260200160002054905080600660008773ffffffffffffffffffffffffffffffffffffffff1673ffffffffffffffffffffffffffffffffffffffff168152602001908152602001600020600084815260200190815260200160002081905550816007600083815260200190815260200160002081905550505b6007600084815260200190815260200160002060009055600660008573ffffffffffffffffffffffffffffffffffffffff1673ffffffffffffffffffffffffffffffffffffffff16815260200190815260200160002060008381526020019081526020016000206000905550505050565b600060016008805490506126c09190613636565b90506000600960008481526020019081526020016000205490506000600883815481106126f0576126ef61337d565b5b9060005260206000200154905080600883815481106127125761271161337d565b5b906000526020600020018190555081600960008381526020019081526020016000208190555060096000858152602001908152602001600020600090556008805480612761576127606140af565b5b6001900381819060005260206000200160009055905550505050565b600061278883610d02565b905081600660008573ffffffffffffffffffffffffffffffffffffffff1673ffffffffffffffffffffffffffffffffffffffff168152602001908152602001600020600083815260200190815260200160002081905550806007600084815260200190815260200160002081905550505050565b600080823b905060008111915050919050565b6040518060a00160405280600081526020016000815260200160008152602001600073ffffffffffffffffffffffffffffffffffffffff168152602001600073ffffffffffffffffffffffffffffffffffffffff1681525090565b6000604051905090565b600080fd5b600080fd5b60007fffffffff0000000000000000000000000000000000000000000000000000000082169050919050565b6128b38161287e565b81146128be57600080fd5b50565b6000813590506128d0816128aa565b92915050565b6000602082840312156128ec576128eb612874565b5b60006128fa848285016128c1565b91505092915050565b60008115159050919050565b61291881612903565b82525050565b6000602082019050612933600083018461290f565b92915050565b600081519050919050565b600082825260208201905092915050565b60005b83811015612973578082015181840152602081019050612958565b83811115612982576000848401525b50505050565b6000601f19601f8301169050919050565b60006129a482612939565b6129ae8185612944565b93506129be818560208601612955565b6129c781612988565b840191505092915050565b600060208201905081810360008301526129ec8184612999565b905092915050565b6000819050919050565b612a07816129f4565b8114612a1257600080fd5b50565b600081359050612a24816129fe565b92915050565b600060208284031215612a4057612a3f612874565b5b6000612a4e84828501612a15565b91505092915050565b600073ffffffffffffffffffffffffffffffffffffffff82169050919050565b6000612a8282612a57565b9050919050565b612a9281612a77565b82525050565b6000602082019050612aad6000830184612a89565b92915050565b612abc81612a77565b8114612ac757600080fd5b50565b600081359050612ad981612ab3565b92915050565b60008060408385031215612af657612af5612874565b5b6000612b0485828601612aca565b9250506020612b1585828601612a15565b9150509250929050565b612b28816129f4565b82525050565b6000602082019050612b436000830184612b1f565b92915050565b600080600060608486031215612b6257612b61612874565b5b6000612b7086828701612aca565b9350506020612b8186828701612aca565b9250506040612b9286828701612a15565b9150509250925092565b612ba5816129f4565b82525050565b612bb481612a77565b82525050565b60a082016000820151612bd06000850182612b9c565b506020820151612be36020850182612b9c565b506040820151612bf66040850182612b9c565b506060820151612c096060850182612bab565b506080820151612c1c6080850182612bab565b50505050565b600060a082019050612c376000830184612bba565b92915050565b60008060008060808587031215612c5757612c56612874565b5b6000612c6587828801612aca565b9450506020612c7687828801612a15565b9350506040612c8787828801612aca565b9250506060612c9887828801612aca565b91505092959194509250565b600060208284031215612cba57612cb9612874565b5b6000612cc884828501612aca565b91505092915050565b600080600080600060a08688031215612ced57612cec612874565b5b6000612cfb88828901612aca565b9550506020612d0c88828901612a15565b9450506040612d1d88828901612a15565b9350506060612d2e88828901612aca565b9250506080612d3f88828901612aca565b9150509295509295909350565b612d5581612903565b8114612d6057600080fd5b50565b600081359050612d7281612d4c565b92915050565b60008060408385031215612d8f57612d8e612874565b5b6000612d9d85828601612aca565b9250506020612dae85828601612d63565b9150509250929050565b600080fd5b600080fd5b7f4e487b7100000000000000000000000000000000000000000000000000000000600052604160045260246000fd5b612dfa82612988565b810181811067ffffffffffffffff82111715612e1957612e18612dc2565b5b80604052505050565b6000612e2c61286a565b9050612e388282612df1565b919050565b600067ffffffffffffffff821115612e5857612e57612dc2565b5b612e6182612988565b9050602081019050919050565b82818337600083830152505050565b6000612e90612e8b84612e3d565b612e22565b905082815260208101848484011115612eac57612eab612dbd565b5b612eb7848285612e6e565b509392505050565b600082601f830112612ed457612ed3612db8565b5b8135612ee4848260208601612e7d565b91505092915050565b60008060008060808587031215612f0757612f06612874565b5b6000612f1587828801612aca565b9450506020612f2687828801612aca565b9350506040612f3787828801612a15565b925050606085013567ffffffffffffffff811115612f5857612f57612879565b5b612f6487828801612ebf565b91505092959194509250565b60008060408385031215612f8757612f86612874565b5b6000612f9585828601612aca565b9250506020612fa685828601612aca565b9150509250929050565b7f4e487b7100000000000000000000000000000000000000000000000000000000600052602260045260246000fd5b60006002820490506001821680612ff757607f821691505b6020821081141561300b5761300a612fb0565b5b50919050565b7f4552433732313a20617070726f76656420717565727920666f72206e6f6e657860008201527f697374656e7420746f6b656e0000000000000000000000000000000000000000602082015250565b600061306d602c83612944565b915061307882613011565b604082019050919050565b6000602082019050818103600083015261309c81613060565b9050919050565b7f4552433732313a20617070726f76616c20746f2063757272656e74206f776e6560008201527f7200000000000000000000000000000000000000000000000000000000000000602082015250565b60006130ff602183612944565b915061310a826130a3565b604082019050919050565b6000602082019050818103600083015261312e816130f2565b9050919050565b7f4552433732313a20617070726f76652063616c6c6572206973206e6f74206f7760008201527f6e6572206e6f7220617070726f76656420666f7220616c6c0000000000000000602082015250565b6000613191603883612944565b915061319c82613135565b604082019050919050565b600060208201905081810360008301526131c081613184565b9050919050565b7f4552433732313a207472616e736665722063616c6c6572206973206e6f74206f60008201527f776e6572206e6f7220617070726f766564000000000000000000000000000000602082015250565b6000613223603183612944565b915061322e826131c7565b604082019050919050565b6000602082019050818103600083015261325281613216565b9050919050565b7f455243373231456e756d657261626c653a206f776e657220696e646578206f7560008201527f74206f6620626f756e6473000000000000000000000000000000000000000000602082015250565b60006132b5602b83612944565b91506132c082613259565b604082019050919050565b600060208201905081810360008301526132e4816132a8565b9050919050565b7f455243373231456e756d657261626c653a20676c6f62616c20696e646578206f60008201527f7574206f6620626f756e64730000000000000000000000000000000000000000602082015250565b6000613347602c83612944565b9150613352826132eb565b604082019050919050565b600060208201905081810360008301526133768161333a565b9050919050565b7f4e487b7100000000000000000000000000000000000000000000000000000000600052603260045260246000fd5b7f4552433732313a206f776e657220717565727920666f72206e6f6e657869737460008201527f656e7420746f6b656e0000000000000000000000000000000000000000000000602082015250565b6000613408602983612944565b9150613413826133ac565b604082019050919050565b60006020820190508181036000830152613437816133fb565b9050919050565b7f4f776e61626c653a2063616c6c6572206973206e6f7420746865206f776e6572600082015250565b6000613474602083612944565b915061347f8261343e565b602082019050919050565b600060208201905081810360008301526134a381613467565b9050919050565b60008160601b9050919050565b60006134c2826134aa565b9050919050565b60006134d4826134b7565b9050919050565b6134ec6134e782612a77565b6134c9565b82525050565b60006134fe82866134db565b60148201915061350e82856134db565b60148201915061351e82846134db565b601482019150819050949350505050565b7f746f6b656e496420646f65736e27742065786973740000000000000000000000600082015250565b6000613565601583612944565b91506135708261352f565b602082019050919050565b6000602082019050818103600083015261359481613558565b9050919050565b7f696e73756666696369656e742062616c616e6365000000000000000000000000600082015250565b60006135d1601483612944565b91506135dc8261359b565b602082019050919050565b60006020820190508181036000830152613600816135c4565b9050919050565b7f4e487b7100000000000000000000000000000000000000000000000000000000600052601160045260246000fd5b6000613641826129f4565b915061364c836129f4565b92508282101561365f5761365e613607565b5b828203905092915050565b7f4552433732313a2062616c616e636520717565727920666f7220746865207a6560008201527f726f206164647265737300000000000000000000000000000000000000000000602082015250565b60006136c6602a83612944565b91506136d18261366a565b604082019050919050565b600060208201905081810360008301526136f5816136b9565b9050919050565b6000613707826129f4565b9150613712836129f4565b9250827fffffffffffffffffffffffffffffffffffffffffffffffffffffffffffffffff0382111561374757613746613607565b5b828201905092915050565b7f4552433732314d657461646174613a2055524920717565727920666f72206e6f60008201527f6e6578697374656e7420746f6b656e0000000000000000000000000000000000602082015250565b60006137ae602f83612944565b91506137b982613752565b604082019050919050565b600060208201905081810360008301526137dd816137a1565b9050919050565b600081905092915050565b60006137fa82612939565b61380481856137e4565b9350613814818560208601612955565b80840191505092915050565b600061382c82856137ef565b915061383882846137ef565b91508190509392505050565b600081519050613853816129fe565b92915050565b60006020828403121561386f5761386e612874565b5b600061387d84828501613844565b91505092915050565b7f4f776e61626c653a206e6577206f776e657220697320746865207a65726f206160008201527f6464726573730000000000000000000000000000000000000000000000000000602082015250565b60006138e2602683612944565b91506138ed82613886565b604082019050919050565b60006020820190508181036000830152613911816138d5565b9050919050565b7f4552433732313a206f70657261746f7220717565727920666f72206e6f6e657860008201527f697374656e7420746f6b656e0000000000000000000000000000000000000000602082015250565b6000613974602c83612944565b915061397f82613918565b604082019050919050565b600060208201905081810360008301526139a381613967565b9050919050565b7f4552433732313a207472616e73666572206f6620746f6b656e2074686174206960008201527f73206e6f74206f776e0000000000000000000000000000000000000000000000602082015250565b6000613a06602983612944565b9150613a11826139aa565b604082019050919050565b60006020820190508181036000830152613a35816139f9565b9050919050565b7f4552433732313a207472616e7366657220746f20746865207a65726f2061646460008201527f7265737300000000000000000000000000000000000000000000000000000000602082015250565b6000613a98602483612944565b9150613aa382613a3c565b604082019050919050565b60006020820190508181036000830152613ac781613a8b565b9050919050565b600064ffffffffff82169050919050565b613ae881613ace565b8114613af357600080fd5b50565b600081519050613b0581613adf565b92915050565b6000806000806000806000806000806101408b8d031215613b2f57613b2e612874565b5b6000613b3d8d828e01613844565b9a50506020613b4e8d828e01613844565b9950506040613b5f8d828e01613844565b9850506060613b708d828e01613844565b9750506080613b818d828e01613844565b96505060a0613b928d828e01613844565b95505060c0613ba38d828e01613844565b94505060e0613bb48d828e01613844565b935050610100613bc68d828e01613844565b925050610120613bd88d828e01613af6565b9150509295989b9194979a5092959850565b7f6469766973696f6e206279203000000000000000000000000000000000000000600082015250565b6000613c20600d83612944565b9150613c2b82613bea565b602082019050919050565b60006020820190508181036000830152613c4f81613c13565b9050919050565b7f4e487b7100000000000000000000000000000000000000000000000000000000600052601260045260246000fd5b6000613c90826129f4565b9150613c9b836129f4565b925082613cab57613caa613c56565b5b828204905092915050565b7f6d756c7469706c69636174696f6e206f766572666c6f77000000000000000000600082015250565b6000613cec601783612944565b9150613cf782613cb6565b602082019050919050565b60006020820190508181036000830152613d1b81613cdf565b9050919050565b6000613d2d826129f4565b9150613d38836129f4565b9250817fffffffffffffffffffffffffffffffffffffffffffffffffffffffffffffffff0483118215151615613d7157613d70613607565b5b828202905092915050565b7f4552433732313a206d696e7420746f20746865207a65726f2061646472657373600082015250565b6000613db2602083612944565b9150613dbd82613d7c565b602082019050919050565b60006020820190508181036000830152613de181613da5565b9050919050565b7f4552433732313a20746f6b656e20616c7265616479206d696e74656400000000600082015250565b6000613e1e601c83612944565b9150613e2982613de8565b602082019050919050565b60006020820190508181036000830152613e4d81613e11565b9050919050565b7f4552433732313a20617070726f766520746f2063616c6c657200000000000000600082015250565b6000613e8a601983612944565b9150613e9582613e54565b602082019050919050565b60006020820190508181036000830152613eb981613e7d565b9050919050565b7f4552433732313a207472616e7366657220746f206e6f6e20455243373231526560008201527f63656976657220696d706c656d656e7465720000000000000000000000000000602082015250565b6000613f1c603283612944565b9150613f2782613ec0565b604082019050919050565b60006020820190508181036000830152613f4b81613f0f565b9050919050565b6000613f5d826129f4565b91507fffffffffffffffffffffffffffffffffffffffffffffffffffffffffffffffff821415613f9057613f8f613607565b5b600182019050919050565b6000613fa6826129f4565b9150613fb1836129f4565b925082613fc157613fc0613c56565b5b828206905092915050565b600081519050919050565b600082825260208201905092915050565b6000613ff382613fcc565b613ffd8185613fd7565b935061400d818560208601612955565b61401681612988565b840191505092915050565b60006080820190506140366000830187612a89565b6140436020830186612a89565b6140506040830185612b1f565b81810360608301526140628184613fe8565b905095945050505050565b60008151905061407c816128aa565b92915050565b60006020828403121561409857614097612874565b5b60006140a68482850161406d565b91505092915050565b7f4e487b7100000000000000000000000000000000000000000000000000000000600052603160045260246000fdfea264697066735822122013b091e4dde4621d334563f06d37922080cf5de21144c54998d0f686ba55f06f64736f6c6343000809003360806040523480156200001157600080fd5b506040518060400160405280600f81526020017f4a4350204f776e657220546f6b656e00000000000000000000000000000000008152506040518060400160405280600c81526020017f4a4350545f544553545f4f310000000000000000000000000000000000000000815250816000908051906020019062000096929190620001a6565b508060019080519060200190620000af929190620001a6565b505050620000d2620000c6620000d860201b60201c565b620000e060201b60201c565b620002bb565b600033905090565b6000600a60009054906101000a900473ffffffffffffffffffffffffffffffffffffffff16905081600a60006101000a81548173ffffffffffffffffffffffffffffffffffffffff021916908373ffffffffffffffffffffffffffffffffffffffff1602179055508173ffffffffffffffffffffffffffffffffffffffff168173ffffffffffffffffffffffffffffffffffffffff167f8be0079c531659141344cd1fd0a4f28419497f9722a3daafe3b4186f6b6457e060405160405180910390a35050565b828054620001b49062000285565b90600052602060002090601f016020900481019282620001d8576000855562000224565b82601f10620001f357805160ff191683800117855562000224565b8280016001018555821562000224579182015b828111156200022357825182559160200191906001019062000206565b5b50905062000233919062000237565b5090565b5b808211156200025257600081600090555060010162000238565b5090565b7f4e487b7100000000000000000000000000000000000000000000000000000000600052602260045260246000fd5b600060028204905060018216806200029e57607f821691505b60208210811415620002b557620002b462000256565b5b50919050565b61354f80620002cb6000396000f3fe608060405234801561001057600080fd5b50600436106101375760003560e01c80636352211e116100b8578063a22cb4651161007c578063a22cb46514610362578063b88d4fde1461037e578063c6fdbc901461039a578063c87b56dd146103ca578063e985e9c5146103fa578063f2fde38b1461042a57610137565b80636352211e146102bc57806370a08231146102ec578063715018a61461031c5780638da5cb5b1461032657806395d89b411461034457610137565b806323579ba1116100ff57806323579ba1146101f457806323b872dd146102245780632f745c591461024057806342842e0e146102705780634f6ccce71461028c57610137565b806301ffc9a71461013c57806306fdde031461016c578063081812fc1461018a578063095ea7b3146101ba57806318160ddd146101d6575b600080fd5b610156600480360381019061015191906121c6565b610446565b604051610163919061220e565b60405180910390f35b6101746104c0565b60405161018191906122c2565b60405180910390f35b6101a4600480360381019061019f919061231a565b610552565b6040516101b19190612388565b60405180910390f35b6101d460048036038101906101cf91906123cf565b6105d7565b005b6101de6106ef565b6040516101eb919061241e565b60405180910390f35b61020e60048036038101906102099190612439565b6106fc565b60405161021b919061241e565b60405180910390f35b61023e6004803603810190610239919061248c565b610839565b005b61025a600480360381019061025591906123cf565b610899565b604051610267919061241e565b60405180910390f35b61028a6004803603810190610285919061248c565b61093e565b005b6102a660048036038101906102a1919061231a565b61095e565b6040516102b3919061241e565b60405180910390f35b6102d660048036038101906102d1919061231a565b6109cf565b6040516102e39190612388565b60405180910390f35b610306600480360381019061030191906124df565b610a81565b604051610313919061241e565b60405180910390f35b610324610b39565b005b61032e610bc1565b60405161033b9190612388565b60405180910390f35b61034c610beb565b60405161035991906122c2565b60405180910390f35b61037c60048036038101906103779190612538565b610c7d565b005b610398600480360381019061039391906126ad565b610c93565b005b6103b460048036038101906103af919061231a565b610cf5565b6040516103c1919061277d565b60405180910390f35b6103e460048036038101906103df919061231a565b610d82565b6040516103f191906122c2565b60405180910390f35b610414600480360381019061040f9190612798565b610e29565b604051610421919061220e565b60405180910390f35b610444600480360381019061043f91906124df565b610ebd565b005b60007f780e9d63000000000000000000000000000000000000000000000000000000007bffffffffffffffffffffffffffffffffffffffffffffffffffffffff1916827bffffffffffffffffffffffffffffffffffffffffffffffffffffffff191614806104b957506104b882610fb5565b5b9050919050565b6060600080546104cf90612807565b80601f01602080910402602001604051908101604052809291908181526020018280546104fb90612807565b80156105485780601f1061051d57610100808354040283529160200191610548565b820191906000526020600020905b81548152906001019060200180831161052b57829003601f168201915b5050505050905090565b600061055d82611097565b61059c576040517f08c379a0000000000000000000000000000000000000000000000000000000008152600401610593906128ab565b60405180910390fd5b6004600083815260200190815260200160002060009054906101000a900473ffffffffffffffffffffffffffffffffffffffff169050919050565b60006105e2826109cf565b90508073ffffffffffffffffffffffffffffffffffffffff168373ffffffffffffffffffffffffffffffffffffffff161415610653576040517f08c379a000000000000000000000000000000000000000000000000000000000815260040161064a9061293d565b60405180910390fd5b8073ffffffffffffffffffffffffffffffffffffffff16610672611103565b73ffffffffffffffffffffffffffffffffffffffff1614806106a157506106a08161069b611103565b610e29565b5b6106e0576040517f08c379a00000000000000000000000000000000000000000000000000000000081526004016106d7906129cf565b60405180910390fd5b6106ea838361110b565b505050565b6000600880549050905090565b6000610706611103565b73ffffffffffffffffffffffffffffffffffffffff16610724610bc1565b73ffffffffffffffffffffffffffffffffffffffff161461077a576040517f08c379a000000000000000000000000000000000000000000000000000000000815260040161077190612a3b565b60405180910390fd5b610784600b6111c4565b6000610790600b6111da565b905060405180604001604052808581526020018473ffffffffffffffffffffffffffffffffffffffff16815250600c60008381526020019081526020016000206000820151816000015560208201518160010160006101000a81548173ffffffffffffffffffffffffffffffffffffffff021916908373ffffffffffffffffffffffffffffffffffffffff16021790555090505061082e85826111e8565b809150509392505050565b61084a610844611103565b826113b6565b610889576040517f08c379a000000000000000000000000000000000000000000000000000000000815260040161088090612acd565b60405180910390fd5b610894838383611494565b505050565b60006108a483610a81565b82106108e5576040517f08c379a00000000000000000000000000000000000000000000000000000000081526004016108dc90612b5f565b60405180910390fd5b600660008473ffffffffffffffffffffffffffffffffffffffff1673ffffffffffffffffffffffffffffffffffffffff168152602001908152602001600020600083815260200190815260200160002054905092915050565b61095983838360405180602001604052806000815250610c93565b505050565b60006109686106ef565b82106109a9576040517f08c379a00000000000000000000000000000000000000000000000000000000081526004016109a090612bf1565b60405180910390fd5b600882815481106109bd576109bc612c11565b5b90600052602060002001549050919050565b6000806002600084815260200190815260200160002060009054906101000a900473ffffffffffffffffffffffffffffffffffffffff169050600073ffffffffffffffffffffffffffffffffffffffff168173ffffffffffffffffffffffffffffffffffffffff161415610a78576040517f08c379a0000000000000000000000000000000000000000000000000000000008152600401610a6f90612cb2565b60405180910390fd5b80915050919050565b60008073ffffffffffffffffffffffffffffffffffffffff168273ffffffffffffffffffffffffffffffffffffffff161415610af2576040517f08c379a0000000000000000000000000000000000000000000000000000000008152600401610ae990612d44565b60405180910390fd5b600360008373ffffffffffffffffffffffffffffffffffffffff1673ffffffffffffffffffffffffffffffffffffffff168152602001908152602001600020549050919050565b610b41611103565b73ffffffffffffffffffffffffffffffffffffffff16610b5f610bc1565b73ffffffffffffffffffffffffffffffffffffffff1614610bb5576040517f08c379a0000000000000000000000000000000000000000000000000000000008152600401610bac90612a3b565b60405180910390fd5b610bbf60006116f0565b565b6000600a60009054906101000a900473ffffffffffffffffffffffffffffffffffffffff16905090565b606060018054610bfa90612807565b80601f0160208091040260200160405190810160405280929190818152602001828054610c2690612807565b8015610c735780601f10610c4857610100808354040283529160200191610c73565b820191906000526020600020905b815481529060010190602001808311610c5657829003601f168201915b5050505050905090565b610c8f610c88611103565b83836117b6565b5050565b610ca4610c9e611103565b836113b6565b610ce3576040517f08c379a0000000000000000000000000000000000000000000000000000000008152600401610cda90612acd565b60405180910390fd5b610cef84848484611923565b50505050565b610cfd61212a565b600c6000838152602001908152602001600020604051806040016040529081600082015481526020016001820160009054906101000a900473ffffffffffffffffffffffffffffffffffffffff1673ffffffffffffffffffffffffffffffffffffffff1673ffffffffffffffffffffffffffffffffffffffff16815250509050919050565b6060610d8d82611097565b610dcc576040517f08c379a0000000000000000000000000000000000000000000000000000000008152600401610dc390612dd6565b60405180910390fd5b6000610dd661197f565b90506000815111610df65760405180602001604052806000815250610e21565b80610e0084611996565b604051602001610e11929190612e32565b6040516020818303038152906040525b915050919050565b6000600560008473ffffffffffffffffffffffffffffffffffffffff1673ffffffffffffffffffffffffffffffffffffffff16815260200190815260200160002060008373ffffffffffffffffffffffffffffffffffffffff1673ffffffffffffffffffffffffffffffffffffffff16815260200190815260200160002060009054906101000a900460ff16905092915050565b610ec5611103565b73ffffffffffffffffffffffffffffffffffffffff16610ee3610bc1565b73ffffffffffffffffffffffffffffffffffffffff1614610f39576040517f08c379a0000000000000000000000000000000000000000000000000000000008152600401610f3090612a3b565b60405180910390fd5b600073ffffffffffffffffffffffffffffffffffffffff168173ffffffffffffffffffffffffffffffffffffffff161415610fa9576040517f08c379a0000000000000000000000000000000000000000000000000000000008152600401610fa090612ec8565b60405180910390fd5b610fb2816116f0565b50565b60007f80ac58cd000000000000000000000000000000000000000000000000000000007bffffffffffffffffffffffffffffffffffffffffffffffffffffffff1916827bffffffffffffffffffffffffffffffffffffffffffffffffffffffff1916148061108057507f5b5e139f000000000000000000000000000000000000000000000000000000007bffffffffffffffffffffffffffffffffffffffffffffffffffffffff1916827bffffffffffffffffffffffffffffffffffffffffffffffffffffffff1916145b80611090575061108f82611af7565b5b9050919050565b60008073ffffffffffffffffffffffffffffffffffffffff166002600084815260200190815260200160002060009054906101000a900473ffffffffffffffffffffffffffffffffffffffff1673ffffffffffffffffffffffffffffffffffffffff1614159050919050565b600033905090565b816004600083815260200190815260200160002060006101000a81548173ffffffffffffffffffffffffffffffffffffffff021916908373ffffffffffffffffffffffffffffffffffffffff160217905550808273ffffffffffffffffffffffffffffffffffffffff1661117e836109cf565b73ffffffffffffffffffffffffffffffffffffffff167f8c5be1e5ebec7d5bd14f71427d1e84f3dd0314c0f7b2291e5b200ac8c7c3b92560405160405180910390a45050565b6001816000016000828254019250508190555050565b600081600001549050919050565b600073ffffffffffffffffffffffffffffffffffffffff168273ffffffffffffffffffffffffffffffffffffffff161415611258576040517f08c379a000000000000000000000000000000000000000000000000000000000815260040161124f90612f34565b60405180910390fd5b61126181611097565b156112a1576040517f08c379a000000000000000000000000000000000000000000000000000000000815260040161129890612fa0565b60405180910390fd5b6112ad60008383611b61565b6001600360008473ffffffffffffffffffffffffffffffffffffffff1673ffffffffffffffffffffffffffffffffffffffff16815260200190815260200160002060008282546112fd9190612fef565b92505081905550816002600083815260200190815260200160002060006101000a81548173ffffffffffffffffffffffffffffffffffffffff021916908373ffffffffffffffffffffffffffffffffffffffff160217905550808273ffffffffffffffffffffffffffffffffffffffff16600073ffffffffffffffffffffffffffffffffffffffff167fddf252ad1be2c89b69c2b068fc378daa952ba7f163c4a11628f55a4df523b3ef60405160405180910390a45050565b60006113c182611097565b611400576040517f08c379a00000000000000000000000000000000000000000000000000000000081526004016113f7906130b7565b60405180910390fd5b600061140b836109cf565b90508073ffffffffffffffffffffffffffffffffffffffff168473ffffffffffffffffffffffffffffffffffffffff16148061147a57508373ffffffffffffffffffffffffffffffffffffffff1661146284610552565b73ffffffffffffffffffffffffffffffffffffffff16145b8061148b575061148a8185610e29565b5b91505092915050565b8273ffffffffffffffffffffffffffffffffffffffff166114b4826109cf565b73ffffffffffffffffffffffffffffffffffffffff161461150a576040517f08c379a000000000000000000000000000000000000000000000000000000000815260040161150190613149565b60405180910390fd5b600073ffffffffffffffffffffffffffffffffffffffff168273ffffffffffffffffffffffffffffffffffffffff16141561157a576040517f08c379a0000000000000000000000000000000000000000000000000000000008152600401611571906131db565b60405180910390fd5b611585838383611b61565b61159060008261110b565b6001600360008573ffffffffffffffffffffffffffffffffffffffff1673ffffffffffffffffffffffffffffffffffffffff16815260200190815260200160002060008282546115e091906131fb565b925050819055506001600360008473ffffffffffffffffffffffffffffffffffffffff1673ffffffffffffffffffffffffffffffffffffffff16815260200190815260200160002060008282546116379190612fef565b92505081905550816002600083815260200190815260200160002060006101000a81548173ffffffffffffffffffffffffffffffffffffffff021916908373ffffffffffffffffffffffffffffffffffffffff160217905550808273ffffffffffffffffffffffffffffffffffffffff168473ffffffffffffffffffffffffffffffffffffffff167fddf252ad1be2c89b69c2b068fc378daa952ba7f163c4a11628f55a4df523b3ef60405160405180910390a4505050565b6000600a60009054906101000a900473ffffffffffffffffffffffffffffffffffffffff16905081600a60006101000a81548173ffffffffffffffffffffffffffffffffffffffff021916908373ffffffffffffffffffffffffffffffffffffffff1602179055508173ffffffffffffffffffffffffffffffffffffffff168173ffffffffffffffffffffffffffffffffffffffff167f8be0079c531659141344cd1fd0a4f28419497f9722a3daafe3b4186f6b6457e060405160405180910390a35050565b8173ffffffffffffffffffffffffffffffffffffffff168373ffffffffffffffffffffffffffffffffffffffff161415611825576040517f08c379a000000000000000000000000000000000000000000000000000000000815260040161181c9061327b565b60405180910390fd5b80600560008573ffffffffffffffffffffffffffffffffffffffff1673ffffffffffffffffffffffffffffffffffffffff16815260200190815260200160002060008473ffffffffffffffffffffffffffffffffffffffff1673ffffffffffffffffffffffffffffffffffffffff16815260200190815260200160002060006101000a81548160ff0219169083151502179055508173ffffffffffffffffffffffffffffffffffffffff168373ffffffffffffffffffffffffffffffffffffffff167f17307eab39ab6107e8899845ad3d59bd9653f200f220920489ca2b5937696c3183604051611916919061220e565b60405180910390a3505050565b61192e848484611494565b61193a84848484611c75565b611979576040517f08c379a00000000000000000000000000000000000000000000000000000000081526004016119709061330d565b60405180910390fd5b50505050565b606060405180602001604052806000815250905090565b606060008214156119de576040518060400160405280600181526020017f30000000000000000000000000000000000000000000000000000000000000008152509050611af2565b600082905060005b60008214611a105780806119f99061332d565b915050600a82611a0991906133a5565b91506119e6565b60008167ffffffffffffffff811115611a2c57611a2b612582565b5b6040519080825280601f01601f191660200182016040528015611a5e5781602001600182028036833780820191505090505b5090505b60008514611aeb57600182611a7791906131fb565b9150600a85611a8691906133d6565b6030611a929190612fef565b60f81b818381518110611aa857611aa7612c11565b5b60200101907effffffffffffffffffffffffffffffffffffffffffffffffffffffffffffff1916908160001a905350600a85611ae491906133a5565b9450611a62565b8093505050505b919050565b60007f01ffc9a7000000000000000000000000000000000000000000000000000000007bffffffffffffffffffffffffffffffffffffffffffffffffffffffff1916827bffffffffffffffffffffffffffffffffffffffffffffffffffffffff1916149050919050565b611b6c838383611e0c565b600073ffffffffffffffffffffffffffffffffffffffff168373ffffffffffffffffffffffffffffffffffffffff161415611baf57611baa81611e11565b611bee565b8173ffffffffffffffffffffffffffffffffffffffff168373ffffffffffffffffffffffffffffffffffffffff1614611bed57611bec8382611e5a565b5b5b600073ffffffffffffffffffffffffffffffffffffffff168273ffffffffffffffffffffffffffffffffffffffff161415611c3157611c2c81611fc7565b611c70565b8273ffffffffffffffffffffffffffffffffffffffff168273ffffffffffffffffffffffffffffffffffffffff1614611c6f57611c6e8282612098565b5b5b505050565b6000611c968473ffffffffffffffffffffffffffffffffffffffff16612117565b15611dff578373ffffffffffffffffffffffffffffffffffffffff1663150b7a02611cbf611103565b8786866040518563ffffffff1660e01b8152600401611ce1949392919061345c565b602060405180830381600087803b158015611cfb57600080fd5b505af1925050508015611d2c57506040513d601f19601f82011682018060405250810190611d2991906134bd565b60015b611daf573d8060008114611d5c576040519150601f19603f3d011682016040523d82523d6000602084013e611d61565b606091505b50600081511415611da7576040517f08c379a0000000000000000000000000000000000000000000000000000000008152600401611d9e9061330d565b60405180910390fd5b805181602001fd5b63150b7a0260e01b7bffffffffffffffffffffffffffffffffffffffffffffffffffffffff1916817bffffffffffffffffffffffffffffffffffffffffffffffffffffffff191614915050611e04565b600190505b949350505050565b505050565b6008805490506009600083815260200190815260200160002081905550600881908060018154018082558091505060019003906000526020600020016000909190919091505550565b60006001611e6784610a81565b611e7191906131fb565b9050600060076000848152602001908152602001600020549050818114611f56576000600660008673ffffffffffffffffffffffffffffffffffffffff1673ffffffffffffffffffffffffffffffffffffffff168152602001908152602001600020600084815260200190815260200160002054905080600660008773ffffffffffffffffffffffffffffffffffffffff1673ffffffffffffffffffffffffffffffffffffffff168152602001908152602001600020600084815260200190815260200160002081905550816007600083815260200190815260200160002081905550505b6007600084815260200190815260200160002060009055600660008573ffffffffffffffffffffffffffffffffffffffff1673ffffffffffffffffffffffffffffffffffffffff16815260200190815260200160002060008381526020019081526020016000206000905550505050565b60006001600880549050611fdb91906131fb565b905060006009600084815260200190815260200160002054905060006008838154811061200b5761200a612c11565b5b90600052602060002001549050806008838154811061202d5761202c612c11565b5b90600052602060002001819055508160096000838152602001908152602001600020819055506009600085815260200190815260200160002060009055600880548061207c5761207b6134ea565b5b6001900381819060005260206000200160009055905550505050565b60006120a383610a81565b905081600660008573ffffffffffffffffffffffffffffffffffffffff1673ffffffffffffffffffffffffffffffffffffffff168152602001908152602001600020600083815260200190815260200160002081905550806007600084815260200190815260200160002081905550505050565b600080823b905060008111915050919050565b604051806040016040528060008152602001600073ffffffffffffffffffffffffffffffffffffffff1681525090565b6000604051905090565b600080fd5b600080fd5b60007fffffffff0000000000000000000000000000000000000000000000000000000082169050919050565b6121a38161216e565b81146121ae57600080fd5b50565b6000813590506121c08161219a565b92915050565b6000602082840312156121dc576121db612164565b5b60006121ea848285016121b1565b91505092915050565b60008115159050919050565b612208816121f3565b82525050565b600060208201905061222360008301846121ff565b92915050565b600081519050919050565b600082825260208201905092915050565b60005b83811015612263578082015181840152602081019050612248565b83811115612272576000848401525b50505050565b6000601f19601f8301169050919050565b600061229482612229565b61229e8185612234565b93506122ae818560208601612245565b6122b781612278565b840191505092915050565b600060208201905081810360008301526122dc8184612289565b905092915050565b6000819050919050565b6122f7816122e4565b811461230257600080fd5b50565b600081359050612314816122ee565b92915050565b6000602082840312156123305761232f612164565b5b600061233e84828501612305565b91505092915050565b600073ffffffffffffffffffffffffffffffffffffffff82169050919050565b600061237282612347565b9050919050565b61238281612367565b82525050565b600060208201905061239d6000830184612379565b92915050565b6123ac81612367565b81146123b757600080fd5b50565b6000813590506123c9816123a3565b92915050565b600080604083850312156123e6576123e5612164565b5b60006123f4858286016123ba565b925050602061240585828601612305565b9150509250929050565b612418816122e4565b82525050565b6000602082019050612433600083018461240f565b92915050565b60008060006060848603121561245257612451612164565b5b6000612460868287016123ba565b935050602061247186828701612305565b9250506040612482868287016123ba565b9150509250925092565b6000806000606084860312156124a5576124a4612164565b5b60006124b3868287016123ba565b93505060206124c4868287016123ba565b92505060406124d586828701612305565b9150509250925092565b6000602082840312156124f5576124f4612164565b5b6000612503848285016123ba565b91505092915050565b612515816121f3565b811461252057600080fd5b50565b6000813590506125328161250c565b92915050565b6000806040838503121561254f5761254e612164565b5b600061255d858286016123ba565b925050602061256e85828601612523565b9150509250929050565b600080fd5b600080fd5b7f4e487b7100000000000000000000000000000000000000000000000000000000600052604160045260246000fd5b6125ba82612278565b810181811067ffffffffffffffff821117156125d9576125d8612582565b5b80604052505050565b60006125ec61215a565b90506125f882826125b1565b919050565b600067ffffffffffffffff82111561261857612617612582565b5b61262182612278565b9050602081019050919050565b82818337600083830152505050565b600061265061264b846125fd565b6125e2565b90508281526020810184848401111561266c5761266b61257d565b5b61267784828561262e565b509392505050565b600082601f83011261269457612693612578565b5b81356126a484826020860161263d565b91505092915050565b600080600080608085870312156126c7576126c6612164565b5b60006126d5878288016123ba565b94505060206126e6878288016123ba565b93505060406126f787828801612305565b925050606085013567ffffffffffffffff81111561271857612717612169565b5b6127248782880161267f565b91505092959194509250565b612739816122e4565b82525050565b61274881612367565b82525050565b6040820160008201516127646000850182612730565b506020820151612777602085018261273f565b50505050565b6000604082019050612792600083018461274e565b92915050565b600080604083850312156127af576127ae612164565b5b60006127bd858286016123ba565b92505060206127ce858286016123ba565b9150509250929050565b7f4e487b7100000000000000000000000000000000000000000000000000000000600052602260045260246000fd5b6000600282049050600182168061281f57607f821691505b60208210811415612833576128326127d8565b5b50919050565b7f4552433732313a20617070726f76656420717565727920666f72206e6f6e657860008201527f697374656e7420746f6b656e0000000000000000000000000000000000000000602082015250565b6000612895602c83612234565b91506128a082612839565b604082019050919050565b600060208201905081810360008301526128c481612888565b9050919050565b7f4552433732313a20617070726f76616c20746f2063757272656e74206f776e6560008201527f7200000000000000000000000000000000000000000000000000000000000000602082015250565b6000612927602183612234565b9150612932826128cb565b604082019050919050565b600060208201905081810360008301526129568161291a565b9050919050565b7f4552433732313a20617070726f76652063616c6c6572206973206e6f74206f7760008201527f6e6572206e6f7220617070726f76656420666f7220616c6c0000000000000000602082015250565b60006129b9603883612234565b91506129c48261295d565b604082019050919050565b600060208201905081810360008301526129e8816129ac565b9050919050565b7f4f776e61626c653a2063616c6c6572206973206e6f7420746865206f776e6572600082015250565b6000612a25602083612234565b9150612a30826129ef565b602082019050919050565b60006020820190508181036000830152612a5481612a18565b9050919050565b7f4552433732313a207472616e736665722063616c6c6572206973206e6f74206f60008201527f776e6572206e6f7220617070726f766564000000000000000000000000000000602082015250565b6000612ab7603183612234565b9150612ac282612a5b565b604082019050919050565b60006020820190508181036000830152612ae681612aaa565b9050919050565b7f455243373231456e756d657261626c653a206f776e657220696e646578206f7560008201527f74206f6620626f756e6473000000000000000000000000000000000000000000602082015250565b6000612b49602b83612234565b9150612b5482612aed565b604082019050919050565b60006020820190508181036000830152612b7881612b3c565b9050919050565b7f455243373231456e756d657261626c653a20676c6f62616c20696e646578206f60008201527f7574206f6620626f756e64730000000000000000000000000000000000000000602082015250565b6000612bdb602c83612234565b9150612be682612b7f565b604082019050919050565b60006020820190508181036000830152612c0a81612bce565b9050919050565b7f4e487b7100000000000000000000000000000000000000000000000000000000600052603260045260246000fd5b7f4552433732313a206f776e657220717565727920666f72206e6f6e657869737460008201527f656e7420746f6b656e0000000000000000000000000000000000000000000000602082015250565b6000612c9c602983612234565b9150612ca782612c40565b604082019050919050565b60006020820190508181036000830152612ccb81612c8f565b9050919050565b7f4552433732313a2062616c616e636520717565727920666f7220746865207a6560008201527f726f206164647265737300000000000000000000000000000000000000000000602082015250565b6000612d2e602a83612234565b9150612d3982612cd2565b604082019050919050565b60006020820190508181036000830152612d5d81612d21565b9050919050565b7f4552433732314d657461646174613a2055524920717565727920666f72206e6f60008201527f6e6578697374656e7420746f6b656e0000000000000000000000000000000000602082015250565b6000612dc0602f83612234565b9150612dcb82612d64565b604082019050919050565b60006020820190508181036000830152612def81612db3565b9050919050565b600081905092915050565b6000612e0c82612229565b612e168185612df6565b9350612e26818560208601612245565b80840191505092915050565b6000612e3e8285612e01565b9150612e4a8284612e01565b91508190509392505050565b7f4f776e61626c653a206e6577206f776e657220697320746865207a65726f206160008201527f6464726573730000000000000000000000000000000000000000000000000000602082015250565b6000612eb2602683612234565b9150612ebd82612e56565b604082019050919050565b60006020820190508181036000830152612ee181612ea5565b9050919050565b7f4552433732313a206d696e7420746f20746865207a65726f2061646472657373600082015250565b6000612f1e602083612234565b9150612f2982612ee8565b602082019050919050565b60006020820190508181036000830152612f4d81612f11565b9050919050565b7f4552433732313a20746f6b656e20616c7265616479206d696e74656400000000600082015250565b6000612f8a601c83612234565b9150612f9582612f54565b602082019050919050565b60006020820190508181036000830152612fb981612f7d565b9050919050565b7f4e487b7100000000000000000000000000000000000000000000000000000000600052601160045260246000fd5b6000612ffa826122e4565b9150613005836122e4565b9250827fffffffffffffffffffffffffffffffffffffffffffffffffffffffffffffffff0382111561303a57613039612fc0565b5b828201905092915050565b7f4552433732313a206f70657261746f7220717565727920666f72206e6f6e657860008201527f697374656e7420746f6b656e0000000000000000000000000000000000000000602082015250565b60006130a1602c83612234565b91506130ac82613045565b604082019050919050565b600060208201905081810360008301526130d081613094565b9050919050565b7f4552433732313a207472616e73666572206f6620746f6b656e2074686174206960008201527f73206e6f74206f776e0000000000000000000000000000000000000000000000602082015250565b6000613133602983612234565b915061313e826130d7565b604082019050919050565b6000602082019050818103600083015261316281613126565b9050919050565b7f4552433732313a207472616e7366657220746f20746865207a65726f2061646460008201527f7265737300000000000000000000000000000000000000000000000000000000602082015250565b60006131c5602483612234565b91506131d082613169565b604082019050919050565b600060208201905081810360008301526131f4816131b8565b9050919050565b6000613206826122e4565b9150613211836122e4565b92508282101561322457613223612fc0565b5b828203905092915050565b7f4552433732313a20617070726f766520746f2063616c6c657200000000000000600082015250565b6000613265601983612234565b91506132708261322f565b602082019050919050565b6000602082019050818103600083015261329481613258565b9050919050565b7f4552433732313a207472616e7366657220746f206e6f6e20455243373231526560008201527f63656976657220696d706c656d656e7465720000000000000000000000000000602082015250565b60006132f7603283612234565b91506133028261329b565b604082019050919050565b60006020820190508181036000830152613326816132ea565b9050919050565b6000613338826122e4565b91507fffffffffffffffffffffffffffffffffffffffffffffffffffffffffffffffff82141561336b5761336a612fc0565b5b600182019050919050565b7f4e487b7100000000000000000000000000000000000000000000000000000000600052601260045260246000fd5b60006133b0826122e4565b91506133bb836122e4565b9250826133cb576133ca613376565b5b828204905092915050565b60006133e1826122e4565b91506133ec836122e4565b9250826133fc576133fb613376565b5b828206905092915050565b600081519050919050565b600082825260208201905092915050565b600061342e82613407565b6134388185613412565b9350613448818560208601612245565b61345181612278565b840191505092915050565b60006080820190506134716000830187612379565b61347e6020830186612379565b61348b604083018561240f565b818103606083015261349d8184613423565b905095945050505050565b6000815190506134b78161219a565b92915050565b6000602082840312156134d3576134d2612164565b5b60006134e1848285016134a8565b91505092915050565b7f4e487b7100000000000000000000000000000000000000000000000000000000600052603160045260246000fdfea26469706673582212204fceb336f0ca11da15448ca07ea0fdf350768364f49739bcc628c577608957b664736f6c63430008090033608060405234801561001057600080fd5b506001600460006101000a81548160ff021916908315150217905550612c318061003b6000396000f3fe608060405234801561001057600080fd5b50600436106101165760003560e01c80633735ef88116100a25780635ff189b9116100715780635ff189b9146102cf578063711cc005146102ff5780638aebe8d61461032f578063a56f5b531461035f578063d15e00531461038f57610116565b80633735ef881461024957806347e7ef241461027957806350d02d711461029557806357ac6566146102b157610116565b806317d7de7c116100e957806317d7de7c146101b55780631b88094d146101d35780632e599054146101f15780632f7570061461020d578063343d693b1461022b57610116565b80630251cfa11461011b5780630712f6b31461014b5780630835d21a1461017b57806312eeff7e14610199575b600080fd5b61013560048036038101906101309190611d88565b6103bf565b6040516101429190611dce565b60405180910390f35b61016560048036038101906101609190611d88565b610408565b6040516101729190611dce565b60405180910390f35b61018361054b565b6040516101909190611e02565b60405180910390f35b6101b360048036038101906101ae9190611e81565b6105ab565b005b6101bd61094b565b6040516101ca9190611f81565b60405180910390f35b6101db6109dd565b6040516101e89190611fb2565b60405180910390f35b61020b60048036038101906102069190611fcd565b610a07565b005b610215610af3565b60405161022291906120cb565b60405180910390f35b610233610b81565b6040516102409190611f81565b60405180910390f35b610263600480360381019061025e9190611d88565b610c13565b6040516102709190611dce565b60405180910390f35b610293600480360381019061028e9190611fcd565b610da6565b005b6102af60048036038101906102aa91906122ea565b610f7f565b005b6102b9611496565b6040516102c691906123fa565b60405180910390f35b6102e960048036038101906102e49190611d88565b6114d0565b6040516102f69190611dce565b60405180910390f35b61031960048036038101906103149190611d88565b611519565b6040516103269190611fb2565b60405180910390f35b61034960048036038101906103449190611d88565b6115d4565b6040516103569190611dce565b60405180910390f35b61037960048036038101906103749190611d88565b6116bf565b6040516103869190611dce565b60405180910390f35b6103a960048036038101906103a49190611d88565b611b11565b6040516103b69190611dce565b60405180910390f35b6000600160008373ffffffffffffffffffffffffffffffffffffffff1673ffffffffffffffffffffffffffffffffffffffff168152602001908152602001600020549050919050565b600080600660009054906101000a900473ffffffffffffffffffffffffffffffffffffffff1673ffffffffffffffffffffffffffffffffffffffff1663d2493b6c846040518263ffffffff1660e01b81526004016104669190611fb2565b60606040518083038186803b15801561047e57600080fd5b505afa158015610492573d6000803e3d6000fd5b505050506040513d601f19601f820116820180604052508101906104b69190612431565b505090508073ffffffffffffffffffffffffffffffffffffffff166370a08231306040518263ffffffff1660e01b81526004016104f39190611fb2565b60206040518083038186803b15801561050b57600080fd5b505afa15801561051f573d6000803e3d6000fd5b505050506040513d601f19601f820116820180604052508101906105439190612499565b915050919050565b60003073ffffffffffffffffffffffffffffffffffffffff16803b806020016040519081016040528181526000908060200190933c6040516020016105909190612502565b60405160208183030381529060405280519060200120905090565b338073ffffffffffffffffffffffffffffffffffffffff16600a60009054906101000a900473ffffffffffffffffffffffffffffffffffffffff1673ffffffffffffffffffffffffffffffffffffffff161461063c576040517f08c379a000000000000000000000000000000000000000000000000000000000815260040161063390612565565b60405180910390fd5b82858560008111610682576040517f08c379a0000000000000000000000000000000000000000000000000000000008152600401610679906125d1565b60405180910390fd5b86600160008a73ffffffffffffffffffffffffffffffffffffffff1673ffffffffffffffffffffffffffffffffffffffff16815260200190815260200160002060008282546106d19190612620565b925050819055508461079457600560009054906101000a900473ffffffffffffffffffffffffffffffffffffffff1673ffffffffffffffffffffffffffffffffffffffff166369328dec8989896040518463ffffffff1660e01b815260040161073c93929190612654565b602060405180830381600087803b15801561075657600080fd5b505af115801561076a573d6000803e3d6000fd5b505050506040513d601f19601f8201168201806040525081019061078e9190612499565b50610906565b600061079f89611519565b90508073ffffffffffffffffffffffffffffffffffffffff1663095ea7b3600760009054906101000a900473ffffffffffffffffffffffffffffffffffffffff168a6040518363ffffffff1660e01b81526004016107fe92919061268b565b602060405180830381600087803b15801561081857600080fd5b505af115801561082c573d6000803e3d6000fd5b505050506040513d601f19601f8201168201806040525081019061085091906126c9565b50600760009054906101000a900473ffffffffffffffffffffffffffffffffffffffff1673ffffffffffffffffffffffffffffffffffffffff166380500d20600560009054906101000a900473ffffffffffffffffffffffffffffffffffffffff168a8a6040518463ffffffff1660e01b81526004016108d293929190612654565b600060405180830381600087803b1580156108ec57600080fd5b505af1158015610900573d6000803e3d6000fd5b50505050505b7f9b1bfa7fa9ee420a16e124f794c35ac9f90472acc99140eb2f6447c714cad8eb888789604051610939939291906126f6565b60405180910390a15050505050505050565b6060600b805461095a9061275c565b80601f01602080910402602001604051908101604052809291908181526020018280546109869061275c565b80156109d35780601f106109a8576101008083540402835291602001916109d3565b820191906000526020600020905b8154815290600101906020018083116109b657829003601f168201915b5050505050905090565b6000600960009054906101000a900473ffffffffffffffffffffffffffffffffffffffff16905090565b338073ffffffffffffffffffffffffffffffffffffffff16600a60009054906101000a900473ffffffffffffffffffffffffffffffffffffffff1673ffffffffffffffffffffffffffffffffffffffff1614610a98576040517f08c379a0000000000000000000000000000000000000000000000000000000008152600401610a8f90612565565b60405180910390fd5b81600160008573ffffffffffffffffffffffffffffffffffffffff1673ffffffffffffffffffffffffffffffffffffffff1681526020019081526020016000206000828254610ae7919061278e565b92505081905550505050565b60606008805480602002602001604051908101604052809291908181526020018280548015610b7757602002820191906000526020600020905b8160009054906101000a900473ffffffffffffffffffffffffffffffffffffffff1673ffffffffffffffffffffffffffffffffffffffff1681526020019060010190808311610b2d575b5050505050905090565b6060600c8054610b909061275c565b80601f0160208091040260200160405190810160405280929190818152602001828054610bbc9061275c565b8015610c095780601f10610bde57610100808354040283529160200191610c09565b820191906000526020600020905b815481529060010190602001808311610bec57829003601f168201915b5050505050905090565b600080600660009054906101000a900473ffffffffffffffffffffffffffffffffffffffff1673ffffffffffffffffffffffffffffffffffffffff1663d2493b6c846040518263ffffffff1660e01b8152600401610c719190611fb2565b60606040518083038186803b158015610c8957600080fd5b505afa158015610c9d573d6000803e3d6000fd5b505050506040513d601f19601f82011682018060405250810190610cc19190612431565b5050905060008173ffffffffffffffffffffffffffffffffffffffff166370a08231306040518263ffffffff1660e01b8152600401610d009190611fb2565b60206040518083038186803b158015610d1857600080fd5b505afa158015610d2c573d6000803e3d6000fd5b505050506040513d601f19601f82011682018060405250810190610d509190612499565b9050600160008573ffffffffffffffffffffffffffffffffffffffff1673ffffffffffffffffffffffffffffffffffffffff1681526020019081526020016000205481610d9d9190612620565b92505050919050565b338073ffffffffffffffffffffffffffffffffffffffff16600a60009054906101000a900473ffffffffffffffffffffffffffffffffffffffff1673ffffffffffffffffffffffffffffffffffffffff1614610e37576040517f08c379a0000000000000000000000000000000000000000000000000000000008152600401610e2e90612565565b60405180910390fd5b82600080600090505b6008805490508160ff161015610ee15760088160ff1681548110610e6757610e666127e4565b5b9060005260206000200160009054906101000a900473ffffffffffffffffffffffffffffffffffffffff1673ffffffffffffffffffffffffffffffffffffffff168373ffffffffffffffffffffffffffffffffffffffff161415610ece5760019150610ee1565b8080610ed990612820565b915050610e40565b5080610f22576040517f08c379a0000000000000000000000000000000000000000000000000000000008152600401610f19906128bc565b60405180910390fd5b83600160008773ffffffffffffffffffffffffffffffffffffffff1673ffffffffffffffffffffffffffffffffffffffff1681526020019081526020016000206000828254610f71919061278e565b925050819055505050505050565b82601e60008290508160ff16815110610fcd576040517f08c379a0000000000000000000000000000000000000000000000000000000008152600401610fc490612928565b60405180910390fd5b8460c860008290508160ff1681511061101b576040517f08c379a000000000000000000000000000000000000000000000000000000000815260040161101290612928565b60405180910390fd5b600060019054906101000a900460ff166110435760008054906101000a900460ff161561104c565b61104b611bc5565b5b61108b576040517f08c379a0000000000000000000000000000000000000000000000000000000008152600401611082906129ba565b60405180910390fd5b60008060019054906101000a900460ff1615905080156110db576001600060016101000a81548160ff02191690831515021790555060016000806101000a81548160ff0219169083151502179055505b60001515600460009054906101000a900460ff16151514611131576040517f08c379a000000000000000000000000000000000000000000000000000000000815260040161112890612a26565b60405180910390fd5b600073ffffffffffffffffffffffffffffffffffffffff16600960009054906101000a900473ffffffffffffffffffffffffffffffffffffffff1673ffffffffffffffffffffffffffffffffffffffff16146111c2576040517f08c379a00000000000000000000000000000000000000000000000000000000081526004016111b990612a92565b60405180910390fd5b87600960006101000a81548173ffffffffffffffffffffffffffffffffffffffff021916908373ffffffffffffffffffffffffffffffffffffffff16021790555033600a60006101000a81548173ffffffffffffffffffffffffffffffffffffffff021916908373ffffffffffffffffffffffffffffffffffffffff16021790555089600b908051906020019061125a929190611be9565b5088600c9080519060200190611271929190611be9565b507388757f2f99175387ab4c6a4b3067c77a695b0349600460016101000a81548173ffffffffffffffffffffffffffffffffffffffff021916908373ffffffffffffffffffffffffffffffffffffffff160217905550600460019054906101000a900473ffffffffffffffffffffffffffffffffffffffff1673ffffffffffffffffffffffffffffffffffffffff16630261bf8b6040518163ffffffff1660e01b815260040160206040518083038186803b15801561132f57600080fd5b505afa158015611343573d6000803e3d6000fd5b505050506040513d601f19601f820116820180604052508101906113679190612ab2565b600560006101000a81548173ffffffffffffffffffffffffffffffffffffffff021916908373ffffffffffffffffffffffffffffffffffffffff160217905550733c73a5e5785cac854d468f727c606c07488a29d6600660006101000a81548173ffffffffffffffffffffffffffffffffffffffff021916908373ffffffffffffffffffffffffffffffffffffffff16021790555073a61ca04df33b72b235a8a28cfb535bb7a5271b70600760006101000a81548173ffffffffffffffffffffffffffffffffffffffff021916908373ffffffffffffffffffffffffffffffffffffffff1602179055508a60089080519060200190611467929190611c6f565b5080156114895760008060016101000a81548160ff0219169083151502179055505b5050505050505050505050565b60603073ffffffffffffffffffffffffffffffffffffffff16803b806020016040519081016040528181526000908060200190933c905090565b6000600260008373ffffffffffffffffffffffffffffffffffffffff1673ffffffffffffffffffffffffffffffffffffffff168152602001908152602001600020549050919050565b600080600660009054906101000a900473ffffffffffffffffffffffffffffffffffffffff1673ffffffffffffffffffffffffffffffffffffffff1663d2493b6c846040518263ffffffff1660e01b81526004016115779190611fb2565b60606040518083038186803b15801561158f57600080fd5b505afa1580156115a3573d6000803e3d6000fd5b505050506040513d601f19601f820116820180604052508101906115c79190612431565b5050905080915050919050565b6000600660009054906101000a900473ffffffffffffffffffffffffffffffffffffffff1673ffffffffffffffffffffffffffffffffffffffff166335ea6a75836040518263ffffffff1660e01b81526004016116319190611fb2565b6101406040518083038186803b15801561164a57600080fd5b505afa15801561165e573d6000803e3d6000fd5b505050506040513d601f19601f820116820180604052508101906116829190612b1c565b9091929394959697985090919293949596975090919293949596509091929394955090919293945090919293509091925090505080915050919050565b6000338073ffffffffffffffffffffffffffffffffffffffff16600a60009054906101000a900473ffffffffffffffffffffffffffffffffffffffff1673ffffffffffffffffffffffffffffffffffffffff1614611752576040517f08c379a000000000000000000000000000000000000000000000000000000000815260040161174990612565565b60405180910390fd5b82600080600090505b6008805490508160ff1610156117fc5760088160ff1681548110611782576117816127e4565b5b9060005260206000200160009054906101000a900473ffffffffffffffffffffffffffffffffffffffff1673ffffffffffffffffffffffffffffffffffffffff168373ffffffffffffffffffffffffffffffffffffffff1614156117e957600191506117fc565b80806117f490612820565b91505061175b565b508061183d576040517f08c379a0000000000000000000000000000000000000000000000000000000008152600401611834906128bc565b60405180910390fd5b6000600660009054906101000a900473ffffffffffffffffffffffffffffffffffffffff1673ffffffffffffffffffffffffffffffffffffffff1663d2493b6c876040518263ffffffff1660e01b815260040161189a9190611fb2565b60606040518083038186803b1580156118b257600080fd5b505afa1580156118c6573d6000803e3d6000fd5b505050506040513d601f19601f820116820180604052508101906118ea9190612431565b5050905060008173ffffffffffffffffffffffffffffffffffffffff166370a08231306040518263ffffffff1660e01b81526004016119299190611fb2565b60206040518083038186803b15801561194157600080fd5b505afa158015611955573d6000803e3d6000fd5b505050506040513d601f19601f820116820180604052508101906119799190612499565b90506000600160008973ffffffffffffffffffffffffffffffffffffffff1673ffffffffffffffffffffffffffffffffffffffff16815260200190815260200160002054826119c89190612620565b9050600560009054906101000a900473ffffffffffffffffffffffffffffffffffffffff1673ffffffffffffffffffffffffffffffffffffffff166369328dec8983600960009054906101000a900473ffffffffffffffffffffffffffffffffffffffff166040518463ffffffff1660e01b8152600401611a4b93929190612654565b602060405180830381600087803b158015611a6557600080fd5b505af1158015611a79573d6000803e3d6000fd5b505050506040513d601f19601f82011682018060405250810190611a9d9190612499565b50611aa7886115d4565b60038190555080600260008a73ffffffffffffffffffffffffffffffffffffffff1673ffffffffffffffffffffffffffffffffffffffff1681526020019081526020016000206000828254611afc919061278e565b92505081905550809650505050505050919050565b6000600560009054906101000a900473ffffffffffffffffffffffffffffffffffffffff1673ffffffffffffffffffffffffffffffffffffffff1663d15e0053836040518263ffffffff1660e01b8152600401611b6e9190611fb2565b60206040518083038186803b158015611b8657600080fd5b505afa158015611b9a573d6000803e3d6000fd5b505050506040513d601f19601f82011682018060405250810190611bbe9190612499565b9050919050565b6000611bd030611bd6565b15905090565b600080823b905060008111915050919050565b828054611bf59061275c565b90600052602060002090601f016020900481019282611c175760008555611c5e565b82601f10611c3057805160ff1916838001178555611c5e565b82800160010185558215611c5e579182015b82811115611c5d578251825591602001919060010190611c42565b5b509050611c6b9190611cf9565b5090565b828054828255906000526020600020908101928215611ce8579160200282015b82811115611ce75782518260006101000a81548173ffffffffffffffffffffffffffffffffffffffff021916908373ffffffffffffffffffffffffffffffffffffffff16021790555091602001919060010190611c8f565b5b509050611cf59190611cf9565b5090565b5b80821115611d12576000816000905550600101611cfa565b5090565b6000604051905090565b600080fd5b600080fd5b600073ffffffffffffffffffffffffffffffffffffffff82169050919050565b6000611d5582611d2a565b9050919050565b611d6581611d4a565b8114611d7057600080fd5b50565b600081359050611d8281611d5c565b92915050565b600060208284031215611d9e57611d9d611d20565b5b6000611dac84828501611d73565b91505092915050565b6000819050919050565b611dc881611db5565b82525050565b6000602082019050611de36000830184611dbf565b92915050565b6000819050919050565b611dfc81611de9565b82525050565b6000602082019050611e176000830184611df3565b92915050565b611e2681611db5565b8114611e3157600080fd5b50565b600081359050611e4381611e1d565b92915050565b60008115159050919050565b611e5e81611e49565b8114611e6957600080fd5b50565b600081359050611e7b81611e55565b92915050565b60008060008060808587031215611e9b57611e9a611d20565b5b6000611ea987828801611d73565b9450506020611eba87828801611e34565b9350506040611ecb87828801611d73565b9250506060611edc87828801611e6c565b91505092959194509250565b600081519050919050565b600082825260208201905092915050565b60005b83811015611f22578082015181840152602081019050611f07565b83811115611f31576000848401525b50505050565b6000601f19601f8301169050919050565b6000611f5382611ee8565b611f5d8185611ef3565b9350611f6d818560208601611f04565b611f7681611f37565b840191505092915050565b60006020820190508181036000830152611f9b8184611f48565b905092915050565b611fac81611d4a565b82525050565b6000602082019050611fc76000830184611fa3565b92915050565b60008060408385031215611fe457611fe3611d20565b5b6000611ff285828601611d73565b925050602061200385828601611e34565b9150509250929050565b600081519050919050565b600082825260208201905092915050565b6000819050602082019050919050565b61204281611d4a565b82525050565b60006120548383612039565b60208301905092915050565b6000602082019050919050565b60006120788261200d565b6120828185612018565b935061208d83612029565b8060005b838110156120be5781516120a58882612048565b97506120b083612060565b925050600181019050612091565b5085935050505092915050565b600060208201905081810360008301526120e5818461206d565b905092915050565b600080fd5b7f4e487b7100000000000000000000000000000000000000000000000000000000600052604160045260246000fd5b61212a82611f37565b810181811067ffffffffffffffff82111715612149576121486120f2565b5b80604052505050565b600061215c611d16565b90506121688282612121565b919050565b600067ffffffffffffffff821115612188576121876120f2565b5b602082029050602081019050919050565b600080fd5b60006121b16121ac8461216d565b612152565b905080838252602082019050602084028301858111156121d4576121d3612199565b5b835b818110156121fd57806121e98882611d73565b8452602084019350506020810190506121d6565b5050509392505050565b600082601f83011261221c5761221b6120ed565b5b813561222c84826020860161219e565b91505092915050565b600080fd5b600067ffffffffffffffff821115612255576122546120f2565b5b61225e82611f37565b9050602081019050919050565b82818337600083830152505050565b600061228d6122888461223a565b612152565b9050828152602081018484840111156122a9576122a8612235565b5b6122b484828561226b565b509392505050565b600082601f8301126122d1576122d06120ed565b5b81356122e184826020860161227a565b91505092915050565b6000806000806080858703121561230457612303611d20565b5b600085013567ffffffffffffffff81111561232257612321611d25565b5b61232e87828801612207565b945050602085013567ffffffffffffffff81111561234f5761234e611d25565b5b61235b878288016122bc565b935050604085013567ffffffffffffffff81111561237c5761237b611d25565b5b612388878288016122bc565b925050606061239987828801611d73565b91505092959194509250565b600081519050919050565b600082825260208201905092915050565b60006123cc826123a5565b6123d681856123b0565b93506123e6818560208601611f04565b6123ef81611f37565b840191505092915050565b6000602082019050818103600083015261241481846123c1565b905092915050565b60008151905061242b81611d5c565b92915050565b60008060006060848603121561244a57612449611d20565b5b60006124588682870161241c565b93505060206124698682870161241c565b925050604061247a8682870161241c565b9150509250925092565b60008151905061249381611e1d565b92915050565b6000602082840312156124af576124ae611d20565b5b60006124bd84828501612484565b91505092915050565b600081905092915050565b60006124dc826123a5565b6124e681856124c6565b93506124f6818560208601611f04565b80840191505092915050565b600061250e82846124d1565b915081905092915050565b7f796f7520617265206e6f7420746865206f776e65720000000000000000000000600082015250565b600061254f601583611ef3565b915061255a82612519565b602082019050919050565b6000602082019050818103600083015261257e81612542565b9050919050565b7f616d6f756e74206d757374206578636565642030000000000000000000000000600082015250565b60006125bb601483611ef3565b91506125c682612585565b602082019050919050565b600060208201905081810360008301526125ea816125ae565b9050919050565b7f4e487b7100000000000000000000000000000000000000000000000000000000600052601160045260246000fd5b600061262b82611db5565b915061263683611db5565b925082821015612649576126486125f1565b5b828203905092915050565b60006060820190506126696000830186611fa3565b6126766020830185611dbf565b6126836040830184611fa3565b949350505050565b60006040820190506126a06000830185611fa3565b6126ad6020830184611dbf565b9392505050565b6000815190506126c381611e55565b92915050565b6000602082840312156126df576126de611d20565b5b60006126ed848285016126b4565b91505092915050565b600060608201905061270b6000830186611fa3565b6127186020830185611fa3565b6127256040830184611dbf565b949350505050565b7f4e487b7100000000000000000000000000000000000000000000000000000000600052602260045260246000fd5b6000600282049050600182168061277457607f821691505b602082108114156127885761278761272d565b5b50919050565b600061279982611db5565b91506127a483611db5565b9250827fffffffffffffffffffffffffffffffffffffffffffffffffffffffffffffffff038211156127d9576127d86125f1565b5b828201905092915050565b7f4e487b7100000000000000000000000000000000000000000000000000000000600052603260045260246000fd5b600060ff82169050919050565b600061282b82612813565b915060ff82141561283f5761283e6125f1565b5b600182019050919050565b7f7375626d697474656420746f6b656e2061646472657373206973206e6f74206160008201527f6363657074656420627920706f6f6c0000000000000000000000000000000000602082015250565b60006128a6602f83611ef3565b91506128b18261284a565b604082019050919050565b600060208201905081810360008301526128d581612899565b9050919050565b7f737472696e67206f76657220636861726163746572206c696d69740000000000600082015250565b6000612912601b83611ef3565b915061291d826128dc565b602082019050919050565b6000602082019050818103600083015261294181612905565b9050919050565b7f496e697469616c697a61626c653a20636f6e747261637420697320616c72656160008201527f647920696e697469616c697a6564000000000000000000000000000000000000602082015250565b60006129a4602e83611ef3565b91506129af82612948565b604082019050919050565b600060208201905081810360008301526129d381612997565b9050919050565b7f43616e6e6f7420696e697469616c697a65206261736500000000000000000000600082015250565b6000612a10601683611ef3565b9150612a1b826129da565b602082019050919050565b60006020820190508181036000830152612a3f81612a03565b9050919050565b7f496e697469616c697a6520616c72656164792063616c6c656400000000000000600082015250565b6000612a7c601983611ef3565b9150612a8782612a46565b602082019050919050565b60006020820190508181036000830152612aab81612a6f565b9050919050565b600060208284031215612ac857612ac7611d20565b5b6000612ad68482850161241c565b91505092915050565b600064ffffffffff82169050919050565b612af981612adf565b8114612b0457600080fd5b50565b600081519050612b1681612af0565b92915050565b6000806000806000806000806000806101408b8d031215612b4057612b3f611d20565b5b6000612b4e8d828e01612484565b9a50506020612b5f8d828e01612484565b9950506040612b708d828e01612484565b9850506060612b818d828e01612484565b9750506080612b928d828e01612484565b96505060a0612ba38d828e01612484565b95505060c0612bb48d828e01612484565b94505060e0612bc58d828e01612484565b935050610100612bd78d828e01612484565b925050610120612be98d828e01612b07565b9150509295989b9194979a509295985056fea2646970667358221220ad1a4e395d57354a61e01015c3601ae026f9cafb89bb5161867fe0e53edd10c464736f6c63430008090033",
  "immutableReferences": {},
  "source": "// SPDX-License-Identifier: agpl-3.0\npragma solidity 0.8.9;\n\nimport { IJustCausePool, IERC20, ILendingPool, ILendingPoolAddressesProvider, IProtocolDataProvider, IWETHGateway } from './Interfaces.sol';\nimport { JCDepositorERC721 } from './JCDepositorERC721.sol';\nimport { JCOwnerERC721 } from './JCOwnerERC721.sol';\nimport { JustCausePool } from './JustCausePool.sol';\n\ncontract PoolTracker {\n\n    address baseJCPoolAddr;\n    JustCausePool baseJCPool;\n    JCDepositorERC721 jCDepositorERC721;\n    JCOwnerERC721 jCOwnerERC721;\n\n    //contract addresses will point to bool if they exist\n    mapping(address => bool) private isPool;\n    //mapping(address => address[]) private depositors;\n    //mapping(address => address[]) private owners;\n    mapping(string => address) private names;\n    address[] private verifiedPools;\n    bytes32[] validByteCodeHashes;\n\n    ILendingPoolAddressesProvider provider;\n    address lendingPoolAddr;\n    address dataProviderAddr;\n    address wethGatewayAddr;\n\n    event AddPool(address pool, string name, address receiver);\n    event AddDeposit(address userAddr, address pool, address asset, uint256 amount);\n    event WithdrawDeposit(address userAddr, address pool, address asset, uint256 amount);\n    event Claim(address userAddr, address receiver, address pool, address asset, uint256 amount);\n\n    modifier onlyVerifiedByteCode(address pool) {\n        bytes32 v1ByteCodeHash = 0x69e8ff0e7c2b29468c452ea99c81161f9d6137447623140dc2714549e6014d96;\n        require(keccak256(abi.encodePacked(pool.code)) == v1ByteCodeHash, \"byteCode not recognized\");\n        _;\n    }\n\n    modifier onlyPools(address _pool){\n        require(isPool[_pool], \"not called from a pool\");\n        _;\n    }\n\n    constructor () {\n        jCDepositorERC721 = new JCDepositorERC721();\n        jCOwnerERC721 = new JCOwnerERC721();\n        baseJCPool = new JustCausePool();\n\n        provider = ILendingPoolAddressesProvider(address(0x88757f2f99175387aB4C6a4b3067c77A695b0349));\n        lendingPoolAddr = provider.getLendingPool();\n        dataProviderAddr = address(0x3c73A5E5785cAC854D468F727c606C07488a29D6);//Kovan\n        wethGatewayAddr = address(0xA61ca04DF33B72b235a8A28CfB535bb7A5271B70);//Kovan\n    }\n\n    function addValidByteCodeHash(bytes32 _hash) public {\n        validByteCodeHashes.push(_hash);\n    }\n\n    function addDeposit(uint256 _amount, address _asset, address _pool, bool isETH) onlyPools(_pool) external payable {\n        if(isETH){\n            IWETHGateway(wethGatewayAddr).depositETH{value: msg.value}(lendingPoolAddr, _pool, 0);\n            IJustCausePool(_pool).depositETH/*{value: msg.value}*/(_asset, /*msg.sender,*/ msg.value);\n        }\n        else {\n            IERC20 token = IERC20(_asset);\n            require(token.allowance(msg.sender, address(this)) >= _amount, \"sender not approved\");\n            token.transferFrom(msg.sender, address(this), _amount);\n            token.approve(lendingPoolAddr, _amount);\n            ILendingPool(lendingPoolAddr).deposit(address(token), _amount, _pool, 0);\n            IJustCausePool(_pool).deposit(_asset, _amount /*, msg.sender*/);\n        }\n        jCDepositorERC721.addFunds(msg.sender, _amount, block.timestamp,  _pool, _asset);\n        emit AddDeposit(msg.sender, _pool, _asset, _amount);\n    }\n\n    function withdrawDeposit(uint256 _amount, address _asset, address _pool, bool _isETH) onlyPools(_pool) external {\n        //ILendingPool(lendingPoolAddr).withdraw(_asset, _amount, msg.sender);\n        jCDepositorERC721.withdrawFunds(msg.sender, _amount, _pool, _asset);\n        IJustCausePool(_pool).withdraw(_asset, _amount, msg.sender, _isETH);\n        emit WithdrawDeposit(msg.sender, _pool, _asset, _amount);\n    }\n\n    function claimInterest(address _asset, address _pool) onlyPools(_pool) external {\n        uint256 amount = IJustCausePool(_pool).withdrawDonations(_asset);\n        emit Claim(msg.sender, IJustCausePool(_pool).getRecipient(), _pool, _asset, amount);\n    }\n\n    /**\n     * @dev Deploys and returns the address of a clone that mimics the behaviour of `implementation`.\n     *\n     * This function uses the create opcode, which should never revert.\n     */\n    function clone(address basePool) internal returns (address instance) {\n        assembly {\n            let ptr := mload(0x40)\n            mstore(ptr, 0x3d602d80600a3d3981f3363d3d373d3d3d363d73000000000000000000000000)\n            mstore(add(ptr, 0x14), shl(0x60, basePool))\n            mstore(add(ptr, 0x28), 0x5af43d82803e903d91602b57fd5bf30000000000000000000000000000000000)\n            instance := create(0, ptr, 0x37)\n        }\n        require(instance != address(0), \"ERC1167: create failed\");\n    }\n\n    function createJCPoolClone(address[] memory _acceptedTokens, string memory _name, string memory _about, address _receiver) external {\n        require(names[_name] == address(0), \"pool with name already exists\");\n        address child = clone(address(baseJCPool));\n        IJustCausePool(child).initialize(_acceptedTokens, _name, _about, _receiver);\n        jCOwnerERC721.createReceiverToken(_receiver, block.timestamp, child);\n        names[_name] =  child;\n        verifiedPools.push(child);\n        isPool[child] = true;\n        emit AddPool(child, _name, _receiver);\n    }\n\n    function getDepositorERC721Address() public view returns(address){\n        return address(jCDepositorERC721);\n    }\n\n    function getOwnerERC721Address() public view returns(address){\n        return address(jCOwnerERC721);\n    }\n\n    function getBaseJCPoolAddress() public view returns(address){\n        return address(baseJCPool);\n    }\n\n    function getVerifiedPools() public view returns(address [] memory){\n        return verifiedPools;\n    }\n\n    function checkPool(address _pool) public view returns(bool){\n        return isPool[_pool];\n    }\n\n    /*function getUserDeposits(address _userAddr) external view returns(address[] memory){\n        return depositors[_userAddr];\n    }*/\n\n    /*function getUserDeposits(address _userAddr) external view returns(address[] memory){\n        uint256 numDeposits = jCDepositorERC721.balanceOf(_userAddr);\n        address[] memory poolList;\n        for(uint8 i = 0; i < numDeposits; i++){\n            uint256 tokenId = jCDepositorERC721.tokenOfOwnerByIndex(_userAddr, i);\n            (,,,, address pool,) = jCDepositorERC721.getDeposit(tokenId);\n            poolList[i] = pool;\n        }\n        return poolList;\n    }*/\n\n    /*function getUserOwned(address _userAddr) external view returns(address[] memory){\n        return owners[_userAddr];\n    }*/\n\n    function getAddressFromName(string memory _name) external view returns(address){\n        return names[_name];\n    }\n\n    function checkByteCode(address _pool) external view returns(bool) {\n        bool hashMatch = false;\n        bytes32 hashOfPoolCode = keccak256(abi.encodePacked(_pool.code));\n        bytes32[] memory validHashes = validByteCodeHashes;\n\n        for(uint8 i = 0; i < validHashes.length; i++){\n            if(hashOfPoolCode == validHashes[i]){\n                hashMatch = true;\n                break;\n            }\n        }\n        return hashMatch;\n    }\n}",
  "sourcePath": "/home/smeee/just_cause/contracts/PoolTracker.sol",
  "compiler": {
    "name": "solc",
    "version": "0.8.9+commit.e5eed63a.Emscripten.clang"
  },
  "schemaVersion": "3.4.5",
  "updatedAt": "2022-03-21T03:38:16.873Z",
  "networkType": "ethereum",
  "devdoc": {
    "kind": "dev",
    "methods": {},
    "version": 1
  },
  "userdoc": {
    "kind": "user",
    "methods": {},
    "version": 1
  }
}