{
  "contractName": "PoolTracker",
  "abi": [
    {
      "inputs": [
        {
          "internalType": "address",
          "name": "_poolAddressesProviderAddr",
          "type": "address"
        },
        {
          "internalType": "address",
          "name": "_wethGatewayAddr",
          "type": "address"
        },
        {
          "internalType": "address",
          "name": "_multiSig",
          "type": "address"
        }
      ],
      "stateMutability": "nonpayable",
      "type": "constructor"
    },
    {
      "anonymous": false,
      "inputs": [
        {
          "indexed": false,
          "internalType": "address",
          "name": "userAddr",
          "type": "address"
        },
        {
          "indexed": false,
          "internalType": "address",
          "name": "pool",
          "type": "address"
        },
        {
          "indexed": false,
          "internalType": "address",
          "name": "asset",
          "type": "address"
        },
        {
          "indexed": false,
          "internalType": "uint256",
          "name": "amount",
          "type": "uint256"
        }
      ],
      "name": "AddDeposit",
      "type": "event"
    },
    {
      "anonymous": false,
      "inputs": [
        {
          "indexed": false,
          "internalType": "address",
          "name": "pool",
          "type": "address"
        },
        {
          "indexed": false,
          "internalType": "string",
          "name": "name",
          "type": "string"
        },
        {
          "indexed": false,
          "internalType": "address",
          "name": "receiver",
          "type": "address"
        }
      ],
      "name": "AddPool",
      "type": "event"
    },
    {
      "anonymous": false,
      "inputs": [
        {
          "indexed": false,
          "internalType": "address",
          "name": "userAddr",
          "type": "address"
        },
        {
          "indexed": false,
          "internalType": "address",
          "name": "receiver",
          "type": "address"
        },
        {
          "indexed": false,
          "internalType": "address",
          "name": "pool",
          "type": "address"
        },
        {
          "indexed": false,
          "internalType": "address",
          "name": "asset",
          "type": "address"
        },
        {
          "indexed": false,
          "internalType": "uint256",
          "name": "amount",
          "type": "uint256"
        }
      ],
      "name": "Claim",
      "type": "event"
    },
    {
      "anonymous": false,
      "inputs": [
        {
          "indexed": false,
          "internalType": "address[]",
          "name": "aaveAccepted",
          "type": "address[]"
        },
        {
          "indexed": false,
          "internalType": "address[]",
          "name": "causeAccepted",
          "type": "address[]"
        }
      ],
      "name": "Test",
      "type": "event"
    },
    {
      "anonymous": false,
      "inputs": [
        {
          "indexed": false,
          "internalType": "address",
          "name": "userAddr",
          "type": "address"
        },
        {
          "indexed": false,
          "internalType": "address",
          "name": "pool",
          "type": "address"
        },
        {
          "indexed": false,
          "internalType": "address",
          "name": "asset",
          "type": "address"
        },
        {
          "indexed": false,
          "internalType": "uint256",
          "name": "amount",
          "type": "uint256"
        }
      ],
      "name": "WithdrawDeposit",
      "type": "event"
    },
    {
      "inputs": [
        {
          "internalType": "uint256",
          "name": "_amount",
          "type": "uint256"
        },
        {
          "internalType": "address",
          "name": "_asset",
          "type": "address"
        },
        {
          "internalType": "address",
          "name": "_pool",
          "type": "address"
        },
        {
          "internalType": "bool",
          "name": "_isETH",
          "type": "bool"
        }
      ],
      "name": "addDeposit",
      "outputs": [],
      "stateMutability": "payable",
      "type": "function",
      "payable": true
    },
    {
      "inputs": [
        {
          "internalType": "uint256",
          "name": "_amount",
          "type": "uint256"
        },
        {
          "internalType": "address",
          "name": "_asset",
          "type": "address"
        },
        {
          "internalType": "address",
          "name": "_pool",
          "type": "address"
        },
        {
          "internalType": "bool",
          "name": "_isETH",
          "type": "bool"
        }
      ],
      "name": "withdrawDeposit",
      "outputs": [],
      "stateMutability": "nonpayable",
      "type": "function"
    },
    {
      "inputs": [
        {
          "internalType": "address",
          "name": "_asset",
          "type": "address"
        },
        {
          "internalType": "address",
          "name": "_pool",
          "type": "address"
        },
        {
          "internalType": "bool",
          "name": "_isETH",
          "type": "bool"
        }
      ],
      "name": "claimInterest",
      "outputs": [],
      "stateMutability": "nonpayable",
      "type": "function"
    },
    {
      "inputs": [
        {
          "internalType": "address[]",
          "name": "_acceptedTokens",
          "type": "address[]"
        },
        {
          "internalType": "string",
          "name": "_name",
          "type": "string"
        },
        {
          "internalType": "string",
          "name": "_about",
          "type": "string"
        },
        {
          "internalType": "string",
          "name": "_picHash",
          "type": "string"
        },
        {
          "internalType": "string",
          "name": "_metaUri",
          "type": "string"
        },
        {
          "internalType": "address",
          "name": "_receiver",
          "type": "address"
        }
      ],
      "name": "createJCPoolClone",
      "outputs": [],
      "stateMutability": "nonpayable",
      "type": "function"
    },
    {
      "inputs": [
        {
          "internalType": "uint256",
          "name": "feeKey",
          "type": "uint256"
        }
      ],
      "name": "setBpFee",
      "outputs": [],
      "stateMutability": "nonpayable",
      "type": "function"
    },
    {
      "inputs": [],
      "name": "getBpFee",
      "outputs": [
        {
          "internalType": "uint256",
          "name": "",
          "type": "uint256"
        }
      ],
      "stateMutability": "view",
      "type": "function",
      "constant": true
    },
    {
      "inputs": [
        {
          "internalType": "address",
          "name": "_asset",
          "type": "address"
        }
      ],
      "name": "getTVL",
      "outputs": [
        {
          "internalType": "uint256",
          "name": "",
          "type": "uint256"
        }
      ],
      "stateMutability": "view",
      "type": "function",
      "constant": true
    },
    {
      "inputs": [
        {
          "internalType": "address",
          "name": "_asset",
          "type": "address"
        }
      ],
      "name": "getTotalDonated",
      "outputs": [
        {
          "internalType": "uint256",
          "name": "",
          "type": "uint256"
        }
      ],
      "stateMutability": "view",
      "type": "function",
      "constant": true
    },
    {
      "inputs": [],
      "name": "getDepositorERC721Address",
      "outputs": [
        {
          "internalType": "address",
          "name": "",
          "type": "address"
        }
      ],
      "stateMutability": "view",
      "type": "function",
      "constant": true
    },
    {
      "inputs": [
        {
          "internalType": "address",
          "name": "_user",
          "type": "address"
        }
      ],
      "name": "getReceiverPools",
      "outputs": [
        {
          "internalType": "address[]",
          "name": "",
          "type": "address[]"
        }
      ],
      "stateMutability": "view",
      "type": "function",
      "constant": true
    },
    {
      "inputs": [],
      "name": "getMultiSig",
      "outputs": [
        {
          "internalType": "address",
          "name": "",
          "type": "address"
        }
      ],
      "stateMutability": "view",
      "type": "function",
      "constant": true
    },
    {
      "inputs": [
        {
          "internalType": "address",
          "name": "_user",
          "type": "address"
        }
      ],
      "name": "getContributions",
      "outputs": [
        {
          "internalType": "address[]",
          "name": "",
          "type": "address[]"
        }
      ],
      "stateMutability": "view",
      "type": "function",
      "constant": true
    },
    {
      "inputs": [],
      "name": "getPoolAddr",
      "outputs": [
        {
          "internalType": "address",
          "name": "",
          "type": "address"
        }
      ],
      "stateMutability": "view",
      "type": "function",
      "constant": true
    },
    {
      "inputs": [],
      "name": "getReservesList",
      "outputs": [
        {
          "internalType": "address[]",
          "name": "",
          "type": "address[]"
        }
      ],
      "stateMutability": "view",
      "type": "function",
      "constant": true
    },
    {
      "inputs": [],
      "name": "getBaseJCPoolAddress",
      "outputs": [
        {
          "internalType": "address",
          "name": "",
          "type": "address"
        }
      ],
      "stateMutability": "view",
      "type": "function",
      "constant": true
    },
    {
      "inputs": [],
      "name": "getVerifiedPools",
      "outputs": [
        {
          "internalType": "address[]",
          "name": "",
          "type": "address[]"
        }
      ],
      "stateMutability": "view",
      "type": "function",
      "constant": true
    },
    {
      "inputs": [
        {
          "internalType": "address",
          "name": "_pool",
          "type": "address"
        }
      ],
      "name": "checkPool",
      "outputs": [
        {
          "internalType": "bool",
          "name": "",
          "type": "bool"
        }
      ],
      "stateMutability": "view",
      "type": "function",
      "constant": true
    },
    {
      "inputs": [
        {
          "internalType": "string",
          "name": "_name",
          "type": "string"
        }
      ],
      "name": "getAddressFromName",
      "outputs": [
        {
          "internalType": "address",
          "name": "",
          "type": "address"
        }
      ],
      "stateMutability": "view",
      "type": "function",
      "constant": true
    }
  ],
  "bytecode": "0x60806040523480156200001157600080fd5b506040516200b1873803806200b187833981810160405281019062000037919062000340565b600160008190555080601060006101000a81548173ffffffffffffffffffffffffffffffffffffffff021916908373ffffffffffffffffffffffffffffffffffffffff1602179055506040516200008e9062000251565b604051809103906000f080158015620000ab573d6000803e3d6000fd5b50600160006101000a81548173ffffffffffffffffffffffffffffffffffffffff021916908373ffffffffffffffffffffffffffffffffffffffff160217905550604051620000fa906200025f565b604051809103906000f08015801562000117573d6000803e3d6000fd5b50600260006101000a81548173ffffffffffffffffffffffffffffffffffffffff021916908373ffffffffffffffffffffffffffffffffffffffff16021790555082601160006101000a81548173ffffffffffffffffffffffffffffffffffffffff021916908373ffffffffffffffffffffffffffffffffffffffff16021790555081601260006101000a81548173ffffffffffffffffffffffffffffffffffffffff021916908373ffffffffffffffffffffffffffffffffffffffff1602179055506040518060a00160405280600060ff168152602001600a60ff168152602001601460ff168152602001601e60ff168152602001602860ff16815250600a906005620002279291906200026d565b50600a60026005811062000240576200023f6200039c565b5b0154600f81905550505050620003cb565b6138358062003b2383390190565b613e2f806200735883390190565b8260058101928215620002a4579160200282015b82811115620002a3578251829060ff1690559160200191906001019062000281565b5b509050620002b39190620002b7565b5090565b5b80821115620002d2576000816000905550600101620002b8565b5090565b600080fd5b600073ffffffffffffffffffffffffffffffffffffffff82169050919050565b60006200030882620002db565b9050919050565b6200031a81620002fb565b81146200032657600080fd5b50565b6000815190506200033a816200030f565b92915050565b6000806000606084860312156200035c576200035b620002d6565b5b60006200036c8682870162000329565b93505060206200037f8682870162000329565b9250506040620003928682870162000329565b9150509250925092565b7f4e487b7100000000000000000000000000000000000000000000000000000000600052603260045260246000fd5b61374880620003db6000396000f3fe6080604052600436106101095760003560e01c80638e61514e11610095578063b63ae6ee11610064578063b63ae6ee1461036e578063d1946dbc14610399578063d1df6d4d146103c4578063de25924214610401578063fa12793b1461042c57610109565b80638e61514e146102b657806390f2bb16146102f3578063a5530a451461031c578063b47dcb661461034557610109565b806330b9d2a7116100dc57806330b9d2a7146101bb5780633989a671146101f85780633f19d043146102235780635aa388681461026057806366e992e51461028b57610109565b806301beb9801461010e57806308f52b3c146101395780630f40517a146101555780632f28012a14610192575b600080fd5b34801561011a57600080fd5b50610123610469565b6040516101309190612364565b60405180910390f35b610153600480360381019061014e9190612455565b610473565b005b34801561016157600080fd5b5061017c600480360381019061017791906124bc565b610dda565b6040516101899190612364565b60405180910390f35b34801561019e57600080fd5b506101b960048036038101906101b49190612455565b610e23565b005b3480156101c757600080fd5b506101e260048036038101906101dd91906124bc565b6110fc565b6040516101ef91906124f8565b60405180910390f35b34801561020457600080fd5b5061020d611152565b60405161021a9190612522565b60405180910390f35b34801561022f57600080fd5b5061024a600480360381019061024591906124bc565b61117c565b60405161025791906125fb565b60405180910390f35b34801561026c57600080fd5b50610275611249565b6040516102829190612522565b60405180910390f35b34801561029757600080fd5b506102a0611273565b6040516102ad9190612522565b60405180910390f35b3480156102c257600080fd5b506102dd60048036038101906102d89190612763565b61129d565b6040516102ea9190612522565b60405180910390f35b3480156102ff57600080fd5b5061031a600480360381019061031591906127ac565b6112e5565b005b34801561032857600080fd5b50610343600480360381019061033e91906127ff565b611788565b005b34801561035157600080fd5b5061036c600480360381019061036791906128f4565b611837565b005b34801561037a57600080fd5b50610383611ef7565b60405161039091906125fb565b60405180910390f35b3480156103a557600080fd5b506103ae611f85565b6040516103bb91906125fb565b60405180910390f35b3480156103d057600080fd5b506103eb60048036038101906103e691906124bc565b6120b4565b6040516103f89190612364565b60405180910390f35b34801561040d57600080fd5b506104166120fd565b6040516104239190612522565b60405180910390f35b34801561043857600080fd5b50610453600480360381019061044e91906124bc565b6121a9565b60405161046091906125fb565b60405180910390f35b6000600f54905090565b81600360008273ffffffffffffffffffffffffffffffffffffffff1673ffffffffffffffffffffffffffffffffffffffff16815260200190815260200160002060009054906101000a900460ff16610500576040517f08c379a00000000000000000000000000000000000000000000000000000000081526004016104f790612a6a565b60405180910390fd5b60026000541415610546576040517f08c379a000000000000000000000000000000000000000000000000000000000815260040161053d90612ad6565b60405180910390fd5b600260008190555084600560008673ffffffffffffffffffffffffffffffffffffffff1673ffffffffffffffffffffffffffffffffffffffff168152602001908152602001600020600082825461059d9190612b25565b9250508190555060008373ffffffffffffffffffffffffffffffffffffffff1663373d7c3f6040518163ffffffff1660e01b815260040160006040518083038186803b1580156105ec57600080fd5b505afa158015610600573d6000803e3d6000fd5b505050506040513d6000823e3d601f19601f820116820180604052508101906106299190612c1e565b90506000601160009054906101000a900473ffffffffffffffffffffffffffffffffffffffff1673ffffffffffffffffffffffffffffffffffffffff1663026b1d5f6040518163ffffffff1660e01b815260040160206040518083038186803b15801561069557600080fd5b505afa1580156106a9573d6000803e3d6000fd5b505050506040513d601f19601f820116820180604052508101906106cd9190612c7c565b905083156108bd578573ffffffffffffffffffffffffffffffffffffffff16601260009054906101000a900473ffffffffffffffffffffffffffffffffffffffff1673ffffffffffffffffffffffffffffffffffffffff1663affa88176040518163ffffffff1660e01b815260040160206040518083038186803b15801561075457600080fd5b505afa158015610768573d6000803e3d6000fd5b505050506040513d601f19601f8201168201806040525081019061078c9190612c7c565b73ffffffffffffffffffffffffffffffffffffffff16146107e2576040517f08c379a00000000000000000000000000000000000000000000000000000000081526004016107d990612cf5565b60405180910390fd5b60003411610825576040517f08c379a000000000000000000000000000000000000000000000000000000000815260040161081c90612d61565b60405180910390fd5b601260009054906101000a900473ffffffffffffffffffffffffffffffffffffffff1673ffffffffffffffffffffffffffffffffffffffff1663474cf53d34838860006040518563ffffffff1660e01b815260040161088693929190612dd4565b6000604051808303818588803b15801561089f57600080fd5b505af11580156108b3573d6000803e3d6000fd5b5050505050610b64565b60003414610900576040517f08c379a00000000000000000000000000000000000000000000000000000000081526004016108f790612e57565b60405180910390fd5b6000869050878173ffffffffffffffffffffffffffffffffffffffff1663dd62ed3e33306040518363ffffffff1660e01b8152600401610941929190612e77565b60206040518083038186803b15801561095957600080fd5b505afa15801561096d573d6000803e3d6000fd5b505050506040513d601f19601f820116820180604052508101906109919190612eb5565b10156109d2576040517f08c379a00000000000000000000000000000000000000000000000000000000081526004016109c990612f2e565b60405180910390fd5b8073ffffffffffffffffffffffffffffffffffffffff166323b872dd33308b6040518463ffffffff1660e01b8152600401610a0f93929190612f4e565b602060405180830381600087803b158015610a2957600080fd5b505af1158015610a3d573d6000803e3d6000fd5b505050506040513d601f19601f82011682018060405250810190610a619190612f9a565b508073ffffffffffffffffffffffffffffffffffffffff1663095ea7b3838a6040518363ffffffff1660e01b8152600401610a9d929190612fc7565b602060405180830381600087803b158015610ab757600080fd5b505af1158015610acb573d6000803e3d6000fd5b505050506040513d601f19601f82011682018060405250810190610aef9190612f9a565b508173ffffffffffffffffffffffffffffffffffffffff1663e8eda9df828a8960006040518563ffffffff1660e01b8152600401610b309493929190612ff0565b600060405180830381600087803b158015610b4a57600080fd5b505af1158015610b5e573d6000803e3d6000fd5b50505050505b8473ffffffffffffffffffffffffffffffffffffffff166347e7ef2487896040518363ffffffff1660e01b8152600401610b9f929190612fc7565b600060405180830381600087803b158015610bb957600080fd5b505af1158015610bcd573d6000803e3d6000fd5b5050505060008573ffffffffffffffffffffffffffffffffffffffff16627ffb786040518163ffffffff1660e01b815260040160206040518083038186803b158015610c1857600080fd5b505afa158015610c2c573d6000803e3d6000fd5b505050506040513d601f19601f82011682018060405250810190610c509190612c7c565b73ffffffffffffffffffffffffffffffffffffffff166326a45ffb338a428b886040518663ffffffff1660e01b8152600401610c90959493929190613079565b602060405180830381600087803b158015610caa57600080fd5b505af1158015610cbe573d6000803e3d6000fd5b505050506040513d601f19601f82011682018060405250810190610ce29190612f9a565b90508015610d8b57600760003373ffffffffffffffffffffffffffffffffffffffff1673ffffffffffffffffffffffffffffffffffffffff168152602001908152602001600020869080600181540180825580915050600190039060005260206000200160009091909190916101000a81548173ffffffffffffffffffffffffffffffffffffffff021916908373ffffffffffffffffffffffffffffffffffffffff1602179055505b7f20ca885e6c573d69bc931b3787127868f5b90568509fb8d4ff6f7102b8d0cd253387898b604051610dc094939291906130d3565b60405180910390a150505060016000819055505050505050565b6000600560008373ffffffffffffffffffffffffffffffffffffffff1673ffffffffffffffffffffffffffffffffffffffff168152602001908152602001600020549050919050565b81600360008273ffffffffffffffffffffffffffffffffffffffff1673ffffffffffffffffffffffffffffffffffffffff16815260200190815260200160002060009054906101000a900460ff16610eb0576040517f08c379a0000000000000000000000000000000000000000000000000000000008152600401610ea790612a6a565b60405180910390fd5b60026000541415610ef6576040517f08c379a0000000000000000000000000000000000000000000000000000000008152600401610eed90612ad6565b60405180910390fd5b600260008190555084600560008673ffffffffffffffffffffffffffffffffffffffff1673ffffffffffffffffffffffffffffffffffffffff1681526020019081526020016000206000828254610f4d9190613118565b925050819055508273ffffffffffffffffffffffffffffffffffffffff16627ffb786040518163ffffffff1660e01b815260040160206040518083038186803b158015610f9957600080fd5b505afa158015610fad573d6000803e3d6000fd5b505050506040513d601f19601f82011682018060405250810190610fd19190612c7c565b73ffffffffffffffffffffffffffffffffffffffff166347c6b45e3387876040518463ffffffff1660e01b815260040161100d9392919061314c565b600060405180830381600087803b15801561102757600080fd5b505af115801561103b573d6000803e3d6000fd5b505050508273ffffffffffffffffffffffffffffffffffffffff166312eeff7e858733866040518563ffffffff1660e01b815260040161107e9493929190613183565b600060405180830381600087803b15801561109857600080fd5b505af11580156110ac573d6000803e3d6000fd5b505050507fa657ed79c074c3489591adb7ba850f38c009bd846e47f2ffe3edc1d06f48a5a4338486886040516110e594939291906130d3565b60405180910390a160016000819055505050505050565b6000600360008373ffffffffffffffffffffffffffffffffffffffff1673ffffffffffffffffffffffffffffffffffffffff16815260200190815260200160002060009054906101000a900460ff169050919050565b6000600260009054906101000a900473ffffffffffffffffffffffffffffffffffffffff16905090565b6060600760008373ffffffffffffffffffffffffffffffffffffffff1673ffffffffffffffffffffffffffffffffffffffff16815260200190815260200160002080548060200260200160405190810160405280929190818152602001828054801561123d57602002820191906000526020600020905b8160009054906101000a900473ffffffffffffffffffffffffffffffffffffffff1673ffffffffffffffffffffffffffffffffffffffff16815260200190600101908083116111f3575b50505050509050919050565b6000600160009054906101000a900473ffffffffffffffffffffffffffffffffffffffff16905090565b6000601060009054906101000a900473ffffffffffffffffffffffffffffffffffffffff16905090565b60006004826040516112af9190613204565b908152602001604051809103902060009054906101000a900473ffffffffffffffffffffffffffffffffffffffff169050919050565b81600360008273ffffffffffffffffffffffffffffffffffffffff1673ffffffffffffffffffffffffffffffffffffffff16815260200190815260200160002060009054906101000a900460ff16611372576040517f08c379a000000000000000000000000000000000000000000000000000000000815260040161136990612a6a565b60405180910390fd5b600260005414156113b8576040517f08c379a00000000000000000000000000000000000000000000000000000000081526004016113af90612ad6565b60405180910390fd5b6002600081905550836000601160009054906101000a900473ffffffffffffffffffffffffffffffffffffffff1673ffffffffffffffffffffffffffffffffffffffff1663026b1d5f6040518163ffffffff1660e01b815260040160206040518083038186803b15801561142b57600080fd5b505afa15801561143f573d6000803e3d6000fd5b505050506040513d601f19601f820116820180604052508101906114639190612c7c565b905060008173ffffffffffffffffffffffffffffffffffffffff1663d1946dbc6040518163ffffffff1660e01b815260040160006040518083038186803b1580156114ad57600080fd5b505afa1580156114c1573d6000803e3d6000fd5b505050506040513d6000823e3d601f19601f820116820180604052508101906114ea91906132b2565b9050600080600090505b82518160ff16101561156957828160ff1681518110611516576115156132fb565b5b602002602001015173ffffffffffffffffffffffffffffffffffffffff168573ffffffffffffffffffffffffffffffffffffffff16141561155657600191505b808061156190613337565b9150506114f4565b50806115aa576040517f08c379a00000000000000000000000000000000000000000000000000000000081526004016115a1906133ad565b60405180910390fd5b60008773ffffffffffffffffffffffffffffffffffffffff1663eda9c2d28a601060009054906101000a900473ffffffffffffffffffffffffffffffffffffffff168a600f546040518563ffffffff1660e01b815260040161160f94939291906133cd565b602060405180830381600087803b15801561162957600080fd5b505af115801561163d573d6000803e3d6000fd5b505050506040513d601f19601f820116820180604052508101906116619190612eb5565b905080600660008b73ffffffffffffffffffffffffffffffffffffffff1673ffffffffffffffffffffffffffffffffffffffff16815260200190815260200160002060008282546116b29190612b25565b925050819055507f7276c0285f260d667df9ded71ca6a988145d36de1d14252710532b9de5f089fe338973ffffffffffffffffffffffffffffffffffffffff16631b88094d6040518163ffffffff1660e01b815260040160206040518083038186803b15801561172157600080fd5b505afa158015611735573d6000803e3d6000fd5b505050506040513d601f19601f820116820180604052508101906117599190612c7c565b8a8c8560405161176d959493929190613412565b60405180910390a15050505050600160008190555050505050565b3373ffffffffffffffffffffffffffffffffffffffff16601060009054906101000a900473ffffffffffffffffffffffffffffffffffffffff1673ffffffffffffffffffffffffffffffffffffffff1614611818576040517f08c379a000000000000000000000000000000000000000000000000000000000815260040161180f906134b1565b60405180910390fd5b600a816005811061182c5761182b6132fb565b5b0154600f8190555050565b856000601160009054906101000a900473ffffffffffffffffffffffffffffffffffffffff1673ffffffffffffffffffffffffffffffffffffffff1663026b1d5f6040518163ffffffff1660e01b815260040160206040518083038186803b1580156118a257600080fd5b505afa1580156118b6573d6000803e3d6000fd5b505050506040513d601f19601f820116820180604052508101906118da9190612c7c565b905060008173ffffffffffffffffffffffffffffffffffffffff1663d1946dbc6040518163ffffffff1660e01b815260040160006040518083038186803b15801561192457600080fd5b505afa158015611938573d6000803e3d6000fd5b505050506040513d6000823e3d601f19601f8201168201806040525081019061196191906132b2565b905060005b83518160ff161015611a6157600080600090505b83518160ff161015611a0c57838160ff168151811061199c5761199b6132fb565b5b602002602001015173ffffffffffffffffffffffffffffffffffffffff16868460ff16815181106119d0576119cf6132fb565b5b602002602001015173ffffffffffffffffffffffffffffffffffffffff1614156119f957600191505b8080611a0490613337565b91505061197a565b5080611a4d576040517f08c379a0000000000000000000000000000000000000000000000000000000008152600401611a449061351d565b60405180910390fd5b508080611a5990613337565b915050611966565b50600073ffffffffffffffffffffffffffffffffffffffff16600489604051611a8a9190613204565b908152602001604051809103902060009054906101000a900473ffffffffffffffffffffffffffffffffffffffff1673ffffffffffffffffffffffffffffffffffffffff1614611b0f576040517f08c379a0000000000000000000000000000000000000000000000000000000008152600401611b0690613589565b60405180910390fd5b6000611b3c600160009054906101000a900473ffffffffffffffffffffffffffffffffffffffff16612276565b90506000611b6b600260009054906101000a900473ffffffffffffffffffffffffffffffffffffffff16612276565b90506000601060009054906101000a900473ffffffffffffffffffffffffffffffffffffffff1673ffffffffffffffffffffffffffffffffffffffff163373ffffffffffffffffffffffffffffffffffffffff161415611c2d576009839080600181540180825580915050600190039060005260206000200160009091909190916101000a81548173ffffffffffffffffffffffffffffffffffffffff021916908373ffffffffffffffffffffffffffffffffffffffff160217905550600190505b8273ffffffffffffffffffffffffffffffffffffffff1663bbc41f488d8d8d8d8d8d601160009054906101000a900473ffffffffffffffffffffffffffffffffffffffff16601260009054906101000a900473ffffffffffffffffffffffffffffffffffffffff168b8b6040518b63ffffffff1660e01b8152600401611cbc9a999897969594939291906135a9565b600060405180830381600087803b158015611cd657600080fd5b505af1158015611cea573d6000803e3d6000fd5b505050508173ffffffffffffffffffffffffffffffffffffffff1663c4d66de8846040518263ffffffff1660e01b8152600401611d279190612522565b600060405180830381600087803b158015611d4157600080fd5b505af1158015611d55573d6000803e3d6000fd5b50505050600860008873ffffffffffffffffffffffffffffffffffffffff1673ffffffffffffffffffffffffffffffffffffffff168152602001908152602001600020839080600181540180825580915050600190039060005260206000200160009091909190916101000a81548173ffffffffffffffffffffffffffffffffffffffff021916908373ffffffffffffffffffffffffffffffffffffffff1602179055508260048c604051611e0a9190613204565b908152602001604051809103902060006101000a81548173ffffffffffffffffffffffffffffffffffffffff021916908373ffffffffffffffffffffffffffffffffffffffff1602179055506001600360008573ffffffffffffffffffffffffffffffffffffffff1673ffffffffffffffffffffffffffffffffffffffff16815260200190815260200160002060006101000a81548160ff0219169083151502179055507f373adb264e07592e89e672b780912566106b06a5f7a7787e63a47ca627e915af838c89604051611ee193929190613668565b60405180910390a1505050505050505050505050565b60606009805480602002602001604051908101604052809291908181526020018280548015611f7b57602002820191906000526020600020905b8160009054906101000a900473ffffffffffffffffffffffffffffffffffffffff1673ffffffffffffffffffffffffffffffffffffffff1681526020019060010190808311611f31575b5050505050905090565b60606000601160009054906101000a900473ffffffffffffffffffffffffffffffffffffffff1673ffffffffffffffffffffffffffffffffffffffff1663026b1d5f6040518163ffffffff1660e01b815260040160206040518083038186803b158015611ff157600080fd5b505afa158015612005573d6000803e3d6000fd5b505050506040513d601f19601f820116820180604052508101906120299190612c7c565b90508073ffffffffffffffffffffffffffffffffffffffff1663d1946dbc6040518163ffffffff1660e01b815260040160006040518083038186803b15801561207157600080fd5b505afa158015612085573d6000803e3d6000fd5b505050506040513d6000823e3d601f19601f820116820180604052508101906120ae91906132b2565b91505090565b6000600660008373ffffffffffffffffffffffffffffffffffffffff1673ffffffffffffffffffffffffffffffffffffffff168152602001908152602001600020549050919050565b600080601160009054906101000a900473ffffffffffffffffffffffffffffffffffffffff1673ffffffffffffffffffffffffffffffffffffffff1663026b1d5f6040518163ffffffff1660e01b815260040160206040518083038186803b15801561216857600080fd5b505afa15801561217c573d6000803e3d6000fd5b505050506040513d601f19601f820116820180604052508101906121a09190612c7c565b90508091505090565b6060600860008373ffffffffffffffffffffffffffffffffffffffff1673ffffffffffffffffffffffffffffffffffffffff16815260200190815260200160002080548060200260200160405190810160405280929190818152602001828054801561226a57602002820191906000526020600020905b8160009054906101000a900473ffffffffffffffffffffffffffffffffffffffff1673ffffffffffffffffffffffffffffffffffffffff1681526020019060010190808311612220575b50505050509050919050565b60006040517f3d602d80600a3d3981f3363d3d373d3d3d363d7300000000000000000000000081528260601b60148201527f5af43d82803e903d91602b57fd5bf3000000000000000000000000000000000060288201526037816000f0915050600073ffffffffffffffffffffffffffffffffffffffff168173ffffffffffffffffffffffffffffffffffffffff161415612346576040517f08c379a000000000000000000000000000000000000000000000000000000000815260040161233d906136f2565b60405180910390fd5b919050565b6000819050919050565b61235e8161234b565b82525050565b60006020820190506123796000830184612355565b92915050565b6000604051905090565b600080fd5b600080fd5b61239c8161234b565b81146123a757600080fd5b50565b6000813590506123b981612393565b92915050565b600073ffffffffffffffffffffffffffffffffffffffff82169050919050565b60006123ea826123bf565b9050919050565b6123fa816123df565b811461240557600080fd5b50565b600081359050612417816123f1565b92915050565b60008115159050919050565b6124328161241d565b811461243d57600080fd5b50565b60008135905061244f81612429565b92915050565b6000806000806080858703121561246f5761246e612389565b5b600061247d878288016123aa565b945050602061248e87828801612408565b935050604061249f87828801612408565b92505060606124b087828801612440565b91505092959194509250565b6000602082840312156124d2576124d1612389565b5b60006124e084828501612408565b91505092915050565b6124f28161241d565b82525050565b600060208201905061250d60008301846124e9565b92915050565b61251c816123df565b82525050565b60006020820190506125376000830184612513565b92915050565b600081519050919050565b600082825260208201905092915050565b6000819050602082019050919050565b612572816123df565b82525050565b60006125848383612569565b60208301905092915050565b6000602082019050919050565b60006125a88261253d565b6125b28185612548565b93506125bd83612559565b8060005b838110156125ee5781516125d58882612578565b97506125e083612590565b9250506001810190506125c1565b5085935050505092915050565b60006020820190508181036000830152612615818461259d565b905092915050565b600080fd5b600080fd5b6000601f19601f8301169050919050565b7f4e487b7100000000000000000000000000000000000000000000000000000000600052604160045260246000fd5b61267082612627565b810181811067ffffffffffffffff8211171561268f5761268e612638565b5b80604052505050565b60006126a261237f565b90506126ae8282612667565b919050565b600067ffffffffffffffff8211156126ce576126cd612638565b5b6126d782612627565b9050602081019050919050565b82818337600083830152505050565b6000612706612701846126b3565b612698565b90508281526020810184848401111561272257612721612622565b5b61272d8482856126e4565b509392505050565b600082601f83011261274a5761274961261d565b5b813561275a8482602086016126f3565b91505092915050565b60006020828403121561277957612778612389565b5b600082013567ffffffffffffffff8111156127975761279661238e565b5b6127a384828501612735565b91505092915050565b6000806000606084860312156127c5576127c4612389565b5b60006127d386828701612408565b93505060206127e486828701612408565b92505060406127f586828701612440565b9150509250925092565b60006020828403121561281557612814612389565b5b6000612823848285016123aa565b91505092915050565b600067ffffffffffffffff82111561284757612846612638565b5b602082029050602081019050919050565b600080fd5b600061287061286b8461282c565b612698565b9050808382526020820190506020840283018581111561289357612892612858565b5b835b818110156128bc57806128a88882612408565b845260208401935050602081019050612895565b5050509392505050565b600082601f8301126128db576128da61261d565b5b81356128eb84826020860161285d565b91505092915050565b60008060008060008060c0878903121561291157612910612389565b5b600087013567ffffffffffffffff81111561292f5761292e61238e565b5b61293b89828a016128c6565b965050602087013567ffffffffffffffff81111561295c5761295b61238e565b5b61296889828a01612735565b955050604087013567ffffffffffffffff8111156129895761298861238e565b5b61299589828a01612735565b945050606087013567ffffffffffffffff8111156129b6576129b561238e565b5b6129c289828a01612735565b935050608087013567ffffffffffffffff8111156129e3576129e261238e565b5b6129ef89828a01612735565b92505060a0612a0089828a01612408565b9150509295509295509295565b600082825260208201905092915050565b7f6e6f7420706f6f6c000000000000000000000000000000000000000000000000600082015250565b6000612a54600883612a0d565b9150612a5f82612a1e565b602082019050919050565b60006020820190508181036000830152612a8381612a47565b9050919050565b7f5265656e7472616e637947756172643a207265656e7472616e742063616c6c00600082015250565b6000612ac0601f83612a0d565b9150612acb82612a8a565b602082019050919050565b60006020820190508181036000830152612aef81612ab3565b9050919050565b7f4e487b7100000000000000000000000000000000000000000000000000000000600052601160045260246000fd5b6000612b308261234b565b9150612b3b8361234b565b9250827fffffffffffffffffffffffffffffffffffffffffffffffffffffffffffffffff03821115612b7057612b6f612af6565b5b828201905092915050565b60005b83811015612b99578082015181840152602081019050612b7e565b83811115612ba8576000848401525b50505050565b6000612bc1612bbc846126b3565b612698565b905082815260208101848484011115612bdd57612bdc612622565b5b612be8848285612b7b565b509392505050565b600082601f830112612c0557612c0461261d565b5b8151612c15848260208601612bae565b91505092915050565b600060208284031215612c3457612c33612389565b5b600082015167ffffffffffffffff811115612c5257612c5161238e565b5b612c5e84828501612bf0565b91505092915050565b600081519050612c76816123f1565b92915050565b600060208284031215612c9257612c91612389565b5b6000612ca084828501612c67565b91505092915050565b7f617373657420646f6573206e6f74206d61746368205745544847617465776179600082015250565b6000612cdf602083612a0d565b9150612cea82612ca9565b602082019050919050565b60006020820190508181036000830152612d0e81612cd2565b9050919050565b7f6d73672e76616c75652063616e6e6f74206265207a65726f0000000000000000600082015250565b6000612d4b601883612a0d565b9150612d5682612d15565b602082019050919050565b60006020820190508181036000830152612d7a81612d3e565b9050919050565b6000819050919050565b600061ffff82169050919050565b6000819050919050565b6000612dbe612db9612db484612d81565b612d99565b612d8b565b9050919050565b612dce81612da3565b82525050565b6000606082019050612de96000830186612513565b612df66020830185612513565b612e036040830184612dc5565b949350505050565b7f6d73672e76616c7565206973206e6f74207a65726f0000000000000000000000600082015250565b6000612e41601583612a0d565b9150612e4c82612e0b565b602082019050919050565b60006020820190508181036000830152612e7081612e34565b9050919050565b6000604082019050612e8c6000830185612513565b612e996020830184612513565b9392505050565b600081519050612eaf81612393565b92915050565b600060208284031215612ecb57612eca612389565b5b6000612ed984828501612ea0565b91505092915050565b7f73656e646572206e6f7420617070726f76656400000000000000000000000000600082015250565b6000612f18601383612a0d565b9150612f2382612ee2565b602082019050919050565b60006020820190508181036000830152612f4781612f0b565b9050919050565b6000606082019050612f636000830186612513565b612f706020830185612513565b612f7d6040830184612355565b949350505050565b600081519050612f9481612429565b92915050565b600060208284031215612fb057612faf612389565b5b6000612fbe84828501612f85565b91505092915050565b6000604082019050612fdc6000830185612513565b612fe96020830184612355565b9392505050565b60006080820190506130056000830187612513565b6130126020830186612355565b61301f6040830185612513565b61302c6060830184612dc5565b95945050505050565b600081519050919050565b600061304b82613035565b6130558185612a0d565b9350613065818560208601612b7b565b61306e81612627565b840191505092915050565b600060a08201905061308e6000830188612513565b61309b6020830187612355565b6130a86040830186612355565b6130b56060830185612513565b81810360808301526130c78184613040565b90509695505050505050565b60006080820190506130e86000830187612513565b6130f56020830186612513565b6131026040830185612513565b61310f6060830184612355565b95945050505050565b60006131238261234b565b915061312e8361234b565b92508282101561314157613140612af6565b5b828203905092915050565b60006060820190506131616000830186612513565b61316e6020830185612355565b61317b6040830184612513565b949350505050565b60006080820190506131986000830187612513565b6131a56020830186612355565b6131b26040830185612513565b6131bf60608301846124e9565b95945050505050565b600081905092915050565b60006131de82613035565b6131e881856131c8565b93506131f8818560208601612b7b565b80840191505092915050565b600061321082846131d3565b915081905092915050565b600061322e6132298461282c565b612698565b9050808382526020820190506020840283018581111561325157613250612858565b5b835b8181101561327a57806132668882612c67565b845260208401935050602081019050613253565b5050509392505050565b600082601f8301126132995761329861261d565b5b81516132a984826020860161321b565b91505092915050565b6000602082840312156132c8576132c7612389565b5b600082015167ffffffffffffffff8111156132e6576132e561238e565b5b6132f284828501613284565b91505092915050565b7f4e487b7100000000000000000000000000000000000000000000000000000000600052603260045260246000fd5b600060ff82169050919050565b60006133428261332a565b915060ff82141561335657613355612af6565b5b600182019050919050565b7f746f6b656e206e6f7420617070726f7665640000000000000000000000000000600082015250565b6000613397601283612a0d565b91506133a282613361565b602082019050919050565b600060208201905081810360008301526133c68161338a565b9050919050565b60006080820190506133e26000830187612513565b6133ef6020830186612513565b6133fc60408301856124e9565b6134096060830184612355565b95945050505050565b600060a0820190506134276000830188612513565b6134346020830187612513565b6134416040830186612513565b61344e6060830185612513565b61345b6080830184612355565b9695505050505050565b7f6e6f7420746865206d756c746953696700000000000000000000000000000000600082015250565b600061349b601083612a0d565b91506134a682613465565b602082019050919050565b600060208201905081810360008301526134ca8161348e565b9050919050565b7f746f6b656e73206e6f7420617070726f76656400000000000000000000000000600082015250565b6000613507601383612a0d565b9150613512826134d1565b602082019050919050565b60006020820190508181036000830152613536816134fa565b9050919050565b7f706f6f6c2077697468206e616d6520616c726561647920657869737473000000600082015250565b6000613573601d83612a0d565b915061357e8261353d565b602082019050919050565b600060208201905081810360008301526135a281613566565b9050919050565b60006101408201905081810360008301526135c4818d61259d565b905081810360208301526135d8818c613040565b905081810360408301526135ec818b613040565b90508181036060830152613600818a613040565b905081810360808301526136148189613040565b905061362360a0830188612513565b61363060c0830187612513565b61363d60e0830186612513565b61364b610100830185612513565b6136596101208301846124e9565b9b9a5050505050505050505050565b600060608201905061367d6000830186612513565b818103602083015261368f8185613040565b905061369e6040830184612513565b949350505050565b7f455243313136373a20637265617465206661696c656400000000000000000000600082015250565b60006136dc601683612a0d565b91506136e7826136a6565b602082019050919050565b6000602082019050818103600083015261370b816136cf565b905091905056fea2646970667358221220bea321bbf15041c4f83f5ce687b241a8e1efd74a9e1fd04d3f536de9d9ffdf7364736f6c63430008090033608060405234801561001057600080fd5b506001600360006101000a81548160ff0219169083151502179055506137fa8061003b6000396000f3fe608060405234801561001057600080fd5b50600436106101365760003560e01c80633735ef88116100b857806367e0e0761161007c57806367e0e07614610347578063711cc0051461037d5780638aebe8d6146103ad578063bbc41f48146103dd578063d15e0053146103f9578063eda9c2d21461042957610136565b80633735ef8814610289578063373d7c3f146102b957806347e7ef24146102d75780635ff189b9146102f357806360246c881461032357610136565b806317d7de7c116100ff57806317d7de7c146101f35780631b88094d146102115780632f7570061461022f578063343d693b1461024d578063357286d71461026b57610136565b80627ffb781461013b5780630251cfa1146101595780630712f6b31461018957806312eeff7e146101b9578063155d8e9c146101d5575b600080fd5b610143610459565b60405161015091906125f0565b60405180910390f35b610173600480360381019061016e919061264b565b610483565b6040516101809190612691565b60405180910390f35b6101a3600480360381019061019e919061264b565b6104cc565b6040516101b09190612691565b60405180910390f35b6101d360048036038101906101ce9190612710565b61056b565b005b6101dd6109f9565b6040516101ea9190612810565b60405180910390f35b6101fb610a8b565b6040516102089190612810565b60405180910390f35b610219610b1d565b60405161022691906125f0565b60405180910390f35b610237610b47565b60405161024491906128f0565b60405180910390f35b610255610bd5565b6040516102629190612810565b60405180910390f35b610273610c67565b6040516102809190612921565b60405180910390f35b6102a3600480360381019061029e919061264b565b610c7e565b6040516102b09190612691565b60405180910390f35b6102c1610d6d565b6040516102ce9190612810565b60405180910390f35b6102f160048036038101906102ec919061293c565b610dff565b005b61030d6004803603810190610308919061264b565b610fd6565b60405161031a9190612691565b60405180910390f35b61032b61101f565b60405161033e979695949392919061297c565b60405180910390f35b610361600480360381019061035c919061264b565b611336565b6040516103749796959493929190612a0e565b60405180910390f35b6103976004803603810190610392919061264b565b611399565b6040516103a491906125f0565b60405180910390f35b6103c760048036038101906103c2919061264b565b6114d5565b6040516103d49190612691565b60405180910390f35b6103f760048036038101906103f29190612c7a565b611622565b005b610413600480360381019061040e919061264b565b611a1b565b6040516104209190612691565b60405180910390f35b610443600480360381019061043e9190612de5565b611b51565b6040516104509190612691565b60405180910390f35b6000600560009054906101000a900473ffffffffffffffffffffffffffffffffffffffff16905090565b6000600160008373ffffffffffffffffffffffffffffffffffffffff1673ffffffffffffffffffffffffffffffffffffffff168152602001908152602001600020549050919050565b6000806104d883611399565b90508073ffffffffffffffffffffffffffffffffffffffff166370a08231306040518263ffffffff1660e01b815260040161051391906125f0565b60206040518083038186803b15801561052b57600080fd5b505afa15801561053f573d6000803e3d6000fd5b505050506040513d601f19601f820116820180604052508101906105639190612e61565b915050919050565b3373ffffffffffffffffffffffffffffffffffffffff16600860009054906101000a900473ffffffffffffffffffffffffffffffffffffffff1673ffffffffffffffffffffffffffffffffffffffff16146105fb576040517f08c379a00000000000000000000000000000000000000000000000000000000081526004016105f290612eda565b60405180910390fd5b6000600360019054906101000a900473ffffffffffffffffffffffffffffffffffffffff1673ffffffffffffffffffffffffffffffffffffffff1663026b1d5f6040518163ffffffff1660e01b815260040160206040518083038186803b15801561066557600080fd5b505afa158015610679573d6000803e3d6000fd5b505050506040513d601f19601f8201168201806040525081019061069d9190612f0f565b905083600160008773ffffffffffffffffffffffffffffffffffffffff1673ffffffffffffffffffffffffffffffffffffffff16815260200190815260200160002060008282546106ee9190612f6b565b925050819055508161078f578073ffffffffffffffffffffffffffffffffffffffff166369328dec8686866040518463ffffffff1660e01b815260040161073793929190612f9f565b602060405180830381600087803b15801561075157600080fd5b505af1158015610765573d6000803e3d6000fd5b505050506040513d601f19601f820116820180604052508101906107899190612e61565b506109f2565b6000600460009054906101000a900473ffffffffffffffffffffffffffffffffffffffff1673ffffffffffffffffffffffffffffffffffffffff1663affa88176040518163ffffffff1660e01b815260040160206040518083038186803b1580156107f957600080fd5b505afa15801561080d573d6000803e3d6000fd5b505050506040513d601f19601f820116820180604052508101906108319190612f0f565b90508573ffffffffffffffffffffffffffffffffffffffff168173ffffffffffffffffffffffffffffffffffffffff16146108a1576040517f08c379a000000000000000000000000000000000000000000000000000000000815260040161089890613022565b60405180910390fd5b60006108ac82611399565b90508073ffffffffffffffffffffffffffffffffffffffff1663095ea7b3600460009054906101000a900473ffffffffffffffffffffffffffffffffffffffff16886040518363ffffffff1660e01b815260040161090b929190613042565b602060405180830381600087803b15801561092557600080fd5b505af1158015610939573d6000803e3d6000fd5b505050506040513d601f19601f8201168201806040525081019061095d9190613080565b50600460009054906101000a900473ffffffffffffffffffffffffffffffffffffffff1673ffffffffffffffffffffffffffffffffffffffff166380500d208488886040518463ffffffff1660e01b81526004016109bd93929190612f9f565b600060405180830381600087803b1580156109d757600080fd5b505af11580156109eb573d6000803e3d6000fd5b5050505050505b5050505050565b6060600b8054610a08906130dc565b80601f0160208091040260200160405190810160405280929190818152602001828054610a34906130dc565b8015610a815780601f10610a5657610100808354040283529160200191610a81565b820191906000526020600020905b815481529060010190602001808311610a6457829003601f168201915b5050505050905090565b606060098054610a9a906130dc565b80601f0160208091040260200160405190810160405280929190818152602001828054610ac6906130dc565b8015610b135780601f10610ae857610100808354040283529160200191610b13565b820191906000526020600020905b815481529060010190602001808311610af657829003601f168201915b5050505050905090565b6000600760009054906101000a900473ffffffffffffffffffffffffffffffffffffffff16905090565b60606006805480602002602001604051908101604052809291908181526020018280548015610bcb57602002820191906000526020600020905b8160009054906101000a900473ffffffffffffffffffffffffffffffffffffffff1673ffffffffffffffffffffffffffffffffffffffff1681526020019060010190808311610b81575b5050505050905090565b6060600a8054610be4906130dc565b80601f0160208091040260200160405190810160405280929190818152602001828054610c10906130dc565b8015610c5d5780601f10610c3257610100808354040283529160200191610c5d565b820191906000526020600020905b815481529060010190602001808311610c4057829003601f168201915b5050505050905090565b6000600d60009054906101000a900460ff16905090565b600080610c8a83611399565b905060008173ffffffffffffffffffffffffffffffffffffffff166370a08231306040518263ffffffff1660e01b8152600401610cc791906125f0565b60206040518083038186803b158015610cdf57600080fd5b505afa158015610cf3573d6000803e3d6000fd5b505050506040513d601f19601f82011682018060405250810190610d179190612e61565b9050600160008573ffffffffffffffffffffffffffffffffffffffff1673ffffffffffffffffffffffffffffffffffffffff1681526020019081526020016000205481610d649190612f6b565b92505050919050565b6060600c8054610d7c906130dc565b80601f0160208091040260200160405190810160405280929190818152602001828054610da8906130dc565b8015610df55780601f10610dca57610100808354040283529160200191610df5565b820191906000526020600020905b815481529060010190602001808311610dd857829003601f168201915b5050505050905090565b3373ffffffffffffffffffffffffffffffffffffffff16600860009054906101000a900473ffffffffffffffffffffffffffffffffffffffff1673ffffffffffffffffffffffffffffffffffffffff1614610e8f576040517f08c379a0000000000000000000000000000000000000000000000000000000008152600401610e8690612eda565b60405180910390fd5b81600080600090505b6006805490508160ff161015610f395760068160ff1681548110610ebf57610ebe61310e565b5b9060005260206000200160009054906101000a900473ffffffffffffffffffffffffffffffffffffffff1673ffffffffffffffffffffffffffffffffffffffff168373ffffffffffffffffffffffffffffffffffffffff161415610f265760019150610f39565b8080610f319061314a565b915050610e98565b5080610f7a576040517f08c379a0000000000000000000000000000000000000000000000000000000008152600401610f71906131c0565b60405180910390fd5b82600160008673ffffffffffffffffffffffffffffffffffffffff1673ffffffffffffffffffffffffffffffffffffffff1681526020019081526020016000206000828254610fc991906131e0565b9250508190555050505050565b6000600260008373ffffffffffffffffffffffffffffffffffffffff1673ffffffffffffffffffffffffffffffffffffffff168152602001908152602001600020549050919050565b60606000806060806060806006600760009054906101000a900473ffffffffffffffffffffffffffffffffffffffff16600d60009054906101000a900460ff16600c600b600a6009868054806020026020016040519081016040528092919081815260200182805480156110e857602002820191906000526020600020905b8160009054906101000a900473ffffffffffffffffffffffffffffffffffffffff1673ffffffffffffffffffffffffffffffffffffffff168152602001906001019080831161109e575b505050505096508380546110fb906130dc565b80601f0160208091040260200160405190810160405280929190818152602001828054611127906130dc565b80156111745780601f1061114957610100808354040283529160200191611174565b820191906000526020600020905b81548152906001019060200180831161115757829003601f168201915b50505050509350828054611187906130dc565b80601f01602080910402602001604051908101604052809291908181526020018280546111b3906130dc565b80156112005780601f106111d557610100808354040283529160200191611200565b820191906000526020600020905b8154815290600101906020018083116111e357829003601f168201915b50505050509250818054611213906130dc565b80601f016020809104026020016040519081016040528092919081815260200182805461123f906130dc565b801561128c5780601f106112615761010080835404028352916020019161128c565b820191906000526020600020905b81548152906001019060200180831161126f57829003601f168201915b5050505050915080805461129f906130dc565b80601f01602080910402602001604051908101604052809291908181526020018280546112cb906130dc565b80156113185780601f106112ed57610100808354040283529160200191611318565b820191906000526020600020905b8154815290600101906020018083116112fb57829003601f168201915b50505050509050965096509650965096509650965090919293949596565b600080600080600080600061134a886114d5565b61135389611a1b565b61135c8a6104cc565b6113658b610fd6565b61136e8c610c7e565b6113778d610483565b6113808e611399565b9650965096509650965096509650919395979092949650565b600080600360019054906101000a900473ffffffffffffffffffffffffffffffffffffffff1673ffffffffffffffffffffffffffffffffffffffff1663026b1d5f6040518163ffffffff1660e01b815260040160206040518083038186803b15801561140457600080fd5b505afa158015611418573d6000803e3d6000fd5b505050506040513d601f19601f8201168201806040525081019061143c9190612f0f565b90508073ffffffffffffffffffffffffffffffffffffffff166335ea6a75846040518263ffffffff1660e01b815260040161147791906125f0565b6101e06040518083038186803b15801561149057600080fd5b505afa1580156114a4573d6000803e3d6000fd5b505050506040513d601f19601f820116820180604052508101906114c8919061349a565b6101000151915050919050565b600080600360019054906101000a900473ffffffffffffffffffffffffffffffffffffffff1673ffffffffffffffffffffffffffffffffffffffff1663026b1d5f6040518163ffffffff1660e01b815260040160206040518083038186803b15801561154057600080fd5b505afa158015611554573d6000803e3d6000fd5b505050506040513d601f19601f820116820180604052508101906115789190612f0f565b90508073ffffffffffffffffffffffffffffffffffffffff166335ea6a75846040518263ffffffff1660e01b81526004016115b391906125f0565b6101e06040518083038186803b1580156115cc57600080fd5b505afa1580156115e0573d6000803e3d6000fd5b505050506040513d601f19601f82011682018060405250810190611604919061349a565b602001516fffffffffffffffffffffffffffffffff16915050919050565b88601e60008290508160ff1681511115611671576040517f08c379a000000000000000000000000000000000000000000000000000000000815260040161166890613514565b60405180910390fd5b600060019054906101000a900460ff166116995760008054906101000a900460ff16156116a2565b6116a16123f2565b5b6116e1576040517f08c379a00000000000000000000000000000000000000000000000000000000081526004016116d8906135a6565b60405180910390fd5b60008060019054906101000a900460ff161590508015611731576001600060016101000a81548160ff02191690831515021790555060016000806101000a81548160ff0219169083151502179055505b60001515600360009054906101000a900460ff16151514611787576040517f08c379a000000000000000000000000000000000000000000000000000000000815260040161177e90613612565b60405180910390fd5b600073ffffffffffffffffffffffffffffffffffffffff16600760009054906101000a900473ffffffffffffffffffffffffffffffffffffffff1673ffffffffffffffffffffffffffffffffffffffff1614611818576040517f08c379a000000000000000000000000000000000000000000000000000000000815260040161180f9061367e565b60405180910390fd5b88600760006101000a81548173ffffffffffffffffffffffffffffffffffffffff021916908373ffffffffffffffffffffffffffffffffffffffff16021790555033600860006101000a81548173ffffffffffffffffffffffffffffffffffffffff021916908373ffffffffffffffffffffffffffffffffffffffff1602179055508c600990805190602001906118b0929190612482565b508b600a90805190602001906118c7929190612482565b508a600b90805190602001906118de929190612482565b5089600c90805190602001906118f5929190612482565b5084600d60006101000a81548160ff02191690831515021790555087600360016101000a81548173ffffffffffffffffffffffffffffffffffffffff021916908373ffffffffffffffffffffffffffffffffffffffff16021790555086600460006101000a81548173ffffffffffffffffffffffffffffffffffffffff021916908373ffffffffffffffffffffffffffffffffffffffff16021790555085600560006101000a81548173ffffffffffffffffffffffffffffffffffffffff021916908373ffffffffffffffffffffffffffffffffffffffff1602179055508d600690805190602001906119e9929190612508565b508015611a0b5760008060016101000a81548160ff0219169083151502179055505b5050505050505050505050505050565b600080600360019054906101000a900473ffffffffffffffffffffffffffffffffffffffff1673ffffffffffffffffffffffffffffffffffffffff1663026b1d5f6040518163ffffffff1660e01b815260040160206040518083038186803b158015611a8657600080fd5b505afa158015611a9a573d6000803e3d6000fd5b505050506040513d601f19601f82011682018060405250810190611abe9190612f0f565b90508073ffffffffffffffffffffffffffffffffffffffff1663d15e0053846040518263ffffffff1660e01b8152600401611af991906125f0565b60206040518083038186803b158015611b1157600080fd5b505afa158015611b25573d6000803e3d6000fd5b505050506040513d601f19601f82011682018060405250810190611b499190612e61565b915050919050565b60003373ffffffffffffffffffffffffffffffffffffffff16600860009054906101000a900473ffffffffffffffffffffffffffffffffffffffff1673ffffffffffffffffffffffffffffffffffffffff1614611be3576040517f08c379a0000000000000000000000000000000000000000000000000000000008152600401611bda90612eda565b60405180910390fd5b6000611bee86611399565b905060008173ffffffffffffffffffffffffffffffffffffffff166370a08231306040518263ffffffff1660e01b8152600401611c2b91906125f0565b60206040518083038186803b158015611c4357600080fd5b505afa158015611c57573d6000803e3d6000fd5b505050506040513d601f19601f82011682018060405250810190611c7b9190612e61565b90506000600160008973ffffffffffffffffffffffffffffffffffffffff1673ffffffffffffffffffffffffffffffffffffffff1681526020019081526020016000205482611cca9190612f6b565b905080600260008a73ffffffffffffffffffffffffffffffffffffffff1673ffffffffffffffffffffffffffffffffffffffff1681526020019081526020016000206000828254611d1b91906131e0565b9250508190555060008190506000600360019054906101000a900473ffffffffffffffffffffffffffffffffffffffff1673ffffffffffffffffffffffffffffffffffffffff1663026b1d5f6040518163ffffffff1660e01b815260040160206040518083038186803b158015611d9157600080fd5b505afa158015611da5573d6000803e3d6000fd5b505050506040513d601f19601f82011682018060405250810190611dc99190612f0f565b905087611ffb576000871415611e90578073ffffffffffffffffffffffffffffffffffffffff166369328dec8b85600760009054906101000a900473ffffffffffffffffffffffffffffffffffffffff166040518463ffffffff1660e01b8152600401611e3893929190612f9f565b602060405180830381600087803b158015611e5257600080fd5b505af1158015611e66573d6000803e3d6000fd5b505050506040513d601f19601f82011682018060405250810190611e8a9190612e61565b50611ff6565b6000611e9c8489612403565b905060008185611eac9190612f6b565b90508273ffffffffffffffffffffffffffffffffffffffff166369328dec8d83600760009054906101000a900473ffffffffffffffffffffffffffffffffffffffff166040518463ffffffff1660e01b8152600401611f0d93929190612f9f565b602060405180830381600087803b158015611f2757600080fd5b505af1158015611f3b573d6000803e3d6000fd5b505050506040513d601f19601f82011682018060405250810190611f5f9190612e61565b508273ffffffffffffffffffffffffffffffffffffffff166369328dec8d848e6040518463ffffffff1660e01b8152600401611f9d93929190612f9f565b602060405180830381600087803b158015611fb757600080fd5b505af1158015611fcb573d6000803e3d6000fd5b505050506040513d601f19601f82011682018060405250810190611fef9190612e61565b5080935050505b6123e2565b8973ffffffffffffffffffffffffffffffffffffffff16600460009054906101000a900473ffffffffffffffffffffffffffffffffffffffff1673ffffffffffffffffffffffffffffffffffffffff1663affa88176040518163ffffffff1660e01b815260040160206040518083038186803b15801561207a57600080fd5b505afa15801561208e573d6000803e3d6000fd5b505050506040513d601f19601f820116820180604052508101906120b29190612f0f565b73ffffffffffffffffffffffffffffffffffffffff1614612108576040517f08c379a00000000000000000000000000000000000000000000000000000000081526004016120ff90613022565b60405180910390fd5b8473ffffffffffffffffffffffffffffffffffffffff1663095ea7b3600460009054906101000a900473ffffffffffffffffffffffffffffffffffffffff16856040518363ffffffff1660e01b8152600401612165929190613042565b602060405180830381600087803b15801561217f57600080fd5b505af1158015612193573d6000803e3d6000fd5b505050506040513d601f19601f820116820180604052508101906121b79190613080565b50600087141561227957600460009054906101000a900473ffffffffffffffffffffffffffffffffffffffff1673ffffffffffffffffffffffffffffffffffffffff166380500d208285600760009054906101000a900473ffffffffffffffffffffffffffffffffffffffff166040518463ffffffff1660e01b815260040161224293929190612f9f565b600060405180830381600087803b15801561225c57600080fd5b505af1158015612270573d6000803e3d6000fd5b505050506123e1565b60006122858489612403565b9050600081856122959190612f6b565b9050600460009054906101000a900473ffffffffffffffffffffffffffffffffffffffff1673ffffffffffffffffffffffffffffffffffffffff166380500d208483600760009054906101000a900473ffffffffffffffffffffffffffffffffffffffff166040518463ffffffff1660e01b815260040161231893929190612f9f565b600060405180830381600087803b15801561233257600080fd5b505af1158015612346573d6000803e3d6000fd5b50505050600460009054906101000a900473ffffffffffffffffffffffffffffffffffffffff1673ffffffffffffffffffffffffffffffffffffffff166380500d2084848e6040518463ffffffff1660e01b81526004016123a993929190612f9f565b600060405180830381600087803b1580156123c357600080fd5b505af11580156123d7573d6000803e3d6000fd5b5050505080935050505b5b8195505050505050949350505050565b60006123fd3061246f565b15905090565b6000806127108385612415919061369e565b61241f9190613727565b90506000811415612465576040517f08c379a000000000000000000000000000000000000000000000000000000000815260040161245c906137a4565b60405180910390fd5b8091505092915050565b600080823b905060008111915050919050565b82805461248e906130dc565b90600052602060002090601f0160209004810192826124b057600085556124f7565b82601f106124c957805160ff19168380011785556124f7565b828001600101855582156124f7579182015b828111156124f65782518255916020019190600101906124db565b5b5090506125049190612592565b5090565b828054828255906000526020600020908101928215612581579160200282015b828111156125805782518260006101000a81548173ffffffffffffffffffffffffffffffffffffffff021916908373ffffffffffffffffffffffffffffffffffffffff16021790555091602001919060010190612528565b5b50905061258e9190612592565b5090565b5b808211156125ab576000816000905550600101612593565b5090565b600073ffffffffffffffffffffffffffffffffffffffff82169050919050565b60006125da826125af565b9050919050565b6125ea816125cf565b82525050565b600060208201905061260560008301846125e1565b92915050565b6000604051905090565b600080fd5b600080fd5b612628816125cf565b811461263357600080fd5b50565b6000813590506126458161261f565b92915050565b60006020828403121561266157612660612615565b5b600061266f84828501612636565b91505092915050565b6000819050919050565b61268b81612678565b82525050565b60006020820190506126a66000830184612682565b92915050565b6126b581612678565b81146126c057600080fd5b50565b6000813590506126d2816126ac565b92915050565b60008115159050919050565b6126ed816126d8565b81146126f857600080fd5b50565b60008135905061270a816126e4565b92915050565b6000806000806080858703121561272a57612729612615565b5b600061273887828801612636565b9450506020612749878288016126c3565b935050604061275a87828801612636565b925050606061276b878288016126fb565b91505092959194509250565b600081519050919050565b600082825260208201905092915050565b60005b838110156127b1578082015181840152602081019050612796565b838111156127c0576000848401525b50505050565b6000601f19601f8301169050919050565b60006127e282612777565b6127ec8185612782565b93506127fc818560208601612793565b612805816127c6565b840191505092915050565b6000602082019050818103600083015261282a81846127d7565b905092915050565b600081519050919050565b600082825260208201905092915050565b6000819050602082019050919050565b612867816125cf565b82525050565b6000612879838361285e565b60208301905092915050565b6000602082019050919050565b600061289d82612832565b6128a7818561283d565b93506128b28361284e565b8060005b838110156128e35781516128ca888261286d565b97506128d583612885565b9250506001810190506128b6565b5085935050505092915050565b6000602082019050818103600083015261290a8184612892565b905092915050565b61291b816126d8565b82525050565b60006020820190506129366000830184612912565b92915050565b6000806040838503121561295357612952612615565b5b600061296185828601612636565b9250506020612972858286016126c3565b9150509250929050565b600060e0820190508181036000830152612996818a612892565b90506129a560208301896125e1565b6129b26040830188612912565b81810360608301526129c481876127d7565b905081810360808301526129d881866127d7565b905081810360a08301526129ec81856127d7565b905081810360c0830152612a0081846127d7565b905098975050505050505050565b600060e082019050612a23600083018a612682565b612a306020830189612682565b612a3d6040830188612682565b612a4a6060830187612682565b612a576080830186612682565b612a6460a0830185612682565b612a7160c08301846125e1565b98975050505050505050565b600080fd5b7f4e487b7100000000000000000000000000000000000000000000000000000000600052604160045260246000fd5b612aba826127c6565b810181811067ffffffffffffffff82111715612ad957612ad8612a82565b5b80604052505050565b6000612aec61260b565b9050612af88282612ab1565b919050565b600067ffffffffffffffff821115612b1857612b17612a82565b5b602082029050602081019050919050565b600080fd5b6000612b41612b3c84612afd565b612ae2565b90508083825260208201905060208402830185811115612b6457612b63612b29565b5b835b81811015612b8d5780612b798882612636565b845260208401935050602081019050612b66565b5050509392505050565b600082601f830112612bac57612bab612a7d565b5b8135612bbc848260208601612b2e565b91505092915050565b600080fd5b600067ffffffffffffffff821115612be557612be4612a82565b5b612bee826127c6565b9050602081019050919050565b82818337600083830152505050565b6000612c1d612c1884612bca565b612ae2565b905082815260208101848484011115612c3957612c38612bc5565b5b612c44848285612bfb565b509392505050565b600082601f830112612c6157612c60612a7d565b5b8135612c71848260208601612c0a565b91505092915050565b6000806000806000806000806000806101408b8d031215612c9e57612c9d612615565b5b60008b013567ffffffffffffffff811115612cbc57612cbb61261a565b5b612cc88d828e01612b97565b9a505060208b013567ffffffffffffffff811115612ce957612ce861261a565b5b612cf58d828e01612c4c565b99505060408b013567ffffffffffffffff811115612d1657612d1561261a565b5b612d228d828e01612c4c565b98505060608b013567ffffffffffffffff811115612d4357612d4261261a565b5b612d4f8d828e01612c4c565b97505060808b013567ffffffffffffffff811115612d7057612d6f61261a565b5b612d7c8d828e01612c4c565b96505060a0612d8d8d828e01612636565b95505060c0612d9e8d828e01612636565b94505060e0612daf8d828e01612636565b935050610100612dc18d828e01612636565b925050610120612dd38d828e016126fb565b9150509295989b9194979a5092959850565b60008060008060808587031215612dff57612dfe612615565b5b6000612e0d87828801612636565b9450506020612e1e87828801612636565b9350506040612e2f878288016126fb565b9250506060612e40878288016126c3565b91505092959194509250565b600081519050612e5b816126ac565b92915050565b600060208284031215612e7757612e76612615565b5b6000612e8584828501612e4c565b91505092915050565b7f6e6f7420746865206f776e657200000000000000000000000000000000000000600082015250565b6000612ec4600d83612782565b9150612ecf82612e8e565b602082019050919050565b60006020820190508181036000830152612ef381612eb7565b9050919050565b600081519050612f098161261f565b92915050565b600060208284031215612f2557612f24612615565b5b6000612f3384828501612efa565b91505092915050565b7f4e487b7100000000000000000000000000000000000000000000000000000000600052601160045260246000fd5b6000612f7682612678565b9150612f8183612678565b925082821015612f9457612f93612f3c565b5b828203905092915050565b6000606082019050612fb460008301866125e1565b612fc16020830185612682565b612fce60408301846125e1565b949350505050565b7f617373657420646f6573206e6f74206d61746368205745544847617465776179600082015250565b600061300c602083612782565b915061301782612fd6565b602082019050919050565b6000602082019050818103600083015261303b81612fff565b9050919050565b600060408201905061305760008301856125e1565b6130646020830184612682565b9392505050565b60008151905061307a816126e4565b92915050565b60006020828403121561309657613095612615565b5b60006130a48482850161306b565b91505092915050565b7f4e487b7100000000000000000000000000000000000000000000000000000000600052602260045260246000fd5b600060028204905060018216806130f457607f821691505b60208210811415613108576131076130ad565b5b50919050565b7f4e487b7100000000000000000000000000000000000000000000000000000000600052603260045260246000fd5b600060ff82169050919050565b60006131558261313d565b915060ff82141561316957613168612f3c565b5b600182019050919050565b7f746f6b656e206e6f74206163636570746564206279206a63706f6f6c00000000600082015250565b60006131aa601c83612782565b91506131b582613174565b602082019050919050565b600060208201905081810360008301526131d98161319d565b9050919050565b60006131eb82612678565b91506131f683612678565b9250827fffffffffffffffffffffffffffffffffffffffffffffffffffffffffffffffff0382111561322b5761322a612f3c565b5b828201905092915050565b600080fd5b60006020828403121561325157613250613236565b5b61325b6020612ae2565b9050600061326b84828501612e4c565b60008301525092915050565b60006fffffffffffffffffffffffffffffffff82169050919050565b61329c81613277565b81146132a757600080fd5b50565b6000815190506132b981613293565b92915050565b600064ffffffffff82169050919050565b6132d9816132bf565b81146132e457600080fd5b50565b6000815190506132f6816132d0565b92915050565b600061ffff82169050919050565b613313816132fc565b811461331e57600080fd5b50565b6000815190506133308161330a565b92915050565b60006101e0828403121561334d5761334c613236565b5b6133586101e0612ae2565b905060006133688482850161323b565b600083015250602061337c848285016132aa565b6020830152506040613390848285016132aa565b60408301525060606133a4848285016132aa565b60608301525060806133b8848285016132aa565b60808301525060a06133cc848285016132aa565b60a08301525060c06133e0848285016132e7565b60c08301525060e06133f484828501613321565b60e08301525061010061340984828501612efa565b6101008301525061012061341f84828501612efa565b6101208301525061014061343584828501612efa565b6101408301525061016061344b84828501612efa565b61016083015250610180613461848285016132aa565b610180830152506101a0613477848285016132aa565b6101a0830152506101c061348d848285016132aa565b6101c08301525092915050565b60006101e082840312156134b1576134b0612615565b5b60006134bf84828501613336565b91505092915050565b7f737472696e67206f76657220636861726163746572206c696d69740000000000600082015250565b60006134fe601b83612782565b9150613509826134c8565b602082019050919050565b6000602082019050818103600083015261352d816134f1565b9050919050565b7f496e697469616c697a61626c653a20636f6e747261637420697320616c72656160008201527f647920696e697469616c697a6564000000000000000000000000000000000000602082015250565b6000613590602e83612782565b915061359b82613534565b604082019050919050565b600060208201905081810360008301526135bf81613583565b9050919050565b7f43616e6e6f7420696e697469616c697a65206261736500000000000000000000600082015250565b60006135fc601683612782565b9150613607826135c6565b602082019050919050565b6000602082019050818103600083015261362b816135ef565b9050919050565b7f496e697469616c697a6520616c72656164792063616c6c656400000000000000600082015250565b6000613668601983612782565b915061367382613632565b602082019050919050565b600060208201905081810360008301526136978161365b565b9050919050565b60006136a982612678565b91506136b483612678565b9250817fffffffffffffffffffffffffffffffffffffffffffffffffffffffffffffffff04831182151516156136ed576136ec612f3c565b5b828202905092915050565b7f4e487b7100000000000000000000000000000000000000000000000000000000600052601260045260246000fd5b600061373282612678565b915061373d83612678565b92508261374d5761374c6136f8565b5b828204905092915050565b7f6e6f7420656e6f7567682066756e647320746f20636c61696d00000000000000600082015250565b600061378e601983612782565b915061379982613758565b602082019050919050565b600060208201905081810360008301526137bd81613781565b905091905056fea2646970667358221220b4ff1ec0484a5df46b9c58db52fd5909116c5319a7e8a9616bb2e287dfa8ad2a64736f6c63430008090033608060405234801561001057600080fd5b50613e0f806100206000396000f3fe608060405234801561001057600080fd5b506004361061012c5760003560e01c8063519dc8d2116100ad578063a22cb46511610071578063a22cb4651461037b578063b88d4fde14610397578063c4d66de8146103b3578063c87b56dd146103cf578063e985e9c5146103ff5761012c565b8063519dc8d21461029d5780635328c2bf146102cd5780636352211e146102fd57806370a082311461032d57806395d89b411461035d5761012c565b806323b872dd116100f457806323b872dd146101e957806326a45ffb146102055780632e0c3f3c1461023557806342842e0e1461026557806347c6b45e146102815761012c565b806301ffc9a714610131578063026b1d5f1461016157806306fdde031461017f578063081812fc1461019d578063095ea7b3146101cd575b600080fd5b61014b600480360381019061014691906124ab565b61042f565b60405161015891906124f3565b60405180910390f35b610169610511565b604051610176919061254f565b60405180910390f35b61018761053b565b6040516101949190612603565b60405180910390f35b6101b760048036038101906101b2919061265b565b6105cd565b6040516101c4919061254f565b60405180910390f35b6101e760048036038101906101e291906126b4565b610652565b005b61020360048036038101906101fe91906126f4565b61076a565b005b61021f600480360381019061021a919061287c565b6107ca565b60405161022c91906124f3565b60405180910390f35b61024f600480360381019061024a919061265b565b6109d6565b60405161025c9190612922565b60405180910390f35b61027f600480360381019061027a91906126f4565b6109f6565b005b61029b6004803603810190610296919061293d565b610a16565b005b6102b760048036038101906102b29190612990565b610bf6565b6040516102c49190612a7b565b60405180910390f35b6102e760048036038101906102e2919061265b565b610dbc565b6040516102f49190612aee565b60405180910390f35b6103176004803603810190610312919061265b565b610e53565b604051610324919061254f565b60405180910390f35b61034760048036038101906103429190612990565b610f05565b6040516103549190612922565b60405180910390f35b610365610fbd565b6040516103729190612603565b60405180910390f35b61039560048036038101906103909190612b35565b61104f565b005b6103b160048036038101906103ac9190612c16565b611065565b005b6103cd60048036038101906103c89190612990565b6110c7565b005b6103e960048036038101906103e4919061265b565b61124a565b6040516103f69190612603565b60405180910390f35b61041960048036038101906104149190612c99565b61125c565b60405161042691906124f3565b60405180910390f35b60007f80ac58cd000000000000000000000000000000000000000000000000000000007bffffffffffffffffffffffffffffffffffffffffffffffffffffffff1916827bffffffffffffffffffffffffffffffffffffffffffffffffffffffff191614806104fa57507f5b5e139f000000000000000000000000000000000000000000000000000000007bffffffffffffffffffffffffffffffffffffffffffffffffffffffff1916827bffffffffffffffffffffffffffffffffffffffffffffffffffffffff1916145b8061050a5750610509826112f0565b5b9050919050565b600060c960009054906101000a900473ffffffffffffffffffffffffffffffffffffffff16905090565b60606065805461054a90612d08565b80601f016020809104026020016040519081016040528092919081815260200182805461057690612d08565b80156105c35780601f10610598576101008083540402835291602001916105c3565b820191906000526020600020905b8154815290600101906020018083116105a657829003601f168201915b5050505050905090565b60006105d88261135a565b610617576040517f08c379a000000000000000000000000000000000000000000000000000000000815260040161060e90612dac565b60405180910390fd5b6069600083815260200190815260200160002060009054906101000a900473ffffffffffffffffffffffffffffffffffffffff169050919050565b600061065d82610e53565b90508073ffffffffffffffffffffffffffffffffffffffff168373ffffffffffffffffffffffffffffffffffffffff1614156106ce576040517f08c379a00000000000000000000000000000000000000000000000000000000081526004016106c590612e3e565b60405180910390fd5b8073ffffffffffffffffffffffffffffffffffffffff166106ed6113c6565b73ffffffffffffffffffffffffffffffffffffffff16148061071c575061071b816107166113c6565b61125c565b5b61075b576040517f08c379a000000000000000000000000000000000000000000000000000000000815260040161075290612ed0565b60405180910390fd5b61076583836113ce565b505050565b61077b6107756113c6565b82611487565b6107ba576040517f08c379a00000000000000000000000000000000000000000000000000000000081526004016107b190612f62565b60405180910390fd5b6107c5838383611565565b505050565b60003373ffffffffffffffffffffffffffffffffffffffff1660ca60009054906101000a900473ffffffffffffffffffffffffffffffffffffffff1673ffffffffffffffffffffffffffffffffffffffff161461085c576040517f08c379a000000000000000000000000000000000000000000000000000000000815260040161085390612fce565b60405180910390fd5b60008660c960009054906101000a900473ffffffffffffffffffffffffffffffffffffffff168560405160200161089593929190613036565b6040516020818303038152906040528051906020012060001c905060006108bb8261135a565b1561090d578560cb6000848152602001908152602001600020600101819055508660cb6000848152602001908152602001600020600001600082825461090191906130a2565b925050819055506109c8565b60405180606001604052808881526020018781526020018673ffffffffffffffffffffffffffffffffffffffff1681525060cb6000848152602001908152602001600020600082015181600001556020820151816001015560408201518160020160006101000a81548173ffffffffffffffffffffffffffffffffffffffff021916908373ffffffffffffffffffffffffffffffffffffffff1602179055509050506109b988836117cc565b6109c382856119a6565b600190505b809250505095945050505050565b600060cb6000838152602001908152602001600020600001549050919050565b610a1183838360405180602001604052806000815250611065565b505050565b3373ffffffffffffffffffffffffffffffffffffffff1660ca60009054906101000a900473ffffffffffffffffffffffffffffffffffffffff1673ffffffffffffffffffffffffffffffffffffffff1614610aa6576040517f08c379a0000000000000000000000000000000000000000000000000000000008152600401610a9d90612fce565b60405180910390fd5b60008360c960009054906101000a900473ffffffffffffffffffffffffffffffffffffffff1683604051602001610adf93929190613036565b6040516020818303038152906040528051906020012060001c9050610b038161135a565b610b42576040517f08c379a0000000000000000000000000000000000000000000000000000000008152600401610b3990613144565b60405180910390fd5b600060cb600083815260200190815260200160002060000154905083811015610ba0576040517f08c379a0000000000000000000000000000000000000000000000000000000008152600401610b97906131b0565b60405180910390fd5b8381610bac91906131d0565b90506000811415610bd457600060cb6000848152602001908152602001600020600101819055505b8060cb6000848152602001908152602001600020600001819055505050505050565b6060600060c960009054906101000a900473ffffffffffffffffffffffffffffffffffffffff1673ffffffffffffffffffffffffffffffffffffffff16632f7570066040518163ffffffff1660e01b815260040160006040518083038186803b158015610c6257600080fd5b505afa158015610c76573d6000803e3d6000fd5b505050506040513d6000823e3d601f19601f82011682018060405250810190610c9f91906132e1565b905060008151905060008167ffffffffffffffff811115610cc357610cc2612751565b5b604051908082528060200260200182016040528015610cf15781602001602082028036833780820191505090505b50905060005b82811015610db05760008660c960009054906101000a900473ffffffffffffffffffffffffffffffffffffffff16868481518110610d3857610d3761332a565b5b6020026020010151604051602001610d5293929190613036565b6040516020818303038152906040528051906020012060001c9050610d768161135a565b15610d9c5780838381518110610d8f57610d8e61332a565b5b6020026020010181815250505b508080610da890613359565b915050610cf7565b50809350505050919050565b610dc4612365565b60cb600083815260200190815260200160002060405180606001604052908160008201548152602001600182015481526020016002820160009054906101000a900473ffffffffffffffffffffffffffffffffffffffff1673ffffffffffffffffffffffffffffffffffffffff1673ffffffffffffffffffffffffffffffffffffffff16815250509050919050565b6000806067600084815260200190815260200160002060009054906101000a900473ffffffffffffffffffffffffffffffffffffffff169050600073ffffffffffffffffffffffffffffffffffffffff168173ffffffffffffffffffffffffffffffffffffffff161415610efc576040517f08c379a0000000000000000000000000000000000000000000000000000000008152600401610ef390613414565b60405180910390fd5b80915050919050565b60008073ffffffffffffffffffffffffffffffffffffffff168273ffffffffffffffffffffffffffffffffffffffff161415610f76576040517f08c379a0000000000000000000000000000000000000000000000000000000008152600401610f6d906134a6565b60405180910390fd5b606860008373ffffffffffffffffffffffffffffffffffffffff1673ffffffffffffffffffffffffffffffffffffffff168152602001908152602001600020549050919050565b606060668054610fcc90612d08565b80601f0160208091040260200160405190810160405280929190818152602001828054610ff890612d08565b80156110455780601f1061101a57610100808354040283529160200191611045565b820191906000526020600020905b81548152906001019060200180831161102857829003601f168201915b5050505050905090565b61106161105a6113c6565b8383611a1a565b5050565b6110766110706113c6565b83611487565b6110b5576040517f08c379a00000000000000000000000000000000000000000000000000000000081526004016110ac90612f62565b60405180910390fd5b6110c184848484611b87565b50505050565b60006110d36001611be3565b905080156110f7576001600060016101000a81548160ff0219169083151502179055505b61116b6040518060400160405280601581526020017f4a435020436f6e7472696275746f7220546f6b656e00000000000000000000008152506040518060400160405280600481526020017f4a43504300000000000000000000000000000000000000000000000000000000815250611cd3565b8160c960006101000a81548173ffffffffffffffffffffffffffffffffffffffff021916908373ffffffffffffffffffffffffffffffffffffffff1602179055503360ca60006101000a81548173ffffffffffffffffffffffffffffffffffffffff021916908373ffffffffffffffffffffffffffffffffffffffff16021790555080156112465760008060016101000a81548160ff0219169083151502179055507f7f26b83ff96e1f2b6a682f133852f6798a09c465da95921460cefb3847402498600160405161123d9190613518565b60405180910390a15b5050565b606061125582611d30565b9050919050565b6000606a60008473ffffffffffffffffffffffffffffffffffffffff1673ffffffffffffffffffffffffffffffffffffffff16815260200190815260200160002060008373ffffffffffffffffffffffffffffffffffffffff1673ffffffffffffffffffffffffffffffffffffffff16815260200190815260200160002060009054906101000a900460ff16905092915050565b60007f01ffc9a7000000000000000000000000000000000000000000000000000000007bffffffffffffffffffffffffffffffffffffffffffffffffffffffff1916827bffffffffffffffffffffffffffffffffffffffffffffffffffffffff1916149050919050565b60008073ffffffffffffffffffffffffffffffffffffffff166067600084815260200190815260200160002060009054906101000a900473ffffffffffffffffffffffffffffffffffffffff1673ffffffffffffffffffffffffffffffffffffffff1614159050919050565b600033905090565b816069600083815260200190815260200160002060006101000a81548173ffffffffffffffffffffffffffffffffffffffff021916908373ffffffffffffffffffffffffffffffffffffffff160217905550808273ffffffffffffffffffffffffffffffffffffffff1661144183610e53565b73ffffffffffffffffffffffffffffffffffffffff167f8c5be1e5ebec7d5bd14f71427d1e84f3dd0314c0f7b2291e5b200ac8c7c3b92560405160405180910390a45050565b60006114928261135a565b6114d1576040517f08c379a00000000000000000000000000000000000000000000000000000000081526004016114c8906135a5565b60405180910390fd5b60006114dc83610e53565b90508073ffffffffffffffffffffffffffffffffffffffff168473ffffffffffffffffffffffffffffffffffffffff16148061151e575061151d818561125c565b5b8061155c57508373ffffffffffffffffffffffffffffffffffffffff16611544846105cd565b73ffffffffffffffffffffffffffffffffffffffff16145b91505092915050565b8273ffffffffffffffffffffffffffffffffffffffff1661158582610e53565b73ffffffffffffffffffffffffffffffffffffffff16146115db576040517f08c379a00000000000000000000000000000000000000000000000000000000081526004016115d290613637565b60405180910390fd5b600073ffffffffffffffffffffffffffffffffffffffff168273ffffffffffffffffffffffffffffffffffffffff16141561164b576040517f08c379a0000000000000000000000000000000000000000000000000000000008152600401611642906136c9565b60405180910390fd5b611656838383611e82565b6116616000826113ce565b6001606860008573ffffffffffffffffffffffffffffffffffffffff1673ffffffffffffffffffffffffffffffffffffffff16815260200190815260200160002060008282546116b191906131d0565b925050819055506001606860008473ffffffffffffffffffffffffffffffffffffffff1673ffffffffffffffffffffffffffffffffffffffff168152602001908152602001600020600082825461170891906130a2565b92505081905550816067600083815260200190815260200160002060006101000a81548173ffffffffffffffffffffffffffffffffffffffff021916908373ffffffffffffffffffffffffffffffffffffffff160217905550808273ffffffffffffffffffffffffffffffffffffffff168473ffffffffffffffffffffffffffffffffffffffff167fddf252ad1be2c89b69c2b068fc378daa952ba7f163c4a11628f55a4df523b3ef60405160405180910390a46117c7838383611f01565b505050565b600073ffffffffffffffffffffffffffffffffffffffff168273ffffffffffffffffffffffffffffffffffffffff16141561183c576040517f08c379a000000000000000000000000000000000000000000000000000000000815260040161183390613735565b60405180910390fd5b6118458161135a565b15611885576040517f08c379a000000000000000000000000000000000000000000000000000000000815260040161187c906137a1565b60405180910390fd5b61189160008383611e82565b6001606860008473ffffffffffffffffffffffffffffffffffffffff1673ffffffffffffffffffffffffffffffffffffffff16815260200190815260200160002060008282546118e191906130a2565b92505081905550816067600083815260200190815260200160002060006101000a81548173ffffffffffffffffffffffffffffffffffffffff021916908373ffffffffffffffffffffffffffffffffffffffff160217905550808273ffffffffffffffffffffffffffffffffffffffff16600073ffffffffffffffffffffffffffffffffffffffff167fddf252ad1be2c89b69c2b068fc378daa952ba7f163c4a11628f55a4df523b3ef60405160405180910390a46119a260008383611f01565b5050565b6119af8261135a565b6119ee576040517f08c379a00000000000000000000000000000000000000000000000000000000081526004016119e590613833565b60405180910390fd5b80609760008481526020019081526020016000209080519060200190611a1592919061239c565b505050565b8173ffffffffffffffffffffffffffffffffffffffff168373ffffffffffffffffffffffffffffffffffffffff161415611a89576040517f08c379a0000000000000000000000000000000000000000000000000000000008152600401611a809061389f565b60405180910390fd5b80606a60008573ffffffffffffffffffffffffffffffffffffffff1673ffffffffffffffffffffffffffffffffffffffff16815260200190815260200160002060008473ffffffffffffffffffffffffffffffffffffffff1673ffffffffffffffffffffffffffffffffffffffff16815260200190815260200160002060006101000a81548160ff0219169083151502179055508173ffffffffffffffffffffffffffffffffffffffff168373ffffffffffffffffffffffffffffffffffffffff167f17307eab39ab6107e8899845ad3d59bd9653f200f220920489ca2b5937696c3183604051611b7a91906124f3565b60405180910390a3505050565b611b92848484611565565b611b9e84848484611f06565b611bdd576040517f08c379a0000000000000000000000000000000000000000000000000000000008152600401611bd490613931565b60405180910390fd5b50505050565b60008060019054906101000a900460ff1615611c5a5760018260ff16148015611c125750611c103061209d565b155b611c51576040517f08c379a0000000000000000000000000000000000000000000000000000000008152600401611c48906139c3565b60405180910390fd5b60009050611cce565b8160ff1660008054906101000a900460ff1660ff1610611caf576040517f08c379a0000000000000000000000000000000000000000000000000000000008152600401611ca6906139c3565b60405180910390fd5b816000806101000a81548160ff021916908360ff160217905550600190505b919050565b600060019054906101000a900460ff16611d22576040517f08c379a0000000000000000000000000000000000000000000000000000000008152600401611d1990613a55565b60405180910390fd5b611d2c82826120c0565b5050565b6060611d3b8261135a565b611d7a576040517f08c379a0000000000000000000000000000000000000000000000000000000008152600401611d7190613ae7565b60405180910390fd5b6000609760008481526020019081526020016000208054611d9a90612d08565b80601f0160208091040260200160405190810160405280929190818152602001828054611dc690612d08565b8015611e135780601f10611de857610100808354040283529160200191611e13565b820191906000526020600020905b815481529060010190602001808311611df657829003601f168201915b505050505090506000611e24612141565b9050600081511415611e3a578192505050611e7d565b600082511115611e6f578082604051602001611e57929190613b43565b60405160208183030381529060405292505050611e7d565b611e7884612158565b925050505b919050565b600073ffffffffffffffffffffffffffffffffffffffff168373ffffffffffffffffffffffffffffffffffffffff1614611ef1576040517f08c379a0000000000000000000000000000000000000000000000000000000008152600401611ee890613bb3565b60405180910390fd5b611efc8383836121ff565b505050565b505050565b6000611f278473ffffffffffffffffffffffffffffffffffffffff1661209d565b15612090578373ffffffffffffffffffffffffffffffffffffffff1663150b7a02611f506113c6565b8786866040518563ffffffff1660e01b8152600401611f729493929190613c28565b602060405180830381600087803b158015611f8c57600080fd5b505af1925050508015611fbd57506040513d601f19601f82011682018060405250810190611fba9190613c89565b60015b612040573d8060008114611fed576040519150601f19603f3d011682016040523d82523d6000602084013e611ff2565b606091505b50600081511415612038576040517f08c379a000000000000000000000000000000000000000000000000000000000815260040161202f90613931565b60405180910390fd5b805181602001fd5b63150b7a0260e01b7bffffffffffffffffffffffffffffffffffffffffffffffffffffffff1916817bffffffffffffffffffffffffffffffffffffffffffffffffffffffff191614915050612095565b600190505b949350505050565b6000808273ffffffffffffffffffffffffffffffffffffffff163b119050919050565b600060019054906101000a900460ff1661210f576040517f08c379a000000000000000000000000000000000000000000000000000000000815260040161210690613a55565b60405180910390fd5b816065908051906020019061212592919061239c565b50806066908051906020019061213c92919061239c565b505050565b606060405180602001604052806000815250905090565b60606121638261135a565b6121a2576040517f08c379a000000000000000000000000000000000000000000000000000000000815260040161219990613d28565b60405180910390fd5b60006121ac612141565b905060008151116121cc57604051806020016040528060008152506121f7565b806121d684612204565b6040516020016121e7929190613b43565b6040516020818303038152906040525b915050919050565b505050565b6060600082141561224c576040518060400160405280600181526020017f30000000000000000000000000000000000000000000000000000000000000008152509050612360565b600082905060005b6000821461227e57808061226790613359565b915050600a826122779190613d77565b9150612254565b60008167ffffffffffffffff81111561229a57612299612751565b5b6040519080825280601f01601f1916602001820160405280156122cc5781602001600182028036833780820191505090505b5090505b60008514612359576001826122e591906131d0565b9150600a856122f49190613da8565b603061230091906130a2565b60f81b8183815181106123165761231561332a565b5b60200101907effffffffffffffffffffffffffffffffffffffffffffffffffffffffffffff1916908160001a905350600a856123529190613d77565b94506122d0565b8093505050505b919050565b60405180606001604052806000815260200160008152602001600073ffffffffffffffffffffffffffffffffffffffff1681525090565b8280546123a890612d08565b90600052602060002090601f0160209004810192826123ca5760008555612411565b82601f106123e357805160ff1916838001178555612411565b82800160010185558215612411579182015b828111156124105782518255916020019190600101906123f5565b5b50905061241e9190612422565b5090565b5b8082111561243b576000816000905550600101612423565b5090565b6000604051905090565b600080fd5b600080fd5b60007fffffffff0000000000000000000000000000000000000000000000000000000082169050919050565b61248881612453565b811461249357600080fd5b50565b6000813590506124a58161247f565b92915050565b6000602082840312156124c1576124c0612449565b5b60006124cf84828501612496565b91505092915050565b60008115159050919050565b6124ed816124d8565b82525050565b600060208201905061250860008301846124e4565b92915050565b600073ffffffffffffffffffffffffffffffffffffffff82169050919050565b60006125398261250e565b9050919050565b6125498161252e565b82525050565b60006020820190506125646000830184612540565b92915050565b600081519050919050565b600082825260208201905092915050565b60005b838110156125a4578082015181840152602081019050612589565b838111156125b3576000848401525b50505050565b6000601f19601f8301169050919050565b60006125d58261256a565b6125df8185612575565b93506125ef818560208601612586565b6125f8816125b9565b840191505092915050565b6000602082019050818103600083015261261d81846125ca565b905092915050565b6000819050919050565b61263881612625565b811461264357600080fd5b50565b6000813590506126558161262f565b92915050565b60006020828403121561267157612670612449565b5b600061267f84828501612646565b91505092915050565b6126918161252e565b811461269c57600080fd5b50565b6000813590506126ae81612688565b92915050565b600080604083850312156126cb576126ca612449565b5b60006126d98582860161269f565b92505060206126ea85828601612646565b9150509250929050565b60008060006060848603121561270d5761270c612449565b5b600061271b8682870161269f565b935050602061272c8682870161269f565b925050604061273d86828701612646565b9150509250925092565b600080fd5b600080fd5b7f4e487b7100000000000000000000000000000000000000000000000000000000600052604160045260246000fd5b612789826125b9565b810181811067ffffffffffffffff821117156127a8576127a7612751565b5b80604052505050565b60006127bb61243f565b90506127c78282612780565b919050565b600067ffffffffffffffff8211156127e7576127e6612751565b5b6127f0826125b9565b9050602081019050919050565b82818337600083830152505050565b600061281f61281a846127cc565b6127b1565b90508281526020810184848401111561283b5761283a61274c565b5b6128468482856127fd565b509392505050565b600082601f83011261286357612862612747565b5b813561287384826020860161280c565b91505092915050565b600080600080600060a0868803121561289857612897612449565b5b60006128a68882890161269f565b95505060206128b788828901612646565b94505060406128c888828901612646565b93505060606128d98882890161269f565b925050608086013567ffffffffffffffff8111156128fa576128f961244e565b5b6129068882890161284e565b9150509295509295909350565b61291c81612625565b82525050565b60006020820190506129376000830184612913565b92915050565b60008060006060848603121561295657612955612449565b5b60006129648682870161269f565b935050602061297586828701612646565b92505060406129868682870161269f565b9150509250925092565b6000602082840312156129a6576129a5612449565b5b60006129b48482850161269f565b91505092915050565b600081519050919050565b600082825260208201905092915050565b6000819050602082019050919050565b6129f281612625565b82525050565b6000612a0483836129e9565b60208301905092915050565b6000602082019050919050565b6000612a28826129bd565b612a3281856129c8565b9350612a3d836129d9565b8060005b83811015612a6e578151612a5588826129f8565b9750612a6083612a10565b925050600181019050612a41565b5085935050505092915050565b60006020820190508181036000830152612a958184612a1d565b905092915050565b612aa68161252e565b82525050565b606082016000820151612ac260008501826129e9565b506020820151612ad560208501826129e9565b506040820151612ae86040850182612a9d565b50505050565b6000606082019050612b036000830184612aac565b92915050565b612b12816124d8565b8114612b1d57600080fd5b50565b600081359050612b2f81612b09565b92915050565b60008060408385031215612b4c57612b4b612449565b5b6000612b5a8582860161269f565b9250506020612b6b85828601612b20565b9150509250929050565b600067ffffffffffffffff821115612b9057612b8f612751565b5b612b99826125b9565b9050602081019050919050565b6000612bb9612bb484612b75565b6127b1565b905082815260208101848484011115612bd557612bd461274c565b5b612be08482856127fd565b509392505050565b600082601f830112612bfd57612bfc612747565b5b8135612c0d848260208601612ba6565b91505092915050565b60008060008060808587031215612c3057612c2f612449565b5b6000612c3e8782880161269f565b9450506020612c4f8782880161269f565b9350506040612c6087828801612646565b925050606085013567ffffffffffffffff811115612c8157612c8061244e565b5b612c8d87828801612be8565b91505092959194509250565b60008060408385031215612cb057612caf612449565b5b6000612cbe8582860161269f565b9250506020612ccf8582860161269f565b9150509250929050565b7f4e487b7100000000000000000000000000000000000000000000000000000000600052602260045260246000fd5b60006002820490506001821680612d2057607f821691505b60208210811415612d3457612d33612cd9565b5b50919050565b7f4552433732313a20617070726f76656420717565727920666f72206e6f6e657860008201527f697374656e7420746f6b656e0000000000000000000000000000000000000000602082015250565b6000612d96602c83612575565b9150612da182612d3a565b604082019050919050565b60006020820190508181036000830152612dc581612d89565b9050919050565b7f4552433732313a20617070726f76616c20746f2063757272656e74206f776e6560008201527f7200000000000000000000000000000000000000000000000000000000000000602082015250565b6000612e28602183612575565b9150612e3382612dcc565b604082019050919050565b60006020820190508181036000830152612e5781612e1b565b9050919050565b7f4552433732313a20617070726f76652063616c6c6572206973206e6f74206f7760008201527f6e6572206e6f7220617070726f76656420666f7220616c6c0000000000000000602082015250565b6000612eba603883612575565b9150612ec582612e5e565b604082019050919050565b60006020820190508181036000830152612ee981612ead565b9050919050565b7f4552433732313a207472616e736665722063616c6c6572206973206e6f74206f60008201527f776e6572206e6f7220617070726f766564000000000000000000000000000000602082015250565b6000612f4c603183612575565b9150612f5782612ef0565b604082019050919050565b60006020820190508181036000830152612f7b81612f3f565b9050919050565b7f6e6f7420746865206f776e657200000000000000000000000000000000000000600082015250565b6000612fb8600d83612575565b9150612fc382612f82565b602082019050919050565b60006020820190508181036000830152612fe781612fab565b9050919050565b60008160601b9050919050565b600061300682612fee565b9050919050565b600061301882612ffb565b9050919050565b61303061302b8261252e565b61300d565b82525050565b6000613042828661301f565b601482019150613052828561301f565b601482019150613062828461301f565b601482019150819050949350505050565b7f4e487b7100000000000000000000000000000000000000000000000000000000600052601160045260246000fd5b60006130ad82612625565b91506130b883612625565b9250827fffffffffffffffffffffffffffffffffffffffffffffffffffffffffffffffff038211156130ed576130ec613073565b5b828201905092915050565b7f746f6b656e496420646f65736e27742065786973740000000000000000000000600082015250565b600061312e601583612575565b9150613139826130f8565b602082019050919050565b6000602082019050818103600083015261315d81613121565b9050919050565b7f696e73756666696369656e742062616c616e6365000000000000000000000000600082015250565b600061319a601483612575565b91506131a582613164565b602082019050919050565b600060208201905081810360008301526131c98161318d565b9050919050565b60006131db82612625565b91506131e683612625565b9250828210156131f9576131f8613073565b5b828203905092915050565b600067ffffffffffffffff82111561321f5761321e612751565b5b602082029050602081019050919050565b600080fd5b60008151905061324481612688565b92915050565b600061325d61325884613204565b6127b1565b905080838252602082019050602084028301858111156132805761327f613230565b5b835b818110156132a957806132958882613235565b845260208401935050602081019050613282565b5050509392505050565b600082601f8301126132c8576132c7612747565b5b81516132d884826020860161324a565b91505092915050565b6000602082840312156132f7576132f6612449565b5b600082015167ffffffffffffffff8111156133155761331461244e565b5b613321848285016132b3565b91505092915050565b7f4e487b7100000000000000000000000000000000000000000000000000000000600052603260045260246000fd5b600061336482612625565b91507fffffffffffffffffffffffffffffffffffffffffffffffffffffffffffffffff82141561339757613396613073565b5b600182019050919050565b7f4552433732313a206f776e657220717565727920666f72206e6f6e657869737460008201527f656e7420746f6b656e0000000000000000000000000000000000000000000000602082015250565b60006133fe602983612575565b9150613409826133a2565b604082019050919050565b6000602082019050818103600083015261342d816133f1565b9050919050565b7f4552433732313a2062616c616e636520717565727920666f7220746865207a6560008201527f726f206164647265737300000000000000000000000000000000000000000000602082015250565b6000613490602a83612575565b915061349b82613434565b604082019050919050565b600060208201905081810360008301526134bf81613483565b9050919050565b6000819050919050565b600060ff82169050919050565b6000819050919050565b60006135026134fd6134f8846134c6565b6134dd565b6134d0565b9050919050565b613512816134e7565b82525050565b600060208201905061352d6000830184613509565b92915050565b7f4552433732313a206f70657261746f7220717565727920666f72206e6f6e657860008201527f697374656e7420746f6b656e0000000000000000000000000000000000000000602082015250565b600061358f602c83612575565b915061359a82613533565b604082019050919050565b600060208201905081810360008301526135be81613582565b9050919050565b7f4552433732313a207472616e736665722066726f6d20696e636f72726563742060008201527f6f776e6572000000000000000000000000000000000000000000000000000000602082015250565b6000613621602583612575565b915061362c826135c5565b604082019050919050565b6000602082019050818103600083015261365081613614565b9050919050565b7f4552433732313a207472616e7366657220746f20746865207a65726f2061646460008201527f7265737300000000000000000000000000000000000000000000000000000000602082015250565b60006136b3602483612575565b91506136be82613657565b604082019050919050565b600060208201905081810360008301526136e2816136a6565b9050919050565b7f4552433732313a206d696e7420746f20746865207a65726f2061646472657373600082015250565b600061371f602083612575565b915061372a826136e9565b602082019050919050565b6000602082019050818103600083015261374e81613712565b9050919050565b7f4552433732313a20746f6b656e20616c7265616479206d696e74656400000000600082015250565b600061378b601c83612575565b915061379682613755565b602082019050919050565b600060208201905081810360008301526137ba8161377e565b9050919050565b7f45524337323155524953746f726167653a2055524920736574206f66206e6f6e60008201527f6578697374656e7420746f6b656e000000000000000000000000000000000000602082015250565b600061381d602e83612575565b9150613828826137c1565b604082019050919050565b6000602082019050818103600083015261384c81613810565b9050919050565b7f4552433732313a20617070726f766520746f2063616c6c657200000000000000600082015250565b6000613889601983612575565b915061389482613853565b602082019050919050565b600060208201905081810360008301526138b88161387c565b9050919050565b7f4552433732313a207472616e7366657220746f206e6f6e20455243373231526560008201527f63656976657220696d706c656d656e7465720000000000000000000000000000602082015250565b600061391b603283612575565b9150613926826138bf565b604082019050919050565b6000602082019050818103600083015261394a8161390e565b9050919050565b7f496e697469616c697a61626c653a20636f6e747261637420697320616c72656160008201527f647920696e697469616c697a6564000000000000000000000000000000000000602082015250565b60006139ad602e83612575565b91506139b882613951565b604082019050919050565b600060208201905081810360008301526139dc816139a0565b9050919050565b7f496e697469616c697a61626c653a20636f6e7472616374206973206e6f74206960008201527f6e697469616c697a696e67000000000000000000000000000000000000000000602082015250565b6000613a3f602b83612575565b9150613a4a826139e3565b604082019050919050565b60006020820190508181036000830152613a6e81613a32565b9050919050565b7f45524337323155524953746f726167653a2055524920717565727920666f722060008201527f6e6f6e6578697374656e7420746f6b656e000000000000000000000000000000602082015250565b6000613ad1603183612575565b9150613adc82613a75565b604082019050919050565b60006020820190508181036000830152613b0081613ac4565b9050919050565b600081905092915050565b6000613b1d8261256a565b613b278185613b07565b9350613b37818560208601612586565b80840191505092915050565b6000613b4f8285613b12565b9150613b5b8284613b12565b91508190509392505050565b7f6e6f6e2d7472616e736665727261626c65000000000000000000000000000000600082015250565b6000613b9d601183612575565b9150613ba882613b67565b602082019050919050565b60006020820190508181036000830152613bcc81613b90565b9050919050565b600081519050919050565b600082825260208201905092915050565b6000613bfa82613bd3565b613c048185613bde565b9350613c14818560208601612586565b613c1d816125b9565b840191505092915050565b6000608082019050613c3d6000830187612540565b613c4a6020830186612540565b613c576040830185612913565b8181036060830152613c698184613bef565b905095945050505050565b600081519050613c838161247f565b92915050565b600060208284031215613c9f57613c9e612449565b5b6000613cad84828501613c74565b91505092915050565b7f4552433732314d657461646174613a2055524920717565727920666f72206e6f60008201527f6e6578697374656e7420746f6b656e0000000000000000000000000000000000602082015250565b6000613d12602f83612575565b9150613d1d82613cb6565b604082019050919050565b60006020820190508181036000830152613d4181613d05565b9050919050565b7f4e487b7100000000000000000000000000000000000000000000000000000000600052601260045260246000fd5b6000613d8282612625565b9150613d8d83612625565b925082613d9d57613d9c613d48565b5b828204905092915050565b6000613db382612625565b9150613dbe83612625565b925082613dce57613dcd613d48565b5b82820690509291505056fea26469706673582212201461b0dec0a60bd4b04bde67f4b42db051859b1321246960374a1fd7dbd7e67964736f6c63430008090033",
  "immutableReferences": {},
  "source": "// SPDX-License-Identifier: MIT\npragma solidity 0.8.9;\n\nimport { IERC20} from './interfaces/other/IERC20.sol';\nimport { IPool} from './interfaces/aave/IPool.sol';\nimport { IPoolAddressesProvider} from './interfaces/aave/IPoolAddressesProvider.sol';\nimport { IWETHGateway} from './interfaces/aave/IWETHGateway.sol';\nimport { IJustCausePool } from './interfaces/protocol/IJustCausePool.sol';\nimport { IJCDepositorERC721 } from './interfaces/protocol/IJCDepositorERC721.sol';\nimport { JCDepositorERC721 } from './JCDepositorERC721.sol';\nimport { JustCausePool } from './JustCausePool.sol';\n\nimport \"@openzeppelin/contracts/security/ReentrancyGuard.sol\";\nimport \"@openzeppelin/contracts/proxy/Clones.sol\";\n\n/**\n * @title PoolTracker contract\n * @author JustCause\n * @notice Main point of interaction with JustCause Protocol\n * This is a proof of concept starter contract for lossless donations\n *\n * Aave v3 is used to generate interest for crowdfunding\n *\n * PoolTracker contract controls deposit calls to Aave to make\n * approvals needed only once per token. Calls JustCause Pools for\n * withdrawals and claims\n *\n * Controls Owner/Contributor NFT creation and updates for deposits/withdrawals\n *\n * Controls JustCause Pool creation with proxy contracts\n *\n * @dev Deposits, withdraws, and claims for Aave Pools\n * @dev Generate ERC721 token\n **/\n\ncontract PoolTracker is ReentrancyGuard {\n\n    JustCausePool baseJCPool;\n    JCDepositorERC721 baseERC721;\n\n    //contract addresses will point to bool if they exist\n    mapping(address => bool) private isPool;\n    mapping(string => address) private names;\n    mapping(address => uint256) private tvl;\n    mapping(address => uint256) private totalDonated;\n    mapping(address => address[]) private contributors;\n    mapping(address => address[]) private receivers;\n    address[] private verifiedPools;\n    uint256[5] private fees;\n    uint256 bpFee;\n    address multiSig;\n\n    address poolAddressesProviderAddr;\n    address wethGatewayAddr;\n\n    event AddPool(address pool, string name, address receiver);\n    event AddDeposit(address userAddr, address pool, address asset, uint256 amount);\n    event WithdrawDeposit(address userAddr, address pool, address asset, uint256 amount);\n    event Claim(address userAddr, address receiver, address pool, address asset, uint256 amount);\n    event Test(address[] aaveAccepted, address[] causeAccepted );\n\n    /**\n    * @dev Only address that are a pool can be passed to functions marked by this modifier.\n    **/\n    modifier onlyPools(address _pool){\n        require(isPool[_pool], \"not pool\");\n        _;\n    }\n\n    /**\n    * @dev Only tokens that are accepted by Aave can be used in JCP creation\n    **/\n    modifier onlyAcceptedTokens(address[] memory causeAcceptedTokens){\n        address poolAddr = IPoolAddressesProvider(poolAddressesProviderAddr).getPool();\n        address[] memory aaveAcceptedTokens = IPool(poolAddr).getReservesList();\n        for(uint8 i = 0; i < causeAcceptedTokens.length; i++){\n            bool found;\n            for(uint8 j = 0; j < aaveAcceptedTokens.length; j++){\n                if(causeAcceptedTokens[i] == aaveAcceptedTokens[j]){\n                    found = true;\n                }\n            }\n            require(found, \"tokens not approved\");\n        }\n        _;\n    }\n\n    /**\n    * @dev Only tokens that are accepted by Aave can be passed to functions marked by this modifier.\n    **/\n    modifier onlyAcceptedToken(address _asset){\n        address poolAddr = IPoolAddressesProvider(poolAddressesProviderAddr).getPool();\n        address[] memory aaveAcceptedTokens = IPool(poolAddr).getReservesList();\n        bool found;\n        for(uint8 j = 0; j < aaveAcceptedTokens.length; j++){\n            if(_asset == aaveAcceptedTokens[j]){\n                found = true;\n            }\n        }\n        require(found, \"token not approved\");\n        _;\n    }\n\n    /**\n    * @dev Only multisig can call functions marked by this modifier.\n    **/\n    modifier onlyMultiSig(){\n        require(multiSig == msg.sender, \"not the multiSig\");\n        _;\n    }\n\n\n    /**\n    * @dev Constructor.\n    */\n    constructor (address _poolAddressesProviderAddr, address _wethGatewayAddr, address _multiSig) {\n        multiSig = _multiSig;\n        baseJCPool = new JustCausePool();\n        baseERC721 = new JCDepositorERC721();\n\n        poolAddressesProviderAddr =  _poolAddressesProviderAddr;\n        wethGatewayAddr = address(_wethGatewayAddr);\n\n        fees = [0, 10, 20, 30, 40];\n        bpFee = fees[2];\n    }\n\n    /**\n    * @dev Emit AddDeposit\n    * @param _asset The address of the underlying asset of the reserve\n    * @param _amount The amount of supplied assets\n    * @param _pool address of JCP\n    * @param _isETH bool indicating if asset is the base token of network (eth/matic/...)\n    **/\n    function addDeposit(\n        uint256 _amount,\n        address _asset,\n        address _pool,\n        bool _isETH\n    ) onlyPools(_pool) nonReentrant() external payable {\n        tvl[_asset] += _amount;\n        string memory _metaHash = IJustCausePool(_pool).getMetaUri();\n        address poolAddr = IPoolAddressesProvider(poolAddressesProviderAddr).getPool();\n\n        if(_isETH){\n            require(IWETHGateway(wethGatewayAddr).getWETHAddress() == _asset, \"asset does not match WETHGateway\");\n            require(msg.value > 0, \"msg.value cannot be zero\");\n            IWETHGateway(wethGatewayAddr).depositETH{value: msg.value}(poolAddr, _pool, 0);\n        }\n        else {\n            require(msg.value == 0, \"msg.value is not zero\");\n            IERC20 token = IERC20(_asset);\n            require(token.allowance(msg.sender, address(this)) >= _amount, \"sender not approved\");\n            token.transferFrom(msg.sender, address(this), _amount);\n            token.approve(poolAddr, _amount);\n            IPool(poolAddr).deposit(address(token), _amount, _pool, 0);\n        }\n        IJustCausePool(_pool).deposit(_asset, _amount);\n        bool isFirstDeposit = IJCDepositorERC721(IJustCausePool(_pool).getERC721Address()).addFunds(msg.sender, _amount, block.timestamp, _asset, _metaHash);\n        if(isFirstDeposit){\n            contributors[msg.sender].push(_pool);\n        }\n        emit AddDeposit(msg.sender, _pool, _asset, _amount);\n    }\n\n    /**\n    * @dev Emit WithdrawDeposit\n    * @param _asset The address of the underlying asset of the reserve\n    * @param _amount The amount of withdraw assets\n    * @param _pool address of JCP\n    * @param _isETH bool indicating if asset is the base token of network (eth/matic/...)\n    **/\n    function withdrawDeposit(\n        uint256 _amount,\n        address _asset,\n        address _pool,\n        bool _isETH\n    ) external  onlyPools(_pool) nonReentrant(){\n\n        tvl[_asset] -= _amount;\n        IJCDepositorERC721(IJustCausePool(_pool).getERC721Address()).withdrawFunds(msg.sender, _amount, _asset);\n        IJustCausePool(_pool).withdraw(_asset, _amount, msg.sender, _isETH);\n        emit WithdrawDeposit(msg.sender, _pool, _asset, _amount);\n    }\n\n    /**\n    * @dev Emit Claim\n    * @param _asset The address of the underlying asset of the reserve\n    * @param _pool address of JCP\n    * @param _isETH bool indicating if asset is the base token of network (eth/matic/...)\n    **/\n    function claimInterest(\n        address _asset,\n        address _pool,\n        bool _isETH\n    ) external onlyPools(_pool) nonReentrant() onlyAcceptedToken(_asset){\n\n        uint256 amount = IJustCausePool(_pool).withdrawDonations(_asset, multiSig, _isETH, bpFee);\n        totalDonated[_asset] += amount;\n        emit Claim(msg.sender, IJustCausePool(_pool).getRecipient(), _pool, _asset, amount);\n    }\n\n    /**\n    * @dev Emit AddPool\n    * @notice Creates new JustCausePool and JCDepositorERC721 by proxy contract.\n    * @param _acceptedTokens List of tokens to be accepted by JCP.\n    * @param _name String name of JCP.\n    * @param _about ipfs hash of pool description of JCP.\n    * @param _picHash ipfs hash of pic of JCP.\n    * @param _metaUri meta info uri for nft of JCP.\n    * @param _receiver address of receiver of JCP donations.\n    **/\n    function createJCPoolClone(\n        address[] memory _acceptedTokens,\n        string memory _name,\n        string memory _about,\n        string memory _picHash,\n        string memory _metaUri,\n        address _receiver\n    ) external onlyAcceptedTokens(_acceptedTokens){\n\n        require(names[_name] == address(0), \"pool with name already exists\");\n        address jcpChild = Clones.clone(address(baseJCPool));\n        address erc721Child = Clones.clone(address(baseERC721));\n        bool isVerified;\n        if(msg.sender == multiSig){\n            verifiedPools.push(jcpChild);\n            isVerified = true;\n        }\n\n        IJustCausePool(jcpChild).initialize(\n            _acceptedTokens,\n            _name,\n            _about,\n            _picHash,\n            _metaUri,\n            _receiver,\n            poolAddressesProviderAddr,\n            wethGatewayAddr,\n            erc721Child,\n            isVerified\n        );\n        IJCDepositorERC721(erc721Child).initialize(jcpChild);\n        receivers[_receiver].push(jcpChild);\n        names[_name] =  jcpChild;\n\n        isPool[jcpChild] = true;\n        emit AddPool(jcpChild, _name, _receiver);\n    }\n\n    /**\n    * @param feeKey accepts 0 - 4 as keys to set the fixed rate of fees\n    **/\n    function setBpFee(uint256 feeKey) public onlyMultiSig() {\n        bpFee = fees[feeKey];\n    }\n\n    /**\n    * @return bpFee current bpFee\n    **/\n    function getBpFee() public view returns(uint256) {\n        return bpFee;\n    }\n\n    /**\n    * @param _asset The address of the underlying asset of the reserve\n    * @return tvl of the protocol for a given asset\n    **/\n    function getTVL(address _asset) public view returns(uint256){\n        return tvl[_asset];\n    }\n\n    /**\n    * @param _asset The address of the underlying asset of the reserve\n    * @return totalDonation claimed donation for a given asset\n    **/\n    function getTotalDonated(address _asset) public view returns(uint256){\n        return totalDonated[_asset];\n    }\n\n    /**\n    * @return address of ERC721 for depositors, created on deployment\n    **/\n    function getDepositorERC721Address() public view returns(address){\n        return address(baseERC721);\n    }\n\n    /**\n    * @param _user address to check for receiver\n    * @return address[] of pools that a user is a receiver for\n    **/\n    function getReceiverPools(address _user) public view returns(address[] memory){\n        return receivers[_user];\n    }\n\n    /**\n    * @return address of multiSig\n    **/\n    function getMultiSig() public view returns(address){\n        return multiSig;\n    }\n\n    /**\n    * @param _user The address of the underlying asset of the reserve\n    * @return address[] of pools\n    **/\n    function getContributions(address _user) public view returns(address[] memory){\n        return contributors[_user];\n    }\n\n    /**\n    * @return address of aave pool\n    **/\n    function getPoolAddr() public view returns(address){\n        address poolAddr = IPoolAddressesProvider(poolAddressesProviderAddr).getPool();\n        return poolAddr;\n    }\n\n    /**\n    * @return address array of aave reserve list\n    **/\n    function getReservesList() public view returns(address[] memory){\n        address poolAddr = IPoolAddressesProvider(poolAddressesProviderAddr).getPool();\n        return IPool(poolAddr).getReservesList();\n    }\n\n    /**\n    * @return address of base JCP, created on deployment\n    **/\n    function getBaseJCPoolAddress() public view returns(address){\n        return address(baseJCPool);\n    }\n\n    /**\n    * @return list of verified pools\n    **/\n    function getVerifiedPools() public view returns(address[] memory){\n        return verifiedPools;\n    }\n\n    /**\n    * @param _pool address of pool\n    * @return true if pool address exists\n    **/\n    function checkPool(address _pool) public view returns(bool){\n        return isPool[_pool];\n    }\n\n    /**\n    * @param _name string name of pool\n    * @return pool address of a given pool name\n    **/\n    function getAddressFromName(string memory _name) external view returns(address){\n        return names[_name];\n    }\n}",
  "sourcePath": "/home/smeee/just_cause/contracts/polygon/PoolTracker.sol",
  "compiler": {
    "name": "solc",
    "version": "0.8.9+commit.e5eed63a.Emscripten.clang"
  },
  "schemaVersion": "3.4.7",
  "updatedAt": "2022-07-06T03:11:05.189Z",
  "networkType": "ethereum",
  "devdoc": {
    "author": "JustCause",
    "details": "Deposits, withdraws, and claims for Aave PoolsGenerate ERC721 token*",
    "kind": "dev",
    "methods": {
      "addDeposit(uint256,address,address,bool)": {
        "details": "Emit AddDeposit",
        "params": {
          "_amount": "The amount of supplied assets",
          "_asset": "The address of the underlying asset of the reserve",
          "_isETH": "bool indicating if asset is the base token of network (eth/matic/...)*",
          "_pool": "address of JCP"
        }
      },
      "checkPool(address)": {
        "params": {
          "_pool": "address of pool"
        },
        "returns": {
          "_0": "true if pool address exists*"
        }
      },
      "claimInterest(address,address,bool)": {
        "details": "Emit Claim",
        "params": {
          "_asset": "The address of the underlying asset of the reserve",
          "_isETH": "bool indicating if asset is the base token of network (eth/matic/...)*",
          "_pool": "address of JCP"
        }
      },
      "constructor": {
        "details": "Constructor."
      },
      "createJCPoolClone(address[],string,string,string,string,address)": {
        "details": "Emit AddPool",
        "params": {
          "_about": "ipfs hash of pool description of JCP.",
          "_acceptedTokens": "List of tokens to be accepted by JCP.",
          "_metaUri": "meta info uri for nft of JCP.",
          "_name": "String name of JCP.",
          "_picHash": "ipfs hash of pic of JCP.",
          "_receiver": "address of receiver of JCP donations.*"
        }
      },
      "getAddressFromName(string)": {
        "params": {
          "_name": "string name of pool"
        },
        "returns": {
          "_0": "pool address of a given pool name*"
        }
      },
      "getBaseJCPoolAddress()": {
        "returns": {
          "_0": "address of base JCP, created on deployment*"
        }
      },
      "getBpFee()": {
        "returns": {
          "_0": "bpFee current bpFee*"
        }
      },
      "getContributions(address)": {
        "params": {
          "_user": "The address of the underlying asset of the reserve"
        },
        "returns": {
          "_0": "address[] of pools*"
        }
      },
      "getDepositorERC721Address()": {
        "returns": {
          "_0": "address of ERC721 for depositors, created on deployment*"
        }
      },
      "getMultiSig()": {
        "returns": {
          "_0": "address of multiSig*"
        }
      },
      "getPoolAddr()": {
        "returns": {
          "_0": "address of aave pool*"
        }
      },
      "getReceiverPools(address)": {
        "params": {
          "_user": "address to check for receiver"
        },
        "returns": {
          "_0": "address[] of pools that a user is a receiver for*"
        }
      },
      "getReservesList()": {
        "returns": {
          "_0": "address array of aave reserve list*"
        }
      },
      "getTVL(address)": {
        "params": {
          "_asset": "The address of the underlying asset of the reserve"
        },
        "returns": {
          "_0": "tvl of the protocol for a given asset*"
        }
      },
      "getTotalDonated(address)": {
        "params": {
          "_asset": "The address of the underlying asset of the reserve"
        },
        "returns": {
          "_0": "totalDonation claimed donation for a given asset*"
        }
      },
      "getVerifiedPools()": {
        "returns": {
          "_0": "list of verified pools*"
        }
      },
      "setBpFee(uint256)": {
        "params": {
          "feeKey": "accepts 0 - 4 as keys to set the fixed rate of fees*"
        }
      },
      "withdrawDeposit(uint256,address,address,bool)": {
        "details": "Emit WithdrawDeposit",
        "params": {
          "_amount": "The amount of withdraw assets",
          "_asset": "The address of the underlying asset of the reserve",
          "_isETH": "bool indicating if asset is the base token of network (eth/matic/...)*",
          "_pool": "address of JCP"
        }
      }
    },
    "title": "PoolTracker contract",
    "version": 1
  },
  "userdoc": {
    "kind": "user",
    "methods": {
      "createJCPoolClone(address[],string,string,string,string,address)": {
        "notice": "Creates new JustCausePool and JCDepositorERC721 by proxy contract."
      }
    },
    "notice": "Main point of interaction with JustCause Protocol This is a proof of concept starter contract for lossless donations Aave v3 is used to generate interest for crowdfunding PoolTracker contract controls deposit calls to Aave to make approvals needed only once per token. Calls JustCause Pools for withdrawals and claims Controls Owner/Contributor NFT creation and updates for deposits/withdrawals Controls JustCause Pool creation with proxy contracts",
    "version": 1
  }
}