{
  "contractName": "PoolMock",
  "abi": [
    {
      "inputs": [
        {
          "internalType": "address",
          "name": "_aToken",
          "type": "address"
        },
        {
          "internalType": "address",
          "name": "_testToken_1",
          "type": "address"
        },
        {
          "internalType": "address",
          "name": "_testToken_2",
          "type": "address"
        }
      ],
      "name": "setTestTokens",
      "outputs": [],
      "stateMutability": "nonpayable",
      "type": "function"
    },
    {
      "inputs": [
        {
          "internalType": "address",
          "name": "asset",
          "type": "address"
        },
        {
          "internalType": "uint256",
          "name": "amount",
          "type": "uint256"
        },
        {
          "internalType": "address",
          "name": "onBehalfOf",
          "type": "address"
        },
        {
          "internalType": "uint16",
          "name": "referralCode",
          "type": "uint16"
        }
      ],
      "name": "deposit",
      "outputs": [],
      "stateMutability": "nonpayable",
      "type": "function"
    },
    {
      "inputs": [
        {
          "internalType": "address",
          "name": "asset",
          "type": "address"
        },
        {
          "internalType": "uint256",
          "name": "amount",
          "type": "uint256"
        },
        {
          "internalType": "address",
          "name": "to",
          "type": "address"
        }
      ],
      "name": "withdraw",
      "outputs": [
        {
          "internalType": "uint256",
          "name": "",
          "type": "uint256"
        }
      ],
      "stateMutability": "nonpayable",
      "type": "function"
    },
    {
      "inputs": [],
      "name": "getReservesList",
      "outputs": [
        {
          "internalType": "address[]",
          "name": "",
          "type": "address[]"
        }
      ],
      "stateMutability": "view",
      "type": "function",
      "constant": true
    },
    {
      "inputs": [
        {
          "internalType": "address",
          "name": "_asset",
          "type": "address"
        }
      ],
      "name": "getReserveData",
      "outputs": [
        {
          "components": [
            {
              "components": [
                {
                  "internalType": "uint256",
                  "name": "data",
                  "type": "uint256"
                }
              ],
              "internalType": "struct DataTypes.ReserveConfigurationMap",
              "name": "configuration",
              "type": "tuple"
            },
            {
              "internalType": "uint128",
              "name": "liquidityIndex",
              "type": "uint128"
            },
            {
              "internalType": "uint128",
              "name": "currentLiquidityRate",
              "type": "uint128"
            },
            {
              "internalType": "uint128",
              "name": "variableBorrowIndex",
              "type": "uint128"
            },
            {
              "internalType": "uint128",
              "name": "currentVariableBorrowRate",
              "type": "uint128"
            },
            {
              "internalType": "uint128",
              "name": "currentStableBorrowRate",
              "type": "uint128"
            },
            {
              "internalType": "uint40",
              "name": "lastUpdateTimestamp",
              "type": "uint40"
            },
            {
              "internalType": "uint16",
              "name": "id",
              "type": "uint16"
            },
            {
              "internalType": "address",
              "name": "aTokenAddress",
              "type": "address"
            },
            {
              "internalType": "address",
              "name": "stableDebtTokenAddress",
              "type": "address"
            },
            {
              "internalType": "address",
              "name": "variableDebtTokenAddress",
              "type": "address"
            },
            {
              "internalType": "address",
              "name": "interestRateStrategyAddress",
              "type": "address"
            },
            {
              "internalType": "uint128",
              "name": "accruedToTreasury",
              "type": "uint128"
            },
            {
              "internalType": "uint128",
              "name": "unbacked",
              "type": "uint128"
            },
            {
              "internalType": "uint128",
              "name": "isolationModeTotalDebt",
              "type": "uint128"
            }
          ],
          "internalType": "struct DataTypes.ReserveData",
          "name": "",
          "type": "tuple"
        }
      ],
      "stateMutability": "view",
      "type": "function",
      "constant": true
    },
    {
      "inputs": [
        {
          "internalType": "address",
          "name": "_asset",
          "type": "address"
        }
      ],
      "name": "getReserveNormalizedIncome",
      "outputs": [
        {
          "internalType": "uint256",
          "name": "",
          "type": "uint256"
        }
      ],
      "stateMutability": "pure",
      "type": "function",
      "constant": true
    }
  ],
  "bytecode": "0x608060405234801561001057600080fd5b50611c47806100206000396000f3fe608060405234801561001057600080fd5b50600436106100625760003560e01c806335ea6a751461006757806369328dec14610097578063d15e0053146100c7578063d1946dbc146100f7578063e8eda9df14610115578063fb8e3e4814610131575b600080fd5b610081600480360381019061007c91906115e1565b61014d565b60405161008e91906117ef565b60405180910390f35b6100b160048036038101906100ac9190611837565b6105b5565b6040516100be9190611899565b60405180910390f35b6100e160048036038101906100dc91906115e1565b61074e565b6040516100ee9190611899565b60405180910390f35b6100ff6107cc565b60405161010c9190611963565b60405180910390f35b61012f600480360381019061012a91906119b1565b61085a565b005b61014b60048036038101906101469190611a18565b6109b9565b005b6101556113fc565b6000808373ffffffffffffffffffffffffffffffffffffffff1673ffffffffffffffffffffffffffffffffffffffff168152602001908152602001600020604051806101e00160405290816000820160405180602001604052908160008201548152505081526020016001820160009054906101000a90046fffffffffffffffffffffffffffffffff166fffffffffffffffffffffffffffffffff166fffffffffffffffffffffffffffffffff1681526020016001820160109054906101000a90046fffffffffffffffffffffffffffffffff166fffffffffffffffffffffffffffffffff166fffffffffffffffffffffffffffffffff1681526020016002820160009054906101000a90046fffffffffffffffffffffffffffffffff166fffffffffffffffffffffffffffffffff166fffffffffffffffffffffffffffffffff1681526020016002820160109054906101000a90046fffffffffffffffffffffffffffffffff166fffffffffffffffffffffffffffffffff166fffffffffffffffffffffffffffffffff1681526020016003820160009054906101000a90046fffffffffffffffffffffffffffffffff166fffffffffffffffffffffffffffffffff166fffffffffffffffffffffffffffffffff1681526020016003820160109054906101000a900464ffffffffff1664ffffffffff1664ffffffffff1681526020016003820160159054906101000a900461ffff1661ffff1661ffff1681526020016004820160009054906101000a900473ffffffffffffffffffffffffffffffffffffffff1673ffffffffffffffffffffffffffffffffffffffff1673ffffffffffffffffffffffffffffffffffffffff1681526020016005820160009054906101000a900473ffffffffffffffffffffffffffffffffffffffff1673ffffffffffffffffffffffffffffffffffffffff1673ffffffffffffffffffffffffffffffffffffffff1681526020016006820160009054906101000a900473ffffffffffffffffffffffffffffffffffffffff1673ffffffffffffffffffffffffffffffffffffffff1673ffffffffffffffffffffffffffffffffffffffff1681526020016007820160009054906101000a900473ffffffffffffffffffffffffffffffffffffffff1673ffffffffffffffffffffffffffffffffffffffff1673ffffffffffffffffffffffffffffffffffffffff1681526020016008820160009054906101000a90046fffffffffffffffffffffffffffffffff166fffffffffffffffffffffffffffffffff166fffffffffffffffffffffffffffffffff1681526020016008820160109054906101000a90046fffffffffffffffffffffffffffffffff166fffffffffffffffffffffffffffffffff166fffffffffffffffffffffffffffffffff1681526020016009820160009054906101000a90046fffffffffffffffffffffffffffffffff166fffffffffffffffffffffffffffffffff166fffffffffffffffffffffffffffffffff16815250509050919050565b60008073ffffffffffffffffffffffffffffffffffffffff168473ffffffffffffffffffffffffffffffffffffffff161415610626576040517f08c379a000000000000000000000000000000000000000000000000000000000815260040161061d90611ac8565b60405180910390fd5b600260009054906101000a900473ffffffffffffffffffffffffffffffffffffffff1673ffffffffffffffffffffffffffffffffffffffff166340c10f1983856040518363ffffffff1660e01b8152600401610683929190611af7565b600060405180830381600087803b15801561069d57600080fd5b505af11580156106b1573d6000803e3d6000fd5b50505050600160009054906101000a900473ffffffffffffffffffffffffffffffffffffffff1673ffffffffffffffffffffffffffffffffffffffff16639dc29fac33856040518363ffffffff1660e01b8152600401610712929190611af7565b600060405180830381600087803b15801561072c57600080fd5b505af1158015610740573d6000803e3d6000fd5b505050508290509392505050565b60008073ffffffffffffffffffffffffffffffffffffffff168273ffffffffffffffffffffffffffffffffffffffff1614156107bf576040517f08c379a00000000000000000000000000000000000000000000000000000000081526004016107b690611ac8565b60405180910390fd5b6401ce4281a29050919050565b6060600380548060200260200160405190810160405280929190818152602001828054801561085057602002820191906000526020600020905b8160009054906101000a900473ffffffffffffffffffffffffffffffffffffffff1673ffffffffffffffffffffffffffffffffffffffff1681526020019060010190808311610806575b5050505050905090565b600073ffffffffffffffffffffffffffffffffffffffff168473ffffffffffffffffffffffffffffffffffffffff1614156108ca576040517f08c379a00000000000000000000000000000000000000000000000000000000081526004016108c190611ac8565b60405180910390fd5b60008161ffff1614610911576040517f08c379a000000000000000000000000000000000000000000000000000000000815260040161090890611b6c565b60405180910390fd5b600160009054906101000a900473ffffffffffffffffffffffffffffffffffffffff1673ffffffffffffffffffffffffffffffffffffffff166340c10f1983670de0b6b3a7640000866109649190611bbb565b6040518363ffffffff1660e01b8152600401610981929190611af7565b600060405180830381600087803b15801561099b57600080fd5b505af11580156109af573d6000803e3d6000fd5b5050505050505050565b82600160006101000a81548173ffffffffffffffffffffffffffffffffffffffff021916908373ffffffffffffffffffffffffffffffffffffffff16021790555081600260006101000a81548173ffffffffffffffffffffffffffffffffffffffff021916908373ffffffffffffffffffffffffffffffffffffffff1602179055506003829080600181540180825580915050600190039060005260206000200160009091909190916101000a81548173ffffffffffffffffffffffffffffffffffffffff021916908373ffffffffffffffffffffffffffffffffffffffff1602179055506003819080600181540180825580915050600190039060005260206000200160009091909190916101000a81548173ffffffffffffffffffffffffffffffffffffffff021916908373ffffffffffffffffffffffffffffffffffffffff1602179055506104d2600080600260009054906101000a900473ffffffffffffffffffffffffffffffffffffffff1673ffffffffffffffffffffffffffffffffffffffff1673ffffffffffffffffffffffffffffffffffffffff16815260200190815260200160002060010160006101000a8154816fffffffffffffffffffffffffffffffff02191690836fffffffffffffffffffffffffffffffff1602179055506105c6600080600260009054906101000a900473ffffffffffffffffffffffffffffffffffffffff1673ffffffffffffffffffffffffffffffffffffffff1673ffffffffffffffffffffffffffffffffffffffff16815260200190815260200160002060010160106101000a8154816fffffffffffffffffffffffffffffffff02191690836fffffffffffffffffffffffffffffffff16021790555061237f600080600260009054906101000a900473ffffffffffffffffffffffffffffffffffffffff1673ffffffffffffffffffffffffffffffffffffffff1673ffffffffffffffffffffffffffffffffffffffff16815260200190815260200160002060020160006101000a8154816fffffffffffffffffffffffffffffffff02191690836fffffffffffffffffffffffffffffffff16021790555061237f600080600260009054906101000a900473ffffffffffffffffffffffffffffffffffffffff1673ffffffffffffffffffffffffffffffffffffffff1673ffffffffffffffffffffffffffffffffffffffff16815260200190815260200160002060020160106101000a8154816fffffffffffffffffffffffffffffffff02191690836fffffffffffffffffffffffffffffffff16021790555061237f600080600260009054906101000a900473ffffffffffffffffffffffffffffffffffffffff1673ffffffffffffffffffffffffffffffffffffffff1673ffffffffffffffffffffffffffffffffffffffff16815260200190815260200160002060030160006101000a8154816fffffffffffffffffffffffffffffffff02191690836fffffffffffffffffffffffffffffffff16021790555061237f600080600260009054906101000a900473ffffffffffffffffffffffffffffffffffffffff1673ffffffffffffffffffffffffffffffffffffffff1673ffffffffffffffffffffffffffffffffffffffff16815260200190815260200160002060030160106101000a81548164ffffffffff021916908364ffffffffff16021790555061237f600080600260009054906101000a900473ffffffffffffffffffffffffffffffffffffffff1673ffffffffffffffffffffffffffffffffffffffff1673ffffffffffffffffffffffffffffffffffffffff16815260200190815260200160002060030160156101000a81548161ffff021916908361ffff160217905550600160009054906101000a900473ffffffffffffffffffffffffffffffffffffffff16600080600260009054906101000a900473ffffffffffffffffffffffffffffffffffffffff1673ffffffffffffffffffffffffffffffffffffffff1673ffffffffffffffffffffffffffffffffffffffff16815260200190815260200160002060040160006101000a81548173ffffffffffffffffffffffffffffffffffffffff021916908373ffffffffffffffffffffffffffffffffffffffff160217905550600160009054906101000a900473ffffffffffffffffffffffffffffffffffffffff16600080600260009054906101000a900473ffffffffffffffffffffffffffffffffffffffff1673ffffffffffffffffffffffffffffffffffffffff1673ffffffffffffffffffffffffffffffffffffffff16815260200190815260200160002060050160006101000a81548173ffffffffffffffffffffffffffffffffffffffff021916908373ffffffffffffffffffffffffffffffffffffffff160217905550600160009054906101000a900473ffffffffffffffffffffffffffffffffffffffff16600080600260009054906101000a900473ffffffffffffffffffffffffffffffffffffffff1673ffffffffffffffffffffffffffffffffffffffff1673ffffffffffffffffffffffffffffffffffffffff16815260200190815260200160002060060160006101000a81548173ffffffffffffffffffffffffffffffffffffffff021916908373ffffffffffffffffffffffffffffffffffffffff160217905550600160009054906101000a900473ffffffffffffffffffffffffffffffffffffffff16600080600260009054906101000a900473ffffffffffffffffffffffffffffffffffffffff1673ffffffffffffffffffffffffffffffffffffffff1673ffffffffffffffffffffffffffffffffffffffff16815260200190815260200160002060070160006101000a81548173ffffffffffffffffffffffffffffffffffffffff021916908373ffffffffffffffffffffffffffffffffffffffff16021790555061237f600080600260009054906101000a900473ffffffffffffffffffffffffffffffffffffffff1673ffffffffffffffffffffffffffffffffffffffff1673ffffffffffffffffffffffffffffffffffffffff16815260200190815260200160002060080160006101000a8154816fffffffffffffffffffffffffffffffff02191690836fffffffffffffffffffffffffffffffff16021790555061237f600080600260009054906101000a900473ffffffffffffffffffffffffffffffffffffffff1673ffffffffffffffffffffffffffffffffffffffff1673ffffffffffffffffffffffffffffffffffffffff16815260200190815260200160002060080160106101000a8154816fffffffffffffffffffffffffffffffff02191690836fffffffffffffffffffffffffffffffff16021790555061237f600080600260009054906101000a900473ffffffffffffffffffffffffffffffffffffffff1673ffffffffffffffffffffffffffffffffffffffff1673ffffffffffffffffffffffffffffffffffffffff16815260200190815260200160002060090160006101000a8154816fffffffffffffffffffffffffffffffff02191690836fffffffffffffffffffffffffffffffff160217905550505050565b604051806101e0016040528061141061156b565b815260200160006fffffffffffffffffffffffffffffffff16815260200160006fffffffffffffffffffffffffffffffff16815260200160006fffffffffffffffffffffffffffffffff16815260200160006fffffffffffffffffffffffffffffffff16815260200160006fffffffffffffffffffffffffffffffff168152602001600064ffffffffff168152602001600061ffff168152602001600073ffffffffffffffffffffffffffffffffffffffff168152602001600073ffffffffffffffffffffffffffffffffffffffff168152602001600073ffffffffffffffffffffffffffffffffffffffff168152602001600073ffffffffffffffffffffffffffffffffffffffff16815260200160006fffffffffffffffffffffffffffffffff16815260200160006fffffffffffffffffffffffffffffffff16815260200160006fffffffffffffffffffffffffffffffff1681525090565b6040518060200160405280600081525090565b600080fd5b600073ffffffffffffffffffffffffffffffffffffffff82169050919050565b60006115ae82611583565b9050919050565b6115be816115a3565b81146115c957600080fd5b50565b6000813590506115db816115b5565b92915050565b6000602082840312156115f7576115f661157e565b5b6000611605848285016115cc565b91505092915050565b6000819050919050565b6116218161160e565b82525050565b60208201600082015161163d6000850182611618565b50505050565b60006fffffffffffffffffffffffffffffffff82169050919050565b61166881611643565b82525050565b600064ffffffffff82169050919050565b6116888161166e565b82525050565b600061ffff82169050919050565b6116a58161168e565b82525050565b6116b4816115a3565b82525050565b6101e0820160008201516116d16000850182611627565b5060208201516116e4602085018261165f565b5060408201516116f7604085018261165f565b50606082015161170a606085018261165f565b50608082015161171d608085018261165f565b5060a082015161173060a085018261165f565b5060c082015161174360c085018261167f565b5060e082015161175660e085018261169c565b5061010082015161176b6101008501826116ab565b506101208201516117806101208501826116ab565b506101408201516117956101408501826116ab565b506101608201516117aa6101608501826116ab565b506101808201516117bf61018085018261165f565b506101a08201516117d46101a085018261165f565b506101c08201516117e96101c085018261165f565b50505050565b60006101e08201905061180560008301846116ba565b92915050565b6118148161160e565b811461181f57600080fd5b50565b6000813590506118318161180b565b92915050565b6000806000606084860312156118505761184f61157e565b5b600061185e868287016115cc565b935050602061186f86828701611822565b9250506040611880868287016115cc565b9150509250925092565b6118938161160e565b82525050565b60006020820190506118ae600083018461188a565b92915050565b600081519050919050565b600082825260208201905092915050565b6000819050602082019050919050565b60006118ec83836116ab565b60208301905092915050565b6000602082019050919050565b6000611910826118b4565b61191a81856118bf565b9350611925836118d0565b8060005b8381101561195657815161193d88826118e0565b9750611948836118f8565b925050600181019050611929565b5085935050505092915050565b6000602082019050818103600083015261197d8184611905565b905092915050565b61198e8161168e565b811461199957600080fd5b50565b6000813590506119ab81611985565b92915050565b600080600080608085870312156119cb576119ca61157e565b5b60006119d9878288016115cc565b94505060206119ea87828801611822565b93505060406119fb878288016115cc565b9250506060611a0c8782880161199c565b91505092959194509250565b600080600060608486031215611a3157611a3061157e565b5b6000611a3f868287016115cc565b9350506020611a50868287016115cc565b9250506040611a61868287016115cc565b9150509250925092565b600082825260208201905092915050565b7f61737365742063616e6e6f74206265206275726e206164647265737300000000600082015250565b6000611ab2601c83611a6b565b9150611abd82611a7c565b602082019050919050565b60006020820190508181036000830152611ae181611aa5565b9050919050565b611af1816115a3565b82525050565b6000604082019050611b0c6000830185611ae8565b611b19602083018461188a565b9392505050565b7f7465737420726566657272616c20636f6465206d757374206265203000000000600082015250565b6000611b56601c83611a6b565b9150611b6182611b20565b602082019050919050565b60006020820190508181036000830152611b8581611b49565b9050919050565b7f4e487b7100000000000000000000000000000000000000000000000000000000600052601160045260246000fd5b6000611bc68261160e565b9150611bd18361160e565b9250827fffffffffffffffffffffffffffffffffffffffffffffffffffffffffffffffff03821115611c0657611c05611b8c565b5b82820190509291505056fea2646970667358221220da20814a6cacd5a3be7c37b987d90803628d665b19cde70062dce76dccb36e4764736f6c63430008090033",
  "immutableReferences": {},
  "source": "// SPDX-License-Identifier: AGPL-3.0\npragma solidity 0.8.9;\n\nimport { IERC20, ITestToken } from '../polygon/Interfaces.sol';\nimport { DataTypes } from \"../polygon/Libraries.sol\";\ncontract PoolMock {\n\n  mapping(address => DataTypes.ReserveData) internal _reserves;\n\n  address aToken;\n  address testToken;\n  address[] aaveAcceptedTokens;\n  uint256 constant INTEREST = 1000000000000000000;\n  uint256 constant RESERVE_NORMALIZED_INCOME = 7755432354;\n\n  function setTestTokens(address _aToken, address _testToken_1, address _testToken_2) external {\n    aToken = _aToken;\n    testToken = _testToken_1;\n    aaveAcceptedTokens.push(_testToken_1);\n    aaveAcceptedTokens.push(_testToken_2);\n\n    _reserves[testToken].liquidityIndex = 1234;\n    _reserves[testToken].currentLiquidityRate = 1478;\n    _reserves[testToken].variableBorrowIndex = 9087;\n    _reserves[testToken].currentVariableBorrowRate = 9087;\n    _reserves[testToken].currentStableBorrowRate = 9087;\n    _reserves[testToken].lastUpdateTimestamp = 9087;\n    _reserves[testToken].id = 9087;\n    _reserves[testToken].aTokenAddress = aToken;\n    _reserves[testToken].stableDebtTokenAddress = aToken;\n    _reserves[testToken].variableDebtTokenAddress = aToken;\n    _reserves[testToken].interestRateStrategyAddress = aToken;\n    _reserves[testToken].accruedToTreasury = 9087;\n    _reserves[testToken].unbacked = 9087;\n    _reserves[testToken].isolationModeTotalDebt = 9087;\n  }\n    /**\n   * @dev Deposits an `amount` of underlying asset into the reserve, receiving in return overlying aTokens.\n   * - E.g. User deposits 100 USDC and gets in return 100 aUSDC\n   * @param asset The address of the underlying asset to deposit\n   * @param amount The amount to be deposited\n   * @param onBehalfOf The address that will receive the aTokens, same as msg.sender if the user\n   *   wants to receive them on his own wallet, or a different address if the beneficiary of aTokens\n   *   is a different wallet\n   * @param referralCode Code used to register the integrator originating the operation, for potential rewards.\n   *   0 if the action is executed directly by the user, without any middle-man\n   **/\n    function deposit(\n    address asset,\n    uint256 amount,\n    address onBehalfOf,\n    uint16 referralCode\n  ) external {\n      require(asset != address(0x0), \"asset cannot be burn address\");\n      require(referralCode == 0, \"test referral code must be 0\");\n      ITestToken(aToken).mint(onBehalfOf, amount+INTEREST);\n  }\n\n    /**\n   * @notice Withdraws an `amount` of underlying asset from the reserve, burning the equivalent aTokens owned\n   * E.g. User has 100 aUSDC, calls withdraw() and receives 100 USDC, burning the 100 aUSDC\n   * @param asset The address of the underlying asset to withdraw\n   * @param amount The underlying amount to be withdrawn\n   *   - Send the value type(uint256).max in order to withdraw the whole aToken balance\n   * @param to The address that will receive the underlying, same as msg.sender if the user\n   *   wants to receive it on his own wallet, or a different address if the beneficiary is a\n   *   different wallet\n   * @return The final amount withdrawn\n   **/\n  function withdraw(\n    address asset,\n    uint256 amount,\n    address to\n  ) external returns (uint256){\n      require(asset != address(0x0), \"asset cannot be burn address\");\n      ITestToken(testToken).mint(to, amount);\n      ITestToken(aToken).burn(msg.sender, amount);\n      return amount;\n  }\n\n  function getReservesList() external view returns (address[] memory){\n    return aaveAcceptedTokens;\n  }\n  function getReserveData(address _asset) external view returns(DataTypes.ReserveData memory) {\n    return _reserves[_asset];\n  }\n\n  function getReserveNormalizedIncome(address _asset) external pure returns(uint256) {\n    require(_asset != address(0x0), \"asset cannot be burn address\");\n    return RESERVE_NORMALIZED_INCOME;\n  }\n}",
  "sourcePath": "/home/smeee/just_cause/contracts/test/PoolMock.sol",
  "compiler": {
    "name": "solc",
    "version": "0.8.9+commit.e5eed63a.Emscripten.clang"
  },
  "schemaVersion": "3.4.7",
  "updatedAt": "2022-05-17T01:09:34.888Z",
  "networkType": "ethereum",
  "devdoc": {
    "kind": "dev",
    "methods": {
      "deposit(address,uint256,address,uint16)": {
        "details": "Deposits an `amount` of underlying asset into the reserve, receiving in return overlying aTokens. - E.g. User deposits 100 USDC and gets in return 100 aUSDC",
        "params": {
          "amount": "The amount to be deposited",
          "asset": "The address of the underlying asset to deposit",
          "onBehalfOf": "The address that will receive the aTokens, same as msg.sender if the user   wants to receive them on his own wallet, or a different address if the beneficiary of aTokens   is a different wallet",
          "referralCode": "Code used to register the integrator originating the operation, for potential rewards.   0 if the action is executed directly by the user, without any middle-man*"
        }
      },
      "withdraw(address,uint256,address)": {
        "params": {
          "amount": "The underlying amount to be withdrawn   - Send the value type(uint256).max in order to withdraw the whole aToken balance",
          "asset": "The address of the underlying asset to withdraw",
          "to": "The address that will receive the underlying, same as msg.sender if the user   wants to receive it on his own wallet, or a different address if the beneficiary is a   different wallet"
        },
        "returns": {
          "_0": "The final amount withdrawn*"
        }
      }
    },
    "version": 1
  },
  "userdoc": {
    "kind": "user",
    "methods": {
      "withdraw(address,uint256,address)": {
        "notice": "Withdraws an `amount` of underlying asset from the reserve, burning the equivalent aTokens owned E.g. User has 100 aUSDC, calls withdraw() and receives 100 USDC, burning the 100 aUSDC"
      }
    },
    "version": 1
  }
}