{
  "contractName": "PoolTracker",
  "abi": [
    {
      "inputs": [
        {
          "internalType": "address",
          "name": "_poolAddressesProviderAddr",
          "type": "address"
        },
        {
          "internalType": "address",
          "name": "_wethGatewayAddr",
          "type": "address"
        }
      ],
      "stateMutability": "nonpayable",
      "type": "constructor"
    },
    {
      "anonymous": false,
      "inputs": [
        {
          "indexed": false,
          "internalType": "address",
          "name": "userAddr",
          "type": "address"
        },
        {
          "indexed": false,
          "internalType": "address",
          "name": "pool",
          "type": "address"
        },
        {
          "indexed": false,
          "internalType": "address",
          "name": "asset",
          "type": "address"
        },
        {
          "indexed": false,
          "internalType": "uint256",
          "name": "amount",
          "type": "uint256"
        }
      ],
      "name": "AddDeposit",
      "type": "event"
    },
    {
      "anonymous": false,
      "inputs": [
        {
          "indexed": false,
          "internalType": "address",
          "name": "pool",
          "type": "address"
        },
        {
          "indexed": false,
          "internalType": "string",
          "name": "name",
          "type": "string"
        },
        {
          "indexed": false,
          "internalType": "address",
          "name": "receiver",
          "type": "address"
        }
      ],
      "name": "AddPool",
      "type": "event"
    },
    {
      "anonymous": false,
      "inputs": [
        {
          "indexed": false,
          "internalType": "address",
          "name": "userAddr",
          "type": "address"
        },
        {
          "indexed": false,
          "internalType": "address",
          "name": "receiver",
          "type": "address"
        },
        {
          "indexed": false,
          "internalType": "address",
          "name": "pool",
          "type": "address"
        },
        {
          "indexed": false,
          "internalType": "address",
          "name": "asset",
          "type": "address"
        },
        {
          "indexed": false,
          "internalType": "uint256",
          "name": "amount",
          "type": "uint256"
        }
      ],
      "name": "Claim",
      "type": "event"
    },
    {
      "anonymous": false,
      "inputs": [
        {
          "indexed": false,
          "internalType": "address[]",
          "name": "aaveAccepted",
          "type": "address[]"
        },
        {
          "indexed": false,
          "internalType": "address[]",
          "name": "causeAccepted",
          "type": "address[]"
        }
      ],
      "name": "Test",
      "type": "event"
    },
    {
      "anonymous": false,
      "inputs": [
        {
          "indexed": false,
          "internalType": "address",
          "name": "userAddr",
          "type": "address"
        },
        {
          "indexed": false,
          "internalType": "address",
          "name": "pool",
          "type": "address"
        },
        {
          "indexed": false,
          "internalType": "address",
          "name": "asset",
          "type": "address"
        },
        {
          "indexed": false,
          "internalType": "uint256",
          "name": "amount",
          "type": "uint256"
        }
      ],
      "name": "WithdrawDeposit",
      "type": "event"
    },
    {
      "inputs": [
        {
          "internalType": "uint256",
          "name": "_amount",
          "type": "uint256"
        },
        {
          "internalType": "address",
          "name": "_asset",
          "type": "address"
        },
        {
          "internalType": "address",
          "name": "_pool",
          "type": "address"
        },
        {
          "internalType": "bool",
          "name": "_isETH",
          "type": "bool"
        }
      ],
      "name": "addDeposit",
      "outputs": [],
      "stateMutability": "payable",
      "type": "function",
      "payable": true
    },
    {
      "inputs": [
        {
          "internalType": "uint256",
          "name": "_amount",
          "type": "uint256"
        },
        {
          "internalType": "address",
          "name": "_asset",
          "type": "address"
        },
        {
          "internalType": "address",
          "name": "_pool",
          "type": "address"
        },
        {
          "internalType": "bool",
          "name": "_isETH",
          "type": "bool"
        }
      ],
      "name": "withdrawDeposit",
      "outputs": [],
      "stateMutability": "nonpayable",
      "type": "function"
    },
    {
      "inputs": [
        {
          "internalType": "address",
          "name": "_asset",
          "type": "address"
        },
        {
          "internalType": "address",
          "name": "_pool",
          "type": "address"
        },
        {
          "internalType": "bool",
          "name": "_isETH",
          "type": "bool"
        }
      ],
      "name": "claimInterest",
      "outputs": [],
      "stateMutability": "nonpayable",
      "type": "function"
    },
    {
      "inputs": [
        {
          "internalType": "address[]",
          "name": "_acceptedTokens",
          "type": "address[]"
        },
        {
          "internalType": "string",
          "name": "_name",
          "type": "string"
        },
        {
          "internalType": "string",
          "name": "_about",
          "type": "string"
        },
        {
          "internalType": "string",
          "name": "_picHash",
          "type": "string"
        },
        {
          "internalType": "string",
          "name": "_metaUri",
          "type": "string"
        },
        {
          "internalType": "address",
          "name": "_receiver",
          "type": "address"
        }
      ],
      "name": "createJCPoolClone",
      "outputs": [],
      "stateMutability": "nonpayable",
      "type": "function"
    },
    {
      "inputs": [
        {
          "internalType": "address",
          "name": "_asset",
          "type": "address"
        }
      ],
      "name": "getTVL",
      "outputs": [
        {
          "internalType": "uint256",
          "name": "",
          "type": "uint256"
        }
      ],
      "stateMutability": "view",
      "type": "function",
      "constant": true
    },
    {
      "inputs": [
        {
          "internalType": "address",
          "name": "_asset",
          "type": "address"
        }
      ],
      "name": "getTotalDonated",
      "outputs": [
        {
          "internalType": "uint256",
          "name": "",
          "type": "uint256"
        }
      ],
      "stateMutability": "view",
      "type": "function",
      "constant": true
    },
    {
      "inputs": [],
      "name": "getDepositorERC721Address",
      "outputs": [
        {
          "internalType": "address",
          "name": "",
          "type": "address"
        }
      ],
      "stateMutability": "view",
      "type": "function",
      "constant": true
    },
    {
      "inputs": [
        {
          "internalType": "address",
          "name": "_user",
          "type": "address"
        }
      ],
      "name": "getReceiverPools",
      "outputs": [
        {
          "internalType": "address[]",
          "name": "",
          "type": "address[]"
        }
      ],
      "stateMutability": "view",
      "type": "function",
      "constant": true
    },
    {
      "inputs": [],
      "name": "getValidator",
      "outputs": [
        {
          "internalType": "address",
          "name": "",
          "type": "address"
        }
      ],
      "stateMutability": "view",
      "type": "function",
      "constant": true
    },
    {
      "inputs": [
        {
          "internalType": "address",
          "name": "_user",
          "type": "address"
        }
      ],
      "name": "getContributions",
      "outputs": [
        {
          "internalType": "address[]",
          "name": "",
          "type": "address[]"
        }
      ],
      "stateMutability": "view",
      "type": "function",
      "constant": true
    },
    {
      "inputs": [],
      "name": "getPoolAddr",
      "outputs": [
        {
          "internalType": "address",
          "name": "",
          "type": "address"
        }
      ],
      "stateMutability": "view",
      "type": "function",
      "constant": true
    },
    {
      "inputs": [],
      "name": "getReservesList",
      "outputs": [
        {
          "internalType": "address[]",
          "name": "",
          "type": "address[]"
        }
      ],
      "stateMutability": "view",
      "type": "function",
      "constant": true
    },
    {
      "inputs": [],
      "name": "getBaseJCPoolAddress",
      "outputs": [
        {
          "internalType": "address",
          "name": "",
          "type": "address"
        }
      ],
      "stateMutability": "view",
      "type": "function",
      "constant": true
    },
    {
      "inputs": [],
      "name": "getVerifiedPools",
      "outputs": [
        {
          "internalType": "address[]",
          "name": "",
          "type": "address[]"
        }
      ],
      "stateMutability": "view",
      "type": "function",
      "constant": true
    },
    {
      "inputs": [
        {
          "internalType": "address",
          "name": "_pool",
          "type": "address"
        }
      ],
      "name": "checkPool",
      "outputs": [
        {
          "internalType": "bool",
          "name": "",
          "type": "bool"
        }
      ],
      "stateMutability": "view",
      "type": "function",
      "constant": true
    },
    {
      "inputs": [
        {
          "internalType": "string",
          "name": "_name",
          "type": "string"
        }
      ],
      "name": "getAddressFromName",
      "outputs": [
        {
          "internalType": "address",
          "name": "",
          "type": "address"
        }
      ],
      "stateMutability": "view",
      "type": "function",
      "constant": true
    }
  ],
  "bytecode": "0x60806040523480156200001157600080fd5b506040516200aa593803806200aa598339818101604052810190620000379190620002e9565b600160008190555033600c60006101000a81548173ffffffffffffffffffffffffffffffffffffffff021916908373ffffffffffffffffffffffffffffffffffffffff1602179055506040516200008e9062000263565b604051809103906000f080158015620000ab573d6000803e3d6000fd5b50600160006101000a81548173ffffffffffffffffffffffffffffffffffffffff021916908373ffffffffffffffffffffffffffffffffffffffff160217905550604051620000fa9062000271565b604051809103906000f08015801562000117573d6000803e3d6000fd5b50600260006101000a81548173ffffffffffffffffffffffffffffffffffffffff021916908373ffffffffffffffffffffffffffffffffffffffff1602179055508173ffffffffffffffffffffffffffffffffffffffff1663026b1d5f6040518163ffffffff1660e01b815260040160206040518083038186803b1580156200019f57600080fd5b505afa158015620001b4573d6000803e3d6000fd5b505050506040513d601f19601f82011682018060405250810190620001da919062000330565b600a60006101000a81548173ffffffffffffffffffffffffffffffffffffffff021916908373ffffffffffffffffffffffffffffffffffffffff16021790555080600b60006101000a81548173ffffffffffffffffffffffffffffffffffffffff021916908373ffffffffffffffffffffffffffffffffffffffff160217905550505062000362565b6135c6806200366483390190565b613e2f8062006c2a83390190565b600080fd5b600073ffffffffffffffffffffffffffffffffffffffff82169050919050565b6000620002b18262000284565b9050919050565b620002c381620002a4565b8114620002cf57600080fd5b50565b600081519050620002e381620002b8565b92915050565b600080604083850312156200030357620003026200027f565b5b60006200031385828601620002d2565b92505060206200032685828601620002d2565b9150509250929050565b6000602082840312156200034957620003486200027f565b5b60006200035984828501620002d2565b91505092915050565b6132f280620003726000396000f3fe6080604052600436106100f35760003560e01c80638e61514e1161008a578063d1946dbc11610059578063d1946dbc1461032f578063d1df6d4d1461035a578063de25924214610397578063fa12793b146103c2576100f3565b80638e61514e1461027557806390f2bb16146102b2578063b47dcb66146102db578063b63ae6ee14610304576100f3565b806330b9d2a7116100c657806330b9d2a7146101a55780633989a671146101e25780633f19d0431461020d5780635aa388681461024a576100f3565b806308f52b3c146100f85780630f40517a146101145780631195e07e146101515780632f28012a1461017c575b600080fd5b610112600480360381019061010d919061207c565b6103ff565b005b34801561012057600080fd5b5061013b600480360381019061013691906120e3565b610ce9565b604051610148919061211f565b60405180910390f35b34801561015d57600080fd5b50610166610d32565b6040516101739190612149565b60405180910390f35b34801561018857600080fd5b506101a3600480360381019061019e919061207c565b610d5c565b005b3480156101b157600080fd5b506101cc60048036038101906101c791906120e3565b611035565b6040516101d99190612173565b60405180910390f35b3480156101ee57600080fd5b506101f761108b565b6040516102049190612149565b60405180910390f35b34801561021957600080fd5b50610234600480360381019061022f91906120e3565b6110b5565b604051610241919061224c565b60405180910390f35b34801561025657600080fd5b5061025f611182565b60405161026c9190612149565b60405180910390f35b34801561028157600080fd5b5061029c600480360381019061029791906123b4565b6111ac565b6040516102a99190612149565b60405180910390f35b3480156102be57600080fd5b506102d960048036038101906102d491906123fd565b6111f4565b005b3480156102e757600080fd5b5061030260048036038101906102fd9190612518565b611610565b005b34801561031057600080fd5b50610319611c4d565b604051610326919061224c565b60405180910390f35b34801561033b57600080fd5b50610344611cdb565b604051610351919061224c565b60405180910390f35b34801561036657600080fd5b50610381600480360381019061037c91906120e3565b611d87565b60405161038e919061211f565b60405180910390f35b3480156103a357600080fd5b506103ac611dd0565b6040516103b99190612149565b60405180910390f35b3480156103ce57600080fd5b506103e960048036038101906103e491906120e3565b611dfa565b6040516103f6919061224c565b60405180910390f35b81600360008273ffffffffffffffffffffffffffffffffffffffff1673ffffffffffffffffffffffffffffffffffffffff16815260200190815260200160002060009054906101000a900460ff1661048c576040517f08c379a00000000000000000000000000000000000000000000000000000000081526004016104839061268e565b60405180910390fd5b600260005414156104d2576040517f08c379a00000000000000000000000000000000000000000000000000000000081526004016104c9906126fa565b60405180910390fd5b600260008190555084600560008673ffffffffffffffffffffffffffffffffffffffff1673ffffffffffffffffffffffffffffffffffffffff16815260200190815260200160002060008282546105299190612749565b9250508190555060008373ffffffffffffffffffffffffffffffffffffffff1663373d7c3f6040518163ffffffff1660e01b815260040160006040518083038186803b15801561057857600080fd5b505afa15801561058c573d6000803e3d6000fd5b505050506040513d6000823e3d601f19601f820116820180604052508101906105b59190612842565b90506000600a60009054906101000a900473ffffffffffffffffffffffffffffffffffffffff16905083156107cc578573ffffffffffffffffffffffffffffffffffffffff16600b60009054906101000a900473ffffffffffffffffffffffffffffffffffffffff1673ffffffffffffffffffffffffffffffffffffffff1663affa88176040518163ffffffff1660e01b815260040160206040518083038186803b15801561066357600080fd5b505afa158015610677573d6000803e3d6000fd5b505050506040513d601f19601f8201168201806040525081019061069b91906128a0565b73ffffffffffffffffffffffffffffffffffffffff16146106f1576040517f08c379a00000000000000000000000000000000000000000000000000000000081526004016106e890612919565b60405180910390fd5b60003411610734576040517f08c379a000000000000000000000000000000000000000000000000000000000815260040161072b90612985565b60405180910390fd5b600b60009054906101000a900473ffffffffffffffffffffffffffffffffffffffff1673ffffffffffffffffffffffffffffffffffffffff1663474cf53d34838860006040518563ffffffff1660e01b8152600401610795939291906129f8565b6000604051808303818588803b1580156107ae57600080fd5b505af11580156107c2573d6000803e3d6000fd5b5050505050610a73565b6000341461080f576040517f08c379a000000000000000000000000000000000000000000000000000000000815260040161080690612a7b565b60405180910390fd5b6000869050878173ffffffffffffffffffffffffffffffffffffffff1663dd62ed3e33306040518363ffffffff1660e01b8152600401610850929190612a9b565b60206040518083038186803b15801561086857600080fd5b505afa15801561087c573d6000803e3d6000fd5b505050506040513d601f19601f820116820180604052508101906108a09190612ad9565b10156108e1576040517f08c379a00000000000000000000000000000000000000000000000000000000081526004016108d890612b52565b60405180910390fd5b8073ffffffffffffffffffffffffffffffffffffffff166323b872dd33308b6040518463ffffffff1660e01b815260040161091e93929190612b72565b602060405180830381600087803b15801561093857600080fd5b505af115801561094c573d6000803e3d6000fd5b505050506040513d601f19601f820116820180604052508101906109709190612bbe565b508073ffffffffffffffffffffffffffffffffffffffff1663095ea7b3838a6040518363ffffffff1660e01b81526004016109ac929190612beb565b602060405180830381600087803b1580156109c657600080fd5b505af11580156109da573d6000803e3d6000fd5b505050506040513d601f19601f820116820180604052508101906109fe9190612bbe565b508173ffffffffffffffffffffffffffffffffffffffff1663e8eda9df828a8960006040518563ffffffff1660e01b8152600401610a3f9493929190612c14565b600060405180830381600087803b158015610a5957600080fd5b505af1158015610a6d573d6000803e3d6000fd5b50505050505b8473ffffffffffffffffffffffffffffffffffffffff166347e7ef2487896040518363ffffffff1660e01b8152600401610aae929190612beb565b600060405180830381600087803b158015610ac857600080fd5b505af1158015610adc573d6000803e3d6000fd5b5050505060008573ffffffffffffffffffffffffffffffffffffffff16627ffb786040518163ffffffff1660e01b815260040160206040518083038186803b158015610b2757600080fd5b505afa158015610b3b573d6000803e3d6000fd5b505050506040513d601f19601f82011682018060405250810190610b5f91906128a0565b73ffffffffffffffffffffffffffffffffffffffff166326a45ffb338a428b886040518663ffffffff1660e01b8152600401610b9f959493929190612c9d565b602060405180830381600087803b158015610bb957600080fd5b505af1158015610bcd573d6000803e3d6000fd5b505050506040513d601f19601f82011682018060405250810190610bf19190612bbe565b90508015610c9a57600760003373ffffffffffffffffffffffffffffffffffffffff1673ffffffffffffffffffffffffffffffffffffffff168152602001908152602001600020869080600181540180825580915050600190039060005260206000200160009091909190916101000a81548173ffffffffffffffffffffffffffffffffffffffff021916908373ffffffffffffffffffffffffffffffffffffffff1602179055505b7f20ca885e6c573d69bc931b3787127868f5b90568509fb8d4ff6f7102b8d0cd253387898b604051610ccf9493929190612cf7565b60405180910390a150505060016000819055505050505050565b6000600560008373ffffffffffffffffffffffffffffffffffffffff1673ffffffffffffffffffffffffffffffffffffffff168152602001908152602001600020549050919050565b6000600c60009054906101000a900473ffffffffffffffffffffffffffffffffffffffff16905090565b81600360008273ffffffffffffffffffffffffffffffffffffffff1673ffffffffffffffffffffffffffffffffffffffff16815260200190815260200160002060009054906101000a900460ff16610de9576040517f08c379a0000000000000000000000000000000000000000000000000000000008152600401610de09061268e565b60405180910390fd5b60026000541415610e2f576040517f08c379a0000000000000000000000000000000000000000000000000000000008152600401610e26906126fa565b60405180910390fd5b600260008190555084600560008673ffffffffffffffffffffffffffffffffffffffff1673ffffffffffffffffffffffffffffffffffffffff1681526020019081526020016000206000828254610e869190612d3c565b925050819055508273ffffffffffffffffffffffffffffffffffffffff16627ffb786040518163ffffffff1660e01b815260040160206040518083038186803b158015610ed257600080fd5b505afa158015610ee6573d6000803e3d6000fd5b505050506040513d601f19601f82011682018060405250810190610f0a91906128a0565b73ffffffffffffffffffffffffffffffffffffffff166347c6b45e3387876040518463ffffffff1660e01b8152600401610f4693929190612d70565b600060405180830381600087803b158015610f6057600080fd5b505af1158015610f74573d6000803e3d6000fd5b505050508273ffffffffffffffffffffffffffffffffffffffff166312eeff7e858733866040518563ffffffff1660e01b8152600401610fb79493929190612da7565b600060405180830381600087803b158015610fd157600080fd5b505af1158015610fe5573d6000803e3d6000fd5b505050507fa657ed79c074c3489591adb7ba850f38c009bd846e47f2ffe3edc1d06f48a5a43384868860405161101e9493929190612cf7565b60405180910390a160016000819055505050505050565b6000600360008373ffffffffffffffffffffffffffffffffffffffff1673ffffffffffffffffffffffffffffffffffffffff16815260200190815260200160002060009054906101000a900460ff169050919050565b6000600260009054906101000a900473ffffffffffffffffffffffffffffffffffffffff16905090565b6060600760008373ffffffffffffffffffffffffffffffffffffffff1673ffffffffffffffffffffffffffffffffffffffff16815260200190815260200160002080548060200260200160405190810160405280929190818152602001828054801561117657602002820191906000526020600020905b8160009054906101000a900473ffffffffffffffffffffffffffffffffffffffff1673ffffffffffffffffffffffffffffffffffffffff168152602001906001019080831161112c575b50505050509050919050565b6000600160009054906101000a900473ffffffffffffffffffffffffffffffffffffffff16905090565b60006004826040516111be9190612e28565b908152602001604051809103902060009054906101000a900473ffffffffffffffffffffffffffffffffffffffff169050919050565b81600360008273ffffffffffffffffffffffffffffffffffffffff1673ffffffffffffffffffffffffffffffffffffffff16815260200190815260200160002060009054906101000a900460ff16611281576040517f08c379a00000000000000000000000000000000000000000000000000000000081526004016112789061268e565b60405180910390fd5b600260005414156112c7576040517f08c379a00000000000000000000000000000000000000000000000000000000081526004016112be906126fa565b60405180910390fd5b6002600081905550836000600a60009054906101000a900473ffffffffffffffffffffffffffffffffffffffff1673ffffffffffffffffffffffffffffffffffffffff1663d1946dbc6040518163ffffffff1660e01b815260040160006040518083038186803b15801561133a57600080fd5b505afa15801561134e573d6000803e3d6000fd5b505050506040513d6000823e3d601f19601f820116820180604052508101906113779190612ed6565b9050600080600090505b82518160ff1610156113f657828160ff16815181106113a3576113a2612f1f565b5b602002602001015173ffffffffffffffffffffffffffffffffffffffff168473ffffffffffffffffffffffffffffffffffffffff1614156113e357600191505b80806113ee90612f5b565b915050611381565b5080611437576040517f08c379a000000000000000000000000000000000000000000000000000000000815260040161142e90612fd1565b60405180910390fd5b60008673ffffffffffffffffffffffffffffffffffffffff1663b39824ba89600c60009054906101000a900473ffffffffffffffffffffffffffffffffffffffff16896040518463ffffffff1660e01b815260040161149893929190612ff1565b602060405180830381600087803b1580156114b257600080fd5b505af11580156114c6573d6000803e3d6000fd5b505050506040513d601f19601f820116820180604052508101906114ea9190612ad9565b905080600660008a73ffffffffffffffffffffffffffffffffffffffff1673ffffffffffffffffffffffffffffffffffffffff168152602001908152602001600020600082825461153b9190612749565b925050819055507f7276c0285f260d667df9ded71ca6a988145d36de1d14252710532b9de5f089fe338873ffffffffffffffffffffffffffffffffffffffff16631b88094d6040518163ffffffff1660e01b815260040160206040518083038186803b1580156115aa57600080fd5b505afa1580156115be573d6000803e3d6000fd5b505050506040513d601f19601f820116820180604052508101906115e291906128a0565b898b856040516115f6959493929190613028565b60405180910390a150505050600160008190555050505050565b856000600a60009054906101000a900473ffffffffffffffffffffffffffffffffffffffff1673ffffffffffffffffffffffffffffffffffffffff1663d1946dbc6040518163ffffffff1660e01b815260040160006040518083038186803b15801561167b57600080fd5b505afa15801561168f573d6000803e3d6000fd5b505050506040513d6000823e3d601f19601f820116820180604052508101906116b89190612ed6565b905060005b82518160ff1610156117b857600080600090505b83518160ff16101561176357838160ff16815181106116f3576116f2612f1f565b5b602002602001015173ffffffffffffffffffffffffffffffffffffffff16858460ff168151811061172757611726612f1f565b5b602002602001015173ffffffffffffffffffffffffffffffffffffffff16141561175057600191505b808061175b90612f5b565b9150506116d1565b50806117a4576040517f08c379a000000000000000000000000000000000000000000000000000000000815260040161179b906130c7565b60405180910390fd5b5080806117b090612f5b565b9150506116bd565b50600073ffffffffffffffffffffffffffffffffffffffff166004886040516117e19190612e28565b908152602001604051809103902060009054906101000a900473ffffffffffffffffffffffffffffffffffffffff1673ffffffffffffffffffffffffffffffffffffffff1614611866576040517f08c379a000000000000000000000000000000000000000000000000000000000815260040161185d90613133565b60405180910390fd5b6000611893600160009054906101000a900473ffffffffffffffffffffffffffffffffffffffff16611ec7565b905060006118c2600260009054906101000a900473ffffffffffffffffffffffffffffffffffffffff16611ec7565b90506000600c60009054906101000a900473ffffffffffffffffffffffffffffffffffffffff1673ffffffffffffffffffffffffffffffffffffffff163373ffffffffffffffffffffffffffffffffffffffff161415611984576009839080600181540180825580915050600190039060005260206000200160009091909190916101000a81548173ffffffffffffffffffffffffffffffffffffffff021916908373ffffffffffffffffffffffffffffffffffffffff160217905550600190505b8273ffffffffffffffffffffffffffffffffffffffff1663bbc41f488c8c8c8c8c8c600a60009054906101000a900473ffffffffffffffffffffffffffffffffffffffff16600b60009054906101000a900473ffffffffffffffffffffffffffffffffffffffff168b8b6040518b63ffffffff1660e01b8152600401611a139a99989796959493929190613153565b600060405180830381600087803b158015611a2d57600080fd5b505af1158015611a41573d6000803e3d6000fd5b505050508173ffffffffffffffffffffffffffffffffffffffff1663c4d66de8846040518263ffffffff1660e01b8152600401611a7e9190612149565b600060405180830381600087803b158015611a9857600080fd5b505af1158015611aac573d6000803e3d6000fd5b50505050600860008773ffffffffffffffffffffffffffffffffffffffff1673ffffffffffffffffffffffffffffffffffffffff168152602001908152602001600020839080600181540180825580915050600190039060005260206000200160009091909190916101000a81548173ffffffffffffffffffffffffffffffffffffffff021916908373ffffffffffffffffffffffffffffffffffffffff1602179055508260048b604051611b619190612e28565b908152602001604051809103902060006101000a81548173ffffffffffffffffffffffffffffffffffffffff021916908373ffffffffffffffffffffffffffffffffffffffff1602179055506001600360008573ffffffffffffffffffffffffffffffffffffffff1673ffffffffffffffffffffffffffffffffffffffff16815260200190815260200160002060006101000a81548160ff0219169083151502179055507f373adb264e07592e89e672b780912566106b06a5f7a7787e63a47ca627e915af838b88604051611c3893929190613212565b60405180910390a15050505050505050505050565b60606009805480602002602001604051908101604052809291908181526020018280548015611cd157602002820191906000526020600020905b8160009054906101000a900473ffffffffffffffffffffffffffffffffffffffff1673ffffffffffffffffffffffffffffffffffffffff1681526020019060010190808311611c87575b5050505050905090565b6060600a60009054906101000a900473ffffffffffffffffffffffffffffffffffffffff1673ffffffffffffffffffffffffffffffffffffffff1663d1946dbc6040518163ffffffff1660e01b815260040160006040518083038186803b158015611d4557600080fd5b505afa158015611d59573d6000803e3d6000fd5b505050506040513d6000823e3d601f19601f82011682018060405250810190611d829190612ed6565b905090565b6000600660008373ffffffffffffffffffffffffffffffffffffffff1673ffffffffffffffffffffffffffffffffffffffff168152602001908152602001600020549050919050565b6000600a60009054906101000a900473ffffffffffffffffffffffffffffffffffffffff16905090565b6060600860008373ffffffffffffffffffffffffffffffffffffffff1673ffffffffffffffffffffffffffffffffffffffff168152602001908152602001600020805480602002602001604051908101604052809291908181526020018280548015611ebb57602002820191906000526020600020905b8160009054906101000a900473ffffffffffffffffffffffffffffffffffffffff1673ffffffffffffffffffffffffffffffffffffffff1681526020019060010190808311611e71575b50505050509050919050565b60006040517f3d602d80600a3d3981f3363d3d373d3d3d363d7300000000000000000000000081528260601b60148201527f5af43d82803e903d91602b57fd5bf3000000000000000000000000000000000060288201526037816000f0915050600073ffffffffffffffffffffffffffffffffffffffff168173ffffffffffffffffffffffffffffffffffffffff161415611f97576040517f08c379a0000000000000000000000000000000000000000000000000000000008152600401611f8e9061329c565b60405180910390fd5b919050565b6000604051905090565b600080fd5b600080fd5b6000819050919050565b611fc381611fb0565b8114611fce57600080fd5b50565b600081359050611fe081611fba565b92915050565b600073ffffffffffffffffffffffffffffffffffffffff82169050919050565b600061201182611fe6565b9050919050565b61202181612006565b811461202c57600080fd5b50565b60008135905061203e81612018565b92915050565b60008115159050919050565b61205981612044565b811461206457600080fd5b50565b60008135905061207681612050565b92915050565b6000806000806080858703121561209657612095611fa6565b5b60006120a487828801611fd1565b94505060206120b58782880161202f565b93505060406120c68782880161202f565b92505060606120d787828801612067565b91505092959194509250565b6000602082840312156120f9576120f8611fa6565b5b60006121078482850161202f565b91505092915050565b61211981611fb0565b82525050565b60006020820190506121346000830184612110565b92915050565b61214381612006565b82525050565b600060208201905061215e600083018461213a565b92915050565b61216d81612044565b82525050565b60006020820190506121886000830184612164565b92915050565b600081519050919050565b600082825260208201905092915050565b6000819050602082019050919050565b6121c381612006565b82525050565b60006121d583836121ba565b60208301905092915050565b6000602082019050919050565b60006121f98261218e565b6122038185612199565b935061220e836121aa565b8060005b8381101561223f57815161222688826121c9565b9750612231836121e1565b925050600181019050612212565b5085935050505092915050565b6000602082019050818103600083015261226681846121ee565b905092915050565b600080fd5b600080fd5b6000601f19601f8301169050919050565b7f4e487b7100000000000000000000000000000000000000000000000000000000600052604160045260246000fd5b6122c182612278565b810181811067ffffffffffffffff821117156122e0576122df612289565b5b80604052505050565b60006122f3611f9c565b90506122ff82826122b8565b919050565b600067ffffffffffffffff82111561231f5761231e612289565b5b61232882612278565b9050602081019050919050565b82818337600083830152505050565b600061235761235284612304565b6122e9565b90508281526020810184848401111561237357612372612273565b5b61237e848285612335565b509392505050565b600082601f83011261239b5761239a61226e565b5b81356123ab848260208601612344565b91505092915050565b6000602082840312156123ca576123c9611fa6565b5b600082013567ffffffffffffffff8111156123e8576123e7611fab565b5b6123f484828501612386565b91505092915050565b60008060006060848603121561241657612415611fa6565b5b60006124248682870161202f565b93505060206124358682870161202f565b925050604061244686828701612067565b9150509250925092565b600067ffffffffffffffff82111561246b5761246a612289565b5b602082029050602081019050919050565b600080fd5b600061249461248f84612450565b6122e9565b905080838252602082019050602084028301858111156124b7576124b661247c565b5b835b818110156124e057806124cc888261202f565b8452602084019350506020810190506124b9565b5050509392505050565b600082601f8301126124ff576124fe61226e565b5b813561250f848260208601612481565b91505092915050565b60008060008060008060c0878903121561253557612534611fa6565b5b600087013567ffffffffffffffff81111561255357612552611fab565b5b61255f89828a016124ea565b965050602087013567ffffffffffffffff8111156125805761257f611fab565b5b61258c89828a01612386565b955050604087013567ffffffffffffffff8111156125ad576125ac611fab565b5b6125b989828a01612386565b945050606087013567ffffffffffffffff8111156125da576125d9611fab565b5b6125e689828a01612386565b935050608087013567ffffffffffffffff81111561260757612606611fab565b5b61261389828a01612386565b92505060a061262489828a0161202f565b9150509295509295509295565b600082825260208201905092915050565b7f6e6f7420706f6f6c000000000000000000000000000000000000000000000000600082015250565b6000612678600883612631565b915061268382612642565b602082019050919050565b600060208201905081810360008301526126a78161266b565b9050919050565b7f5265656e7472616e637947756172643a207265656e7472616e742063616c6c00600082015250565b60006126e4601f83612631565b91506126ef826126ae565b602082019050919050565b60006020820190508181036000830152612713816126d7565b9050919050565b7f4e487b7100000000000000000000000000000000000000000000000000000000600052601160045260246000fd5b600061275482611fb0565b915061275f83611fb0565b9250827fffffffffffffffffffffffffffffffffffffffffffffffffffffffffffffffff038211156127945761279361271a565b5b828201905092915050565b60005b838110156127bd5780820151818401526020810190506127a2565b838111156127cc576000848401525b50505050565b60006127e56127e084612304565b6122e9565b90508281526020810184848401111561280157612800612273565b5b61280c84828561279f565b509392505050565b600082601f8301126128295761282861226e565b5b81516128398482602086016127d2565b91505092915050565b60006020828403121561285857612857611fa6565b5b600082015167ffffffffffffffff81111561287657612875611fab565b5b61288284828501612814565b91505092915050565b60008151905061289a81612018565b92915050565b6000602082840312156128b6576128b5611fa6565b5b60006128c48482850161288b565b91505092915050565b7f617373657420646f6573206e6f74206d61746368205745544847617465776179600082015250565b6000612903602083612631565b915061290e826128cd565b602082019050919050565b60006020820190508181036000830152612932816128f6565b9050919050565b7f6d73672e76616c75652063616e6e6f74206265207a65726f0000000000000000600082015250565b600061296f601883612631565b915061297a82612939565b602082019050919050565b6000602082019050818103600083015261299e81612962565b9050919050565b6000819050919050565b600061ffff82169050919050565b6000819050919050565b60006129e26129dd6129d8846129a5565b6129bd565b6129af565b9050919050565b6129f2816129c7565b82525050565b6000606082019050612a0d600083018661213a565b612a1a602083018561213a565b612a2760408301846129e9565b949350505050565b7f6d73672e76616c7565206973206e6f74207a65726f0000000000000000000000600082015250565b6000612a65601583612631565b9150612a7082612a2f565b602082019050919050565b60006020820190508181036000830152612a9481612a58565b9050919050565b6000604082019050612ab0600083018561213a565b612abd602083018461213a565b9392505050565b600081519050612ad381611fba565b92915050565b600060208284031215612aef57612aee611fa6565b5b6000612afd84828501612ac4565b91505092915050565b7f73656e646572206e6f7420617070726f76656400000000000000000000000000600082015250565b6000612b3c601383612631565b9150612b4782612b06565b602082019050919050565b60006020820190508181036000830152612b6b81612b2f565b9050919050565b6000606082019050612b87600083018661213a565b612b94602083018561213a565b612ba16040830184612110565b949350505050565b600081519050612bb881612050565b92915050565b600060208284031215612bd457612bd3611fa6565b5b6000612be284828501612ba9565b91505092915050565b6000604082019050612c00600083018561213a565b612c0d6020830184612110565b9392505050565b6000608082019050612c29600083018761213a565b612c366020830186612110565b612c43604083018561213a565b612c5060608301846129e9565b95945050505050565b600081519050919050565b6000612c6f82612c59565b612c798185612631565b9350612c8981856020860161279f565b612c9281612278565b840191505092915050565b600060a082019050612cb2600083018861213a565b612cbf6020830187612110565b612ccc6040830186612110565b612cd9606083018561213a565b8181036080830152612ceb8184612c64565b90509695505050505050565b6000608082019050612d0c600083018761213a565b612d19602083018661213a565b612d26604083018561213a565b612d336060830184612110565b95945050505050565b6000612d4782611fb0565b9150612d5283611fb0565b925082821015612d6557612d6461271a565b5b828203905092915050565b6000606082019050612d85600083018661213a565b612d926020830185612110565b612d9f604083018461213a565b949350505050565b6000608082019050612dbc600083018761213a565b612dc96020830186612110565b612dd6604083018561213a565b612de36060830184612164565b95945050505050565b600081905092915050565b6000612e0282612c59565b612e0c8185612dec565b9350612e1c81856020860161279f565b80840191505092915050565b6000612e348284612df7565b915081905092915050565b6000612e52612e4d84612450565b6122e9565b90508083825260208201905060208402830185811115612e7557612e7461247c565b5b835b81811015612e9e5780612e8a888261288b565b845260208401935050602081019050612e77565b5050509392505050565b600082601f830112612ebd57612ebc61226e565b5b8151612ecd848260208601612e3f565b91505092915050565b600060208284031215612eec57612eeb611fa6565b5b600082015167ffffffffffffffff811115612f0a57612f09611fab565b5b612f1684828501612ea8565b91505092915050565b7f4e487b7100000000000000000000000000000000000000000000000000000000600052603260045260246000fd5b600060ff82169050919050565b6000612f6682612f4e565b915060ff821415612f7a57612f7961271a565b5b600182019050919050565b7f746f6b656e206e6f7420617070726f7665640000000000000000000000000000600082015250565b6000612fbb601283612631565b9150612fc682612f85565b602082019050919050565b60006020820190508181036000830152612fea81612fae565b9050919050565b6000606082019050613006600083018661213a565b613013602083018561213a565b6130206040830184612164565b949350505050565b600060a08201905061303d600083018861213a565b61304a602083018761213a565b613057604083018661213a565b613064606083018561213a565b6130716080830184612110565b9695505050505050565b7f746f6b656e73206e6f7420617070726f76656400000000000000000000000000600082015250565b60006130b1601383612631565b91506130bc8261307b565b602082019050919050565b600060208201905081810360008301526130e0816130a4565b9050919050565b7f706f6f6c2077697468206e616d6520616c726561647920657869737473000000600082015250565b600061311d601d83612631565b9150613128826130e7565b602082019050919050565b6000602082019050818103600083015261314c81613110565b9050919050565b600061014082019050818103600083015261316e818d6121ee565b90508181036020830152613182818c612c64565b90508181036040830152613196818b612c64565b905081810360608301526131aa818a612c64565b905081810360808301526131be8189612c64565b90506131cd60a083018861213a565b6131da60c083018761213a565b6131e760e083018661213a565b6131f561010083018561213a565b613203610120830184612164565b9b9a5050505050505050505050565b6000606082019050613227600083018661213a565b81810360208301526132398185612c64565b9050613248604083018461213a565b949350505050565b7f455243313136373a20637265617465206661696c656400000000000000000000600082015250565b6000613286601683612631565b915061329182613250565b602082019050919050565b600060208201905081810360008301526132b581613279565b905091905056fea264697066735822122026522807a03c01a03a2ee920fc2290a31bd9dace6b1f246b28e311025317088764736f6c63430008090033608060405234801561001057600080fd5b506001600360006101000a81548160ff02191690831515021790555061358b8061003b6000396000f3fe608060405234801561001057600080fd5b50600436106101365760003560e01c80633735ef88116100b857806367e0e0761161007c57806367e0e07614610347578063711cc0051461037d5780638aebe8d6146103ad578063b39824ba146103dd578063bbc41f481461040d578063d15e00531461042957610136565b80633735ef8814610289578063373d7c3f146102b957806347e7ef24146102d75780635ff189b9146102f357806360246c881461032357610136565b806317d7de7c116100ff57806317d7de7c146101f35780631b88094d146102115780632f7570061461022f578063343d693b1461024d578063357286d71461026b57610136565b80627ffb781461013b5780630251cfa1146101595780630712f6b31461018957806312eeff7e146101b9578063155d8e9c146101d5575b600080fd5b610143610459565b6040516101509190612401565b60405180910390f35b610173600480360381019061016e919061245c565b610483565b60405161018091906124a2565b60405180910390f35b6101a3600480360381019061019e919061245c565b6104cc565b6040516101b091906124a2565b60405180910390f35b6101d360048036038101906101ce9190612521565b61056b565b005b6101dd610998565b6040516101ea9190612621565b60405180910390f35b6101fb610a2a565b6040516102089190612621565b60405180910390f35b610219610abc565b6040516102269190612401565b60405180910390f35b610237610ae6565b6040516102449190612701565b60405180910390f35b610255610b74565b6040516102629190612621565b60405180910390f35b610273610c06565b6040516102809190612732565b60405180910390f35b6102a3600480360381019061029e919061245c565b610c1d565b6040516102b091906124a2565b60405180910390f35b6102c1610d0c565b6040516102ce9190612621565b60405180910390f35b6102f160048036038101906102ec919061274d565b610d9e565b005b61030d6004803603810190610308919061245c565b610f75565b60405161031a91906124a2565b60405180910390f35b61032b610fbe565b60405161033e979695949392919061278d565b60405180910390f35b610361600480360381019061035c919061245c565b6112d5565b604051610374979695949392919061281f565b60405180910390f35b6103976004803603810190610392919061245c565b611338565b6040516103a49190612401565b60405180910390f35b6103c760048036038101906103c2919061245c565b6113f2565b6040516103d491906124a2565b60405180910390f35b6103f760048036038101906103f2919061288e565b6114bd565b60405161040491906124a2565b60405180910390f35b61042760048036038101906104229190612ade565b611d9a565b005b610443600480360381019061043e919061245c565b612193565b60405161045091906124a2565b60405180910390f35b6000600660009054906101000a900473ffffffffffffffffffffffffffffffffffffffff16905090565b6000600160008373ffffffffffffffffffffffffffffffffffffffff1673ffffffffffffffffffffffffffffffffffffffff168152602001908152602001600020549050919050565b6000806104d883611338565b90508073ffffffffffffffffffffffffffffffffffffffff166370a08231306040518263ffffffff1660e01b81526004016105139190612401565b60206040518083038186803b15801561052b57600080fd5b505afa15801561053f573d6000803e3d6000fd5b505050506040513d601f19601f820116820180604052508101906105639190612c5e565b915050919050565b3373ffffffffffffffffffffffffffffffffffffffff16600960009054906101000a900473ffffffffffffffffffffffffffffffffffffffff1673ffffffffffffffffffffffffffffffffffffffff16146105fb576040517f08c379a00000000000000000000000000000000000000000000000000000000081526004016105f290612cd7565b60405180910390fd5b82600160008673ffffffffffffffffffffffffffffffffffffffff1673ffffffffffffffffffffffffffffffffffffffff168152602001908152602001600020600082825461064a9190612d26565b925050819055508061070d57600460009054906101000a900473ffffffffffffffffffffffffffffffffffffffff1673ffffffffffffffffffffffffffffffffffffffff166369328dec8585856040518463ffffffff1660e01b81526004016106b593929190612d5a565b602060405180830381600087803b1580156106cf57600080fd5b505af11580156106e3573d6000803e3d6000fd5b505050506040513d601f19601f820116820180604052508101906107079190612c5e565b50610992565b6000600560009054906101000a900473ffffffffffffffffffffffffffffffffffffffff1673ffffffffffffffffffffffffffffffffffffffff1663affa88176040518163ffffffff1660e01b815260040160206040518083038186803b15801561077757600080fd5b505afa15801561078b573d6000803e3d6000fd5b505050506040513d601f19601f820116820180604052508101906107af9190612da6565b90508473ffffffffffffffffffffffffffffffffffffffff168173ffffffffffffffffffffffffffffffffffffffff161461081f576040517f08c379a000000000000000000000000000000000000000000000000000000000815260040161081690612e1f565b60405180910390fd5b600061082a82611338565b90508073ffffffffffffffffffffffffffffffffffffffff1663095ea7b3600560009054906101000a900473ffffffffffffffffffffffffffffffffffffffff16876040518363ffffffff1660e01b8152600401610889929190612e3f565b602060405180830381600087803b1580156108a357600080fd5b505af11580156108b7573d6000803e3d6000fd5b505050506040513d601f19601f820116820180604052508101906108db9190612e7d565b50600560009054906101000a900473ffffffffffffffffffffffffffffffffffffffff1673ffffffffffffffffffffffffffffffffffffffff166380500d20600460009054906101000a900473ffffffffffffffffffffffffffffffffffffffff1687876040518463ffffffff1660e01b815260040161095d93929190612d5a565b600060405180830381600087803b15801561097757600080fd5b505af115801561098b573d6000803e3d6000fd5b5050505050505b50505050565b6060600c80546109a790612ed9565b80601f01602080910402602001604051908101604052809291908181526020018280546109d390612ed9565b8015610a205780601f106109f557610100808354040283529160200191610a20565b820191906000526020600020905b815481529060010190602001808311610a0357829003601f168201915b5050505050905090565b6060600a8054610a3990612ed9565b80601f0160208091040260200160405190810160405280929190818152602001828054610a6590612ed9565b8015610ab25780601f10610a8757610100808354040283529160200191610ab2565b820191906000526020600020905b815481529060010190602001808311610a9557829003601f168201915b5050505050905090565b6000600860009054906101000a900473ffffffffffffffffffffffffffffffffffffffff16905090565b60606007805480602002602001604051908101604052809291908181526020018280548015610b6a57602002820191906000526020600020905b8160009054906101000a900473ffffffffffffffffffffffffffffffffffffffff1673ffffffffffffffffffffffffffffffffffffffff1681526020019060010190808311610b20575b5050505050905090565b6060600b8054610b8390612ed9565b80601f0160208091040260200160405190810160405280929190818152602001828054610baf90612ed9565b8015610bfc5780601f10610bd157610100808354040283529160200191610bfc565b820191906000526020600020905b815481529060010190602001808311610bdf57829003601f168201915b5050505050905090565b6000600e60009054906101000a900460ff16905090565b600080610c2983611338565b905060008173ffffffffffffffffffffffffffffffffffffffff166370a08231306040518263ffffffff1660e01b8152600401610c669190612401565b60206040518083038186803b158015610c7e57600080fd5b505afa158015610c92573d6000803e3d6000fd5b505050506040513d601f19601f82011682018060405250810190610cb69190612c5e565b9050600160008573ffffffffffffffffffffffffffffffffffffffff1673ffffffffffffffffffffffffffffffffffffffff1681526020019081526020016000205481610d039190612d26565b92505050919050565b6060600d8054610d1b90612ed9565b80601f0160208091040260200160405190810160405280929190818152602001828054610d4790612ed9565b8015610d945780601f10610d6957610100808354040283529160200191610d94565b820191906000526020600020905b815481529060010190602001808311610d7757829003601f168201915b5050505050905090565b3373ffffffffffffffffffffffffffffffffffffffff16600960009054906101000a900473ffffffffffffffffffffffffffffffffffffffff1673ffffffffffffffffffffffffffffffffffffffff1614610e2e576040517f08c379a0000000000000000000000000000000000000000000000000000000008152600401610e2590612cd7565b60405180910390fd5b81600080600090505b6007805490508160ff161015610ed85760078160ff1681548110610e5e57610e5d612f0b565b5b9060005260206000200160009054906101000a900473ffffffffffffffffffffffffffffffffffffffff1673ffffffffffffffffffffffffffffffffffffffff168373ffffffffffffffffffffffffffffffffffffffff161415610ec55760019150610ed8565b8080610ed090612f47565b915050610e37565b5080610f19576040517f08c379a0000000000000000000000000000000000000000000000000000000008152600401610f1090612fbd565b60405180910390fd5b82600160008673ffffffffffffffffffffffffffffffffffffffff1673ffffffffffffffffffffffffffffffffffffffff1681526020019081526020016000206000828254610f689190612fdd565b9250508190555050505050565b6000600260008373ffffffffffffffffffffffffffffffffffffffff1673ffffffffffffffffffffffffffffffffffffffff168152602001908152602001600020549050919050565b60606000806060806060806007600860009054906101000a900473ffffffffffffffffffffffffffffffffffffffff16600e60009054906101000a900460ff16600d600c600b600a8680548060200260200160405190810160405280929190818152602001828054801561108757602002820191906000526020600020905b8160009054906101000a900473ffffffffffffffffffffffffffffffffffffffff1673ffffffffffffffffffffffffffffffffffffffff168152602001906001019080831161103d575b5050505050965083805461109a90612ed9565b80601f01602080910402602001604051908101604052809291908181526020018280546110c690612ed9565b80156111135780601f106110e857610100808354040283529160200191611113565b820191906000526020600020905b8154815290600101906020018083116110f657829003601f168201915b5050505050935082805461112690612ed9565b80601f016020809104026020016040519081016040528092919081815260200182805461115290612ed9565b801561119f5780601f106111745761010080835404028352916020019161119f565b820191906000526020600020905b81548152906001019060200180831161118257829003601f168201915b505050505092508180546111b290612ed9565b80601f01602080910402602001604051908101604052809291908181526020018280546111de90612ed9565b801561122b5780601f106112005761010080835404028352916020019161122b565b820191906000526020600020905b81548152906001019060200180831161120e57829003601f168201915b5050505050915080805461123e90612ed9565b80601f016020809104026020016040519081016040528092919081815260200182805461126a90612ed9565b80156112b75780601f1061128c576101008083540402835291602001916112b7565b820191906000526020600020905b81548152906001019060200180831161129a57829003601f168201915b50505050509050965096509650965096509650965090919293949596565b60008060008060008060006112e9886113f2565b6112f289612193565b6112fb8a6104cc565b6113048b610f75565b61130d8c610c1d565b6113168d610483565b61131f8e611338565b9650965096509650965096509650919395979092949650565b6000600460009054906101000a900473ffffffffffffffffffffffffffffffffffffffff1673ffffffffffffffffffffffffffffffffffffffff166335ea6a75836040518263ffffffff1660e01b81526004016113959190612401565b6101e06040518083038186803b1580156113ae57600080fd5b505afa1580156113c2573d6000803e3d6000fd5b505050506040513d601f19601f820116820180604052508101906113e69190613297565b61010001519050919050565b6000600460009054906101000a900473ffffffffffffffffffffffffffffffffffffffff1673ffffffffffffffffffffffffffffffffffffffff166335ea6a75836040518263ffffffff1660e01b815260040161144f9190612401565b6101e06040518083038186803b15801561146857600080fd5b505afa15801561147c573d6000803e3d6000fd5b505050506040513d601f19601f820116820180604052508101906114a09190613297565b602001516fffffffffffffffffffffffffffffffff169050919050565b60003373ffffffffffffffffffffffffffffffffffffffff16600960009054906101000a900473ffffffffffffffffffffffffffffffffffffffff1673ffffffffffffffffffffffffffffffffffffffff161461154f576040517f08c379a000000000000000000000000000000000000000000000000000000000815260040161154690612cd7565b60405180910390fd5b600061155a85611338565b905060008173ffffffffffffffffffffffffffffffffffffffff166370a08231306040518263ffffffff1660e01b81526004016115979190612401565b60206040518083038186803b1580156115af57600080fd5b505afa1580156115c3573d6000803e3d6000fd5b505050506040513d601f19601f820116820180604052508101906115e79190612c5e565b90506000600160008873ffffffffffffffffffffffffffffffffffffffff1673ffffffffffffffffffffffffffffffffffffffff16815260200190815260200160002054826116369190612d26565b905080600260008973ffffffffffffffffffffffffffffffffffffffff1673ffffffffffffffffffffffffffffffffffffffff16815260200190815260200160002060008282546116879190612fdd565b9250508190555060008190508561193457600e60009054906101000a900460ff161561178657600460009054906101000a900473ffffffffffffffffffffffffffffffffffffffff1673ffffffffffffffffffffffffffffffffffffffff166369328dec8984600860009054906101000a900473ffffffffffffffffffffffffffffffffffffffff166040518463ffffffff1660e01b815260040161172e93929190612d5a565b602060405180830381600087803b15801561174857600080fd5b505af115801561175c573d6000803e3d6000fd5b505050506040513d601f19601f820116820180604052508101906117809190612c5e565b5061192f565b600061179183612247565b9050600081846117a19190612d26565b9050600460009054906101000a900473ffffffffffffffffffffffffffffffffffffffff1673ffffffffffffffffffffffffffffffffffffffff166369328dec8b83600860009054906101000a900473ffffffffffffffffffffffffffffffffffffffff166040518463ffffffff1660e01b815260040161182493929190612d5a565b602060405180830381600087803b15801561183e57600080fd5b505af1158015611852573d6000803e3d6000fd5b505050506040513d601f19601f820116820180604052508101906118769190612c5e565b50600460009054906101000a900473ffffffffffffffffffffffffffffffffffffffff1673ffffffffffffffffffffffffffffffffffffffff166369328dec8b848c6040518463ffffffff1660e01b81526004016118d693929190612d5a565b602060405180830381600087803b1580156118f057600080fd5b505af1158015611904573d6000803e3d6000fd5b505050506040513d601f19601f820116820180604052508101906119289190612c5e565b5080925050505b611d8c565b8773ffffffffffffffffffffffffffffffffffffffff16600560009054906101000a900473ffffffffffffffffffffffffffffffffffffffff1673ffffffffffffffffffffffffffffffffffffffff1663affa88176040518163ffffffff1660e01b815260040160206040518083038186803b1580156119b357600080fd5b505afa1580156119c7573d6000803e3d6000fd5b505050506040513d601f19601f820116820180604052508101906119eb9190612da6565b73ffffffffffffffffffffffffffffffffffffffff1614611a41576040517f08c379a0000000000000000000000000000000000000000000000000000000008152600401611a3890612e1f565b60405180910390fd5b8373ffffffffffffffffffffffffffffffffffffffff1663095ea7b3600560009054906101000a900473ffffffffffffffffffffffffffffffffffffffff16846040518363ffffffff1660e01b8152600401611a9e929190612e3f565b602060405180830381600087803b158015611ab857600080fd5b505af1158015611acc573d6000803e3d6000fd5b505050506040513d601f19601f82011682018060405250810190611af09190612e7d565b50600e60009054906101000a900460ff1615611be057600560009054906101000a900473ffffffffffffffffffffffffffffffffffffffff1673ffffffffffffffffffffffffffffffffffffffff166380500d20600460009054906101000a900473ffffffffffffffffffffffffffffffffffffffff1684600860009054906101000a900473ffffffffffffffffffffffffffffffffffffffff166040518463ffffffff1660e01b8152600401611ba993929190612d5a565b600060405180830381600087803b158015611bc357600080fd5b505af1158015611bd7573d6000803e3d6000fd5b50505050611d8b565b6000611beb83612247565b905060008184611bfb9190612d26565b9050600560009054906101000a900473ffffffffffffffffffffffffffffffffffffffff1673ffffffffffffffffffffffffffffffffffffffff166380500d20600460009054906101000a900473ffffffffffffffffffffffffffffffffffffffff1683600860009054906101000a900473ffffffffffffffffffffffffffffffffffffffff166040518463ffffffff1660e01b8152600401611ca093929190612d5a565b600060405180830381600087803b158015611cba57600080fd5b505af1158015611cce573d6000803e3d6000fd5b50505050600560009054906101000a900473ffffffffffffffffffffffffffffffffffffffff1673ffffffffffffffffffffffffffffffffffffffff166380500d20600460009054906101000a900473ffffffffffffffffffffffffffffffffffffffff16848c6040518463ffffffff1660e01b8152600401611d5393929190612d5a565b600060405180830381600087803b158015611d6d57600080fd5b505af1158015611d81573d6000803e3d6000fd5b5050505080925050505b5b809450505050509392505050565b88601e60008290508160ff1681511115611de9576040517f08c379a0000000000000000000000000000000000000000000000000000000008152600401611de090613311565b60405180910390fd5b600060019054906101000a900460ff16611e115760008054906101000a900460ff1615611e1a565b611e1961226f565b5b611e59576040517f08c379a0000000000000000000000000000000000000000000000000000000008152600401611e50906133a3565b60405180910390fd5b60008060019054906101000a900460ff161590508015611ea9576001600060016101000a81548160ff02191690831515021790555060016000806101000a81548160ff0219169083151502179055505b60001515600360009054906101000a900460ff16151514611eff576040517f08c379a0000000000000000000000000000000000000000000000000000000008152600401611ef69061340f565b60405180910390fd5b600073ffffffffffffffffffffffffffffffffffffffff16600860009054906101000a900473ffffffffffffffffffffffffffffffffffffffff1673ffffffffffffffffffffffffffffffffffffffff1614611f90576040517f08c379a0000000000000000000000000000000000000000000000000000000008152600401611f879061347b565b60405180910390fd5b88600860006101000a81548173ffffffffffffffffffffffffffffffffffffffff021916908373ffffffffffffffffffffffffffffffffffffffff16021790555033600960006101000a81548173ffffffffffffffffffffffffffffffffffffffff021916908373ffffffffffffffffffffffffffffffffffffffff1602179055508c600a9080519060200190612028929190612293565b508b600b908051906020019061203f929190612293565b508a600c9080519060200190612056929190612293565b5089600d908051906020019061206d929190612293565b5084600e60006101000a81548160ff02191690831515021790555087600460006101000a81548173ffffffffffffffffffffffffffffffffffffffff021916908373ffffffffffffffffffffffffffffffffffffffff16021790555086600560006101000a81548173ffffffffffffffffffffffffffffffffffffffff021916908373ffffffffffffffffffffffffffffffffffffffff16021790555085600660006101000a81548173ffffffffffffffffffffffffffffffffffffffff021916908373ffffffffffffffffffffffffffffffffffffffff1602179055508d60079080519060200190612161929190612319565b5080156121835760008060016101000a81548160ff0219169083151502179055505b5050505050505050505050505050565b6000600460009054906101000a900473ffffffffffffffffffffffffffffffffffffffff1673ffffffffffffffffffffffffffffffffffffffff1663d15e0053836040518263ffffffff1660e01b81526004016121f09190612401565b60206040518083038186803b15801561220857600080fd5b505afa15801561221c573d6000803e3d6000fd5b505050506040513d601f19601f820116820180604052508101906122409190612c5e565b9050919050565b60008060149050612710818461225d919061349b565b6122679190613524565b915050919050565b600061227a30612280565b15905090565b600080823b905060008111915050919050565b82805461229f90612ed9565b90600052602060002090601f0160209004810192826122c15760008555612308565b82601f106122da57805160ff1916838001178555612308565b82800160010185558215612308579182015b828111156123075782518255916020019190600101906122ec565b5b50905061231591906123a3565b5090565b828054828255906000526020600020908101928215612392579160200282015b828111156123915782518260006101000a81548173ffffffffffffffffffffffffffffffffffffffff021916908373ffffffffffffffffffffffffffffffffffffffff16021790555091602001919060010190612339565b5b50905061239f91906123a3565b5090565b5b808211156123bc5760008160009055506001016123a4565b5090565b600073ffffffffffffffffffffffffffffffffffffffff82169050919050565b60006123eb826123c0565b9050919050565b6123fb816123e0565b82525050565b600060208201905061241660008301846123f2565b92915050565b6000604051905090565b600080fd5b600080fd5b612439816123e0565b811461244457600080fd5b50565b60008135905061245681612430565b92915050565b60006020828403121561247257612471612426565b5b600061248084828501612447565b91505092915050565b6000819050919050565b61249c81612489565b82525050565b60006020820190506124b76000830184612493565b92915050565b6124c681612489565b81146124d157600080fd5b50565b6000813590506124e3816124bd565b92915050565b60008115159050919050565b6124fe816124e9565b811461250957600080fd5b50565b60008135905061251b816124f5565b92915050565b6000806000806080858703121561253b5761253a612426565b5b600061254987828801612447565b945050602061255a878288016124d4565b935050604061256b87828801612447565b925050606061257c8782880161250c565b91505092959194509250565b600081519050919050565b600082825260208201905092915050565b60005b838110156125c25780820151818401526020810190506125a7565b838111156125d1576000848401525b50505050565b6000601f19601f8301169050919050565b60006125f382612588565b6125fd8185612593565b935061260d8185602086016125a4565b612616816125d7565b840191505092915050565b6000602082019050818103600083015261263b81846125e8565b905092915050565b600081519050919050565b600082825260208201905092915050565b6000819050602082019050919050565b612678816123e0565b82525050565b600061268a838361266f565b60208301905092915050565b6000602082019050919050565b60006126ae82612643565b6126b8818561264e565b93506126c38361265f565b8060005b838110156126f45781516126db888261267e565b97506126e683612696565b9250506001810190506126c7565b5085935050505092915050565b6000602082019050818103600083015261271b81846126a3565b905092915050565b61272c816124e9565b82525050565b60006020820190506127476000830184612723565b92915050565b6000806040838503121561276457612763612426565b5b600061277285828601612447565b9250506020612783858286016124d4565b9150509250929050565b600060e08201905081810360008301526127a7818a6126a3565b90506127b660208301896123f2565b6127c36040830188612723565b81810360608301526127d581876125e8565b905081810360808301526127e981866125e8565b905081810360a08301526127fd81856125e8565b905081810360c083015261281181846125e8565b905098975050505050505050565b600060e082019050612834600083018a612493565b6128416020830189612493565b61284e6040830188612493565b61285b6060830187612493565b6128686080830186612493565b61287560a0830185612493565b61288260c08301846123f2565b98975050505050505050565b6000806000606084860312156128a7576128a6612426565b5b60006128b586828701612447565b93505060206128c686828701612447565b92505060406128d78682870161250c565b9150509250925092565b600080fd5b7f4e487b7100000000000000000000000000000000000000000000000000000000600052604160045260246000fd5b61291e826125d7565b810181811067ffffffffffffffff8211171561293d5761293c6128e6565b5b80604052505050565b600061295061241c565b905061295c8282612915565b919050565b600067ffffffffffffffff82111561297c5761297b6128e6565b5b602082029050602081019050919050565b600080fd5b60006129a56129a084612961565b612946565b905080838252602082019050602084028301858111156129c8576129c761298d565b5b835b818110156129f157806129dd8882612447565b8452602084019350506020810190506129ca565b5050509392505050565b600082601f830112612a1057612a0f6128e1565b5b8135612a20848260208601612992565b91505092915050565b600080fd5b600067ffffffffffffffff821115612a4957612a486128e6565b5b612a52826125d7565b9050602081019050919050565b82818337600083830152505050565b6000612a81612a7c84612a2e565b612946565b905082815260208101848484011115612a9d57612a9c612a29565b5b612aa8848285612a5f565b509392505050565b600082601f830112612ac557612ac46128e1565b5b8135612ad5848260208601612a6e565b91505092915050565b6000806000806000806000806000806101408b8d031215612b0257612b01612426565b5b60008b013567ffffffffffffffff811115612b2057612b1f61242b565b5b612b2c8d828e016129fb565b9a505060208b013567ffffffffffffffff811115612b4d57612b4c61242b565b5b612b598d828e01612ab0565b99505060408b013567ffffffffffffffff811115612b7a57612b7961242b565b5b612b868d828e01612ab0565b98505060608b013567ffffffffffffffff811115612ba757612ba661242b565b5b612bb38d828e01612ab0565b97505060808b013567ffffffffffffffff811115612bd457612bd361242b565b5b612be08d828e01612ab0565b96505060a0612bf18d828e01612447565b95505060c0612c028d828e01612447565b94505060e0612c138d828e01612447565b935050610100612c258d828e01612447565b925050610120612c378d828e0161250c565b9150509295989b9194979a5092959850565b600081519050612c58816124bd565b92915050565b600060208284031215612c7457612c73612426565b5b6000612c8284828501612c49565b91505092915050565b7f6e6f7420746865206f776e657200000000000000000000000000000000000000600082015250565b6000612cc1600d83612593565b9150612ccc82612c8b565b602082019050919050565b60006020820190508181036000830152612cf081612cb4565b9050919050565b7f4e487b7100000000000000000000000000000000000000000000000000000000600052601160045260246000fd5b6000612d3182612489565b9150612d3c83612489565b925082821015612d4f57612d4e612cf7565b5b828203905092915050565b6000606082019050612d6f60008301866123f2565b612d7c6020830185612493565b612d8960408301846123f2565b949350505050565b600081519050612da081612430565b92915050565b600060208284031215612dbc57612dbb612426565b5b6000612dca84828501612d91565b91505092915050565b7f617373657420646f6573206e6f74206d61746368205745544847617465776179600082015250565b6000612e09602083612593565b9150612e1482612dd3565b602082019050919050565b60006020820190508181036000830152612e3881612dfc565b9050919050565b6000604082019050612e5460008301856123f2565b612e616020830184612493565b9392505050565b600081519050612e77816124f5565b92915050565b600060208284031215612e9357612e92612426565b5b6000612ea184828501612e68565b91505092915050565b7f4e487b7100000000000000000000000000000000000000000000000000000000600052602260045260246000fd5b60006002820490506001821680612ef157607f821691505b60208210811415612f0557612f04612eaa565b5b50919050565b7f4e487b7100000000000000000000000000000000000000000000000000000000600052603260045260246000fd5b600060ff82169050919050565b6000612f5282612f3a565b915060ff821415612f6657612f65612cf7565b5b600182019050919050565b7f746f6b656e206e6f74206163636570746564206279206a63706f6f6c00000000600082015250565b6000612fa7601c83612593565b9150612fb282612f71565b602082019050919050565b60006020820190508181036000830152612fd681612f9a565b9050919050565b6000612fe882612489565b9150612ff383612489565b9250827fffffffffffffffffffffffffffffffffffffffffffffffffffffffffffffffff0382111561302857613027612cf7565b5b828201905092915050565b600080fd5b60006020828403121561304e5761304d613033565b5b6130586020612946565b9050600061306884828501612c49565b60008301525092915050565b60006fffffffffffffffffffffffffffffffff82169050919050565b61309981613074565b81146130a457600080fd5b50565b6000815190506130b681613090565b92915050565b600064ffffffffff82169050919050565b6130d6816130bc565b81146130e157600080fd5b50565b6000815190506130f3816130cd565b92915050565b600061ffff82169050919050565b613110816130f9565b811461311b57600080fd5b50565b60008151905061312d81613107565b92915050565b60006101e0828403121561314a57613149613033565b5b6131556101e0612946565b9050600061316584828501613038565b6000830152506020613179848285016130a7565b602083015250604061318d848285016130a7565b60408301525060606131a1848285016130a7565b60608301525060806131b5848285016130a7565b60808301525060a06131c9848285016130a7565b60a08301525060c06131dd848285016130e4565b60c08301525060e06131f18482850161311e565b60e08301525061010061320684828501612d91565b6101008301525061012061321c84828501612d91565b6101208301525061014061323284828501612d91565b6101408301525061016061324884828501612d91565b6101608301525061018061325e848285016130a7565b610180830152506101a0613274848285016130a7565b6101a0830152506101c061328a848285016130a7565b6101c08301525092915050565b60006101e082840312156132ae576132ad612426565b5b60006132bc84828501613133565b91505092915050565b7f737472696e67206f76657220636861726163746572206c696d69740000000000600082015250565b60006132fb601b83612593565b9150613306826132c5565b602082019050919050565b6000602082019050818103600083015261332a816132ee565b9050919050565b7f496e697469616c697a61626c653a20636f6e747261637420697320616c72656160008201527f647920696e697469616c697a6564000000000000000000000000000000000000602082015250565b600061338d602e83612593565b915061339882613331565b604082019050919050565b600060208201905081810360008301526133bc81613380565b9050919050565b7f43616e6e6f7420696e697469616c697a65206261736500000000000000000000600082015250565b60006133f9601683612593565b9150613404826133c3565b602082019050919050565b60006020820190508181036000830152613428816133ec565b9050919050565b7f496e697469616c697a6520616c72656164792063616c6c656400000000000000600082015250565b6000613465601983612593565b91506134708261342f565b602082019050919050565b6000602082019050818103600083015261349481613458565b9050919050565b60006134a682612489565b91506134b183612489565b9250817fffffffffffffffffffffffffffffffffffffffffffffffffffffffffffffffff04831182151516156134ea576134e9612cf7565b5b828202905092915050565b7f4e487b7100000000000000000000000000000000000000000000000000000000600052601260045260246000fd5b600061352f82612489565b915061353a83612489565b92508261354a576135496134f5565b5b82820490509291505056fea264697066735822122001fc729e29f5e13da83235238e49f6b095aef011bf01423ce02a2bd6a9fc8a1e64736f6c63430008090033608060405234801561001057600080fd5b50613e0f806100206000396000f3fe608060405234801561001057600080fd5b506004361061012c5760003560e01c8063519dc8d2116100ad578063a22cb46511610071578063a22cb4651461037b578063b88d4fde14610397578063c4d66de8146103b3578063c87b56dd146103cf578063e985e9c5146103ff5761012c565b8063519dc8d21461029d5780635328c2bf146102cd5780636352211e146102fd57806370a082311461032d57806395d89b411461035d5761012c565b806323b872dd116100f457806323b872dd146101e957806326a45ffb146102055780632e0c3f3c1461023557806342842e0e1461026557806347c6b45e146102815761012c565b806301ffc9a714610131578063026b1d5f1461016157806306fdde031461017f578063081812fc1461019d578063095ea7b3146101cd575b600080fd5b61014b600480360381019061014691906124ab565b61042f565b60405161015891906124f3565b60405180910390f35b610169610511565b604051610176919061254f565b60405180910390f35b61018761053b565b6040516101949190612603565b60405180910390f35b6101b760048036038101906101b2919061265b565b6105cd565b6040516101c4919061254f565b60405180910390f35b6101e760048036038101906101e291906126b4565b610652565b005b61020360048036038101906101fe91906126f4565b61076a565b005b61021f600480360381019061021a919061287c565b6107ca565b60405161022c91906124f3565b60405180910390f35b61024f600480360381019061024a919061265b565b6109d6565b60405161025c9190612922565b60405180910390f35b61027f600480360381019061027a91906126f4565b6109f6565b005b61029b6004803603810190610296919061293d565b610a16565b005b6102b760048036038101906102b29190612990565b610bf6565b6040516102c49190612a7b565b60405180910390f35b6102e760048036038101906102e2919061265b565b610dbc565b6040516102f49190612aee565b60405180910390f35b6103176004803603810190610312919061265b565b610e53565b604051610324919061254f565b60405180910390f35b61034760048036038101906103429190612990565b610f05565b6040516103549190612922565b60405180910390f35b610365610fbd565b6040516103729190612603565b60405180910390f35b61039560048036038101906103909190612b35565b61104f565b005b6103b160048036038101906103ac9190612c16565b611065565b005b6103cd60048036038101906103c89190612990565b6110c7565b005b6103e960048036038101906103e4919061265b565b61124a565b6040516103f69190612603565b60405180910390f35b61041960048036038101906104149190612c99565b61125c565b60405161042691906124f3565b60405180910390f35b60007f80ac58cd000000000000000000000000000000000000000000000000000000007bffffffffffffffffffffffffffffffffffffffffffffffffffffffff1916827bffffffffffffffffffffffffffffffffffffffffffffffffffffffff191614806104fa57507f5b5e139f000000000000000000000000000000000000000000000000000000007bffffffffffffffffffffffffffffffffffffffffffffffffffffffff1916827bffffffffffffffffffffffffffffffffffffffffffffffffffffffff1916145b8061050a5750610509826112f0565b5b9050919050565b600060c960009054906101000a900473ffffffffffffffffffffffffffffffffffffffff16905090565b60606065805461054a90612d08565b80601f016020809104026020016040519081016040528092919081815260200182805461057690612d08565b80156105c35780601f10610598576101008083540402835291602001916105c3565b820191906000526020600020905b8154815290600101906020018083116105a657829003601f168201915b5050505050905090565b60006105d88261135a565b610617576040517f08c379a000000000000000000000000000000000000000000000000000000000815260040161060e90612dac565b60405180910390fd5b6069600083815260200190815260200160002060009054906101000a900473ffffffffffffffffffffffffffffffffffffffff169050919050565b600061065d82610e53565b90508073ffffffffffffffffffffffffffffffffffffffff168373ffffffffffffffffffffffffffffffffffffffff1614156106ce576040517f08c379a00000000000000000000000000000000000000000000000000000000081526004016106c590612e3e565b60405180910390fd5b8073ffffffffffffffffffffffffffffffffffffffff166106ed6113c6565b73ffffffffffffffffffffffffffffffffffffffff16148061071c575061071b816107166113c6565b61125c565b5b61075b576040517f08c379a000000000000000000000000000000000000000000000000000000000815260040161075290612ed0565b60405180910390fd5b61076583836113ce565b505050565b61077b6107756113c6565b82611487565b6107ba576040517f08c379a00000000000000000000000000000000000000000000000000000000081526004016107b190612f62565b60405180910390fd5b6107c5838383611565565b505050565b60003373ffffffffffffffffffffffffffffffffffffffff1660ca60009054906101000a900473ffffffffffffffffffffffffffffffffffffffff1673ffffffffffffffffffffffffffffffffffffffff161461085c576040517f08c379a000000000000000000000000000000000000000000000000000000000815260040161085390612fce565b60405180910390fd5b60008660c960009054906101000a900473ffffffffffffffffffffffffffffffffffffffff168560405160200161089593929190613036565b6040516020818303038152906040528051906020012060001c905060006108bb8261135a565b1561090d578560cb6000848152602001908152602001600020600101819055508660cb6000848152602001908152602001600020600001600082825461090191906130a2565b925050819055506109c8565b60405180606001604052808881526020018781526020018673ffffffffffffffffffffffffffffffffffffffff1681525060cb6000848152602001908152602001600020600082015181600001556020820151816001015560408201518160020160006101000a81548173ffffffffffffffffffffffffffffffffffffffff021916908373ffffffffffffffffffffffffffffffffffffffff1602179055509050506109b988836117cc565b6109c382856119a6565b600190505b809250505095945050505050565b600060cb6000838152602001908152602001600020600001549050919050565b610a1183838360405180602001604052806000815250611065565b505050565b3373ffffffffffffffffffffffffffffffffffffffff1660ca60009054906101000a900473ffffffffffffffffffffffffffffffffffffffff1673ffffffffffffffffffffffffffffffffffffffff1614610aa6576040517f08c379a0000000000000000000000000000000000000000000000000000000008152600401610a9d90612fce565b60405180910390fd5b60008360c960009054906101000a900473ffffffffffffffffffffffffffffffffffffffff1683604051602001610adf93929190613036565b6040516020818303038152906040528051906020012060001c9050610b038161135a565b610b42576040517f08c379a0000000000000000000000000000000000000000000000000000000008152600401610b3990613144565b60405180910390fd5b600060cb600083815260200190815260200160002060000154905083811015610ba0576040517f08c379a0000000000000000000000000000000000000000000000000000000008152600401610b97906131b0565b60405180910390fd5b8381610bac91906131d0565b90506000811415610bd457600060cb6000848152602001908152602001600020600101819055505b8060cb6000848152602001908152602001600020600001819055505050505050565b6060600060c960009054906101000a900473ffffffffffffffffffffffffffffffffffffffff1673ffffffffffffffffffffffffffffffffffffffff16632f7570066040518163ffffffff1660e01b815260040160006040518083038186803b158015610c6257600080fd5b505afa158015610c76573d6000803e3d6000fd5b505050506040513d6000823e3d601f19601f82011682018060405250810190610c9f91906132e1565b905060008151905060008167ffffffffffffffff811115610cc357610cc2612751565b5b604051908082528060200260200182016040528015610cf15781602001602082028036833780820191505090505b50905060005b82811015610db05760008660c960009054906101000a900473ffffffffffffffffffffffffffffffffffffffff16868481518110610d3857610d3761332a565b5b6020026020010151604051602001610d5293929190613036565b6040516020818303038152906040528051906020012060001c9050610d768161135a565b15610d9c5780838381518110610d8f57610d8e61332a565b5b6020026020010181815250505b508080610da890613359565b915050610cf7565b50809350505050919050565b610dc4612365565b60cb600083815260200190815260200160002060405180606001604052908160008201548152602001600182015481526020016002820160009054906101000a900473ffffffffffffffffffffffffffffffffffffffff1673ffffffffffffffffffffffffffffffffffffffff1673ffffffffffffffffffffffffffffffffffffffff16815250509050919050565b6000806067600084815260200190815260200160002060009054906101000a900473ffffffffffffffffffffffffffffffffffffffff169050600073ffffffffffffffffffffffffffffffffffffffff168173ffffffffffffffffffffffffffffffffffffffff161415610efc576040517f08c379a0000000000000000000000000000000000000000000000000000000008152600401610ef390613414565b60405180910390fd5b80915050919050565b60008073ffffffffffffffffffffffffffffffffffffffff168273ffffffffffffffffffffffffffffffffffffffff161415610f76576040517f08c379a0000000000000000000000000000000000000000000000000000000008152600401610f6d906134a6565b60405180910390fd5b606860008373ffffffffffffffffffffffffffffffffffffffff1673ffffffffffffffffffffffffffffffffffffffff168152602001908152602001600020549050919050565b606060668054610fcc90612d08565b80601f0160208091040260200160405190810160405280929190818152602001828054610ff890612d08565b80156110455780601f1061101a57610100808354040283529160200191611045565b820191906000526020600020905b81548152906001019060200180831161102857829003601f168201915b5050505050905090565b61106161105a6113c6565b8383611a1a565b5050565b6110766110706113c6565b83611487565b6110b5576040517f08c379a00000000000000000000000000000000000000000000000000000000081526004016110ac90612f62565b60405180910390fd5b6110c184848484611b87565b50505050565b60006110d36001611be3565b905080156110f7576001600060016101000a81548160ff0219169083151502179055505b61116b6040518060400160405280601581526020017f4a435020436f6e7472696275746f7220546f6b656e00000000000000000000008152506040518060400160405280600481526020017f4a43504300000000000000000000000000000000000000000000000000000000815250611cd3565b8160c960006101000a81548173ffffffffffffffffffffffffffffffffffffffff021916908373ffffffffffffffffffffffffffffffffffffffff1602179055503360ca60006101000a81548173ffffffffffffffffffffffffffffffffffffffff021916908373ffffffffffffffffffffffffffffffffffffffff16021790555080156112465760008060016101000a81548160ff0219169083151502179055507f7f26b83ff96e1f2b6a682f133852f6798a09c465da95921460cefb3847402498600160405161123d9190613518565b60405180910390a15b5050565b606061125582611d30565b9050919050565b6000606a60008473ffffffffffffffffffffffffffffffffffffffff1673ffffffffffffffffffffffffffffffffffffffff16815260200190815260200160002060008373ffffffffffffffffffffffffffffffffffffffff1673ffffffffffffffffffffffffffffffffffffffff16815260200190815260200160002060009054906101000a900460ff16905092915050565b60007f01ffc9a7000000000000000000000000000000000000000000000000000000007bffffffffffffffffffffffffffffffffffffffffffffffffffffffff1916827bffffffffffffffffffffffffffffffffffffffffffffffffffffffff1916149050919050565b60008073ffffffffffffffffffffffffffffffffffffffff166067600084815260200190815260200160002060009054906101000a900473ffffffffffffffffffffffffffffffffffffffff1673ffffffffffffffffffffffffffffffffffffffff1614159050919050565b600033905090565b816069600083815260200190815260200160002060006101000a81548173ffffffffffffffffffffffffffffffffffffffff021916908373ffffffffffffffffffffffffffffffffffffffff160217905550808273ffffffffffffffffffffffffffffffffffffffff1661144183610e53565b73ffffffffffffffffffffffffffffffffffffffff167f8c5be1e5ebec7d5bd14f71427d1e84f3dd0314c0f7b2291e5b200ac8c7c3b92560405160405180910390a45050565b60006114928261135a565b6114d1576040517f08c379a00000000000000000000000000000000000000000000000000000000081526004016114c8906135a5565b60405180910390fd5b60006114dc83610e53565b90508073ffffffffffffffffffffffffffffffffffffffff168473ffffffffffffffffffffffffffffffffffffffff16148061151e575061151d818561125c565b5b8061155c57508373ffffffffffffffffffffffffffffffffffffffff16611544846105cd565b73ffffffffffffffffffffffffffffffffffffffff16145b91505092915050565b8273ffffffffffffffffffffffffffffffffffffffff1661158582610e53565b73ffffffffffffffffffffffffffffffffffffffff16146115db576040517f08c379a00000000000000000000000000000000000000000000000000000000081526004016115d290613637565b60405180910390fd5b600073ffffffffffffffffffffffffffffffffffffffff168273ffffffffffffffffffffffffffffffffffffffff16141561164b576040517f08c379a0000000000000000000000000000000000000000000000000000000008152600401611642906136c9565b60405180910390fd5b611656838383611e82565b6116616000826113ce565b6001606860008573ffffffffffffffffffffffffffffffffffffffff1673ffffffffffffffffffffffffffffffffffffffff16815260200190815260200160002060008282546116b191906131d0565b925050819055506001606860008473ffffffffffffffffffffffffffffffffffffffff1673ffffffffffffffffffffffffffffffffffffffff168152602001908152602001600020600082825461170891906130a2565b92505081905550816067600083815260200190815260200160002060006101000a81548173ffffffffffffffffffffffffffffffffffffffff021916908373ffffffffffffffffffffffffffffffffffffffff160217905550808273ffffffffffffffffffffffffffffffffffffffff168473ffffffffffffffffffffffffffffffffffffffff167fddf252ad1be2c89b69c2b068fc378daa952ba7f163c4a11628f55a4df523b3ef60405160405180910390a46117c7838383611f01565b505050565b600073ffffffffffffffffffffffffffffffffffffffff168273ffffffffffffffffffffffffffffffffffffffff16141561183c576040517f08c379a000000000000000000000000000000000000000000000000000000000815260040161183390613735565b60405180910390fd5b6118458161135a565b15611885576040517f08c379a000000000000000000000000000000000000000000000000000000000815260040161187c906137a1565b60405180910390fd5b61189160008383611e82565b6001606860008473ffffffffffffffffffffffffffffffffffffffff1673ffffffffffffffffffffffffffffffffffffffff16815260200190815260200160002060008282546118e191906130a2565b92505081905550816067600083815260200190815260200160002060006101000a81548173ffffffffffffffffffffffffffffffffffffffff021916908373ffffffffffffffffffffffffffffffffffffffff160217905550808273ffffffffffffffffffffffffffffffffffffffff16600073ffffffffffffffffffffffffffffffffffffffff167fddf252ad1be2c89b69c2b068fc378daa952ba7f163c4a11628f55a4df523b3ef60405160405180910390a46119a260008383611f01565b5050565b6119af8261135a565b6119ee576040517f08c379a00000000000000000000000000000000000000000000000000000000081526004016119e590613833565b60405180910390fd5b80609760008481526020019081526020016000209080519060200190611a1592919061239c565b505050565b8173ffffffffffffffffffffffffffffffffffffffff168373ffffffffffffffffffffffffffffffffffffffff161415611a89576040517f08c379a0000000000000000000000000000000000000000000000000000000008152600401611a809061389f565b60405180910390fd5b80606a60008573ffffffffffffffffffffffffffffffffffffffff1673ffffffffffffffffffffffffffffffffffffffff16815260200190815260200160002060008473ffffffffffffffffffffffffffffffffffffffff1673ffffffffffffffffffffffffffffffffffffffff16815260200190815260200160002060006101000a81548160ff0219169083151502179055508173ffffffffffffffffffffffffffffffffffffffff168373ffffffffffffffffffffffffffffffffffffffff167f17307eab39ab6107e8899845ad3d59bd9653f200f220920489ca2b5937696c3183604051611b7a91906124f3565b60405180910390a3505050565b611b92848484611565565b611b9e84848484611f06565b611bdd576040517f08c379a0000000000000000000000000000000000000000000000000000000008152600401611bd490613931565b60405180910390fd5b50505050565b60008060019054906101000a900460ff1615611c5a5760018260ff16148015611c125750611c103061209d565b155b611c51576040517f08c379a0000000000000000000000000000000000000000000000000000000008152600401611c48906139c3565b60405180910390fd5b60009050611cce565b8160ff1660008054906101000a900460ff1660ff1610611caf576040517f08c379a0000000000000000000000000000000000000000000000000000000008152600401611ca6906139c3565b60405180910390fd5b816000806101000a81548160ff021916908360ff160217905550600190505b919050565b600060019054906101000a900460ff16611d22576040517f08c379a0000000000000000000000000000000000000000000000000000000008152600401611d1990613a55565b60405180910390fd5b611d2c82826120c0565b5050565b6060611d3b8261135a565b611d7a576040517f08c379a0000000000000000000000000000000000000000000000000000000008152600401611d7190613ae7565b60405180910390fd5b6000609760008481526020019081526020016000208054611d9a90612d08565b80601f0160208091040260200160405190810160405280929190818152602001828054611dc690612d08565b8015611e135780601f10611de857610100808354040283529160200191611e13565b820191906000526020600020905b815481529060010190602001808311611df657829003601f168201915b505050505090506000611e24612141565b9050600081511415611e3a578192505050611e7d565b600082511115611e6f578082604051602001611e57929190613b43565b60405160208183030381529060405292505050611e7d565b611e7884612158565b925050505b919050565b600073ffffffffffffffffffffffffffffffffffffffff168373ffffffffffffffffffffffffffffffffffffffff1614611ef1576040517f08c379a0000000000000000000000000000000000000000000000000000000008152600401611ee890613bb3565b60405180910390fd5b611efc8383836121ff565b505050565b505050565b6000611f278473ffffffffffffffffffffffffffffffffffffffff1661209d565b15612090578373ffffffffffffffffffffffffffffffffffffffff1663150b7a02611f506113c6565b8786866040518563ffffffff1660e01b8152600401611f729493929190613c28565b602060405180830381600087803b158015611f8c57600080fd5b505af1925050508015611fbd57506040513d601f19601f82011682018060405250810190611fba9190613c89565b60015b612040573d8060008114611fed576040519150601f19603f3d011682016040523d82523d6000602084013e611ff2565b606091505b50600081511415612038576040517f08c379a000000000000000000000000000000000000000000000000000000000815260040161202f90613931565b60405180910390fd5b805181602001fd5b63150b7a0260e01b7bffffffffffffffffffffffffffffffffffffffffffffffffffffffff1916817bffffffffffffffffffffffffffffffffffffffffffffffffffffffff191614915050612095565b600190505b949350505050565b6000808273ffffffffffffffffffffffffffffffffffffffff163b119050919050565b600060019054906101000a900460ff1661210f576040517f08c379a000000000000000000000000000000000000000000000000000000000815260040161210690613a55565b60405180910390fd5b816065908051906020019061212592919061239c565b50806066908051906020019061213c92919061239c565b505050565b606060405180602001604052806000815250905090565b60606121638261135a565b6121a2576040517f08c379a000000000000000000000000000000000000000000000000000000000815260040161219990613d28565b60405180910390fd5b60006121ac612141565b905060008151116121cc57604051806020016040528060008152506121f7565b806121d684612204565b6040516020016121e7929190613b43565b6040516020818303038152906040525b915050919050565b505050565b6060600082141561224c576040518060400160405280600181526020017f30000000000000000000000000000000000000000000000000000000000000008152509050612360565b600082905060005b6000821461227e57808061226790613359565b915050600a826122779190613d77565b9150612254565b60008167ffffffffffffffff81111561229a57612299612751565b5b6040519080825280601f01601f1916602001820160405280156122cc5781602001600182028036833780820191505090505b5090505b60008514612359576001826122e591906131d0565b9150600a856122f49190613da8565b603061230091906130a2565b60f81b8183815181106123165761231561332a565b5b60200101907effffffffffffffffffffffffffffffffffffffffffffffffffffffffffffff1916908160001a905350600a856123529190613d77565b94506122d0565b8093505050505b919050565b60405180606001604052806000815260200160008152602001600073ffffffffffffffffffffffffffffffffffffffff1681525090565b8280546123a890612d08565b90600052602060002090601f0160209004810192826123ca5760008555612411565b82601f106123e357805160ff1916838001178555612411565b82800160010185558215612411579182015b828111156124105782518255916020019190600101906123f5565b5b50905061241e9190612422565b5090565b5b8082111561243b576000816000905550600101612423565b5090565b6000604051905090565b600080fd5b600080fd5b60007fffffffff0000000000000000000000000000000000000000000000000000000082169050919050565b61248881612453565b811461249357600080fd5b50565b6000813590506124a58161247f565b92915050565b6000602082840312156124c1576124c0612449565b5b60006124cf84828501612496565b91505092915050565b60008115159050919050565b6124ed816124d8565b82525050565b600060208201905061250860008301846124e4565b92915050565b600073ffffffffffffffffffffffffffffffffffffffff82169050919050565b60006125398261250e565b9050919050565b6125498161252e565b82525050565b60006020820190506125646000830184612540565b92915050565b600081519050919050565b600082825260208201905092915050565b60005b838110156125a4578082015181840152602081019050612589565b838111156125b3576000848401525b50505050565b6000601f19601f8301169050919050565b60006125d58261256a565b6125df8185612575565b93506125ef818560208601612586565b6125f8816125b9565b840191505092915050565b6000602082019050818103600083015261261d81846125ca565b905092915050565b6000819050919050565b61263881612625565b811461264357600080fd5b50565b6000813590506126558161262f565b92915050565b60006020828403121561267157612670612449565b5b600061267f84828501612646565b91505092915050565b6126918161252e565b811461269c57600080fd5b50565b6000813590506126ae81612688565b92915050565b600080604083850312156126cb576126ca612449565b5b60006126d98582860161269f565b92505060206126ea85828601612646565b9150509250929050565b60008060006060848603121561270d5761270c612449565b5b600061271b8682870161269f565b935050602061272c8682870161269f565b925050604061273d86828701612646565b9150509250925092565b600080fd5b600080fd5b7f4e487b7100000000000000000000000000000000000000000000000000000000600052604160045260246000fd5b612789826125b9565b810181811067ffffffffffffffff821117156127a8576127a7612751565b5b80604052505050565b60006127bb61243f565b90506127c78282612780565b919050565b600067ffffffffffffffff8211156127e7576127e6612751565b5b6127f0826125b9565b9050602081019050919050565b82818337600083830152505050565b600061281f61281a846127cc565b6127b1565b90508281526020810184848401111561283b5761283a61274c565b5b6128468482856127fd565b509392505050565b600082601f83011261286357612862612747565b5b813561287384826020860161280c565b91505092915050565b600080600080600060a0868803121561289857612897612449565b5b60006128a68882890161269f565b95505060206128b788828901612646565b94505060406128c888828901612646565b93505060606128d98882890161269f565b925050608086013567ffffffffffffffff8111156128fa576128f961244e565b5b6129068882890161284e565b9150509295509295909350565b61291c81612625565b82525050565b60006020820190506129376000830184612913565b92915050565b60008060006060848603121561295657612955612449565b5b60006129648682870161269f565b935050602061297586828701612646565b92505060406129868682870161269f565b9150509250925092565b6000602082840312156129a6576129a5612449565b5b60006129b48482850161269f565b91505092915050565b600081519050919050565b600082825260208201905092915050565b6000819050602082019050919050565b6129f281612625565b82525050565b6000612a0483836129e9565b60208301905092915050565b6000602082019050919050565b6000612a28826129bd565b612a3281856129c8565b9350612a3d836129d9565b8060005b83811015612a6e578151612a5588826129f8565b9750612a6083612a10565b925050600181019050612a41565b5085935050505092915050565b60006020820190508181036000830152612a958184612a1d565b905092915050565b612aa68161252e565b82525050565b606082016000820151612ac260008501826129e9565b506020820151612ad560208501826129e9565b506040820151612ae86040850182612a9d565b50505050565b6000606082019050612b036000830184612aac565b92915050565b612b12816124d8565b8114612b1d57600080fd5b50565b600081359050612b2f81612b09565b92915050565b60008060408385031215612b4c57612b4b612449565b5b6000612b5a8582860161269f565b9250506020612b6b85828601612b20565b9150509250929050565b600067ffffffffffffffff821115612b9057612b8f612751565b5b612b99826125b9565b9050602081019050919050565b6000612bb9612bb484612b75565b6127b1565b905082815260208101848484011115612bd557612bd461274c565b5b612be08482856127fd565b509392505050565b600082601f830112612bfd57612bfc612747565b5b8135612c0d848260208601612ba6565b91505092915050565b60008060008060808587031215612c3057612c2f612449565b5b6000612c3e8782880161269f565b9450506020612c4f8782880161269f565b9350506040612c6087828801612646565b925050606085013567ffffffffffffffff811115612c8157612c8061244e565b5b612c8d87828801612be8565b91505092959194509250565b60008060408385031215612cb057612caf612449565b5b6000612cbe8582860161269f565b9250506020612ccf8582860161269f565b9150509250929050565b7f4e487b7100000000000000000000000000000000000000000000000000000000600052602260045260246000fd5b60006002820490506001821680612d2057607f821691505b60208210811415612d3457612d33612cd9565b5b50919050565b7f4552433732313a20617070726f76656420717565727920666f72206e6f6e657860008201527f697374656e7420746f6b656e0000000000000000000000000000000000000000602082015250565b6000612d96602c83612575565b9150612da182612d3a565b604082019050919050565b60006020820190508181036000830152612dc581612d89565b9050919050565b7f4552433732313a20617070726f76616c20746f2063757272656e74206f776e6560008201527f7200000000000000000000000000000000000000000000000000000000000000602082015250565b6000612e28602183612575565b9150612e3382612dcc565b604082019050919050565b60006020820190508181036000830152612e5781612e1b565b9050919050565b7f4552433732313a20617070726f76652063616c6c6572206973206e6f74206f7760008201527f6e6572206e6f7220617070726f76656420666f7220616c6c0000000000000000602082015250565b6000612eba603883612575565b9150612ec582612e5e565b604082019050919050565b60006020820190508181036000830152612ee981612ead565b9050919050565b7f4552433732313a207472616e736665722063616c6c6572206973206e6f74206f60008201527f776e6572206e6f7220617070726f766564000000000000000000000000000000602082015250565b6000612f4c603183612575565b9150612f5782612ef0565b604082019050919050565b60006020820190508181036000830152612f7b81612f3f565b9050919050565b7f6e6f7420746865206f776e657200000000000000000000000000000000000000600082015250565b6000612fb8600d83612575565b9150612fc382612f82565b602082019050919050565b60006020820190508181036000830152612fe781612fab565b9050919050565b60008160601b9050919050565b600061300682612fee565b9050919050565b600061301882612ffb565b9050919050565b61303061302b8261252e565b61300d565b82525050565b6000613042828661301f565b601482019150613052828561301f565b601482019150613062828461301f565b601482019150819050949350505050565b7f4e487b7100000000000000000000000000000000000000000000000000000000600052601160045260246000fd5b60006130ad82612625565b91506130b883612625565b9250827fffffffffffffffffffffffffffffffffffffffffffffffffffffffffffffffff038211156130ed576130ec613073565b5b828201905092915050565b7f746f6b656e496420646f65736e27742065786973740000000000000000000000600082015250565b600061312e601583612575565b9150613139826130f8565b602082019050919050565b6000602082019050818103600083015261315d81613121565b9050919050565b7f696e73756666696369656e742062616c616e6365000000000000000000000000600082015250565b600061319a601483612575565b91506131a582613164565b602082019050919050565b600060208201905081810360008301526131c98161318d565b9050919050565b60006131db82612625565b91506131e683612625565b9250828210156131f9576131f8613073565b5b828203905092915050565b600067ffffffffffffffff82111561321f5761321e612751565b5b602082029050602081019050919050565b600080fd5b60008151905061324481612688565b92915050565b600061325d61325884613204565b6127b1565b905080838252602082019050602084028301858111156132805761327f613230565b5b835b818110156132a957806132958882613235565b845260208401935050602081019050613282565b5050509392505050565b600082601f8301126132c8576132c7612747565b5b81516132d884826020860161324a565b91505092915050565b6000602082840312156132f7576132f6612449565b5b600082015167ffffffffffffffff8111156133155761331461244e565b5b613321848285016132b3565b91505092915050565b7f4e487b7100000000000000000000000000000000000000000000000000000000600052603260045260246000fd5b600061336482612625565b91507fffffffffffffffffffffffffffffffffffffffffffffffffffffffffffffffff82141561339757613396613073565b5b600182019050919050565b7f4552433732313a206f776e657220717565727920666f72206e6f6e657869737460008201527f656e7420746f6b656e0000000000000000000000000000000000000000000000602082015250565b60006133fe602983612575565b9150613409826133a2565b604082019050919050565b6000602082019050818103600083015261342d816133f1565b9050919050565b7f4552433732313a2062616c616e636520717565727920666f7220746865207a6560008201527f726f206164647265737300000000000000000000000000000000000000000000602082015250565b6000613490602a83612575565b915061349b82613434565b604082019050919050565b600060208201905081810360008301526134bf81613483565b9050919050565b6000819050919050565b600060ff82169050919050565b6000819050919050565b60006135026134fd6134f8846134c6565b6134dd565b6134d0565b9050919050565b613512816134e7565b82525050565b600060208201905061352d6000830184613509565b92915050565b7f4552433732313a206f70657261746f7220717565727920666f72206e6f6e657860008201527f697374656e7420746f6b656e0000000000000000000000000000000000000000602082015250565b600061358f602c83612575565b915061359a82613533565b604082019050919050565b600060208201905081810360008301526135be81613582565b9050919050565b7f4552433732313a207472616e736665722066726f6d20696e636f72726563742060008201527f6f776e6572000000000000000000000000000000000000000000000000000000602082015250565b6000613621602583612575565b915061362c826135c5565b604082019050919050565b6000602082019050818103600083015261365081613614565b9050919050565b7f4552433732313a207472616e7366657220746f20746865207a65726f2061646460008201527f7265737300000000000000000000000000000000000000000000000000000000602082015250565b60006136b3602483612575565b91506136be82613657565b604082019050919050565b600060208201905081810360008301526136e2816136a6565b9050919050565b7f4552433732313a206d696e7420746f20746865207a65726f2061646472657373600082015250565b600061371f602083612575565b915061372a826136e9565b602082019050919050565b6000602082019050818103600083015261374e81613712565b9050919050565b7f4552433732313a20746f6b656e20616c7265616479206d696e74656400000000600082015250565b600061378b601c83612575565b915061379682613755565b602082019050919050565b600060208201905081810360008301526137ba8161377e565b9050919050565b7f45524337323155524953746f726167653a2055524920736574206f66206e6f6e60008201527f6578697374656e7420746f6b656e000000000000000000000000000000000000602082015250565b600061381d602e83612575565b9150613828826137c1565b604082019050919050565b6000602082019050818103600083015261384c81613810565b9050919050565b7f4552433732313a20617070726f766520746f2063616c6c657200000000000000600082015250565b6000613889601983612575565b915061389482613853565b602082019050919050565b600060208201905081810360008301526138b88161387c565b9050919050565b7f4552433732313a207472616e7366657220746f206e6f6e20455243373231526560008201527f63656976657220696d706c656d656e7465720000000000000000000000000000602082015250565b600061391b603283612575565b9150613926826138bf565b604082019050919050565b6000602082019050818103600083015261394a8161390e565b9050919050565b7f496e697469616c697a61626c653a20636f6e747261637420697320616c72656160008201527f647920696e697469616c697a6564000000000000000000000000000000000000602082015250565b60006139ad602e83612575565b91506139b882613951565b604082019050919050565b600060208201905081810360008301526139dc816139a0565b9050919050565b7f496e697469616c697a61626c653a20636f6e7472616374206973206e6f74206960008201527f6e697469616c697a696e67000000000000000000000000000000000000000000602082015250565b6000613a3f602b83612575565b9150613a4a826139e3565b604082019050919050565b60006020820190508181036000830152613a6e81613a32565b9050919050565b7f45524337323155524953746f726167653a2055524920717565727920666f722060008201527f6e6f6e6578697374656e7420746f6b656e000000000000000000000000000000602082015250565b6000613ad1603183612575565b9150613adc82613a75565b604082019050919050565b60006020820190508181036000830152613b0081613ac4565b9050919050565b600081905092915050565b6000613b1d8261256a565b613b278185613b07565b9350613b37818560208601612586565b80840191505092915050565b6000613b4f8285613b12565b9150613b5b8284613b12565b91508190509392505050565b7f6e6f6e2d7472616e736665727261626c65000000000000000000000000000000600082015250565b6000613b9d601183612575565b9150613ba882613b67565b602082019050919050565b60006020820190508181036000830152613bcc81613b90565b9050919050565b600081519050919050565b600082825260208201905092915050565b6000613bfa82613bd3565b613c048185613bde565b9350613c14818560208601612586565b613c1d816125b9565b840191505092915050565b6000608082019050613c3d6000830187612540565b613c4a6020830186612540565b613c576040830185612913565b8181036060830152613c698184613bef565b905095945050505050565b600081519050613c838161247f565b92915050565b600060208284031215613c9f57613c9e612449565b5b6000613cad84828501613c74565b91505092915050565b7f4552433732314d657461646174613a2055524920717565727920666f72206e6f60008201527f6e6578697374656e7420746f6b656e0000000000000000000000000000000000602082015250565b6000613d12602f83612575565b9150613d1d82613cb6565b604082019050919050565b60006020820190508181036000830152613d4181613d05565b9050919050565b7f4e487b7100000000000000000000000000000000000000000000000000000000600052601260045260246000fd5b6000613d8282612625565b9150613d8d83612625565b925082613d9d57613d9c613d48565b5b828204905092915050565b6000613db382612625565b9150613dbe83612625565b925082613dce57613dcd613d48565b5b82820690509291505056fea2646970667358221220e77cb6dec20232a22cd409af7762dd7e86f4baa13b03a11304f7f50c96f0326864736f6c63430008090033",
  "immutableReferences": {},
  "source": "// SPDX-License-Identifier: AGPL-3.0\npragma solidity 0.8.9;\n\nimport { IERC20} from './interfaces/other/IERC20.sol';\nimport { IPool} from './interfaces/aave/IPool.sol';\nimport { IPoolAddressesProvider} from './interfaces/aave/IPoolAddressesProvider.sol';\nimport { IWETHGateway} from './interfaces/aave/IWETHGateway.sol';\nimport { IJustCausePool } from './interfaces/protocol/IJustCausePool.sol';\nimport { IJCDepositorERC721 } from './interfaces/protocol/IJCDepositorERC721.sol';\nimport { JCDepositorERC721 } from './JCDepositorERC721.sol';\nimport { JustCausePool } from './JustCausePool.sol';\n\nimport \"@openzeppelin/contracts/security/ReentrancyGuard.sol\";\n\n/**\n * @title PoolTracker contract\n * @author JustCause\n * @notice Main point of interaction with JustCause Protocol\n * This is a proof of concept starter contract for lossless donations\n *\n * Aave v3 is used to generate interest for crowdfunding\n *\n * PoolTracker contract controls deposit calls to Aave to make\n * approvals needed only once per token. Calls JustCause Pools for\n * withdrawals and claims\n *\n * Controls Owner/Contributor NFT creation and updates for deposits/withdrawals\n *\n * Controls JustCause Pool creation with proxy contracts\n *\n * @dev Deposits, withdraws, and claims for Aave Pools\n * @dev Generate ERC721 token\n **/\n\ncontract PoolTracker is ReentrancyGuard {\n\n    JustCausePool baseJCPool;\n    JCDepositorERC721 baseERC721;\n\n    //contract addresses will point to bool if they exist\n    mapping(address => bool) private isPool;\n    mapping(string => address) private names;\n    mapping(address => uint256) private tvl;\n    mapping(address => uint256) private totalDonated;\n    mapping(address => address[]) private contributors;\n    mapping(address => address[]) private receivers;\n    address[] private verifiedPools;\n\n    address poolAddr;\n    address wethGatewayAddr;\n    address validator;\n\n    event AddPool(address pool, string name, address receiver);\n    event AddDeposit(address userAddr, address pool, address asset, uint256 amount);\n    event WithdrawDeposit(address userAddr, address pool, address asset, uint256 amount);\n    event Claim(address userAddr, address receiver, address pool, address asset, uint256 amount);\n    event Test(address[] aaveAccepted, address[] causeAccepted );\n\n    /**\n    * @dev Only address that are a pool can be passed to functions marked by this modifier.\n    **/\n    modifier onlyPools(address _pool){\n        require(isPool[_pool], \"not pool\");\n        _;\n    }\n\n    /**\n    * @dev Only tokens that are accepted by Aave can be used in JCP creation\n    **/\n    modifier onlyAcceptedTokens(address[] memory causeAcceptedTokens){\n        address[] memory aaveAcceptedTokens = IPool(poolAddr).getReservesList();\n        for(uint8 i = 0; i < causeAcceptedTokens.length; i++){\n            bool found;\n            for(uint8 j = 0; j < aaveAcceptedTokens.length; j++){\n                if(causeAcceptedTokens[i] == aaveAcceptedTokens[j]){\n                    found = true;\n                }\n            }\n            require(found, \"tokens not approved\");\n        }\n        _;\n    }\n\n    /**\n    * @dev Only tokens that are accepted by Aave can be passed to functions marked by this modifier.\n    **/\n    modifier onlyAcceptedToken(address _asset){\n        address[] memory aaveAcceptedTokens = IPool(poolAddr).getReservesList();\n        bool found;\n        for(uint8 j = 0; j < aaveAcceptedTokens.length; j++){\n            if(_asset == aaveAcceptedTokens[j]){\n                found = true;\n            }\n        }\n        require(found, \"token not approved\");\n        _;\n    }\n\n    /**\n    * @dev Constructor.\n    */\n    constructor (address _poolAddressesProviderAddr, address _wethGatewayAddr) {\n        validator = msg.sender;\n        baseJCPool = new JustCausePool();\n        baseERC721 = new JCDepositorERC721();\n\n        poolAddr = IPoolAddressesProvider(_poolAddressesProviderAddr).getPool();\n        wethGatewayAddr = address(_wethGatewayAddr);\n    }\n\n    /**\n    * @dev Emit AddDeposit\n    * @param _asset The address of the underlying asset of the reserve\n    * @param _amount The amount of supplied assets\n    * @param _pool address of JCP\n    * @param _isETH bool indicating if asset is the base token of network (eth/matic/...)\n    **/\n    function addDeposit(uint256 _amount, address _asset, address _pool, bool _isETH) onlyPools(_pool) nonReentrant() external payable {\n        tvl[_asset] += _amount;\n        string memory _metaHash = IJustCausePool(_pool).getMetaUri();\n        address _poolAddr = poolAddr;\n        if(_isETH){\n            require(IWETHGateway(wethGatewayAddr).getWETHAddress() == _asset, \"asset does not match WETHGateway\");\n            require(msg.value > 0, \"msg.value cannot be zero\");\n            IWETHGateway(wethGatewayAddr).depositETH{value: msg.value}(_poolAddr, _pool, 0);\n        }\n        else {\n            require(msg.value == 0, \"msg.value is not zero\");\n            IERC20 token = IERC20(_asset);\n            require(token.allowance(msg.sender, address(this)) >= _amount, \"sender not approved\");\n            token.transferFrom(msg.sender, address(this), _amount);\n            token.approve(_poolAddr, _amount);\n            IPool(_poolAddr).deposit(address(token), _amount, _pool, 0);\n        }\n        IJustCausePool(_pool).deposit(_asset, _amount);\n        bool isFirstDeposit = IJCDepositorERC721(IJustCausePool(_pool).getERC721Address()).addFunds(msg.sender, _amount, block.timestamp, _asset, _metaHash);\n        if(isFirstDeposit){\n            contributors[msg.sender].push(_pool);\n        }\n        emit AddDeposit(msg.sender, _pool, _asset, _amount);\n    }\n\n    /**\n    * @dev Emit WithdrawDeposit\n    * @param _asset The address of the underlying asset of the reserve\n    * @param _amount The amount of withdraw assets\n    * @param _pool address of JCP\n    * @param _isETH bool indicating if asset is the base token of network (eth/matic/...)\n    **/\n    function withdrawDeposit(uint256 _amount, address _asset, address _pool, bool _isETH) external  onlyPools(_pool) nonReentrant(){\n        tvl[_asset] -= _amount;\n        IJCDepositorERC721(IJustCausePool(_pool).getERC721Address()).withdrawFunds(msg.sender, _amount, _asset);\n        IJustCausePool(_pool).withdraw(_asset, _amount, msg.sender, _isETH);\n        emit WithdrawDeposit(msg.sender, _pool, _asset, _amount);\n    }\n\n    /**\n    * @dev Emit Claim\n    * @param _asset The address of the underlying asset of the reserve\n    * @param _pool address of JCP\n    * @param _isETH bool indicating if asset is the base token of network (eth/matic/...)\n    **/\n    function claimInterest(address _asset, address _pool, bool _isETH) external onlyPools(_pool) nonReentrant() onlyAcceptedToken(_asset){\n        uint256 amount = IJustCausePool(_pool).withdrawDonations(_asset, validator, _isETH);\n        totalDonated[_asset] += amount;\n        emit Claim(msg.sender, IJustCausePool(_pool).getRecipient(), _pool, _asset, amount);\n    }\n\n    /**\n     * @param basePool address of base contract\n     * @return instance proxy instance of JCP\n     * @dev Deploys and returns the address of a clone that mimics the behaviour of `implementation`.\n     *\n     * This function uses the create opcode, which should never revert.\n     **/\n    function clone(address basePool) internal returns (address instance) {\n        assembly {\n            let ptr := mload(0x40)\n            mstore(ptr, 0x3d602d80600a3d3981f3363d3d373d3d3d363d73000000000000000000000000)\n            mstore(add(ptr, 0x14), shl(0x60, basePool))\n            mstore(add(ptr, 0x28), 0x5af43d82803e903d91602b57fd5bf30000000000000000000000000000000000)\n            instance := create(0, ptr, 0x37)\n        }\n        require(instance != address(0), \"ERC1167: create failed\");\n    }\n\n    /**\n    * @dev Emit AddPool\n    * @notice Creates new JustCause Pool by proxy contract.\n    * @param _acceptedTokens List of tokens to be accepted by JCP.\n    * @param _name String name of JCP.\n    * @param _about ipfs hash of pool description of JCP.\n    * @param _picHash ipfs hash of pic of JCP.\n    * @param _metaUri meta info uri for nft of JCP.\n    * @param _receiver address of receiver of JCP donations.\n    **/\n    function createJCPoolClone(\n        address[] memory _acceptedTokens,\n        string memory _name,\n        string memory _about,\n        string memory _picHash,\n        string memory _metaUri,\n        address _receiver\n    ) external onlyAcceptedTokens(_acceptedTokens){\n\n        require(names[_name] == address(0), \"pool with name already exists\");\n        address jcpChild = clone(address(baseJCPool));\n        address erc721Child = clone(address(baseERC721));\n        bool isVerified;\n        if(msg.sender == validator){\n            verifiedPools.push(jcpChild);\n            isVerified = true;\n        }\n\n        IJustCausePool(jcpChild).initialize(_acceptedTokens, _name, _about, _picHash, _metaUri, _receiver, poolAddr, wethGatewayAddr, erc721Child, isVerified);\n        IJCDepositorERC721(erc721Child).initialize(jcpChild);\n        receivers[_receiver].push(jcpChild);\n        names[_name] =  jcpChild;\n\n        isPool[jcpChild] = true;\n        emit AddPool(jcpChild, _name, _receiver);\n    }\n\n    /**\n    * @param _asset The address of the underlying asset of the reserve\n    * @return tvl of the protocol for a given asset\n    **/\n    function getTVL(address _asset) public view returns(uint256){\n        return tvl[_asset];\n    }\n\n    /**\n    * @param _asset The address of the underlying asset of the reserve\n    * @return total claimed donation for a given asset\n    **/\n    function getTotalDonated(address _asset) public view returns(uint256){\n        return totalDonated[_asset];\n    }\n\n    /**\n    * @return address of ERC721 for depositors, created on deployment\n    **/\n    function getDepositorERC721Address() public view returns(address){\n        return address(baseERC721);\n    }\n\n    /**\n    * @param _user address to check for receiver\n    * @return address[] of pools that a user is a receiver for\n    **/\n    function getReceiverPools(address _user) public view returns(address[] memory){\n        return receivers[_user];\n    }\n\n    /**\n    * @return address of validator\n    **/\n    function getValidator() public view returns(address){\n        return validator;\n    }\n\n    /**\n    * @param _user The address of the underlying asset of the reserve\n    * @return address[] of pools\n    **/\n    function getContributions(address _user) public view returns(address[] memory){\n        return contributors[_user];\n    }\n\n    /**\n    * @return address of aave pool\n    **/\n    function getPoolAddr() public view returns(address){\n        return poolAddr;\n    }\n\n    /**\n    * @return address array of aave reserve list\n    **/\n    function getReservesList() public view returns(address[] memory){\n        return IPool(poolAddr).getReservesList();\n    }\n\n    /**\n    * @return address of base JCP, created on deployment\n    **/\n    function getBaseJCPoolAddress() public view returns(address){\n        return address(baseJCPool);\n    }\n\n    /**\n    * @return list of verified pools\n    **/\n    function getVerifiedPools() public view returns(address[] memory){\n        return verifiedPools;\n    }\n\n    /**\n    * @param _pool address of pool\n    * @return true if pool address exists\n    **/\n    function checkPool(address _pool) public view returns(bool){\n        return isPool[_pool];\n    }\n\n    /**\n    * @param _name string name of pool\n    * @return pool address of a given pool name\n    **/\n    function getAddressFromName(string memory _name) external view returns(address){\n        return names[_name];\n    }\n}",
  "sourcePath": "/home/smeee/just_cause/contracts/polygon/PoolTracker.sol",
  "compiler": {
    "name": "solc",
    "version": "0.8.9+commit.e5eed63a.Emscripten.clang"
  },
  "schemaVersion": "3.4.7",
  "updatedAt": "2022-06-04T02:09:16.132Z",
  "networkType": "ethereum",
  "devdoc": {
    "author": "JustCause",
    "details": "Deposits, withdraws, and claims for Aave PoolsGenerate ERC721 token*",
    "kind": "dev",
    "methods": {
      "addDeposit(uint256,address,address,bool)": {
        "details": "Emit AddDeposit",
        "params": {
          "_amount": "The amount of supplied assets",
          "_asset": "The address of the underlying asset of the reserve",
          "_isETH": "bool indicating if asset is the base token of network (eth/matic/...)*",
          "_pool": "address of JCP"
        }
      },
      "checkPool(address)": {
        "params": {
          "_pool": "address of pool"
        },
        "returns": {
          "_0": "true if pool address exists*"
        }
      },
      "claimInterest(address,address,bool)": {
        "details": "Emit Claim",
        "params": {
          "_asset": "The address of the underlying asset of the reserve",
          "_isETH": "bool indicating if asset is the base token of network (eth/matic/...)*",
          "_pool": "address of JCP"
        }
      },
      "constructor": {
        "details": "Constructor."
      },
      "createJCPoolClone(address[],string,string,string,string,address)": {
        "details": "Emit AddPool",
        "params": {
          "_about": "ipfs hash of pool description of JCP.",
          "_acceptedTokens": "List of tokens to be accepted by JCP.",
          "_metaUri": "meta info uri for nft of JCP.",
          "_name": "String name of JCP.",
          "_picHash": "ipfs hash of pic of JCP.",
          "_receiver": "address of receiver of JCP donations.*"
        }
      },
      "getAddressFromName(string)": {
        "params": {
          "_name": "string name of pool"
        },
        "returns": {
          "_0": "pool address of a given pool name*"
        }
      },
      "getBaseJCPoolAddress()": {
        "returns": {
          "_0": "address of base JCP, created on deployment*"
        }
      },
      "getContributions(address)": {
        "params": {
          "_user": "The address of the underlying asset of the reserve"
        },
        "returns": {
          "_0": "address[] of pools*"
        }
      },
      "getDepositorERC721Address()": {
        "returns": {
          "_0": "address of ERC721 for depositors, created on deployment*"
        }
      },
      "getPoolAddr()": {
        "returns": {
          "_0": "address of aave pool*"
        }
      },
      "getReceiverPools(address)": {
        "params": {
          "_user": "address to check for receiver"
        },
        "returns": {
          "_0": "address[] of pools that a user is a receiver for*"
        }
      },
      "getReservesList()": {
        "returns": {
          "_0": "address array of aave reserve list*"
        }
      },
      "getTVL(address)": {
        "params": {
          "_asset": "The address of the underlying asset of the reserve"
        },
        "returns": {
          "_0": "tvl of the protocol for a given asset*"
        }
      },
      "getTotalDonated(address)": {
        "params": {
          "_asset": "The address of the underlying asset of the reserve"
        },
        "returns": {
          "_0": "total claimed donation for a given asset*"
        }
      },
      "getValidator()": {
        "returns": {
          "_0": "address of validator*"
        }
      },
      "getVerifiedPools()": {
        "returns": {
          "_0": "list of verified pools*"
        }
      },
      "withdrawDeposit(uint256,address,address,bool)": {
        "details": "Emit WithdrawDeposit",
        "params": {
          "_amount": "The amount of withdraw assets",
          "_asset": "The address of the underlying asset of the reserve",
          "_isETH": "bool indicating if asset is the base token of network (eth/matic/...)*",
          "_pool": "address of JCP"
        }
      }
    },
    "title": "PoolTracker contract",
    "version": 1
  },
  "userdoc": {
    "kind": "user",
    "methods": {
      "createJCPoolClone(address[],string,string,string,string,address)": {
        "notice": "Creates new JustCause Pool by proxy contract."
      }
    },
    "notice": "Main point of interaction with JustCause Protocol This is a proof of concept starter contract for lossless donations Aave v3 is used to generate interest for crowdfunding PoolTracker contract controls deposit calls to Aave to make approvals needed only once per token. Calls JustCause Pools for withdrawals and claims Controls Owner/Contributor NFT creation and updates for deposits/withdrawals Controls JustCause Pool creation with proxy contracts",
    "version": 1
  }
}