{
  "contractName": "PoolTracker",
  "abi": [
    {
      "inputs": [],
      "stateMutability": "nonpayable",
      "type": "constructor"
    },
    {
      "anonymous": false,
      "inputs": [
        {
          "indexed": false,
          "internalType": "address",
          "name": "userAddr",
          "type": "address"
        },
        {
          "indexed": false,
          "internalType": "address",
          "name": "pool",
          "type": "address"
        },
        {
          "indexed": false,
          "internalType": "address",
          "name": "asset",
          "type": "address"
        },
        {
          "indexed": false,
          "internalType": "uint256",
          "name": "amount",
          "type": "uint256"
        }
      ],
      "name": "AddDeposit",
      "type": "event"
    },
    {
      "anonymous": false,
      "inputs": [
        {
          "indexed": false,
          "internalType": "address",
          "name": "pool",
          "type": "address"
        },
        {
          "indexed": false,
          "internalType": "string",
          "name": "name",
          "type": "string"
        },
        {
          "indexed": false,
          "internalType": "address",
          "name": "receiver",
          "type": "address"
        }
      ],
      "name": "AddPool",
      "type": "event"
    },
    {
      "anonymous": false,
      "inputs": [
        {
          "indexed": false,
          "internalType": "address",
          "name": "userAddr",
          "type": "address"
        },
        {
          "indexed": false,
          "internalType": "address",
          "name": "receiver",
          "type": "address"
        },
        {
          "indexed": false,
          "internalType": "address",
          "name": "pool",
          "type": "address"
        },
        {
          "indexed": false,
          "internalType": "address",
          "name": "asset",
          "type": "address"
        },
        {
          "indexed": false,
          "internalType": "uint256",
          "name": "amount",
          "type": "uint256"
        }
      ],
      "name": "Claim",
      "type": "event"
    },
    {
      "anonymous": false,
      "inputs": [
        {
          "indexed": false,
          "internalType": "address",
          "name": "userAddr",
          "type": "address"
        },
        {
          "indexed": false,
          "internalType": "address",
          "name": "pool",
          "type": "address"
        },
        {
          "indexed": false,
          "internalType": "address",
          "name": "asset",
          "type": "address"
        },
        {
          "indexed": false,
          "internalType": "uint256",
          "name": "amount",
          "type": "uint256"
        }
      ],
      "name": "WithdrawDeposit",
      "type": "event"
    },
    {
      "inputs": [
        {
          "internalType": "bytes32",
          "name": "_hash",
          "type": "bytes32"
        }
      ],
      "name": "addValidByteCodeHash",
      "outputs": [],
      "stateMutability": "nonpayable",
      "type": "function"
    },
    {
      "inputs": [
        {
          "internalType": "uint256",
          "name": "_amount",
          "type": "uint256"
        },
        {
          "internalType": "address",
          "name": "_asset",
          "type": "address"
        },
        {
          "internalType": "address",
          "name": "_pool",
          "type": "address"
        },
        {
          "internalType": "bool",
          "name": "isETH",
          "type": "bool"
        }
      ],
      "name": "addDeposit",
      "outputs": [],
      "stateMutability": "payable",
      "type": "function",
      "payable": true
    },
    {
      "inputs": [
        {
          "internalType": "uint256",
          "name": "_amount",
          "type": "uint256"
        },
        {
          "internalType": "address",
          "name": "_asset",
          "type": "address"
        },
        {
          "internalType": "address",
          "name": "_pool",
          "type": "address"
        },
        {
          "internalType": "bool",
          "name": "_isETH",
          "type": "bool"
        }
      ],
      "name": "withdrawDeposit",
      "outputs": [],
      "stateMutability": "nonpayable",
      "type": "function"
    },
    {
      "inputs": [
        {
          "internalType": "address",
          "name": "_asset",
          "type": "address"
        },
        {
          "internalType": "address",
          "name": "_pool",
          "type": "address"
        },
        {
          "internalType": "bool",
          "name": "_isETH",
          "type": "bool"
        }
      ],
      "name": "claimInterest",
      "outputs": [],
      "stateMutability": "nonpayable",
      "type": "function"
    },
    {
      "inputs": [
        {
          "internalType": "address[]",
          "name": "_acceptedTokens",
          "type": "address[]"
        },
        {
          "internalType": "string",
          "name": "_name",
          "type": "string"
        },
        {
          "internalType": "string",
          "name": "_about",
          "type": "string"
        },
        {
          "internalType": "address",
          "name": "_receiver",
          "type": "address"
        }
      ],
      "name": "createJCPoolClone",
      "outputs": [],
      "stateMutability": "nonpayable",
      "type": "function"
    },
    {
      "inputs": [
        {
          "internalType": "address",
          "name": "_asset",
          "type": "address"
        }
      ],
      "name": "getTVL",
      "outputs": [
        {
          "internalType": "uint256",
          "name": "",
          "type": "uint256"
        }
      ],
      "stateMutability": "view",
      "type": "function",
      "constant": true
    },
    {
      "inputs": [],
      "name": "getDepositorERC721Address",
      "outputs": [
        {
          "internalType": "address",
          "name": "",
          "type": "address"
        }
      ],
      "stateMutability": "view",
      "type": "function",
      "constant": true
    },
    {
      "inputs": [],
      "name": "getOwnerERC721Address",
      "outputs": [
        {
          "internalType": "address",
          "name": "",
          "type": "address"
        }
      ],
      "stateMutability": "view",
      "type": "function",
      "constant": true
    },
    {
      "inputs": [],
      "name": "getBaseJCPoolAddress",
      "outputs": [
        {
          "internalType": "address",
          "name": "",
          "type": "address"
        }
      ],
      "stateMutability": "view",
      "type": "function",
      "constant": true
    },
    {
      "inputs": [],
      "name": "getVerifiedPools",
      "outputs": [
        {
          "internalType": "address[]",
          "name": "",
          "type": "address[]"
        }
      ],
      "stateMutability": "view",
      "type": "function",
      "constant": true
    },
    {
      "inputs": [
        {
          "internalType": "address",
          "name": "_pool",
          "type": "address"
        }
      ],
      "name": "checkPool",
      "outputs": [
        {
          "internalType": "bool",
          "name": "",
          "type": "bool"
        }
      ],
      "stateMutability": "view",
      "type": "function",
      "constant": true
    },
    {
      "inputs": [
        {
          "internalType": "string",
          "name": "_name",
          "type": "string"
        }
      ],
      "name": "getAddressFromName",
      "outputs": [
        {
          "internalType": "address",
          "name": "",
          "type": "address"
        }
      ],
      "stateMutability": "view",
      "type": "function",
      "constant": true
    },
    {
      "inputs": [
        {
          "internalType": "address",
          "name": "_pool",
          "type": "address"
        }
      ],
      "name": "checkByteCode",
      "outputs": [
        {
          "internalType": "bool",
          "name": "",
          "type": "bool"
        }
      ],
      "stateMutability": "view",
      "type": "function",
      "constant": true
    }
  ],
  "bytecode": "0x60806040523480156200001157600080fd5b506040516200002090620002ea565b604051809103906000f0801580156200003d573d6000803e3d6000fd5b50600260006101000a81548173ffffffffffffffffffffffffffffffffffffffff021916908373ffffffffffffffffffffffffffffffffffffffff1602179055506040516200008c90620002f8565b604051809103906000f080158015620000a9573d6000803e3d6000fd5b50600360006101000a81548173ffffffffffffffffffffffffffffffffffffffff021916908373ffffffffffffffffffffffffffffffffffffffff160217905550604051620000f89062000306565b604051809103906000f08015801562000115573d6000803e3d6000fd5b50600160006101000a81548173ffffffffffffffffffffffffffffffffffffffff021916908373ffffffffffffffffffffffffffffffffffffffff160217905550735343b5ba672ae99d627a1c87866b8e53f47db2e6600a60006101000a81548173ffffffffffffffffffffffffffffffffffffffff021916908373ffffffffffffffffffffffffffffffffffffffff160217905550600a60009054906101000a900473ffffffffffffffffffffffffffffffffffffffff1673ffffffffffffffffffffffffffffffffffffffff1663026b1d5f6040518163ffffffff1660e01b815260040160206040518083038186803b1580156200021457600080fd5b505afa15801562000229573d6000803e3d6000fd5b505050506040513d601f19601f820116820180604052508101906200024f91906200037e565b600b60006101000a81548173ffffffffffffffffffffffffffffffffffffffff021916908373ffffffffffffffffffffffffffffffffffffffff160217905550732a58e9bbb5434fda7ff78051a4b82cb0ef669c17600c60006101000a81548173ffffffffffffffffffffffffffffffffffffffff021916908373ffffffffffffffffffffffffffffffffffffffff160217905550620003b0565b61476a806200282d83390190565b61381a8062006f9783390190565b612cef806200a7b183390190565b600080fd5b600073ffffffffffffffffffffffffffffffffffffffff82169050919050565b6000620003468262000319565b9050919050565b620003588162000339565b81146200036457600080fd5b50565b60008151905062000378816200034d565b92915050565b60006020828403121562000397576200039662000314565b5b6000620003a78482850162000367565b91505092915050565b61246d80620003c06000396000f3fe6080604052600436106100c25760003560e01c80634e1a58a81161007f578063748d682911610059578063748d6829146102595780638e61514e1461029657806390f2bb16146102d3578063b63ae6ee146102fc576100c2565b80634e1a58a8146101dc5780635aa3886814610205578063618b1e8314610230576100c2565b806308f52b3c146100c75780630c1a4477146100e35780630f40517a1461010e5780632f28012a1461014b57806330b9d2a7146101745780633989a671146101b1575b600080fd5b6100e160048036038101906100dc91906115ea565b610327565b005b3480156100ef57600080fd5b506100f8610946565b6040516101059190611660565b60405180910390f35b34801561011a57600080fd5b506101356004803603810190610130919061167b565b610970565b60405161014291906116b7565b60405180910390f35b34801561015757600080fd5b50610172600480360381019061016d91906115ea565b6109b9565b005b34801561018057600080fd5b5061019b6004803603810190610196919061167b565b610be4565b6040516101a891906116e1565b60405180910390f35b3480156101bd57600080fd5b506101c6610c3a565b6040516101d39190611660565b60405180910390f35b3480156101e857600080fd5b5061020360048036038101906101fe9190611732565b610c64565b005b34801561021157600080fd5b5061021a610c90565b6040516102279190611660565b60405180910390f35b34801561023c57600080fd5b506102576004803603810190610252919061196d565b610cba565b005b34801561026557600080fd5b50610280600480360381019061027b919061167b565b611013565b60405161028d91906116e1565b60405180910390f35b3480156102a257600080fd5b506102bd60048036038101906102b89190611a28565b611128565b6040516102ca9190611660565b60405180910390f35b3480156102df57600080fd5b506102fa60048036038101906102f59190611a71565b611170565b005b34801561030857600080fd5b506103116113a7565b60405161031e9190611b82565b60405180910390f35b81600460008273ffffffffffffffffffffffffffffffffffffffff1673ffffffffffffffffffffffffffffffffffffffff16815260200190815260200160002060009054906101000a900460ff166103b4576040517f08c379a00000000000000000000000000000000000000000000000000000000081526004016103ab90611c01565b60405180910390fd5b84600660008673ffffffffffffffffffffffffffffffffffffffff1673ffffffffffffffffffffffffffffffffffffffff16815260200190815260200160002060008282546104039190611c50565b92505081905550811561053757600c60009054906101000a900473ffffffffffffffffffffffffffffffffffffffff1673ffffffffffffffffffffffffffffffffffffffff1663474cf53d34600b60009054906101000a900473ffffffffffffffffffffffffffffffffffffffff168660006040518563ffffffff1660e01b815260040161049393929190611cf9565b6000604051808303818588803b1580156104ac57600080fd5b505af11580156104c0573d6000803e3d6000fd5b50505050508273ffffffffffffffffffffffffffffffffffffffff16632e59905485346040518363ffffffff1660e01b8152600401610500929190611d30565b600060405180830381600087803b15801561051a57600080fd5b505af115801561052e573d6000803e3d6000fd5b5050505061084c565b6000849050858173ffffffffffffffffffffffffffffffffffffffff1663dd62ed3e33306040518363ffffffff1660e01b8152600401610578929190611d59565b60206040518083038186803b15801561059057600080fd5b505afa1580156105a4573d6000803e3d6000fd5b505050506040513d601f19601f820116820180604052508101906105c89190611d97565b1015610609576040517f08c379a000000000000000000000000000000000000000000000000000000000815260040161060090611e10565b60405180910390fd5b8073ffffffffffffffffffffffffffffffffffffffff166323b872dd3330896040518463ffffffff1660e01b815260040161064693929190611e30565b602060405180830381600087803b15801561066057600080fd5b505af1158015610674573d6000803e3d6000fd5b505050506040513d601f19601f820116820180604052508101906106989190611e7c565b508073ffffffffffffffffffffffffffffffffffffffff1663095ea7b3600b60009054906101000a900473ffffffffffffffffffffffffffffffffffffffff16886040518363ffffffff1660e01b81526004016106f6929190611d30565b602060405180830381600087803b15801561071057600080fd5b505af1158015610724573d6000803e3d6000fd5b505050506040513d601f19601f820116820180604052508101906107489190611e7c565b50600b60009054906101000a900473ffffffffffffffffffffffffffffffffffffffff1673ffffffffffffffffffffffffffffffffffffffff1663e8eda9df82888760006040518563ffffffff1660e01b81526004016107ab9493929190611ea9565b600060405180830381600087803b1580156107c557600080fd5b505af11580156107d9573d6000803e3d6000fd5b505050508373ffffffffffffffffffffffffffffffffffffffff166347e7ef2486886040518363ffffffff1660e01b8152600401610818929190611d30565b600060405180830381600087803b15801561083257600080fd5b505af1158015610846573d6000803e3d6000fd5b50505050505b600260009054906101000a900473ffffffffffffffffffffffffffffffffffffffff1673ffffffffffffffffffffffffffffffffffffffff166387fb12bd33874287896040518663ffffffff1660e01b81526004016108af959493929190611eee565b602060405180830381600087803b1580156108c957600080fd5b505af11580156108dd573d6000803e3d6000fd5b505050506040513d601f19601f820116820180604052508101906109019190611d97565b507f20ca885e6c573d69bc931b3787127868f5b90568509fb8d4ff6f7102b8d0cd25338486886040516109379493929190611f41565b60405180910390a15050505050565b6000600360009054906101000a900473ffffffffffffffffffffffffffffffffffffffff16905090565b6000600660008373ffffffffffffffffffffffffffffffffffffffff1673ffffffffffffffffffffffffffffffffffffffff168152602001908152602001600020549050919050565b81600460008273ffffffffffffffffffffffffffffffffffffffff1673ffffffffffffffffffffffffffffffffffffffff16815260200190815260200160002060009054906101000a900460ff16610a46576040517f08c379a0000000000000000000000000000000000000000000000000000000008152600401610a3d90611c01565b60405180910390fd5b84600660008673ffffffffffffffffffffffffffffffffffffffff1673ffffffffffffffffffffffffffffffffffffffff1681526020019081526020016000206000828254610a959190611f86565b92505081905550600260009054906101000a900473ffffffffffffffffffffffffffffffffffffffff1673ffffffffffffffffffffffffffffffffffffffff16636ba3fef2338786886040518563ffffffff1660e01b8152600401610afd9493929190611fba565b600060405180830381600087803b158015610b1757600080fd5b505af1158015610b2b573d6000803e3d6000fd5b505050508273ffffffffffffffffffffffffffffffffffffffff166312eeff7e858733866040518563ffffffff1660e01b8152600401610b6e9493929190611fff565b600060405180830381600087803b158015610b8857600080fd5b505af1158015610b9c573d6000803e3d6000fd5b505050507fa657ed79c074c3489591adb7ba850f38c009bd846e47f2ffe3edc1d06f48a5a433848688604051610bd59493929190611f41565b60405180910390a15050505050565b6000600460008373ffffffffffffffffffffffffffffffffffffffff1673ffffffffffffffffffffffffffffffffffffffff16815260200190815260200160002060009054906101000a900460ff169050919050565b6000600260009054906101000a900473ffffffffffffffffffffffffffffffffffffffff16905090565b600981908060018154018082558091505060019003906000526020600020016000909190919091505550565b6000600160009054906101000a900473ffffffffffffffffffffffffffffffffffffffff16905090565b600073ffffffffffffffffffffffffffffffffffffffff16600584604051610ce291906120be565b908152602001604051809103902060009054906101000a900473ffffffffffffffffffffffffffffffffffffffff1673ffffffffffffffffffffffffffffffffffffffff1614610d67576040517f08c379a0000000000000000000000000000000000000000000000000000000008152600401610d5e90612121565b60405180910390fd5b6000610d94600160009054906101000a900473ffffffffffffffffffffffffffffffffffffffff16611435565b90508073ffffffffffffffffffffffffffffffffffffffff166350d02d71868686866040518563ffffffff1660e01b8152600401610dd5949392919061217a565b600060405180830381600087803b158015610def57600080fd5b505af1158015610e03573d6000803e3d6000fd5b50505050600360009054906101000a900473ffffffffffffffffffffffffffffffffffffffff1673ffffffffffffffffffffffffffffffffffffffff166323579ba18342846040518463ffffffff1660e01b8152600401610e66939291906121d4565b602060405180830381600087803b158015610e8057600080fd5b505af1158015610e94573d6000803e3d6000fd5b505050506040513d601f19601f82011682018060405250810190610eb89190611d97565b5080600585604051610eca91906120be565b908152602001604051809103902060006101000a81548173ffffffffffffffffffffffffffffffffffffffff021916908373ffffffffffffffffffffffffffffffffffffffff1602179055506008819080600181540180825580915050600190039060005260206000200160009091909190916101000a81548173ffffffffffffffffffffffffffffffffffffffff021916908373ffffffffffffffffffffffffffffffffffffffff1602179055506001600460008373ffffffffffffffffffffffffffffffffffffffff1673ffffffffffffffffffffffffffffffffffffffff16815260200190815260200160002060006101000a81548160ff0219169083151502179055507f373adb264e07592e89e672b780912566106b06a5f7a7787e63a47ca627e915af8185846040516110049392919061220b565b60405180910390a15050505050565b6000806000905060008373ffffffffffffffffffffffffffffffffffffffff16803b806020016040519081016040528181526000908060200190933c60405160200161105f9190612290565b604051602081830303815290604052805190602001209050600060098054806020026020016040519081016040528092919081815260200182805480156110c557602002820191906000526020600020905b8154815260200190600101908083116110b1575b5050505050905060005b81518160ff16101561111c57818160ff16815181106110f1576110f06122a7565b5b6020026020010151831415611109576001935061111c565b8080611114906122e3565b9150506110cf565b50829350505050919050565b600060058260405161113a91906120be565b908152602001604051809103902060009054906101000a900473ffffffffffffffffffffffffffffffffffffffff169050919050565b81600460008273ffffffffffffffffffffffffffffffffffffffff1673ffffffffffffffffffffffffffffffffffffffff16815260200190815260200160002060009054906101000a900460ff166111fd576040517f08c379a00000000000000000000000000000000000000000000000000000000081526004016111f490611c01565b60405180910390fd5b60008373ffffffffffffffffffffffffffffffffffffffff1663322ce09e86856040518363ffffffff1660e01b815260040161123a92919061230d565b602060405180830381600087803b15801561125457600080fd5b505af1158015611268573d6000803e3d6000fd5b505050506040513d601f19601f8201168201806040525081019061128c9190611d97565b905080600760008773ffffffffffffffffffffffffffffffffffffffff1673ffffffffffffffffffffffffffffffffffffffff16815260200190815260200160002060008282546112dd9190611c50565b925050819055507f7276c0285f260d667df9ded71ca6a988145d36de1d14252710532b9de5f089fe338573ffffffffffffffffffffffffffffffffffffffff16631b88094d6040518163ffffffff1660e01b815260040160206040518083038186803b15801561134c57600080fd5b505afa158015611360573d6000803e3d6000fd5b505050506040513d601f19601f82011682018060405250810190611384919061234b565b868885604051611398959493929190612378565b60405180910390a15050505050565b6060600880548060200260200160405190810160405280929190818152602001828054801561142b57602002820191906000526020600020905b8160009054906101000a900473ffffffffffffffffffffffffffffffffffffffff1673ffffffffffffffffffffffffffffffffffffffff16815260200190600101908083116113e1575b5050505050905090565b60006040517f3d602d80600a3d3981f3363d3d373d3d3d363d7300000000000000000000000081528260601b60148201527f5af43d82803e903d91602b57fd5bf3000000000000000000000000000000000060288201526037816000f0915050600073ffffffffffffffffffffffffffffffffffffffff168173ffffffffffffffffffffffffffffffffffffffff161415611505576040517f08c379a00000000000000000000000000000000000000000000000000000000081526004016114fc90612417565b60405180910390fd5b919050565b6000604051905090565b600080fd5b600080fd5b6000819050919050565b6115318161151e565b811461153c57600080fd5b50565b60008135905061154e81611528565b92915050565b600073ffffffffffffffffffffffffffffffffffffffff82169050919050565b600061157f82611554565b9050919050565b61158f81611574565b811461159a57600080fd5b50565b6000813590506115ac81611586565b92915050565b60008115159050919050565b6115c7816115b2565b81146115d257600080fd5b50565b6000813590506115e4816115be565b92915050565b6000806000806080858703121561160457611603611514565b5b60006116128782880161153f565b94505060206116238782880161159d565b93505060406116348782880161159d565b9250506060611645878288016115d5565b91505092959194509250565b61165a81611574565b82525050565b60006020820190506116756000830184611651565b92915050565b60006020828403121561169157611690611514565b5b600061169f8482850161159d565b91505092915050565b6116b18161151e565b82525050565b60006020820190506116cc60008301846116a8565b92915050565b6116db816115b2565b82525050565b60006020820190506116f660008301846116d2565b92915050565b6000819050919050565b61170f816116fc565b811461171a57600080fd5b50565b60008135905061172c81611706565b92915050565b60006020828403121561174857611747611514565b5b60006117568482850161171d565b91505092915050565b600080fd5b6000601f19601f8301169050919050565b7f4e487b7100000000000000000000000000000000000000000000000000000000600052604160045260246000fd5b6117ad82611764565b810181811067ffffffffffffffff821117156117cc576117cb611775565b5b80604052505050565b60006117df61150a565b90506117eb82826117a4565b919050565b600067ffffffffffffffff82111561180b5761180a611775565b5b602082029050602081019050919050565b600080fd5b600061183461182f846117f0565b6117d5565b905080838252602082019050602084028301858111156118575761185661181c565b5b835b81811015611880578061186c888261159d565b845260208401935050602081019050611859565b5050509392505050565b600082601f83011261189f5761189e61175f565b5b81356118af848260208601611821565b91505092915050565b600080fd5b600067ffffffffffffffff8211156118d8576118d7611775565b5b6118e182611764565b9050602081019050919050565b82818337600083830152505050565b600061191061190b846118bd565b6117d5565b90508281526020810184848401111561192c5761192b6118b8565b5b6119378482856118ee565b509392505050565b600082601f8301126119545761195361175f565b5b81356119648482602086016118fd565b91505092915050565b6000806000806080858703121561198757611986611514565b5b600085013567ffffffffffffffff8111156119a5576119a4611519565b5b6119b18782880161188a565b945050602085013567ffffffffffffffff8111156119d2576119d1611519565b5b6119de8782880161193f565b935050604085013567ffffffffffffffff8111156119ff576119fe611519565b5b611a0b8782880161193f565b9250506060611a1c8782880161159d565b91505092959194509250565b600060208284031215611a3e57611a3d611514565b5b600082013567ffffffffffffffff811115611a5c57611a5b611519565b5b611a688482850161193f565b91505092915050565b600080600060608486031215611a8a57611a89611514565b5b6000611a988682870161159d565b9350506020611aa98682870161159d565b9250506040611aba868287016115d5565b9150509250925092565b600081519050919050565b600082825260208201905092915050565b6000819050602082019050919050565b611af981611574565b82525050565b6000611b0b8383611af0565b60208301905092915050565b6000602082019050919050565b6000611b2f82611ac4565b611b398185611acf565b9350611b4483611ae0565b8060005b83811015611b75578151611b5c8882611aff565b9750611b6783611b17565b925050600181019050611b48565b5085935050505092915050565b60006020820190508181036000830152611b9c8184611b24565b905092915050565b600082825260208201905092915050565b7f6e6f742063616c6c65642066726f6d206120706f6f6c00000000000000000000600082015250565b6000611beb601683611ba4565b9150611bf682611bb5565b602082019050919050565b60006020820190508181036000830152611c1a81611bde565b9050919050565b7f4e487b7100000000000000000000000000000000000000000000000000000000600052601160045260246000fd5b6000611c5b8261151e565b9150611c668361151e565b9250827fffffffffffffffffffffffffffffffffffffffffffffffffffffffffffffffff03821115611c9b57611c9a611c21565b5b828201905092915050565b6000819050919050565b600061ffff82169050919050565b6000819050919050565b6000611ce3611cde611cd984611ca6565b611cbe565b611cb0565b9050919050565b611cf381611cc8565b82525050565b6000606082019050611d0e6000830186611651565b611d1b6020830185611651565b611d286040830184611cea565b949350505050565b6000604082019050611d456000830185611651565b611d5260208301846116a8565b9392505050565b6000604082019050611d6e6000830185611651565b611d7b6020830184611651565b9392505050565b600081519050611d9181611528565b92915050565b600060208284031215611dad57611dac611514565b5b6000611dbb84828501611d82565b91505092915050565b7f73656e646572206e6f7420617070726f76656400000000000000000000000000600082015250565b6000611dfa601383611ba4565b9150611e0582611dc4565b602082019050919050565b60006020820190508181036000830152611e2981611ded565b9050919050565b6000606082019050611e456000830186611651565b611e526020830185611651565b611e5f60408301846116a8565b949350505050565b600081519050611e76816115be565b92915050565b600060208284031215611e9257611e91611514565b5b6000611ea084828501611e67565b91505092915050565b6000608082019050611ebe6000830187611651565b611ecb60208301866116a8565b611ed86040830185611651565b611ee56060830184611cea565b95945050505050565b600060a082019050611f036000830188611651565b611f1060208301876116a8565b611f1d60408301866116a8565b611f2a6060830185611651565b611f376080830184611651565b9695505050505050565b6000608082019050611f566000830187611651565b611f636020830186611651565b611f706040830185611651565b611f7d60608301846116a8565b95945050505050565b6000611f918261151e565b9150611f9c8361151e565b925082821015611faf57611fae611c21565b5b828203905092915050565b6000608082019050611fcf6000830187611651565b611fdc60208301866116a8565b611fe96040830185611651565b611ff66060830184611651565b95945050505050565b60006080820190506120146000830187611651565b61202160208301866116a8565b61202e6040830185611651565b61203b60608301846116d2565b95945050505050565b600081519050919050565b600081905092915050565b60005b8381101561207857808201518184015260208101905061205d565b83811115612087576000848401525b50505050565b600061209882612044565b6120a2818561204f565b93506120b281856020860161205a565b80840191505092915050565b60006120ca828461208d565b915081905092915050565b7f706f6f6c2077697468206e616d6520616c726561647920657869737473000000600082015250565b600061210b601d83611ba4565b9150612116826120d5565b602082019050919050565b6000602082019050818103600083015261213a816120fe565b9050919050565b600061214c82612044565b6121568185611ba4565b935061216681856020860161205a565b61216f81611764565b840191505092915050565b600060808201905081810360008301526121948187611b24565b905081810360208301526121a88186612141565b905081810360408301526121bc8185612141565b90506121cb6060830184611651565b95945050505050565b60006060820190506121e96000830186611651565b6121f660208301856116a8565b6122036040830184611651565b949350505050565b60006060820190506122206000830186611651565b81810360208301526122328185612141565b90506122416040830184611651565b949350505050565b600081519050919050565b600081905092915050565b600061226a82612249565b6122748185612254565b935061228481856020860161205a565b80840191505092915050565b600061229c828461225f565b915081905092915050565b7f4e487b7100000000000000000000000000000000000000000000000000000000600052603260045260246000fd5b600060ff82169050919050565b60006122ee826122d6565b915060ff82141561230257612301611c21565b5b600182019050919050565b60006040820190506123226000830185611651565b61232f60208301846116d2565b9392505050565b60008151905061234581611586565b92915050565b60006020828403121561236157612360611514565b5b600061236f84828501612336565b91505092915050565b600060a08201905061238d6000830188611651565b61239a6020830187611651565b6123a76040830186611651565b6123b46060830185611651565b6123c160808301846116a8565b9695505050505050565b7f455243313136373a20637265617465206661696c656400000000000000000000600082015250565b6000612401601683611ba4565b915061240c826123cb565b602082019050919050565b60006020820190508181036000830152612430816123f4565b905091905056fea2646970667358221220278becc0367b326d925256281d11c79dfb5a0c47ba9a14f8dfade2ac209a758164736f6c6343000809003360806040523480156200001157600080fd5b506040518060400160405280601381526020017f4a4350204465706f7369746f7220546f6b656e000000000000000000000000008152506040518060400160405280600c81526020017f4a4350545f544553545f44310000000000000000000000000000000000000000815250816000908051906020019062000096929190620002df565b508060019080519060200190620000af929190620002df565b505050620000d2620000c66200021160201b60201c565b6200021960201b60201c565b735343b5ba672ae99d627a1c87866b8e53f47db2e6600b60006101000a81548173ffffffffffffffffffffffffffffffffffffffff021916908373ffffffffffffffffffffffffffffffffffffffff160217905550600b60009054906101000a900473ffffffffffffffffffffffffffffffffffffffff1673ffffffffffffffffffffffffffffffffffffffff1663026b1d5f6040518163ffffffff1660e01b815260040160206040518083038186803b1580156200019057600080fd5b505afa158015620001a5573d6000803e3d6000fd5b505050506040513d601f19601f82011682018060405250810190620001cb9190620003f9565b600c60006101000a81548173ffffffffffffffffffffffffffffffffffffffff021916908373ffffffffffffffffffffffffffffffffffffffff16021790555062000490565b600033905090565b6000600a60009054906101000a900473ffffffffffffffffffffffffffffffffffffffff16905081600a60006101000a81548173ffffffffffffffffffffffffffffffffffffffff021916908373ffffffffffffffffffffffffffffffffffffffff1602179055508173ffffffffffffffffffffffffffffffffffffffff168173ffffffffffffffffffffffffffffffffffffffff167f8be0079c531659141344cd1fd0a4f28419497f9722a3daafe3b4186f6b6457e060405160405180910390a35050565b828054620002ed906200045a565b90600052602060002090601f0160209004810192826200031157600085556200035d565b82601f106200032c57805160ff19168380011785556200035d565b828001600101855582156200035d579182015b828111156200035c5782518255916020019190600101906200033f565b5b5090506200036c919062000370565b5090565b5b808211156200038b57600081600090555060010162000371565b5090565b600080fd5b600073ffffffffffffffffffffffffffffffffffffffff82169050919050565b6000620003c18262000394565b9050919050565b620003d381620003b4565b8114620003df57600080fd5b50565b600081519050620003f381620003c8565b92915050565b6000602082840312156200041257620004116200038f565b5b60006200042284828501620003e2565b91505092915050565b7f4e487b7100000000000000000000000000000000000000000000000000000000600052602260045260246000fd5b600060028204905060018216806200047357607f821691505b602082108114156200048a57620004896200042b565b5b50919050565b6142ca80620004a06000396000f3fe608060405234801561001057600080fd5b50600436106101735760003560e01c80636ba3fef2116100de57806395d89b4111610097578063c87b56dd11610071578063c87b56dd14610482578063d15e0053146104b2578063e985e9c5146104e2578063f2fde38b1461051257610173565b806395d89b411461042c578063a22cb4651461044a578063b88d4fde1461046657610173565b80636ba3fef21461035857806370a0823114610374578063715018a6146103a457806387fb12bd146103ae5780638aebe8d6146103de5780638da5cb5b1461040e57610173565b80632e0c3f3c116101305780632e0c3f3c1461024c5780632f745c591461027c57806342842e0e146102ac5780634f6ccce7146102c85780635328c2bf146102f85780636352211e1461032857610173565b806301ffc9a71461017857806306fdde03146101a8578063081812fc146101c6578063095ea7b3146101f657806318160ddd1461021257806323b872dd14610230575b600080fd5b610192600480360381019061018d9190612901565b61052e565b60405161019f9190612949565b60405180910390f35b6101b06105a8565b6040516101bd91906129fd565b60405180910390f35b6101e060048036038101906101db9190612a55565b61063a565b6040516101ed9190612ac3565b60405180910390f35b610210600480360381019061020b9190612b0a565b6106bf565b005b61021a6107d7565b6040516102279190612b59565b60405180910390f35b61024a60048036038101906102459190612b74565b6107e4565b005b61026660048036038101906102619190612a55565b610844565b6040516102739190612b59565b60405180910390f35b61029660048036038101906102919190612b0a565b610864565b6040516102a39190612b59565b60405180910390f35b6102c660048036038101906102c19190612b74565b610909565b005b6102e260048036038101906102dd9190612a55565b610929565b6040516102ef9190612b59565b60405180910390f35b610312600480360381019061030d9190612a55565b61099a565b60405161031f9190612c4d565b60405180910390f35b610342600480360381019061033d9190612a55565b610a91565b60405161034f9190612ac3565b60405180910390f35b610372600480360381019061036d9190612c68565b610b43565b005b61038e60048036038101906103899190612ccf565b610d4d565b60405161039b9190612b59565b60405180910390f35b6103ac610e05565b005b6103c860048036038101906103c39190612cfc565b610e8d565b6040516103d59190612b59565b60405180910390f35b6103f860048036038101906103f39190612ccf565b6110f7565b6040516104059190612b59565b60405180910390f35b6104166111c2565b6040516104239190612ac3565b60405180910390f35b6104346111ec565b60405161044191906129fd565b60405180910390f35b610464600480360381019061045f9190612da3565b61127e565b005b610480600480360381019061047b9190612f18565b611294565b005b61049c60048036038101906104979190612a55565b6112f6565b6040516104a991906129fd565b60405180910390f35b6104cc60048036038101906104c79190612ccf565b61139d565b6040516104d99190612b59565b60405180910390f35b6104fc60048036038101906104f79190612f9b565b611451565b6040516105099190612949565b60405180910390f35b61052c60048036038101906105279190612ccf565b6114e5565b005b60007f780e9d63000000000000000000000000000000000000000000000000000000007bffffffffffffffffffffffffffffffffffffffffffffffffffffffff1916827bffffffffffffffffffffffffffffffffffffffffffffffffffffffff191614806105a157506105a0826115dd565b5b9050919050565b6060600080546105b79061300a565b80601f01602080910402602001604051908101604052809291908181526020018280546105e39061300a565b80156106305780601f1061060557610100808354040283529160200191610630565b820191906000526020600020905b81548152906001019060200180831161061357829003601f168201915b5050505050905090565b6000610645826116bf565b610684576040517f08c379a000000000000000000000000000000000000000000000000000000000815260040161067b906130ae565b60405180910390fd5b6004600083815260200190815260200160002060009054906101000a900473ffffffffffffffffffffffffffffffffffffffff169050919050565b60006106ca82610a91565b90508073ffffffffffffffffffffffffffffffffffffffff168373ffffffffffffffffffffffffffffffffffffffff16141561073b576040517f08c379a000000000000000000000000000000000000000000000000000000000815260040161073290613140565b60405180910390fd5b8073ffffffffffffffffffffffffffffffffffffffff1661075a61172b565b73ffffffffffffffffffffffffffffffffffffffff16148061078957506107888161078361172b565b611451565b5b6107c8576040517f08c379a00000000000000000000000000000000000000000000000000000000081526004016107bf906131d2565b60405180910390fd5b6107d28383611733565b505050565b6000600880549050905090565b6107f56107ef61172b565b826117ec565b610834576040517f08c379a000000000000000000000000000000000000000000000000000000000815260040161082b90613264565b60405180910390fd5b61083f8383836118ca565b505050565b6000600d6000838152602001908152602001600020600001549050919050565b600061086f83610d4d565b82106108b0576040517f08c379a00000000000000000000000000000000000000000000000000000000081526004016108a7906132f6565b60405180910390fd5b600660008473ffffffffffffffffffffffffffffffffffffffff1673ffffffffffffffffffffffffffffffffffffffff168152602001908152602001600020600083815260200190815260200160002054905092915050565b61092483838360405180602001604052806000815250611294565b505050565b60006109336107d7565b8210610974576040517f08c379a000000000000000000000000000000000000000000000000000000000815260040161096b90613388565b60405180910390fd5b60088281548110610988576109876133a8565b5b90600052602060002001549050919050565b6109a261283a565b600d60008381526020019081526020016000206040518060a00160405290816000820154815260200160018201548152602001600282015481526020016003820160009054906101000a900473ffffffffffffffffffffffffffffffffffffffff1673ffffffffffffffffffffffffffffffffffffffff1673ffffffffffffffffffffffffffffffffffffffff1681526020016004820160009054906101000a900473ffffffffffffffffffffffffffffffffffffffff1673ffffffffffffffffffffffffffffffffffffffff1673ffffffffffffffffffffffffffffffffffffffff16815250509050919050565b6000806002600084815260200190815260200160002060009054906101000a900473ffffffffffffffffffffffffffffffffffffffff169050600073ffffffffffffffffffffffffffffffffffffffff168173ffffffffffffffffffffffffffffffffffffffff161415610b3a576040517f08c379a0000000000000000000000000000000000000000000000000000000008152600401610b3190613449565b60405180910390fd5b80915050919050565b610b4b61172b565b73ffffffffffffffffffffffffffffffffffffffff16610b696111c2565b73ffffffffffffffffffffffffffffffffffffffff1614610bbf576040517f08c379a0000000000000000000000000000000000000000000000000000000008152600401610bb6906134b5565b60405180910390fd5b6000848383604051602001610bd69392919061351d565b6040516020818303038152906040528051906020012060001c9050610bfa816116bf565b610c39576040517f08c379a0000000000000000000000000000000000000000000000000000000008152600401610c30906135a6565b60405180910390fd5b6000600d600083815260200190815260200160002060000154905084811015610c97576040517f08c379a0000000000000000000000000000000000000000000000000000000008152600401610c8e90613612565b60405180910390fd5b8481610ca39190613661565b90506000811415610ceb576000600d6000848152602001908152602001600020600101819055506000600d600084815260200190815260200160002060020181905550610d2a565b610cfd85610cf8856110f7565b611b26565b600d60008481526020019081526020016000206002016000828254610d229190613661565b925050819055505b80600d600084815260200190815260200160002060000181905550505050505050565b60008073ffffffffffffffffffffffffffffffffffffffff168273ffffffffffffffffffffffffffffffffffffffff161415610dbe576040517f08c379a0000000000000000000000000000000000000000000000000000000008152600401610db590613707565b60405180910390fd5b600360008373ffffffffffffffffffffffffffffffffffffffff1673ffffffffffffffffffffffffffffffffffffffff168152602001908152602001600020549050919050565b610e0d61172b565b73ffffffffffffffffffffffffffffffffffffffff16610e2b6111c2565b73ffffffffffffffffffffffffffffffffffffffff1614610e81576040517f08c379a0000000000000000000000000000000000000000000000000000000008152600401610e78906134b5565b60405180910390fd5b610e8b6000611c32565b565b6000610e9761172b565b73ffffffffffffffffffffffffffffffffffffffff16610eb56111c2565b73ffffffffffffffffffffffffffffffffffffffff1614610f0b576040517f08c379a0000000000000000000000000000000000000000000000000000000008152600401610f02906134b5565b60405180910390fd5b6000868484604051602001610f229392919061351d565b6040516020818303038152906040528051906020012060001c90506000610f48846110f7565b9050610f53826116bf565b15610fc05786600d60008481526020019081526020016000206000016000828254610f7e9190613727565b92505081905550610f8f8782611b26565b600d60008481526020019081526020016000206002016000828254610fb49190613727565b925050819055506110e9565b6040518060a00160405280888152602001878152602001610fe18984611b26565b81526020018673ffffffffffffffffffffffffffffffffffffffff1681526020018573ffffffffffffffffffffffffffffffffffffffff16815250600d600084815260200190815260200160002060008201518160000155602082015181600101556040820151816002015560608201518160030160006101000a81548173ffffffffffffffffffffffffffffffffffffffff021916908373ffffffffffffffffffffffffffffffffffffffff16021790555060808201518160040160006101000a81548173ffffffffffffffffffffffffffffffffffffffff021916908373ffffffffffffffffffffffffffffffffffffffff1602179055509050506110e88883611cf8565b5b819250505095945050505050565b6000600c60009054906101000a900473ffffffffffffffffffffffffffffffffffffffff1673ffffffffffffffffffffffffffffffffffffffff166335ea6a75836040518263ffffffff1660e01b81526004016111549190612ac3565b6101e06040518083038186803b15801561116d57600080fd5b505afa158015611181573d6000803e3d6000fd5b505050506040513d601f19601f820116820180604052508101906111a59190613a0b565b602001516fffffffffffffffffffffffffffffffff169050919050565b6000600a60009054906101000a900473ffffffffffffffffffffffffffffffffffffffff16905090565b6060600180546111fb9061300a565b80601f01602080910402602001604051908101604052809291908181526020018280546112279061300a565b80156112745780601f1061124957610100808354040283529160200191611274565b820191906000526020600020905b81548152906001019060200180831161125757829003601f168201915b5050505050905090565b61129061128961172b565b8383611ec6565b5050565b6112a561129f61172b565b836117ec565b6112e4576040517f08c379a00000000000000000000000000000000000000000000000000000000081526004016112db90613264565b60405180910390fd5b6112f084848484612033565b50505050565b6060611301826116bf565b611340576040517f08c379a000000000000000000000000000000000000000000000000000000000815260040161133790613aab565b60405180910390fd5b600061134a61208f565b9050600081511161136a5760405180602001604052806000815250611395565b80611374846120a6565b604051602001611385929190613b07565b6040516020818303038152906040525b915050919050565b6000600c60009054906101000a900473ffffffffffffffffffffffffffffffffffffffff1673ffffffffffffffffffffffffffffffffffffffff1663d15e0053836040518263ffffffff1660e01b81526004016113fa9190612ac3565b60206040518083038186803b15801561141257600080fd5b505afa158015611426573d6000803e3d6000fd5b505050506040513d601f19601f8201168201806040525081019061144a9190613b2b565b9050919050565b6000600560008473ffffffffffffffffffffffffffffffffffffffff1673ffffffffffffffffffffffffffffffffffffffff16815260200190815260200160002060008373ffffffffffffffffffffffffffffffffffffffff1673ffffffffffffffffffffffffffffffffffffffff16815260200190815260200160002060009054906101000a900460ff16905092915050565b6114ed61172b565b73ffffffffffffffffffffffffffffffffffffffff1661150b6111c2565b73ffffffffffffffffffffffffffffffffffffffff1614611561576040517f08c379a0000000000000000000000000000000000000000000000000000000008152600401611558906134b5565b60405180910390fd5b600073ffffffffffffffffffffffffffffffffffffffff168173ffffffffffffffffffffffffffffffffffffffff1614156115d1576040517f08c379a00000000000000000000000000000000000000000000000000000000081526004016115c890613bca565b60405180910390fd5b6115da81611c32565b50565b60007f80ac58cd000000000000000000000000000000000000000000000000000000007bffffffffffffffffffffffffffffffffffffffffffffffffffffffff1916827bffffffffffffffffffffffffffffffffffffffffffffffffffffffff191614806116a857507f5b5e139f000000000000000000000000000000000000000000000000000000007bffffffffffffffffffffffffffffffffffffffffffffffffffffffff1916827bffffffffffffffffffffffffffffffffffffffffffffffffffffffff1916145b806116b857506116b782612207565b5b9050919050565b60008073ffffffffffffffffffffffffffffffffffffffff166002600084815260200190815260200160002060009054906101000a900473ffffffffffffffffffffffffffffffffffffffff1673ffffffffffffffffffffffffffffffffffffffff1614159050919050565b600033905090565b816004600083815260200190815260200160002060006101000a81548173ffffffffffffffffffffffffffffffffffffffff021916908373ffffffffffffffffffffffffffffffffffffffff160217905550808273ffffffffffffffffffffffffffffffffffffffff166117a683610a91565b73ffffffffffffffffffffffffffffffffffffffff167f8c5be1e5ebec7d5bd14f71427d1e84f3dd0314c0f7b2291e5b200ac8c7c3b92560405160405180910390a45050565b60006117f7826116bf565b611836576040517f08c379a000000000000000000000000000000000000000000000000000000000815260040161182d90613c5c565b60405180910390fd5b600061184183610a91565b90508073ffffffffffffffffffffffffffffffffffffffff168473ffffffffffffffffffffffffffffffffffffffff1614806118b057508373ffffffffffffffffffffffffffffffffffffffff166118988461063a565b73ffffffffffffffffffffffffffffffffffffffff16145b806118c157506118c08185611451565b5b91505092915050565b8273ffffffffffffffffffffffffffffffffffffffff166118ea82610a91565b73ffffffffffffffffffffffffffffffffffffffff1614611940576040517f08c379a000000000000000000000000000000000000000000000000000000000815260040161193790613cee565b60405180910390fd5b600073ffffffffffffffffffffffffffffffffffffffff168273ffffffffffffffffffffffffffffffffffffffff1614156119b0576040517f08c379a00000000000000000000000000000000000000000000000000000000081526004016119a790613d80565b60405180910390fd5b6119bb838383612271565b6119c6600082611733565b6001600360008573ffffffffffffffffffffffffffffffffffffffff1673ffffffffffffffffffffffffffffffffffffffff1681526020019081526020016000206000828254611a169190613661565b925050819055506001600360008473ffffffffffffffffffffffffffffffffffffffff1673ffffffffffffffffffffffffffffffffffffffff1681526020019081526020016000206000828254611a6d9190613727565b92505081905550816002600083815260200190815260200160002060006101000a81548173ffffffffffffffffffffffffffffffffffffffff021916908373ffffffffffffffffffffffffffffffffffffffff160217905550808273ffffffffffffffffffffffffffffffffffffffff168473ffffffffffffffffffffffffffffffffffffffff167fddf252ad1be2c89b69c2b068fc378daa952ba7f163c4a11628f55a4df523b3ef60405160405180910390a4505050565b600080821415611b6b576040517f08c379a0000000000000000000000000000000000000000000000000000000008152600401611b6290613dec565b60405180910390fd5b6000600283611b7a9190613e3b565b905060006b033b2e3c9fd0803ce8000000905080827fffffffffffffffffffffffffffffffffffffffffffffffffffffffffffffffff611bba9190613661565b611bc49190613e3b565b851115611c06576040517f08c379a0000000000000000000000000000000000000000000000000000000008152600401611bfd90613eb8565b60405180910390fd5b83828287611c149190613ed8565b611c1e9190613727565b611c289190613e3b565b9250505092915050565b6000600a60009054906101000a900473ffffffffffffffffffffffffffffffffffffffff16905081600a60006101000a81548173ffffffffffffffffffffffffffffffffffffffff021916908373ffffffffffffffffffffffffffffffffffffffff1602179055508173ffffffffffffffffffffffffffffffffffffffff168173ffffffffffffffffffffffffffffffffffffffff167f8be0079c531659141344cd1fd0a4f28419497f9722a3daafe3b4186f6b6457e060405160405180910390a35050565b600073ffffffffffffffffffffffffffffffffffffffff168273ffffffffffffffffffffffffffffffffffffffff161415611d68576040517f08c379a0000000000000000000000000000000000000000000000000000000008152600401611d5f90613f7e565b60405180910390fd5b611d71816116bf565b15611db1576040517f08c379a0000000000000000000000000000000000000000000000000000000008152600401611da890613fea565b60405180910390fd5b611dbd60008383612271565b6001600360008473ffffffffffffffffffffffffffffffffffffffff1673ffffffffffffffffffffffffffffffffffffffff1681526020019081526020016000206000828254611e0d9190613727565b92505081905550816002600083815260200190815260200160002060006101000a81548173ffffffffffffffffffffffffffffffffffffffff021916908373ffffffffffffffffffffffffffffffffffffffff160217905550808273ffffffffffffffffffffffffffffffffffffffff16600073ffffffffffffffffffffffffffffffffffffffff167fddf252ad1be2c89b69c2b068fc378daa952ba7f163c4a11628f55a4df523b3ef60405160405180910390a45050565b8173ffffffffffffffffffffffffffffffffffffffff168373ffffffffffffffffffffffffffffffffffffffff161415611f35576040517f08c379a0000000000000000000000000000000000000000000000000000000008152600401611f2c90614056565b60405180910390fd5b80600560008573ffffffffffffffffffffffffffffffffffffffff1673ffffffffffffffffffffffffffffffffffffffff16815260200190815260200160002060008473ffffffffffffffffffffffffffffffffffffffff1673ffffffffffffffffffffffffffffffffffffffff16815260200190815260200160002060006101000a81548160ff0219169083151502179055508173ffffffffffffffffffffffffffffffffffffffff168373ffffffffffffffffffffffffffffffffffffffff167f17307eab39ab6107e8899845ad3d59bd9653f200f220920489ca2b5937696c31836040516120269190612949565b60405180910390a3505050565b61203e8484846118ca565b61204a84848484612385565b612089576040517f08c379a0000000000000000000000000000000000000000000000000000000008152600401612080906140e8565b60405180910390fd5b50505050565b606060405180602001604052806000815250905090565b606060008214156120ee576040518060400160405280600181526020017f30000000000000000000000000000000000000000000000000000000000000008152509050612202565b600082905060005b6000821461212057808061210990614108565b915050600a826121199190613e3b565b91506120f6565b60008167ffffffffffffffff81111561213c5761213b612ded565b5b6040519080825280601f01601f19166020018201604052801561216e5781602001600182028036833780820191505090505b5090505b600085146121fb576001826121879190613661565b9150600a856121969190614151565b60306121a29190613727565b60f81b8183815181106121b8576121b76133a8565b5b60200101907effffffffffffffffffffffffffffffffffffffffffffffffffffffffffffff1916908160001a905350600a856121f49190613e3b565b9450612172565b8093505050505b919050565b60007f01ffc9a7000000000000000000000000000000000000000000000000000000007bffffffffffffffffffffffffffffffffffffffffffffffffffffffff1916827bffffffffffffffffffffffffffffffffffffffffffffffffffffffff1916149050919050565b61227c83838361251c565b600073ffffffffffffffffffffffffffffffffffffffff168373ffffffffffffffffffffffffffffffffffffffff1614156122bf576122ba81612521565b6122fe565b8173ffffffffffffffffffffffffffffffffffffffff168373ffffffffffffffffffffffffffffffffffffffff16146122fd576122fc838261256a565b5b5b600073ffffffffffffffffffffffffffffffffffffffff168273ffffffffffffffffffffffffffffffffffffffff1614156123415761233c816126d7565b612380565b8273ffffffffffffffffffffffffffffffffffffffff168273ffffffffffffffffffffffffffffffffffffffff161461237f5761237e82826127a8565b5b5b505050565b60006123a68473ffffffffffffffffffffffffffffffffffffffff16612827565b1561250f578373ffffffffffffffffffffffffffffffffffffffff1663150b7a026123cf61172b565b8786866040518563ffffffff1660e01b81526004016123f194939291906141d7565b602060405180830381600087803b15801561240b57600080fd5b505af192505050801561243c57506040513d601f19601f820116820180604052508101906124399190614238565b60015b6124bf573d806000811461246c576040519150601f19603f3d011682016040523d82523d6000602084013e612471565b606091505b506000815114156124b7576040517f08c379a00000000000000000000000000000000000000000000000000000000081526004016124ae906140e8565b60405180910390fd5b805181602001fd5b63150b7a0260e01b7bffffffffffffffffffffffffffffffffffffffffffffffffffffffff1916817bffffffffffffffffffffffffffffffffffffffffffffffffffffffff191614915050612514565b600190505b949350505050565b505050565b6008805490506009600083815260200190815260200160002081905550600881908060018154018082558091505060019003906000526020600020016000909190919091505550565b6000600161257784610d4d565b6125819190613661565b9050600060076000848152602001908152602001600020549050818114612666576000600660008673ffffffffffffffffffffffffffffffffffffffff1673ffffffffffffffffffffffffffffffffffffffff168152602001908152602001600020600084815260200190815260200160002054905080600660008773ffffffffffffffffffffffffffffffffffffffff1673ffffffffffffffffffffffffffffffffffffffff168152602001908152602001600020600084815260200190815260200160002081905550816007600083815260200190815260200160002081905550505b6007600084815260200190815260200160002060009055600660008573ffffffffffffffffffffffffffffffffffffffff1673ffffffffffffffffffffffffffffffffffffffff16815260200190815260200160002060008381526020019081526020016000206000905550505050565b600060016008805490506126eb9190613661565b905060006009600084815260200190815260200160002054905060006008838154811061271b5761271a6133a8565b5b90600052602060002001549050806008838154811061273d5761273c6133a8565b5b90600052602060002001819055508160096000838152602001908152602001600020819055506009600085815260200190815260200160002060009055600880548061278c5761278b614265565b5b6001900381819060005260206000200160009055905550505050565b60006127b383610d4d565b905081600660008573ffffffffffffffffffffffffffffffffffffffff1673ffffffffffffffffffffffffffffffffffffffff168152602001908152602001600020600083815260200190815260200160002081905550806007600084815260200190815260200160002081905550505050565b600080823b905060008111915050919050565b6040518060a00160405280600081526020016000815260200160008152602001600073ffffffffffffffffffffffffffffffffffffffff168152602001600073ffffffffffffffffffffffffffffffffffffffff1681525090565b6000604051905090565b600080fd5b600080fd5b60007fffffffff0000000000000000000000000000000000000000000000000000000082169050919050565b6128de816128a9565b81146128e957600080fd5b50565b6000813590506128fb816128d5565b92915050565b6000602082840312156129175761291661289f565b5b6000612925848285016128ec565b91505092915050565b60008115159050919050565b6129438161292e565b82525050565b600060208201905061295e600083018461293a565b92915050565b600081519050919050565b600082825260208201905092915050565b60005b8381101561299e578082015181840152602081019050612983565b838111156129ad576000848401525b50505050565b6000601f19601f8301169050919050565b60006129cf82612964565b6129d9818561296f565b93506129e9818560208601612980565b6129f2816129b3565b840191505092915050565b60006020820190508181036000830152612a1781846129c4565b905092915050565b6000819050919050565b612a3281612a1f565b8114612a3d57600080fd5b50565b600081359050612a4f81612a29565b92915050565b600060208284031215612a6b57612a6a61289f565b5b6000612a7984828501612a40565b91505092915050565b600073ffffffffffffffffffffffffffffffffffffffff82169050919050565b6000612aad82612a82565b9050919050565b612abd81612aa2565b82525050565b6000602082019050612ad86000830184612ab4565b92915050565b612ae781612aa2565b8114612af257600080fd5b50565b600081359050612b0481612ade565b92915050565b60008060408385031215612b2157612b2061289f565b5b6000612b2f85828601612af5565b9250506020612b4085828601612a40565b9150509250929050565b612b5381612a1f565b82525050565b6000602082019050612b6e6000830184612b4a565b92915050565b600080600060608486031215612b8d57612b8c61289f565b5b6000612b9b86828701612af5565b9350506020612bac86828701612af5565b9250506040612bbd86828701612a40565b9150509250925092565b612bd081612a1f565b82525050565b612bdf81612aa2565b82525050565b60a082016000820151612bfb6000850182612bc7565b506020820151612c0e6020850182612bc7565b506040820151612c216040850182612bc7565b506060820151612c346060850182612bd6565b506080820151612c476080850182612bd6565b50505050565b600060a082019050612c626000830184612be5565b92915050565b60008060008060808587031215612c8257612c8161289f565b5b6000612c9087828801612af5565b9450506020612ca187828801612a40565b9350506040612cb287828801612af5565b9250506060612cc387828801612af5565b91505092959194509250565b600060208284031215612ce557612ce461289f565b5b6000612cf384828501612af5565b91505092915050565b600080600080600060a08688031215612d1857612d1761289f565b5b6000612d2688828901612af5565b9550506020612d3788828901612a40565b9450506040612d4888828901612a40565b9350506060612d5988828901612af5565b9250506080612d6a88828901612af5565b9150509295509295909350565b612d808161292e565b8114612d8b57600080fd5b50565b600081359050612d9d81612d77565b92915050565b60008060408385031215612dba57612db961289f565b5b6000612dc885828601612af5565b9250506020612dd985828601612d8e565b9150509250929050565b600080fd5b600080fd5b7f4e487b7100000000000000000000000000000000000000000000000000000000600052604160045260246000fd5b612e25826129b3565b810181811067ffffffffffffffff82111715612e4457612e43612ded565b5b80604052505050565b6000612e57612895565b9050612e638282612e1c565b919050565b600067ffffffffffffffff821115612e8357612e82612ded565b5b612e8c826129b3565b9050602081019050919050565b82818337600083830152505050565b6000612ebb612eb684612e68565b612e4d565b905082815260208101848484011115612ed757612ed6612de8565b5b612ee2848285612e99565b509392505050565b600082601f830112612eff57612efe612de3565b5b8135612f0f848260208601612ea8565b91505092915050565b60008060008060808587031215612f3257612f3161289f565b5b6000612f4087828801612af5565b9450506020612f5187828801612af5565b9350506040612f6287828801612a40565b925050606085013567ffffffffffffffff811115612f8357612f826128a4565b5b612f8f87828801612eea565b91505092959194509250565b60008060408385031215612fb257612fb161289f565b5b6000612fc085828601612af5565b9250506020612fd185828601612af5565b9150509250929050565b7f4e487b7100000000000000000000000000000000000000000000000000000000600052602260045260246000fd5b6000600282049050600182168061302257607f821691505b6020821081141561303657613035612fdb565b5b50919050565b7f4552433732313a20617070726f76656420717565727920666f72206e6f6e657860008201527f697374656e7420746f6b656e0000000000000000000000000000000000000000602082015250565b6000613098602c8361296f565b91506130a38261303c565b604082019050919050565b600060208201905081810360008301526130c78161308b565b9050919050565b7f4552433732313a20617070726f76616c20746f2063757272656e74206f776e6560008201527f7200000000000000000000000000000000000000000000000000000000000000602082015250565b600061312a60218361296f565b9150613135826130ce565b604082019050919050565b600060208201905081810360008301526131598161311d565b9050919050565b7f4552433732313a20617070726f76652063616c6c6572206973206e6f74206f7760008201527f6e6572206e6f7220617070726f76656420666f7220616c6c0000000000000000602082015250565b60006131bc60388361296f565b91506131c782613160565b604082019050919050565b600060208201905081810360008301526131eb816131af565b9050919050565b7f4552433732313a207472616e736665722063616c6c6572206973206e6f74206f60008201527f776e6572206e6f7220617070726f766564000000000000000000000000000000602082015250565b600061324e60318361296f565b9150613259826131f2565b604082019050919050565b6000602082019050818103600083015261327d81613241565b9050919050565b7f455243373231456e756d657261626c653a206f776e657220696e646578206f7560008201527f74206f6620626f756e6473000000000000000000000000000000000000000000602082015250565b60006132e0602b8361296f565b91506132eb82613284565b604082019050919050565b6000602082019050818103600083015261330f816132d3565b9050919050565b7f455243373231456e756d657261626c653a20676c6f62616c20696e646578206f60008201527f7574206f6620626f756e64730000000000000000000000000000000000000000602082015250565b6000613372602c8361296f565b915061337d82613316565b604082019050919050565b600060208201905081810360008301526133a181613365565b9050919050565b7f4e487b7100000000000000000000000000000000000000000000000000000000600052603260045260246000fd5b7f4552433732313a206f776e657220717565727920666f72206e6f6e657869737460008201527f656e7420746f6b656e0000000000000000000000000000000000000000000000602082015250565b600061343360298361296f565b915061343e826133d7565b604082019050919050565b6000602082019050818103600083015261346281613426565b9050919050565b7f4f776e61626c653a2063616c6c6572206973206e6f7420746865206f776e6572600082015250565b600061349f60208361296f565b91506134aa82613469565b602082019050919050565b600060208201905081810360008301526134ce81613492565b9050919050565b60008160601b9050919050565b60006134ed826134d5565b9050919050565b60006134ff826134e2565b9050919050565b61351761351282612aa2565b6134f4565b82525050565b60006135298286613506565b6014820191506135398285613506565b6014820191506135498284613506565b601482019150819050949350505050565b7f746f6b656e496420646f65736e27742065786973740000000000000000000000600082015250565b600061359060158361296f565b915061359b8261355a565b602082019050919050565b600060208201905081810360008301526135bf81613583565b9050919050565b7f696e73756666696369656e742062616c616e6365000000000000000000000000600082015250565b60006135fc60148361296f565b9150613607826135c6565b602082019050919050565b6000602082019050818103600083015261362b816135ef565b9050919050565b7f4e487b7100000000000000000000000000000000000000000000000000000000600052601160045260246000fd5b600061366c82612a1f565b915061367783612a1f565b92508282101561368a57613689613632565b5b828203905092915050565b7f4552433732313a2062616c616e636520717565727920666f7220746865207a6560008201527f726f206164647265737300000000000000000000000000000000000000000000602082015250565b60006136f1602a8361296f565b91506136fc82613695565b604082019050919050565b60006020820190508181036000830152613720816136e4565b9050919050565b600061373282612a1f565b915061373d83612a1f565b9250827fffffffffffffffffffffffffffffffffffffffffffffffffffffffffffffffff0382111561377257613771613632565b5b828201905092915050565b600080fd5b60008151905061379181612a29565b92915050565b6000602082840312156137ad576137ac61377d565b5b6137b76020612e4d565b905060006137c784828501613782565b60008301525092915050565b60006fffffffffffffffffffffffffffffffff82169050919050565b6137f8816137d3565b811461380357600080fd5b50565b600081519050613815816137ef565b92915050565b600064ffffffffff82169050919050565b6138358161381b565b811461384057600080fd5b50565b6000815190506138528161382c565b92915050565b600061ffff82169050919050565b61386f81613858565b811461387a57600080fd5b50565b60008151905061388c81613866565b92915050565b6000815190506138a181612ade565b92915050565b60006101e082840312156138be576138bd61377d565b5b6138c96101e0612e4d565b905060006138d984828501613797565b60008301525060206138ed84828501613806565b602083015250604061390184828501613806565b604083015250606061391584828501613806565b606083015250608061392984828501613806565b60808301525060a061393d84828501613806565b60a08301525060c061395184828501613843565b60c08301525060e06139658482850161387d565b60e08301525061010061397a84828501613892565b6101008301525061012061399084828501613892565b610120830152506101406139a684828501613892565b610140830152506101606139bc84828501613892565b610160830152506101806139d284828501613806565b610180830152506101a06139e884828501613806565b6101a0830152506101c06139fe84828501613806565b6101c08301525092915050565b60006101e08284031215613a2257613a2161289f565b5b6000613a30848285016138a7565b91505092915050565b7f4552433732314d657461646174613a2055524920717565727920666f72206e6f60008201527f6e6578697374656e7420746f6b656e0000000000000000000000000000000000602082015250565b6000613a95602f8361296f565b9150613aa082613a39565b604082019050919050565b60006020820190508181036000830152613ac481613a88565b9050919050565b600081905092915050565b6000613ae182612964565b613aeb8185613acb565b9350613afb818560208601612980565b80840191505092915050565b6000613b138285613ad6565b9150613b1f8284613ad6565b91508190509392505050565b600060208284031215613b4157613b4061289f565b5b6000613b4f84828501613782565b91505092915050565b7f4f776e61626c653a206e6577206f776e657220697320746865207a65726f206160008201527f6464726573730000000000000000000000000000000000000000000000000000602082015250565b6000613bb460268361296f565b9150613bbf82613b58565b604082019050919050565b60006020820190508181036000830152613be381613ba7565b9050919050565b7f4552433732313a206f70657261746f7220717565727920666f72206e6f6e657860008201527f697374656e7420746f6b656e0000000000000000000000000000000000000000602082015250565b6000613c46602c8361296f565b9150613c5182613bea565b604082019050919050565b60006020820190508181036000830152613c7581613c39565b9050919050565b7f4552433732313a207472616e73666572206f6620746f6b656e2074686174206960008201527f73206e6f74206f776e0000000000000000000000000000000000000000000000602082015250565b6000613cd860298361296f565b9150613ce382613c7c565b604082019050919050565b60006020820190508181036000830152613d0781613ccb565b9050919050565b7f4552433732313a207472616e7366657220746f20746865207a65726f2061646460008201527f7265737300000000000000000000000000000000000000000000000000000000602082015250565b6000613d6a60248361296f565b9150613d7582613d0e565b604082019050919050565b60006020820190508181036000830152613d9981613d5d565b9050919050565b7f6469766973696f6e206279203000000000000000000000000000000000000000600082015250565b6000613dd6600d8361296f565b9150613de182613da0565b602082019050919050565b60006020820190508181036000830152613e0581613dc9565b9050919050565b7f4e487b7100000000000000000000000000000000000000000000000000000000600052601260045260246000fd5b6000613e4682612a1f565b9150613e5183612a1f565b925082613e6157613e60613e0c565b5b828204905092915050565b7f6d756c7469706c69636174696f6e206f766572666c6f77000000000000000000600082015250565b6000613ea260178361296f565b9150613ead82613e6c565b602082019050919050565b60006020820190508181036000830152613ed181613e95565b9050919050565b6000613ee382612a1f565b9150613eee83612a1f565b9250817fffffffffffffffffffffffffffffffffffffffffffffffffffffffffffffffff0483118215151615613f2757613f26613632565b5b828202905092915050565b7f4552433732313a206d696e7420746f20746865207a65726f2061646472657373600082015250565b6000613f6860208361296f565b9150613f7382613f32565b602082019050919050565b60006020820190508181036000830152613f9781613f5b565b9050919050565b7f4552433732313a20746f6b656e20616c7265616479206d696e74656400000000600082015250565b6000613fd4601c8361296f565b9150613fdf82613f9e565b602082019050919050565b6000602082019050818103600083015261400381613fc7565b9050919050565b7f4552433732313a20617070726f766520746f2063616c6c657200000000000000600082015250565b600061404060198361296f565b915061404b8261400a565b602082019050919050565b6000602082019050818103600083015261406f81614033565b9050919050565b7f4552433732313a207472616e7366657220746f206e6f6e20455243373231526560008201527f63656976657220696d706c656d656e7465720000000000000000000000000000602082015250565b60006140d260328361296f565b91506140dd82614076565b604082019050919050565b60006020820190508181036000830152614101816140c5565b9050919050565b600061411382612a1f565b91507fffffffffffffffffffffffffffffffffffffffffffffffffffffffffffffffff82141561414657614145613632565b5b600182019050919050565b600061415c82612a1f565b915061416783612a1f565b92508261417757614176613e0c565b5b828206905092915050565b600081519050919050565b600082825260208201905092915050565b60006141a982614182565b6141b3818561418d565b93506141c3818560208601612980565b6141cc816129b3565b840191505092915050565b60006080820190506141ec6000830187612ab4565b6141f96020830186612ab4565b6142066040830185612b4a565b8181036060830152614218818461419e565b905095945050505050565b600081519050614232816128d5565b92915050565b60006020828403121561424e5761424d61289f565b5b600061425c84828501614223565b91505092915050565b7f4e487b7100000000000000000000000000000000000000000000000000000000600052603160045260246000fdfea26469706673582212203de25cc9e97a3e6881127cafa6bec442e4d39fd72854cebc9e9b975637e5720764736f6c6343000809003360806040523480156200001157600080fd5b506040518060400160405280600f81526020017f4a4350204f776e657220546f6b656e00000000000000000000000000000000008152506040518060400160405280600c81526020017f4a4350545f544553545f4f310000000000000000000000000000000000000000815250816000908051906020019062000096929190620001a6565b508060019080519060200190620000af929190620001a6565b505050620000d2620000c6620000d860201b60201c565b620000e060201b60201c565b620002bb565b600033905090565b6000600a60009054906101000a900473ffffffffffffffffffffffffffffffffffffffff16905081600a60006101000a81548173ffffffffffffffffffffffffffffffffffffffff021916908373ffffffffffffffffffffffffffffffffffffffff1602179055508173ffffffffffffffffffffffffffffffffffffffff168173ffffffffffffffffffffffffffffffffffffffff167f8be0079c531659141344cd1fd0a4f28419497f9722a3daafe3b4186f6b6457e060405160405180910390a35050565b828054620001b49062000285565b90600052602060002090601f016020900481019282620001d8576000855562000224565b82601f10620001f357805160ff191683800117855562000224565b8280016001018555821562000224579182015b828111156200022357825182559160200191906001019062000206565b5b50905062000233919062000237565b5090565b5b808211156200025257600081600090555060010162000238565b5090565b7f4e487b7100000000000000000000000000000000000000000000000000000000600052602260045260246000fd5b600060028204905060018216806200029e57607f821691505b60208210811415620002b557620002b462000256565b5b50919050565b61354f80620002cb6000396000f3fe608060405234801561001057600080fd5b50600436106101375760003560e01c80636352211e116100b8578063a22cb4651161007c578063a22cb46514610362578063b88d4fde1461037e578063c6fdbc901461039a578063c87b56dd146103ca578063e985e9c5146103fa578063f2fde38b1461042a57610137565b80636352211e146102bc57806370a08231146102ec578063715018a61461031c5780638da5cb5b1461032657806395d89b411461034457610137565b806323579ba1116100ff57806323579ba1146101f457806323b872dd146102245780632f745c591461024057806342842e0e146102705780634f6ccce71461028c57610137565b806301ffc9a71461013c57806306fdde031461016c578063081812fc1461018a578063095ea7b3146101ba57806318160ddd146101d6575b600080fd5b610156600480360381019061015191906121c6565b610446565b604051610163919061220e565b60405180910390f35b6101746104c0565b60405161018191906122c2565b60405180910390f35b6101a4600480360381019061019f919061231a565b610552565b6040516101b19190612388565b60405180910390f35b6101d460048036038101906101cf91906123cf565b6105d7565b005b6101de6106ef565b6040516101eb919061241e565b60405180910390f35b61020e60048036038101906102099190612439565b6106fc565b60405161021b919061241e565b60405180910390f35b61023e6004803603810190610239919061248c565b610839565b005b61025a600480360381019061025591906123cf565b610899565b604051610267919061241e565b60405180910390f35b61028a6004803603810190610285919061248c565b61093e565b005b6102a660048036038101906102a1919061231a565b61095e565b6040516102b3919061241e565b60405180910390f35b6102d660048036038101906102d1919061231a565b6109cf565b6040516102e39190612388565b60405180910390f35b610306600480360381019061030191906124df565b610a81565b604051610313919061241e565b60405180910390f35b610324610b39565b005b61032e610bc1565b60405161033b9190612388565b60405180910390f35b61034c610beb565b60405161035991906122c2565b60405180910390f35b61037c60048036038101906103779190612538565b610c7d565b005b610398600480360381019061039391906126ad565b610c93565b005b6103b460048036038101906103af919061231a565b610cf5565b6040516103c1919061277d565b60405180910390f35b6103e460048036038101906103df919061231a565b610d82565b6040516103f191906122c2565b60405180910390f35b610414600480360381019061040f9190612798565b610e29565b604051610421919061220e565b60405180910390f35b610444600480360381019061043f91906124df565b610ebd565b005b60007f780e9d63000000000000000000000000000000000000000000000000000000007bffffffffffffffffffffffffffffffffffffffffffffffffffffffff1916827bffffffffffffffffffffffffffffffffffffffffffffffffffffffff191614806104b957506104b882610fb5565b5b9050919050565b6060600080546104cf90612807565b80601f01602080910402602001604051908101604052809291908181526020018280546104fb90612807565b80156105485780601f1061051d57610100808354040283529160200191610548565b820191906000526020600020905b81548152906001019060200180831161052b57829003601f168201915b5050505050905090565b600061055d82611097565b61059c576040517f08c379a0000000000000000000000000000000000000000000000000000000008152600401610593906128ab565b60405180910390fd5b6004600083815260200190815260200160002060009054906101000a900473ffffffffffffffffffffffffffffffffffffffff169050919050565b60006105e2826109cf565b90508073ffffffffffffffffffffffffffffffffffffffff168373ffffffffffffffffffffffffffffffffffffffff161415610653576040517f08c379a000000000000000000000000000000000000000000000000000000000815260040161064a9061293d565b60405180910390fd5b8073ffffffffffffffffffffffffffffffffffffffff16610672611103565b73ffffffffffffffffffffffffffffffffffffffff1614806106a157506106a08161069b611103565b610e29565b5b6106e0576040517f08c379a00000000000000000000000000000000000000000000000000000000081526004016106d7906129cf565b60405180910390fd5b6106ea838361110b565b505050565b6000600880549050905090565b6000610706611103565b73ffffffffffffffffffffffffffffffffffffffff16610724610bc1565b73ffffffffffffffffffffffffffffffffffffffff161461077a576040517f08c379a000000000000000000000000000000000000000000000000000000000815260040161077190612a3b565b60405180910390fd5b610784600b6111c4565b6000610790600b6111da565b905060405180604001604052808581526020018473ffffffffffffffffffffffffffffffffffffffff16815250600c60008381526020019081526020016000206000820151816000015560208201518160010160006101000a81548173ffffffffffffffffffffffffffffffffffffffff021916908373ffffffffffffffffffffffffffffffffffffffff16021790555090505061082e85826111e8565b809150509392505050565b61084a610844611103565b826113b6565b610889576040517f08c379a000000000000000000000000000000000000000000000000000000000815260040161088090612acd565b60405180910390fd5b610894838383611494565b505050565b60006108a483610a81565b82106108e5576040517f08c379a00000000000000000000000000000000000000000000000000000000081526004016108dc90612b5f565b60405180910390fd5b600660008473ffffffffffffffffffffffffffffffffffffffff1673ffffffffffffffffffffffffffffffffffffffff168152602001908152602001600020600083815260200190815260200160002054905092915050565b61095983838360405180602001604052806000815250610c93565b505050565b60006109686106ef565b82106109a9576040517f08c379a00000000000000000000000000000000000000000000000000000000081526004016109a090612bf1565b60405180910390fd5b600882815481106109bd576109bc612c11565b5b90600052602060002001549050919050565b6000806002600084815260200190815260200160002060009054906101000a900473ffffffffffffffffffffffffffffffffffffffff169050600073ffffffffffffffffffffffffffffffffffffffff168173ffffffffffffffffffffffffffffffffffffffff161415610a78576040517f08c379a0000000000000000000000000000000000000000000000000000000008152600401610a6f90612cb2565b60405180910390fd5b80915050919050565b60008073ffffffffffffffffffffffffffffffffffffffff168273ffffffffffffffffffffffffffffffffffffffff161415610af2576040517f08c379a0000000000000000000000000000000000000000000000000000000008152600401610ae990612d44565b60405180910390fd5b600360008373ffffffffffffffffffffffffffffffffffffffff1673ffffffffffffffffffffffffffffffffffffffff168152602001908152602001600020549050919050565b610b41611103565b73ffffffffffffffffffffffffffffffffffffffff16610b5f610bc1565b73ffffffffffffffffffffffffffffffffffffffff1614610bb5576040517f08c379a0000000000000000000000000000000000000000000000000000000008152600401610bac90612a3b565b60405180910390fd5b610bbf60006116f0565b565b6000600a60009054906101000a900473ffffffffffffffffffffffffffffffffffffffff16905090565b606060018054610bfa90612807565b80601f0160208091040260200160405190810160405280929190818152602001828054610c2690612807565b8015610c735780601f10610c4857610100808354040283529160200191610c73565b820191906000526020600020905b815481529060010190602001808311610c5657829003601f168201915b5050505050905090565b610c8f610c88611103565b83836117b6565b5050565b610ca4610c9e611103565b836113b6565b610ce3576040517f08c379a0000000000000000000000000000000000000000000000000000000008152600401610cda90612acd565b60405180910390fd5b610cef84848484611923565b50505050565b610cfd61212a565b600c6000838152602001908152602001600020604051806040016040529081600082015481526020016001820160009054906101000a900473ffffffffffffffffffffffffffffffffffffffff1673ffffffffffffffffffffffffffffffffffffffff1673ffffffffffffffffffffffffffffffffffffffff16815250509050919050565b6060610d8d82611097565b610dcc576040517f08c379a0000000000000000000000000000000000000000000000000000000008152600401610dc390612dd6565b60405180910390fd5b6000610dd661197f565b90506000815111610df65760405180602001604052806000815250610e21565b80610e0084611996565b604051602001610e11929190612e32565b6040516020818303038152906040525b915050919050565b6000600560008473ffffffffffffffffffffffffffffffffffffffff1673ffffffffffffffffffffffffffffffffffffffff16815260200190815260200160002060008373ffffffffffffffffffffffffffffffffffffffff1673ffffffffffffffffffffffffffffffffffffffff16815260200190815260200160002060009054906101000a900460ff16905092915050565b610ec5611103565b73ffffffffffffffffffffffffffffffffffffffff16610ee3610bc1565b73ffffffffffffffffffffffffffffffffffffffff1614610f39576040517f08c379a0000000000000000000000000000000000000000000000000000000008152600401610f3090612a3b565b60405180910390fd5b600073ffffffffffffffffffffffffffffffffffffffff168173ffffffffffffffffffffffffffffffffffffffff161415610fa9576040517f08c379a0000000000000000000000000000000000000000000000000000000008152600401610fa090612ec8565b60405180910390fd5b610fb2816116f0565b50565b60007f80ac58cd000000000000000000000000000000000000000000000000000000007bffffffffffffffffffffffffffffffffffffffffffffffffffffffff1916827bffffffffffffffffffffffffffffffffffffffffffffffffffffffff1916148061108057507f5b5e139f000000000000000000000000000000000000000000000000000000007bffffffffffffffffffffffffffffffffffffffffffffffffffffffff1916827bffffffffffffffffffffffffffffffffffffffffffffffffffffffff1916145b80611090575061108f82611af7565b5b9050919050565b60008073ffffffffffffffffffffffffffffffffffffffff166002600084815260200190815260200160002060009054906101000a900473ffffffffffffffffffffffffffffffffffffffff1673ffffffffffffffffffffffffffffffffffffffff1614159050919050565b600033905090565b816004600083815260200190815260200160002060006101000a81548173ffffffffffffffffffffffffffffffffffffffff021916908373ffffffffffffffffffffffffffffffffffffffff160217905550808273ffffffffffffffffffffffffffffffffffffffff1661117e836109cf565b73ffffffffffffffffffffffffffffffffffffffff167f8c5be1e5ebec7d5bd14f71427d1e84f3dd0314c0f7b2291e5b200ac8c7c3b92560405160405180910390a45050565b6001816000016000828254019250508190555050565b600081600001549050919050565b600073ffffffffffffffffffffffffffffffffffffffff168273ffffffffffffffffffffffffffffffffffffffff161415611258576040517f08c379a000000000000000000000000000000000000000000000000000000000815260040161124f90612f34565b60405180910390fd5b61126181611097565b156112a1576040517f08c379a000000000000000000000000000000000000000000000000000000000815260040161129890612fa0565b60405180910390fd5b6112ad60008383611b61565b6001600360008473ffffffffffffffffffffffffffffffffffffffff1673ffffffffffffffffffffffffffffffffffffffff16815260200190815260200160002060008282546112fd9190612fef565b92505081905550816002600083815260200190815260200160002060006101000a81548173ffffffffffffffffffffffffffffffffffffffff021916908373ffffffffffffffffffffffffffffffffffffffff160217905550808273ffffffffffffffffffffffffffffffffffffffff16600073ffffffffffffffffffffffffffffffffffffffff167fddf252ad1be2c89b69c2b068fc378daa952ba7f163c4a11628f55a4df523b3ef60405160405180910390a45050565b60006113c182611097565b611400576040517f08c379a00000000000000000000000000000000000000000000000000000000081526004016113f7906130b7565b60405180910390fd5b600061140b836109cf565b90508073ffffffffffffffffffffffffffffffffffffffff168473ffffffffffffffffffffffffffffffffffffffff16148061147a57508373ffffffffffffffffffffffffffffffffffffffff1661146284610552565b73ffffffffffffffffffffffffffffffffffffffff16145b8061148b575061148a8185610e29565b5b91505092915050565b8273ffffffffffffffffffffffffffffffffffffffff166114b4826109cf565b73ffffffffffffffffffffffffffffffffffffffff161461150a576040517f08c379a000000000000000000000000000000000000000000000000000000000815260040161150190613149565b60405180910390fd5b600073ffffffffffffffffffffffffffffffffffffffff168273ffffffffffffffffffffffffffffffffffffffff16141561157a576040517f08c379a0000000000000000000000000000000000000000000000000000000008152600401611571906131db565b60405180910390fd5b611585838383611b61565b61159060008261110b565b6001600360008573ffffffffffffffffffffffffffffffffffffffff1673ffffffffffffffffffffffffffffffffffffffff16815260200190815260200160002060008282546115e091906131fb565b925050819055506001600360008473ffffffffffffffffffffffffffffffffffffffff1673ffffffffffffffffffffffffffffffffffffffff16815260200190815260200160002060008282546116379190612fef565b92505081905550816002600083815260200190815260200160002060006101000a81548173ffffffffffffffffffffffffffffffffffffffff021916908373ffffffffffffffffffffffffffffffffffffffff160217905550808273ffffffffffffffffffffffffffffffffffffffff168473ffffffffffffffffffffffffffffffffffffffff167fddf252ad1be2c89b69c2b068fc378daa952ba7f163c4a11628f55a4df523b3ef60405160405180910390a4505050565b6000600a60009054906101000a900473ffffffffffffffffffffffffffffffffffffffff16905081600a60006101000a81548173ffffffffffffffffffffffffffffffffffffffff021916908373ffffffffffffffffffffffffffffffffffffffff1602179055508173ffffffffffffffffffffffffffffffffffffffff168173ffffffffffffffffffffffffffffffffffffffff167f8be0079c531659141344cd1fd0a4f28419497f9722a3daafe3b4186f6b6457e060405160405180910390a35050565b8173ffffffffffffffffffffffffffffffffffffffff168373ffffffffffffffffffffffffffffffffffffffff161415611825576040517f08c379a000000000000000000000000000000000000000000000000000000000815260040161181c9061327b565b60405180910390fd5b80600560008573ffffffffffffffffffffffffffffffffffffffff1673ffffffffffffffffffffffffffffffffffffffff16815260200190815260200160002060008473ffffffffffffffffffffffffffffffffffffffff1673ffffffffffffffffffffffffffffffffffffffff16815260200190815260200160002060006101000a81548160ff0219169083151502179055508173ffffffffffffffffffffffffffffffffffffffff168373ffffffffffffffffffffffffffffffffffffffff167f17307eab39ab6107e8899845ad3d59bd9653f200f220920489ca2b5937696c3183604051611916919061220e565b60405180910390a3505050565b61192e848484611494565b61193a84848484611c75565b611979576040517f08c379a00000000000000000000000000000000000000000000000000000000081526004016119709061330d565b60405180910390fd5b50505050565b606060405180602001604052806000815250905090565b606060008214156119de576040518060400160405280600181526020017f30000000000000000000000000000000000000000000000000000000000000008152509050611af2565b600082905060005b60008214611a105780806119f99061332d565b915050600a82611a0991906133a5565b91506119e6565b60008167ffffffffffffffff811115611a2c57611a2b612582565b5b6040519080825280601f01601f191660200182016040528015611a5e5781602001600182028036833780820191505090505b5090505b60008514611aeb57600182611a7791906131fb565b9150600a85611a8691906133d6565b6030611a929190612fef565b60f81b818381518110611aa857611aa7612c11565b5b60200101907effffffffffffffffffffffffffffffffffffffffffffffffffffffffffffff1916908160001a905350600a85611ae491906133a5565b9450611a62565b8093505050505b919050565b60007f01ffc9a7000000000000000000000000000000000000000000000000000000007bffffffffffffffffffffffffffffffffffffffffffffffffffffffff1916827bffffffffffffffffffffffffffffffffffffffffffffffffffffffff1916149050919050565b611b6c838383611e0c565b600073ffffffffffffffffffffffffffffffffffffffff168373ffffffffffffffffffffffffffffffffffffffff161415611baf57611baa81611e11565b611bee565b8173ffffffffffffffffffffffffffffffffffffffff168373ffffffffffffffffffffffffffffffffffffffff1614611bed57611bec8382611e5a565b5b5b600073ffffffffffffffffffffffffffffffffffffffff168273ffffffffffffffffffffffffffffffffffffffff161415611c3157611c2c81611fc7565b611c70565b8273ffffffffffffffffffffffffffffffffffffffff168273ffffffffffffffffffffffffffffffffffffffff1614611c6f57611c6e8282612098565b5b5b505050565b6000611c968473ffffffffffffffffffffffffffffffffffffffff16612117565b15611dff578373ffffffffffffffffffffffffffffffffffffffff1663150b7a02611cbf611103565b8786866040518563ffffffff1660e01b8152600401611ce1949392919061345c565b602060405180830381600087803b158015611cfb57600080fd5b505af1925050508015611d2c57506040513d601f19601f82011682018060405250810190611d2991906134bd565b60015b611daf573d8060008114611d5c576040519150601f19603f3d011682016040523d82523d6000602084013e611d61565b606091505b50600081511415611da7576040517f08c379a0000000000000000000000000000000000000000000000000000000008152600401611d9e9061330d565b60405180910390fd5b805181602001fd5b63150b7a0260e01b7bffffffffffffffffffffffffffffffffffffffffffffffffffffffff1916817bffffffffffffffffffffffffffffffffffffffffffffffffffffffff191614915050611e04565b600190505b949350505050565b505050565b6008805490506009600083815260200190815260200160002081905550600881908060018154018082558091505060019003906000526020600020016000909190919091505550565b60006001611e6784610a81565b611e7191906131fb565b9050600060076000848152602001908152602001600020549050818114611f56576000600660008673ffffffffffffffffffffffffffffffffffffffff1673ffffffffffffffffffffffffffffffffffffffff168152602001908152602001600020600084815260200190815260200160002054905080600660008773ffffffffffffffffffffffffffffffffffffffff1673ffffffffffffffffffffffffffffffffffffffff168152602001908152602001600020600084815260200190815260200160002081905550816007600083815260200190815260200160002081905550505b6007600084815260200190815260200160002060009055600660008573ffffffffffffffffffffffffffffffffffffffff1673ffffffffffffffffffffffffffffffffffffffff16815260200190815260200160002060008381526020019081526020016000206000905550505050565b60006001600880549050611fdb91906131fb565b905060006009600084815260200190815260200160002054905060006008838154811061200b5761200a612c11565b5b90600052602060002001549050806008838154811061202d5761202c612c11565b5b90600052602060002001819055508160096000838152602001908152602001600020819055506009600085815260200190815260200160002060009055600880548061207c5761207b6134ea565b5b6001900381819060005260206000200160009055905550505050565b60006120a383610a81565b905081600660008573ffffffffffffffffffffffffffffffffffffffff1673ffffffffffffffffffffffffffffffffffffffff168152602001908152602001600020600083815260200190815260200160002081905550806007600084815260200190815260200160002081905550505050565b600080823b905060008111915050919050565b604051806040016040528060008152602001600073ffffffffffffffffffffffffffffffffffffffff1681525090565b6000604051905090565b600080fd5b600080fd5b60007fffffffff0000000000000000000000000000000000000000000000000000000082169050919050565b6121a38161216e565b81146121ae57600080fd5b50565b6000813590506121c08161219a565b92915050565b6000602082840312156121dc576121db612164565b5b60006121ea848285016121b1565b91505092915050565b60008115159050919050565b612208816121f3565b82525050565b600060208201905061222360008301846121ff565b92915050565b600081519050919050565b600082825260208201905092915050565b60005b83811015612263578082015181840152602081019050612248565b83811115612272576000848401525b50505050565b6000601f19601f8301169050919050565b600061229482612229565b61229e8185612234565b93506122ae818560208601612245565b6122b781612278565b840191505092915050565b600060208201905081810360008301526122dc8184612289565b905092915050565b6000819050919050565b6122f7816122e4565b811461230257600080fd5b50565b600081359050612314816122ee565b92915050565b6000602082840312156123305761232f612164565b5b600061233e84828501612305565b91505092915050565b600073ffffffffffffffffffffffffffffffffffffffff82169050919050565b600061237282612347565b9050919050565b61238281612367565b82525050565b600060208201905061239d6000830184612379565b92915050565b6123ac81612367565b81146123b757600080fd5b50565b6000813590506123c9816123a3565b92915050565b600080604083850312156123e6576123e5612164565b5b60006123f4858286016123ba565b925050602061240585828601612305565b9150509250929050565b612418816122e4565b82525050565b6000602082019050612433600083018461240f565b92915050565b60008060006060848603121561245257612451612164565b5b6000612460868287016123ba565b935050602061247186828701612305565b9250506040612482868287016123ba565b9150509250925092565b6000806000606084860312156124a5576124a4612164565b5b60006124b3868287016123ba565b93505060206124c4868287016123ba565b92505060406124d586828701612305565b9150509250925092565b6000602082840312156124f5576124f4612164565b5b6000612503848285016123ba565b91505092915050565b612515816121f3565b811461252057600080fd5b50565b6000813590506125328161250c565b92915050565b6000806040838503121561254f5761254e612164565b5b600061255d858286016123ba565b925050602061256e85828601612523565b9150509250929050565b600080fd5b600080fd5b7f4e487b7100000000000000000000000000000000000000000000000000000000600052604160045260246000fd5b6125ba82612278565b810181811067ffffffffffffffff821117156125d9576125d8612582565b5b80604052505050565b60006125ec61215a565b90506125f882826125b1565b919050565b600067ffffffffffffffff82111561261857612617612582565b5b61262182612278565b9050602081019050919050565b82818337600083830152505050565b600061265061264b846125fd565b6125e2565b90508281526020810184848401111561266c5761266b61257d565b5b61267784828561262e565b509392505050565b600082601f83011261269457612693612578565b5b81356126a484826020860161263d565b91505092915050565b600080600080608085870312156126c7576126c6612164565b5b60006126d5878288016123ba565b94505060206126e6878288016123ba565b93505060406126f787828801612305565b925050606085013567ffffffffffffffff81111561271857612717612169565b5b6127248782880161267f565b91505092959194509250565b612739816122e4565b82525050565b61274881612367565b82525050565b6040820160008201516127646000850182612730565b506020820151612777602085018261273f565b50505050565b6000604082019050612792600083018461274e565b92915050565b600080604083850312156127af576127ae612164565b5b60006127bd858286016123ba565b92505060206127ce858286016123ba565b9150509250929050565b7f4e487b7100000000000000000000000000000000000000000000000000000000600052602260045260246000fd5b6000600282049050600182168061281f57607f821691505b60208210811415612833576128326127d8565b5b50919050565b7f4552433732313a20617070726f76656420717565727920666f72206e6f6e657860008201527f697374656e7420746f6b656e0000000000000000000000000000000000000000602082015250565b6000612895602c83612234565b91506128a082612839565b604082019050919050565b600060208201905081810360008301526128c481612888565b9050919050565b7f4552433732313a20617070726f76616c20746f2063757272656e74206f776e6560008201527f7200000000000000000000000000000000000000000000000000000000000000602082015250565b6000612927602183612234565b9150612932826128cb565b604082019050919050565b600060208201905081810360008301526129568161291a565b9050919050565b7f4552433732313a20617070726f76652063616c6c6572206973206e6f74206f7760008201527f6e6572206e6f7220617070726f76656420666f7220616c6c0000000000000000602082015250565b60006129b9603883612234565b91506129c48261295d565b604082019050919050565b600060208201905081810360008301526129e8816129ac565b9050919050565b7f4f776e61626c653a2063616c6c6572206973206e6f7420746865206f776e6572600082015250565b6000612a25602083612234565b9150612a30826129ef565b602082019050919050565b60006020820190508181036000830152612a5481612a18565b9050919050565b7f4552433732313a207472616e736665722063616c6c6572206973206e6f74206f60008201527f776e6572206e6f7220617070726f766564000000000000000000000000000000602082015250565b6000612ab7603183612234565b9150612ac282612a5b565b604082019050919050565b60006020820190508181036000830152612ae681612aaa565b9050919050565b7f455243373231456e756d657261626c653a206f776e657220696e646578206f7560008201527f74206f6620626f756e6473000000000000000000000000000000000000000000602082015250565b6000612b49602b83612234565b9150612b5482612aed565b604082019050919050565b60006020820190508181036000830152612b7881612b3c565b9050919050565b7f455243373231456e756d657261626c653a20676c6f62616c20696e646578206f60008201527f7574206f6620626f756e64730000000000000000000000000000000000000000602082015250565b6000612bdb602c83612234565b9150612be682612b7f565b604082019050919050565b60006020820190508181036000830152612c0a81612bce565b9050919050565b7f4e487b7100000000000000000000000000000000000000000000000000000000600052603260045260246000fd5b7f4552433732313a206f776e657220717565727920666f72206e6f6e657869737460008201527f656e7420746f6b656e0000000000000000000000000000000000000000000000602082015250565b6000612c9c602983612234565b9150612ca782612c40565b604082019050919050565b60006020820190508181036000830152612ccb81612c8f565b9050919050565b7f4552433732313a2062616c616e636520717565727920666f7220746865207a6560008201527f726f206164647265737300000000000000000000000000000000000000000000602082015250565b6000612d2e602a83612234565b9150612d3982612cd2565b604082019050919050565b60006020820190508181036000830152612d5d81612d21565b9050919050565b7f4552433732314d657461646174613a2055524920717565727920666f72206e6f60008201527f6e6578697374656e7420746f6b656e0000000000000000000000000000000000602082015250565b6000612dc0602f83612234565b9150612dcb82612d64565b604082019050919050565b60006020820190508181036000830152612def81612db3565b9050919050565b600081905092915050565b6000612e0c82612229565b612e168185612df6565b9350612e26818560208601612245565b80840191505092915050565b6000612e3e8285612e01565b9150612e4a8284612e01565b91508190509392505050565b7f4f776e61626c653a206e6577206f776e657220697320746865207a65726f206160008201527f6464726573730000000000000000000000000000000000000000000000000000602082015250565b6000612eb2602683612234565b9150612ebd82612e56565b604082019050919050565b60006020820190508181036000830152612ee181612ea5565b9050919050565b7f4552433732313a206d696e7420746f20746865207a65726f2061646472657373600082015250565b6000612f1e602083612234565b9150612f2982612ee8565b602082019050919050565b60006020820190508181036000830152612f4d81612f11565b9050919050565b7f4552433732313a20746f6b656e20616c7265616479206d696e74656400000000600082015250565b6000612f8a601c83612234565b9150612f9582612f54565b602082019050919050565b60006020820190508181036000830152612fb981612f7d565b9050919050565b7f4e487b7100000000000000000000000000000000000000000000000000000000600052601160045260246000fd5b6000612ffa826122e4565b9150613005836122e4565b9250827fffffffffffffffffffffffffffffffffffffffffffffffffffffffffffffffff0382111561303a57613039612fc0565b5b828201905092915050565b7f4552433732313a206f70657261746f7220717565727920666f72206e6f6e657860008201527f697374656e7420746f6b656e0000000000000000000000000000000000000000602082015250565b60006130a1602c83612234565b91506130ac82613045565b604082019050919050565b600060208201905081810360008301526130d081613094565b9050919050565b7f4552433732313a207472616e73666572206f6620746f6b656e2074686174206960008201527f73206e6f74206f776e0000000000000000000000000000000000000000000000602082015250565b6000613133602983612234565b915061313e826130d7565b604082019050919050565b6000602082019050818103600083015261316281613126565b9050919050565b7f4552433732313a207472616e7366657220746f20746865207a65726f2061646460008201527f7265737300000000000000000000000000000000000000000000000000000000602082015250565b60006131c5602483612234565b91506131d082613169565b604082019050919050565b600060208201905081810360008301526131f4816131b8565b9050919050565b6000613206826122e4565b9150613211836122e4565b92508282101561322457613223612fc0565b5b828203905092915050565b7f4552433732313a20617070726f766520746f2063616c6c657200000000000000600082015250565b6000613265601983612234565b91506132708261322f565b602082019050919050565b6000602082019050818103600083015261329481613258565b9050919050565b7f4552433732313a207472616e7366657220746f206e6f6e20455243373231526560008201527f63656976657220696d706c656d656e7465720000000000000000000000000000602082015250565b60006132f7603283612234565b91506133028261329b565b604082019050919050565b60006020820190508181036000830152613326816132ea565b9050919050565b6000613338826122e4565b91507fffffffffffffffffffffffffffffffffffffffffffffffffffffffffffffffff82141561336b5761336a612fc0565b5b600182019050919050565b7f4e487b7100000000000000000000000000000000000000000000000000000000600052601260045260246000fd5b60006133b0826122e4565b91506133bb836122e4565b9250826133cb576133ca613376565b5b828204905092915050565b60006133e1826122e4565b91506133ec836122e4565b9250826133fc576133fb613376565b5b828206905092915050565b600081519050919050565b600082825260208201905092915050565b600061342e82613407565b6134388185613412565b9350613448818560208601612245565b61345181612278565b840191505092915050565b60006080820190506134716000830187612379565b61347e6020830186612379565b61348b604083018561240f565b818103606083015261349d8184613423565b905095945050505050565b6000815190506134b78161219a565b92915050565b6000602082840312156134d3576134d2612164565b5b60006134e1848285016134a8565b91505092915050565b7f4e487b7100000000000000000000000000000000000000000000000000000000600052603160045260246000fdfea264697066735822122026f234fed35369dd7ffca2feeca2c6a82df2d1fdaaee773bebcb1869ec59ea8464736f6c63430008090033608060405234801561001057600080fd5b506001600360006101000a81548160ff021916908315150217905550612cb48061003b6000396000f3fe608060405234801561001057600080fd5b50600436106101165760003560e01c8063343d693b116100a257806357ac65661161007157806357ac6566146102e15780635ff189b9146102ff578063711cc0051461032f5780638aebe8d61461035f578063d15e00531461038f57610116565b8063343d693b1461025b5780633735ef881461027957806347e7ef24146102a957806350d02d71146102c557610116565b806317d7de7c116100e957806317d7de7c146101b55780631b88094d146101d35780632e599054146101f15780632f7570061461020d578063322ce09e1461022b57610116565b80630251cfa11461011b5780630712f6b31461014b5780630835d21a1461017b57806312eeff7e14610199575b600080fd5b61013560048036038101906101309190611ca8565b6103bf565b6040516101429190611cee565b60405180910390f35b61016560048036038101906101609190611ca8565b610408565b6040516101729190611cee565b60405180910390f35b6101836104a7565b6040516101909190611d22565b60405180910390f35b6101b360048036038101906101ae9190611da1565b610507565b005b6101bd6108a7565b6040516101ca9190611ea1565b60405180910390f35b6101db610939565b6040516101e89190611ed2565b60405180910390f35b61020b60048036038101906102069190611eed565b610963565b005b610215610a4f565b6040516102229190611feb565b60405180910390f35b6102456004803603810190610240919061200d565b610add565b6040516102529190611cee565b60405180910390f35b61026361100d565b6040516102709190611ea1565b60405180910390f35b610293600480360381019061028e9190611ca8565b61109f565b6040516102a09190611cee565b60405180910390f35b6102c360048036038101906102be9190611eed565b61118e565b005b6102df60048036038101906102da919061224a565b611367565b005b6102e9611829565b6040516102f6919061235a565b60405180910390f35b61031960048036038101906103149190611ca8565b611863565b6040516103269190611cee565b60405180910390f35b61034960048036038101906103449190611ca8565b6118ac565b6040516103569190611ed2565b60405180910390f35b61037960048036038101906103749190611ca8565b611966565b6040516103869190611cee565b60405180910390f35b6103a960048036038101906103a49190611ca8565b611a31565b6040516103b69190611cee565b60405180910390f35b6000600160008373ffffffffffffffffffffffffffffffffffffffff1673ffffffffffffffffffffffffffffffffffffffff168152602001908152602001600020549050919050565b600080610414836118ac565b90508073ffffffffffffffffffffffffffffffffffffffff166370a08231306040518263ffffffff1660e01b815260040161044f9190611ed2565b60206040518083038186803b15801561046757600080fd5b505afa15801561047b573d6000803e3d6000fd5b505050506040513d601f19601f8201168201806040525081019061049f9190612391565b915050919050565b60003073ffffffffffffffffffffffffffffffffffffffff16803b806020016040519081016040528181526000908060200190933c6040516020016104ec91906123fa565b60405160208183030381529060405280519060200120905090565b338073ffffffffffffffffffffffffffffffffffffffff16600860009054906101000a900473ffffffffffffffffffffffffffffffffffffffff1673ffffffffffffffffffffffffffffffffffffffff1614610598576040517f08c379a000000000000000000000000000000000000000000000000000000000815260040161058f9061245d565b60405180910390fd5b828585600081116105de576040517f08c379a00000000000000000000000000000000000000000000000000000000081526004016105d5906124c9565b60405180910390fd5b86600160008a73ffffffffffffffffffffffffffffffffffffffff1673ffffffffffffffffffffffffffffffffffffffff168152602001908152602001600020600082825461062d9190612518565b92505081905550846106f057600460009054906101000a900473ffffffffffffffffffffffffffffffffffffffff1673ffffffffffffffffffffffffffffffffffffffff166369328dec8989896040518463ffffffff1660e01b81526004016106989392919061254c565b602060405180830381600087803b1580156106b257600080fd5b505af11580156106c6573d6000803e3d6000fd5b505050506040513d601f19601f820116820180604052508101906106ea9190612391565b50610862565b60006106fb896118ac565b90508073ffffffffffffffffffffffffffffffffffffffff1663095ea7b3600560009054906101000a900473ffffffffffffffffffffffffffffffffffffffff168a6040518363ffffffff1660e01b815260040161075a929190612583565b602060405180830381600087803b15801561077457600080fd5b505af1158015610788573d6000803e3d6000fd5b505050506040513d601f19601f820116820180604052508101906107ac91906125c1565b50600560009054906101000a900473ffffffffffffffffffffffffffffffffffffffff1673ffffffffffffffffffffffffffffffffffffffff166380500d20600460009054906101000a900473ffffffffffffffffffffffffffffffffffffffff168a8a6040518463ffffffff1660e01b815260040161082e9392919061254c565b600060405180830381600087803b15801561084857600080fd5b505af115801561085c573d6000803e3d6000fd5b50505050505b7f9b1bfa7fa9ee420a16e124f794c35ac9f90472acc99140eb2f6447c714cad8eb888789604051610895939291906125ee565b60405180910390a15050505050505050565b6060600980546108b690612654565b80601f01602080910402602001604051908101604052809291908181526020018280546108e290612654565b801561092f5780601f106109045761010080835404028352916020019161092f565b820191906000526020600020905b81548152906001019060200180831161091257829003601f168201915b5050505050905090565b6000600760009054906101000a900473ffffffffffffffffffffffffffffffffffffffff16905090565b338073ffffffffffffffffffffffffffffffffffffffff16600860009054906101000a900473ffffffffffffffffffffffffffffffffffffffff1673ffffffffffffffffffffffffffffffffffffffff16146109f4576040517f08c379a00000000000000000000000000000000000000000000000000000000081526004016109eb9061245d565b60405180910390fd5b81600160008573ffffffffffffffffffffffffffffffffffffffff1673ffffffffffffffffffffffffffffffffffffffff1681526020019081526020016000206000828254610a439190612686565b92505081905550505050565b60606006805480602002602001604051908101604052809291908181526020018280548015610ad357602002820191906000526020600020905b8160009054906101000a900473ffffffffffffffffffffffffffffffffffffffff1673ffffffffffffffffffffffffffffffffffffffff1681526020019060010190808311610a89575b5050505050905090565b6000338073ffffffffffffffffffffffffffffffffffffffff16600860009054906101000a900473ffffffffffffffffffffffffffffffffffffffff1673ffffffffffffffffffffffffffffffffffffffff1614610b70576040517f08c379a0000000000000000000000000000000000000000000000000000000008152600401610b679061245d565b60405180910390fd5b83600080600090505b6006805490508160ff161015610c1a5760068160ff1681548110610ba057610b9f6126dc565b5b9060005260206000200160009054906101000a900473ffffffffffffffffffffffffffffffffffffffff1673ffffffffffffffffffffffffffffffffffffffff168373ffffffffffffffffffffffffffffffffffffffff161415610c075760019150610c1a565b8080610c1290612718565b915050610b79565b5080610c5b576040517f08c379a0000000000000000000000000000000000000000000000000000000008152600401610c52906127b4565b60405180910390fd5b6000610c66876118ac565b905060008173ffffffffffffffffffffffffffffffffffffffff166370a08231306040518263ffffffff1660e01b8152600401610ca39190611ed2565b60206040518083038186803b158015610cbb57600080fd5b505afa158015610ccf573d6000803e3d6000fd5b505050506040513d601f19601f82011682018060405250810190610cf39190612391565b90506000600160008a73ffffffffffffffffffffffffffffffffffffffff1673ffffffffffffffffffffffffffffffffffffffff1681526020019081526020016000205482610d429190612518565b905080600260008b73ffffffffffffffffffffffffffffffffffffffff1673ffffffffffffffffffffffffffffffffffffffff1681526020019081526020016000206000828254610d939190612686565b9250508190555087610e7857600460009054906101000a900473ffffffffffffffffffffffffffffffffffffffff1673ffffffffffffffffffffffffffffffffffffffff166369328dec8a83600760009054906101000a900473ffffffffffffffffffffffffffffffffffffffff166040518463ffffffff1660e01b8152600401610e209392919061254c565b602060405180830381600087803b158015610e3a57600080fd5b505af1158015610e4e573d6000803e3d6000fd5b505050506040513d601f19601f82011682018060405250810190610e729190612391565b50610ffe565b8273ffffffffffffffffffffffffffffffffffffffff1663095ea7b3600560009054906101000a900473ffffffffffffffffffffffffffffffffffffffff16836040518363ffffffff1660e01b8152600401610ed5929190612583565b602060405180830381600087803b158015610eef57600080fd5b505af1158015610f03573d6000803e3d6000fd5b505050506040513d601f19601f82011682018060405250810190610f2791906125c1565b50600560009054906101000a900473ffffffffffffffffffffffffffffffffffffffff1673ffffffffffffffffffffffffffffffffffffffff166380500d20600460009054906101000a900473ffffffffffffffffffffffffffffffffffffffff1683600760009054906101000a900473ffffffffffffffffffffffffffffffffffffffff166040518463ffffffff1660e01b8152600401610fcb9392919061254c565b600060405180830381600087803b158015610fe557600080fd5b505af1158015610ff9573d6000803e3d6000fd5b505050505b80965050505050505092915050565b6060600a805461101c90612654565b80601f016020809104026020016040519081016040528092919081815260200182805461104890612654565b80156110955780601f1061106a57610100808354040283529160200191611095565b820191906000526020600020905b81548152906001019060200180831161107857829003601f168201915b5050505050905090565b6000806110ab836118ac565b905060008173ffffffffffffffffffffffffffffffffffffffff166370a08231306040518263ffffffff1660e01b81526004016110e89190611ed2565b60206040518083038186803b15801561110057600080fd5b505afa158015611114573d6000803e3d6000fd5b505050506040513d601f19601f820116820180604052508101906111389190612391565b9050600160008573ffffffffffffffffffffffffffffffffffffffff1673ffffffffffffffffffffffffffffffffffffffff16815260200190815260200160002054816111859190612518565b92505050919050565b338073ffffffffffffffffffffffffffffffffffffffff16600860009054906101000a900473ffffffffffffffffffffffffffffffffffffffff1673ffffffffffffffffffffffffffffffffffffffff161461121f576040517f08c379a00000000000000000000000000000000000000000000000000000000081526004016112169061245d565b60405180910390fd5b82600080600090505b6006805490508160ff1610156112c95760068160ff168154811061124f5761124e6126dc565b5b9060005260206000200160009054906101000a900473ffffffffffffffffffffffffffffffffffffffff1673ffffffffffffffffffffffffffffffffffffffff168373ffffffffffffffffffffffffffffffffffffffff1614156112b657600191506112c9565b80806112c190612718565b915050611228565b508061130a576040517f08c379a0000000000000000000000000000000000000000000000000000000008152600401611301906127b4565b60405180910390fd5b83600160008773ffffffffffffffffffffffffffffffffffffffff1673ffffffffffffffffffffffffffffffffffffffff16815260200190815260200160002060008282546113599190612686565b925050819055505050505050565b82601e60008290508160ff168151106113b5576040517f08c379a00000000000000000000000000000000000000000000000000000000081526004016113ac90612820565b60405180910390fd5b8460c860008290508160ff16815110611403576040517f08c379a00000000000000000000000000000000000000000000000000000000081526004016113fa90612820565b60405180910390fd5b600060019054906101000a900460ff1661142b5760008054906101000a900460ff1615611434565b611433611ae5565b5b611473576040517f08c379a000000000000000000000000000000000000000000000000000000000815260040161146a906128b2565b60405180910390fd5b60008060019054906101000a900460ff1615905080156114c3576001600060016101000a81548160ff02191690831515021790555060016000806101000a81548160ff0219169083151502179055505b60001515600360009054906101000a900460ff16151514611519576040517f08c379a00000000000000000000000000000000000000000000000000000000081526004016115109061291e565b60405180910390fd5b600073ffffffffffffffffffffffffffffffffffffffff16600760009054906101000a900473ffffffffffffffffffffffffffffffffffffffff1673ffffffffffffffffffffffffffffffffffffffff16146115aa576040517f08c379a00000000000000000000000000000000000000000000000000000000081526004016115a19061298a565b60405180910390fd5b87600760006101000a81548173ffffffffffffffffffffffffffffffffffffffff021916908373ffffffffffffffffffffffffffffffffffffffff16021790555033600860006101000a81548173ffffffffffffffffffffffffffffffffffffffff021916908373ffffffffffffffffffffffffffffffffffffffff1602179055508960099080519060200190611642929190611b09565b5088600a9080519060200190611659929190611b09565b50735343b5ba672ae99d627a1c87866b8e53f47db2e6600360016101000a81548173ffffffffffffffffffffffffffffffffffffffff021916908373ffffffffffffffffffffffffffffffffffffffff160217905550600360019054906101000a900473ffffffffffffffffffffffffffffffffffffffff1673ffffffffffffffffffffffffffffffffffffffff1663026b1d5f6040518163ffffffff1660e01b815260040160206040518083038186803b15801561171757600080fd5b505afa15801561172b573d6000803e3d6000fd5b505050506040513d601f19601f8201168201806040525081019061174f91906129bf565b600460006101000a81548173ffffffffffffffffffffffffffffffffffffffff021916908373ffffffffffffffffffffffffffffffffffffffff160217905550732a58e9bbb5434fda7ff78051a4b82cb0ef669c17600560006101000a81548173ffffffffffffffffffffffffffffffffffffffff021916908373ffffffffffffffffffffffffffffffffffffffff1602179055508a600690805190602001906117fa929190611b8f565b50801561181c5760008060016101000a81548160ff0219169083151502179055505b5050505050505050505050565b60603073ffffffffffffffffffffffffffffffffffffffff16803b806020016040519081016040528181526000908060200190933c905090565b6000600260008373ffffffffffffffffffffffffffffffffffffffff1673ffffffffffffffffffffffffffffffffffffffff168152602001908152602001600020549050919050565b6000600460009054906101000a900473ffffffffffffffffffffffffffffffffffffffff1673ffffffffffffffffffffffffffffffffffffffff166335ea6a75836040518263ffffffff1660e01b81526004016119099190611ed2565b6101e06040518083038186803b15801561192257600080fd5b505afa158015611936573d6000803e3d6000fd5b505050506040513d601f19601f8201168201806040525081019061195a9190612c50565b61010001519050919050565b6000600460009054906101000a900473ffffffffffffffffffffffffffffffffffffffff1673ffffffffffffffffffffffffffffffffffffffff166335ea6a75836040518263ffffffff1660e01b81526004016119c39190611ed2565b6101e06040518083038186803b1580156119dc57600080fd5b505afa1580156119f0573d6000803e3d6000fd5b505050506040513d601f19601f82011682018060405250810190611a149190612c50565b602001516fffffffffffffffffffffffffffffffff169050919050565b6000600460009054906101000a900473ffffffffffffffffffffffffffffffffffffffff1673ffffffffffffffffffffffffffffffffffffffff1663d15e0053836040518263ffffffff1660e01b8152600401611a8e9190611ed2565b60206040518083038186803b158015611aa657600080fd5b505afa158015611aba573d6000803e3d6000fd5b505050506040513d601f19601f82011682018060405250810190611ade9190612391565b9050919050565b6000611af030611af6565b15905090565b600080823b905060008111915050919050565b828054611b1590612654565b90600052602060002090601f016020900481019282611b375760008555611b7e565b82601f10611b5057805160ff1916838001178555611b7e565b82800160010185558215611b7e579182015b82811115611b7d578251825591602001919060010190611b62565b5b509050611b8b9190611c19565b5090565b828054828255906000526020600020908101928215611c08579160200282015b82811115611c075782518260006101000a81548173ffffffffffffffffffffffffffffffffffffffff021916908373ffffffffffffffffffffffffffffffffffffffff16021790555091602001919060010190611baf565b5b509050611c159190611c19565b5090565b5b80821115611c32576000816000905550600101611c1a565b5090565b6000604051905090565b600080fd5b600080fd5b600073ffffffffffffffffffffffffffffffffffffffff82169050919050565b6000611c7582611c4a565b9050919050565b611c8581611c6a565b8114611c9057600080fd5b50565b600081359050611ca281611c7c565b92915050565b600060208284031215611cbe57611cbd611c40565b5b6000611ccc84828501611c93565b91505092915050565b6000819050919050565b611ce881611cd5565b82525050565b6000602082019050611d036000830184611cdf565b92915050565b6000819050919050565b611d1c81611d09565b82525050565b6000602082019050611d376000830184611d13565b92915050565b611d4681611cd5565b8114611d5157600080fd5b50565b600081359050611d6381611d3d565b92915050565b60008115159050919050565b611d7e81611d69565b8114611d8957600080fd5b50565b600081359050611d9b81611d75565b92915050565b60008060008060808587031215611dbb57611dba611c40565b5b6000611dc987828801611c93565b9450506020611dda87828801611d54565b9350506040611deb87828801611c93565b9250506060611dfc87828801611d8c565b91505092959194509250565b600081519050919050565b600082825260208201905092915050565b60005b83811015611e42578082015181840152602081019050611e27565b83811115611e51576000848401525b50505050565b6000601f19601f8301169050919050565b6000611e7382611e08565b611e7d8185611e13565b9350611e8d818560208601611e24565b611e9681611e57565b840191505092915050565b60006020820190508181036000830152611ebb8184611e68565b905092915050565b611ecc81611c6a565b82525050565b6000602082019050611ee76000830184611ec3565b92915050565b60008060408385031215611f0457611f03611c40565b5b6000611f1285828601611c93565b9250506020611f2385828601611d54565b9150509250929050565b600081519050919050565b600082825260208201905092915050565b6000819050602082019050919050565b611f6281611c6a565b82525050565b6000611f748383611f59565b60208301905092915050565b6000602082019050919050565b6000611f9882611f2d565b611fa28185611f38565b9350611fad83611f49565b8060005b83811015611fde578151611fc58882611f68565b9750611fd083611f80565b925050600181019050611fb1565b5085935050505092915050565b600060208201905081810360008301526120058184611f8d565b905092915050565b6000806040838503121561202457612023611c40565b5b600061203285828601611c93565b925050602061204385828601611d8c565b9150509250929050565b600080fd5b7f4e487b7100000000000000000000000000000000000000000000000000000000600052604160045260246000fd5b61208a82611e57565b810181811067ffffffffffffffff821117156120a9576120a8612052565b5b80604052505050565b60006120bc611c36565b90506120c88282612081565b919050565b600067ffffffffffffffff8211156120e8576120e7612052565b5b602082029050602081019050919050565b600080fd5b600061211161210c846120cd565b6120b2565b90508083825260208201905060208402830185811115612134576121336120f9565b5b835b8181101561215d57806121498882611c93565b845260208401935050602081019050612136565b5050509392505050565b600082601f83011261217c5761217b61204d565b5b813561218c8482602086016120fe565b91505092915050565b600080fd5b600067ffffffffffffffff8211156121b5576121b4612052565b5b6121be82611e57565b9050602081019050919050565b82818337600083830152505050565b60006121ed6121e88461219a565b6120b2565b90508281526020810184848401111561220957612208612195565b5b6122148482856121cb565b509392505050565b600082601f8301126122315761223061204d565b5b81356122418482602086016121da565b91505092915050565b6000806000806080858703121561226457612263611c40565b5b600085013567ffffffffffffffff81111561228257612281611c45565b5b61228e87828801612167565b945050602085013567ffffffffffffffff8111156122af576122ae611c45565b5b6122bb8782880161221c565b935050604085013567ffffffffffffffff8111156122dc576122db611c45565b5b6122e88782880161221c565b92505060606122f987828801611c93565b91505092959194509250565b600081519050919050565b600082825260208201905092915050565b600061232c82612305565b6123368185612310565b9350612346818560208601611e24565b61234f81611e57565b840191505092915050565b600060208201905081810360008301526123748184612321565b905092915050565b60008151905061238b81611d3d565b92915050565b6000602082840312156123a7576123a6611c40565b5b60006123b58482850161237c565b91505092915050565b600081905092915050565b60006123d482612305565b6123de81856123be565b93506123ee818560208601611e24565b80840191505092915050565b600061240682846123c9565b915081905092915050565b7f796f7520617265206e6f7420746865206f776e65720000000000000000000000600082015250565b6000612447601583611e13565b915061245282612411565b602082019050919050565b600060208201905081810360008301526124768161243a565b9050919050565b7f616d6f756e74206d757374206578636565642030000000000000000000000000600082015250565b60006124b3601483611e13565b91506124be8261247d565b602082019050919050565b600060208201905081810360008301526124e2816124a6565b9050919050565b7f4e487b7100000000000000000000000000000000000000000000000000000000600052601160045260246000fd5b600061252382611cd5565b915061252e83611cd5565b925082821015612541576125406124e9565b5b828203905092915050565b60006060820190506125616000830186611ec3565b61256e6020830185611cdf565b61257b6040830184611ec3565b949350505050565b60006040820190506125986000830185611ec3565b6125a56020830184611cdf565b9392505050565b6000815190506125bb81611d75565b92915050565b6000602082840312156125d7576125d6611c40565b5b60006125e5848285016125ac565b91505092915050565b60006060820190506126036000830186611ec3565b6126106020830185611ec3565b61261d6040830184611cdf565b949350505050565b7f4e487b7100000000000000000000000000000000000000000000000000000000600052602260045260246000fd5b6000600282049050600182168061266c57607f821691505b602082108114156126805761267f612625565b5b50919050565b600061269182611cd5565b915061269c83611cd5565b9250827fffffffffffffffffffffffffffffffffffffffffffffffffffffffffffffffff038211156126d1576126d06124e9565b5b828201905092915050565b7f4e487b7100000000000000000000000000000000000000000000000000000000600052603260045260246000fd5b600060ff82169050919050565b60006127238261270b565b915060ff821415612737576127366124e9565b5b600182019050919050565b7f7375626d697474656420746f6b656e2061646472657373206973206e6f74206160008201527f6363657074656420627920706f6f6c0000000000000000000000000000000000602082015250565b600061279e602f83611e13565b91506127a982612742565b604082019050919050565b600060208201905081810360008301526127cd81612791565b9050919050565b7f737472696e67206f76657220636861726163746572206c696d69740000000000600082015250565b600061280a601b83611e13565b9150612815826127d4565b602082019050919050565b60006020820190508181036000830152612839816127fd565b9050919050565b7f496e697469616c697a61626c653a20636f6e747261637420697320616c72656160008201527f647920696e697469616c697a6564000000000000000000000000000000000000602082015250565b600061289c602e83611e13565b91506128a782612840565b604082019050919050565b600060208201905081810360008301526128cb8161288f565b9050919050565b7f43616e6e6f7420696e697469616c697a65206261736500000000000000000000600082015250565b6000612908601683611e13565b9150612913826128d2565b602082019050919050565b60006020820190508181036000830152612937816128fb565b9050919050565b7f496e697469616c697a6520616c72656164792063616c6c656400000000000000600082015250565b6000612974601983611e13565b915061297f8261293e565b602082019050919050565b600060208201905081810360008301526129a381612967565b9050919050565b6000815190506129b981611c7c565b92915050565b6000602082840312156129d5576129d4611c40565b5b60006129e3848285016129aa565b91505092915050565b600080fd5b600060208284031215612a0757612a066129ec565b5b612a1160206120b2565b90506000612a218482850161237c565b60008301525092915050565b60006fffffffffffffffffffffffffffffffff82169050919050565b612a5281612a2d565b8114612a5d57600080fd5b50565b600081519050612a6f81612a49565b92915050565b600064ffffffffff82169050919050565b612a8f81612a75565b8114612a9a57600080fd5b50565b600081519050612aac81612a86565b92915050565b600061ffff82169050919050565b612ac981612ab2565b8114612ad457600080fd5b50565b600081519050612ae681612ac0565b92915050565b60006101e08284031215612b0357612b026129ec565b5b612b0e6101e06120b2565b90506000612b1e848285016129f1565b6000830152506020612b3284828501612a60565b6020830152506040612b4684828501612a60565b6040830152506060612b5a84828501612a60565b6060830152506080612b6e84828501612a60565b60808301525060a0612b8284828501612a60565b60a08301525060c0612b9684828501612a9d565b60c08301525060e0612baa84828501612ad7565b60e083015250610100612bbf848285016129aa565b61010083015250610120612bd5848285016129aa565b61012083015250610140612beb848285016129aa565b61014083015250610160612c01848285016129aa565b61016083015250610180612c1784828501612a60565b610180830152506101a0612c2d84828501612a60565b6101a0830152506101c0612c4384828501612a60565b6101c08301525092915050565b60006101e08284031215612c6757612c66611c40565b5b6000612c7584828501612aec565b9150509291505056fea26469706673582212206bcdd2b786d34505d79205e8a973a2300445ccd8b1b2b907b3fad9f80a161c4964736f6c63430008090033",
  "immutableReferences": {},
  "source": "// SPDX-License-Identifier: agpl-3.0\npragma solidity 0.8.9;\n\nimport { IJustCausePool, IERC20, IPool, IPoolAddressesProvider, IWETHGateway } from './Interfaces.sol';\nimport { JCDepositorERC721 } from './JCDepositorERC721.sol';\nimport { JCOwnerERC721 } from './JCOwnerERC721.sol';\nimport { JustCausePoolAaveV3 } from './JustCausePoolAaveV3.sol';\n\ncontract PoolTracker {\n\n    address baseJCPoolAddr;\n    JustCausePoolAaveV3 baseJCPool;\n    JCDepositorERC721 jCDepositorERC721;\n    JCOwnerERC721 jCOwnerERC721;\n\n    //contract addresses will point to bool if they exist\n    mapping(address => bool) private isPool;\n    //mapping(address => address[]) private depositors;\n    //mapping(address => address[]) private owners;\n    mapping(string => address) private names;\n    mapping(address => uint256) private tvl;\n    mapping(address => uint256) private totalDonated;\n    address[] private verifiedPools;\n    bytes32[] validByteCodeHashes;\n\n    IPoolAddressesProvider provider;\n    address poolAddr;\n    address wethGatewayAddr;\n\n    event AddPool(address pool, string name, address receiver);\n    event AddDeposit(address userAddr, address pool, address asset, uint256 amount);\n    event WithdrawDeposit(address userAddr, address pool, address asset, uint256 amount);\n    event Claim(address userAddr, address receiver, address pool, address asset, uint256 amount);\n\n    modifier onlyVerifiedByteCode(address pool) {\n        bytes32 v1ByteCodeHash = 0x69e8ff0e7c2b29468c452ea99c81161f9d6137447623140dc2714549e6014d96;\n        require(keccak256(abi.encodePacked(pool.code)) == v1ByteCodeHash, \"byteCode not recognized\");\n        _;\n    }\n\n    modifier onlyPools(address _pool){\n        require(isPool[_pool], \"not called from a pool\");\n        _;\n    }\n\n    constructor () {\n        jCDepositorERC721 = new JCDepositorERC721();\n        jCOwnerERC721 = new JCOwnerERC721();\n        baseJCPool = new JustCausePoolAaveV3();\n\n        provider = IPoolAddressesProvider(address(0x5343b5bA672Ae99d627A1C87866b8E53F47Db2E6)); // polygon mumbai v3\n        poolAddr = provider.getPool();\n        wethGatewayAddr = address(0x2a58E9bbb5434FdA7FF78051a4B82cb0EF669C17);// polygon mumbai v3\n    }\n\n    function addValidByteCodeHash(bytes32 _hash) public {\n        validByteCodeHashes.push(_hash);\n    }\n\n    function addDeposit(uint256 _amount, address _asset, address _pool, bool isETH) onlyPools(_pool) external payable {\n        tvl[_asset] += _amount;\n        if(isETH){\n            IWETHGateway(wethGatewayAddr).depositETH{value: msg.value}(poolAddr, _pool, 0);\n            IJustCausePool(_pool).depositETH/*{value: msg.value}*/(_asset, /*msg.sender,*/ msg.value);\n        }\n        else {\n            IERC20 token = IERC20(_asset);\n            require(token.allowance(msg.sender, address(this)) >= _amount, \"sender not approved\");\n            token.transferFrom(msg.sender, address(this), _amount);\n            token.approve(poolAddr, _amount);\n            IPool(poolAddr).deposit(address(token), _amount, _pool, 0);\n            IJustCausePool(_pool).deposit(_asset, _amount /*, msg.sender*/);\n        }\n        jCDepositorERC721.addFunds(msg.sender, _amount, block.timestamp,  _pool, _asset);\n        emit AddDeposit(msg.sender, _pool, _asset, _amount);\n    }\n\n    function withdrawDeposit(uint256 _amount, address _asset, address _pool, bool _isETH) onlyPools(_pool) external {\n        tvl[_asset] -= _amount;\n        jCDepositorERC721.withdrawFunds(msg.sender, _amount, _pool, _asset);\n        IJustCausePool(_pool).withdraw(_asset, _amount, msg.sender, _isETH);\n        emit WithdrawDeposit(msg.sender, _pool, _asset, _amount);\n    }\n\n    function claimInterest(address _asset, address _pool, bool _isETH) onlyPools(_pool) external {\n        uint256 amount = IJustCausePool(_pool).withdrawDonations(_asset, _isETH);\n        totalDonated[_asset] += amount;\n        emit Claim(msg.sender, IJustCausePool(_pool).getRecipient(), _pool, _asset, amount);\n    }\n\n    /**\n     * @dev Deploys and returns the address of a clone that mimics the behaviour of `implementation`.\n     *\n     * This function uses the create opcode, which should never revert.\n     */\n    function clone(address basePool) internal returns (address instance) {\n        assembly {\n            let ptr := mload(0x40)\n            mstore(ptr, 0x3d602d80600a3d3981f3363d3d373d3d3d363d73000000000000000000000000)\n            mstore(add(ptr, 0x14), shl(0x60, basePool))\n            mstore(add(ptr, 0x28), 0x5af43d82803e903d91602b57fd5bf30000000000000000000000000000000000)\n            instance := create(0, ptr, 0x37)\n        }\n        require(instance != address(0), \"ERC1167: create failed\");\n    }\n\n    function createJCPoolClone(address[] memory _acceptedTokens, string memory _name, string memory _about, address _receiver) external {\n        require(names[_name] == address(0), \"pool with name already exists\");\n        address child = clone(address(baseJCPool));\n        IJustCausePool(child).initialize(_acceptedTokens, _name, _about, _receiver);\n        jCOwnerERC721.createReceiverToken(_receiver, block.timestamp, child);\n        names[_name] =  child;\n        verifiedPools.push(child);\n        isPool[child] = true;\n        emit AddPool(child, _name, _receiver);\n    }\n\n    function getTVL(address _asset) public view returns(uint256){\n        return tvl[_asset];\n    }\n\n\n    function getDepositorERC721Address() public view returns(address){\n        return address(jCDepositorERC721);\n    }\n\n    function getOwnerERC721Address() public view returns(address){\n        return address(jCOwnerERC721);\n    }\n\n    function getBaseJCPoolAddress() public view returns(address){\n        return address(baseJCPool);\n    }\n\n    function getVerifiedPools() public view returns(address [] memory){\n        return verifiedPools;\n    }\n\n    function checkPool(address _pool) public view returns(bool){\n        return isPool[_pool];\n    }\n\n    /*function getUserDeposits(address _userAddr) external view returns(address[] memory){\n        return depositors[_userAddr];\n    }*/\n\n    /*function getUserDeposits(address _userAddr) external view returns(address[] memory){\n        uint256 numDeposits = jCDepositorERC721.balanceOf(_userAddr);\n        address[] memory poolList;\n        for(uint8 i = 0; i < numDeposits; i++){\n            uint256 tokenId = jCDepositorERC721.tokenOfOwnerByIndex(_userAddr, i);\n            (,,,, address pool,) = jCDepositorERC721.getDeposit(tokenId);\n            poolList[i] = pool;\n        }\n        return poolList;\n    }*/\n\n    /*function getUserOwned(address _userAddr) external view returns(address[] memory){\n        return owners[_userAddr];\n    }*/\n\n    function getAddressFromName(string memory _name) external view returns(address){\n        return names[_name];\n    }\n\n    function checkByteCode(address _pool) external view returns(bool) {\n        bool hashMatch = false;\n        bytes32 hashOfPoolCode = keccak256(abi.encodePacked(_pool.code));\n        bytes32[] memory validHashes = validByteCodeHashes;\n\n        for(uint8 i = 0; i < validHashes.length; i++){\n            if(hashOfPoolCode == validHashes[i]){\n                hashMatch = true;\n                break;\n            }\n        }\n        return hashMatch;\n    }\n}",
  "sourcePath": "/home/smeee/just_cause/contracts/polygon/PoolTracker.sol",
  "compiler": {
    "name": "solc",
    "version": "0.8.9+commit.e5eed63a.Emscripten.clang"
  },
  "schemaVersion": "3.4.5",
  "updatedAt": "2022-03-27T03:31:10.505Z",
  "networkType": "ethereum",
  "devdoc": {
    "kind": "dev",
    "methods": {},
    "version": 1
  },
  "userdoc": {
    "kind": "user",
    "methods": {},
    "version": 1
  }
}