{
  "contractName": "PoolTracker",
  "abi": [
    {
      "inputs": [],
      "stateMutability": "nonpayable",
      "type": "constructor"
    },
    {
      "anonymous": false,
      "inputs": [
        {
          "indexed": false,
          "internalType": "address",
          "name": "userAddr",
          "type": "address"
        },
        {
          "indexed": false,
          "internalType": "address",
          "name": "pool",
          "type": "address"
        },
        {
          "indexed": false,
          "internalType": "address",
          "name": "asset",
          "type": "address"
        },
        {
          "indexed": false,
          "internalType": "uint256",
          "name": "amount",
          "type": "uint256"
        }
      ],
      "name": "AddDeposit",
      "type": "event"
    },
    {
      "anonymous": false,
      "inputs": [
        {
          "indexed": false,
          "internalType": "address",
          "name": "pool",
          "type": "address"
        },
        {
          "indexed": false,
          "internalType": "string",
          "name": "name",
          "type": "string"
        },
        {
          "indexed": false,
          "internalType": "address",
          "name": "receiver",
          "type": "address"
        }
      ],
      "name": "AddPool",
      "type": "event"
    },
    {
      "anonymous": false,
      "inputs": [
        {
          "indexed": false,
          "internalType": "address",
          "name": "userAddr",
          "type": "address"
        },
        {
          "indexed": false,
          "internalType": "address",
          "name": "receiver",
          "type": "address"
        },
        {
          "indexed": false,
          "internalType": "address",
          "name": "pool",
          "type": "address"
        },
        {
          "indexed": false,
          "internalType": "address",
          "name": "asset",
          "type": "address"
        },
        {
          "indexed": false,
          "internalType": "uint256",
          "name": "amount",
          "type": "uint256"
        }
      ],
      "name": "Claim",
      "type": "event"
    },
    {
      "anonymous": false,
      "inputs": [
        {
          "indexed": false,
          "internalType": "address",
          "name": "userAddr",
          "type": "address"
        },
        {
          "indexed": false,
          "internalType": "address",
          "name": "pool",
          "type": "address"
        },
        {
          "indexed": false,
          "internalType": "address",
          "name": "asset",
          "type": "address"
        },
        {
          "indexed": false,
          "internalType": "uint256",
          "name": "amount",
          "type": "uint256"
        }
      ],
      "name": "WithdrawDeposit",
      "type": "event"
    },
    {
      "inputs": [
        {
          "internalType": "bytes32",
          "name": "_hash",
          "type": "bytes32"
        }
      ],
      "name": "addValidByteCodeHash",
      "outputs": [],
      "stateMutability": "nonpayable",
      "type": "function"
    },
    {
      "inputs": [
        {
          "internalType": "uint256",
          "name": "_amount",
          "type": "uint256"
        },
        {
          "internalType": "address",
          "name": "_asset",
          "type": "address"
        },
        {
          "internalType": "address",
          "name": "_pool",
          "type": "address"
        },
        {
          "internalType": "bool",
          "name": "isETH",
          "type": "bool"
        }
      ],
      "name": "addDeposit",
      "outputs": [],
      "stateMutability": "payable",
      "type": "function",
      "payable": true
    },
    {
      "inputs": [
        {
          "internalType": "uint256",
          "name": "_amount",
          "type": "uint256"
        },
        {
          "internalType": "address",
          "name": "_asset",
          "type": "address"
        },
        {
          "internalType": "address",
          "name": "_pool",
          "type": "address"
        }
      ],
      "name": "withdrawDeposit",
      "outputs": [],
      "stateMutability": "nonpayable",
      "type": "function"
    },
    {
      "inputs": [
        {
          "internalType": "address",
          "name": "_asset",
          "type": "address"
        },
        {
          "internalType": "address",
          "name": "_pool",
          "type": "address"
        }
      ],
      "name": "claimInterest",
      "outputs": [],
      "stateMutability": "nonpayable",
      "type": "function"
    },
    {
      "inputs": [
        {
          "internalType": "address[]",
          "name": "_acceptedTokens",
          "type": "address[]"
        },
        {
          "internalType": "string",
          "name": "_name",
          "type": "string"
        },
        {
          "internalType": "string",
          "name": "_about",
          "type": "string"
        },
        {
          "internalType": "address",
          "name": "_receiver",
          "type": "address"
        }
      ],
      "name": "createJCPoolClone",
      "outputs": [],
      "stateMutability": "nonpayable",
      "type": "function"
    },
    {
      "inputs": [],
      "name": "getDepositorERC721Address",
      "outputs": [
        {
          "internalType": "address",
          "name": "",
          "type": "address"
        }
      ],
      "stateMutability": "view",
      "type": "function",
      "constant": true
    },
    {
      "inputs": [],
      "name": "getOwnerERC721Address",
      "outputs": [
        {
          "internalType": "address",
          "name": "",
          "type": "address"
        }
      ],
      "stateMutability": "view",
      "type": "function",
      "constant": true
    },
    {
      "inputs": [],
      "name": "getBaseJCPoolAddress",
      "outputs": [
        {
          "internalType": "address",
          "name": "",
          "type": "address"
        }
      ],
      "stateMutability": "view",
      "type": "function",
      "constant": true
    },
    {
      "inputs": [],
      "name": "getVerifiedPools",
      "outputs": [
        {
          "internalType": "address[]",
          "name": "",
          "type": "address[]"
        }
      ],
      "stateMutability": "view",
      "type": "function",
      "constant": true
    },
    {
      "inputs": [
        {
          "internalType": "address",
          "name": "_pool",
          "type": "address"
        }
      ],
      "name": "checkPool",
      "outputs": [
        {
          "internalType": "bool",
          "name": "",
          "type": "bool"
        }
      ],
      "stateMutability": "view",
      "type": "function",
      "constant": true
    },
    {
      "inputs": [
        {
          "internalType": "string",
          "name": "_name",
          "type": "string"
        }
      ],
      "name": "getAddressFromName",
      "outputs": [
        {
          "internalType": "address",
          "name": "",
          "type": "address"
        }
      ],
      "stateMutability": "view",
      "type": "function",
      "constant": true
    },
    {
      "inputs": [
        {
          "internalType": "address",
          "name": "_pool",
          "type": "address"
        }
      ],
      "name": "checkByteCode",
      "outputs": [
        {
          "internalType": "bool",
          "name": "",
          "type": "bool"
        }
      ],
      "stateMutability": "view",
      "type": "function",
      "constant": true
    }
  ],
  "bytecode": "0x60806040523480156200001157600080fd5b5060405162000020906200015c565b604051809103906000f0801580156200003d573d6000803e3d6000fd5b50600260006101000a81548173ffffffffffffffffffffffffffffffffffffffff021916908373ffffffffffffffffffffffffffffffffffffffff1602179055506040516200008c906200016a565b604051809103906000f080158015620000a9573d6000803e3d6000fd5b50600360006101000a81548173ffffffffffffffffffffffffffffffffffffffff021916908373ffffffffffffffffffffffffffffffffffffffff160217905550604051620000f89062000178565b604051809103906000f08015801562000115573d6000803e3d6000fd5b50600160006101000a81548173ffffffffffffffffffffffffffffffffffffffff021916908373ffffffffffffffffffffffffffffffffffffffff16021790555062000186565b6145ae8062001e5183390190565b61381a80620063ff83390190565b61317c8062009c1983390190565b611cbb80620001966000396000f3fe6080604052600436106100a75760003560e01c80635b1327a2116100645780635b1327a2146101af578063618b1e83146101d8578063748d6829146102015780638e61514e1461023e578063b63ae6ee1461027b578063ba437c68146102a6576100a7565b806308f52b3c146100ac5780630c1a4477146100c857806330b9d2a7146100f35780633989a671146101305780634e1a58a81461015b5780635aa3886814610184575b600080fd5b6100c660048036038101906100c191906110e8565b6102cf565b005b3480156100d457600080fd5b506100dd61053f565b6040516100ea919061115e565b60405180910390f35b3480156100ff57600080fd5b5061011a60048036038101906101159190611179565b610569565b60405161012791906111b5565b60405180910390f35b34801561013c57600080fd5b506101456105bf565b604051610152919061115e565b60405180910390f35b34801561016757600080fd5b50610182600480360381019061017d9190611206565b6105e9565b005b34801561019057600080fd5b50610199610615565b6040516101a6919061115e565b60405180910390f35b3480156101bb57600080fd5b506101d660048036038101906101d19190611233565b61063f565b005b3480156101e457600080fd5b506101ff60048036038101906101fa9190611494565b610811565b005b34801561020d57600080fd5b5061022860048036038101906102239190611179565b610b6a565b60405161023591906111b5565b60405180910390f35b34801561024a57600080fd5b506102656004803603810190610260919061154f565b610c7f565b604051610272919061115e565b60405180910390f35b34801561028757600080fd5b50610290610cc7565b60405161029d9190611656565b60405180910390f35b3480156102b257600080fd5b506102cd60048036038101906102c89190611678565b610d55565b005b81600460008273ffffffffffffffffffffffffffffffffffffffff1673ffffffffffffffffffffffffffffffffffffffff16815260200190815260200160002060009054906101000a900460ff1661035c576040517f08c379a000000000000000000000000000000000000000000000000000000000815260040161035390611715565b60405180910390fd5b81156103d5578273ffffffffffffffffffffffffffffffffffffffff1663734029bf3486336040518463ffffffff1660e01b815260040161039e929190611735565b6000604051808303818588803b1580156103b757600080fd5b505af11580156103cb573d6000803e3d6000fd5b5050505050610445565b8273ffffffffffffffffffffffffffffffffffffffff1663f45346dc8587336040518463ffffffff1660e01b81526004016104129392919061176d565b600060405180830381600087803b15801561042c57600080fd5b505af1158015610440573d6000803e3d6000fd5b505050505b600260009054906101000a900473ffffffffffffffffffffffffffffffffffffffff1673ffffffffffffffffffffffffffffffffffffffff166387fb12bd33874287896040518663ffffffff1660e01b81526004016104a89594939291906117a4565b602060405180830381600087803b1580156104c257600080fd5b505af11580156104d6573d6000803e3d6000fd5b505050506040513d601f19601f820116820180604052508101906104fa919061180c565b507f20ca885e6c573d69bc931b3787127868f5b90568509fb8d4ff6f7102b8d0cd25338486886040516105309493929190611839565b60405180910390a15050505050565b6000600360009054906101000a900473ffffffffffffffffffffffffffffffffffffffff16905090565b6000600460008373ffffffffffffffffffffffffffffffffffffffff1673ffffffffffffffffffffffffffffffffffffffff16815260200190815260200160002060009054906101000a900460ff169050919050565b6000600260009054906101000a900473ffffffffffffffffffffffffffffffffffffffff16905090565b600781908060018154018082558091505060019003906000526020600020016000909190919091505550565b6000600160009054906101000a900473ffffffffffffffffffffffffffffffffffffffff16905090565b80600460008273ffffffffffffffffffffffffffffffffffffffff1673ffffffffffffffffffffffffffffffffffffffff16815260200190815260200160002060009054906101000a900460ff166106cc576040517f08c379a00000000000000000000000000000000000000000000000000000000081526004016106c390611715565b60405180910390fd5b8173ffffffffffffffffffffffffffffffffffffffff166369328dec8486336040518463ffffffff1660e01b81526004016107099392919061176d565b600060405180830381600087803b15801561072357600080fd5b505af1158015610737573d6000803e3d6000fd5b50505050600260009054906101000a900473ffffffffffffffffffffffffffffffffffffffff1673ffffffffffffffffffffffffffffffffffffffff16636ba3fef2338685876040518563ffffffff1660e01b815260040161079c949392919061187e565b600060405180830381600087803b1580156107b657600080fd5b505af11580156107ca573d6000803e3d6000fd5b505050507fa657ed79c074c3489591adb7ba850f38c009bd846e47f2ffe3edc1d06f48a5a4338385876040516108039493929190611839565b60405180910390a150505050565b600073ffffffffffffffffffffffffffffffffffffffff16600584604051610839919061193d565b908152602001604051809103902060009054906101000a900473ffffffffffffffffffffffffffffffffffffffff1673ffffffffffffffffffffffffffffffffffffffff16146108be576040517f08c379a00000000000000000000000000000000000000000000000000000000081526004016108b5906119a0565b60405180910390fd5b60006108eb600160009054906101000a900473ffffffffffffffffffffffffffffffffffffffff16610f33565b90508073ffffffffffffffffffffffffffffffffffffffff166350d02d71868686866040518563ffffffff1660e01b815260040161092c94939291906119f9565b600060405180830381600087803b15801561094657600080fd5b505af115801561095a573d6000803e3d6000fd5b50505050600360009054906101000a900473ffffffffffffffffffffffffffffffffffffffff1673ffffffffffffffffffffffffffffffffffffffff166323579ba18342846040518463ffffffff1660e01b81526004016109bd9392919061176d565b602060405180830381600087803b1580156109d757600080fd5b505af11580156109eb573d6000803e3d6000fd5b505050506040513d601f19601f82011682018060405250810190610a0f919061180c565b5080600585604051610a21919061193d565b908152602001604051809103902060006101000a81548173ffffffffffffffffffffffffffffffffffffffff021916908373ffffffffffffffffffffffffffffffffffffffff1602179055506006819080600181540180825580915050600190039060005260206000200160009091909190916101000a81548173ffffffffffffffffffffffffffffffffffffffff021916908373ffffffffffffffffffffffffffffffffffffffff1602179055506001600460008373ffffffffffffffffffffffffffffffffffffffff1673ffffffffffffffffffffffffffffffffffffffff16815260200190815260200160002060006101000a81548160ff0219169083151502179055507f373adb264e07592e89e672b780912566106b06a5f7a7787e63a47ca627e915af818584604051610b5b93929190611a53565b60405180910390a15050505050565b6000806000905060008373ffffffffffffffffffffffffffffffffffffffff16803b806020016040519081016040528181526000908060200190933c604051602001610bb69190611ad8565b60405160208183030381529060405280519060200120905060006007805480602002602001604051908101604052809291908181526020018280548015610c1c57602002820191906000526020600020905b815481526020019060010190808311610c08575b5050505050905060005b81518160ff161015610c7357818160ff1681518110610c4857610c47611aef565b5b6020026020010151831415610c605760019350610c73565b8080610c6b90611b5a565b915050610c26565b50829350505050919050565b6000600582604051610c91919061193d565b908152602001604051809103902060009054906101000a900473ffffffffffffffffffffffffffffffffffffffff169050919050565b60606006805480602002602001604051908101604052809291908181526020018280548015610d4b57602002820191906000526020600020905b8160009054906101000a900473ffffffffffffffffffffffffffffffffffffffff1673ffffffffffffffffffffffffffffffffffffffff1681526020019060010190808311610d01575b5050505050905090565b80600460008273ffffffffffffffffffffffffffffffffffffffff1673ffffffffffffffffffffffffffffffffffffffff16815260200190815260200160002060009054906101000a900460ff16610de2576040517f08c379a0000000000000000000000000000000000000000000000000000000008152600401610dd990611715565b60405180910390fd5b60008273ffffffffffffffffffffffffffffffffffffffff1663a56f5b53856040518263ffffffff1660e01b8152600401610e1d919061115e565b602060405180830381600087803b158015610e3757600080fd5b505af1158015610e4b573d6000803e3d6000fd5b505050506040513d601f19601f82011682018060405250810190610e6f919061180c565b90507f7276c0285f260d667df9ded71ca6a988145d36de1d14252710532b9de5f089fe338473ffffffffffffffffffffffffffffffffffffffff16631b88094d6040518163ffffffff1660e01b815260040160206040518083038186803b158015610ed957600080fd5b505afa158015610eed573d6000803e3d6000fd5b505050506040513d601f19601f82011682018060405250810190610f119190611b99565b858785604051610f25959493929190611bc6565b60405180910390a150505050565b60006040517f3d602d80600a3d3981f3363d3d373d3d3d363d7300000000000000000000000081528260601b60148201527f5af43d82803e903d91602b57fd5bf3000000000000000000000000000000000060288201526037816000f0915050600073ffffffffffffffffffffffffffffffffffffffff168173ffffffffffffffffffffffffffffffffffffffff161415611003576040517f08c379a0000000000000000000000000000000000000000000000000000000008152600401610ffa90611c65565b60405180910390fd5b919050565b6000604051905090565b600080fd5b600080fd5b6000819050919050565b61102f8161101c565b811461103a57600080fd5b50565b60008135905061104c81611026565b92915050565b600073ffffffffffffffffffffffffffffffffffffffff82169050919050565b600061107d82611052565b9050919050565b61108d81611072565b811461109857600080fd5b50565b6000813590506110aa81611084565b92915050565b60008115159050919050565b6110c5816110b0565b81146110d057600080fd5b50565b6000813590506110e2816110bc565b92915050565b6000806000806080858703121561110257611101611012565b5b60006111108782880161103d565b94505060206111218782880161109b565b93505060406111328782880161109b565b9250506060611143878288016110d3565b91505092959194509250565b61115881611072565b82525050565b6000602082019050611173600083018461114f565b92915050565b60006020828403121561118f5761118e611012565b5b600061119d8482850161109b565b91505092915050565b6111af816110b0565b82525050565b60006020820190506111ca60008301846111a6565b92915050565b6000819050919050565b6111e3816111d0565b81146111ee57600080fd5b50565b600081359050611200816111da565b92915050565b60006020828403121561121c5761121b611012565b5b600061122a848285016111f1565b91505092915050565b60008060006060848603121561124c5761124b611012565b5b600061125a8682870161103d565b935050602061126b8682870161109b565b925050604061127c8682870161109b565b9150509250925092565b600080fd5b6000601f19601f8301169050919050565b7f4e487b7100000000000000000000000000000000000000000000000000000000600052604160045260246000fd5b6112d48261128b565b810181811067ffffffffffffffff821117156112f3576112f261129c565b5b80604052505050565b6000611306611008565b905061131282826112cb565b919050565b600067ffffffffffffffff8211156113325761133161129c565b5b602082029050602081019050919050565b600080fd5b600061135b61135684611317565b6112fc565b9050808382526020820190506020840283018581111561137e5761137d611343565b5b835b818110156113a75780611393888261109b565b845260208401935050602081019050611380565b5050509392505050565b600082601f8301126113c6576113c5611286565b5b81356113d6848260208601611348565b91505092915050565b600080fd5b600067ffffffffffffffff8211156113ff576113fe61129c565b5b6114088261128b565b9050602081019050919050565b82818337600083830152505050565b6000611437611432846113e4565b6112fc565b905082815260208101848484011115611453576114526113df565b5b61145e848285611415565b509392505050565b600082601f83011261147b5761147a611286565b5b813561148b848260208601611424565b91505092915050565b600080600080608085870312156114ae576114ad611012565b5b600085013567ffffffffffffffff8111156114cc576114cb611017565b5b6114d8878288016113b1565b945050602085013567ffffffffffffffff8111156114f9576114f8611017565b5b61150587828801611466565b935050604085013567ffffffffffffffff81111561152657611525611017565b5b61153287828801611466565b92505060606115438782880161109b565b91505092959194509250565b60006020828403121561156557611564611012565b5b600082013567ffffffffffffffff81111561158357611582611017565b5b61158f84828501611466565b91505092915050565b600081519050919050565b600082825260208201905092915050565b6000819050602082019050919050565b6115cd81611072565b82525050565b60006115df83836115c4565b60208301905092915050565b6000602082019050919050565b600061160382611598565b61160d81856115a3565b9350611618836115b4565b8060005b8381101561164957815161163088826115d3565b975061163b836115eb565b92505060018101905061161c565b5085935050505092915050565b6000602082019050818103600083015261167081846115f8565b905092915050565b6000806040838503121561168f5761168e611012565b5b600061169d8582860161109b565b92505060206116ae8582860161109b565b9150509250929050565b600082825260208201905092915050565b7f6e6f742063616c6c65642066726f6d206120706f6f6c00000000000000000000600082015250565b60006116ff6016836116b8565b915061170a826116c9565b602082019050919050565b6000602082019050818103600083015261172e816116f2565b9050919050565b600060408201905061174a600083018561114f565b611757602083018461114f565b9392505050565b6117678161101c565b82525050565b6000606082019050611782600083018661114f565b61178f602083018561175e565b61179c604083018461114f565b949350505050565b600060a0820190506117b9600083018861114f565b6117c6602083018761175e565b6117d3604083018661175e565b6117e0606083018561114f565b6117ed608083018461114f565b9695505050505050565b60008151905061180681611026565b92915050565b60006020828403121561182257611821611012565b5b6000611830848285016117f7565b91505092915050565b600060808201905061184e600083018761114f565b61185b602083018661114f565b611868604083018561114f565b611875606083018461175e565b95945050505050565b6000608082019050611893600083018761114f565b6118a0602083018661175e565b6118ad604083018561114f565b6118ba606083018461114f565b95945050505050565b600081519050919050565b600081905092915050565b60005b838110156118f75780820151818401526020810190506118dc565b83811115611906576000848401525b50505050565b6000611917826118c3565b61192181856118ce565b93506119318185602086016118d9565b80840191505092915050565b6000611949828461190c565b915081905092915050565b7f706f6f6c2077697468206e616d6520616c726561647920657869737473000000600082015250565b600061198a601d836116b8565b915061199582611954565b602082019050919050565b600060208201905081810360008301526119b98161197d565b9050919050565b60006119cb826118c3565b6119d581856116b8565b93506119e58185602086016118d9565b6119ee8161128b565b840191505092915050565b60006080820190508181036000830152611a1381876115f8565b90508181036020830152611a2781866119c0565b90508181036040830152611a3b81856119c0565b9050611a4a606083018461114f565b95945050505050565b6000606082019050611a68600083018661114f565b8181036020830152611a7a81856119c0565b9050611a89604083018461114f565b949350505050565b600081519050919050565b600081905092915050565b6000611ab282611a91565b611abc8185611a9c565b9350611acc8185602086016118d9565b80840191505092915050565b6000611ae48284611aa7565b915081905092915050565b7f4e487b7100000000000000000000000000000000000000000000000000000000600052603260045260246000fd5b7f4e487b7100000000000000000000000000000000000000000000000000000000600052601160045260246000fd5b600060ff82169050919050565b6000611b6582611b4d565b915060ff821415611b7957611b78611b1e565b5b600182019050919050565b600081519050611b9381611084565b92915050565b600060208284031215611baf57611bae611012565b5b6000611bbd84828501611b84565b91505092915050565b600060a082019050611bdb600083018861114f565b611be8602083018761114f565b611bf5604083018661114f565b611c02606083018561114f565b611c0f608083018461175e565b9695505050505050565b7f455243313136373a20637265617465206661696c656400000000000000000000600082015250565b6000611c4f6016836116b8565b9150611c5a82611c19565b602082019050919050565b60006020820190508181036000830152611c7e81611c42565b905091905056fea264697066735822122063c7dd3a9b72f0be960f48115863fd065411594ba201824f2f7d07eeceaee81b64736f6c6343000809003360806040523480156200001157600080fd5b506040518060400160405280601381526020017f4a4350204465706f7369746f7220546f6b656e000000000000000000000000008152506040518060400160405280600c81526020017f4a4350545f544553545f4431000000000000000000000000000000000000000081525081600090805190602001906200009692919062000334565b508060019080519060200190620000af92919062000334565b505050620000d2620000c66200026660201b60201c565b6200026e60201b60201c565b7388757f2f99175387ab4c6a4b3067c77a695b0349600b60006101000a81548173ffffffffffffffffffffffffffffffffffffffff021916908373ffffffffffffffffffffffffffffffffffffffff160217905550600b60009054906101000a900473ffffffffffffffffffffffffffffffffffffffff1673ffffffffffffffffffffffffffffffffffffffff16630261bf8b6040518163ffffffff1660e01b815260040160206040518083038186803b1580156200019057600080fd5b505afa158015620001a5573d6000803e3d6000fd5b505050506040513d601f19601f82011682018060405250810190620001cb91906200044e565b600c60006101000a81548173ffffffffffffffffffffffffffffffffffffffff021916908373ffffffffffffffffffffffffffffffffffffffff160217905550733c73a5e5785cac854d468f727c606c07488a29d6600d60006101000a81548173ffffffffffffffffffffffffffffffffffffffff021916908373ffffffffffffffffffffffffffffffffffffffff160217905550620004e5565b600033905090565b6000600a60009054906101000a900473ffffffffffffffffffffffffffffffffffffffff16905081600a60006101000a81548173ffffffffffffffffffffffffffffffffffffffff021916908373ffffffffffffffffffffffffffffffffffffffff1602179055508173ffffffffffffffffffffffffffffffffffffffff168173ffffffffffffffffffffffffffffffffffffffff167f8be0079c531659141344cd1fd0a4f28419497f9722a3daafe3b4186f6b6457e060405160405180910390a35050565b8280546200034290620004af565b90600052602060002090601f016020900481019282620003665760008555620003b2565b82601f106200038157805160ff1916838001178555620003b2565b82800160010185558215620003b2579182015b82811115620003b157825182559160200191906001019062000394565b5b509050620003c19190620003c5565b5090565b5b80821115620003e0576000816000905550600101620003c6565b5090565b600080fd5b600073ffffffffffffffffffffffffffffffffffffffff82169050919050565b60006200041682620003e9565b9050919050565b620004288162000409565b81146200043457600080fd5b50565b60008151905062000448816200041d565b92915050565b600060208284031215620004675762000466620003e4565b5b6000620004778482850162000437565b91505092915050565b7f4e487b7100000000000000000000000000000000000000000000000000000000600052602260045260246000fd5b60006002820490506001821680620004c857607f821691505b60208210811415620004df57620004de62000480565b5b50919050565b6140b980620004f56000396000f3fe608060405234801561001057600080fd5b506004361061014d5760003560e01c80636ba3fef2116100c3578063a22cb4651161007c578063a22cb465146103c4578063b88d4fde146103e0578063c87b56dd146103fc578063d15e00531461042c578063e985e9c51461045c578063f2fde38b1461048c5761014d565b80636ba3fef21461030257806370a082311461031e578063715018a61461034e57806387fb12bd146103585780638da5cb5b1461038857806395d89b41146103a65761014d565b806323b872dd1161011557806323b872dd1461020a5780632f745c591461022657806342842e0e146102565780634f6ccce7146102725780635328c2bf146102a25780636352211e146102d25761014d565b806301ffc9a71461015257806306fdde0314610182578063081812fc146101a0578063095ea7b3146101d057806318160ddd146101ec575b600080fd5b61016c6004803603810190610167919061287b565b6104a8565b60405161017991906128c3565b60405180910390f35b61018a610522565b6040516101979190612977565b60405180910390f35b6101ba60048036038101906101b591906129cf565b6105b4565b6040516101c79190612a3d565b60405180910390f35b6101ea60048036038101906101e59190612a84565b610639565b005b6101f4610751565b6040516102019190612ad3565b60405180910390f35b610224600480360381019061021f9190612aee565b61075e565b005b610240600480360381019061023b9190612a84565b6107be565b60405161024d9190612ad3565b60405180910390f35b610270600480360381019061026b9190612aee565b610863565b005b61028c600480360381019061028791906129cf565b610883565b6040516102999190612ad3565b60405180910390f35b6102bc60048036038101906102b791906129cf565b6108f4565b6040516102c99190612bc7565b60405180910390f35b6102ec60048036038101906102e791906129cf565b6109eb565b6040516102f99190612a3d565b60405180910390f35b61031c60048036038101906103179190612be2565b610a9d565b005b61033860048036038101906103339190612c49565b610ca7565b6040516103459190612ad3565b60405180910390f35b610356610d5f565b005b610372600480360381019061036d9190612c76565b610de7565b60405161037f9190612ad3565b60405180910390f35b610390611051565b60405161039d9190612a3d565b60405180910390f35b6103ae61107b565b6040516103bb9190612977565b60405180910390f35b6103de60048036038101906103d99190612d1d565b61110d565b005b6103fa60048036038101906103f59190612e92565b611123565b005b610416600480360381019061041191906129cf565b611185565b6040516104239190612977565b60405180910390f35b61044660048036038101906104419190612c49565b61122c565b6040516104539190612ad3565b60405180910390f35b61047660048036038101906104719190612f15565b6112e0565b60405161048391906128c3565b60405180910390f35b6104a660048036038101906104a19190612c49565b611374565b005b60007f780e9d63000000000000000000000000000000000000000000000000000000007bffffffffffffffffffffffffffffffffffffffffffffffffffffffff1916827bffffffffffffffffffffffffffffffffffffffffffffffffffffffff1916148061051b575061051a8261146c565b5b9050919050565b60606000805461053190612f84565b80601f016020809104026020016040519081016040528092919081815260200182805461055d90612f84565b80156105aa5780601f1061057f576101008083540402835291602001916105aa565b820191906000526020600020905b81548152906001019060200180831161058d57829003601f168201915b5050505050905090565b60006105bf8261154e565b6105fe576040517f08c379a00000000000000000000000000000000000000000000000000000000081526004016105f590613028565b60405180910390fd5b6004600083815260200190815260200160002060009054906101000a900473ffffffffffffffffffffffffffffffffffffffff169050919050565b6000610644826109eb565b90508073ffffffffffffffffffffffffffffffffffffffff168373ffffffffffffffffffffffffffffffffffffffff1614156106b5576040517f08c379a00000000000000000000000000000000000000000000000000000000081526004016106ac906130ba565b60405180910390fd5b8073ffffffffffffffffffffffffffffffffffffffff166106d46115ba565b73ffffffffffffffffffffffffffffffffffffffff1614806107035750610702816106fd6115ba565b6112e0565b5b610742576040517f08c379a00000000000000000000000000000000000000000000000000000000081526004016107399061314c565b60405180910390fd5b61074c83836115c2565b505050565b6000600880549050905090565b61076f6107696115ba565b8261167b565b6107ae576040517f08c379a00000000000000000000000000000000000000000000000000000000081526004016107a5906131de565b60405180910390fd5b6107b9838383611759565b505050565b60006107c983610ca7565b821061080a576040517f08c379a000000000000000000000000000000000000000000000000000000000815260040161080190613270565b60405180910390fd5b600660008473ffffffffffffffffffffffffffffffffffffffff1673ffffffffffffffffffffffffffffffffffffffff168152602001908152602001600020600083815260200190815260200160002054905092915050565b61087e83838360405180602001604052806000815250611123565b505050565b600061088d610751565b82106108ce576040517f08c379a00000000000000000000000000000000000000000000000000000000081526004016108c590613302565b60405180910390fd5b600882815481106108e2576108e1613322565b5b90600052602060002001549050919050565b6108fc6127b4565b600e60008381526020019081526020016000206040518060a00160405290816000820154815260200160018201548152602001600282015481526020016003820160009054906101000a900473ffffffffffffffffffffffffffffffffffffffff1673ffffffffffffffffffffffffffffffffffffffff1673ffffffffffffffffffffffffffffffffffffffff1681526020016004820160009054906101000a900473ffffffffffffffffffffffffffffffffffffffff1673ffffffffffffffffffffffffffffffffffffffff1673ffffffffffffffffffffffffffffffffffffffff16815250509050919050565b6000806002600084815260200190815260200160002060009054906101000a900473ffffffffffffffffffffffffffffffffffffffff169050600073ffffffffffffffffffffffffffffffffffffffff168173ffffffffffffffffffffffffffffffffffffffff161415610a94576040517f08c379a0000000000000000000000000000000000000000000000000000000008152600401610a8b906133c3565b60405180910390fd5b80915050919050565b610aa56115ba565b73ffffffffffffffffffffffffffffffffffffffff16610ac3611051565b73ffffffffffffffffffffffffffffffffffffffff1614610b19576040517f08c379a0000000000000000000000000000000000000000000000000000000008152600401610b109061342f565b60405180910390fd5b6000848383604051602001610b3093929190613497565b6040516020818303038152906040528051906020012060001c9050610b548161154e565b610b93576040517f08c379a0000000000000000000000000000000000000000000000000000000008152600401610b8a90613520565b60405180910390fd5b6000600e600083815260200190815260200160002060000154905084811015610bf1576040517f08c379a0000000000000000000000000000000000000000000000000000000008152600401610be89061358c565b60405180910390fd5b8481610bfd91906135db565b90506000811415610c45576000600e6000848152602001908152602001600020600101819055506000600e600084815260200190815260200160002060020181905550610c84565b610c5785610c52856119b5565b611aa0565b600e60008481526020019081526020016000206002016000828254610c7c91906135db565b925050819055505b80600e600084815260200190815260200160002060000181905550505050505050565b60008073ffffffffffffffffffffffffffffffffffffffff168273ffffffffffffffffffffffffffffffffffffffff161415610d18576040517f08c379a0000000000000000000000000000000000000000000000000000000008152600401610d0f90613681565b60405180910390fd5b600360008373ffffffffffffffffffffffffffffffffffffffff1673ffffffffffffffffffffffffffffffffffffffff168152602001908152602001600020549050919050565b610d676115ba565b73ffffffffffffffffffffffffffffffffffffffff16610d85611051565b73ffffffffffffffffffffffffffffffffffffffff1614610ddb576040517f08c379a0000000000000000000000000000000000000000000000000000000008152600401610dd29061342f565b60405180910390fd5b610de56000611bac565b565b6000610df16115ba565b73ffffffffffffffffffffffffffffffffffffffff16610e0f611051565b73ffffffffffffffffffffffffffffffffffffffff1614610e65576040517f08c379a0000000000000000000000000000000000000000000000000000000008152600401610e5c9061342f565b60405180910390fd5b6000868484604051602001610e7c93929190613497565b6040516020818303038152906040528051906020012060001c90506000610ea2846119b5565b9050610ead8261154e565b15610f1a5786600e60008481526020019081526020016000206000016000828254610ed891906136a1565b92505081905550610ee98782611aa0565b600e60008481526020019081526020016000206002016000828254610f0e91906136a1565b92505081905550611043565b6040518060a00160405280888152602001878152602001610f3b8984611aa0565b81526020018673ffffffffffffffffffffffffffffffffffffffff1681526020018573ffffffffffffffffffffffffffffffffffffffff16815250600e600084815260200190815260200160002060008201518160000155602082015181600101556040820151816002015560608201518160030160006101000a81548173ffffffffffffffffffffffffffffffffffffffff021916908373ffffffffffffffffffffffffffffffffffffffff16021790555060808201518160040160006101000a81548173ffffffffffffffffffffffffffffffffffffffff021916908373ffffffffffffffffffffffffffffffffffffffff1602179055509050506110428883611c72565b5b819250505095945050505050565b6000600a60009054906101000a900473ffffffffffffffffffffffffffffffffffffffff16905090565b60606001805461108a90612f84565b80601f01602080910402602001604051908101604052809291908181526020018280546110b690612f84565b80156111035780601f106110d857610100808354040283529160200191611103565b820191906000526020600020905b8154815290600101906020018083116110e657829003601f168201915b5050505050905090565b61111f6111186115ba565b8383611e40565b5050565b61113461112e6115ba565b8361167b565b611173576040517f08c379a000000000000000000000000000000000000000000000000000000000815260040161116a906131de565b60405180910390fd5b61117f84848484611fad565b50505050565b60606111908261154e565b6111cf576040517f08c379a00000000000000000000000000000000000000000000000000000000081526004016111c690613769565b60405180910390fd5b60006111d9612009565b905060008151116111f95760405180602001604052806000815250611224565b8061120384612020565b6040516020016112149291906137c5565b6040516020818303038152906040525b915050919050565b6000600c60009054906101000a900473ffffffffffffffffffffffffffffffffffffffff1673ffffffffffffffffffffffffffffffffffffffff1663d15e0053836040518263ffffffff1660e01b81526004016112899190612a3d565b60206040518083038186803b1580156112a157600080fd5b505afa1580156112b5573d6000803e3d6000fd5b505050506040513d601f19601f820116820180604052508101906112d991906137fe565b9050919050565b6000600560008473ffffffffffffffffffffffffffffffffffffffff1673ffffffffffffffffffffffffffffffffffffffff16815260200190815260200160002060008373ffffffffffffffffffffffffffffffffffffffff1673ffffffffffffffffffffffffffffffffffffffff16815260200190815260200160002060009054906101000a900460ff16905092915050565b61137c6115ba565b73ffffffffffffffffffffffffffffffffffffffff1661139a611051565b73ffffffffffffffffffffffffffffffffffffffff16146113f0576040517f08c379a00000000000000000000000000000000000000000000000000000000081526004016113e79061342f565b60405180910390fd5b600073ffffffffffffffffffffffffffffffffffffffff168173ffffffffffffffffffffffffffffffffffffffff161415611460576040517f08c379a00000000000000000000000000000000000000000000000000000000081526004016114579061389d565b60405180910390fd5b61146981611bac565b50565b60007f80ac58cd000000000000000000000000000000000000000000000000000000007bffffffffffffffffffffffffffffffffffffffffffffffffffffffff1916827bffffffffffffffffffffffffffffffffffffffffffffffffffffffff1916148061153757507f5b5e139f000000000000000000000000000000000000000000000000000000007bffffffffffffffffffffffffffffffffffffffffffffffffffffffff1916827bffffffffffffffffffffffffffffffffffffffffffffffffffffffff1916145b80611547575061154682612181565b5b9050919050565b60008073ffffffffffffffffffffffffffffffffffffffff166002600084815260200190815260200160002060009054906101000a900473ffffffffffffffffffffffffffffffffffffffff1673ffffffffffffffffffffffffffffffffffffffff1614159050919050565b600033905090565b816004600083815260200190815260200160002060006101000a81548173ffffffffffffffffffffffffffffffffffffffff021916908373ffffffffffffffffffffffffffffffffffffffff160217905550808273ffffffffffffffffffffffffffffffffffffffff16611635836109eb565b73ffffffffffffffffffffffffffffffffffffffff167f8c5be1e5ebec7d5bd14f71427d1e84f3dd0314c0f7b2291e5b200ac8c7c3b92560405160405180910390a45050565b60006116868261154e565b6116c5576040517f08c379a00000000000000000000000000000000000000000000000000000000081526004016116bc9061392f565b60405180910390fd5b60006116d0836109eb565b90508073ffffffffffffffffffffffffffffffffffffffff168473ffffffffffffffffffffffffffffffffffffffff16148061173f57508373ffffffffffffffffffffffffffffffffffffffff16611727846105b4565b73ffffffffffffffffffffffffffffffffffffffff16145b80611750575061174f81856112e0565b5b91505092915050565b8273ffffffffffffffffffffffffffffffffffffffff16611779826109eb565b73ffffffffffffffffffffffffffffffffffffffff16146117cf576040517f08c379a00000000000000000000000000000000000000000000000000000000081526004016117c6906139c1565b60405180910390fd5b600073ffffffffffffffffffffffffffffffffffffffff168273ffffffffffffffffffffffffffffffffffffffff16141561183f576040517f08c379a000000000000000000000000000000000000000000000000000000000815260040161183690613a53565b60405180910390fd5b61184a8383836121eb565b6118556000826115c2565b6001600360008573ffffffffffffffffffffffffffffffffffffffff1673ffffffffffffffffffffffffffffffffffffffff16815260200190815260200160002060008282546118a591906135db565b925050819055506001600360008473ffffffffffffffffffffffffffffffffffffffff1673ffffffffffffffffffffffffffffffffffffffff16815260200190815260200160002060008282546118fc91906136a1565b92505081905550816002600083815260200190815260200160002060006101000a81548173ffffffffffffffffffffffffffffffffffffffff021916908373ffffffffffffffffffffffffffffffffffffffff160217905550808273ffffffffffffffffffffffffffffffffffffffff168473ffffffffffffffffffffffffffffffffffffffff167fddf252ad1be2c89b69c2b068fc378daa952ba7f163c4a11628f55a4df523b3ef60405160405180910390a4505050565b6000600d60009054906101000a900473ffffffffffffffffffffffffffffffffffffffff1673ffffffffffffffffffffffffffffffffffffffff166335ea6a75836040518263ffffffff1660e01b8152600401611a129190612a3d565b6101406040518083038186803b158015611a2b57600080fd5b505afa158015611a3f573d6000803e3d6000fd5b505050506040513d601f19601f82011682018060405250810190611a639190613ab0565b9091929394959697985090919293949596975090919293949596509091929394955090919293945090919293509091925090505080915050919050565b600080821415611ae5576040517f08c379a0000000000000000000000000000000000000000000000000000000008152600401611adc90613bdb565b60405180910390fd5b6000600283611af49190613c2a565b905060006b033b2e3c9fd0803ce8000000905080827fffffffffffffffffffffffffffffffffffffffffffffffffffffffffffffffff611b3491906135db565b611b3e9190613c2a565b851115611b80576040517f08c379a0000000000000000000000000000000000000000000000000000000008152600401611b7790613ca7565b60405180910390fd5b83828287611b8e9190613cc7565b611b9891906136a1565b611ba29190613c2a565b9250505092915050565b6000600a60009054906101000a900473ffffffffffffffffffffffffffffffffffffffff16905081600a60006101000a81548173ffffffffffffffffffffffffffffffffffffffff021916908373ffffffffffffffffffffffffffffffffffffffff1602179055508173ffffffffffffffffffffffffffffffffffffffff168173ffffffffffffffffffffffffffffffffffffffff167f8be0079c531659141344cd1fd0a4f28419497f9722a3daafe3b4186f6b6457e060405160405180910390a35050565b600073ffffffffffffffffffffffffffffffffffffffff168273ffffffffffffffffffffffffffffffffffffffff161415611ce2576040517f08c379a0000000000000000000000000000000000000000000000000000000008152600401611cd990613d6d565b60405180910390fd5b611ceb8161154e565b15611d2b576040517f08c379a0000000000000000000000000000000000000000000000000000000008152600401611d2290613dd9565b60405180910390fd5b611d37600083836121eb565b6001600360008473ffffffffffffffffffffffffffffffffffffffff1673ffffffffffffffffffffffffffffffffffffffff1681526020019081526020016000206000828254611d8791906136a1565b92505081905550816002600083815260200190815260200160002060006101000a81548173ffffffffffffffffffffffffffffffffffffffff021916908373ffffffffffffffffffffffffffffffffffffffff160217905550808273ffffffffffffffffffffffffffffffffffffffff16600073ffffffffffffffffffffffffffffffffffffffff167fddf252ad1be2c89b69c2b068fc378daa952ba7f163c4a11628f55a4df523b3ef60405160405180910390a45050565b8173ffffffffffffffffffffffffffffffffffffffff168373ffffffffffffffffffffffffffffffffffffffff161415611eaf576040517f08c379a0000000000000000000000000000000000000000000000000000000008152600401611ea690613e45565b60405180910390fd5b80600560008573ffffffffffffffffffffffffffffffffffffffff1673ffffffffffffffffffffffffffffffffffffffff16815260200190815260200160002060008473ffffffffffffffffffffffffffffffffffffffff1673ffffffffffffffffffffffffffffffffffffffff16815260200190815260200160002060006101000a81548160ff0219169083151502179055508173ffffffffffffffffffffffffffffffffffffffff168373ffffffffffffffffffffffffffffffffffffffff167f17307eab39ab6107e8899845ad3d59bd9653f200f220920489ca2b5937696c3183604051611fa091906128c3565b60405180910390a3505050565b611fb8848484611759565b611fc4848484846122ff565b612003576040517f08c379a0000000000000000000000000000000000000000000000000000000008152600401611ffa90613ed7565b60405180910390fd5b50505050565b606060405180602001604052806000815250905090565b60606000821415612068576040518060400160405280600181526020017f3000000000000000000000000000000000000000000000000000000000000000815250905061217c565b600082905060005b6000821461209a57808061208390613ef7565b915050600a826120939190613c2a565b9150612070565b60008167ffffffffffffffff8111156120b6576120b5612d67565b5b6040519080825280601f01601f1916602001820160405280156120e85781602001600182028036833780820191505090505b5090505b600085146121755760018261210191906135db565b9150600a856121109190613f40565b603061211c91906136a1565b60f81b81838151811061213257612131613322565b5b60200101907effffffffffffffffffffffffffffffffffffffffffffffffffffffffffffff1916908160001a905350600a8561216e9190613c2a565b94506120ec565b8093505050505b919050565b60007f01ffc9a7000000000000000000000000000000000000000000000000000000007bffffffffffffffffffffffffffffffffffffffffffffffffffffffff1916827bffffffffffffffffffffffffffffffffffffffffffffffffffffffff1916149050919050565b6121f6838383612496565b600073ffffffffffffffffffffffffffffffffffffffff168373ffffffffffffffffffffffffffffffffffffffff161415612239576122348161249b565b612278565b8173ffffffffffffffffffffffffffffffffffffffff168373ffffffffffffffffffffffffffffffffffffffff16146122775761227683826124e4565b5b5b600073ffffffffffffffffffffffffffffffffffffffff168273ffffffffffffffffffffffffffffffffffffffff1614156122bb576122b681612651565b6122fa565b8273ffffffffffffffffffffffffffffffffffffffff168273ffffffffffffffffffffffffffffffffffffffff16146122f9576122f88282612722565b5b5b505050565b60006123208473ffffffffffffffffffffffffffffffffffffffff166127a1565b15612489578373ffffffffffffffffffffffffffffffffffffffff1663150b7a026123496115ba565b8786866040518563ffffffff1660e01b815260040161236b9493929190613fc6565b602060405180830381600087803b15801561238557600080fd5b505af19250505080156123b657506040513d601f19601f820116820180604052508101906123b39190614027565b60015b612439573d80600081146123e6576040519150601f19603f3d011682016040523d82523d6000602084013e6123eb565b606091505b50600081511415612431576040517f08c379a000000000000000000000000000000000000000000000000000000000815260040161242890613ed7565b60405180910390fd5b805181602001fd5b63150b7a0260e01b7bffffffffffffffffffffffffffffffffffffffffffffffffffffffff1916817bffffffffffffffffffffffffffffffffffffffffffffffffffffffff19161491505061248e565b600190505b949350505050565b505050565b6008805490506009600083815260200190815260200160002081905550600881908060018154018082558091505060019003906000526020600020016000909190919091505550565b600060016124f184610ca7565b6124fb91906135db565b90506000600760008481526020019081526020016000205490508181146125e0576000600660008673ffffffffffffffffffffffffffffffffffffffff1673ffffffffffffffffffffffffffffffffffffffff168152602001908152602001600020600084815260200190815260200160002054905080600660008773ffffffffffffffffffffffffffffffffffffffff1673ffffffffffffffffffffffffffffffffffffffff168152602001908152602001600020600084815260200190815260200160002081905550816007600083815260200190815260200160002081905550505b6007600084815260200190815260200160002060009055600660008573ffffffffffffffffffffffffffffffffffffffff1673ffffffffffffffffffffffffffffffffffffffff16815260200190815260200160002060008381526020019081526020016000206000905550505050565b6000600160088054905061266591906135db565b905060006009600084815260200190815260200160002054905060006008838154811061269557612694613322565b5b9060005260206000200154905080600883815481106126b7576126b6613322565b5b90600052602060002001819055508160096000838152602001908152602001600020819055506009600085815260200190815260200160002060009055600880548061270657612705614054565b5b6001900381819060005260206000200160009055905550505050565b600061272d83610ca7565b905081600660008573ffffffffffffffffffffffffffffffffffffffff1673ffffffffffffffffffffffffffffffffffffffff168152602001908152602001600020600083815260200190815260200160002081905550806007600084815260200190815260200160002081905550505050565b600080823b905060008111915050919050565b6040518060a00160405280600081526020016000815260200160008152602001600073ffffffffffffffffffffffffffffffffffffffff168152602001600073ffffffffffffffffffffffffffffffffffffffff1681525090565b6000604051905090565b600080fd5b600080fd5b60007fffffffff0000000000000000000000000000000000000000000000000000000082169050919050565b61285881612823565b811461286357600080fd5b50565b6000813590506128758161284f565b92915050565b60006020828403121561289157612890612819565b5b600061289f84828501612866565b91505092915050565b60008115159050919050565b6128bd816128a8565b82525050565b60006020820190506128d860008301846128b4565b92915050565b600081519050919050565b600082825260208201905092915050565b60005b838110156129185780820151818401526020810190506128fd565b83811115612927576000848401525b50505050565b6000601f19601f8301169050919050565b6000612949826128de565b61295381856128e9565b93506129638185602086016128fa565b61296c8161292d565b840191505092915050565b60006020820190508181036000830152612991818461293e565b905092915050565b6000819050919050565b6129ac81612999565b81146129b757600080fd5b50565b6000813590506129c9816129a3565b92915050565b6000602082840312156129e5576129e4612819565b5b60006129f3848285016129ba565b91505092915050565b600073ffffffffffffffffffffffffffffffffffffffff82169050919050565b6000612a27826129fc565b9050919050565b612a3781612a1c565b82525050565b6000602082019050612a526000830184612a2e565b92915050565b612a6181612a1c565b8114612a6c57600080fd5b50565b600081359050612a7e81612a58565b92915050565b60008060408385031215612a9b57612a9a612819565b5b6000612aa985828601612a6f565b9250506020612aba858286016129ba565b9150509250929050565b612acd81612999565b82525050565b6000602082019050612ae86000830184612ac4565b92915050565b600080600060608486031215612b0757612b06612819565b5b6000612b1586828701612a6f565b9350506020612b2686828701612a6f565b9250506040612b37868287016129ba565b9150509250925092565b612b4a81612999565b82525050565b612b5981612a1c565b82525050565b60a082016000820151612b756000850182612b41565b506020820151612b886020850182612b41565b506040820151612b9b6040850182612b41565b506060820151612bae6060850182612b50565b506080820151612bc16080850182612b50565b50505050565b600060a082019050612bdc6000830184612b5f565b92915050565b60008060008060808587031215612bfc57612bfb612819565b5b6000612c0a87828801612a6f565b9450506020612c1b878288016129ba565b9350506040612c2c87828801612a6f565b9250506060612c3d87828801612a6f565b91505092959194509250565b600060208284031215612c5f57612c5e612819565b5b6000612c6d84828501612a6f565b91505092915050565b600080600080600060a08688031215612c9257612c91612819565b5b6000612ca088828901612a6f565b9550506020612cb1888289016129ba565b9450506040612cc2888289016129ba565b9350506060612cd388828901612a6f565b9250506080612ce488828901612a6f565b9150509295509295909350565b612cfa816128a8565b8114612d0557600080fd5b50565b600081359050612d1781612cf1565b92915050565b60008060408385031215612d3457612d33612819565b5b6000612d4285828601612a6f565b9250506020612d5385828601612d08565b9150509250929050565b600080fd5b600080fd5b7f4e487b7100000000000000000000000000000000000000000000000000000000600052604160045260246000fd5b612d9f8261292d565b810181811067ffffffffffffffff82111715612dbe57612dbd612d67565b5b80604052505050565b6000612dd161280f565b9050612ddd8282612d96565b919050565b600067ffffffffffffffff821115612dfd57612dfc612d67565b5b612e068261292d565b9050602081019050919050565b82818337600083830152505050565b6000612e35612e3084612de2565b612dc7565b905082815260208101848484011115612e5157612e50612d62565b5b612e5c848285612e13565b509392505050565b600082601f830112612e7957612e78612d5d565b5b8135612e89848260208601612e22565b91505092915050565b60008060008060808587031215612eac57612eab612819565b5b6000612eba87828801612a6f565b9450506020612ecb87828801612a6f565b9350506040612edc878288016129ba565b925050606085013567ffffffffffffffff811115612efd57612efc61281e565b5b612f0987828801612e64565b91505092959194509250565b60008060408385031215612f2c57612f2b612819565b5b6000612f3a85828601612a6f565b9250506020612f4b85828601612a6f565b9150509250929050565b7f4e487b7100000000000000000000000000000000000000000000000000000000600052602260045260246000fd5b60006002820490506001821680612f9c57607f821691505b60208210811415612fb057612faf612f55565b5b50919050565b7f4552433732313a20617070726f76656420717565727920666f72206e6f6e657860008201527f697374656e7420746f6b656e0000000000000000000000000000000000000000602082015250565b6000613012602c836128e9565b915061301d82612fb6565b604082019050919050565b6000602082019050818103600083015261304181613005565b9050919050565b7f4552433732313a20617070726f76616c20746f2063757272656e74206f776e6560008201527f7200000000000000000000000000000000000000000000000000000000000000602082015250565b60006130a46021836128e9565b91506130af82613048565b604082019050919050565b600060208201905081810360008301526130d381613097565b9050919050565b7f4552433732313a20617070726f76652063616c6c6572206973206e6f74206f7760008201527f6e6572206e6f7220617070726f76656420666f7220616c6c0000000000000000602082015250565b60006131366038836128e9565b9150613141826130da565b604082019050919050565b6000602082019050818103600083015261316581613129565b9050919050565b7f4552433732313a207472616e736665722063616c6c6572206973206e6f74206f60008201527f776e6572206e6f7220617070726f766564000000000000000000000000000000602082015250565b60006131c86031836128e9565b91506131d38261316c565b604082019050919050565b600060208201905081810360008301526131f7816131bb565b9050919050565b7f455243373231456e756d657261626c653a206f776e657220696e646578206f7560008201527f74206f6620626f756e6473000000000000000000000000000000000000000000602082015250565b600061325a602b836128e9565b9150613265826131fe565b604082019050919050565b600060208201905081810360008301526132898161324d565b9050919050565b7f455243373231456e756d657261626c653a20676c6f62616c20696e646578206f60008201527f7574206f6620626f756e64730000000000000000000000000000000000000000602082015250565b60006132ec602c836128e9565b91506132f782613290565b604082019050919050565b6000602082019050818103600083015261331b816132df565b9050919050565b7f4e487b7100000000000000000000000000000000000000000000000000000000600052603260045260246000fd5b7f4552433732313a206f776e657220717565727920666f72206e6f6e657869737460008201527f656e7420746f6b656e0000000000000000000000000000000000000000000000602082015250565b60006133ad6029836128e9565b91506133b882613351565b604082019050919050565b600060208201905081810360008301526133dc816133a0565b9050919050565b7f4f776e61626c653a2063616c6c6572206973206e6f7420746865206f776e6572600082015250565b60006134196020836128e9565b9150613424826133e3565b602082019050919050565b600060208201905081810360008301526134488161340c565b9050919050565b60008160601b9050919050565b60006134678261344f565b9050919050565b60006134798261345c565b9050919050565b61349161348c82612a1c565b61346e565b82525050565b60006134a38286613480565b6014820191506134b38285613480565b6014820191506134c38284613480565b601482019150819050949350505050565b7f746f6b656e496420646f65736e27742065786973740000000000000000000000600082015250565b600061350a6015836128e9565b9150613515826134d4565b602082019050919050565b60006020820190508181036000830152613539816134fd565b9050919050565b7f696e73756666696369656e742062616c616e6365000000000000000000000000600082015250565b60006135766014836128e9565b915061358182613540565b602082019050919050565b600060208201905081810360008301526135a581613569565b9050919050565b7f4e487b7100000000000000000000000000000000000000000000000000000000600052601160045260246000fd5b60006135e682612999565b91506135f183612999565b925082821015613604576136036135ac565b5b828203905092915050565b7f4552433732313a2062616c616e636520717565727920666f7220746865207a6560008201527f726f206164647265737300000000000000000000000000000000000000000000602082015250565b600061366b602a836128e9565b91506136768261360f565b604082019050919050565b6000602082019050818103600083015261369a8161365e565b9050919050565b60006136ac82612999565b91506136b783612999565b9250827fffffffffffffffffffffffffffffffffffffffffffffffffffffffffffffffff038211156136ec576136eb6135ac565b5b828201905092915050565b7f4552433732314d657461646174613a2055524920717565727920666f72206e6f60008201527f6e6578697374656e7420746f6b656e0000000000000000000000000000000000602082015250565b6000613753602f836128e9565b915061375e826136f7565b604082019050919050565b6000602082019050818103600083015261378281613746565b9050919050565b600081905092915050565b600061379f826128de565b6137a98185613789565b93506137b98185602086016128fa565b80840191505092915050565b60006137d18285613794565b91506137dd8284613794565b91508190509392505050565b6000815190506137f8816129a3565b92915050565b60006020828403121561381457613813612819565b5b6000613822848285016137e9565b91505092915050565b7f4f776e61626c653a206e6577206f776e657220697320746865207a65726f206160008201527f6464726573730000000000000000000000000000000000000000000000000000602082015250565b60006138876026836128e9565b91506138928261382b565b604082019050919050565b600060208201905081810360008301526138b68161387a565b9050919050565b7f4552433732313a206f70657261746f7220717565727920666f72206e6f6e657860008201527f697374656e7420746f6b656e0000000000000000000000000000000000000000602082015250565b6000613919602c836128e9565b9150613924826138bd565b604082019050919050565b600060208201905081810360008301526139488161390c565b9050919050565b7f4552433732313a207472616e73666572206f6620746f6b656e2074686174206960008201527f73206e6f74206f776e0000000000000000000000000000000000000000000000602082015250565b60006139ab6029836128e9565b91506139b68261394f565b604082019050919050565b600060208201905081810360008301526139da8161399e565b9050919050565b7f4552433732313a207472616e7366657220746f20746865207a65726f2061646460008201527f7265737300000000000000000000000000000000000000000000000000000000602082015250565b6000613a3d6024836128e9565b9150613a48826139e1565b604082019050919050565b60006020820190508181036000830152613a6c81613a30565b9050919050565b600064ffffffffff82169050919050565b613a8d81613a73565b8114613a9857600080fd5b50565b600081519050613aaa81613a84565b92915050565b6000806000806000806000806000806101408b8d031215613ad457613ad3612819565b5b6000613ae28d828e016137e9565b9a50506020613af38d828e016137e9565b9950506040613b048d828e016137e9565b9850506060613b158d828e016137e9565b9750506080613b268d828e016137e9565b96505060a0613b378d828e016137e9565b95505060c0613b488d828e016137e9565b94505060e0613b598d828e016137e9565b935050610100613b6b8d828e016137e9565b925050610120613b7d8d828e01613a9b565b9150509295989b9194979a5092959850565b7f6469766973696f6e206279203000000000000000000000000000000000000000600082015250565b6000613bc5600d836128e9565b9150613bd082613b8f565b602082019050919050565b60006020820190508181036000830152613bf481613bb8565b9050919050565b7f4e487b7100000000000000000000000000000000000000000000000000000000600052601260045260246000fd5b6000613c3582612999565b9150613c4083612999565b925082613c5057613c4f613bfb565b5b828204905092915050565b7f6d756c7469706c69636174696f6e206f766572666c6f77000000000000000000600082015250565b6000613c916017836128e9565b9150613c9c82613c5b565b602082019050919050565b60006020820190508181036000830152613cc081613c84565b9050919050565b6000613cd282612999565b9150613cdd83612999565b9250817fffffffffffffffffffffffffffffffffffffffffffffffffffffffffffffffff0483118215151615613d1657613d156135ac565b5b828202905092915050565b7f4552433732313a206d696e7420746f20746865207a65726f2061646472657373600082015250565b6000613d576020836128e9565b9150613d6282613d21565b602082019050919050565b60006020820190508181036000830152613d8681613d4a565b9050919050565b7f4552433732313a20746f6b656e20616c7265616479206d696e74656400000000600082015250565b6000613dc3601c836128e9565b9150613dce82613d8d565b602082019050919050565b60006020820190508181036000830152613df281613db6565b9050919050565b7f4552433732313a20617070726f766520746f2063616c6c657200000000000000600082015250565b6000613e2f6019836128e9565b9150613e3a82613df9565b602082019050919050565b60006020820190508181036000830152613e5e81613e22565b9050919050565b7f4552433732313a207472616e7366657220746f206e6f6e20455243373231526560008201527f63656976657220696d706c656d656e7465720000000000000000000000000000602082015250565b6000613ec16032836128e9565b9150613ecc82613e65565b604082019050919050565b60006020820190508181036000830152613ef081613eb4565b9050919050565b6000613f0282612999565b91507fffffffffffffffffffffffffffffffffffffffffffffffffffffffffffffffff821415613f3557613f346135ac565b5b600182019050919050565b6000613f4b82612999565b9150613f5683612999565b925082613f6657613f65613bfb565b5b828206905092915050565b600081519050919050565b600082825260208201905092915050565b6000613f9882613f71565b613fa28185613f7c565b9350613fb28185602086016128fa565b613fbb8161292d565b840191505092915050565b6000608082019050613fdb6000830187612a2e565b613fe86020830186612a2e565b613ff56040830185612ac4565b81810360608301526140078184613f8d565b905095945050505050565b6000815190506140218161284f565b92915050565b60006020828403121561403d5761403c612819565b5b600061404b84828501614012565b91505092915050565b7f4e487b7100000000000000000000000000000000000000000000000000000000600052603160045260246000fdfea264697066735822122039d31faa5d466cbfdcf3b85318e5ccc9ff8386c21a4287f60e9cdb597fc6820664736f6c6343000809003360806040523480156200001157600080fd5b506040518060400160405280600f81526020017f4a4350204f776e657220546f6b656e00000000000000000000000000000000008152506040518060400160405280600c81526020017f4a4350545f544553545f4f310000000000000000000000000000000000000000815250816000908051906020019062000096929190620001a6565b508060019080519060200190620000af929190620001a6565b505050620000d2620000c6620000d860201b60201c565b620000e060201b60201c565b620002bb565b600033905090565b6000600a60009054906101000a900473ffffffffffffffffffffffffffffffffffffffff16905081600a60006101000a81548173ffffffffffffffffffffffffffffffffffffffff021916908373ffffffffffffffffffffffffffffffffffffffff1602179055508173ffffffffffffffffffffffffffffffffffffffff168173ffffffffffffffffffffffffffffffffffffffff167f8be0079c531659141344cd1fd0a4f28419497f9722a3daafe3b4186f6b6457e060405160405180910390a35050565b828054620001b49062000285565b90600052602060002090601f016020900481019282620001d8576000855562000224565b82601f10620001f357805160ff191683800117855562000224565b8280016001018555821562000224579182015b828111156200022357825182559160200191906001019062000206565b5b50905062000233919062000237565b5090565b5b808211156200025257600081600090555060010162000238565b5090565b7f4e487b7100000000000000000000000000000000000000000000000000000000600052602260045260246000fd5b600060028204905060018216806200029e57607f821691505b60208210811415620002b557620002b462000256565b5b50919050565b61354f80620002cb6000396000f3fe608060405234801561001057600080fd5b50600436106101375760003560e01c80636352211e116100b8578063a22cb4651161007c578063a22cb46514610362578063b88d4fde1461037e578063c6fdbc901461039a578063c87b56dd146103ca578063e985e9c5146103fa578063f2fde38b1461042a57610137565b80636352211e146102bc57806370a08231146102ec578063715018a61461031c5780638da5cb5b1461032657806395d89b411461034457610137565b806323579ba1116100ff57806323579ba1146101f457806323b872dd146102245780632f745c591461024057806342842e0e146102705780634f6ccce71461028c57610137565b806301ffc9a71461013c57806306fdde031461016c578063081812fc1461018a578063095ea7b3146101ba57806318160ddd146101d6575b600080fd5b610156600480360381019061015191906121c6565b610446565b604051610163919061220e565b60405180910390f35b6101746104c0565b60405161018191906122c2565b60405180910390f35b6101a4600480360381019061019f919061231a565b610552565b6040516101b19190612388565b60405180910390f35b6101d460048036038101906101cf91906123cf565b6105d7565b005b6101de6106ef565b6040516101eb919061241e565b60405180910390f35b61020e60048036038101906102099190612439565b6106fc565b60405161021b919061241e565b60405180910390f35b61023e6004803603810190610239919061248c565b610839565b005b61025a600480360381019061025591906123cf565b610899565b604051610267919061241e565b60405180910390f35b61028a6004803603810190610285919061248c565b61093e565b005b6102a660048036038101906102a1919061231a565b61095e565b6040516102b3919061241e565b60405180910390f35b6102d660048036038101906102d1919061231a565b6109cf565b6040516102e39190612388565b60405180910390f35b610306600480360381019061030191906124df565b610a81565b604051610313919061241e565b60405180910390f35b610324610b39565b005b61032e610bc1565b60405161033b9190612388565b60405180910390f35b61034c610beb565b60405161035991906122c2565b60405180910390f35b61037c60048036038101906103779190612538565b610c7d565b005b610398600480360381019061039391906126ad565b610c93565b005b6103b460048036038101906103af919061231a565b610cf5565b6040516103c1919061277d565b60405180910390f35b6103e460048036038101906103df919061231a565b610d82565b6040516103f191906122c2565b60405180910390f35b610414600480360381019061040f9190612798565b610e29565b604051610421919061220e565b60405180910390f35b610444600480360381019061043f91906124df565b610ebd565b005b60007f780e9d63000000000000000000000000000000000000000000000000000000007bffffffffffffffffffffffffffffffffffffffffffffffffffffffff1916827bffffffffffffffffffffffffffffffffffffffffffffffffffffffff191614806104b957506104b882610fb5565b5b9050919050565b6060600080546104cf90612807565b80601f01602080910402602001604051908101604052809291908181526020018280546104fb90612807565b80156105485780601f1061051d57610100808354040283529160200191610548565b820191906000526020600020905b81548152906001019060200180831161052b57829003601f168201915b5050505050905090565b600061055d82611097565b61059c576040517f08c379a0000000000000000000000000000000000000000000000000000000008152600401610593906128ab565b60405180910390fd5b6004600083815260200190815260200160002060009054906101000a900473ffffffffffffffffffffffffffffffffffffffff169050919050565b60006105e2826109cf565b90508073ffffffffffffffffffffffffffffffffffffffff168373ffffffffffffffffffffffffffffffffffffffff161415610653576040517f08c379a000000000000000000000000000000000000000000000000000000000815260040161064a9061293d565b60405180910390fd5b8073ffffffffffffffffffffffffffffffffffffffff16610672611103565b73ffffffffffffffffffffffffffffffffffffffff1614806106a157506106a08161069b611103565b610e29565b5b6106e0576040517f08c379a00000000000000000000000000000000000000000000000000000000081526004016106d7906129cf565b60405180910390fd5b6106ea838361110b565b505050565b6000600880549050905090565b6000610706611103565b73ffffffffffffffffffffffffffffffffffffffff16610724610bc1565b73ffffffffffffffffffffffffffffffffffffffff161461077a576040517f08c379a000000000000000000000000000000000000000000000000000000000815260040161077190612a3b565b60405180910390fd5b610784600b6111c4565b6000610790600b6111da565b905060405180604001604052808581526020018473ffffffffffffffffffffffffffffffffffffffff16815250600c60008381526020019081526020016000206000820151816000015560208201518160010160006101000a81548173ffffffffffffffffffffffffffffffffffffffff021916908373ffffffffffffffffffffffffffffffffffffffff16021790555090505061082e85826111e8565b809150509392505050565b61084a610844611103565b826113b6565b610889576040517f08c379a000000000000000000000000000000000000000000000000000000000815260040161088090612acd565b60405180910390fd5b610894838383611494565b505050565b60006108a483610a81565b82106108e5576040517f08c379a00000000000000000000000000000000000000000000000000000000081526004016108dc90612b5f565b60405180910390fd5b600660008473ffffffffffffffffffffffffffffffffffffffff1673ffffffffffffffffffffffffffffffffffffffff168152602001908152602001600020600083815260200190815260200160002054905092915050565b61095983838360405180602001604052806000815250610c93565b505050565b60006109686106ef565b82106109a9576040517f08c379a00000000000000000000000000000000000000000000000000000000081526004016109a090612bf1565b60405180910390fd5b600882815481106109bd576109bc612c11565b5b90600052602060002001549050919050565b6000806002600084815260200190815260200160002060009054906101000a900473ffffffffffffffffffffffffffffffffffffffff169050600073ffffffffffffffffffffffffffffffffffffffff168173ffffffffffffffffffffffffffffffffffffffff161415610a78576040517f08c379a0000000000000000000000000000000000000000000000000000000008152600401610a6f90612cb2565b60405180910390fd5b80915050919050565b60008073ffffffffffffffffffffffffffffffffffffffff168273ffffffffffffffffffffffffffffffffffffffff161415610af2576040517f08c379a0000000000000000000000000000000000000000000000000000000008152600401610ae990612d44565b60405180910390fd5b600360008373ffffffffffffffffffffffffffffffffffffffff1673ffffffffffffffffffffffffffffffffffffffff168152602001908152602001600020549050919050565b610b41611103565b73ffffffffffffffffffffffffffffffffffffffff16610b5f610bc1565b73ffffffffffffffffffffffffffffffffffffffff1614610bb5576040517f08c379a0000000000000000000000000000000000000000000000000000000008152600401610bac90612a3b565b60405180910390fd5b610bbf60006116f0565b565b6000600a60009054906101000a900473ffffffffffffffffffffffffffffffffffffffff16905090565b606060018054610bfa90612807565b80601f0160208091040260200160405190810160405280929190818152602001828054610c2690612807565b8015610c735780601f10610c4857610100808354040283529160200191610c73565b820191906000526020600020905b815481529060010190602001808311610c5657829003601f168201915b5050505050905090565b610c8f610c88611103565b83836117b6565b5050565b610ca4610c9e611103565b836113b6565b610ce3576040517f08c379a0000000000000000000000000000000000000000000000000000000008152600401610cda90612acd565b60405180910390fd5b610cef84848484611923565b50505050565b610cfd61212a565b600c6000838152602001908152602001600020604051806040016040529081600082015481526020016001820160009054906101000a900473ffffffffffffffffffffffffffffffffffffffff1673ffffffffffffffffffffffffffffffffffffffff1673ffffffffffffffffffffffffffffffffffffffff16815250509050919050565b6060610d8d82611097565b610dcc576040517f08c379a0000000000000000000000000000000000000000000000000000000008152600401610dc390612dd6565b60405180910390fd5b6000610dd661197f565b90506000815111610df65760405180602001604052806000815250610e21565b80610e0084611996565b604051602001610e11929190612e32565b6040516020818303038152906040525b915050919050565b6000600560008473ffffffffffffffffffffffffffffffffffffffff1673ffffffffffffffffffffffffffffffffffffffff16815260200190815260200160002060008373ffffffffffffffffffffffffffffffffffffffff1673ffffffffffffffffffffffffffffffffffffffff16815260200190815260200160002060009054906101000a900460ff16905092915050565b610ec5611103565b73ffffffffffffffffffffffffffffffffffffffff16610ee3610bc1565b73ffffffffffffffffffffffffffffffffffffffff1614610f39576040517f08c379a0000000000000000000000000000000000000000000000000000000008152600401610f3090612a3b565b60405180910390fd5b600073ffffffffffffffffffffffffffffffffffffffff168173ffffffffffffffffffffffffffffffffffffffff161415610fa9576040517f08c379a0000000000000000000000000000000000000000000000000000000008152600401610fa090612ec8565b60405180910390fd5b610fb2816116f0565b50565b60007f80ac58cd000000000000000000000000000000000000000000000000000000007bffffffffffffffffffffffffffffffffffffffffffffffffffffffff1916827bffffffffffffffffffffffffffffffffffffffffffffffffffffffff1916148061108057507f5b5e139f000000000000000000000000000000000000000000000000000000007bffffffffffffffffffffffffffffffffffffffffffffffffffffffff1916827bffffffffffffffffffffffffffffffffffffffffffffffffffffffff1916145b80611090575061108f82611af7565b5b9050919050565b60008073ffffffffffffffffffffffffffffffffffffffff166002600084815260200190815260200160002060009054906101000a900473ffffffffffffffffffffffffffffffffffffffff1673ffffffffffffffffffffffffffffffffffffffff1614159050919050565b600033905090565b816004600083815260200190815260200160002060006101000a81548173ffffffffffffffffffffffffffffffffffffffff021916908373ffffffffffffffffffffffffffffffffffffffff160217905550808273ffffffffffffffffffffffffffffffffffffffff1661117e836109cf565b73ffffffffffffffffffffffffffffffffffffffff167f8c5be1e5ebec7d5bd14f71427d1e84f3dd0314c0f7b2291e5b200ac8c7c3b92560405160405180910390a45050565b6001816000016000828254019250508190555050565b600081600001549050919050565b600073ffffffffffffffffffffffffffffffffffffffff168273ffffffffffffffffffffffffffffffffffffffff161415611258576040517f08c379a000000000000000000000000000000000000000000000000000000000815260040161124f90612f34565b60405180910390fd5b61126181611097565b156112a1576040517f08c379a000000000000000000000000000000000000000000000000000000000815260040161129890612fa0565b60405180910390fd5b6112ad60008383611b61565b6001600360008473ffffffffffffffffffffffffffffffffffffffff1673ffffffffffffffffffffffffffffffffffffffff16815260200190815260200160002060008282546112fd9190612fef565b92505081905550816002600083815260200190815260200160002060006101000a81548173ffffffffffffffffffffffffffffffffffffffff021916908373ffffffffffffffffffffffffffffffffffffffff160217905550808273ffffffffffffffffffffffffffffffffffffffff16600073ffffffffffffffffffffffffffffffffffffffff167fddf252ad1be2c89b69c2b068fc378daa952ba7f163c4a11628f55a4df523b3ef60405160405180910390a45050565b60006113c182611097565b611400576040517f08c379a00000000000000000000000000000000000000000000000000000000081526004016113f7906130b7565b60405180910390fd5b600061140b836109cf565b90508073ffffffffffffffffffffffffffffffffffffffff168473ffffffffffffffffffffffffffffffffffffffff16148061147a57508373ffffffffffffffffffffffffffffffffffffffff1661146284610552565b73ffffffffffffffffffffffffffffffffffffffff16145b8061148b575061148a8185610e29565b5b91505092915050565b8273ffffffffffffffffffffffffffffffffffffffff166114b4826109cf565b73ffffffffffffffffffffffffffffffffffffffff161461150a576040517f08c379a000000000000000000000000000000000000000000000000000000000815260040161150190613149565b60405180910390fd5b600073ffffffffffffffffffffffffffffffffffffffff168273ffffffffffffffffffffffffffffffffffffffff16141561157a576040517f08c379a0000000000000000000000000000000000000000000000000000000008152600401611571906131db565b60405180910390fd5b611585838383611b61565b61159060008261110b565b6001600360008573ffffffffffffffffffffffffffffffffffffffff1673ffffffffffffffffffffffffffffffffffffffff16815260200190815260200160002060008282546115e091906131fb565b925050819055506001600360008473ffffffffffffffffffffffffffffffffffffffff1673ffffffffffffffffffffffffffffffffffffffff16815260200190815260200160002060008282546116379190612fef565b92505081905550816002600083815260200190815260200160002060006101000a81548173ffffffffffffffffffffffffffffffffffffffff021916908373ffffffffffffffffffffffffffffffffffffffff160217905550808273ffffffffffffffffffffffffffffffffffffffff168473ffffffffffffffffffffffffffffffffffffffff167fddf252ad1be2c89b69c2b068fc378daa952ba7f163c4a11628f55a4df523b3ef60405160405180910390a4505050565b6000600a60009054906101000a900473ffffffffffffffffffffffffffffffffffffffff16905081600a60006101000a81548173ffffffffffffffffffffffffffffffffffffffff021916908373ffffffffffffffffffffffffffffffffffffffff1602179055508173ffffffffffffffffffffffffffffffffffffffff168173ffffffffffffffffffffffffffffffffffffffff167f8be0079c531659141344cd1fd0a4f28419497f9722a3daafe3b4186f6b6457e060405160405180910390a35050565b8173ffffffffffffffffffffffffffffffffffffffff168373ffffffffffffffffffffffffffffffffffffffff161415611825576040517f08c379a000000000000000000000000000000000000000000000000000000000815260040161181c9061327b565b60405180910390fd5b80600560008573ffffffffffffffffffffffffffffffffffffffff1673ffffffffffffffffffffffffffffffffffffffff16815260200190815260200160002060008473ffffffffffffffffffffffffffffffffffffffff1673ffffffffffffffffffffffffffffffffffffffff16815260200190815260200160002060006101000a81548160ff0219169083151502179055508173ffffffffffffffffffffffffffffffffffffffff168373ffffffffffffffffffffffffffffffffffffffff167f17307eab39ab6107e8899845ad3d59bd9653f200f220920489ca2b5937696c3183604051611916919061220e565b60405180910390a3505050565b61192e848484611494565b61193a84848484611c75565b611979576040517f08c379a00000000000000000000000000000000000000000000000000000000081526004016119709061330d565b60405180910390fd5b50505050565b606060405180602001604052806000815250905090565b606060008214156119de576040518060400160405280600181526020017f30000000000000000000000000000000000000000000000000000000000000008152509050611af2565b600082905060005b60008214611a105780806119f99061332d565b915050600a82611a0991906133a5565b91506119e6565b60008167ffffffffffffffff811115611a2c57611a2b612582565b5b6040519080825280601f01601f191660200182016040528015611a5e5781602001600182028036833780820191505090505b5090505b60008514611aeb57600182611a7791906131fb565b9150600a85611a8691906133d6565b6030611a929190612fef565b60f81b818381518110611aa857611aa7612c11565b5b60200101907effffffffffffffffffffffffffffffffffffffffffffffffffffffffffffff1916908160001a905350600a85611ae491906133a5565b9450611a62565b8093505050505b919050565b60007f01ffc9a7000000000000000000000000000000000000000000000000000000007bffffffffffffffffffffffffffffffffffffffffffffffffffffffff1916827bffffffffffffffffffffffffffffffffffffffffffffffffffffffff1916149050919050565b611b6c838383611e0c565b600073ffffffffffffffffffffffffffffffffffffffff168373ffffffffffffffffffffffffffffffffffffffff161415611baf57611baa81611e11565b611bee565b8173ffffffffffffffffffffffffffffffffffffffff168373ffffffffffffffffffffffffffffffffffffffff1614611bed57611bec8382611e5a565b5b5b600073ffffffffffffffffffffffffffffffffffffffff168273ffffffffffffffffffffffffffffffffffffffff161415611c3157611c2c81611fc7565b611c70565b8273ffffffffffffffffffffffffffffffffffffffff168273ffffffffffffffffffffffffffffffffffffffff1614611c6f57611c6e8282612098565b5b5b505050565b6000611c968473ffffffffffffffffffffffffffffffffffffffff16612117565b15611dff578373ffffffffffffffffffffffffffffffffffffffff1663150b7a02611cbf611103565b8786866040518563ffffffff1660e01b8152600401611ce1949392919061345c565b602060405180830381600087803b158015611cfb57600080fd5b505af1925050508015611d2c57506040513d601f19601f82011682018060405250810190611d2991906134bd565b60015b611daf573d8060008114611d5c576040519150601f19603f3d011682016040523d82523d6000602084013e611d61565b606091505b50600081511415611da7576040517f08c379a0000000000000000000000000000000000000000000000000000000008152600401611d9e9061330d565b60405180910390fd5b805181602001fd5b63150b7a0260e01b7bffffffffffffffffffffffffffffffffffffffffffffffffffffffff1916817bffffffffffffffffffffffffffffffffffffffffffffffffffffffff191614915050611e04565b600190505b949350505050565b505050565b6008805490506009600083815260200190815260200160002081905550600881908060018154018082558091505060019003906000526020600020016000909190919091505550565b60006001611e6784610a81565b611e7191906131fb565b9050600060076000848152602001908152602001600020549050818114611f56576000600660008673ffffffffffffffffffffffffffffffffffffffff1673ffffffffffffffffffffffffffffffffffffffff168152602001908152602001600020600084815260200190815260200160002054905080600660008773ffffffffffffffffffffffffffffffffffffffff1673ffffffffffffffffffffffffffffffffffffffff168152602001908152602001600020600084815260200190815260200160002081905550816007600083815260200190815260200160002081905550505b6007600084815260200190815260200160002060009055600660008573ffffffffffffffffffffffffffffffffffffffff1673ffffffffffffffffffffffffffffffffffffffff16815260200190815260200160002060008381526020019081526020016000206000905550505050565b60006001600880549050611fdb91906131fb565b905060006009600084815260200190815260200160002054905060006008838154811061200b5761200a612c11565b5b90600052602060002001549050806008838154811061202d5761202c612c11565b5b90600052602060002001819055508160096000838152602001908152602001600020819055506009600085815260200190815260200160002060009055600880548061207c5761207b6134ea565b5b6001900381819060005260206000200160009055905550505050565b60006120a383610a81565b905081600660008573ffffffffffffffffffffffffffffffffffffffff1673ffffffffffffffffffffffffffffffffffffffff168152602001908152602001600020600083815260200190815260200160002081905550806007600084815260200190815260200160002081905550505050565b600080823b905060008111915050919050565b604051806040016040528060008152602001600073ffffffffffffffffffffffffffffffffffffffff1681525090565b6000604051905090565b600080fd5b600080fd5b60007fffffffff0000000000000000000000000000000000000000000000000000000082169050919050565b6121a38161216e565b81146121ae57600080fd5b50565b6000813590506121c08161219a565b92915050565b6000602082840312156121dc576121db612164565b5b60006121ea848285016121b1565b91505092915050565b60008115159050919050565b612208816121f3565b82525050565b600060208201905061222360008301846121ff565b92915050565b600081519050919050565b600082825260208201905092915050565b60005b83811015612263578082015181840152602081019050612248565b83811115612272576000848401525b50505050565b6000601f19601f8301169050919050565b600061229482612229565b61229e8185612234565b93506122ae818560208601612245565b6122b781612278565b840191505092915050565b600060208201905081810360008301526122dc8184612289565b905092915050565b6000819050919050565b6122f7816122e4565b811461230257600080fd5b50565b600081359050612314816122ee565b92915050565b6000602082840312156123305761232f612164565b5b600061233e84828501612305565b91505092915050565b600073ffffffffffffffffffffffffffffffffffffffff82169050919050565b600061237282612347565b9050919050565b61238281612367565b82525050565b600060208201905061239d6000830184612379565b92915050565b6123ac81612367565b81146123b757600080fd5b50565b6000813590506123c9816123a3565b92915050565b600080604083850312156123e6576123e5612164565b5b60006123f4858286016123ba565b925050602061240585828601612305565b9150509250929050565b612418816122e4565b82525050565b6000602082019050612433600083018461240f565b92915050565b60008060006060848603121561245257612451612164565b5b6000612460868287016123ba565b935050602061247186828701612305565b9250506040612482868287016123ba565b9150509250925092565b6000806000606084860312156124a5576124a4612164565b5b60006124b3868287016123ba565b93505060206124c4868287016123ba565b92505060406124d586828701612305565b9150509250925092565b6000602082840312156124f5576124f4612164565b5b6000612503848285016123ba565b91505092915050565b612515816121f3565b811461252057600080fd5b50565b6000813590506125328161250c565b92915050565b6000806040838503121561254f5761254e612164565b5b600061255d858286016123ba565b925050602061256e85828601612523565b9150509250929050565b600080fd5b600080fd5b7f4e487b7100000000000000000000000000000000000000000000000000000000600052604160045260246000fd5b6125ba82612278565b810181811067ffffffffffffffff821117156125d9576125d8612582565b5b80604052505050565b60006125ec61215a565b90506125f882826125b1565b919050565b600067ffffffffffffffff82111561261857612617612582565b5b61262182612278565b9050602081019050919050565b82818337600083830152505050565b600061265061264b846125fd565b6125e2565b90508281526020810184848401111561266c5761266b61257d565b5b61267784828561262e565b509392505050565b600082601f83011261269457612693612578565b5b81356126a484826020860161263d565b91505092915050565b600080600080608085870312156126c7576126c6612164565b5b60006126d5878288016123ba565b94505060206126e6878288016123ba565b93505060406126f787828801612305565b925050606085013567ffffffffffffffff81111561271857612717612169565b5b6127248782880161267f565b91505092959194509250565b612739816122e4565b82525050565b61274881612367565b82525050565b6040820160008201516127646000850182612730565b506020820151612777602085018261273f565b50505050565b6000604082019050612792600083018461274e565b92915050565b600080604083850312156127af576127ae612164565b5b60006127bd858286016123ba565b92505060206127ce858286016123ba565b9150509250929050565b7f4e487b7100000000000000000000000000000000000000000000000000000000600052602260045260246000fd5b6000600282049050600182168061281f57607f821691505b60208210811415612833576128326127d8565b5b50919050565b7f4552433732313a20617070726f76656420717565727920666f72206e6f6e657860008201527f697374656e7420746f6b656e0000000000000000000000000000000000000000602082015250565b6000612895602c83612234565b91506128a082612839565b604082019050919050565b600060208201905081810360008301526128c481612888565b9050919050565b7f4552433732313a20617070726f76616c20746f2063757272656e74206f776e6560008201527f7200000000000000000000000000000000000000000000000000000000000000602082015250565b6000612927602183612234565b9150612932826128cb565b604082019050919050565b600060208201905081810360008301526129568161291a565b9050919050565b7f4552433732313a20617070726f76652063616c6c6572206973206e6f74206f7760008201527f6e6572206e6f7220617070726f76656420666f7220616c6c0000000000000000602082015250565b60006129b9603883612234565b91506129c48261295d565b604082019050919050565b600060208201905081810360008301526129e8816129ac565b9050919050565b7f4f776e61626c653a2063616c6c6572206973206e6f7420746865206f776e6572600082015250565b6000612a25602083612234565b9150612a30826129ef565b602082019050919050565b60006020820190508181036000830152612a5481612a18565b9050919050565b7f4552433732313a207472616e736665722063616c6c6572206973206e6f74206f60008201527f776e6572206e6f7220617070726f766564000000000000000000000000000000602082015250565b6000612ab7603183612234565b9150612ac282612a5b565b604082019050919050565b60006020820190508181036000830152612ae681612aaa565b9050919050565b7f455243373231456e756d657261626c653a206f776e657220696e646578206f7560008201527f74206f6620626f756e6473000000000000000000000000000000000000000000602082015250565b6000612b49602b83612234565b9150612b5482612aed565b604082019050919050565b60006020820190508181036000830152612b7881612b3c565b9050919050565b7f455243373231456e756d657261626c653a20676c6f62616c20696e646578206f60008201527f7574206f6620626f756e64730000000000000000000000000000000000000000602082015250565b6000612bdb602c83612234565b9150612be682612b7f565b604082019050919050565b60006020820190508181036000830152612c0a81612bce565b9050919050565b7f4e487b7100000000000000000000000000000000000000000000000000000000600052603260045260246000fd5b7f4552433732313a206f776e657220717565727920666f72206e6f6e657869737460008201527f656e7420746f6b656e0000000000000000000000000000000000000000000000602082015250565b6000612c9c602983612234565b9150612ca782612c40565b604082019050919050565b60006020820190508181036000830152612ccb81612c8f565b9050919050565b7f4552433732313a2062616c616e636520717565727920666f7220746865207a6560008201527f726f206164647265737300000000000000000000000000000000000000000000602082015250565b6000612d2e602a83612234565b9150612d3982612cd2565b604082019050919050565b60006020820190508181036000830152612d5d81612d21565b9050919050565b7f4552433732314d657461646174613a2055524920717565727920666f72206e6f60008201527f6e6578697374656e7420746f6b656e0000000000000000000000000000000000602082015250565b6000612dc0602f83612234565b9150612dcb82612d64565b604082019050919050565b60006020820190508181036000830152612def81612db3565b9050919050565b600081905092915050565b6000612e0c82612229565b612e168185612df6565b9350612e26818560208601612245565b80840191505092915050565b6000612e3e8285612e01565b9150612e4a8284612e01565b91508190509392505050565b7f4f776e61626c653a206e6577206f776e657220697320746865207a65726f206160008201527f6464726573730000000000000000000000000000000000000000000000000000602082015250565b6000612eb2602683612234565b9150612ebd82612e56565b604082019050919050565b60006020820190508181036000830152612ee181612ea5565b9050919050565b7f4552433732313a206d696e7420746f20746865207a65726f2061646472657373600082015250565b6000612f1e602083612234565b9150612f2982612ee8565b602082019050919050565b60006020820190508181036000830152612f4d81612f11565b9050919050565b7f4552433732313a20746f6b656e20616c7265616479206d696e74656400000000600082015250565b6000612f8a601c83612234565b9150612f9582612f54565b602082019050919050565b60006020820190508181036000830152612fb981612f7d565b9050919050565b7f4e487b7100000000000000000000000000000000000000000000000000000000600052601160045260246000fd5b6000612ffa826122e4565b9150613005836122e4565b9250827fffffffffffffffffffffffffffffffffffffffffffffffffffffffffffffffff0382111561303a57613039612fc0565b5b828201905092915050565b7f4552433732313a206f70657261746f7220717565727920666f72206e6f6e657860008201527f697374656e7420746f6b656e0000000000000000000000000000000000000000602082015250565b60006130a1602c83612234565b91506130ac82613045565b604082019050919050565b600060208201905081810360008301526130d081613094565b9050919050565b7f4552433732313a207472616e73666572206f6620746f6b656e2074686174206960008201527f73206e6f74206f776e0000000000000000000000000000000000000000000000602082015250565b6000613133602983612234565b915061313e826130d7565b604082019050919050565b6000602082019050818103600083015261316281613126565b9050919050565b7f4552433732313a207472616e7366657220746f20746865207a65726f2061646460008201527f7265737300000000000000000000000000000000000000000000000000000000602082015250565b60006131c5602483612234565b91506131d082613169565b604082019050919050565b600060208201905081810360008301526131f4816131b8565b9050919050565b6000613206826122e4565b9150613211836122e4565b92508282101561322457613223612fc0565b5b828203905092915050565b7f4552433732313a20617070726f766520746f2063616c6c657200000000000000600082015250565b6000613265601983612234565b91506132708261322f565b602082019050919050565b6000602082019050818103600083015261329481613258565b9050919050565b7f4552433732313a207472616e7366657220746f206e6f6e20455243373231526560008201527f63656976657220696d706c656d656e7465720000000000000000000000000000602082015250565b60006132f7603283612234565b91506133028261329b565b604082019050919050565b60006020820190508181036000830152613326816132ea565b9050919050565b6000613338826122e4565b91507fffffffffffffffffffffffffffffffffffffffffffffffffffffffffffffffff82141561336b5761336a612fc0565b5b600182019050919050565b7f4e487b7100000000000000000000000000000000000000000000000000000000600052601260045260246000fd5b60006133b0826122e4565b91506133bb836122e4565b9250826133cb576133ca613376565b5b828204905092915050565b60006133e1826122e4565b91506133ec836122e4565b9250826133fc576133fb613376565b5b828206905092915050565b600081519050919050565b600082825260208201905092915050565b600061342e82613407565b6134388185613412565b9350613448818560208601612245565b61345181612278565b840191505092915050565b60006080820190506134716000830187612379565b61347e6020830186612379565b61348b604083018561240f565b818103606083015261349d8184613423565b905095945050505050565b6000815190506134b78161219a565b92915050565b6000602082840312156134d3576134d2612164565b5b60006134e1848285016134a8565b91505092915050565b7f4e487b7100000000000000000000000000000000000000000000000000000000600052603160045260246000fdfea26469706673582212204fceb336f0ca11da15448ca07ea0fdf350768364f49739bcc628c577608957b664736f6c63430008090033608060405234801561001057600080fd5b506001600460006101000a81548160ff0219169083151502179055506131418061003b6000396000f3fe60806040526004361061011f5760003560e01c80635ff189b9116100a05780638aebe8d6116100645780638aebe8d6146103f0578063a56f5b531461042d578063d15e00531461046a578063d41d9221146104a7578063f45346dc146104d25761011f565b80635ff189b91461030657806369328dec14610343578063711cc0051461036c578063734029bf146103a95780637f80069a146103c55761011f565b80632f757006116100e75780632f7570061461021f578063343d693b1461024a5780633735ef881461027557806350d02d71146102b257806357ac6566146102db5761011f565b80630251cfa1146101245780630712f6b3146101615780630835d21a1461019e57806317d7de7c146101c95780631b88094d146101f4575b600080fd5b34801561013057600080fd5b5061014b60048036038101906101469190612133565b6104fb565b6040516101589190612179565b60405180910390f35b34801561016d57600080fd5b5061018860048036038101906101839190612133565b610544565b6040516101959190612179565b60405180910390f35b3480156101aa57600080fd5b506101b3610687565b6040516101c091906121ad565b60405180910390f35b3480156101d557600080fd5b506101de6106e7565b6040516101eb9190612261565b60405180910390f35b34801561020057600080fd5b50610209610779565b6040516102169190612292565b60405180910390f35b34801561022b57600080fd5b506102346107a3565b604051610241919061236b565b60405180910390f35b34801561025657600080fd5b5061025f610831565b60405161026c9190612261565b60405180910390f35b34801561028157600080fd5b5061029c60048036038101906102979190612133565b6108c3565b6040516102a99190612179565b60405180910390f35b3480156102be57600080fd5b506102d960048036038101906102d4919061258a565b610a56565b005b3480156102e757600080fd5b506102f0610f6d565b6040516102fd919061269a565b60405180910390f35b34801561031257600080fd5b5061032d60048036038101906103289190612133565b610fa7565b60405161033a9190612179565b60405180910390f35b34801561034f57600080fd5b5061036a600480360381019061036591906126e8565b610ff0565b005b34801561037857600080fd5b50610393600480360381019061038e9190612133565b611213565b6040516103a09190612292565b60405180910390f35b6103c360048036038101906103be919061273b565b6112ce565b005b3480156103d157600080fd5b506103da6114aa565b6040516103e79190612796565b60405180910390f35b3480156103fc57600080fd5b5061041760048036038101906104129190612133565b6114bd565b6040516104249190612179565b60405180910390f35b34801561043957600080fd5b50610454600480360381019061044f9190612133565b6115a8565b6040516104619190612179565b60405180910390f35b34801561047657600080fd5b50610491600480360381019061048c9190612133565b6119fa565b60405161049e9190612179565b60405180910390f35b3480156104b357600080fd5b506104bc611aae565b6040516104c99190612179565b60405180910390f35b3480156104de57600080fd5b506104f960048036038101906104f491906126e8565b611ab4565b005b6000600160008373ffffffffffffffffffffffffffffffffffffffff1673ffffffffffffffffffffffffffffffffffffffff168152602001908152602001600020549050919050565b600080600660009054906101000a900473ffffffffffffffffffffffffffffffffffffffff1673ffffffffffffffffffffffffffffffffffffffff1663d2493b6c846040518263ffffffff1660e01b81526004016105a29190612292565b60606040518083038186803b1580156105ba57600080fd5b505afa1580156105ce573d6000803e3d6000fd5b505050506040513d601f19601f820116820180604052508101906105f291906127c6565b505090508073ffffffffffffffffffffffffffffffffffffffff166370a08231306040518263ffffffff1660e01b815260040161062f9190612292565b60206040518083038186803b15801561064757600080fd5b505afa15801561065b573d6000803e3d6000fd5b505050506040513d601f19601f8201168201806040525081019061067f919061282e565b915050919050565b60003073ffffffffffffffffffffffffffffffffffffffff16803b806020016040519081016040528181526000908060200190933c6040516020016106cc9190612897565b60405160208183030381529060405280519060200120905090565b6060600b80546106f6906128dd565b80601f0160208091040260200160405190810160405280929190818152602001828054610722906128dd565b801561076f5780601f106107445761010080835404028352916020019161076f565b820191906000526020600020905b81548152906001019060200180831161075257829003601f168201915b5050505050905090565b6000600960009054906101000a900473ffffffffffffffffffffffffffffffffffffffff16905090565b6060600880548060200260200160405190810160405280929190818152602001828054801561082757602002820191906000526020600020905b8160009054906101000a900473ffffffffffffffffffffffffffffffffffffffff1673ffffffffffffffffffffffffffffffffffffffff16815260200190600101908083116107dd575b5050505050905090565b6060600c8054610840906128dd565b80601f016020809104026020016040519081016040528092919081815260200182805461086c906128dd565b80156108b95780601f1061088e576101008083540402835291602001916108b9565b820191906000526020600020905b81548152906001019060200180831161089c57829003601f168201915b5050505050905090565b600080600660009054906101000a900473ffffffffffffffffffffffffffffffffffffffff1673ffffffffffffffffffffffffffffffffffffffff1663d2493b6c846040518263ffffffff1660e01b81526004016109219190612292565b60606040518083038186803b15801561093957600080fd5b505afa15801561094d573d6000803e3d6000fd5b505050506040513d601f19601f8201168201806040525081019061097191906127c6565b5050905060008173ffffffffffffffffffffffffffffffffffffffff166370a08231306040518263ffffffff1660e01b81526004016109b09190612292565b60206040518083038186803b1580156109c857600080fd5b505afa1580156109dc573d6000803e3d6000fd5b505050506040513d601f19601f82011682018060405250810190610a00919061282e565b9050600160008573ffffffffffffffffffffffffffffffffffffffff1673ffffffffffffffffffffffffffffffffffffffff1681526020019081526020016000205481610a4d919061293e565b92505050919050565b82601e60008290508160ff16815110610aa4576040517f08c379a0000000000000000000000000000000000000000000000000000000008152600401610a9b906129be565b60405180910390fd5b8460c860008290508160ff16815110610af2576040517f08c379a0000000000000000000000000000000000000000000000000000000008152600401610ae9906129be565b60405180910390fd5b600060019054906101000a900460ff16610b1a5760008054906101000a900460ff1615610b23565b610b22611f70565b5b610b62576040517f08c379a0000000000000000000000000000000000000000000000000000000008152600401610b5990612a50565b60405180910390fd5b60008060019054906101000a900460ff161590508015610bb2576001600060016101000a81548160ff02191690831515021790555060016000806101000a81548160ff0219169083151502179055505b60001515600460009054906101000a900460ff16151514610c08576040517f08c379a0000000000000000000000000000000000000000000000000000000008152600401610bff90612abc565b60405180910390fd5b600073ffffffffffffffffffffffffffffffffffffffff16600960009054906101000a900473ffffffffffffffffffffffffffffffffffffffff1673ffffffffffffffffffffffffffffffffffffffff1614610c99576040517f08c379a0000000000000000000000000000000000000000000000000000000008152600401610c9090612b28565b60405180910390fd5b87600960006101000a81548173ffffffffffffffffffffffffffffffffffffffff021916908373ffffffffffffffffffffffffffffffffffffffff16021790555033600a60006101000a81548173ffffffffffffffffffffffffffffffffffffffff021916908373ffffffffffffffffffffffffffffffffffffffff16021790555089600b9080519060200190610d31929190611f94565b5088600c9080519060200190610d48929190611f94565b507388757f2f99175387ab4c6a4b3067c77a695b0349600460016101000a81548173ffffffffffffffffffffffffffffffffffffffff021916908373ffffffffffffffffffffffffffffffffffffffff160217905550600460019054906101000a900473ffffffffffffffffffffffffffffffffffffffff1673ffffffffffffffffffffffffffffffffffffffff16630261bf8b6040518163ffffffff1660e01b815260040160206040518083038186803b158015610e0657600080fd5b505afa158015610e1a573d6000803e3d6000fd5b505050506040513d601f19601f82011682018060405250810190610e3e9190612b48565b600560006101000a81548173ffffffffffffffffffffffffffffffffffffffff021916908373ffffffffffffffffffffffffffffffffffffffff160217905550733c73a5e5785cac854d468f727c606c07488a29d6600660006101000a81548173ffffffffffffffffffffffffffffffffffffffff021916908373ffffffffffffffffffffffffffffffffffffffff16021790555073a61ca04df33b72b235a8a28cfb535bb7a5271b70600760006101000a81548173ffffffffffffffffffffffffffffffffffffffff021916908373ffffffffffffffffffffffffffffffffffffffff1602179055508a60089080519060200190610f3e92919061201a565b508015610f605760008060016101000a81548160ff0219169083151502179055505b5050505050505050505050565b60603073ffffffffffffffffffffffffffffffffffffffff16803b806020016040519081016040528181526000908060200190933c905090565b6000600260008373ffffffffffffffffffffffffffffffffffffffff1673ffffffffffffffffffffffffffffffffffffffff168152602001908152602001600020549050919050565b338073ffffffffffffffffffffffffffffffffffffffff16600a60009054906101000a900473ffffffffffffffffffffffffffffffffffffffff1673ffffffffffffffffffffffffffffffffffffffff1614611081576040517f08c379a000000000000000000000000000000000000000000000000000000000815260040161107890612bc1565b60405180910390fd5b818484600081116110c7576040517f08c379a00000000000000000000000000000000000000000000000000000000081526004016110be90612c2d565b60405180910390fd5b600560009054906101000a900473ffffffffffffffffffffffffffffffffffffffff1673ffffffffffffffffffffffffffffffffffffffff166369328dec8888886040518463ffffffff1660e01b815260040161112693929190612c4d565b602060405180830381600087803b15801561114057600080fd5b505af1158015611154573d6000803e3d6000fd5b505050506040513d601f19601f82011682018060405250810190611178919061282e565b5085600160008973ffffffffffffffffffffffffffffffffffffffff1673ffffffffffffffffffffffffffffffffffffffff16815260200190815260200160002060008282546111c8919061293e565b925050819055507f9b1bfa7fa9ee420a16e124f794c35ac9f90472acc99140eb2f6447c714cad8eb87868860405161120293929190612c84565b60405180910390a150505050505050565b600080600660009054906101000a900473ffffffffffffffffffffffffffffffffffffffff1673ffffffffffffffffffffffffffffffffffffffff1663d2493b6c846040518263ffffffff1660e01b81526004016112719190612292565b60606040518083038186803b15801561128957600080fd5b505afa15801561129d573d6000803e3d6000fd5b505050506040513d601f19601f820116820180604052508101906112c191906127c6565b5050905080915050919050565b338073ffffffffffffffffffffffffffffffffffffffff16600a60009054906101000a900473ffffffffffffffffffffffffffffffffffffffff1673ffffffffffffffffffffffffffffffffffffffff161461135f576040517f08c379a000000000000000000000000000000000000000000000000000000000815260040161135690612bc1565b60405180910390fd5b600760009054906101000a900473ffffffffffffffffffffffffffffffffffffffff1673ffffffffffffffffffffffffffffffffffffffff1663474cf53d34600560009054906101000a900473ffffffffffffffffffffffffffffffffffffffff163060006040518563ffffffff1660e01b81526004016113e293929190612d0e565b6000604051808303818588803b1580156113fb57600080fd5b505af115801561140f573d6000803e3d6000fd5b505050505034600160008573ffffffffffffffffffffffffffffffffffffffff1673ffffffffffffffffffffffffffffffffffffffff16815260200190815260200160002060008282546114639190612d45565b925050819055507f5548c837ab068cf56a2c2479df0882a4922fd203edb7517321831d95078c5f6283833460405161149d93929190612c84565b60405180910390a1505050565b600460009054906101000a900460ff1681565b6000600660009054906101000a900473ffffffffffffffffffffffffffffffffffffffff1673ffffffffffffffffffffffffffffffffffffffff166335ea6a75836040518263ffffffff1660e01b815260040161151a9190612292565b6101406040518083038186803b15801561153357600080fd5b505afa158015611547573d6000803e3d6000fd5b505050506040513d601f19601f8201168201806040525081019061156b9190612dd8565b9091929394959697985090919293949596975090919293949596509091929394955090919293945090919293509091925090505080915050919050565b6000338073ffffffffffffffffffffffffffffffffffffffff16600a60009054906101000a900473ffffffffffffffffffffffffffffffffffffffff1673ffffffffffffffffffffffffffffffffffffffff161461163b576040517f08c379a000000000000000000000000000000000000000000000000000000000815260040161163290612bc1565b60405180910390fd5b82600080600090505b6008805490508160ff1610156116e55760088160ff168154811061166b5761166a612eb7565b5b9060005260206000200160009054906101000a900473ffffffffffffffffffffffffffffffffffffffff1673ffffffffffffffffffffffffffffffffffffffff168373ffffffffffffffffffffffffffffffffffffffff1614156116d257600191506116e5565b80806116dd90612ef3565b915050611644565b5080611726576040517f08c379a000000000000000000000000000000000000000000000000000000000815260040161171d90612f8f565b60405180910390fd5b6000600660009054906101000a900473ffffffffffffffffffffffffffffffffffffffff1673ffffffffffffffffffffffffffffffffffffffff1663d2493b6c876040518263ffffffff1660e01b81526004016117839190612292565b60606040518083038186803b15801561179b57600080fd5b505afa1580156117af573d6000803e3d6000fd5b505050506040513d601f19601f820116820180604052508101906117d391906127c6565b5050905060008173ffffffffffffffffffffffffffffffffffffffff166370a08231306040518263ffffffff1660e01b81526004016118129190612292565b60206040518083038186803b15801561182a57600080fd5b505afa15801561183e573d6000803e3d6000fd5b505050506040513d601f19601f82011682018060405250810190611862919061282e565b90506000600160008973ffffffffffffffffffffffffffffffffffffffff1673ffffffffffffffffffffffffffffffffffffffff16815260200190815260200160002054826118b1919061293e565b9050600560009054906101000a900473ffffffffffffffffffffffffffffffffffffffff1673ffffffffffffffffffffffffffffffffffffffff166369328dec8983600960009054906101000a900473ffffffffffffffffffffffffffffffffffffffff166040518463ffffffff1660e01b815260040161193493929190612c4d565b602060405180830381600087803b15801561194e57600080fd5b505af1158015611962573d6000803e3d6000fd5b505050506040513d601f19601f82011682018060405250810190611986919061282e565b50611990886114bd565b60038190555080600260008a73ffffffffffffffffffffffffffffffffffffffff1673ffffffffffffffffffffffffffffffffffffffff16815260200190815260200160002060008282546119e59190612d45565b92505081905550809650505050505050919050565b6000600560009054906101000a900473ffffffffffffffffffffffffffffffffffffffff1673ffffffffffffffffffffffffffffffffffffffff1663d15e0053836040518263ffffffff1660e01b8152600401611a579190612292565b60206040518083038186803b158015611a6f57600080fd5b505afa158015611a83573d6000803e3d6000fd5b505050506040513d601f19601f82011682018060405250810190611aa7919061282e565b9050919050565b60035481565b338073ffffffffffffffffffffffffffffffffffffffff16600a60009054906101000a900473ffffffffffffffffffffffffffffffffffffffff1673ffffffffffffffffffffffffffffffffffffffff1614611b45576040517f08c379a0000000000000000000000000000000000000000000000000000000008152600401611b3c90612bc1565b60405180910390fd5b83600080600090505b6008805490508160ff161015611bef5760088160ff1681548110611b7557611b74612eb7565b5b9060005260206000200160009054906101000a900473ffffffffffffffffffffffffffffffffffffffff1673ffffffffffffffffffffffffffffffffffffffff168373ffffffffffffffffffffffffffffffffffffffff161415611bdc5760019150611bef565b8080611be790612ef3565b915050611b4e565b5080611c30576040517f08c379a0000000000000000000000000000000000000000000000000000000008152600401611c2790612f8f565b60405180910390fd5b6000869050858173ffffffffffffffffffffffffffffffffffffffff1663dd62ed3e87306040518363ffffffff1660e01b8152600401611c71929190612faf565b60206040518083038186803b158015611c8957600080fd5b505afa158015611c9d573d6000803e3d6000fd5b505050506040513d601f19601f82011682018060405250810190611cc1919061282e565b1015611d02576040517f08c379a0000000000000000000000000000000000000000000000000000000008152600401611cf990613024565b60405180910390fd5b8073ffffffffffffffffffffffffffffffffffffffff166323b872dd8630896040518463ffffffff1660e01b8152600401611d3f93929190612c84565b602060405180830381600087803b158015611d5957600080fd5b505af1158015611d6d573d6000803e3d6000fd5b505050506040513d601f19601f82011682018060405250810190611d919190613070565b508073ffffffffffffffffffffffffffffffffffffffff1663095ea7b3600560009054906101000a900473ffffffffffffffffffffffffffffffffffffffff16886040518363ffffffff1660e01b8152600401611def92919061309d565b602060405180830381600087803b158015611e0957600080fd5b505af1158015611e1d573d6000803e3d6000fd5b505050506040513d601f19601f82011682018060405250810190611e419190613070565b50600560009054906101000a900473ffffffffffffffffffffffffffffffffffffffff1673ffffffffffffffffffffffffffffffffffffffff1663e8eda9df82883060006040518563ffffffff1660e01b8152600401611ea494939291906130c6565b600060405180830381600087803b158015611ebe57600080fd5b505af1158015611ed2573d6000803e3d6000fd5b5050505085600160008973ffffffffffffffffffffffffffffffffffffffff1673ffffffffffffffffffffffffffffffffffffffff1681526020019081526020016000206000828254611f259190612d45565b925050819055507f5548c837ab068cf56a2c2479df0882a4922fd203edb7517321831d95078c5f62878688604051611f5f93929190612c84565b60405180910390a150505050505050565b6000611f7b30611f81565b15905090565b600080823b905060008111915050919050565b828054611fa0906128dd565b90600052602060002090601f016020900481019282611fc25760008555612009565b82601f10611fdb57805160ff1916838001178555612009565b82800160010185558215612009579182015b82811115612008578251825591602001919060010190611fed565b5b50905061201691906120a4565b5090565b828054828255906000526020600020908101928215612093579160200282015b828111156120925782518260006101000a81548173ffffffffffffffffffffffffffffffffffffffff021916908373ffffffffffffffffffffffffffffffffffffffff1602179055509160200191906001019061203a565b5b5090506120a091906120a4565b5090565b5b808211156120bd5760008160009055506001016120a5565b5090565b6000604051905090565b600080fd5b600080fd5b600073ffffffffffffffffffffffffffffffffffffffff82169050919050565b6000612100826120d5565b9050919050565b612110816120f5565b811461211b57600080fd5b50565b60008135905061212d81612107565b92915050565b600060208284031215612149576121486120cb565b5b60006121578482850161211e565b91505092915050565b6000819050919050565b61217381612160565b82525050565b600060208201905061218e600083018461216a565b92915050565b6000819050919050565b6121a781612194565b82525050565b60006020820190506121c2600083018461219e565b92915050565b600081519050919050565b600082825260208201905092915050565b60005b838110156122025780820151818401526020810190506121e7565b83811115612211576000848401525b50505050565b6000601f19601f8301169050919050565b6000612233826121c8565b61223d81856121d3565b935061224d8185602086016121e4565b61225681612217565b840191505092915050565b6000602082019050818103600083015261227b8184612228565b905092915050565b61228c816120f5565b82525050565b60006020820190506122a76000830184612283565b92915050565b600081519050919050565b600082825260208201905092915050565b6000819050602082019050919050565b6122e2816120f5565b82525050565b60006122f483836122d9565b60208301905092915050565b6000602082019050919050565b6000612318826122ad565b61232281856122b8565b935061232d836122c9565b8060005b8381101561235e57815161234588826122e8565b975061235083612300565b925050600181019050612331565b5085935050505092915050565b60006020820190508181036000830152612385818461230d565b905092915050565b600080fd5b7f4e487b7100000000000000000000000000000000000000000000000000000000600052604160045260246000fd5b6123ca82612217565b810181811067ffffffffffffffff821117156123e9576123e8612392565b5b80604052505050565b60006123fc6120c1565b905061240882826123c1565b919050565b600067ffffffffffffffff82111561242857612427612392565b5b602082029050602081019050919050565b600080fd5b600061245161244c8461240d565b6123f2565b9050808382526020820190506020840283018581111561247457612473612439565b5b835b8181101561249d5780612489888261211e565b845260208401935050602081019050612476565b5050509392505050565b600082601f8301126124bc576124bb61238d565b5b81356124cc84826020860161243e565b91505092915050565b600080fd5b600067ffffffffffffffff8211156124f5576124f4612392565b5b6124fe82612217565b9050602081019050919050565b82818337600083830152505050565b600061252d612528846124da565b6123f2565b905082815260208101848484011115612549576125486124d5565b5b61255484828561250b565b509392505050565b600082601f8301126125715761257061238d565b5b813561258184826020860161251a565b91505092915050565b600080600080608085870312156125a4576125a36120cb565b5b600085013567ffffffffffffffff8111156125c2576125c16120d0565b5b6125ce878288016124a7565b945050602085013567ffffffffffffffff8111156125ef576125ee6120d0565b5b6125fb8782880161255c565b935050604085013567ffffffffffffffff81111561261c5761261b6120d0565b5b6126288782880161255c565b92505060606126398782880161211e565b91505092959194509250565b600081519050919050565b600082825260208201905092915050565b600061266c82612645565b6126768185612650565b93506126868185602086016121e4565b61268f81612217565b840191505092915050565b600060208201905081810360008301526126b48184612661565b905092915050565b6126c581612160565b81146126d057600080fd5b50565b6000813590506126e2816126bc565b92915050565b600080600060608486031215612701576127006120cb565b5b600061270f8682870161211e565b9350506020612720868287016126d3565b92505060406127318682870161211e565b9150509250925092565b60008060408385031215612752576127516120cb565b5b60006127608582860161211e565b92505060206127718582860161211e565b9150509250929050565b60008115159050919050565b6127908161277b565b82525050565b60006020820190506127ab6000830184612787565b92915050565b6000815190506127c081612107565b92915050565b6000806000606084860312156127df576127de6120cb565b5b60006127ed868287016127b1565b93505060206127fe868287016127b1565b925050604061280f868287016127b1565b9150509250925092565b600081519050612828816126bc565b92915050565b600060208284031215612844576128436120cb565b5b600061285284828501612819565b91505092915050565b600081905092915050565b600061287182612645565b61287b818561285b565b935061288b8185602086016121e4565b80840191505092915050565b60006128a38284612866565b915081905092915050565b7f4e487b7100000000000000000000000000000000000000000000000000000000600052602260045260246000fd5b600060028204905060018216806128f557607f821691505b60208210811415612909576129086128ae565b5b50919050565b7f4e487b7100000000000000000000000000000000000000000000000000000000600052601160045260246000fd5b600061294982612160565b915061295483612160565b9250828210156129675761296661290f565b5b828203905092915050565b7f737472696e67206f76657220636861726163746572206c696d69740000000000600082015250565b60006129a8601b836121d3565b91506129b382612972565b602082019050919050565b600060208201905081810360008301526129d78161299b565b9050919050565b7f496e697469616c697a61626c653a20636f6e747261637420697320616c72656160008201527f647920696e697469616c697a6564000000000000000000000000000000000000602082015250565b6000612a3a602e836121d3565b9150612a45826129de565b604082019050919050565b60006020820190508181036000830152612a6981612a2d565b9050919050565b7f43616e6e6f7420696e697469616c697a65206261736500000000000000000000600082015250565b6000612aa66016836121d3565b9150612ab182612a70565b602082019050919050565b60006020820190508181036000830152612ad581612a99565b9050919050565b7f496e697469616c697a6520616c72656164792063616c6c656400000000000000600082015250565b6000612b126019836121d3565b9150612b1d82612adc565b602082019050919050565b60006020820190508181036000830152612b4181612b05565b9050919050565b600060208284031215612b5e57612b5d6120cb565b5b6000612b6c848285016127b1565b91505092915050565b7f796f7520617265206e6f7420746865206f776e65720000000000000000000000600082015250565b6000612bab6015836121d3565b9150612bb682612b75565b602082019050919050565b60006020820190508181036000830152612bda81612b9e565b9050919050565b7f616d6f756e74206d757374206578636565642030000000000000000000000000600082015250565b6000612c176014836121d3565b9150612c2282612be1565b602082019050919050565b60006020820190508181036000830152612c4681612c0a565b9050919050565b6000606082019050612c626000830186612283565b612c6f602083018561216a565b612c7c6040830184612283565b949350505050565b6000606082019050612c996000830186612283565b612ca66020830185612283565b612cb3604083018461216a565b949350505050565b6000819050919050565b600061ffff82169050919050565b6000819050919050565b6000612cf8612cf3612cee84612cbb565b612cd3565b612cc5565b9050919050565b612d0881612cdd565b82525050565b6000606082019050612d236000830186612283565b612d306020830185612283565b612d3d6040830184612cff565b949350505050565b6000612d5082612160565b9150612d5b83612160565b9250827fffffffffffffffffffffffffffffffffffffffffffffffffffffffffffffffff03821115612d9057612d8f61290f565b5b828201905092915050565b600064ffffffffff82169050919050565b612db581612d9b565b8114612dc057600080fd5b50565b600081519050612dd281612dac565b92915050565b6000806000806000806000806000806101408b8d031215612dfc57612dfb6120cb565b5b6000612e0a8d828e01612819565b9a50506020612e1b8d828e01612819565b9950506040612e2c8d828e01612819565b9850506060612e3d8d828e01612819565b9750506080612e4e8d828e01612819565b96505060a0612e5f8d828e01612819565b95505060c0612e708d828e01612819565b94505060e0612e818d828e01612819565b935050610100612e938d828e01612819565b925050610120612ea58d828e01612dc3565b9150509295989b9194979a5092959850565b7f4e487b7100000000000000000000000000000000000000000000000000000000600052603260045260246000fd5b600060ff82169050919050565b6000612efe82612ee6565b915060ff821415612f1257612f1161290f565b5b600182019050919050565b7f7375626d697474656420746f6b656e2061646472657373206973206e6f74206160008201527f6363657074656420627920706f6f6c0000000000000000000000000000000000602082015250565b6000612f79602f836121d3565b9150612f8482612f1d565b604082019050919050565b60006020820190508181036000830152612fa881612f6c565b9050919050565b6000604082019050612fc46000830185612283565b612fd16020830184612283565b9392505050565b7f73656e646572206e6f7420617070726f76656400000000000000000000000000600082015250565b600061300e6013836121d3565b915061301982612fd8565b602082019050919050565b6000602082019050818103600083015261303d81613001565b9050919050565b61304d8161277b565b811461305857600080fd5b50565b60008151905061306a81613044565b92915050565b600060208284031215613086576130856120cb565b5b60006130948482850161305b565b91505092915050565b60006040820190506130b26000830185612283565b6130bf602083018461216a565b9392505050565b60006080820190506130db6000830187612283565b6130e8602083018661216a565b6130f56040830185612283565b6131026060830184612cff565b9594505050505056fea2646970667358221220ec8e18e6a2add18e653e76c168d40953ca40cc7f1d7313594d2ff633d3dc63dc64736f6c63430008090033",
  "immutableReferences": {},
  "source": "// SPDX-License-Identifier: agpl-3.0\npragma solidity 0.8.9;\n\nimport { IJustCausePool } from './Interfaces.sol';\nimport { JCDepositorERC721 } from './JCDepositorERC721.sol';\nimport { JCOwnerERC721 } from './JCOwnerERC721.sol';\nimport { JustCausePool } from './JustCausePool.sol';\n\ncontract PoolTracker {\n\n    address baseJCPoolAddr;\n    JustCausePool baseJCPool;\n    JCDepositorERC721 jCDepositorERC721;\n    JCOwnerERC721 jCOwnerERC721;\n\n    //contract addresses will point to bool if they exist\n    mapping(address => bool) private isPool;\n    //mapping(address => address[]) private depositors;\n    //mapping(address => address[]) private owners;\n    mapping(string => address) private names;\n    address[] private verifiedPools;\n    bytes32[] validByteCodeHashes;\n\n    event AddPool(address pool, string name, address receiver);\n    event AddDeposit(address userAddr, address pool, address asset, uint256 amount);\n    event WithdrawDeposit(address userAddr, address pool, address asset, uint256 amount);\n    event Claim(address userAddr, address receiver, address pool, address asset, uint256 amount);\n\n    modifier onlyVerifiedByteCode(address pool) {\n        bytes32 v1ByteCodeHash = 0x69e8ff0e7c2b29468c452ea99c81161f9d6137447623140dc2714549e6014d96;\n        require(keccak256(abi.encodePacked(pool.code)) == v1ByteCodeHash, \"byteCode not recognized\");\n        _;\n    }\n\n    modifier onlyPools(address _pool){\n        require(isPool[_pool], \"not called from a pool\");\n        _;\n    }\n\n    constructor () {\n        jCDepositorERC721 = new JCDepositorERC721();\n        jCOwnerERC721 = new JCOwnerERC721();\n        baseJCPool = new JustCausePool();\n    }\n\n    function addValidByteCodeHash(bytes32 _hash) public {\n        validByteCodeHashes.push(_hash);\n    }\n\n    function addDeposit(uint256 _amount, address _asset, address _pool, bool isETH) onlyPools(_pool) external payable {\n        if(isETH) IJustCausePool(_pool).depositETH{value: msg.value}(_asset, msg.sender);\n        else IJustCausePool(_pool).deposit(_asset, _amount , msg.sender);\n        jCDepositorERC721.addFunds(msg.sender, _amount, block.timestamp,  _pool, _asset);\n        emit AddDeposit(msg.sender, _pool, _asset, _amount);\n    }\n\n    function withdrawDeposit(uint256 _amount, address _asset, address _pool) onlyPools(_pool) external {\n        IJustCausePool(_pool).withdraw(_asset, _amount, msg.sender);\n        jCDepositorERC721.withdrawFunds(msg.sender, _amount, _pool, _asset);\n        emit WithdrawDeposit(msg.sender, _pool, _asset, _amount);\n    }\n\n    function claimInterest(address _asset, address _pool) onlyPools(_pool) external {\n        uint256 amount = IJustCausePool(_pool).withdrawDonations(_asset);\n        emit Claim(msg.sender, IJustCausePool(_pool).getRecipient(), _pool, _asset, amount);\n    }\n\n    /**\n     * @dev Deploys and returns the address of a clone that mimics the behaviour of `implementation`.\n     *\n     * This function uses the create opcode, which should never revert.\n     */\n    function clone(address basePool) internal returns (address instance) {\n        assembly {\n            let ptr := mload(0x40)\n            mstore(ptr, 0x3d602d80600a3d3981f3363d3d373d3d3d363d73000000000000000000000000)\n            mstore(add(ptr, 0x14), shl(0x60, basePool))\n            mstore(add(ptr, 0x28), 0x5af43d82803e903d91602b57fd5bf30000000000000000000000000000000000)\n            instance := create(0, ptr, 0x37)\n        }\n        require(instance != address(0), \"ERC1167: create failed\");\n    }\n\n    function createJCPoolClone(address[] memory _acceptedTokens, string memory _name, string memory _about, address _receiver) external {\n        require(names[_name] == address(0), \"pool with name already exists\");\n        address child = clone(address(baseJCPool));\n        IJustCausePool(child).initialize(_acceptedTokens, _name, _about, _receiver);\n        jCOwnerERC721.createReceiverToken(_receiver, block.timestamp, child);\n        names[_name] =  child;\n        verifiedPools.push(child);\n        isPool[child] = true;\n        emit AddPool(child, _name, _receiver);\n    }\n\n    function getDepositorERC721Address() public view returns(address){\n        return address(jCDepositorERC721);\n    }\n\n    function getOwnerERC721Address() public view returns(address){\n        return address(jCOwnerERC721);\n    }\n\n    function getBaseJCPoolAddress() public view returns(address){\n        return address(baseJCPool);\n    }\n\n    function getVerifiedPools() public view returns(address [] memory){\n        return verifiedPools;\n    }\n\n    function checkPool(address _pool) public view returns(bool){\n        return isPool[_pool];\n    }\n\n    /*function getUserDeposits(address _userAddr) external view returns(address[] memory){\n        return depositors[_userAddr];\n    }*/\n\n    /*function getUserDeposits(address _userAddr) external view returns(address[] memory){\n        uint256 numDeposits = jCDepositorERC721.balanceOf(_userAddr);\n        address[] memory poolList;\n        for(uint8 i = 0; i < numDeposits; i++){\n            uint256 tokenId = jCDepositorERC721.tokenOfOwnerByIndex(_userAddr, i);\n            (,,,, address pool,) = jCDepositorERC721.getDeposit(tokenId);\n            poolList[i] = pool;\n        }\n        return poolList;\n    }*/\n\n    /*function getUserOwned(address _userAddr) external view returns(address[] memory){\n        return owners[_userAddr];\n    }*/\n\n    function getAddressFromName(string memory _name) external view returns(address){\n        return names[_name];\n    }\n\n    function checkByteCode(address _pool) external view returns(bool) {\n        bool hashMatch = false;\n        bytes32 hashOfPoolCode = keccak256(abi.encodePacked(_pool.code));\n        bytes32[] memory validHashes = validByteCodeHashes;\n\n        for(uint8 i = 0; i < validHashes.length; i++){\n            if(hashOfPoolCode == validHashes[i]){\n                hashMatch = true;\n                break;\n            }\n        }\n        return hashMatch;\n    }\n}",
  "sourcePath": "/home/smeee/just_cause/contracts/PoolTracker.sol",
  "compiler": {
    "name": "solc",
    "version": "0.8.9+commit.e5eed63a.Emscripten.clang"
  },
  "schemaVersion": "3.4.3",
  "updatedAt": "2022-02-20T03:17:45.419Z",
  "networkType": "ethereum",
  "devdoc": {
    "kind": "dev",
    "methods": {},
    "version": 1
  },
  "userdoc": {
    "kind": "user",
    "methods": {},
    "version": 1
  }
}