{
  "contractName": "PoolTracker",
  "abi": [
    {
      "inputs": [],
      "stateMutability": "nonpayable",
      "type": "constructor"
    },
    {
      "anonymous": false,
      "inputs": [
        {
          "indexed": false,
          "internalType": "address",
          "name": "userAddr",
          "type": "address"
        },
        {
          "indexed": false,
          "internalType": "address",
          "name": "pool",
          "type": "address"
        },
        {
          "indexed": false,
          "internalType": "address",
          "name": "asset",
          "type": "address"
        },
        {
          "indexed": false,
          "internalType": "uint256",
          "name": "amount",
          "type": "uint256"
        }
      ],
      "name": "AddDeposit",
      "type": "event"
    },
    {
      "anonymous": false,
      "inputs": [
        {
          "indexed": false,
          "internalType": "address",
          "name": "pool",
          "type": "address"
        },
        {
          "indexed": false,
          "internalType": "string",
          "name": "name",
          "type": "string"
        },
        {
          "indexed": false,
          "internalType": "address",
          "name": "receiver",
          "type": "address"
        }
      ],
      "name": "AddPool",
      "type": "event"
    },
    {
      "anonymous": false,
      "inputs": [
        {
          "indexed": false,
          "internalType": "address",
          "name": "userAddr",
          "type": "address"
        },
        {
          "indexed": false,
          "internalType": "address",
          "name": "receiver",
          "type": "address"
        },
        {
          "indexed": false,
          "internalType": "address",
          "name": "pool",
          "type": "address"
        },
        {
          "indexed": false,
          "internalType": "address",
          "name": "asset",
          "type": "address"
        },
        {
          "indexed": false,
          "internalType": "uint256",
          "name": "amount",
          "type": "uint256"
        }
      ],
      "name": "Claim",
      "type": "event"
    },
    {
      "anonymous": false,
      "inputs": [
        {
          "indexed": false,
          "internalType": "address",
          "name": "userAddr",
          "type": "address"
        },
        {
          "indexed": false,
          "internalType": "address",
          "name": "pool",
          "type": "address"
        },
        {
          "indexed": false,
          "internalType": "address",
          "name": "asset",
          "type": "address"
        },
        {
          "indexed": false,
          "internalType": "uint256",
          "name": "amount",
          "type": "uint256"
        }
      ],
      "name": "WithdrawDeposit",
      "type": "event"
    },
    {
      "inputs": [
        {
          "internalType": "uint256",
          "name": "_amount",
          "type": "uint256"
        },
        {
          "internalType": "address",
          "name": "_asset",
          "type": "address"
        },
        {
          "internalType": "address",
          "name": "_pool",
          "type": "address"
        },
        {
          "internalType": "bool",
          "name": "isETH",
          "type": "bool"
        }
      ],
      "name": "addDeposit",
      "outputs": [],
      "stateMutability": "payable",
      "type": "function"
    },
    {
      "inputs": [
        {
          "internalType": "uint256",
          "name": "_amount",
          "type": "uint256"
        },
        {
          "internalType": "address",
          "name": "_asset",
          "type": "address"
        },
        {
          "internalType": "address",
          "name": "_pool",
          "type": "address"
        },
        {
          "internalType": "bool",
          "name": "_isETH",
          "type": "bool"
        }
      ],
      "name": "withdrawDeposit",
      "outputs": [],
      "stateMutability": "nonpayable",
      "type": "function"
    },
    {
      "inputs": [
        {
          "internalType": "address",
          "name": "_asset",
          "type": "address"
        },
        {
          "internalType": "address",
          "name": "_pool",
          "type": "address"
        },
        {
          "internalType": "bool",
          "name": "_isETH",
          "type": "bool"
        }
      ],
      "name": "claimInterest",
      "outputs": [],
      "stateMutability": "nonpayable",
      "type": "function"
    },
    {
      "inputs": [
        {
          "internalType": "address[]",
          "name": "_acceptedTokens",
          "type": "address[]"
        },
        {
          "internalType": "string",
          "name": "_name",
          "type": "string"
        },
        {
          "internalType": "string",
          "name": "_about",
          "type": "string"
        },
        {
          "internalType": "string",
          "name": "_picHash",
          "type": "string"
        },
        {
          "internalType": "string",
          "name": "_metaUri",
          "type": "string"
        },
        {
          "internalType": "address",
          "name": "_receiver",
          "type": "address"
        }
      ],
      "name": "createJCPoolClone",
      "outputs": [],
      "stateMutability": "nonpayable",
      "type": "function"
    },
    {
      "inputs": [
        {
          "internalType": "address",
          "name": "_asset",
          "type": "address"
        }
      ],
      "name": "getTVL",
      "outputs": [
        {
          "internalType": "uint256",
          "name": "",
          "type": "uint256"
        }
      ],
      "stateMutability": "view",
      "type": "function"
    },
    {
      "inputs": [
        {
          "internalType": "address",
          "name": "_asset",
          "type": "address"
        }
      ],
      "name": "getTotalDonated",
      "outputs": [
        {
          "internalType": "uint256",
          "name": "",
          "type": "uint256"
        }
      ],
      "stateMutability": "view",
      "type": "function"
    },
    {
      "inputs": [],
      "name": "getDepositorERC721Address",
      "outputs": [
        {
          "internalType": "address",
          "name": "",
          "type": "address"
        }
      ],
      "stateMutability": "view",
      "type": "function"
    },
    {
      "inputs": [],
      "name": "getOwnerERC721Address",
      "outputs": [
        {
          "internalType": "address",
          "name": "",
          "type": "address"
        }
      ],
      "stateMutability": "view",
      "type": "function"
    },
    {
      "inputs": [],
      "name": "getBaseJCPoolAddress",
      "outputs": [
        {
          "internalType": "address",
          "name": "",
          "type": "address"
        }
      ],
      "stateMutability": "view",
      "type": "function"
    },
    {
      "inputs": [],
      "name": "getVerifiedPools",
      "outputs": [
        {
          "internalType": "address[]",
          "name": "",
          "type": "address[]"
        }
      ],
      "stateMutability": "view",
      "type": "function"
    },
    {
      "inputs": [
        {
          "internalType": "address",
          "name": "_pool",
          "type": "address"
        }
      ],
      "name": "checkPool",
      "outputs": [
        {
          "internalType": "bool",
          "name": "",
          "type": "bool"
        }
      ],
      "stateMutability": "view",
      "type": "function"
    },
    {
      "inputs": [
        {
          "internalType": "string",
          "name": "_name",
          "type": "string"
        }
      ],
      "name": "getAddressFromName",
      "outputs": [
        {
          "internalType": "address",
          "name": "",
          "type": "address"
        }
      ],
      "stateMutability": "view",
      "type": "function"
    }
  ],
  "bytecode": "0x60806040523480156200001157600080fd5b5033600b60006101000a81548173ffffffffffffffffffffffffffffffffffffffff021916908373ffffffffffffffffffffffffffffffffffffffff16021790555060405162000061906200032a565b604051809103906000f0801580156200007e573d6000803e3d6000fd5b50600160006101000a81548173ffffffffffffffffffffffffffffffffffffffff021916908373ffffffffffffffffffffffffffffffffffffffff160217905550604051620000cd9062000338565b604051809103906000f080158015620000ea573d6000803e3d6000fd5b50600260006101000a81548173ffffffffffffffffffffffffffffffffffffffff021916908373ffffffffffffffffffffffffffffffffffffffff160217905550604051620001399062000346565b604051809103906000f08015801562000156573d6000803e3d6000fd5b506000806101000a81548173ffffffffffffffffffffffffffffffffffffffff021916908373ffffffffffffffffffffffffffffffffffffffff160217905550735343b5ba672ae99d627a1c87866b8e53f47db2e6600860006101000a81548173ffffffffffffffffffffffffffffffffffffffff021916908373ffffffffffffffffffffffffffffffffffffffff160217905550600860009054906101000a900473ffffffffffffffffffffffffffffffffffffffff1673ffffffffffffffffffffffffffffffffffffffff1663026b1d5f6040518163ffffffff1660e01b815260040160206040518083038186803b1580156200025457600080fd5b505afa15801562000269573d6000803e3d6000fd5b505050506040513d601f19601f820116820180604052508101906200028f9190620003be565b600960006101000a81548173ffffffffffffffffffffffffffffffffffffffff021916908373ffffffffffffffffffffffffffffffffffffffff160217905550732a58e9bbb5434fda7ff78051a4b82cb0ef669c17600a60006101000a81548173ffffffffffffffffffffffffffffffffffffffff021916908373ffffffffffffffffffffffffffffffffffffffff160217905550620003f0565b614cfb80620030f983390190565b613cb78062007df483390190565b612f3c806200baab83390190565b600080fd5b600073ffffffffffffffffffffffffffffffffffffffff82169050919050565b6000620003868262000359565b9050919050565b620003988162000379565b8114620003a457600080fd5b50565b600081519050620003b8816200038d565b92915050565b600060208284031215620003d757620003d662000354565b5b6000620003e784828501620003a7565b91505092915050565b612cf980620004006000396000f3fe6080604052600436106100a75760003560e01c80635aa38868116100645780635aa38868146101c15780638e61514e146101ec57806390f2bb1614610229578063b47dcb6614610252578063b63ae6ee1461027b578063d1df6d4d146102a6576100a7565b806308f52b3c146100ac5780630c1a4477146100c85780630f40517a146100f35780632f28012a1461013057806330b9d2a7146101595780633989a67114610196575b600080fd5b6100c660048036038101906100c19190611d3b565b6102e3565b005b3480156100d457600080fd5b506100dd610b5f565b6040516100ea9190611db1565b60405180910390f35b3480156100ff57600080fd5b5061011a60048036038101906101159190611dcc565b610b89565b6040516101279190611e08565b60405180910390f35b34801561013c57600080fd5b5061015760048036038101906101529190611d3b565b610bd2565b005b34801561016557600080fd5b50610180600480360381019061017b9190611dcc565b6110a3565b60405161018d9190611e32565b60405180910390f35b3480156101a257600080fd5b506101ab6110f9565b6040516101b89190611db1565b60405180910390f35b3480156101cd57600080fd5b506101d6611123565b6040516101e39190611db1565b60405180910390f35b3480156101f857600080fd5b50610213600480360381019061020e9190611f93565b61114c565b6040516102209190611db1565b60405180910390f35b34801561023557600080fd5b50610250600480360381019061024b9190611fdc565b611194565b005b34801561025e57600080fd5b50610279600480360381019061027491906120f7565b6113cb565b005b34801561028757600080fd5b5061029061178a565b60405161029d91906122ce565b60405180910390f35b3480156102b257600080fd5b506102cd60048036038101906102c89190611dcc565b611818565b6040516102da9190611e08565b60405180910390f35b81600360008273ffffffffffffffffffffffffffffffffffffffff1673ffffffffffffffffffffffffffffffffffffffff16815260200190815260200160002060009054906101000a900460ff16610370576040517f08c379a00000000000000000000000000000000000000000000000000000000081526004016103679061234d565b60405180910390fd5b84600560008673ffffffffffffffffffffffffffffffffffffffff1673ffffffffffffffffffffffffffffffffffffffff16815260200190815260200160002060008282546103bf919061239c565b9250508190555060008373ffffffffffffffffffffffffffffffffffffffff1663373d7c3f6040518163ffffffff1660e01b815260040160006040518083038186803b15801561040e57600080fd5b505afa158015610422573d6000803e3d6000fd5b505050506040513d6000823e3d601f19601f8201168201806040525081019061044b9190612495565b905060006007600081548110610464576104636124de565b5b9060005260206000200160009054906101000a900473ffffffffffffffffffffffffffffffffffffffff169050831561081d576000600960009054906101000a900473ffffffffffffffffffffffffffffffffffffffff1690508573ffffffffffffffffffffffffffffffffffffffff168273ffffffffffffffffffffffffffffffffffffffff1614156105f757600a60009054906101000a900473ffffffffffffffffffffffffffffffffffffffff1673ffffffffffffffffffffffffffffffffffffffff1663474cf53d34838960006040518563ffffffff1660e01b815260040161055393929190612560565b6000604051808303818588803b15801561056c57600080fd5b505af1158015610580573d6000803e3d6000fd5b50505050508573ffffffffffffffffffffffffffffffffffffffff16632e59905488346040518363ffffffff1660e01b81526004016105c0929190612597565b600060405180830381600087803b1580156105da57600080fd5b505af11580156105ee573d6000803e3d6000fd5b50505050610817565b600061060289611861565b90506000818a61061291906125c0565b9050600a60009054906101000a900473ffffffffffffffffffffffffffffffffffffffff1673ffffffffffffffffffffffffffffffffffffffff1663474cf53d83858760006040518563ffffffff1660e01b815260040161067593929190612560565b6000604051808303818588803b15801561068e57600080fd5b505af11580156106a2573d6000803e3d6000fd5b50505050508773ffffffffffffffffffffffffffffffffffffffff16632e5990548a846040518363ffffffff1660e01b81526004016106e2929190612597565b600060405180830381600087803b1580156106fc57600080fd5b505af1158015610710573d6000803e3d6000fd5b50505050600a60009054906101000a900473ffffffffffffffffffffffffffffffffffffffff1673ffffffffffffffffffffffffffffffffffffffff1663474cf53d82858b60006040518563ffffffff1660e01b815260040161077593929190612560565b6000604051808303818588803b15801561078e57600080fd5b505af11580156107a2573d6000803e3d6000fd5b50505050508773ffffffffffffffffffffffffffffffffffffffff16632e5990548a836040518363ffffffff1660e01b81526004016107e2929190612597565b600060405180830381600087803b1580156107fc57600080fd5b505af1158015610810573d6000803e3d6000fd5b5050505050505b50610898565b8473ffffffffffffffffffffffffffffffffffffffff168173ffffffffffffffffffffffffffffffffffffffff1614156108615761085c878787611889565b610897565b600061086c88611861565b90506000818961087c91906125c0565b9050610889828985611889565b610894818989611889565b50505b5b8473ffffffffffffffffffffffffffffffffffffffff168173ffffffffffffffffffffffffffffffffffffffff16141561098957600160009054906101000a900473ffffffffffffffffffffffffffffffffffffffff1673ffffffffffffffffffffffffffffffffffffffff16631310fef7338942898b886040518763ffffffff1660e01b815260040161093196959493929190612638565b602060405180830381600087803b15801561094b57600080fd5b505af115801561095f573d6000803e3d6000fd5b505050506040513d601f19601f8201168201806040525081019061098391906126b5565b50610b19565b600061099488611861565b9050600081896109a491906125c0565b9050600160009054906101000a900473ffffffffffffffffffffffffffffffffffffffff1673ffffffffffffffffffffffffffffffffffffffff16631310fef7338442878d8a6040518763ffffffff1660e01b8152600401610a0b96959493929190612638565b602060405180830381600087803b158015610a2557600080fd5b505af1158015610a39573d6000803e3d6000fd5b505050506040513d601f19601f82011682018060405250810190610a5d91906126b5565b50600160009054906101000a900473ffffffffffffffffffffffffffffffffffffffff1673ffffffffffffffffffffffffffffffffffffffff16631310fef73383428b8d8a6040518763ffffffff1660e01b8152600401610ac396959493929190612638565b602060405180830381600087803b158015610add57600080fd5b505af1158015610af1573d6000803e3d6000fd5b505050506040513d601f19601f82011682018060405250810190610b1591906126b5565b5050505b7f20ca885e6c573d69bc931b3787127868f5b90568509fb8d4ff6f7102b8d0cd253386888a604051610b4e94939291906126e2565b60405180910390a150505050505050565b6000600260009054906101000a900473ffffffffffffffffffffffffffffffffffffffff16905090565b6000600560008373ffffffffffffffffffffffffffffffffffffffff1673ffffffffffffffffffffffffffffffffffffffff168152602001908152602001600020549050919050565b81600360008273ffffffffffffffffffffffffffffffffffffffff1673ffffffffffffffffffffffffffffffffffffffff16815260200190815260200160002060009054906101000a900460ff16610c5f576040517f08c379a0000000000000000000000000000000000000000000000000000000008152600401610c569061234d565b60405180910390fd5b84600560008673ffffffffffffffffffffffffffffffffffffffff1673ffffffffffffffffffffffffffffffffffffffff1681526020019081526020016000206000828254610cae91906125c0565b9250508190555060006007600081548110610ccc57610ccb6124de565b5b9060005260206000200160009054906101000a900473ffffffffffffffffffffffffffffffffffffffff1690508373ffffffffffffffffffffffffffffffffffffffff168173ffffffffffffffffffffffffffffffffffffffff161415610e3657600160009054906101000a900473ffffffffffffffffffffffffffffffffffffffff1673ffffffffffffffffffffffffffffffffffffffff16636ba3fef2338887896040518563ffffffff1660e01b8152600401610d8e9493929190612727565b600060405180830381600087803b158015610da857600080fd5b505af1158015610dbc573d6000803e3d6000fd5b505050508373ffffffffffffffffffffffffffffffffffffffff166312eeff7e868833876040518563ffffffff1660e01b8152600401610dff949392919061276c565b600060405180830381600087803b158015610e1957600080fd5b505af1158015610e2d573d6000803e3d6000fd5b5050505061105e565b6000610e4187611861565b905060008188610e5191906125c0565b9050600160009054906101000a900473ffffffffffffffffffffffffffffffffffffffff1673ffffffffffffffffffffffffffffffffffffffff16636ba3fef23383898b6040518563ffffffff1660e01b8152600401610eb49493929190612727565b600060405180830381600087803b158015610ece57600080fd5b505af1158015610ee2573d6000803e3d6000fd5b505050508573ffffffffffffffffffffffffffffffffffffffff166312eeff7e888333896040518563ffffffff1660e01b8152600401610f25949392919061276c565b600060405180830381600087803b158015610f3f57600080fd5b505af1158015610f53573d6000803e3d6000fd5b50505050600160009054906101000a900473ffffffffffffffffffffffffffffffffffffffff1673ffffffffffffffffffffffffffffffffffffffff16636ba3fef23384868b6040518563ffffffff1660e01b8152600401610fb89493929190612727565b600060405180830381600087803b158015610fd257600080fd5b505af1158015610fe6573d6000803e3d6000fd5b505050508573ffffffffffffffffffffffffffffffffffffffff166312eeff7e888433896040518563ffffffff1660e01b8152600401611029949392919061276c565b600060405180830381600087803b15801561104357600080fd5b505af1158015611057573d6000803e3d6000fd5b5050505050505b7fa657ed79c074c3489591adb7ba850f38c009bd846e47f2ffe3edc1d06f48a5a43385878960405161109394939291906126e2565b60405180910390a1505050505050565b6000600360008373ffffffffffffffffffffffffffffffffffffffff1673ffffffffffffffffffffffffffffffffffffffff16815260200190815260200160002060009054906101000a900460ff169050919050565b6000600160009054906101000a900473ffffffffffffffffffffffffffffffffffffffff16905090565b60008060009054906101000a900473ffffffffffffffffffffffffffffffffffffffff16905090565b600060048260405161115e91906127ed565b908152602001604051809103902060009054906101000a900473ffffffffffffffffffffffffffffffffffffffff169050919050565b81600360008273ffffffffffffffffffffffffffffffffffffffff1673ffffffffffffffffffffffffffffffffffffffff16815260200190815260200160002060009054906101000a900460ff16611221576040517f08c379a00000000000000000000000000000000000000000000000000000000081526004016112189061234d565b60405180910390fd5b60008373ffffffffffffffffffffffffffffffffffffffff1663322ce09e86856040518363ffffffff1660e01b815260040161125e929190612804565b602060405180830381600087803b15801561127857600080fd5b505af115801561128c573d6000803e3d6000fd5b505050506040513d601f19601f820116820180604052508101906112b091906126b5565b905080600660008773ffffffffffffffffffffffffffffffffffffffff1673ffffffffffffffffffffffffffffffffffffffff1681526020019081526020016000206000828254611301919061239c565b925050819055507f7276c0285f260d667df9ded71ca6a988145d36de1d14252710532b9de5f089fe338573ffffffffffffffffffffffffffffffffffffffff16631b88094d6040518163ffffffff1660e01b815260040160206040518083038186803b15801561137057600080fd5b505afa158015611384573d6000803e3d6000fd5b505050506040513d601f19601f820116820180604052508101906113a89190612842565b8688856040516113bc95949392919061286f565b60405180910390a15050505050565b600073ffffffffffffffffffffffffffffffffffffffff166004866040516113f391906127ed565b908152602001604051809103902060009054906101000a900473ffffffffffffffffffffffffffffffffffffffff1673ffffffffffffffffffffffffffffffffffffffff1614611478576040517f08c379a000000000000000000000000000000000000000000000000000000000815260040161146f9061290e565b60405180910390fd5b60006114a360008054906101000a900473ffffffffffffffffffffffffffffffffffffffff16611b86565b90506000600b60009054906101000a900473ffffffffffffffffffffffffffffffffffffffff1673ffffffffffffffffffffffffffffffffffffffff163373ffffffffffffffffffffffffffffffffffffffff161415611565576007829080600181540180825580915050600190039060005260206000200160009091909190916101000a81548173ffffffffffffffffffffffffffffffffffffffff021916908373ffffffffffffffffffffffffffffffffffffffff160217905550600190505b8173ffffffffffffffffffffffffffffffffffffffff166316df1bab898989898989886040518863ffffffff1660e01b81526004016115aa979695949392919061292e565b600060405180830381600087803b1580156115c457600080fd5b505af11580156115d8573d6000803e3d6000fd5b50505050600260009054906101000a900473ffffffffffffffffffffffffffffffffffffffff1673ffffffffffffffffffffffffffffffffffffffff16630c371555844285886040518563ffffffff1660e01b815260040161163d94939291906129c0565b602060405180830381600087803b15801561165757600080fd5b505af115801561166b573d6000803e3d6000fd5b505050506040513d601f19601f8201168201806040525081019061168f91906126b5565b50816004886040516116a191906127ed565b908152602001604051809103902060006101000a81548173ffffffffffffffffffffffffffffffffffffffff021916908373ffffffffffffffffffffffffffffffffffffffff1602179055506001600360008473ffffffffffffffffffffffffffffffffffffffff1673ffffffffffffffffffffffffffffffffffffffff16815260200190815260200160002060006101000a81548160ff0219169083151502179055507f373adb264e07592e89e672b780912566106b06a5f7a7787e63a47ca627e915af82888560405161177893929190612a0c565b60405180910390a15050505050505050565b6060600780548060200260200160405190810160405280929190818152602001828054801561180e57602002820191906000526020600020905b8160009054906101000a900473ffffffffffffffffffffffffffffffffffffffff1673ffffffffffffffffffffffffffffffffffffffff16815260200190600101908083116117c4575b5050505050905090565b6000600660008373ffffffffffffffffffffffffffffffffffffffff1673ffffffffffffffffffffffffffffffffffffffff168152602001908152602001600020549050919050565b6000806019905061271081846118779190612a4a565b6118819190612ad3565b915050919050565b6000600960009054906101000a900473ffffffffffffffffffffffffffffffffffffffff1690506000839050848173ffffffffffffffffffffffffffffffffffffffff1663dd62ed3e33306040518363ffffffff1660e01b81526004016118f1929190612b04565b60206040518083038186803b15801561190957600080fd5b505afa15801561191d573d6000803e3d6000fd5b505050506040513d601f19601f8201168201806040525081019061194191906126b5565b1015611982576040517f08c379a000000000000000000000000000000000000000000000000000000000815260040161197990612b79565b60405180910390fd5b8073ffffffffffffffffffffffffffffffffffffffff166323b872dd3330886040518463ffffffff1660e01b81526004016119bf93929190612b99565b602060405180830381600087803b1580156119d957600080fd5b505af11580156119ed573d6000803e3d6000fd5b505050506040513d601f19601f82011682018060405250810190611a119190612be5565b508073ffffffffffffffffffffffffffffffffffffffff1663095ea7b383876040518363ffffffff1660e01b8152600401611a4d929190612597565b602060405180830381600087803b158015611a6757600080fd5b505af1158015611a7b573d6000803e3d6000fd5b505050506040513d601f19601f82011682018060405250810190611a9f9190612be5565b508173ffffffffffffffffffffffffffffffffffffffff1663e8eda9df82878660006040518563ffffffff1660e01b8152600401611ae09493929190612c12565b600060405180830381600087803b158015611afa57600080fd5b505af1158015611b0e573d6000803e3d6000fd5b505050508273ffffffffffffffffffffffffffffffffffffffff166347e7ef2485876040518363ffffffff1660e01b8152600401611b4d929190612597565b600060405180830381600087803b158015611b6757600080fd5b505af1158015611b7b573d6000803e3d6000fd5b505050505050505050565b60006040517f3d602d80600a3d3981f3363d3d373d3d3d363d7300000000000000000000000081528260601b60148201527f5af43d82803e903d91602b57fd5bf3000000000000000000000000000000000060288201526037816000f0915050600073ffffffffffffffffffffffffffffffffffffffff168173ffffffffffffffffffffffffffffffffffffffff161415611c56576040517f08c379a0000000000000000000000000000000000000000000000000000000008152600401611c4d90612ca3565b60405180910390fd5b919050565b6000604051905090565b600080fd5b600080fd5b6000819050919050565b611c8281611c6f565b8114611c8d57600080fd5b50565b600081359050611c9f81611c79565b92915050565b600073ffffffffffffffffffffffffffffffffffffffff82169050919050565b6000611cd082611ca5565b9050919050565b611ce081611cc5565b8114611ceb57600080fd5b50565b600081359050611cfd81611cd7565b92915050565b60008115159050919050565b611d1881611d03565b8114611d2357600080fd5b50565b600081359050611d3581611d0f565b92915050565b60008060008060808587031215611d5557611d54611c65565b5b6000611d6387828801611c90565b9450506020611d7487828801611cee565b9350506040611d8587828801611cee565b9250506060611d9687828801611d26565b91505092959194509250565b611dab81611cc5565b82525050565b6000602082019050611dc66000830184611da2565b92915050565b600060208284031215611de257611de1611c65565b5b6000611df084828501611cee565b91505092915050565b611e0281611c6f565b82525050565b6000602082019050611e1d6000830184611df9565b92915050565b611e2c81611d03565b82525050565b6000602082019050611e476000830184611e23565b92915050565b600080fd5b600080fd5b6000601f19601f8301169050919050565b7f4e487b7100000000000000000000000000000000000000000000000000000000600052604160045260246000fd5b611ea082611e57565b810181811067ffffffffffffffff82111715611ebf57611ebe611e68565b5b80604052505050565b6000611ed2611c5b565b9050611ede8282611e97565b919050565b600067ffffffffffffffff821115611efe57611efd611e68565b5b611f0782611e57565b9050602081019050919050565b82818337600083830152505050565b6000611f36611f3184611ee3565b611ec8565b905082815260208101848484011115611f5257611f51611e52565b5b611f5d848285611f14565b509392505050565b600082601f830112611f7a57611f79611e4d565b5b8135611f8a848260208601611f23565b91505092915050565b600060208284031215611fa957611fa8611c65565b5b600082013567ffffffffffffffff811115611fc757611fc6611c6a565b5b611fd384828501611f65565b91505092915050565b600080600060608486031215611ff557611ff4611c65565b5b600061200386828701611cee565b935050602061201486828701611cee565b925050604061202586828701611d26565b9150509250925092565b600067ffffffffffffffff82111561204a57612049611e68565b5b602082029050602081019050919050565b600080fd5b600061207361206e8461202f565b611ec8565b905080838252602082019050602084028301858111156120965761209561205b565b5b835b818110156120bf57806120ab8882611cee565b845260208401935050602081019050612098565b5050509392505050565b600082601f8301126120de576120dd611e4d565b5b81356120ee848260208601612060565b91505092915050565b60008060008060008060c0878903121561211457612113611c65565b5b600087013567ffffffffffffffff81111561213257612131611c6a565b5b61213e89828a016120c9565b965050602087013567ffffffffffffffff81111561215f5761215e611c6a565b5b61216b89828a01611f65565b955050604087013567ffffffffffffffff81111561218c5761218b611c6a565b5b61219889828a01611f65565b945050606087013567ffffffffffffffff8111156121b9576121b8611c6a565b5b6121c589828a01611f65565b935050608087013567ffffffffffffffff8111156121e6576121e5611c6a565b5b6121f289828a01611f65565b92505060a061220389828a01611cee565b9150509295509295509295565b600081519050919050565b600082825260208201905092915050565b6000819050602082019050919050565b61224581611cc5565b82525050565b6000612257838361223c565b60208301905092915050565b6000602082019050919050565b600061227b82612210565b612285818561221b565b93506122908361222c565b8060005b838110156122c15781516122a8888261224b565b97506122b383612263565b925050600181019050612294565b5085935050505092915050565b600060208201905081810360008301526122e88184612270565b905092915050565b600082825260208201905092915050565b7f6e6f742063616c6c65642066726f6d206120706f6f6c00000000000000000000600082015250565b60006123376016836122f0565b915061234282612301565b602082019050919050565b600060208201905081810360008301526123668161232a565b9050919050565b7f4e487b7100000000000000000000000000000000000000000000000000000000600052601160045260246000fd5b60006123a782611c6f565b91506123b283611c6f565b9250827fffffffffffffffffffffffffffffffffffffffffffffffffffffffffffffffff038211156123e7576123e661236d565b5b828201905092915050565b60005b838110156124105780820151818401526020810190506123f5565b8381111561241f576000848401525b50505050565b600061243861243384611ee3565b611ec8565b90508281526020810184848401111561245457612453611e52565b5b61245f8482856123f2565b509392505050565b600082601f83011261247c5761247b611e4d565b5b815161248c848260208601612425565b91505092915050565b6000602082840312156124ab576124aa611c65565b5b600082015167ffffffffffffffff8111156124c9576124c8611c6a565b5b6124d584828501612467565b91505092915050565b7f4e487b7100000000000000000000000000000000000000000000000000000000600052603260045260246000fd5b6000819050919050565b600061ffff82169050919050565b6000819050919050565b600061254a6125456125408461250d565b612525565b612517565b9050919050565b61255a8161252f565b82525050565b60006060820190506125756000830186611da2565b6125826020830185611da2565b61258f6040830184612551565b949350505050565b60006040820190506125ac6000830185611da2565b6125b96020830184611df9565b9392505050565b60006125cb82611c6f565b91506125d683611c6f565b9250828210156125e9576125e861236d565b5b828203905092915050565b600081519050919050565b600061260a826125f4565b61261481856122f0565b93506126248185602086016123f2565b61262d81611e57565b840191505092915050565b600060c08201905061264d6000830189611da2565b61265a6020830188611df9565b6126676040830187611df9565b6126746060830186611da2565b6126816080830185611da2565b81810360a083015261269381846125ff565b9050979650505050505050565b6000815190506126af81611c79565b92915050565b6000602082840312156126cb576126ca611c65565b5b60006126d9848285016126a0565b91505092915050565b60006080820190506126f76000830187611da2565b6127046020830186611da2565b6127116040830185611da2565b61271e6060830184611df9565b95945050505050565b600060808201905061273c6000830187611da2565b6127496020830186611df9565b6127566040830185611da2565b6127636060830184611da2565b95945050505050565b60006080820190506127816000830187611da2565b61278e6020830186611df9565b61279b6040830185611da2565b6127a86060830184611e23565b95945050505050565b600081905092915050565b60006127c7826125f4565b6127d181856127b1565b93506127e18185602086016123f2565b80840191505092915050565b60006127f982846127bc565b915081905092915050565b60006040820190506128196000830185611da2565b6128266020830184611e23565b9392505050565b60008151905061283c81611cd7565b92915050565b60006020828403121561285857612857611c65565b5b60006128668482850161282d565b91505092915050565b600060a0820190506128846000830188611da2565b6128916020830187611da2565b61289e6040830186611da2565b6128ab6060830185611da2565b6128b86080830184611df9565b9695505050505050565b7f706f6f6c2077697468206e616d6520616c726561647920657869737473000000600082015250565b60006128f8601d836122f0565b9150612903826128c2565b602082019050919050565b60006020820190508181036000830152612927816128eb565b9050919050565b600060e0820190508181036000830152612948818a612270565b9050818103602083015261295c81896125ff565b9050818103604083015261297081886125ff565b9050818103606083015261298481876125ff565b9050818103608083015261299881866125ff565b90506129a760a0830185611da2565b6129b460c0830184611e23565b98975050505050505050565b60006080820190506129d56000830187611da2565b6129e26020830186611df9565b6129ef6040830185611da2565b8181036060830152612a0181846125ff565b905095945050505050565b6000606082019050612a216000830186611da2565b8181036020830152612a3381856125ff565b9050612a426040830184611da2565b949350505050565b6000612a5582611c6f565b9150612a6083611c6f565b9250817fffffffffffffffffffffffffffffffffffffffffffffffffffffffffffffffff0483118215151615612a9957612a9861236d565b5b828202905092915050565b7f4e487b7100000000000000000000000000000000000000000000000000000000600052601260045260246000fd5b6000612ade82611c6f565b9150612ae983611c6f565b925082612af957612af8612aa4565b5b828204905092915050565b6000604082019050612b196000830185611da2565b612b266020830184611da2565b9392505050565b7f73656e646572206e6f7420617070726f76656400000000000000000000000000600082015250565b6000612b636013836122f0565b9150612b6e82612b2d565b602082019050919050565b60006020820190508181036000830152612b9281612b56565b9050919050565b6000606082019050612bae6000830186611da2565b612bbb6020830185611da2565b612bc86040830184611df9565b949350505050565b600081519050612bdf81611d0f565b92915050565b600060208284031215612bfb57612bfa611c65565b5b6000612c0984828501612bd0565b91505092915050565b6000608082019050612c276000830187611da2565b612c346020830186611df9565b612c416040830185611da2565b612c4e6060830184612551565b95945050505050565b7f455243313136373a20637265617465206661696c656400000000000000000000600082015250565b6000612c8d6016836122f0565b9150612c9882612c57565b602082019050919050565b60006020820190508181036000830152612cbc81612c80565b905091905056fea26469706673582212207b99623eaa87df694b9353a092592609e034f74ebe75e85fae0fef6410ce072a64736f6c6343000809003360806040523480156200001157600080fd5b506040518060400160405280601581526020017f4a435020436f6e7472696275746f7220546f6b656e00000000000000000000008152506040518060400160405280600481526020017f4a43504300000000000000000000000000000000000000000000000000000000815250816000908051906020019062000096929190620002df565b508060019080519060200190620000af929190620002df565b505050620000d2620000c66200021160201b60201c565b6200021960201b60201c565b735343b5ba672ae99d627a1c87866b8e53f47db2e6600c60006101000a81548173ffffffffffffffffffffffffffffffffffffffff021916908373ffffffffffffffffffffffffffffffffffffffff160217905550600c60009054906101000a900473ffffffffffffffffffffffffffffffffffffffff1673ffffffffffffffffffffffffffffffffffffffff1663026b1d5f6040518163ffffffff1660e01b815260040160206040518083038186803b1580156200019057600080fd5b505afa158015620001a5573d6000803e3d6000fd5b505050506040513d601f19601f82011682018060405250810190620001cb9190620003f9565b600d60006101000a81548173ffffffffffffffffffffffffffffffffffffffff021916908373ffffffffffffffffffffffffffffffffffffffff16021790555062000490565b600033905090565b6000600b60009054906101000a900473ffffffffffffffffffffffffffffffffffffffff16905081600b60006101000a81548173ffffffffffffffffffffffffffffffffffffffff021916908373ffffffffffffffffffffffffffffffffffffffff1602179055508173ffffffffffffffffffffffffffffffffffffffff168173ffffffffffffffffffffffffffffffffffffffff167f8be0079c531659141344cd1fd0a4f28419497f9722a3daafe3b4186f6b6457e060405160405180910390a35050565b828054620002ed906200045a565b90600052602060002090601f0160209004810192826200031157600085556200035d565b82601f106200032c57805160ff19168380011785556200035d565b828001600101855582156200035d579182015b828111156200035c5782518255916020019190600101906200033f565b5b5090506200036c919062000370565b5090565b5b808211156200038b57600081600090555060010162000371565b5090565b600080fd5b600073ffffffffffffffffffffffffffffffffffffffff82169050919050565b6000620003c18262000394565b9050919050565b620003d381620003b4565b8114620003df57600080fd5b50565b600081519050620003f381620003c8565b92915050565b6000602082840312156200041257620004116200038f565b5b60006200042284828501620003e2565b91505092915050565b7f4e487b7100000000000000000000000000000000000000000000000000000000600052602260045260246000fd5b600060028204905060018216806200047357607f821691505b602082108114156200048a57620004896200042b565b5b50919050565b61485b80620004a06000396000f3fe608060405234801561001057600080fd5b50600436106101735760003560e01c80636352211e116100de57806395d89b4111610097578063c87b56dd11610071578063c87b56dd14610482578063d15e0053146104b2578063e985e9c5146104e2578063f2fde38b1461051257610173565b806395d89b411461042c578063a22cb4651461044a578063b88d4fde1461046657610173565b80636352211e146103585780636ba3fef21461038857806370a08231146103a4578063715018a6146103d45780638aebe8d6146103de5780638da5cb5b1461040e57610173565b806323b872dd1161013057806323b872dd146102605780632e0c3f3c1461027c5780632f745c59146102ac57806342842e0e146102dc5780634f6ccce7146102f85780635328c2bf1461032857610173565b806301ffc9a71461017857806306fdde03146101a8578063081812fc146101c6578063095ea7b3146101f65780631310fef71461021257806318160ddd14610242575b600080fd5b610192600480360381019061018d9190612c33565b61052e565b60405161019f9190612c7b565b60405180910390f35b6101b0610540565b6040516101bd9190612d2f565b60405180910390f35b6101e060048036038101906101db9190612d87565b6105d2565b6040516101ed9190612df5565b60405180910390f35b610210600480360381019061020b9190612e3c565b610657565b005b61022c60048036038101906102279190612fb1565b61076f565b6040516102399190613069565b60405180910390f35b61024a6109ff565b6040516102579190613069565b60405180910390f35b61027a60048036038101906102759190613084565b610a0c565b005b61029660048036038101906102919190612d87565b610a6c565b6040516102a39190613069565b60405180910390f35b6102c660048036038101906102c19190612e3c565b610a8c565b6040516102d39190613069565b60405180910390f35b6102f660048036038101906102f19190613084565b610b31565b005b610312600480360381019061030d9190612d87565b610b51565b60405161031f9190613069565b60405180910390f35b610342600480360381019061033d9190612d87565b610bc2565b60405161034f919061315d565b60405180910390f35b610372600480360381019061036d9190612d87565b610cb9565b60405161037f9190612df5565b60405180910390f35b6103a2600480360381019061039d9190613178565b610d6b565b005b6103be60048036038101906103b991906131df565b610f75565b6040516103cb9190613069565b60405180910390f35b6103dc61102d565b005b6103f860048036038101906103f391906131df565b6110b5565b6040516104059190613069565b60405180910390f35b610416611180565b6040516104239190612df5565b60405180910390f35b6104346111aa565b6040516104419190612d2f565b60405180910390f35b610464600480360381019061045f9190613238565b61123c565b005b610480600480360381019061047b9190613319565b611252565b005b61049c60048036038101906104979190612d87565b6112b4565b6040516104a99190612d2f565b60405180910390f35b6104cc60048036038101906104c791906131df565b6112c6565b6040516104d99190613069565b60405180910390f35b6104fc60048036038101906104f7919061339c565b61137a565b6040516105099190612c7b565b60405180910390f35b61052c600480360381019061052791906131df565b61140e565b005b600061053982611506565b9050919050565b60606000805461054f9061340b565b80601f016020809104026020016040519081016040528092919081815260200182805461057b9061340b565b80156105c85780601f1061059d576101008083540402835291602001916105c8565b820191906000526020600020905b8154815290600101906020018083116105ab57829003601f168201915b5050505050905090565b60006105dd82611580565b61061c576040517f08c379a0000000000000000000000000000000000000000000000000000000008152600401610613906134af565b60405180910390fd5b6004600083815260200190815260200160002060009054906101000a900473ffffffffffffffffffffffffffffffffffffffff169050919050565b600061066282610cb9565b90508073ffffffffffffffffffffffffffffffffffffffff168373ffffffffffffffffffffffffffffffffffffffff1614156106d3576040517f08c379a00000000000000000000000000000000000000000000000000000000081526004016106ca90613541565b60405180910390fd5b8073ffffffffffffffffffffffffffffffffffffffff166106f26115ec565b73ffffffffffffffffffffffffffffffffffffffff16148061072157506107208161071b6115ec565b61137a565b5b610760576040517f08c379a0000000000000000000000000000000000000000000000000000000008152600401610757906135d3565b60405180910390fd5b61076a83836115f4565b505050565b60006107796115ec565b73ffffffffffffffffffffffffffffffffffffffff16610797611180565b73ffffffffffffffffffffffffffffffffffffffff16146107ed576040517f08c379a00000000000000000000000000000000000000000000000000000000081526004016107e49061363f565b60405180910390fd5b6000878585604051602001610804939291906136a7565b6040516020818303038152906040528051906020012060001c9050600061082a856110b5565b905061083582611580565b156108bd5786600e60008481526020019081526020016000206001018190555087600e6000848152602001908152602001600020600001600082825461087b9190613713565b9250508190555061088c88826116ad565b600e600084815260200190815260200160002060020160008282546108b19190613713565b925050819055506109f0565b6040518060a001604052808981526020018881526020016108de8a846116ad565b81526020018773ffffffffffffffffffffffffffffffffffffffff1681526020018673ffffffffffffffffffffffffffffffffffffffff16815250600e600084815260200190815260200160002060008201518160000155602082015181600101556040820151816002015560608201518160030160006101000a81548173ffffffffffffffffffffffffffffffffffffffff021916908373ffffffffffffffffffffffffffffffffffffffff16021790555060808201518160040160006101000a81548173ffffffffffffffffffffffffffffffffffffffff021916908373ffffffffffffffffffffffffffffffffffffffff1602179055509050506109e589836117b9565b6109ef8285611987565b5b81925050509695505050505050565b6000600880549050905090565b610a1d610a176115ec565b826119fb565b610a5c576040517f08c379a0000000000000000000000000000000000000000000000000000000008152600401610a53906137db565b60405180910390fd5b610a67838383611ad9565b505050565b6000600e6000838152602001908152602001600020600001549050919050565b6000610a9783610f75565b8210610ad8576040517f08c379a0000000000000000000000000000000000000000000000000000000008152600401610acf9061386d565b60405180910390fd5b600660008473ffffffffffffffffffffffffffffffffffffffff1673ffffffffffffffffffffffffffffffffffffffff168152602001908152602001600020600083815260200190815260200160002054905092915050565b610b4c83838360405180602001604052806000815250611252565b505050565b6000610b5b6109ff565b8210610b9c576040517f08c379a0000000000000000000000000000000000000000000000000000000008152600401610b93906138ff565b60405180910390fd5b60088281548110610bb057610baf61391f565b5b90600052602060002001549050919050565b610bca612ac9565b600e60008381526020019081526020016000206040518060a00160405290816000820154815260200160018201548152602001600282015481526020016003820160009054906101000a900473ffffffffffffffffffffffffffffffffffffffff1673ffffffffffffffffffffffffffffffffffffffff1673ffffffffffffffffffffffffffffffffffffffff1681526020016004820160009054906101000a900473ffffffffffffffffffffffffffffffffffffffff1673ffffffffffffffffffffffffffffffffffffffff1673ffffffffffffffffffffffffffffffffffffffff16815250509050919050565b6000806002600084815260200190815260200160002060009054906101000a900473ffffffffffffffffffffffffffffffffffffffff169050600073ffffffffffffffffffffffffffffffffffffffff168173ffffffffffffffffffffffffffffffffffffffff161415610d62576040517f08c379a0000000000000000000000000000000000000000000000000000000008152600401610d59906139c0565b60405180910390fd5b80915050919050565b610d736115ec565b73ffffffffffffffffffffffffffffffffffffffff16610d91611180565b73ffffffffffffffffffffffffffffffffffffffff1614610de7576040517f08c379a0000000000000000000000000000000000000000000000000000000008152600401610dde9061363f565b60405180910390fd5b6000848383604051602001610dfe939291906136a7565b6040516020818303038152906040528051906020012060001c9050610e2281611580565b610e61576040517f08c379a0000000000000000000000000000000000000000000000000000000008152600401610e5890613a2c565b60405180910390fd5b6000600e600083815260200190815260200160002060000154905084811015610ebf576040517f08c379a0000000000000000000000000000000000000000000000000000000008152600401610eb690613a98565b60405180910390fd5b8481610ecb9190613ab8565b90506000811415610f13576000600e6000848152602001908152602001600020600101819055506000600e600084815260200190815260200160002060020181905550610f52565b610f2585610f20856110b5565b6116ad565b600e60008481526020019081526020016000206002016000828254610f4a9190613ab8565b925050819055505b80600e600084815260200190815260200160002060000181905550505050505050565b60008073ffffffffffffffffffffffffffffffffffffffff168273ffffffffffffffffffffffffffffffffffffffff161415610fe6576040517f08c379a0000000000000000000000000000000000000000000000000000000008152600401610fdd90613b5e565b60405180910390fd5b600360008373ffffffffffffffffffffffffffffffffffffffff1673ffffffffffffffffffffffffffffffffffffffff168152602001908152602001600020549050919050565b6110356115ec565b73ffffffffffffffffffffffffffffffffffffffff16611053611180565b73ffffffffffffffffffffffffffffffffffffffff16146110a9576040517f08c379a00000000000000000000000000000000000000000000000000000000081526004016110a09061363f565b60405180910390fd5b6110b36000611d35565b565b6000600d60009054906101000a900473ffffffffffffffffffffffffffffffffffffffff1673ffffffffffffffffffffffffffffffffffffffff166335ea6a75836040518263ffffffff1660e01b81526004016111129190612df5565b6101e06040518083038186803b15801561112b57600080fd5b505afa15801561113f573d6000803e3d6000fd5b505050506040513d601f19601f820116820180604052508101906111639190613e0c565b602001516fffffffffffffffffffffffffffffffff169050919050565b6000600b60009054906101000a900473ffffffffffffffffffffffffffffffffffffffff16905090565b6060600180546111b99061340b565b80601f01602080910402602001604051908101604052809291908181526020018280546111e59061340b565b80156112325780601f1061120757610100808354040283529160200191611232565b820191906000526020600020905b81548152906001019060200180831161121557829003601f168201915b5050505050905090565b61124e6112476115ec565b8383611dfb565b5050565b61126361125d6115ec565b836119fb565b6112a2576040517f08c379a0000000000000000000000000000000000000000000000000000000008152600401611299906137db565b60405180910390fd5b6112ae84848484611f68565b50505050565b60606112bf82611fc4565b9050919050565b6000600d60009054906101000a900473ffffffffffffffffffffffffffffffffffffffff1673ffffffffffffffffffffffffffffffffffffffff1663d15e0053836040518263ffffffff1660e01b81526004016113239190612df5565b60206040518083038186803b15801561133b57600080fd5b505afa15801561134f573d6000803e3d6000fd5b505050506040513d601f19601f820116820180604052508101906113739190613e3a565b9050919050565b6000600560008473ffffffffffffffffffffffffffffffffffffffff1673ffffffffffffffffffffffffffffffffffffffff16815260200190815260200160002060008373ffffffffffffffffffffffffffffffffffffffff1673ffffffffffffffffffffffffffffffffffffffff16815260200190815260200160002060009054906101000a900460ff16905092915050565b6114166115ec565b73ffffffffffffffffffffffffffffffffffffffff16611434611180565b73ffffffffffffffffffffffffffffffffffffffff161461148a576040517f08c379a00000000000000000000000000000000000000000000000000000000081526004016114819061363f565b60405180910390fd5b600073ffffffffffffffffffffffffffffffffffffffff168173ffffffffffffffffffffffffffffffffffffffff1614156114fa576040517f08c379a00000000000000000000000000000000000000000000000000000000081526004016114f190613ed9565b60405180910390fd5b61150381611d35565b50565b60007f780e9d63000000000000000000000000000000000000000000000000000000007bffffffffffffffffffffffffffffffffffffffffffffffffffffffff1916827bffffffffffffffffffffffffffffffffffffffffffffffffffffffff19161480611579575061157882612116565b5b9050919050565b60008073ffffffffffffffffffffffffffffffffffffffff166002600084815260200190815260200160002060009054906101000a900473ffffffffffffffffffffffffffffffffffffffff1673ffffffffffffffffffffffffffffffffffffffff1614159050919050565b600033905090565b816004600083815260200190815260200160002060006101000a81548173ffffffffffffffffffffffffffffffffffffffff021916908373ffffffffffffffffffffffffffffffffffffffff160217905550808273ffffffffffffffffffffffffffffffffffffffff1661166783610cb9565b73ffffffffffffffffffffffffffffffffffffffff167f8c5be1e5ebec7d5bd14f71427d1e84f3dd0314c0f7b2291e5b200ac8c7c3b92560405160405180910390a45050565b6000808214156116f2576040517f08c379a00000000000000000000000000000000000000000000000000000000081526004016116e990613f45565b60405180910390fd5b60006002836117019190613f94565b905060006b033b2e3c9fd0803ce8000000905080827fffffffffffffffffffffffffffffffffffffffffffffffffffffffffffffffff6117419190613ab8565b61174b9190613f94565b85111561178d576040517f08c379a000000000000000000000000000000000000000000000000000000000815260040161178490614011565b60405180910390fd5b8382828761179b9190614031565b6117a59190613713565b6117af9190613f94565b9250505092915050565b600073ffffffffffffffffffffffffffffffffffffffff168273ffffffffffffffffffffffffffffffffffffffff161415611829576040517f08c379a0000000000000000000000000000000000000000000000000000000008152600401611820906140d7565b60405180910390fd5b61183281611580565b15611872576040517f08c379a000000000000000000000000000000000000000000000000000000000815260040161186990614143565b60405180910390fd5b61187e600083836121f8565b6001600360008473ffffffffffffffffffffffffffffffffffffffff1673ffffffffffffffffffffffffffffffffffffffff16815260200190815260200160002060008282546118ce9190613713565b92505081905550816002600083815260200190815260200160002060006101000a81548173ffffffffffffffffffffffffffffffffffffffff021916908373ffffffffffffffffffffffffffffffffffffffff160217905550808273ffffffffffffffffffffffffffffffffffffffff16600073ffffffffffffffffffffffffffffffffffffffff167fddf252ad1be2c89b69c2b068fc378daa952ba7f163c4a11628f55a4df523b3ef60405160405180910390a45050565b61199082611580565b6119cf576040517f08c379a00000000000000000000000000000000000000000000000000000000081526004016119c6906141d5565b60405180910390fd5b80600a600084815260200190815260200160002090805190602001906119f6929190612b24565b505050565b6000611a0682611580565b611a45576040517f08c379a0000000000000000000000000000000000000000000000000000000008152600401611a3c90614267565b60405180910390fd5b6000611a5083610cb9565b90508073ffffffffffffffffffffffffffffffffffffffff168473ffffffffffffffffffffffffffffffffffffffff161480611abf57508373ffffffffffffffffffffffffffffffffffffffff16611aa7846105d2565b73ffffffffffffffffffffffffffffffffffffffff16145b80611ad05750611acf818561137a565b5b91505092915050565b8273ffffffffffffffffffffffffffffffffffffffff16611af982610cb9565b73ffffffffffffffffffffffffffffffffffffffff1614611b4f576040517f08c379a0000000000000000000000000000000000000000000000000000000008152600401611b46906142f9565b60405180910390fd5b600073ffffffffffffffffffffffffffffffffffffffff168273ffffffffffffffffffffffffffffffffffffffff161415611bbf576040517f08c379a0000000000000000000000000000000000000000000000000000000008152600401611bb69061438b565b60405180910390fd5b611bca8383836121f8565b611bd56000826115f4565b6001600360008573ffffffffffffffffffffffffffffffffffffffff1673ffffffffffffffffffffffffffffffffffffffff1681526020019081526020016000206000828254611c259190613ab8565b925050819055506001600360008473ffffffffffffffffffffffffffffffffffffffff1673ffffffffffffffffffffffffffffffffffffffff1681526020019081526020016000206000828254611c7c9190613713565b92505081905550816002600083815260200190815260200160002060006101000a81548173ffffffffffffffffffffffffffffffffffffffff021916908373ffffffffffffffffffffffffffffffffffffffff160217905550808273ffffffffffffffffffffffffffffffffffffffff168473ffffffffffffffffffffffffffffffffffffffff167fddf252ad1be2c89b69c2b068fc378daa952ba7f163c4a11628f55a4df523b3ef60405160405180910390a4505050565b6000600b60009054906101000a900473ffffffffffffffffffffffffffffffffffffffff16905081600b60006101000a81548173ffffffffffffffffffffffffffffffffffffffff021916908373ffffffffffffffffffffffffffffffffffffffff1602179055508173ffffffffffffffffffffffffffffffffffffffff168173ffffffffffffffffffffffffffffffffffffffff167f8be0079c531659141344cd1fd0a4f28419497f9722a3daafe3b4186f6b6457e060405160405180910390a35050565b8173ffffffffffffffffffffffffffffffffffffffff168373ffffffffffffffffffffffffffffffffffffffff161415611e6a576040517f08c379a0000000000000000000000000000000000000000000000000000000008152600401611e61906143f7565b60405180910390fd5b80600560008573ffffffffffffffffffffffffffffffffffffffff1673ffffffffffffffffffffffffffffffffffffffff16815260200190815260200160002060008473ffffffffffffffffffffffffffffffffffffffff1673ffffffffffffffffffffffffffffffffffffffff16815260200190815260200160002060006101000a81548160ff0219169083151502179055508173ffffffffffffffffffffffffffffffffffffffff168373ffffffffffffffffffffffffffffffffffffffff167f17307eab39ab6107e8899845ad3d59bd9653f200f220920489ca2b5937696c3183604051611f5b9190612c7b565b60405180910390a3505050565b611f73848484611ad9565b611f7f84848484612277565b611fbe576040517f08c379a0000000000000000000000000000000000000000000000000000000008152600401611fb590614489565b60405180910390fd5b50505050565b6060611fcf82611580565b61200e576040517f08c379a00000000000000000000000000000000000000000000000000000000081526004016120059061451b565b60405180910390fd5b6000600a6000848152602001908152602001600020805461202e9061340b565b80601f016020809104026020016040519081016040528092919081815260200182805461205a9061340b565b80156120a75780601f1061207c576101008083540402835291602001916120a7565b820191906000526020600020905b81548152906001019060200180831161208a57829003601f168201915b5050505050905060006120b861240e565b90506000815114156120ce578192505050612111565b6000825111156121035780826040516020016120eb929190614577565b60405160208183030381529060405292505050612111565b61210c84612425565b925050505b919050565b60007f80ac58cd000000000000000000000000000000000000000000000000000000007bffffffffffffffffffffffffffffffffffffffffffffffffffffffff1916827bffffffffffffffffffffffffffffffffffffffffffffffffffffffff191614806121e157507f5b5e139f000000000000000000000000000000000000000000000000000000007bffffffffffffffffffffffffffffffffffffffffffffffffffffffff1916827bffffffffffffffffffffffffffffffffffffffffffffffffffffffff1916145b806121f157506121f0826124cc565b5b9050919050565b600073ffffffffffffffffffffffffffffffffffffffff168373ffffffffffffffffffffffffffffffffffffffff1614612267576040517f08c379a000000000000000000000000000000000000000000000000000000000815260040161225e906145e7565b60405180910390fd5b612272838383612536565b505050565b60006122988473ffffffffffffffffffffffffffffffffffffffff1661264a565b15612401578373ffffffffffffffffffffffffffffffffffffffff1663150b7a026122c16115ec565b8786866040518563ffffffff1660e01b81526004016122e3949392919061465c565b602060405180830381600087803b1580156122fd57600080fd5b505af192505050801561232e57506040513d601f19601f8201168201806040525081019061232b91906146bd565b60015b6123b1573d806000811461235e576040519150601f19603f3d011682016040523d82523d6000602084013e612363565b606091505b506000815114156123a9576040517f08c379a00000000000000000000000000000000000000000000000000000000081526004016123a090614489565b60405180910390fd5b805181602001fd5b63150b7a0260e01b7bffffffffffffffffffffffffffffffffffffffffffffffffffffffff1916817bffffffffffffffffffffffffffffffffffffffffffffffffffffffff191614915050612406565b600190505b949350505050565b606060405180602001604052806000815250905090565b606061243082611580565b61246f576040517f08c379a00000000000000000000000000000000000000000000000000000000081526004016124669061475c565b60405180910390fd5b600061247961240e565b9050600081511161249957604051806020016040528060008152506124c4565b806124a38461265d565b6040516020016124b4929190614577565b6040516020818303038152906040525b915050919050565b60007f01ffc9a7000000000000000000000000000000000000000000000000000000007bffffffffffffffffffffffffffffffffffffffffffffffffffffffff1916827bffffffffffffffffffffffffffffffffffffffffffffffffffffffff1916149050919050565b6125418383836127be565b600073ffffffffffffffffffffffffffffffffffffffff168373ffffffffffffffffffffffffffffffffffffffff1614156125845761257f816127c3565b6125c3565b8173ffffffffffffffffffffffffffffffffffffffff168373ffffffffffffffffffffffffffffffffffffffff16146125c2576125c1838261280c565b5b5b600073ffffffffffffffffffffffffffffffffffffffff168273ffffffffffffffffffffffffffffffffffffffff1614156126065761260181612979565b612645565b8273ffffffffffffffffffffffffffffffffffffffff168273ffffffffffffffffffffffffffffffffffffffff1614612644576126438282612a4a565b5b5b505050565b600080823b905060008111915050919050565b606060008214156126a5576040518060400160405280600181526020017f300000000000000000000000000000000000000000000000000000000000000081525090506127b9565b600082905060005b600082146126d75780806126c09061477c565b915050600a826126d09190613f94565b91506126ad565b60008167ffffffffffffffff8111156126f3576126f2612e86565b5b6040519080825280601f01601f1916602001820160405280156127255781602001600182028036833780820191505090505b5090505b600085146127b25760018261273e9190613ab8565b9150600a8561274d91906147c5565b60306127599190613713565b60f81b81838151811061276f5761276e61391f565b5b60200101907effffffffffffffffffffffffffffffffffffffffffffffffffffffffffffff1916908160001a905350600a856127ab9190613f94565b9450612729565b8093505050505b919050565b505050565b6008805490506009600083815260200190815260200160002081905550600881908060018154018082558091505060019003906000526020600020016000909190919091505550565b6000600161281984610f75565b6128239190613ab8565b9050600060076000848152602001908152602001600020549050818114612908576000600660008673ffffffffffffffffffffffffffffffffffffffff1673ffffffffffffffffffffffffffffffffffffffff168152602001908152602001600020600084815260200190815260200160002054905080600660008773ffffffffffffffffffffffffffffffffffffffff1673ffffffffffffffffffffffffffffffffffffffff168152602001908152602001600020600084815260200190815260200160002081905550816007600083815260200190815260200160002081905550505b6007600084815260200190815260200160002060009055600660008573ffffffffffffffffffffffffffffffffffffffff1673ffffffffffffffffffffffffffffffffffffffff16815260200190815260200160002060008381526020019081526020016000206000905550505050565b6000600160088054905061298d9190613ab8565b90506000600960008481526020019081526020016000205490506000600883815481106129bd576129bc61391f565b5b9060005260206000200154905080600883815481106129df576129de61391f565b5b906000526020600020018190555081600960008381526020019081526020016000208190555060096000858152602001908152602001600020600090556008805480612a2e57612a2d6147f6565b5b6001900381819060005260206000200160009055905550505050565b6000612a5583610f75565b905081600660008573ffffffffffffffffffffffffffffffffffffffff1673ffffffffffffffffffffffffffffffffffffffff168152602001908152602001600020600083815260200190815260200160002081905550806007600084815260200190815260200160002081905550505050565b6040518060a00160405280600081526020016000815260200160008152602001600073ffffffffffffffffffffffffffffffffffffffff168152602001600073ffffffffffffffffffffffffffffffffffffffff1681525090565b828054612b309061340b565b90600052602060002090601f016020900481019282612b525760008555612b99565b82601f10612b6b57805160ff1916838001178555612b99565b82800160010185558215612b99579182015b82811115612b98578251825591602001919060010190612b7d565b5b509050612ba69190612baa565b5090565b5b80821115612bc3576000816000905550600101612bab565b5090565b6000604051905090565b600080fd5b600080fd5b60007fffffffff0000000000000000000000000000000000000000000000000000000082169050919050565b612c1081612bdb565b8114612c1b57600080fd5b50565b600081359050612c2d81612c07565b92915050565b600060208284031215612c4957612c48612bd1565b5b6000612c5784828501612c1e565b91505092915050565b60008115159050919050565b612c7581612c60565b82525050565b6000602082019050612c906000830184612c6c565b92915050565b600081519050919050565b600082825260208201905092915050565b60005b83811015612cd0578082015181840152602081019050612cb5565b83811115612cdf576000848401525b50505050565b6000601f19601f8301169050919050565b6000612d0182612c96565b612d0b8185612ca1565b9350612d1b818560208601612cb2565b612d2481612ce5565b840191505092915050565b60006020820190508181036000830152612d498184612cf6565b905092915050565b6000819050919050565b612d6481612d51565b8114612d6f57600080fd5b50565b600081359050612d8181612d5b565b92915050565b600060208284031215612d9d57612d9c612bd1565b5b6000612dab84828501612d72565b91505092915050565b600073ffffffffffffffffffffffffffffffffffffffff82169050919050565b6000612ddf82612db4565b9050919050565b612def81612dd4565b82525050565b6000602082019050612e0a6000830184612de6565b92915050565b612e1981612dd4565b8114612e2457600080fd5b50565b600081359050612e3681612e10565b92915050565b60008060408385031215612e5357612e52612bd1565b5b6000612e6185828601612e27565b9250506020612e7285828601612d72565b9150509250929050565b600080fd5b600080fd5b7f4e487b7100000000000000000000000000000000000000000000000000000000600052604160045260246000fd5b612ebe82612ce5565b810181811067ffffffffffffffff82111715612edd57612edc612e86565b5b80604052505050565b6000612ef0612bc7565b9050612efc8282612eb5565b919050565b600067ffffffffffffffff821115612f1c57612f1b612e86565b5b612f2582612ce5565b9050602081019050919050565b82818337600083830152505050565b6000612f54612f4f84612f01565b612ee6565b905082815260208101848484011115612f7057612f6f612e81565b5b612f7b848285612f32565b509392505050565b600082601f830112612f9857612f97612e7c565b5b8135612fa8848260208601612f41565b91505092915050565b60008060008060008060c08789031215612fce57612fcd612bd1565b5b6000612fdc89828a01612e27565b9650506020612fed89828a01612d72565b9550506040612ffe89828a01612d72565b945050606061300f89828a01612e27565b935050608061302089828a01612e27565b92505060a087013567ffffffffffffffff81111561304157613040612bd6565b5b61304d89828a01612f83565b9150509295509295509295565b61306381612d51565b82525050565b600060208201905061307e600083018461305a565b92915050565b60008060006060848603121561309d5761309c612bd1565b5b60006130ab86828701612e27565b93505060206130bc86828701612e27565b92505060406130cd86828701612d72565b9150509250925092565b6130e081612d51565b82525050565b6130ef81612dd4565b82525050565b60a08201600082015161310b60008501826130d7565b50602082015161311e60208501826130d7565b50604082015161313160408501826130d7565b50606082015161314460608501826130e6565b50608082015161315760808501826130e6565b50505050565b600060a08201905061317260008301846130f5565b92915050565b6000806000806080858703121561319257613191612bd1565b5b60006131a087828801612e27565b94505060206131b187828801612d72565b93505060406131c287828801612e27565b92505060606131d387828801612e27565b91505092959194509250565b6000602082840312156131f5576131f4612bd1565b5b600061320384828501612e27565b91505092915050565b61321581612c60565b811461322057600080fd5b50565b6000813590506132328161320c565b92915050565b6000806040838503121561324f5761324e612bd1565b5b600061325d85828601612e27565b925050602061326e85828601613223565b9150509250929050565b600067ffffffffffffffff82111561329357613292612e86565b5b61329c82612ce5565b9050602081019050919050565b60006132bc6132b784613278565b612ee6565b9050828152602081018484840111156132d8576132d7612e81565b5b6132e3848285612f32565b509392505050565b600082601f830112613300576132ff612e7c565b5b81356133108482602086016132a9565b91505092915050565b6000806000806080858703121561333357613332612bd1565b5b600061334187828801612e27565b945050602061335287828801612e27565b935050604061336387828801612d72565b925050606085013567ffffffffffffffff81111561338457613383612bd6565b5b613390878288016132eb565b91505092959194509250565b600080604083850312156133b3576133b2612bd1565b5b60006133c185828601612e27565b92505060206133d285828601612e27565b9150509250929050565b7f4e487b7100000000000000000000000000000000000000000000000000000000600052602260045260246000fd5b6000600282049050600182168061342357607f821691505b60208210811415613437576134366133dc565b5b50919050565b7f4552433732313a20617070726f76656420717565727920666f72206e6f6e657860008201527f697374656e7420746f6b656e0000000000000000000000000000000000000000602082015250565b6000613499602c83612ca1565b91506134a48261343d565b604082019050919050565b600060208201905081810360008301526134c88161348c565b9050919050565b7f4552433732313a20617070726f76616c20746f2063757272656e74206f776e6560008201527f7200000000000000000000000000000000000000000000000000000000000000602082015250565b600061352b602183612ca1565b9150613536826134cf565b604082019050919050565b6000602082019050818103600083015261355a8161351e565b9050919050565b7f4552433732313a20617070726f76652063616c6c6572206973206e6f74206f7760008201527f6e6572206e6f7220617070726f76656420666f7220616c6c0000000000000000602082015250565b60006135bd603883612ca1565b91506135c882613561565b604082019050919050565b600060208201905081810360008301526135ec816135b0565b9050919050565b7f4f776e61626c653a2063616c6c6572206973206e6f7420746865206f776e6572600082015250565b6000613629602083612ca1565b9150613634826135f3565b602082019050919050565b600060208201905081810360008301526136588161361c565b9050919050565b60008160601b9050919050565b60006136778261365f565b9050919050565b60006136898261366c565b9050919050565b6136a161369c82612dd4565b61367e565b82525050565b60006136b38286613690565b6014820191506136c38285613690565b6014820191506136d38284613690565b601482019150819050949350505050565b7f4e487b7100000000000000000000000000000000000000000000000000000000600052601160045260246000fd5b600061371e82612d51565b915061372983612d51565b9250827fffffffffffffffffffffffffffffffffffffffffffffffffffffffffffffffff0382111561375e5761375d6136e4565b5b828201905092915050565b7f4552433732313a207472616e736665722063616c6c6572206973206e6f74206f60008201527f776e6572206e6f7220617070726f766564000000000000000000000000000000602082015250565b60006137c5603183612ca1565b91506137d082613769565b604082019050919050565b600060208201905081810360008301526137f4816137b8565b9050919050565b7f455243373231456e756d657261626c653a206f776e657220696e646578206f7560008201527f74206f6620626f756e6473000000000000000000000000000000000000000000602082015250565b6000613857602b83612ca1565b9150613862826137fb565b604082019050919050565b600060208201905081810360008301526138868161384a565b9050919050565b7f455243373231456e756d657261626c653a20676c6f62616c20696e646578206f60008201527f7574206f6620626f756e64730000000000000000000000000000000000000000602082015250565b60006138e9602c83612ca1565b91506138f48261388d565b604082019050919050565b60006020820190508181036000830152613918816138dc565b9050919050565b7f4e487b7100000000000000000000000000000000000000000000000000000000600052603260045260246000fd5b7f4552433732313a206f776e657220717565727920666f72206e6f6e657869737460008201527f656e7420746f6b656e0000000000000000000000000000000000000000000000602082015250565b60006139aa602983612ca1565b91506139b58261394e565b604082019050919050565b600060208201905081810360008301526139d98161399d565b9050919050565b7f746f6b656e496420646f65736e27742065786973740000000000000000000000600082015250565b6000613a16601583612ca1565b9150613a21826139e0565b602082019050919050565b60006020820190508181036000830152613a4581613a09565b9050919050565b7f696e73756666696369656e742062616c616e6365000000000000000000000000600082015250565b6000613a82601483612ca1565b9150613a8d82613a4c565b602082019050919050565b60006020820190508181036000830152613ab181613a75565b9050919050565b6000613ac382612d51565b9150613ace83612d51565b925082821015613ae157613ae06136e4565b5b828203905092915050565b7f4552433732313a2062616c616e636520717565727920666f7220746865207a6560008201527f726f206164647265737300000000000000000000000000000000000000000000602082015250565b6000613b48602a83612ca1565b9150613b5382613aec565b604082019050919050565b60006020820190508181036000830152613b7781613b3b565b9050919050565b600080fd5b600081519050613b9281612d5b565b92915050565b600060208284031215613bae57613bad613b7e565b5b613bb86020612ee6565b90506000613bc884828501613b83565b60008301525092915050565b60006fffffffffffffffffffffffffffffffff82169050919050565b613bf981613bd4565b8114613c0457600080fd5b50565b600081519050613c1681613bf0565b92915050565b600064ffffffffff82169050919050565b613c3681613c1c565b8114613c4157600080fd5b50565b600081519050613c5381613c2d565b92915050565b600061ffff82169050919050565b613c7081613c59565b8114613c7b57600080fd5b50565b600081519050613c8d81613c67565b92915050565b600081519050613ca281612e10565b92915050565b60006101e08284031215613cbf57613cbe613b7e565b5b613cca6101e0612ee6565b90506000613cda84828501613b98565b6000830152506020613cee84828501613c07565b6020830152506040613d0284828501613c07565b6040830152506060613d1684828501613c07565b6060830152506080613d2a84828501613c07565b60808301525060a0613d3e84828501613c07565b60a08301525060c0613d5284828501613c44565b60c08301525060e0613d6684828501613c7e565b60e083015250610100613d7b84828501613c93565b61010083015250610120613d9184828501613c93565b61012083015250610140613da784828501613c93565b61014083015250610160613dbd84828501613c93565b61016083015250610180613dd384828501613c07565b610180830152506101a0613de984828501613c07565b6101a0830152506101c0613dff84828501613c07565b6101c08301525092915050565b60006101e08284031215613e2357613e22612bd1565b5b6000613e3184828501613ca8565b91505092915050565b600060208284031215613e5057613e4f612bd1565b5b6000613e5e84828501613b83565b91505092915050565b7f4f776e61626c653a206e6577206f776e657220697320746865207a65726f206160008201527f6464726573730000000000000000000000000000000000000000000000000000602082015250565b6000613ec3602683612ca1565b9150613ece82613e67565b604082019050919050565b60006020820190508181036000830152613ef281613eb6565b9050919050565b7f6469766973696f6e206279203000000000000000000000000000000000000000600082015250565b6000613f2f600d83612ca1565b9150613f3a82613ef9565b602082019050919050565b60006020820190508181036000830152613f5e81613f22565b9050919050565b7f4e487b7100000000000000000000000000000000000000000000000000000000600052601260045260246000fd5b6000613f9f82612d51565b9150613faa83612d51565b925082613fba57613fb9613f65565b5b828204905092915050565b7f6d756c7469706c69636174696f6e206f766572666c6f77000000000000000000600082015250565b6000613ffb601783612ca1565b915061400682613fc5565b602082019050919050565b6000602082019050818103600083015261402a81613fee565b9050919050565b600061403c82612d51565b915061404783612d51565b9250817fffffffffffffffffffffffffffffffffffffffffffffffffffffffffffffffff04831182151516156140805761407f6136e4565b5b828202905092915050565b7f4552433732313a206d696e7420746f20746865207a65726f2061646472657373600082015250565b60006140c1602083612ca1565b91506140cc8261408b565b602082019050919050565b600060208201905081810360008301526140f0816140b4565b9050919050565b7f4552433732313a20746f6b656e20616c7265616479206d696e74656400000000600082015250565b600061412d601c83612ca1565b9150614138826140f7565b602082019050919050565b6000602082019050818103600083015261415c81614120565b9050919050565b7f45524337323155524953746f726167653a2055524920736574206f66206e6f6e60008201527f6578697374656e7420746f6b656e000000000000000000000000000000000000602082015250565b60006141bf602e83612ca1565b91506141ca82614163565b604082019050919050565b600060208201905081810360008301526141ee816141b2565b9050919050565b7f4552433732313a206f70657261746f7220717565727920666f72206e6f6e657860008201527f697374656e7420746f6b656e0000000000000000000000000000000000000000602082015250565b6000614251602c83612ca1565b915061425c826141f5565b604082019050919050565b6000602082019050818103600083015261428081614244565b9050919050565b7f4552433732313a207472616e73666572206f6620746f6b656e2074686174206960008201527f73206e6f74206f776e0000000000000000000000000000000000000000000000602082015250565b60006142e3602983612ca1565b91506142ee82614287565b604082019050919050565b60006020820190508181036000830152614312816142d6565b9050919050565b7f4552433732313a207472616e7366657220746f20746865207a65726f2061646460008201527f7265737300000000000000000000000000000000000000000000000000000000602082015250565b6000614375602483612ca1565b915061438082614319565b604082019050919050565b600060208201905081810360008301526143a481614368565b9050919050565b7f4552433732313a20617070726f766520746f2063616c6c657200000000000000600082015250565b60006143e1601983612ca1565b91506143ec826143ab565b602082019050919050565b60006020820190508181036000830152614410816143d4565b9050919050565b7f4552433732313a207472616e7366657220746f206e6f6e20455243373231526560008201527f63656976657220696d706c656d656e7465720000000000000000000000000000602082015250565b6000614473603283612ca1565b915061447e82614417565b604082019050919050565b600060208201905081810360008301526144a281614466565b9050919050565b7f45524337323155524953746f726167653a2055524920717565727920666f722060008201527f6e6f6e6578697374656e7420746f6b656e000000000000000000000000000000602082015250565b6000614505603183612ca1565b9150614510826144a9565b604082019050919050565b60006020820190508181036000830152614534816144f8565b9050919050565b600081905092915050565b600061455182612c96565b61455b818561453b565b935061456b818560208601612cb2565b80840191505092915050565b60006145838285614546565b915061458f8284614546565b91508190509392505050565b7f6e6f6e207472616e736665727261626c65000000000000000000000000000000600082015250565b60006145d1601183612ca1565b91506145dc8261459b565b602082019050919050565b60006020820190508181036000830152614600816145c4565b9050919050565b600081519050919050565b600082825260208201905092915050565b600061462e82614607565b6146388185614612565b9350614648818560208601612cb2565b61465181612ce5565b840191505092915050565b60006080820190506146716000830187612de6565b61467e6020830186612de6565b61468b604083018561305a565b818103606083015261469d8184614623565b905095945050505050565b6000815190506146b781612c07565b92915050565b6000602082840312156146d3576146d2612bd1565b5b60006146e1848285016146a8565b91505092915050565b7f4552433732314d657461646174613a2055524920717565727920666f72206e6f60008201527f6e6578697374656e7420746f6b656e0000000000000000000000000000000000602082015250565b6000614746602f83612ca1565b9150614751826146ea565b604082019050919050565b6000602082019050818103600083015261477581614739565b9050919050565b600061478782612d51565b91507fffffffffffffffffffffffffffffffffffffffffffffffffffffffffffffffff8214156147ba576147b96136e4565b5b600182019050919050565b60006147d082612d51565b91506147db83612d51565b9250826147eb576147ea613f65565b5b828206905092915050565b7f4e487b7100000000000000000000000000000000000000000000000000000000600052603160045260246000fdfea264697066735822122081b0d1b37b741590b8a39befa795d5d01e0f7d3506992842ad85934e909ff64c64736f6c6343000809003360806040523480156200001157600080fd5b506040518060400160405280600f81526020017f4a4350204f776e657220546f6b656e00000000000000000000000000000000008152506040518060400160405280600c81526020017f4a4350545f544553545f4f310000000000000000000000000000000000000000815250816000908051906020019062000096929190620001a6565b508060019080519060200190620000af929190620001a6565b505050620000d2620000c6620000d860201b60201c565b620000e060201b60201c565b620002bb565b600033905090565b6000600b60009054906101000a900473ffffffffffffffffffffffffffffffffffffffff16905081600b60006101000a81548173ffffffffffffffffffffffffffffffffffffffff021916908373ffffffffffffffffffffffffffffffffffffffff1602179055508173ffffffffffffffffffffffffffffffffffffffff168173ffffffffffffffffffffffffffffffffffffffff167f8be0079c531659141344cd1fd0a4f28419497f9722a3daafe3b4186f6b6457e060405160405180910390a35050565b828054620001b49062000285565b90600052602060002090601f016020900481019282620001d8576000855562000224565b82601f10620001f357805160ff191683800117855562000224565b8280016001018555821562000224579182015b828111156200022357825182559160200191906001019062000206565b5b50905062000233919062000237565b5090565b5b808211156200025257600081600090555060010162000238565b5090565b7f4e487b7100000000000000000000000000000000000000000000000000000000600052602260045260246000fd5b600060028204905060018216806200029e57607f821691505b60208210811415620002b557620002b462000256565b5b50919050565b6139ec80620002cb6000396000f3fe608060405234801561001057600080fd5b50600436106101375760003560e01c80636352211e116100b8578063a22cb4651161007c578063a22cb46514610362578063b88d4fde1461037e578063c6fdbc901461039a578063c87b56dd146103ca578063e985e9c5146103fa578063f2fde38b1461042a57610137565b80636352211e146102bc57806370a08231146102ec578063715018a61461031c5780638da5cb5b1461032657806395d89b411461034457610137565b806318160ddd116100ff57806318160ddd1461020657806323b872dd146102245780632f745c591461024057806342842e0e146102705780634f6ccce71461028c57610137565b806301ffc9a71461013c57806306fdde031461016c578063081812fc1461018a578063095ea7b3146101ba5780630c371555146101d6575b600080fd5b6101566004803603810190610151919061246e565b610446565b60405161016391906124b6565b60405180910390f35b610174610458565b604051610181919061256a565b60405180910390f35b6101a4600480360381019061019f91906125c2565b6104ea565b6040516101b19190612630565b60405180910390f35b6101d460048036038101906101cf9190612677565b61056f565b005b6101f060048036038101906101eb91906127ec565b610687565b6040516101fd919061287e565b60405180910390f35b61020e6107cf565b60405161021b919061287e565b60405180910390f35b61023e60048036038101906102399190612899565b6107dc565b005b61025a60048036038101906102559190612677565b61083c565b604051610267919061287e565b60405180910390f35b61028a60048036038101906102859190612899565b6108e1565b005b6102a660048036038101906102a191906125c2565b610901565b6040516102b3919061287e565b60405180910390f35b6102d660048036038101906102d191906125c2565b610972565b6040516102e39190612630565b60405180910390f35b610306600480360381019061030191906128ec565b610a24565b604051610313919061287e565b60405180910390f35b610324610adc565b005b61032e610b64565b60405161033b9190612630565b60405180910390f35b61034c610b8e565b604051610359919061256a565b60405180910390f35b61037c60048036038101906103779190612945565b610c20565b005b61039860048036038101906103939190612a26565b610c36565b005b6103b460048036038101906103af91906125c2565b610c98565b6040516103c19190612af6565b60405180910390f35b6103e460048036038101906103df91906125c2565b610d25565b6040516103f1919061256a565b60405180910390f35b610414600480360381019061040f9190612b11565b610d37565b60405161042191906124b6565b60405180910390f35b610444600480360381019061043f91906128ec565b610dcb565b005b600061045182610ec3565b9050919050565b60606000805461046790612b80565b80601f016020809104026020016040519081016040528092919081815260200182805461049390612b80565b80156104e05780601f106104b5576101008083540402835291602001916104e0565b820191906000526020600020905b8154815290600101906020018083116104c357829003601f168201915b5050505050905090565b60006104f582610f3d565b610534576040517f08c379a000000000000000000000000000000000000000000000000000000000815260040161052b90612c24565b60405180910390fd5b6004600083815260200190815260200160002060009054906101000a900473ffffffffffffffffffffffffffffffffffffffff169050919050565b600061057a82610972565b90508073ffffffffffffffffffffffffffffffffffffffff168373ffffffffffffffffffffffffffffffffffffffff1614156105eb576040517f08c379a00000000000000000000000000000000000000000000000000000000081526004016105e290612cb6565b60405180910390fd5b8073ffffffffffffffffffffffffffffffffffffffff1661060a610fa9565b73ffffffffffffffffffffffffffffffffffffffff161480610639575061063881610633610fa9565b610d37565b5b610678576040517f08c379a000000000000000000000000000000000000000000000000000000000815260040161066f90612d48565b60405180910390fd5b6106828383610fb1565b505050565b6000610691610fa9565b73ffffffffffffffffffffffffffffffffffffffff166106af610b64565b73ffffffffffffffffffffffffffffffffffffffff1614610705576040517f08c379a00000000000000000000000000000000000000000000000000000000081526004016106fc90612db4565b60405180910390fd5b61070f600c61106a565b600061071b600c611080565b905060405180604001604052808681526020018573ffffffffffffffffffffffffffffffffffffffff16815250600d60008381526020019081526020016000206000820151816000015560208201518160010160006101000a81548173ffffffffffffffffffffffffffffffffffffffff021916908373ffffffffffffffffffffffffffffffffffffffff1602179055509050506107b9868261108e565b6107c3818461125c565b80915050949350505050565b6000600880549050905090565b6107ed6107e7610fa9565b826112d0565b61082c576040517f08c379a000000000000000000000000000000000000000000000000000000000815260040161082390612e46565b60405180910390fd5b6108378383836113ae565b505050565b600061084783610a24565b8210610888576040517f08c379a000000000000000000000000000000000000000000000000000000000815260040161087f90612ed8565b60405180910390fd5b600660008473ffffffffffffffffffffffffffffffffffffffff1673ffffffffffffffffffffffffffffffffffffffff168152602001908152602001600020600083815260200190815260200160002054905092915050565b6108fc83838360405180602001604052806000815250610c36565b505050565b600061090b6107cf565b821061094c576040517f08c379a000000000000000000000000000000000000000000000000000000000815260040161094390612f6a565b60405180910390fd5b600882815481106109605761095f612f8a565b5b90600052602060002001549050919050565b6000806002600084815260200190815260200160002060009054906101000a900473ffffffffffffffffffffffffffffffffffffffff169050600073ffffffffffffffffffffffffffffffffffffffff168173ffffffffffffffffffffffffffffffffffffffff161415610a1b576040517f08c379a0000000000000000000000000000000000000000000000000000000008152600401610a129061302b565b60405180910390fd5b80915050919050565b60008073ffffffffffffffffffffffffffffffffffffffff168273ffffffffffffffffffffffffffffffffffffffff161415610a95576040517f08c379a0000000000000000000000000000000000000000000000000000000008152600401610a8c906130bd565b60405180910390fd5b600360008373ffffffffffffffffffffffffffffffffffffffff1673ffffffffffffffffffffffffffffffffffffffff168152602001908152602001600020549050919050565b610ae4610fa9565b73ffffffffffffffffffffffffffffffffffffffff16610b02610b64565b73ffffffffffffffffffffffffffffffffffffffff1614610b58576040517f08c379a0000000000000000000000000000000000000000000000000000000008152600401610b4f90612db4565b60405180910390fd5b610b62600061160a565b565b6000600b60009054906101000a900473ffffffffffffffffffffffffffffffffffffffff16905090565b606060018054610b9d90612b80565b80601f0160208091040260200160405190810160405280929190818152602001828054610bc990612b80565b8015610c165780601f10610beb57610100808354040283529160200191610c16565b820191906000526020600020905b815481529060010190602001808311610bf957829003601f168201915b5050505050905090565b610c32610c2b610fa9565b83836116d0565b5050565b610c47610c41610fa9565b836112d0565b610c86576040517f08c379a0000000000000000000000000000000000000000000000000000000008152600401610c7d90612e46565b60405180910390fd5b610c928484848461183d565b50505050565b610ca061232f565b600d6000838152602001908152602001600020604051806040016040529081600082015481526020016001820160009054906101000a900473ffffffffffffffffffffffffffffffffffffffff1673ffffffffffffffffffffffffffffffffffffffff1673ffffffffffffffffffffffffffffffffffffffff16815250509050919050565b6060610d3082611899565b9050919050565b6000600560008473ffffffffffffffffffffffffffffffffffffffff1673ffffffffffffffffffffffffffffffffffffffff16815260200190815260200160002060008373ffffffffffffffffffffffffffffffffffffffff1673ffffffffffffffffffffffffffffffffffffffff16815260200190815260200160002060009054906101000a900460ff16905092915050565b610dd3610fa9565b73ffffffffffffffffffffffffffffffffffffffff16610df1610b64565b73ffffffffffffffffffffffffffffffffffffffff1614610e47576040517f08c379a0000000000000000000000000000000000000000000000000000000008152600401610e3e90612db4565b60405180910390fd5b600073ffffffffffffffffffffffffffffffffffffffff168173ffffffffffffffffffffffffffffffffffffffff161415610eb7576040517f08c379a0000000000000000000000000000000000000000000000000000000008152600401610eae9061314f565b60405180910390fd5b610ec08161160a565b50565b60007f780e9d63000000000000000000000000000000000000000000000000000000007bffffffffffffffffffffffffffffffffffffffffffffffffffffffff1916827bffffffffffffffffffffffffffffffffffffffffffffffffffffffff19161480610f365750610f35826119eb565b5b9050919050565b60008073ffffffffffffffffffffffffffffffffffffffff166002600084815260200190815260200160002060009054906101000a900473ffffffffffffffffffffffffffffffffffffffff1673ffffffffffffffffffffffffffffffffffffffff1614159050919050565b600033905090565b816004600083815260200190815260200160002060006101000a81548173ffffffffffffffffffffffffffffffffffffffff021916908373ffffffffffffffffffffffffffffffffffffffff160217905550808273ffffffffffffffffffffffffffffffffffffffff1661102483610972565b73ffffffffffffffffffffffffffffffffffffffff167f8c5be1e5ebec7d5bd14f71427d1e84f3dd0314c0f7b2291e5b200ac8c7c3b92560405160405180910390a45050565b6001816000016000828254019250508190555050565b600081600001549050919050565b600073ffffffffffffffffffffffffffffffffffffffff168273ffffffffffffffffffffffffffffffffffffffff1614156110fe576040517f08c379a00000000000000000000000000000000000000000000000000000000081526004016110f5906131bb565b60405180910390fd5b61110781610f3d565b15611147576040517f08c379a000000000000000000000000000000000000000000000000000000000815260040161113e90613227565b60405180910390fd5b61115360008383611acd565b6001600360008473ffffffffffffffffffffffffffffffffffffffff1673ffffffffffffffffffffffffffffffffffffffff16815260200190815260200160002060008282546111a39190613276565b92505081905550816002600083815260200190815260200160002060006101000a81548173ffffffffffffffffffffffffffffffffffffffff021916908373ffffffffffffffffffffffffffffffffffffffff160217905550808273ffffffffffffffffffffffffffffffffffffffff16600073ffffffffffffffffffffffffffffffffffffffff167fddf252ad1be2c89b69c2b068fc378daa952ba7f163c4a11628f55a4df523b3ef60405160405180910390a45050565b61126582610f3d565b6112a4576040517f08c379a000000000000000000000000000000000000000000000000000000000815260040161129b9061333e565b60405180910390fd5b80600a600084815260200190815260200160002090805190602001906112cb92919061235f565b505050565b60006112db82610f3d565b61131a576040517f08c379a0000000000000000000000000000000000000000000000000000000008152600401611311906133d0565b60405180910390fd5b600061132583610972565b90508073ffffffffffffffffffffffffffffffffffffffff168473ffffffffffffffffffffffffffffffffffffffff16148061139457508373ffffffffffffffffffffffffffffffffffffffff1661137c846104ea565b73ffffffffffffffffffffffffffffffffffffffff16145b806113a557506113a48185610d37565b5b91505092915050565b8273ffffffffffffffffffffffffffffffffffffffff166113ce82610972565b73ffffffffffffffffffffffffffffffffffffffff1614611424576040517f08c379a000000000000000000000000000000000000000000000000000000000815260040161141b90613462565b60405180910390fd5b600073ffffffffffffffffffffffffffffffffffffffff168273ffffffffffffffffffffffffffffffffffffffff161415611494576040517f08c379a000000000000000000000000000000000000000000000000000000000815260040161148b906134f4565b60405180910390fd5b61149f838383611acd565b6114aa600082610fb1565b6001600360008573ffffffffffffffffffffffffffffffffffffffff1673ffffffffffffffffffffffffffffffffffffffff16815260200190815260200160002060008282546114fa9190613514565b925050819055506001600360008473ffffffffffffffffffffffffffffffffffffffff1673ffffffffffffffffffffffffffffffffffffffff16815260200190815260200160002060008282546115519190613276565b92505081905550816002600083815260200190815260200160002060006101000a81548173ffffffffffffffffffffffffffffffffffffffff021916908373ffffffffffffffffffffffffffffffffffffffff160217905550808273ffffffffffffffffffffffffffffffffffffffff168473ffffffffffffffffffffffffffffffffffffffff167fddf252ad1be2c89b69c2b068fc378daa952ba7f163c4a11628f55a4df523b3ef60405160405180910390a4505050565b6000600b60009054906101000a900473ffffffffffffffffffffffffffffffffffffffff16905081600b60006101000a81548173ffffffffffffffffffffffffffffffffffffffff021916908373ffffffffffffffffffffffffffffffffffffffff1602179055508173ffffffffffffffffffffffffffffffffffffffff168173ffffffffffffffffffffffffffffffffffffffff167f8be0079c531659141344cd1fd0a4f28419497f9722a3daafe3b4186f6b6457e060405160405180910390a35050565b8173ffffffffffffffffffffffffffffffffffffffff168373ffffffffffffffffffffffffffffffffffffffff16141561173f576040517f08c379a000000000000000000000000000000000000000000000000000000000815260040161173690613594565b60405180910390fd5b80600560008573ffffffffffffffffffffffffffffffffffffffff1673ffffffffffffffffffffffffffffffffffffffff16815260200190815260200160002060008473ffffffffffffffffffffffffffffffffffffffff1673ffffffffffffffffffffffffffffffffffffffff16815260200190815260200160002060006101000a81548160ff0219169083151502179055508173ffffffffffffffffffffffffffffffffffffffff168373ffffffffffffffffffffffffffffffffffffffff167f17307eab39ab6107e8899845ad3d59bd9653f200f220920489ca2b5937696c318360405161183091906124b6565b60405180910390a3505050565b6118488484846113ae565b61185484848484611add565b611893576040517f08c379a000000000000000000000000000000000000000000000000000000000815260040161188a90613626565b60405180910390fd5b50505050565b60606118a482610f3d565b6118e3576040517f08c379a00000000000000000000000000000000000000000000000000000000081526004016118da906136b8565b60405180910390fd5b6000600a6000848152602001908152602001600020805461190390612b80565b80601f016020809104026020016040519081016040528092919081815260200182805461192f90612b80565b801561197c5780601f106119515761010080835404028352916020019161197c565b820191906000526020600020905b81548152906001019060200180831161195f57829003601f168201915b50505050509050600061198d611c74565b90506000815114156119a35781925050506119e6565b6000825111156119d85780826040516020016119c0929190613714565b604051602081830303815290604052925050506119e6565b6119e184611c8b565b925050505b919050565b60007f80ac58cd000000000000000000000000000000000000000000000000000000007bffffffffffffffffffffffffffffffffffffffffffffffffffffffff1916827bffffffffffffffffffffffffffffffffffffffffffffffffffffffff19161480611ab657507f5b5e139f000000000000000000000000000000000000000000000000000000007bffffffffffffffffffffffffffffffffffffffffffffffffffffffff1916827bffffffffffffffffffffffffffffffffffffffffffffffffffffffff1916145b80611ac65750611ac582611d32565b5b9050919050565b611ad8838383611d9c565b505050565b6000611afe8473ffffffffffffffffffffffffffffffffffffffff16611eb0565b15611c67578373ffffffffffffffffffffffffffffffffffffffff1663150b7a02611b27610fa9565b8786866040518563ffffffff1660e01b8152600401611b49949392919061378d565b602060405180830381600087803b158015611b6357600080fd5b505af1925050508015611b9457506040513d601f19601f82011682018060405250810190611b9191906137ee565b60015b611c17573d8060008114611bc4576040519150601f19603f3d011682016040523d82523d6000602084013e611bc9565b606091505b50600081511415611c0f576040517f08c379a0000000000000000000000000000000000000000000000000000000008152600401611c0690613626565b60405180910390fd5b805181602001fd5b63150b7a0260e01b7bffffffffffffffffffffffffffffffffffffffffffffffffffffffff1916817bffffffffffffffffffffffffffffffffffffffffffffffffffffffff191614915050611c6c565b600190505b949350505050565b606060405180602001604052806000815250905090565b6060611c9682610f3d565b611cd5576040517f08c379a0000000000000000000000000000000000000000000000000000000008152600401611ccc9061388d565b60405180910390fd5b6000611cdf611c74565b90506000815111611cff5760405180602001604052806000815250611d2a565b80611d0984611ec3565b604051602001611d1a929190613714565b6040516020818303038152906040525b915050919050565b60007f01ffc9a7000000000000000000000000000000000000000000000000000000007bffffffffffffffffffffffffffffffffffffffffffffffffffffffff1916827bffffffffffffffffffffffffffffffffffffffffffffffffffffffff1916149050919050565b611da7838383612024565b600073ffffffffffffffffffffffffffffffffffffffff168373ffffffffffffffffffffffffffffffffffffffff161415611dea57611de581612029565b611e29565b8173ffffffffffffffffffffffffffffffffffffffff168373ffffffffffffffffffffffffffffffffffffffff1614611e2857611e278382612072565b5b5b600073ffffffffffffffffffffffffffffffffffffffff168273ffffffffffffffffffffffffffffffffffffffff161415611e6c57611e67816121df565b611eab565b8273ffffffffffffffffffffffffffffffffffffffff168273ffffffffffffffffffffffffffffffffffffffff1614611eaa57611ea982826122b0565b5b5b505050565b600080823b905060008111915050919050565b60606000821415611f0b576040518060400160405280600181526020017f3000000000000000000000000000000000000000000000000000000000000000815250905061201f565b600082905060005b60008214611f3d578080611f26906138ad565b915050600a82611f369190613925565b9150611f13565b60008167ffffffffffffffff811115611f5957611f586126c1565b5b6040519080825280601f01601f191660200182016040528015611f8b5781602001600182028036833780820191505090505b5090505b6000851461201857600182611fa49190613514565b9150600a85611fb39190613956565b6030611fbf9190613276565b60f81b818381518110611fd557611fd4612f8a565b5b60200101907effffffffffffffffffffffffffffffffffffffffffffffffffffffffffffff1916908160001a905350600a856120119190613925565b9450611f8f565b8093505050505b919050565b505050565b6008805490506009600083815260200190815260200160002081905550600881908060018154018082558091505060019003906000526020600020016000909190919091505550565b6000600161207f84610a24565b6120899190613514565b905060006007600084815260200190815260200160002054905081811461216e576000600660008673ffffffffffffffffffffffffffffffffffffffff1673ffffffffffffffffffffffffffffffffffffffff168152602001908152602001600020600084815260200190815260200160002054905080600660008773ffffffffffffffffffffffffffffffffffffffff1673ffffffffffffffffffffffffffffffffffffffff168152602001908152602001600020600084815260200190815260200160002081905550816007600083815260200190815260200160002081905550505b6007600084815260200190815260200160002060009055600660008573ffffffffffffffffffffffffffffffffffffffff1673ffffffffffffffffffffffffffffffffffffffff16815260200190815260200160002060008381526020019081526020016000206000905550505050565b600060016008805490506121f39190613514565b905060006009600084815260200190815260200160002054905060006008838154811061222357612222612f8a565b5b90600052602060002001549050806008838154811061224557612244612f8a565b5b90600052602060002001819055508160096000838152602001908152602001600020819055506009600085815260200190815260200160002060009055600880548061229457612293613987565b5b6001900381819060005260206000200160009055905550505050565b60006122bb83610a24565b905081600660008573ffffffffffffffffffffffffffffffffffffffff1673ffffffffffffffffffffffffffffffffffffffff168152602001908152602001600020600083815260200190815260200160002081905550806007600084815260200190815260200160002081905550505050565b604051806040016040528060008152602001600073ffffffffffffffffffffffffffffffffffffffff1681525090565b82805461236b90612b80565b90600052602060002090601f01602090048101928261238d57600085556123d4565b82601f106123a657805160ff19168380011785556123d4565b828001600101855582156123d4579182015b828111156123d35782518255916020019190600101906123b8565b5b5090506123e191906123e5565b5090565b5b808211156123fe5760008160009055506001016123e6565b5090565b6000604051905090565b600080fd5b600080fd5b60007fffffffff0000000000000000000000000000000000000000000000000000000082169050919050565b61244b81612416565b811461245657600080fd5b50565b60008135905061246881612442565b92915050565b6000602082840312156124845761248361240c565b5b600061249284828501612459565b91505092915050565b60008115159050919050565b6124b08161249b565b82525050565b60006020820190506124cb60008301846124a7565b92915050565b600081519050919050565b600082825260208201905092915050565b60005b8381101561250b5780820151818401526020810190506124f0565b8381111561251a576000848401525b50505050565b6000601f19601f8301169050919050565b600061253c826124d1565b61254681856124dc565b93506125568185602086016124ed565b61255f81612520565b840191505092915050565b600060208201905081810360008301526125848184612531565b905092915050565b6000819050919050565b61259f8161258c565b81146125aa57600080fd5b50565b6000813590506125bc81612596565b92915050565b6000602082840312156125d8576125d761240c565b5b60006125e6848285016125ad565b91505092915050565b600073ffffffffffffffffffffffffffffffffffffffff82169050919050565b600061261a826125ef565b9050919050565b61262a8161260f565b82525050565b60006020820190506126456000830184612621565b92915050565b6126548161260f565b811461265f57600080fd5b50565b6000813590506126718161264b565b92915050565b6000806040838503121561268e5761268d61240c565b5b600061269c85828601612662565b92505060206126ad858286016125ad565b9150509250929050565b600080fd5b600080fd5b7f4e487b7100000000000000000000000000000000000000000000000000000000600052604160045260246000fd5b6126f982612520565b810181811067ffffffffffffffff82111715612718576127176126c1565b5b80604052505050565b600061272b612402565b905061273782826126f0565b919050565b600067ffffffffffffffff821115612757576127566126c1565b5b61276082612520565b9050602081019050919050565b82818337600083830152505050565b600061278f61278a8461273c565b612721565b9050828152602081018484840111156127ab576127aa6126bc565b5b6127b684828561276d565b509392505050565b600082601f8301126127d3576127d26126b7565b5b81356127e384826020860161277c565b91505092915050565b600080600080608085870312156128065761280561240c565b5b600061281487828801612662565b9450506020612825878288016125ad565b935050604061283687828801612662565b925050606085013567ffffffffffffffff81111561285757612856612411565b5b612863878288016127be565b91505092959194509250565b6128788161258c565b82525050565b6000602082019050612893600083018461286f565b92915050565b6000806000606084860312156128b2576128b161240c565b5b60006128c086828701612662565b93505060206128d186828701612662565b92505060406128e2868287016125ad565b9150509250925092565b6000602082840312156129025761290161240c565b5b600061291084828501612662565b91505092915050565b6129228161249b565b811461292d57600080fd5b50565b60008135905061293f81612919565b92915050565b6000806040838503121561295c5761295b61240c565b5b600061296a85828601612662565b925050602061297b85828601612930565b9150509250929050565b600067ffffffffffffffff8211156129a05761299f6126c1565b5b6129a982612520565b9050602081019050919050565b60006129c96129c484612985565b612721565b9050828152602081018484840111156129e5576129e46126bc565b5b6129f084828561276d565b509392505050565b600082601f830112612a0d57612a0c6126b7565b5b8135612a1d8482602086016129b6565b91505092915050565b60008060008060808587031215612a4057612a3f61240c565b5b6000612a4e87828801612662565b9450506020612a5f87828801612662565b9350506040612a70878288016125ad565b925050606085013567ffffffffffffffff811115612a9157612a90612411565b5b612a9d878288016129f8565b91505092959194509250565b612ab28161258c565b82525050565b612ac18161260f565b82525050565b604082016000820151612add6000850182612aa9565b506020820151612af06020850182612ab8565b50505050565b6000604082019050612b0b6000830184612ac7565b92915050565b60008060408385031215612b2857612b2761240c565b5b6000612b3685828601612662565b9250506020612b4785828601612662565b9150509250929050565b7f4e487b7100000000000000000000000000000000000000000000000000000000600052602260045260246000fd5b60006002820490506001821680612b9857607f821691505b60208210811415612bac57612bab612b51565b5b50919050565b7f4552433732313a20617070726f76656420717565727920666f72206e6f6e657860008201527f697374656e7420746f6b656e0000000000000000000000000000000000000000602082015250565b6000612c0e602c836124dc565b9150612c1982612bb2565b604082019050919050565b60006020820190508181036000830152612c3d81612c01565b9050919050565b7f4552433732313a20617070726f76616c20746f2063757272656e74206f776e6560008201527f7200000000000000000000000000000000000000000000000000000000000000602082015250565b6000612ca06021836124dc565b9150612cab82612c44565b604082019050919050565b60006020820190508181036000830152612ccf81612c93565b9050919050565b7f4552433732313a20617070726f76652063616c6c6572206973206e6f74206f7760008201527f6e6572206e6f7220617070726f76656420666f7220616c6c0000000000000000602082015250565b6000612d326038836124dc565b9150612d3d82612cd6565b604082019050919050565b60006020820190508181036000830152612d6181612d25565b9050919050565b7f4f776e61626c653a2063616c6c6572206973206e6f7420746865206f776e6572600082015250565b6000612d9e6020836124dc565b9150612da982612d68565b602082019050919050565b60006020820190508181036000830152612dcd81612d91565b9050919050565b7f4552433732313a207472616e736665722063616c6c6572206973206e6f74206f60008201527f776e6572206e6f7220617070726f766564000000000000000000000000000000602082015250565b6000612e306031836124dc565b9150612e3b82612dd4565b604082019050919050565b60006020820190508181036000830152612e5f81612e23565b9050919050565b7f455243373231456e756d657261626c653a206f776e657220696e646578206f7560008201527f74206f6620626f756e6473000000000000000000000000000000000000000000602082015250565b6000612ec2602b836124dc565b9150612ecd82612e66565b604082019050919050565b60006020820190508181036000830152612ef181612eb5565b9050919050565b7f455243373231456e756d657261626c653a20676c6f62616c20696e646578206f60008201527f7574206f6620626f756e64730000000000000000000000000000000000000000602082015250565b6000612f54602c836124dc565b9150612f5f82612ef8565b604082019050919050565b60006020820190508181036000830152612f8381612f47565b9050919050565b7f4e487b7100000000000000000000000000000000000000000000000000000000600052603260045260246000fd5b7f4552433732313a206f776e657220717565727920666f72206e6f6e657869737460008201527f656e7420746f6b656e0000000000000000000000000000000000000000000000602082015250565b60006130156029836124dc565b915061302082612fb9565b604082019050919050565b6000602082019050818103600083015261304481613008565b9050919050565b7f4552433732313a2062616c616e636520717565727920666f7220746865207a6560008201527f726f206164647265737300000000000000000000000000000000000000000000602082015250565b60006130a7602a836124dc565b91506130b28261304b565b604082019050919050565b600060208201905081810360008301526130d68161309a565b9050919050565b7f4f776e61626c653a206e6577206f776e657220697320746865207a65726f206160008201527f6464726573730000000000000000000000000000000000000000000000000000602082015250565b60006131396026836124dc565b9150613144826130dd565b604082019050919050565b600060208201905081810360008301526131688161312c565b9050919050565b7f4552433732313a206d696e7420746f20746865207a65726f2061646472657373600082015250565b60006131a56020836124dc565b91506131b08261316f565b602082019050919050565b600060208201905081810360008301526131d481613198565b9050919050565b7f4552433732313a20746f6b656e20616c7265616479206d696e74656400000000600082015250565b6000613211601c836124dc565b915061321c826131db565b602082019050919050565b6000602082019050818103600083015261324081613204565b9050919050565b7f4e487b7100000000000000000000000000000000000000000000000000000000600052601160045260246000fd5b60006132818261258c565b915061328c8361258c565b9250827fffffffffffffffffffffffffffffffffffffffffffffffffffffffffffffffff038211156132c1576132c0613247565b5b828201905092915050565b7f45524337323155524953746f726167653a2055524920736574206f66206e6f6e60008201527f6578697374656e7420746f6b656e000000000000000000000000000000000000602082015250565b6000613328602e836124dc565b9150613333826132cc565b604082019050919050565b600060208201905081810360008301526133578161331b565b9050919050565b7f4552433732313a206f70657261746f7220717565727920666f72206e6f6e657860008201527f697374656e7420746f6b656e0000000000000000000000000000000000000000602082015250565b60006133ba602c836124dc565b91506133c58261335e565b604082019050919050565b600060208201905081810360008301526133e9816133ad565b9050919050565b7f4552433732313a207472616e73666572206f6620746f6b656e2074686174206960008201527f73206e6f74206f776e0000000000000000000000000000000000000000000000602082015250565b600061344c6029836124dc565b9150613457826133f0565b604082019050919050565b6000602082019050818103600083015261347b8161343f565b9050919050565b7f4552433732313a207472616e7366657220746f20746865207a65726f2061646460008201527f7265737300000000000000000000000000000000000000000000000000000000602082015250565b60006134de6024836124dc565b91506134e982613482565b604082019050919050565b6000602082019050818103600083015261350d816134d1565b9050919050565b600061351f8261258c565b915061352a8361258c565b92508282101561353d5761353c613247565b5b828203905092915050565b7f4552433732313a20617070726f766520746f2063616c6c657200000000000000600082015250565b600061357e6019836124dc565b915061358982613548565b602082019050919050565b600060208201905081810360008301526135ad81613571565b9050919050565b7f4552433732313a207472616e7366657220746f206e6f6e20455243373231526560008201527f63656976657220696d706c656d656e7465720000000000000000000000000000602082015250565b60006136106032836124dc565b915061361b826135b4565b604082019050919050565b6000602082019050818103600083015261363f81613603565b9050919050565b7f45524337323155524953746f726167653a2055524920717565727920666f722060008201527f6e6f6e6578697374656e7420746f6b656e000000000000000000000000000000602082015250565b60006136a26031836124dc565b91506136ad82613646565b604082019050919050565b600060208201905081810360008301526136d181613695565b9050919050565b600081905092915050565b60006136ee826124d1565b6136f881856136d8565b93506137088185602086016124ed565b80840191505092915050565b600061372082856136e3565b915061372c82846136e3565b91508190509392505050565b600081519050919050565b600082825260208201905092915050565b600061375f82613738565b6137698185613743565b93506137798185602086016124ed565b61378281612520565b840191505092915050565b60006080820190506137a26000830187612621565b6137af6020830186612621565b6137bc604083018561286f565b81810360608301526137ce8184613754565b905095945050505050565b6000815190506137e881612442565b92915050565b6000602082840312156138045761380361240c565b5b6000613812848285016137d9565b91505092915050565b7f4552433732314d657461646174613a2055524920717565727920666f72206e6f60008201527f6e6578697374656e7420746f6b656e0000000000000000000000000000000000602082015250565b6000613877602f836124dc565b91506138828261381b565b604082019050919050565b600060208201905081810360008301526138a68161386a565b9050919050565b60006138b88261258c565b91507fffffffffffffffffffffffffffffffffffffffffffffffffffffffffffffffff8214156138eb576138ea613247565b5b600182019050919050565b7f4e487b7100000000000000000000000000000000000000000000000000000000600052601260045260246000fd5b60006139308261258c565b915061393b8361258c565b92508261394b5761394a6138f6565b5b828204905092915050565b60006139618261258c565b915061396c8361258c565b92508261397c5761397b6138f6565b5b828206905092915050565b7f4e487b7100000000000000000000000000000000000000000000000000000000600052603160045260246000fdfea26469706673582212207d187c413b29487691372501ff5a61e25e338cccec773cde93225d85cb5211a864736f6c63430008090033608060405234801561001057600080fd5b506001600360006101000a81548160ff021916908315150217905550612f018061003b6000396000f3fe608060405234801561001057600080fd5b50600436106101375760003560e01c8063322ce09e116100b857806347e7ef241161007c57806347e7ef241461034057806357ac65661461035c5780635ff189b91461037a578063711cc005146103aa5780638aebe8d6146103da578063d15e00531461040a57610137565b8063322ce09e14610286578063343d693b146102b6578063357286d7146102d45780633735ef88146102f2578063373d7c3f1461032257610137565b806316df1bab116100ff57806316df1bab146101f457806317d7de7c146102105780631b88094d1461022e5780632e5990541461024c5780632f7570061461026857610137565b80630251cfa11461013c5780630712f6b31461016c5780630835d21a1461019c57806312eeff7e146101ba578063155d8e9c146101d6575b600080fd5b61015660048036038101906101519190611e58565b61043a565b6040516101639190611e9e565b60405180910390f35b61018660048036038101906101819190611e58565b610483565b6040516101939190611e9e565b60405180910390f35b6101a4610522565b6040516101b19190611ed2565b60405180910390f35b6101d460048036038101906101cf9190611f51565b610582565b005b6101de610922565b6040516101eb9190612051565b60405180910390f35b61020e60048036038101906102099190612270565b6109b4565b005b610218610e70565b6040516102259190612051565b60405180910390f35b610236610f02565b60405161024391906123ad565b60405180910390f35b610266600480360381019061026191906123c8565b610f2c565b005b610270611018565b60405161027d91906124c6565b60405180910390f35b6102a0600480360381019061029b91906124e8565b6110a6565b6040516102ad9190611e9e565b60405180910390f35b6102be6115d6565b6040516102cb9190612051565b60405180910390f35b6102dc611668565b6040516102e99190612537565b60405180910390f35b61030c60048036038101906103079190611e58565b61167f565b6040516103199190611e9e565b60405180910390f35b61032a61176e565b6040516103379190612051565b60405180910390f35b61035a600480360381019061035591906123c8565b611800565b005b6103646119d9565b60405161037191906125a7565b60405180910390f35b610394600480360381019061038f9190611e58565b611a13565b6040516103a19190611e9e565b60405180910390f35b6103c460048036038101906103bf9190611e58565b611a5c565b6040516103d191906123ad565b60405180910390f35b6103f460048036038101906103ef9190611e58565b611b16565b6040516104019190611e9e565b60405180910390f35b610424600480360381019061041f9190611e58565b611be1565b6040516104319190611e9e565b60405180910390f35b6000600160008373ffffffffffffffffffffffffffffffffffffffff1673ffffffffffffffffffffffffffffffffffffffff168152602001908152602001600020549050919050565b60008061048f83611a5c565b90508073ffffffffffffffffffffffffffffffffffffffff166370a08231306040518263ffffffff1660e01b81526004016104ca91906123ad565b60206040518083038186803b1580156104e257600080fd5b505afa1580156104f6573d6000803e3d6000fd5b505050506040513d601f19601f8201168201806040525081019061051a91906125de565b915050919050565b60003073ffffffffffffffffffffffffffffffffffffffff16803b806020016040519081016040528181526000908060200190933c6040516020016105679190612647565b60405160208183030381529060405280519060200120905090565b338073ffffffffffffffffffffffffffffffffffffffff16600860009054906101000a900473ffffffffffffffffffffffffffffffffffffffff1673ffffffffffffffffffffffffffffffffffffffff1614610613576040517f08c379a000000000000000000000000000000000000000000000000000000000815260040161060a906126aa565b60405180910390fd5b82858560008111610659576040517f08c379a000000000000000000000000000000000000000000000000000000000815260040161065090612716565b60405180910390fd5b86600160008a73ffffffffffffffffffffffffffffffffffffffff1673ffffffffffffffffffffffffffffffffffffffff16815260200190815260200160002060008282546106a89190612765565b925050819055508461076b57600460009054906101000a900473ffffffffffffffffffffffffffffffffffffffff1673ffffffffffffffffffffffffffffffffffffffff166369328dec8989896040518463ffffffff1660e01b815260040161071393929190612799565b602060405180830381600087803b15801561072d57600080fd5b505af1158015610741573d6000803e3d6000fd5b505050506040513d601f19601f8201168201806040525081019061076591906125de565b506108dd565b600061077689611a5c565b90508073ffffffffffffffffffffffffffffffffffffffff1663095ea7b3600560009054906101000a900473ffffffffffffffffffffffffffffffffffffffff168a6040518363ffffffff1660e01b81526004016107d59291906127d0565b602060405180830381600087803b1580156107ef57600080fd5b505af1158015610803573d6000803e3d6000fd5b505050506040513d601f19601f82011682018060405250810190610827919061280e565b50600560009054906101000a900473ffffffffffffffffffffffffffffffffffffffff1673ffffffffffffffffffffffffffffffffffffffff166380500d20600460009054906101000a900473ffffffffffffffffffffffffffffffffffffffff168a8a6040518463ffffffff1660e01b81526004016108a993929190612799565b600060405180830381600087803b1580156108c357600080fd5b505af11580156108d7573d6000803e3d6000fd5b50505050505b7f9b1bfa7fa9ee420a16e124f794c35ac9f90472acc99140eb2f6447c714cad8eb8887896040516109109392919061283b565b60405180910390a15050505050505050565b6060600b8054610931906128a1565b80601f016020809104026020016040519081016040528092919081815260200182805461095d906128a1565b80156109aa5780601f1061097f576101008083540402835291602001916109aa565b820191906000526020600020905b81548152906001019060200180831161098d57829003601f168201915b5050505050905090565b85601e60008290508160ff16815110610a02576040517f08c379a00000000000000000000000000000000000000000000000000000000081526004016109f99061291f565b60405180910390fd5b600060019054906101000a900460ff16610a2a5760008054906101000a900460ff1615610a33565b610a32611c95565b5b610a72576040517f08c379a0000000000000000000000000000000000000000000000000000000008152600401610a69906129b1565b60405180910390fd5b60008060019054906101000a900460ff161590508015610ac2576001600060016101000a81548160ff02191690831515021790555060016000806101000a81548160ff0219169083151502179055505b60001515600360009054906101000a900460ff16151514610b18576040517f08c379a0000000000000000000000000000000000000000000000000000000008152600401610b0f90612a1d565b60405180910390fd5b600073ffffffffffffffffffffffffffffffffffffffff16600760009054906101000a900473ffffffffffffffffffffffffffffffffffffffff1673ffffffffffffffffffffffffffffffffffffffff1614610ba9576040517f08c379a0000000000000000000000000000000000000000000000000000000008152600401610ba090612a89565b60405180910390fd5b85600760006101000a81548173ffffffffffffffffffffffffffffffffffffffff021916908373ffffffffffffffffffffffffffffffffffffffff16021790555033600860006101000a81548173ffffffffffffffffffffffffffffffffffffffff021916908373ffffffffffffffffffffffffffffffffffffffff1602179055508960099080519060200190610c41929190611cb9565b5088600a9080519060200190610c58929190611cb9565b5087600b9080519060200190610c6f929190611cb9565b5086600c9080519060200190610c86929190611cb9565b5084600d60006101000a81548160ff021916908315150217905550735343b5ba672ae99d627a1c87866b8e53f47db2e6600360016101000a81548173ffffffffffffffffffffffffffffffffffffffff021916908373ffffffffffffffffffffffffffffffffffffffff160217905550600360019054906101000a900473ffffffffffffffffffffffffffffffffffffffff1673ffffffffffffffffffffffffffffffffffffffff1663026b1d5f6040518163ffffffff1660e01b815260040160206040518083038186803b158015610d5e57600080fd5b505afa158015610d72573d6000803e3d6000fd5b505050506040513d601f19601f82011682018060405250810190610d969190612abe565b600460006101000a81548173ffffffffffffffffffffffffffffffffffffffff021916908373ffffffffffffffffffffffffffffffffffffffff160217905550732a58e9bbb5434fda7ff78051a4b82cb0ef669c17600560006101000a81548173ffffffffffffffffffffffffffffffffffffffff021916908373ffffffffffffffffffffffffffffffffffffffff1602179055508a60069080519060200190610e41929190611d3f565b508015610e635760008060016101000a81548160ff0219169083151502179055505b5050505050505050505050565b606060098054610e7f906128a1565b80601f0160208091040260200160405190810160405280929190818152602001828054610eab906128a1565b8015610ef85780601f10610ecd57610100808354040283529160200191610ef8565b820191906000526020600020905b815481529060010190602001808311610edb57829003601f168201915b5050505050905090565b6000600760009054906101000a900473ffffffffffffffffffffffffffffffffffffffff16905090565b338073ffffffffffffffffffffffffffffffffffffffff16600860009054906101000a900473ffffffffffffffffffffffffffffffffffffffff1673ffffffffffffffffffffffffffffffffffffffff1614610fbd576040517f08c379a0000000000000000000000000000000000000000000000000000000008152600401610fb4906126aa565b60405180910390fd5b81600160008573ffffffffffffffffffffffffffffffffffffffff1673ffffffffffffffffffffffffffffffffffffffff168152602001908152602001600020600082825461100c9190612aeb565b92505081905550505050565b6060600680548060200260200160405190810160405280929190818152602001828054801561109c57602002820191906000526020600020905b8160009054906101000a900473ffffffffffffffffffffffffffffffffffffffff1673ffffffffffffffffffffffffffffffffffffffff1681526020019060010190808311611052575b5050505050905090565b6000338073ffffffffffffffffffffffffffffffffffffffff16600860009054906101000a900473ffffffffffffffffffffffffffffffffffffffff1673ffffffffffffffffffffffffffffffffffffffff1614611139576040517f08c379a0000000000000000000000000000000000000000000000000000000008152600401611130906126aa565b60405180910390fd5b83600080600090505b6006805490508160ff1610156111e35760068160ff168154811061116957611168612b41565b5b9060005260206000200160009054906101000a900473ffffffffffffffffffffffffffffffffffffffff1673ffffffffffffffffffffffffffffffffffffffff168373ffffffffffffffffffffffffffffffffffffffff1614156111d057600191506111e3565b80806111db90612b7d565b915050611142565b5080611224576040517f08c379a000000000000000000000000000000000000000000000000000000000815260040161121b90612c19565b60405180910390fd5b600061122f87611a5c565b905060008173ffffffffffffffffffffffffffffffffffffffff166370a08231306040518263ffffffff1660e01b815260040161126c91906123ad565b60206040518083038186803b15801561128457600080fd5b505afa158015611298573d6000803e3d6000fd5b505050506040513d601f19601f820116820180604052508101906112bc91906125de565b90506000600160008a73ffffffffffffffffffffffffffffffffffffffff1673ffffffffffffffffffffffffffffffffffffffff168152602001908152602001600020548261130b9190612765565b905080600260008b73ffffffffffffffffffffffffffffffffffffffff1673ffffffffffffffffffffffffffffffffffffffff168152602001908152602001600020600082825461135c9190612aeb565b925050819055508761144157600460009054906101000a900473ffffffffffffffffffffffffffffffffffffffff1673ffffffffffffffffffffffffffffffffffffffff166369328dec8a83600760009054906101000a900473ffffffffffffffffffffffffffffffffffffffff166040518463ffffffff1660e01b81526004016113e993929190612799565b602060405180830381600087803b15801561140357600080fd5b505af1158015611417573d6000803e3d6000fd5b505050506040513d601f19601f8201168201806040525081019061143b91906125de565b506115c7565b8273ffffffffffffffffffffffffffffffffffffffff1663095ea7b3600560009054906101000a900473ffffffffffffffffffffffffffffffffffffffff16836040518363ffffffff1660e01b815260040161149e9291906127d0565b602060405180830381600087803b1580156114b857600080fd5b505af11580156114cc573d6000803e3d6000fd5b505050506040513d601f19601f820116820180604052508101906114f0919061280e565b50600560009054906101000a900473ffffffffffffffffffffffffffffffffffffffff1673ffffffffffffffffffffffffffffffffffffffff166380500d20600460009054906101000a900473ffffffffffffffffffffffffffffffffffffffff1683600760009054906101000a900473ffffffffffffffffffffffffffffffffffffffff166040518463ffffffff1660e01b815260040161159493929190612799565b600060405180830381600087803b1580156115ae57600080fd5b505af11580156115c2573d6000803e3d6000fd5b505050505b80965050505050505092915050565b6060600a80546115e5906128a1565b80601f0160208091040260200160405190810160405280929190818152602001828054611611906128a1565b801561165e5780601f106116335761010080835404028352916020019161165e565b820191906000526020600020905b81548152906001019060200180831161164157829003601f168201915b5050505050905090565b6000600d60009054906101000a900460ff16905090565b60008061168b83611a5c565b905060008173ffffffffffffffffffffffffffffffffffffffff166370a08231306040518263ffffffff1660e01b81526004016116c891906123ad565b60206040518083038186803b1580156116e057600080fd5b505afa1580156116f4573d6000803e3d6000fd5b505050506040513d601f19601f8201168201806040525081019061171891906125de565b9050600160008573ffffffffffffffffffffffffffffffffffffffff1673ffffffffffffffffffffffffffffffffffffffff16815260200190815260200160002054816117659190612765565b92505050919050565b6060600c805461177d906128a1565b80601f01602080910402602001604051908101604052809291908181526020018280546117a9906128a1565b80156117f65780601f106117cb576101008083540402835291602001916117f6565b820191906000526020600020905b8154815290600101906020018083116117d957829003601f168201915b5050505050905090565b338073ffffffffffffffffffffffffffffffffffffffff16600860009054906101000a900473ffffffffffffffffffffffffffffffffffffffff1673ffffffffffffffffffffffffffffffffffffffff1614611891576040517f08c379a0000000000000000000000000000000000000000000000000000000008152600401611888906126aa565b60405180910390fd5b82600080600090505b6006805490508160ff16101561193b5760068160ff16815481106118c1576118c0612b41565b5b9060005260206000200160009054906101000a900473ffffffffffffffffffffffffffffffffffffffff1673ffffffffffffffffffffffffffffffffffffffff168373ffffffffffffffffffffffffffffffffffffffff161415611928576001915061193b565b808061193390612b7d565b91505061189a565b508061197c576040517f08c379a000000000000000000000000000000000000000000000000000000000815260040161197390612c19565b60405180910390fd5b83600160008773ffffffffffffffffffffffffffffffffffffffff1673ffffffffffffffffffffffffffffffffffffffff16815260200190815260200160002060008282546119cb9190612aeb565b925050819055505050505050565b60603073ffffffffffffffffffffffffffffffffffffffff16803b806020016040519081016040528181526000908060200190933c905090565b6000600260008373ffffffffffffffffffffffffffffffffffffffff1673ffffffffffffffffffffffffffffffffffffffff168152602001908152602001600020549050919050565b6000600460009054906101000a900473ffffffffffffffffffffffffffffffffffffffff1673ffffffffffffffffffffffffffffffffffffffff166335ea6a75836040518263ffffffff1660e01b8152600401611ab991906123ad565b6101e06040518083038186803b158015611ad257600080fd5b505afa158015611ae6573d6000803e3d6000fd5b505050506040513d601f19601f82011682018060405250810190611b0a9190612e9d565b61010001519050919050565b6000600460009054906101000a900473ffffffffffffffffffffffffffffffffffffffff1673ffffffffffffffffffffffffffffffffffffffff166335ea6a75836040518263ffffffff1660e01b8152600401611b7391906123ad565b6101e06040518083038186803b158015611b8c57600080fd5b505afa158015611ba0573d6000803e3d6000fd5b505050506040513d601f19601f82011682018060405250810190611bc49190612e9d565b602001516fffffffffffffffffffffffffffffffff169050919050565b6000600460009054906101000a900473ffffffffffffffffffffffffffffffffffffffff1673ffffffffffffffffffffffffffffffffffffffff1663d15e0053836040518263ffffffff1660e01b8152600401611c3e91906123ad565b60206040518083038186803b158015611c5657600080fd5b505afa158015611c6a573d6000803e3d6000fd5b505050506040513d601f19601f82011682018060405250810190611c8e91906125de565b9050919050565b6000611ca030611ca6565b15905090565b600080823b905060008111915050919050565b828054611cc5906128a1565b90600052602060002090601f016020900481019282611ce75760008555611d2e565b82601f10611d0057805160ff1916838001178555611d2e565b82800160010185558215611d2e579182015b82811115611d2d578251825591602001919060010190611d12565b5b509050611d3b9190611dc9565b5090565b828054828255906000526020600020908101928215611db8579160200282015b82811115611db75782518260006101000a81548173ffffffffffffffffffffffffffffffffffffffff021916908373ffffffffffffffffffffffffffffffffffffffff16021790555091602001919060010190611d5f565b5b509050611dc59190611dc9565b5090565b5b80821115611de2576000816000905550600101611dca565b5090565b6000604051905090565b600080fd5b600080fd5b600073ffffffffffffffffffffffffffffffffffffffff82169050919050565b6000611e2582611dfa565b9050919050565b611e3581611e1a565b8114611e4057600080fd5b50565b600081359050611e5281611e2c565b92915050565b600060208284031215611e6e57611e6d611df0565b5b6000611e7c84828501611e43565b91505092915050565b6000819050919050565b611e9881611e85565b82525050565b6000602082019050611eb36000830184611e8f565b92915050565b6000819050919050565b611ecc81611eb9565b82525050565b6000602082019050611ee76000830184611ec3565b92915050565b611ef681611e85565b8114611f0157600080fd5b50565b600081359050611f1381611eed565b92915050565b60008115159050919050565b611f2e81611f19565b8114611f3957600080fd5b50565b600081359050611f4b81611f25565b92915050565b60008060008060808587031215611f6b57611f6a611df0565b5b6000611f7987828801611e43565b9450506020611f8a87828801611f04565b9350506040611f9b87828801611e43565b9250506060611fac87828801611f3c565b91505092959194509250565b600081519050919050565b600082825260208201905092915050565b60005b83811015611ff2578082015181840152602081019050611fd7565b83811115612001576000848401525b50505050565b6000601f19601f8301169050919050565b600061202382611fb8565b61202d8185611fc3565b935061203d818560208601611fd4565b61204681612007565b840191505092915050565b6000602082019050818103600083015261206b8184612018565b905092915050565b600080fd5b7f4e487b7100000000000000000000000000000000000000000000000000000000600052604160045260246000fd5b6120b082612007565b810181811067ffffffffffffffff821117156120cf576120ce612078565b5b80604052505050565b60006120e2611de6565b90506120ee82826120a7565b919050565b600067ffffffffffffffff82111561210e5761210d612078565b5b602082029050602081019050919050565b600080fd5b6000612137612132846120f3565b6120d8565b9050808382526020820190506020840283018581111561215a5761215961211f565b5b835b81811015612183578061216f8882611e43565b84526020840193505060208101905061215c565b5050509392505050565b600082601f8301126121a2576121a1612073565b5b81356121b2848260208601612124565b91505092915050565b600080fd5b600067ffffffffffffffff8211156121db576121da612078565b5b6121e482612007565b9050602081019050919050565b82818337600083830152505050565b600061221361220e846121c0565b6120d8565b90508281526020810184848401111561222f5761222e6121bb565b5b61223a8482856121f1565b509392505050565b600082601f83011261225757612256612073565b5b8135612267848260208601612200565b91505092915050565b600080600080600080600060e0888a03121561228f5761228e611df0565b5b600088013567ffffffffffffffff8111156122ad576122ac611df5565b5b6122b98a828b0161218d565b975050602088013567ffffffffffffffff8111156122da576122d9611df5565b5b6122e68a828b01612242565b965050604088013567ffffffffffffffff81111561230757612306611df5565b5b6123138a828b01612242565b955050606088013567ffffffffffffffff81111561233457612333611df5565b5b6123408a828b01612242565b945050608088013567ffffffffffffffff81111561236157612360611df5565b5b61236d8a828b01612242565b93505060a061237e8a828b01611e43565b92505060c061238f8a828b01611f3c565b91505092959891949750929550565b6123a781611e1a565b82525050565b60006020820190506123c2600083018461239e565b92915050565b600080604083850312156123df576123de611df0565b5b60006123ed85828601611e43565b92505060206123fe85828601611f04565b9150509250929050565b600081519050919050565b600082825260208201905092915050565b6000819050602082019050919050565b61243d81611e1a565b82525050565b600061244f8383612434565b60208301905092915050565b6000602082019050919050565b600061247382612408565b61247d8185612413565b935061248883612424565b8060005b838110156124b95781516124a08882612443565b97506124ab8361245b565b92505060018101905061248c565b5085935050505092915050565b600060208201905081810360008301526124e08184612468565b905092915050565b600080604083850312156124ff576124fe611df0565b5b600061250d85828601611e43565b925050602061251e85828601611f3c565b9150509250929050565b61253181611f19565b82525050565b600060208201905061254c6000830184612528565b92915050565b600081519050919050565b600082825260208201905092915050565b600061257982612552565b612583818561255d565b9350612593818560208601611fd4565b61259c81612007565b840191505092915050565b600060208201905081810360008301526125c1818461256e565b905092915050565b6000815190506125d881611eed565b92915050565b6000602082840312156125f4576125f3611df0565b5b6000612602848285016125c9565b91505092915050565b600081905092915050565b600061262182612552565b61262b818561260b565b935061263b818560208601611fd4565b80840191505092915050565b60006126538284612616565b915081905092915050565b7f796f7520617265206e6f7420746865206f776e65720000000000000000000000600082015250565b6000612694601583611fc3565b915061269f8261265e565b602082019050919050565b600060208201905081810360008301526126c381612687565b9050919050565b7f616d6f756e74206d757374206578636565642030000000000000000000000000600082015250565b6000612700601483611fc3565b915061270b826126ca565b602082019050919050565b6000602082019050818103600083015261272f816126f3565b9050919050565b7f4e487b7100000000000000000000000000000000000000000000000000000000600052601160045260246000fd5b600061277082611e85565b915061277b83611e85565b92508282101561278e5761278d612736565b5b828203905092915050565b60006060820190506127ae600083018661239e565b6127bb6020830185611e8f565b6127c8604083018461239e565b949350505050565b60006040820190506127e5600083018561239e565b6127f26020830184611e8f565b9392505050565b60008151905061280881611f25565b92915050565b60006020828403121561282457612823611df0565b5b6000612832848285016127f9565b91505092915050565b6000606082019050612850600083018661239e565b61285d602083018561239e565b61286a6040830184611e8f565b949350505050565b7f4e487b7100000000000000000000000000000000000000000000000000000000600052602260045260246000fd5b600060028204905060018216806128b957607f821691505b602082108114156128cd576128cc612872565b5b50919050565b7f737472696e67206f76657220636861726163746572206c696d69740000000000600082015250565b6000612909601b83611fc3565b9150612914826128d3565b602082019050919050565b60006020820190508181036000830152612938816128fc565b9050919050565b7f496e697469616c697a61626c653a20636f6e747261637420697320616c72656160008201527f647920696e697469616c697a6564000000000000000000000000000000000000602082015250565b600061299b602e83611fc3565b91506129a68261293f565b604082019050919050565b600060208201905081810360008301526129ca8161298e565b9050919050565b7f43616e6e6f7420696e697469616c697a65206261736500000000000000000000600082015250565b6000612a07601683611fc3565b9150612a12826129d1565b602082019050919050565b60006020820190508181036000830152612a36816129fa565b9050919050565b7f496e697469616c697a6520616c72656164792063616c6c656400000000000000600082015250565b6000612a73601983611fc3565b9150612a7e82612a3d565b602082019050919050565b60006020820190508181036000830152612aa281612a66565b9050919050565b600081519050612ab881611e2c565b92915050565b600060208284031215612ad457612ad3611df0565b5b6000612ae284828501612aa9565b91505092915050565b6000612af682611e85565b9150612b0183611e85565b9250827fffffffffffffffffffffffffffffffffffffffffffffffffffffffffffffffff03821115612b3657612b35612736565b5b828201905092915050565b7f4e487b7100000000000000000000000000000000000000000000000000000000600052603260045260246000fd5b600060ff82169050919050565b6000612b8882612b70565b915060ff821415612b9c57612b9b612736565b5b600182019050919050565b7f7375626d697474656420746f6b656e2061646472657373206973206e6f74206160008201527f6363657074656420627920706f6f6c0000000000000000000000000000000000602082015250565b6000612c03602f83611fc3565b9150612c0e82612ba7565b604082019050919050565b60006020820190508181036000830152612c3281612bf6565b9050919050565b600080fd5b600060208284031215612c5457612c53612c39565b5b612c5e60206120d8565b90506000612c6e848285016125c9565b60008301525092915050565b60006fffffffffffffffffffffffffffffffff82169050919050565b612c9f81612c7a565b8114612caa57600080fd5b50565b600081519050612cbc81612c96565b92915050565b600064ffffffffff82169050919050565b612cdc81612cc2565b8114612ce757600080fd5b50565b600081519050612cf981612cd3565b92915050565b600061ffff82169050919050565b612d1681612cff565b8114612d2157600080fd5b50565b600081519050612d3381612d0d565b92915050565b60006101e08284031215612d5057612d4f612c39565b5b612d5b6101e06120d8565b90506000612d6b84828501612c3e565b6000830152506020612d7f84828501612cad565b6020830152506040612d9384828501612cad565b6040830152506060612da784828501612cad565b6060830152506080612dbb84828501612cad565b60808301525060a0612dcf84828501612cad565b60a08301525060c0612de384828501612cea565b60c08301525060e0612df784828501612d24565b60e083015250610100612e0c84828501612aa9565b61010083015250610120612e2284828501612aa9565b61012083015250610140612e3884828501612aa9565b61014083015250610160612e4e84828501612aa9565b61016083015250610180612e6484828501612cad565b610180830152506101a0612e7a84828501612cad565b6101a0830152506101c0612e9084828501612cad565b6101c08301525092915050565b60006101e08284031215612eb457612eb3611df0565b5b6000612ec284828501612d39565b9150509291505056fea264697066735822122030f5c9986d7d42de5a1c93b41f247ad322583945948ecb8cb4290bfc7f943b9864736f6c63430008090033",
  "immutableReferences": {},
  "source": "// SPDX-License-Identifier: agpl-3.0\npragma solidity 0.8.9;\n\nimport { IJustCausePool, IERC20, IPool, IPoolAddressesProvider, IWETHGateway } from './Interfaces.sol';\nimport { JCDepositorERC721 } from './JCDepositorERC721.sol';\nimport { JCOwnerERC721 } from './JCOwnerERC721.sol';\nimport { JustCausePoolAaveV3 } from './JustCausePoolAaveV3.sol';\n\ncontract PoolTracker {\n\n    JustCausePoolAaveV3 baseJCPool;\n    JCDepositorERC721 jCDepositorERC721;\n    JCOwnerERC721 jCOwnerERC721;\n\n    //contract addresses will point to bool if they exist\n    mapping(address => bool) private isPool;\n    mapping(string => address) private names;\n    mapping(address => uint256) private tvl;\n    mapping(address => uint256) private totalDonated;\n    address[] private verifiedPools;\n\n    IPoolAddressesProvider provider;\n    address poolAddr;\n    address wethGatewayAddr;\n    address validator;\n\n    event AddPool(address pool, string name, address receiver);\n    event AddDeposit(address userAddr, address pool, address asset, uint256 amount);\n    event WithdrawDeposit(address userAddr, address pool, address asset, uint256 amount);\n    event Claim(address userAddr, address receiver, address pool, address asset, uint256 amount);\n\n    modifier onlyPools(address _pool){\n        require(isPool[_pool], \"not called from a pool\");\n        _;\n    }\n\n    constructor () {\n        validator = msg.sender;\n        jCDepositorERC721 = new JCDepositorERC721();\n        jCOwnerERC721 = new JCOwnerERC721();\n        baseJCPool = new JustCausePoolAaveV3();\n\n        provider = IPoolAddressesProvider(address(0x5343b5bA672Ae99d627A1C87866b8E53F47Db2E6)); // polygon mumbai v3\n        poolAddr = provider.getPool();\n        wethGatewayAddr = address(0x2a58E9bbb5434FdA7FF78051a4B82cb0EF669C17);// polygon mumbai v3\n    }\n\n    function addDeposit(uint256 _amount, address _asset, address _pool, bool isETH) onlyPools(_pool) external payable {\n        tvl[_asset] += _amount;\n        string memory _metaHash = IJustCausePool(_pool).getMetaUri();\n        address devAddress = verifiedPools[0];\n        if(isETH){\n            address _poolAddr = poolAddr;\n            if(devAddress == _pool){\n                IWETHGateway(wethGatewayAddr).depositETH{value: msg.value}(_poolAddr, _pool, 0);\n                IJustCausePool(_pool).depositETH(_asset, msg.value);\n            }\n            else{\n                uint256 devValue = calcDevFundSplit(_amount);\n                uint256 newValue = _amount - devValue;\n\n                IWETHGateway(wethGatewayAddr).depositETH{value: devValue}(_poolAddr, devAddress, 0);\n                IJustCausePool(_pool).depositETH(_asset, devValue);\n\n                IWETHGateway(wethGatewayAddr).depositETH{value: newValue}(_poolAddr, _pool, 0);\n                IJustCausePool(_pool).depositETH(_asset, newValue);\n            }\n        }\n        else {\n            if(devAddress == _pool){\n                depositNonEth(_amount, _asset, _pool);\n            }\n            else{\n                uint256 devValue = calcDevFundSplit(_amount);\n                uint256 newValue = _amount - devValue;\n                depositNonEth(devValue, _asset, devAddress);\n                depositNonEth(newValue, _asset, _pool);\n            }\n        }\n        if(devAddress == _pool){\n            jCDepositorERC721.addFunds(msg.sender, _amount, block.timestamp,  _pool, _asset, _metaHash);\n        }\n        else{\n            uint256 devValue = calcDevFundSplit(_amount);\n            uint256 newValue = _amount - devValue;\n            jCDepositorERC721.addFunds(msg.sender, devValue, block.timestamp,  devAddress, _asset, _metaHash);\n            jCDepositorERC721.addFunds(msg.sender, newValue, block.timestamp,  _pool, _asset, _metaHash);\n        }\n        emit AddDeposit(msg.sender, _pool, _asset, _amount);\n    }\n\n    function calcDevFundSplit(uint256 _amount) internal pure returns(uint256) {\n        uint256 bp = 25; // 0.25% in basis points (parts per 10,000)\n        return (_amount * bp) / 10000;\n    }\n    function depositNonEth(uint256 _amount, address _asset, address _pool) internal {\n        address _poolAddr = poolAddr;\n        IERC20 token = IERC20(_asset);\n        require(token.allowance(msg.sender, address(this)) >= _amount, \"sender not approved\");\n        token.transferFrom(msg.sender, address(this), _amount);\n        token.approve(_poolAddr, _amount);\n        IPool(_poolAddr).deposit(address(token), _amount, _pool, 0);\n        IJustCausePool(_pool).deposit(_asset, _amount /*, msg.sender*/);\n    }\n\n    function withdrawDeposit(uint256 _amount, address _asset, address _pool, bool _isETH) onlyPools(_pool) external {\n        tvl[_asset] -= _amount;\n        address devAddress = verifiedPools[0];\n\n        if(devAddress == _pool){\n            jCDepositorERC721.withdrawFunds(msg.sender, _amount, _pool, _asset);\n            IJustCausePool(_pool).withdraw(_asset, _amount, msg.sender, _isETH);\n        }\n        else{\n            uint256 devValue = calcDevFundSplit(_amount);\n            uint256 newValue = _amount - devValue;\n\n            jCDepositorERC721.withdrawFunds(msg.sender, newValue, _pool, _asset);\n            IJustCausePool(_pool).withdraw(_asset, newValue, msg.sender, _isETH);\n\n            jCDepositorERC721.withdrawFunds(msg.sender, devValue, devAddress, _asset);\n            IJustCausePool(_pool).withdraw(_asset, devValue, msg.sender, _isETH);\n        }\n        emit WithdrawDeposit(msg.sender, _pool, _asset, _amount);\n    }\n\n    function claimInterest(address _asset, address _pool, bool _isETH) onlyPools(_pool) external {\n        uint256 amount = IJustCausePool(_pool).withdrawDonations(_asset, _isETH);\n        totalDonated[_asset] += amount;\n        emit Claim(msg.sender, IJustCausePool(_pool).getRecipient(), _pool, _asset, amount);\n    }\n\n    /**\n     * @dev Deploys and returns the address of a clone that mimics the behaviour of `implementation`.\n     *\n     * This function uses the create opcode, which should never revert.\n     */\n    function clone(address basePool) internal returns (address instance) {\n        assembly {\n            let ptr := mload(0x40)\n            mstore(ptr, 0x3d602d80600a3d3981f3363d3d373d3d3d363d73000000000000000000000000)\n            mstore(add(ptr, 0x14), shl(0x60, basePool))\n            mstore(add(ptr, 0x28), 0x5af43d82803e903d91602b57fd5bf30000000000000000000000000000000000)\n            instance := create(0, ptr, 0x37)\n        }\n        require(instance != address(0), \"ERC1167: create failed\");\n    }\n\n    function createJCPoolClone(address[] memory _acceptedTokens, string memory _name, string memory _about, string memory _picHash, string memory _metaUri, address _receiver) external {\n        require(names[_name] == address(0), \"pool with name already exists\");\n        address child = clone(address(baseJCPool));\n        bool isVerified;\n        if(msg.sender == validator){\n            verifiedPools.push(child);\n            isVerified = true;\n        }\n\n        IJustCausePool(child).initialize(_acceptedTokens, _name, _about, _picHash, _metaUri, _receiver, isVerified);\n        jCOwnerERC721.createReceiverToken(_receiver, block.timestamp, child, _metaUri);\n        names[_name] =  child;\n\n        isPool[child] = true;\n        emit AddPool(child, _name, _receiver);\n    }\n\n    function getTVL(address _asset) public view returns(uint256){\n        return tvl[_asset];\n    }\n\n    function getTotalDonated(address _asset) public view returns(uint256){\n        return totalDonated[_asset];\n    }\n\n    function getDepositorERC721Address() public view returns(address){\n        return address(jCDepositorERC721);\n    }\n\n    function getOwnerERC721Address() public view returns(address){\n        return address(jCOwnerERC721);\n    }\n\n    function getBaseJCPoolAddress() public view returns(address){\n        return address(baseJCPool);\n    }\n\n    function getVerifiedPools() public view returns(address [] memory){\n        return verifiedPools;\n    }\n\n    function checkPool(address _pool) public view returns(bool){\n        return isPool[_pool];\n    }\n\n    /*function getUserDeposits(address _userAddr) external view returns(address[] memory){\n        return depositors[_userAddr];\n    }*/\n\n    /*function getUserDeposits(address _userAddr) external view returns(address[] memory){\n        uint256 numDeposits = jCDepositorERC721.balanceOf(_userAddr);\n        address[] memory poolList;\n        for(uint8 i = 0; i < numDeposits; i++){\n            uint256 tokenId = jCDepositorERC721.tokenOfOwnerByIndex(_userAddr, i);\n            (,,,, address pool,) = jCDepositorERC721.getDeposit(tokenId);\n            poolList[i] = pool;\n        }\n        return poolList;\n    }*/\n\n    /*function getUserOwned(address _userAddr) external view returns(address[] memory){\n        return owners[_userAddr];\n    }*/\n\n    function getAddressFromName(string memory _name) external view returns(address){\n        return names[_name];\n    }\n}",
  "sourcePath": "/home/smeee/just_cause/contracts/polygon/PoolTracker.sol",
  "compiler": {
    "name": "solc",
    "version": "0.8.9+commit.e5eed63a.Emscripten.clang"
  },
  "schemaVersion": "3.4.5",
  "updatedAt": "2022-04-11T03:04:07.659Z",
  "devdoc": {
    "kind": "dev",
    "methods": {},
    "version": 1
  },
  "userdoc": {
    "kind": "user",
    "methods": {},
    "version": 1
  }
}