{
  "contractName": "PoolTracker",
  "abi": [
    {
      "anonymous": false,
      "inputs": [
        {
          "indexed": false,
          "internalType": "address",
          "name": "_userAddr",
          "type": "address"
        },
        {
          "indexed": false,
          "internalType": "address",
          "name": "_pool",
          "type": "address"
        }
      ],
      "name": "AddDeposit",
      "type": "event"
    },
    {
      "anonymous": false,
      "inputs": [
        {
          "indexed": false,
          "internalType": "address",
          "name": "addressToAdd",
          "type": "address"
        }
      ],
      "name": "AddVerifiedPools",
      "type": "event"
    },
    {
      "anonymous": false,
      "inputs": [
        {
          "indexed": false,
          "internalType": "address",
          "name": "sentBy",
          "type": "address"
        }
      ],
      "name": "MessageSentBy",
      "type": "event"
    },
    {
      "anonymous": false,
      "inputs": [
        {
          "indexed": false,
          "internalType": "address",
          "name": "_owner",
          "type": "address"
        },
        {
          "indexed": false,
          "internalType": "address",
          "name": "_pool",
          "type": "address"
        }
      ],
      "name": "OwnerAddress",
      "type": "event"
    },
    {
      "anonymous": false,
      "inputs": [
        {
          "indexed": false,
          "internalType": "address",
          "name": "_userAddr",
          "type": "address"
        },
        {
          "indexed": false,
          "internalType": "address",
          "name": "_pool",
          "type": "address"
        }
      ],
      "name": "WithdrawDeposit",
      "type": "event"
    },
    {
      "inputs": [
        {
          "internalType": "address",
          "name": "_userAddr",
          "type": "address"
        },
        {
          "internalType": "address",
          "name": "_pool",
          "type": "address"
        }
      ],
      "name": "addDeposit",
      "outputs": [],
      "stateMutability": "nonpayable",
      "type": "function"
    },
    {
      "inputs": [
        {
          "internalType": "address",
          "name": "_userAddr",
          "type": "address"
        },
        {
          "internalType": "address",
          "name": "_pool",
          "type": "address"
        }
      ],
      "name": "withdrawDeposit",
      "outputs": [],
      "stateMutability": "nonpayable",
      "type": "function"
    },
    {
      "inputs": [
        {
          "internalType": "address",
          "name": "_pool",
          "type": "address"
        },
        {
          "internalType": "address",
          "name": "_owner",
          "type": "address"
        },
        {
          "internalType": "string",
          "name": "_name",
          "type": "string"
        }
      ],
      "name": "addVerifiedPools",
      "outputs": [],
      "stateMutability": "nonpayable",
      "type": "function"
    },
    {
      "inputs": [],
      "name": "getVerifiedPools",
      "outputs": [
        {
          "internalType": "address[]",
          "name": "",
          "type": "address[]"
        }
      ],
      "stateMutability": "view",
      "type": "function",
      "constant": true
    },
    {
      "inputs": [
        {
          "internalType": "address",
          "name": "_userAddr",
          "type": "address"
        }
      ],
      "name": "getUserDeposits",
      "outputs": [
        {
          "internalType": "address[]",
          "name": "",
          "type": "address[]"
        }
      ],
      "stateMutability": "view",
      "type": "function",
      "constant": true
    },
    {
      "inputs": [
        {
          "internalType": "address",
          "name": "_userAddr",
          "type": "address"
        }
      ],
      "name": "getUserOwned",
      "outputs": [
        {
          "internalType": "address[]",
          "name": "",
          "type": "address[]"
        }
      ],
      "stateMutability": "view",
      "type": "function",
      "constant": true
    },
    {
      "inputs": [
        {
          "internalType": "string",
          "name": "name",
          "type": "string"
        }
      ],
      "name": "getAddressFromName",
      "outputs": [
        {
          "internalType": "address",
          "name": "",
          "type": "address"
        }
      ],
      "stateMutability": "view",
      "type": "function",
      "constant": true
    }
  ],
  "bytecode": "0x608060405234801561001057600080fd5b5061119f806100206000396000f3fe608060405234801561001057600080fd5b506004361061007d5760003560e01c80633be273d61161005b5780633be273d6146100fe57806345cdf6421461011a5780638e61514e14610136578063b63ae6ee146101665761007d565b80631c1f905f146100825780632a5bf6d2146100b25780632f1c563e146100e2575b600080fd5b61009c60048036038101906100979190610b95565b610184565b6040516100a99190610c80565b60405180910390f35b6100cc60048036038101906100c79190610b95565b610251565b6040516100d99190610c80565b60405180910390f35b6100fc60048036038101906100f79190610ca2565b61031e565b005b61011860048036038101906101139190610ca2565b6104bf565b005b610134600480360381019061012f9190610e28565b6108cf565b005b610150600480360381019061014b9190610e97565b610a8b565b60405161015d9190610eef565b60405180910390f35b61016e610a95565b60405161017b9190610c80565b60405180910390f35b6060600260008373ffffffffffffffffffffffffffffffffffffffff1673ffffffffffffffffffffffffffffffffffffffff16815260200190815260200160002080548060200260200160405190810160405280929190818152602001828054801561024557602002820191906000526020600020905b8160009054906101000a900473ffffffffffffffffffffffffffffffffffffffff1673ffffffffffffffffffffffffffffffffffffffff16815260200190600101908083116101fb575b50505050509050919050565b6060600160008373ffffffffffffffffffffffffffffffffffffffff1673ffffffffffffffffffffffffffffffffffffffff16815260200190815260200160002080548060200260200160405190810160405280929190818152602001828054801561031257602002820191906000526020600020905b8160009054906101000a900473ffffffffffffffffffffffffffffffffffffffff1673ffffffffffffffffffffffffffffffffffffffff16815260200190600101908083116102c8575b50505050509050919050565b336000808273ffffffffffffffffffffffffffffffffffffffff1673ffffffffffffffffffffffffffffffffffffffff16815260200190815260200160002060009054906101000a900460ff166103aa576040517f08c379a00000000000000000000000000000000000000000000000000000000081526004016103a190610f8d565b60405180910390fd5b600160008473ffffffffffffffffffffffffffffffffffffffff1673ffffffffffffffffffffffffffffffffffffffff168152602001908152602001600020829080600181540180825580915050600190039060005260206000200160009091909190916101000a81548173ffffffffffffffffffffffffffffffffffffffff021916908373ffffffffffffffffffffffffffffffffffffffff1602179055507f81ba5b8ff9dd8503225df558117e2e7640a87c53418ab08237ad375c563a0dc3838360405161047b929190610fad565b60405180910390a17f274a386c22eb451962fea0499160d84da47852595d890c0d38b3e63fdd3867c0336040516104b29190610eef565b60405180910390a1505050565b336000808273ffffffffffffffffffffffffffffffffffffffff1673ffffffffffffffffffffffffffffffffffffffff16815260200190815260200160002060009054906101000a900460ff1661054b576040517f08c379a000000000000000000000000000000000000000000000000000000000815260040161054290610f8d565b60405180910390fd5b60005b60018060008673ffffffffffffffffffffffffffffffffffffffff1673ffffffffffffffffffffffffffffffffffffffff1681526020019081526020016000208054905061059c919061100f565b8160ff1610156107d5578273ffffffffffffffffffffffffffffffffffffffff16600160008673ffffffffffffffffffffffffffffffffffffffff1673ffffffffffffffffffffffffffffffffffffffff1681526020019081526020016000208260ff168154811061061157610610611043565b5b9060005260206000200160009054906101000a900473ffffffffffffffffffffffffffffffffffffffff1673ffffffffffffffffffffffffffffffffffffffff1614156107c257600160008573ffffffffffffffffffffffffffffffffffffffff1673ffffffffffffffffffffffffffffffffffffffff16815260200190815260200160002060018060008773ffffffffffffffffffffffffffffffffffffffff1673ffffffffffffffffffffffffffffffffffffffff168152602001908152602001600020805490506106e5919061100f565b815481106106f6576106f5611043565b5b9060005260206000200160009054906101000a900473ffffffffffffffffffffffffffffffffffffffff16600160008673ffffffffffffffffffffffffffffffffffffffff1673ffffffffffffffffffffffffffffffffffffffff1681526020019081526020016000208260ff168154811061077557610774611043565b5b9060005260206000200160006101000a81548173ffffffffffffffffffffffffffffffffffffffff021916908373ffffffffffffffffffffffffffffffffffffffff1602179055506107d5565b80806107cd9061107f565b91505061054e565b50600160008473ffffffffffffffffffffffffffffffffffffffff1673ffffffffffffffffffffffffffffffffffffffff168152602001908152602001600020805480610825576108246110a9565b5b6001900381819060005260206000200160006101000a81549073ffffffffffffffffffffffffffffffffffffffff021916905590557f96d37d4b9d9073b00191d43144d238a504757ba440e7708b7bad98762e32d40c838360405161088b929190610fad565b60405180910390a17f274a386c22eb451962fea0499160d84da47852595d890c0d38b3e63fdd3867c0336040516108c29190610eef565b60405180910390a1505050565b826003826040516108e09190611152565b908152602001604051809103902060006101000a81548173ffffffffffffffffffffffffffffffffffffffff021916908373ffffffffffffffffffffffffffffffffffffffff1602179055506004839080600181540180825580915050600190039060005260206000200160009091909190916101000a81548173ffffffffffffffffffffffffffffffffffffffff021916908373ffffffffffffffffffffffffffffffffffffffff160217905550600260008373ffffffffffffffffffffffffffffffffffffffff1673ffffffffffffffffffffffffffffffffffffffff168152602001908152602001600020839080600181540180825580915050600190039060005260206000200160009091909190916101000a81548173ffffffffffffffffffffffffffffffffffffffff021916908373ffffffffffffffffffffffffffffffffffffffff16021790555060016000808573ffffffffffffffffffffffffffffffffffffffff1673ffffffffffffffffffffffffffffffffffffffff16815260200190815260200160002060006101000a81548160ff021916908315150217905550505050565b6000309050919050565b60606004805480602002602001604051908101604052809291908181526020018280548015610b1957602002820191906000526020600020905b8160009054906101000a900473ffffffffffffffffffffffffffffffffffffffff1673ffffffffffffffffffffffffffffffffffffffff1681526020019060010190808311610acf575b5050505050905090565b6000604051905090565b600080fd5b600080fd5b600073ffffffffffffffffffffffffffffffffffffffff82169050919050565b6000610b6282610b37565b9050919050565b610b7281610b57565b8114610b7d57600080fd5b50565b600081359050610b8f81610b69565b92915050565b600060208284031215610bab57610baa610b2d565b5b6000610bb984828501610b80565b91505092915050565b600081519050919050565b600082825260208201905092915050565b6000819050602082019050919050565b610bf781610b57565b82525050565b6000610c098383610bee565b60208301905092915050565b6000602082019050919050565b6000610c2d82610bc2565b610c378185610bcd565b9350610c4283610bde565b8060005b83811015610c73578151610c5a8882610bfd565b9750610c6583610c15565b925050600181019050610c46565b5085935050505092915050565b60006020820190508181036000830152610c9a8184610c22565b905092915050565b60008060408385031215610cb957610cb8610b2d565b5b6000610cc785828601610b80565b9250506020610cd885828601610b80565b9150509250929050565b600080fd5b600080fd5b6000601f19601f8301169050919050565b7f4e487b7100000000000000000000000000000000000000000000000000000000600052604160045260246000fd5b610d3582610cec565b810181811067ffffffffffffffff82111715610d5457610d53610cfd565b5b80604052505050565b6000610d67610b23565b9050610d738282610d2c565b919050565b600067ffffffffffffffff821115610d9357610d92610cfd565b5b610d9c82610cec565b9050602081019050919050565b82818337600083830152505050565b6000610dcb610dc684610d78565b610d5d565b905082815260208101848484011115610de757610de6610ce7565b5b610df2848285610da9565b509392505050565b600082601f830112610e0f57610e0e610ce2565b5b8135610e1f848260208601610db8565b91505092915050565b600080600060608486031215610e4157610e40610b2d565b5b6000610e4f86828701610b80565b9350506020610e6086828701610b80565b925050604084013567ffffffffffffffff811115610e8157610e80610b32565b5b610e8d86828701610dfa565b9150509250925092565b600060208284031215610ead57610eac610b2d565b5b600082013567ffffffffffffffff811115610ecb57610eca610b32565b5b610ed784828501610dfa565b91505092915050565b610ee981610b57565b82525050565b6000602082019050610f046000830184610ee0565b92915050565b600082825260208201905092915050565b7f746869732066756e6374696f6e206d7573742062652063616c6c65642066726f60008201527f6d206120706f6f6c000000000000000000000000000000000000000000000000602082015250565b6000610f77602883610f0a565b9150610f8282610f1b565b604082019050919050565b60006020820190508181036000830152610fa681610f6a565b9050919050565b6000604082019050610fc26000830185610ee0565b610fcf6020830184610ee0565b9392505050565b6000819050919050565b7f4e487b7100000000000000000000000000000000000000000000000000000000600052601160045260246000fd5b600061101a82610fd6565b915061102583610fd6565b92508282101561103857611037610fe0565b5b828203905092915050565b7f4e487b7100000000000000000000000000000000000000000000000000000000600052603260045260246000fd5b600060ff82169050919050565b600061108a82611072565b915060ff82141561109e5761109d610fe0565b5b600182019050919050565b7f4e487b7100000000000000000000000000000000000000000000000000000000600052603160045260246000fd5b600081519050919050565b600081905092915050565b60005b8381101561110c5780820151818401526020810190506110f1565b8381111561111b576000848401525b50505050565b600061112c826110d8565b61113681856110e3565b93506111468185602086016110ee565b80840191505092915050565b600061115e8284611121565b91508190509291505056fea2646970667358221220610f921e010b9e8c70b397853b22f026ec70e701df797bf2c861a61ee6bd208264736f6c63430008090033",
  "immutableReferences": {},
  "source": "// SPDX-License-Identifier: agpl-3.0\npragma solidity 0.8.9;\n\ncontract PoolTracker {\n\n    //contract addresses will point to bool if they exist\n    mapping(address => bool) private isPool;\n    mapping(address => address[]) private depositors;\n    mapping(address => address[]) private owners;\n    mapping(string => address) private names;\n    address[] private verifiedPools;\n\n    event AddVerifiedPools(address addressToAdd);\n    event AddDeposit(address _userAddr, address _pool);\n    event WithdrawDeposit(address _userAddr, address _pool);\n    event OwnerAddress(address _owner, address _pool);\n\n    event MessageSentBy(address sentBy);\n\n    modifier onlyPools(address _pool){\n        require(isPool[_pool], \"this function must be called from a pool\");\n        _;\n    }\n\n    function addDeposit(address _userAddr, address _pool) onlyPools(msg.sender) external {\n        depositors[_userAddr].push(_pool);\n        emit AddDeposit(_userAddr, _pool);\n        emit MessageSentBy(msg.sender);\n    }\n\n    function withdrawDeposit(address _userAddr, address _pool) onlyPools(msg.sender) external {\n        for(uint8 i = 0; i < depositors[_userAddr].length -1; i++){\n            if(depositors[_userAddr][i] == _pool){\n                depositors[_userAddr][i] = depositors[_userAddr][depositors[_userAddr].length - 1];\n                break;\n            }\n        }\n        depositors[_userAddr].pop();\n        emit WithdrawDeposit(_userAddr, _pool);\n        emit MessageSentBy(msg.sender);\n    }\n\n    function addVerifiedPools(address _pool, address _owner, string memory _name) external {\n        //require(names[_name] == address(0), \"pool with name already exists\");\n        names[_name] =  _pool;\n        verifiedPools.push( _pool);\n        owners[_owner].push( _pool);\n        isPool[_pool] = true;\n        //emit AddVerifiedPools(_pool);\n        //emit MessageSentBy(msg.sender);\n    }\n\n    function getVerifiedPools() public view returns(address [] memory){\n        return verifiedPools;\n    }\n\n    function getUserDeposits(address _userAddr) external view returns(address[] memory){\n        return depositors[_userAddr];\n    }\n\n    function getUserOwned(address _userAddr) external view returns(address[] memory){\n        return owners[_userAddr];\n    }\n\n    function getAddressFromName(string memory name) external view returns(address){\n        return address(this);//names[name];\n    }\n}",
  "sourcePath": "/home/smeee/just_cause/contracts/PoolTracker.sol",
  "compiler": {
    "name": "solc",
    "version": "0.8.9+commit.e5eed63a.Emscripten.clang"
  },
  "schemaVersion": "3.4.3",
  "updatedAt": "2021-11-04T04:01:21.181Z",
  "networkType": "ethereum",
  "devdoc": {
    "kind": "dev",
    "methods": {},
    "version": 1
  },
  "userdoc": {
    "kind": "user",
    "methods": {},
    "version": 1
  }
}