{
  "contractName": "PoolMock",
  "abi": [
    {
      "inputs": [
        {
          "internalType": "address",
          "name": "_aToken",
          "type": "address"
        },
        {
          "internalType": "address",
          "name": "_testToken_1",
          "type": "address"
        },
        {
          "internalType": "address",
          "name": "_testToken_2",
          "type": "address"
        },
        {
          "internalType": "address",
          "name": "_wethToken",
          "type": "address"
        },
        {
          "internalType": "address",
          "name": "_aWethToken",
          "type": "address"
        }
      ],
      "name": "setTestTokens",
      "outputs": [],
      "stateMutability": "nonpayable",
      "type": "function"
    },
    {
      "inputs": [
        {
          "internalType": "address",
          "name": "asset",
          "type": "address"
        },
        {
          "internalType": "uint256",
          "name": "amount",
          "type": "uint256"
        },
        {
          "internalType": "address",
          "name": "onBehalfOf",
          "type": "address"
        },
        {
          "internalType": "uint16",
          "name": "referralCode",
          "type": "uint16"
        }
      ],
      "name": "deposit",
      "outputs": [],
      "stateMutability": "nonpayable",
      "type": "function"
    },
    {
      "inputs": [
        {
          "internalType": "address",
          "name": "asset",
          "type": "address"
        },
        {
          "internalType": "uint256",
          "name": "amount",
          "type": "uint256"
        },
        {
          "internalType": "address",
          "name": "to",
          "type": "address"
        }
      ],
      "name": "withdraw",
      "outputs": [
        {
          "internalType": "uint256",
          "name": "",
          "type": "uint256"
        }
      ],
      "stateMutability": "nonpayable",
      "type": "function"
    },
    {
      "inputs": [],
      "name": "getReservesList",
      "outputs": [
        {
          "internalType": "address[]",
          "name": "",
          "type": "address[]"
        }
      ],
      "stateMutability": "view",
      "type": "function"
    },
    {
      "inputs": [
        {
          "internalType": "address",
          "name": "_asset",
          "type": "address"
        }
      ],
      "name": "getReserveData",
      "outputs": [
        {
          "components": [
            {
              "components": [
                {
                  "internalType": "uint256",
                  "name": "data",
                  "type": "uint256"
                }
              ],
              "internalType": "struct DataTypes.ReserveConfigurationMap",
              "name": "configuration",
              "type": "tuple"
            },
            {
              "internalType": "uint128",
              "name": "liquidityIndex",
              "type": "uint128"
            },
            {
              "internalType": "uint128",
              "name": "currentLiquidityRate",
              "type": "uint128"
            },
            {
              "internalType": "uint128",
              "name": "variableBorrowIndex",
              "type": "uint128"
            },
            {
              "internalType": "uint128",
              "name": "currentVariableBorrowRate",
              "type": "uint128"
            },
            {
              "internalType": "uint128",
              "name": "currentStableBorrowRate",
              "type": "uint128"
            },
            {
              "internalType": "uint40",
              "name": "lastUpdateTimestamp",
              "type": "uint40"
            },
            {
              "internalType": "uint16",
              "name": "id",
              "type": "uint16"
            },
            {
              "internalType": "address",
              "name": "aTokenAddress",
              "type": "address"
            },
            {
              "internalType": "address",
              "name": "stableDebtTokenAddress",
              "type": "address"
            },
            {
              "internalType": "address",
              "name": "variableDebtTokenAddress",
              "type": "address"
            },
            {
              "internalType": "address",
              "name": "interestRateStrategyAddress",
              "type": "address"
            },
            {
              "internalType": "uint128",
              "name": "accruedToTreasury",
              "type": "uint128"
            },
            {
              "internalType": "uint128",
              "name": "unbacked",
              "type": "uint128"
            },
            {
              "internalType": "uint128",
              "name": "isolationModeTotalDebt",
              "type": "uint128"
            }
          ],
          "internalType": "struct DataTypes.ReserveData",
          "name": "",
          "type": "tuple"
        }
      ],
      "stateMutability": "view",
      "type": "function"
    },
    {
      "inputs": [
        {
          "internalType": "address",
          "name": "_asset",
          "type": "address"
        }
      ],
      "name": "getReserveNormalizedIncome",
      "outputs": [
        {
          "internalType": "uint256",
          "name": "",
          "type": "uint256"
        }
      ],
      "stateMutability": "pure",
      "type": "function"
    }
  ],
  "bytecode": "0x608060405234801561001057600080fd5b5061259e806100206000396000f3fe608060405234801561001057600080fd5b50600436106100625760003560e01c806335ea6a75146100675780634243573d1461009757806369328dec146100b3578063d15e0053146100e3578063d1946dbc14610113578063e8eda9df14610131575b600080fd5b610081600480360381019061007c9190611f10565b61014d565b60405161008e919061211e565b60405180910390f35b6100b160048036038101906100ac919061213a565b6105b5565b005b6100cd60048036038101906100c891906121e1565b6118cf565b6040516100da9190612243565b60405180910390f35b6100fd60048036038101906100f89190611f10565b611a83565b60405161010a9190612243565b60405180910390f35b61011b611b01565b604051610128919061230d565b60405180910390f35b61014b6004803603810190610146919061235b565b611b8f565b005b610155611d2b565b6000808373ffffffffffffffffffffffffffffffffffffffff1673ffffffffffffffffffffffffffffffffffffffff168152602001908152602001600020604051806101e00160405290816000820160405180602001604052908160008201548152505081526020016001820160009054906101000a90046fffffffffffffffffffffffffffffffff166fffffffffffffffffffffffffffffffff166fffffffffffffffffffffffffffffffff1681526020016001820160109054906101000a90046fffffffffffffffffffffffffffffffff166fffffffffffffffffffffffffffffffff166fffffffffffffffffffffffffffffffff1681526020016002820160009054906101000a90046fffffffffffffffffffffffffffffffff166fffffffffffffffffffffffffffffffff166fffffffffffffffffffffffffffffffff1681526020016002820160109054906101000a90046fffffffffffffffffffffffffffffffff166fffffffffffffffffffffffffffffffff166fffffffffffffffffffffffffffffffff1681526020016003820160009054906101000a90046fffffffffffffffffffffffffffffffff166fffffffffffffffffffffffffffffffff166fffffffffffffffffffffffffffffffff1681526020016003820160109054906101000a900464ffffffffff1664ffffffffff1664ffffffffff1681526020016003820160159054906101000a900461ffff1661ffff1661ffff1681526020016004820160009054906101000a900473ffffffffffffffffffffffffffffffffffffffff1673ffffffffffffffffffffffffffffffffffffffff1673ffffffffffffffffffffffffffffffffffffffff1681526020016005820160009054906101000a900473ffffffffffffffffffffffffffffffffffffffff1673ffffffffffffffffffffffffffffffffffffffff1673ffffffffffffffffffffffffffffffffffffffff1681526020016006820160009054906101000a900473ffffffffffffffffffffffffffffffffffffffff1673ffffffffffffffffffffffffffffffffffffffff1673ffffffffffffffffffffffffffffffffffffffff1681526020016007820160009054906101000a900473ffffffffffffffffffffffffffffffffffffffff1673ffffffffffffffffffffffffffffffffffffffff1673ffffffffffffffffffffffffffffffffffffffff1681526020016008820160009054906101000a90046fffffffffffffffffffffffffffffffff166fffffffffffffffffffffffffffffffff166fffffffffffffffffffffffffffffffff1681526020016008820160109054906101000a90046fffffffffffffffffffffffffffffffff166fffffffffffffffffffffffffffffffff166fffffffffffffffffffffffffffffffff1681526020016009820160009054906101000a90046fffffffffffffffffffffffffffffffff166fffffffffffffffffffffffffffffffff166fffffffffffffffffffffffffffffffff16815250509050919050565b84600160006101000a81548173ffffffffffffffffffffffffffffffffffffffff021916908373ffffffffffffffffffffffffffffffffffffffff16021790555083600260006101000a81548173ffffffffffffffffffffffffffffffffffffffff021916908373ffffffffffffffffffffffffffffffffffffffff1602179055506003849080600181540180825580915050600190039060005260206000200160009091909190916101000a81548173ffffffffffffffffffffffffffffffffffffffff021916908373ffffffffffffffffffffffffffffffffffffffff1602179055506003839080600181540180825580915050600190039060005260206000200160009091909190916101000a81548173ffffffffffffffffffffffffffffffffffffffff021916908373ffffffffffffffffffffffffffffffffffffffff1602179055506003829080600181540180825580915050600190039060005260206000200160009091909190916101000a81548173ffffffffffffffffffffffffffffffffffffffff021916908373ffffffffffffffffffffffffffffffffffffffff16021790555084600460008673ffffffffffffffffffffffffffffffffffffffff1673ffffffffffffffffffffffffffffffffffffffff16815260200190815260200160002060006101000a81548173ffffffffffffffffffffffffffffffffffffffff021916908373ffffffffffffffffffffffffffffffffffffffff16021790555084600460008573ffffffffffffffffffffffffffffffffffffffff1673ffffffffffffffffffffffffffffffffffffffff16815260200190815260200160002060006101000a81548173ffffffffffffffffffffffffffffffffffffffff021916908373ffffffffffffffffffffffffffffffffffffffff16021790555080600460008473ffffffffffffffffffffffffffffffffffffffff1673ffffffffffffffffffffffffffffffffffffffff16815260200190815260200160002060006101000a81548173ffffffffffffffffffffffffffffffffffffffff021916908373ffffffffffffffffffffffffffffffffffffffff1602179055506104d2600080600260009054906101000a900473ffffffffffffffffffffffffffffffffffffffff1673ffffffffffffffffffffffffffffffffffffffff1673ffffffffffffffffffffffffffffffffffffffff16815260200190815260200160002060010160006101000a8154816fffffffffffffffffffffffffffffffff02191690836fffffffffffffffffffffffffffffffff1602179055506105c6600080600260009054906101000a900473ffffffffffffffffffffffffffffffffffffffff1673ffffffffffffffffffffffffffffffffffffffff1673ffffffffffffffffffffffffffffffffffffffff16815260200190815260200160002060010160106101000a8154816fffffffffffffffffffffffffffffffff02191690836fffffffffffffffffffffffffffffffff16021790555061237f600080600260009054906101000a900473ffffffffffffffffffffffffffffffffffffffff1673ffffffffffffffffffffffffffffffffffffffff1673ffffffffffffffffffffffffffffffffffffffff16815260200190815260200160002060020160006101000a8154816fffffffffffffffffffffffffffffffff02191690836fffffffffffffffffffffffffffffffff16021790555061237f600080600260009054906101000a900473ffffffffffffffffffffffffffffffffffffffff1673ffffffffffffffffffffffffffffffffffffffff1673ffffffffffffffffffffffffffffffffffffffff16815260200190815260200160002060020160106101000a8154816fffffffffffffffffffffffffffffffff02191690836fffffffffffffffffffffffffffffffff16021790555061237f600080600260009054906101000a900473ffffffffffffffffffffffffffffffffffffffff1673ffffffffffffffffffffffffffffffffffffffff1673ffffffffffffffffffffffffffffffffffffffff16815260200190815260200160002060030160006101000a8154816fffffffffffffffffffffffffffffffff02191690836fffffffffffffffffffffffffffffffff16021790555061237f600080600260009054906101000a900473ffffffffffffffffffffffffffffffffffffffff1673ffffffffffffffffffffffffffffffffffffffff1673ffffffffffffffffffffffffffffffffffffffff16815260200190815260200160002060030160106101000a81548164ffffffffff021916908364ffffffffff16021790555061237f600080600260009054906101000a900473ffffffffffffffffffffffffffffffffffffffff1673ffffffffffffffffffffffffffffffffffffffff1673ffffffffffffffffffffffffffffffffffffffff16815260200190815260200160002060030160156101000a81548161ffff021916908361ffff160217905550600160009054906101000a900473ffffffffffffffffffffffffffffffffffffffff16600080600260009054906101000a900473ffffffffffffffffffffffffffffffffffffffff1673ffffffffffffffffffffffffffffffffffffffff1673ffffffffffffffffffffffffffffffffffffffff16815260200190815260200160002060040160006101000a81548173ffffffffffffffffffffffffffffffffffffffff021916908373ffffffffffffffffffffffffffffffffffffffff160217905550600160009054906101000a900473ffffffffffffffffffffffffffffffffffffffff16600080600260009054906101000a900473ffffffffffffffffffffffffffffffffffffffff1673ffffffffffffffffffffffffffffffffffffffff1673ffffffffffffffffffffffffffffffffffffffff16815260200190815260200160002060050160006101000a81548173ffffffffffffffffffffffffffffffffffffffff021916908373ffffffffffffffffffffffffffffffffffffffff160217905550600160009054906101000a900473ffffffffffffffffffffffffffffffffffffffff16600080600260009054906101000a900473ffffffffffffffffffffffffffffffffffffffff1673ffffffffffffffffffffffffffffffffffffffff1673ffffffffffffffffffffffffffffffffffffffff16815260200190815260200160002060060160006101000a81548173ffffffffffffffffffffffffffffffffffffffff021916908373ffffffffffffffffffffffffffffffffffffffff160217905550600160009054906101000a900473ffffffffffffffffffffffffffffffffffffffff16600080600260009054906101000a900473ffffffffffffffffffffffffffffffffffffffff1673ffffffffffffffffffffffffffffffffffffffff1673ffffffffffffffffffffffffffffffffffffffff16815260200190815260200160002060070160006101000a81548173ffffffffffffffffffffffffffffffffffffffff021916908373ffffffffffffffffffffffffffffffffffffffff16021790555061237f600080600260009054906101000a900473ffffffffffffffffffffffffffffffffffffffff1673ffffffffffffffffffffffffffffffffffffffff1673ffffffffffffffffffffffffffffffffffffffff16815260200190815260200160002060080160006101000a8154816fffffffffffffffffffffffffffffffff02191690836fffffffffffffffffffffffffffffffff16021790555061237f600080600260009054906101000a900473ffffffffffffffffffffffffffffffffffffffff1673ffffffffffffffffffffffffffffffffffffffff1673ffffffffffffffffffffffffffffffffffffffff16815260200190815260200160002060080160106101000a8154816fffffffffffffffffffffffffffffffff02191690836fffffffffffffffffffffffffffffffff16021790555061237f600080600260009054906101000a900473ffffffffffffffffffffffffffffffffffffffff1673ffffffffffffffffffffffffffffffffffffffff1673ffffffffffffffffffffffffffffffffffffffff16815260200190815260200160002060090160006101000a8154816fffffffffffffffffffffffffffffffff02191690836fffffffffffffffffffffffffffffffff1602179055506104d26000808473ffffffffffffffffffffffffffffffffffffffff1673ffffffffffffffffffffffffffffffffffffffff16815260200190815260200160002060010160006101000a8154816fffffffffffffffffffffffffffffffff02191690836fffffffffffffffffffffffffffffffff1602179055506105c66000808473ffffffffffffffffffffffffffffffffffffffff1673ffffffffffffffffffffffffffffffffffffffff16815260200190815260200160002060010160106101000a8154816fffffffffffffffffffffffffffffffff02191690836fffffffffffffffffffffffffffffffff16021790555061237f6000808473ffffffffffffffffffffffffffffffffffffffff1673ffffffffffffffffffffffffffffffffffffffff16815260200190815260200160002060020160006101000a8154816fffffffffffffffffffffffffffffffff02191690836fffffffffffffffffffffffffffffffff16021790555061237f6000808473ffffffffffffffffffffffffffffffffffffffff1673ffffffffffffffffffffffffffffffffffffffff16815260200190815260200160002060020160106101000a8154816fffffffffffffffffffffffffffffffff02191690836fffffffffffffffffffffffffffffffff16021790555061237f6000808473ffffffffffffffffffffffffffffffffffffffff1673ffffffffffffffffffffffffffffffffffffffff16815260200190815260200160002060030160006101000a8154816fffffffffffffffffffffffffffffffff02191690836fffffffffffffffffffffffffffffffff16021790555061237f6000808473ffffffffffffffffffffffffffffffffffffffff1673ffffffffffffffffffffffffffffffffffffffff16815260200190815260200160002060030160106101000a81548164ffffffffff021916908364ffffffffff16021790555061237f6000808473ffffffffffffffffffffffffffffffffffffffff1673ffffffffffffffffffffffffffffffffffffffff16815260200190815260200160002060030160156101000a81548161ffff021916908361ffff160217905550806000808473ffffffffffffffffffffffffffffffffffffffff1673ffffffffffffffffffffffffffffffffffffffff16815260200190815260200160002060040160006101000a81548173ffffffffffffffffffffffffffffffffffffffff021916908373ffffffffffffffffffffffffffffffffffffffff160217905550600160009054906101000a900473ffffffffffffffffffffffffffffffffffffffff166000808473ffffffffffffffffffffffffffffffffffffffff1673ffffffffffffffffffffffffffffffffffffffff16815260200190815260200160002060050160006101000a81548173ffffffffffffffffffffffffffffffffffffffff021916908373ffffffffffffffffffffffffffffffffffffffff160217905550600160009054906101000a900473ffffffffffffffffffffffffffffffffffffffff166000808473ffffffffffffffffffffffffffffffffffffffff1673ffffffffffffffffffffffffffffffffffffffff16815260200190815260200160002060060160006101000a81548173ffffffffffffffffffffffffffffffffffffffff021916908373ffffffffffffffffffffffffffffffffffffffff160217905550600160009054906101000a900473ffffffffffffffffffffffffffffffffffffffff166000808473ffffffffffffffffffffffffffffffffffffffff1673ffffffffffffffffffffffffffffffffffffffff16815260200190815260200160002060070160006101000a81548173ffffffffffffffffffffffffffffffffffffffff021916908373ffffffffffffffffffffffffffffffffffffffff16021790555061237f6000808473ffffffffffffffffffffffffffffffffffffffff1673ffffffffffffffffffffffffffffffffffffffff16815260200190815260200160002060080160006101000a8154816fffffffffffffffffffffffffffffffff02191690836fffffffffffffffffffffffffffffffff16021790555061237f6000808473ffffffffffffffffffffffffffffffffffffffff1673ffffffffffffffffffffffffffffffffffffffff16815260200190815260200160002060080160106101000a8154816fffffffffffffffffffffffffffffffff02191690836fffffffffffffffffffffffffffffffff16021790555061237f6000808473ffffffffffffffffffffffffffffffffffffffff1673ffffffffffffffffffffffffffffffffffffffff16815260200190815260200160002060090160006101000a8154816fffffffffffffffffffffffffffffffff02191690836fffffffffffffffffffffffffffffffff1602179055505050505050565b60008073ffffffffffffffffffffffffffffffffffffffff168473ffffffffffffffffffffffffffffffffffffffff161415611940576040517f08c379a00000000000000000000000000000000000000000000000000000000081526004016119379061241f565b60405180910390fd5b8373ffffffffffffffffffffffffffffffffffffffff166340c10f1983856040518363ffffffff1660e01b815260040161197b92919061244e565b600060405180830381600087803b15801561199557600080fd5b505af11580156119a9573d6000803e3d6000fd5b50505050600460008573ffffffffffffffffffffffffffffffffffffffff1673ffffffffffffffffffffffffffffffffffffffff16815260200190815260200160002060009054906101000a900473ffffffffffffffffffffffffffffffffffffffff1673ffffffffffffffffffffffffffffffffffffffff16639dc29fac33856040518363ffffffff1660e01b8152600401611a4792919061244e565b600060405180830381600087803b158015611a6157600080fd5b505af1158015611a75573d6000803e3d6000fd5b505050508290509392505050565b60008073ffffffffffffffffffffffffffffffffffffffff168273ffffffffffffffffffffffffffffffffffffffff161415611af4576040517f08c379a0000000000000000000000000000000000000000000000000000000008152600401611aeb9061241f565b60405180910390fd5b6401ce4281a29050919050565b60606003805480602002602001604051908101604052809291908181526020018280548015611b8557602002820191906000526020600020905b8160009054906101000a900473ffffffffffffffffffffffffffffffffffffffff1673ffffffffffffffffffffffffffffffffffffffff1681526020019060010190808311611b3b575b5050505050905090565b600073ffffffffffffffffffffffffffffffffffffffff168473ffffffffffffffffffffffffffffffffffffffff161415611bff576040517f08c379a0000000000000000000000000000000000000000000000000000000008152600401611bf69061241f565b60405180910390fd5b60008161ffff1614611c46576040517f08c379a0000000000000000000000000000000000000000000000000000000008152600401611c3d906124c3565b60405180910390fd5b600460008573ffffffffffffffffffffffffffffffffffffffff1673ffffffffffffffffffffffffffffffffffffffff16815260200190815260200160002060009054906101000a900473ffffffffffffffffffffffffffffffffffffffff1673ffffffffffffffffffffffffffffffffffffffff166340c10f1983670de0b6b3a764000086611cd69190612512565b6040518363ffffffff1660e01b8152600401611cf392919061244e565b600060405180830381600087803b158015611d0d57600080fd5b505af1158015611d21573d6000803e3d6000fd5b5050505050505050565b604051806101e00160405280611d3f611e9a565b815260200160006fffffffffffffffffffffffffffffffff16815260200160006fffffffffffffffffffffffffffffffff16815260200160006fffffffffffffffffffffffffffffffff16815260200160006fffffffffffffffffffffffffffffffff16815260200160006fffffffffffffffffffffffffffffffff168152602001600064ffffffffff168152602001600061ffff168152602001600073ffffffffffffffffffffffffffffffffffffffff168152602001600073ffffffffffffffffffffffffffffffffffffffff168152602001600073ffffffffffffffffffffffffffffffffffffffff168152602001600073ffffffffffffffffffffffffffffffffffffffff16815260200160006fffffffffffffffffffffffffffffffff16815260200160006fffffffffffffffffffffffffffffffff16815260200160006fffffffffffffffffffffffffffffffff1681525090565b6040518060200160405280600081525090565b600080fd5b600073ffffffffffffffffffffffffffffffffffffffff82169050919050565b6000611edd82611eb2565b9050919050565b611eed81611ed2565b8114611ef857600080fd5b50565b600081359050611f0a81611ee4565b92915050565b600060208284031215611f2657611f25611ead565b5b6000611f3484828501611efb565b91505092915050565b6000819050919050565b611f5081611f3d565b82525050565b602082016000820151611f6c6000850182611f47565b50505050565b60006fffffffffffffffffffffffffffffffff82169050919050565b611f9781611f72565b82525050565b600064ffffffffff82169050919050565b611fb781611f9d565b82525050565b600061ffff82169050919050565b611fd481611fbd565b82525050565b611fe381611ed2565b82525050565b6101e0820160008201516120006000850182611f56565b5060208201516120136020850182611f8e565b5060408201516120266040850182611f8e565b5060608201516120396060850182611f8e565b50608082015161204c6080850182611f8e565b5060a082015161205f60a0850182611f8e565b5060c082015161207260c0850182611fae565b5060e082015161208560e0850182611fcb565b5061010082015161209a610100850182611fda565b506101208201516120af610120850182611fda565b506101408201516120c4610140850182611fda565b506101608201516120d9610160850182611fda565b506101808201516120ee610180850182611f8e565b506101a08201516121036101a0850182611f8e565b506101c08201516121186101c0850182611f8e565b50505050565b60006101e0820190506121346000830184611fe9565b92915050565b600080600080600060a0868803121561215657612155611ead565b5b600061216488828901611efb565b955050602061217588828901611efb565b945050604061218688828901611efb565b935050606061219788828901611efb565b92505060806121a888828901611efb565b9150509295509295909350565b6121be81611f3d565b81146121c957600080fd5b50565b6000813590506121db816121b5565b92915050565b6000806000606084860312156121fa576121f9611ead565b5b600061220886828701611efb565b9350506020612219868287016121cc565b925050604061222a86828701611efb565b9150509250925092565b61223d81611f3d565b82525050565b60006020820190506122586000830184612234565b92915050565b600081519050919050565b600082825260208201905092915050565b6000819050602082019050919050565b60006122968383611fda565b60208301905092915050565b6000602082019050919050565b60006122ba8261225e565b6122c48185612269565b93506122cf8361227a565b8060005b838110156123005781516122e7888261228a565b97506122f2836122a2565b9250506001810190506122d3565b5085935050505092915050565b6000602082019050818103600083015261232781846122af565b905092915050565b61233881611fbd565b811461234357600080fd5b50565b6000813590506123558161232f565b92915050565b6000806000806080858703121561237557612374611ead565b5b600061238387828801611efb565b9450506020612394878288016121cc565b93505060406123a587828801611efb565b92505060606123b687828801612346565b91505092959194509250565b600082825260208201905092915050565b7f61737365742063616e6e6f74206265206275726e206164647265737300000000600082015250565b6000612409601c836123c2565b9150612414826123d3565b602082019050919050565b60006020820190508181036000830152612438816123fc565b9050919050565b61244881611ed2565b82525050565b6000604082019050612463600083018561243f565b6124706020830184612234565b9392505050565b7f7465737420726566657272616c20636f6465206d757374206265203000000000600082015250565b60006124ad601c836123c2565b91506124b882612477565b602082019050919050565b600060208201905081810360008301526124dc816124a0565b9050919050565b7f4e487b7100000000000000000000000000000000000000000000000000000000600052601160045260246000fd5b600061251d82611f3d565b915061252883611f3d565b9250827fffffffffffffffffffffffffffffffffffffffffffffffffffffffffffffffff0382111561255d5761255c6124e3565b5b82820190509291505056fea264697066735822122097b731fc515cd5d25c8ffbe4b4fe8e752f802f5a3d5e39db0d569691607e3c3e64736f6c63430008090033",
  "immutableReferences": {},
  "source": "// SPDX-License-Identifier: AGPL-3.0\npragma solidity 0.8.9;\n\nimport { IERC20} from '../polygon/interfaces/other/IERC20.sol';\nimport { ITestToken } from '../polygon/interfaces/test/ITestToken.sol';\nimport { DataTypes } from \"../polygon/libraries/DataTypes.sol\";\n\ncontract PoolMock {\n\n  mapping(address => DataTypes.ReserveData) internal _reserves;\n\n  address aToken;\n  address testToken;\n  address[] aaveAcceptedTokens;\n  uint256 constant INTEREST = 1000000000000000000;\n  uint256 constant RESERVE_NORMALIZED_INCOME = 7755432354;\n  mapping(address => address) aTokens;\n\n  function setTestTokens(address _aToken, address _testToken_1, address _testToken_2, address _wethToken, address _aWethToken) external {\n    aToken = _aToken;\n    testToken = _testToken_1;\n    aaveAcceptedTokens.push(_testToken_1);\n    aaveAcceptedTokens.push(_testToken_2);\n    aaveAcceptedTokens.push(_wethToken);\n\n    aTokens[_testToken_1] = _aToken;\n    aTokens[_testToken_2] = _aToken;\n    aTokens[_wethToken] = _aWethToken;\n\n    _reserves[testToken].liquidityIndex = 1234;\n    _reserves[testToken].currentLiquidityRate = 1478;\n    _reserves[testToken].variableBorrowIndex = 9087;\n    _reserves[testToken].currentVariableBorrowRate = 9087;\n    _reserves[testToken].currentStableBorrowRate = 9087;\n    _reserves[testToken].lastUpdateTimestamp = 9087;\n    _reserves[testToken].id = 9087;\n    _reserves[testToken].aTokenAddress = aToken;\n    _reserves[testToken].stableDebtTokenAddress = aToken;\n    _reserves[testToken].variableDebtTokenAddress = aToken;\n    _reserves[testToken].interestRateStrategyAddress = aToken;\n    _reserves[testToken].accruedToTreasury = 9087;\n    _reserves[testToken].unbacked = 9087;\n    _reserves[testToken].isolationModeTotalDebt = 9087;\n\n    _reserves[_wethToken].liquidityIndex = 1234;\n    _reserves[_wethToken].currentLiquidityRate = 1478;\n    _reserves[_wethToken].variableBorrowIndex = 9087;\n    _reserves[_wethToken].currentVariableBorrowRate = 9087;\n    _reserves[_wethToken].currentStableBorrowRate = 9087;\n    _reserves[_wethToken].lastUpdateTimestamp = 9087;\n    _reserves[_wethToken].id = 9087;\n    _reserves[_wethToken].aTokenAddress = _aWethToken;\n    _reserves[_wethToken].stableDebtTokenAddress = aToken;\n    _reserves[_wethToken].variableDebtTokenAddress = aToken;\n    _reserves[_wethToken].interestRateStrategyAddress = aToken;\n    _reserves[_wethToken].accruedToTreasury = 9087;\n    _reserves[_wethToken].unbacked = 9087;\n    _reserves[_wethToken].isolationModeTotalDebt = 9087;\n  }\n    /**\n   * @dev Deposits an `amount` of underlying asset into the reserve, receiving in return overlying aTokens.\n   * - E.g. User deposits 100 USDC and gets in return 100 aUSDC\n   * @param asset The address of the underlying asset to deposit\n   * @param amount The amount to be deposited\n   * @param onBehalfOf The address that will receive the aTokens, same as msg.sender if the user\n   *   wants to receive them on his own wallet, or a different address if the beneficiary of aTokens\n   *   is a different wallet\n   * @param referralCode Code used to register the integrator originating the operation, for potential rewards.\n   *   0 if the action is executed directly by the user, without any middle-man\n   **/\n    function deposit(\n    address asset,\n    uint256 amount,\n    address onBehalfOf,\n    uint16 referralCode\n  ) external {\n      require(asset != address(0x0), \"asset cannot be burn address\");\n      require(referralCode == 0, \"test referral code must be 0\");\n      ITestToken(aTokens[asset]).mint(onBehalfOf, amount+INTEREST);\n  }\n\n    /**\n   * @notice Withdraws an `amount` of underlying asset from the reserve, burning the equivalent aTokens owned\n   * E.g. User has 100 aUSDC, calls withdraw() and receives 100 USDC, burning the 100 aUSDC\n   * @param asset The address of the underlying asset to withdraw\n   * @param amount The underlying amount to be withdrawn\n   *   - Send the value type(uint256).max in order to withdraw the whole aToken balance\n   * @param to The address that will receive the underlying, same as msg.sender if the user\n   *   wants to receive it on his own wallet, or a different address if the beneficiary is a\n   *   different wallet\n   * @return The final amount withdrawn\n   **/\n  function withdraw(\n    address asset,\n    uint256 amount,\n    address to\n  ) external returns (uint256){\n      require(asset != address(0x0), \"asset cannot be burn address\");\n      ITestToken(asset).mint(to, amount);\n      ITestToken(aTokens[asset]).burn(msg.sender, amount);\n      return amount;\n  }\n\n  function getReservesList() external view returns (address[] memory){\n    return aaveAcceptedTokens;\n  }\n  function getReserveData(address _asset) external view returns(DataTypes.ReserveData memory) {\n    return _reserves[_asset];\n  }\n\n  function getReserveNormalizedIncome(address _asset) external pure returns(uint256) {\n    require(_asset != address(0x0), \"asset cannot be burn address\");\n    return RESERVE_NORMALIZED_INCOME;\n  }\n}",
  "sourcePath": "/home/smeee/just_cause/contracts/test/PoolMock.sol",
  "compiler": {
    "name": "solc",
    "version": "0.8.9+commit.e5eed63a.Emscripten.clang"
  },
  "schemaVersion": "3.4.7",
  "updatedAt": "2022-07-20T02:21:58.926Z",
  "networkType": "ethereum",
  "devdoc": {
    "kind": "dev",
    "methods": {
      "deposit(address,uint256,address,uint16)": {
        "details": "Deposits an `amount` of underlying asset into the reserve, receiving in return overlying aTokens. - E.g. User deposits 100 USDC and gets in return 100 aUSDC",
        "params": {
          "amount": "The amount to be deposited",
          "asset": "The address of the underlying asset to deposit",
          "onBehalfOf": "The address that will receive the aTokens, same as msg.sender if the user   wants to receive them on his own wallet, or a different address if the beneficiary of aTokens   is a different wallet",
          "referralCode": "Code used to register the integrator originating the operation, for potential rewards.   0 if the action is executed directly by the user, without any middle-man*"
        }
      },
      "withdraw(address,uint256,address)": {
        "params": {
          "amount": "The underlying amount to be withdrawn   - Send the value type(uint256).max in order to withdraw the whole aToken balance",
          "asset": "The address of the underlying asset to withdraw",
          "to": "The address that will receive the underlying, same as msg.sender if the user   wants to receive it on his own wallet, or a different address if the beneficiary is a   different wallet"
        },
        "returns": {
          "_0": "The final amount withdrawn*"
        }
      }
    },
    "version": 1
  },
  "userdoc": {
    "kind": "user",
    "methods": {
      "withdraw(address,uint256,address)": {
        "notice": "Withdraws an `amount` of underlying asset from the reserve, burning the equivalent aTokens owned E.g. User has 100 aUSDC, calls withdraw() and receives 100 USDC, burning the 100 aUSDC"
      }
    },
    "version": 1
  }
}