{
  "contractName": "PoolTracker",
  "abi": [
    {
      "inputs": [],
      "stateMutability": "nonpayable",
      "type": "constructor"
    },
    {
      "anonymous": false,
      "inputs": [
        {
          "indexed": false,
          "internalType": "address",
          "name": "_userAddr",
          "type": "address"
        },
        {
          "indexed": false,
          "internalType": "address",
          "name": "_pool",
          "type": "address"
        }
      ],
      "name": "AddDeposit",
      "type": "event"
    },
    {
      "anonymous": false,
      "inputs": [
        {
          "indexed": false,
          "internalType": "address",
          "name": "addressToAdd",
          "type": "address"
        }
      ],
      "name": "AddVerifiedPools",
      "type": "event"
    },
    {
      "anonymous": false,
      "inputs": [
        {
          "indexed": false,
          "internalType": "address",
          "name": "_owner",
          "type": "address"
        },
        {
          "indexed": false,
          "internalType": "address",
          "name": "_pool",
          "type": "address"
        }
      ],
      "name": "OwnerAddress",
      "type": "event"
    },
    {
      "anonymous": false,
      "inputs": [
        {
          "indexed": false,
          "internalType": "address",
          "name": "_userAddr",
          "type": "address"
        },
        {
          "indexed": false,
          "internalType": "address",
          "name": "_pool",
          "type": "address"
        }
      ],
      "name": "WithdrawDeposit",
      "type": "event"
    },
    {
      "inputs": [
        {
          "internalType": "bytes32",
          "name": "_hash",
          "type": "bytes32"
        }
      ],
      "name": "addValidByteCodeHash",
      "outputs": [],
      "stateMutability": "nonpayable",
      "type": "function"
    },
    {
      "inputs": [
        {
          "internalType": "uint256",
          "name": "_amount",
          "type": "uint256"
        },
        {
          "internalType": "address",
          "name": "_asset",
          "type": "address"
        },
        {
          "internalType": "address",
          "name": "_pool",
          "type": "address"
        },
        {
          "internalType": "bool",
          "name": "isETH",
          "type": "bool"
        }
      ],
      "name": "addDeposit",
      "outputs": [],
      "stateMutability": "payable",
      "type": "function",
      "payable": true
    },
    {
      "inputs": [
        {
          "internalType": "uint256",
          "name": "_amount",
          "type": "uint256"
        },
        {
          "internalType": "uint256",
          "name": "_donation",
          "type": "uint256"
        },
        {
          "internalType": "address",
          "name": "_asset",
          "type": "address"
        },
        {
          "internalType": "address",
          "name": "_pool",
          "type": "address"
        }
      ],
      "name": "withdrawDeposit",
      "outputs": [],
      "stateMutability": "nonpayable",
      "type": "function"
    },
    {
      "inputs": [
        {
          "internalType": "address",
          "name": "_asset",
          "type": "address"
        },
        {
          "internalType": "address",
          "name": "_pool",
          "type": "address"
        }
      ],
      "name": "claimInterest",
      "outputs": [],
      "stateMutability": "nonpayable",
      "type": "function"
    },
    {
      "inputs": [
        {
          "internalType": "address[]",
          "name": "_acceptedTokens",
          "type": "address[]"
        },
        {
          "internalType": "string",
          "name": "_name",
          "type": "string"
        },
        {
          "internalType": "string",
          "name": "_about",
          "type": "string"
        },
        {
          "internalType": "address",
          "name": "_receiver",
          "type": "address"
        }
      ],
      "name": "createJCPoolClone",
      "outputs": [],
      "stateMutability": "nonpayable",
      "type": "function"
    },
    {
      "inputs": [],
      "name": "getDepositorERC721Address",
      "outputs": [
        {
          "internalType": "address",
          "name": "",
          "type": "address"
        }
      ],
      "stateMutability": "view",
      "type": "function",
      "constant": true
    },
    {
      "inputs": [],
      "name": "getOwnerERC721Address",
      "outputs": [
        {
          "internalType": "address",
          "name": "",
          "type": "address"
        }
      ],
      "stateMutability": "view",
      "type": "function",
      "constant": true
    },
    {
      "inputs": [],
      "name": "getVerifiedPools",
      "outputs": [
        {
          "internalType": "address[]",
          "name": "",
          "type": "address[]"
        }
      ],
      "stateMutability": "view",
      "type": "function",
      "constant": true
    },
    {
      "inputs": [
        {
          "internalType": "address",
          "name": "_pool",
          "type": "address"
        }
      ],
      "name": "checkPool",
      "outputs": [
        {
          "internalType": "bool",
          "name": "",
          "type": "bool"
        }
      ],
      "stateMutability": "view",
      "type": "function",
      "constant": true
    },
    {
      "inputs": [
        {
          "internalType": "string",
          "name": "_name",
          "type": "string"
        }
      ],
      "name": "getAddressFromName",
      "outputs": [
        {
          "internalType": "address",
          "name": "",
          "type": "address"
        }
      ],
      "stateMutability": "view",
      "type": "function",
      "constant": true
    },
    {
      "inputs": [
        {
          "internalType": "address",
          "name": "_pool",
          "type": "address"
        }
      ],
      "name": "checkByteCode",
      "outputs": [
        {
          "internalType": "bool",
          "name": "",
          "type": "bool"
        }
      ],
      "stateMutability": "view",
      "type": "function",
      "constant": true
    }
  ],
  "bytecode": "0x60806040523480156200001157600080fd5b5060405162000020906200015c565b604051809103906000f0801580156200003d573d6000803e3d6000fd5b50600260006101000a81548173ffffffffffffffffffffffffffffffffffffffff021916908373ffffffffffffffffffffffffffffffffffffffff1602179055506040516200008c906200016a565b604051809103906000f080158015620000a9573d6000803e3d6000fd5b50600360006101000a81548173ffffffffffffffffffffffffffffffffffffffff021916908373ffffffffffffffffffffffffffffffffffffffff160217905550604051620000f89062000178565b604051809103906000f08015801562000115573d6000803e3d6000fd5b50600160006101000a81548173ffffffffffffffffffffffffffffffffffffffff021916908373ffffffffffffffffffffffffffffffffffffffff16021790555062000186565b6140c78062001d9283390190565b61381a8062005e5983390190565b61329e806200967383390190565b611bfc80620001966000396000f3fe60806040526004361061009c5760003560e01c8063618b1e8311610064578063618b1e8314610179578063748d6829146101a25780638e61514e146101df578063b63ae6ee1461021c578063ba437c6814610247578063fc09d0f1146102705761009c565b806308f52b3c146100a15780630c1a4477146100bd57806330b9d2a7146100e85780633989a671146101255780634e1a58a814610150575b600080fd5b6100bb60048036038101906100b691906110a6565b610299565b005b3480156100c957600080fd5b506100d2610593565b6040516100df919061111c565b60405180910390f35b3480156100f457600080fd5b5061010f600480360381019061010a9190611137565b6105bd565b60405161011c9190611173565b60405180910390f35b34801561013157600080fd5b5061013a610613565b604051610147919061111c565b60405180910390f35b34801561015c57600080fd5b50610177600480360381019061017291906111c4565b61063d565b005b34801561018557600080fd5b506101a0600480360381019061019b91906113ff565b610669565b005b3480156101ae57600080fd5b506101c960048036038101906101c49190611137565b610987565b6040516101d69190611173565b60405180910390f35b3480156101eb57600080fd5b50610206600480360381019061020191906114ba565b610a9c565b604051610213919061111c565b60405180910390f35b34801561022857600080fd5b50610231610ae4565b60405161023e91906115c1565b60405180910390f35b34801561025357600080fd5b5061026e600480360381019061026991906115e3565b610b72565b005b34801561027c57600080fd5b5061029760048036038101906102929190611623565b610c6f565b005b81600460008273ffffffffffffffffffffffffffffffffffffffff1673ffffffffffffffffffffffffffffffffffffffff16815260200190815260200160002060009054906101000a900460ff16610326576040517f08c379a000000000000000000000000000000000000000000000000000000000815260040161031d9061170d565b60405180910390fd5b811561039d578273ffffffffffffffffffffffffffffffffffffffff16632d2da80634866040518363ffffffff1660e01b8152600401610366919061111c565b6000604051808303818588803b15801561037f57600080fd5b505af1158015610393573d6000803e3d6000fd5b505050505061040d565b8273ffffffffffffffffffffffffffffffffffffffff1663f45346dc8587336040518463ffffffff1660e01b81526004016103da9392919061173c565b600060405180830381600087803b1580156103f457600080fd5b505af1158015610408573d6000803e3d6000fd5b505050505b60008373ffffffffffffffffffffffffffffffffffffffff16638aebe8d6866040518263ffffffff1660e01b8152600401610448919061111c565b60206040518083038186803b15801561046057600080fd5b505afa158015610474573d6000803e3d6000fd5b505050506040513d601f19601f820116820180604052508101906104989190611788565b9050600260009054906101000a900473ffffffffffffffffffffffffffffffffffffffff1673ffffffffffffffffffffffffffffffffffffffff1663ecd8d05433888442898b6040518763ffffffff1660e01b81526004016104ff969594939291906117b5565b602060405180830381600087803b15801561051957600080fd5b505af115801561052d573d6000803e3d6000fd5b505050506040513d601f19601f820116820180604052508101906105519190611788565b507f81ba5b8ff9dd8503225df558117e2e7640a87c53418ab08237ad375c563a0dc33385604051610583929190611816565b60405180910390a1505050505050565b6000600360009054906101000a900473ffffffffffffffffffffffffffffffffffffffff16905090565b6000600460008373ffffffffffffffffffffffffffffffffffffffff1673ffffffffffffffffffffffffffffffffffffffff16815260200190815260200160002060009054906101000a900460ff169050919050565b6000600260009054906101000a900473ffffffffffffffffffffffffffffffffffffffff16905090565b600781908060018154018082558091505060019003906000526020600020016000909190919091505550565b600073ffffffffffffffffffffffffffffffffffffffff1660058460405161069191906118b9565b908152602001604051809103902060009054906101000a900473ffffffffffffffffffffffffffffffffffffffff1673ffffffffffffffffffffffffffffffffffffffff1614610716576040517f08c379a000000000000000000000000000000000000000000000000000000000815260040161070d9061191c565b60405180910390fd5b6000610743600160009054906101000a900473ffffffffffffffffffffffffffffffffffffffff16610ef1565b90508073ffffffffffffffffffffffffffffffffffffffff166350d02d71868686866040518563ffffffff1660e01b81526004016107849493929190611975565b600060405180830381600087803b15801561079e57600080fd5b505af11580156107b2573d6000803e3d6000fd5b50505050600360009054906101000a900473ffffffffffffffffffffffffffffffffffffffff1673ffffffffffffffffffffffffffffffffffffffff166323579ba18342846040518463ffffffff1660e01b81526004016108159392919061173c565b602060405180830381600087803b15801561082f57600080fd5b505af1158015610843573d6000803e3d6000fd5b505050506040513d601f19601f820116820180604052508101906108679190611788565b508060058560405161087991906118b9565b908152602001604051809103902060006101000a81548173ffffffffffffffffffffffffffffffffffffffff021916908373ffffffffffffffffffffffffffffffffffffffff1602179055506006819080600181540180825580915050600190039060005260206000200160009091909190916101000a81548173ffffffffffffffffffffffffffffffffffffffff021916908373ffffffffffffffffffffffffffffffffffffffff1602179055506001600460008373ffffffffffffffffffffffffffffffffffffffff1673ffffffffffffffffffffffffffffffffffffffff16815260200190815260200160002060006101000a81548160ff0219169083151502179055505050505050565b6000806000905060008373ffffffffffffffffffffffffffffffffffffffff16803b806020016040519081016040528181526000908060200190933c6040516020016109d39190611a16565b60405160208183030381529060405280519060200120905060006007805480602002602001604051908101604052809291908181526020018280548015610a3957602002820191906000526020600020905b815481526020019060010190808311610a25575b5050505050905060005b81518160ff161015610a9057818160ff1681518110610a6557610a64611a2d565b5b6020026020010151831415610a7d5760019350610a90565b8080610a8890611a98565b915050610a43565b50829350505050919050565b6000600582604051610aae91906118b9565b908152602001604051809103902060009054906101000a900473ffffffffffffffffffffffffffffffffffffffff169050919050565b60606006805480602002602001604051908101604052809291908181526020018280548015610b6857602002820191906000526020600020905b8160009054906101000a900473ffffffffffffffffffffffffffffffffffffffff1673ffffffffffffffffffffffffffffffffffffffff1681526020019060010190808311610b1e575b5050505050905090565b80600460008273ffffffffffffffffffffffffffffffffffffffff1673ffffffffffffffffffffffffffffffffffffffff16815260200190815260200160002060009054906101000a900460ff16610bff576040517f08c379a0000000000000000000000000000000000000000000000000000000008152600401610bf69061170d565b60405180910390fd5b8173ffffffffffffffffffffffffffffffffffffffff1663a56f5b53846040518263ffffffff1660e01b8152600401610c38919061111c565b600060405180830381600087803b158015610c5257600080fd5b505af1158015610c66573d6000803e3d6000fd5b50505050505050565b80600460008273ffffffffffffffffffffffffffffffffffffffff1673ffffffffffffffffffffffffffffffffffffffff16815260200190815260200160002060009054906101000a900460ff16610cfc576040517f08c379a0000000000000000000000000000000000000000000000000000000008152600401610cf39061170d565b60405180910390fd5b8173ffffffffffffffffffffffffffffffffffffffff166316762eed848787336040518563ffffffff1660e01b8152600401610d3b9493929190611ac2565b600060405180830381600087803b158015610d5557600080fd5b505af1158015610d69573d6000803e3d6000fd5b5050505060008273ffffffffffffffffffffffffffffffffffffffff16638aebe8d6856040518263ffffffff1660e01b8152600401610da8919061111c565b60206040518083038186803b158015610dc057600080fd5b505afa158015610dd4573d6000803e3d6000fd5b505050506040513d601f19601f82011682018060405250810190610df89190611788565b9050600260009054906101000a900473ffffffffffffffffffffffffffffffffffffffff1673ffffffffffffffffffffffffffffffffffffffff1663236e9c9933888487896040518663ffffffff1660e01b8152600401610e5d959493929190611b07565b602060405180830381600087803b158015610e7757600080fd5b505af1158015610e8b573d6000803e3d6000fd5b505050506040513d601f19601f82011682018060405250810190610eaf9190611788565b507f96d37d4b9d9073b00191d43144d238a504757ba440e7708b7bad98762e32d40c3384604051610ee1929190611816565b60405180910390a1505050505050565b60006040517f3d602d80600a3d3981f3363d3d373d3d3d363d7300000000000000000000000081528260601b60148201527f5af43d82803e903d91602b57fd5bf3000000000000000000000000000000000060288201526037816000f0915050600073ffffffffffffffffffffffffffffffffffffffff168173ffffffffffffffffffffffffffffffffffffffff161415610fc1576040517f08c379a0000000000000000000000000000000000000000000000000000000008152600401610fb890611ba6565b60405180910390fd5b919050565b6000604051905090565b600080fd5b600080fd5b6000819050919050565b610fed81610fda565b8114610ff857600080fd5b50565b60008135905061100a81610fe4565b92915050565b600073ffffffffffffffffffffffffffffffffffffffff82169050919050565b600061103b82611010565b9050919050565b61104b81611030565b811461105657600080fd5b50565b60008135905061106881611042565b92915050565b60008115159050919050565b6110838161106e565b811461108e57600080fd5b50565b6000813590506110a08161107a565b92915050565b600080600080608085870312156110c0576110bf610fd0565b5b60006110ce87828801610ffb565b94505060206110df87828801611059565b93505060406110f087828801611059565b925050606061110187828801611091565b91505092959194509250565b61111681611030565b82525050565b6000602082019050611131600083018461110d565b92915050565b60006020828403121561114d5761114c610fd0565b5b600061115b84828501611059565b91505092915050565b61116d8161106e565b82525050565b60006020820190506111886000830184611164565b92915050565b6000819050919050565b6111a18161118e565b81146111ac57600080fd5b50565b6000813590506111be81611198565b92915050565b6000602082840312156111da576111d9610fd0565b5b60006111e8848285016111af565b91505092915050565b600080fd5b6000601f19601f8301169050919050565b7f4e487b7100000000000000000000000000000000000000000000000000000000600052604160045260246000fd5b61123f826111f6565b810181811067ffffffffffffffff8211171561125e5761125d611207565b5b80604052505050565b6000611271610fc6565b905061127d8282611236565b919050565b600067ffffffffffffffff82111561129d5761129c611207565b5b602082029050602081019050919050565b600080fd5b60006112c66112c184611282565b611267565b905080838252602082019050602084028301858111156112e9576112e86112ae565b5b835b8181101561131257806112fe8882611059565b8452602084019350506020810190506112eb565b5050509392505050565b600082601f830112611331576113306111f1565b5b81356113418482602086016112b3565b91505092915050565b600080fd5b600067ffffffffffffffff82111561136a57611369611207565b5b611373826111f6565b9050602081019050919050565b82818337600083830152505050565b60006113a261139d8461134f565b611267565b9050828152602081018484840111156113be576113bd61134a565b5b6113c9848285611380565b509392505050565b600082601f8301126113e6576113e56111f1565b5b81356113f684826020860161138f565b91505092915050565b6000806000806080858703121561141957611418610fd0565b5b600085013567ffffffffffffffff81111561143757611436610fd5565b5b6114438782880161131c565b945050602085013567ffffffffffffffff81111561146457611463610fd5565b5b611470878288016113d1565b935050604085013567ffffffffffffffff81111561149157611490610fd5565b5b61149d878288016113d1565b92505060606114ae87828801611059565b91505092959194509250565b6000602082840312156114d0576114cf610fd0565b5b600082013567ffffffffffffffff8111156114ee576114ed610fd5565b5b6114fa848285016113d1565b91505092915050565b600081519050919050565b600082825260208201905092915050565b6000819050602082019050919050565b61153881611030565b82525050565b600061154a838361152f565b60208301905092915050565b6000602082019050919050565b600061156e82611503565b611578818561150e565b93506115838361151f565b8060005b838110156115b457815161159b888261153e565b97506115a683611556565b925050600181019050611587565b5085935050505092915050565b600060208201905081810360008301526115db8184611563565b905092915050565b600080604083850312156115fa576115f9610fd0565b5b600061160885828601611059565b925050602061161985828601611059565b9150509250929050565b6000806000806080858703121561163d5761163c610fd0565b5b600061164b87828801610ffb565b945050602061165c87828801610ffb565b935050604061166d87828801611059565b925050606061167e87828801611059565b91505092959194509250565b600082825260208201905092915050565b7f746869732066756e6374696f6e206d7573742062652063616c6c65642066726f60008201527f6d206120706f6f6c000000000000000000000000000000000000000000000000602082015250565b60006116f760288361168a565b91506117028261169b565b604082019050919050565b60006020820190508181036000830152611726816116ea565b9050919050565b61173681610fda565b82525050565b6000606082019050611751600083018661110d565b61175e602083018561172d565b61176b604083018461110d565b949350505050565b60008151905061178281610fe4565b92915050565b60006020828403121561179e5761179d610fd0565b5b60006117ac84828501611773565b91505092915050565b600060c0820190506117ca600083018961110d565b6117d7602083018861172d565b6117e4604083018761172d565b6117f1606083018661172d565b6117fe608083018561110d565b61180b60a083018461110d565b979650505050505050565b600060408201905061182b600083018561110d565b611838602083018461110d565b9392505050565b600081519050919050565b600081905092915050565b60005b83811015611873578082015181840152602081019050611858565b83811115611882576000848401525b50505050565b60006118938261183f565b61189d818561184a565b93506118ad818560208601611855565b80840191505092915050565b60006118c58284611888565b915081905092915050565b7f706f6f6c2077697468206e616d6520616c726561647920657869737473000000600082015250565b6000611906601d8361168a565b9150611911826118d0565b602082019050919050565b60006020820190508181036000830152611935816118f9565b9050919050565b60006119478261183f565b611951818561168a565b9350611961818560208601611855565b61196a816111f6565b840191505092915050565b6000608082019050818103600083015261198f8187611563565b905081810360208301526119a3818661193c565b905081810360408301526119b7818561193c565b90506119c6606083018461110d565b95945050505050565b600081519050919050565b600081905092915050565b60006119f0826119cf565b6119fa81856119da565b9350611a0a818560208601611855565b80840191505092915050565b6000611a2282846119e5565b915081905092915050565b7f4e487b7100000000000000000000000000000000000000000000000000000000600052603260045260246000fd5b7f4e487b7100000000000000000000000000000000000000000000000000000000600052601160045260246000fd5b600060ff82169050919050565b6000611aa382611a8b565b915060ff821415611ab757611ab6611a5c565b5b600182019050919050565b6000608082019050611ad7600083018761110d565b611ae4602083018661172d565b611af1604083018561172d565b611afe606083018461110d565b95945050505050565b600060a082019050611b1c600083018861110d565b611b29602083018761172d565b611b36604083018661172d565b611b43606083018561110d565b611b50608083018461110d565b9695505050505050565b7f455243313136373a20637265617465206661696c656400000000000000000000600082015250565b6000611b9060168361168a565b9150611b9b82611b5a565b602082019050919050565b60006020820190508181036000830152611bbf81611b83565b905091905056fea264697066735822122008e54d8c2e6146a7808d44eb3d22ff50683bf2e7fbe05b5a2399f99de64f7f9964736f6c6343000809003360806040523480156200001157600080fd5b506040518060400160405280601381526020017f4a4350204465706f7369746f7220546f6b656e000000000000000000000000008152506040518060400160405280600c81526020017f4a4350545f544553545f44310000000000000000000000000000000000000000815250816000908051906020019062000096929190620001a6565b508060019080519060200190620000af929190620001a6565b505050620000d2620000c6620000d860201b60201c565b620000e060201b60201c565b620002bb565b600033905090565b6000600a60009054906101000a900473ffffffffffffffffffffffffffffffffffffffff16905081600a60006101000a81548173ffffffffffffffffffffffffffffffffffffffff021916908373ffffffffffffffffffffffffffffffffffffffff1602179055508173ffffffffffffffffffffffffffffffffffffffff168173ffffffffffffffffffffffffffffffffffffffff167f8be0079c531659141344cd1fd0a4f28419497f9722a3daafe3b4186f6b6457e060405160405180910390a35050565b828054620001b49062000285565b90600052602060002090601f016020900481019282620001d8576000855562000224565b82601f10620001f357805160ff191683800117855562000224565b8280016001018555821562000224579182015b828111156200022357825182559160200191906001019062000206565b5b50905062000233919062000237565b5090565b5b808211156200025257600081600090555060010162000238565b5090565b7f4e487b7100000000000000000000000000000000000000000000000000000000600052602260045260246000fd5b600060028204905060018216806200029e57607f821691505b60208210811415620002b557620002b462000256565b5b50919050565b613dfc80620002cb6000396000f3fe608060405234801561001057600080fd5b50600436106101425760003560e01c80636352211e116100b8578063a22cb4651161007c578063a22cb4651461039d578063b88d4fde146103b9578063c87b56dd146103d5578063e985e9c514610405578063ecd8d05414610435578063f2fde38b1461046557610142565b80636352211e146102f757806370a0823114610327578063715018a6146103575780638da5cb5b1461036157806395d89b411461037f57610142565b8063236e9c991161010a578063236e9c99146101ff57806323b872dd1461022f5780632f745c591461024b57806342842e0e1461027b5780634f6ccce7146102975780635328c2bf146102c757610142565b806301ffc9a71461014757806306fdde0314610177578063081812fc14610195578063095ea7b3146101c557806318160ddd146101e1575b600080fd5b610161600480360381019061015c91906126d0565b610481565b60405161016e9190612718565b60405180910390f35b61017f6104fb565b60405161018c91906127cc565b60405180910390f35b6101af60048036038101906101aa9190612824565b61058d565b6040516101bc9190612892565b60405180910390f35b6101df60048036038101906101da91906128d9565b610612565b005b6101e961072a565b6040516101f69190612928565b60405180910390f35b61021960048036038101906102149190612943565b610737565b6040516102269190612928565b60405180910390f35b610249600480360381019061024491906129be565b6108fa565b005b610265600480360381019061026091906128d9565b61095a565b6040516102729190612928565b60405180910390f35b610295600480360381019061029091906129be565b6109ff565b005b6102b160048036038101906102ac9190612824565b610a1f565b6040516102be9190612928565b60405180910390f35b6102e160048036038101906102dc9190612824565b610a90565b6040516102ee9190612abd565b60405180910390f35b610311600480360381019061030c9190612824565b610b9b565b60405161031e9190612892565b60405180910390f35b610341600480360381019061033c9190612ad8565b610c4d565b60405161034e9190612928565b60405180910390f35b61035f610d05565b005b610369610d8d565b6040516103769190612892565b60405180910390f35b610387610db7565b60405161039491906127cc565b60405180910390f35b6103b760048036038101906103b29190612b31565b610e49565b005b6103d360048036038101906103ce9190612ca6565b610e5f565b005b6103ef60048036038101906103ea9190612824565b610ec1565b6040516103fc91906127cc565b60405180910390f35b61041f600480360381019061041a9190612d29565b610f68565b60405161042c9190612718565b60405180910390f35b61044f600480360381019061044a9190612d69565b610ffc565b60405161045c9190612928565b60405180910390f35b61047f600480360381019061047a9190612ad8565b6112a6565b005b60007f780e9d63000000000000000000000000000000000000000000000000000000007bffffffffffffffffffffffffffffffffffffffffffffffffffffffff1916827bffffffffffffffffffffffffffffffffffffffffffffffffffffffff191614806104f457506104f38261139e565b5b9050919050565b60606000805461050a90612e25565b80601f016020809104026020016040519081016040528092919081815260200182805461053690612e25565b80156105835780601f1061055857610100808354040283529160200191610583565b820191906000526020600020905b81548152906001019060200180831161056657829003601f168201915b5050505050905090565b600061059882611480565b6105d7576040517f08c379a00000000000000000000000000000000000000000000000000000000081526004016105ce90612ec9565b60405180910390fd5b6004600083815260200190815260200160002060009054906101000a900473ffffffffffffffffffffffffffffffffffffffff169050919050565b600061061d82610b9b565b90508073ffffffffffffffffffffffffffffffffffffffff168373ffffffffffffffffffffffffffffffffffffffff16141561068e576040517f08c379a000000000000000000000000000000000000000000000000000000000815260040161068590612f5b565b60405180910390fd5b8073ffffffffffffffffffffffffffffffffffffffff166106ad6114ec565b73ffffffffffffffffffffffffffffffffffffffff1614806106dc57506106db816106d66114ec565b610f68565b5b61071b576040517f08c379a000000000000000000000000000000000000000000000000000000000815260040161071290612fed565b60405180910390fd5b61072583836114f4565b505050565b6000600880549050905090565b60006107416114ec565b73ffffffffffffffffffffffffffffffffffffffff1661075f610d8d565b73ffffffffffffffffffffffffffffffffffffffff16146107b5576040517f08c379a00000000000000000000000000000000000000000000000000000000081526004016107ac90613059565b60405180910390fd5b60008684846040516020016107cc939291906130c1565b6040516020818303038152906040528051906020012060001c90506107f081611480565b61082f576040517f08c379a00000000000000000000000000000000000000000000000000000000081526004016108269061314a565b60405180910390fd5b6000600b60008381526020019081526020016000206000015490508681101561088d576040517f08c379a0000000000000000000000000000000000000000000000000000000008152600401610884906131b6565b60405180910390fd5b86816108999190613205565b905080600b6000848152602001908152602001600020600001819055506108c087876115ad565b600b600084815260200190815260200160002060020160008282546108e59190613205565b92505081905550819250505095945050505050565b61090b6109056114ec565b826116b9565b61094a576040517f08c379a0000000000000000000000000000000000000000000000000000000008152600401610941906132ab565b60405180910390fd5b610955838383611797565b505050565b600061096583610c4d565b82106109a6576040517f08c379a000000000000000000000000000000000000000000000000000000000815260040161099d9061333d565b60405180910390fd5b600660008473ffffffffffffffffffffffffffffffffffffffff1673ffffffffffffffffffffffffffffffffffffffff168152602001908152602001600020600083815260200190815260200160002054905092915050565b610a1a83838360405180602001604052806000815250610e5f565b505050565b6000610a2961072a565b8210610a6a576040517f08c379a0000000000000000000000000000000000000000000000000000000008152600401610a61906133cf565b60405180910390fd5b60088281548110610a7e57610a7d6133ef565b5b90600052602060002001549050919050565b610a986125fb565b600b60008381526020019081526020016000206040518060e001604052908160008201548152602001600182015481526020016002820154815260200160038201548152602001600482015481526020016005820160009054906101000a900473ffffffffffffffffffffffffffffffffffffffff1673ffffffffffffffffffffffffffffffffffffffff1673ffffffffffffffffffffffffffffffffffffffff1681526020016006820160009054906101000a900473ffffffffffffffffffffffffffffffffffffffff1673ffffffffffffffffffffffffffffffffffffffff1673ffffffffffffffffffffffffffffffffffffffff16815250509050919050565b6000806002600084815260200190815260200160002060009054906101000a900473ffffffffffffffffffffffffffffffffffffffff169050600073ffffffffffffffffffffffffffffffffffffffff168173ffffffffffffffffffffffffffffffffffffffff161415610c44576040517f08c379a0000000000000000000000000000000000000000000000000000000008152600401610c3b90613490565b60405180910390fd5b80915050919050565b60008073ffffffffffffffffffffffffffffffffffffffff168273ffffffffffffffffffffffffffffffffffffffff161415610cbe576040517f08c379a0000000000000000000000000000000000000000000000000000000008152600401610cb590613522565b60405180910390fd5b600360008373ffffffffffffffffffffffffffffffffffffffff1673ffffffffffffffffffffffffffffffffffffffff168152602001908152602001600020549050919050565b610d0d6114ec565b73ffffffffffffffffffffffffffffffffffffffff16610d2b610d8d565b73ffffffffffffffffffffffffffffffffffffffff1614610d81576040517f08c379a0000000000000000000000000000000000000000000000000000000008152600401610d7890613059565b60405180910390fd5b610d8b60006119f3565b565b6000600a60009054906101000a900473ffffffffffffffffffffffffffffffffffffffff16905090565b606060018054610dc690612e25565b80601f0160208091040260200160405190810160405280929190818152602001828054610df290612e25565b8015610e3f5780601f10610e1457610100808354040283529160200191610e3f565b820191906000526020600020905b815481529060010190602001808311610e2257829003601f168201915b5050505050905090565b610e5b610e546114ec565b8383611ab9565b5050565b610e70610e6a6114ec565b836116b9565b610eaf576040517f08c379a0000000000000000000000000000000000000000000000000000000008152600401610ea6906132ab565b60405180910390fd5b610ebb84848484611c26565b50505050565b6060610ecc82611480565b610f0b576040517f08c379a0000000000000000000000000000000000000000000000000000000008152600401610f02906135b4565b60405180910390fd5b6000610f15611c82565b90506000815111610f355760405180602001604052806000815250610f60565b80610f3f84611c99565b604051602001610f50929190613610565b6040516020818303038152906040525b915050919050565b6000600560008473ffffffffffffffffffffffffffffffffffffffff1673ffffffffffffffffffffffffffffffffffffffff16815260200190815260200160002060008373ffffffffffffffffffffffffffffffffffffffff1673ffffffffffffffffffffffffffffffffffffffff16815260200190815260200160002060009054906101000a900460ff16905092915050565b60006110066114ec565b73ffffffffffffffffffffffffffffffffffffffff16611024610d8d565b73ffffffffffffffffffffffffffffffffffffffff161461107a576040517f08c379a000000000000000000000000000000000000000000000000000000000815260040161107190613059565b60405180910390fd5b6000878484604051602001611091939291906130c1565b6040516020818303038152906040528051906020012060001c90506110b581611480565b1561114f5786600b600083815260200190815260200160002060000160008282546110e09190613634565b9250508190555086600b6000838152602001908152602001600020600101600082825461110d9190613634565b9250508190555061111e87876115ad565b600b600083815260200190815260200160002060020160008282546111439190613634565b92505081905550611298565b6040518060e0016040528088815260200188815260200161117089896115ad565b81526020018681526020018781526020018573ffffffffffffffffffffffffffffffffffffffff1681526020018473ffffffffffffffffffffffffffffffffffffffff16815250600b6000838152602001908152602001600020600082015181600001556020820151816001015560408201518160020155606082015181600301556080820151816004015560a08201518160050160006101000a81548173ffffffffffffffffffffffffffffffffffffffff021916908373ffffffffffffffffffffffffffffffffffffffff16021790555060c08201518160060160006101000a81548173ffffffffffffffffffffffffffffffffffffffff021916908373ffffffffffffffffffffffffffffffffffffffff1602179055509050506112978882611dfa565b5b809150509695505050505050565b6112ae6114ec565b73ffffffffffffffffffffffffffffffffffffffff166112cc610d8d565b73ffffffffffffffffffffffffffffffffffffffff1614611322576040517f08c379a000000000000000000000000000000000000000000000000000000000815260040161131990613059565b60405180910390fd5b600073ffffffffffffffffffffffffffffffffffffffff168173ffffffffffffffffffffffffffffffffffffffff161415611392576040517f08c379a0000000000000000000000000000000000000000000000000000000008152600401611389906136fc565b60405180910390fd5b61139b816119f3565b50565b60007f80ac58cd000000000000000000000000000000000000000000000000000000007bffffffffffffffffffffffffffffffffffffffffffffffffffffffff1916827bffffffffffffffffffffffffffffffffffffffffffffffffffffffff1916148061146957507f5b5e139f000000000000000000000000000000000000000000000000000000007bffffffffffffffffffffffffffffffffffffffffffffffffffffffff1916827bffffffffffffffffffffffffffffffffffffffffffffffffffffffff1916145b80611479575061147882611fc8565b5b9050919050565b60008073ffffffffffffffffffffffffffffffffffffffff166002600084815260200190815260200160002060009054906101000a900473ffffffffffffffffffffffffffffffffffffffff1673ffffffffffffffffffffffffffffffffffffffff1614159050919050565b600033905090565b816004600083815260200190815260200160002060006101000a81548173ffffffffffffffffffffffffffffffffffffffff021916908373ffffffffffffffffffffffffffffffffffffffff160217905550808273ffffffffffffffffffffffffffffffffffffffff1661156783610b9b565b73ffffffffffffffffffffffffffffffffffffffff167f8c5be1e5ebec7d5bd14f71427d1e84f3dd0314c0f7b2291e5b200ac8c7c3b92560405160405180910390a45050565b6000808214156115f2576040517f08c379a00000000000000000000000000000000000000000000000000000000081526004016115e990613768565b60405180910390fd5b600060028361160191906137b7565b905060006b033b2e3c9fd0803ce8000000905080827fffffffffffffffffffffffffffffffffffffffffffffffffffffffffffffffff6116419190613205565b61164b91906137b7565b85111561168d576040517f08c379a000000000000000000000000000000000000000000000000000000000815260040161168490613834565b60405180910390fd5b8382828761169b9190613854565b6116a59190613634565b6116af91906137b7565b9250505092915050565b60006116c482611480565b611703576040517f08c379a00000000000000000000000000000000000000000000000000000000081526004016116fa90613920565b60405180910390fd5b600061170e83610b9b565b90508073ffffffffffffffffffffffffffffffffffffffff168473ffffffffffffffffffffffffffffffffffffffff16148061177d57508373ffffffffffffffffffffffffffffffffffffffff166117658461058d565b73ffffffffffffffffffffffffffffffffffffffff16145b8061178e575061178d8185610f68565b5b91505092915050565b8273ffffffffffffffffffffffffffffffffffffffff166117b782610b9b565b73ffffffffffffffffffffffffffffffffffffffff161461180d576040517f08c379a0000000000000000000000000000000000000000000000000000000008152600401611804906139b2565b60405180910390fd5b600073ffffffffffffffffffffffffffffffffffffffff168273ffffffffffffffffffffffffffffffffffffffff16141561187d576040517f08c379a000000000000000000000000000000000000000000000000000000000815260040161187490613a44565b60405180910390fd5b611888838383612032565b6118936000826114f4565b6001600360008573ffffffffffffffffffffffffffffffffffffffff1673ffffffffffffffffffffffffffffffffffffffff16815260200190815260200160002060008282546118e39190613205565b925050819055506001600360008473ffffffffffffffffffffffffffffffffffffffff1673ffffffffffffffffffffffffffffffffffffffff168152602001908152602001600020600082825461193a9190613634565b92505081905550816002600083815260200190815260200160002060006101000a81548173ffffffffffffffffffffffffffffffffffffffff021916908373ffffffffffffffffffffffffffffffffffffffff160217905550808273ffffffffffffffffffffffffffffffffffffffff168473ffffffffffffffffffffffffffffffffffffffff167fddf252ad1be2c89b69c2b068fc378daa952ba7f163c4a11628f55a4df523b3ef60405160405180910390a4505050565b6000600a60009054906101000a900473ffffffffffffffffffffffffffffffffffffffff16905081600a60006101000a81548173ffffffffffffffffffffffffffffffffffffffff021916908373ffffffffffffffffffffffffffffffffffffffff1602179055508173ffffffffffffffffffffffffffffffffffffffff168173ffffffffffffffffffffffffffffffffffffffff167f8be0079c531659141344cd1fd0a4f28419497f9722a3daafe3b4186f6b6457e060405160405180910390a35050565b8173ffffffffffffffffffffffffffffffffffffffff168373ffffffffffffffffffffffffffffffffffffffff161415611b28576040517f08c379a0000000000000000000000000000000000000000000000000000000008152600401611b1f90613ab0565b60405180910390fd5b80600560008573ffffffffffffffffffffffffffffffffffffffff1673ffffffffffffffffffffffffffffffffffffffff16815260200190815260200160002060008473ffffffffffffffffffffffffffffffffffffffff1673ffffffffffffffffffffffffffffffffffffffff16815260200190815260200160002060006101000a81548160ff0219169083151502179055508173ffffffffffffffffffffffffffffffffffffffff168373ffffffffffffffffffffffffffffffffffffffff167f17307eab39ab6107e8899845ad3d59bd9653f200f220920489ca2b5937696c3183604051611c199190612718565b60405180910390a3505050565b611c31848484611797565b611c3d84848484612146565b611c7c576040517f08c379a0000000000000000000000000000000000000000000000000000000008152600401611c7390613b42565b60405180910390fd5b50505050565b606060405180602001604052806000815250905090565b60606000821415611ce1576040518060400160405280600181526020017f30000000000000000000000000000000000000000000000000000000000000008152509050611df5565b600082905060005b60008214611d13578080611cfc90613b62565b915050600a82611d0c91906137b7565b9150611ce9565b60008167ffffffffffffffff811115611d2f57611d2e612b7b565b5b6040519080825280601f01601f191660200182016040528015611d615781602001600182028036833780820191505090505b5090505b60008514611dee57600182611d7a9190613205565b9150600a85611d899190613bab565b6030611d959190613634565b60f81b818381518110611dab57611daa6133ef565b5b60200101907effffffffffffffffffffffffffffffffffffffffffffffffffffffffffffff1916908160001a905350600a85611de791906137b7565b9450611d65565b8093505050505b919050565b600073ffffffffffffffffffffffffffffffffffffffff168273ffffffffffffffffffffffffffffffffffffffff161415611e6a576040517f08c379a0000000000000000000000000000000000000000000000000000000008152600401611e6190613c28565b60405180910390fd5b611e7381611480565b15611eb3576040517f08c379a0000000000000000000000000000000000000000000000000000000008152600401611eaa90613c94565b60405180910390fd5b611ebf60008383612032565b6001600360008473ffffffffffffffffffffffffffffffffffffffff1673ffffffffffffffffffffffffffffffffffffffff1681526020019081526020016000206000828254611f0f9190613634565b92505081905550816002600083815260200190815260200160002060006101000a81548173ffffffffffffffffffffffffffffffffffffffff021916908373ffffffffffffffffffffffffffffffffffffffff160217905550808273ffffffffffffffffffffffffffffffffffffffff16600073ffffffffffffffffffffffffffffffffffffffff167fddf252ad1be2c89b69c2b068fc378daa952ba7f163c4a11628f55a4df523b3ef60405160405180910390a45050565b60007f01ffc9a7000000000000000000000000000000000000000000000000000000007bffffffffffffffffffffffffffffffffffffffffffffffffffffffff1916827bffffffffffffffffffffffffffffffffffffffffffffffffffffffff1916149050919050565b61203d8383836122dd565b600073ffffffffffffffffffffffffffffffffffffffff168373ffffffffffffffffffffffffffffffffffffffff1614156120805761207b816122e2565b6120bf565b8173ffffffffffffffffffffffffffffffffffffffff168373ffffffffffffffffffffffffffffffffffffffff16146120be576120bd838261232b565b5b5b600073ffffffffffffffffffffffffffffffffffffffff168273ffffffffffffffffffffffffffffffffffffffff161415612102576120fd81612498565b612141565b8273ffffffffffffffffffffffffffffffffffffffff168273ffffffffffffffffffffffffffffffffffffffff16146121405761213f8282612569565b5b5b505050565b60006121678473ffffffffffffffffffffffffffffffffffffffff166125e8565b156122d0578373ffffffffffffffffffffffffffffffffffffffff1663150b7a026121906114ec565b8786866040518563ffffffff1660e01b81526004016121b29493929190613d09565b602060405180830381600087803b1580156121cc57600080fd5b505af19250505080156121fd57506040513d601f19601f820116820180604052508101906121fa9190613d6a565b60015b612280573d806000811461222d576040519150601f19603f3d011682016040523d82523d6000602084013e612232565b606091505b50600081511415612278576040517f08c379a000000000000000000000000000000000000000000000000000000000815260040161226f90613b42565b60405180910390fd5b805181602001fd5b63150b7a0260e01b7bffffffffffffffffffffffffffffffffffffffffffffffffffffffff1916817bffffffffffffffffffffffffffffffffffffffffffffffffffffffff1916149150506122d5565b600190505b949350505050565b505050565b6008805490506009600083815260200190815260200160002081905550600881908060018154018082558091505060019003906000526020600020016000909190919091505550565b6000600161233884610c4d565b6123429190613205565b9050600060076000848152602001908152602001600020549050818114612427576000600660008673ffffffffffffffffffffffffffffffffffffffff1673ffffffffffffffffffffffffffffffffffffffff168152602001908152602001600020600084815260200190815260200160002054905080600660008773ffffffffffffffffffffffffffffffffffffffff1673ffffffffffffffffffffffffffffffffffffffff168152602001908152602001600020600084815260200190815260200160002081905550816007600083815260200190815260200160002081905550505b6007600084815260200190815260200160002060009055600660008573ffffffffffffffffffffffffffffffffffffffff1673ffffffffffffffffffffffffffffffffffffffff16815260200190815260200160002060008381526020019081526020016000206000905550505050565b600060016008805490506124ac9190613205565b90506000600960008481526020019081526020016000205490506000600883815481106124dc576124db6133ef565b5b9060005260206000200154905080600883815481106124fe576124fd6133ef565b5b90600052602060002001819055508160096000838152602001908152602001600020819055506009600085815260200190815260200160002060009055600880548061254d5761254c613d97565b5b6001900381819060005260206000200160009055905550505050565b600061257483610c4d565b905081600660008573ffffffffffffffffffffffffffffffffffffffff1673ffffffffffffffffffffffffffffffffffffffff168152602001908152602001600020600083815260200190815260200160002081905550806007600084815260200190815260200160002081905550505050565b600080823b905060008111915050919050565b6040518060e001604052806000815260200160008152602001600081526020016000815260200160008152602001600073ffffffffffffffffffffffffffffffffffffffff168152602001600073ffffffffffffffffffffffffffffffffffffffff1681525090565b6000604051905090565b600080fd5b600080fd5b60007fffffffff0000000000000000000000000000000000000000000000000000000082169050919050565b6126ad81612678565b81146126b857600080fd5b50565b6000813590506126ca816126a4565b92915050565b6000602082840312156126e6576126e561266e565b5b60006126f4848285016126bb565b91505092915050565b60008115159050919050565b612712816126fd565b82525050565b600060208201905061272d6000830184612709565b92915050565b600081519050919050565b600082825260208201905092915050565b60005b8381101561276d578082015181840152602081019050612752565b8381111561277c576000848401525b50505050565b6000601f19601f8301169050919050565b600061279e82612733565b6127a8818561273e565b93506127b881856020860161274f565b6127c181612782565b840191505092915050565b600060208201905081810360008301526127e68184612793565b905092915050565b6000819050919050565b612801816127ee565b811461280c57600080fd5b50565b60008135905061281e816127f8565b92915050565b60006020828403121561283a5761283961266e565b5b60006128488482850161280f565b91505092915050565b600073ffffffffffffffffffffffffffffffffffffffff82169050919050565b600061287c82612851565b9050919050565b61288c81612871565b82525050565b60006020820190506128a76000830184612883565b92915050565b6128b681612871565b81146128c157600080fd5b50565b6000813590506128d3816128ad565b92915050565b600080604083850312156128f0576128ef61266e565b5b60006128fe858286016128c4565b925050602061290f8582860161280f565b9150509250929050565b612922816127ee565b82525050565b600060208201905061293d6000830184612919565b92915050565b600080600080600060a0868803121561295f5761295e61266e565b5b600061296d888289016128c4565b955050602061297e8882890161280f565b945050604061298f8882890161280f565b93505060606129a0888289016128c4565b92505060806129b1888289016128c4565b9150509295509295909350565b6000806000606084860312156129d7576129d661266e565b5b60006129e5868287016128c4565b93505060206129f6868287016128c4565b9250506040612a078682870161280f565b9150509250925092565b612a1a816127ee565b82525050565b612a2981612871565b82525050565b60e082016000820151612a456000850182612a11565b506020820151612a586020850182612a11565b506040820151612a6b6040850182612a11565b506060820151612a7e6060850182612a11565b506080820151612a916080850182612a11565b5060a0820151612aa460a0850182612a20565b5060c0820151612ab760c0850182612a20565b50505050565b600060e082019050612ad26000830184612a2f565b92915050565b600060208284031215612aee57612aed61266e565b5b6000612afc848285016128c4565b91505092915050565b612b0e816126fd565b8114612b1957600080fd5b50565b600081359050612b2b81612b05565b92915050565b60008060408385031215612b4857612b4761266e565b5b6000612b56858286016128c4565b9250506020612b6785828601612b1c565b9150509250929050565b600080fd5b600080fd5b7f4e487b7100000000000000000000000000000000000000000000000000000000600052604160045260246000fd5b612bb382612782565b810181811067ffffffffffffffff82111715612bd257612bd1612b7b565b5b80604052505050565b6000612be5612664565b9050612bf18282612baa565b919050565b600067ffffffffffffffff821115612c1157612c10612b7b565b5b612c1a82612782565b9050602081019050919050565b82818337600083830152505050565b6000612c49612c4484612bf6565b612bdb565b905082815260208101848484011115612c6557612c64612b76565b5b612c70848285612c27565b509392505050565b600082601f830112612c8d57612c8c612b71565b5b8135612c9d848260208601612c36565b91505092915050565b60008060008060808587031215612cc057612cbf61266e565b5b6000612cce878288016128c4565b9450506020612cdf878288016128c4565b9350506040612cf08782880161280f565b925050606085013567ffffffffffffffff811115612d1157612d10612673565b5b612d1d87828801612c78565b91505092959194509250565b60008060408385031215612d4057612d3f61266e565b5b6000612d4e858286016128c4565b9250506020612d5f858286016128c4565b9150509250929050565b60008060008060008060c08789031215612d8657612d8561266e565b5b6000612d9489828a016128c4565b9650506020612da589828a0161280f565b9550506040612db689828a0161280f565b9450506060612dc789828a0161280f565b9350506080612dd889828a016128c4565b92505060a0612de989828a016128c4565b9150509295509295509295565b7f4e487b7100000000000000000000000000000000000000000000000000000000600052602260045260246000fd5b60006002820490506001821680612e3d57607f821691505b60208210811415612e5157612e50612df6565b5b50919050565b7f4552433732313a20617070726f76656420717565727920666f72206e6f6e657860008201527f697374656e7420746f6b656e0000000000000000000000000000000000000000602082015250565b6000612eb3602c8361273e565b9150612ebe82612e57565b604082019050919050565b60006020820190508181036000830152612ee281612ea6565b9050919050565b7f4552433732313a20617070726f76616c20746f2063757272656e74206f776e6560008201527f7200000000000000000000000000000000000000000000000000000000000000602082015250565b6000612f4560218361273e565b9150612f5082612ee9565b604082019050919050565b60006020820190508181036000830152612f7481612f38565b9050919050565b7f4552433732313a20617070726f76652063616c6c6572206973206e6f74206f7760008201527f6e6572206e6f7220617070726f76656420666f7220616c6c0000000000000000602082015250565b6000612fd760388361273e565b9150612fe282612f7b565b604082019050919050565b6000602082019050818103600083015261300681612fca565b9050919050565b7f4f776e61626c653a2063616c6c6572206973206e6f7420746865206f776e6572600082015250565b600061304360208361273e565b915061304e8261300d565b602082019050919050565b6000602082019050818103600083015261307281613036565b9050919050565b60008160601b9050919050565b600061309182613079565b9050919050565b60006130a382613086565b9050919050565b6130bb6130b682612871565b613098565b82525050565b60006130cd82866130aa565b6014820191506130dd82856130aa565b6014820191506130ed82846130aa565b601482019150819050949350505050565b7f746f6b656e496420646f65736e27742065786973740000000000000000000000600082015250565b600061313460158361273e565b915061313f826130fe565b602082019050919050565b6000602082019050818103600083015261316381613127565b9050919050565b7f696e73756666696369656e742062616c616e6365000000000000000000000000600082015250565b60006131a060148361273e565b91506131ab8261316a565b602082019050919050565b600060208201905081810360008301526131cf81613193565b9050919050565b7f4e487b7100000000000000000000000000000000000000000000000000000000600052601160045260246000fd5b6000613210826127ee565b915061321b836127ee565b92508282101561322e5761322d6131d6565b5b828203905092915050565b7f4552433732313a207472616e736665722063616c6c6572206973206e6f74206f60008201527f776e6572206e6f7220617070726f766564000000000000000000000000000000602082015250565b600061329560318361273e565b91506132a082613239565b604082019050919050565b600060208201905081810360008301526132c481613288565b9050919050565b7f455243373231456e756d657261626c653a206f776e657220696e646578206f7560008201527f74206f6620626f756e6473000000000000000000000000000000000000000000602082015250565b6000613327602b8361273e565b9150613332826132cb565b604082019050919050565b600060208201905081810360008301526133568161331a565b9050919050565b7f455243373231456e756d657261626c653a20676c6f62616c20696e646578206f60008201527f7574206f6620626f756e64730000000000000000000000000000000000000000602082015250565b60006133b9602c8361273e565b91506133c48261335d565b604082019050919050565b600060208201905081810360008301526133e8816133ac565b9050919050565b7f4e487b7100000000000000000000000000000000000000000000000000000000600052603260045260246000fd5b7f4552433732313a206f776e657220717565727920666f72206e6f6e657869737460008201527f656e7420746f6b656e0000000000000000000000000000000000000000000000602082015250565b600061347a60298361273e565b91506134858261341e565b604082019050919050565b600060208201905081810360008301526134a98161346d565b9050919050565b7f4552433732313a2062616c616e636520717565727920666f7220746865207a6560008201527f726f206164647265737300000000000000000000000000000000000000000000602082015250565b600061350c602a8361273e565b9150613517826134b0565b604082019050919050565b6000602082019050818103600083015261353b816134ff565b9050919050565b7f4552433732314d657461646174613a2055524920717565727920666f72206e6f60008201527f6e6578697374656e7420746f6b656e0000000000000000000000000000000000602082015250565b600061359e602f8361273e565b91506135a982613542565b604082019050919050565b600060208201905081810360008301526135cd81613591565b9050919050565b600081905092915050565b60006135ea82612733565b6135f481856135d4565b935061360481856020860161274f565b80840191505092915050565b600061361c82856135df565b915061362882846135df565b91508190509392505050565b600061363f826127ee565b915061364a836127ee565b9250827fffffffffffffffffffffffffffffffffffffffffffffffffffffffffffffffff0382111561367f5761367e6131d6565b5b828201905092915050565b7f4f776e61626c653a206e6577206f776e657220697320746865207a65726f206160008201527f6464726573730000000000000000000000000000000000000000000000000000602082015250565b60006136e660268361273e565b91506136f18261368a565b604082019050919050565b60006020820190508181036000830152613715816136d9565b9050919050565b7f6469766973696f6e206279203000000000000000000000000000000000000000600082015250565b6000613752600d8361273e565b915061375d8261371c565b602082019050919050565b6000602082019050818103600083015261378181613745565b9050919050565b7f4e487b7100000000000000000000000000000000000000000000000000000000600052601260045260246000fd5b60006137c2826127ee565b91506137cd836127ee565b9250826137dd576137dc613788565b5b828204905092915050565b7f6d756c7469706c69636174696f6e206f766572666c6f77000000000000000000600082015250565b600061381e60178361273e565b9150613829826137e8565b602082019050919050565b6000602082019050818103600083015261384d81613811565b9050919050565b600061385f826127ee565b915061386a836127ee565b9250817fffffffffffffffffffffffffffffffffffffffffffffffffffffffffffffffff04831182151516156138a3576138a26131d6565b5b828202905092915050565b7f4552433732313a206f70657261746f7220717565727920666f72206e6f6e657860008201527f697374656e7420746f6b656e0000000000000000000000000000000000000000602082015250565b600061390a602c8361273e565b9150613915826138ae565b604082019050919050565b60006020820190508181036000830152613939816138fd565b9050919050565b7f4552433732313a207472616e73666572206f6620746f6b656e2074686174206960008201527f73206e6f74206f776e0000000000000000000000000000000000000000000000602082015250565b600061399c60298361273e565b91506139a782613940565b604082019050919050565b600060208201905081810360008301526139cb8161398f565b9050919050565b7f4552433732313a207472616e7366657220746f20746865207a65726f2061646460008201527f7265737300000000000000000000000000000000000000000000000000000000602082015250565b6000613a2e60248361273e565b9150613a39826139d2565b604082019050919050565b60006020820190508181036000830152613a5d81613a21565b9050919050565b7f4552433732313a20617070726f766520746f2063616c6c657200000000000000600082015250565b6000613a9a60198361273e565b9150613aa582613a64565b602082019050919050565b60006020820190508181036000830152613ac981613a8d565b9050919050565b7f4552433732313a207472616e7366657220746f206e6f6e20455243373231526560008201527f63656976657220696d706c656d656e7465720000000000000000000000000000602082015250565b6000613b2c60328361273e565b9150613b3782613ad0565b604082019050919050565b60006020820190508181036000830152613b5b81613b1f565b9050919050565b6000613b6d826127ee565b91507fffffffffffffffffffffffffffffffffffffffffffffffffffffffffffffffff821415613ba057613b9f6131d6565b5b600182019050919050565b6000613bb6826127ee565b9150613bc1836127ee565b925082613bd157613bd0613788565b5b828206905092915050565b7f4552433732313a206d696e7420746f20746865207a65726f2061646472657373600082015250565b6000613c1260208361273e565b9150613c1d82613bdc565b602082019050919050565b60006020820190508181036000830152613c4181613c05565b9050919050565b7f4552433732313a20746f6b656e20616c7265616479206d696e74656400000000600082015250565b6000613c7e601c8361273e565b9150613c8982613c48565b602082019050919050565b60006020820190508181036000830152613cad81613c71565b9050919050565b600081519050919050565b600082825260208201905092915050565b6000613cdb82613cb4565b613ce58185613cbf565b9350613cf581856020860161274f565b613cfe81612782565b840191505092915050565b6000608082019050613d1e6000830187612883565b613d2b6020830186612883565b613d386040830185612919565b8181036060830152613d4a8184613cd0565b905095945050505050565b600081519050613d64816126a4565b92915050565b600060208284031215613d8057613d7f61266e565b5b6000613d8e84828501613d55565b91505092915050565b7f4e487b7100000000000000000000000000000000000000000000000000000000600052603160045260246000fdfea26469706673582212207bc8dbe3fe9fe1aeea069fa1f3c2d18165f87628d2e0789edd3953f926844e3064736f6c6343000809003360806040523480156200001157600080fd5b506040518060400160405280600f81526020017f4a4350204f776e657220546f6b656e00000000000000000000000000000000008152506040518060400160405280600c81526020017f4a4350545f544553545f4f310000000000000000000000000000000000000000815250816000908051906020019062000096929190620001a6565b508060019080519060200190620000af929190620001a6565b505050620000d2620000c6620000d860201b60201c565b620000e060201b60201c565b620002bb565b600033905090565b6000600a60009054906101000a900473ffffffffffffffffffffffffffffffffffffffff16905081600a60006101000a81548173ffffffffffffffffffffffffffffffffffffffff021916908373ffffffffffffffffffffffffffffffffffffffff1602179055508173ffffffffffffffffffffffffffffffffffffffff168173ffffffffffffffffffffffffffffffffffffffff167f8be0079c531659141344cd1fd0a4f28419497f9722a3daafe3b4186f6b6457e060405160405180910390a35050565b828054620001b49062000285565b90600052602060002090601f016020900481019282620001d8576000855562000224565b82601f10620001f357805160ff191683800117855562000224565b8280016001018555821562000224579182015b828111156200022357825182559160200191906001019062000206565b5b50905062000233919062000237565b5090565b5b808211156200025257600081600090555060010162000238565b5090565b7f4e487b7100000000000000000000000000000000000000000000000000000000600052602260045260246000fd5b600060028204905060018216806200029e57607f821691505b60208210811415620002b557620002b462000256565b5b50919050565b61354f80620002cb6000396000f3fe608060405234801561001057600080fd5b50600436106101375760003560e01c80636352211e116100b8578063a22cb4651161007c578063a22cb46514610362578063b88d4fde1461037e578063c6fdbc901461039a578063c87b56dd146103ca578063e985e9c5146103fa578063f2fde38b1461042a57610137565b80636352211e146102bc57806370a08231146102ec578063715018a61461031c5780638da5cb5b1461032657806395d89b411461034457610137565b806323579ba1116100ff57806323579ba1146101f457806323b872dd146102245780632f745c591461024057806342842e0e146102705780634f6ccce71461028c57610137565b806301ffc9a71461013c57806306fdde031461016c578063081812fc1461018a578063095ea7b3146101ba57806318160ddd146101d6575b600080fd5b610156600480360381019061015191906121c6565b610446565b604051610163919061220e565b60405180910390f35b6101746104c0565b60405161018191906122c2565b60405180910390f35b6101a4600480360381019061019f919061231a565b610552565b6040516101b19190612388565b60405180910390f35b6101d460048036038101906101cf91906123cf565b6105d7565b005b6101de6106ef565b6040516101eb919061241e565b60405180910390f35b61020e60048036038101906102099190612439565b6106fc565b60405161021b919061241e565b60405180910390f35b61023e6004803603810190610239919061248c565b610839565b005b61025a600480360381019061025591906123cf565b610899565b604051610267919061241e565b60405180910390f35b61028a6004803603810190610285919061248c565b61093e565b005b6102a660048036038101906102a1919061231a565b61095e565b6040516102b3919061241e565b60405180910390f35b6102d660048036038101906102d1919061231a565b6109cf565b6040516102e39190612388565b60405180910390f35b610306600480360381019061030191906124df565b610a81565b604051610313919061241e565b60405180910390f35b610324610b39565b005b61032e610bc1565b60405161033b9190612388565b60405180910390f35b61034c610beb565b60405161035991906122c2565b60405180910390f35b61037c60048036038101906103779190612538565b610c7d565b005b610398600480360381019061039391906126ad565b610c93565b005b6103b460048036038101906103af919061231a565b610cf5565b6040516103c1919061277d565b60405180910390f35b6103e460048036038101906103df919061231a565b610d82565b6040516103f191906122c2565b60405180910390f35b610414600480360381019061040f9190612798565b610e29565b604051610421919061220e565b60405180910390f35b610444600480360381019061043f91906124df565b610ebd565b005b60007f780e9d63000000000000000000000000000000000000000000000000000000007bffffffffffffffffffffffffffffffffffffffffffffffffffffffff1916827bffffffffffffffffffffffffffffffffffffffffffffffffffffffff191614806104b957506104b882610fb5565b5b9050919050565b6060600080546104cf90612807565b80601f01602080910402602001604051908101604052809291908181526020018280546104fb90612807565b80156105485780601f1061051d57610100808354040283529160200191610548565b820191906000526020600020905b81548152906001019060200180831161052b57829003601f168201915b5050505050905090565b600061055d82611097565b61059c576040517f08c379a0000000000000000000000000000000000000000000000000000000008152600401610593906128ab565b60405180910390fd5b6004600083815260200190815260200160002060009054906101000a900473ffffffffffffffffffffffffffffffffffffffff169050919050565b60006105e2826109cf565b90508073ffffffffffffffffffffffffffffffffffffffff168373ffffffffffffffffffffffffffffffffffffffff161415610653576040517f08c379a000000000000000000000000000000000000000000000000000000000815260040161064a9061293d565b60405180910390fd5b8073ffffffffffffffffffffffffffffffffffffffff16610672611103565b73ffffffffffffffffffffffffffffffffffffffff1614806106a157506106a08161069b611103565b610e29565b5b6106e0576040517f08c379a00000000000000000000000000000000000000000000000000000000081526004016106d7906129cf565b60405180910390fd5b6106ea838361110b565b505050565b6000600880549050905090565b6000610706611103565b73ffffffffffffffffffffffffffffffffffffffff16610724610bc1565b73ffffffffffffffffffffffffffffffffffffffff161461077a576040517f08c379a000000000000000000000000000000000000000000000000000000000815260040161077190612a3b565b60405180910390fd5b610784600b6111c4565b6000610790600b6111da565b905060405180604001604052808581526020018473ffffffffffffffffffffffffffffffffffffffff16815250600c60008381526020019081526020016000206000820151816000015560208201518160010160006101000a81548173ffffffffffffffffffffffffffffffffffffffff021916908373ffffffffffffffffffffffffffffffffffffffff16021790555090505061082e85826111e8565b809150509392505050565b61084a610844611103565b826113b6565b610889576040517f08c379a000000000000000000000000000000000000000000000000000000000815260040161088090612acd565b60405180910390fd5b610894838383611494565b505050565b60006108a483610a81565b82106108e5576040517f08c379a00000000000000000000000000000000000000000000000000000000081526004016108dc90612b5f565b60405180910390fd5b600660008473ffffffffffffffffffffffffffffffffffffffff1673ffffffffffffffffffffffffffffffffffffffff168152602001908152602001600020600083815260200190815260200160002054905092915050565b61095983838360405180602001604052806000815250610c93565b505050565b60006109686106ef565b82106109a9576040517f08c379a00000000000000000000000000000000000000000000000000000000081526004016109a090612bf1565b60405180910390fd5b600882815481106109bd576109bc612c11565b5b90600052602060002001549050919050565b6000806002600084815260200190815260200160002060009054906101000a900473ffffffffffffffffffffffffffffffffffffffff169050600073ffffffffffffffffffffffffffffffffffffffff168173ffffffffffffffffffffffffffffffffffffffff161415610a78576040517f08c379a0000000000000000000000000000000000000000000000000000000008152600401610a6f90612cb2565b60405180910390fd5b80915050919050565b60008073ffffffffffffffffffffffffffffffffffffffff168273ffffffffffffffffffffffffffffffffffffffff161415610af2576040517f08c379a0000000000000000000000000000000000000000000000000000000008152600401610ae990612d44565b60405180910390fd5b600360008373ffffffffffffffffffffffffffffffffffffffff1673ffffffffffffffffffffffffffffffffffffffff168152602001908152602001600020549050919050565b610b41611103565b73ffffffffffffffffffffffffffffffffffffffff16610b5f610bc1565b73ffffffffffffffffffffffffffffffffffffffff1614610bb5576040517f08c379a0000000000000000000000000000000000000000000000000000000008152600401610bac90612a3b565b60405180910390fd5b610bbf60006116f0565b565b6000600a60009054906101000a900473ffffffffffffffffffffffffffffffffffffffff16905090565b606060018054610bfa90612807565b80601f0160208091040260200160405190810160405280929190818152602001828054610c2690612807565b8015610c735780601f10610c4857610100808354040283529160200191610c73565b820191906000526020600020905b815481529060010190602001808311610c5657829003601f168201915b5050505050905090565b610c8f610c88611103565b83836117b6565b5050565b610ca4610c9e611103565b836113b6565b610ce3576040517f08c379a0000000000000000000000000000000000000000000000000000000008152600401610cda90612acd565b60405180910390fd5b610cef84848484611923565b50505050565b610cfd61212a565b600c6000838152602001908152602001600020604051806040016040529081600082015481526020016001820160009054906101000a900473ffffffffffffffffffffffffffffffffffffffff1673ffffffffffffffffffffffffffffffffffffffff1673ffffffffffffffffffffffffffffffffffffffff16815250509050919050565b6060610d8d82611097565b610dcc576040517f08c379a0000000000000000000000000000000000000000000000000000000008152600401610dc390612dd6565b60405180910390fd5b6000610dd661197f565b90506000815111610df65760405180602001604052806000815250610e21565b80610e0084611996565b604051602001610e11929190612e32565b6040516020818303038152906040525b915050919050565b6000600560008473ffffffffffffffffffffffffffffffffffffffff1673ffffffffffffffffffffffffffffffffffffffff16815260200190815260200160002060008373ffffffffffffffffffffffffffffffffffffffff1673ffffffffffffffffffffffffffffffffffffffff16815260200190815260200160002060009054906101000a900460ff16905092915050565b610ec5611103565b73ffffffffffffffffffffffffffffffffffffffff16610ee3610bc1565b73ffffffffffffffffffffffffffffffffffffffff1614610f39576040517f08c379a0000000000000000000000000000000000000000000000000000000008152600401610f3090612a3b565b60405180910390fd5b600073ffffffffffffffffffffffffffffffffffffffff168173ffffffffffffffffffffffffffffffffffffffff161415610fa9576040517f08c379a0000000000000000000000000000000000000000000000000000000008152600401610fa090612ec8565b60405180910390fd5b610fb2816116f0565b50565b60007f80ac58cd000000000000000000000000000000000000000000000000000000007bffffffffffffffffffffffffffffffffffffffffffffffffffffffff1916827bffffffffffffffffffffffffffffffffffffffffffffffffffffffff1916148061108057507f5b5e139f000000000000000000000000000000000000000000000000000000007bffffffffffffffffffffffffffffffffffffffffffffffffffffffff1916827bffffffffffffffffffffffffffffffffffffffffffffffffffffffff1916145b80611090575061108f82611af7565b5b9050919050565b60008073ffffffffffffffffffffffffffffffffffffffff166002600084815260200190815260200160002060009054906101000a900473ffffffffffffffffffffffffffffffffffffffff1673ffffffffffffffffffffffffffffffffffffffff1614159050919050565b600033905090565b816004600083815260200190815260200160002060006101000a81548173ffffffffffffffffffffffffffffffffffffffff021916908373ffffffffffffffffffffffffffffffffffffffff160217905550808273ffffffffffffffffffffffffffffffffffffffff1661117e836109cf565b73ffffffffffffffffffffffffffffffffffffffff167f8c5be1e5ebec7d5bd14f71427d1e84f3dd0314c0f7b2291e5b200ac8c7c3b92560405160405180910390a45050565b6001816000016000828254019250508190555050565b600081600001549050919050565b600073ffffffffffffffffffffffffffffffffffffffff168273ffffffffffffffffffffffffffffffffffffffff161415611258576040517f08c379a000000000000000000000000000000000000000000000000000000000815260040161124f90612f34565b60405180910390fd5b61126181611097565b156112a1576040517f08c379a000000000000000000000000000000000000000000000000000000000815260040161129890612fa0565b60405180910390fd5b6112ad60008383611b61565b6001600360008473ffffffffffffffffffffffffffffffffffffffff1673ffffffffffffffffffffffffffffffffffffffff16815260200190815260200160002060008282546112fd9190612fef565b92505081905550816002600083815260200190815260200160002060006101000a81548173ffffffffffffffffffffffffffffffffffffffff021916908373ffffffffffffffffffffffffffffffffffffffff160217905550808273ffffffffffffffffffffffffffffffffffffffff16600073ffffffffffffffffffffffffffffffffffffffff167fddf252ad1be2c89b69c2b068fc378daa952ba7f163c4a11628f55a4df523b3ef60405160405180910390a45050565b60006113c182611097565b611400576040517f08c379a00000000000000000000000000000000000000000000000000000000081526004016113f7906130b7565b60405180910390fd5b600061140b836109cf565b90508073ffffffffffffffffffffffffffffffffffffffff168473ffffffffffffffffffffffffffffffffffffffff16148061147a57508373ffffffffffffffffffffffffffffffffffffffff1661146284610552565b73ffffffffffffffffffffffffffffffffffffffff16145b8061148b575061148a8185610e29565b5b91505092915050565b8273ffffffffffffffffffffffffffffffffffffffff166114b4826109cf565b73ffffffffffffffffffffffffffffffffffffffff161461150a576040517f08c379a000000000000000000000000000000000000000000000000000000000815260040161150190613149565b60405180910390fd5b600073ffffffffffffffffffffffffffffffffffffffff168273ffffffffffffffffffffffffffffffffffffffff16141561157a576040517f08c379a0000000000000000000000000000000000000000000000000000000008152600401611571906131db565b60405180910390fd5b611585838383611b61565b61159060008261110b565b6001600360008573ffffffffffffffffffffffffffffffffffffffff1673ffffffffffffffffffffffffffffffffffffffff16815260200190815260200160002060008282546115e091906131fb565b925050819055506001600360008473ffffffffffffffffffffffffffffffffffffffff1673ffffffffffffffffffffffffffffffffffffffff16815260200190815260200160002060008282546116379190612fef565b92505081905550816002600083815260200190815260200160002060006101000a81548173ffffffffffffffffffffffffffffffffffffffff021916908373ffffffffffffffffffffffffffffffffffffffff160217905550808273ffffffffffffffffffffffffffffffffffffffff168473ffffffffffffffffffffffffffffffffffffffff167fddf252ad1be2c89b69c2b068fc378daa952ba7f163c4a11628f55a4df523b3ef60405160405180910390a4505050565b6000600a60009054906101000a900473ffffffffffffffffffffffffffffffffffffffff16905081600a60006101000a81548173ffffffffffffffffffffffffffffffffffffffff021916908373ffffffffffffffffffffffffffffffffffffffff1602179055508173ffffffffffffffffffffffffffffffffffffffff168173ffffffffffffffffffffffffffffffffffffffff167f8be0079c531659141344cd1fd0a4f28419497f9722a3daafe3b4186f6b6457e060405160405180910390a35050565b8173ffffffffffffffffffffffffffffffffffffffff168373ffffffffffffffffffffffffffffffffffffffff161415611825576040517f08c379a000000000000000000000000000000000000000000000000000000000815260040161181c9061327b565b60405180910390fd5b80600560008573ffffffffffffffffffffffffffffffffffffffff1673ffffffffffffffffffffffffffffffffffffffff16815260200190815260200160002060008473ffffffffffffffffffffffffffffffffffffffff1673ffffffffffffffffffffffffffffffffffffffff16815260200190815260200160002060006101000a81548160ff0219169083151502179055508173ffffffffffffffffffffffffffffffffffffffff168373ffffffffffffffffffffffffffffffffffffffff167f17307eab39ab6107e8899845ad3d59bd9653f200f220920489ca2b5937696c3183604051611916919061220e565b60405180910390a3505050565b61192e848484611494565b61193a84848484611c75565b611979576040517f08c379a00000000000000000000000000000000000000000000000000000000081526004016119709061330d565b60405180910390fd5b50505050565b606060405180602001604052806000815250905090565b606060008214156119de576040518060400160405280600181526020017f30000000000000000000000000000000000000000000000000000000000000008152509050611af2565b600082905060005b60008214611a105780806119f99061332d565b915050600a82611a0991906133a5565b91506119e6565b60008167ffffffffffffffff811115611a2c57611a2b612582565b5b6040519080825280601f01601f191660200182016040528015611a5e5781602001600182028036833780820191505090505b5090505b60008514611aeb57600182611a7791906131fb565b9150600a85611a8691906133d6565b6030611a929190612fef565b60f81b818381518110611aa857611aa7612c11565b5b60200101907effffffffffffffffffffffffffffffffffffffffffffffffffffffffffffff1916908160001a905350600a85611ae491906133a5565b9450611a62565b8093505050505b919050565b60007f01ffc9a7000000000000000000000000000000000000000000000000000000007bffffffffffffffffffffffffffffffffffffffffffffffffffffffff1916827bffffffffffffffffffffffffffffffffffffffffffffffffffffffff1916149050919050565b611b6c838383611e0c565b600073ffffffffffffffffffffffffffffffffffffffff168373ffffffffffffffffffffffffffffffffffffffff161415611baf57611baa81611e11565b611bee565b8173ffffffffffffffffffffffffffffffffffffffff168373ffffffffffffffffffffffffffffffffffffffff1614611bed57611bec8382611e5a565b5b5b600073ffffffffffffffffffffffffffffffffffffffff168273ffffffffffffffffffffffffffffffffffffffff161415611c3157611c2c81611fc7565b611c70565b8273ffffffffffffffffffffffffffffffffffffffff168273ffffffffffffffffffffffffffffffffffffffff1614611c6f57611c6e8282612098565b5b5b505050565b6000611c968473ffffffffffffffffffffffffffffffffffffffff16612117565b15611dff578373ffffffffffffffffffffffffffffffffffffffff1663150b7a02611cbf611103565b8786866040518563ffffffff1660e01b8152600401611ce1949392919061345c565b602060405180830381600087803b158015611cfb57600080fd5b505af1925050508015611d2c57506040513d601f19601f82011682018060405250810190611d2991906134bd565b60015b611daf573d8060008114611d5c576040519150601f19603f3d011682016040523d82523d6000602084013e611d61565b606091505b50600081511415611da7576040517f08c379a0000000000000000000000000000000000000000000000000000000008152600401611d9e9061330d565b60405180910390fd5b805181602001fd5b63150b7a0260e01b7bffffffffffffffffffffffffffffffffffffffffffffffffffffffff1916817bffffffffffffffffffffffffffffffffffffffffffffffffffffffff191614915050611e04565b600190505b949350505050565b505050565b6008805490506009600083815260200190815260200160002081905550600881908060018154018082558091505060019003906000526020600020016000909190919091505550565b60006001611e6784610a81565b611e7191906131fb565b9050600060076000848152602001908152602001600020549050818114611f56576000600660008673ffffffffffffffffffffffffffffffffffffffff1673ffffffffffffffffffffffffffffffffffffffff168152602001908152602001600020600084815260200190815260200160002054905080600660008773ffffffffffffffffffffffffffffffffffffffff1673ffffffffffffffffffffffffffffffffffffffff168152602001908152602001600020600084815260200190815260200160002081905550816007600083815260200190815260200160002081905550505b6007600084815260200190815260200160002060009055600660008573ffffffffffffffffffffffffffffffffffffffff1673ffffffffffffffffffffffffffffffffffffffff16815260200190815260200160002060008381526020019081526020016000206000905550505050565b60006001600880549050611fdb91906131fb565b905060006009600084815260200190815260200160002054905060006008838154811061200b5761200a612c11565b5b90600052602060002001549050806008838154811061202d5761202c612c11565b5b90600052602060002001819055508160096000838152602001908152602001600020819055506009600085815260200190815260200160002060009055600880548061207c5761207b6134ea565b5b6001900381819060005260206000200160009055905550505050565b60006120a383610a81565b905081600660008573ffffffffffffffffffffffffffffffffffffffff1673ffffffffffffffffffffffffffffffffffffffff168152602001908152602001600020600083815260200190815260200160002081905550806007600084815260200190815260200160002081905550505050565b600080823b905060008111915050919050565b604051806040016040528060008152602001600073ffffffffffffffffffffffffffffffffffffffff1681525090565b6000604051905090565b600080fd5b600080fd5b60007fffffffff0000000000000000000000000000000000000000000000000000000082169050919050565b6121a38161216e565b81146121ae57600080fd5b50565b6000813590506121c08161219a565b92915050565b6000602082840312156121dc576121db612164565b5b60006121ea848285016121b1565b91505092915050565b60008115159050919050565b612208816121f3565b82525050565b600060208201905061222360008301846121ff565b92915050565b600081519050919050565b600082825260208201905092915050565b60005b83811015612263578082015181840152602081019050612248565b83811115612272576000848401525b50505050565b6000601f19601f8301169050919050565b600061229482612229565b61229e8185612234565b93506122ae818560208601612245565b6122b781612278565b840191505092915050565b600060208201905081810360008301526122dc8184612289565b905092915050565b6000819050919050565b6122f7816122e4565b811461230257600080fd5b50565b600081359050612314816122ee565b92915050565b6000602082840312156123305761232f612164565b5b600061233e84828501612305565b91505092915050565b600073ffffffffffffffffffffffffffffffffffffffff82169050919050565b600061237282612347565b9050919050565b61238281612367565b82525050565b600060208201905061239d6000830184612379565b92915050565b6123ac81612367565b81146123b757600080fd5b50565b6000813590506123c9816123a3565b92915050565b600080604083850312156123e6576123e5612164565b5b60006123f4858286016123ba565b925050602061240585828601612305565b9150509250929050565b612418816122e4565b82525050565b6000602082019050612433600083018461240f565b92915050565b60008060006060848603121561245257612451612164565b5b6000612460868287016123ba565b935050602061247186828701612305565b9250506040612482868287016123ba565b9150509250925092565b6000806000606084860312156124a5576124a4612164565b5b60006124b3868287016123ba565b93505060206124c4868287016123ba565b92505060406124d586828701612305565b9150509250925092565b6000602082840312156124f5576124f4612164565b5b6000612503848285016123ba565b91505092915050565b612515816121f3565b811461252057600080fd5b50565b6000813590506125328161250c565b92915050565b6000806040838503121561254f5761254e612164565b5b600061255d858286016123ba565b925050602061256e85828601612523565b9150509250929050565b600080fd5b600080fd5b7f4e487b7100000000000000000000000000000000000000000000000000000000600052604160045260246000fd5b6125ba82612278565b810181811067ffffffffffffffff821117156125d9576125d8612582565b5b80604052505050565b60006125ec61215a565b90506125f882826125b1565b919050565b600067ffffffffffffffff82111561261857612617612582565b5b61262182612278565b9050602081019050919050565b82818337600083830152505050565b600061265061264b846125fd565b6125e2565b90508281526020810184848401111561266c5761266b61257d565b5b61267784828561262e565b509392505050565b600082601f83011261269457612693612578565b5b81356126a484826020860161263d565b91505092915050565b600080600080608085870312156126c7576126c6612164565b5b60006126d5878288016123ba565b94505060206126e6878288016123ba565b93505060406126f787828801612305565b925050606085013567ffffffffffffffff81111561271857612717612169565b5b6127248782880161267f565b91505092959194509250565b612739816122e4565b82525050565b61274881612367565b82525050565b6040820160008201516127646000850182612730565b506020820151612777602085018261273f565b50505050565b6000604082019050612792600083018461274e565b92915050565b600080604083850312156127af576127ae612164565b5b60006127bd858286016123ba565b92505060206127ce858286016123ba565b9150509250929050565b7f4e487b7100000000000000000000000000000000000000000000000000000000600052602260045260246000fd5b6000600282049050600182168061281f57607f821691505b60208210811415612833576128326127d8565b5b50919050565b7f4552433732313a20617070726f76656420717565727920666f72206e6f6e657860008201527f697374656e7420746f6b656e0000000000000000000000000000000000000000602082015250565b6000612895602c83612234565b91506128a082612839565b604082019050919050565b600060208201905081810360008301526128c481612888565b9050919050565b7f4552433732313a20617070726f76616c20746f2063757272656e74206f776e6560008201527f7200000000000000000000000000000000000000000000000000000000000000602082015250565b6000612927602183612234565b9150612932826128cb565b604082019050919050565b600060208201905081810360008301526129568161291a565b9050919050565b7f4552433732313a20617070726f76652063616c6c6572206973206e6f74206f7760008201527f6e6572206e6f7220617070726f76656420666f7220616c6c0000000000000000602082015250565b60006129b9603883612234565b91506129c48261295d565b604082019050919050565b600060208201905081810360008301526129e8816129ac565b9050919050565b7f4f776e61626c653a2063616c6c6572206973206e6f7420746865206f776e6572600082015250565b6000612a25602083612234565b9150612a30826129ef565b602082019050919050565b60006020820190508181036000830152612a5481612a18565b9050919050565b7f4552433732313a207472616e736665722063616c6c6572206973206e6f74206f60008201527f776e6572206e6f7220617070726f766564000000000000000000000000000000602082015250565b6000612ab7603183612234565b9150612ac282612a5b565b604082019050919050565b60006020820190508181036000830152612ae681612aaa565b9050919050565b7f455243373231456e756d657261626c653a206f776e657220696e646578206f7560008201527f74206f6620626f756e6473000000000000000000000000000000000000000000602082015250565b6000612b49602b83612234565b9150612b5482612aed565b604082019050919050565b60006020820190508181036000830152612b7881612b3c565b9050919050565b7f455243373231456e756d657261626c653a20676c6f62616c20696e646578206f60008201527f7574206f6620626f756e64730000000000000000000000000000000000000000602082015250565b6000612bdb602c83612234565b9150612be682612b7f565b604082019050919050565b60006020820190508181036000830152612c0a81612bce565b9050919050565b7f4e487b7100000000000000000000000000000000000000000000000000000000600052603260045260246000fd5b7f4552433732313a206f776e657220717565727920666f72206e6f6e657869737460008201527f656e7420746f6b656e0000000000000000000000000000000000000000000000602082015250565b6000612c9c602983612234565b9150612ca782612c40565b604082019050919050565b60006020820190508181036000830152612ccb81612c8f565b9050919050565b7f4552433732313a2062616c616e636520717565727920666f7220746865207a6560008201527f726f206164647265737300000000000000000000000000000000000000000000602082015250565b6000612d2e602a83612234565b9150612d3982612cd2565b604082019050919050565b60006020820190508181036000830152612d5d81612d21565b9050919050565b7f4552433732314d657461646174613a2055524920717565727920666f72206e6f60008201527f6e6578697374656e7420746f6b656e0000000000000000000000000000000000602082015250565b6000612dc0602f83612234565b9150612dcb82612d64565b604082019050919050565b60006020820190508181036000830152612def81612db3565b9050919050565b600081905092915050565b6000612e0c82612229565b612e168185612df6565b9350612e26818560208601612245565b80840191505092915050565b6000612e3e8285612e01565b9150612e4a8284612e01565b91508190509392505050565b7f4f776e61626c653a206e6577206f776e657220697320746865207a65726f206160008201527f6464726573730000000000000000000000000000000000000000000000000000602082015250565b6000612eb2602683612234565b9150612ebd82612e56565b604082019050919050565b60006020820190508181036000830152612ee181612ea5565b9050919050565b7f4552433732313a206d696e7420746f20746865207a65726f2061646472657373600082015250565b6000612f1e602083612234565b9150612f2982612ee8565b602082019050919050565b60006020820190508181036000830152612f4d81612f11565b9050919050565b7f4552433732313a20746f6b656e20616c7265616479206d696e74656400000000600082015250565b6000612f8a601c83612234565b9150612f9582612f54565b602082019050919050565b60006020820190508181036000830152612fb981612f7d565b9050919050565b7f4e487b7100000000000000000000000000000000000000000000000000000000600052601160045260246000fd5b6000612ffa826122e4565b9150613005836122e4565b9250827fffffffffffffffffffffffffffffffffffffffffffffffffffffffffffffffff0382111561303a57613039612fc0565b5b828201905092915050565b7f4552433732313a206f70657261746f7220717565727920666f72206e6f6e657860008201527f697374656e7420746f6b656e0000000000000000000000000000000000000000602082015250565b60006130a1602c83612234565b91506130ac82613045565b604082019050919050565b600060208201905081810360008301526130d081613094565b9050919050565b7f4552433732313a207472616e73666572206f6620746f6b656e2074686174206960008201527f73206e6f74206f776e0000000000000000000000000000000000000000000000602082015250565b6000613133602983612234565b915061313e826130d7565b604082019050919050565b6000602082019050818103600083015261316281613126565b9050919050565b7f4552433732313a207472616e7366657220746f20746865207a65726f2061646460008201527f7265737300000000000000000000000000000000000000000000000000000000602082015250565b60006131c5602483612234565b91506131d082613169565b604082019050919050565b600060208201905081810360008301526131f4816131b8565b9050919050565b6000613206826122e4565b9150613211836122e4565b92508282101561322457613223612fc0565b5b828203905092915050565b7f4552433732313a20617070726f766520746f2063616c6c657200000000000000600082015250565b6000613265601983612234565b91506132708261322f565b602082019050919050565b6000602082019050818103600083015261329481613258565b9050919050565b7f4552433732313a207472616e7366657220746f206e6f6e20455243373231526560008201527f63656976657220696d706c656d656e7465720000000000000000000000000000602082015250565b60006132f7603283612234565b91506133028261329b565b604082019050919050565b60006020820190508181036000830152613326816132ea565b9050919050565b6000613338826122e4565b91507fffffffffffffffffffffffffffffffffffffffffffffffffffffffffffffffff82141561336b5761336a612fc0565b5b600182019050919050565b7f4e487b7100000000000000000000000000000000000000000000000000000000600052601260045260246000fd5b60006133b0826122e4565b91506133bb836122e4565b9250826133cb576133ca613376565b5b828204905092915050565b60006133e1826122e4565b91506133ec836122e4565b9250826133fc576133fb613376565b5b828206905092915050565b600081519050919050565b600082825260208201905092915050565b600061342e82613407565b6134388185613412565b9350613448818560208601612245565b61345181612278565b840191505092915050565b60006080820190506134716000830187612379565b61347e6020830186612379565b61348b604083018561240f565b818103606083015261349d8184613423565b905095945050505050565b6000815190506134b78161219a565b92915050565b6000602082840312156134d3576134d2612164565b5b60006134e1848285016134a8565b91505092915050565b7f4e487b7100000000000000000000000000000000000000000000000000000000600052603160045260246000fdfea26469706673582212204fceb336f0ca11da15448ca07ea0fdf350768364f49739bcc628c577608957b664736f6c63430008090033608060405234801561001057600080fd5b506001600360006101000a81548160ff0219169083151502179055506132638061003b6000396000f3fe6080604052600436106101095760003560e01c80633735ef8811610095578063711cc00511610064578063711cc005146103725780637f80069a146103af5780638aebe8d6146103da578063a56f5b5314610417578063f45346dc1461044057610109565b80633735ef88146102a457806350d02d71146102e157806357ac65661461030a5780635ff189b91461033557610109565b806317d7de7c116100dc57806317d7de7c146101dc5780631b88094d146102075780632d2da806146102325780632f7570061461024e578063343d693b1461027957610109565b80630251cfa11461010e5780630712f6b31461014b5780630835d21a1461018857806316762eed146101b3575b600080fd5b34801561011a57600080fd5b5061013560048036038101906101309190612104565b610469565b604051610142919061214a565b60405180910390f35b34801561015757600080fd5b50610172600480360381019061016d9190612104565b6104b2565b60405161017f919061214a565b60405180910390f35b34801561019457600080fd5b5061019d6105e7565b6040516101aa919061217e565b60405180910390f35b3480156101bf57600080fd5b506101da60048036038101906101d591906121c5565b610647565b005b3480156101e857600080fd5b506101f1610a60565b6040516101fe91906122c5565b60405180910390f35b34801561021357600080fd5b5061021c610af2565b60405161022991906122f6565b60405180910390f35b61024c60048036038101906102479190612104565b610b1c565b005b34801561025a57600080fd5b50610263610cb4565b60405161027091906123cf565b60405180910390f35b34801561028557600080fd5b5061028e610d42565b60405161029b91906122c5565b60405180910390f35b3480156102b057600080fd5b506102cb60048036038101906102c69190612104565b610dd4565b6040516102d8919061214a565b60405180910390f35b3480156102ed57600080fd5b50610308600480360381019061030391906125ee565b610f59565b005b34801561031657600080fd5b5061031f6113cc565b60405161032c91906126fe565b60405180910390f35b34801561034157600080fd5b5061035c60048036038101906103579190612104565b611406565b604051610369919061214a565b60405180910390f35b34801561037e57600080fd5b5061039960048036038101906103949190612104565b61144f565b6040516103a691906122f6565b60405180910390f35b3480156103bb57600080fd5b506103c46114fc565b6040516103d1919061273b565b60405180910390f35b3480156103e657600080fd5b5061040160048036038101906103fc9190612104565b61150f565b60405161040e919061214a565b60405180910390f35b34801561042357600080fd5b5061043e60048036038101906104399190612104565b6115ec565b005b34801561044c57600080fd5b5061046760048036038101906104629190612756565b611aba565b005b6000600160008373ffffffffffffffffffffffffffffffffffffffff1673ffffffffffffffffffffffffffffffffffffffff168152602001908152602001600020549050919050565b600080733c73a5e5785cac854d468f727c606c07488a29d673ffffffffffffffffffffffffffffffffffffffff1663d2493b6c846040518263ffffffff1660e01b815260040161050291906122f6565b60606040518083038186803b15801561051a57600080fd5b505afa15801561052e573d6000803e3d6000fd5b505050506040513d601f19601f8201168201806040525081019061055291906127be565b505090508073ffffffffffffffffffffffffffffffffffffffff166370a08231306040518263ffffffff1660e01b815260040161058f91906122f6565b60206040518083038186803b1580156105a757600080fd5b505afa1580156105bb573d6000803e3d6000fd5b505050506040513d601f19601f820116820180604052508101906105df9190612826565b915050919050565b60003073ffffffffffffffffffffffffffffffffffffffff16803b806020016040519081016040528181526000908060200190933c60405160200161062c919061288f565b60405160208183030381529060405280519060200120905090565b338073ffffffffffffffffffffffffffffffffffffffff16600760009054906101000a900473ffffffffffffffffffffffffffffffffffffffff1673ffffffffffffffffffffffffffffffffffffffff16146106d8576040517f08c379a00000000000000000000000000000000000000000000000000000000081526004016106cf906128f2565b60405180910390fd5b818585856000821161071f576040517f08c379a00000000000000000000000000000000000000000000000000000000081526004016107169061295e565b60405180910390fd5b80821015610762576040517f08c379a0000000000000000000000000000000000000000000000000000000008152600401610759906129f0565b60405180910390fd5b6000871461090f57600087896107789190612a3f565b9050600460009054906101000a900473ffffffffffffffffffffffffffffffffffffffff1673ffffffffffffffffffffffffffffffffffffffff166369328dec8b8a600660009054906101000a900473ffffffffffffffffffffffffffffffffffffffff166040518463ffffffff1660e01b81526004016107fb93929190612a73565b602060405180830381600087803b15801561081557600080fd5b505af1158015610829573d6000803e3d6000fd5b505050506040513d601f19601f8201168201806040525081019061084d9190612826565b506000811461090957600460009054906101000a900473ffffffffffffffffffffffffffffffffffffffff1673ffffffffffffffffffffffffffffffffffffffff166369328dec8b838a6040518463ffffffff1660e01b81526004016108b593929190612a73565b602060405180830381600087803b1580156108cf57600080fd5b505af11580156108e3573d6000803e3d6000fd5b505050506040513d601f19601f820116820180604052508101906109079190612826565b505b506109c2565b600460009054906101000a900473ffffffffffffffffffffffffffffffffffffffff1673ffffffffffffffffffffffffffffffffffffffff166369328dec8a8a896040518463ffffffff1660e01b815260040161096e93929190612a73565b602060405180830381600087803b15801561098857600080fd5b505af115801561099c573d6000803e3d6000fd5b505050506040513d601f19601f820116820180604052508101906109c09190612826565b505b87600160008b73ffffffffffffffffffffffffffffffffffffffff1673ffffffffffffffffffffffffffffffffffffffff1681526020019081526020016000206000828254610a119190612a3f565b925050819055507ff341246adaac6f497bc2a656f546ab9e182111d630394f0c57c710a59a2cb56789878a8a604051610a4d9493929190612aaa565b60405180910390a1505050505050505050565b606060088054610a6f90612b1e565b80601f0160208091040260200160405190810160405280929190818152602001828054610a9b90612b1e565b8015610ae85780601f10610abd57610100808354040283529160200191610ae8565b820191906000526020600020905b815481529060010190602001808311610acb57829003601f168201915b5050505050905090565b6000600660009054906101000a900473ffffffffffffffffffffffffffffffffffffffff16905090565b338073ffffffffffffffffffffffffffffffffffffffff16600760009054906101000a900473ffffffffffffffffffffffffffffffffffffffff1673ffffffffffffffffffffffffffffffffffffffff1614610bad576040517f08c379a0000000000000000000000000000000000000000000000000000000008152600401610ba4906128f2565b60405180910390fd5b6000600460009054906101000a900473ffffffffffffffffffffffffffffffffffffffff16905073a61ca04df33b72b235a8a28cfb535bb7a5271b7073ffffffffffffffffffffffffffffffffffffffff1663474cf53d34833060006040518563ffffffff1660e01b8152600401610c2793929190612ba3565b6000604051808303818588803b158015610c4057600080fd5b505af1158015610c54573d6000803e3d6000fd5b505050505034600160008573ffffffffffffffffffffffffffffffffffffffff1673ffffffffffffffffffffffffffffffffffffffff1681526020019081526020016000206000828254610ca89190612bda565b92505081905550505050565b60606005805480602002602001604051908101604052809291908181526020018280548015610d3857602002820191906000526020600020905b8160009054906101000a900473ffffffffffffffffffffffffffffffffffffffff1673ffffffffffffffffffffffffffffffffffffffff1681526020019060010190808311610cee575b5050505050905090565b606060098054610d5190612b1e565b80601f0160208091040260200160405190810160405280929190818152602001828054610d7d90612b1e565b8015610dca5780601f10610d9f57610100808354040283529160200191610dca565b820191906000526020600020905b815481529060010190602001808311610dad57829003601f168201915b5050505050905090565b600080733c73a5e5785cac854d468f727c606c07488a29d673ffffffffffffffffffffffffffffffffffffffff1663d2493b6c846040518263ffffffff1660e01b8152600401610e2491906122f6565b60606040518083038186803b158015610e3c57600080fd5b505afa158015610e50573d6000803e3d6000fd5b505050506040513d601f19601f82011682018060405250810190610e7491906127be565b5050905060008173ffffffffffffffffffffffffffffffffffffffff166370a08231306040518263ffffffff1660e01b8152600401610eb391906122f6565b60206040518083038186803b158015610ecb57600080fd5b505afa158015610edf573d6000803e3d6000fd5b505050506040513d601f19601f82011682018060405250810190610f039190612826565b9050600160008573ffffffffffffffffffffffffffffffffffffffff1673ffffffffffffffffffffffffffffffffffffffff1681526020019081526020016000205481610f509190612a3f565b92505050919050565b82601e60008290508160ff16815110610fa7576040517f08c379a0000000000000000000000000000000000000000000000000000000008152600401610f9e90612c7c565b60405180910390fd5b8460c860008290508160ff16815110610ff5576040517f08c379a0000000000000000000000000000000000000000000000000000000008152600401610fec90612c7c565b60405180910390fd5b600060019054906101000a900460ff1661101d5760008054906101000a900460ff1615611026565b611025611f41565b5b611065576040517f08c379a000000000000000000000000000000000000000000000000000000000815260040161105c90612d0e565b60405180910390fd5b60008060019054906101000a900460ff1615905080156110b5576001600060016101000a81548160ff02191690831515021790555060016000806101000a81548160ff0219169083151502179055505b60001515600360009054906101000a900460ff1615151461110b576040517f08c379a000000000000000000000000000000000000000000000000000000000815260040161110290612d7a565b60405180910390fd5b600073ffffffffffffffffffffffffffffffffffffffff16600660009054906101000a900473ffffffffffffffffffffffffffffffffffffffff1673ffffffffffffffffffffffffffffffffffffffff161461119c576040517f08c379a000000000000000000000000000000000000000000000000000000000815260040161119390612de6565b60405180910390fd5b87600660006101000a81548173ffffffffffffffffffffffffffffffffffffffff021916908373ffffffffffffffffffffffffffffffffffffffff16021790555033600760006101000a81548173ffffffffffffffffffffffffffffffffffffffff021916908373ffffffffffffffffffffffffffffffffffffffff1602179055508960089080519060200190611234929190611f65565b50886009908051906020019061124b929190611f65565b507388757f2f99175387ab4c6a4b3067c77a695b0349600360016101000a81548173ffffffffffffffffffffffffffffffffffffffff021916908373ffffffffffffffffffffffffffffffffffffffff1602179055506000600360019054906101000a900473ffffffffffffffffffffffffffffffffffffffff1673ffffffffffffffffffffffffffffffffffffffff16630261bf8b6040518163ffffffff1660e01b815260040160206040518083038186803b15801561130b57600080fd5b505afa15801561131f573d6000803e3d6000fd5b505050506040513d601f19601f820116820180604052508101906113439190612e06565b905080600460006101000a81548173ffffffffffffffffffffffffffffffffffffffff021916908373ffffffffffffffffffffffffffffffffffffffff1602179055508b6005908051906020019061139c929190611feb565b505080156113bf5760008060016101000a81548160ff0219169083151502179055505b5050505050505050505050565b60603073ffffffffffffffffffffffffffffffffffffffff16803b806020016040519081016040528181526000908060200190933c905090565b6000600260008373ffffffffffffffffffffffffffffffffffffffff1673ffffffffffffffffffffffffffffffffffffffff168152602001908152602001600020549050919050565b600080733c73a5e5785cac854d468f727c606c07488a29d673ffffffffffffffffffffffffffffffffffffffff1663d2493b6c846040518263ffffffff1660e01b815260040161149f91906122f6565b60606040518083038186803b1580156114b757600080fd5b505afa1580156114cb573d6000803e3d6000fd5b505050506040513d601f19601f820116820180604052508101906114ef91906127be565b5050905080915050919050565b600360009054906101000a900460ff1681565b6000733c73a5e5785cac854d468f727c606c07488a29d673ffffffffffffffffffffffffffffffffffffffff166335ea6a75836040518263ffffffff1660e01b815260040161155e91906122f6565b6101406040518083038186803b15801561157757600080fd5b505afa15801561158b573d6000803e3d6000fd5b505050506040513d601f19601f820116820180604052508101906115af9190612e70565b9091929394959697985090919293949596975090919293949596509091929394955090919293945090919293509091925090505080915050919050565b338073ffffffffffffffffffffffffffffffffffffffff16600760009054906101000a900473ffffffffffffffffffffffffffffffffffffffff1673ffffffffffffffffffffffffffffffffffffffff161461167d576040517f08c379a0000000000000000000000000000000000000000000000000000000008152600401611674906128f2565b60405180910390fd5b81600080600090505b6005805490508160ff1610156117275760058160ff16815481106116ad576116ac612f4f565b5b9060005260206000200160009054906101000a900473ffffffffffffffffffffffffffffffffffffffff1673ffffffffffffffffffffffffffffffffffffffff168373ffffffffffffffffffffffffffffffffffffffff1614156117145760019150611727565b808061171f90612f8b565b915050611686565b5080611768576040517f08c379a000000000000000000000000000000000000000000000000000000000815260040161175f90613027565b60405180910390fd5b6000733c73a5e5785cac854d468f727c606c07488a29d673ffffffffffffffffffffffffffffffffffffffff1663d2493b6c866040518263ffffffff1660e01b81526004016117b791906122f6565b60606040518083038186803b1580156117cf57600080fd5b505afa1580156117e3573d6000803e3d6000fd5b505050506040513d601f19601f8201168201806040525081019061180791906127be565b5050905060008173ffffffffffffffffffffffffffffffffffffffff166370a08231306040518263ffffffff1660e01b815260040161184691906122f6565b60206040518083038186803b15801561185e57600080fd5b505afa158015611872573d6000803e3d6000fd5b505050506040513d601f19601f820116820180604052508101906118969190612826565b90506000600160008873ffffffffffffffffffffffffffffffffffffffff1673ffffffffffffffffffffffffffffffffffffffff16815260200190815260200160002054826118e59190612a3f565b905080600260008973ffffffffffffffffffffffffffffffffffffffff1673ffffffffffffffffffffffffffffffffffffffff16815260200190815260200160002060008282546119369190612bda565b92505081905550600460009054906101000a900473ffffffffffffffffffffffffffffffffffffffff1673ffffffffffffffffffffffffffffffffffffffff166369328dec8883600660009054906101000a900473ffffffffffffffffffffffffffffffffffffffff166040518463ffffffff1660e01b81526004016119be93929190612a73565b602060405180830381600087803b1580156119d857600080fd5b505af11580156119ec573d6000803e3d6000fd5b505050506040513d601f19601f82011682018060405250810190611a109190612826565b507ffb42c6fc06609281806d5b0ad4bd7b7bb222a7ac7fa9e5211fa7ac032fa491ae87600660009054906101000a900473ffffffffffffffffffffffffffffffffffffffff1683600160008c73ffffffffffffffffffffffffffffffffffffffff1673ffffffffffffffffffffffffffffffffffffffff1681526020019081526020016000205487604051611aa9959493929190613047565b60405180910390a150505050505050565b338073ffffffffffffffffffffffffffffffffffffffff16600760009054906101000a900473ffffffffffffffffffffffffffffffffffffffff1673ffffffffffffffffffffffffffffffffffffffff1614611b4b576040517f08c379a0000000000000000000000000000000000000000000000000000000008152600401611b42906128f2565b60405180910390fd5b83600080600090505b6005805490508160ff161015611bf55760058160ff1681548110611b7b57611b7a612f4f565b5b9060005260206000200160009054906101000a900473ffffffffffffffffffffffffffffffffffffffff1673ffffffffffffffffffffffffffffffffffffffff168373ffffffffffffffffffffffffffffffffffffffff161415611be25760019150611bf5565b8080611bed90612f8b565b915050611b54565b5080611c36576040517f08c379a0000000000000000000000000000000000000000000000000000000008152600401611c2d90613027565b60405180910390fd5b6000869050858173ffffffffffffffffffffffffffffffffffffffff1663dd62ed3e87306040518363ffffffff1660e01b8152600401611c7792919061309a565b60206040518083038186803b158015611c8f57600080fd5b505afa158015611ca3573d6000803e3d6000fd5b505050506040513d601f19601f82011682018060405250810190611cc79190612826565b1015611d08576040517f08c379a0000000000000000000000000000000000000000000000000000000008152600401611cff9061310f565b60405180910390fd5b8073ffffffffffffffffffffffffffffffffffffffff166323b872dd8630896040518463ffffffff1660e01b8152600401611d459392919061312f565b602060405180830381600087803b158015611d5f57600080fd5b505af1158015611d73573d6000803e3d6000fd5b505050506040513d601f19601f82011682018060405250810190611d979190613192565b506000600460009054906101000a900473ffffffffffffffffffffffffffffffffffffffff1690508173ffffffffffffffffffffffffffffffffffffffff1663095ea7b382896040518363ffffffff1660e01b8152600401611dfa9291906131bf565b602060405180830381600087803b158015611e1457600080fd5b505af1158015611e28573d6000803e3d6000fd5b505050506040513d601f19601f82011682018060405250810190611e4c9190613192565b50600460009054906101000a900473ffffffffffffffffffffffffffffffffffffffff1673ffffffffffffffffffffffffffffffffffffffff1663e8eda9df83893060006040518563ffffffff1660e01b8152600401611eaf94939291906131e8565b600060405180830381600087803b158015611ec957600080fd5b505af1158015611edd573d6000803e3d6000fd5b5050505086600160008a73ffffffffffffffffffffffffffffffffffffffff1673ffffffffffffffffffffffffffffffffffffffff1681526020019081526020016000206000828254611f309190612bda565b925050819055505050505050505050565b6000611f4c30611f52565b15905090565b600080823b905060008111915050919050565b828054611f7190612b1e565b90600052602060002090601f016020900481019282611f935760008555611fda565b82601f10611fac57805160ff1916838001178555611fda565b82800160010185558215611fda579182015b82811115611fd9578251825591602001919060010190611fbe565b5b509050611fe79190612075565b5090565b828054828255906000526020600020908101928215612064579160200282015b828111156120635782518260006101000a81548173ffffffffffffffffffffffffffffffffffffffff021916908373ffffffffffffffffffffffffffffffffffffffff1602179055509160200191906001019061200b565b5b5090506120719190612075565b5090565b5b8082111561208e576000816000905550600101612076565b5090565b6000604051905090565b600080fd5b600080fd5b600073ffffffffffffffffffffffffffffffffffffffff82169050919050565b60006120d1826120a6565b9050919050565b6120e1816120c6565b81146120ec57600080fd5b50565b6000813590506120fe816120d8565b92915050565b60006020828403121561211a5761211961209c565b5b6000612128848285016120ef565b91505092915050565b6000819050919050565b61214481612131565b82525050565b600060208201905061215f600083018461213b565b92915050565b6000819050919050565b61217881612165565b82525050565b6000602082019050612193600083018461216f565b92915050565b6121a281612131565b81146121ad57600080fd5b50565b6000813590506121bf81612199565b92915050565b600080600080608085870312156121df576121de61209c565b5b60006121ed878288016120ef565b94505060206121fe878288016121b0565b935050604061220f878288016121b0565b9250506060612220878288016120ef565b91505092959194509250565b600081519050919050565b600082825260208201905092915050565b60005b8381101561226657808201518184015260208101905061224b565b83811115612275576000848401525b50505050565b6000601f19601f8301169050919050565b60006122978261222c565b6122a18185612237565b93506122b1818560208601612248565b6122ba8161227b565b840191505092915050565b600060208201905081810360008301526122df818461228c565b905092915050565b6122f0816120c6565b82525050565b600060208201905061230b60008301846122e7565b92915050565b600081519050919050565b600082825260208201905092915050565b6000819050602082019050919050565b612346816120c6565b82525050565b6000612358838361233d565b60208301905092915050565b6000602082019050919050565b600061237c82612311565b612386818561231c565b93506123918361232d565b8060005b838110156123c25781516123a9888261234c565b97506123b483612364565b925050600181019050612395565b5085935050505092915050565b600060208201905081810360008301526123e98184612371565b905092915050565b600080fd5b7f4e487b7100000000000000000000000000000000000000000000000000000000600052604160045260246000fd5b61242e8261227b565b810181811067ffffffffffffffff8211171561244d5761244c6123f6565b5b80604052505050565b6000612460612092565b905061246c8282612425565b919050565b600067ffffffffffffffff82111561248c5761248b6123f6565b5b602082029050602081019050919050565b600080fd5b60006124b56124b084612471565b612456565b905080838252602082019050602084028301858111156124d8576124d761249d565b5b835b8181101561250157806124ed88826120ef565b8452602084019350506020810190506124da565b5050509392505050565b600082601f8301126125205761251f6123f1565b5b81356125308482602086016124a2565b91505092915050565b600080fd5b600067ffffffffffffffff821115612559576125586123f6565b5b6125628261227b565b9050602081019050919050565b82818337600083830152505050565b600061259161258c8461253e565b612456565b9050828152602081018484840111156125ad576125ac612539565b5b6125b884828561256f565b509392505050565b600082601f8301126125d5576125d46123f1565b5b81356125e584826020860161257e565b91505092915050565b600080600080608085870312156126085761260761209c565b5b600085013567ffffffffffffffff811115612626576126256120a1565b5b6126328782880161250b565b945050602085013567ffffffffffffffff811115612653576126526120a1565b5b61265f878288016125c0565b935050604085013567ffffffffffffffff8111156126805761267f6120a1565b5b61268c878288016125c0565b925050606061269d878288016120ef565b91505092959194509250565b600081519050919050565b600082825260208201905092915050565b60006126d0826126a9565b6126da81856126b4565b93506126ea818560208601612248565b6126f38161227b565b840191505092915050565b6000602082019050818103600083015261271881846126c5565b905092915050565b60008115159050919050565b61273581612720565b82525050565b6000602082019050612750600083018461272c565b92915050565b60008060006060848603121561276f5761276e61209c565b5b600061277d868287016120ef565b935050602061278e868287016121b0565b925050604061279f868287016120ef565b9150509250925092565b6000815190506127b8816120d8565b92915050565b6000806000606084860312156127d7576127d661209c565b5b60006127e5868287016127a9565b93505060206127f6868287016127a9565b9250506040612807868287016127a9565b9150509250925092565b60008151905061282081612199565b92915050565b60006020828403121561283c5761283b61209c565b5b600061284a84828501612811565b91505092915050565b600081905092915050565b6000612869826126a9565b6128738185612853565b9350612883818560208601612248565b80840191505092915050565b600061289b828461285e565b915081905092915050565b7f796f7520617265206e6f7420746865206f776e65720000000000000000000000600082015250565b60006128dc601583612237565b91506128e7826128a6565b602082019050919050565b6000602082019050818103600083015261290b816128cf565b9050919050565b7f616d6f756e74206d757374206578636565642030000000000000000000000000600082015250565b6000612948601483612237565b915061295382612912565b602082019050919050565b600060208201905081810360008301526129778161293b565b9050919050565b7f646f6e6174696f6e2063616e6e6f74206578636565642077697468647261776160008201527f6c20616d6f756e74000000000000000000000000000000000000000000000000602082015250565b60006129da602883612237565b91506129e58261297e565b604082019050919050565b60006020820190508181036000830152612a09816129cd565b9050919050565b7f4e487b7100000000000000000000000000000000000000000000000000000000600052601160045260246000fd5b6000612a4a82612131565b9150612a5583612131565b925082821015612a6857612a67612a10565b5b828203905092915050565b6000606082019050612a8860008301866122e7565b612a95602083018561213b565b612aa260408301846122e7565b949350505050565b6000608082019050612abf60008301876122e7565b612acc60208301866122e7565b612ad9604083018561213b565b612ae6606083018461213b565b95945050505050565b7f4e487b7100000000000000000000000000000000000000000000000000000000600052602260045260246000fd5b60006002820490506001821680612b3657607f821691505b60208210811415612b4a57612b49612aef565b5b50919050565b6000819050919050565b600061ffff82169050919050565b6000819050919050565b6000612b8d612b88612b8384612b50565b612b68565b612b5a565b9050919050565b612b9d81612b72565b82525050565b6000606082019050612bb860008301866122e7565b612bc560208301856122e7565b612bd26040830184612b94565b949350505050565b6000612be582612131565b9150612bf083612131565b9250827fffffffffffffffffffffffffffffffffffffffffffffffffffffffffffffffff03821115612c2557612c24612a10565b5b828201905092915050565b7f737472696e67206f76657220636861726163746572206c696d69740000000000600082015250565b6000612c66601b83612237565b9150612c7182612c30565b602082019050919050565b60006020820190508181036000830152612c9581612c59565b9050919050565b7f496e697469616c697a61626c653a20636f6e747261637420697320616c72656160008201527f647920696e697469616c697a6564000000000000000000000000000000000000602082015250565b6000612cf8602e83612237565b9150612d0382612c9c565b604082019050919050565b60006020820190508181036000830152612d2781612ceb565b9050919050565b7f43616e6e6f7420696e697469616c697a65206261736500000000000000000000600082015250565b6000612d64601683612237565b9150612d6f82612d2e565b602082019050919050565b60006020820190508181036000830152612d9381612d57565b9050919050565b7f496e697469616c697a6520616c72656164792063616c6c656400000000000000600082015250565b6000612dd0601983612237565b9150612ddb82612d9a565b602082019050919050565b60006020820190508181036000830152612dff81612dc3565b9050919050565b600060208284031215612e1c57612e1b61209c565b5b6000612e2a848285016127a9565b91505092915050565b600064ffffffffff82169050919050565b612e4d81612e33565b8114612e5857600080fd5b50565b600081519050612e6a81612e44565b92915050565b6000806000806000806000806000806101408b8d031215612e9457612e9361209c565b5b6000612ea28d828e01612811565b9a50506020612eb38d828e01612811565b9950506040612ec48d828e01612811565b9850506060612ed58d828e01612811565b9750506080612ee68d828e01612811565b96505060a0612ef78d828e01612811565b95505060c0612f088d828e01612811565b94505060e0612f198d828e01612811565b935050610100612f2b8d828e01612811565b925050610120612f3d8d828e01612e5b565b9150509295989b9194979a5092959850565b7f4e487b7100000000000000000000000000000000000000000000000000000000600052603260045260246000fd5b600060ff82169050919050565b6000612f9682612f7e565b915060ff821415612faa57612fa9612a10565b5b600182019050919050565b7f7375626d697474656420746f6b656e2061646472657373206973206e6f74206160008201527f6363657074656420627920706f6f6c0000000000000000000000000000000000602082015250565b6000613011602f83612237565b915061301c82612fb5565b604082019050919050565b6000602082019050818103600083015261304081613004565b9050919050565b600060a08201905061305c60008301886122e7565b61306960208301876122e7565b613076604083018661213b565b613083606083018561213b565b61309060808301846122e7565b9695505050505050565b60006040820190506130af60008301856122e7565b6130bc60208301846122e7565b9392505050565b7f73656e646572206e6f7420617070726f76656400000000000000000000000000600082015250565b60006130f9601383612237565b9150613104826130c3565b602082019050919050565b60006020820190508181036000830152613128816130ec565b9050919050565b600060608201905061314460008301866122e7565b61315160208301856122e7565b61315e604083018461213b565b949350505050565b61316f81612720565b811461317a57600080fd5b50565b60008151905061318c81613166565b92915050565b6000602082840312156131a8576131a761209c565b5b60006131b68482850161317d565b91505092915050565b60006040820190506131d460008301856122e7565b6131e1602083018461213b565b9392505050565b60006080820190506131fd60008301876122e7565b61320a602083018661213b565b61321760408301856122e7565b6132246060830184612b94565b9594505050505056fea2646970667358221220b203e20410feef65698c05c868fa1773892881be38cb8495b9f076889549ed6d64736f6c63430008090033",
  "immutableReferences": {},
  "source": "// SPDX-License-Identifier: agpl-3.0\npragma solidity 0.8.9;\n\nimport { IJustCausePool } from './Interfaces.sol';\nimport { JCDepositorERC721 } from './JCDepositorERC721.sol';\nimport { JCOwnerERC721 } from './JCOwnerERC721.sol';\nimport { JustCausePool } from './JustCausePool.sol';\n\ncontract PoolTracker {\n\n    address baseJCPoolAddr;\n    JustCausePool baseJCPool;\n    JCDepositorERC721 jCDepositorERC721;\n    JCOwnerERC721 jCOwnerERC721;\n\n    //contract addresses will point to bool if they exist\n    mapping(address => bool) private isPool;\n    //mapping(address => address[]) private depositors;\n    //mapping(address => address[]) private owners;\n    mapping(string => address) private names;\n    address[] private verifiedPools;\n    bytes32[] validByteCodeHashes;\n\n    event AddVerifiedPools(address addressToAdd);\n    event AddDeposit(address _userAddr, address _pool);\n    event WithdrawDeposit(address _userAddr, address _pool);\n    event OwnerAddress(address _owner, address _pool);\n\n    modifier onlyVerifiedByteCode(address pool) {\n        bytes32 v1ByteCodeHash = 0x69e8ff0e7c2b29468c452ea99c81161f9d6137447623140dc2714549e6014d96;\n        require(keccak256(abi.encodePacked(pool.code)) == v1ByteCodeHash, \"byteCode not recognized\");\n        _;\n    }\n\n    modifier onlyPools(address _pool){\n        require(isPool[_pool], \"this function must be called from a pool\");\n        _;\n    }\n\n    constructor () {\n        jCDepositorERC721 = new JCDepositorERC721();\n        jCOwnerERC721 = new JCOwnerERC721();\n        baseJCPool = new JustCausePool();\n    }\n\n    function addValidByteCodeHash(bytes32 _hash) public {\n        validByteCodeHashes.push(_hash);\n    }\n\n    function addDeposit(uint256 _amount, address _asset, address _pool, bool isETH) onlyPools(_pool) external payable {\n\n        /*\n        NEED TO CHECK IF FIRST DEPOSIT BEFORE ADDING TO DEPOSITORS\n        */\n        //depositors[msg.sender].push(_pool);\n\n        if(isETH) IJustCausePool(_pool).depositETH{value: msg.value}(_asset);\n        else IJustCausePool(_pool).deposit(_asset, _amount , msg.sender);\n\n        uint256 _liquidityIndex = IJustCausePool(_pool).getAaveLiquidityIndex(_asset);\n        jCDepositorERC721.addFunds(msg.sender, _amount, _liquidityIndex, block.timestamp,  _pool, _asset);\n\n        emit AddDeposit(msg.sender, _pool);\n    }\n\n    function withdrawDeposit(uint256 _amount, uint256 _donation, address _asset, address _pool) onlyPools(_pool) external {\n\n        /*\n        NEED TO CHECK IF BALANCE IS 0 BEFORE REMOVAL\n        */\n        /*for(uint8 i = 0; i < depositors[msg.sender].length -1; i++){\n            if(depositors[msg.sender][i] == _pool){\n                depositors[msg.sender][i] = depositors[msg.sender][depositors[msg.sender].length - 1];\n                break;\n            }\n        }\n        depositors[msg.sender].pop();*/\n\n        IJustCausePool(_pool).withdraw(_asset, _amount, _donation, msg.sender);\n        uint256 _liquidityIndex = IJustCausePool(_pool).getAaveLiquidityIndex(_asset);\n        jCDepositorERC721.withdrawFunds(msg.sender, _amount, _liquidityIndex, _pool, _asset);\n\n        emit WithdrawDeposit(msg.sender, _pool);\n    }\n\n    function claimInterest(address _asset, address _pool) onlyPools(_pool) external {\n        IJustCausePool(_pool).withdrawDonations(_asset);\n    }\n\n    /**\n     * @dev Deploys and returns the address of a clone that mimics the behaviour of `implementation`.\n     *\n     * This function uses the create opcode, which should never revert.\n     */\n    function clone(address basePool) internal returns (address instance) {\n        assembly {\n            let ptr := mload(0x40)\n            mstore(ptr, 0x3d602d80600a3d3981f3363d3d373d3d3d363d73000000000000000000000000)\n            mstore(add(ptr, 0x14), shl(0x60, basePool))\n            mstore(add(ptr, 0x28), 0x5af43d82803e903d91602b57fd5bf30000000000000000000000000000000000)\n            instance := create(0, ptr, 0x37)\n        }\n        require(instance != address(0), \"ERC1167: create failed\");\n    }\n\n    function createJCPoolClone(address[] memory _acceptedTokens, string memory _name, string memory _about, address _receiver) external {\n        require(names[_name] == address(0), \"pool with name already exists\");\n        address child = clone(address(baseJCPool));\n        IJustCausePool(child).initialize(_acceptedTokens, _name, _about, _receiver);\n        jCOwnerERC721.createReceiverToken(_receiver, block.timestamp, child);\n        names[_name] =  child;\n        verifiedPools.push(child);\n        //owners[msg.sender].push(child);\n        isPool[child] = true;\n    }\n\n    function getDepositorERC721Address() public view returns(address){\n        return address(jCDepositorERC721);\n    }\n\n    function getOwnerERC721Address() public view returns(address){\n        return address(jCOwnerERC721);\n    }\n\n    function getVerifiedPools() public view returns(address [] memory){\n        return verifiedPools;\n    }\n\n    function checkPool(address _pool) public view returns(bool){\n        return isPool[_pool];\n    }\n\n    /*function getUserDeposits(address _userAddr) external view returns(address[] memory){\n        return depositors[_userAddr];\n    }*/\n\n    /*function getUserDeposits(address _userAddr) external view returns(address[] memory){\n        uint256 numDeposits = jCDepositorERC721.balanceOf(_userAddr);\n        address[] memory poolList;\n        for(uint8 i = 0; i < numDeposits; i++){\n            uint256 tokenId = jCDepositorERC721.tokenOfOwnerByIndex(_userAddr, i);\n            (,,,, address pool,) = jCDepositorERC721.getDeposit(tokenId);\n            poolList[i] = pool;\n        }\n        return poolList;\n    }*/\n\n    /*function getUserOwned(address _userAddr) external view returns(address[] memory){\n        return owners[_userAddr];\n    }*/\n\n    function getAddressFromName(string memory _name) external view returns(address){\n        return names[_name];\n    }\n\n    function checkByteCode(address _pool) external view returns(bool) {\n        bool hashMatch = false;\n        bytes32 hashOfPoolCode = keccak256(abi.encodePacked(_pool.code));\n        bytes32[] memory validHashes = validByteCodeHashes;\n\n        for(uint8 i = 0; i < validHashes.length; i++){\n            if(hashOfPoolCode == validHashes[i]){\n                hashMatch = true;\n                break;\n            }\n        }\n        return hashMatch;\n    }\n}",
  "sourcePath": "/home/smeee/just_cause/contracts/PoolTracker.sol",
  "compiler": {
    "name": "solc",
    "version": "0.8.9+commit.e5eed63a.Emscripten.clang"
  },
  "schemaVersion": "3.4.3",
  "updatedAt": "2022-02-05T19:12:48.720Z",
  "networkType": "ethereum",
  "devdoc": {
    "kind": "dev",
    "methods": {},
    "version": 1
  },
  "userdoc": {
    "kind": "user",
    "methods": {},
    "version": 1
  }
}