{
  "contractName": "PoolTracker",
  "abi": [
    {
      "inputs": [],
      "stateMutability": "nonpayable",
      "type": "constructor"
    },
    {
      "anonymous": false,
      "inputs": [
        {
          "indexed": false,
          "internalType": "address",
          "name": "userAddr",
          "type": "address"
        },
        {
          "indexed": false,
          "internalType": "address",
          "name": "pool",
          "type": "address"
        },
        {
          "indexed": false,
          "internalType": "address",
          "name": "asset",
          "type": "address"
        },
        {
          "indexed": false,
          "internalType": "uint256",
          "name": "amount",
          "type": "uint256"
        }
      ],
      "name": "AddDeposit",
      "type": "event"
    },
    {
      "anonymous": false,
      "inputs": [
        {
          "indexed": false,
          "internalType": "address",
          "name": "pool",
          "type": "address"
        },
        {
          "indexed": false,
          "internalType": "string",
          "name": "name",
          "type": "string"
        },
        {
          "indexed": false,
          "internalType": "address",
          "name": "receiver",
          "type": "address"
        }
      ],
      "name": "AddPool",
      "type": "event"
    },
    {
      "anonymous": false,
      "inputs": [
        {
          "indexed": false,
          "internalType": "address",
          "name": "userAddr",
          "type": "address"
        },
        {
          "indexed": false,
          "internalType": "address",
          "name": "receiver",
          "type": "address"
        },
        {
          "indexed": false,
          "internalType": "address",
          "name": "pool",
          "type": "address"
        },
        {
          "indexed": false,
          "internalType": "address",
          "name": "asset",
          "type": "address"
        },
        {
          "indexed": false,
          "internalType": "uint256",
          "name": "amount",
          "type": "uint256"
        }
      ],
      "name": "Claim",
      "type": "event"
    },
    {
      "anonymous": false,
      "inputs": [
        {
          "indexed": false,
          "internalType": "address",
          "name": "userAddr",
          "type": "address"
        },
        {
          "indexed": false,
          "internalType": "address",
          "name": "pool",
          "type": "address"
        },
        {
          "indexed": false,
          "internalType": "address",
          "name": "asset",
          "type": "address"
        },
        {
          "indexed": false,
          "internalType": "uint256",
          "name": "amount",
          "type": "uint256"
        }
      ],
      "name": "WithdrawDeposit",
      "type": "event"
    },
    {
      "inputs": [
        {
          "internalType": "bytes32",
          "name": "_hash",
          "type": "bytes32"
        }
      ],
      "name": "addValidByteCodeHash",
      "outputs": [],
      "stateMutability": "nonpayable",
      "type": "function"
    },
    {
      "inputs": [
        {
          "internalType": "uint256",
          "name": "_amount",
          "type": "uint256"
        },
        {
          "internalType": "address",
          "name": "_asset",
          "type": "address"
        },
        {
          "internalType": "address",
          "name": "_pool",
          "type": "address"
        },
        {
          "internalType": "bool",
          "name": "isETH",
          "type": "bool"
        }
      ],
      "name": "addDeposit",
      "outputs": [],
      "stateMutability": "payable",
      "type": "function",
      "payable": true
    },
    {
      "inputs": [
        {
          "internalType": "uint256",
          "name": "_amount",
          "type": "uint256"
        },
        {
          "internalType": "address",
          "name": "_asset",
          "type": "address"
        },
        {
          "internalType": "address",
          "name": "_pool",
          "type": "address"
        }
      ],
      "name": "withdrawDeposit",
      "outputs": [],
      "stateMutability": "nonpayable",
      "type": "function"
    },
    {
      "inputs": [
        {
          "internalType": "address",
          "name": "_asset",
          "type": "address"
        },
        {
          "internalType": "address",
          "name": "_pool",
          "type": "address"
        }
      ],
      "name": "claimInterest",
      "outputs": [],
      "stateMutability": "nonpayable",
      "type": "function"
    },
    {
      "inputs": [
        {
          "internalType": "address[]",
          "name": "_acceptedTokens",
          "type": "address[]"
        },
        {
          "internalType": "string",
          "name": "_name",
          "type": "string"
        },
        {
          "internalType": "string",
          "name": "_about",
          "type": "string"
        },
        {
          "internalType": "address",
          "name": "_receiver",
          "type": "address"
        }
      ],
      "name": "createJCPoolClone",
      "outputs": [],
      "stateMutability": "nonpayable",
      "type": "function"
    },
    {
      "inputs": [],
      "name": "getDepositorERC721Address",
      "outputs": [
        {
          "internalType": "address",
          "name": "",
          "type": "address"
        }
      ],
      "stateMutability": "view",
      "type": "function",
      "constant": true
    },
    {
      "inputs": [],
      "name": "getOwnerERC721Address",
      "outputs": [
        {
          "internalType": "address",
          "name": "",
          "type": "address"
        }
      ],
      "stateMutability": "view",
      "type": "function",
      "constant": true
    },
    {
      "inputs": [],
      "name": "getBaseJCPoolAddress",
      "outputs": [
        {
          "internalType": "address",
          "name": "",
          "type": "address"
        }
      ],
      "stateMutability": "view",
      "type": "function",
      "constant": true
    },
    {
      "inputs": [],
      "name": "getVerifiedPools",
      "outputs": [
        {
          "internalType": "address[]",
          "name": "",
          "type": "address[]"
        }
      ],
      "stateMutability": "view",
      "type": "function",
      "constant": true
    },
    {
      "inputs": [
        {
          "internalType": "address",
          "name": "_pool",
          "type": "address"
        }
      ],
      "name": "checkPool",
      "outputs": [
        {
          "internalType": "bool",
          "name": "",
          "type": "bool"
        }
      ],
      "stateMutability": "view",
      "type": "function",
      "constant": true
    },
    {
      "inputs": [
        {
          "internalType": "string",
          "name": "_name",
          "type": "string"
        }
      ],
      "name": "getAddressFromName",
      "outputs": [
        {
          "internalType": "address",
          "name": "",
          "type": "address"
        }
      ],
      "stateMutability": "view",
      "type": "function",
      "constant": true
    },
    {
      "inputs": [
        {
          "internalType": "address",
          "name": "_pool",
          "type": "address"
        }
      ],
      "name": "checkByteCode",
      "outputs": [
        {
          "internalType": "bool",
          "name": "",
          "type": "bool"
        }
      ],
      "stateMutability": "view",
      "type": "function",
      "constant": true
    }
  ],
  "bytecode": "0x60806040523480156200001157600080fd5b5060405162000020906200033f565b604051809103906000f0801580156200003d573d6000803e3d6000fd5b50600260006101000a81548173ffffffffffffffffffffffffffffffffffffffff021916908373ffffffffffffffffffffffffffffffffffffffff1602179055506040516200008c906200034d565b604051809103906000f080158015620000a9573d6000803e3d6000fd5b50600360006101000a81548173ffffffffffffffffffffffffffffffffffffffff021916908373ffffffffffffffffffffffffffffffffffffffff160217905550604051620000f8906200035b565b604051809103906000f08015801562000115573d6000803e3d6000fd5b50600160006101000a81548173ffffffffffffffffffffffffffffffffffffffff021916908373ffffffffffffffffffffffffffffffffffffffff1602179055507388757f2f99175387ab4c6a4b3067c77a695b0349600860006101000a81548173ffffffffffffffffffffffffffffffffffffffff021916908373ffffffffffffffffffffffffffffffffffffffff160217905550600860009054906101000a900473ffffffffffffffffffffffffffffffffffffffff1673ffffffffffffffffffffffffffffffffffffffff16630261bf8b6040518163ffffffff1660e01b815260040160206040518083038186803b1580156200021457600080fd5b505afa15801562000229573d6000803e3d6000fd5b505050506040513d601f19601f820116820180604052508101906200024f9190620003d3565b600960006101000a81548173ffffffffffffffffffffffffffffffffffffffff021916908373ffffffffffffffffffffffffffffffffffffffff160217905550733c73a5e5785cac854d468f727c606c07488a29d6600a60006101000a81548173ffffffffffffffffffffffffffffffffffffffff021916908373ffffffffffffffffffffffffffffffffffffffff16021790555073a61ca04df33b72b235a8a28cfb535bb7a5271b70600b60006101000a81548173ffffffffffffffffffffffffffffffffffffffff021916908373ffffffffffffffffffffffffffffffffffffffff16021790555062000405565b6145ae806200260683390190565b61381a8062006bb483390190565b612a38806200a3ce83390190565b600080fd5b600073ffffffffffffffffffffffffffffffffffffffff82169050919050565b60006200039b826200036e565b9050919050565b620003ad816200038e565b8114620003b957600080fd5b50565b600081519050620003cd81620003a2565b92915050565b600060208284031215620003ec57620003eb62000369565b5b6000620003fc84828501620003bc565b91505092915050565b6121f180620004156000396000f3fe6080604052600436106100a75760003560e01c80635b1327a2116100645780635b1327a2146101af578063618b1e83146101d8578063748d6829146102015780638e61514e1461023e578063b63ae6ee1461027b578063ba437c68146102a6576100a7565b806308f52b3c146100ac5780630c1a4477146100c857806330b9d2a7146100f35780633989a671146101305780634e1a58a81461015b5780635aa3886814610184575b600080fd5b6100c660048036038101906100c19190611441565b6102cf565b005b3480156100d457600080fd5b506100dd610898565b6040516100ea91906114b7565b60405180910390f35b3480156100ff57600080fd5b5061011a600480360381019061011591906114d2565b6108c2565b604051610127919061150e565b60405180910390f35b34801561013c57600080fd5b50610145610918565b60405161015291906114b7565b60405180910390f35b34801561016757600080fd5b50610182600480360381019061017d919061155f565b610942565b005b34801561019057600080fd5b5061019961096e565b6040516101a691906114b7565b60405180910390f35b3480156101bb57600080fd5b506101d660048036038101906101d1919061158c565b610998565b005b3480156101e457600080fd5b506101ff60048036038101906101fa91906117ed565b610b6a565b005b34801561020d57600080fd5b50610228600480360381019061022391906114d2565b610ec3565b604051610235919061150e565b60405180910390f35b34801561024a57600080fd5b50610265600480360381019061026091906118a8565b610fd8565b60405161027291906114b7565b60405180910390f35b34801561028757600080fd5b50610290611020565b60405161029d91906119af565b60405180910390f35b3480156102b257600080fd5b506102cd60048036038101906102c891906119d1565b6110ae565b005b81600460008273ffffffffffffffffffffffffffffffffffffffff1673ffffffffffffffffffffffffffffffffffffffff16815260200190815260200160002060009054906101000a900460ff1661035c576040517f08c379a000000000000000000000000000000000000000000000000000000000815260040161035390611a6e565b60405180910390fd5b811561048957600b60009054906101000a900473ffffffffffffffffffffffffffffffffffffffff1673ffffffffffffffffffffffffffffffffffffffff1663474cf53d34600960009054906101000a900473ffffffffffffffffffffffffffffffffffffffff168660006040518563ffffffff1660e01b81526004016103e593929190611ae1565b6000604051808303818588803b1580156103fe57600080fd5b505af1158015610412573d6000803e3d6000fd5b50505050508273ffffffffffffffffffffffffffffffffffffffff16632e59905485346040518363ffffffff1660e01b8152600401610452929190611b27565b600060405180830381600087803b15801561046c57600080fd5b505af1158015610480573d6000803e3d6000fd5b5050505061079e565b6000849050858173ffffffffffffffffffffffffffffffffffffffff1663dd62ed3e33306040518363ffffffff1660e01b81526004016104ca929190611b50565b60206040518083038186803b1580156104e257600080fd5b505afa1580156104f6573d6000803e3d6000fd5b505050506040513d601f19601f8201168201806040525081019061051a9190611b8e565b101561055b576040517f08c379a000000000000000000000000000000000000000000000000000000000815260040161055290611c07565b60405180910390fd5b8073ffffffffffffffffffffffffffffffffffffffff166323b872dd3330896040518463ffffffff1660e01b815260040161059893929190611c27565b602060405180830381600087803b1580156105b257600080fd5b505af11580156105c6573d6000803e3d6000fd5b505050506040513d601f19601f820116820180604052508101906105ea9190611c73565b508073ffffffffffffffffffffffffffffffffffffffff1663095ea7b3600960009054906101000a900473ffffffffffffffffffffffffffffffffffffffff16886040518363ffffffff1660e01b8152600401610648929190611b27565b602060405180830381600087803b15801561066257600080fd5b505af1158015610676573d6000803e3d6000fd5b505050506040513d601f19601f8201168201806040525081019061069a9190611c73565b50600960009054906101000a900473ffffffffffffffffffffffffffffffffffffffff1673ffffffffffffffffffffffffffffffffffffffff1663e8eda9df82888760006040518563ffffffff1660e01b81526004016106fd9493929190611ca0565b600060405180830381600087803b15801561071757600080fd5b505af115801561072b573d6000803e3d6000fd5b505050508373ffffffffffffffffffffffffffffffffffffffff166347e7ef2486886040518363ffffffff1660e01b815260040161076a929190611b27565b600060405180830381600087803b15801561078457600080fd5b505af1158015610798573d6000803e3d6000fd5b50505050505b600260009054906101000a900473ffffffffffffffffffffffffffffffffffffffff1673ffffffffffffffffffffffffffffffffffffffff166387fb12bd33874287896040518663ffffffff1660e01b8152600401610801959493929190611ce5565b602060405180830381600087803b15801561081b57600080fd5b505af115801561082f573d6000803e3d6000fd5b505050506040513d601f19601f820116820180604052508101906108539190611b8e565b507f20ca885e6c573d69bc931b3787127868f5b90568509fb8d4ff6f7102b8d0cd25338486886040516108899493929190611d38565b60405180910390a15050505050565b6000600360009054906101000a900473ffffffffffffffffffffffffffffffffffffffff16905090565b6000600460008373ffffffffffffffffffffffffffffffffffffffff1673ffffffffffffffffffffffffffffffffffffffff16815260200190815260200160002060009054906101000a900460ff169050919050565b6000600260009054906101000a900473ffffffffffffffffffffffffffffffffffffffff16905090565b600781908060018154018082558091505060019003906000526020600020016000909190919091505550565b6000600160009054906101000a900473ffffffffffffffffffffffffffffffffffffffff16905090565b80600460008273ffffffffffffffffffffffffffffffffffffffff1673ffffffffffffffffffffffffffffffffffffffff16815260200190815260200160002060009054906101000a900460ff16610a25576040517f08c379a0000000000000000000000000000000000000000000000000000000008152600401610a1c90611a6e565b60405180910390fd5b8173ffffffffffffffffffffffffffffffffffffffff166369328dec8486336040518463ffffffff1660e01b8152600401610a6293929190611d7d565b600060405180830381600087803b158015610a7c57600080fd5b505af1158015610a90573d6000803e3d6000fd5b50505050600260009054906101000a900473ffffffffffffffffffffffffffffffffffffffff1673ffffffffffffffffffffffffffffffffffffffff16636ba3fef2338685876040518563ffffffff1660e01b8152600401610af59493929190611db4565b600060405180830381600087803b158015610b0f57600080fd5b505af1158015610b23573d6000803e3d6000fd5b505050507fa657ed79c074c3489591adb7ba850f38c009bd846e47f2ffe3edc1d06f48a5a433838587604051610b5c9493929190611d38565b60405180910390a150505050565b600073ffffffffffffffffffffffffffffffffffffffff16600584604051610b929190611e73565b908152602001604051809103902060009054906101000a900473ffffffffffffffffffffffffffffffffffffffff1673ffffffffffffffffffffffffffffffffffffffff1614610c17576040517f08c379a0000000000000000000000000000000000000000000000000000000008152600401610c0e90611ed6565b60405180910390fd5b6000610c44600160009054906101000a900473ffffffffffffffffffffffffffffffffffffffff1661128c565b90508073ffffffffffffffffffffffffffffffffffffffff166350d02d71868686866040518563ffffffff1660e01b8152600401610c859493929190611f2f565b600060405180830381600087803b158015610c9f57600080fd5b505af1158015610cb3573d6000803e3d6000fd5b50505050600360009054906101000a900473ffffffffffffffffffffffffffffffffffffffff1673ffffffffffffffffffffffffffffffffffffffff166323579ba18342846040518463ffffffff1660e01b8152600401610d1693929190611d7d565b602060405180830381600087803b158015610d3057600080fd5b505af1158015610d44573d6000803e3d6000fd5b505050506040513d601f19601f82011682018060405250810190610d689190611b8e565b5080600585604051610d7a9190611e73565b908152602001604051809103902060006101000a81548173ffffffffffffffffffffffffffffffffffffffff021916908373ffffffffffffffffffffffffffffffffffffffff1602179055506006819080600181540180825580915050600190039060005260206000200160009091909190916101000a81548173ffffffffffffffffffffffffffffffffffffffff021916908373ffffffffffffffffffffffffffffffffffffffff1602179055506001600460008373ffffffffffffffffffffffffffffffffffffffff1673ffffffffffffffffffffffffffffffffffffffff16815260200190815260200160002060006101000a81548160ff0219169083151502179055507f373adb264e07592e89e672b780912566106b06a5f7a7787e63a47ca627e915af818584604051610eb493929190611f89565b60405180910390a15050505050565b6000806000905060008373ffffffffffffffffffffffffffffffffffffffff16803b806020016040519081016040528181526000908060200190933c604051602001610f0f919061200e565b60405160208183030381529060405280519060200120905060006007805480602002602001604051908101604052809291908181526020018280548015610f7557602002820191906000526020600020905b815481526020019060010190808311610f61575b5050505050905060005b81518160ff161015610fcc57818160ff1681518110610fa157610fa0612025565b5b6020026020010151831415610fb95760019350610fcc565b8080610fc490612090565b915050610f7f565b50829350505050919050565b6000600582604051610fea9190611e73565b908152602001604051809103902060009054906101000a900473ffffffffffffffffffffffffffffffffffffffff169050919050565b606060068054806020026020016040519081016040528092919081815260200182805480156110a457602002820191906000526020600020905b8160009054906101000a900473ffffffffffffffffffffffffffffffffffffffff1673ffffffffffffffffffffffffffffffffffffffff168152602001906001019080831161105a575b5050505050905090565b80600460008273ffffffffffffffffffffffffffffffffffffffff1673ffffffffffffffffffffffffffffffffffffffff16815260200190815260200160002060009054906101000a900460ff1661113b576040517f08c379a000000000000000000000000000000000000000000000000000000000815260040161113290611a6e565b60405180910390fd5b60008273ffffffffffffffffffffffffffffffffffffffff1663a56f5b53856040518263ffffffff1660e01b815260040161117691906114b7565b602060405180830381600087803b15801561119057600080fd5b505af11580156111a4573d6000803e3d6000fd5b505050506040513d601f19601f820116820180604052508101906111c89190611b8e565b90507f7276c0285f260d667df9ded71ca6a988145d36de1d14252710532b9de5f089fe338473ffffffffffffffffffffffffffffffffffffffff16631b88094d6040518163ffffffff1660e01b815260040160206040518083038186803b15801561123257600080fd5b505afa158015611246573d6000803e3d6000fd5b505050506040513d601f19601f8201168201806040525081019061126a91906120cf565b85878560405161127e9594939291906120fc565b60405180910390a150505050565b60006040517f3d602d80600a3d3981f3363d3d373d3d3d363d7300000000000000000000000081528260601b60148201527f5af43d82803e903d91602b57fd5bf3000000000000000000000000000000000060288201526037816000f0915050600073ffffffffffffffffffffffffffffffffffffffff168173ffffffffffffffffffffffffffffffffffffffff16141561135c576040517f08c379a00000000000000000000000000000000000000000000000000000000081526004016113539061219b565b60405180910390fd5b919050565b6000604051905090565b600080fd5b600080fd5b6000819050919050565b61138881611375565b811461139357600080fd5b50565b6000813590506113a58161137f565b92915050565b600073ffffffffffffffffffffffffffffffffffffffff82169050919050565b60006113d6826113ab565b9050919050565b6113e6816113cb565b81146113f157600080fd5b50565b600081359050611403816113dd565b92915050565b60008115159050919050565b61141e81611409565b811461142957600080fd5b50565b60008135905061143b81611415565b92915050565b6000806000806080858703121561145b5761145a61136b565b5b600061146987828801611396565b945050602061147a878288016113f4565b935050604061148b878288016113f4565b925050606061149c8782880161142c565b91505092959194509250565b6114b1816113cb565b82525050565b60006020820190506114cc60008301846114a8565b92915050565b6000602082840312156114e8576114e761136b565b5b60006114f6848285016113f4565b91505092915050565b61150881611409565b82525050565b600060208201905061152360008301846114ff565b92915050565b6000819050919050565b61153c81611529565b811461154757600080fd5b50565b60008135905061155981611533565b92915050565b6000602082840312156115755761157461136b565b5b60006115838482850161154a565b91505092915050565b6000806000606084860312156115a5576115a461136b565b5b60006115b386828701611396565b93505060206115c4868287016113f4565b92505060406115d5868287016113f4565b9150509250925092565b600080fd5b6000601f19601f8301169050919050565b7f4e487b7100000000000000000000000000000000000000000000000000000000600052604160045260246000fd5b61162d826115e4565b810181811067ffffffffffffffff8211171561164c5761164b6115f5565b5b80604052505050565b600061165f611361565b905061166b8282611624565b919050565b600067ffffffffffffffff82111561168b5761168a6115f5565b5b602082029050602081019050919050565b600080fd5b60006116b46116af84611670565b611655565b905080838252602082019050602084028301858111156116d7576116d661169c565b5b835b8181101561170057806116ec88826113f4565b8452602084019350506020810190506116d9565b5050509392505050565b600082601f83011261171f5761171e6115df565b5b813561172f8482602086016116a1565b91505092915050565b600080fd5b600067ffffffffffffffff821115611758576117576115f5565b5b611761826115e4565b9050602081019050919050565b82818337600083830152505050565b600061179061178b8461173d565b611655565b9050828152602081018484840111156117ac576117ab611738565b5b6117b784828561176e565b509392505050565b600082601f8301126117d4576117d36115df565b5b81356117e484826020860161177d565b91505092915050565b600080600080608085870312156118075761180661136b565b5b600085013567ffffffffffffffff81111561182557611824611370565b5b6118318782880161170a565b945050602085013567ffffffffffffffff81111561185257611851611370565b5b61185e878288016117bf565b935050604085013567ffffffffffffffff81111561187f5761187e611370565b5b61188b878288016117bf565b925050606061189c878288016113f4565b91505092959194509250565b6000602082840312156118be576118bd61136b565b5b600082013567ffffffffffffffff8111156118dc576118db611370565b5b6118e8848285016117bf565b91505092915050565b600081519050919050565b600082825260208201905092915050565b6000819050602082019050919050565b611926816113cb565b82525050565b6000611938838361191d565b60208301905092915050565b6000602082019050919050565b600061195c826118f1565b61196681856118fc565b93506119718361190d565b8060005b838110156119a2578151611989888261192c565b975061199483611944565b925050600181019050611975565b5085935050505092915050565b600060208201905081810360008301526119c98184611951565b905092915050565b600080604083850312156119e8576119e761136b565b5b60006119f6858286016113f4565b9250506020611a07858286016113f4565b9150509250929050565b600082825260208201905092915050565b7f6e6f742063616c6c65642066726f6d206120706f6f6c00000000000000000000600082015250565b6000611a58601683611a11565b9150611a6382611a22565b602082019050919050565b60006020820190508181036000830152611a8781611a4b565b9050919050565b6000819050919050565b600061ffff82169050919050565b6000819050919050565b6000611acb611ac6611ac184611a8e565b611aa6565b611a98565b9050919050565b611adb81611ab0565b82525050565b6000606082019050611af660008301866114a8565b611b0360208301856114a8565b611b106040830184611ad2565b949350505050565b611b2181611375565b82525050565b6000604082019050611b3c60008301856114a8565b611b496020830184611b18565b9392505050565b6000604082019050611b6560008301856114a8565b611b7260208301846114a8565b9392505050565b600081519050611b888161137f565b92915050565b600060208284031215611ba457611ba361136b565b5b6000611bb284828501611b79565b91505092915050565b7f73656e646572206e6f7420617070726f76656400000000000000000000000000600082015250565b6000611bf1601383611a11565b9150611bfc82611bbb565b602082019050919050565b60006020820190508181036000830152611c2081611be4565b9050919050565b6000606082019050611c3c60008301866114a8565b611c4960208301856114a8565b611c566040830184611b18565b949350505050565b600081519050611c6d81611415565b92915050565b600060208284031215611c8957611c8861136b565b5b6000611c9784828501611c5e565b91505092915050565b6000608082019050611cb560008301876114a8565b611cc26020830186611b18565b611ccf60408301856114a8565b611cdc6060830184611ad2565b95945050505050565b600060a082019050611cfa60008301886114a8565b611d076020830187611b18565b611d146040830186611b18565b611d2160608301856114a8565b611d2e60808301846114a8565b9695505050505050565b6000608082019050611d4d60008301876114a8565b611d5a60208301866114a8565b611d6760408301856114a8565b611d746060830184611b18565b95945050505050565b6000606082019050611d9260008301866114a8565b611d9f6020830185611b18565b611dac60408301846114a8565b949350505050565b6000608082019050611dc960008301876114a8565b611dd66020830186611b18565b611de360408301856114a8565b611df060608301846114a8565b95945050505050565b600081519050919050565b600081905092915050565b60005b83811015611e2d578082015181840152602081019050611e12565b83811115611e3c576000848401525b50505050565b6000611e4d82611df9565b611e578185611e04565b9350611e67818560208601611e0f565b80840191505092915050565b6000611e7f8284611e42565b915081905092915050565b7f706f6f6c2077697468206e616d6520616c726561647920657869737473000000600082015250565b6000611ec0601d83611a11565b9150611ecb82611e8a565b602082019050919050565b60006020820190508181036000830152611eef81611eb3565b9050919050565b6000611f0182611df9565b611f0b8185611a11565b9350611f1b818560208601611e0f565b611f24816115e4565b840191505092915050565b60006080820190508181036000830152611f498187611951565b90508181036020830152611f5d8186611ef6565b90508181036040830152611f718185611ef6565b9050611f8060608301846114a8565b95945050505050565b6000606082019050611f9e60008301866114a8565b8181036020830152611fb08185611ef6565b9050611fbf60408301846114a8565b949350505050565b600081519050919050565b600081905092915050565b6000611fe882611fc7565b611ff28185611fd2565b9350612002818560208601611e0f565b80840191505092915050565b600061201a8284611fdd565b915081905092915050565b7f4e487b7100000000000000000000000000000000000000000000000000000000600052603260045260246000fd5b7f4e487b7100000000000000000000000000000000000000000000000000000000600052601160045260246000fd5b600060ff82169050919050565b600061209b82612083565b915060ff8214156120af576120ae612054565b5b600182019050919050565b6000815190506120c9816113dd565b92915050565b6000602082840312156120e5576120e461136b565b5b60006120f3848285016120ba565b91505092915050565b600060a08201905061211160008301886114a8565b61211e60208301876114a8565b61212b60408301866114a8565b61213860608301856114a8565b6121456080830184611b18565b9695505050505050565b7f455243313136373a20637265617465206661696c656400000000000000000000600082015250565b6000612185601683611a11565b91506121908261214f565b602082019050919050565b600060208201905081810360008301526121b481612178565b905091905056fea2646970667358221220253089c60b4059fe675e0eb05cee9ccb105341059a1d35edf7307144b993473b64736f6c6343000809003360806040523480156200001157600080fd5b506040518060400160405280601381526020017f4a4350204465706f7369746f7220546f6b656e000000000000000000000000008152506040518060400160405280600c81526020017f4a4350545f544553545f4431000000000000000000000000000000000000000081525081600090805190602001906200009692919062000334565b508060019080519060200190620000af92919062000334565b505050620000d2620000c66200026660201b60201c565b6200026e60201b60201c565b7388757f2f99175387ab4c6a4b3067c77a695b0349600b60006101000a81548173ffffffffffffffffffffffffffffffffffffffff021916908373ffffffffffffffffffffffffffffffffffffffff160217905550600b60009054906101000a900473ffffffffffffffffffffffffffffffffffffffff1673ffffffffffffffffffffffffffffffffffffffff16630261bf8b6040518163ffffffff1660e01b815260040160206040518083038186803b1580156200019057600080fd5b505afa158015620001a5573d6000803e3d6000fd5b505050506040513d601f19601f82011682018060405250810190620001cb91906200044e565b600c60006101000a81548173ffffffffffffffffffffffffffffffffffffffff021916908373ffffffffffffffffffffffffffffffffffffffff160217905550733c73a5e5785cac854d468f727c606c07488a29d6600d60006101000a81548173ffffffffffffffffffffffffffffffffffffffff021916908373ffffffffffffffffffffffffffffffffffffffff160217905550620004e5565b600033905090565b6000600a60009054906101000a900473ffffffffffffffffffffffffffffffffffffffff16905081600a60006101000a81548173ffffffffffffffffffffffffffffffffffffffff021916908373ffffffffffffffffffffffffffffffffffffffff1602179055508173ffffffffffffffffffffffffffffffffffffffff168173ffffffffffffffffffffffffffffffffffffffff167f8be0079c531659141344cd1fd0a4f28419497f9722a3daafe3b4186f6b6457e060405160405180910390a35050565b8280546200034290620004af565b90600052602060002090601f016020900481019282620003665760008555620003b2565b82601f106200038157805160ff1916838001178555620003b2565b82800160010185558215620003b2579182015b82811115620003b157825182559160200191906001019062000394565b5b509050620003c19190620003c5565b5090565b5b80821115620003e0576000816000905550600101620003c6565b5090565b600080fd5b600073ffffffffffffffffffffffffffffffffffffffff82169050919050565b60006200041682620003e9565b9050919050565b620004288162000409565b81146200043457600080fd5b50565b60008151905062000448816200041d565b92915050565b600060208284031215620004675762000466620003e4565b5b6000620004778482850162000437565b91505092915050565b7f4e487b7100000000000000000000000000000000000000000000000000000000600052602260045260246000fd5b60006002820490506001821680620004c857607f821691505b60208210811415620004df57620004de62000480565b5b50919050565b6140b980620004f56000396000f3fe608060405234801561001057600080fd5b506004361061014d5760003560e01c80636ba3fef2116100c3578063a22cb4651161007c578063a22cb465146103c4578063b88d4fde146103e0578063c87b56dd146103fc578063d15e00531461042c578063e985e9c51461045c578063f2fde38b1461048c5761014d565b80636ba3fef21461030257806370a082311461031e578063715018a61461034e57806387fb12bd146103585780638da5cb5b1461038857806395d89b41146103a65761014d565b806323b872dd1161011557806323b872dd1461020a5780632f745c591461022657806342842e0e146102565780634f6ccce7146102725780635328c2bf146102a25780636352211e146102d25761014d565b806301ffc9a71461015257806306fdde0314610182578063081812fc146101a0578063095ea7b3146101d057806318160ddd146101ec575b600080fd5b61016c6004803603810190610167919061287b565b6104a8565b60405161017991906128c3565b60405180910390f35b61018a610522565b6040516101979190612977565b60405180910390f35b6101ba60048036038101906101b591906129cf565b6105b4565b6040516101c79190612a3d565b60405180910390f35b6101ea60048036038101906101e59190612a84565b610639565b005b6101f4610751565b6040516102019190612ad3565b60405180910390f35b610224600480360381019061021f9190612aee565b61075e565b005b610240600480360381019061023b9190612a84565b6107be565b60405161024d9190612ad3565b60405180910390f35b610270600480360381019061026b9190612aee565b610863565b005b61028c600480360381019061028791906129cf565b610883565b6040516102999190612ad3565b60405180910390f35b6102bc60048036038101906102b791906129cf565b6108f4565b6040516102c99190612bc7565b60405180910390f35b6102ec60048036038101906102e791906129cf565b6109eb565b6040516102f99190612a3d565b60405180910390f35b61031c60048036038101906103179190612be2565b610a9d565b005b61033860048036038101906103339190612c49565b610ca7565b6040516103459190612ad3565b60405180910390f35b610356610d5f565b005b610372600480360381019061036d9190612c76565b610de7565b60405161037f9190612ad3565b60405180910390f35b610390611051565b60405161039d9190612a3d565b60405180910390f35b6103ae61107b565b6040516103bb9190612977565b60405180910390f35b6103de60048036038101906103d99190612d1d565b61110d565b005b6103fa60048036038101906103f59190612e92565b611123565b005b610416600480360381019061041191906129cf565b611185565b6040516104239190612977565b60405180910390f35b61044660048036038101906104419190612c49565b61122c565b6040516104539190612ad3565b60405180910390f35b61047660048036038101906104719190612f15565b6112e0565b60405161048391906128c3565b60405180910390f35b6104a660048036038101906104a19190612c49565b611374565b005b60007f780e9d63000000000000000000000000000000000000000000000000000000007bffffffffffffffffffffffffffffffffffffffffffffffffffffffff1916827bffffffffffffffffffffffffffffffffffffffffffffffffffffffff1916148061051b575061051a8261146c565b5b9050919050565b60606000805461053190612f84565b80601f016020809104026020016040519081016040528092919081815260200182805461055d90612f84565b80156105aa5780601f1061057f576101008083540402835291602001916105aa565b820191906000526020600020905b81548152906001019060200180831161058d57829003601f168201915b5050505050905090565b60006105bf8261154e565b6105fe576040517f08c379a00000000000000000000000000000000000000000000000000000000081526004016105f590613028565b60405180910390fd5b6004600083815260200190815260200160002060009054906101000a900473ffffffffffffffffffffffffffffffffffffffff169050919050565b6000610644826109eb565b90508073ffffffffffffffffffffffffffffffffffffffff168373ffffffffffffffffffffffffffffffffffffffff1614156106b5576040517f08c379a00000000000000000000000000000000000000000000000000000000081526004016106ac906130ba565b60405180910390fd5b8073ffffffffffffffffffffffffffffffffffffffff166106d46115ba565b73ffffffffffffffffffffffffffffffffffffffff1614806107035750610702816106fd6115ba565b6112e0565b5b610742576040517f08c379a00000000000000000000000000000000000000000000000000000000081526004016107399061314c565b60405180910390fd5b61074c83836115c2565b505050565b6000600880549050905090565b61076f6107696115ba565b8261167b565b6107ae576040517f08c379a00000000000000000000000000000000000000000000000000000000081526004016107a5906131de565b60405180910390fd5b6107b9838383611759565b505050565b60006107c983610ca7565b821061080a576040517f08c379a000000000000000000000000000000000000000000000000000000000815260040161080190613270565b60405180910390fd5b600660008473ffffffffffffffffffffffffffffffffffffffff1673ffffffffffffffffffffffffffffffffffffffff168152602001908152602001600020600083815260200190815260200160002054905092915050565b61087e83838360405180602001604052806000815250611123565b505050565b600061088d610751565b82106108ce576040517f08c379a00000000000000000000000000000000000000000000000000000000081526004016108c590613302565b60405180910390fd5b600882815481106108e2576108e1613322565b5b90600052602060002001549050919050565b6108fc6127b4565b600e60008381526020019081526020016000206040518060a00160405290816000820154815260200160018201548152602001600282015481526020016003820160009054906101000a900473ffffffffffffffffffffffffffffffffffffffff1673ffffffffffffffffffffffffffffffffffffffff1673ffffffffffffffffffffffffffffffffffffffff1681526020016004820160009054906101000a900473ffffffffffffffffffffffffffffffffffffffff1673ffffffffffffffffffffffffffffffffffffffff1673ffffffffffffffffffffffffffffffffffffffff16815250509050919050565b6000806002600084815260200190815260200160002060009054906101000a900473ffffffffffffffffffffffffffffffffffffffff169050600073ffffffffffffffffffffffffffffffffffffffff168173ffffffffffffffffffffffffffffffffffffffff161415610a94576040517f08c379a0000000000000000000000000000000000000000000000000000000008152600401610a8b906133c3565b60405180910390fd5b80915050919050565b610aa56115ba565b73ffffffffffffffffffffffffffffffffffffffff16610ac3611051565b73ffffffffffffffffffffffffffffffffffffffff1614610b19576040517f08c379a0000000000000000000000000000000000000000000000000000000008152600401610b109061342f565b60405180910390fd5b6000848383604051602001610b3093929190613497565b6040516020818303038152906040528051906020012060001c9050610b548161154e565b610b93576040517f08c379a0000000000000000000000000000000000000000000000000000000008152600401610b8a90613520565b60405180910390fd5b6000600e600083815260200190815260200160002060000154905084811015610bf1576040517f08c379a0000000000000000000000000000000000000000000000000000000008152600401610be89061358c565b60405180910390fd5b8481610bfd91906135db565b90506000811415610c45576000600e6000848152602001908152602001600020600101819055506000600e600084815260200190815260200160002060020181905550610c84565b610c5785610c52856119b5565b611aa0565b600e60008481526020019081526020016000206002016000828254610c7c91906135db565b925050819055505b80600e600084815260200190815260200160002060000181905550505050505050565b60008073ffffffffffffffffffffffffffffffffffffffff168273ffffffffffffffffffffffffffffffffffffffff161415610d18576040517f08c379a0000000000000000000000000000000000000000000000000000000008152600401610d0f90613681565b60405180910390fd5b600360008373ffffffffffffffffffffffffffffffffffffffff1673ffffffffffffffffffffffffffffffffffffffff168152602001908152602001600020549050919050565b610d676115ba565b73ffffffffffffffffffffffffffffffffffffffff16610d85611051565b73ffffffffffffffffffffffffffffffffffffffff1614610ddb576040517f08c379a0000000000000000000000000000000000000000000000000000000008152600401610dd29061342f565b60405180910390fd5b610de56000611bac565b565b6000610df16115ba565b73ffffffffffffffffffffffffffffffffffffffff16610e0f611051565b73ffffffffffffffffffffffffffffffffffffffff1614610e65576040517f08c379a0000000000000000000000000000000000000000000000000000000008152600401610e5c9061342f565b60405180910390fd5b6000868484604051602001610e7c93929190613497565b6040516020818303038152906040528051906020012060001c90506000610ea2846119b5565b9050610ead8261154e565b15610f1a5786600e60008481526020019081526020016000206000016000828254610ed891906136a1565b92505081905550610ee98782611aa0565b600e60008481526020019081526020016000206002016000828254610f0e91906136a1565b92505081905550611043565b6040518060a00160405280888152602001878152602001610f3b8984611aa0565b81526020018673ffffffffffffffffffffffffffffffffffffffff1681526020018573ffffffffffffffffffffffffffffffffffffffff16815250600e600084815260200190815260200160002060008201518160000155602082015181600101556040820151816002015560608201518160030160006101000a81548173ffffffffffffffffffffffffffffffffffffffff021916908373ffffffffffffffffffffffffffffffffffffffff16021790555060808201518160040160006101000a81548173ffffffffffffffffffffffffffffffffffffffff021916908373ffffffffffffffffffffffffffffffffffffffff1602179055509050506110428883611c72565b5b819250505095945050505050565b6000600a60009054906101000a900473ffffffffffffffffffffffffffffffffffffffff16905090565b60606001805461108a90612f84565b80601f01602080910402602001604051908101604052809291908181526020018280546110b690612f84565b80156111035780601f106110d857610100808354040283529160200191611103565b820191906000526020600020905b8154815290600101906020018083116110e657829003601f168201915b5050505050905090565b61111f6111186115ba565b8383611e40565b5050565b61113461112e6115ba565b8361167b565b611173576040517f08c379a000000000000000000000000000000000000000000000000000000000815260040161116a906131de565b60405180910390fd5b61117f84848484611fad565b50505050565b60606111908261154e565b6111cf576040517f08c379a00000000000000000000000000000000000000000000000000000000081526004016111c690613769565b60405180910390fd5b60006111d9612009565b905060008151116111f95760405180602001604052806000815250611224565b8061120384612020565b6040516020016112149291906137c5565b6040516020818303038152906040525b915050919050565b6000600c60009054906101000a900473ffffffffffffffffffffffffffffffffffffffff1673ffffffffffffffffffffffffffffffffffffffff1663d15e0053836040518263ffffffff1660e01b81526004016112899190612a3d565b60206040518083038186803b1580156112a157600080fd5b505afa1580156112b5573d6000803e3d6000fd5b505050506040513d601f19601f820116820180604052508101906112d991906137fe565b9050919050565b6000600560008473ffffffffffffffffffffffffffffffffffffffff1673ffffffffffffffffffffffffffffffffffffffff16815260200190815260200160002060008373ffffffffffffffffffffffffffffffffffffffff1673ffffffffffffffffffffffffffffffffffffffff16815260200190815260200160002060009054906101000a900460ff16905092915050565b61137c6115ba565b73ffffffffffffffffffffffffffffffffffffffff1661139a611051565b73ffffffffffffffffffffffffffffffffffffffff16146113f0576040517f08c379a00000000000000000000000000000000000000000000000000000000081526004016113e79061342f565b60405180910390fd5b600073ffffffffffffffffffffffffffffffffffffffff168173ffffffffffffffffffffffffffffffffffffffff161415611460576040517f08c379a00000000000000000000000000000000000000000000000000000000081526004016114579061389d565b60405180910390fd5b61146981611bac565b50565b60007f80ac58cd000000000000000000000000000000000000000000000000000000007bffffffffffffffffffffffffffffffffffffffffffffffffffffffff1916827bffffffffffffffffffffffffffffffffffffffffffffffffffffffff1916148061153757507f5b5e139f000000000000000000000000000000000000000000000000000000007bffffffffffffffffffffffffffffffffffffffffffffffffffffffff1916827bffffffffffffffffffffffffffffffffffffffffffffffffffffffff1916145b80611547575061154682612181565b5b9050919050565b60008073ffffffffffffffffffffffffffffffffffffffff166002600084815260200190815260200160002060009054906101000a900473ffffffffffffffffffffffffffffffffffffffff1673ffffffffffffffffffffffffffffffffffffffff1614159050919050565b600033905090565b816004600083815260200190815260200160002060006101000a81548173ffffffffffffffffffffffffffffffffffffffff021916908373ffffffffffffffffffffffffffffffffffffffff160217905550808273ffffffffffffffffffffffffffffffffffffffff16611635836109eb565b73ffffffffffffffffffffffffffffffffffffffff167f8c5be1e5ebec7d5bd14f71427d1e84f3dd0314c0f7b2291e5b200ac8c7c3b92560405160405180910390a45050565b60006116868261154e565b6116c5576040517f08c379a00000000000000000000000000000000000000000000000000000000081526004016116bc9061392f565b60405180910390fd5b60006116d0836109eb565b90508073ffffffffffffffffffffffffffffffffffffffff168473ffffffffffffffffffffffffffffffffffffffff16148061173f57508373ffffffffffffffffffffffffffffffffffffffff16611727846105b4565b73ffffffffffffffffffffffffffffffffffffffff16145b80611750575061174f81856112e0565b5b91505092915050565b8273ffffffffffffffffffffffffffffffffffffffff16611779826109eb565b73ffffffffffffffffffffffffffffffffffffffff16146117cf576040517f08c379a00000000000000000000000000000000000000000000000000000000081526004016117c6906139c1565b60405180910390fd5b600073ffffffffffffffffffffffffffffffffffffffff168273ffffffffffffffffffffffffffffffffffffffff16141561183f576040517f08c379a000000000000000000000000000000000000000000000000000000000815260040161183690613a53565b60405180910390fd5b61184a8383836121eb565b6118556000826115c2565b6001600360008573ffffffffffffffffffffffffffffffffffffffff1673ffffffffffffffffffffffffffffffffffffffff16815260200190815260200160002060008282546118a591906135db565b925050819055506001600360008473ffffffffffffffffffffffffffffffffffffffff1673ffffffffffffffffffffffffffffffffffffffff16815260200190815260200160002060008282546118fc91906136a1565b92505081905550816002600083815260200190815260200160002060006101000a81548173ffffffffffffffffffffffffffffffffffffffff021916908373ffffffffffffffffffffffffffffffffffffffff160217905550808273ffffffffffffffffffffffffffffffffffffffff168473ffffffffffffffffffffffffffffffffffffffff167fddf252ad1be2c89b69c2b068fc378daa952ba7f163c4a11628f55a4df523b3ef60405160405180910390a4505050565b6000600d60009054906101000a900473ffffffffffffffffffffffffffffffffffffffff1673ffffffffffffffffffffffffffffffffffffffff166335ea6a75836040518263ffffffff1660e01b8152600401611a129190612a3d565b6101406040518083038186803b158015611a2b57600080fd5b505afa158015611a3f573d6000803e3d6000fd5b505050506040513d601f19601f82011682018060405250810190611a639190613ab0565b9091929394959697985090919293949596975090919293949596509091929394955090919293945090919293509091925090505080915050919050565b600080821415611ae5576040517f08c379a0000000000000000000000000000000000000000000000000000000008152600401611adc90613bdb565b60405180910390fd5b6000600283611af49190613c2a565b905060006b033b2e3c9fd0803ce8000000905080827fffffffffffffffffffffffffffffffffffffffffffffffffffffffffffffffff611b3491906135db565b611b3e9190613c2a565b851115611b80576040517f08c379a0000000000000000000000000000000000000000000000000000000008152600401611b7790613ca7565b60405180910390fd5b83828287611b8e9190613cc7565b611b9891906136a1565b611ba29190613c2a565b9250505092915050565b6000600a60009054906101000a900473ffffffffffffffffffffffffffffffffffffffff16905081600a60006101000a81548173ffffffffffffffffffffffffffffffffffffffff021916908373ffffffffffffffffffffffffffffffffffffffff1602179055508173ffffffffffffffffffffffffffffffffffffffff168173ffffffffffffffffffffffffffffffffffffffff167f8be0079c531659141344cd1fd0a4f28419497f9722a3daafe3b4186f6b6457e060405160405180910390a35050565b600073ffffffffffffffffffffffffffffffffffffffff168273ffffffffffffffffffffffffffffffffffffffff161415611ce2576040517f08c379a0000000000000000000000000000000000000000000000000000000008152600401611cd990613d6d565b60405180910390fd5b611ceb8161154e565b15611d2b576040517f08c379a0000000000000000000000000000000000000000000000000000000008152600401611d2290613dd9565b60405180910390fd5b611d37600083836121eb565b6001600360008473ffffffffffffffffffffffffffffffffffffffff1673ffffffffffffffffffffffffffffffffffffffff1681526020019081526020016000206000828254611d8791906136a1565b92505081905550816002600083815260200190815260200160002060006101000a81548173ffffffffffffffffffffffffffffffffffffffff021916908373ffffffffffffffffffffffffffffffffffffffff160217905550808273ffffffffffffffffffffffffffffffffffffffff16600073ffffffffffffffffffffffffffffffffffffffff167fddf252ad1be2c89b69c2b068fc378daa952ba7f163c4a11628f55a4df523b3ef60405160405180910390a45050565b8173ffffffffffffffffffffffffffffffffffffffff168373ffffffffffffffffffffffffffffffffffffffff161415611eaf576040517f08c379a0000000000000000000000000000000000000000000000000000000008152600401611ea690613e45565b60405180910390fd5b80600560008573ffffffffffffffffffffffffffffffffffffffff1673ffffffffffffffffffffffffffffffffffffffff16815260200190815260200160002060008473ffffffffffffffffffffffffffffffffffffffff1673ffffffffffffffffffffffffffffffffffffffff16815260200190815260200160002060006101000a81548160ff0219169083151502179055508173ffffffffffffffffffffffffffffffffffffffff168373ffffffffffffffffffffffffffffffffffffffff167f17307eab39ab6107e8899845ad3d59bd9653f200f220920489ca2b5937696c3183604051611fa091906128c3565b60405180910390a3505050565b611fb8848484611759565b611fc4848484846122ff565b612003576040517f08c379a0000000000000000000000000000000000000000000000000000000008152600401611ffa90613ed7565b60405180910390fd5b50505050565b606060405180602001604052806000815250905090565b60606000821415612068576040518060400160405280600181526020017f3000000000000000000000000000000000000000000000000000000000000000815250905061217c565b600082905060005b6000821461209a57808061208390613ef7565b915050600a826120939190613c2a565b9150612070565b60008167ffffffffffffffff8111156120b6576120b5612d67565b5b6040519080825280601f01601f1916602001820160405280156120e85781602001600182028036833780820191505090505b5090505b600085146121755760018261210191906135db565b9150600a856121109190613f40565b603061211c91906136a1565b60f81b81838151811061213257612131613322565b5b60200101907effffffffffffffffffffffffffffffffffffffffffffffffffffffffffffff1916908160001a905350600a8561216e9190613c2a565b94506120ec565b8093505050505b919050565b60007f01ffc9a7000000000000000000000000000000000000000000000000000000007bffffffffffffffffffffffffffffffffffffffffffffffffffffffff1916827bffffffffffffffffffffffffffffffffffffffffffffffffffffffff1916149050919050565b6121f6838383612496565b600073ffffffffffffffffffffffffffffffffffffffff168373ffffffffffffffffffffffffffffffffffffffff161415612239576122348161249b565b612278565b8173ffffffffffffffffffffffffffffffffffffffff168373ffffffffffffffffffffffffffffffffffffffff16146122775761227683826124e4565b5b5b600073ffffffffffffffffffffffffffffffffffffffff168273ffffffffffffffffffffffffffffffffffffffff1614156122bb576122b681612651565b6122fa565b8273ffffffffffffffffffffffffffffffffffffffff168273ffffffffffffffffffffffffffffffffffffffff16146122f9576122f88282612722565b5b5b505050565b60006123208473ffffffffffffffffffffffffffffffffffffffff166127a1565b15612489578373ffffffffffffffffffffffffffffffffffffffff1663150b7a026123496115ba565b8786866040518563ffffffff1660e01b815260040161236b9493929190613fc6565b602060405180830381600087803b15801561238557600080fd5b505af19250505080156123b657506040513d601f19601f820116820180604052508101906123b39190614027565b60015b612439573d80600081146123e6576040519150601f19603f3d011682016040523d82523d6000602084013e6123eb565b606091505b50600081511415612431576040517f08c379a000000000000000000000000000000000000000000000000000000000815260040161242890613ed7565b60405180910390fd5b805181602001fd5b63150b7a0260e01b7bffffffffffffffffffffffffffffffffffffffffffffffffffffffff1916817bffffffffffffffffffffffffffffffffffffffffffffffffffffffff19161491505061248e565b600190505b949350505050565b505050565b6008805490506009600083815260200190815260200160002081905550600881908060018154018082558091505060019003906000526020600020016000909190919091505550565b600060016124f184610ca7565b6124fb91906135db565b90506000600760008481526020019081526020016000205490508181146125e0576000600660008673ffffffffffffffffffffffffffffffffffffffff1673ffffffffffffffffffffffffffffffffffffffff168152602001908152602001600020600084815260200190815260200160002054905080600660008773ffffffffffffffffffffffffffffffffffffffff1673ffffffffffffffffffffffffffffffffffffffff168152602001908152602001600020600084815260200190815260200160002081905550816007600083815260200190815260200160002081905550505b6007600084815260200190815260200160002060009055600660008573ffffffffffffffffffffffffffffffffffffffff1673ffffffffffffffffffffffffffffffffffffffff16815260200190815260200160002060008381526020019081526020016000206000905550505050565b6000600160088054905061266591906135db565b905060006009600084815260200190815260200160002054905060006008838154811061269557612694613322565b5b9060005260206000200154905080600883815481106126b7576126b6613322565b5b90600052602060002001819055508160096000838152602001908152602001600020819055506009600085815260200190815260200160002060009055600880548061270657612705614054565b5b6001900381819060005260206000200160009055905550505050565b600061272d83610ca7565b905081600660008573ffffffffffffffffffffffffffffffffffffffff1673ffffffffffffffffffffffffffffffffffffffff168152602001908152602001600020600083815260200190815260200160002081905550806007600084815260200190815260200160002081905550505050565b600080823b905060008111915050919050565b6040518060a00160405280600081526020016000815260200160008152602001600073ffffffffffffffffffffffffffffffffffffffff168152602001600073ffffffffffffffffffffffffffffffffffffffff1681525090565b6000604051905090565b600080fd5b600080fd5b60007fffffffff0000000000000000000000000000000000000000000000000000000082169050919050565b61285881612823565b811461286357600080fd5b50565b6000813590506128758161284f565b92915050565b60006020828403121561289157612890612819565b5b600061289f84828501612866565b91505092915050565b60008115159050919050565b6128bd816128a8565b82525050565b60006020820190506128d860008301846128b4565b92915050565b600081519050919050565b600082825260208201905092915050565b60005b838110156129185780820151818401526020810190506128fd565b83811115612927576000848401525b50505050565b6000601f19601f8301169050919050565b6000612949826128de565b61295381856128e9565b93506129638185602086016128fa565b61296c8161292d565b840191505092915050565b60006020820190508181036000830152612991818461293e565b905092915050565b6000819050919050565b6129ac81612999565b81146129b757600080fd5b50565b6000813590506129c9816129a3565b92915050565b6000602082840312156129e5576129e4612819565b5b60006129f3848285016129ba565b91505092915050565b600073ffffffffffffffffffffffffffffffffffffffff82169050919050565b6000612a27826129fc565b9050919050565b612a3781612a1c565b82525050565b6000602082019050612a526000830184612a2e565b92915050565b612a6181612a1c565b8114612a6c57600080fd5b50565b600081359050612a7e81612a58565b92915050565b60008060408385031215612a9b57612a9a612819565b5b6000612aa985828601612a6f565b9250506020612aba858286016129ba565b9150509250929050565b612acd81612999565b82525050565b6000602082019050612ae86000830184612ac4565b92915050565b600080600060608486031215612b0757612b06612819565b5b6000612b1586828701612a6f565b9350506020612b2686828701612a6f565b9250506040612b37868287016129ba565b9150509250925092565b612b4a81612999565b82525050565b612b5981612a1c565b82525050565b60a082016000820151612b756000850182612b41565b506020820151612b886020850182612b41565b506040820151612b9b6040850182612b41565b506060820151612bae6060850182612b50565b506080820151612bc16080850182612b50565b50505050565b600060a082019050612bdc6000830184612b5f565b92915050565b60008060008060808587031215612bfc57612bfb612819565b5b6000612c0a87828801612a6f565b9450506020612c1b878288016129ba565b9350506040612c2c87828801612a6f565b9250506060612c3d87828801612a6f565b91505092959194509250565b600060208284031215612c5f57612c5e612819565b5b6000612c6d84828501612a6f565b91505092915050565b600080600080600060a08688031215612c9257612c91612819565b5b6000612ca088828901612a6f565b9550506020612cb1888289016129ba565b9450506040612cc2888289016129ba565b9350506060612cd388828901612a6f565b9250506080612ce488828901612a6f565b9150509295509295909350565b612cfa816128a8565b8114612d0557600080fd5b50565b600081359050612d1781612cf1565b92915050565b60008060408385031215612d3457612d33612819565b5b6000612d4285828601612a6f565b9250506020612d5385828601612d08565b9150509250929050565b600080fd5b600080fd5b7f4e487b7100000000000000000000000000000000000000000000000000000000600052604160045260246000fd5b612d9f8261292d565b810181811067ffffffffffffffff82111715612dbe57612dbd612d67565b5b80604052505050565b6000612dd161280f565b9050612ddd8282612d96565b919050565b600067ffffffffffffffff821115612dfd57612dfc612d67565b5b612e068261292d565b9050602081019050919050565b82818337600083830152505050565b6000612e35612e3084612de2565b612dc7565b905082815260208101848484011115612e5157612e50612d62565b5b612e5c848285612e13565b509392505050565b600082601f830112612e7957612e78612d5d565b5b8135612e89848260208601612e22565b91505092915050565b60008060008060808587031215612eac57612eab612819565b5b6000612eba87828801612a6f565b9450506020612ecb87828801612a6f565b9350506040612edc878288016129ba565b925050606085013567ffffffffffffffff811115612efd57612efc61281e565b5b612f0987828801612e64565b91505092959194509250565b60008060408385031215612f2c57612f2b612819565b5b6000612f3a85828601612a6f565b9250506020612f4b85828601612a6f565b9150509250929050565b7f4e487b7100000000000000000000000000000000000000000000000000000000600052602260045260246000fd5b60006002820490506001821680612f9c57607f821691505b60208210811415612fb057612faf612f55565b5b50919050565b7f4552433732313a20617070726f76656420717565727920666f72206e6f6e657860008201527f697374656e7420746f6b656e0000000000000000000000000000000000000000602082015250565b6000613012602c836128e9565b915061301d82612fb6565b604082019050919050565b6000602082019050818103600083015261304181613005565b9050919050565b7f4552433732313a20617070726f76616c20746f2063757272656e74206f776e6560008201527f7200000000000000000000000000000000000000000000000000000000000000602082015250565b60006130a46021836128e9565b91506130af82613048565b604082019050919050565b600060208201905081810360008301526130d381613097565b9050919050565b7f4552433732313a20617070726f76652063616c6c6572206973206e6f74206f7760008201527f6e6572206e6f7220617070726f76656420666f7220616c6c0000000000000000602082015250565b60006131366038836128e9565b9150613141826130da565b604082019050919050565b6000602082019050818103600083015261316581613129565b9050919050565b7f4552433732313a207472616e736665722063616c6c6572206973206e6f74206f60008201527f776e6572206e6f7220617070726f766564000000000000000000000000000000602082015250565b60006131c86031836128e9565b91506131d38261316c565b604082019050919050565b600060208201905081810360008301526131f7816131bb565b9050919050565b7f455243373231456e756d657261626c653a206f776e657220696e646578206f7560008201527f74206f6620626f756e6473000000000000000000000000000000000000000000602082015250565b600061325a602b836128e9565b9150613265826131fe565b604082019050919050565b600060208201905081810360008301526132898161324d565b9050919050565b7f455243373231456e756d657261626c653a20676c6f62616c20696e646578206f60008201527f7574206f6620626f756e64730000000000000000000000000000000000000000602082015250565b60006132ec602c836128e9565b91506132f782613290565b604082019050919050565b6000602082019050818103600083015261331b816132df565b9050919050565b7f4e487b7100000000000000000000000000000000000000000000000000000000600052603260045260246000fd5b7f4552433732313a206f776e657220717565727920666f72206e6f6e657869737460008201527f656e7420746f6b656e0000000000000000000000000000000000000000000000602082015250565b60006133ad6029836128e9565b91506133b882613351565b604082019050919050565b600060208201905081810360008301526133dc816133a0565b9050919050565b7f4f776e61626c653a2063616c6c6572206973206e6f7420746865206f776e6572600082015250565b60006134196020836128e9565b9150613424826133e3565b602082019050919050565b600060208201905081810360008301526134488161340c565b9050919050565b60008160601b9050919050565b60006134678261344f565b9050919050565b60006134798261345c565b9050919050565b61349161348c82612a1c565b61346e565b82525050565b60006134a38286613480565b6014820191506134b38285613480565b6014820191506134c38284613480565b601482019150819050949350505050565b7f746f6b656e496420646f65736e27742065786973740000000000000000000000600082015250565b600061350a6015836128e9565b9150613515826134d4565b602082019050919050565b60006020820190508181036000830152613539816134fd565b9050919050565b7f696e73756666696369656e742062616c616e6365000000000000000000000000600082015250565b60006135766014836128e9565b915061358182613540565b602082019050919050565b600060208201905081810360008301526135a581613569565b9050919050565b7f4e487b7100000000000000000000000000000000000000000000000000000000600052601160045260246000fd5b60006135e682612999565b91506135f183612999565b925082821015613604576136036135ac565b5b828203905092915050565b7f4552433732313a2062616c616e636520717565727920666f7220746865207a6560008201527f726f206164647265737300000000000000000000000000000000000000000000602082015250565b600061366b602a836128e9565b91506136768261360f565b604082019050919050565b6000602082019050818103600083015261369a8161365e565b9050919050565b60006136ac82612999565b91506136b783612999565b9250827fffffffffffffffffffffffffffffffffffffffffffffffffffffffffffffffff038211156136ec576136eb6135ac565b5b828201905092915050565b7f4552433732314d657461646174613a2055524920717565727920666f72206e6f60008201527f6e6578697374656e7420746f6b656e0000000000000000000000000000000000602082015250565b6000613753602f836128e9565b915061375e826136f7565b604082019050919050565b6000602082019050818103600083015261378281613746565b9050919050565b600081905092915050565b600061379f826128de565b6137a98185613789565b93506137b98185602086016128fa565b80840191505092915050565b60006137d18285613794565b91506137dd8284613794565b91508190509392505050565b6000815190506137f8816129a3565b92915050565b60006020828403121561381457613813612819565b5b6000613822848285016137e9565b91505092915050565b7f4f776e61626c653a206e6577206f776e657220697320746865207a65726f206160008201527f6464726573730000000000000000000000000000000000000000000000000000602082015250565b60006138876026836128e9565b91506138928261382b565b604082019050919050565b600060208201905081810360008301526138b68161387a565b9050919050565b7f4552433732313a206f70657261746f7220717565727920666f72206e6f6e657860008201527f697374656e7420746f6b656e0000000000000000000000000000000000000000602082015250565b6000613919602c836128e9565b9150613924826138bd565b604082019050919050565b600060208201905081810360008301526139488161390c565b9050919050565b7f4552433732313a207472616e73666572206f6620746f6b656e2074686174206960008201527f73206e6f74206f776e0000000000000000000000000000000000000000000000602082015250565b60006139ab6029836128e9565b91506139b68261394f565b604082019050919050565b600060208201905081810360008301526139da8161399e565b9050919050565b7f4552433732313a207472616e7366657220746f20746865207a65726f2061646460008201527f7265737300000000000000000000000000000000000000000000000000000000602082015250565b6000613a3d6024836128e9565b9150613a48826139e1565b604082019050919050565b60006020820190508181036000830152613a6c81613a30565b9050919050565b600064ffffffffff82169050919050565b613a8d81613a73565b8114613a9857600080fd5b50565b600081519050613aaa81613a84565b92915050565b6000806000806000806000806000806101408b8d031215613ad457613ad3612819565b5b6000613ae28d828e016137e9565b9a50506020613af38d828e016137e9565b9950506040613b048d828e016137e9565b9850506060613b158d828e016137e9565b9750506080613b268d828e016137e9565b96505060a0613b378d828e016137e9565b95505060c0613b488d828e016137e9565b94505060e0613b598d828e016137e9565b935050610100613b6b8d828e016137e9565b925050610120613b7d8d828e01613a9b565b9150509295989b9194979a5092959850565b7f6469766973696f6e206279203000000000000000000000000000000000000000600082015250565b6000613bc5600d836128e9565b9150613bd082613b8f565b602082019050919050565b60006020820190508181036000830152613bf481613bb8565b9050919050565b7f4e487b7100000000000000000000000000000000000000000000000000000000600052601260045260246000fd5b6000613c3582612999565b9150613c4083612999565b925082613c5057613c4f613bfb565b5b828204905092915050565b7f6d756c7469706c69636174696f6e206f766572666c6f77000000000000000000600082015250565b6000613c916017836128e9565b9150613c9c82613c5b565b602082019050919050565b60006020820190508181036000830152613cc081613c84565b9050919050565b6000613cd282612999565b9150613cdd83612999565b9250817fffffffffffffffffffffffffffffffffffffffffffffffffffffffffffffffff0483118215151615613d1657613d156135ac565b5b828202905092915050565b7f4552433732313a206d696e7420746f20746865207a65726f2061646472657373600082015250565b6000613d576020836128e9565b9150613d6282613d21565b602082019050919050565b60006020820190508181036000830152613d8681613d4a565b9050919050565b7f4552433732313a20746f6b656e20616c7265616479206d696e74656400000000600082015250565b6000613dc3601c836128e9565b9150613dce82613d8d565b602082019050919050565b60006020820190508181036000830152613df281613db6565b9050919050565b7f4552433732313a20617070726f766520746f2063616c6c657200000000000000600082015250565b6000613e2f6019836128e9565b9150613e3a82613df9565b602082019050919050565b60006020820190508181036000830152613e5e81613e22565b9050919050565b7f4552433732313a207472616e7366657220746f206e6f6e20455243373231526560008201527f63656976657220696d706c656d656e7465720000000000000000000000000000602082015250565b6000613ec16032836128e9565b9150613ecc82613e65565b604082019050919050565b60006020820190508181036000830152613ef081613eb4565b9050919050565b6000613f0282612999565b91507fffffffffffffffffffffffffffffffffffffffffffffffffffffffffffffffff821415613f3557613f346135ac565b5b600182019050919050565b6000613f4b82612999565b9150613f5683612999565b925082613f6657613f65613bfb565b5b828206905092915050565b600081519050919050565b600082825260208201905092915050565b6000613f9882613f71565b613fa28185613f7c565b9350613fb28185602086016128fa565b613fbb8161292d565b840191505092915050565b6000608082019050613fdb6000830187612a2e565b613fe86020830186612a2e565b613ff56040830185612ac4565b81810360608301526140078184613f8d565b905095945050505050565b6000815190506140218161284f565b92915050565b60006020828403121561403d5761403c612819565b5b600061404b84828501614012565b91505092915050565b7f4e487b7100000000000000000000000000000000000000000000000000000000600052603160045260246000fdfea264697066735822122015c0d2680278ff154d98f003f022a2dd37b1e13252576ece10dbe871402d2c1a64736f6c6343000809003360806040523480156200001157600080fd5b506040518060400160405280600f81526020017f4a4350204f776e657220546f6b656e00000000000000000000000000000000008152506040518060400160405280600c81526020017f4a4350545f544553545f4f310000000000000000000000000000000000000000815250816000908051906020019062000096929190620001a6565b508060019080519060200190620000af929190620001a6565b505050620000d2620000c6620000d860201b60201c565b620000e060201b60201c565b620002bb565b600033905090565b6000600a60009054906101000a900473ffffffffffffffffffffffffffffffffffffffff16905081600a60006101000a81548173ffffffffffffffffffffffffffffffffffffffff021916908373ffffffffffffffffffffffffffffffffffffffff1602179055508173ffffffffffffffffffffffffffffffffffffffff168173ffffffffffffffffffffffffffffffffffffffff167f8be0079c531659141344cd1fd0a4f28419497f9722a3daafe3b4186f6b6457e060405160405180910390a35050565b828054620001b49062000285565b90600052602060002090601f016020900481019282620001d8576000855562000224565b82601f10620001f357805160ff191683800117855562000224565b8280016001018555821562000224579182015b828111156200022357825182559160200191906001019062000206565b5b50905062000233919062000237565b5090565b5b808211156200025257600081600090555060010162000238565b5090565b7f4e487b7100000000000000000000000000000000000000000000000000000000600052602260045260246000fd5b600060028204905060018216806200029e57607f821691505b60208210811415620002b557620002b462000256565b5b50919050565b61354f80620002cb6000396000f3fe608060405234801561001057600080fd5b50600436106101375760003560e01c80636352211e116100b8578063a22cb4651161007c578063a22cb46514610362578063b88d4fde1461037e578063c6fdbc901461039a578063c87b56dd146103ca578063e985e9c5146103fa578063f2fde38b1461042a57610137565b80636352211e146102bc57806370a08231146102ec578063715018a61461031c5780638da5cb5b1461032657806395d89b411461034457610137565b806323579ba1116100ff57806323579ba1146101f457806323b872dd146102245780632f745c591461024057806342842e0e146102705780634f6ccce71461028c57610137565b806301ffc9a71461013c57806306fdde031461016c578063081812fc1461018a578063095ea7b3146101ba57806318160ddd146101d6575b600080fd5b610156600480360381019061015191906121c6565b610446565b604051610163919061220e565b60405180910390f35b6101746104c0565b60405161018191906122c2565b60405180910390f35b6101a4600480360381019061019f919061231a565b610552565b6040516101b19190612388565b60405180910390f35b6101d460048036038101906101cf91906123cf565b6105d7565b005b6101de6106ef565b6040516101eb919061241e565b60405180910390f35b61020e60048036038101906102099190612439565b6106fc565b60405161021b919061241e565b60405180910390f35b61023e6004803603810190610239919061248c565b610839565b005b61025a600480360381019061025591906123cf565b610899565b604051610267919061241e565b60405180910390f35b61028a6004803603810190610285919061248c565b61093e565b005b6102a660048036038101906102a1919061231a565b61095e565b6040516102b3919061241e565b60405180910390f35b6102d660048036038101906102d1919061231a565b6109cf565b6040516102e39190612388565b60405180910390f35b610306600480360381019061030191906124df565b610a81565b604051610313919061241e565b60405180910390f35b610324610b39565b005b61032e610bc1565b60405161033b9190612388565b60405180910390f35b61034c610beb565b60405161035991906122c2565b60405180910390f35b61037c60048036038101906103779190612538565b610c7d565b005b610398600480360381019061039391906126ad565b610c93565b005b6103b460048036038101906103af919061231a565b610cf5565b6040516103c1919061277d565b60405180910390f35b6103e460048036038101906103df919061231a565b610d82565b6040516103f191906122c2565b60405180910390f35b610414600480360381019061040f9190612798565b610e29565b604051610421919061220e565b60405180910390f35b610444600480360381019061043f91906124df565b610ebd565b005b60007f780e9d63000000000000000000000000000000000000000000000000000000007bffffffffffffffffffffffffffffffffffffffffffffffffffffffff1916827bffffffffffffffffffffffffffffffffffffffffffffffffffffffff191614806104b957506104b882610fb5565b5b9050919050565b6060600080546104cf90612807565b80601f01602080910402602001604051908101604052809291908181526020018280546104fb90612807565b80156105485780601f1061051d57610100808354040283529160200191610548565b820191906000526020600020905b81548152906001019060200180831161052b57829003601f168201915b5050505050905090565b600061055d82611097565b61059c576040517f08c379a0000000000000000000000000000000000000000000000000000000008152600401610593906128ab565b60405180910390fd5b6004600083815260200190815260200160002060009054906101000a900473ffffffffffffffffffffffffffffffffffffffff169050919050565b60006105e2826109cf565b90508073ffffffffffffffffffffffffffffffffffffffff168373ffffffffffffffffffffffffffffffffffffffff161415610653576040517f08c379a000000000000000000000000000000000000000000000000000000000815260040161064a9061293d565b60405180910390fd5b8073ffffffffffffffffffffffffffffffffffffffff16610672611103565b73ffffffffffffffffffffffffffffffffffffffff1614806106a157506106a08161069b611103565b610e29565b5b6106e0576040517f08c379a00000000000000000000000000000000000000000000000000000000081526004016106d7906129cf565b60405180910390fd5b6106ea838361110b565b505050565b6000600880549050905090565b6000610706611103565b73ffffffffffffffffffffffffffffffffffffffff16610724610bc1565b73ffffffffffffffffffffffffffffffffffffffff161461077a576040517f08c379a000000000000000000000000000000000000000000000000000000000815260040161077190612a3b565b60405180910390fd5b610784600b6111c4565b6000610790600b6111da565b905060405180604001604052808581526020018473ffffffffffffffffffffffffffffffffffffffff16815250600c60008381526020019081526020016000206000820151816000015560208201518160010160006101000a81548173ffffffffffffffffffffffffffffffffffffffff021916908373ffffffffffffffffffffffffffffffffffffffff16021790555090505061082e85826111e8565b809150509392505050565b61084a610844611103565b826113b6565b610889576040517f08c379a000000000000000000000000000000000000000000000000000000000815260040161088090612acd565b60405180910390fd5b610894838383611494565b505050565b60006108a483610a81565b82106108e5576040517f08c379a00000000000000000000000000000000000000000000000000000000081526004016108dc90612b5f565b60405180910390fd5b600660008473ffffffffffffffffffffffffffffffffffffffff1673ffffffffffffffffffffffffffffffffffffffff168152602001908152602001600020600083815260200190815260200160002054905092915050565b61095983838360405180602001604052806000815250610c93565b505050565b60006109686106ef565b82106109a9576040517f08c379a00000000000000000000000000000000000000000000000000000000081526004016109a090612bf1565b60405180910390fd5b600882815481106109bd576109bc612c11565b5b90600052602060002001549050919050565b6000806002600084815260200190815260200160002060009054906101000a900473ffffffffffffffffffffffffffffffffffffffff169050600073ffffffffffffffffffffffffffffffffffffffff168173ffffffffffffffffffffffffffffffffffffffff161415610a78576040517f08c379a0000000000000000000000000000000000000000000000000000000008152600401610a6f90612cb2565b60405180910390fd5b80915050919050565b60008073ffffffffffffffffffffffffffffffffffffffff168273ffffffffffffffffffffffffffffffffffffffff161415610af2576040517f08c379a0000000000000000000000000000000000000000000000000000000008152600401610ae990612d44565b60405180910390fd5b600360008373ffffffffffffffffffffffffffffffffffffffff1673ffffffffffffffffffffffffffffffffffffffff168152602001908152602001600020549050919050565b610b41611103565b73ffffffffffffffffffffffffffffffffffffffff16610b5f610bc1565b73ffffffffffffffffffffffffffffffffffffffff1614610bb5576040517f08c379a0000000000000000000000000000000000000000000000000000000008152600401610bac90612a3b565b60405180910390fd5b610bbf60006116f0565b565b6000600a60009054906101000a900473ffffffffffffffffffffffffffffffffffffffff16905090565b606060018054610bfa90612807565b80601f0160208091040260200160405190810160405280929190818152602001828054610c2690612807565b8015610c735780601f10610c4857610100808354040283529160200191610c73565b820191906000526020600020905b815481529060010190602001808311610c5657829003601f168201915b5050505050905090565b610c8f610c88611103565b83836117b6565b5050565b610ca4610c9e611103565b836113b6565b610ce3576040517f08c379a0000000000000000000000000000000000000000000000000000000008152600401610cda90612acd565b60405180910390fd5b610cef84848484611923565b50505050565b610cfd61212a565b600c6000838152602001908152602001600020604051806040016040529081600082015481526020016001820160009054906101000a900473ffffffffffffffffffffffffffffffffffffffff1673ffffffffffffffffffffffffffffffffffffffff1673ffffffffffffffffffffffffffffffffffffffff16815250509050919050565b6060610d8d82611097565b610dcc576040517f08c379a0000000000000000000000000000000000000000000000000000000008152600401610dc390612dd6565b60405180910390fd5b6000610dd661197f565b90506000815111610df65760405180602001604052806000815250610e21565b80610e0084611996565b604051602001610e11929190612e32565b6040516020818303038152906040525b915050919050565b6000600560008473ffffffffffffffffffffffffffffffffffffffff1673ffffffffffffffffffffffffffffffffffffffff16815260200190815260200160002060008373ffffffffffffffffffffffffffffffffffffffff1673ffffffffffffffffffffffffffffffffffffffff16815260200190815260200160002060009054906101000a900460ff16905092915050565b610ec5611103565b73ffffffffffffffffffffffffffffffffffffffff16610ee3610bc1565b73ffffffffffffffffffffffffffffffffffffffff1614610f39576040517f08c379a0000000000000000000000000000000000000000000000000000000008152600401610f3090612a3b565b60405180910390fd5b600073ffffffffffffffffffffffffffffffffffffffff168173ffffffffffffffffffffffffffffffffffffffff161415610fa9576040517f08c379a0000000000000000000000000000000000000000000000000000000008152600401610fa090612ec8565b60405180910390fd5b610fb2816116f0565b50565b60007f80ac58cd000000000000000000000000000000000000000000000000000000007bffffffffffffffffffffffffffffffffffffffffffffffffffffffff1916827bffffffffffffffffffffffffffffffffffffffffffffffffffffffff1916148061108057507f5b5e139f000000000000000000000000000000000000000000000000000000007bffffffffffffffffffffffffffffffffffffffffffffffffffffffff1916827bffffffffffffffffffffffffffffffffffffffffffffffffffffffff1916145b80611090575061108f82611af7565b5b9050919050565b60008073ffffffffffffffffffffffffffffffffffffffff166002600084815260200190815260200160002060009054906101000a900473ffffffffffffffffffffffffffffffffffffffff1673ffffffffffffffffffffffffffffffffffffffff1614159050919050565b600033905090565b816004600083815260200190815260200160002060006101000a81548173ffffffffffffffffffffffffffffffffffffffff021916908373ffffffffffffffffffffffffffffffffffffffff160217905550808273ffffffffffffffffffffffffffffffffffffffff1661117e836109cf565b73ffffffffffffffffffffffffffffffffffffffff167f8c5be1e5ebec7d5bd14f71427d1e84f3dd0314c0f7b2291e5b200ac8c7c3b92560405160405180910390a45050565b6001816000016000828254019250508190555050565b600081600001549050919050565b600073ffffffffffffffffffffffffffffffffffffffff168273ffffffffffffffffffffffffffffffffffffffff161415611258576040517f08c379a000000000000000000000000000000000000000000000000000000000815260040161124f90612f34565b60405180910390fd5b61126181611097565b156112a1576040517f08c379a000000000000000000000000000000000000000000000000000000000815260040161129890612fa0565b60405180910390fd5b6112ad60008383611b61565b6001600360008473ffffffffffffffffffffffffffffffffffffffff1673ffffffffffffffffffffffffffffffffffffffff16815260200190815260200160002060008282546112fd9190612fef565b92505081905550816002600083815260200190815260200160002060006101000a81548173ffffffffffffffffffffffffffffffffffffffff021916908373ffffffffffffffffffffffffffffffffffffffff160217905550808273ffffffffffffffffffffffffffffffffffffffff16600073ffffffffffffffffffffffffffffffffffffffff167fddf252ad1be2c89b69c2b068fc378daa952ba7f163c4a11628f55a4df523b3ef60405160405180910390a45050565b60006113c182611097565b611400576040517f08c379a00000000000000000000000000000000000000000000000000000000081526004016113f7906130b7565b60405180910390fd5b600061140b836109cf565b90508073ffffffffffffffffffffffffffffffffffffffff168473ffffffffffffffffffffffffffffffffffffffff16148061147a57508373ffffffffffffffffffffffffffffffffffffffff1661146284610552565b73ffffffffffffffffffffffffffffffffffffffff16145b8061148b575061148a8185610e29565b5b91505092915050565b8273ffffffffffffffffffffffffffffffffffffffff166114b4826109cf565b73ffffffffffffffffffffffffffffffffffffffff161461150a576040517f08c379a000000000000000000000000000000000000000000000000000000000815260040161150190613149565b60405180910390fd5b600073ffffffffffffffffffffffffffffffffffffffff168273ffffffffffffffffffffffffffffffffffffffff16141561157a576040517f08c379a0000000000000000000000000000000000000000000000000000000008152600401611571906131db565b60405180910390fd5b611585838383611b61565b61159060008261110b565b6001600360008573ffffffffffffffffffffffffffffffffffffffff1673ffffffffffffffffffffffffffffffffffffffff16815260200190815260200160002060008282546115e091906131fb565b925050819055506001600360008473ffffffffffffffffffffffffffffffffffffffff1673ffffffffffffffffffffffffffffffffffffffff16815260200190815260200160002060008282546116379190612fef565b92505081905550816002600083815260200190815260200160002060006101000a81548173ffffffffffffffffffffffffffffffffffffffff021916908373ffffffffffffffffffffffffffffffffffffffff160217905550808273ffffffffffffffffffffffffffffffffffffffff168473ffffffffffffffffffffffffffffffffffffffff167fddf252ad1be2c89b69c2b068fc378daa952ba7f163c4a11628f55a4df523b3ef60405160405180910390a4505050565b6000600a60009054906101000a900473ffffffffffffffffffffffffffffffffffffffff16905081600a60006101000a81548173ffffffffffffffffffffffffffffffffffffffff021916908373ffffffffffffffffffffffffffffffffffffffff1602179055508173ffffffffffffffffffffffffffffffffffffffff168173ffffffffffffffffffffffffffffffffffffffff167f8be0079c531659141344cd1fd0a4f28419497f9722a3daafe3b4186f6b6457e060405160405180910390a35050565b8173ffffffffffffffffffffffffffffffffffffffff168373ffffffffffffffffffffffffffffffffffffffff161415611825576040517f08c379a000000000000000000000000000000000000000000000000000000000815260040161181c9061327b565b60405180910390fd5b80600560008573ffffffffffffffffffffffffffffffffffffffff1673ffffffffffffffffffffffffffffffffffffffff16815260200190815260200160002060008473ffffffffffffffffffffffffffffffffffffffff1673ffffffffffffffffffffffffffffffffffffffff16815260200190815260200160002060006101000a81548160ff0219169083151502179055508173ffffffffffffffffffffffffffffffffffffffff168373ffffffffffffffffffffffffffffffffffffffff167f17307eab39ab6107e8899845ad3d59bd9653f200f220920489ca2b5937696c3183604051611916919061220e565b60405180910390a3505050565b61192e848484611494565b61193a84848484611c75565b611979576040517f08c379a00000000000000000000000000000000000000000000000000000000081526004016119709061330d565b60405180910390fd5b50505050565b606060405180602001604052806000815250905090565b606060008214156119de576040518060400160405280600181526020017f30000000000000000000000000000000000000000000000000000000000000008152509050611af2565b600082905060005b60008214611a105780806119f99061332d565b915050600a82611a0991906133a5565b91506119e6565b60008167ffffffffffffffff811115611a2c57611a2b612582565b5b6040519080825280601f01601f191660200182016040528015611a5e5781602001600182028036833780820191505090505b5090505b60008514611aeb57600182611a7791906131fb565b9150600a85611a8691906133d6565b6030611a929190612fef565b60f81b818381518110611aa857611aa7612c11565b5b60200101907effffffffffffffffffffffffffffffffffffffffffffffffffffffffffffff1916908160001a905350600a85611ae491906133a5565b9450611a62565b8093505050505b919050565b60007f01ffc9a7000000000000000000000000000000000000000000000000000000007bffffffffffffffffffffffffffffffffffffffffffffffffffffffff1916827bffffffffffffffffffffffffffffffffffffffffffffffffffffffff1916149050919050565b611b6c838383611e0c565b600073ffffffffffffffffffffffffffffffffffffffff168373ffffffffffffffffffffffffffffffffffffffff161415611baf57611baa81611e11565b611bee565b8173ffffffffffffffffffffffffffffffffffffffff168373ffffffffffffffffffffffffffffffffffffffff1614611bed57611bec8382611e5a565b5b5b600073ffffffffffffffffffffffffffffffffffffffff168273ffffffffffffffffffffffffffffffffffffffff161415611c3157611c2c81611fc7565b611c70565b8273ffffffffffffffffffffffffffffffffffffffff168273ffffffffffffffffffffffffffffffffffffffff1614611c6f57611c6e8282612098565b5b5b505050565b6000611c968473ffffffffffffffffffffffffffffffffffffffff16612117565b15611dff578373ffffffffffffffffffffffffffffffffffffffff1663150b7a02611cbf611103565b8786866040518563ffffffff1660e01b8152600401611ce1949392919061345c565b602060405180830381600087803b158015611cfb57600080fd5b505af1925050508015611d2c57506040513d601f19601f82011682018060405250810190611d2991906134bd565b60015b611daf573d8060008114611d5c576040519150601f19603f3d011682016040523d82523d6000602084013e611d61565b606091505b50600081511415611da7576040517f08c379a0000000000000000000000000000000000000000000000000000000008152600401611d9e9061330d565b60405180910390fd5b805181602001fd5b63150b7a0260e01b7bffffffffffffffffffffffffffffffffffffffffffffffffffffffff1916817bffffffffffffffffffffffffffffffffffffffffffffffffffffffff191614915050611e04565b600190505b949350505050565b505050565b6008805490506009600083815260200190815260200160002081905550600881908060018154018082558091505060019003906000526020600020016000909190919091505550565b60006001611e6784610a81565b611e7191906131fb565b9050600060076000848152602001908152602001600020549050818114611f56576000600660008673ffffffffffffffffffffffffffffffffffffffff1673ffffffffffffffffffffffffffffffffffffffff168152602001908152602001600020600084815260200190815260200160002054905080600660008773ffffffffffffffffffffffffffffffffffffffff1673ffffffffffffffffffffffffffffffffffffffff168152602001908152602001600020600084815260200190815260200160002081905550816007600083815260200190815260200160002081905550505b6007600084815260200190815260200160002060009055600660008573ffffffffffffffffffffffffffffffffffffffff1673ffffffffffffffffffffffffffffffffffffffff16815260200190815260200160002060008381526020019081526020016000206000905550505050565b60006001600880549050611fdb91906131fb565b905060006009600084815260200190815260200160002054905060006008838154811061200b5761200a612c11565b5b90600052602060002001549050806008838154811061202d5761202c612c11565b5b90600052602060002001819055508160096000838152602001908152602001600020819055506009600085815260200190815260200160002060009055600880548061207c5761207b6134ea565b5b6001900381819060005260206000200160009055905550505050565b60006120a383610a81565b905081600660008573ffffffffffffffffffffffffffffffffffffffff1673ffffffffffffffffffffffffffffffffffffffff168152602001908152602001600020600083815260200190815260200160002081905550806007600084815260200190815260200160002081905550505050565b600080823b905060008111915050919050565b604051806040016040528060008152602001600073ffffffffffffffffffffffffffffffffffffffff1681525090565b6000604051905090565b600080fd5b600080fd5b60007fffffffff0000000000000000000000000000000000000000000000000000000082169050919050565b6121a38161216e565b81146121ae57600080fd5b50565b6000813590506121c08161219a565b92915050565b6000602082840312156121dc576121db612164565b5b60006121ea848285016121b1565b91505092915050565b60008115159050919050565b612208816121f3565b82525050565b600060208201905061222360008301846121ff565b92915050565b600081519050919050565b600082825260208201905092915050565b60005b83811015612263578082015181840152602081019050612248565b83811115612272576000848401525b50505050565b6000601f19601f8301169050919050565b600061229482612229565b61229e8185612234565b93506122ae818560208601612245565b6122b781612278565b840191505092915050565b600060208201905081810360008301526122dc8184612289565b905092915050565b6000819050919050565b6122f7816122e4565b811461230257600080fd5b50565b600081359050612314816122ee565b92915050565b6000602082840312156123305761232f612164565b5b600061233e84828501612305565b91505092915050565b600073ffffffffffffffffffffffffffffffffffffffff82169050919050565b600061237282612347565b9050919050565b61238281612367565b82525050565b600060208201905061239d6000830184612379565b92915050565b6123ac81612367565b81146123b757600080fd5b50565b6000813590506123c9816123a3565b92915050565b600080604083850312156123e6576123e5612164565b5b60006123f4858286016123ba565b925050602061240585828601612305565b9150509250929050565b612418816122e4565b82525050565b6000602082019050612433600083018461240f565b92915050565b60008060006060848603121561245257612451612164565b5b6000612460868287016123ba565b935050602061247186828701612305565b9250506040612482868287016123ba565b9150509250925092565b6000806000606084860312156124a5576124a4612164565b5b60006124b3868287016123ba565b93505060206124c4868287016123ba565b92505060406124d586828701612305565b9150509250925092565b6000602082840312156124f5576124f4612164565b5b6000612503848285016123ba565b91505092915050565b612515816121f3565b811461252057600080fd5b50565b6000813590506125328161250c565b92915050565b6000806040838503121561254f5761254e612164565b5b600061255d858286016123ba565b925050602061256e85828601612523565b9150509250929050565b600080fd5b600080fd5b7f4e487b7100000000000000000000000000000000000000000000000000000000600052604160045260246000fd5b6125ba82612278565b810181811067ffffffffffffffff821117156125d9576125d8612582565b5b80604052505050565b60006125ec61215a565b90506125f882826125b1565b919050565b600067ffffffffffffffff82111561261857612617612582565b5b61262182612278565b9050602081019050919050565b82818337600083830152505050565b600061265061264b846125fd565b6125e2565b90508281526020810184848401111561266c5761266b61257d565b5b61267784828561262e565b509392505050565b600082601f83011261269457612693612578565b5b81356126a484826020860161263d565b91505092915050565b600080600080608085870312156126c7576126c6612164565b5b60006126d5878288016123ba565b94505060206126e6878288016123ba565b93505060406126f787828801612305565b925050606085013567ffffffffffffffff81111561271857612717612169565b5b6127248782880161267f565b91505092959194509250565b612739816122e4565b82525050565b61274881612367565b82525050565b6040820160008201516127646000850182612730565b506020820151612777602085018261273f565b50505050565b6000604082019050612792600083018461274e565b92915050565b600080604083850312156127af576127ae612164565b5b60006127bd858286016123ba565b92505060206127ce858286016123ba565b9150509250929050565b7f4e487b7100000000000000000000000000000000000000000000000000000000600052602260045260246000fd5b6000600282049050600182168061281f57607f821691505b60208210811415612833576128326127d8565b5b50919050565b7f4552433732313a20617070726f76656420717565727920666f72206e6f6e657860008201527f697374656e7420746f6b656e0000000000000000000000000000000000000000602082015250565b6000612895602c83612234565b91506128a082612839565b604082019050919050565b600060208201905081810360008301526128c481612888565b9050919050565b7f4552433732313a20617070726f76616c20746f2063757272656e74206f776e6560008201527f7200000000000000000000000000000000000000000000000000000000000000602082015250565b6000612927602183612234565b9150612932826128cb565b604082019050919050565b600060208201905081810360008301526129568161291a565b9050919050565b7f4552433732313a20617070726f76652063616c6c6572206973206e6f74206f7760008201527f6e6572206e6f7220617070726f76656420666f7220616c6c0000000000000000602082015250565b60006129b9603883612234565b91506129c48261295d565b604082019050919050565b600060208201905081810360008301526129e8816129ac565b9050919050565b7f4f776e61626c653a2063616c6c6572206973206e6f7420746865206f776e6572600082015250565b6000612a25602083612234565b9150612a30826129ef565b602082019050919050565b60006020820190508181036000830152612a5481612a18565b9050919050565b7f4552433732313a207472616e736665722063616c6c6572206973206e6f74206f60008201527f776e6572206e6f7220617070726f766564000000000000000000000000000000602082015250565b6000612ab7603183612234565b9150612ac282612a5b565b604082019050919050565b60006020820190508181036000830152612ae681612aaa565b9050919050565b7f455243373231456e756d657261626c653a206f776e657220696e646578206f7560008201527f74206f6620626f756e6473000000000000000000000000000000000000000000602082015250565b6000612b49602b83612234565b9150612b5482612aed565b604082019050919050565b60006020820190508181036000830152612b7881612b3c565b9050919050565b7f455243373231456e756d657261626c653a20676c6f62616c20696e646578206f60008201527f7574206f6620626f756e64730000000000000000000000000000000000000000602082015250565b6000612bdb602c83612234565b9150612be682612b7f565b604082019050919050565b60006020820190508181036000830152612c0a81612bce565b9050919050565b7f4e487b7100000000000000000000000000000000000000000000000000000000600052603260045260246000fd5b7f4552433732313a206f776e657220717565727920666f72206e6f6e657869737460008201527f656e7420746f6b656e0000000000000000000000000000000000000000000000602082015250565b6000612c9c602983612234565b9150612ca782612c40565b604082019050919050565b60006020820190508181036000830152612ccb81612c8f565b9050919050565b7f4552433732313a2062616c616e636520717565727920666f7220746865207a6560008201527f726f206164647265737300000000000000000000000000000000000000000000602082015250565b6000612d2e602a83612234565b9150612d3982612cd2565b604082019050919050565b60006020820190508181036000830152612d5d81612d21565b9050919050565b7f4552433732314d657461646174613a2055524920717565727920666f72206e6f60008201527f6e6578697374656e7420746f6b656e0000000000000000000000000000000000602082015250565b6000612dc0602f83612234565b9150612dcb82612d64565b604082019050919050565b60006020820190508181036000830152612def81612db3565b9050919050565b600081905092915050565b6000612e0c82612229565b612e168185612df6565b9350612e26818560208601612245565b80840191505092915050565b6000612e3e8285612e01565b9150612e4a8284612e01565b91508190509392505050565b7f4f776e61626c653a206e6577206f776e657220697320746865207a65726f206160008201527f6464726573730000000000000000000000000000000000000000000000000000602082015250565b6000612eb2602683612234565b9150612ebd82612e56565b604082019050919050565b60006020820190508181036000830152612ee181612ea5565b9050919050565b7f4552433732313a206d696e7420746f20746865207a65726f2061646472657373600082015250565b6000612f1e602083612234565b9150612f2982612ee8565b602082019050919050565b60006020820190508181036000830152612f4d81612f11565b9050919050565b7f4552433732313a20746f6b656e20616c7265616479206d696e74656400000000600082015250565b6000612f8a601c83612234565b9150612f9582612f54565b602082019050919050565b60006020820190508181036000830152612fb981612f7d565b9050919050565b7f4e487b7100000000000000000000000000000000000000000000000000000000600052601160045260246000fd5b6000612ffa826122e4565b9150613005836122e4565b9250827fffffffffffffffffffffffffffffffffffffffffffffffffffffffffffffffff0382111561303a57613039612fc0565b5b828201905092915050565b7f4552433732313a206f70657261746f7220717565727920666f72206e6f6e657860008201527f697374656e7420746f6b656e0000000000000000000000000000000000000000602082015250565b60006130a1602c83612234565b91506130ac82613045565b604082019050919050565b600060208201905081810360008301526130d081613094565b9050919050565b7f4552433732313a207472616e73666572206f6620746f6b656e2074686174206960008201527f73206e6f74206f776e0000000000000000000000000000000000000000000000602082015250565b6000613133602983612234565b915061313e826130d7565b604082019050919050565b6000602082019050818103600083015261316281613126565b9050919050565b7f4552433732313a207472616e7366657220746f20746865207a65726f2061646460008201527f7265737300000000000000000000000000000000000000000000000000000000602082015250565b60006131c5602483612234565b91506131d082613169565b604082019050919050565b600060208201905081810360008301526131f4816131b8565b9050919050565b6000613206826122e4565b9150613211836122e4565b92508282101561322457613223612fc0565b5b828203905092915050565b7f4552433732313a20617070726f766520746f2063616c6c657200000000000000600082015250565b6000613265601983612234565b91506132708261322f565b602082019050919050565b6000602082019050818103600083015261329481613258565b9050919050565b7f4552433732313a207472616e7366657220746f206e6f6e20455243373231526560008201527f63656976657220696d706c656d656e7465720000000000000000000000000000602082015250565b60006132f7603283612234565b91506133028261329b565b604082019050919050565b60006020820190508181036000830152613326816132ea565b9050919050565b6000613338826122e4565b91507fffffffffffffffffffffffffffffffffffffffffffffffffffffffffffffffff82141561336b5761336a612fc0565b5b600182019050919050565b7f4e487b7100000000000000000000000000000000000000000000000000000000600052601260045260246000fd5b60006133b0826122e4565b91506133bb836122e4565b9250826133cb576133ca613376565b5b828204905092915050565b60006133e1826122e4565b91506133ec836122e4565b9250826133fc576133fb613376565b5b828206905092915050565b600081519050919050565b600082825260208201905092915050565b600061342e82613407565b6134388185613412565b9350613448818560208601612245565b61345181612278565b840191505092915050565b60006080820190506134716000830187612379565b61347e6020830186612379565b61348b604083018561240f565b818103606083015261349d8184613423565b905095945050505050565b6000815190506134b78161219a565b92915050565b6000602082840312156134d3576134d2612164565b5b60006134e1848285016134a8565b91505092915050565b7f4e487b7100000000000000000000000000000000000000000000000000000000600052603160045260246000fdfea26469706673582212204fceb336f0ca11da15448ca07ea0fdf350768364f49739bcc628c577608957b664736f6c63430008090033608060405234801561001057600080fd5b506001600460006101000a81548160ff0219169083151502179055506129fd8061003b6000396000f3fe608060405234801561001057600080fd5b50600436106101165760003560e01c806347e7ef24116100a257806369328dec1161007157806369328dec146102e3578063711cc005146102ff5780638aebe8d61461032f578063a56f5b531461035f578063d15e00531461038f57610116565b806347e7ef241461025d57806350d02d711461027957806357ac6566146102955780635ff189b9146102b357610116565b80631b88094d116100e95780631b88094d146101b75780632e599054146101d55780632f757006146101f1578063343d693b1461020f5780633735ef881461022d57610116565b80630251cfa11461011b5780630712f6b31461014b5780630835d21a1461017b57806317d7de7c14610199575b600080fd5b61013560048036038101906101309190611c0b565b6103bf565b6040516101429190611c51565b60405180910390f35b61016560048036038101906101609190611c0b565b610408565b6040516101729190611c51565b60405180910390f35b61018361054b565b6040516101909190611c85565b60405180910390f35b6101a16105ab565b6040516101ae9190611d39565b60405180910390f35b6101bf61063d565b6040516101cc9190611d6a565b60405180910390f35b6101ef60048036038101906101ea9190611db1565b610667565b005b6101f9610753565b6040516102069190611eaf565b60405180910390f35b6102176107e1565b6040516102249190611d39565b60405180910390f35b61024760048036038101906102429190611c0b565b610873565b6040516102549190611c51565b60405180910390f35b61027760048036038101906102729190611db1565b610a06565b005b610293600480360381019061028e91906120ce565b610bdf565b005b61029d6110f6565b6040516102aa91906121de565b60405180910390f35b6102cd60048036038101906102c89190611c0b565b611130565b6040516102da9190611c51565b60405180910390f35b6102fd60048036038101906102f89190612200565b611179565b005b61031960048036038101906103149190611c0b565b61139c565b6040516103269190611d6a565b60405180910390f35b61034960048036038101906103449190611c0b565b611457565b6040516103569190611c51565b60405180910390f35b61037960048036038101906103749190611c0b565b611542565b6040516103869190611c51565b60405180910390f35b6103a960048036038101906103a49190611c0b565b611994565b6040516103b69190611c51565b60405180910390f35b6000600160008373ffffffffffffffffffffffffffffffffffffffff1673ffffffffffffffffffffffffffffffffffffffff168152602001908152602001600020549050919050565b600080600660009054906101000a900473ffffffffffffffffffffffffffffffffffffffff1673ffffffffffffffffffffffffffffffffffffffff1663d2493b6c846040518263ffffffff1660e01b81526004016104669190611d6a565b60606040518083038186803b15801561047e57600080fd5b505afa158015610492573d6000803e3d6000fd5b505050506040513d601f19601f820116820180604052508101906104b69190612268565b505090508073ffffffffffffffffffffffffffffffffffffffff166370a08231306040518263ffffffff1660e01b81526004016104f39190611d6a565b60206040518083038186803b15801561050b57600080fd5b505afa15801561051f573d6000803e3d6000fd5b505050506040513d601f19601f8201168201806040525081019061054391906122d0565b915050919050565b60003073ffffffffffffffffffffffffffffffffffffffff16803b806020016040519081016040528181526000908060200190933c6040516020016105909190612339565b60405160208183030381529060405280519060200120905090565b6060600b80546105ba9061237f565b80601f01602080910402602001604051908101604052809291908181526020018280546105e69061237f565b80156106335780601f1061060857610100808354040283529160200191610633565b820191906000526020600020905b81548152906001019060200180831161061657829003601f168201915b5050505050905090565b6000600960009054906101000a900473ffffffffffffffffffffffffffffffffffffffff16905090565b338073ffffffffffffffffffffffffffffffffffffffff16600a60009054906101000a900473ffffffffffffffffffffffffffffffffffffffff1673ffffffffffffffffffffffffffffffffffffffff16146106f8576040517f08c379a00000000000000000000000000000000000000000000000000000000081526004016106ef906123fd565b60405180910390fd5b81600160008573ffffffffffffffffffffffffffffffffffffffff1673ffffffffffffffffffffffffffffffffffffffff1681526020019081526020016000206000828254610747919061244c565b92505081905550505050565b606060088054806020026020016040519081016040528092919081815260200182805480156107d757602002820191906000526020600020905b8160009054906101000a900473ffffffffffffffffffffffffffffffffffffffff1673ffffffffffffffffffffffffffffffffffffffff168152602001906001019080831161078d575b5050505050905090565b6060600c80546107f09061237f565b80601f016020809104026020016040519081016040528092919081815260200182805461081c9061237f565b80156108695780601f1061083e57610100808354040283529160200191610869565b820191906000526020600020905b81548152906001019060200180831161084c57829003601f168201915b5050505050905090565b600080600660009054906101000a900473ffffffffffffffffffffffffffffffffffffffff1673ffffffffffffffffffffffffffffffffffffffff1663d2493b6c846040518263ffffffff1660e01b81526004016108d19190611d6a565b60606040518083038186803b1580156108e957600080fd5b505afa1580156108fd573d6000803e3d6000fd5b505050506040513d601f19601f820116820180604052508101906109219190612268565b5050905060008173ffffffffffffffffffffffffffffffffffffffff166370a08231306040518263ffffffff1660e01b81526004016109609190611d6a565b60206040518083038186803b15801561097857600080fd5b505afa15801561098c573d6000803e3d6000fd5b505050506040513d601f19601f820116820180604052508101906109b091906122d0565b9050600160008573ffffffffffffffffffffffffffffffffffffffff1673ffffffffffffffffffffffffffffffffffffffff16815260200190815260200160002054816109fd91906124a2565b92505050919050565b338073ffffffffffffffffffffffffffffffffffffffff16600a60009054906101000a900473ffffffffffffffffffffffffffffffffffffffff1673ffffffffffffffffffffffffffffffffffffffff1614610a97576040517f08c379a0000000000000000000000000000000000000000000000000000000008152600401610a8e906123fd565b60405180910390fd5b82600080600090505b6008805490508160ff161015610b415760088160ff1681548110610ac757610ac66124d6565b5b9060005260206000200160009054906101000a900473ffffffffffffffffffffffffffffffffffffffff1673ffffffffffffffffffffffffffffffffffffffff168373ffffffffffffffffffffffffffffffffffffffff161415610b2e5760019150610b41565b8080610b3990612512565b915050610aa0565b5080610b82576040517f08c379a0000000000000000000000000000000000000000000000000000000008152600401610b79906125ae565b60405180910390fd5b83600160008773ffffffffffffffffffffffffffffffffffffffff1673ffffffffffffffffffffffffffffffffffffffff1681526020019081526020016000206000828254610bd1919061244c565b925050819055505050505050565b82601e60008290508160ff16815110610c2d576040517f08c379a0000000000000000000000000000000000000000000000000000000008152600401610c249061261a565b60405180910390fd5b8460c860008290508160ff16815110610c7b576040517f08c379a0000000000000000000000000000000000000000000000000000000008152600401610c729061261a565b60405180910390fd5b600060019054906101000a900460ff16610ca35760008054906101000a900460ff1615610cac565b610cab611a48565b5b610ceb576040517f08c379a0000000000000000000000000000000000000000000000000000000008152600401610ce2906126ac565b60405180910390fd5b60008060019054906101000a900460ff161590508015610d3b576001600060016101000a81548160ff02191690831515021790555060016000806101000a81548160ff0219169083151502179055505b60001515600460009054906101000a900460ff16151514610d91576040517f08c379a0000000000000000000000000000000000000000000000000000000008152600401610d8890612718565b60405180910390fd5b600073ffffffffffffffffffffffffffffffffffffffff16600960009054906101000a900473ffffffffffffffffffffffffffffffffffffffff1673ffffffffffffffffffffffffffffffffffffffff1614610e22576040517f08c379a0000000000000000000000000000000000000000000000000000000008152600401610e1990612784565b60405180910390fd5b87600960006101000a81548173ffffffffffffffffffffffffffffffffffffffff021916908373ffffffffffffffffffffffffffffffffffffffff16021790555033600a60006101000a81548173ffffffffffffffffffffffffffffffffffffffff021916908373ffffffffffffffffffffffffffffffffffffffff16021790555089600b9080519060200190610eba929190611a6c565b5088600c9080519060200190610ed1929190611a6c565b507388757f2f99175387ab4c6a4b3067c77a695b0349600460016101000a81548173ffffffffffffffffffffffffffffffffffffffff021916908373ffffffffffffffffffffffffffffffffffffffff160217905550600460019054906101000a900473ffffffffffffffffffffffffffffffffffffffff1673ffffffffffffffffffffffffffffffffffffffff16630261bf8b6040518163ffffffff1660e01b815260040160206040518083038186803b158015610f8f57600080fd5b505afa158015610fa3573d6000803e3d6000fd5b505050506040513d601f19601f82011682018060405250810190610fc791906127a4565b600560006101000a81548173ffffffffffffffffffffffffffffffffffffffff021916908373ffffffffffffffffffffffffffffffffffffffff160217905550733c73a5e5785cac854d468f727c606c07488a29d6600660006101000a81548173ffffffffffffffffffffffffffffffffffffffff021916908373ffffffffffffffffffffffffffffffffffffffff16021790555073a61ca04df33b72b235a8a28cfb535bb7a5271b70600760006101000a81548173ffffffffffffffffffffffffffffffffffffffff021916908373ffffffffffffffffffffffffffffffffffffffff1602179055508a600890805190602001906110c7929190611af2565b5080156110e95760008060016101000a81548160ff0219169083151502179055505b5050505050505050505050565b60603073ffffffffffffffffffffffffffffffffffffffff16803b806020016040519081016040528181526000908060200190933c905090565b6000600260008373ffffffffffffffffffffffffffffffffffffffff1673ffffffffffffffffffffffffffffffffffffffff168152602001908152602001600020549050919050565b338073ffffffffffffffffffffffffffffffffffffffff16600a60009054906101000a900473ffffffffffffffffffffffffffffffffffffffff1673ffffffffffffffffffffffffffffffffffffffff161461120a576040517f08c379a0000000000000000000000000000000000000000000000000000000008152600401611201906123fd565b60405180910390fd5b81848460008111611250576040517f08c379a00000000000000000000000000000000000000000000000000000000081526004016112479061281d565b60405180910390fd5b600560009054906101000a900473ffffffffffffffffffffffffffffffffffffffff1673ffffffffffffffffffffffffffffffffffffffff166369328dec8888886040518463ffffffff1660e01b81526004016112af9392919061283d565b602060405180830381600087803b1580156112c957600080fd5b505af11580156112dd573d6000803e3d6000fd5b505050506040513d601f19601f8201168201806040525081019061130191906122d0565b5085600160008973ffffffffffffffffffffffffffffffffffffffff1673ffffffffffffffffffffffffffffffffffffffff168152602001908152602001600020600082825461135191906124a2565b925050819055507f9b1bfa7fa9ee420a16e124f794c35ac9f90472acc99140eb2f6447c714cad8eb87868860405161138b93929190612874565b60405180910390a150505050505050565b600080600660009054906101000a900473ffffffffffffffffffffffffffffffffffffffff1673ffffffffffffffffffffffffffffffffffffffff1663d2493b6c846040518263ffffffff1660e01b81526004016113fa9190611d6a565b60606040518083038186803b15801561141257600080fd5b505afa158015611426573d6000803e3d6000fd5b505050506040513d601f19601f8201168201806040525081019061144a9190612268565b5050905080915050919050565b6000600660009054906101000a900473ffffffffffffffffffffffffffffffffffffffff1673ffffffffffffffffffffffffffffffffffffffff166335ea6a75836040518263ffffffff1660e01b81526004016114b49190611d6a565b6101406040518083038186803b1580156114cd57600080fd5b505afa1580156114e1573d6000803e3d6000fd5b505050506040513d601f19601f8201168201806040525081019061150591906128e8565b9091929394959697985090919293949596975090919293949596509091929394955090919293945090919293509091925090505080915050919050565b6000338073ffffffffffffffffffffffffffffffffffffffff16600a60009054906101000a900473ffffffffffffffffffffffffffffffffffffffff1673ffffffffffffffffffffffffffffffffffffffff16146115d5576040517f08c379a00000000000000000000000000000000000000000000000000000000081526004016115cc906123fd565b60405180910390fd5b82600080600090505b6008805490508160ff16101561167f5760088160ff1681548110611605576116046124d6565b5b9060005260206000200160009054906101000a900473ffffffffffffffffffffffffffffffffffffffff1673ffffffffffffffffffffffffffffffffffffffff168373ffffffffffffffffffffffffffffffffffffffff16141561166c576001915061167f565b808061167790612512565b9150506115de565b50806116c0576040517f08c379a00000000000000000000000000000000000000000000000000000000081526004016116b7906125ae565b60405180910390fd5b6000600660009054906101000a900473ffffffffffffffffffffffffffffffffffffffff1673ffffffffffffffffffffffffffffffffffffffff1663d2493b6c876040518263ffffffff1660e01b815260040161171d9190611d6a565b60606040518083038186803b15801561173557600080fd5b505afa158015611749573d6000803e3d6000fd5b505050506040513d601f19601f8201168201806040525081019061176d9190612268565b5050905060008173ffffffffffffffffffffffffffffffffffffffff166370a08231306040518263ffffffff1660e01b81526004016117ac9190611d6a565b60206040518083038186803b1580156117c457600080fd5b505afa1580156117d8573d6000803e3d6000fd5b505050506040513d601f19601f820116820180604052508101906117fc91906122d0565b90506000600160008973ffffffffffffffffffffffffffffffffffffffff1673ffffffffffffffffffffffffffffffffffffffff168152602001908152602001600020548261184b91906124a2565b9050600560009054906101000a900473ffffffffffffffffffffffffffffffffffffffff1673ffffffffffffffffffffffffffffffffffffffff166369328dec8983600960009054906101000a900473ffffffffffffffffffffffffffffffffffffffff166040518463ffffffff1660e01b81526004016118ce9392919061283d565b602060405180830381600087803b1580156118e857600080fd5b505af11580156118fc573d6000803e3d6000fd5b505050506040513d601f19601f8201168201806040525081019061192091906122d0565b5061192a88611457565b60038190555080600260008a73ffffffffffffffffffffffffffffffffffffffff1673ffffffffffffffffffffffffffffffffffffffff168152602001908152602001600020600082825461197f919061244c565b92505081905550809650505050505050919050565b6000600560009054906101000a900473ffffffffffffffffffffffffffffffffffffffff1673ffffffffffffffffffffffffffffffffffffffff1663d15e0053836040518263ffffffff1660e01b81526004016119f19190611d6a565b60206040518083038186803b158015611a0957600080fd5b505afa158015611a1d573d6000803e3d6000fd5b505050506040513d601f19601f82011682018060405250810190611a4191906122d0565b9050919050565b6000611a5330611a59565b15905090565b600080823b905060008111915050919050565b828054611a789061237f565b90600052602060002090601f016020900481019282611a9a5760008555611ae1565b82601f10611ab357805160ff1916838001178555611ae1565b82800160010185558215611ae1579182015b82811115611ae0578251825591602001919060010190611ac5565b5b509050611aee9190611b7c565b5090565b828054828255906000526020600020908101928215611b6b579160200282015b82811115611b6a5782518260006101000a81548173ffffffffffffffffffffffffffffffffffffffff021916908373ffffffffffffffffffffffffffffffffffffffff16021790555091602001919060010190611b12565b5b509050611b789190611b7c565b5090565b5b80821115611b95576000816000905550600101611b7d565b5090565b6000604051905090565b600080fd5b600080fd5b600073ffffffffffffffffffffffffffffffffffffffff82169050919050565b6000611bd882611bad565b9050919050565b611be881611bcd565b8114611bf357600080fd5b50565b600081359050611c0581611bdf565b92915050565b600060208284031215611c2157611c20611ba3565b5b6000611c2f84828501611bf6565b91505092915050565b6000819050919050565b611c4b81611c38565b82525050565b6000602082019050611c666000830184611c42565b92915050565b6000819050919050565b611c7f81611c6c565b82525050565b6000602082019050611c9a6000830184611c76565b92915050565b600081519050919050565b600082825260208201905092915050565b60005b83811015611cda578082015181840152602081019050611cbf565b83811115611ce9576000848401525b50505050565b6000601f19601f8301169050919050565b6000611d0b82611ca0565b611d158185611cab565b9350611d25818560208601611cbc565b611d2e81611cef565b840191505092915050565b60006020820190508181036000830152611d538184611d00565b905092915050565b611d6481611bcd565b82525050565b6000602082019050611d7f6000830184611d5b565b92915050565b611d8e81611c38565b8114611d9957600080fd5b50565b600081359050611dab81611d85565b92915050565b60008060408385031215611dc857611dc7611ba3565b5b6000611dd685828601611bf6565b9250506020611de785828601611d9c565b9150509250929050565b600081519050919050565b600082825260208201905092915050565b6000819050602082019050919050565b611e2681611bcd565b82525050565b6000611e388383611e1d565b60208301905092915050565b6000602082019050919050565b6000611e5c82611df1565b611e668185611dfc565b9350611e7183611e0d565b8060005b83811015611ea2578151611e898882611e2c565b9750611e9483611e44565b925050600181019050611e75565b5085935050505092915050565b60006020820190508181036000830152611ec98184611e51565b905092915050565b600080fd5b7f4e487b7100000000000000000000000000000000000000000000000000000000600052604160045260246000fd5b611f0e82611cef565b810181811067ffffffffffffffff82111715611f2d57611f2c611ed6565b5b80604052505050565b6000611f40611b99565b9050611f4c8282611f05565b919050565b600067ffffffffffffffff821115611f6c57611f6b611ed6565b5b602082029050602081019050919050565b600080fd5b6000611f95611f9084611f51565b611f36565b90508083825260208201905060208402830185811115611fb857611fb7611f7d565b5b835b81811015611fe15780611fcd8882611bf6565b845260208401935050602081019050611fba565b5050509392505050565b600082601f83011261200057611fff611ed1565b5b8135612010848260208601611f82565b91505092915050565b600080fd5b600067ffffffffffffffff82111561203957612038611ed6565b5b61204282611cef565b9050602081019050919050565b82818337600083830152505050565b600061207161206c8461201e565b611f36565b90508281526020810184848401111561208d5761208c612019565b5b61209884828561204f565b509392505050565b600082601f8301126120b5576120b4611ed1565b5b81356120c584826020860161205e565b91505092915050565b600080600080608085870312156120e8576120e7611ba3565b5b600085013567ffffffffffffffff81111561210657612105611ba8565b5b61211287828801611feb565b945050602085013567ffffffffffffffff81111561213357612132611ba8565b5b61213f878288016120a0565b935050604085013567ffffffffffffffff8111156121605761215f611ba8565b5b61216c878288016120a0565b925050606061217d87828801611bf6565b91505092959194509250565b600081519050919050565b600082825260208201905092915050565b60006121b082612189565b6121ba8185612194565b93506121ca818560208601611cbc565b6121d381611cef565b840191505092915050565b600060208201905081810360008301526121f881846121a5565b905092915050565b60008060006060848603121561221957612218611ba3565b5b600061222786828701611bf6565b935050602061223886828701611d9c565b925050604061224986828701611bf6565b9150509250925092565b60008151905061226281611bdf565b92915050565b60008060006060848603121561228157612280611ba3565b5b600061228f86828701612253565b93505060206122a086828701612253565b92505060406122b186828701612253565b9150509250925092565b6000815190506122ca81611d85565b92915050565b6000602082840312156122e6576122e5611ba3565b5b60006122f4848285016122bb565b91505092915050565b600081905092915050565b600061231382612189565b61231d81856122fd565b935061232d818560208601611cbc565b80840191505092915050565b60006123458284612308565b915081905092915050565b7f4e487b7100000000000000000000000000000000000000000000000000000000600052602260045260246000fd5b6000600282049050600182168061239757607f821691505b602082108114156123ab576123aa612350565b5b50919050565b7f796f7520617265206e6f7420746865206f776e65720000000000000000000000600082015250565b60006123e7601583611cab565b91506123f2826123b1565b602082019050919050565b60006020820190508181036000830152612416816123da565b9050919050565b7f4e487b7100000000000000000000000000000000000000000000000000000000600052601160045260246000fd5b600061245782611c38565b915061246283611c38565b9250827fffffffffffffffffffffffffffffffffffffffffffffffffffffffffffffffff038211156124975761249661241d565b5b828201905092915050565b60006124ad82611c38565b91506124b883611c38565b9250828210156124cb576124ca61241d565b5b828203905092915050565b7f4e487b7100000000000000000000000000000000000000000000000000000000600052603260045260246000fd5b600060ff82169050919050565b600061251d82612505565b915060ff8214156125315761253061241d565b5b600182019050919050565b7f7375626d697474656420746f6b656e2061646472657373206973206e6f74206160008201527f6363657074656420627920706f6f6c0000000000000000000000000000000000602082015250565b6000612598602f83611cab565b91506125a38261253c565b604082019050919050565b600060208201905081810360008301526125c78161258b565b9050919050565b7f737472696e67206f76657220636861726163746572206c696d69740000000000600082015250565b6000612604601b83611cab565b915061260f826125ce565b602082019050919050565b60006020820190508181036000830152612633816125f7565b9050919050565b7f496e697469616c697a61626c653a20636f6e747261637420697320616c72656160008201527f647920696e697469616c697a6564000000000000000000000000000000000000602082015250565b6000612696602e83611cab565b91506126a18261263a565b604082019050919050565b600060208201905081810360008301526126c581612689565b9050919050565b7f43616e6e6f7420696e697469616c697a65206261736500000000000000000000600082015250565b6000612702601683611cab565b915061270d826126cc565b602082019050919050565b60006020820190508181036000830152612731816126f5565b9050919050565b7f496e697469616c697a6520616c72656164792063616c6c656400000000000000600082015250565b600061276e601983611cab565b915061277982612738565b602082019050919050565b6000602082019050818103600083015261279d81612761565b9050919050565b6000602082840312156127ba576127b9611ba3565b5b60006127c884828501612253565b91505092915050565b7f616d6f756e74206d757374206578636565642030000000000000000000000000600082015250565b6000612807601483611cab565b9150612812826127d1565b602082019050919050565b60006020820190508181036000830152612836816127fa565b9050919050565b60006060820190506128526000830186611d5b565b61285f6020830185611c42565b61286c6040830184611d5b565b949350505050565b60006060820190506128896000830186611d5b565b6128966020830185611d5b565b6128a36040830184611c42565b949350505050565b600064ffffffffff82169050919050565b6128c5816128ab565b81146128d057600080fd5b50565b6000815190506128e2816128bc565b92915050565b6000806000806000806000806000806101408b8d03121561290c5761290b611ba3565b5b600061291a8d828e016122bb565b9a5050602061292b8d828e016122bb565b995050604061293c8d828e016122bb565b985050606061294d8d828e016122bb565b975050608061295e8d828e016122bb565b96505060a061296f8d828e016122bb565b95505060c06129808d828e016122bb565b94505060e06129918d828e016122bb565b9350506101006129a38d828e016122bb565b9250506101206129b58d828e016128d3565b9150509295989b9194979a509295985056fea2646970667358221220110b415122f780567a653135d8ee49f532b8d10f6ba07b9a27235b0fc1a18c1164736f6c63430008090033",
  "immutableReferences": {},
  "source": "// SPDX-License-Identifier: agpl-3.0\npragma solidity 0.8.9;\n\nimport { IJustCausePool, IERC20, ILendingPool, ILendingPoolAddressesProvider, IProtocolDataProvider, IWETHGateway } from './Interfaces.sol';\nimport { JCDepositorERC721 } from './JCDepositorERC721.sol';\nimport { JCOwnerERC721 } from './JCOwnerERC721.sol';\nimport { JustCausePool } from './JustCausePool.sol';\n\ncontract PoolTracker {\n\n    address baseJCPoolAddr;\n    JustCausePool baseJCPool;\n    JCDepositorERC721 jCDepositorERC721;\n    JCOwnerERC721 jCOwnerERC721;\n\n    //contract addresses will point to bool if they exist\n    mapping(address => bool) private isPool;\n    //mapping(address => address[]) private depositors;\n    //mapping(address => address[]) private owners;\n    mapping(string => address) private names;\n    address[] private verifiedPools;\n    bytes32[] validByteCodeHashes;\n\n    ILendingPoolAddressesProvider provider;\n    address lendingPoolAddr;\n    address dataProviderAddr;\n    address wethGatewayAddr;\n\n    event AddPool(address pool, string name, address receiver);\n    event AddDeposit(address userAddr, address pool, address asset, uint256 amount);\n    event WithdrawDeposit(address userAddr, address pool, address asset, uint256 amount);\n    event Claim(address userAddr, address receiver, address pool, address asset, uint256 amount);\n\n    modifier onlyVerifiedByteCode(address pool) {\n        bytes32 v1ByteCodeHash = 0x69e8ff0e7c2b29468c452ea99c81161f9d6137447623140dc2714549e6014d96;\n        require(keccak256(abi.encodePacked(pool.code)) == v1ByteCodeHash, \"byteCode not recognized\");\n        _;\n    }\n\n    modifier onlyPools(address _pool){\n        require(isPool[_pool], \"not called from a pool\");\n        _;\n    }\n\n    constructor () {\n        jCDepositorERC721 = new JCDepositorERC721();\n        jCOwnerERC721 = new JCOwnerERC721();\n        baseJCPool = new JustCausePool();\n\n        provider = ILendingPoolAddressesProvider(address(0x88757f2f99175387aB4C6a4b3067c77A695b0349));\n        lendingPoolAddr = provider.getLendingPool();\n        dataProviderAddr = address(0x3c73A5E5785cAC854D468F727c606C07488a29D6);//Kovan\n        wethGatewayAddr = address(0xA61ca04DF33B72b235a8A28CfB535bb7A5271B70);//Kovan\n    }\n\n    function addValidByteCodeHash(bytes32 _hash) public {\n        validByteCodeHashes.push(_hash);\n    }\n\n    function addDeposit(uint256 _amount, address _asset, address _pool, bool isETH) onlyPools(_pool) external payable {\n        if(isETH){\n            IWETHGateway(wethGatewayAddr).depositETH{value: msg.value}(lendingPoolAddr, _pool, 0);\n            IJustCausePool(_pool).depositETH/*{value: msg.value}*/(_asset, /*msg.sender,*/ msg.value);\n        }\n        else {\n            IERC20 token = IERC20(_asset);\n            require(token.allowance(msg.sender, address(this)) >= _amount, \"sender not approved\");\n            token.transferFrom(msg.sender, address(this), _amount);\n            token.approve(lendingPoolAddr, _amount);\n            ILendingPool(lendingPoolAddr).deposit(address(token), _amount, _pool, 0);\n            IJustCausePool(_pool).deposit(_asset, _amount /*, msg.sender*/);\n        }\n        jCDepositorERC721.addFunds(msg.sender, _amount, block.timestamp,  _pool, _asset);\n        emit AddDeposit(msg.sender, _pool, _asset, _amount);\n    }\n\n    function withdrawDeposit(uint256 _amount, address _asset, address _pool) onlyPools(_pool) external {\n        //ILendingPool(lendingPoolAddr).withdraw(_asset, _amount, msg.sender);\n        IJustCausePool(_pool).withdraw(_asset, _amount, msg.sender);\n        jCDepositorERC721.withdrawFunds(msg.sender, _amount, _pool, _asset);\n        emit WithdrawDeposit(msg.sender, _pool, _asset, _amount);\n    }\n\n    function claimInterest(address _asset, address _pool) onlyPools(_pool) external {\n        uint256 amount = IJustCausePool(_pool).withdrawDonations(_asset);\n        emit Claim(msg.sender, IJustCausePool(_pool).getRecipient(), _pool, _asset, amount);\n    }\n\n    /**\n     * @dev Deploys and returns the address of a clone that mimics the behaviour of `implementation`.\n     *\n     * This function uses the create opcode, which should never revert.\n     */\n    function clone(address basePool) internal returns (address instance) {\n        assembly {\n            let ptr := mload(0x40)\n            mstore(ptr, 0x3d602d80600a3d3981f3363d3d373d3d3d363d73000000000000000000000000)\n            mstore(add(ptr, 0x14), shl(0x60, basePool))\n            mstore(add(ptr, 0x28), 0x5af43d82803e903d91602b57fd5bf30000000000000000000000000000000000)\n            instance := create(0, ptr, 0x37)\n        }\n        require(instance != address(0), \"ERC1167: create failed\");\n    }\n\n    function createJCPoolClone(address[] memory _acceptedTokens, string memory _name, string memory _about, address _receiver) external {\n        require(names[_name] == address(0), \"pool with name already exists\");\n        address child = clone(address(baseJCPool));\n        IJustCausePool(child).initialize(_acceptedTokens, _name, _about, _receiver);\n        jCOwnerERC721.createReceiverToken(_receiver, block.timestamp, child);\n        names[_name] =  child;\n        verifiedPools.push(child);\n        isPool[child] = true;\n        emit AddPool(child, _name, _receiver);\n    }\n\n    function getDepositorERC721Address() public view returns(address){\n        return address(jCDepositorERC721);\n    }\n\n    function getOwnerERC721Address() public view returns(address){\n        return address(jCOwnerERC721);\n    }\n\n    function getBaseJCPoolAddress() public view returns(address){\n        return address(baseJCPool);\n    }\n\n    function getVerifiedPools() public view returns(address [] memory){\n        return verifiedPools;\n    }\n\n    function checkPool(address _pool) public view returns(bool){\n        return isPool[_pool];\n    }\n\n    /*function getUserDeposits(address _userAddr) external view returns(address[] memory){\n        return depositors[_userAddr];\n    }*/\n\n    /*function getUserDeposits(address _userAddr) external view returns(address[] memory){\n        uint256 numDeposits = jCDepositorERC721.balanceOf(_userAddr);\n        address[] memory poolList;\n        for(uint8 i = 0; i < numDeposits; i++){\n            uint256 tokenId = jCDepositorERC721.tokenOfOwnerByIndex(_userAddr, i);\n            (,,,, address pool,) = jCDepositorERC721.getDeposit(tokenId);\n            poolList[i] = pool;\n        }\n        return poolList;\n    }*/\n\n    /*function getUserOwned(address _userAddr) external view returns(address[] memory){\n        return owners[_userAddr];\n    }*/\n\n    function getAddressFromName(string memory _name) external view returns(address){\n        return names[_name];\n    }\n\n    function checkByteCode(address _pool) external view returns(bool) {\n        bool hashMatch = false;\n        bytes32 hashOfPoolCode = keccak256(abi.encodePacked(_pool.code));\n        bytes32[] memory validHashes = validByteCodeHashes;\n\n        for(uint8 i = 0; i < validHashes.length; i++){\n            if(hashOfPoolCode == validHashes[i]){\n                hashMatch = true;\n                break;\n            }\n        }\n        return hashMatch;\n    }\n}",
  "sourcePath": "/home/smeee/just_cause/contracts/PoolTracker.sol",
  "compiler": {
    "name": "solc",
    "version": "0.8.9+commit.e5eed63a.Emscripten.clang"
  },
  "schemaVersion": "3.4.3",
  "updatedAt": "2022-02-24T03:25:08.666Z",
  "networkType": "ethereum",
  "devdoc": {
    "kind": "dev",
    "methods": {},
    "version": 1
  },
  "userdoc": {
    "kind": "user",
    "methods": {},
    "version": 1
  }
}