{
  "contractName": "PoolTracker",
  "abi": [
    {
      "inputs": [
        {
          "internalType": "address",
          "name": "_poolAddressesProviderAddr",
          "type": "address"
        },
        {
          "internalType": "address",
          "name": "_wethGatewayAddr",
          "type": "address"
        }
      ],
      "stateMutability": "nonpayable",
      "type": "constructor"
    },
    {
      "anonymous": false,
      "inputs": [
        {
          "indexed": false,
          "internalType": "address",
          "name": "userAddr",
          "type": "address"
        },
        {
          "indexed": false,
          "internalType": "address",
          "name": "pool",
          "type": "address"
        },
        {
          "indexed": false,
          "internalType": "address",
          "name": "asset",
          "type": "address"
        },
        {
          "indexed": false,
          "internalType": "uint256",
          "name": "amount",
          "type": "uint256"
        }
      ],
      "name": "AddDeposit",
      "type": "event"
    },
    {
      "anonymous": false,
      "inputs": [
        {
          "indexed": false,
          "internalType": "address",
          "name": "pool",
          "type": "address"
        },
        {
          "indexed": false,
          "internalType": "string",
          "name": "name",
          "type": "string"
        },
        {
          "indexed": false,
          "internalType": "address",
          "name": "receiver",
          "type": "address"
        }
      ],
      "name": "AddPool",
      "type": "event"
    },
    {
      "anonymous": false,
      "inputs": [
        {
          "indexed": false,
          "internalType": "address",
          "name": "userAddr",
          "type": "address"
        },
        {
          "indexed": false,
          "internalType": "address",
          "name": "receiver",
          "type": "address"
        },
        {
          "indexed": false,
          "internalType": "address",
          "name": "pool",
          "type": "address"
        },
        {
          "indexed": false,
          "internalType": "address",
          "name": "asset",
          "type": "address"
        },
        {
          "indexed": false,
          "internalType": "uint256",
          "name": "amount",
          "type": "uint256"
        }
      ],
      "name": "Claim",
      "type": "event"
    },
    {
      "anonymous": false,
      "inputs": [
        {
          "indexed": false,
          "internalType": "address[]",
          "name": "aaveAccepted",
          "type": "address[]"
        },
        {
          "indexed": false,
          "internalType": "address[]",
          "name": "causeAccepted",
          "type": "address[]"
        }
      ],
      "name": "Test",
      "type": "event"
    },
    {
      "anonymous": false,
      "inputs": [
        {
          "indexed": false,
          "internalType": "address",
          "name": "userAddr",
          "type": "address"
        },
        {
          "indexed": false,
          "internalType": "address",
          "name": "pool",
          "type": "address"
        },
        {
          "indexed": false,
          "internalType": "address",
          "name": "asset",
          "type": "address"
        },
        {
          "indexed": false,
          "internalType": "uint256",
          "name": "amount",
          "type": "uint256"
        }
      ],
      "name": "WithdrawDeposit",
      "type": "event"
    },
    {
      "inputs": [
        {
          "internalType": "uint256",
          "name": "_amount",
          "type": "uint256"
        },
        {
          "internalType": "address",
          "name": "_asset",
          "type": "address"
        },
        {
          "internalType": "address",
          "name": "_pool",
          "type": "address"
        },
        {
          "internalType": "bool",
          "name": "_isETH",
          "type": "bool"
        }
      ],
      "name": "addDeposit",
      "outputs": [],
      "stateMutability": "payable",
      "type": "function"
    },
    {
      "inputs": [
        {
          "internalType": "uint256",
          "name": "_amount",
          "type": "uint256"
        },
        {
          "internalType": "address",
          "name": "_asset",
          "type": "address"
        },
        {
          "internalType": "address",
          "name": "_pool",
          "type": "address"
        },
        {
          "internalType": "bool",
          "name": "_isETH",
          "type": "bool"
        }
      ],
      "name": "withdrawDeposit",
      "outputs": [],
      "stateMutability": "nonpayable",
      "type": "function"
    },
    {
      "inputs": [
        {
          "internalType": "address",
          "name": "_asset",
          "type": "address"
        },
        {
          "internalType": "address",
          "name": "_pool",
          "type": "address"
        },
        {
          "internalType": "bool",
          "name": "_isETH",
          "type": "bool"
        }
      ],
      "name": "claimInterest",
      "outputs": [],
      "stateMutability": "nonpayable",
      "type": "function"
    },
    {
      "inputs": [
        {
          "internalType": "address[]",
          "name": "_acceptedTokens",
          "type": "address[]"
        },
        {
          "internalType": "string",
          "name": "_name",
          "type": "string"
        },
        {
          "internalType": "string",
          "name": "_about",
          "type": "string"
        },
        {
          "internalType": "string",
          "name": "_picHash",
          "type": "string"
        },
        {
          "internalType": "string",
          "name": "_metaUri",
          "type": "string"
        },
        {
          "internalType": "address",
          "name": "_receiver",
          "type": "address"
        }
      ],
      "name": "createJCPoolClone",
      "outputs": [],
      "stateMutability": "nonpayable",
      "type": "function"
    },
    {
      "inputs": [
        {
          "internalType": "uint256",
          "name": "feeKey",
          "type": "uint256"
        }
      ],
      "name": "setBasePointFee",
      "outputs": [],
      "stateMutability": "nonpayable",
      "type": "function"
    },
    {
      "inputs": [],
      "name": "getBpFee",
      "outputs": [
        {
          "internalType": "uint256",
          "name": "",
          "type": "uint256"
        }
      ],
      "stateMutability": "view",
      "type": "function"
    },
    {
      "inputs": [
        {
          "internalType": "address",
          "name": "_asset",
          "type": "address"
        }
      ],
      "name": "getTVL",
      "outputs": [
        {
          "internalType": "uint256",
          "name": "",
          "type": "uint256"
        }
      ],
      "stateMutability": "view",
      "type": "function"
    },
    {
      "inputs": [
        {
          "internalType": "address",
          "name": "_asset",
          "type": "address"
        }
      ],
      "name": "getTotalDonated",
      "outputs": [
        {
          "internalType": "uint256",
          "name": "",
          "type": "uint256"
        }
      ],
      "stateMutability": "view",
      "type": "function"
    },
    {
      "inputs": [],
      "name": "getDepositorERC721Address",
      "outputs": [
        {
          "internalType": "address",
          "name": "",
          "type": "address"
        }
      ],
      "stateMutability": "view",
      "type": "function"
    },
    {
      "inputs": [
        {
          "internalType": "address",
          "name": "_user",
          "type": "address"
        }
      ],
      "name": "getReceiverPools",
      "outputs": [
        {
          "internalType": "address[]",
          "name": "",
          "type": "address[]"
        }
      ],
      "stateMutability": "view",
      "type": "function"
    },
    {
      "inputs": [],
      "name": "getMultiSig",
      "outputs": [
        {
          "internalType": "address",
          "name": "",
          "type": "address"
        }
      ],
      "stateMutability": "pure",
      "type": "function"
    },
    {
      "inputs": [
        {
          "internalType": "address",
          "name": "_user",
          "type": "address"
        }
      ],
      "name": "getContributions",
      "outputs": [
        {
          "internalType": "address[]",
          "name": "",
          "type": "address[]"
        }
      ],
      "stateMutability": "view",
      "type": "function"
    },
    {
      "inputs": [],
      "name": "getPoolAddr",
      "outputs": [
        {
          "internalType": "address",
          "name": "",
          "type": "address"
        }
      ],
      "stateMutability": "view",
      "type": "function"
    },
    {
      "inputs": [],
      "name": "getReservesList",
      "outputs": [
        {
          "internalType": "address[]",
          "name": "",
          "type": "address[]"
        }
      ],
      "stateMutability": "view",
      "type": "function"
    },
    {
      "inputs": [],
      "name": "getBaseJCPoolAddress",
      "outputs": [
        {
          "internalType": "address",
          "name": "",
          "type": "address"
        }
      ],
      "stateMutability": "view",
      "type": "function"
    },
    {
      "inputs": [],
      "name": "getVerifiedPools",
      "outputs": [
        {
          "internalType": "address[]",
          "name": "",
          "type": "address[]"
        }
      ],
      "stateMutability": "view",
      "type": "function"
    },
    {
      "inputs": [
        {
          "internalType": "address",
          "name": "_pool",
          "type": "address"
        }
      ],
      "name": "checkPool",
      "outputs": [
        {
          "internalType": "bool",
          "name": "",
          "type": "bool"
        }
      ],
      "stateMutability": "view",
      "type": "function"
    },
    {
      "inputs": [
        {
          "internalType": "string",
          "name": "_name",
          "type": "string"
        }
      ],
      "name": "getAddressFromName",
      "outputs": [
        {
          "internalType": "address",
          "name": "",
          "type": "address"
        }
      ],
      "stateMutability": "view",
      "type": "function"
    }
  ],
  "bytecode": "0x60806040523480156200001157600080fd5b506040516200ad303803806200ad3083398181016040528101906200003791906200037f565b60016000819055506040516200004d9062000290565b604051809103906000f0801580156200006a573d6000803e3d6000fd5b50600160006101000a81548173ffffffffffffffffffffffffffffffffffffffff021916908373ffffffffffffffffffffffffffffffffffffffff160217905550604051620000b9906200029e565b604051809103906000f080158015620000d6573d6000803e3d6000fd5b50600260006101000a81548173ffffffffffffffffffffffffffffffffffffffff021916908373ffffffffffffffffffffffffffffffffffffffff1602179055508173ffffffffffffffffffffffffffffffffffffffff1663026b1d5f6040518163ffffffff1660e01b815260040160206040518083038186803b1580156200015e57600080fd5b505afa15801562000173573d6000803e3d6000fd5b505050506040513d601f19601f82011682018060405250810190620001999190620003c6565b601060006101000a81548173ffffffffffffffffffffffffffffffffffffffff021916908373ffffffffffffffffffffffffffffffffffffffff16021790555080601160006101000a81548173ffffffffffffffffffffffffffffffffffffffff021916908373ffffffffffffffffffffffffffffffffffffffff1602179055506040518060a00160405280600060ff168152602001600a60ff168152602001601460ff168152602001601e60ff168152602001602860ff16815250600a90600562000267929190620002ac565b50600a60026005811062000280576200027f620003f8565b5b0154600f81905550505062000427565b6135c0806200394183390190565b613e2f8062006f0183390190565b8260058101928215620002e3579160200282015b82811115620002e2578251829060ff16905591602001919060010190620002c0565b5b509050620002f29190620002f6565b5090565b5b8082111562000311576000816000905550600101620002f7565b5090565b600080fd5b600073ffffffffffffffffffffffffffffffffffffffff82169050919050565b600062000347826200031a565b9050919050565b62000359816200033a565b81146200036557600080fd5b50565b60008151905062000379816200034e565b92915050565b6000806040838503121562000399576200039862000315565b5b6000620003a98582860162000368565b9250506020620003bc8582860162000368565b9150509250929050565b600060208284031215620003df57620003de62000315565b5b6000620003ef8482850162000368565b91505092915050565b7f4e487b7100000000000000000000000000000000000000000000000000000000600052603260045260246000fd5b61350a80620004376000396000f3fe6080604052600436106101095760003560e01c806366e992e511610095578063b63ae6ee11610064578063b63ae6ee1461036e578063d1946dbc14610399578063d1df6d4d146103c4578063de25924214610401578063fa12793b1461042c57610109565b806366e992e5146102b45780638e61514e146102df57806390f2bb161461031c578063b47dcb661461034557610109565b806330b9d2a7116100dc57806330b9d2a7146101bb5780633989a671146101f85780633ac2c131146102235780633f19d0431461024c5780635aa388681461028957610109565b806301beb9801461010e57806308f52b3c146101395780630f40517a146101555780632f28012a14610192575b600080fd5b34801561011a57600080fd5b50610123610469565b6040516101309190612126565b60405180910390f35b610153600480360381019061014e9190612217565b6104f5565b005b34801561016157600080fd5b5061017c6004803603810190610177919061227e565b610ddf565b6040516101899190612126565b60405180910390f35b34801561019e57600080fd5b506101b960048036038101906101b49190612217565b610e28565b005b3480156101c757600080fd5b506101e260048036038101906101dd919061227e565b611101565b6040516101ef91906122ba565b60405180910390f35b34801561020457600080fd5b5061020d611157565b60405161021a91906122e4565b60405180910390f35b34801561022f57600080fd5b5061024a600480360381019061024591906122ff565b611181565b005b34801561025857600080fd5b50610273600480360381019061026e919061227e565b611222565b60405161028091906123ea565b60405180910390f35b34801561029557600080fd5b5061029e6112ef565b6040516102ab91906122e4565b60405180910390f35b3480156102c057600080fd5b506102c9611319565b6040516102d691906122e4565b60405180910390f35b3480156102eb57600080fd5b5061030660048036038101906103019190612552565b611335565b60405161031391906122e4565b60405180910390f35b34801561032857600080fd5b50610343600480360381019061033e919061259b565b61137d565b005b34801561035157600080fd5b5061036c600480360381019061036791906126b6565b61178f565b005b34801561037a57600080fd5b50610383611dbe565b60405161039091906123ea565b60405180910390f35b3480156103a557600080fd5b506103ae611e4c565b6040516103bb91906123ea565b60405180910390f35b3480156103d057600080fd5b506103eb60048036038101906103e6919061227e565b611ef8565b6040516103f89190612126565b60405180910390f35b34801561040d57600080fd5b50610416611f41565b60405161042391906122e4565b60405180910390f35b34801561043857600080fd5b50610453600480360381019061044e919061227e565b611f6b565b60405161046091906123ea565b60405180910390f35b60003373ffffffffffffffffffffffffffffffffffffffff167378726673245fdb56425c8bd782f6faa3e447625a73ffffffffffffffffffffffffffffffffffffffff16146104ed576040517f08c379a00000000000000000000000000000000000000000000000000000000081526004016104e49061282c565b60405180910390fd5b600f54905090565b81600360008273ffffffffffffffffffffffffffffffffffffffff1673ffffffffffffffffffffffffffffffffffffffff16815260200190815260200160002060009054906101000a900460ff16610582576040517f08c379a000000000000000000000000000000000000000000000000000000000815260040161057990612898565b60405180910390fd5b600260005414156105c8576040517f08c379a00000000000000000000000000000000000000000000000000000000081526004016105bf90612904565b60405180910390fd5b600260008190555084600560008673ffffffffffffffffffffffffffffffffffffffff1673ffffffffffffffffffffffffffffffffffffffff168152602001908152602001600020600082825461061f9190612953565b9250508190555060008373ffffffffffffffffffffffffffffffffffffffff1663373d7c3f6040518163ffffffff1660e01b815260040160006040518083038186803b15801561066e57600080fd5b505afa158015610682573d6000803e3d6000fd5b505050506040513d6000823e3d601f19601f820116820180604052508101906106ab9190612a4c565b90506000601060009054906101000a900473ffffffffffffffffffffffffffffffffffffffff16905083156108c2578573ffffffffffffffffffffffffffffffffffffffff16601160009054906101000a900473ffffffffffffffffffffffffffffffffffffffff1673ffffffffffffffffffffffffffffffffffffffff1663affa88176040518163ffffffff1660e01b815260040160206040518083038186803b15801561075957600080fd5b505afa15801561076d573d6000803e3d6000fd5b505050506040513d601f19601f820116820180604052508101906107919190612aaa565b73ffffffffffffffffffffffffffffffffffffffff16146107e7576040517f08c379a00000000000000000000000000000000000000000000000000000000081526004016107de90612b23565b60405180910390fd5b6000341161082a576040517f08c379a000000000000000000000000000000000000000000000000000000000815260040161082190612b8f565b60405180910390fd5b601160009054906101000a900473ffffffffffffffffffffffffffffffffffffffff1673ffffffffffffffffffffffffffffffffffffffff1663474cf53d34838860006040518563ffffffff1660e01b815260040161088b93929190612c02565b6000604051808303818588803b1580156108a457600080fd5b505af11580156108b8573d6000803e3d6000fd5b5050505050610b69565b60003414610905576040517f08c379a00000000000000000000000000000000000000000000000000000000081526004016108fc90612c85565b60405180910390fd5b6000869050878173ffffffffffffffffffffffffffffffffffffffff1663dd62ed3e33306040518363ffffffff1660e01b8152600401610946929190612ca5565b60206040518083038186803b15801561095e57600080fd5b505afa158015610972573d6000803e3d6000fd5b505050506040513d601f19601f820116820180604052508101906109969190612ce3565b10156109d7576040517f08c379a00000000000000000000000000000000000000000000000000000000081526004016109ce90612d5c565b60405180910390fd5b8073ffffffffffffffffffffffffffffffffffffffff166323b872dd33308b6040518463ffffffff1660e01b8152600401610a1493929190612d7c565b602060405180830381600087803b158015610a2e57600080fd5b505af1158015610a42573d6000803e3d6000fd5b505050506040513d601f19601f82011682018060405250810190610a669190612dc8565b508073ffffffffffffffffffffffffffffffffffffffff1663095ea7b3838a6040518363ffffffff1660e01b8152600401610aa2929190612df5565b602060405180830381600087803b158015610abc57600080fd5b505af1158015610ad0573d6000803e3d6000fd5b505050506040513d601f19601f82011682018060405250810190610af49190612dc8565b508173ffffffffffffffffffffffffffffffffffffffff1663e8eda9df828a8960006040518563ffffffff1660e01b8152600401610b359493929190612e1e565b600060405180830381600087803b158015610b4f57600080fd5b505af1158015610b63573d6000803e3d6000fd5b50505050505b8473ffffffffffffffffffffffffffffffffffffffff166347e7ef2487896040518363ffffffff1660e01b8152600401610ba4929190612df5565b600060405180830381600087803b158015610bbe57600080fd5b505af1158015610bd2573d6000803e3d6000fd5b5050505060008573ffffffffffffffffffffffffffffffffffffffff16627ffb786040518163ffffffff1660e01b815260040160206040518083038186803b158015610c1d57600080fd5b505afa158015610c31573d6000803e3d6000fd5b505050506040513d601f19601f82011682018060405250810190610c559190612aaa565b73ffffffffffffffffffffffffffffffffffffffff166326a45ffb338a428b886040518663ffffffff1660e01b8152600401610c95959493929190612ea7565b602060405180830381600087803b158015610caf57600080fd5b505af1158015610cc3573d6000803e3d6000fd5b505050506040513d601f19601f82011682018060405250810190610ce79190612dc8565b90508015610d9057600760003373ffffffffffffffffffffffffffffffffffffffff1673ffffffffffffffffffffffffffffffffffffffff168152602001908152602001600020869080600181540180825580915050600190039060005260206000200160009091909190916101000a81548173ffffffffffffffffffffffffffffffffffffffff021916908373ffffffffffffffffffffffffffffffffffffffff1602179055505b7f20ca885e6c573d69bc931b3787127868f5b90568509fb8d4ff6f7102b8d0cd253387898b604051610dc59493929190612f01565b60405180910390a150505060016000819055505050505050565b6000600560008373ffffffffffffffffffffffffffffffffffffffff1673ffffffffffffffffffffffffffffffffffffffff168152602001908152602001600020549050919050565b81600360008273ffffffffffffffffffffffffffffffffffffffff1673ffffffffffffffffffffffffffffffffffffffff16815260200190815260200160002060009054906101000a900460ff16610eb5576040517f08c379a0000000000000000000000000000000000000000000000000000000008152600401610eac90612898565b60405180910390fd5b60026000541415610efb576040517f08c379a0000000000000000000000000000000000000000000000000000000008152600401610ef290612904565b60405180910390fd5b600260008190555084600560008673ffffffffffffffffffffffffffffffffffffffff1673ffffffffffffffffffffffffffffffffffffffff1681526020019081526020016000206000828254610f529190612f46565b925050819055508273ffffffffffffffffffffffffffffffffffffffff16627ffb786040518163ffffffff1660e01b815260040160206040518083038186803b158015610f9e57600080fd5b505afa158015610fb2573d6000803e3d6000fd5b505050506040513d601f19601f82011682018060405250810190610fd69190612aaa565b73ffffffffffffffffffffffffffffffffffffffff166347c6b45e3387876040518463ffffffff1660e01b815260040161101293929190612f7a565b600060405180830381600087803b15801561102c57600080fd5b505af1158015611040573d6000803e3d6000fd5b505050508273ffffffffffffffffffffffffffffffffffffffff166312eeff7e858733866040518563ffffffff1660e01b81526004016110839493929190612fb1565b600060405180830381600087803b15801561109d57600080fd5b505af11580156110b1573d6000803e3d6000fd5b505050507fa657ed79c074c3489591adb7ba850f38c009bd846e47f2ffe3edc1d06f48a5a4338486886040516110ea9493929190612f01565b60405180910390a160016000819055505050505050565b6000600360008373ffffffffffffffffffffffffffffffffffffffff1673ffffffffffffffffffffffffffffffffffffffff16815260200190815260200160002060009054906101000a900460ff169050919050565b6000600260009054906101000a900473ffffffffffffffffffffffffffffffffffffffff16905090565b3373ffffffffffffffffffffffffffffffffffffffff167378726673245fdb56425c8bd782f6faa3e447625a73ffffffffffffffffffffffffffffffffffffffff1614611203576040517f08c379a00000000000000000000000000000000000000000000000000000000081526004016111fa9061282c565b60405180910390fd5b600a816005811061121757611216612ff6565b5b0154600f8190555050565b6060600760008373ffffffffffffffffffffffffffffffffffffffff1673ffffffffffffffffffffffffffffffffffffffff1681526020019081526020016000208054806020026020016040519081016040528092919081815260200182805480156112e357602002820191906000526020600020905b8160009054906101000a900473ffffffffffffffffffffffffffffffffffffffff1673ffffffffffffffffffffffffffffffffffffffff1681526020019060010190808311611299575b50505050509050919050565b6000600160009054906101000a900473ffffffffffffffffffffffffffffffffffffffff16905090565b60007378726673245fdb56425c8bd782f6faa3e447625a905090565b60006004826040516113479190613061565b908152602001604051809103902060009054906101000a900473ffffffffffffffffffffffffffffffffffffffff169050919050565b81600360008273ffffffffffffffffffffffffffffffffffffffff1673ffffffffffffffffffffffffffffffffffffffff16815260200190815260200160002060009054906101000a900460ff1661140a576040517f08c379a000000000000000000000000000000000000000000000000000000000815260040161140190612898565b60405180910390fd5b60026000541415611450576040517f08c379a000000000000000000000000000000000000000000000000000000000815260040161144790612904565b60405180910390fd5b6002600081905550836000601060009054906101000a900473ffffffffffffffffffffffffffffffffffffffff1673ffffffffffffffffffffffffffffffffffffffff1663d1946dbc6040518163ffffffff1660e01b815260040160006040518083038186803b1580156114c357600080fd5b505afa1580156114d7573d6000803e3d6000fd5b505050506040513d6000823e3d601f19601f82011682018060405250810190611500919061310f565b9050600080600090505b82518160ff16101561157f57828160ff168151811061152c5761152b612ff6565b5b602002602001015173ffffffffffffffffffffffffffffffffffffffff168473ffffffffffffffffffffffffffffffffffffffff16141561156c57600191505b808061157790613165565b91505061150a565b50806115c0576040517f08c379a00000000000000000000000000000000000000000000000000000000081526004016115b7906131db565b60405180910390fd5b60008673ffffffffffffffffffffffffffffffffffffffff1663eda9c2d2897378726673245fdb56425c8bd782f6faa3e447625a89600f546040518563ffffffff1660e01b815260040161161794939291906131fb565b602060405180830381600087803b15801561163157600080fd5b505af1158015611645573d6000803e3d6000fd5b505050506040513d601f19601f820116820180604052508101906116699190612ce3565b905080600660008a73ffffffffffffffffffffffffffffffffffffffff1673ffffffffffffffffffffffffffffffffffffffff16815260200190815260200160002060008282546116ba9190612953565b925050819055507f7276c0285f260d667df9ded71ca6a988145d36de1d14252710532b9de5f089fe338873ffffffffffffffffffffffffffffffffffffffff16631b88094d6040518163ffffffff1660e01b815260040160206040518083038186803b15801561172957600080fd5b505afa15801561173d573d6000803e3d6000fd5b505050506040513d601f19601f820116820180604052508101906117619190612aaa565b898b85604051611775959493929190613240565b60405180910390a150505050600160008190555050505050565b856000601060009054906101000a900473ffffffffffffffffffffffffffffffffffffffff1673ffffffffffffffffffffffffffffffffffffffff1663d1946dbc6040518163ffffffff1660e01b815260040160006040518083038186803b1580156117fa57600080fd5b505afa15801561180e573d6000803e3d6000fd5b505050506040513d6000823e3d601f19601f82011682018060405250810190611837919061310f565b905060005b82518160ff16101561193757600080600090505b83518160ff1610156118e257838160ff168151811061187257611871612ff6565b5b602002602001015173ffffffffffffffffffffffffffffffffffffffff16858460ff16815181106118a6576118a5612ff6565b5b602002602001015173ffffffffffffffffffffffffffffffffffffffff1614156118cf57600191505b80806118da90613165565b915050611850565b5080611923576040517f08c379a000000000000000000000000000000000000000000000000000000000815260040161191a906132df565b60405180910390fd5b50808061192f90613165565b91505061183c565b50600073ffffffffffffffffffffffffffffffffffffffff166004886040516119609190613061565b908152602001604051809103902060009054906101000a900473ffffffffffffffffffffffffffffffffffffffff1673ffffffffffffffffffffffffffffffffffffffff16146119e5576040517f08c379a00000000000000000000000000000000000000000000000000000000081526004016119dc9061334b565b60405180910390fd5b6000611a12600160009054906101000a900473ffffffffffffffffffffffffffffffffffffffff16612038565b90506000611a41600260009054906101000a900473ffffffffffffffffffffffffffffffffffffffff16612038565b905060007378726673245fdb56425c8bd782f6faa3e447625a73ffffffffffffffffffffffffffffffffffffffff163373ffffffffffffffffffffffffffffffffffffffff161415611af5576009839080600181540180825580915050600190039060005260206000200160009091909190916101000a81548173ffffffffffffffffffffffffffffffffffffffff021916908373ffffffffffffffffffffffffffffffffffffffff160217905550600190505b8273ffffffffffffffffffffffffffffffffffffffff1663bbc41f488c8c8c8c8c8c601060009054906101000a900473ffffffffffffffffffffffffffffffffffffffff16601160009054906101000a900473ffffffffffffffffffffffffffffffffffffffff168b8b6040518b63ffffffff1660e01b8152600401611b849a9998979695949392919061336b565b600060405180830381600087803b158015611b9e57600080fd5b505af1158015611bb2573d6000803e3d6000fd5b505050508173ffffffffffffffffffffffffffffffffffffffff1663c4d66de8846040518263ffffffff1660e01b8152600401611bef91906122e4565b600060405180830381600087803b158015611c0957600080fd5b505af1158015611c1d573d6000803e3d6000fd5b50505050600860008773ffffffffffffffffffffffffffffffffffffffff1673ffffffffffffffffffffffffffffffffffffffff168152602001908152602001600020839080600181540180825580915050600190039060005260206000200160009091909190916101000a81548173ffffffffffffffffffffffffffffffffffffffff021916908373ffffffffffffffffffffffffffffffffffffffff1602179055508260048b604051611cd29190613061565b908152602001604051809103902060006101000a81548173ffffffffffffffffffffffffffffffffffffffff021916908373ffffffffffffffffffffffffffffffffffffffff1602179055506001600360008573ffffffffffffffffffffffffffffffffffffffff1673ffffffffffffffffffffffffffffffffffffffff16815260200190815260200160002060006101000a81548160ff0219169083151502179055507f373adb264e07592e89e672b780912566106b06a5f7a7787e63a47ca627e915af838b88604051611da99392919061342a565b60405180910390a15050505050505050505050565b60606009805480602002602001604051908101604052809291908181526020018280548015611e4257602002820191906000526020600020905b8160009054906101000a900473ffffffffffffffffffffffffffffffffffffffff1673ffffffffffffffffffffffffffffffffffffffff1681526020019060010190808311611df8575b5050505050905090565b6060601060009054906101000a900473ffffffffffffffffffffffffffffffffffffffff1673ffffffffffffffffffffffffffffffffffffffff1663d1946dbc6040518163ffffffff1660e01b815260040160006040518083038186803b158015611eb657600080fd5b505afa158015611eca573d6000803e3d6000fd5b505050506040513d6000823e3d601f19601f82011682018060405250810190611ef3919061310f565b905090565b6000600660008373ffffffffffffffffffffffffffffffffffffffff1673ffffffffffffffffffffffffffffffffffffffff168152602001908152602001600020549050919050565b6000601060009054906101000a900473ffffffffffffffffffffffffffffffffffffffff16905090565b6060600860008373ffffffffffffffffffffffffffffffffffffffff1673ffffffffffffffffffffffffffffffffffffffff16815260200190815260200160002080548060200260200160405190810160405280929190818152602001828054801561202c57602002820191906000526020600020905b8160009054906101000a900473ffffffffffffffffffffffffffffffffffffffff1673ffffffffffffffffffffffffffffffffffffffff1681526020019060010190808311611fe2575b50505050509050919050565b60006040517f3d602d80600a3d3981f3363d3d373d3d3d363d7300000000000000000000000081528260601b60148201527f5af43d82803e903d91602b57fd5bf3000000000000000000000000000000000060288201526037816000f0915050600073ffffffffffffffffffffffffffffffffffffffff168173ffffffffffffffffffffffffffffffffffffffff161415612108576040517f08c379a00000000000000000000000000000000000000000000000000000000081526004016120ff906134b4565b60405180910390fd5b919050565b6000819050919050565b6121208161210d565b82525050565b600060208201905061213b6000830184612117565b92915050565b6000604051905090565b600080fd5b600080fd5b61215e8161210d565b811461216957600080fd5b50565b60008135905061217b81612155565b92915050565b600073ffffffffffffffffffffffffffffffffffffffff82169050919050565b60006121ac82612181565b9050919050565b6121bc816121a1565b81146121c757600080fd5b50565b6000813590506121d9816121b3565b92915050565b60008115159050919050565b6121f4816121df565b81146121ff57600080fd5b50565b600081359050612211816121eb565b92915050565b600080600080608085870312156122315761223061214b565b5b600061223f8782880161216c565b9450506020612250878288016121ca565b9350506040612261878288016121ca565b925050606061227287828801612202565b91505092959194509250565b6000602082840312156122945761229361214b565b5b60006122a2848285016121ca565b91505092915050565b6122b4816121df565b82525050565b60006020820190506122cf60008301846122ab565b92915050565b6122de816121a1565b82525050565b60006020820190506122f960008301846122d5565b92915050565b6000602082840312156123155761231461214b565b5b60006123238482850161216c565b91505092915050565b600081519050919050565b600082825260208201905092915050565b6000819050602082019050919050565b612361816121a1565b82525050565b60006123738383612358565b60208301905092915050565b6000602082019050919050565b60006123978261232c565b6123a18185612337565b93506123ac83612348565b8060005b838110156123dd5781516123c48882612367565b97506123cf8361237f565b9250506001810190506123b0565b5085935050505092915050565b60006020820190508181036000830152612404818461238c565b905092915050565b600080fd5b600080fd5b6000601f19601f8301169050919050565b7f4e487b7100000000000000000000000000000000000000000000000000000000600052604160045260246000fd5b61245f82612416565b810181811067ffffffffffffffff8211171561247e5761247d612427565b5b80604052505050565b6000612491612141565b905061249d8282612456565b919050565b600067ffffffffffffffff8211156124bd576124bc612427565b5b6124c682612416565b9050602081019050919050565b82818337600083830152505050565b60006124f56124f0846124a2565b612487565b90508281526020810184848401111561251157612510612411565b5b61251c8482856124d3565b509392505050565b600082601f8301126125395761253861240c565b5b81356125498482602086016124e2565b91505092915050565b6000602082840312156125685761256761214b565b5b600082013567ffffffffffffffff81111561258657612585612150565b5b61259284828501612524565b91505092915050565b6000806000606084860312156125b4576125b361214b565b5b60006125c2868287016121ca565b93505060206125d3868287016121ca565b92505060406125e486828701612202565b9150509250925092565b600067ffffffffffffffff82111561260957612608612427565b5b602082029050602081019050919050565b600080fd5b600061263261262d846125ee565b612487565b905080838252602082019050602084028301858111156126555761265461261a565b5b835b8181101561267e578061266a88826121ca565b845260208401935050602081019050612657565b5050509392505050565b600082601f83011261269d5761269c61240c565b5b81356126ad84826020860161261f565b91505092915050565b60008060008060008060c087890312156126d3576126d261214b565b5b600087013567ffffffffffffffff8111156126f1576126f0612150565b5b6126fd89828a01612688565b965050602087013567ffffffffffffffff81111561271e5761271d612150565b5b61272a89828a01612524565b955050604087013567ffffffffffffffff81111561274b5761274a612150565b5b61275789828a01612524565b945050606087013567ffffffffffffffff81111561277857612777612150565b5b61278489828a01612524565b935050608087013567ffffffffffffffff8111156127a5576127a4612150565b5b6127b189828a01612524565b92505060a06127c289828a016121ca565b9150509295509295509295565b600082825260208201905092915050565b7f6e6f7420746865206d756c74695f736967000000000000000000000000000000600082015250565b60006128166011836127cf565b9150612821826127e0565b602082019050919050565b6000602082019050818103600083015261284581612809565b9050919050565b7f6e6f7420706f6f6c000000000000000000000000000000000000000000000000600082015250565b60006128826008836127cf565b915061288d8261284c565b602082019050919050565b600060208201905081810360008301526128b181612875565b9050919050565b7f5265656e7472616e637947756172643a207265656e7472616e742063616c6c00600082015250565b60006128ee601f836127cf565b91506128f9826128b8565b602082019050919050565b6000602082019050818103600083015261291d816128e1565b9050919050565b7f4e487b7100000000000000000000000000000000000000000000000000000000600052601160045260246000fd5b600061295e8261210d565b91506129698361210d565b9250827fffffffffffffffffffffffffffffffffffffffffffffffffffffffffffffffff0382111561299e5761299d612924565b5b828201905092915050565b60005b838110156129c75780820151818401526020810190506129ac565b838111156129d6576000848401525b50505050565b60006129ef6129ea846124a2565b612487565b905082815260208101848484011115612a0b57612a0a612411565b5b612a168482856129a9565b509392505050565b600082601f830112612a3357612a3261240c565b5b8151612a438482602086016129dc565b91505092915050565b600060208284031215612a6257612a6161214b565b5b600082015167ffffffffffffffff811115612a8057612a7f612150565b5b612a8c84828501612a1e565b91505092915050565b600081519050612aa4816121b3565b92915050565b600060208284031215612ac057612abf61214b565b5b6000612ace84828501612a95565b91505092915050565b7f617373657420646f6573206e6f74206d61746368205745544847617465776179600082015250565b6000612b0d6020836127cf565b9150612b1882612ad7565b602082019050919050565b60006020820190508181036000830152612b3c81612b00565b9050919050565b7f6d73672e76616c75652063616e6e6f74206265207a65726f0000000000000000600082015250565b6000612b796018836127cf565b9150612b8482612b43565b602082019050919050565b60006020820190508181036000830152612ba881612b6c565b9050919050565b6000819050919050565b600061ffff82169050919050565b6000819050919050565b6000612bec612be7612be284612baf565b612bc7565b612bb9565b9050919050565b612bfc81612bd1565b82525050565b6000606082019050612c1760008301866122d5565b612c2460208301856122d5565b612c316040830184612bf3565b949350505050565b7f6d73672e76616c7565206973206e6f74207a65726f0000000000000000000000600082015250565b6000612c6f6015836127cf565b9150612c7a82612c39565b602082019050919050565b60006020820190508181036000830152612c9e81612c62565b9050919050565b6000604082019050612cba60008301856122d5565b612cc760208301846122d5565b9392505050565b600081519050612cdd81612155565b92915050565b600060208284031215612cf957612cf861214b565b5b6000612d0784828501612cce565b91505092915050565b7f73656e646572206e6f7420617070726f76656400000000000000000000000000600082015250565b6000612d466013836127cf565b9150612d5182612d10565b602082019050919050565b60006020820190508181036000830152612d7581612d39565b9050919050565b6000606082019050612d9160008301866122d5565b612d9e60208301856122d5565b612dab6040830184612117565b949350505050565b600081519050612dc2816121eb565b92915050565b600060208284031215612dde57612ddd61214b565b5b6000612dec84828501612db3565b91505092915050565b6000604082019050612e0a60008301856122d5565b612e176020830184612117565b9392505050565b6000608082019050612e3360008301876122d5565b612e406020830186612117565b612e4d60408301856122d5565b612e5a6060830184612bf3565b95945050505050565b600081519050919050565b6000612e7982612e63565b612e8381856127cf565b9350612e938185602086016129a9565b612e9c81612416565b840191505092915050565b600060a082019050612ebc60008301886122d5565b612ec96020830187612117565b612ed66040830186612117565b612ee360608301856122d5565b8181036080830152612ef58184612e6e565b90509695505050505050565b6000608082019050612f1660008301876122d5565b612f2360208301866122d5565b612f3060408301856122d5565b612f3d6060830184612117565b95945050505050565b6000612f518261210d565b9150612f5c8361210d565b925082821015612f6f57612f6e612924565b5b828203905092915050565b6000606082019050612f8f60008301866122d5565b612f9c6020830185612117565b612fa960408301846122d5565b949350505050565b6000608082019050612fc660008301876122d5565b612fd36020830186612117565b612fe060408301856122d5565b612fed60608301846122ab565b95945050505050565b7f4e487b7100000000000000000000000000000000000000000000000000000000600052603260045260246000fd5b600081905092915050565b600061303b82612e63565b6130458185613025565b93506130558185602086016129a9565b80840191505092915050565b600061306d8284613030565b915081905092915050565b600061308b613086846125ee565b612487565b905080838252602082019050602084028301858111156130ae576130ad61261a565b5b835b818110156130d757806130c38882612a95565b8452602084019350506020810190506130b0565b5050509392505050565b600082601f8301126130f6576130f561240c565b5b8151613106848260208601613078565b91505092915050565b6000602082840312156131255761312461214b565b5b600082015167ffffffffffffffff81111561314357613142612150565b5b61314f848285016130e1565b91505092915050565b600060ff82169050919050565b600061317082613158565b915060ff82141561318457613183612924565b5b600182019050919050565b7f746f6b656e206e6f7420617070726f7665640000000000000000000000000000600082015250565b60006131c56012836127cf565b91506131d08261318f565b602082019050919050565b600060208201905081810360008301526131f4816131b8565b9050919050565b600060808201905061321060008301876122d5565b61321d60208301866122d5565b61322a60408301856122ab565b6132376060830184612117565b95945050505050565b600060a08201905061325560008301886122d5565b61326260208301876122d5565b61326f60408301866122d5565b61327c60608301856122d5565b6132896080830184612117565b9695505050505050565b7f746f6b656e73206e6f7420617070726f76656400000000000000000000000000600082015250565b60006132c96013836127cf565b91506132d482613293565b602082019050919050565b600060208201905081810360008301526132f8816132bc565b9050919050565b7f706f6f6c2077697468206e616d6520616c726561647920657869737473000000600082015250565b6000613335601d836127cf565b9150613340826132ff565b602082019050919050565b6000602082019050818103600083015261336481613328565b9050919050565b6000610140820190508181036000830152613386818d61238c565b9050818103602083015261339a818c612e6e565b905081810360408301526133ae818b612e6e565b905081810360608301526133c2818a612e6e565b905081810360808301526133d68189612e6e565b90506133e560a08301886122d5565b6133f260c08301876122d5565b6133ff60e08301866122d5565b61340d6101008301856122d5565b61341b6101208301846122ab565b9b9a5050505050505050505050565b600060608201905061343f60008301866122d5565b81810360208301526134518185612e6e565b905061346060408301846122d5565b949350505050565b7f455243313136373a20637265617465206661696c656400000000000000000000600082015250565b600061349e6016836127cf565b91506134a982613468565b602082019050919050565b600060208201905081810360008301526134cd81613491565b905091905056fea2646970667358221220679c6894ce2668135d6ec620baa74168e8581f4d947379e41764e72e06c40b1264736f6c63430008090033608060405234801561001057600080fd5b506001600360006101000a81548160ff0219169083151502179055506135858061003b6000396000f3fe608060405234801561001057600080fd5b50600436106101365760003560e01c80633735ef88116100b857806367e0e0761161007c57806367e0e07614610347578063711cc0051461037d5780638aebe8d6146103ad578063bbc41f48146103dd578063d15e0053146103f9578063eda9c2d21461042957610136565b80633735ef8814610289578063373d7c3f146102b957806347e7ef24146102d75780635ff189b9146102f357806360246c881461032357610136565b806317d7de7c116100ff57806317d7de7c146101f35780631b88094d146102115780632f7570061461022f578063343d693b1461024d578063357286d71461026b57610136565b80627ffb781461013b5780630251cfa1146101595780630712f6b31461018957806312eeff7e146101b9578063155d8e9c146101d5575b600080fd5b610143610459565b60405161015091906123e7565b60405180910390f35b610173600480360381019061016e9190612442565b610483565b6040516101809190612488565b60405180910390f35b6101a3600480360381019061019e9190612442565b6104cc565b6040516101b09190612488565b60405180910390f35b6101d360048036038101906101ce9190612507565b61056b565b005b6101dd610998565b6040516101ea9190612607565b60405180910390f35b6101fb610a2a565b6040516102089190612607565b60405180910390f35b610219610abc565b60405161022691906123e7565b60405180910390f35b610237610ae6565b60405161024491906126e7565b60405180910390f35b610255610b74565b6040516102629190612607565b60405180910390f35b610273610c06565b6040516102809190612718565b60405180910390f35b6102a3600480360381019061029e9190612442565b610c1d565b6040516102b09190612488565b60405180910390f35b6102c1610d0c565b6040516102ce9190612607565b60405180910390f35b6102f160048036038101906102ec9190612733565b610d9e565b005b61030d60048036038101906103089190612442565b610f75565b60405161031a9190612488565b60405180910390f35b61032b610fbe565b60405161033e9796959493929190612773565b60405180910390f35b610361600480360381019061035c9190612442565b6112d5565b6040516103749796959493929190612805565b60405180910390f35b61039760048036038101906103929190612442565b611338565b6040516103a491906123e7565b60405180910390f35b6103c760048036038101906103c29190612442565b6113f2565b6040516103d49190612488565b60405180910390f35b6103f760048036038101906103f29190612a71565b6114bd565b005b610413600480360381019061040e9190612442565b6118b6565b6040516104209190612488565b60405180910390f35b610443600480360381019061043e9190612bdc565b61196a565b6040516104509190612488565b60405180910390f35b6000600660009054906101000a900473ffffffffffffffffffffffffffffffffffffffff16905090565b6000600160008373ffffffffffffffffffffffffffffffffffffffff1673ffffffffffffffffffffffffffffffffffffffff168152602001908152602001600020549050919050565b6000806104d883611338565b90508073ffffffffffffffffffffffffffffffffffffffff166370a08231306040518263ffffffff1660e01b815260040161051391906123e7565b60206040518083038186803b15801561052b57600080fd5b505afa15801561053f573d6000803e3d6000fd5b505050506040513d601f19601f820116820180604052508101906105639190612c58565b915050919050565b3373ffffffffffffffffffffffffffffffffffffffff16600960009054906101000a900473ffffffffffffffffffffffffffffffffffffffff1673ffffffffffffffffffffffffffffffffffffffff16146105fb576040517f08c379a00000000000000000000000000000000000000000000000000000000081526004016105f290612cd1565b60405180910390fd5b82600160008673ffffffffffffffffffffffffffffffffffffffff1673ffffffffffffffffffffffffffffffffffffffff168152602001908152602001600020600082825461064a9190612d20565b925050819055508061070d57600460009054906101000a900473ffffffffffffffffffffffffffffffffffffffff1673ffffffffffffffffffffffffffffffffffffffff166369328dec8585856040518463ffffffff1660e01b81526004016106b593929190612d54565b602060405180830381600087803b1580156106cf57600080fd5b505af11580156106e3573d6000803e3d6000fd5b505050506040513d601f19601f820116820180604052508101906107079190612c58565b50610992565b6000600560009054906101000a900473ffffffffffffffffffffffffffffffffffffffff1673ffffffffffffffffffffffffffffffffffffffff1663affa88176040518163ffffffff1660e01b815260040160206040518083038186803b15801561077757600080fd5b505afa15801561078b573d6000803e3d6000fd5b505050506040513d601f19601f820116820180604052508101906107af9190612da0565b90508473ffffffffffffffffffffffffffffffffffffffff168173ffffffffffffffffffffffffffffffffffffffff161461081f576040517f08c379a000000000000000000000000000000000000000000000000000000000815260040161081690612e19565b60405180910390fd5b600061082a82611338565b90508073ffffffffffffffffffffffffffffffffffffffff1663095ea7b3600560009054906101000a900473ffffffffffffffffffffffffffffffffffffffff16876040518363ffffffff1660e01b8152600401610889929190612e39565b602060405180830381600087803b1580156108a357600080fd5b505af11580156108b7573d6000803e3d6000fd5b505050506040513d601f19601f820116820180604052508101906108db9190612e77565b50600560009054906101000a900473ffffffffffffffffffffffffffffffffffffffff1673ffffffffffffffffffffffffffffffffffffffff166380500d20600460009054906101000a900473ffffffffffffffffffffffffffffffffffffffff1687876040518463ffffffff1660e01b815260040161095d93929190612d54565b600060405180830381600087803b15801561097757600080fd5b505af115801561098b573d6000803e3d6000fd5b5050505050505b50505050565b6060600c80546109a790612ed3565b80601f01602080910402602001604051908101604052809291908181526020018280546109d390612ed3565b8015610a205780601f106109f557610100808354040283529160200191610a20565b820191906000526020600020905b815481529060010190602001808311610a0357829003601f168201915b5050505050905090565b6060600a8054610a3990612ed3565b80601f0160208091040260200160405190810160405280929190818152602001828054610a6590612ed3565b8015610ab25780601f10610a8757610100808354040283529160200191610ab2565b820191906000526020600020905b815481529060010190602001808311610a9557829003601f168201915b5050505050905090565b6000600860009054906101000a900473ffffffffffffffffffffffffffffffffffffffff16905090565b60606007805480602002602001604051908101604052809291908181526020018280548015610b6a57602002820191906000526020600020905b8160009054906101000a900473ffffffffffffffffffffffffffffffffffffffff1673ffffffffffffffffffffffffffffffffffffffff1681526020019060010190808311610b20575b5050505050905090565b6060600b8054610b8390612ed3565b80601f0160208091040260200160405190810160405280929190818152602001828054610baf90612ed3565b8015610bfc5780601f10610bd157610100808354040283529160200191610bfc565b820191906000526020600020905b815481529060010190602001808311610bdf57829003601f168201915b5050505050905090565b6000600e60009054906101000a900460ff16905090565b600080610c2983611338565b905060008173ffffffffffffffffffffffffffffffffffffffff166370a08231306040518263ffffffff1660e01b8152600401610c6691906123e7565b60206040518083038186803b158015610c7e57600080fd5b505afa158015610c92573d6000803e3d6000fd5b505050506040513d601f19601f82011682018060405250810190610cb69190612c58565b9050600160008573ffffffffffffffffffffffffffffffffffffffff1673ffffffffffffffffffffffffffffffffffffffff1681526020019081526020016000205481610d039190612d20565b92505050919050565b6060600d8054610d1b90612ed3565b80601f0160208091040260200160405190810160405280929190818152602001828054610d4790612ed3565b8015610d945780601f10610d6957610100808354040283529160200191610d94565b820191906000526020600020905b815481529060010190602001808311610d7757829003601f168201915b5050505050905090565b3373ffffffffffffffffffffffffffffffffffffffff16600960009054906101000a900473ffffffffffffffffffffffffffffffffffffffff1673ffffffffffffffffffffffffffffffffffffffff1614610e2e576040517f08c379a0000000000000000000000000000000000000000000000000000000008152600401610e2590612cd1565b60405180910390fd5b81600080600090505b6007805490508160ff161015610ed85760078160ff1681548110610e5e57610e5d612f05565b5b9060005260206000200160009054906101000a900473ffffffffffffffffffffffffffffffffffffffff1673ffffffffffffffffffffffffffffffffffffffff168373ffffffffffffffffffffffffffffffffffffffff161415610ec55760019150610ed8565b8080610ed090612f41565b915050610e37565b5080610f19576040517f08c379a0000000000000000000000000000000000000000000000000000000008152600401610f1090612fb7565b60405180910390fd5b82600160008673ffffffffffffffffffffffffffffffffffffffff1673ffffffffffffffffffffffffffffffffffffffff1681526020019081526020016000206000828254610f689190612fd7565b9250508190555050505050565b6000600260008373ffffffffffffffffffffffffffffffffffffffff1673ffffffffffffffffffffffffffffffffffffffff168152602001908152602001600020549050919050565b60606000806060806060806007600860009054906101000a900473ffffffffffffffffffffffffffffffffffffffff16600e60009054906101000a900460ff16600d600c600b600a8680548060200260200160405190810160405280929190818152602001828054801561108757602002820191906000526020600020905b8160009054906101000a900473ffffffffffffffffffffffffffffffffffffffff1673ffffffffffffffffffffffffffffffffffffffff168152602001906001019080831161103d575b5050505050965083805461109a90612ed3565b80601f01602080910402602001604051908101604052809291908181526020018280546110c690612ed3565b80156111135780601f106110e857610100808354040283529160200191611113565b820191906000526020600020905b8154815290600101906020018083116110f657829003601f168201915b5050505050935082805461112690612ed3565b80601f016020809104026020016040519081016040528092919081815260200182805461115290612ed3565b801561119f5780601f106111745761010080835404028352916020019161119f565b820191906000526020600020905b81548152906001019060200180831161118257829003601f168201915b505050505092508180546111b290612ed3565b80601f01602080910402602001604051908101604052809291908181526020018280546111de90612ed3565b801561122b5780601f106112005761010080835404028352916020019161122b565b820191906000526020600020905b81548152906001019060200180831161120e57829003601f168201915b5050505050915080805461123e90612ed3565b80601f016020809104026020016040519081016040528092919081815260200182805461126a90612ed3565b80156112b75780601f1061128c576101008083540402835291602001916112b7565b820191906000526020600020905b81548152906001019060200180831161129a57829003601f168201915b50505050509050965096509650965096509650965090919293949596565b60008060008060008060006112e9886113f2565b6112f2896118b6565b6112fb8a6104cc565b6113048b610f75565b61130d8c610c1d565b6113168d610483565b61131f8e611338565b9650965096509650965096509650919395979092949650565b6000600460009054906101000a900473ffffffffffffffffffffffffffffffffffffffff1673ffffffffffffffffffffffffffffffffffffffff166335ea6a75836040518263ffffffff1660e01b815260040161139591906123e7565b6101e06040518083038186803b1580156113ae57600080fd5b505afa1580156113c2573d6000803e3d6000fd5b505050506040513d601f19601f820116820180604052508101906113e69190613291565b61010001519050919050565b6000600460009054906101000a900473ffffffffffffffffffffffffffffffffffffffff1673ffffffffffffffffffffffffffffffffffffffff166335ea6a75836040518263ffffffff1660e01b815260040161144f91906123e7565b6101e06040518083038186803b15801561146857600080fd5b505afa15801561147c573d6000803e3d6000fd5b505050506040513d601f19601f820116820180604052508101906114a09190613291565b602001516fffffffffffffffffffffffffffffffff169050919050565b88601e60008290508160ff168151111561150c576040517f08c379a00000000000000000000000000000000000000000000000000000000081526004016115039061330b565b60405180910390fd5b600060019054906101000a900460ff166115345760008054906101000a900460ff161561153d565b61153c612232565b5b61157c576040517f08c379a00000000000000000000000000000000000000000000000000000000081526004016115739061339d565b60405180910390fd5b60008060019054906101000a900460ff1615905080156115cc576001600060016101000a81548160ff02191690831515021790555060016000806101000a81548160ff0219169083151502179055505b60001515600360009054906101000a900460ff16151514611622576040517f08c379a000000000000000000000000000000000000000000000000000000000815260040161161990613409565b60405180910390fd5b600073ffffffffffffffffffffffffffffffffffffffff16600860009054906101000a900473ffffffffffffffffffffffffffffffffffffffff1673ffffffffffffffffffffffffffffffffffffffff16146116b3576040517f08c379a00000000000000000000000000000000000000000000000000000000081526004016116aa90613475565b60405180910390fd5b88600860006101000a81548173ffffffffffffffffffffffffffffffffffffffff021916908373ffffffffffffffffffffffffffffffffffffffff16021790555033600960006101000a81548173ffffffffffffffffffffffffffffffffffffffff021916908373ffffffffffffffffffffffffffffffffffffffff1602179055508c600a908051906020019061174b929190612279565b508b600b9080519060200190611762929190612279565b508a600c9080519060200190611779929190612279565b5089600d9080519060200190611790929190612279565b5084600e60006101000a81548160ff02191690831515021790555087600460006101000a81548173ffffffffffffffffffffffffffffffffffffffff021916908373ffffffffffffffffffffffffffffffffffffffff16021790555086600560006101000a81548173ffffffffffffffffffffffffffffffffffffffff021916908373ffffffffffffffffffffffffffffffffffffffff16021790555085600660006101000a81548173ffffffffffffffffffffffffffffffffffffffff021916908373ffffffffffffffffffffffffffffffffffffffff1602179055508d600790805190602001906118849291906122ff565b5080156118a65760008060016101000a81548160ff0219169083151502179055505b5050505050505050505050505050565b6000600460009054906101000a900473ffffffffffffffffffffffffffffffffffffffff1673ffffffffffffffffffffffffffffffffffffffff1663d15e0053836040518263ffffffff1660e01b815260040161191391906123e7565b60206040518083038186803b15801561192b57600080fd5b505afa15801561193f573d6000803e3d6000fd5b505050506040513d601f19601f820116820180604052508101906119639190612c58565b9050919050565b60003373ffffffffffffffffffffffffffffffffffffffff16600960009054906101000a900473ffffffffffffffffffffffffffffffffffffffff1673ffffffffffffffffffffffffffffffffffffffff16146119fc576040517f08c379a00000000000000000000000000000000000000000000000000000000081526004016119f390612cd1565b60405180910390fd5b6000611a0786611338565b905060008173ffffffffffffffffffffffffffffffffffffffff166370a08231306040518263ffffffff1660e01b8152600401611a4491906123e7565b60206040518083038186803b158015611a5c57600080fd5b505afa158015611a70573d6000803e3d6000fd5b505050506040513d601f19601f82011682018060405250810190611a949190612c58565b90506000600160008973ffffffffffffffffffffffffffffffffffffffff1673ffffffffffffffffffffffffffffffffffffffff1681526020019081526020016000205482611ae39190612d20565b905080600260008a73ffffffffffffffffffffffffffffffffffffffff1673ffffffffffffffffffffffffffffffffffffffff1681526020019081526020016000206000828254611b349190612fd7565b92505081905550600081905086611dd6576000861415611c2757600460009054906101000a900473ffffffffffffffffffffffffffffffffffffffff1673ffffffffffffffffffffffffffffffffffffffff166369328dec8a84600860009054906101000a900473ffffffffffffffffffffffffffffffffffffffff166040518463ffffffff1660e01b8152600401611bcf93929190612d54565b602060405180830381600087803b158015611be957600080fd5b505af1158015611bfd573d6000803e3d6000fd5b505050506040513d601f19601f82011682018060405250810190611c219190612c58565b50611dd1565b6000611c338388612243565b905060008184611c439190612d20565b9050600460009054906101000a900473ffffffffffffffffffffffffffffffffffffffff1673ffffffffffffffffffffffffffffffffffffffff166369328dec8c83600860009054906101000a900473ffffffffffffffffffffffffffffffffffffffff166040518463ffffffff1660e01b8152600401611cc693929190612d54565b602060405180830381600087803b158015611ce057600080fd5b505af1158015611cf4573d6000803e3d6000fd5b505050506040513d601f19601f82011682018060405250810190611d189190612c58565b50600460009054906101000a900473ffffffffffffffffffffffffffffffffffffffff1673ffffffffffffffffffffffffffffffffffffffff166369328dec8c848d6040518463ffffffff1660e01b8152600401611d7893929190612d54565b602060405180830381600087803b158015611d9257600080fd5b505af1158015611da6573d6000803e3d6000fd5b505050506040513d601f19601f82011682018060405250810190611dca9190612c58565b5080925050505b612223565b8873ffffffffffffffffffffffffffffffffffffffff16600560009054906101000a900473ffffffffffffffffffffffffffffffffffffffff1673ffffffffffffffffffffffffffffffffffffffff1663affa88176040518163ffffffff1660e01b815260040160206040518083038186803b158015611e5557600080fd5b505afa158015611e69573d6000803e3d6000fd5b505050506040513d601f19601f82011682018060405250810190611e8d9190612da0565b73ffffffffffffffffffffffffffffffffffffffff1614611ee3576040517f08c379a0000000000000000000000000000000000000000000000000000000008152600401611eda90612e19565b60405180910390fd5b8373ffffffffffffffffffffffffffffffffffffffff1663095ea7b3600560009054906101000a900473ffffffffffffffffffffffffffffffffffffffff16846040518363ffffffff1660e01b8152600401611f40929190612e39565b602060405180830381600087803b158015611f5a57600080fd5b505af1158015611f6e573d6000803e3d6000fd5b505050506040513d601f19601f82011682018060405250810190611f929190612e77565b50600086141561207657600560009054906101000a900473ffffffffffffffffffffffffffffffffffffffff1673ffffffffffffffffffffffffffffffffffffffff166380500d20600460009054906101000a900473ffffffffffffffffffffffffffffffffffffffff1684600860009054906101000a900473ffffffffffffffffffffffffffffffffffffffff166040518463ffffffff1660e01b815260040161203f93929190612d54565b600060405180830381600087803b15801561205957600080fd5b505af115801561206d573d6000803e3d6000fd5b50505050612222565b60006120828388612243565b9050600081846120929190612d20565b9050600560009054906101000a900473ffffffffffffffffffffffffffffffffffffffff1673ffffffffffffffffffffffffffffffffffffffff166380500d20600460009054906101000a900473ffffffffffffffffffffffffffffffffffffffff1683600860009054906101000a900473ffffffffffffffffffffffffffffffffffffffff166040518463ffffffff1660e01b815260040161213793929190612d54565b600060405180830381600087803b15801561215157600080fd5b505af1158015612165573d6000803e3d6000fd5b50505050600560009054906101000a900473ffffffffffffffffffffffffffffffffffffffff1673ffffffffffffffffffffffffffffffffffffffff166380500d20600460009054906101000a900473ffffffffffffffffffffffffffffffffffffffff16848d6040518463ffffffff1660e01b81526004016121ea93929190612d54565b600060405180830381600087803b15801561220457600080fd5b505af1158015612218573d6000803e3d6000fd5b5050505080925050505b5b80945050505050949350505050565b600061223d30612266565b15905090565b600061271082846122549190613495565b61225e919061351e565b905092915050565b600080823b905060008111915050919050565b82805461228590612ed3565b90600052602060002090601f0160209004810192826122a757600085556122ee565b82601f106122c057805160ff19168380011785556122ee565b828001600101855582156122ee579182015b828111156122ed5782518255916020019190600101906122d2565b5b5090506122fb9190612389565b5090565b828054828255906000526020600020908101928215612378579160200282015b828111156123775782518260006101000a81548173ffffffffffffffffffffffffffffffffffffffff021916908373ffffffffffffffffffffffffffffffffffffffff1602179055509160200191906001019061231f565b5b5090506123859190612389565b5090565b5b808211156123a257600081600090555060010161238a565b5090565b600073ffffffffffffffffffffffffffffffffffffffff82169050919050565b60006123d1826123a6565b9050919050565b6123e1816123c6565b82525050565b60006020820190506123fc60008301846123d8565b92915050565b6000604051905090565b600080fd5b600080fd5b61241f816123c6565b811461242a57600080fd5b50565b60008135905061243c81612416565b92915050565b6000602082840312156124585761245761240c565b5b60006124668482850161242d565b91505092915050565b6000819050919050565b6124828161246f565b82525050565b600060208201905061249d6000830184612479565b92915050565b6124ac8161246f565b81146124b757600080fd5b50565b6000813590506124c9816124a3565b92915050565b60008115159050919050565b6124e4816124cf565b81146124ef57600080fd5b50565b600081359050612501816124db565b92915050565b600080600080608085870312156125215761252061240c565b5b600061252f8782880161242d565b9450506020612540878288016124ba565b93505060406125518782880161242d565b9250506060612562878288016124f2565b91505092959194509250565b600081519050919050565b600082825260208201905092915050565b60005b838110156125a857808201518184015260208101905061258d565b838111156125b7576000848401525b50505050565b6000601f19601f8301169050919050565b60006125d98261256e565b6125e38185612579565b93506125f381856020860161258a565b6125fc816125bd565b840191505092915050565b6000602082019050818103600083015261262181846125ce565b905092915050565b600081519050919050565b600082825260208201905092915050565b6000819050602082019050919050565b61265e816123c6565b82525050565b60006126708383612655565b60208301905092915050565b6000602082019050919050565b600061269482612629565b61269e8185612634565b93506126a983612645565b8060005b838110156126da5781516126c18882612664565b97506126cc8361267c565b9250506001810190506126ad565b5085935050505092915050565b600060208201905081810360008301526127018184612689565b905092915050565b612712816124cf565b82525050565b600060208201905061272d6000830184612709565b92915050565b6000806040838503121561274a5761274961240c565b5b60006127588582860161242d565b9250506020612769858286016124ba565b9150509250929050565b600060e082019050818103600083015261278d818a612689565b905061279c60208301896123d8565b6127a96040830188612709565b81810360608301526127bb81876125ce565b905081810360808301526127cf81866125ce565b905081810360a08301526127e381856125ce565b905081810360c08301526127f781846125ce565b905098975050505050505050565b600060e08201905061281a600083018a612479565b6128276020830189612479565b6128346040830188612479565b6128416060830187612479565b61284e6080830186612479565b61285b60a0830185612479565b61286860c08301846123d8565b98975050505050505050565b600080fd5b7f4e487b7100000000000000000000000000000000000000000000000000000000600052604160045260246000fd5b6128b1826125bd565b810181811067ffffffffffffffff821117156128d0576128cf612879565b5b80604052505050565b60006128e3612402565b90506128ef82826128a8565b919050565b600067ffffffffffffffff82111561290f5761290e612879565b5b602082029050602081019050919050565b600080fd5b6000612938612933846128f4565b6128d9565b9050808382526020820190506020840283018581111561295b5761295a612920565b5b835b818110156129845780612970888261242d565b84526020840193505060208101905061295d565b5050509392505050565b600082601f8301126129a3576129a2612874565b5b81356129b3848260208601612925565b91505092915050565b600080fd5b600067ffffffffffffffff8211156129dc576129db612879565b5b6129e5826125bd565b9050602081019050919050565b82818337600083830152505050565b6000612a14612a0f846129c1565b6128d9565b905082815260208101848484011115612a3057612a2f6129bc565b5b612a3b8482856129f2565b509392505050565b600082601f830112612a5857612a57612874565b5b8135612a68848260208601612a01565b91505092915050565b6000806000806000806000806000806101408b8d031215612a9557612a9461240c565b5b60008b013567ffffffffffffffff811115612ab357612ab2612411565b5b612abf8d828e0161298e565b9a505060208b013567ffffffffffffffff811115612ae057612adf612411565b5b612aec8d828e01612a43565b99505060408b013567ffffffffffffffff811115612b0d57612b0c612411565b5b612b198d828e01612a43565b98505060608b013567ffffffffffffffff811115612b3a57612b39612411565b5b612b468d828e01612a43565b97505060808b013567ffffffffffffffff811115612b6757612b66612411565b5b612b738d828e01612a43565b96505060a0612b848d828e0161242d565b95505060c0612b958d828e0161242d565b94505060e0612ba68d828e0161242d565b935050610100612bb88d828e0161242d565b925050610120612bca8d828e016124f2565b9150509295989b9194979a5092959850565b60008060008060808587031215612bf657612bf561240c565b5b6000612c048782880161242d565b9450506020612c158782880161242d565b9350506040612c26878288016124f2565b9250506060612c37878288016124ba565b91505092959194509250565b600081519050612c52816124a3565b92915050565b600060208284031215612c6e57612c6d61240c565b5b6000612c7c84828501612c43565b91505092915050565b7f6e6f7420746865206f776e657200000000000000000000000000000000000000600082015250565b6000612cbb600d83612579565b9150612cc682612c85565b602082019050919050565b60006020820190508181036000830152612cea81612cae565b9050919050565b7f4e487b7100000000000000000000000000000000000000000000000000000000600052601160045260246000fd5b6000612d2b8261246f565b9150612d368361246f565b925082821015612d4957612d48612cf1565b5b828203905092915050565b6000606082019050612d6960008301866123d8565b612d766020830185612479565b612d8360408301846123d8565b949350505050565b600081519050612d9a81612416565b92915050565b600060208284031215612db657612db561240c565b5b6000612dc484828501612d8b565b91505092915050565b7f617373657420646f6573206e6f74206d61746368205745544847617465776179600082015250565b6000612e03602083612579565b9150612e0e82612dcd565b602082019050919050565b60006020820190508181036000830152612e3281612df6565b9050919050565b6000604082019050612e4e60008301856123d8565b612e5b6020830184612479565b9392505050565b600081519050612e71816124db565b92915050565b600060208284031215612e8d57612e8c61240c565b5b6000612e9b84828501612e62565b91505092915050565b7f4e487b7100000000000000000000000000000000000000000000000000000000600052602260045260246000fd5b60006002820490506001821680612eeb57607f821691505b60208210811415612eff57612efe612ea4565b5b50919050565b7f4e487b7100000000000000000000000000000000000000000000000000000000600052603260045260246000fd5b600060ff82169050919050565b6000612f4c82612f34565b915060ff821415612f6057612f5f612cf1565b5b600182019050919050565b7f746f6b656e206e6f74206163636570746564206279206a63706f6f6c00000000600082015250565b6000612fa1601c83612579565b9150612fac82612f6b565b602082019050919050565b60006020820190508181036000830152612fd081612f94565b9050919050565b6000612fe28261246f565b9150612fed8361246f565b9250827fffffffffffffffffffffffffffffffffffffffffffffffffffffffffffffffff0382111561302257613021612cf1565b5b828201905092915050565b600080fd5b6000602082840312156130485761304761302d565b5b61305260206128d9565b9050600061306284828501612c43565b60008301525092915050565b60006fffffffffffffffffffffffffffffffff82169050919050565b6130938161306e565b811461309e57600080fd5b50565b6000815190506130b08161308a565b92915050565b600064ffffffffff82169050919050565b6130d0816130b6565b81146130db57600080fd5b50565b6000815190506130ed816130c7565b92915050565b600061ffff82169050919050565b61310a816130f3565b811461311557600080fd5b50565b60008151905061312781613101565b92915050565b60006101e082840312156131445761314361302d565b5b61314f6101e06128d9565b9050600061315f84828501613032565b6000830152506020613173848285016130a1565b6020830152506040613187848285016130a1565b604083015250606061319b848285016130a1565b60608301525060806131af848285016130a1565b60808301525060a06131c3848285016130a1565b60a08301525060c06131d7848285016130de565b60c08301525060e06131eb84828501613118565b60e08301525061010061320084828501612d8b565b6101008301525061012061321684828501612d8b565b6101208301525061014061322c84828501612d8b565b6101408301525061016061324284828501612d8b565b61016083015250610180613258848285016130a1565b610180830152506101a061326e848285016130a1565b6101a0830152506101c0613284848285016130a1565b6101c08301525092915050565b60006101e082840312156132a8576132a761240c565b5b60006132b68482850161312d565b91505092915050565b7f737472696e67206f76657220636861726163746572206c696d69740000000000600082015250565b60006132f5601b83612579565b9150613300826132bf565b602082019050919050565b60006020820190508181036000830152613324816132e8565b9050919050565b7f496e697469616c697a61626c653a20636f6e747261637420697320616c72656160008201527f647920696e697469616c697a6564000000000000000000000000000000000000602082015250565b6000613387602e83612579565b91506133928261332b565b604082019050919050565b600060208201905081810360008301526133b68161337a565b9050919050565b7f43616e6e6f7420696e697469616c697a65206261736500000000000000000000600082015250565b60006133f3601683612579565b91506133fe826133bd565b602082019050919050565b60006020820190508181036000830152613422816133e6565b9050919050565b7f496e697469616c697a6520616c72656164792063616c6c656400000000000000600082015250565b600061345f601983612579565b915061346a82613429565b602082019050919050565b6000602082019050818103600083015261348e81613452565b9050919050565b60006134a08261246f565b91506134ab8361246f565b9250817fffffffffffffffffffffffffffffffffffffffffffffffffffffffffffffffff04831182151516156134e4576134e3612cf1565b5b828202905092915050565b7f4e487b7100000000000000000000000000000000000000000000000000000000600052601260045260246000fd5b60006135298261246f565b91506135348361246f565b925082613544576135436134ef565b5b82820490509291505056fea264697066735822122071cd43270c12522b2c25f45635b27c224da7e449517942106f94d22884301ade64736f6c63430008090033608060405234801561001057600080fd5b50613e0f806100206000396000f3fe608060405234801561001057600080fd5b506004361061012c5760003560e01c8063519dc8d2116100ad578063a22cb46511610071578063a22cb4651461037b578063b88d4fde14610397578063c4d66de8146103b3578063c87b56dd146103cf578063e985e9c5146103ff5761012c565b8063519dc8d21461029d5780635328c2bf146102cd5780636352211e146102fd57806370a082311461032d57806395d89b411461035d5761012c565b806323b872dd116100f457806323b872dd146101e957806326a45ffb146102055780632e0c3f3c1461023557806342842e0e1461026557806347c6b45e146102815761012c565b806301ffc9a714610131578063026b1d5f1461016157806306fdde031461017f578063081812fc1461019d578063095ea7b3146101cd575b600080fd5b61014b600480360381019061014691906124ab565b61042f565b60405161015891906124f3565b60405180910390f35b610169610511565b604051610176919061254f565b60405180910390f35b61018761053b565b6040516101949190612603565b60405180910390f35b6101b760048036038101906101b2919061265b565b6105cd565b6040516101c4919061254f565b60405180910390f35b6101e760048036038101906101e291906126b4565b610652565b005b61020360048036038101906101fe91906126f4565b61076a565b005b61021f600480360381019061021a919061287c565b6107ca565b60405161022c91906124f3565b60405180910390f35b61024f600480360381019061024a919061265b565b6109d6565b60405161025c9190612922565b60405180910390f35b61027f600480360381019061027a91906126f4565b6109f6565b005b61029b6004803603810190610296919061293d565b610a16565b005b6102b760048036038101906102b29190612990565b610bf6565b6040516102c49190612a7b565b60405180910390f35b6102e760048036038101906102e2919061265b565b610dbc565b6040516102f49190612aee565b60405180910390f35b6103176004803603810190610312919061265b565b610e53565b604051610324919061254f565b60405180910390f35b61034760048036038101906103429190612990565b610f05565b6040516103549190612922565b60405180910390f35b610365610fbd565b6040516103729190612603565b60405180910390f35b61039560048036038101906103909190612b35565b61104f565b005b6103b160048036038101906103ac9190612c16565b611065565b005b6103cd60048036038101906103c89190612990565b6110c7565b005b6103e960048036038101906103e4919061265b565b61124a565b6040516103f69190612603565b60405180910390f35b61041960048036038101906104149190612c99565b61125c565b60405161042691906124f3565b60405180910390f35b60007f80ac58cd000000000000000000000000000000000000000000000000000000007bffffffffffffffffffffffffffffffffffffffffffffffffffffffff1916827bffffffffffffffffffffffffffffffffffffffffffffffffffffffff191614806104fa57507f5b5e139f000000000000000000000000000000000000000000000000000000007bffffffffffffffffffffffffffffffffffffffffffffffffffffffff1916827bffffffffffffffffffffffffffffffffffffffffffffffffffffffff1916145b8061050a5750610509826112f0565b5b9050919050565b600060c960009054906101000a900473ffffffffffffffffffffffffffffffffffffffff16905090565b60606065805461054a90612d08565b80601f016020809104026020016040519081016040528092919081815260200182805461057690612d08565b80156105c35780601f10610598576101008083540402835291602001916105c3565b820191906000526020600020905b8154815290600101906020018083116105a657829003601f168201915b5050505050905090565b60006105d88261135a565b610617576040517f08c379a000000000000000000000000000000000000000000000000000000000815260040161060e90612dac565b60405180910390fd5b6069600083815260200190815260200160002060009054906101000a900473ffffffffffffffffffffffffffffffffffffffff169050919050565b600061065d82610e53565b90508073ffffffffffffffffffffffffffffffffffffffff168373ffffffffffffffffffffffffffffffffffffffff1614156106ce576040517f08c379a00000000000000000000000000000000000000000000000000000000081526004016106c590612e3e565b60405180910390fd5b8073ffffffffffffffffffffffffffffffffffffffff166106ed6113c6565b73ffffffffffffffffffffffffffffffffffffffff16148061071c575061071b816107166113c6565b61125c565b5b61075b576040517f08c379a000000000000000000000000000000000000000000000000000000000815260040161075290612ed0565b60405180910390fd5b61076583836113ce565b505050565b61077b6107756113c6565b82611487565b6107ba576040517f08c379a00000000000000000000000000000000000000000000000000000000081526004016107b190612f62565b60405180910390fd5b6107c5838383611565565b505050565b60003373ffffffffffffffffffffffffffffffffffffffff1660ca60009054906101000a900473ffffffffffffffffffffffffffffffffffffffff1673ffffffffffffffffffffffffffffffffffffffff161461085c576040517f08c379a000000000000000000000000000000000000000000000000000000000815260040161085390612fce565b60405180910390fd5b60008660c960009054906101000a900473ffffffffffffffffffffffffffffffffffffffff168560405160200161089593929190613036565b6040516020818303038152906040528051906020012060001c905060006108bb8261135a565b1561090d578560cb6000848152602001908152602001600020600101819055508660cb6000848152602001908152602001600020600001600082825461090191906130a2565b925050819055506109c8565b60405180606001604052808881526020018781526020018673ffffffffffffffffffffffffffffffffffffffff1681525060cb6000848152602001908152602001600020600082015181600001556020820151816001015560408201518160020160006101000a81548173ffffffffffffffffffffffffffffffffffffffff021916908373ffffffffffffffffffffffffffffffffffffffff1602179055509050506109b988836117cc565b6109c382856119a6565b600190505b809250505095945050505050565b600060cb6000838152602001908152602001600020600001549050919050565b610a1183838360405180602001604052806000815250611065565b505050565b3373ffffffffffffffffffffffffffffffffffffffff1660ca60009054906101000a900473ffffffffffffffffffffffffffffffffffffffff1673ffffffffffffffffffffffffffffffffffffffff1614610aa6576040517f08c379a0000000000000000000000000000000000000000000000000000000008152600401610a9d90612fce565b60405180910390fd5b60008360c960009054906101000a900473ffffffffffffffffffffffffffffffffffffffff1683604051602001610adf93929190613036565b6040516020818303038152906040528051906020012060001c9050610b038161135a565b610b42576040517f08c379a0000000000000000000000000000000000000000000000000000000008152600401610b3990613144565b60405180910390fd5b600060cb600083815260200190815260200160002060000154905083811015610ba0576040517f08c379a0000000000000000000000000000000000000000000000000000000008152600401610b97906131b0565b60405180910390fd5b8381610bac91906131d0565b90506000811415610bd457600060cb6000848152602001908152602001600020600101819055505b8060cb6000848152602001908152602001600020600001819055505050505050565b6060600060c960009054906101000a900473ffffffffffffffffffffffffffffffffffffffff1673ffffffffffffffffffffffffffffffffffffffff16632f7570066040518163ffffffff1660e01b815260040160006040518083038186803b158015610c6257600080fd5b505afa158015610c76573d6000803e3d6000fd5b505050506040513d6000823e3d601f19601f82011682018060405250810190610c9f91906132e1565b905060008151905060008167ffffffffffffffff811115610cc357610cc2612751565b5b604051908082528060200260200182016040528015610cf15781602001602082028036833780820191505090505b50905060005b82811015610db05760008660c960009054906101000a900473ffffffffffffffffffffffffffffffffffffffff16868481518110610d3857610d3761332a565b5b6020026020010151604051602001610d5293929190613036565b6040516020818303038152906040528051906020012060001c9050610d768161135a565b15610d9c5780838381518110610d8f57610d8e61332a565b5b6020026020010181815250505b508080610da890613359565b915050610cf7565b50809350505050919050565b610dc4612365565b60cb600083815260200190815260200160002060405180606001604052908160008201548152602001600182015481526020016002820160009054906101000a900473ffffffffffffffffffffffffffffffffffffffff1673ffffffffffffffffffffffffffffffffffffffff1673ffffffffffffffffffffffffffffffffffffffff16815250509050919050565b6000806067600084815260200190815260200160002060009054906101000a900473ffffffffffffffffffffffffffffffffffffffff169050600073ffffffffffffffffffffffffffffffffffffffff168173ffffffffffffffffffffffffffffffffffffffff161415610efc576040517f08c379a0000000000000000000000000000000000000000000000000000000008152600401610ef390613414565b60405180910390fd5b80915050919050565b60008073ffffffffffffffffffffffffffffffffffffffff168273ffffffffffffffffffffffffffffffffffffffff161415610f76576040517f08c379a0000000000000000000000000000000000000000000000000000000008152600401610f6d906134a6565b60405180910390fd5b606860008373ffffffffffffffffffffffffffffffffffffffff1673ffffffffffffffffffffffffffffffffffffffff168152602001908152602001600020549050919050565b606060668054610fcc90612d08565b80601f0160208091040260200160405190810160405280929190818152602001828054610ff890612d08565b80156110455780601f1061101a57610100808354040283529160200191611045565b820191906000526020600020905b81548152906001019060200180831161102857829003601f168201915b5050505050905090565b61106161105a6113c6565b8383611a1a565b5050565b6110766110706113c6565b83611487565b6110b5576040517f08c379a00000000000000000000000000000000000000000000000000000000081526004016110ac90612f62565b60405180910390fd5b6110c184848484611b87565b50505050565b60006110d36001611be3565b905080156110f7576001600060016101000a81548160ff0219169083151502179055505b61116b6040518060400160405280601581526020017f4a435020436f6e7472696275746f7220546f6b656e00000000000000000000008152506040518060400160405280600481526020017f4a43504300000000000000000000000000000000000000000000000000000000815250611cd3565b8160c960006101000a81548173ffffffffffffffffffffffffffffffffffffffff021916908373ffffffffffffffffffffffffffffffffffffffff1602179055503360ca60006101000a81548173ffffffffffffffffffffffffffffffffffffffff021916908373ffffffffffffffffffffffffffffffffffffffff16021790555080156112465760008060016101000a81548160ff0219169083151502179055507f7f26b83ff96e1f2b6a682f133852f6798a09c465da95921460cefb3847402498600160405161123d9190613518565b60405180910390a15b5050565b606061125582611d30565b9050919050565b6000606a60008473ffffffffffffffffffffffffffffffffffffffff1673ffffffffffffffffffffffffffffffffffffffff16815260200190815260200160002060008373ffffffffffffffffffffffffffffffffffffffff1673ffffffffffffffffffffffffffffffffffffffff16815260200190815260200160002060009054906101000a900460ff16905092915050565b60007f01ffc9a7000000000000000000000000000000000000000000000000000000007bffffffffffffffffffffffffffffffffffffffffffffffffffffffff1916827bffffffffffffffffffffffffffffffffffffffffffffffffffffffff1916149050919050565b60008073ffffffffffffffffffffffffffffffffffffffff166067600084815260200190815260200160002060009054906101000a900473ffffffffffffffffffffffffffffffffffffffff1673ffffffffffffffffffffffffffffffffffffffff1614159050919050565b600033905090565b816069600083815260200190815260200160002060006101000a81548173ffffffffffffffffffffffffffffffffffffffff021916908373ffffffffffffffffffffffffffffffffffffffff160217905550808273ffffffffffffffffffffffffffffffffffffffff1661144183610e53565b73ffffffffffffffffffffffffffffffffffffffff167f8c5be1e5ebec7d5bd14f71427d1e84f3dd0314c0f7b2291e5b200ac8c7c3b92560405160405180910390a45050565b60006114928261135a565b6114d1576040517f08c379a00000000000000000000000000000000000000000000000000000000081526004016114c8906135a5565b60405180910390fd5b60006114dc83610e53565b90508073ffffffffffffffffffffffffffffffffffffffff168473ffffffffffffffffffffffffffffffffffffffff16148061151e575061151d818561125c565b5b8061155c57508373ffffffffffffffffffffffffffffffffffffffff16611544846105cd565b73ffffffffffffffffffffffffffffffffffffffff16145b91505092915050565b8273ffffffffffffffffffffffffffffffffffffffff1661158582610e53565b73ffffffffffffffffffffffffffffffffffffffff16146115db576040517f08c379a00000000000000000000000000000000000000000000000000000000081526004016115d290613637565b60405180910390fd5b600073ffffffffffffffffffffffffffffffffffffffff168273ffffffffffffffffffffffffffffffffffffffff16141561164b576040517f08c379a0000000000000000000000000000000000000000000000000000000008152600401611642906136c9565b60405180910390fd5b611656838383611e82565b6116616000826113ce565b6001606860008573ffffffffffffffffffffffffffffffffffffffff1673ffffffffffffffffffffffffffffffffffffffff16815260200190815260200160002060008282546116b191906131d0565b925050819055506001606860008473ffffffffffffffffffffffffffffffffffffffff1673ffffffffffffffffffffffffffffffffffffffff168152602001908152602001600020600082825461170891906130a2565b92505081905550816067600083815260200190815260200160002060006101000a81548173ffffffffffffffffffffffffffffffffffffffff021916908373ffffffffffffffffffffffffffffffffffffffff160217905550808273ffffffffffffffffffffffffffffffffffffffff168473ffffffffffffffffffffffffffffffffffffffff167fddf252ad1be2c89b69c2b068fc378daa952ba7f163c4a11628f55a4df523b3ef60405160405180910390a46117c7838383611f01565b505050565b600073ffffffffffffffffffffffffffffffffffffffff168273ffffffffffffffffffffffffffffffffffffffff16141561183c576040517f08c379a000000000000000000000000000000000000000000000000000000000815260040161183390613735565b60405180910390fd5b6118458161135a565b15611885576040517f08c379a000000000000000000000000000000000000000000000000000000000815260040161187c906137a1565b60405180910390fd5b61189160008383611e82565b6001606860008473ffffffffffffffffffffffffffffffffffffffff1673ffffffffffffffffffffffffffffffffffffffff16815260200190815260200160002060008282546118e191906130a2565b92505081905550816067600083815260200190815260200160002060006101000a81548173ffffffffffffffffffffffffffffffffffffffff021916908373ffffffffffffffffffffffffffffffffffffffff160217905550808273ffffffffffffffffffffffffffffffffffffffff16600073ffffffffffffffffffffffffffffffffffffffff167fddf252ad1be2c89b69c2b068fc378daa952ba7f163c4a11628f55a4df523b3ef60405160405180910390a46119a260008383611f01565b5050565b6119af8261135a565b6119ee576040517f08c379a00000000000000000000000000000000000000000000000000000000081526004016119e590613833565b60405180910390fd5b80609760008481526020019081526020016000209080519060200190611a1592919061239c565b505050565b8173ffffffffffffffffffffffffffffffffffffffff168373ffffffffffffffffffffffffffffffffffffffff161415611a89576040517f08c379a0000000000000000000000000000000000000000000000000000000008152600401611a809061389f565b60405180910390fd5b80606a60008573ffffffffffffffffffffffffffffffffffffffff1673ffffffffffffffffffffffffffffffffffffffff16815260200190815260200160002060008473ffffffffffffffffffffffffffffffffffffffff1673ffffffffffffffffffffffffffffffffffffffff16815260200190815260200160002060006101000a81548160ff0219169083151502179055508173ffffffffffffffffffffffffffffffffffffffff168373ffffffffffffffffffffffffffffffffffffffff167f17307eab39ab6107e8899845ad3d59bd9653f200f220920489ca2b5937696c3183604051611b7a91906124f3565b60405180910390a3505050565b611b92848484611565565b611b9e84848484611f06565b611bdd576040517f08c379a0000000000000000000000000000000000000000000000000000000008152600401611bd490613931565b60405180910390fd5b50505050565b60008060019054906101000a900460ff1615611c5a5760018260ff16148015611c125750611c103061209d565b155b611c51576040517f08c379a0000000000000000000000000000000000000000000000000000000008152600401611c48906139c3565b60405180910390fd5b60009050611cce565b8160ff1660008054906101000a900460ff1660ff1610611caf576040517f08c379a0000000000000000000000000000000000000000000000000000000008152600401611ca6906139c3565b60405180910390fd5b816000806101000a81548160ff021916908360ff160217905550600190505b919050565b600060019054906101000a900460ff16611d22576040517f08c379a0000000000000000000000000000000000000000000000000000000008152600401611d1990613a55565b60405180910390fd5b611d2c82826120c0565b5050565b6060611d3b8261135a565b611d7a576040517f08c379a0000000000000000000000000000000000000000000000000000000008152600401611d7190613ae7565b60405180910390fd5b6000609760008481526020019081526020016000208054611d9a90612d08565b80601f0160208091040260200160405190810160405280929190818152602001828054611dc690612d08565b8015611e135780601f10611de857610100808354040283529160200191611e13565b820191906000526020600020905b815481529060010190602001808311611df657829003601f168201915b505050505090506000611e24612141565b9050600081511415611e3a578192505050611e7d565b600082511115611e6f578082604051602001611e57929190613b43565b60405160208183030381529060405292505050611e7d565b611e7884612158565b925050505b919050565b600073ffffffffffffffffffffffffffffffffffffffff168373ffffffffffffffffffffffffffffffffffffffff1614611ef1576040517f08c379a0000000000000000000000000000000000000000000000000000000008152600401611ee890613bb3565b60405180910390fd5b611efc8383836121ff565b505050565b505050565b6000611f278473ffffffffffffffffffffffffffffffffffffffff1661209d565b15612090578373ffffffffffffffffffffffffffffffffffffffff1663150b7a02611f506113c6565b8786866040518563ffffffff1660e01b8152600401611f729493929190613c28565b602060405180830381600087803b158015611f8c57600080fd5b505af1925050508015611fbd57506040513d601f19601f82011682018060405250810190611fba9190613c89565b60015b612040573d8060008114611fed576040519150601f19603f3d011682016040523d82523d6000602084013e611ff2565b606091505b50600081511415612038576040517f08c379a000000000000000000000000000000000000000000000000000000000815260040161202f90613931565b60405180910390fd5b805181602001fd5b63150b7a0260e01b7bffffffffffffffffffffffffffffffffffffffffffffffffffffffff1916817bffffffffffffffffffffffffffffffffffffffffffffffffffffffff191614915050612095565b600190505b949350505050565b6000808273ffffffffffffffffffffffffffffffffffffffff163b119050919050565b600060019054906101000a900460ff1661210f576040517f08c379a000000000000000000000000000000000000000000000000000000000815260040161210690613a55565b60405180910390fd5b816065908051906020019061212592919061239c565b50806066908051906020019061213c92919061239c565b505050565b606060405180602001604052806000815250905090565b60606121638261135a565b6121a2576040517f08c379a000000000000000000000000000000000000000000000000000000000815260040161219990613d28565b60405180910390fd5b60006121ac612141565b905060008151116121cc57604051806020016040528060008152506121f7565b806121d684612204565b6040516020016121e7929190613b43565b6040516020818303038152906040525b915050919050565b505050565b6060600082141561224c576040518060400160405280600181526020017f30000000000000000000000000000000000000000000000000000000000000008152509050612360565b600082905060005b6000821461227e57808061226790613359565b915050600a826122779190613d77565b9150612254565b60008167ffffffffffffffff81111561229a57612299612751565b5b6040519080825280601f01601f1916602001820160405280156122cc5781602001600182028036833780820191505090505b5090505b60008514612359576001826122e591906131d0565b9150600a856122f49190613da8565b603061230091906130a2565b60f81b8183815181106123165761231561332a565b5b60200101907effffffffffffffffffffffffffffffffffffffffffffffffffffffffffffff1916908160001a905350600a856123529190613d77565b94506122d0565b8093505050505b919050565b60405180606001604052806000815260200160008152602001600073ffffffffffffffffffffffffffffffffffffffff1681525090565b8280546123a890612d08565b90600052602060002090601f0160209004810192826123ca5760008555612411565b82601f106123e357805160ff1916838001178555612411565b82800160010185558215612411579182015b828111156124105782518255916020019190600101906123f5565b5b50905061241e9190612422565b5090565b5b8082111561243b576000816000905550600101612423565b5090565b6000604051905090565b600080fd5b600080fd5b60007fffffffff0000000000000000000000000000000000000000000000000000000082169050919050565b61248881612453565b811461249357600080fd5b50565b6000813590506124a58161247f565b92915050565b6000602082840312156124c1576124c0612449565b5b60006124cf84828501612496565b91505092915050565b60008115159050919050565b6124ed816124d8565b82525050565b600060208201905061250860008301846124e4565b92915050565b600073ffffffffffffffffffffffffffffffffffffffff82169050919050565b60006125398261250e565b9050919050565b6125498161252e565b82525050565b60006020820190506125646000830184612540565b92915050565b600081519050919050565b600082825260208201905092915050565b60005b838110156125a4578082015181840152602081019050612589565b838111156125b3576000848401525b50505050565b6000601f19601f8301169050919050565b60006125d58261256a565b6125df8185612575565b93506125ef818560208601612586565b6125f8816125b9565b840191505092915050565b6000602082019050818103600083015261261d81846125ca565b905092915050565b6000819050919050565b61263881612625565b811461264357600080fd5b50565b6000813590506126558161262f565b92915050565b60006020828403121561267157612670612449565b5b600061267f84828501612646565b91505092915050565b6126918161252e565b811461269c57600080fd5b50565b6000813590506126ae81612688565b92915050565b600080604083850312156126cb576126ca612449565b5b60006126d98582860161269f565b92505060206126ea85828601612646565b9150509250929050565b60008060006060848603121561270d5761270c612449565b5b600061271b8682870161269f565b935050602061272c8682870161269f565b925050604061273d86828701612646565b9150509250925092565b600080fd5b600080fd5b7f4e487b7100000000000000000000000000000000000000000000000000000000600052604160045260246000fd5b612789826125b9565b810181811067ffffffffffffffff821117156127a8576127a7612751565b5b80604052505050565b60006127bb61243f565b90506127c78282612780565b919050565b600067ffffffffffffffff8211156127e7576127e6612751565b5b6127f0826125b9565b9050602081019050919050565b82818337600083830152505050565b600061281f61281a846127cc565b6127b1565b90508281526020810184848401111561283b5761283a61274c565b5b6128468482856127fd565b509392505050565b600082601f83011261286357612862612747565b5b813561287384826020860161280c565b91505092915050565b600080600080600060a0868803121561289857612897612449565b5b60006128a68882890161269f565b95505060206128b788828901612646565b94505060406128c888828901612646565b93505060606128d98882890161269f565b925050608086013567ffffffffffffffff8111156128fa576128f961244e565b5b6129068882890161284e565b9150509295509295909350565b61291c81612625565b82525050565b60006020820190506129376000830184612913565b92915050565b60008060006060848603121561295657612955612449565b5b60006129648682870161269f565b935050602061297586828701612646565b92505060406129868682870161269f565b9150509250925092565b6000602082840312156129a6576129a5612449565b5b60006129b48482850161269f565b91505092915050565b600081519050919050565b600082825260208201905092915050565b6000819050602082019050919050565b6129f281612625565b82525050565b6000612a0483836129e9565b60208301905092915050565b6000602082019050919050565b6000612a28826129bd565b612a3281856129c8565b9350612a3d836129d9565b8060005b83811015612a6e578151612a5588826129f8565b9750612a6083612a10565b925050600181019050612a41565b5085935050505092915050565b60006020820190508181036000830152612a958184612a1d565b905092915050565b612aa68161252e565b82525050565b606082016000820151612ac260008501826129e9565b506020820151612ad560208501826129e9565b506040820151612ae86040850182612a9d565b50505050565b6000606082019050612b036000830184612aac565b92915050565b612b12816124d8565b8114612b1d57600080fd5b50565b600081359050612b2f81612b09565b92915050565b60008060408385031215612b4c57612b4b612449565b5b6000612b5a8582860161269f565b9250506020612b6b85828601612b20565b9150509250929050565b600067ffffffffffffffff821115612b9057612b8f612751565b5b612b99826125b9565b9050602081019050919050565b6000612bb9612bb484612b75565b6127b1565b905082815260208101848484011115612bd557612bd461274c565b5b612be08482856127fd565b509392505050565b600082601f830112612bfd57612bfc612747565b5b8135612c0d848260208601612ba6565b91505092915050565b60008060008060808587031215612c3057612c2f612449565b5b6000612c3e8782880161269f565b9450506020612c4f8782880161269f565b9350506040612c6087828801612646565b925050606085013567ffffffffffffffff811115612c8157612c8061244e565b5b612c8d87828801612be8565b91505092959194509250565b60008060408385031215612cb057612caf612449565b5b6000612cbe8582860161269f565b9250506020612ccf8582860161269f565b9150509250929050565b7f4e487b7100000000000000000000000000000000000000000000000000000000600052602260045260246000fd5b60006002820490506001821680612d2057607f821691505b60208210811415612d3457612d33612cd9565b5b50919050565b7f4552433732313a20617070726f76656420717565727920666f72206e6f6e657860008201527f697374656e7420746f6b656e0000000000000000000000000000000000000000602082015250565b6000612d96602c83612575565b9150612da182612d3a565b604082019050919050565b60006020820190508181036000830152612dc581612d89565b9050919050565b7f4552433732313a20617070726f76616c20746f2063757272656e74206f776e6560008201527f7200000000000000000000000000000000000000000000000000000000000000602082015250565b6000612e28602183612575565b9150612e3382612dcc565b604082019050919050565b60006020820190508181036000830152612e5781612e1b565b9050919050565b7f4552433732313a20617070726f76652063616c6c6572206973206e6f74206f7760008201527f6e6572206e6f7220617070726f76656420666f7220616c6c0000000000000000602082015250565b6000612eba603883612575565b9150612ec582612e5e565b604082019050919050565b60006020820190508181036000830152612ee981612ead565b9050919050565b7f4552433732313a207472616e736665722063616c6c6572206973206e6f74206f60008201527f776e6572206e6f7220617070726f766564000000000000000000000000000000602082015250565b6000612f4c603183612575565b9150612f5782612ef0565b604082019050919050565b60006020820190508181036000830152612f7b81612f3f565b9050919050565b7f6e6f7420746865206f776e657200000000000000000000000000000000000000600082015250565b6000612fb8600d83612575565b9150612fc382612f82565b602082019050919050565b60006020820190508181036000830152612fe781612fab565b9050919050565b60008160601b9050919050565b600061300682612fee565b9050919050565b600061301882612ffb565b9050919050565b61303061302b8261252e565b61300d565b82525050565b6000613042828661301f565b601482019150613052828561301f565b601482019150613062828461301f565b601482019150819050949350505050565b7f4e487b7100000000000000000000000000000000000000000000000000000000600052601160045260246000fd5b60006130ad82612625565b91506130b883612625565b9250827fffffffffffffffffffffffffffffffffffffffffffffffffffffffffffffffff038211156130ed576130ec613073565b5b828201905092915050565b7f746f6b656e496420646f65736e27742065786973740000000000000000000000600082015250565b600061312e601583612575565b9150613139826130f8565b602082019050919050565b6000602082019050818103600083015261315d81613121565b9050919050565b7f696e73756666696369656e742062616c616e6365000000000000000000000000600082015250565b600061319a601483612575565b91506131a582613164565b602082019050919050565b600060208201905081810360008301526131c98161318d565b9050919050565b60006131db82612625565b91506131e683612625565b9250828210156131f9576131f8613073565b5b828203905092915050565b600067ffffffffffffffff82111561321f5761321e612751565b5b602082029050602081019050919050565b600080fd5b60008151905061324481612688565b92915050565b600061325d61325884613204565b6127b1565b905080838252602082019050602084028301858111156132805761327f613230565b5b835b818110156132a957806132958882613235565b845260208401935050602081019050613282565b5050509392505050565b600082601f8301126132c8576132c7612747565b5b81516132d884826020860161324a565b91505092915050565b6000602082840312156132f7576132f6612449565b5b600082015167ffffffffffffffff8111156133155761331461244e565b5b613321848285016132b3565b91505092915050565b7f4e487b7100000000000000000000000000000000000000000000000000000000600052603260045260246000fd5b600061336482612625565b91507fffffffffffffffffffffffffffffffffffffffffffffffffffffffffffffffff82141561339757613396613073565b5b600182019050919050565b7f4552433732313a206f776e657220717565727920666f72206e6f6e657869737460008201527f656e7420746f6b656e0000000000000000000000000000000000000000000000602082015250565b60006133fe602983612575565b9150613409826133a2565b604082019050919050565b6000602082019050818103600083015261342d816133f1565b9050919050565b7f4552433732313a2062616c616e636520717565727920666f7220746865207a6560008201527f726f206164647265737300000000000000000000000000000000000000000000602082015250565b6000613490602a83612575565b915061349b82613434565b604082019050919050565b600060208201905081810360008301526134bf81613483565b9050919050565b6000819050919050565b600060ff82169050919050565b6000819050919050565b60006135026134fd6134f8846134c6565b6134dd565b6134d0565b9050919050565b613512816134e7565b82525050565b600060208201905061352d6000830184613509565b92915050565b7f4552433732313a206f70657261746f7220717565727920666f72206e6f6e657860008201527f697374656e7420746f6b656e0000000000000000000000000000000000000000602082015250565b600061358f602c83612575565b915061359a82613533565b604082019050919050565b600060208201905081810360008301526135be81613582565b9050919050565b7f4552433732313a207472616e736665722066726f6d20696e636f72726563742060008201527f6f776e6572000000000000000000000000000000000000000000000000000000602082015250565b6000613621602583612575565b915061362c826135c5565b604082019050919050565b6000602082019050818103600083015261365081613614565b9050919050565b7f4552433732313a207472616e7366657220746f20746865207a65726f2061646460008201527f7265737300000000000000000000000000000000000000000000000000000000602082015250565b60006136b3602483612575565b91506136be82613657565b604082019050919050565b600060208201905081810360008301526136e2816136a6565b9050919050565b7f4552433732313a206d696e7420746f20746865207a65726f2061646472657373600082015250565b600061371f602083612575565b915061372a826136e9565b602082019050919050565b6000602082019050818103600083015261374e81613712565b9050919050565b7f4552433732313a20746f6b656e20616c7265616479206d696e74656400000000600082015250565b600061378b601c83612575565b915061379682613755565b602082019050919050565b600060208201905081810360008301526137ba8161377e565b9050919050565b7f45524337323155524953746f726167653a2055524920736574206f66206e6f6e60008201527f6578697374656e7420746f6b656e000000000000000000000000000000000000602082015250565b600061381d602e83612575565b9150613828826137c1565b604082019050919050565b6000602082019050818103600083015261384c81613810565b9050919050565b7f4552433732313a20617070726f766520746f2063616c6c657200000000000000600082015250565b6000613889601983612575565b915061389482613853565b602082019050919050565b600060208201905081810360008301526138b88161387c565b9050919050565b7f4552433732313a207472616e7366657220746f206e6f6e20455243373231526560008201527f63656976657220696d706c656d656e7465720000000000000000000000000000602082015250565b600061391b603283612575565b9150613926826138bf565b604082019050919050565b6000602082019050818103600083015261394a8161390e565b9050919050565b7f496e697469616c697a61626c653a20636f6e747261637420697320616c72656160008201527f647920696e697469616c697a6564000000000000000000000000000000000000602082015250565b60006139ad602e83612575565b91506139b882613951565b604082019050919050565b600060208201905081810360008301526139dc816139a0565b9050919050565b7f496e697469616c697a61626c653a20636f6e7472616374206973206e6f74206960008201527f6e697469616c697a696e67000000000000000000000000000000000000000000602082015250565b6000613a3f602b83612575565b9150613a4a826139e3565b604082019050919050565b60006020820190508181036000830152613a6e81613a32565b9050919050565b7f45524337323155524953746f726167653a2055524920717565727920666f722060008201527f6e6f6e6578697374656e7420746f6b656e000000000000000000000000000000602082015250565b6000613ad1603183612575565b9150613adc82613a75565b604082019050919050565b60006020820190508181036000830152613b0081613ac4565b9050919050565b600081905092915050565b6000613b1d8261256a565b613b278185613b07565b9350613b37818560208601612586565b80840191505092915050565b6000613b4f8285613b12565b9150613b5b8284613b12565b91508190509392505050565b7f6e6f6e2d7472616e736665727261626c65000000000000000000000000000000600082015250565b6000613b9d601183612575565b9150613ba882613b67565b602082019050919050565b60006020820190508181036000830152613bcc81613b90565b9050919050565b600081519050919050565b600082825260208201905092915050565b6000613bfa82613bd3565b613c048185613bde565b9350613c14818560208601612586565b613c1d816125b9565b840191505092915050565b6000608082019050613c3d6000830187612540565b613c4a6020830186612540565b613c576040830185612913565b8181036060830152613c698184613bef565b905095945050505050565b600081519050613c838161247f565b92915050565b600060208284031215613c9f57613c9e612449565b5b6000613cad84828501613c74565b91505092915050565b7f4552433732314d657461646174613a2055524920717565727920666f72206e6f60008201527f6e6578697374656e7420746f6b656e0000000000000000000000000000000000602082015250565b6000613d12602f83612575565b9150613d1d82613cb6565b604082019050919050565b60006020820190508181036000830152613d4181613d05565b9050919050565b7f4e487b7100000000000000000000000000000000000000000000000000000000600052601260045260246000fd5b6000613d8282612625565b9150613d8d83612625565b925082613d9d57613d9c613d48565b5b828204905092915050565b6000613db382612625565b9150613dbe83612625565b925082613dce57613dcd613d48565b5b82820690509291505056fea264697066735822122050ad6a11410d3d96abca24d2494a0d1d61a14c5ba005c9a0ab65758137e4f1a964736f6c63430008090033",
  "immutableReferences": {},
  "source": "// SPDX-License-Identifier: AGPL-3.0\npragma solidity 0.8.9;\n\nimport { IERC20} from './interfaces/other/IERC20.sol';\nimport { IPool} from './interfaces/aave/IPool.sol';\nimport { IPoolAddressesProvider} from './interfaces/aave/IPoolAddressesProvider.sol';\nimport { IWETHGateway} from './interfaces/aave/IWETHGateway.sol';\nimport { IJustCausePool } from './interfaces/protocol/IJustCausePool.sol';\nimport { IJCDepositorERC721 } from './interfaces/protocol/IJCDepositorERC721.sol';\nimport { JCDepositorERC721 } from './JCDepositorERC721.sol';\nimport { JustCausePool } from './JustCausePool.sol';\n\nimport \"@openzeppelin/contracts/security/ReentrancyGuard.sol\";\n\n/**\n * @title PoolTracker contract\n * @author JustCause\n * @notice Main point of interaction with JustCause Protocol\n * This is a proof of concept starter contract for lossless donations\n *\n * Aave v3 is used to generate interest for crowdfunding\n *\n * PoolTracker contract controls deposit calls to Aave to make\n * approvals needed only once per token. Calls JustCause Pools for\n * withdrawals and claims\n *\n * Controls Owner/Contributor NFT creation and updates for deposits/withdrawals\n *\n * Controls JustCause Pool creation with proxy contracts\n *\n * @dev Deposits, withdraws, and claims for Aave Pools\n * @dev Generate ERC721 token\n **/\n\ncontract PoolTracker is ReentrancyGuard {\n\n    JustCausePool baseJCPool;\n    JCDepositorERC721 baseERC721;\n\n    //contract addresses will point to bool if they exist\n    mapping(address => bool) private isPool;\n    mapping(string => address) private names;\n    mapping(address => uint256) private tvl;\n    mapping(address => uint256) private totalDonated;\n    mapping(address => address[]) private contributors;\n    mapping(address => address[]) private receivers;\n    address[] private verifiedPools;\n    uint256[5] private fees;\n    uint256 bpFee;\n    address constant MULTI_SIG = address(0x78726673245fdb56425c8bd782f6FaA3E447625A);\n\n    address poolAddr;\n    address wethGatewayAddr;\n\n    event AddPool(address pool, string name, address receiver);\n    event AddDeposit(address userAddr, address pool, address asset, uint256 amount);\n    event WithdrawDeposit(address userAddr, address pool, address asset, uint256 amount);\n    event Claim(address userAddr, address receiver, address pool, address asset, uint256 amount);\n    event Test(address[] aaveAccepted, address[] causeAccepted );\n\n    /**\n    * @dev Only address that are a pool can be passed to functions marked by this modifier.\n    **/\n    modifier onlyPools(address _pool){\n        require(isPool[_pool], \"not pool\");\n        _;\n    }\n\n    /**\n    * @dev Only tokens that are accepted by Aave can be used in JCP creation\n    **/\n    modifier onlyAcceptedTokens(address[] memory causeAcceptedTokens){\n        address[] memory aaveAcceptedTokens = IPool(poolAddr).getReservesList();\n        for(uint8 i = 0; i < causeAcceptedTokens.length; i++){\n            bool found;\n            for(uint8 j = 0; j < aaveAcceptedTokens.length; j++){\n                if(causeAcceptedTokens[i] == aaveAcceptedTokens[j]){\n                    found = true;\n                }\n            }\n            require(found, \"tokens not approved\");\n        }\n        _;\n    }\n\n    /**\n    * @dev Only tokens that are accepted by Aave can be passed to functions marked by this modifier.\n    **/\n    modifier onlyAcceptedToken(address _asset){\n        address[] memory aaveAcceptedTokens = IPool(poolAddr).getReservesList();\n        bool found;\n        for(uint8 j = 0; j < aaveAcceptedTokens.length; j++){\n            if(_asset == aaveAcceptedTokens[j]){\n                found = true;\n            }\n        }\n        require(found, \"token not approved\");\n        _;\n    }\n\n    /**\n    * @dev Only multisig can call functions marked by this modifier.\n    **/\n    modifier onlyMultiSig(){\n        require(MULTI_SIG == msg.sender, \"not the multi_sig\");\n        _;\n    }\n\n\n    /**\n    * @dev Constructor.\n    */\n    constructor (address _poolAddressesProviderAddr, address _wethGatewayAddr) {\n        baseJCPool = new JustCausePool();\n        baseERC721 = new JCDepositorERC721();\n\n        poolAddr = IPoolAddressesProvider(_poolAddressesProviderAddr).getPool();\n        wethGatewayAddr = address(_wethGatewayAddr);\n\n        fees = [0, 10, 20, 30, 40];\n        bpFee = fees[2];\n    }\n\n    /**\n    * @dev Emit AddDeposit\n    * @param _asset The address of the underlying asset of the reserve\n    * @param _amount The amount of supplied assets\n    * @param _pool address of JCP\n    * @param _isETH bool indicating if asset is the base token of network (eth/matic/...)\n    **/\n    function addDeposit(\n        uint256 _amount,\n        address _asset,\n        address _pool,\n        bool _isETH\n    ) onlyPools(_pool) nonReentrant() external payable {\n        tvl[_asset] += _amount;\n        string memory _metaHash = IJustCausePool(_pool).getMetaUri();\n        address _poolAddr = poolAddr;\n        if(_isETH){\n            require(IWETHGateway(wethGatewayAddr).getWETHAddress() == _asset, \"asset does not match WETHGateway\");\n            require(msg.value > 0, \"msg.value cannot be zero\");\n            IWETHGateway(wethGatewayAddr).depositETH{value: msg.value}(_poolAddr, _pool, 0);\n        }\n        else {\n            require(msg.value == 0, \"msg.value is not zero\");\n            IERC20 token = IERC20(_asset);\n            require(token.allowance(msg.sender, address(this)) >= _amount, \"sender not approved\");\n            token.transferFrom(msg.sender, address(this), _amount);\n            token.approve(_poolAddr, _amount);\n            IPool(_poolAddr).deposit(address(token), _amount, _pool, 0);\n        }\n        IJustCausePool(_pool).deposit(_asset, _amount);\n        bool isFirstDeposit = IJCDepositorERC721(IJustCausePool(_pool).getERC721Address()).addFunds(msg.sender, _amount, block.timestamp, _asset, _metaHash);\n        if(isFirstDeposit){\n            contributors[msg.sender].push(_pool);\n        }\n        emit AddDeposit(msg.sender, _pool, _asset, _amount);\n    }\n\n    /**\n    * @dev Emit WithdrawDeposit\n    * @param _asset The address of the underlying asset of the reserve\n    * @param _amount The amount of withdraw assets\n    * @param _pool address of JCP\n    * @param _isETH bool indicating if asset is the base token of network (eth/matic/...)\n    **/\n    function withdrawDeposit(\n        uint256 _amount,\n        address _asset,\n        address _pool,\n        bool _isETH\n    ) external  onlyPools(_pool) nonReentrant(){\n\n        tvl[_asset] -= _amount;\n        IJCDepositorERC721(IJustCausePool(_pool).getERC721Address()).withdrawFunds(msg.sender, _amount, _asset);\n        IJustCausePool(_pool).withdraw(_asset, _amount, msg.sender, _isETH);\n        emit WithdrawDeposit(msg.sender, _pool, _asset, _amount);\n    }\n\n    /**\n    * @dev Emit Claim\n    * @param _asset The address of the underlying asset of the reserve\n    * @param _pool address of JCP\n    * @param _isETH bool indicating if asset is the base token of network (eth/matic/...)\n    **/\n    function claimInterest(\n        address _asset,\n        address _pool,\n        bool _isETH\n    ) external onlyPools(_pool) nonReentrant() onlyAcceptedToken(_asset){\n\n        uint256 amount = IJustCausePool(_pool).withdrawDonations(_asset, MULTI_SIG, _isETH, bpFee);\n        totalDonated[_asset] += amount;\n        emit Claim(msg.sender, IJustCausePool(_pool).getRecipient(), _pool, _asset, amount);\n    }\n\n    /**\n     * @param basePool address of base contract\n     * @return instance proxy instance of JCP\n     * @dev Deploys and returns the address of a clone that mimics the behaviour of `implementation`.\n     *\n     * This function uses the create opcode, which should never revert.\n     *\n     * from OpenZeppelin Contracts v4.4.1 (proxy/Clones.sol)\n     **/\n    function clone(address basePool) internal returns (address instance) {\n        assembly {\n            let ptr := mload(0x40)\n            mstore(ptr, 0x3d602d80600a3d3981f3363d3d373d3d3d363d73000000000000000000000000)\n            mstore(add(ptr, 0x14), shl(0x60, basePool))\n            mstore(add(ptr, 0x28), 0x5af43d82803e903d91602b57fd5bf30000000000000000000000000000000000)\n            instance := create(0, ptr, 0x37)\n        }\n        require(instance != address(0), \"ERC1167: create failed\");\n    }\n\n    /**\n    * @dev Emit AddPool\n    * @notice Creates new JustCausePool and JCDepositorERC721 by proxy contract.\n    * @param _acceptedTokens List of tokens to be accepted by JCP.\n    * @param _name String name of JCP.\n    * @param _about ipfs hash of pool description of JCP.\n    * @param _picHash ipfs hash of pic of JCP.\n    * @param _metaUri meta info uri for nft of JCP.\n    * @param _receiver address of receiver of JCP donations.\n    **/\n    function createJCPoolClone(\n        address[] memory _acceptedTokens,\n        string memory _name,\n        string memory _about,\n        string memory _picHash,\n        string memory _metaUri,\n        address _receiver\n    ) external onlyAcceptedTokens(_acceptedTokens){\n\n        require(names[_name] == address(0), \"pool with name already exists\");\n        address jcpChild = clone(address(baseJCPool));\n        address erc721Child = clone(address(baseERC721));\n        bool isVerified;\n        if(msg.sender == MULTI_SIG){\n            verifiedPools.push(jcpChild);\n            isVerified = true;\n        }\n\n        IJustCausePool(jcpChild).initialize(_acceptedTokens, _name, _about, _picHash, _metaUri, _receiver, poolAddr, wethGatewayAddr, erc721Child, isVerified);\n        IJCDepositorERC721(erc721Child).initialize(jcpChild);\n        receivers[_receiver].push(jcpChild);\n        names[_name] =  jcpChild;\n\n        isPool[jcpChild] = true;\n        emit AddPool(jcpChild, _name, _receiver);\n    }\n\n    /**\n    * @param feeKey accepts 0 - 4 as keys to set the fixed rate of fees\n    **/\n    function setBasePointFee(uint256 feeKey) public onlyMultiSig() {\n        bpFee = fees[feeKey];\n    }\n\n    /**\n    * @return bpFee current bpFee\n    **/\n    function getBpFee() public view onlyMultiSig() returns(uint256) {\n        return bpFee;\n    }\n\n    /**\n    * @param _asset The address of the underlying asset of the reserve\n    * @return tvl of the protocol for a given asset\n    **/\n    function getTVL(address _asset) public view returns(uint256){\n        return tvl[_asset];\n    }\n\n    /**\n    * @param _asset The address of the underlying asset of the reserve\n    * @return totalDonation claimed donation for a given asset\n    **/\n    function getTotalDonated(address _asset) public view returns(uint256){\n        return totalDonated[_asset];\n    }\n\n    /**\n    * @return address of ERC721 for depositors, created on deployment\n    **/\n    function getDepositorERC721Address() public view returns(address){\n        return address(baseERC721);\n    }\n\n    /**\n    * @param _user address to check for receiver\n    * @return address[] of pools that a user is a receiver for\n    **/\n    function getReceiverPools(address _user) public view returns(address[] memory){\n        return receivers[_user];\n    }\n\n    /**\n    * @return address of multi_sig\n    **/\n    function getMultiSig() public pure returns(address){\n        return MULTI_SIG;\n    }\n\n    /**\n    * @param _user The address of the underlying asset of the reserve\n    * @return address[] of pools\n    **/\n    function getContributions(address _user) public view returns(address[] memory){\n        return contributors[_user];\n    }\n\n    /**\n    * @return address of aave pool\n    **/\n    function getPoolAddr() public view returns(address){\n        return poolAddr;\n    }\n\n    /**\n    * @return address array of aave reserve list\n    **/\n    function getReservesList() public view returns(address[] memory){\n        return IPool(poolAddr).getReservesList();\n    }\n\n    /**\n    * @return address of base JCP, created on deployment\n    **/\n    function getBaseJCPoolAddress() public view returns(address){\n        return address(baseJCPool);\n    }\n\n    /**\n    * @return list of verified pools\n    **/\n    function getVerifiedPools() public view returns(address[] memory){\n        return verifiedPools;\n    }\n\n    /**\n    * @param _pool address of pool\n    * @return true if pool address exists\n    **/\n    function checkPool(address _pool) public view returns(bool){\n        return isPool[_pool];\n    }\n\n    /**\n    * @param _name string name of pool\n    * @return pool address of a given pool name\n    **/\n    function getAddressFromName(string memory _name) external view returns(address){\n        return names[_name];\n    }\n}",
  "sourcePath": "/home/smeee/just_cause/contracts/polygon/PoolTracker.sol",
  "compiler": {
    "name": "solc",
    "version": "0.8.9+commit.e5eed63a.Emscripten.clang"
  },
  "schemaVersion": "3.4.7",
  "updatedAt": "2022-06-24T03:16:53.629Z",
  "devdoc": {
    "author": "JustCause",
    "details": "Deposits, withdraws, and claims for Aave PoolsGenerate ERC721 token*",
    "kind": "dev",
    "methods": {
      "addDeposit(uint256,address,address,bool)": {
        "details": "Emit AddDeposit",
        "params": {
          "_amount": "The amount of supplied assets",
          "_asset": "The address of the underlying asset of the reserve",
          "_isETH": "bool indicating if asset is the base token of network (eth/matic/...)*",
          "_pool": "address of JCP"
        }
      },
      "checkPool(address)": {
        "params": {
          "_pool": "address of pool"
        },
        "returns": {
          "_0": "true if pool address exists*"
        }
      },
      "claimInterest(address,address,bool)": {
        "details": "Emit Claim",
        "params": {
          "_asset": "The address of the underlying asset of the reserve",
          "_isETH": "bool indicating if asset is the base token of network (eth/matic/...)*",
          "_pool": "address of JCP"
        }
      },
      "constructor": {
        "details": "Constructor."
      },
      "createJCPoolClone(address[],string,string,string,string,address)": {
        "details": "Emit AddPool",
        "params": {
          "_about": "ipfs hash of pool description of JCP.",
          "_acceptedTokens": "List of tokens to be accepted by JCP.",
          "_metaUri": "meta info uri for nft of JCP.",
          "_name": "String name of JCP.",
          "_picHash": "ipfs hash of pic of JCP.",
          "_receiver": "address of receiver of JCP donations.*"
        }
      },
      "getAddressFromName(string)": {
        "params": {
          "_name": "string name of pool"
        },
        "returns": {
          "_0": "pool address of a given pool name*"
        }
      },
      "getBaseJCPoolAddress()": {
        "returns": {
          "_0": "address of base JCP, created on deployment*"
        }
      },
      "getBpFee()": {
        "returns": {
          "_0": "bpFee current bpFee*"
        }
      },
      "getContributions(address)": {
        "params": {
          "_user": "The address of the underlying asset of the reserve"
        },
        "returns": {
          "_0": "address[] of pools*"
        }
      },
      "getDepositorERC721Address()": {
        "returns": {
          "_0": "address of ERC721 for depositors, created on deployment*"
        }
      },
      "getMultiSig()": {
        "returns": {
          "_0": "address of multi_sig*"
        }
      },
      "getPoolAddr()": {
        "returns": {
          "_0": "address of aave pool*"
        }
      },
      "getReceiverPools(address)": {
        "params": {
          "_user": "address to check for receiver"
        },
        "returns": {
          "_0": "address[] of pools that a user is a receiver for*"
        }
      },
      "getReservesList()": {
        "returns": {
          "_0": "address array of aave reserve list*"
        }
      },
      "getTVL(address)": {
        "params": {
          "_asset": "The address of the underlying asset of the reserve"
        },
        "returns": {
          "_0": "tvl of the protocol for a given asset*"
        }
      },
      "getTotalDonated(address)": {
        "params": {
          "_asset": "The address of the underlying asset of the reserve"
        },
        "returns": {
          "_0": "totalDonation claimed donation for a given asset*"
        }
      },
      "getVerifiedPools()": {
        "returns": {
          "_0": "list of verified pools*"
        }
      },
      "setBasePointFee(uint256)": {
        "params": {
          "feeKey": "accepts 0 - 4 as keys to set the fixed rate of fees*"
        }
      },
      "withdrawDeposit(uint256,address,address,bool)": {
        "details": "Emit WithdrawDeposit",
        "params": {
          "_amount": "The amount of withdraw assets",
          "_asset": "The address of the underlying asset of the reserve",
          "_isETH": "bool indicating if asset is the base token of network (eth/matic/...)*",
          "_pool": "address of JCP"
        }
      }
    },
    "title": "PoolTracker contract",
    "version": 1
  },
  "userdoc": {
    "kind": "user",
    "methods": {
      "createJCPoolClone(address[],string,string,string,string,address)": {
        "notice": "Creates new JustCausePool and JCDepositorERC721 by proxy contract."
      }
    },
    "notice": "Main point of interaction with JustCause Protocol This is a proof of concept starter contract for lossless donations Aave v3 is used to generate interest for crowdfunding PoolTracker contract controls deposit calls to Aave to make approvals needed only once per token. Calls JustCause Pools for withdrawals and claims Controls Owner/Contributor NFT creation and updates for deposits/withdrawals Controls JustCause Pool creation with proxy contracts",
    "version": 1
  }
}