{
  "contractName": "PoolTracker",
  "abi": [
    {
      "anonymous": false,
      "inputs": [
        {
          "indexed": false,
          "internalType": "address",
          "name": "_userAddr",
          "type": "address"
        },
        {
          "indexed": false,
          "internalType": "address",
          "name": "_pool",
          "type": "address"
        }
      ],
      "name": "AddDeposit",
      "type": "event"
    },
    {
      "anonymous": false,
      "inputs": [
        {
          "indexed": false,
          "internalType": "address",
          "name": "addressToAdd",
          "type": "address"
        }
      ],
      "name": "AddVerifiedPools",
      "type": "event"
    },
    {
      "anonymous": false,
      "inputs": [
        {
          "indexed": false,
          "internalType": "address",
          "name": "sentBy",
          "type": "address"
        }
      ],
      "name": "MessageSentBy",
      "type": "event"
    },
    {
      "anonymous": false,
      "inputs": [
        {
          "indexed": false,
          "internalType": "address",
          "name": "_owner",
          "type": "address"
        },
        {
          "indexed": false,
          "internalType": "address",
          "name": "_pool",
          "type": "address"
        }
      ],
      "name": "OwnerAddress",
      "type": "event"
    },
    {
      "anonymous": false,
      "inputs": [
        {
          "indexed": false,
          "internalType": "address",
          "name": "_userAddr",
          "type": "address"
        },
        {
          "indexed": false,
          "internalType": "address",
          "name": "_pool",
          "type": "address"
        }
      ],
      "name": "WithdrawDeposit",
      "type": "event"
    },
    {
      "inputs": [
        {
          "internalType": "address",
          "name": "_userAddr",
          "type": "address"
        },
        {
          "internalType": "address",
          "name": "_pool",
          "type": "address"
        }
      ],
      "name": "addDeposit",
      "outputs": [],
      "stateMutability": "nonpayable",
      "type": "function"
    },
    {
      "inputs": [
        {
          "internalType": "address",
          "name": "_userAddr",
          "type": "address"
        },
        {
          "internalType": "address",
          "name": "_pool",
          "type": "address"
        }
      ],
      "name": "withdrawDeposit",
      "outputs": [],
      "stateMutability": "nonpayable",
      "type": "function"
    },
    {
      "inputs": [
        {
          "internalType": "address",
          "name": "_pool",
          "type": "address"
        },
        {
          "internalType": "address",
          "name": "_owner",
          "type": "address"
        },
        {
          "internalType": "string",
          "name": "_name",
          "type": "string"
        }
      ],
      "name": "addVerifiedPools",
      "outputs": [],
      "stateMutability": "nonpayable",
      "type": "function"
    },
    {
      "inputs": [],
      "name": "getVerifiedPools",
      "outputs": [
        {
          "internalType": "address[]",
          "name": "",
          "type": "address[]"
        }
      ],
      "stateMutability": "view",
      "type": "function",
      "constant": true
    },
    {
      "inputs": [
        {
          "internalType": "address",
          "name": "_userAddr",
          "type": "address"
        }
      ],
      "name": "getUserDeposits",
      "outputs": [
        {
          "internalType": "address[]",
          "name": "",
          "type": "address[]"
        }
      ],
      "stateMutability": "view",
      "type": "function",
      "constant": true
    },
    {
      "inputs": [
        {
          "internalType": "address",
          "name": "_userAddr",
          "type": "address"
        }
      ],
      "name": "getUserOwned",
      "outputs": [
        {
          "internalType": "address[]",
          "name": "",
          "type": "address[]"
        }
      ],
      "stateMutability": "view",
      "type": "function",
      "constant": true
    },
    {
      "inputs": [
        {
          "internalType": "string",
          "name": "name",
          "type": "string"
        }
      ],
      "name": "getAddressFromName",
      "outputs": [
        {
          "internalType": "address",
          "name": "",
          "type": "address"
        }
      ],
      "stateMutability": "view",
      "type": "function",
      "constant": true
    },
    {
      "inputs": [
        {
          "internalType": "address",
          "name": "pool",
          "type": "address"
        }
      ],
      "name": "checkByteCode",
      "outputs": [
        {
          "internalType": "bool",
          "name": "",
          "type": "bool"
        }
      ],
      "stateMutability": "view",
      "type": "function",
      "constant": true
    }
  ],
  "bytecode": "0x608060405234801561001057600080fd5b5061130b806100206000396000f3fe608060405234801561001057600080fd5b50600436106100885760003560e01c806345cdf6421161005b57806345cdf64214610125578063748d6829146101415780638e61514e14610171578063b63ae6ee146101a157610088565b80631c1f905f1461008d5780632a5bf6d2146100bd5780632f1c563e146100ed5780633be273d614610109575b600080fd5b6100a760048036038101906100a29190610c6d565b6101bf565b6040516100b49190610d58565b60405180910390f35b6100d760048036038101906100d29190610c6d565b61028c565b6040516100e49190610d58565b60405180910390f35b61010760048036038101906101029190610d7a565b610359565b005b610123600480360381019061011e9190610d7a565b6104fa565b005b61013f600480360381019061013a9190610f00565b61090a565b005b61015b60048036038101906101569190610c6d565b610ac6565b6040516101689190610f8a565b60405180910390f35b61018b60048036038101906101869190610fa5565b610b63565b6040516101989190610ffd565b60405180910390f35b6101a9610b6d565b6040516101b69190610d58565b60405180910390f35b6060600260008373ffffffffffffffffffffffffffffffffffffffff1673ffffffffffffffffffffffffffffffffffffffff16815260200190815260200160002080548060200260200160405190810160405280929190818152602001828054801561028057602002820191906000526020600020905b8160009054906101000a900473ffffffffffffffffffffffffffffffffffffffff1673ffffffffffffffffffffffffffffffffffffffff1681526020019060010190808311610236575b50505050509050919050565b6060600160008373ffffffffffffffffffffffffffffffffffffffff1673ffffffffffffffffffffffffffffffffffffffff16815260200190815260200160002080548060200260200160405190810160405280929190818152602001828054801561034d57602002820191906000526020600020905b8160009054906101000a900473ffffffffffffffffffffffffffffffffffffffff1673ffffffffffffffffffffffffffffffffffffffff1681526020019060010190808311610303575b50505050509050919050565b336000808273ffffffffffffffffffffffffffffffffffffffff1673ffffffffffffffffffffffffffffffffffffffff16815260200190815260200160002060009054906101000a900460ff166103e5576040517f08c379a00000000000000000000000000000000000000000000000000000000081526004016103dc9061109b565b60405180910390fd5b600160008473ffffffffffffffffffffffffffffffffffffffff1673ffffffffffffffffffffffffffffffffffffffff168152602001908152602001600020829080600181540180825580915050600190039060005260206000200160009091909190916101000a81548173ffffffffffffffffffffffffffffffffffffffff021916908373ffffffffffffffffffffffffffffffffffffffff1602179055507f81ba5b8ff9dd8503225df558117e2e7640a87c53418ab08237ad375c563a0dc383836040516104b69291906110bb565b60405180910390a17f274a386c22eb451962fea0499160d84da47852595d890c0d38b3e63fdd3867c0336040516104ed9190610ffd565b60405180910390a1505050565b336000808273ffffffffffffffffffffffffffffffffffffffff1673ffffffffffffffffffffffffffffffffffffffff16815260200190815260200160002060009054906101000a900460ff16610586576040517f08c379a000000000000000000000000000000000000000000000000000000000815260040161057d9061109b565b60405180910390fd5b60005b60018060008673ffffffffffffffffffffffffffffffffffffffff1673ffffffffffffffffffffffffffffffffffffffff168152602001908152602001600020805490506105d7919061111d565b8160ff161015610810578273ffffffffffffffffffffffffffffffffffffffff16600160008673ffffffffffffffffffffffffffffffffffffffff1673ffffffffffffffffffffffffffffffffffffffff1681526020019081526020016000208260ff168154811061064c5761064b611151565b5b9060005260206000200160009054906101000a900473ffffffffffffffffffffffffffffffffffffffff1673ffffffffffffffffffffffffffffffffffffffff1614156107fd57600160008573ffffffffffffffffffffffffffffffffffffffff1673ffffffffffffffffffffffffffffffffffffffff16815260200190815260200160002060018060008773ffffffffffffffffffffffffffffffffffffffff1673ffffffffffffffffffffffffffffffffffffffff16815260200190815260200160002080549050610720919061111d565b8154811061073157610730611151565b5b9060005260206000200160009054906101000a900473ffffffffffffffffffffffffffffffffffffffff16600160008673ffffffffffffffffffffffffffffffffffffffff1673ffffffffffffffffffffffffffffffffffffffff1681526020019081526020016000208260ff16815481106107b0576107af611151565b5b9060005260206000200160006101000a81548173ffffffffffffffffffffffffffffffffffffffff021916908373ffffffffffffffffffffffffffffffffffffffff160217905550610810565b80806108089061118d565b915050610589565b50600160008473ffffffffffffffffffffffffffffffffffffffff1673ffffffffffffffffffffffffffffffffffffffff1681526020019081526020016000208054806108605761085f6111b7565b5b6001900381819060005260206000200160006101000a81549073ffffffffffffffffffffffffffffffffffffffff021916905590557f96d37d4b9d9073b00191d43144d238a504757ba440e7708b7bad98762e32d40c83836040516108c69291906110bb565b60405180910390a17f274a386c22eb451962fea0499160d84da47852595d890c0d38b3e63fdd3867c0336040516108fd9190610ffd565b60405180910390a1505050565b8260038260405161091b9190611260565b908152602001604051809103902060006101000a81548173ffffffffffffffffffffffffffffffffffffffff021916908373ffffffffffffffffffffffffffffffffffffffff1602179055506004839080600181540180825580915050600190039060005260206000200160009091909190916101000a81548173ffffffffffffffffffffffffffffffffffffffff021916908373ffffffffffffffffffffffffffffffffffffffff160217905550600260008373ffffffffffffffffffffffffffffffffffffffff1673ffffffffffffffffffffffffffffffffffffffff168152602001908152602001600020839080600181540180825580915050600190039060005260206000200160009091909190916101000a81548173ffffffffffffffffffffffffffffffffffffffff021916908373ffffffffffffffffffffffffffffffffffffffff16021790555060016000808573ffffffffffffffffffffffffffffffffffffffff1673ffffffffffffffffffffffffffffffffffffffff16815260200190815260200160002060006101000a81548160ff021916908315150217905550505050565b6000807f69e8ff0e7c2b29468c452ea99c81161f9d6137447623140dc2714549e6014d9660001b9050600060019050818473ffffffffffffffffffffffffffffffffffffffff16803b806020016040519081016040528181526000908060200190933c604051602001610b3991906112be565b6040516020818303038152906040528051906020012014610b5957600090505b8092505050919050565b6000309050919050565b60606004805480602002602001604051908101604052809291908181526020018280548015610bf157602002820191906000526020600020905b8160009054906101000a900473ffffffffffffffffffffffffffffffffffffffff1673ffffffffffffffffffffffffffffffffffffffff1681526020019060010190808311610ba7575b5050505050905090565b6000604051905090565b600080fd5b600080fd5b600073ffffffffffffffffffffffffffffffffffffffff82169050919050565b6000610c3a82610c0f565b9050919050565b610c4a81610c2f565b8114610c5557600080fd5b50565b600081359050610c6781610c41565b92915050565b600060208284031215610c8357610c82610c05565b5b6000610c9184828501610c58565b91505092915050565b600081519050919050565b600082825260208201905092915050565b6000819050602082019050919050565b610ccf81610c2f565b82525050565b6000610ce18383610cc6565b60208301905092915050565b6000602082019050919050565b6000610d0582610c9a565b610d0f8185610ca5565b9350610d1a83610cb6565b8060005b83811015610d4b578151610d328882610cd5565b9750610d3d83610ced565b925050600181019050610d1e565b5085935050505092915050565b60006020820190508181036000830152610d728184610cfa565b905092915050565b60008060408385031215610d9157610d90610c05565b5b6000610d9f85828601610c58565b9250506020610db085828601610c58565b9150509250929050565b600080fd5b600080fd5b6000601f19601f8301169050919050565b7f4e487b7100000000000000000000000000000000000000000000000000000000600052604160045260246000fd5b610e0d82610dc4565b810181811067ffffffffffffffff82111715610e2c57610e2b610dd5565b5b80604052505050565b6000610e3f610bfb565b9050610e4b8282610e04565b919050565b600067ffffffffffffffff821115610e6b57610e6a610dd5565b5b610e7482610dc4565b9050602081019050919050565b82818337600083830152505050565b6000610ea3610e9e84610e50565b610e35565b905082815260208101848484011115610ebf57610ebe610dbf565b5b610eca848285610e81565b509392505050565b600082601f830112610ee757610ee6610dba565b5b8135610ef7848260208601610e90565b91505092915050565b600080600060608486031215610f1957610f18610c05565b5b6000610f2786828701610c58565b9350506020610f3886828701610c58565b925050604084013567ffffffffffffffff811115610f5957610f58610c0a565b5b610f6586828701610ed2565b9150509250925092565b60008115159050919050565b610f8481610f6f565b82525050565b6000602082019050610f9f6000830184610f7b565b92915050565b600060208284031215610fbb57610fba610c05565b5b600082013567ffffffffffffffff811115610fd957610fd8610c0a565b5b610fe584828501610ed2565b91505092915050565b610ff781610c2f565b82525050565b60006020820190506110126000830184610fee565b92915050565b600082825260208201905092915050565b7f746869732066756e6374696f6e206d7573742062652063616c6c65642066726f60008201527f6d206120706f6f6c000000000000000000000000000000000000000000000000602082015250565b6000611085602883611018565b915061109082611029565b604082019050919050565b600060208201905081810360008301526110b481611078565b9050919050565b60006040820190506110d06000830185610fee565b6110dd6020830184610fee565b9392505050565b6000819050919050565b7f4e487b7100000000000000000000000000000000000000000000000000000000600052601160045260246000fd5b6000611128826110e4565b9150611133836110e4565b925082821015611146576111456110ee565b5b828203905092915050565b7f4e487b7100000000000000000000000000000000000000000000000000000000600052603260045260246000fd5b600060ff82169050919050565b600061119882611180565b915060ff8214156111ac576111ab6110ee565b5b600182019050919050565b7f4e487b7100000000000000000000000000000000000000000000000000000000600052603160045260246000fd5b600081519050919050565b600081905092915050565b60005b8381101561121a5780820151818401526020810190506111ff565b83811115611229576000848401525b50505050565b600061123a826111e6565b61124481856111f1565b93506112548185602086016111fc565b80840191505092915050565b600061126c828461122f565b915081905092915050565b600081519050919050565b600081905092915050565b600061129882611277565b6112a28185611282565b93506112b28185602086016111fc565b80840191505092915050565b60006112ca828461128d565b91508190509291505056fea2646970667358221220b44dfe14258a25c05fafee6db37205716b052e138ba32e415dbda1eb39bc0cf264736f6c63430008090033",
  "immutableReferences": {},
  "source": "// SPDX-License-Identifier: agpl-3.0\npragma solidity 0.8.9;\n\ncontract PoolTracker {\n\n    //contract addresses will point to bool if they exist\n    mapping(address => bool) private isPool;\n    mapping(address => address[]) private depositors;\n    mapping(address => address[]) private owners;\n    mapping(string => address) private names;\n    address[] private verifiedPools;\n\n    event AddVerifiedPools(address addressToAdd);\n    event AddDeposit(address _userAddr, address _pool);\n    event WithdrawDeposit(address _userAddr, address _pool);\n    event OwnerAddress(address _owner, address _pool);\n\n    event MessageSentBy(address sentBy);\n\n    modifier onlyVerifiedByteCode(address pool) {\n        bytes32 v1ByteCodeHash = 0x69e8ff0e7c2b29468c452ea99c81161f9d6137447623140dc2714549e6014d96;\n        require(keccak256(abi.encodePacked(pool.code)) == v1ByteCodeHash, \"byteCode not recognized\");\n        _;\n    }\n\n    modifier onlyPools(address _pool){\n        require(isPool[_pool], \"this function must be called from a pool\");\n        _;\n    }\n\n    function addDeposit(address _userAddr, address _pool) onlyPools(msg.sender) external {\n        depositors[_userAddr].push(_pool);\n        emit AddDeposit(_userAddr, _pool);\n        emit MessageSentBy(msg.sender);\n    }\n\n    function withdrawDeposit(address _userAddr, address _pool) onlyPools(msg.sender) external {\n        for(uint8 i = 0; i < depositors[_userAddr].length -1; i++){\n            if(depositors[_userAddr][i] == _pool){\n                depositors[_userAddr][i] = depositors[_userAddr][depositors[_userAddr].length - 1];\n                break;\n            }\n        }\n        depositors[_userAddr].pop();\n        emit WithdrawDeposit(_userAddr, _pool);\n        emit MessageSentBy(msg.sender);\n    }\n\n    function addVerifiedPools(address _pool, address _owner, string memory _name) external {\n        //require(names[_name] == address(0), \"pool with name already exists\");\n        names[_name] =  _pool;\n        verifiedPools.push( _pool);\n        owners[_owner].push( _pool);\n        isPool[_pool] = true;\n        //emit AddVerifiedPools(_pool);\n        //emit MessageSentBy(msg.sender);\n    }\n\n    function getVerifiedPools() public view returns(address [] memory){\n        return verifiedPools;\n    }\n\n    function getUserDeposits(address _userAddr) external view returns(address[] memory){\n        return depositors[_userAddr];\n    }\n\n    function getUserOwned(address _userAddr) external view returns(address[] memory){\n        return owners[_userAddr];\n    }\n\n    function getAddressFromName(string memory name) external view returns(address){\n        return address(this);//names[name];\n    }\n\n    function checkByteCode(address pool) external view returns(bool) {\n        bytes32 v1ByteCodeHash = 0x69e8ff0e7c2b29468c452ea99c81161f9d6137447623140dc2714549e6014d96;\n        bool hashMatch = true;\n        if(keccak256(abi.encodePacked(pool.code)) != v1ByteCodeHash){\n            hashMatch = false;\n        }\n        return hashMatch;\n    }\n}",
  "sourcePath": "/home/smeee/just_cause/contracts/PoolTracker.sol",
  "compiler": {
    "name": "solc",
    "version": "0.8.9+commit.e5eed63a.Emscripten.clang"
  },
  "schemaVersion": "3.4.3",
  "updatedAt": "2022-01-05T16:54:26.412Z",
  "networkType": "ethereum",
  "devdoc": {
    "kind": "dev",
    "methods": {},
    "version": 1
  },
  "userdoc": {
    "kind": "user",
    "methods": {},
    "version": 1
  }
}