{
  "contractName": "PoolTracker",
  "abi": [
    {
      "inputs": [],
      "stateMutability": "nonpayable",
      "type": "constructor"
    },
    {
      "anonymous": false,
      "inputs": [
        {
          "indexed": false,
          "internalType": "address",
          "name": "_userAddr",
          "type": "address"
        },
        {
          "indexed": false,
          "internalType": "address",
          "name": "_pool",
          "type": "address"
        }
      ],
      "name": "AddDeposit",
      "type": "event"
    },
    {
      "anonymous": false,
      "inputs": [
        {
          "indexed": false,
          "internalType": "address",
          "name": "addressToAdd",
          "type": "address"
        }
      ],
      "name": "AddVerifiedPools",
      "type": "event"
    },
    {
      "anonymous": false,
      "inputs": [
        {
          "indexed": false,
          "internalType": "address",
          "name": "_owner",
          "type": "address"
        },
        {
          "indexed": false,
          "internalType": "address",
          "name": "_pool",
          "type": "address"
        }
      ],
      "name": "OwnerAddress",
      "type": "event"
    },
    {
      "anonymous": false,
      "inputs": [
        {
          "indexed": false,
          "internalType": "address",
          "name": "_userAddr",
          "type": "address"
        },
        {
          "indexed": false,
          "internalType": "address",
          "name": "_pool",
          "type": "address"
        }
      ],
      "name": "WithdrawDeposit",
      "type": "event"
    },
    {
      "inputs": [
        {
          "internalType": "bytes32",
          "name": "_hash",
          "type": "bytes32"
        }
      ],
      "name": "addValidByteCodeHash",
      "outputs": [],
      "stateMutability": "nonpayable",
      "type": "function"
    },
    {
      "inputs": [
        {
          "internalType": "uint256",
          "name": "_amount",
          "type": "uint256"
        },
        {
          "internalType": "address",
          "name": "_asset",
          "type": "address"
        },
        {
          "internalType": "address",
          "name": "_pool",
          "type": "address"
        },
        {
          "internalType": "bool",
          "name": "isETH",
          "type": "bool"
        }
      ],
      "name": "addDeposit",
      "outputs": [],
      "stateMutability": "payable",
      "type": "function",
      "payable": true
    },
    {
      "inputs": [
        {
          "internalType": "uint256",
          "name": "_amount",
          "type": "uint256"
        },
        {
          "internalType": "uint256",
          "name": "_donation",
          "type": "uint256"
        },
        {
          "internalType": "address",
          "name": "_asset",
          "type": "address"
        },
        {
          "internalType": "address",
          "name": "_pool",
          "type": "address"
        }
      ],
      "name": "withdrawDeposit",
      "outputs": [],
      "stateMutability": "nonpayable",
      "type": "function"
    },
    {
      "inputs": [
        {
          "internalType": "address",
          "name": "_asset",
          "type": "address"
        },
        {
          "internalType": "address",
          "name": "_pool",
          "type": "address"
        }
      ],
      "name": "claimInterest",
      "outputs": [],
      "stateMutability": "nonpayable",
      "type": "function"
    },
    {
      "inputs": [
        {
          "internalType": "address[]",
          "name": "_acceptedTokens",
          "type": "address[]"
        },
        {
          "internalType": "string",
          "name": "_name",
          "type": "string"
        },
        {
          "internalType": "string",
          "name": "_about",
          "type": "string"
        },
        {
          "internalType": "address",
          "name": "_receiver",
          "type": "address"
        }
      ],
      "name": "createJCPoolClone",
      "outputs": [],
      "stateMutability": "nonpayable",
      "type": "function"
    },
    {
      "inputs": [],
      "name": "getDepositorERC721Address",
      "outputs": [
        {
          "internalType": "address",
          "name": "",
          "type": "address"
        }
      ],
      "stateMutability": "view",
      "type": "function",
      "constant": true
    },
    {
      "inputs": [],
      "name": "getOwnerERC721Address",
      "outputs": [
        {
          "internalType": "address",
          "name": "",
          "type": "address"
        }
      ],
      "stateMutability": "view",
      "type": "function",
      "constant": true
    },
    {
      "inputs": [],
      "name": "getVerifiedPools",
      "outputs": [
        {
          "internalType": "address[]",
          "name": "",
          "type": "address[]"
        }
      ],
      "stateMutability": "view",
      "type": "function",
      "constant": true
    },
    {
      "inputs": [
        {
          "internalType": "address",
          "name": "_userAddr",
          "type": "address"
        }
      ],
      "name": "getUserDeposits",
      "outputs": [
        {
          "internalType": "address[]",
          "name": "",
          "type": "address[]"
        }
      ],
      "stateMutability": "view",
      "type": "function",
      "constant": true
    },
    {
      "inputs": [
        {
          "internalType": "address",
          "name": "_userAddr",
          "type": "address"
        }
      ],
      "name": "getUserOwned",
      "outputs": [
        {
          "internalType": "address[]",
          "name": "",
          "type": "address[]"
        }
      ],
      "stateMutability": "view",
      "type": "function",
      "constant": true
    },
    {
      "inputs": [
        {
          "internalType": "string",
          "name": "_name",
          "type": "string"
        }
      ],
      "name": "getAddressFromName",
      "outputs": [
        {
          "internalType": "address",
          "name": "",
          "type": "address"
        }
      ],
      "stateMutability": "view",
      "type": "function",
      "constant": true
    },
    {
      "inputs": [
        {
          "internalType": "address",
          "name": "_pool",
          "type": "address"
        }
      ],
      "name": "checkByteCode",
      "outputs": [
        {
          "internalType": "bool",
          "name": "",
          "type": "bool"
        }
      ],
      "stateMutability": "view",
      "type": "function",
      "constant": true
    }
  ],
  "bytecode": "0x60806040523480156200001157600080fd5b5060405162000020906200015c565b604051809103906000f0801580156200003d573d6000803e3d6000fd5b50600260006101000a81548173ffffffffffffffffffffffffffffffffffffffff021916908373ffffffffffffffffffffffffffffffffffffffff1602179055506040516200008c906200016a565b604051809103906000f080158015620000a9573d6000803e3d6000fd5b50600360006101000a81548173ffffffffffffffffffffffffffffffffffffffff021916908373ffffffffffffffffffffffffffffffffffffffff160217905550604051620000f89062000178565b604051809103906000f08015801562000115573d6000803e3d6000fd5b50600160006101000a81548173ffffffffffffffffffffffffffffffffffffffff021916908373ffffffffffffffffffffffffffffffffffffffff16021790555062000186565b613dcb806200233683390190565b61381a806200610183390190565b6136f4806200991b83390190565b6121a080620001966000396000f3fe6080604052600436106100a75760003560e01c8063618b1e8311610064578063618b1e83146101c1578063748d6829146101ea5780638e61514e14610227578063b63ae6ee14610264578063ba437c681461028f578063fc09d0f1146102b8576100a7565b806308f52b3c146100ac5780630c1a4477146100c85780631c1f905f146100f35780632a5bf6d2146101305780633989a6711461016d5780634e1a58a814610198575b600080fd5b6100c660048036038101906100c191906115f5565b6102e1565b005b3480156100d457600080fd5b506100dd61067d565b6040516100ea919061166b565b60405180910390f35b3480156100ff57600080fd5b5061011a60048036038101906101159190611686565b6106a7565b6040516101279190611771565b60405180910390f35b34801561013c57600080fd5b5061015760048036038101906101529190611686565b610774565b6040516101649190611771565b60405180910390f35b34801561017957600080fd5b50610182610841565b60405161018f919061166b565b60405180910390f35b3480156101a457600080fd5b506101bf60048036038101906101ba91906117c9565b61086b565b005b3480156101cd57600080fd5b506101e860048036038101906101e39190611a04565b610897565b005b3480156101f657600080fd5b50610211600480360381019061020c9190611686565b610c55565b60405161021e9190611ace565b60405180910390f35b34801561023357600080fd5b5061024e60048036038101906102499190611ae9565b610d6a565b60405161025b919061166b565b60405180910390f35b34801561027057600080fd5b50610279610db2565b6040516102869190611771565b60405180910390f35b34801561029b57600080fd5b506102b660048036038101906102b19190611b32565b610e40565b005b3480156102c457600080fd5b506102df60048036038101906102da9190611b72565b610f3d565b005b81600460008273ffffffffffffffffffffffffffffffffffffffff1673ffffffffffffffffffffffffffffffffffffffff16815260200190815260200160002060009054906101000a900460ff1661036e576040517f08c379a000000000000000000000000000000000000000000000000000000000815260040161036590611c5c565b60405180910390fd5b600560003373ffffffffffffffffffffffffffffffffffffffff1673ffffffffffffffffffffffffffffffffffffffff168152602001908152602001600020839080600181540180825580915050600190039060005260206000200160009091909190916101000a81548173ffffffffffffffffffffffffffffffffffffffff021916908373ffffffffffffffffffffffffffffffffffffffff1602179055508115610487578273ffffffffffffffffffffffffffffffffffffffff1663734029bf3486336040518463ffffffff1660e01b8152600401610450929190611c7c565b6000604051808303818588803b15801561046957600080fd5b505af115801561047d573d6000803e3d6000fd5b50505050506104f7565b8273ffffffffffffffffffffffffffffffffffffffff1663f45346dc8587336040518463ffffffff1660e01b81526004016104c493929190611cb4565b600060405180830381600087803b1580156104de57600080fd5b505af11580156104f2573d6000803e3d6000fd5b505050505b60008373ffffffffffffffffffffffffffffffffffffffff16638aebe8d6866040518263ffffffff1660e01b8152600401610532919061166b565b60206040518083038186803b15801561054a57600080fd5b505afa15801561055e573d6000803e3d6000fd5b505050506040513d601f19601f820116820180604052508101906105829190611d00565b9050600260009054906101000a900473ffffffffffffffffffffffffffffffffffffffff1673ffffffffffffffffffffffffffffffffffffffff1663ecd8d05433888442898b6040518763ffffffff1660e01b81526004016105e996959493929190611d2d565b602060405180830381600087803b15801561060357600080fd5b505af1158015610617573d6000803e3d6000fd5b505050506040513d601f19601f8201168201806040525081019061063b9190611d00565b507f81ba5b8ff9dd8503225df558117e2e7640a87c53418ab08237ad375c563a0dc3338560405161066d929190611c7c565b60405180910390a1505050505050565b6000600360009054906101000a900473ffffffffffffffffffffffffffffffffffffffff16905090565b6060600660008373ffffffffffffffffffffffffffffffffffffffff1673ffffffffffffffffffffffffffffffffffffffff16815260200190815260200160002080548060200260200160405190810160405280929190818152602001828054801561076857602002820191906000526020600020905b8160009054906101000a900473ffffffffffffffffffffffffffffffffffffffff1673ffffffffffffffffffffffffffffffffffffffff168152602001906001019080831161071e575b50505050509050919050565b6060600560008373ffffffffffffffffffffffffffffffffffffffff1673ffffffffffffffffffffffffffffffffffffffff16815260200190815260200160002080548060200260200160405190810160405280929190818152602001828054801561083557602002820191906000526020600020905b8160009054906101000a900473ffffffffffffffffffffffffffffffffffffffff1673ffffffffffffffffffffffffffffffffffffffff16815260200190600101908083116107eb575b50505050509050919050565b6000600260009054906101000a900473ffffffffffffffffffffffffffffffffffffffff16905090565b600981908060018154018082558091505060019003906000526020600020016000909190919091505550565b600073ffffffffffffffffffffffffffffffffffffffff166007846040516108bf9190611e08565b908152602001604051809103902060009054906101000a900473ffffffffffffffffffffffffffffffffffffffff1673ffffffffffffffffffffffffffffffffffffffff1614610944576040517f08c379a000000000000000000000000000000000000000000000000000000000815260040161093b90611e6b565b60405180910390fd5b6000610971600160009054906101000a900473ffffffffffffffffffffffffffffffffffffffff16611440565b90508073ffffffffffffffffffffffffffffffffffffffff166350d02d71868686866040518563ffffffff1660e01b81526004016109b29493929190611ec4565b600060405180830381600087803b1580156109cc57600080fd5b505af11580156109e0573d6000803e3d6000fd5b50505050600360009054906101000a900473ffffffffffffffffffffffffffffffffffffffff1673ffffffffffffffffffffffffffffffffffffffff166323579ba18342846040518463ffffffff1660e01b8152600401610a4393929190611cb4565b602060405180830381600087803b158015610a5d57600080fd5b505af1158015610a71573d6000803e3d6000fd5b505050506040513d601f19601f82011682018060405250810190610a959190611d00565b5080600785604051610aa79190611e08565b908152602001604051809103902060006101000a81548173ffffffffffffffffffffffffffffffffffffffff021916908373ffffffffffffffffffffffffffffffffffffffff1602179055506008819080600181540180825580915050600190039060005260206000200160009091909190916101000a81548173ffffffffffffffffffffffffffffffffffffffff021916908373ffffffffffffffffffffffffffffffffffffffff160217905550600660003373ffffffffffffffffffffffffffffffffffffffff1673ffffffffffffffffffffffffffffffffffffffff168152602001908152602001600020819080600181540180825580915050600190039060005260206000200160009091909190916101000a81548173ffffffffffffffffffffffffffffffffffffffff021916908373ffffffffffffffffffffffffffffffffffffffff1602179055506001600460008373ffffffffffffffffffffffffffffffffffffffff1673ffffffffffffffffffffffffffffffffffffffff16815260200190815260200160002060006101000a81548160ff0219169083151502179055505050505050565b6000806000905060008373ffffffffffffffffffffffffffffffffffffffff16803b806020016040519081016040528181526000908060200190933c604051602001610ca19190611f65565b60405160208183030381529060405280519060200120905060006009805480602002602001604051908101604052809291908181526020018280548015610d0757602002820191906000526020600020905b815481526020019060010190808311610cf3575b5050505050905060005b81518160ff161015610d5e57818160ff1681518110610d3357610d32611f7c565b5b6020026020010151831415610d4b5760019350610d5e565b8080610d5690611fe7565b915050610d11565b50829350505050919050565b6000600782604051610d7c9190611e08565b908152602001604051809103902060009054906101000a900473ffffffffffffffffffffffffffffffffffffffff169050919050565b60606008805480602002602001604051908101604052809291908181526020018280548015610e3657602002820191906000526020600020905b8160009054906101000a900473ffffffffffffffffffffffffffffffffffffffff1673ffffffffffffffffffffffffffffffffffffffff1681526020019060010190808311610dec575b5050505050905090565b80600460008273ffffffffffffffffffffffffffffffffffffffff1673ffffffffffffffffffffffffffffffffffffffff16815260200190815260200160002060009054906101000a900460ff16610ecd576040517f08c379a0000000000000000000000000000000000000000000000000000000008152600401610ec490611c5c565b60405180910390fd5b8173ffffffffffffffffffffffffffffffffffffffff1663a56f5b53846040518263ffffffff1660e01b8152600401610f06919061166b565b600060405180830381600087803b158015610f2057600080fd5b505af1158015610f34573d6000803e3d6000fd5b50505050505050565b80600460008273ffffffffffffffffffffffffffffffffffffffff1673ffffffffffffffffffffffffffffffffffffffff16815260200190815260200160002060009054906101000a900460ff16610fca576040517f08c379a0000000000000000000000000000000000000000000000000000000008152600401610fc190611c5c565b60405180910390fd5b60005b6001600560003373ffffffffffffffffffffffffffffffffffffffff1673ffffffffffffffffffffffffffffffffffffffff1681526020019081526020016000208054905061101c9190612011565b8160ff161015611256578273ffffffffffffffffffffffffffffffffffffffff16600560003373ffffffffffffffffffffffffffffffffffffffff1673ffffffffffffffffffffffffffffffffffffffff1681526020019081526020016000208260ff168154811061109157611090611f7c565b5b9060005260206000200160009054906101000a900473ffffffffffffffffffffffffffffffffffffffff1673ffffffffffffffffffffffffffffffffffffffff16141561124357600560003373ffffffffffffffffffffffffffffffffffffffff1673ffffffffffffffffffffffffffffffffffffffff1681526020019081526020016000206001600560003373ffffffffffffffffffffffffffffffffffffffff1673ffffffffffffffffffffffffffffffffffffffff168152602001908152602001600020805490506111669190612011565b8154811061117757611176611f7c565b5b9060005260206000200160009054906101000a900473ffffffffffffffffffffffffffffffffffffffff16600560003373ffffffffffffffffffffffffffffffffffffffff1673ffffffffffffffffffffffffffffffffffffffff1681526020019081526020016000208260ff16815481106111f6576111f5611f7c565b5b9060005260206000200160006101000a81548173ffffffffffffffffffffffffffffffffffffffff021916908373ffffffffffffffffffffffffffffffffffffffff160217905550611256565b808061124e90611fe7565b915050610fcd565b50600560003373ffffffffffffffffffffffffffffffffffffffff1673ffffffffffffffffffffffffffffffffffffffff1681526020019081526020016000208054806112a6576112a5612045565b5b6001900381819060005260206000200160006101000a81549073ffffffffffffffffffffffffffffffffffffffff021916905590558173ffffffffffffffffffffffffffffffffffffffff166316762eed848787336040518563ffffffff1660e01b815260040161131a9493929190612074565b600060405180830381600087803b15801561133457600080fd5b505af1158015611348573d6000803e3d6000fd5b50505050600260009054906101000a900473ffffffffffffffffffffffffffffffffffffffff1673ffffffffffffffffffffffffffffffffffffffff16636ba3fef2338785876040518563ffffffff1660e01b81526004016113ad94939291906120b9565b602060405180830381600087803b1580156113c757600080fd5b505af11580156113db573d6000803e3d6000fd5b505050506040513d601f19601f820116820180604052508101906113ff9190611d00565b507f96d37d4b9d9073b00191d43144d238a504757ba440e7708b7bad98762e32d40c3383604051611431929190611c7c565b60405180910390a15050505050565b60006040517f3d602d80600a3d3981f3363d3d373d3d3d363d7300000000000000000000000081528260601b60148201527f5af43d82803e903d91602b57fd5bf3000000000000000000000000000000000060288201526037816000f0915050600073ffffffffffffffffffffffffffffffffffffffff168173ffffffffffffffffffffffffffffffffffffffff161415611510576040517f08c379a00000000000000000000000000000000000000000000000000000000081526004016115079061214a565b60405180910390fd5b919050565b6000604051905090565b600080fd5b600080fd5b6000819050919050565b61153c81611529565b811461154757600080fd5b50565b60008135905061155981611533565b92915050565b600073ffffffffffffffffffffffffffffffffffffffff82169050919050565b600061158a8261155f565b9050919050565b61159a8161157f565b81146115a557600080fd5b50565b6000813590506115b781611591565b92915050565b60008115159050919050565b6115d2816115bd565b81146115dd57600080fd5b50565b6000813590506115ef816115c9565b92915050565b6000806000806080858703121561160f5761160e61151f565b5b600061161d8782880161154a565b945050602061162e878288016115a8565b935050604061163f878288016115a8565b9250506060611650878288016115e0565b91505092959194509250565b6116658161157f565b82525050565b6000602082019050611680600083018461165c565b92915050565b60006020828403121561169c5761169b61151f565b5b60006116aa848285016115a8565b91505092915050565b600081519050919050565b600082825260208201905092915050565b6000819050602082019050919050565b6116e88161157f565b82525050565b60006116fa83836116df565b60208301905092915050565b6000602082019050919050565b600061171e826116b3565b61172881856116be565b9350611733836116cf565b8060005b8381101561176457815161174b88826116ee565b975061175683611706565b925050600181019050611737565b5085935050505092915050565b6000602082019050818103600083015261178b8184611713565b905092915050565b6000819050919050565b6117a681611793565b81146117b157600080fd5b50565b6000813590506117c38161179d565b92915050565b6000602082840312156117df576117de61151f565b5b60006117ed848285016117b4565b91505092915050565b600080fd5b6000601f19601f8301169050919050565b7f4e487b7100000000000000000000000000000000000000000000000000000000600052604160045260246000fd5b611844826117fb565b810181811067ffffffffffffffff821117156118635761186261180c565b5b80604052505050565b6000611876611515565b9050611882828261183b565b919050565b600067ffffffffffffffff8211156118a2576118a161180c565b5b602082029050602081019050919050565b600080fd5b60006118cb6118c684611887565b61186c565b905080838252602082019050602084028301858111156118ee576118ed6118b3565b5b835b81811015611917578061190388826115a8565b8452602084019350506020810190506118f0565b5050509392505050565b600082601f830112611936576119356117f6565b5b81356119468482602086016118b8565b91505092915050565b600080fd5b600067ffffffffffffffff82111561196f5761196e61180c565b5b611978826117fb565b9050602081019050919050565b82818337600083830152505050565b60006119a76119a284611954565b61186c565b9050828152602081018484840111156119c3576119c261194f565b5b6119ce848285611985565b509392505050565b600082601f8301126119eb576119ea6117f6565b5b81356119fb848260208601611994565b91505092915050565b60008060008060808587031215611a1e57611a1d61151f565b5b600085013567ffffffffffffffff811115611a3c57611a3b611524565b5b611a4887828801611921565b945050602085013567ffffffffffffffff811115611a6957611a68611524565b5b611a75878288016119d6565b935050604085013567ffffffffffffffff811115611a9657611a95611524565b5b611aa2878288016119d6565b9250506060611ab3878288016115a8565b91505092959194509250565b611ac8816115bd565b82525050565b6000602082019050611ae36000830184611abf565b92915050565b600060208284031215611aff57611afe61151f565b5b600082013567ffffffffffffffff811115611b1d57611b1c611524565b5b611b29848285016119d6565b91505092915050565b60008060408385031215611b4957611b4861151f565b5b6000611b57858286016115a8565b9250506020611b68858286016115a8565b9150509250929050565b60008060008060808587031215611b8c57611b8b61151f565b5b6000611b9a8782880161154a565b9450506020611bab8782880161154a565b9350506040611bbc878288016115a8565b9250506060611bcd878288016115a8565b91505092959194509250565b600082825260208201905092915050565b7f746869732066756e6374696f6e206d7573742062652063616c6c65642066726f60008201527f6d206120706f6f6c000000000000000000000000000000000000000000000000602082015250565b6000611c46602883611bd9565b9150611c5182611bea565b604082019050919050565b60006020820190508181036000830152611c7581611c39565b9050919050565b6000604082019050611c91600083018561165c565b611c9e602083018461165c565b9392505050565b611cae81611529565b82525050565b6000606082019050611cc9600083018661165c565b611cd66020830185611ca5565b611ce3604083018461165c565b949350505050565b600081519050611cfa81611533565b92915050565b600060208284031215611d1657611d1561151f565b5b6000611d2484828501611ceb565b91505092915050565b600060c082019050611d42600083018961165c565b611d4f6020830188611ca5565b611d5c6040830187611ca5565b611d696060830186611ca5565b611d76608083018561165c565b611d8360a083018461165c565b979650505050505050565b600081519050919050565b600081905092915050565b60005b83811015611dc2578082015181840152602081019050611da7565b83811115611dd1576000848401525b50505050565b6000611de282611d8e565b611dec8185611d99565b9350611dfc818560208601611da4565b80840191505092915050565b6000611e148284611dd7565b915081905092915050565b7f706f6f6c2077697468206e616d6520616c726561647920657869737473000000600082015250565b6000611e55601d83611bd9565b9150611e6082611e1f565b602082019050919050565b60006020820190508181036000830152611e8481611e48565b9050919050565b6000611e9682611d8e565b611ea08185611bd9565b9350611eb0818560208601611da4565b611eb9816117fb565b840191505092915050565b60006080820190508181036000830152611ede8187611713565b90508181036020830152611ef28186611e8b565b90508181036040830152611f068185611e8b565b9050611f15606083018461165c565b95945050505050565b600081519050919050565b600081905092915050565b6000611f3f82611f1e565b611f498185611f29565b9350611f59818560208601611da4565b80840191505092915050565b6000611f718284611f34565b915081905092915050565b7f4e487b7100000000000000000000000000000000000000000000000000000000600052603260045260246000fd5b7f4e487b7100000000000000000000000000000000000000000000000000000000600052601160045260246000fd5b600060ff82169050919050565b6000611ff282611fda565b915060ff82141561200657612005611fab565b5b600182019050919050565b600061201c82611529565b915061202783611529565b92508282101561203a57612039611fab565b5b828203905092915050565b7f4e487b7100000000000000000000000000000000000000000000000000000000600052603160045260246000fd5b6000608082019050612089600083018761165c565b6120966020830186611ca5565b6120a36040830185611ca5565b6120b0606083018461165c565b95945050505050565b60006080820190506120ce600083018761165c565b6120db6020830186611ca5565b6120e8604083018561165c565b6120f5606083018461165c565b95945050505050565b7f455243313136373a20637265617465206661696c656400000000000000000000600082015250565b6000612134601683611bd9565b915061213f826120fe565b602082019050919050565b6000602082019050818103600083015261216381612127565b905091905056fea26469706673582212207d7a9c027505dce9aa844ca9a28e368d5e3fc29361f95fc4091e3c0a3481434e64736f6c6343000809003360806040523480156200001157600080fd5b506040518060400160405280601381526020017f4a4350204465706f7369746f7220546f6b656e000000000000000000000000008152506040518060400160405280600c81526020017f4a4350545f544553545f44310000000000000000000000000000000000000000815250816000908051906020019062000096929190620001a6565b508060019080519060200190620000af929190620001a6565b505050620000d2620000c6620000d860201b60201c565b620000e060201b60201c565b620002bb565b600033905090565b6000600a60009054906101000a900473ffffffffffffffffffffffffffffffffffffffff16905081600a60006101000a81548173ffffffffffffffffffffffffffffffffffffffff021916908373ffffffffffffffffffffffffffffffffffffffff1602179055508173ffffffffffffffffffffffffffffffffffffffff168173ffffffffffffffffffffffffffffffffffffffff167f8be0079c531659141344cd1fd0a4f28419497f9722a3daafe3b4186f6b6457e060405160405180910390a35050565b828054620001b49062000285565b90600052602060002090601f016020900481019282620001d8576000855562000224565b82601f10620001f357805160ff191683800117855562000224565b8280016001018555821562000224579182015b828111156200022357825182559160200191906001019062000206565b5b50905062000233919062000237565b5090565b5b808211156200025257600081600090555060010162000238565b5090565b7f4e487b7100000000000000000000000000000000000000000000000000000000600052602260045260246000fd5b600060028204905060018216806200029e57607f821691505b60208210811415620002b557620002b462000256565b5b50919050565b613b0080620002cb6000396000f3fe608060405234801561001057600080fd5b50600436106101425760003560e01c80636ba3fef2116100b8578063a22cb4651161007c578063a22cb4651461039d578063b88d4fde146103b9578063c87b56dd146103d5578063e985e9c514610405578063ecd8d05414610435578063f2fde38b1461046557610142565b80636ba3fef2146102f757806370a0823114610327578063715018a6146103575780638da5cb5b1461036157806395d89b411461037f57610142565b806323b872dd1161010a57806323b872dd146101ff5780632f745c591461021b57806342842e0e1461024b5780634f6ccce7146102675780635328c2bf146102975780636352211e146102c757610142565b806301ffc9a71461014757806306fdde0314610177578063081812fc14610195578063095ea7b3146101c557806318160ddd146101e1575b600080fd5b610161600480360381019061015c919061252d565b610481565b60405161016e9190612575565b60405180910390f35b61017f6104fb565b60405161018c9190612629565b60405180910390f35b6101af60048036038101906101aa9190612681565b61058d565b6040516101bc91906126ef565b60405180910390f35b6101df60048036038101906101da9190612736565b610612565b005b6101e961072a565b6040516101f69190612785565b60405180910390f35b610219600480360381019061021491906127a0565b610737565b005b61023560048036038101906102309190612736565b610797565b6040516102429190612785565b60405180910390f35b610265600480360381019061026091906127a0565b61083c565b005b610281600480360381019061027c9190612681565b61085c565b60405161028e9190612785565b60405180910390f35b6102b160048036038101906102ac9190612681565b6108cd565b6040516102be919061288c565b60405180910390f35b6102e160048036038101906102dc9190612681565b6109ce565b6040516102ee91906126ef565b60405180910390f35b610311600480360381019061030c91906128a7565b610a80565b60405161031e9190612785565b60405180910390f35b610341600480360381019061033c919061290e565b610c0c565b60405161034e9190612785565b60405180910390f35b61035f610cc4565b005b610369610d4c565b60405161037691906126ef565b60405180910390f35b610387610d76565b6040516103949190612629565b60405180910390f35b6103b760048036038101906103b29190612967565b610e08565b005b6103d360048036038101906103ce9190612adc565b610e1e565b005b6103ef60048036038101906103ea9190612681565b610e80565b6040516103fc9190612629565b60405180910390f35b61041f600480360381019061041a9190612b5f565b610f27565b60405161042c9190612575565b60405180910390f35b61044f600480360381019061044a9190612b9f565b610fbb565b60405161045c9190612785565b60405180910390f35b61047f600480360381019061047a919061290e565b611216565b005b60007f780e9d63000000000000000000000000000000000000000000000000000000007bffffffffffffffffffffffffffffffffffffffffffffffffffffffff1916827bffffffffffffffffffffffffffffffffffffffffffffffffffffffff191614806104f457506104f38261130e565b5b9050919050565b60606000805461050a90612c5b565b80601f016020809104026020016040519081016040528092919081815260200182805461053690612c5b565b80156105835780601f1061055857610100808354040283529160200191610583565b820191906000526020600020905b81548152906001019060200180831161056657829003601f168201915b5050505050905090565b6000610598826113f0565b6105d7576040517f08c379a00000000000000000000000000000000000000000000000000000000081526004016105ce90612cff565b60405180910390fd5b6004600083815260200190815260200160002060009054906101000a900473ffffffffffffffffffffffffffffffffffffffff169050919050565b600061061d826109ce565b90508073ffffffffffffffffffffffffffffffffffffffff168373ffffffffffffffffffffffffffffffffffffffff16141561068e576040517f08c379a000000000000000000000000000000000000000000000000000000000815260040161068590612d91565b60405180910390fd5b8073ffffffffffffffffffffffffffffffffffffffff166106ad61145c565b73ffffffffffffffffffffffffffffffffffffffff1614806106dc57506106db816106d661145c565b610f27565b5b61071b576040517f08c379a000000000000000000000000000000000000000000000000000000000815260040161071290612e23565b60405180910390fd5b6107258383611464565b505050565b6000600880549050905090565b61074861074261145c565b8261151d565b610787576040517f08c379a000000000000000000000000000000000000000000000000000000000815260040161077e90612eb5565b60405180910390fd5b6107928383836115fb565b505050565b60006107a283610c0c565b82106107e3576040517f08c379a00000000000000000000000000000000000000000000000000000000081526004016107da90612f47565b60405180910390fd5b600660008473ffffffffffffffffffffffffffffffffffffffff1673ffffffffffffffffffffffffffffffffffffffff168152602001908152602001600020600083815260200190815260200160002054905092915050565b61085783838360405180602001604052806000815250610e1e565b505050565b600061086661072a565b82106108a7576040517f08c379a000000000000000000000000000000000000000000000000000000000815260040161089e90612fd9565b60405180910390fd5b600882815481106108bb576108ba612ff9565b5b90600052602060002001549050919050565b6108d561245f565b600b60008381526020019081526020016000206040518060c0016040529081600082015481526020016001820154815260200160028201548152602001600382015481526020016004820160009054906101000a900473ffffffffffffffffffffffffffffffffffffffff1673ffffffffffffffffffffffffffffffffffffffff1673ffffffffffffffffffffffffffffffffffffffff1681526020016005820160009054906101000a900473ffffffffffffffffffffffffffffffffffffffff1673ffffffffffffffffffffffffffffffffffffffff1673ffffffffffffffffffffffffffffffffffffffff16815250509050919050565b6000806002600084815260200190815260200160002060009054906101000a900473ffffffffffffffffffffffffffffffffffffffff169050600073ffffffffffffffffffffffffffffffffffffffff168173ffffffffffffffffffffffffffffffffffffffff161415610a77576040517f08c379a0000000000000000000000000000000000000000000000000000000008152600401610a6e9061309a565b60405180910390fd5b80915050919050565b6000610a8a61145c565b73ffffffffffffffffffffffffffffffffffffffff16610aa8610d4c565b73ffffffffffffffffffffffffffffffffffffffff1614610afe576040517f08c379a0000000000000000000000000000000000000000000000000000000008152600401610af590613106565b60405180910390fd5b6000858484604051602001610b159392919061316e565b6040516020818303038152906040528051906020012060001c9050610b39816113f0565b610b78576040517f08c379a0000000000000000000000000000000000000000000000000000000008152600401610b6f906131f7565b60405180910390fd5b6000600b600083815260200190815260200160002060000154905085811015610bd6576040517f08c379a0000000000000000000000000000000000000000000000000000000008152600401610bcd90613263565b60405180910390fd5b8581610be291906132b2565b905080600b6000848152602001908152602001600020600001819055508192505050949350505050565b60008073ffffffffffffffffffffffffffffffffffffffff168273ffffffffffffffffffffffffffffffffffffffff161415610c7d576040517f08c379a0000000000000000000000000000000000000000000000000000000008152600401610c7490613358565b60405180910390fd5b600360008373ffffffffffffffffffffffffffffffffffffffff1673ffffffffffffffffffffffffffffffffffffffff168152602001908152602001600020549050919050565b610ccc61145c565b73ffffffffffffffffffffffffffffffffffffffff16610cea610d4c565b73ffffffffffffffffffffffffffffffffffffffff1614610d40576040517f08c379a0000000000000000000000000000000000000000000000000000000008152600401610d3790613106565b60405180910390fd5b610d4a6000611857565b565b6000600a60009054906101000a900473ffffffffffffffffffffffffffffffffffffffff16905090565b606060018054610d8590612c5b565b80601f0160208091040260200160405190810160405280929190818152602001828054610db190612c5b565b8015610dfe5780601f10610dd357610100808354040283529160200191610dfe565b820191906000526020600020905b815481529060010190602001808311610de157829003601f168201915b5050505050905090565b610e1a610e1361145c565b838361191d565b5050565b610e2f610e2961145c565b8361151d565b610e6e576040517f08c379a0000000000000000000000000000000000000000000000000000000008152600401610e6590612eb5565b60405180910390fd5b610e7a84848484611a8a565b50505050565b6060610e8b826113f0565b610eca576040517f08c379a0000000000000000000000000000000000000000000000000000000008152600401610ec1906133ea565b60405180910390fd5b6000610ed4611ae6565b90506000815111610ef45760405180602001604052806000815250610f1f565b80610efe84611afd565b604051602001610f0f929190613446565b6040516020818303038152906040525b915050919050565b6000600560008473ffffffffffffffffffffffffffffffffffffffff1673ffffffffffffffffffffffffffffffffffffffff16815260200190815260200160002060008373ffffffffffffffffffffffffffffffffffffffff1673ffffffffffffffffffffffffffffffffffffffff16815260200190815260200160002060009054906101000a900460ff16905092915050565b6000610fc561145c565b73ffffffffffffffffffffffffffffffffffffffff16610fe3610d4c565b73ffffffffffffffffffffffffffffffffffffffff1614611039576040517f08c379a000000000000000000000000000000000000000000000000000000000815260040161103090613106565b60405180910390fd5b60008784846040516020016110509392919061316e565b6040516020818303038152906040528051906020012060001c9050611074816113f0565b156110d85786600b6000838152602001908152602001600020600001600082825461109f919061346a565b9250508190555086600b600083815260200190815260200160002060010160008282546110cc919061346a565b92505081905550611208565b6040518060c001604052808881526020018881526020018681526020018781526020018573ffffffffffffffffffffffffffffffffffffffff1681526020018473ffffffffffffffffffffffffffffffffffffffff16815250600b60008381526020019081526020016000206000820151816000015560208201518160010155604082015181600201556060820151816003015560808201518160040160006101000a81548173ffffffffffffffffffffffffffffffffffffffff021916908373ffffffffffffffffffffffffffffffffffffffff16021790555060a08201518160050160006101000a81548173ffffffffffffffffffffffffffffffffffffffff021916908373ffffffffffffffffffffffffffffffffffffffff1602179055509050506112078882611c5e565b5b809150509695505050505050565b61121e61145c565b73ffffffffffffffffffffffffffffffffffffffff1661123c610d4c565b73ffffffffffffffffffffffffffffffffffffffff1614611292576040517f08c379a000000000000000000000000000000000000000000000000000000000815260040161128990613106565b60405180910390fd5b600073ffffffffffffffffffffffffffffffffffffffff168173ffffffffffffffffffffffffffffffffffffffff161415611302576040517f08c379a00000000000000000000000000000000000000000000000000000000081526004016112f990613532565b60405180910390fd5b61130b81611857565b50565b60007f80ac58cd000000000000000000000000000000000000000000000000000000007bffffffffffffffffffffffffffffffffffffffffffffffffffffffff1916827bffffffffffffffffffffffffffffffffffffffffffffffffffffffff191614806113d957507f5b5e139f000000000000000000000000000000000000000000000000000000007bffffffffffffffffffffffffffffffffffffffffffffffffffffffff1916827bffffffffffffffffffffffffffffffffffffffffffffffffffffffff1916145b806113e957506113e882611e2c565b5b9050919050565b60008073ffffffffffffffffffffffffffffffffffffffff166002600084815260200190815260200160002060009054906101000a900473ffffffffffffffffffffffffffffffffffffffff1673ffffffffffffffffffffffffffffffffffffffff1614159050919050565b600033905090565b816004600083815260200190815260200160002060006101000a81548173ffffffffffffffffffffffffffffffffffffffff021916908373ffffffffffffffffffffffffffffffffffffffff160217905550808273ffffffffffffffffffffffffffffffffffffffff166114d7836109ce565b73ffffffffffffffffffffffffffffffffffffffff167f8c5be1e5ebec7d5bd14f71427d1e84f3dd0314c0f7b2291e5b200ac8c7c3b92560405160405180910390a45050565b6000611528826113f0565b611567576040517f08c379a000000000000000000000000000000000000000000000000000000000815260040161155e906135c4565b60405180910390fd5b6000611572836109ce565b90508073ffffffffffffffffffffffffffffffffffffffff168473ffffffffffffffffffffffffffffffffffffffff1614806115e157508373ffffffffffffffffffffffffffffffffffffffff166115c98461058d565b73ffffffffffffffffffffffffffffffffffffffff16145b806115f257506115f18185610f27565b5b91505092915050565b8273ffffffffffffffffffffffffffffffffffffffff1661161b826109ce565b73ffffffffffffffffffffffffffffffffffffffff1614611671576040517f08c379a000000000000000000000000000000000000000000000000000000000815260040161166890613656565b60405180910390fd5b600073ffffffffffffffffffffffffffffffffffffffff168273ffffffffffffffffffffffffffffffffffffffff1614156116e1576040517f08c379a00000000000000000000000000000000000000000000000000000000081526004016116d8906136e8565b60405180910390fd5b6116ec838383611e96565b6116f7600082611464565b6001600360008573ffffffffffffffffffffffffffffffffffffffff1673ffffffffffffffffffffffffffffffffffffffff168152602001908152602001600020600082825461174791906132b2565b925050819055506001600360008473ffffffffffffffffffffffffffffffffffffffff1673ffffffffffffffffffffffffffffffffffffffff168152602001908152602001600020600082825461179e919061346a565b92505081905550816002600083815260200190815260200160002060006101000a81548173ffffffffffffffffffffffffffffffffffffffff021916908373ffffffffffffffffffffffffffffffffffffffff160217905550808273ffffffffffffffffffffffffffffffffffffffff168473ffffffffffffffffffffffffffffffffffffffff167fddf252ad1be2c89b69c2b068fc378daa952ba7f163c4a11628f55a4df523b3ef60405160405180910390a4505050565b6000600a60009054906101000a900473ffffffffffffffffffffffffffffffffffffffff16905081600a60006101000a81548173ffffffffffffffffffffffffffffffffffffffff021916908373ffffffffffffffffffffffffffffffffffffffff1602179055508173ffffffffffffffffffffffffffffffffffffffff168173ffffffffffffffffffffffffffffffffffffffff167f8be0079c531659141344cd1fd0a4f28419497f9722a3daafe3b4186f6b6457e060405160405180910390a35050565b8173ffffffffffffffffffffffffffffffffffffffff168373ffffffffffffffffffffffffffffffffffffffff16141561198c576040517f08c379a000000000000000000000000000000000000000000000000000000000815260040161198390613754565b60405180910390fd5b80600560008573ffffffffffffffffffffffffffffffffffffffff1673ffffffffffffffffffffffffffffffffffffffff16815260200190815260200160002060008473ffffffffffffffffffffffffffffffffffffffff1673ffffffffffffffffffffffffffffffffffffffff16815260200190815260200160002060006101000a81548160ff0219169083151502179055508173ffffffffffffffffffffffffffffffffffffffff168373ffffffffffffffffffffffffffffffffffffffff167f17307eab39ab6107e8899845ad3d59bd9653f200f220920489ca2b5937696c3183604051611a7d9190612575565b60405180910390a3505050565b611a958484846115fb565b611aa184848484611faa565b611ae0576040517f08c379a0000000000000000000000000000000000000000000000000000000008152600401611ad7906137e6565b60405180910390fd5b50505050565b606060405180602001604052806000815250905090565b60606000821415611b45576040518060400160405280600181526020017f30000000000000000000000000000000000000000000000000000000000000008152509050611c59565b600082905060005b60008214611b77578080611b6090613806565b915050600a82611b70919061387e565b9150611b4d565b60008167ffffffffffffffff811115611b9357611b926129b1565b5b6040519080825280601f01601f191660200182016040528015611bc55781602001600182028036833780820191505090505b5090505b60008514611c5257600182611bde91906132b2565b9150600a85611bed91906138af565b6030611bf9919061346a565b60f81b818381518110611c0f57611c0e612ff9565b5b60200101907effffffffffffffffffffffffffffffffffffffffffffffffffffffffffffff1916908160001a905350600a85611c4b919061387e565b9450611bc9565b8093505050505b919050565b600073ffffffffffffffffffffffffffffffffffffffff168273ffffffffffffffffffffffffffffffffffffffff161415611cce576040517f08c379a0000000000000000000000000000000000000000000000000000000008152600401611cc59061392c565b60405180910390fd5b611cd7816113f0565b15611d17576040517f08c379a0000000000000000000000000000000000000000000000000000000008152600401611d0e90613998565b60405180910390fd5b611d2360008383611e96565b6001600360008473ffffffffffffffffffffffffffffffffffffffff1673ffffffffffffffffffffffffffffffffffffffff1681526020019081526020016000206000828254611d73919061346a565b92505081905550816002600083815260200190815260200160002060006101000a81548173ffffffffffffffffffffffffffffffffffffffff021916908373ffffffffffffffffffffffffffffffffffffffff160217905550808273ffffffffffffffffffffffffffffffffffffffff16600073ffffffffffffffffffffffffffffffffffffffff167fddf252ad1be2c89b69c2b068fc378daa952ba7f163c4a11628f55a4df523b3ef60405160405180910390a45050565b60007f01ffc9a7000000000000000000000000000000000000000000000000000000007bffffffffffffffffffffffffffffffffffffffffffffffffffffffff1916827bffffffffffffffffffffffffffffffffffffffffffffffffffffffff1916149050919050565b611ea1838383612141565b600073ffffffffffffffffffffffffffffffffffffffff168373ffffffffffffffffffffffffffffffffffffffff161415611ee457611edf81612146565b611f23565b8173ffffffffffffffffffffffffffffffffffffffff168373ffffffffffffffffffffffffffffffffffffffff1614611f2257611f21838261218f565b5b5b600073ffffffffffffffffffffffffffffffffffffffff168273ffffffffffffffffffffffffffffffffffffffff161415611f6657611f61816122fc565b611fa5565b8273ffffffffffffffffffffffffffffffffffffffff168273ffffffffffffffffffffffffffffffffffffffff1614611fa457611fa382826123cd565b5b5b505050565b6000611fcb8473ffffffffffffffffffffffffffffffffffffffff1661244c565b15612134578373ffffffffffffffffffffffffffffffffffffffff1663150b7a02611ff461145c565b8786866040518563ffffffff1660e01b81526004016120169493929190613a0d565b602060405180830381600087803b15801561203057600080fd5b505af192505050801561206157506040513d601f19601f8201168201806040525081019061205e9190613a6e565b60015b6120e4573d8060008114612091576040519150601f19603f3d011682016040523d82523d6000602084013e612096565b606091505b506000815114156120dc576040517f08c379a00000000000000000000000000000000000000000000000000000000081526004016120d3906137e6565b60405180910390fd5b805181602001fd5b63150b7a0260e01b7bffffffffffffffffffffffffffffffffffffffffffffffffffffffff1916817bffffffffffffffffffffffffffffffffffffffffffffffffffffffff191614915050612139565b600190505b949350505050565b505050565b6008805490506009600083815260200190815260200160002081905550600881908060018154018082558091505060019003906000526020600020016000909190919091505550565b6000600161219c84610c0c565b6121a691906132b2565b905060006007600084815260200190815260200160002054905081811461228b576000600660008673ffffffffffffffffffffffffffffffffffffffff1673ffffffffffffffffffffffffffffffffffffffff168152602001908152602001600020600084815260200190815260200160002054905080600660008773ffffffffffffffffffffffffffffffffffffffff1673ffffffffffffffffffffffffffffffffffffffff168152602001908152602001600020600084815260200190815260200160002081905550816007600083815260200190815260200160002081905550505b6007600084815260200190815260200160002060009055600660008573ffffffffffffffffffffffffffffffffffffffff1673ffffffffffffffffffffffffffffffffffffffff16815260200190815260200160002060008381526020019081526020016000206000905550505050565b6000600160088054905061231091906132b2565b90506000600960008481526020019081526020016000205490506000600883815481106123405761233f612ff9565b5b90600052602060002001549050806008838154811061236257612361612ff9565b5b9060005260206000200181905550816009600083815260200190815260200160002081905550600960008581526020019081526020016000206000905560088054806123b1576123b0613a9b565b5b6001900381819060005260206000200160009055905550505050565b60006123d883610c0c565b905081600660008573ffffffffffffffffffffffffffffffffffffffff1673ffffffffffffffffffffffffffffffffffffffff168152602001908152602001600020600083815260200190815260200160002081905550806007600084815260200190815260200160002081905550505050565b600080823b905060008111915050919050565b6040518060c0016040528060008152602001600081526020016000815260200160008152602001600073ffffffffffffffffffffffffffffffffffffffff168152602001600073ffffffffffffffffffffffffffffffffffffffff1681525090565b6000604051905090565b600080fd5b600080fd5b60007fffffffff0000000000000000000000000000000000000000000000000000000082169050919050565b61250a816124d5565b811461251557600080fd5b50565b60008135905061252781612501565b92915050565b600060208284031215612543576125426124cb565b5b600061255184828501612518565b91505092915050565b60008115159050919050565b61256f8161255a565b82525050565b600060208201905061258a6000830184612566565b92915050565b600081519050919050565b600082825260208201905092915050565b60005b838110156125ca5780820151818401526020810190506125af565b838111156125d9576000848401525b50505050565b6000601f19601f8301169050919050565b60006125fb82612590565b612605818561259b565b93506126158185602086016125ac565b61261e816125df565b840191505092915050565b6000602082019050818103600083015261264381846125f0565b905092915050565b6000819050919050565b61265e8161264b565b811461266957600080fd5b50565b60008135905061267b81612655565b92915050565b600060208284031215612697576126966124cb565b5b60006126a58482850161266c565b91505092915050565b600073ffffffffffffffffffffffffffffffffffffffff82169050919050565b60006126d9826126ae565b9050919050565b6126e9816126ce565b82525050565b600060208201905061270460008301846126e0565b92915050565b612713816126ce565b811461271e57600080fd5b50565b6000813590506127308161270a565b92915050565b6000806040838503121561274d5761274c6124cb565b5b600061275b85828601612721565b925050602061276c8582860161266c565b9150509250929050565b61277f8161264b565b82525050565b600060208201905061279a6000830184612776565b92915050565b6000806000606084860312156127b9576127b86124cb565b5b60006127c786828701612721565b93505060206127d886828701612721565b92505060406127e98682870161266c565b9150509250925092565b6127fc8161264b565b82525050565b61280b816126ce565b82525050565b60c08201600082015161282760008501826127f3565b50602082015161283a60208501826127f3565b50604082015161284d60408501826127f3565b50606082015161286060608501826127f3565b5060808201516128736080850182612802565b5060a082015161288660a0850182612802565b50505050565b600060c0820190506128a16000830184612811565b92915050565b600080600080608085870312156128c1576128c06124cb565b5b60006128cf87828801612721565b94505060206128e08782880161266c565b93505060406128f187828801612721565b925050606061290287828801612721565b91505092959194509250565b600060208284031215612924576129236124cb565b5b600061293284828501612721565b91505092915050565b6129448161255a565b811461294f57600080fd5b50565b6000813590506129618161293b565b92915050565b6000806040838503121561297e5761297d6124cb565b5b600061298c85828601612721565b925050602061299d85828601612952565b9150509250929050565b600080fd5b600080fd5b7f4e487b7100000000000000000000000000000000000000000000000000000000600052604160045260246000fd5b6129e9826125df565b810181811067ffffffffffffffff82111715612a0857612a076129b1565b5b80604052505050565b6000612a1b6124c1565b9050612a2782826129e0565b919050565b600067ffffffffffffffff821115612a4757612a466129b1565b5b612a50826125df565b9050602081019050919050565b82818337600083830152505050565b6000612a7f612a7a84612a2c565b612a11565b905082815260208101848484011115612a9b57612a9a6129ac565b5b612aa6848285612a5d565b509392505050565b600082601f830112612ac357612ac26129a7565b5b8135612ad3848260208601612a6c565b91505092915050565b60008060008060808587031215612af657612af56124cb565b5b6000612b0487828801612721565b9450506020612b1587828801612721565b9350506040612b268782880161266c565b925050606085013567ffffffffffffffff811115612b4757612b466124d0565b5b612b5387828801612aae565b91505092959194509250565b60008060408385031215612b7657612b756124cb565b5b6000612b8485828601612721565b9250506020612b9585828601612721565b9150509250929050565b60008060008060008060c08789031215612bbc57612bbb6124cb565b5b6000612bca89828a01612721565b9650506020612bdb89828a0161266c565b9550506040612bec89828a0161266c565b9450506060612bfd89828a0161266c565b9350506080612c0e89828a01612721565b92505060a0612c1f89828a01612721565b9150509295509295509295565b7f4e487b7100000000000000000000000000000000000000000000000000000000600052602260045260246000fd5b60006002820490506001821680612c7357607f821691505b60208210811415612c8757612c86612c2c565b5b50919050565b7f4552433732313a20617070726f76656420717565727920666f72206e6f6e657860008201527f697374656e7420746f6b656e0000000000000000000000000000000000000000602082015250565b6000612ce9602c8361259b565b9150612cf482612c8d565b604082019050919050565b60006020820190508181036000830152612d1881612cdc565b9050919050565b7f4552433732313a20617070726f76616c20746f2063757272656e74206f776e6560008201527f7200000000000000000000000000000000000000000000000000000000000000602082015250565b6000612d7b60218361259b565b9150612d8682612d1f565b604082019050919050565b60006020820190508181036000830152612daa81612d6e565b9050919050565b7f4552433732313a20617070726f76652063616c6c6572206973206e6f74206f7760008201527f6e6572206e6f7220617070726f76656420666f7220616c6c0000000000000000602082015250565b6000612e0d60388361259b565b9150612e1882612db1565b604082019050919050565b60006020820190508181036000830152612e3c81612e00565b9050919050565b7f4552433732313a207472616e736665722063616c6c6572206973206e6f74206f60008201527f776e6572206e6f7220617070726f766564000000000000000000000000000000602082015250565b6000612e9f60318361259b565b9150612eaa82612e43565b604082019050919050565b60006020820190508181036000830152612ece81612e92565b9050919050565b7f455243373231456e756d657261626c653a206f776e657220696e646578206f7560008201527f74206f6620626f756e6473000000000000000000000000000000000000000000602082015250565b6000612f31602b8361259b565b9150612f3c82612ed5565b604082019050919050565b60006020820190508181036000830152612f6081612f24565b9050919050565b7f455243373231456e756d657261626c653a20676c6f62616c20696e646578206f60008201527f7574206f6620626f756e64730000000000000000000000000000000000000000602082015250565b6000612fc3602c8361259b565b9150612fce82612f67565b604082019050919050565b60006020820190508181036000830152612ff281612fb6565b9050919050565b7f4e487b7100000000000000000000000000000000000000000000000000000000600052603260045260246000fd5b7f4552433732313a206f776e657220717565727920666f72206e6f6e657869737460008201527f656e7420746f6b656e0000000000000000000000000000000000000000000000602082015250565b600061308460298361259b565b915061308f82613028565b604082019050919050565b600060208201905081810360008301526130b381613077565b9050919050565b7f4f776e61626c653a2063616c6c6572206973206e6f7420746865206f776e6572600082015250565b60006130f060208361259b565b91506130fb826130ba565b602082019050919050565b6000602082019050818103600083015261311f816130e3565b9050919050565b60008160601b9050919050565b600061313e82613126565b9050919050565b600061315082613133565b9050919050565b613168613163826126ce565b613145565b82525050565b600061317a8286613157565b60148201915061318a8285613157565b60148201915061319a8284613157565b601482019150819050949350505050565b7f746f6b656e496420646f65736e27742065786973740000000000000000000000600082015250565b60006131e160158361259b565b91506131ec826131ab565b602082019050919050565b60006020820190508181036000830152613210816131d4565b9050919050565b7f696e73756666696369656e742062616c616e6365000000000000000000000000600082015250565b600061324d60148361259b565b915061325882613217565b602082019050919050565b6000602082019050818103600083015261327c81613240565b9050919050565b7f4e487b7100000000000000000000000000000000000000000000000000000000600052601160045260246000fd5b60006132bd8261264b565b91506132c88361264b565b9250828210156132db576132da613283565b5b828203905092915050565b7f4552433732313a2062616c616e636520717565727920666f7220746865207a6560008201527f726f206164647265737300000000000000000000000000000000000000000000602082015250565b6000613342602a8361259b565b915061334d826132e6565b604082019050919050565b6000602082019050818103600083015261337181613335565b9050919050565b7f4552433732314d657461646174613a2055524920717565727920666f72206e6f60008201527f6e6578697374656e7420746f6b656e0000000000000000000000000000000000602082015250565b60006133d4602f8361259b565b91506133df82613378565b604082019050919050565b60006020820190508181036000830152613403816133c7565b9050919050565b600081905092915050565b600061342082612590565b61342a818561340a565b935061343a8185602086016125ac565b80840191505092915050565b60006134528285613415565b915061345e8284613415565b91508190509392505050565b60006134758261264b565b91506134808361264b565b9250827fffffffffffffffffffffffffffffffffffffffffffffffffffffffffffffffff038211156134b5576134b4613283565b5b828201905092915050565b7f4f776e61626c653a206e6577206f776e657220697320746865207a65726f206160008201527f6464726573730000000000000000000000000000000000000000000000000000602082015250565b600061351c60268361259b565b9150613527826134c0565b604082019050919050565b6000602082019050818103600083015261354b8161350f565b9050919050565b7f4552433732313a206f70657261746f7220717565727920666f72206e6f6e657860008201527f697374656e7420746f6b656e0000000000000000000000000000000000000000602082015250565b60006135ae602c8361259b565b91506135b982613552565b604082019050919050565b600060208201905081810360008301526135dd816135a1565b9050919050565b7f4552433732313a207472616e73666572206f6620746f6b656e2074686174206960008201527f73206e6f74206f776e0000000000000000000000000000000000000000000000602082015250565b600061364060298361259b565b915061364b826135e4565b604082019050919050565b6000602082019050818103600083015261366f81613633565b9050919050565b7f4552433732313a207472616e7366657220746f20746865207a65726f2061646460008201527f7265737300000000000000000000000000000000000000000000000000000000602082015250565b60006136d260248361259b565b91506136dd82613676565b604082019050919050565b60006020820190508181036000830152613701816136c5565b9050919050565b7f4552433732313a20617070726f766520746f2063616c6c657200000000000000600082015250565b600061373e60198361259b565b915061374982613708565b602082019050919050565b6000602082019050818103600083015261376d81613731565b9050919050565b7f4552433732313a207472616e7366657220746f206e6f6e20455243373231526560008201527f63656976657220696d706c656d656e7465720000000000000000000000000000602082015250565b60006137d060328361259b565b91506137db82613774565b604082019050919050565b600060208201905081810360008301526137ff816137c3565b9050919050565b60006138118261264b565b91507fffffffffffffffffffffffffffffffffffffffffffffffffffffffffffffffff82141561384457613843613283565b5b600182019050919050565b7f4e487b7100000000000000000000000000000000000000000000000000000000600052601260045260246000fd5b60006138898261264b565b91506138948361264b565b9250826138a4576138a361384f565b5b828204905092915050565b60006138ba8261264b565b91506138c58361264b565b9250826138d5576138d461384f565b5b828206905092915050565b7f4552433732313a206d696e7420746f20746865207a65726f2061646472657373600082015250565b600061391660208361259b565b9150613921826138e0565b602082019050919050565b6000602082019050818103600083015261394581613909565b9050919050565b7f4552433732313a20746f6b656e20616c7265616479206d696e74656400000000600082015250565b6000613982601c8361259b565b915061398d8261394c565b602082019050919050565b600060208201905081810360008301526139b181613975565b9050919050565b600081519050919050565b600082825260208201905092915050565b60006139df826139b8565b6139e981856139c3565b93506139f98185602086016125ac565b613a02816125df565b840191505092915050565b6000608082019050613a2260008301876126e0565b613a2f60208301866126e0565b613a3c6040830185612776565b8181036060830152613a4e81846139d4565b905095945050505050565b600081519050613a6881612501565b92915050565b600060208284031215613a8457613a836124cb565b5b6000613a9284828501613a59565b91505092915050565b7f4e487b7100000000000000000000000000000000000000000000000000000000600052603160045260246000fdfea2646970667358221220c2b214a0731c73739fbbb66242a460f388fa8add53eb4dc9478340321b4ef9e564736f6c6343000809003360806040523480156200001157600080fd5b506040518060400160405280600f81526020017f4a4350204f776e657220546f6b656e00000000000000000000000000000000008152506040518060400160405280600c81526020017f4a4350545f544553545f4f310000000000000000000000000000000000000000815250816000908051906020019062000096929190620001a6565b508060019080519060200190620000af929190620001a6565b505050620000d2620000c6620000d860201b60201c565b620000e060201b60201c565b620002bb565b600033905090565b6000600a60009054906101000a900473ffffffffffffffffffffffffffffffffffffffff16905081600a60006101000a81548173ffffffffffffffffffffffffffffffffffffffff021916908373ffffffffffffffffffffffffffffffffffffffff1602179055508173ffffffffffffffffffffffffffffffffffffffff168173ffffffffffffffffffffffffffffffffffffffff167f8be0079c531659141344cd1fd0a4f28419497f9722a3daafe3b4186f6b6457e060405160405180910390a35050565b828054620001b49062000285565b90600052602060002090601f016020900481019282620001d8576000855562000224565b82601f10620001f357805160ff191683800117855562000224565b8280016001018555821562000224579182015b828111156200022357825182559160200191906001019062000206565b5b50905062000233919062000237565b5090565b5b808211156200025257600081600090555060010162000238565b5090565b7f4e487b7100000000000000000000000000000000000000000000000000000000600052602260045260246000fd5b600060028204905060018216806200029e57607f821691505b60208210811415620002b557620002b462000256565b5b50919050565b61354f80620002cb6000396000f3fe608060405234801561001057600080fd5b50600436106101375760003560e01c80636352211e116100b8578063a22cb4651161007c578063a22cb46514610362578063b88d4fde1461037e578063c6fdbc901461039a578063c87b56dd146103ca578063e985e9c5146103fa578063f2fde38b1461042a57610137565b80636352211e146102bc57806370a08231146102ec578063715018a61461031c5780638da5cb5b1461032657806395d89b411461034457610137565b806323579ba1116100ff57806323579ba1146101f457806323b872dd146102245780632f745c591461024057806342842e0e146102705780634f6ccce71461028c57610137565b806301ffc9a71461013c57806306fdde031461016c578063081812fc1461018a578063095ea7b3146101ba57806318160ddd146101d6575b600080fd5b610156600480360381019061015191906121c6565b610446565b604051610163919061220e565b60405180910390f35b6101746104c0565b60405161018191906122c2565b60405180910390f35b6101a4600480360381019061019f919061231a565b610552565b6040516101b19190612388565b60405180910390f35b6101d460048036038101906101cf91906123cf565b6105d7565b005b6101de6106ef565b6040516101eb919061241e565b60405180910390f35b61020e60048036038101906102099190612439565b6106fc565b60405161021b919061241e565b60405180910390f35b61023e6004803603810190610239919061248c565b610839565b005b61025a600480360381019061025591906123cf565b610899565b604051610267919061241e565b60405180910390f35b61028a6004803603810190610285919061248c565b61093e565b005b6102a660048036038101906102a1919061231a565b61095e565b6040516102b3919061241e565b60405180910390f35b6102d660048036038101906102d1919061231a565b6109cf565b6040516102e39190612388565b60405180910390f35b610306600480360381019061030191906124df565b610a81565b604051610313919061241e565b60405180910390f35b610324610b39565b005b61032e610bc1565b60405161033b9190612388565b60405180910390f35b61034c610beb565b60405161035991906122c2565b60405180910390f35b61037c60048036038101906103779190612538565b610c7d565b005b610398600480360381019061039391906126ad565b610c93565b005b6103b460048036038101906103af919061231a565b610cf5565b6040516103c1919061277d565b60405180910390f35b6103e460048036038101906103df919061231a565b610d82565b6040516103f191906122c2565b60405180910390f35b610414600480360381019061040f9190612798565b610e29565b604051610421919061220e565b60405180910390f35b610444600480360381019061043f91906124df565b610ebd565b005b60007f780e9d63000000000000000000000000000000000000000000000000000000007bffffffffffffffffffffffffffffffffffffffffffffffffffffffff1916827bffffffffffffffffffffffffffffffffffffffffffffffffffffffff191614806104b957506104b882610fb5565b5b9050919050565b6060600080546104cf90612807565b80601f01602080910402602001604051908101604052809291908181526020018280546104fb90612807565b80156105485780601f1061051d57610100808354040283529160200191610548565b820191906000526020600020905b81548152906001019060200180831161052b57829003601f168201915b5050505050905090565b600061055d82611097565b61059c576040517f08c379a0000000000000000000000000000000000000000000000000000000008152600401610593906128ab565b60405180910390fd5b6004600083815260200190815260200160002060009054906101000a900473ffffffffffffffffffffffffffffffffffffffff169050919050565b60006105e2826109cf565b90508073ffffffffffffffffffffffffffffffffffffffff168373ffffffffffffffffffffffffffffffffffffffff161415610653576040517f08c379a000000000000000000000000000000000000000000000000000000000815260040161064a9061293d565b60405180910390fd5b8073ffffffffffffffffffffffffffffffffffffffff16610672611103565b73ffffffffffffffffffffffffffffffffffffffff1614806106a157506106a08161069b611103565b610e29565b5b6106e0576040517f08c379a00000000000000000000000000000000000000000000000000000000081526004016106d7906129cf565b60405180910390fd5b6106ea838361110b565b505050565b6000600880549050905090565b6000610706611103565b73ffffffffffffffffffffffffffffffffffffffff16610724610bc1565b73ffffffffffffffffffffffffffffffffffffffff161461077a576040517f08c379a000000000000000000000000000000000000000000000000000000000815260040161077190612a3b565b60405180910390fd5b610784600b6111c4565b6000610790600b6111da565b905060405180604001604052808581526020018473ffffffffffffffffffffffffffffffffffffffff16815250600c60008381526020019081526020016000206000820151816000015560208201518160010160006101000a81548173ffffffffffffffffffffffffffffffffffffffff021916908373ffffffffffffffffffffffffffffffffffffffff16021790555090505061082e85826111e8565b809150509392505050565b61084a610844611103565b826113b6565b610889576040517f08c379a000000000000000000000000000000000000000000000000000000000815260040161088090612acd565b60405180910390fd5b610894838383611494565b505050565b60006108a483610a81565b82106108e5576040517f08c379a00000000000000000000000000000000000000000000000000000000081526004016108dc90612b5f565b60405180910390fd5b600660008473ffffffffffffffffffffffffffffffffffffffff1673ffffffffffffffffffffffffffffffffffffffff168152602001908152602001600020600083815260200190815260200160002054905092915050565b61095983838360405180602001604052806000815250610c93565b505050565b60006109686106ef565b82106109a9576040517f08c379a00000000000000000000000000000000000000000000000000000000081526004016109a090612bf1565b60405180910390fd5b600882815481106109bd576109bc612c11565b5b90600052602060002001549050919050565b6000806002600084815260200190815260200160002060009054906101000a900473ffffffffffffffffffffffffffffffffffffffff169050600073ffffffffffffffffffffffffffffffffffffffff168173ffffffffffffffffffffffffffffffffffffffff161415610a78576040517f08c379a0000000000000000000000000000000000000000000000000000000008152600401610a6f90612cb2565b60405180910390fd5b80915050919050565b60008073ffffffffffffffffffffffffffffffffffffffff168273ffffffffffffffffffffffffffffffffffffffff161415610af2576040517f08c379a0000000000000000000000000000000000000000000000000000000008152600401610ae990612d44565b60405180910390fd5b600360008373ffffffffffffffffffffffffffffffffffffffff1673ffffffffffffffffffffffffffffffffffffffff168152602001908152602001600020549050919050565b610b41611103565b73ffffffffffffffffffffffffffffffffffffffff16610b5f610bc1565b73ffffffffffffffffffffffffffffffffffffffff1614610bb5576040517f08c379a0000000000000000000000000000000000000000000000000000000008152600401610bac90612a3b565b60405180910390fd5b610bbf60006116f0565b565b6000600a60009054906101000a900473ffffffffffffffffffffffffffffffffffffffff16905090565b606060018054610bfa90612807565b80601f0160208091040260200160405190810160405280929190818152602001828054610c2690612807565b8015610c735780601f10610c4857610100808354040283529160200191610c73565b820191906000526020600020905b815481529060010190602001808311610c5657829003601f168201915b5050505050905090565b610c8f610c88611103565b83836117b6565b5050565b610ca4610c9e611103565b836113b6565b610ce3576040517f08c379a0000000000000000000000000000000000000000000000000000000008152600401610cda90612acd565b60405180910390fd5b610cef84848484611923565b50505050565b610cfd61212a565b600c6000838152602001908152602001600020604051806040016040529081600082015481526020016001820160009054906101000a900473ffffffffffffffffffffffffffffffffffffffff1673ffffffffffffffffffffffffffffffffffffffff1673ffffffffffffffffffffffffffffffffffffffff16815250509050919050565b6060610d8d82611097565b610dcc576040517f08c379a0000000000000000000000000000000000000000000000000000000008152600401610dc390612dd6565b60405180910390fd5b6000610dd661197f565b90506000815111610df65760405180602001604052806000815250610e21565b80610e0084611996565b604051602001610e11929190612e32565b6040516020818303038152906040525b915050919050565b6000600560008473ffffffffffffffffffffffffffffffffffffffff1673ffffffffffffffffffffffffffffffffffffffff16815260200190815260200160002060008373ffffffffffffffffffffffffffffffffffffffff1673ffffffffffffffffffffffffffffffffffffffff16815260200190815260200160002060009054906101000a900460ff16905092915050565b610ec5611103565b73ffffffffffffffffffffffffffffffffffffffff16610ee3610bc1565b73ffffffffffffffffffffffffffffffffffffffff1614610f39576040517f08c379a0000000000000000000000000000000000000000000000000000000008152600401610f3090612a3b565b60405180910390fd5b600073ffffffffffffffffffffffffffffffffffffffff168173ffffffffffffffffffffffffffffffffffffffff161415610fa9576040517f08c379a0000000000000000000000000000000000000000000000000000000008152600401610fa090612ec8565b60405180910390fd5b610fb2816116f0565b50565b60007f80ac58cd000000000000000000000000000000000000000000000000000000007bffffffffffffffffffffffffffffffffffffffffffffffffffffffff1916827bffffffffffffffffffffffffffffffffffffffffffffffffffffffff1916148061108057507f5b5e139f000000000000000000000000000000000000000000000000000000007bffffffffffffffffffffffffffffffffffffffffffffffffffffffff1916827bffffffffffffffffffffffffffffffffffffffffffffffffffffffff1916145b80611090575061108f82611af7565b5b9050919050565b60008073ffffffffffffffffffffffffffffffffffffffff166002600084815260200190815260200160002060009054906101000a900473ffffffffffffffffffffffffffffffffffffffff1673ffffffffffffffffffffffffffffffffffffffff1614159050919050565b600033905090565b816004600083815260200190815260200160002060006101000a81548173ffffffffffffffffffffffffffffffffffffffff021916908373ffffffffffffffffffffffffffffffffffffffff160217905550808273ffffffffffffffffffffffffffffffffffffffff1661117e836109cf565b73ffffffffffffffffffffffffffffffffffffffff167f8c5be1e5ebec7d5bd14f71427d1e84f3dd0314c0f7b2291e5b200ac8c7c3b92560405160405180910390a45050565b6001816000016000828254019250508190555050565b600081600001549050919050565b600073ffffffffffffffffffffffffffffffffffffffff168273ffffffffffffffffffffffffffffffffffffffff161415611258576040517f08c379a000000000000000000000000000000000000000000000000000000000815260040161124f90612f34565b60405180910390fd5b61126181611097565b156112a1576040517f08c379a000000000000000000000000000000000000000000000000000000000815260040161129890612fa0565b60405180910390fd5b6112ad60008383611b61565b6001600360008473ffffffffffffffffffffffffffffffffffffffff1673ffffffffffffffffffffffffffffffffffffffff16815260200190815260200160002060008282546112fd9190612fef565b92505081905550816002600083815260200190815260200160002060006101000a81548173ffffffffffffffffffffffffffffffffffffffff021916908373ffffffffffffffffffffffffffffffffffffffff160217905550808273ffffffffffffffffffffffffffffffffffffffff16600073ffffffffffffffffffffffffffffffffffffffff167fddf252ad1be2c89b69c2b068fc378daa952ba7f163c4a11628f55a4df523b3ef60405160405180910390a45050565b60006113c182611097565b611400576040517f08c379a00000000000000000000000000000000000000000000000000000000081526004016113f7906130b7565b60405180910390fd5b600061140b836109cf565b90508073ffffffffffffffffffffffffffffffffffffffff168473ffffffffffffffffffffffffffffffffffffffff16148061147a57508373ffffffffffffffffffffffffffffffffffffffff1661146284610552565b73ffffffffffffffffffffffffffffffffffffffff16145b8061148b575061148a8185610e29565b5b91505092915050565b8273ffffffffffffffffffffffffffffffffffffffff166114b4826109cf565b73ffffffffffffffffffffffffffffffffffffffff161461150a576040517f08c379a000000000000000000000000000000000000000000000000000000000815260040161150190613149565b60405180910390fd5b600073ffffffffffffffffffffffffffffffffffffffff168273ffffffffffffffffffffffffffffffffffffffff16141561157a576040517f08c379a0000000000000000000000000000000000000000000000000000000008152600401611571906131db565b60405180910390fd5b611585838383611b61565b61159060008261110b565b6001600360008573ffffffffffffffffffffffffffffffffffffffff1673ffffffffffffffffffffffffffffffffffffffff16815260200190815260200160002060008282546115e091906131fb565b925050819055506001600360008473ffffffffffffffffffffffffffffffffffffffff1673ffffffffffffffffffffffffffffffffffffffff16815260200190815260200160002060008282546116379190612fef565b92505081905550816002600083815260200190815260200160002060006101000a81548173ffffffffffffffffffffffffffffffffffffffff021916908373ffffffffffffffffffffffffffffffffffffffff160217905550808273ffffffffffffffffffffffffffffffffffffffff168473ffffffffffffffffffffffffffffffffffffffff167fddf252ad1be2c89b69c2b068fc378daa952ba7f163c4a11628f55a4df523b3ef60405160405180910390a4505050565b6000600a60009054906101000a900473ffffffffffffffffffffffffffffffffffffffff16905081600a60006101000a81548173ffffffffffffffffffffffffffffffffffffffff021916908373ffffffffffffffffffffffffffffffffffffffff1602179055508173ffffffffffffffffffffffffffffffffffffffff168173ffffffffffffffffffffffffffffffffffffffff167f8be0079c531659141344cd1fd0a4f28419497f9722a3daafe3b4186f6b6457e060405160405180910390a35050565b8173ffffffffffffffffffffffffffffffffffffffff168373ffffffffffffffffffffffffffffffffffffffff161415611825576040517f08c379a000000000000000000000000000000000000000000000000000000000815260040161181c9061327b565b60405180910390fd5b80600560008573ffffffffffffffffffffffffffffffffffffffff1673ffffffffffffffffffffffffffffffffffffffff16815260200190815260200160002060008473ffffffffffffffffffffffffffffffffffffffff1673ffffffffffffffffffffffffffffffffffffffff16815260200190815260200160002060006101000a81548160ff0219169083151502179055508173ffffffffffffffffffffffffffffffffffffffff168373ffffffffffffffffffffffffffffffffffffffff167f17307eab39ab6107e8899845ad3d59bd9653f200f220920489ca2b5937696c3183604051611916919061220e565b60405180910390a3505050565b61192e848484611494565b61193a84848484611c75565b611979576040517f08c379a00000000000000000000000000000000000000000000000000000000081526004016119709061330d565b60405180910390fd5b50505050565b606060405180602001604052806000815250905090565b606060008214156119de576040518060400160405280600181526020017f30000000000000000000000000000000000000000000000000000000000000008152509050611af2565b600082905060005b60008214611a105780806119f99061332d565b915050600a82611a0991906133a5565b91506119e6565b60008167ffffffffffffffff811115611a2c57611a2b612582565b5b6040519080825280601f01601f191660200182016040528015611a5e5781602001600182028036833780820191505090505b5090505b60008514611aeb57600182611a7791906131fb565b9150600a85611a8691906133d6565b6030611a929190612fef565b60f81b818381518110611aa857611aa7612c11565b5b60200101907effffffffffffffffffffffffffffffffffffffffffffffffffffffffffffff1916908160001a905350600a85611ae491906133a5565b9450611a62565b8093505050505b919050565b60007f01ffc9a7000000000000000000000000000000000000000000000000000000007bffffffffffffffffffffffffffffffffffffffffffffffffffffffff1916827bffffffffffffffffffffffffffffffffffffffffffffffffffffffff1916149050919050565b611b6c838383611e0c565b600073ffffffffffffffffffffffffffffffffffffffff168373ffffffffffffffffffffffffffffffffffffffff161415611baf57611baa81611e11565b611bee565b8173ffffffffffffffffffffffffffffffffffffffff168373ffffffffffffffffffffffffffffffffffffffff1614611bed57611bec8382611e5a565b5b5b600073ffffffffffffffffffffffffffffffffffffffff168273ffffffffffffffffffffffffffffffffffffffff161415611c3157611c2c81611fc7565b611c70565b8273ffffffffffffffffffffffffffffffffffffffff168273ffffffffffffffffffffffffffffffffffffffff1614611c6f57611c6e8282612098565b5b5b505050565b6000611c968473ffffffffffffffffffffffffffffffffffffffff16612117565b15611dff578373ffffffffffffffffffffffffffffffffffffffff1663150b7a02611cbf611103565b8786866040518563ffffffff1660e01b8152600401611ce1949392919061345c565b602060405180830381600087803b158015611cfb57600080fd5b505af1925050508015611d2c57506040513d601f19601f82011682018060405250810190611d2991906134bd565b60015b611daf573d8060008114611d5c576040519150601f19603f3d011682016040523d82523d6000602084013e611d61565b606091505b50600081511415611da7576040517f08c379a0000000000000000000000000000000000000000000000000000000008152600401611d9e9061330d565b60405180910390fd5b805181602001fd5b63150b7a0260e01b7bffffffffffffffffffffffffffffffffffffffffffffffffffffffff1916817bffffffffffffffffffffffffffffffffffffffffffffffffffffffff191614915050611e04565b600190505b949350505050565b505050565b6008805490506009600083815260200190815260200160002081905550600881908060018154018082558091505060019003906000526020600020016000909190919091505550565b60006001611e6784610a81565b611e7191906131fb565b9050600060076000848152602001908152602001600020549050818114611f56576000600660008673ffffffffffffffffffffffffffffffffffffffff1673ffffffffffffffffffffffffffffffffffffffff168152602001908152602001600020600084815260200190815260200160002054905080600660008773ffffffffffffffffffffffffffffffffffffffff1673ffffffffffffffffffffffffffffffffffffffff168152602001908152602001600020600084815260200190815260200160002081905550816007600083815260200190815260200160002081905550505b6007600084815260200190815260200160002060009055600660008573ffffffffffffffffffffffffffffffffffffffff1673ffffffffffffffffffffffffffffffffffffffff16815260200190815260200160002060008381526020019081526020016000206000905550505050565b60006001600880549050611fdb91906131fb565b905060006009600084815260200190815260200160002054905060006008838154811061200b5761200a612c11565b5b90600052602060002001549050806008838154811061202d5761202c612c11565b5b90600052602060002001819055508160096000838152602001908152602001600020819055506009600085815260200190815260200160002060009055600880548061207c5761207b6134ea565b5b6001900381819060005260206000200160009055905550505050565b60006120a383610a81565b905081600660008573ffffffffffffffffffffffffffffffffffffffff1673ffffffffffffffffffffffffffffffffffffffff168152602001908152602001600020600083815260200190815260200160002081905550806007600084815260200190815260200160002081905550505050565b600080823b905060008111915050919050565b604051806040016040528060008152602001600073ffffffffffffffffffffffffffffffffffffffff1681525090565b6000604051905090565b600080fd5b600080fd5b60007fffffffff0000000000000000000000000000000000000000000000000000000082169050919050565b6121a38161216e565b81146121ae57600080fd5b50565b6000813590506121c08161219a565b92915050565b6000602082840312156121dc576121db612164565b5b60006121ea848285016121b1565b91505092915050565b60008115159050919050565b612208816121f3565b82525050565b600060208201905061222360008301846121ff565b92915050565b600081519050919050565b600082825260208201905092915050565b60005b83811015612263578082015181840152602081019050612248565b83811115612272576000848401525b50505050565b6000601f19601f8301169050919050565b600061229482612229565b61229e8185612234565b93506122ae818560208601612245565b6122b781612278565b840191505092915050565b600060208201905081810360008301526122dc8184612289565b905092915050565b6000819050919050565b6122f7816122e4565b811461230257600080fd5b50565b600081359050612314816122ee565b92915050565b6000602082840312156123305761232f612164565b5b600061233e84828501612305565b91505092915050565b600073ffffffffffffffffffffffffffffffffffffffff82169050919050565b600061237282612347565b9050919050565b61238281612367565b82525050565b600060208201905061239d6000830184612379565b92915050565b6123ac81612367565b81146123b757600080fd5b50565b6000813590506123c9816123a3565b92915050565b600080604083850312156123e6576123e5612164565b5b60006123f4858286016123ba565b925050602061240585828601612305565b9150509250929050565b612418816122e4565b82525050565b6000602082019050612433600083018461240f565b92915050565b60008060006060848603121561245257612451612164565b5b6000612460868287016123ba565b935050602061247186828701612305565b9250506040612482868287016123ba565b9150509250925092565b6000806000606084860312156124a5576124a4612164565b5b60006124b3868287016123ba565b93505060206124c4868287016123ba565b92505060406124d586828701612305565b9150509250925092565b6000602082840312156124f5576124f4612164565b5b6000612503848285016123ba565b91505092915050565b612515816121f3565b811461252057600080fd5b50565b6000813590506125328161250c565b92915050565b6000806040838503121561254f5761254e612164565b5b600061255d858286016123ba565b925050602061256e85828601612523565b9150509250929050565b600080fd5b600080fd5b7f4e487b7100000000000000000000000000000000000000000000000000000000600052604160045260246000fd5b6125ba82612278565b810181811067ffffffffffffffff821117156125d9576125d8612582565b5b80604052505050565b60006125ec61215a565b90506125f882826125b1565b919050565b600067ffffffffffffffff82111561261857612617612582565b5b61262182612278565b9050602081019050919050565b82818337600083830152505050565b600061265061264b846125fd565b6125e2565b90508281526020810184848401111561266c5761266b61257d565b5b61267784828561262e565b509392505050565b600082601f83011261269457612693612578565b5b81356126a484826020860161263d565b91505092915050565b600080600080608085870312156126c7576126c6612164565b5b60006126d5878288016123ba565b94505060206126e6878288016123ba565b93505060406126f787828801612305565b925050606085013567ffffffffffffffff81111561271857612717612169565b5b6127248782880161267f565b91505092959194509250565b612739816122e4565b82525050565b61274881612367565b82525050565b6040820160008201516127646000850182612730565b506020820151612777602085018261273f565b50505050565b6000604082019050612792600083018461274e565b92915050565b600080604083850312156127af576127ae612164565b5b60006127bd858286016123ba565b92505060206127ce858286016123ba565b9150509250929050565b7f4e487b7100000000000000000000000000000000000000000000000000000000600052602260045260246000fd5b6000600282049050600182168061281f57607f821691505b60208210811415612833576128326127d8565b5b50919050565b7f4552433732313a20617070726f76656420717565727920666f72206e6f6e657860008201527f697374656e7420746f6b656e0000000000000000000000000000000000000000602082015250565b6000612895602c83612234565b91506128a082612839565b604082019050919050565b600060208201905081810360008301526128c481612888565b9050919050565b7f4552433732313a20617070726f76616c20746f2063757272656e74206f776e6560008201527f7200000000000000000000000000000000000000000000000000000000000000602082015250565b6000612927602183612234565b9150612932826128cb565b604082019050919050565b600060208201905081810360008301526129568161291a565b9050919050565b7f4552433732313a20617070726f76652063616c6c6572206973206e6f74206f7760008201527f6e6572206e6f7220617070726f76656420666f7220616c6c0000000000000000602082015250565b60006129b9603883612234565b91506129c48261295d565b604082019050919050565b600060208201905081810360008301526129e8816129ac565b9050919050565b7f4f776e61626c653a2063616c6c6572206973206e6f7420746865206f776e6572600082015250565b6000612a25602083612234565b9150612a30826129ef565b602082019050919050565b60006020820190508181036000830152612a5481612a18565b9050919050565b7f4552433732313a207472616e736665722063616c6c6572206973206e6f74206f60008201527f776e6572206e6f7220617070726f766564000000000000000000000000000000602082015250565b6000612ab7603183612234565b9150612ac282612a5b565b604082019050919050565b60006020820190508181036000830152612ae681612aaa565b9050919050565b7f455243373231456e756d657261626c653a206f776e657220696e646578206f7560008201527f74206f6620626f756e6473000000000000000000000000000000000000000000602082015250565b6000612b49602b83612234565b9150612b5482612aed565b604082019050919050565b60006020820190508181036000830152612b7881612b3c565b9050919050565b7f455243373231456e756d657261626c653a20676c6f62616c20696e646578206f60008201527f7574206f6620626f756e64730000000000000000000000000000000000000000602082015250565b6000612bdb602c83612234565b9150612be682612b7f565b604082019050919050565b60006020820190508181036000830152612c0a81612bce565b9050919050565b7f4e487b7100000000000000000000000000000000000000000000000000000000600052603260045260246000fd5b7f4552433732313a206f776e657220717565727920666f72206e6f6e657869737460008201527f656e7420746f6b656e0000000000000000000000000000000000000000000000602082015250565b6000612c9c602983612234565b9150612ca782612c40565b604082019050919050565b60006020820190508181036000830152612ccb81612c8f565b9050919050565b7f4552433732313a2062616c616e636520717565727920666f7220746865207a6560008201527f726f206164647265737300000000000000000000000000000000000000000000602082015250565b6000612d2e602a83612234565b9150612d3982612cd2565b604082019050919050565b60006020820190508181036000830152612d5d81612d21565b9050919050565b7f4552433732314d657461646174613a2055524920717565727920666f72206e6f60008201527f6e6578697374656e7420746f6b656e0000000000000000000000000000000000602082015250565b6000612dc0602f83612234565b9150612dcb82612d64565b604082019050919050565b60006020820190508181036000830152612def81612db3565b9050919050565b600081905092915050565b6000612e0c82612229565b612e168185612df6565b9350612e26818560208601612245565b80840191505092915050565b6000612e3e8285612e01565b9150612e4a8284612e01565b91508190509392505050565b7f4f776e61626c653a206e6577206f776e657220697320746865207a65726f206160008201527f6464726573730000000000000000000000000000000000000000000000000000602082015250565b6000612eb2602683612234565b9150612ebd82612e56565b604082019050919050565b60006020820190508181036000830152612ee181612ea5565b9050919050565b7f4552433732313a206d696e7420746f20746865207a65726f2061646472657373600082015250565b6000612f1e602083612234565b9150612f2982612ee8565b602082019050919050565b60006020820190508181036000830152612f4d81612f11565b9050919050565b7f4552433732313a20746f6b656e20616c7265616479206d696e74656400000000600082015250565b6000612f8a601c83612234565b9150612f9582612f54565b602082019050919050565b60006020820190508181036000830152612fb981612f7d565b9050919050565b7f4e487b7100000000000000000000000000000000000000000000000000000000600052601160045260246000fd5b6000612ffa826122e4565b9150613005836122e4565b9250827fffffffffffffffffffffffffffffffffffffffffffffffffffffffffffffffff0382111561303a57613039612fc0565b5b828201905092915050565b7f4552433732313a206f70657261746f7220717565727920666f72206e6f6e657860008201527f697374656e7420746f6b656e0000000000000000000000000000000000000000602082015250565b60006130a1602c83612234565b91506130ac82613045565b604082019050919050565b600060208201905081810360008301526130d081613094565b9050919050565b7f4552433732313a207472616e73666572206f6620746f6b656e2074686174206960008201527f73206e6f74206f776e0000000000000000000000000000000000000000000000602082015250565b6000613133602983612234565b915061313e826130d7565b604082019050919050565b6000602082019050818103600083015261316281613126565b9050919050565b7f4552433732313a207472616e7366657220746f20746865207a65726f2061646460008201527f7265737300000000000000000000000000000000000000000000000000000000602082015250565b60006131c5602483612234565b91506131d082613169565b604082019050919050565b600060208201905081810360008301526131f4816131b8565b9050919050565b6000613206826122e4565b9150613211836122e4565b92508282101561322457613223612fc0565b5b828203905092915050565b7f4552433732313a20617070726f766520746f2063616c6c657200000000000000600082015250565b6000613265601983612234565b91506132708261322f565b602082019050919050565b6000602082019050818103600083015261329481613258565b9050919050565b7f4552433732313a207472616e7366657220746f206e6f6e20455243373231526560008201527f63656976657220696d706c656d656e7465720000000000000000000000000000602082015250565b60006132f7603283612234565b91506133028261329b565b604082019050919050565b60006020820190508181036000830152613326816132ea565b9050919050565b6000613338826122e4565b91507fffffffffffffffffffffffffffffffffffffffffffffffffffffffffffffffff82141561336b5761336a612fc0565b5b600182019050919050565b7f4e487b7100000000000000000000000000000000000000000000000000000000600052601260045260246000fd5b60006133b0826122e4565b91506133bb836122e4565b9250826133cb576133ca613376565b5b828204905092915050565b60006133e1826122e4565b91506133ec836122e4565b9250826133fc576133fb613376565b5b828206905092915050565b600081519050919050565b600082825260208201905092915050565b600061342e82613407565b6134388185613412565b9350613448818560208601612245565b61345181612278565b840191505092915050565b60006080820190506134716000830187612379565b61347e6020830186612379565b61348b604083018561240f565b818103606083015261349d8184613423565b905095945050505050565b6000815190506134b78161219a565b92915050565b6000602082840312156134d3576134d2612164565b5b60006134e1848285016134a8565b91505092915050565b7f4e487b7100000000000000000000000000000000000000000000000000000000600052603160045260246000fdfea26469706673582212204fceb336f0ca11da15448ca07ea0fdf350768364f49739bcc628c577608957b664736f6c63430008090033608060405234801561001057600080fd5b506001600460006101000a81548160ff0219169083151502179055506136b98061003b6000396000f3fe6080604052600436106101145760003560e01c806350d02d71116100a0578063734029bf11610064578063734029bf146103db5780637f80069a146103f75780638aebe8d614610422578063a56f5b531461045f578063f45346dc1461048857610114565b806350d02d71146102d057806357ac6566146102f95780635ff189b9146103245780636805d6ad14610361578063711cc0051461039e57610114565b806317d7de7c116100e757806317d7de7c146101e75780631b88094d146102125780632f7570061461023d578063343d693b146102685780633735ef881461029357610114565b80630251cfa1146101195780630712f6b3146101565780630835d21a1461019357806316762eed146101be575b600080fd5b34801561012557600080fd5b50610140600480360381019061013b919061247a565b6104b1565b60405161014d91906124c0565b60405180910390f35b34801561016257600080fd5b5061017d6004803603810190610178919061247a565b6104fa565b60405161018a91906124c0565b60405180910390f35b34801561019f57600080fd5b506101a861062f565b6040516101b591906124f4565b60405180910390f35b3480156101ca57600080fd5b506101e560048036038101906101e0919061253b565b61068f565b005b3480156101f357600080fd5b506101fc610c78565b604051610209919061263b565b60405180910390f35b34801561021e57600080fd5b50610227610d0a565b604051610234919061266c565b60405180910390f35b34801561024957600080fd5b50610252610d34565b60405161025f9190612745565b60405180910390f35b34801561027457600080fd5b5061027d610dc2565b60405161028a919061263b565b60405180910390f35b34801561029f57600080fd5b506102ba60048036038101906102b5919061247a565b610e54565b6040516102c791906124c0565b60405180910390f35b3480156102dc57600080fd5b506102f760048036038101906102f29190612964565b610fd9565b005b34801561030557600080fd5b5061030e61144c565b60405161031b9190612a74565b60405180910390f35b34801561033057600080fd5b5061034b6004803603810190610346919061247a565b611486565b60405161035891906124c0565b60405180910390f35b34801561036d57600080fd5b5061038860048036038101906103839190612a96565b6114cf565b60405161039591906124c0565b60405180910390f35b3480156103aa57600080fd5b506103c560048036038101906103c0919061247a565b611556565b6040516103d2919061266c565b60405180910390f35b6103f560048036038101906103f09190612a96565b611603565b005b34801561040357600080fd5b5061040c611751565b6040516104199190612af1565b60405180910390f35b34801561042e57600080fd5b506104496004803603810190610444919061247a565b611764565b60405161045691906124c0565b60405180910390f35b34801561046b57600080fd5b506104866004803603810190610481919061247a565b611841565b005b34801561049457600080fd5b506104af60048036038101906104aa9190612b0c565b611d0f565b005b6000600260008373ffffffffffffffffffffffffffffffffffffffff1673ffffffffffffffffffffffffffffffffffffffff168152602001908152602001600020549050919050565b600080733c73a5e5785cac854d468f727c606c07488a29d673ffffffffffffffffffffffffffffffffffffffff1663d2493b6c846040518263ffffffff1660e01b815260040161054a919061266c565b60606040518083038186803b15801561056257600080fd5b505afa158015610576573d6000803e3d6000fd5b505050506040513d601f19601f8201168201806040525081019061059a9190612b74565b505090508073ffffffffffffffffffffffffffffffffffffffff166370a08231306040518263ffffffff1660e01b81526004016105d7919061266c565b60206040518083038186803b1580156105ef57600080fd5b505afa158015610603573d6000803e3d6000fd5b505050506040513d601f19601f820116820180604052508101906106279190612bdc565b915050919050565b60003073ffffffffffffffffffffffffffffffffffffffff16803b806020016040519081016040528181526000908060200190933c6040516020016106749190612c45565b60405160208183030381529060405280519060200120905090565b338073ffffffffffffffffffffffffffffffffffffffff16600860009054906101000a900473ffffffffffffffffffffffffffffffffffffffff1673ffffffffffffffffffffffffffffffffffffffff1614610720576040517f08c379a000000000000000000000000000000000000000000000000000000000815260040161071790612ca8565b60405180910390fd5b8185858560008211610767576040517f08c379a000000000000000000000000000000000000000000000000000000000815260040161075e90612d14565b60405180910390fd5b81600160008673ffffffffffffffffffffffffffffffffffffffff1673ffffffffffffffffffffffffffffffffffffffff16815260200190815260200160002060008573ffffffffffffffffffffffffffffffffffffffff1673ffffffffffffffffffffffffffffffffffffffff168152602001908152602001600020541015610826576040517f08c379a000000000000000000000000000000000000000000000000000000000815260040161081d90612da6565b60405180910390fd5b80821015610869576040517f08c379a000000000000000000000000000000000000000000000000000000000815260040161086090612e38565b60405180910390fd5b60008714610a16576000878961087f9190612e87565b9050600560009054906101000a900473ffffffffffffffffffffffffffffffffffffffff1673ffffffffffffffffffffffffffffffffffffffff166369328dec8b8a600760009054906101000a900473ffffffffffffffffffffffffffffffffffffffff166040518463ffffffff1660e01b815260040161090293929190612ebb565b602060405180830381600087803b15801561091c57600080fd5b505af1158015610930573d6000803e3d6000fd5b505050506040513d601f19601f820116820180604052508101906109549190612bdc565b5060008114610a1057600560009054906101000a900473ffffffffffffffffffffffffffffffffffffffff1673ffffffffffffffffffffffffffffffffffffffff166369328dec8b838a6040518463ffffffff1660e01b81526004016109bc93929190612ebb565b602060405180830381600087803b1580156109d657600080fd5b505af11580156109ea573d6000803e3d6000fd5b505050506040513d601f19601f82011682018060405250810190610a0e9190612bdc565b505b50610ac9565b600560009054906101000a900473ffffffffffffffffffffffffffffffffffffffff1673ffffffffffffffffffffffffffffffffffffffff166369328dec8a8a896040518463ffffffff1660e01b8152600401610a7593929190612ebb565b602060405180830381600087803b158015610a8f57600080fd5b505af1158015610aa3573d6000803e3d6000fd5b505050506040513d601f19601f82011682018060405250810190610ac79190612bdc565b505b87600160008873ffffffffffffffffffffffffffffffffffffffff1673ffffffffffffffffffffffffffffffffffffffff16815260200190815260200160002060008b73ffffffffffffffffffffffffffffffffffffffff1673ffffffffffffffffffffffffffffffffffffffff1681526020019081526020016000206000828254610b559190612e87565b9250508190555087600260008b73ffffffffffffffffffffffffffffffffffffffff1673ffffffffffffffffffffffffffffffffffffffff1681526020019081526020016000206000828254610bab9190612e87565b925050819055507febff2602b3f468259e1e99f613fed6691f3a6526effe6ef3e768ba7ae7a36c4f89878a600160008b73ffffffffffffffffffffffffffffffffffffffff1673ffffffffffffffffffffffffffffffffffffffff16815260200190815260200160002060008e73ffffffffffffffffffffffffffffffffffffffff1673ffffffffffffffffffffffffffffffffffffffff168152602001908152602001600020548b604051610c65959493929190612ef2565b60405180910390a1505050505050505050565b606060098054610c8790612f74565b80601f0160208091040260200160405190810160405280929190818152602001828054610cb390612f74565b8015610d005780601f10610cd557610100808354040283529160200191610d00565b820191906000526020600020905b815481529060010190602001808311610ce357829003601f168201915b5050505050905090565b6000600760009054906101000a900473ffffffffffffffffffffffffffffffffffffffff16905090565b60606006805480602002602001604051908101604052809291908181526020018280548015610db857602002820191906000526020600020905b8160009054906101000a900473ffffffffffffffffffffffffffffffffffffffff1673ffffffffffffffffffffffffffffffffffffffff1681526020019060010190808311610d6e575b5050505050905090565b6060600a8054610dd190612f74565b80601f0160208091040260200160405190810160405280929190818152602001828054610dfd90612f74565b8015610e4a5780601f10610e1f57610100808354040283529160200191610e4a565b820191906000526020600020905b815481529060010190602001808311610e2d57829003601f168201915b5050505050905090565b600080733c73a5e5785cac854d468f727c606c07488a29d673ffffffffffffffffffffffffffffffffffffffff1663d2493b6c846040518263ffffffff1660e01b8152600401610ea4919061266c565b60606040518083038186803b158015610ebc57600080fd5b505afa158015610ed0573d6000803e3d6000fd5b505050506040513d601f19601f82011682018060405250810190610ef49190612b74565b5050905060008173ffffffffffffffffffffffffffffffffffffffff166370a08231306040518263ffffffff1660e01b8152600401610f33919061266c565b60206040518083038186803b158015610f4b57600080fd5b505afa158015610f5f573d6000803e3d6000fd5b505050506040513d601f19601f82011682018060405250810190610f839190612bdc565b9050600260008573ffffffffffffffffffffffffffffffffffffffff1673ffffffffffffffffffffffffffffffffffffffff1681526020019081526020016000205481610fd09190612e87565b92505050919050565b82601e60008290508160ff16815110611027576040517f08c379a000000000000000000000000000000000000000000000000000000000815260040161101e90612ff2565b60405180910390fd5b8460c860008290508160ff16815110611075576040517f08c379a000000000000000000000000000000000000000000000000000000000815260040161106c90612ff2565b60405180910390fd5b600060019054906101000a900460ff1661109d5760008054906101000a900460ff16156110a6565b6110a561214b565b5b6110e5576040517f08c379a00000000000000000000000000000000000000000000000000000000081526004016110dc90613084565b60405180910390fd5b60008060019054906101000a900460ff161590508015611135576001600060016101000a81548160ff02191690831515021790555060016000806101000a81548160ff0219169083151502179055505b60001515600460009054906101000a900460ff1615151461118b576040517f08c379a0000000000000000000000000000000000000000000000000000000008152600401611182906130f0565b60405180910390fd5b600073ffffffffffffffffffffffffffffffffffffffff16600760009054906101000a900473ffffffffffffffffffffffffffffffffffffffff1673ffffffffffffffffffffffffffffffffffffffff161461121c576040517f08c379a00000000000000000000000000000000000000000000000000000000081526004016112139061315c565b60405180910390fd5b87600760006101000a81548173ffffffffffffffffffffffffffffffffffffffff021916908373ffffffffffffffffffffffffffffffffffffffff16021790555033600860006101000a81548173ffffffffffffffffffffffffffffffffffffffff021916908373ffffffffffffffffffffffffffffffffffffffff16021790555089600990805190602001906112b49291906122db565b5088600a90805190602001906112cb9291906122db565b507388757f2f99175387ab4c6a4b3067c77a695b0349600460016101000a81548173ffffffffffffffffffffffffffffffffffffffff021916908373ffffffffffffffffffffffffffffffffffffffff1602179055506000600460019054906101000a900473ffffffffffffffffffffffffffffffffffffffff1673ffffffffffffffffffffffffffffffffffffffff16630261bf8b6040518163ffffffff1660e01b815260040160206040518083038186803b15801561138b57600080fd5b505afa15801561139f573d6000803e3d6000fd5b505050506040513d601f19601f820116820180604052508101906113c3919061317c565b905080600560006101000a81548173ffffffffffffffffffffffffffffffffffffffff021916908373ffffffffffffffffffffffffffffffffffffffff1602179055508b6006908051906020019061141c929190612361565b5050801561143f5760008060016101000a81548160ff0219169083151502179055505b5050505050505050505050565b60603073ffffffffffffffffffffffffffffffffffffffff16803b806020016040519081016040528181526000908060200190933c905090565b6000600360008373ffffffffffffffffffffffffffffffffffffffff1673ffffffffffffffffffffffffffffffffffffffff168152602001908152602001600020549050919050565b6000600160008473ffffffffffffffffffffffffffffffffffffffff1673ffffffffffffffffffffffffffffffffffffffff16815260200190815260200160002060008373ffffffffffffffffffffffffffffffffffffffff1673ffffffffffffffffffffffffffffffffffffffff16815260200190815260200160002054905092915050565b600080733c73a5e5785cac854d468f727c606c07488a29d673ffffffffffffffffffffffffffffffffffffffff1663d2493b6c846040518263ffffffff1660e01b81526004016115a6919061266c565b60606040518083038186803b1580156115be57600080fd5b505afa1580156115d2573d6000803e3d6000fd5b505050506040513d601f19601f820116820180604052508101906115f69190612b74565b5050905080915050919050565b338073ffffffffffffffffffffffffffffffffffffffff16600860009054906101000a900473ffffffffffffffffffffffffffffffffffffffff1673ffffffffffffffffffffffffffffffffffffffff1614611694576040517f08c379a000000000000000000000000000000000000000000000000000000000815260040161168b90612ca8565b60405180910390fd5b6000600560009054906101000a900473ffffffffffffffffffffffffffffffffffffffff16905073a61ca04df33b72b235a8a28cfb535bb7a5271b7073ffffffffffffffffffffffffffffffffffffffff1663474cf53d34833060006040518563ffffffff1660e01b815260040161170e939291906131fc565b6000604051808303818588803b15801561172757600080fd5b505af115801561173b573d6000803e3d6000fd5b505050505061174b34858561215c565b50505050565b600460009054906101000a900460ff1681565b6000733c73a5e5785cac854d468f727c606c07488a29d673ffffffffffffffffffffffffffffffffffffffff166335ea6a75836040518263ffffffff1660e01b81526004016117b3919061266c565b6101406040518083038186803b1580156117cc57600080fd5b505afa1580156117e0573d6000803e3d6000fd5b505050506040513d601f19601f820116820180604052508101906118049190613270565b9091929394959697985090919293949596975090919293949596509091929394955090919293945090919293509091925090505080915050919050565b338073ffffffffffffffffffffffffffffffffffffffff16600860009054906101000a900473ffffffffffffffffffffffffffffffffffffffff1673ffffffffffffffffffffffffffffffffffffffff16146118d2576040517f08c379a00000000000000000000000000000000000000000000000000000000081526004016118c990612ca8565b60405180910390fd5b81600080600090505b6006805490508160ff16101561197c5760068160ff16815481106119025761190161334f565b5b9060005260206000200160009054906101000a900473ffffffffffffffffffffffffffffffffffffffff1673ffffffffffffffffffffffffffffffffffffffff168373ffffffffffffffffffffffffffffffffffffffff161415611969576001915061197c565b80806119749061338b565b9150506118db565b50806119bd576040517f08c379a00000000000000000000000000000000000000000000000000000000081526004016119b490613427565b60405180910390fd5b6000733c73a5e5785cac854d468f727c606c07488a29d673ffffffffffffffffffffffffffffffffffffffff1663d2493b6c866040518263ffffffff1660e01b8152600401611a0c919061266c565b60606040518083038186803b158015611a2457600080fd5b505afa158015611a38573d6000803e3d6000fd5b505050506040513d601f19601f82011682018060405250810190611a5c9190612b74565b5050905060008173ffffffffffffffffffffffffffffffffffffffff166370a08231306040518263ffffffff1660e01b8152600401611a9b919061266c565b60206040518083038186803b158015611ab357600080fd5b505afa158015611ac7573d6000803e3d6000fd5b505050506040513d601f19601f82011682018060405250810190611aeb9190612bdc565b90506000600260008873ffffffffffffffffffffffffffffffffffffffff1673ffffffffffffffffffffffffffffffffffffffff1681526020019081526020016000205482611b3a9190612e87565b905080600360008973ffffffffffffffffffffffffffffffffffffffff1673ffffffffffffffffffffffffffffffffffffffff1681526020019081526020016000206000828254611b8b9190613447565b92505081905550600560009054906101000a900473ffffffffffffffffffffffffffffffffffffffff1673ffffffffffffffffffffffffffffffffffffffff166369328dec8883600760009054906101000a900473ffffffffffffffffffffffffffffffffffffffff166040518463ffffffff1660e01b8152600401611c1393929190612ebb565b602060405180830381600087803b158015611c2d57600080fd5b505af1158015611c41573d6000803e3d6000fd5b505050506040513d601f19601f82011682018060405250810190611c659190612bdc565b507ffb42c6fc06609281806d5b0ad4bd7b7bb222a7ac7fa9e5211fa7ac032fa491ae87600760009054906101000a900473ffffffffffffffffffffffffffffffffffffffff1683600260008c73ffffffffffffffffffffffffffffffffffffffff1673ffffffffffffffffffffffffffffffffffffffff1681526020019081526020016000205487604051611cfe95949392919061349d565b60405180910390a150505050505050565b338073ffffffffffffffffffffffffffffffffffffffff16600860009054906101000a900473ffffffffffffffffffffffffffffffffffffffff1673ffffffffffffffffffffffffffffffffffffffff1614611da0576040517f08c379a0000000000000000000000000000000000000000000000000000000008152600401611d9790612ca8565b60405180910390fd5b83600080600090505b6006805490508160ff161015611e4a5760068160ff1681548110611dd057611dcf61334f565b5b9060005260206000200160009054906101000a900473ffffffffffffffffffffffffffffffffffffffff1673ffffffffffffffffffffffffffffffffffffffff168373ffffffffffffffffffffffffffffffffffffffff161415611e375760019150611e4a565b8080611e429061338b565b915050611da9565b5080611e8b576040517f08c379a0000000000000000000000000000000000000000000000000000000008152600401611e8290613427565b60405180910390fd5b6000869050858173ffffffffffffffffffffffffffffffffffffffff1663dd62ed3e87306040518363ffffffff1660e01b8152600401611ecc9291906134f0565b60206040518083038186803b158015611ee457600080fd5b505afa158015611ef8573d6000803e3d6000fd5b505050506040513d601f19601f82011682018060405250810190611f1c9190612bdc565b1015611f5d576040517f08c379a0000000000000000000000000000000000000000000000000000000008152600401611f5490613565565b60405180910390fd5b8073ffffffffffffffffffffffffffffffffffffffff166323b872dd8630896040518463ffffffff1660e01b8152600401611f9a93929190613585565b602060405180830381600087803b158015611fb457600080fd5b505af1158015611fc8573d6000803e3d6000fd5b505050506040513d601f19601f82011682018060405250810190611fec91906135e8565b506000600560009054906101000a900473ffffffffffffffffffffffffffffffffffffffff1690508173ffffffffffffffffffffffffffffffffffffffff1663095ea7b382896040518363ffffffff1660e01b815260040161204f929190613615565b602060405180830381600087803b15801561206957600080fd5b505af115801561207d573d6000803e3d6000fd5b505050506040513d601f19601f820116820180604052508101906120a191906135e8565b50600560009054906101000a900473ffffffffffffffffffffffffffffffffffffffff1673ffffffffffffffffffffffffffffffffffffffff1663e8eda9df83893060006040518563ffffffff1660e01b8152600401612104949392919061363e565b600060405180830381600087803b15801561211e57600080fd5b505af1158015612132573d6000803e3d6000fd5b5050505061214187898861215c565b5050505050505050565b6000612156306122c8565b15905090565b6000600160008373ffffffffffffffffffffffffffffffffffffffff1673ffffffffffffffffffffffffffffffffffffffff16815260200190815260200160002060008473ffffffffffffffffffffffffffffffffffffffff1673ffffffffffffffffffffffffffffffffffffffff16815260200190815260200160002054905083816121e99190613447565b905083600260008573ffffffffffffffffffffffffffffffffffffffff1673ffffffffffffffffffffffffffffffffffffffff168152602001908152602001600020600082825461223a9190613447565b9250508190555080600160008473ffffffffffffffffffffffffffffffffffffffff1673ffffffffffffffffffffffffffffffffffffffff16815260200190815260200160002060008573ffffffffffffffffffffffffffffffffffffffff1673ffffffffffffffffffffffffffffffffffffffff1681526020019081526020016000208190555050505050565b600080823b905060008111915050919050565b8280546122e790612f74565b90600052602060002090601f0160209004810192826123095760008555612350565b82601f1061232257805160ff1916838001178555612350565b82800160010185558215612350579182015b8281111561234f578251825591602001919060010190612334565b5b50905061235d91906123eb565b5090565b8280548282559060005260206000209081019282156123da579160200282015b828111156123d95782518260006101000a81548173ffffffffffffffffffffffffffffffffffffffff021916908373ffffffffffffffffffffffffffffffffffffffff16021790555091602001919060010190612381565b5b5090506123e791906123eb565b5090565b5b808211156124045760008160009055506001016123ec565b5090565b6000604051905090565b600080fd5b600080fd5b600073ffffffffffffffffffffffffffffffffffffffff82169050919050565b60006124478261241c565b9050919050565b6124578161243c565b811461246257600080fd5b50565b6000813590506124748161244e565b92915050565b6000602082840312156124905761248f612412565b5b600061249e84828501612465565b91505092915050565b6000819050919050565b6124ba816124a7565b82525050565b60006020820190506124d560008301846124b1565b92915050565b6000819050919050565b6124ee816124db565b82525050565b600060208201905061250960008301846124e5565b92915050565b612518816124a7565b811461252357600080fd5b50565b6000813590506125358161250f565b92915050565b6000806000806080858703121561255557612554612412565b5b600061256387828801612465565b945050602061257487828801612526565b935050604061258587828801612526565b925050606061259687828801612465565b91505092959194509250565b600081519050919050565b600082825260208201905092915050565b60005b838110156125dc5780820151818401526020810190506125c1565b838111156125eb576000848401525b50505050565b6000601f19601f8301169050919050565b600061260d826125a2565b61261781856125ad565b93506126278185602086016125be565b612630816125f1565b840191505092915050565b600060208201905081810360008301526126558184612602565b905092915050565b6126668161243c565b82525050565b6000602082019050612681600083018461265d565b92915050565b600081519050919050565b600082825260208201905092915050565b6000819050602082019050919050565b6126bc8161243c565b82525050565b60006126ce83836126b3565b60208301905092915050565b6000602082019050919050565b60006126f282612687565b6126fc8185612692565b9350612707836126a3565b8060005b8381101561273857815161271f88826126c2565b975061272a836126da565b92505060018101905061270b565b5085935050505092915050565b6000602082019050818103600083015261275f81846126e7565b905092915050565b600080fd5b7f4e487b7100000000000000000000000000000000000000000000000000000000600052604160045260246000fd5b6127a4826125f1565b810181811067ffffffffffffffff821117156127c3576127c261276c565b5b80604052505050565b60006127d6612408565b90506127e2828261279b565b919050565b600067ffffffffffffffff8211156128025761280161276c565b5b602082029050602081019050919050565b600080fd5b600061282b612826846127e7565b6127cc565b9050808382526020820190506020840283018581111561284e5761284d612813565b5b835b8181101561287757806128638882612465565b845260208401935050602081019050612850565b5050509392505050565b600082601f83011261289657612895612767565b5b81356128a6848260208601612818565b91505092915050565b600080fd5b600067ffffffffffffffff8211156128cf576128ce61276c565b5b6128d8826125f1565b9050602081019050919050565b82818337600083830152505050565b6000612907612902846128b4565b6127cc565b905082815260208101848484011115612923576129226128af565b5b61292e8482856128e5565b509392505050565b600082601f83011261294b5761294a612767565b5b813561295b8482602086016128f4565b91505092915050565b6000806000806080858703121561297e5761297d612412565b5b600085013567ffffffffffffffff81111561299c5761299b612417565b5b6129a887828801612881565b945050602085013567ffffffffffffffff8111156129c9576129c8612417565b5b6129d587828801612936565b935050604085013567ffffffffffffffff8111156129f6576129f5612417565b5b612a0287828801612936565b9250506060612a1387828801612465565b91505092959194509250565b600081519050919050565b600082825260208201905092915050565b6000612a4682612a1f565b612a508185612a2a565b9350612a608185602086016125be565b612a69816125f1565b840191505092915050565b60006020820190508181036000830152612a8e8184612a3b565b905092915050565b60008060408385031215612aad57612aac612412565b5b6000612abb85828601612465565b9250506020612acc85828601612465565b9150509250929050565b60008115159050919050565b612aeb81612ad6565b82525050565b6000602082019050612b066000830184612ae2565b92915050565b600080600060608486031215612b2557612b24612412565b5b6000612b3386828701612465565b9350506020612b4486828701612526565b9250506040612b5586828701612465565b9150509250925092565b600081519050612b6e8161244e565b92915050565b600080600060608486031215612b8d57612b8c612412565b5b6000612b9b86828701612b5f565b9350506020612bac86828701612b5f565b9250506040612bbd86828701612b5f565b9150509250925092565b600081519050612bd68161250f565b92915050565b600060208284031215612bf257612bf1612412565b5b6000612c0084828501612bc7565b91505092915050565b600081905092915050565b6000612c1f82612a1f565b612c298185612c09565b9350612c398185602086016125be565b80840191505092915050565b6000612c518284612c14565b915081905092915050565b7f796f7520617265206e6f7420746865206f776e65720000000000000000000000600082015250565b6000612c926015836125ad565b9150612c9d82612c5c565b602082019050919050565b60006020820190508181036000830152612cc181612c85565b9050919050565b7f616d6f756e74206d757374206578636565642030000000000000000000000000600082015250565b6000612cfe6014836125ad565b9150612d0982612cc8565b602082019050919050565b60006020820190508181036000830152612d2d81612cf1565b9050919050565b7f6e6f2066756e6473206465706f736974656420666f722073656c65637465642060008201527f746f6b656e000000000000000000000000000000000000000000000000000000602082015250565b6000612d906025836125ad565b9150612d9b82612d34565b604082019050919050565b60006020820190508181036000830152612dbf81612d83565b9050919050565b7f646f6e6174696f6e2063616e6e6f74206578636565642077697468647261776160008201527f6c20616d6f756e74000000000000000000000000000000000000000000000000602082015250565b6000612e226028836125ad565b9150612e2d82612dc6565b604082019050919050565b60006020820190508181036000830152612e5181612e15565b9050919050565b7f4e487b7100000000000000000000000000000000000000000000000000000000600052601160045260246000fd5b6000612e92826124a7565b9150612e9d836124a7565b925082821015612eb057612eaf612e58565b5b828203905092915050565b6000606082019050612ed0600083018661265d565b612edd60208301856124b1565b612eea604083018461265d565b949350505050565b600060a082019050612f07600083018861265d565b612f14602083018761265d565b612f2160408301866124b1565b612f2e60608301856124b1565b612f3b60808301846124b1565b9695505050505050565b7f4e487b7100000000000000000000000000000000000000000000000000000000600052602260045260246000fd5b60006002820490506001821680612f8c57607f821691505b60208210811415612fa057612f9f612f45565b5b50919050565b7f737472696e67206f76657220636861726163746572206c696d69740000000000600082015250565b6000612fdc601b836125ad565b9150612fe782612fa6565b602082019050919050565b6000602082019050818103600083015261300b81612fcf565b9050919050565b7f496e697469616c697a61626c653a20636f6e747261637420697320616c72656160008201527f647920696e697469616c697a6564000000000000000000000000000000000000602082015250565b600061306e602e836125ad565b915061307982613012565b604082019050919050565b6000602082019050818103600083015261309d81613061565b9050919050565b7f43616e6e6f7420696e697469616c697a65206261736500000000000000000000600082015250565b60006130da6016836125ad565b91506130e5826130a4565b602082019050919050565b60006020820190508181036000830152613109816130cd565b9050919050565b7f496e697469616c697a6520616c72656164792063616c6c656400000000000000600082015250565b60006131466019836125ad565b915061315182613110565b602082019050919050565b6000602082019050818103600083015261317581613139565b9050919050565b60006020828403121561319257613191612412565b5b60006131a084828501612b5f565b91505092915050565b6000819050919050565b600061ffff82169050919050565b6000819050919050565b60006131e66131e16131dc846131a9565b6131c1565b6131b3565b9050919050565b6131f6816131cb565b82525050565b6000606082019050613211600083018661265d565b61321e602083018561265d565b61322b60408301846131ed565b949350505050565b600064ffffffffff82169050919050565b61324d81613233565b811461325857600080fd5b50565b60008151905061326a81613244565b92915050565b6000806000806000806000806000806101408b8d03121561329457613293612412565b5b60006132a28d828e01612bc7565b9a505060206132b38d828e01612bc7565b99505060406132c48d828e01612bc7565b98505060606132d58d828e01612bc7565b97505060806132e68d828e01612bc7565b96505060a06132f78d828e01612bc7565b95505060c06133088d828e01612bc7565b94505060e06133198d828e01612bc7565b93505061010061332b8d828e01612bc7565b92505061012061333d8d828e0161325b565b9150509295989b9194979a5092959850565b7f4e487b7100000000000000000000000000000000000000000000000000000000600052603260045260246000fd5b600060ff82169050919050565b60006133968261337e565b915060ff8214156133aa576133a9612e58565b5b600182019050919050565b7f7375626d697474656420746f6b656e2061646472657373206973206e6f74206160008201527f6363657074656420627920706f6f6c0000000000000000000000000000000000602082015250565b6000613411602f836125ad565b915061341c826133b5565b604082019050919050565b6000602082019050818103600083015261344081613404565b9050919050565b6000613452826124a7565b915061345d836124a7565b9250827fffffffffffffffffffffffffffffffffffffffffffffffffffffffffffffffff0382111561349257613491612e58565b5b828201905092915050565b600060a0820190506134b2600083018861265d565b6134bf602083018761265d565b6134cc60408301866124b1565b6134d960608301856124b1565b6134e6608083018461265d565b9695505050505050565b6000604082019050613505600083018561265d565b613512602083018461265d565b9392505050565b7f73656e646572206e6f7420617070726f76656400000000000000000000000000600082015250565b600061354f6013836125ad565b915061355a82613519565b602082019050919050565b6000602082019050818103600083015261357e81613542565b9050919050565b600060608201905061359a600083018661265d565b6135a7602083018561265d565b6135b460408301846124b1565b949350505050565b6135c581612ad6565b81146135d057600080fd5b50565b6000815190506135e2816135bc565b92915050565b6000602082840312156135fe576135fd612412565b5b600061360c848285016135d3565b91505092915050565b600060408201905061362a600083018561265d565b61363760208301846124b1565b9392505050565b6000608082019050613653600083018761265d565b61366060208301866124b1565b61366d604083018561265d565b61367a60608301846131ed565b9594505050505056fea2646970667358221220e68f92d1117167400eaaa032b674ddc0d3796fc33213b77461d708ea4bdbce8464736f6c63430008090033",
  "immutableReferences": {},
  "source": "// SPDX-License-Identifier: agpl-3.0\npragma solidity 0.8.9;\n\nimport { IJustCausePool } from './Interfaces.sol';\nimport { JCDepositorERC721 } from './JCDepositorERC721.sol';\nimport { JCOwnerERC721 } from './JCOwnerERC721.sol';\nimport { JustCausePool } from './JustCausePool.sol';\n\ncontract PoolTracker {\n\n    address baseJCPoolAddr;\n    JustCausePool baseJCPool;\n    JCDepositorERC721 jCDepositorERC721;\n    JCOwnerERC721 jCOwnerERC721;\n\n    //contract addresses will point to bool if they exist\n    mapping(address => bool) private isPool;\n    mapping(address => address[]) private depositors;\n    mapping(address => address[]) private owners;\n    mapping(string => address) private names;\n    address[] private verifiedPools;\n    bytes32[] validByteCodeHashes;\n\n    event AddVerifiedPools(address addressToAdd);\n    event AddDeposit(address _userAddr, address _pool);\n    event WithdrawDeposit(address _userAddr, address _pool);\n    event OwnerAddress(address _owner, address _pool);\n\n    modifier onlyVerifiedByteCode(address pool) {\n        bytes32 v1ByteCodeHash = 0x69e8ff0e7c2b29468c452ea99c81161f9d6137447623140dc2714549e6014d96;\n        require(keccak256(abi.encodePacked(pool.code)) == v1ByteCodeHash, \"byteCode not recognized\");\n        _;\n    }\n\n    modifier onlyPools(address _pool){\n        require(isPool[_pool], \"this function must be called from a pool\");\n        _;\n    }\n\n    constructor () {\n        jCDepositorERC721 = new JCDepositorERC721();\n        jCOwnerERC721 = new JCOwnerERC721();\n        baseJCPool = new JustCausePool();\n    }\n\n    function addValidByteCodeHash(bytes32 _hash) public {\n        validByteCodeHashes.push(_hash);\n    }\n\n    function addDeposit(uint256 _amount, address _asset, address _pool, bool isETH) onlyPools(_pool) external payable {\n\n        /*\n        NEED TO CHECK IF FIRST DEPOSIT BEFORE ADDING TO DEPOSITORS\n        */\n        depositors[msg.sender].push(_pool);\n\n        if(isETH) IJustCausePool(_pool).depositETH{value: msg.value}(_asset, msg.sender);\n        else IJustCausePool(_pool).deposit(_asset, _amount, msg.sender);\n\n        uint256 _liquidityIndex = IJustCausePool(_pool).getAaveLiquidityIndex(_asset);\n        jCDepositorERC721.addFunds(msg.sender, _amount, _liquidityIndex, block.timestamp,  _pool, _asset);\n\n        emit AddDeposit(msg.sender, _pool);\n    }\n\n    function withdrawDeposit(uint256 _amount, uint256 _donation, address _asset, address _pool) onlyPools(_pool) external {\n\n        /*\n        NEED TO CHECK IF BALANCE IS 0 BEFORE REMOVAL\n        */\n        for(uint8 i = 0; i < depositors[msg.sender].length -1; i++){\n            if(depositors[msg.sender][i] == _pool){\n                depositors[msg.sender][i] = depositors[msg.sender][depositors[msg.sender].length - 1];\n                break;\n            }\n        }\n        depositors[msg.sender].pop();\n\n        IJustCausePool(_pool).withdraw(_asset, _amount, _donation, msg.sender);\n        jCDepositorERC721.withdrawFunds(msg.sender, _amount, _pool, _asset);\n\n        emit WithdrawDeposit(msg.sender, _pool);\n    }\n\n    function claimInterest(address _asset, address _pool) onlyPools(_pool) external {\n        IJustCausePool(_pool).withdrawDonations(_asset);\n    }\n\n    /**\n     * @dev Deploys and returns the address of a clone that mimics the behaviour of `implementation`.\n     *\n     * This function uses the create opcode, which should never revert.\n     */\n    function clone(address basePool) internal returns (address instance) {\n        assembly {\n            let ptr := mload(0x40)\n            mstore(ptr, 0x3d602d80600a3d3981f3363d3d373d3d3d363d73000000000000000000000000)\n            mstore(add(ptr, 0x14), shl(0x60, basePool))\n            mstore(add(ptr, 0x28), 0x5af43d82803e903d91602b57fd5bf30000000000000000000000000000000000)\n            instance := create(0, ptr, 0x37)\n        }\n        require(instance != address(0), \"ERC1167: create failed\");\n    }\n\n    function createJCPoolClone(address[] memory _acceptedTokens, string memory _name, string memory _about, address _receiver) external {\n        require(names[_name] == address(0), \"pool with name already exists\");\n        address child = clone(address(baseJCPool));\n        IJustCausePool(child).initialize(_acceptedTokens, _name, _about, _receiver);\n        jCOwnerERC721.createReceiverToken(_receiver, block.timestamp, child);\n        names[_name] =  child;\n        verifiedPools.push(child);\n        owners[msg.sender].push(child);\n        isPool[child] = true;\n    }\n\n    function getDepositorERC721Address() public view returns(address){\n        return address(jCDepositorERC721);\n    }\n\n    function getOwnerERC721Address() public view returns(address){\n        return address(jCOwnerERC721);\n    }\n\n    function getVerifiedPools() public view returns(address [] memory){\n        return verifiedPools;\n    }\n\n    function getUserDeposits(address _userAddr) external view returns(address[] memory){\n        return depositors[_userAddr];\n    }\n\n    /*function getUserDeposits(address _userAddr) external view returns(address[] memory){\n        uint256 numDeposits = jCDepositorERC721.balanceOf(_userAddr);\n        address[] memory poolList;\n        for(uint8 i = 0; i < numDeposits; i++){\n            uint256 tokenId = jCDepositorERC721.tokenOfOwnerByIndex(_userAddr, i);\n            (,,,, address pool,) = jCDepositorERC721.getDeposit(tokenId);\n            poolList[i] = pool;\n        }\n        return poolList;\n    }*/\n\n    function getUserOwned(address _userAddr) external view returns(address[] memory){\n        return owners[_userAddr];\n    }\n\n    function getAddressFromName(string memory _name) external view returns(address){\n        return names[_name];\n    }\n\n    function checkByteCode(address _pool) external view returns(bool) {\n        bool hashMatch = false;\n        bytes32 hashOfPoolCode = keccak256(abi.encodePacked(_pool.code));\n        bytes32[] memory validHashes = validByteCodeHashes;\n\n        for(uint8 i = 0; i < validHashes.length; i++){\n            if(hashOfPoolCode == validHashes[i]){\n                hashMatch = true;\n                break;\n            }\n        }\n        return hashMatch;\n    }\n}",
  "sourcePath": "/home/smeee/just_cause/contracts/PoolTracker.sol",
  "compiler": {
    "name": "solc",
    "version": "0.8.9+commit.e5eed63a.Emscripten.clang"
  },
  "schemaVersion": "3.4.3",
  "updatedAt": "2022-02-02T03:17:00.655Z",
  "networkType": "ethereum",
  "devdoc": {
    "kind": "dev",
    "methods": {},
    "version": 1
  },
  "userdoc": {
    "kind": "user",
    "methods": {},
    "version": 1
  }
}