{
  "_format": "hh-sol-artifact-1",
  "contractName": "PoolTracker",
  "sourceName": "contracts/deploy/PoolTracker.sol",
  "abi": [
    {
      "inputs": [
        {
          "internalType": "address",
          "name": "_poolAddressesProviderAddr",
          "type": "address"
        },
        {
          "internalType": "address",
          "name": "_wethGatewayAddr",
          "type": "address"
        },
        {
          "internalType": "address",
          "name": "_multiSig",
          "type": "address"
        },
        {
          "internalType": "uint8",
          "name": "_feeIndex",
          "type": "uint8"
        }
      ],
      "stateMutability": "nonpayable",
      "type": "constructor"
    },
    {
      "anonymous": false,
      "inputs": [
        {
          "indexed": false,
          "internalType": "address",
          "name": "userAddr",
          "type": "address"
        },
        {
          "indexed": false,
          "internalType": "address",
          "name": "pool",
          "type": "address"
        },
        {
          "indexed": false,
          "internalType": "address",
          "name": "asset",
          "type": "address"
        },
        {
          "indexed": false,
          "internalType": "uint256",
          "name": "amount",
          "type": "uint256"
        }
      ],
      "name": "AddDeposit",
      "type": "event"
    },
    {
      "anonymous": false,
      "inputs": [
        {
          "indexed": false,
          "internalType": "address",
          "name": "pool",
          "type": "address"
        },
        {
          "indexed": false,
          "internalType": "string",
          "name": "name",
          "type": "string"
        },
        {
          "indexed": false,
          "internalType": "address",
          "name": "receiver",
          "type": "address"
        },
        {
          "indexed": false,
          "internalType": "address[]",
          "name": "acceptedTokens",
          "type": "address[]"
        },
        {
          "indexed": false,
          "internalType": "bool",
          "name": "isVerified",
          "type": "bool"
        },
        {
          "indexed": false,
          "internalType": "address",
          "name": "nftAddr",
          "type": "address"
        }
      ],
      "name": "AddPool",
      "type": "event"
    },
    {
      "anonymous": false,
      "inputs": [
        {
          "indexed": false,
          "internalType": "address",
          "name": "userAddr",
          "type": "address"
        },
        {
          "indexed": false,
          "internalType": "address",
          "name": "receiver",
          "type": "address"
        },
        {
          "indexed": false,
          "internalType": "address",
          "name": "pool",
          "type": "address"
        },
        {
          "indexed": false,
          "internalType": "address",
          "name": "asset",
          "type": "address"
        },
        {
          "indexed": false,
          "internalType": "uint256",
          "name": "amount",
          "type": "uint256"
        }
      ],
      "name": "Claim",
      "type": "event"
    },
    {
      "anonymous": false,
      "inputs": [
        {
          "indexed": false,
          "internalType": "address",
          "name": "pool",
          "type": "address"
        }
      ],
      "name": "UpdateAbout",
      "type": "event"
    },
    {
      "anonymous": false,
      "inputs": [
        {
          "indexed": false,
          "internalType": "address",
          "name": "pool",
          "type": "address"
        }
      ],
      "name": "UpdateMetaUri",
      "type": "event"
    },
    {
      "anonymous": false,
      "inputs": [
        {
          "indexed": false,
          "internalType": "address",
          "name": "userAddr",
          "type": "address"
        },
        {
          "indexed": false,
          "internalType": "address",
          "name": "pool",
          "type": "address"
        },
        {
          "indexed": false,
          "internalType": "address",
          "name": "asset",
          "type": "address"
        },
        {
          "indexed": false,
          "internalType": "uint256",
          "name": "amount",
          "type": "uint256"
        }
      ],
      "name": "WithdrawDeposit",
      "type": "event"
    },
    {
      "inputs": [
        {
          "internalType": "uint256",
          "name": "_amount",
          "type": "uint256"
        },
        {
          "internalType": "address",
          "name": "_asset",
          "type": "address"
        },
        {
          "internalType": "address",
          "name": "_pool",
          "type": "address"
        },
        {
          "internalType": "bool",
          "name": "_isETH",
          "type": "bool"
        }
      ],
      "name": "addDeposit",
      "outputs": [],
      "stateMutability": "payable",
      "type": "function"
    },
    {
      "inputs": [
        {
          "internalType": "address",
          "name": "_pool",
          "type": "address"
        }
      ],
      "name": "checkPool",
      "outputs": [
        {
          "internalType": "bool",
          "name": "",
          "type": "bool"
        }
      ],
      "stateMutability": "view",
      "type": "function"
    },
    {
      "inputs": [
        {
          "internalType": "address",
          "name": "_asset",
          "type": "address"
        },
        {
          "internalType": "address",
          "name": "_pool",
          "type": "address"
        },
        {
          "internalType": "bool",
          "name": "_isETH",
          "type": "bool"
        }
      ],
      "name": "claimInterest",
      "outputs": [],
      "stateMutability": "nonpayable",
      "type": "function"
    },
    {
      "inputs": [
        {
          "internalType": "address[]",
          "name": "_acceptedTokens",
          "type": "address[]"
        },
        {
          "internalType": "string",
          "name": "_name",
          "type": "string"
        },
        {
          "internalType": "string",
          "name": "_about",
          "type": "string"
        },
        {
          "internalType": "string",
          "name": "_picHash",
          "type": "string"
        },
        {
          "internalType": "string",
          "name": "_metaUri",
          "type": "string"
        },
        {
          "internalType": "address",
          "name": "_receiver",
          "type": "address"
        }
      ],
      "name": "createJCPoolClone",
      "outputs": [],
      "stateMutability": "nonpayable",
      "type": "function"
    },
    {
      "inputs": [
        {
          "internalType": "string",
          "name": "_name",
          "type": "string"
        }
      ],
      "name": "getAddressFromName",
      "outputs": [
        {
          "internalType": "address",
          "name": "",
          "type": "address"
        }
      ],
      "stateMutability": "view",
      "type": "function"
    },
    {
      "inputs": [],
      "name": "getBaseJCPoolAddress",
      "outputs": [
        {
          "internalType": "address",
          "name": "",
          "type": "address"
        }
      ],
      "stateMutability": "view",
      "type": "function"
    },
    {
      "inputs": [],
      "name": "getBpFee",
      "outputs": [
        {
          "internalType": "uint256",
          "name": "",
          "type": "uint256"
        }
      ],
      "stateMutability": "view",
      "type": "function"
    },
    {
      "inputs": [
        {
          "internalType": "address",
          "name": "_user",
          "type": "address"
        }
      ],
      "name": "getContributions",
      "outputs": [
        {
          "internalType": "address[]",
          "name": "",
          "type": "address[]"
        }
      ],
      "stateMutability": "view",
      "type": "function"
    },
    {
      "inputs": [],
      "name": "getDepositorERC721Address",
      "outputs": [
        {
          "internalType": "address",
          "name": "",
          "type": "address"
        }
      ],
      "stateMutability": "view",
      "type": "function"
    },
    {
      "inputs": [],
      "name": "getMultiSig",
      "outputs": [
        {
          "internalType": "address",
          "name": "",
          "type": "address"
        }
      ],
      "stateMutability": "view",
      "type": "function"
    },
    {
      "inputs": [],
      "name": "getPoolAddr",
      "outputs": [
        {
          "internalType": "address",
          "name": "",
          "type": "address"
        }
      ],
      "stateMutability": "view",
      "type": "function"
    },
    {
      "inputs": [
        {
          "internalType": "address",
          "name": "_user",
          "type": "address"
        }
      ],
      "name": "getReceiverPools",
      "outputs": [
        {
          "internalType": "address[]",
          "name": "",
          "type": "address[]"
        }
      ],
      "stateMutability": "view",
      "type": "function"
    },
    {
      "inputs": [],
      "name": "getReservesList",
      "outputs": [
        {
          "internalType": "address[]",
          "name": "",
          "type": "address[]"
        }
      ],
      "stateMutability": "view",
      "type": "function"
    },
    {
      "inputs": [
        {
          "internalType": "address",
          "name": "_asset",
          "type": "address"
        }
      ],
      "name": "getTVL",
      "outputs": [
        {
          "internalType": "uint256",
          "name": "",
          "type": "uint256"
        }
      ],
      "stateMutability": "view",
      "type": "function"
    },
    {
      "inputs": [
        {
          "internalType": "address",
          "name": "_asset",
          "type": "address"
        }
      ],
      "name": "getTotalDonated",
      "outputs": [
        {
          "internalType": "uint256",
          "name": "",
          "type": "uint256"
        }
      ],
      "stateMutability": "view",
      "type": "function"
    },
    {
      "inputs": [],
      "name": "getVerifiedPools",
      "outputs": [
        {
          "internalType": "address[]",
          "name": "",
          "type": "address[]"
        }
      ],
      "stateMutability": "view",
      "type": "function"
    },
    {
      "inputs": [
        {
          "internalType": "uint256",
          "name": "feeKey",
          "type": "uint256"
        }
      ],
      "name": "setBpFee",
      "outputs": [],
      "stateMutability": "nonpayable",
      "type": "function"
    },
    {
      "inputs": [
        {
          "internalType": "address",
          "name": "_pool",
          "type": "address"
        },
        {
          "internalType": "string",
          "name": "_about",
          "type": "string"
        }
      ],
      "name": "updatePoolAbout",
      "outputs": [],
      "stateMutability": "nonpayable",
      "type": "function"
    },
    {
      "inputs": [
        {
          "internalType": "address",
          "name": "_pool",
          "type": "address"
        },
        {
          "internalType": "string",
          "name": "_metaUri",
          "type": "string"
        }
      ],
      "name": "updatePoolMetaUri",
      "outputs": [],
      "stateMutability": "nonpayable",
      "type": "function"
    },
    {
      "inputs": [
        {
          "internalType": "uint256",
          "name": "_amount",
          "type": "uint256"
        },
        {
          "internalType": "address",
          "name": "_asset",
          "type": "address"
        },
        {
          "internalType": "address",
          "name": "_pool",
          "type": "address"
        },
        {
          "internalType": "bool",
          "name": "_isETH",
          "type": "bool"
        }
      ],
      "name": "withdrawDeposit",
      "outputs": [],
      "stateMutability": "nonpayable",
      "type": "function"
    }
  ],
  "bytecode": "0x6101206040523480156200001257600080fd5b5060405162007e4938038062007e498339810160408190526200003591620001d1565b60016000556001600160a01b03821660c052604051620000559062000139565b604051809103906000f08015801562000072573d6000803e3d6000fd5b506001600160a01b03166080526040516200008d9062000147565b604051809103906000f080158015620000aa573d6000803e3d6000fd5b506001600160a01b0390811660a090815285821660e09081529185166101005260408051928301815260008352601460208401526032908301526050606083015260646080830152607890820152609660c08201526200010f90600890600762000155565b5060088160ff166007811062000129576200012962000235565b0154600f55506200024b92505050565b61296e806200317083390190565b61236b8062005ade83390190565b82600781019282156200018b579160200282015b828111156200018b578251829060ff1690559160200191906001019062000169565b50620001999291506200019d565b5090565b5b808211156200019957600081556001016200019e565b80516001600160a01b0381168114620001cc57600080fd5b919050565b60008060008060808587031215620001e857600080fd5b620001f385620001b4565b93506200020360208601620001b4565b92506200021360408601620001b4565b9150606085015160ff811681146200022a57600080fd5b939692955090935050565b634e487b7160e01b600052603260045260246000fd5b60805160a05160c05160e05161010051612e7e620002f26000396000818161061c0152818161079801526117c501526000818161057901528181610f76015281816113fd015281816117a301528181611a1d0152611b2e0152600081816102f20152818161116601528181611315015281816116d901528181611d270152611fae01526000818161024b01526116a60152600081816102bf01526116790152612e7e6000f3fe60806040526004361061015f5760003560e01c806390f2bb16116100c0578063d1df6d4d11610074578063def9a0cd11610059578063def9a0cd1461040b578063ecb16af41461042b578063fa12793b1461044b57600080fd5b8063d1df6d4d146103c0578063de259242146103f657600080fd5b8063b47dcb66116100a5578063b47dcb6614610376578063b63ae6ee14610396578063d1946dbc146103ab57600080fd5b806390f2bb1614610336578063a5530a451461035657600080fd5b80633989a671116101175780635aa38868116100fc5780635aa38868146102b057806366e992e5146102e35780638e61514e1461031657600080fd5b80633989a6711461023c5780633f19d0431461028357600080fd5b80630f40517a116101485780630f40517a1461019d5780632f28012a146101d357806330b9d2a7146101f357600080fd5b806301beb9801461016457806308f52b3c14610188575b600080fd5b34801561017057600080fd5b50600f545b6040519081526020015b60405180910390f35b61019b610196366004612636565b61046b565b005b3480156101a957600080fd5b506101756101b8366004612689565b6001600160a01b031660009081526003602052604090205490565b3480156101df57600080fd5b5061019b6101ee366004612636565b610c06565b3480156101ff57600080fd5b5061022c61020e366004612689565b6001600160a01b031660009081526001602052604090205460ff1690565b604051901515815260200161017f565b34801561024857600080fd5b507f00000000000000000000000000000000000000000000000000000000000000005b6040516001600160a01b03909116815260200161017f565b34801561028f57600080fd5b506102a361029e366004612689565b610e69565b60405161017f91906126f1565b3480156102bc57600080fd5b507f000000000000000000000000000000000000000000000000000000000000000061026b565b3480156102ef57600080fd5b507f000000000000000000000000000000000000000000000000000000000000000061026b565b34801561032257600080fd5b5061026b61033136600461274d565b610edf565b34801561034257600080fd5b5061019b61035136600461278f565b610f14565b34801561036257600080fd5b5061019b6103713660046127da565b611313565b34801561038257600080fd5b5061019b61039136600461294b565b6113a6565b3480156103a257600080fd5b506102a36119b5565b3480156103b757600080fd5b506102a3611a17565b3480156103cc57600080fd5b506101756103db366004612689565b6001600160a01b031660009081526004602052604090205490565b34801561040257600080fd5b5061026b611b29565b34801561041757600080fd5b5061019b610426366004612a2c565b611bc3565b34801561043757600080fd5b5061019b610446366004612a2c565b611e4a565b34801561045757600080fd5b506102a3610466366004612689565b6120c6565b6001600160a01b038216600090815260016020526040902054829060ff166104c55760405162461bcd60e51b81526020600482015260086024820152671b9bdd081c1bdbdb60c21b60448201526064015b60405180910390fd5b6104cd61213a565b6001600160a01b038416600090815260036020526040812080548792906104f5908490612a97565b925050819055506000836001600160a01b031663373d7c3f6040518163ffffffff1660e01b815260040160006040518083038186803b15801561053757600080fd5b505afa15801561054b573d6000803e3d6000fd5b505050506040513d6000823e601f3d908101601f191682016040526105739190810190612adb565b905060007f00000000000000000000000000000000000000000000000000000000000000006001600160a01b031663026b1d5f6040518163ffffffff1660e01b815260040160206040518083038186803b1580156105d057600080fd5b505afa1580156105e4573d6000803e3d6000fd5b505050506040513d601f19601f820116820180604052508101906106089190612b52565b905083156107fb57856001600160a01b03167f00000000000000000000000000000000000000000000000000000000000000006001600160a01b031663affa88176040518163ffffffff1660e01b815260040160206040518083038186803b15801561067357600080fd5b505afa158015610687573d6000803e3d6000fd5b505050506040513d601f19601f820116820180604052508101906106ab9190612b52565b6001600160a01b0316146107015760405162461bcd60e51b815260206004820181905260248201527f617373657420646f6573206e6f74206d6174636820574554484761746577617960448201526064016104bc565b600034116107515760405162461bcd60e51b815260206004820152601860248201527f6d73672e76616c75652063616e6e6f74206265207a65726f000000000000000060448201526064016104bc565b6040517f474cf53d0000000000000000000000000000000000000000000000000000000081526001600160a01b0382811660048301528681166024830152600060448301527f0000000000000000000000000000000000000000000000000000000000000000169063474cf53d9034906064016000604051808303818588803b1580156107dd57600080fd5b505af11580156107f1573d6000803e3d6000fd5b50505050506109e2565b34156108495760405162461bcd60e51b815260206004820152601560248201527f6d73672e76616c7565206973206e6f74207a65726f000000000000000000000060448201526064016104bc565b604051636eb1769f60e11b8152336004820152306024820152869088906001600160a01b0383169063dd62ed3e9060440160206040518083038186803b15801561089257600080fd5b505afa1580156108a6573d6000803e3d6000fd5b505050506040513d601f19601f820116820180604052508101906108ca9190612b6f565b10156109185760405162461bcd60e51b815260206004820152601360248201527f73656e646572206e6f7420617070726f7665640000000000000000000000000060448201526064016104bc565b61092d6001600160a01b03821633308b612194565b6109426001600160a01b038216836000612245565b6109566001600160a01b038216838a612245565b6040517fe8eda9df0000000000000000000000000000000000000000000000000000000081526001600160a01b038281166004830152602482018a905287811660448301526000606483015283169063e8eda9df90608401600060405180830381600087803b1580156109c857600080fd5b505af11580156109dc573d6000803e3d6000fd5b50505050505b6040517f47e7ef240000000000000000000000000000000000000000000000000000000081526001600160a01b038781166004830152602482018990528616906347e7ef2490604401600060405180830381600087803b158015610a4557600080fd5b505af1158015610a59573d6000803e3d6000fd5b505050506000856001600160a01b0316627ffb786040518163ffffffff1660e01b815260040160206040518083038186803b158015610a9757600080fd5b505afa158015610aab573d6000803e3d6000fd5b505050506040513d601f19601f82011682018060405250810190610acf9190612b52565b6001600160a01b03166326a45ffb338a428b886040518663ffffffff1660e01b8152600401610b02959493929190612bb4565b602060405180830381600087803b158015610b1c57600080fd5b505af1158015610b30573d6000803e3d6000fd5b505050506040513d601f19601f82011682018060405250810190610b549190612bf7565b90508015610ba25733600090815260056020908152604082208054600181018255908352912001805473ffffffffffffffffffffffffffffffffffffffff19166001600160a01b0388161790555b604080513381526001600160a01b038881166020830152891681830152606081018a905290517f20ca885e6c573d69bc931b3787127868f5b90568509fb8d4ff6f7102b8d0cd259181900360800190a1505050610bff6001600055565b5050505050565b6001600160a01b038216600090815260016020526040902054829060ff16610c5b5760405162461bcd60e51b81526020600482015260086024820152671b9bdd081c1bdbdb60c21b60448201526064016104bc565b610c6361213a565b6001600160a01b03841660009081526003602052604081208054879290610c8b908490612c14565b92505081905550826001600160a01b0316627ffb786040518163ffffffff1660e01b815260040160206040518083038186803b158015610cca57600080fd5b505afa158015610cde573d6000803e3d6000fd5b505050506040513d601f19601f82011682018060405250810190610d029190612b52565b6040517f47c6b45e000000000000000000000000000000000000000000000000000000008152336004820152602481018790526001600160a01b03868116604483015291909116906347c6b45e90606401600060405180830381600087803b158015610d6d57600080fd5b505af1158015610d81573d6000803e3d6000fd5b50506040517f12eeff7e0000000000000000000000000000000000000000000000000000000081526001600160a01b038781166004830152602482018990523360448301528515156064830152861692506312eeff7e9150608401600060405180830381600087803b158015610df657600080fd5b505af1158015610e0a573d6000803e3d6000fd5b5050604080513381526001600160a01b0387811660208301528816818301526060810189905290517fa657ed79c074c3489591adb7ba850f38c009bd846e47f2ffe3edc1d06f48a5a49350908190036080019150a1610bff6001600055565b6001600160a01b038116600090815260056020908152604091829020805483518184028101840190945280845260609392830182828015610ed357602002820191906000526020600020905b81546001600160a01b03168152600190910190602001808311610eb5575b50505050509050919050565b600060028383604051610ef3929190612c2b565b908152604051908190036020019020546001600160a01b0316905092915050565b6001600160a01b038216600090815260016020526040902054829060ff16610f695760405162461bcd60e51b81526020600482015260086024820152671b9bdd081c1bdbdb60c21b60448201526064016104bc565b610f7161213a565b8360007f00000000000000000000000000000000000000000000000000000000000000006001600160a01b031663026b1d5f6040518163ffffffff1660e01b815260040160206040518083038186803b158015610fcd57600080fd5b505afa158015610fe1573d6000803e3d6000fd5b505050506040513d601f19601f820116820180604052508101906110059190612b52565b90506000816001600160a01b031663d1946dbc6040518163ffffffff1660e01b815260040160006040518083038186803b15801561104257600080fd5b505afa158015611056573d6000803e3d6000fd5b505050506040513d6000823e601f3d908101601f1916820160405261107e9190810190612c3b565b90506000805b82518160ff1610156110dd57828160ff16815181106110a5576110a5612cca565b60200260200101516001600160a01b0316856001600160a01b031614156110cb57600191505b806110d581612ce0565b915050611084565b508061112b5760405162461bcd60e51b815260206004820152601260248201527f746f6b656e206e6f7420617070726f766564000000000000000000000000000060448201526064016104bc565b600f546040517feda9c2d20000000000000000000000000000000000000000000000000000000081526001600160a01b038a811660048301527f0000000000000000000000000000000000000000000000000000000000000000811660248301528815156044830152606482019290925260009189169063eda9c2d290608401602060405180830381600087803b1580156111c557600080fd5b505af11580156111d9573d6000803e3d6000fd5b505050506040513d601f19601f820116820180604052508101906111fd9190612b6f565b6001600160a01b038a1660009081526004602052604081208054929350839290919061122a908490612a97565b925050819055507f7276c0285f260d667df9ded71ca6a988145d36de1d14252710532b9de5f089fe33896001600160a01b0316631b88094d6040518163ffffffff1660e01b815260040160206040518083038186803b15801561128c57600080fd5b505afa1580156112a0573d6000803e3d6000fd5b505050506040513d601f19601f820116820180604052508101906112c49190612b52565b604080516001600160a01b0393841681529183166020830152828c1690820152908b1660608201526080810183905260a00160405180910390a1505050505061130d6001600055565b50505050565b7f00000000000000000000000000000000000000000000000000000000000000006001600160a01b0316331461138b5760405162461bcd60e51b815260206004820152601060248201527f6e6f7420746865206d756c74695369670000000000000000000000000000000060448201526064016104bc565b6008816007811061139e5761139e612cca565b0154600f5550565b85600a815111156113f95760405162461bcd60e51b815260206004820152601d60248201527f746f6b656e206c697374206d757374206265203130206f72206c65737300000060448201526064016104bc565b60007f00000000000000000000000000000000000000000000000000000000000000006001600160a01b031663026b1d5f6040518163ffffffff1660e01b815260040160206040518083038186803b15801561145457600080fd5b505afa158015611468573d6000803e3d6000fd5b505050506040513d601f19601f8201168201806040525081019061148c9190612b52565b90506000816001600160a01b031663d1946dbc6040518163ffffffff1660e01b815260040160006040518083038186803b1580156114c957600080fd5b505afa1580156114dd573d6000803e3d6000fd5b505050506040513d6000823e601f3d908101601f191682016040526115059190810190612c3b565b905060005b83518160ff1610156115f0576000805b83518160ff16101561158f57838160ff168151811061153b5761153b612cca565b60200260200101516001600160a01b0316868460ff168151811061156157611561612cca565b60200260200101516001600160a01b0316141561157d57600191505b8061158781612ce0565b91505061151a565b50806115dd5760405162461bcd60e51b815260206004820152601360248201527f746f6b656e73206e6f7420617070726f7665640000000000000000000000000060448201526064016104bc565b50806115e881612ce0565b91505061150a565b5060006001600160a01b031660028960405161160c9190612d00565b908152604051908190036020019020546001600160a01b0316146116725760405162461bcd60e51b815260206004820152601d60248201527f706f6f6c2077697468206e616d6520616c72656164792065786973747300000060448201526064016104bc565b600061169d7f000000000000000000000000000000000000000000000000000000000000000061238e565b905060006116ca7f000000000000000000000000000000000000000000000000000000000000000061238e565b90506000336001600160a01b037f000000000000000000000000000000000000000000000000000000000000000016141561175a575060078054600180820183556000929092527fa66cc928b5edb82af9bd49922954155ab7b0942694bea4ce44661d9a8736c68801805473ffffffffffffffffffffffffffffffffffffffff19166001600160a01b0385161790555b6040517fbbc41f480000000000000000000000000000000000000000000000000000000081526001600160a01b0384169063bbc41f48906117f1908f908f908f908f908f908f907f0000000000000000000000000000000000000000000000000000000000000000907f0000000000000000000000000000000000000000000000000000000000000000908d908d90600401612d1c565b600060405180830381600087803b15801561180b57600080fd5b505af115801561181f573d6000803e3d6000fd5b50506040517fc4d66de80000000000000000000000000000000000000000000000000000000081526001600160a01b0386811660048301528516925063c4d66de89150602401600060405180830381600087803b15801561187f57600080fd5b505af1158015611893573d6000803e3d6000fd5b505050506001600160a01b03878116600090815260066020908152604080832080546001810182559084529190922001805473ffffffffffffffffffffffffffffffffffffffff1916928616929092179091555183906002906118f7908e90612d00565b908152602001604051809103902060006101000a8154816001600160a01b0302191690836001600160a01b031602179055506001806000856001600160a01b03166001600160a01b0316815260200190815260200160002060006101000a81548160ff0219169083151502179055507fb468fc8d316e4a4055b8f6d3535a98d0302d547d4eeb45cccde9e434e36dd739838c898f858760405161199f96959493929190612dc0565b60405180910390a1505050505050505050505050565b60606007805480602002602001604051908101604052809291908181526020018280548015611a0d57602002820191906000526020600020905b81546001600160a01b031681526001909101906020018083116119ef575b5050505050905090565b606060007f00000000000000000000000000000000000000000000000000000000000000006001600160a01b031663026b1d5f6040518163ffffffff1660e01b815260040160206040518083038186803b158015611a7457600080fd5b505afa158015611a88573d6000803e3d6000fd5b505050506040513d601f19601f82011682018060405250810190611aac9190612b52565b9050806001600160a01b031663d1946dbc6040518163ffffffff1660e01b815260040160006040518083038186803b158015611ae757600080fd5b505afa158015611afb573d6000803e3d6000fd5b505050506040513d6000823e601f3d908101601f19168201604052611b239190810190612c3b565b91505090565b6000807f00000000000000000000000000000000000000000000000000000000000000006001600160a01b031663026b1d5f6040518163ffffffff1660e01b815260040160206040518083038186803b158015611b8557600080fd5b505afa158015611b99573d6000803e3d6000fd5b505050506040513d601f19601f82011682018060405250810190611bbd9190612b52565b92915050565b6001600160a01b038316600090815260016020526040902054839060ff16611c185760405162461bcd60e51b81526020600482015260086024820152671b9bdd081c1bdbdb60c21b60448201526064016104bc565b83336001600160a01b0316816001600160a01b0316631b88094d6040518163ffffffff1660e01b815260040160206040518083038186803b158015611c5c57600080fd5b505afa158015611c70573d6000803e3d6000fd5b505050506040513d601f19601f82011682018060405250810190611c949190612b52565b6001600160a01b03161480611d495750806001600160a01b031663357286d76040518163ffffffff1660e01b815260040160206040518083038186803b158015611cdd57600080fd5b505afa158015611cf1573d6000803e3d6000fd5b505050506040513d601f19601f82011682018060405250810190611d159190612bf7565b8015611d495750336001600160a01b037f000000000000000000000000000000000000000000000000000000000000000016145b611d955760405162461bcd60e51b815260206004820152600e60248201527f6e6f7420617574686f72697a656400000000000000000000000000000000000060448201526064016104bc565b6040517fd04d566a0000000000000000000000000000000000000000000000000000000081526001600160a01b0386169063d04d566a90611ddc9087908790600401612e19565b600060405180830381600087803b158015611df657600080fd5b505af1158015611e0a573d6000803e3d6000fd5b50506040513381527f43dc6ef74760f8cbc65f330b4ebc68f3473f893b65144b4ba1de2da01140f1f1925060200190505b60405180910390a15050505050565b6001600160a01b038316600090815260016020526040902054839060ff16611e9f5760405162461bcd60e51b81526020600482015260086024820152671b9bdd081c1bdbdb60c21b60448201526064016104bc565b83336001600160a01b0316816001600160a01b0316631b88094d6040518163ffffffff1660e01b815260040160206040518083038186803b158015611ee357600080fd5b505afa158015611ef7573d6000803e3d6000fd5b505050506040513d601f19601f82011682018060405250810190611f1b9190612b52565b6001600160a01b03161480611fd05750806001600160a01b031663357286d76040518163ffffffff1660e01b815260040160206040518083038186803b158015611f6457600080fd5b505afa158015611f78573d6000803e3d6000fd5b505050506040513d601f19601f82011682018060405250810190611f9c9190612bf7565b8015611fd05750336001600160a01b037f000000000000000000000000000000000000000000000000000000000000000016145b61201c5760405162461bcd60e51b815260206004820152600e60248201527f6e6f7420617574686f72697a656400000000000000000000000000000000000060448201526064016104bc565b6040517fd0e7a76e0000000000000000000000000000000000000000000000000000000081526001600160a01b0386169063d0e7a76e906120639087908790600401612e19565b600060405180830381600087803b15801561207d57600080fd5b505af1158015612091573d6000803e3d6000fd5b50506040513381527fe40741c3e9c19e2b1971d708b2c77f1b651c05e88f5b8e656db0d37a8a38e6d292506020019050611e3b565b6001600160a01b038116600090815260066020908152604091829020805483518184028101840190945280845260609392830182828015610ed3576020028201919060005260206000209081546001600160a01b03168152600190910190602001808311610eb55750505050509050919050565b6002600054141561218d5760405162461bcd60e51b815260206004820152601f60248201527f5265656e7472616e637947756172643a207265656e7472616e742063616c6c0060448201526064016104bc565b6002600055565b6040516001600160a01b038085166024830152831660448201526064810182905261130d9085907f23b872dd00000000000000000000000000000000000000000000000000000000906084015b60408051601f198184030181529190526020810180517bffffffffffffffffffffffffffffffffffffffffffffffffffffffff167fffffffff000000000000000000000000000000000000000000000000000000009093169290921790915261242f565b8015806122ce5750604051636eb1769f60e11b81523060048201526001600160a01b03838116602483015284169063dd62ed3e9060440160206040518083038186803b15801561229457600080fd5b505afa1580156122a8573d6000803e3d6000fd5b505050506040513d601f19601f820116820180604052508101906122cc9190612b6f565b155b6123405760405162461bcd60e51b815260206004820152603660248201527f5361666545524332303a20617070726f76652066726f6d206e6f6e2d7a65726f60448201527f20746f206e6f6e2d7a65726f20616c6c6f77616e63650000000000000000000060648201526084016104bc565b6040516001600160a01b0383166024820152604481018290526123899084907f095ea7b300000000000000000000000000000000000000000000000000000000906064016121e1565b505050565b6000763d602d80600a3d3981f3363d3d373d3d3d363d730000008260601b60e81c176000526e5af43d82803e903d91602b57fd5bf38260781b17602052603760096000f090506001600160a01b03811661242a5760405162461bcd60e51b815260206004820152601660248201527f455243313136373a20637265617465206661696c65640000000000000000000060448201526064016104bc565b919050565b612441826001600160a01b03166125c9565b61248d5760405162461bcd60e51b815260206004820152601f60248201527f5361666545524332303a2063616c6c20746f206e6f6e2d636f6e74726163740060448201526064016104bc565b600080836001600160a01b0316836040516124a89190612d00565b6000604051808303816000865af19150503d80600081146124e5576040519150601f19603f3d011682016040523d82523d6000602084013e6124ea565b606091505b50915091508161253c5760405162461bcd60e51b815260206004820181905260248201527f5361666545524332303a206c6f772d6c6576656c2063616c6c206661696c656460448201526064016104bc565b80511561130d57808060200190518101906125579190612bf7565b61130d5760405162461bcd60e51b815260206004820152602a60248201527f5361666545524332303a204552433230206f7065726174696f6e20646964206e60448201527f6f7420737563636565640000000000000000000000000000000000000000000060648201526084016104bc565b6000813f7fc5d2460186f7233c927e7db2dcc703c0e500b653ca82273b7bfad8045d85a4708181148015906125fd57508115155b949350505050565b6001600160a01b038116811461261a57600080fd5b50565b803561242a81612605565b801515811461261a57600080fd5b6000806000806080858703121561264c57600080fd5b84359350602085013561265e81612605565b9250604085013561266e81612605565b9150606085013561267e81612628565b939692955090935050565b60006020828403121561269b57600080fd5b81356126a681612605565b9392505050565b600081518084526020808501945080840160005b838110156126e65781516001600160a01b0316875295820195908201906001016126c1565b509495945050505050565b6020815260006126a660208301846126ad565b60008083601f84011261271657600080fd5b50813567ffffffffffffffff81111561272e57600080fd5b60208301915083602082850101111561274657600080fd5b9250929050565b6000806020838503121561276057600080fd5b823567ffffffffffffffff81111561277757600080fd5b61278385828601612704565b90969095509350505050565b6000806000606084860312156127a457600080fd5b83356127af81612605565b925060208401356127bf81612605565b915060408401356127cf81612628565b809150509250925092565b6000602082840312156127ec57600080fd5b5035919050565b634e487b7160e01b600052604160045260246000fd5b604051601f8201601f1916810167ffffffffffffffff81118282101715612832576128326127f3565b604052919050565b600067ffffffffffffffff821115612854576128546127f3565b5060051b60200190565b600082601f83011261286f57600080fd5b8135602061288461287f8361283a565b612809565b82815260059290921b840181019181810190868411156128a357600080fd5b8286015b848110156128c75780356128ba81612605565b83529183019183016128a7565b509695505050505050565b600067ffffffffffffffff8211156128ec576128ec6127f3565b50601f01601f191660200190565b600082601f83011261290b57600080fd5b813561291961287f826128d2565b81815284602083860101111561292e57600080fd5b816020850160208301376000918101602001919091529392505050565b60008060008060008060c0878903121561296457600080fd5b863567ffffffffffffffff8082111561297c57600080fd5b6129888a838b0161285e565b9750602089013591508082111561299e57600080fd5b6129aa8a838b016128fa565b965060408901359150808211156129c057600080fd5b6129cc8a838b016128fa565b955060608901359150808211156129e257600080fd5b6129ee8a838b016128fa565b94506080890135915080821115612a0457600080fd5b50612a1189828a016128fa565b925050612a2060a0880161261d565b90509295509295509295565b600080600060408486031215612a4157600080fd5b8335612a4c81612605565b9250602084013567ffffffffffffffff811115612a6857600080fd5b612a7486828701612704565b9497909650939450505050565b634e487b7160e01b600052601160045260246000fd5b60008219821115612aaa57612aaa612a81565b500190565b60005b83811015612aca578181015183820152602001612ab2565b8381111561130d5750506000910152565b600060208284031215612aed57600080fd5b815167ffffffffffffffff811115612b0457600080fd5b8201601f81018413612b1557600080fd5b8051612b2361287f826128d2565b818152856020838501011115612b3857600080fd5b612b49826020830160208601612aaf565b95945050505050565b600060208284031215612b6457600080fd5b81516126a681612605565b600060208284031215612b8157600080fd5b5051919050565b60008151808452612ba0816020860160208601612aaf565b601f01601f19169290920160200192915050565b60006001600160a01b03808816835286602084015285604084015280851660608401525060a06080830152612bec60a0830184612b88565b979650505050505050565b600060208284031215612c0957600080fd5b81516126a681612628565b600082821015612c2657612c26612a81565b500390565b8183823760009101908152919050565b60006020808385031215612c4e57600080fd5b825167ffffffffffffffff811115612c6557600080fd5b8301601f81018513612c7657600080fd5b8051612c8461287f8261283a565b81815260059190911b82018301908381019087831115612ca357600080fd5b928401925b82841015612bec578351612cbb81612605565b82529284019290840190612ca8565b634e487b7160e01b600052603260045260246000fd5b600060ff821660ff811415612cf757612cf7612a81565b60010192915050565b60008251612d12818460208701612aaf565b9190910192915050565b6000610140808352612d308184018e6126ad565b90508281036020840152612d44818d612b88565b90508281036040840152612d58818c612b88565b90508281036060840152612d6c818b612b88565b90508281036080840152612d80818a612b88565b6001600160a01b0398891660a085015296881660c0840152505092851660e084015293166101008201529115156101209092019190915295945050505050565b60006001600160a01b03808916835260c06020840152612de360c0840189612b88565b81881660408501528381036060850152612dfd81886126ad565b9515156080850152509290921660a09091015250949350505050565b60208152816020820152818360408301376000818301604090810191909152601f909201601f1916010191905056fea264697066735822122082b1dbbdc84f7ee48e909a230b65b89ce05c698fb363ed0dbac8c45904ca864964736f6c63430008090033608060405234801561001057600080fd5b506003805460ff191660011790556129418061002d6000396000f3fe608060405234801561001057600080fd5b506004361061018c5760003560e01c8063373d7c3f116100e35780638aebe8d61161008c578063d0e7a76e11610066578063d0e7a76e1461038a578063d15e00531461039d578063eda9c2d2146103b057600080fd5b80638aebe8d614610351578063bbc41f4814610364578063d04d566a1461037757600080fd5b806360246c88116100bd57806360246c88146102d257806367e0e076146102ed578063711cc0051461033e57600080fd5b8063373d7c3f1461028e57806347e7ef24146102965780635ff189b9146102a957600080fd5b806317d7de7c11610145578063343d693b1161011f578063343d693b1461025d578063357286d7146102655780633735ef881461027b57600080fd5b806317d7de7c1461022f5780631b88094d146102375780632f7570061461024857600080fd5b80630712f6b3116101765780630712f6b3146101f257806312eeff7e14610205578063155d8e9c1461021a57600080fd5b80627ffb78146101915780630251cfa1146101bb575b600080fd5b6005546001600160a01b03165b6040516001600160a01b0390911681526020015b60405180910390f35b6101e46101c93660046120e5565b6001600160a01b031660009081526001602052604090205490565b6040519081526020016101b2565b6101e46102003660046120e5565b6103c3565b61021861021336600461211b565b610451565b005b610222610798565b6040516101b291906121c6565b61022261082a565b6007546001600160a01b031661019e565b610250610839565b6040516101b2919061221d565b61022261089a565b600d5460ff1660405190151581526020016101b2565b6101e46102893660046120e5565b6108a9565b610222610960565b6102186102a4366004612230565b61096f565b6101e46102b73660046120e5565b6001600160a01b031660009081526002602052604090205490565b6102da610a9c565b6040516101b2979695949392919061225c565b6103006102fb3660046120e5565b610d7a565b604080519788526020880196909652948601939093526060850191909152608084015260a08301526001600160a01b031660c082015260e0016101b2565b61019e61034c3660046120e5565b610dfb565b6101e461035f3660046120e5565b610f0e565b6102186103723660046123fb565b611032565b61021861038536600461252b565b61139e565b61021861039836600461252b565b6113f9565b6101e46103ab3660046120e5565b61144f565b6101e46103be36600461259d565b611523565b6000806103cf83610dfb565b6040516370a0823160e01b81523060048201529091506001600160a01b038216906370a08231906024015b60206040518083038186803b15801561041257600080fd5b505afa158015610426573d6000803e3d6000fd5b505050506040513d601f19601f8201168201806040525081019061044a91906125ee565b9392505050565b6008546001600160a01b031633146104a05760405162461bcd60e51b815260206004820152600d60248201526c3737ba103a34329037bbb732b960991b60448201526064015b60405180910390fd5b6000600360019054906101000a90046001600160a01b03166001600160a01b031663026b1d5f6040518163ffffffff1660e01b815260040160206040518083038186803b1580156104f057600080fd5b505afa158015610504573d6000803e3d6000fd5b505050506040513d601f19601f820116820180604052508101906105289190612612565b6001600160a01b038616600090815260016020526040812080549293508692909190610555908490612645565b909155508290506105f057604051631a4ca37b60e21b81526001600160a01b0386811660048301526024820186905284811660448301528216906369328dec90606401602060405180830381600087803b1580156105b257600080fd5b505af11580156105c6573d6000803e3d6000fd5b505050506040513d601f19601f820116820180604052508101906105ea91906125ee565b50610791565b6000600460009054906101000a90046001600160a01b03166001600160a01b031663affa88176040518163ffffffff1660e01b815260040160206040518083038186803b15801561064057600080fd5b505afa158015610654573d6000803e3d6000fd5b505050506040513d601f19601f820116820180604052508101906106789190612612565b9050856001600160a01b0316816001600160a01b0316146106db5760405162461bcd60e51b815260206004820181905260248201527f617373657420646f6573206e6f74206d617463682057455448476174657761796044820152606401610497565b60006106e682610dfb565b600454909150610704906001600160a01b0380841691166000611b6f565b60045461071e906001600160a01b03838116911688611b6f565b60048054604051630402806960e51b81526001600160a01b03868116938201939093526024810189905287831660448201529116906380500d2090606401600060405180830381600087803b15801561077657600080fd5b505af115801561078a573d6000803e3d6000fd5b5050505050505b5050505050565b6060600b80546107a79061265c565b80601f01602080910402602001604051908101604052809291908181526020018280546107d39061265c565b80156108205780601f106107f557610100808354040283529160200191610820565b820191906000526020600020905b81548152906001019060200180831161080357829003601f168201915b5050505050905090565b6060600980546107a79061265c565b6060600680548060200260200160405190810160405280929190818152602001828054801561082057602002820191906000526020600020905b81546001600160a01b03168152600190910190602001808311610873575050505050905090565b6060600a80546107a79061265c565b6000806108b583610dfb565b6040516370a0823160e01b81523060048201529091506000906001600160a01b038316906370a082319060240160206040518083038186803b1580156108fa57600080fd5b505afa15801561090e573d6000803e3d6000fd5b505050506040513d601f19601f8201168201806040525081019061093291906125ee565b6001600160a01b0385166000908152600160205260409020549091506109589082612645565b949350505050565b6060600c80546107a79061265c565b6008546001600160a01b031633146109b95760405162461bcd60e51b815260206004820152600d60248201526c3737ba103a34329037bbb732b960991b6044820152606401610497565b816000805b60065460ff82161015610a1b5760068160ff16815481106109e1576109e1612697565b6000918252602090912001546001600160a01b0384811691161415610a095760019150610a1b565b80610a13816126ad565b9150506109be565b5080610a695760405162461bcd60e51b815260206004820152601c60248201527f746f6b656e206e6f74206163636570746564206279206a63706f6f6c000000006044820152606401610497565b6001600160a01b03841660009081526001602052604081208054859290610a919084906126cd565b909155505050505050565b60606000806060806060806006600760009054906101000a90046001600160a01b0316600d60009054906101000a900460ff16600c600b600a600986805480602002602001604051908101604052809291908181526020018280548015610b2c57602002820191906000526020600020905b81546001600160a01b03168152600190910190602001808311610b0e575b50505050509650838054610b3f9061265c565b80601f0160208091040260200160405190810160405280929190818152602001828054610b6b9061265c565b8015610bb85780601f10610b8d57610100808354040283529160200191610bb8565b820191906000526020600020905b815481529060010190602001808311610b9b57829003601f168201915b50505050509350828054610bcb9061265c565b80601f0160208091040260200160405190810160405280929190818152602001828054610bf79061265c565b8015610c445780601f10610c1957610100808354040283529160200191610c44565b820191906000526020600020905b815481529060010190602001808311610c2757829003601f168201915b50505050509250818054610c579061265c565b80601f0160208091040260200160405190810160405280929190818152602001828054610c839061265c565b8015610cd05780601f10610ca557610100808354040283529160200191610cd0565b820191906000526020600020905b815481529060010190602001808311610cb357829003601f168201915b50505050509150808054610ce39061265c565b80601f0160208091040260200160405190810160405280929190818152602001828054610d0f9061265c565b8015610d5c5780601f10610d3157610100808354040283529160200191610d5c565b820191906000526020600020905b815481529060010190602001808311610d3f57829003601f168201915b50505050509050965096509650965096509650965090919293949596565b6000806000806000806000610d8e88610f0e565b610d978961144f565b610da08a6103c3565b6001600160a01b038b16600090815260026020526040902054610dc28c6108a9565b6001600160a01b038d16600090815260016020526040902054610de48e610dfb565b959e949d50929b5090995097509550909350915050565b600080600360019054906101000a90046001600160a01b03166001600160a01b031663026b1d5f6040518163ffffffff1660e01b815260040160206040518083038186803b158015610e4c57600080fd5b505afa158015610e60573d6000803e3d6000fd5b505050506040513d601f19601f82011682018060405250810190610e849190612612565b6040516335ea6a7560e01b81526001600160a01b038581166004830152919250908216906335ea6a75906024016101e06040518083038186803b158015610eca57600080fd5b505afa158015610ede573d6000803e3d6000fd5b505050506040513d601f19601f82011682018060405250810190610f02919061276e565b61010001519392505050565b600080600360019054906101000a90046001600160a01b03166001600160a01b031663026b1d5f6040518163ffffffff1660e01b815260040160206040518083038186803b158015610f5f57600080fd5b505afa158015610f73573d6000803e3d6000fd5b505050506040513d601f19601f82011682018060405250810190610f979190612612565b6040516335ea6a7560e01b81526001600160a01b038581166004830152919250908216906335ea6a75906024016101e06040518083038186803b158015610fdd57600080fd5b505afa158015610ff1573d6000803e3d6000fd5b505050506040513d601f19601f82011682018060405250810190611015919061276e565b602001516fffffffffffffffffffffffffffffffff169392505050565b88518990603c90829082101561108a5760405162461bcd60e51b815260206004820152601b60248201527f737472696e67206f76657220636861726163746572206c696d697400000000006044820152606401610497565b600054610100900460ff16158080156110aa5750600054600160ff909116105b806110c45750303b1580156110c4575060005460ff166001145b6111365760405162461bcd60e51b815260206004820152602e60248201527f496e697469616c697a61626c653a20636f6e747261637420697320616c72656160448201527f647920696e697469616c697a65640000000000000000000000000000000000006064820152608401610497565b6000805460ff191660011790558015611159576000805461ff0019166101001790555b60035460ff16156111ac5760405162461bcd60e51b815260206004820152601660248201527f43616e6e6f7420696e697469616c697a652062617365000000000000000000006044820152606401610497565b6007546001600160a01b0316156112055760405162461bcd60e51b815260206004820152601960248201527f496e697469616c697a6520616c72656164792063616c6c6564000000000000006044820152606401610497565b88600760006101000a8154816001600160a01b0302191690836001600160a01b0316021790555033600860006101000a8154816001600160a01b0302191690836001600160a01b031602179055508c60099080519060200190611269929190611f45565b508b5161127d90600a9060208f0190611f45565b508a5161129190600b9060208e0190611f45565b5089516112a590600c9060208d0190611f45565b5084600d60006101000a81548160ff02191690831515021790555087600360016101000a8154816001600160a01b0302191690836001600160a01b0316021790555086600460006101000a8154816001600160a01b0302191690836001600160a01b0316021790555085600560006101000a8154816001600160a01b0302191690836001600160a01b031602179055508e8e60069190611346929190611fc9565b50801561138d576000805461ff0019169055604051600181527f7f26b83ff96e1f2b6a682f133852f6798a09c465da95921460cefb38474024989060200160405180910390a15b505050505050505050505050505050565b6008546001600160a01b031633146113e85760405162461bcd60e51b815260206004820152600d60248201526c3737ba103a34329037bbb732b960991b6044820152606401610497565b6113f4600a8383612034565b505050565b6008546001600160a01b031633146114435760405162461bcd60e51b815260206004820152600d60248201526c3737ba103a34329037bbb732b960991b6044820152606401610497565b6113f4600c8383612034565b600080600360019054906101000a90046001600160a01b03166001600160a01b031663026b1d5f6040518163ffffffff1660e01b815260040160206040518083038186803b1580156114a057600080fd5b505afa1580156114b4573d6000803e3d6000fd5b505050506040513d601f19601f820116820180604052508101906114d89190612612565b6040517fd15e00530000000000000000000000000000000000000000000000000000000081526001600160a01b0385811660048301529192509082169063d15e0053906024016103fa565b6008546000906001600160a01b031633146115705760405162461bcd60e51b815260206004820152600d60248201526c3737ba103a34329037bbb732b960991b6044820152606401610497565b600061157b86610dfb565b6040516370a0823160e01b81523060048201529091506000906001600160a01b038316906370a082319060240160206040518083038186803b1580156115c057600080fd5b505afa1580156115d4573d6000803e3d6000fd5b505050506040513d601f19601f820116820180604052508101906115f891906125ee565b6001600160a01b0388166000908152600160205260408120549192509061161f9083612645565b6001600160a01b03891660009081526002602052604081208054929350839290919061164c9084906126cd565b9250508190555060008190506000600360019054906101000a90046001600160a01b03166001600160a01b031663026b1d5f6040518163ffffffff1660e01b815260040160206040518083038186803b1580156116a857600080fd5b505afa1580156116bc573d6000803e3d6000fd5b505050506040513d601f19601f820116820180604052508101906116e09190612612565b9050876118bf578661178057600754604051631a4ca37b60e21b81526001600160a01b038c81166004830152602482018690529182166044820152908216906369328dec90606401602060405180830381600087803b15801561174257600080fd5b505af1158015611756573d6000803e3d6000fd5b505050506040513d601f19601f8201168201806040525081019061177a91906125ee565b50611b62565b600061178c8489611d03565b9050600061179a8286612645565b600754604051631a4ca37b60e21b81526001600160a01b038f811660048301526024820184905291821660448201529192508416906369328dec90606401602060405180830381600087803b1580156117f257600080fd5b505af1158015611806573d6000803e3d6000fd5b505050506040513d601f19601f8201168201806040525081019061182a91906125ee565b50604051631a4ca37b60e21b81526001600160a01b038d81166004830152602482018490528c811660448301528416906369328dec90606401602060405180830381600087803b15801561187d57600080fd5b505af1158015611891573d6000803e3d6000fd5b505050506040513d601f19601f820116820180604052508101906118b591906125ee565b509250611b629050565b60048054604080517faffa881700000000000000000000000000000000000000000000000000000000815290516001600160a01b03808f169493169263affa881792808201926020929091829003018186803b15801561191e57600080fd5b505afa158015611932573d6000803e3d6000fd5b505050506040513d601f19601f820116820180604052508101906119569190612612565b6001600160a01b0316146119ac5760405162461bcd60e51b815260206004820181905260248201527f617373657420646f6573206e6f74206d617463682057455448476174657761796044820152606401610497565b6004546119c7906001600160a01b0387811691166000611b6f565b6004546119e1906001600160a01b03878116911685611b6f565b86611a5e5760048054600754604051630402806960e51b81526001600160a01b03858116948201949094526024810187905290831660448201529116906380500d2090606401600060405180830381600087803b158015611a4157600080fd5b505af1158015611a55573d6000803e3d6000fd5b50505050611b62565b6000611a6a8489611d03565b90506000611a788286612645565b60048054600754604051630402806960e51b81526001600160a01b038881169482019490945260248101859052908316604482015292935016906380500d2090606401600060405180830381600087803b158015611ad557600080fd5b505af1158015611ae9573d6000803e3d6000fd5b505060048054604051630402806960e51b81526001600160a01b0388811693820193909352602481018790528f83166044820152911692506380500d209150606401600060405180830381600087803b158015611b4557600080fd5b505af1158015611b59573d6000803e3d6000fd5b50929550505050505b5098975050505050505050565b801580611c1157506040517fdd62ed3e0000000000000000000000000000000000000000000000000000000081523060048201526001600160a01b03838116602483015284169063dd62ed3e9060440160206040518083038186803b158015611bd757600080fd5b505afa158015611beb573d6000803e3d6000fd5b505050506040513d601f19601f82011682018060405250810190611c0f91906125ee565b155b611c835760405162461bcd60e51b815260206004820152603660248201527f5361666545524332303a20617070726f76652066726f6d206e6f6e2d7a65726f60448201527f20746f206e6f6e2d7a65726f20616c6c6f77616e6365000000000000000000006064820152608401610497565b604080516001600160a01b038416602482015260448082018490528251808303909101815260649091019091526020810180517bffffffffffffffffffffffffffffffffffffffffffffffffffffffff167f095ea7b3000000000000000000000000000000000000000000000000000000001790526113f4908490611d6c565b600080612710611d138486612891565b611d1d91906128b0565b90508061044a5760405162461bcd60e51b815260206004820152601960248201527f6e6f7420656e6f7567682066756e647320746f20636c61696d000000000000006044820152606401610497565b611d7e826001600160a01b0316611f0c565b611dca5760405162461bcd60e51b815260206004820152601f60248201527f5361666545524332303a2063616c6c20746f206e6f6e2d636f6e7472616374006044820152606401610497565b600080836001600160a01b031683604051611de591906128d2565b6000604051808303816000865af19150503d8060008114611e22576040519150601f19603f3d011682016040523d82523d6000602084013e611e27565b606091505b509150915081611e795760405162461bcd60e51b815260206004820181905260248201527f5361666545524332303a206c6f772d6c6576656c2063616c6c206661696c65646044820152606401610497565b805115611f065780806020019051810190611e9491906128ee565b611f065760405162461bcd60e51b815260206004820152602a60248201527f5361666545524332303a204552433230206f7065726174696f6e20646964206e60448201527f6f742073756363656564000000000000000000000000000000000000000000006064820152608401610497565b50505050565b6000813f7fc5d2460186f7233c927e7db2dcc703c0e500b653ca82273b7bfad8045d85a470818114801590610958575050151592915050565b828054611f519061265c565b90600052602060002090601f016020900481019282611f735760008555611fb9565b82601f10611f8c57805160ff1916838001178555611fb9565b82800160010185558215611fb9579182015b82811115611fb9578251825591602001919060010190611f9e565b50611fc59291506120a8565b5090565b828054828255906000526020600020908101928215611fb9579160200282015b82811115611fb95781547fffffffffffffffffffffffff0000000000000000000000000000000000000000166001600160a01b03843516178255602090920191600190910190611fe9565b8280546120409061265c565b90600052602060002090601f0160209004810192826120625760008555611fb9565b82601f1061207b5782800160ff19823516178555611fb9565b82800160010185558215611fb9579182015b82811115611fb957823582559160200191906001019061208d565b5b80821115611fc557600081556001016120a9565b6001600160a01b03811681146120d257600080fd5b50565b80356120e0816120bd565b919050565b6000602082840312156120f757600080fd5b813561044a816120bd565b80151581146120d257600080fd5b80356120e081612102565b6000806000806080858703121561213157600080fd5b843561213c816120bd565b9350602085013592506040850135612153816120bd565b9150606085013561216381612102565b939692955090935050565b60005b83811015612189578181015183820152602001612171565b83811115611f065750506000910152565b600081518084526121b281602086016020860161216e565b601f01601f19169290920160200192915050565b60208152600061044a602083018461219a565b600081518084526020808501945080840160005b838110156122125781516001600160a01b0316875295820195908201906001016121ed565b509495945050505050565b60208152600061044a60208301846121d9565b6000806040838503121561224357600080fd5b823561224e816120bd565b946020939093013593505050565b60e08152600061226f60e083018a6121d9565b6001600160a01b038916602084015287151560408401528281036060840152612298818861219a565b905082810360808401526122ac818761219a565b905082810360a08401526122c0818661219a565b905082810360c08401526122d4818561219a565b9a9950505050505050505050565b60008083601f8401126122f457600080fd5b50813567ffffffffffffffff81111561230c57600080fd5b6020830191508360208260051b850101111561232757600080fd5b9250929050565b634e487b7160e01b600052604160045260246000fd5b6040516101e0810167ffffffffffffffff811182821017156123685761236861232e565b60405290565b600082601f83011261237f57600080fd5b813567ffffffffffffffff8082111561239a5761239a61232e565b604051601f8301601f19908116603f011681019082821181831017156123c2576123c261232e565b816040528381528660208588010111156123db57600080fd5b836020870160208301376000602085830101528094505050505092915050565b60008060008060008060008060008060006101408c8e03121561241d57600080fd5b67ffffffffffffffff808d35111561243457600080fd5b6124418e8e358f016122e2565b909c509a5060208d013581101561245757600080fd5b6124678e60208f01358f0161236e565b99508060408e0135111561247a57600080fd5b61248a8e60408f01358f0161236e565b98508060608e0135111561249d57600080fd5b6124ad8e60608f01358f0161236e565b97508060808e013511156124c057600080fd5b506124d18d60808e01358e0161236e565b95506124df60a08d016120d5565b94506124ed60c08d016120d5565b93506124fb60e08d016120d5565b925061250a6101008d016120d5565b91506125196101208d01612110565b90509295989b509295989b9093969950565b6000806020838503121561253e57600080fd5b823567ffffffffffffffff8082111561255657600080fd5b818501915085601f83011261256a57600080fd5b81358181111561257957600080fd5b86602082850101111561258b57600080fd5b60209290920196919550909350505050565b600080600080608085870312156125b357600080fd5b84356125be816120bd565b935060208501356125ce816120bd565b925060408501356125de81612102565b9396929550929360600135925050565b60006020828403121561260057600080fd5b5051919050565b80516120e0816120bd565b60006020828403121561262457600080fd5b815161044a816120bd565b634e487b7160e01b600052601160045260246000fd5b6000828210156126575761265761262f565b500390565b600181811c9082168061267057607f821691505b6020821081141561269157634e487b7160e01b600052602260045260246000fd5b50919050565b634e487b7160e01b600052603260045260246000fd5b600060ff821660ff8114156126c4576126c461262f565b60010192915050565b600082198211156126e0576126e061262f565b500190565b6000602082840312156126f757600080fd5b6040516020810181811067ffffffffffffffff8211171561271a5761271a61232e565b6040529151825250919050565b80516fffffffffffffffffffffffffffffffff811681146120e057600080fd5b805164ffffffffff811681146120e057600080fd5b805161ffff811681146120e057600080fd5b60006101e0828403121561278157600080fd5b612789612344565b61279384846126e5565b81526127a160208401612727565b60208201526127b260408401612727565b60408201526127c360608401612727565b60608201526127d460808401612727565b60808201526127e560a08401612727565b60a08201526127f660c08401612747565b60c082015261280760e0840161275c565b60e082015261010061281a818501612607565b9082015261012061282c848201612607565b9082015261014061283e848201612607565b90820152610160612850848201612607565b90820152610180612862848201612727565b908201526101a0612874848201612727565b908201526101c0612886848201612727565b908201529392505050565b60008160001904831182151516156128ab576128ab61262f565b500290565b6000826128cd57634e487b7160e01b600052601260045260246000fd5b500490565b600082516128e481846020870161216e565b9190910192915050565b60006020828403121561290057600080fd5b815161044a8161210256fea2646970667358221220db7431e7a482f6c2b7662f324e4536f9a7ab2a28e2198b5847a405f3049ecb1464736f6c63430008090033608060405234801561001057600080fd5b5061234b806100206000396000f3fe608060405234801561001057600080fd5b506004361061016c5760003560e01c8063519dc8d2116100cd578063a22cb46511610081578063c4d66de811610066578063c4d66de814610327578063c87b56dd1461033a578063e985e9c51461034d57600080fd5b8063a22cb46514610301578063b88d4fde1461031457600080fd5b80636352211e116100b25780636352211e146102d357806370a08231146102e657806395d89b41146102f957600080fd5b8063519dc8d2146102755780635328c2bf1461029557600080fd5b806323b872dd116101245780632e0c3f3c116101095780632e0c3f3c1461022157806342842e0e1461024f57806347c6b45e1461026257600080fd5b806323b872dd146101fb57806326a45ffb1461020e57600080fd5b806306fdde031161015557806306fdde03146101be578063081812fc146101d3578063095ea7b3146101e657600080fd5b806301ffc9a714610171578063026b1d5f14610199575b600080fd5b61018461017f366004611d4f565b610389565b60405190151581526020015b60405180910390f35b60c9546001600160a01b03165b6040516001600160a01b039091168152602001610190565b6101c66103cd565b6040516101909190611dc4565b6101a66101e1366004611dd7565b61045f565b6101f96101f4366004611e05565b610486565b005b6101f9610209366004611e31565b6105bd565b61018461021c366004611e72565b610634565b61024161022f366004611dd7565b600090815260cb602052604090205490565b604051908152602001610190565b6101f961025d366004611e31565b6107d1565b6101f9610270366004611f1c565b6107ec565b610288610283366004611f5e565b61097f565b6040516101909190611f7b565b6102a86102a3366004611dd7565b610b46565b604080518251815260208084015190820152918101516001600160a01b031690820152606001610190565b6101a66102e1366004611dd7565b610bb5565b6102416102f4366004611f5e565b610c1a565b6101c6610cb4565b6101f961030f366004611fbf565b610cc3565b6101f9610322366004612044565b610cd2565b6101f9610335366004611f5e565b610d50565b6101c6610348366004611dd7565b610f06565b61018461035b366004612108565b6001600160a01b039182166000908152606a6020908152604080832093909416825291909152205460ff1690565b60006001600160e01b031982167f490649060000000000000000000000000000000000000000000000000000000014806103c757506103c782610f11565b92915050565b6060606580546103dc90612136565b80601f016020809104026020016040519081016040528092919081815260200182805461040890612136565b80156104555780601f1061042a57610100808354040283529160200191610455565b820191906000526020600020905b81548152906001019060200180831161043857829003601f168201915b5050505050905090565b600061046a82610fac565b506000908152606960205260409020546001600160a01b031690565b600061049182610bb5565b9050806001600160a01b0316836001600160a01b031614156105205760405162461bcd60e51b815260206004820152602160248201527f4552433732313a20617070726f76616c20746f2063757272656e74206f776e6560448201527f720000000000000000000000000000000000000000000000000000000000000060648201526084015b60405180910390fd5b336001600160a01b038216148061053c575061053c813361035b565b6105ae5760405162461bcd60e51b815260206004820152603d60248201527f4552433732313a20617070726f76652063616c6c6572206973206e6f7420746f60448201527f6b656e206f776e6572206f7220617070726f76656420666f7220616c6c0000006064820152608401610517565b6105b88383611013565b505050565b6105c73382611081565b6106295760405162461bcd60e51b815260206004820152602d60248201527f4552433732313a2063616c6c6572206973206e6f7420746f6b656e206f776e6560448201526c1c881bdc88185c1c1c9bdd9959609a1b6064820152608401610517565b6105b8838383611100565b60ca546000906001600160a01b031633146106815760405162461bcd60e51b815260206004820152600d60248201526c3737ba103a34329037bbb732b960991b6044820152606401610517565b60c954604080516bffffffffffffffffffffffff1960608b811b821660208085019190915294811b8216603484015288901b1660488201528151808203603c018152605c909101825280519083012060008181526067909352908220549091906001600160a01b03161561071f57600082815260cb602052604081206001810189905580548a9290610714908490612187565b909155506107c59050565b6040805160608101825289815260208082018a81526001600160a01b038a8116848601908152600088815260cb90945294909220925183555160018301559151600290910180546001600160a01b031916919092161790556107818983611306565b6107c18286868080601f01602080910402602001604051908101604052809392919081815260200183838082843760009201919091525061149f92505050565b5060015b98975050505050505050565b6105b883838360405180602001604052806000815250610cd2565b60ca546001600160a01b031633146108365760405162461bcd60e51b815260206004820152600d60248201526c3737ba103a34329037bbb732b960991b6044820152606401610517565b60c954604080516bffffffffffffffffffffffff19606087811b821660208085019190915294811b8216603484015285901b1660488201528151808203603c018152605c9091018252805190830120600081815260679093529120546001600160a01b03166108e75760405162461bcd60e51b815260206004820152601560248201527f746f6b656e496420646f65736e277420657869737400000000000000000000006044820152606401610517565b600081815260cb6020526040902054838110156109465760405162461bcd60e51b815260206004820152601460248201527f696e73756666696369656e742062616c616e63650000000000000000000000006044820152606401610517565b610950848261219f565b90508061096a57600082815260cb60205260408120600101555b600091825260cb602052604090912055505050565b6060600060c960009054906101000a90046001600160a01b03166001600160a01b0316632f7570066040518163ffffffff1660e01b815260040160006040518083038186803b1580156109d157600080fd5b505afa1580156109e5573d6000803e3d6000fd5b505050506040513d6000823e601f3d908101601f19168201604052610a0d91908101906121b6565b805190915060008167ffffffffffffffff811115610a2d57610a2d611ffd565b604051908082528060200260200182016040528015610a56578160200160208202803683370190505b50905060005b82811015610b3d5760008660c960009054906101000a90046001600160a01b0316868481518110610a8f57610a8f61225c565b6020026020010151604051602001610ad493929190606093841b6bffffffffffffffffffffffff19908116825292841b83166014820152921b166028820152603c0190565b60408051601f198184030181529181528151602092830120600081815260679093529120549091506001600160a01b031615610b2a5780838381518110610b1d57610b1d61225c565b6020026020010181815250505b5080610b3581612272565b915050610a5c565b50949350505050565b610b736040518060600160405280600081526020016000815260200160006001600160a01b031681525090565b50600090815260cb6020908152604091829020825160608101845281548152600182015492810192909252600201546001600160a01b03169181019190915290565b6000818152606760205260408120546001600160a01b0316806103c75760405162461bcd60e51b815260206004820152601860248201527f4552433732313a20696e76616c696420746f6b656e20494400000000000000006044820152606401610517565b60006001600160a01b038216610c985760405162461bcd60e51b815260206004820152602960248201527f4552433732313a2061646472657373207a65726f206973206e6f74206120766160448201527f6c6964206f776e657200000000000000000000000000000000000000000000006064820152608401610517565b506001600160a01b031660009081526068602052604090205490565b6060606680546103dc90612136565b610cce338383611579565b5050565b610cdc3383611081565b610d3e5760405162461bcd60e51b815260206004820152602d60248201527f4552433732313a2063616c6c6572206973206e6f7420746f6b656e206f776e6560448201526c1c881bdc88185c1c1c9bdd9959609a1b6064820152608401610517565b610d4a84848484611648565b50505050565b600054610100900460ff1615808015610d705750600054600160ff909116105b80610d8a5750303b158015610d8a575060005460ff166001145b610dfc5760405162461bcd60e51b815260206004820152602e60248201527f496e697469616c697a61626c653a20636f6e747261637420697320616c72656160448201527f647920696e697469616c697a65640000000000000000000000000000000000006064820152608401610517565b6000805460ff191660011790558015610e1f576000805461ff0019166101001790555b610e936040518060400160405280601581526020017f4a435020436f6e7472696275746f7220546f6b656e00000000000000000000008152506040518060400160405280600481526020017f4a435043000000000000000000000000000000000000000000000000000000008152506116d1565b60c980546001600160a01b0384166001600160a01b03199182161790915560ca8054909116331790558015610cce576000805461ff0019169055604051600181527f7f26b83ff96e1f2b6a682f133852f6798a09c465da95921460cefb3847402498906020015b60405180910390a15050565b60606103c782611746565b60006001600160e01b031982167f80ac58cd000000000000000000000000000000000000000000000000000000001480610f7457506001600160e01b031982167f5b5e139f00000000000000000000000000000000000000000000000000000000145b806103c757507f01ffc9a7000000000000000000000000000000000000000000000000000000006001600160e01b03198316146103c7565b6000818152606760205260409020546001600160a01b03166110105760405162461bcd60e51b815260206004820152601860248201527f4552433732313a20696e76616c696420746f6b656e20494400000000000000006044820152606401610517565b50565b600081815260696020526040902080546001600160a01b0319166001600160a01b038416908117909155819061104882610bb5565b6001600160a01b03167f8c5be1e5ebec7d5bd14f71427d1e84f3dd0314c0f7b2291e5b200ac8c7c3b92560405160405180910390a45050565b60008061108d83610bb5565b9050806001600160a01b0316846001600160a01b031614806110d457506001600160a01b038082166000908152606a602090815260408083209388168352929052205460ff165b806110f85750836001600160a01b03166110ed8461045f565b6001600160a01b0316145b949350505050565b826001600160a01b031661111382610bb5565b6001600160a01b0316146111775760405162461bcd60e51b815260206004820152602560248201527f4552433732313a207472616e736665722066726f6d20696e636f72726563742060448201526437bbb732b960d91b6064820152608401610517565b6001600160a01b0382166111f25760405162461bcd60e51b8152602060048201526024808201527f4552433732313a207472616e7366657220746f20746865207a65726f2061646460448201527f72657373000000000000000000000000000000000000000000000000000000006064820152608401610517565b6111ff838383600161184f565b826001600160a01b031661121282610bb5565b6001600160a01b0316146112765760405162461bcd60e51b815260206004820152602560248201527f4552433732313a207472616e736665722066726f6d20696e636f72726563742060448201526437bbb732b960d91b6064820152608401610517565b600081815260696020908152604080832080546001600160a01b03199081169091556001600160a01b0387811680865260688552838620805460001901905590871680865283862080546001019055868652606790945282852080549092168417909155905184937fddf252ad1be2c89b69c2b068fc378daa952ba7f163c4a11628f55a4df523b3ef91a4505050565b6001600160a01b03821661135c5760405162461bcd60e51b815260206004820181905260248201527f4552433732313a206d696e7420746f20746865207a65726f20616464726573736044820152606401610517565b6000818152606760205260409020546001600160a01b0316156113c15760405162461bcd60e51b815260206004820152601c60248201527f4552433732313a20746f6b656e20616c7265616479206d696e746564000000006044820152606401610517565b6113cf60008383600161184f565b6000818152606760205260409020546001600160a01b0316156114345760405162461bcd60e51b815260206004820152601c60248201527f4552433732313a20746f6b656e20616c7265616479206d696e746564000000006044820152606401610517565b6001600160a01b038216600081815260686020908152604080832080546001019055848352606790915280822080546001600160a01b0319168417905551839291907fddf252ad1be2c89b69c2b068fc378daa952ba7f163c4a11628f55a4df523b3ef908290a45050565b6000828152606760205260409020546001600160a01b03166115295760405162461bcd60e51b815260206004820152602e60248201527f45524337323155524953746f726167653a2055524920736574206f66206e6f6e60448201527f6578697374656e7420746f6b656e0000000000000000000000000000000000006064820152608401610517565b6000828152609760209081526040909120825161154892840190611ca0565b506040518281527ff8e1a15aba9398e019f0b49df1a4fde98ee17ae345cb5f6b5e2c27f5033e8ce790602001610efa565b816001600160a01b0316836001600160a01b031614156115db5760405162461bcd60e51b815260206004820152601960248201527f4552433732313a20617070726f766520746f2063616c6c6572000000000000006044820152606401610517565b6001600160a01b038381166000818152606a6020908152604080832094871680845294825291829020805460ff191686151590811790915591519182527f17307eab39ab6107e8899845ad3d59bd9653f200f220920489ca2b5937696c31910160405180910390a3505050565b611653848484611100565b61165f848484846118ab565b610d4a5760405162461bcd60e51b815260206004820152603260248201527f4552433732313a207472616e7366657220746f206e6f6e20455243373231526560448201527f63656976657220696d706c656d656e74657200000000000000000000000000006064820152608401610517565b600054610100900460ff1661173c5760405162461bcd60e51b815260206004820152602b60248201527f496e697469616c697a61626c653a20636f6e7472616374206973206e6f74206960448201526a6e697469616c697a696e6760a81b6064820152608401610517565b610cce8282611a0e565b606061175182610fac565b6000828152609760205260408120805461176a90612136565b80601f016020809104026020016040519081016040528092919081815260200182805461179690612136565b80156117e35780601f106117b8576101008083540402835291602001916117e3565b820191906000526020600020905b8154815290600101906020018083116117c657829003601f168201915b50505050509050600061180160408051602081019091526000815290565b9050805160001415611814575092915050565b81511561184657808260405160200161182e92919061228d565b60405160208183030381529060405292505050919050565b6110f884611aa0565b6001600160a01b038416156118a65760405162461bcd60e51b815260206004820152601160248201527f6e6f6e2d7472616e736665727261626c650000000000000000000000000000006044820152606401610517565b610d4a565b60006001600160a01b0384163b15611a0357604051630a85bd0160e11b81526001600160a01b0385169063150b7a02906118ef9033908990889088906004016122bc565b602060405180830381600087803b15801561190957600080fd5b505af1925050508015611939575060408051601f3d908101601f19168201909252611936918101906122f8565b60015b6119e9573d808015611967576040519150601f19603f3d011682016040523d82523d6000602084013e61196c565b606091505b5080516119e15760405162461bcd60e51b815260206004820152603260248201527f4552433732313a207472616e7366657220746f206e6f6e20455243373231526560448201527f63656976657220696d706c656d656e74657200000000000000000000000000006064820152608401610517565b805181602001fd5b6001600160e01b031916630a85bd0160e11b1490506110f8565b506001949350505050565b600054610100900460ff16611a795760405162461bcd60e51b815260206004820152602b60248201527f496e697469616c697a61626c653a20636f6e7472616374206973206e6f74206960448201526a6e697469616c697a696e6760a81b6064820152608401610517565b8151611a8c906065906020850190611ca0565b5080516105b8906066906020840190611ca0565b6060611aab82610fac565b6000611ac260408051602081019091526000815290565b90506000815111611ae25760405180602001604052806000815250611b0d565b80611aec84611b14565b604051602001611afd92919061228d565b6040516020818303038152906040525b9392505050565b60606000611b2183611bbe565b600101905060008167ffffffffffffffff811115611b4157611b41611ffd565b6040519080825280601f01601f191660200182016040528015611b6b576020820181803683370190505b5090508181016020015b600019017f3031323334353637383961626364656600000000000000000000000000000000600a86061a8153600a8504945084611bb157611bb6565b611b75565b509392505050565b6000807a184f03e93ff9f4daa797ed6e38ed64bf6a1f0100000000000000008310611c07577a184f03e93ff9f4daa797ed6e38ed64bf6a1f010000000000000000830492506040015b6d04ee2d6d415b85acef81000000008310611c33576d04ee2d6d415b85acef8100000000830492506020015b662386f26fc100008310611c5157662386f26fc10000830492506010015b6305f5e1008310611c69576305f5e100830492506008015b6127108310611c7d57612710830492506004015b60648310611c8f576064830492506002015b600a83106103c75760010192915050565b828054611cac90612136565b90600052602060002090601f016020900481019282611cce5760008555611d14565b82601f10611ce757805160ff1916838001178555611d14565b82800160010185558215611d14579182015b82811115611d14578251825591602001919060010190611cf9565b50611d20929150611d24565b5090565b5b80821115611d205760008155600101611d25565b6001600160e01b03198116811461101057600080fd5b600060208284031215611d6157600080fd5b8135611b0d81611d39565b60005b83811015611d87578181015183820152602001611d6f565b83811115610d4a5750506000910152565b60008151808452611db0816020860160208601611d6c565b601f01601f19169290920160200192915050565b602081526000611b0d6020830184611d98565b600060208284031215611de957600080fd5b5035919050565b6001600160a01b038116811461101057600080fd5b60008060408385031215611e1857600080fd5b8235611e2381611df0565b946020939093013593505050565b600080600060608486031215611e4657600080fd5b8335611e5181611df0565b92506020840135611e6181611df0565b929592945050506040919091013590565b60008060008060008060a08789031215611e8b57600080fd5b8635611e9681611df0565b955060208701359450604087013593506060870135611eb481611df0565b9250608087013567ffffffffffffffff80821115611ed157600080fd5b818901915089601f830112611ee557600080fd5b813581811115611ef457600080fd5b8a6020828501011115611f0657600080fd5b6020830194508093505050509295509295509295565b600080600060608486031215611f3157600080fd5b8335611f3c81611df0565b9250602084013591506040840135611f5381611df0565b809150509250925092565b600060208284031215611f7057600080fd5b8135611b0d81611df0565b6020808252825182820181905260009190848201906040850190845b81811015611fb357835183529284019291840191600101611f97565b50909695505050505050565b60008060408385031215611fd257600080fd5b8235611fdd81611df0565b915060208301358015158114611ff257600080fd5b809150509250929050565b634e487b7160e01b600052604160045260246000fd5b604051601f8201601f1916810167ffffffffffffffff8111828210171561203c5761203c611ffd565b604052919050565b6000806000806080858703121561205a57600080fd5b843561206581611df0565b935060208581013561207681611df0565b935060408601359250606086013567ffffffffffffffff8082111561209a57600080fd5b818801915088601f8301126120ae57600080fd5b8135818111156120c0576120c0611ffd565b6120d2601f8201601f19168501612013565b915080825289848285010111156120e857600080fd5b808484018584013760008482840101525080935050505092959194509250565b6000806040838503121561211b57600080fd5b823561212681611df0565b91506020830135611ff281611df0565b600181811c9082168061214a57607f821691505b6020821081141561216b57634e487b7160e01b600052602260045260246000fd5b50919050565b634e487b7160e01b600052601160045260246000fd5b6000821982111561219a5761219a612171565b500190565b6000828210156121b1576121b1612171565b500390565b600060208083850312156121c957600080fd5b825167ffffffffffffffff808211156121e157600080fd5b818501915085601f8301126121f557600080fd5b81518181111561220757612207611ffd565b8060051b9150612218848301612013565b818152918301840191848101908884111561223257600080fd5b938501935b838510156107c5578451925061224c83611df0565b8282529385019390850190612237565b634e487b7160e01b600052603260045260246000fd5b600060001982141561228657612286612171565b5060010190565b6000835161229f818460208801611d6c565b8351908301906122b3818360208801611d6c565b01949350505050565b60006001600160a01b038087168352808616602084015250836040830152608060608301526122ee6080830184611d98565b9695505050505050565b60006020828403121561230a57600080fd5b8151611b0d81611d3956fea2646970667358221220da3f4fa7b2d52ac5aa1720870e7b03942659caa18a86bd65ee567b3d2effcfd764736f6c63430008090033",
  "linkReferences": {},
  "deployedLinkReferences": {}
}