{
  "contractName": "PoolTracker",
  "abi": [
    {
      "inputs": [],
      "stateMutability": "nonpayable",
      "type": "constructor"
    },
    {
      "anonymous": false,
      "inputs": [
        {
          "indexed": false,
          "internalType": "address",
          "name": "_userAddr",
          "type": "address"
        },
        {
          "indexed": false,
          "internalType": "address",
          "name": "_pool",
          "type": "address"
        }
      ],
      "name": "AddDeposit",
      "type": "event"
    },
    {
      "anonymous": false,
      "inputs": [
        {
          "indexed": false,
          "internalType": "address",
          "name": "addressToAdd",
          "type": "address"
        }
      ],
      "name": "AddVerifiedPools",
      "type": "event"
    },
    {
      "anonymous": false,
      "inputs": [
        {
          "indexed": false,
          "internalType": "address",
          "name": "_owner",
          "type": "address"
        },
        {
          "indexed": false,
          "internalType": "address",
          "name": "_pool",
          "type": "address"
        }
      ],
      "name": "OwnerAddress",
      "type": "event"
    },
    {
      "anonymous": false,
      "inputs": [
        {
          "indexed": false,
          "internalType": "address",
          "name": "_userAddr",
          "type": "address"
        },
        {
          "indexed": false,
          "internalType": "address",
          "name": "_pool",
          "type": "address"
        },
        {
          "indexed": false,
          "internalType": "uint256",
          "name": "amount",
          "type": "uint256"
        },
        {
          "indexed": false,
          "internalType": "uint256",
          "name": "oldAmountScaled",
          "type": "uint256"
        },
        {
          "indexed": false,
          "internalType": "uint256",
          "name": "newAmountScaled",
          "type": "uint256"
        },
        {
          "indexed": false,
          "internalType": "uint256",
          "name": "oldLiquidityIndex",
          "type": "uint256"
        },
        {
          "indexed": false,
          "internalType": "uint256",
          "name": "liquidityIndex",
          "type": "uint256"
        }
      ],
      "name": "WithdrawDeposit",
      "type": "event"
    },
    {
      "inputs": [
        {
          "internalType": "bytes32",
          "name": "_hash",
          "type": "bytes32"
        }
      ],
      "name": "addValidByteCodeHash",
      "outputs": [],
      "stateMutability": "nonpayable",
      "type": "function"
    },
    {
      "inputs": [
        {
          "internalType": "uint256",
          "name": "_amount",
          "type": "uint256"
        },
        {
          "internalType": "address",
          "name": "_asset",
          "type": "address"
        },
        {
          "internalType": "address",
          "name": "_pool",
          "type": "address"
        },
        {
          "internalType": "bool",
          "name": "isETH",
          "type": "bool"
        }
      ],
      "name": "addDeposit",
      "outputs": [],
      "stateMutability": "payable",
      "type": "function",
      "payable": true
    },
    {
      "inputs": [
        {
          "internalType": "uint256",
          "name": "_amount",
          "type": "uint256"
        },
        {
          "internalType": "address",
          "name": "_asset",
          "type": "address"
        },
        {
          "internalType": "address",
          "name": "_pool",
          "type": "address"
        }
      ],
      "name": "withdrawDeposit",
      "outputs": [],
      "stateMutability": "nonpayable",
      "type": "function"
    },
    {
      "inputs": [
        {
          "internalType": "address",
          "name": "_asset",
          "type": "address"
        },
        {
          "internalType": "address",
          "name": "_pool",
          "type": "address"
        }
      ],
      "name": "claimInterest",
      "outputs": [],
      "stateMutability": "nonpayable",
      "type": "function"
    },
    {
      "inputs": [
        {
          "internalType": "address[]",
          "name": "_acceptedTokens",
          "type": "address[]"
        },
        {
          "internalType": "string",
          "name": "_name",
          "type": "string"
        },
        {
          "internalType": "string",
          "name": "_about",
          "type": "string"
        },
        {
          "internalType": "address",
          "name": "_receiver",
          "type": "address"
        }
      ],
      "name": "createJCPoolClone",
      "outputs": [],
      "stateMutability": "nonpayable",
      "type": "function"
    },
    {
      "inputs": [
        {
          "internalType": "address",
          "name": "_asset",
          "type": "address"
        },
        {
          "internalType": "address",
          "name": "_pool",
          "type": "address"
        }
      ],
      "name": "getReserveNormalizedIncome",
      "outputs": [
        {
          "internalType": "uint256",
          "name": "",
          "type": "uint256"
        }
      ],
      "stateMutability": "view",
      "type": "function",
      "constant": true
    },
    {
      "inputs": [],
      "name": "getDepositorERC721Address",
      "outputs": [
        {
          "internalType": "address",
          "name": "",
          "type": "address"
        }
      ],
      "stateMutability": "view",
      "type": "function",
      "constant": true
    },
    {
      "inputs": [],
      "name": "getOwnerERC721Address",
      "outputs": [
        {
          "internalType": "address",
          "name": "",
          "type": "address"
        }
      ],
      "stateMutability": "view",
      "type": "function",
      "constant": true
    },
    {
      "inputs": [],
      "name": "getBaseJCPoolAddress",
      "outputs": [
        {
          "internalType": "address",
          "name": "",
          "type": "address"
        }
      ],
      "stateMutability": "view",
      "type": "function",
      "constant": true
    },
    {
      "inputs": [],
      "name": "getVerifiedPools",
      "outputs": [
        {
          "internalType": "address[]",
          "name": "",
          "type": "address[]"
        }
      ],
      "stateMutability": "view",
      "type": "function",
      "constant": true
    },
    {
      "inputs": [
        {
          "internalType": "address",
          "name": "_pool",
          "type": "address"
        }
      ],
      "name": "checkPool",
      "outputs": [
        {
          "internalType": "bool",
          "name": "",
          "type": "bool"
        }
      ],
      "stateMutability": "view",
      "type": "function",
      "constant": true
    },
    {
      "inputs": [
        {
          "internalType": "string",
          "name": "_name",
          "type": "string"
        }
      ],
      "name": "getAddressFromName",
      "outputs": [
        {
          "internalType": "address",
          "name": "",
          "type": "address"
        }
      ],
      "stateMutability": "view",
      "type": "function",
      "constant": true
    },
    {
      "inputs": [
        {
          "internalType": "address",
          "name": "_pool",
          "type": "address"
        }
      ],
      "name": "checkByteCode",
      "outputs": [
        {
          "internalType": "bool",
          "name": "",
          "type": "bool"
        }
      ],
      "stateMutability": "view",
      "type": "function",
      "constant": true
    }
  ],
  "bytecode": "0x60806040523480156200001157600080fd5b5060405162000020906200015c565b604051809103906000f0801580156200003d573d6000803e3d6000fd5b50600260006101000a81548173ffffffffffffffffffffffffffffffffffffffff021916908373ffffffffffffffffffffffffffffffffffffffff1602179055506040516200008c906200016a565b604051809103906000f080158015620000a9573d6000803e3d6000fd5b50600360006101000a81548173ffffffffffffffffffffffffffffffffffffffff021916908373ffffffffffffffffffffffffffffffffffffffff160217905550604051620000f89062000178565b604051809103906000f08015801562000115573d6000803e3d6000fd5b50600160006101000a81548173ffffffffffffffffffffffffffffffffffffffff021916908373ffffffffffffffffffffffffffffffffffffffff16021790555062000186565b6143078062001fa683390190565b61381a80620062ad83390190565b6130668062009ac783390190565b611e1080620001966000396000f3fe6080604052600436106100c25760003560e01c80635aa388681161007f578063748d682911610059578063748d6829146102595780638e61514e14610296578063b63ae6ee146102d3578063ba437c68146102fe576100c2565b80635aa38868146101dc5780635b1327a214610207578063618b1e8314610230576100c2565b806308f52b3c146100c75780630c1a4477146100e35780630f06f6431461010e57806330b9d2a71461014b5780633989a671146101885780634e1a58a8146101b3575b600080fd5b6100e160048036038101906100dc919061120e565b610327565b005b3480156100ef57600080fd5b506100f8610621565b6040516101059190611284565b60405180910390f35b34801561011a57600080fd5b506101356004803603810190610130919061129f565b61064b565b60405161014291906112ee565b60405180910390f35b34801561015757600080fd5b50610172600480360381019061016d9190611309565b6106de565b60405161017f9190611345565b60405180910390f35b34801561019457600080fd5b5061019d610734565b6040516101aa9190611284565b60405180910390f35b3480156101bf57600080fd5b506101da60048036038101906101d59190611396565b61075e565b005b3480156101e857600080fd5b506101f161078a565b6040516101fe9190611284565b60405180910390f35b34801561021357600080fd5b5061022e600480360381019061022991906113c3565b6107b4565b005b34801561023c57600080fd5b5061025760048036038101906102529190611624565b610a53565b005b34801561026557600080fd5b50610280600480360381019061027b9190611309565b610d71565b60405161028d9190611345565b60405180910390f35b3480156102a257600080fd5b506102bd60048036038101906102b891906116df565b610e86565b6040516102ca9190611284565b60405180910390f35b3480156102df57600080fd5b506102e8610ece565b6040516102f591906117e6565b60405180910390f35b34801561030a57600080fd5b506103256004803603810190610320919061129f565b610f5c565b005b81600460008273ffffffffffffffffffffffffffffffffffffffff1673ffffffffffffffffffffffffffffffffffffffff16815260200190815260200160002060009054906101000a900460ff166103b4576040517f08c379a00000000000000000000000000000000000000000000000000000000081526004016103ab9061188b565b60405180910390fd5b811561042b578273ffffffffffffffffffffffffffffffffffffffff16632d2da80634866040518363ffffffff1660e01b81526004016103f49190611284565b6000604051808303818588803b15801561040d57600080fd5b505af1158015610421573d6000803e3d6000fd5b505050505061049b565b8273ffffffffffffffffffffffffffffffffffffffff1663f45346dc8587336040518463ffffffff1660e01b8152600401610468939291906118ab565b600060405180830381600087803b15801561048257600080fd5b505af1158015610496573d6000803e3d6000fd5b505050505b60008373ffffffffffffffffffffffffffffffffffffffff16638aebe8d6866040518263ffffffff1660e01b81526004016104d69190611284565b60206040518083038186803b1580156104ee57600080fd5b505afa158015610502573d6000803e3d6000fd5b505050506040513d601f19601f8201168201806040525081019061052691906118f7565b9050600260009054906101000a900473ffffffffffffffffffffffffffffffffffffffff1673ffffffffffffffffffffffffffffffffffffffff1663ecd8d05433888442898b6040518763ffffffff1660e01b815260040161058d96959493929190611924565b602060405180830381600087803b1580156105a757600080fd5b505af11580156105bb573d6000803e3d6000fd5b505050506040513d601f19601f820116820180604052508101906105df91906118f7565b507f81ba5b8ff9dd8503225df558117e2e7640a87c53418ab08237ad375c563a0dc33385604051610611929190611985565b60405180910390a1505050505050565b6000600360009054906101000a900473ffffffffffffffffffffffffffffffffffffffff16905090565b60008173ffffffffffffffffffffffffffffffffffffffff1663d15e0053846040518263ffffffff1660e01b81526004016106869190611284565b60206040518083038186803b15801561069e57600080fd5b505afa1580156106b2573d6000803e3d6000fd5b505050506040513d601f19601f820116820180604052508101906106d691906118f7565b905092915050565b6000600460008373ffffffffffffffffffffffffffffffffffffffff1673ffffffffffffffffffffffffffffffffffffffff16815260200190815260200160002060009054906101000a900460ff169050919050565b6000600260009054906101000a900473ffffffffffffffffffffffffffffffffffffffff16905090565b600781908060018154018082558091505060019003906000526020600020016000909190919091505550565b6000600160009054906101000a900473ffffffffffffffffffffffffffffffffffffffff16905090565b80600460008273ffffffffffffffffffffffffffffffffffffffff1673ffffffffffffffffffffffffffffffffffffffff16815260200190815260200160002060009054906101000a900460ff16610841576040517f08c379a00000000000000000000000000000000000000000000000000000000081526004016108389061188b565b60405180910390fd5b8173ffffffffffffffffffffffffffffffffffffffff166369328dec8486336040518463ffffffff1660e01b815260040161087e939291906118ab565b600060405180830381600087803b15801561089857600080fd5b505af11580156108ac573d6000803e3d6000fd5b5050505060008273ffffffffffffffffffffffffffffffffffffffff16638aebe8d6856040518263ffffffff1660e01b81526004016108eb9190611284565b60206040518083038186803b15801561090357600080fd5b505afa158015610917573d6000803e3d6000fd5b505050506040513d601f19601f8201168201806040525081019061093b91906118f7565b90506000806000806000600260009054906101000a900473ffffffffffffffffffffffffffffffffffffffff1673ffffffffffffffffffffffffffffffffffffffff1663236e9c99338c898c8e6040518663ffffffff1660e01b81526004016109a89594939291906119ae565b60a060405180830381600087803b1580156109c257600080fd5b505af11580156109d6573d6000803e3d6000fd5b505050506040513d601f19601f820116820180604052508101906109fa9190611a01565b945094509450945094507f0de9ddf7a656f3d79b104942cf367f9828e4eb351231a52836dac9741a3b410b33898787878787604051610a3f9796959493929190611a7c565b60405180910390a150505050505050505050565b600073ffffffffffffffffffffffffffffffffffffffff16600584604051610a7b9190611b65565b908152602001604051809103902060009054906101000a900473ffffffffffffffffffffffffffffffffffffffff1673ffffffffffffffffffffffffffffffffffffffff1614610b00576040517f08c379a0000000000000000000000000000000000000000000000000000000008152600401610af790611bc8565b60405180910390fd5b6000610b2d600160009054906101000a900473ffffffffffffffffffffffffffffffffffffffff16611059565b90508073ffffffffffffffffffffffffffffffffffffffff166350d02d71868686866040518563ffffffff1660e01b8152600401610b6e9493929190611c21565b600060405180830381600087803b158015610b8857600080fd5b505af1158015610b9c573d6000803e3d6000fd5b50505050600360009054906101000a900473ffffffffffffffffffffffffffffffffffffffff1673ffffffffffffffffffffffffffffffffffffffff166323579ba18342846040518463ffffffff1660e01b8152600401610bff939291906118ab565b602060405180830381600087803b158015610c1957600080fd5b505af1158015610c2d573d6000803e3d6000fd5b505050506040513d601f19601f82011682018060405250810190610c5191906118f7565b5080600585604051610c639190611b65565b908152602001604051809103902060006101000a81548173ffffffffffffffffffffffffffffffffffffffff021916908373ffffffffffffffffffffffffffffffffffffffff1602179055506006819080600181540180825580915050600190039060005260206000200160009091909190916101000a81548173ffffffffffffffffffffffffffffffffffffffff021916908373ffffffffffffffffffffffffffffffffffffffff1602179055506001600460008373ffffffffffffffffffffffffffffffffffffffff1673ffffffffffffffffffffffffffffffffffffffff16815260200190815260200160002060006101000a81548160ff0219169083151502179055505050505050565b6000806000905060008373ffffffffffffffffffffffffffffffffffffffff16803b806020016040519081016040528181526000908060200190933c604051602001610dbd9190611cc2565b60405160208183030381529060405280519060200120905060006007805480602002602001604051908101604052809291908181526020018280548015610e2357602002820191906000526020600020905b815481526020019060010190808311610e0f575b5050505050905060005b81518160ff161015610e7a57818160ff1681518110610e4f57610e4e611cd9565b5b6020026020010151831415610e675760019350610e7a565b8080610e7290611d44565b915050610e2d565b50829350505050919050565b6000600582604051610e989190611b65565b908152602001604051809103902060009054906101000a900473ffffffffffffffffffffffffffffffffffffffff169050919050565b60606006805480602002602001604051908101604052809291908181526020018280548015610f5257602002820191906000526020600020905b8160009054906101000a900473ffffffffffffffffffffffffffffffffffffffff1673ffffffffffffffffffffffffffffffffffffffff1681526020019060010190808311610f08575b5050505050905090565b80600460008273ffffffffffffffffffffffffffffffffffffffff1673ffffffffffffffffffffffffffffffffffffffff16815260200190815260200160002060009054906101000a900460ff16610fe9576040517f08c379a0000000000000000000000000000000000000000000000000000000008152600401610fe09061188b565b60405180910390fd5b8173ffffffffffffffffffffffffffffffffffffffff1663a56f5b53846040518263ffffffff1660e01b81526004016110229190611284565b600060405180830381600087803b15801561103c57600080fd5b505af1158015611050573d6000803e3d6000fd5b50505050505050565b60006040517f3d602d80600a3d3981f3363d3d373d3d3d363d7300000000000000000000000081528260601b60148201527f5af43d82803e903d91602b57fd5bf3000000000000000000000000000000000060288201526037816000f0915050600073ffffffffffffffffffffffffffffffffffffffff168173ffffffffffffffffffffffffffffffffffffffff161415611129576040517f08c379a000000000000000000000000000000000000000000000000000000000815260040161112090611dba565b60405180910390fd5b919050565b6000604051905090565b600080fd5b600080fd5b6000819050919050565b61115581611142565b811461116057600080fd5b50565b6000813590506111728161114c565b92915050565b600073ffffffffffffffffffffffffffffffffffffffff82169050919050565b60006111a382611178565b9050919050565b6111b381611198565b81146111be57600080fd5b50565b6000813590506111d0816111aa565b92915050565b60008115159050919050565b6111eb816111d6565b81146111f657600080fd5b50565b600081359050611208816111e2565b92915050565b6000806000806080858703121561122857611227611138565b5b600061123687828801611163565b9450506020611247878288016111c1565b9350506040611258878288016111c1565b9250506060611269878288016111f9565b91505092959194509250565b61127e81611198565b82525050565b60006020820190506112996000830184611275565b92915050565b600080604083850312156112b6576112b5611138565b5b60006112c4858286016111c1565b92505060206112d5858286016111c1565b9150509250929050565b6112e881611142565b82525050565b600060208201905061130360008301846112df565b92915050565b60006020828403121561131f5761131e611138565b5b600061132d848285016111c1565b91505092915050565b61133f816111d6565b82525050565b600060208201905061135a6000830184611336565b92915050565b6000819050919050565b61137381611360565b811461137e57600080fd5b50565b6000813590506113908161136a565b92915050565b6000602082840312156113ac576113ab611138565b5b60006113ba84828501611381565b91505092915050565b6000806000606084860312156113dc576113db611138565b5b60006113ea86828701611163565b93505060206113fb868287016111c1565b925050604061140c868287016111c1565b9150509250925092565b600080fd5b6000601f19601f8301169050919050565b7f4e487b7100000000000000000000000000000000000000000000000000000000600052604160045260246000fd5b6114648261141b565b810181811067ffffffffffffffff821117156114835761148261142c565b5b80604052505050565b600061149661112e565b90506114a2828261145b565b919050565b600067ffffffffffffffff8211156114c2576114c161142c565b5b602082029050602081019050919050565b600080fd5b60006114eb6114e6846114a7565b61148c565b9050808382526020820190506020840283018581111561150e5761150d6114d3565b5b835b81811015611537578061152388826111c1565b845260208401935050602081019050611510565b5050509392505050565b600082601f83011261155657611555611416565b5b81356115668482602086016114d8565b91505092915050565b600080fd5b600067ffffffffffffffff82111561158f5761158e61142c565b5b6115988261141b565b9050602081019050919050565b82818337600083830152505050565b60006115c76115c284611574565b61148c565b9050828152602081018484840111156115e3576115e261156f565b5b6115ee8482856115a5565b509392505050565b600082601f83011261160b5761160a611416565b5b813561161b8482602086016115b4565b91505092915050565b6000806000806080858703121561163e5761163d611138565b5b600085013567ffffffffffffffff81111561165c5761165b61113d565b5b61166887828801611541565b945050602085013567ffffffffffffffff8111156116895761168861113d565b5b611695878288016115f6565b935050604085013567ffffffffffffffff8111156116b6576116b561113d565b5b6116c2878288016115f6565b92505060606116d3878288016111c1565b91505092959194509250565b6000602082840312156116f5576116f4611138565b5b600082013567ffffffffffffffff8111156117135761171261113d565b5b61171f848285016115f6565b91505092915050565b600081519050919050565b600082825260208201905092915050565b6000819050602082019050919050565b61175d81611198565b82525050565b600061176f8383611754565b60208301905092915050565b6000602082019050919050565b600061179382611728565b61179d8185611733565b93506117a883611744565b8060005b838110156117d95781516117c08882611763565b97506117cb8361177b565b9250506001810190506117ac565b5085935050505092915050565b600060208201905081810360008301526118008184611788565b905092915050565b600082825260208201905092915050565b7f746869732066756e6374696f6e206d7573742062652063616c6c65642066726f60008201527f6d206120706f6f6c000000000000000000000000000000000000000000000000602082015250565b6000611875602883611808565b915061188082611819565b604082019050919050565b600060208201905081810360008301526118a481611868565b9050919050565b60006060820190506118c06000830186611275565b6118cd60208301856112df565b6118da6040830184611275565b949350505050565b6000815190506118f18161114c565b92915050565b60006020828403121561190d5761190c611138565b5b600061191b848285016118e2565b91505092915050565b600060c0820190506119396000830189611275565b61194660208301886112df565b61195360408301876112df565b61196060608301866112df565b61196d6080830185611275565b61197a60a0830184611275565b979650505050505050565b600060408201905061199a6000830185611275565b6119a76020830184611275565b9392505050565b600060a0820190506119c36000830188611275565b6119d060208301876112df565b6119dd60408301866112df565b6119ea6060830185611275565b6119f76080830184611275565b9695505050505050565b600080600080600060a08688031215611a1d57611a1c611138565b5b6000611a2b888289016118e2565b9550506020611a3c888289016118e2565b9450506040611a4d888289016118e2565b9350506060611a5e888289016118e2565b9250506080611a6f888289016118e2565b9150509295509295909350565b600060e082019050611a91600083018a611275565b611a9e6020830189611275565b611aab60408301886112df565b611ab860608301876112df565b611ac560808301866112df565b611ad260a08301856112df565b611adf60c08301846112df565b98975050505050505050565b600081519050919050565b600081905092915050565b60005b83811015611b1f578082015181840152602081019050611b04565b83811115611b2e576000848401525b50505050565b6000611b3f82611aeb565b611b498185611af6565b9350611b59818560208601611b01565b80840191505092915050565b6000611b718284611b34565b915081905092915050565b7f706f6f6c2077697468206e616d6520616c726561647920657869737473000000600082015250565b6000611bb2601d83611808565b9150611bbd82611b7c565b602082019050919050565b60006020820190508181036000830152611be181611ba5565b9050919050565b6000611bf382611aeb565b611bfd8185611808565b9350611c0d818560208601611b01565b611c168161141b565b840191505092915050565b60006080820190508181036000830152611c3b8187611788565b90508181036020830152611c4f8186611be8565b90508181036040830152611c638185611be8565b9050611c726060830184611275565b95945050505050565b600081519050919050565b600081905092915050565b6000611c9c82611c7b565b611ca68185611c86565b9350611cb6818560208601611b01565b80840191505092915050565b6000611cce8284611c91565b915081905092915050565b7f4e487b7100000000000000000000000000000000000000000000000000000000600052603260045260246000fd5b7f4e487b7100000000000000000000000000000000000000000000000000000000600052601160045260246000fd5b600060ff82169050919050565b6000611d4f82611d37565b915060ff821415611d6357611d62611d08565b5b600182019050919050565b7f455243313136373a20637265617465206661696c656400000000000000000000600082015250565b6000611da4601683611808565b9150611daf82611d6e565b602082019050919050565b60006020820190508181036000830152611dd381611d97565b905091905056fea2646970667358221220c4f535362bae1261a96dee2624564dd22fde7d20d17d436458d62b196d3721c764736f6c6343000809003360806040523480156200001157600080fd5b506040518060400160405280601381526020017f4a4350204465706f7369746f7220546f6b656e000000000000000000000000008152506040518060400160405280600c81526020017f4a4350545f544553545f44310000000000000000000000000000000000000000815250816000908051906020019062000096929190620001a6565b508060019080519060200190620000af929190620001a6565b505050620000d2620000c6620000d860201b60201c565b620000e060201b60201c565b620002bb565b600033905090565b6000600a60009054906101000a900473ffffffffffffffffffffffffffffffffffffffff16905081600a60006101000a81548173ffffffffffffffffffffffffffffffffffffffff021916908373ffffffffffffffffffffffffffffffffffffffff1602179055508173ffffffffffffffffffffffffffffffffffffffff168173ffffffffffffffffffffffffffffffffffffffff167f8be0079c531659141344cd1fd0a4f28419497f9722a3daafe3b4186f6b6457e060405160405180910390a35050565b828054620001b49062000285565b90600052602060002090601f016020900481019282620001d8576000855562000224565b82601f10620001f357805160ff191683800117855562000224565b8280016001018555821562000224579182015b828111156200022357825182559160200191906001019062000206565b5b50905062000233919062000237565b5090565b5b808211156200025257600081600090555060010162000238565b5090565b7f4e487b7100000000000000000000000000000000000000000000000000000000600052602260045260246000fd5b600060028204905060018216806200029e57607f821691505b60208210811415620002b557620002b462000256565b5b50919050565b61403c80620002cb6000396000f3fe608060405234801561001057600080fd5b506004361061014d5760003560e01c80636352211e116100c3578063b88d4fde1161007c578063b88d4fde146103c8578063c87b56dd146103e4578063e985e9c514610414578063ecd8d05414610444578063f2fde38b14610474578063f7f814b0146104905761014d565b80636352211e1461030657806370a0823114610336578063715018a6146103665780638da5cb5b1461037057806395d89b411461038e578063a22cb465146103ac5761014d565b8063236e9c9911610115578063236e9c991461020a57806323b872dd1461023e5780632f745c591461025a57806342842e0e1461028a5780634f6ccce7146102a65780635328c2bf146102d65761014d565b806301ffc9a71461015257806306fdde0314610182578063081812fc146101a0578063095ea7b3146101d057806318160ddd146101ec575b600080fd5b61016c6004803603810190610167919061287d565b6104c0565b60405161017991906128c5565b60405180910390f35b61018a61053a565b6040516101979190612979565b60405180910390f35b6101ba60048036038101906101b591906129d1565b6105cc565b6040516101c79190612a3f565b60405180910390f35b6101ea60048036038101906101e59190612a86565b610651565b005b6101f4610769565b6040516102019190612ad5565b60405180910390f35b610224600480360381019061021f9190612af0565b610776565b604051610235959493929190612b6b565b60405180910390f35b61025860048036038101906102539190612bbe565b610997565b005b610274600480360381019061026f9190612a86565b6109f7565b6040516102819190612ad5565b60405180910390f35b6102a4600480360381019061029f9190612bbe565b610a9c565b005b6102c060048036038101906102bb91906129d1565b610abc565b6040516102cd9190612ad5565b60405180910390f35b6102f060048036038101906102eb91906129d1565b610b2d565b6040516102fd9190612cbd565b60405180910390f35b610320600480360381019061031b91906129d1565b610c38565b60405161032d9190612a3f565b60405180910390f35b610350600480360381019061034b9190612cd8565b610cea565b60405161035d9190612ad5565b60405180910390f35b61036e610da2565b005b610378610e2a565b6040516103859190612a3f565b60405180910390f35b610396610e54565b6040516103a39190612979565b60405180910390f35b6103c660048036038101906103c19190612d31565b610ee6565b005b6103e260048036038101906103dd9190612ea6565b610efc565b005b6103fe60048036038101906103f991906129d1565b610f5e565b60405161040b9190612979565b60405180910390f35b61042e60048036038101906104299190612f29565b611005565b60405161043b91906128c5565b60405180910390f35b61045e60048036038101906104599190612f69565b611099565b60405161046b9190612ad5565b60405180910390f35b61048e60048036038101906104899190612cd8565b611343565b005b6104aa60048036038101906104a59190612ff6565b61143b565b6040516104b79190612ad5565b60405180910390f35b60007f780e9d63000000000000000000000000000000000000000000000000000000007bffffffffffffffffffffffffffffffffffffffffffffffffffffffff1916827bffffffffffffffffffffffffffffffffffffffffffffffffffffffff19161480610533575061053282611465565b5b9050919050565b60606000805461054990613065565b80601f016020809104026020016040519081016040528092919081815260200182805461057590613065565b80156105c25780601f10610597576101008083540402835291602001916105c2565b820191906000526020600020905b8154815290600101906020018083116105a557829003601f168201915b5050505050905090565b60006105d782611547565b610616576040517f08c379a000000000000000000000000000000000000000000000000000000000815260040161060d90613109565b60405180910390fd5b6004600083815260200190815260200160002060009054906101000a900473ffffffffffffffffffffffffffffffffffffffff169050919050565b600061065c82610c38565b90508073ffffffffffffffffffffffffffffffffffffffff168373ffffffffffffffffffffffffffffffffffffffff1614156106cd576040517f08c379a00000000000000000000000000000000000000000000000000000000081526004016106c49061319b565b60405180910390fd5b8073ffffffffffffffffffffffffffffffffffffffff166106ec6115b3565b73ffffffffffffffffffffffffffffffffffffffff16148061071b575061071a816107156115b3565b611005565b5b61075a576040517f08c379a00000000000000000000000000000000000000000000000000000000081526004016107519061322d565b60405180910390fd5b61076483836115bb565b505050565b6000600880549050905090565b60008060008060006107866115b3565b73ffffffffffffffffffffffffffffffffffffffff166107a4610e2a565b73ffffffffffffffffffffffffffffffffffffffff16146107fa576040517f08c379a00000000000000000000000000000000000000000000000000000000081526004016107f190613299565b60405180910390fd5b60008a888860405160200161081193929190613301565b6040516020818303038152906040528051906020012060001c905061083581611547565b610874576040517f08c379a000000000000000000000000000000000000000000000000000000000815260040161086b9061338a565b60405180910390fd5b6000600b60008381526020019081526020016000206000015490508a8110156108d2576040517f08c379a00000000000000000000000000000000000000000000000000000000081526004016108c9906133f6565b60405180910390fd5b8a816108de9190613445565b905080600b6000848152602001908152602001600020600001819055506000600b60008481526020019081526020016000206002015490506109208c8c611674565b600b600085815260200190815260200160002060020160008282546109459190613445565b925050819055508b81600b600086815260200190815260200160002060020154600b6000878152602001908152602001600020600401548e975097509750975097505050509550955095509550959050565b6109a86109a26115b3565b82611780565b6109e7576040517f08c379a00000000000000000000000000000000000000000000000000000000081526004016109de906134eb565b60405180910390fd5b6109f283838361185e565b505050565b6000610a0283610cea565b8210610a43576040517f08c379a0000000000000000000000000000000000000000000000000000000008152600401610a3a9061357d565b60405180910390fd5b600660008473ffffffffffffffffffffffffffffffffffffffff1673ffffffffffffffffffffffffffffffffffffffff168152602001908152602001600020600083815260200190815260200160002054905092915050565b610ab783838360405180602001604052806000815250610efc565b505050565b6000610ac6610769565b8210610b07576040517f08c379a0000000000000000000000000000000000000000000000000000000008152600401610afe9061360f565b60405180910390fd5b60088281548110610b1b57610b1a61362f565b5b90600052602060002001549050919050565b610b356127a8565b600b60008381526020019081526020016000206040518060e001604052908160008201548152602001600182015481526020016002820154815260200160038201548152602001600482015481526020016005820160009054906101000a900473ffffffffffffffffffffffffffffffffffffffff1673ffffffffffffffffffffffffffffffffffffffff1673ffffffffffffffffffffffffffffffffffffffff1681526020016006820160009054906101000a900473ffffffffffffffffffffffffffffffffffffffff1673ffffffffffffffffffffffffffffffffffffffff1673ffffffffffffffffffffffffffffffffffffffff16815250509050919050565b6000806002600084815260200190815260200160002060009054906101000a900473ffffffffffffffffffffffffffffffffffffffff169050600073ffffffffffffffffffffffffffffffffffffffff168173ffffffffffffffffffffffffffffffffffffffff161415610ce1576040517f08c379a0000000000000000000000000000000000000000000000000000000008152600401610cd8906136d0565b60405180910390fd5b80915050919050565b60008073ffffffffffffffffffffffffffffffffffffffff168273ffffffffffffffffffffffffffffffffffffffff161415610d5b576040517f08c379a0000000000000000000000000000000000000000000000000000000008152600401610d5290613762565b60405180910390fd5b600360008373ffffffffffffffffffffffffffffffffffffffff1673ffffffffffffffffffffffffffffffffffffffff168152602001908152602001600020549050919050565b610daa6115b3565b73ffffffffffffffffffffffffffffffffffffffff16610dc8610e2a565b73ffffffffffffffffffffffffffffffffffffffff1614610e1e576040517f08c379a0000000000000000000000000000000000000000000000000000000008152600401610e1590613299565b60405180910390fd5b610e286000611aba565b565b6000600a60009054906101000a900473ffffffffffffffffffffffffffffffffffffffff16905090565b606060018054610e6390613065565b80601f0160208091040260200160405190810160405280929190818152602001828054610e8f90613065565b8015610edc5780601f10610eb157610100808354040283529160200191610edc565b820191906000526020600020905b815481529060010190602001808311610ebf57829003601f168201915b5050505050905090565b610ef8610ef16115b3565b8383611b80565b5050565b610f0d610f076115b3565b83611780565b610f4c576040517f08c379a0000000000000000000000000000000000000000000000000000000008152600401610f43906134eb565b60405180910390fd5b610f5884848484611ced565b50505050565b6060610f6982611547565b610fa8576040517f08c379a0000000000000000000000000000000000000000000000000000000008152600401610f9f906137f4565b60405180910390fd5b6000610fb2611d49565b90506000815111610fd25760405180602001604052806000815250610ffd565b80610fdc84611d60565b604051602001610fed929190613850565b6040516020818303038152906040525b915050919050565b6000600560008473ffffffffffffffffffffffffffffffffffffffff1673ffffffffffffffffffffffffffffffffffffffff16815260200190815260200160002060008373ffffffffffffffffffffffffffffffffffffffff1673ffffffffffffffffffffffffffffffffffffffff16815260200190815260200160002060009054906101000a900460ff16905092915050565b60006110a36115b3565b73ffffffffffffffffffffffffffffffffffffffff166110c1610e2a565b73ffffffffffffffffffffffffffffffffffffffff1614611117576040517f08c379a000000000000000000000000000000000000000000000000000000000815260040161110e90613299565b60405180910390fd5b600087848460405160200161112e93929190613301565b6040516020818303038152906040528051906020012060001c905061115281611547565b156111ec5786600b6000838152602001908152602001600020600001600082825461117d9190613874565b9250508190555086600b600083815260200190815260200160002060010160008282546111aa9190613874565b925050819055506111bb8787611674565b600b600083815260200190815260200160002060020160008282546111e09190613874565b92505081905550611335565b6040518060e0016040528088815260200188815260200161120d8989611674565b81526020018681526020018781526020018573ffffffffffffffffffffffffffffffffffffffff1681526020018473ffffffffffffffffffffffffffffffffffffffff16815250600b6000838152602001908152602001600020600082015181600001556020820151816001015560408201518160020155606082015181600301556080820151816004015560a08201518160050160006101000a81548173ffffffffffffffffffffffffffffffffffffffff021916908373ffffffffffffffffffffffffffffffffffffffff16021790555060c08201518160060160006101000a81548173ffffffffffffffffffffffffffffffffffffffff021916908373ffffffffffffffffffffffffffffffffffffffff1602179055509050506113348882611ec1565b5b809150509695505050505050565b61134b6115b3565b73ffffffffffffffffffffffffffffffffffffffff16611369610e2a565b73ffffffffffffffffffffffffffffffffffffffff16146113bf576040517f08c379a00000000000000000000000000000000000000000000000000000000081526004016113b690613299565b60405180910390fd5b600073ffffffffffffffffffffffffffffffffffffffff168173ffffffffffffffffffffffffffffffffffffffff16141561142f576040517f08c379a00000000000000000000000000000000000000000000000000000000081526004016114269061393c565b60405180910390fd5b61143881611aba565b50565b600061145d600b6000858152602001908152602001600020600201548361208f565b905092915050565b60007f80ac58cd000000000000000000000000000000000000000000000000000000007bffffffffffffffffffffffffffffffffffffffffffffffffffffffff1916827bffffffffffffffffffffffffffffffffffffffffffffffffffffffff1916148061153057507f5b5e139f000000000000000000000000000000000000000000000000000000007bffffffffffffffffffffffffffffffffffffffffffffffffffffffff1916827bffffffffffffffffffffffffffffffffffffffffffffffffffffffff1916145b80611540575061153f82612175565b5b9050919050565b60008073ffffffffffffffffffffffffffffffffffffffff166002600084815260200190815260200160002060009054906101000a900473ffffffffffffffffffffffffffffffffffffffff1673ffffffffffffffffffffffffffffffffffffffff1614159050919050565b600033905090565b816004600083815260200190815260200160002060006101000a81548173ffffffffffffffffffffffffffffffffffffffff021916908373ffffffffffffffffffffffffffffffffffffffff160217905550808273ffffffffffffffffffffffffffffffffffffffff1661162e83610c38565b73ffffffffffffffffffffffffffffffffffffffff167f8c5be1e5ebec7d5bd14f71427d1e84f3dd0314c0f7b2291e5b200ac8c7c3b92560405160405180910390a45050565b6000808214156116b9576040517f08c379a00000000000000000000000000000000000000000000000000000000081526004016116b0906139a8565b60405180910390fd5b60006002836116c891906139f7565b905060006b033b2e3c9fd0803ce8000000905080827fffffffffffffffffffffffffffffffffffffffffffffffffffffffffffffffff6117089190613445565b61171291906139f7565b851115611754576040517f08c379a000000000000000000000000000000000000000000000000000000000815260040161174b90613a74565b60405180910390fd5b838282876117629190613a94565b61176c9190613874565b61177691906139f7565b9250505092915050565b600061178b82611547565b6117ca576040517f08c379a00000000000000000000000000000000000000000000000000000000081526004016117c190613b60565b60405180910390fd5b60006117d583610c38565b90508073ffffffffffffffffffffffffffffffffffffffff168473ffffffffffffffffffffffffffffffffffffffff16148061184457508373ffffffffffffffffffffffffffffffffffffffff1661182c846105cc565b73ffffffffffffffffffffffffffffffffffffffff16145b8061185557506118548185611005565b5b91505092915050565b8273ffffffffffffffffffffffffffffffffffffffff1661187e82610c38565b73ffffffffffffffffffffffffffffffffffffffff16146118d4576040517f08c379a00000000000000000000000000000000000000000000000000000000081526004016118cb90613bf2565b60405180910390fd5b600073ffffffffffffffffffffffffffffffffffffffff168273ffffffffffffffffffffffffffffffffffffffff161415611944576040517f08c379a000000000000000000000000000000000000000000000000000000000815260040161193b90613c84565b60405180910390fd5b61194f8383836121df565b61195a6000826115bb565b6001600360008573ffffffffffffffffffffffffffffffffffffffff1673ffffffffffffffffffffffffffffffffffffffff16815260200190815260200160002060008282546119aa9190613445565b925050819055506001600360008473ffffffffffffffffffffffffffffffffffffffff1673ffffffffffffffffffffffffffffffffffffffff1681526020019081526020016000206000828254611a019190613874565b92505081905550816002600083815260200190815260200160002060006101000a81548173ffffffffffffffffffffffffffffffffffffffff021916908373ffffffffffffffffffffffffffffffffffffffff160217905550808273ffffffffffffffffffffffffffffffffffffffff168473ffffffffffffffffffffffffffffffffffffffff167fddf252ad1be2c89b69c2b068fc378daa952ba7f163c4a11628f55a4df523b3ef60405160405180910390a4505050565b6000600a60009054906101000a900473ffffffffffffffffffffffffffffffffffffffff16905081600a60006101000a81548173ffffffffffffffffffffffffffffffffffffffff021916908373ffffffffffffffffffffffffffffffffffffffff1602179055508173ffffffffffffffffffffffffffffffffffffffff168173ffffffffffffffffffffffffffffffffffffffff167f8be0079c531659141344cd1fd0a4f28419497f9722a3daafe3b4186f6b6457e060405160405180910390a35050565b8173ffffffffffffffffffffffffffffffffffffffff168373ffffffffffffffffffffffffffffffffffffffff161415611bef576040517f08c379a0000000000000000000000000000000000000000000000000000000008152600401611be690613cf0565b60405180910390fd5b80600560008573ffffffffffffffffffffffffffffffffffffffff1673ffffffffffffffffffffffffffffffffffffffff16815260200190815260200160002060008473ffffffffffffffffffffffffffffffffffffffff1673ffffffffffffffffffffffffffffffffffffffff16815260200190815260200160002060006101000a81548160ff0219169083151502179055508173ffffffffffffffffffffffffffffffffffffffff168373ffffffffffffffffffffffffffffffffffffffff167f17307eab39ab6107e8899845ad3d59bd9653f200f220920489ca2b5937696c3183604051611ce091906128c5565b60405180910390a3505050565b611cf884848461185e565b611d04848484846122f3565b611d43576040517f08c379a0000000000000000000000000000000000000000000000000000000008152600401611d3a90613d82565b60405180910390fd5b50505050565b606060405180602001604052806000815250905090565b60606000821415611da8576040518060400160405280600181526020017f30000000000000000000000000000000000000000000000000000000000000008152509050611ebc565b600082905060005b60008214611dda578080611dc390613da2565b915050600a82611dd391906139f7565b9150611db0565b60008167ffffffffffffffff811115611df657611df5612d7b565b5b6040519080825280601f01601f191660200182016040528015611e285781602001600182028036833780820191505090505b5090505b60008514611eb557600182611e419190613445565b9150600a85611e509190613deb565b6030611e5c9190613874565b60f81b818381518110611e7257611e7161362f565b5b60200101907effffffffffffffffffffffffffffffffffffffffffffffffffffffffffffff1916908160001a905350600a85611eae91906139f7565b9450611e2c565b8093505050505b919050565b600073ffffffffffffffffffffffffffffffffffffffff168273ffffffffffffffffffffffffffffffffffffffff161415611f31576040517f08c379a0000000000000000000000000000000000000000000000000000000008152600401611f2890613e68565b60405180910390fd5b611f3a81611547565b15611f7a576040517f08c379a0000000000000000000000000000000000000000000000000000000008152600401611f7190613ed4565b60405180910390fd5b611f86600083836121df565b6001600360008473ffffffffffffffffffffffffffffffffffffffff1673ffffffffffffffffffffffffffffffffffffffff1681526020019081526020016000206000828254611fd69190613874565b92505081905550816002600083815260200190815260200160002060006101000a81548173ffffffffffffffffffffffffffffffffffffffff021916908373ffffffffffffffffffffffffffffffffffffffff160217905550808273ffffffffffffffffffffffffffffffffffffffff16600073ffffffffffffffffffffffffffffffffffffffff167fddf252ad1be2c89b69c2b068fc378daa952ba7f163c4a11628f55a4df523b3ef60405160405180910390a45050565b60008083148061209f5750600082145b156120ad576000905061216f565b60006b033b2e3c9fd0803ce8000000905060006002826120cd91906139f7565b905083817fffffffffffffffffffffffffffffffffffffffffffffffffffffffffffffffff6120fc9190613445565b61210691906139f7565b851115612148576040517f08c379a000000000000000000000000000000000000000000000000000000000815260040161213f90613a74565b60405180910390fd5b818185876121569190613a94565b6121609190613874565b61216a91906139f7565b925050505b92915050565b60007f01ffc9a7000000000000000000000000000000000000000000000000000000007bffffffffffffffffffffffffffffffffffffffffffffffffffffffff1916827bffffffffffffffffffffffffffffffffffffffffffffffffffffffff1916149050919050565b6121ea83838361248a565b600073ffffffffffffffffffffffffffffffffffffffff168373ffffffffffffffffffffffffffffffffffffffff16141561222d576122288161248f565b61226c565b8173ffffffffffffffffffffffffffffffffffffffff168373ffffffffffffffffffffffffffffffffffffffff161461226b5761226a83826124d8565b5b5b600073ffffffffffffffffffffffffffffffffffffffff168273ffffffffffffffffffffffffffffffffffffffff1614156122af576122aa81612645565b6122ee565b8273ffffffffffffffffffffffffffffffffffffffff168273ffffffffffffffffffffffffffffffffffffffff16146122ed576122ec8282612716565b5b5b505050565b60006123148473ffffffffffffffffffffffffffffffffffffffff16612795565b1561247d578373ffffffffffffffffffffffffffffffffffffffff1663150b7a0261233d6115b3565b8786866040518563ffffffff1660e01b815260040161235f9493929190613f49565b602060405180830381600087803b15801561237957600080fd5b505af19250505080156123aa57506040513d601f19601f820116820180604052508101906123a79190613faa565b60015b61242d573d80600081146123da576040519150601f19603f3d011682016040523d82523d6000602084013e6123df565b606091505b50600081511415612425576040517f08c379a000000000000000000000000000000000000000000000000000000000815260040161241c90613d82565b60405180910390fd5b805181602001fd5b63150b7a0260e01b7bffffffffffffffffffffffffffffffffffffffffffffffffffffffff1916817bffffffffffffffffffffffffffffffffffffffffffffffffffffffff191614915050612482565b600190505b949350505050565b505050565b6008805490506009600083815260200190815260200160002081905550600881908060018154018082558091505060019003906000526020600020016000909190919091505550565b600060016124e584610cea565b6124ef9190613445565b90506000600760008481526020019081526020016000205490508181146125d4576000600660008673ffffffffffffffffffffffffffffffffffffffff1673ffffffffffffffffffffffffffffffffffffffff168152602001908152602001600020600084815260200190815260200160002054905080600660008773ffffffffffffffffffffffffffffffffffffffff1673ffffffffffffffffffffffffffffffffffffffff168152602001908152602001600020600084815260200190815260200160002081905550816007600083815260200190815260200160002081905550505b6007600084815260200190815260200160002060009055600660008573ffffffffffffffffffffffffffffffffffffffff1673ffffffffffffffffffffffffffffffffffffffff16815260200190815260200160002060008381526020019081526020016000206000905550505050565b600060016008805490506126599190613445565b90506000600960008481526020019081526020016000205490506000600883815481106126895761268861362f565b5b9060005260206000200154905080600883815481106126ab576126aa61362f565b5b9060005260206000200181905550816009600083815260200190815260200160002081905550600960008581526020019081526020016000206000905560088054806126fa576126f9613fd7565b5b6001900381819060005260206000200160009055905550505050565b600061272183610cea565b905081600660008573ffffffffffffffffffffffffffffffffffffffff1673ffffffffffffffffffffffffffffffffffffffff168152602001908152602001600020600083815260200190815260200160002081905550806007600084815260200190815260200160002081905550505050565b600080823b905060008111915050919050565b6040518060e001604052806000815260200160008152602001600081526020016000815260200160008152602001600073ffffffffffffffffffffffffffffffffffffffff168152602001600073ffffffffffffffffffffffffffffffffffffffff1681525090565b6000604051905090565b600080fd5b600080fd5b60007fffffffff0000000000000000000000000000000000000000000000000000000082169050919050565b61285a81612825565b811461286557600080fd5b50565b60008135905061287781612851565b92915050565b6000602082840312156128935761289261281b565b5b60006128a184828501612868565b91505092915050565b60008115159050919050565b6128bf816128aa565b82525050565b60006020820190506128da60008301846128b6565b92915050565b600081519050919050565b600082825260208201905092915050565b60005b8381101561291a5780820151818401526020810190506128ff565b83811115612929576000848401525b50505050565b6000601f19601f8301169050919050565b600061294b826128e0565b61295581856128eb565b93506129658185602086016128fc565b61296e8161292f565b840191505092915050565b600060208201905081810360008301526129938184612940565b905092915050565b6000819050919050565b6129ae8161299b565b81146129b957600080fd5b50565b6000813590506129cb816129a5565b92915050565b6000602082840312156129e7576129e661281b565b5b60006129f5848285016129bc565b91505092915050565b600073ffffffffffffffffffffffffffffffffffffffff82169050919050565b6000612a29826129fe565b9050919050565b612a3981612a1e565b82525050565b6000602082019050612a546000830184612a30565b92915050565b612a6381612a1e565b8114612a6e57600080fd5b50565b600081359050612a8081612a5a565b92915050565b60008060408385031215612a9d57612a9c61281b565b5b6000612aab85828601612a71565b9250506020612abc858286016129bc565b9150509250929050565b612acf8161299b565b82525050565b6000602082019050612aea6000830184612ac6565b92915050565b600080600080600060a08688031215612b0c57612b0b61281b565b5b6000612b1a88828901612a71565b9550506020612b2b888289016129bc565b9450506040612b3c888289016129bc565b9350506060612b4d88828901612a71565b9250506080612b5e88828901612a71565b9150509295509295909350565b600060a082019050612b806000830188612ac6565b612b8d6020830187612ac6565b612b9a6040830186612ac6565b612ba76060830185612ac6565b612bb46080830184612ac6565b9695505050505050565b600080600060608486031215612bd757612bd661281b565b5b6000612be586828701612a71565b9350506020612bf686828701612a71565b9250506040612c07868287016129bc565b9150509250925092565b612c1a8161299b565b82525050565b612c2981612a1e565b82525050565b60e082016000820151612c456000850182612c11565b506020820151612c586020850182612c11565b506040820151612c6b6040850182612c11565b506060820151612c7e6060850182612c11565b506080820151612c916080850182612c11565b5060a0820151612ca460a0850182612c20565b5060c0820151612cb760c0850182612c20565b50505050565b600060e082019050612cd26000830184612c2f565b92915050565b600060208284031215612cee57612ced61281b565b5b6000612cfc84828501612a71565b91505092915050565b612d0e816128aa565b8114612d1957600080fd5b50565b600081359050612d2b81612d05565b92915050565b60008060408385031215612d4857612d4761281b565b5b6000612d5685828601612a71565b9250506020612d6785828601612d1c565b9150509250929050565b600080fd5b600080fd5b7f4e487b7100000000000000000000000000000000000000000000000000000000600052604160045260246000fd5b612db38261292f565b810181811067ffffffffffffffff82111715612dd257612dd1612d7b565b5b80604052505050565b6000612de5612811565b9050612df18282612daa565b919050565b600067ffffffffffffffff821115612e1157612e10612d7b565b5b612e1a8261292f565b9050602081019050919050565b82818337600083830152505050565b6000612e49612e4484612df6565b612ddb565b905082815260208101848484011115612e6557612e64612d76565b5b612e70848285612e27565b509392505050565b600082601f830112612e8d57612e8c612d71565b5b8135612e9d848260208601612e36565b91505092915050565b60008060008060808587031215612ec057612ebf61281b565b5b6000612ece87828801612a71565b9450506020612edf87828801612a71565b9350506040612ef0878288016129bc565b925050606085013567ffffffffffffffff811115612f1157612f10612820565b5b612f1d87828801612e78565b91505092959194509250565b60008060408385031215612f4057612f3f61281b565b5b6000612f4e85828601612a71565b9250506020612f5f85828601612a71565b9150509250929050565b60008060008060008060c08789031215612f8657612f8561281b565b5b6000612f9489828a01612a71565b9650506020612fa589828a016129bc565b9550506040612fb689828a016129bc565b9450506060612fc789828a016129bc565b9350506080612fd889828a01612a71565b92505060a0612fe989828a01612a71565b9150509295509295509295565b6000806040838503121561300d5761300c61281b565b5b600061301b858286016129bc565b925050602061302c858286016129bc565b9150509250929050565b7f4e487b7100000000000000000000000000000000000000000000000000000000600052602260045260246000fd5b6000600282049050600182168061307d57607f821691505b6020821081141561309157613090613036565b5b50919050565b7f4552433732313a20617070726f76656420717565727920666f72206e6f6e657860008201527f697374656e7420746f6b656e0000000000000000000000000000000000000000602082015250565b60006130f3602c836128eb565b91506130fe82613097565b604082019050919050565b60006020820190508181036000830152613122816130e6565b9050919050565b7f4552433732313a20617070726f76616c20746f2063757272656e74206f776e6560008201527f7200000000000000000000000000000000000000000000000000000000000000602082015250565b60006131856021836128eb565b915061319082613129565b604082019050919050565b600060208201905081810360008301526131b481613178565b9050919050565b7f4552433732313a20617070726f76652063616c6c6572206973206e6f74206f7760008201527f6e6572206e6f7220617070726f76656420666f7220616c6c0000000000000000602082015250565b60006132176038836128eb565b9150613222826131bb565b604082019050919050565b600060208201905081810360008301526132468161320a565b9050919050565b7f4f776e61626c653a2063616c6c6572206973206e6f7420746865206f776e6572600082015250565b60006132836020836128eb565b915061328e8261324d565b602082019050919050565b600060208201905081810360008301526132b281613276565b9050919050565b60008160601b9050919050565b60006132d1826132b9565b9050919050565b60006132e3826132c6565b9050919050565b6132fb6132f682612a1e565b6132d8565b82525050565b600061330d82866132ea565b60148201915061331d82856132ea565b60148201915061332d82846132ea565b601482019150819050949350505050565b7f746f6b656e496420646f65736e27742065786973740000000000000000000000600082015250565b60006133746015836128eb565b915061337f8261333e565b602082019050919050565b600060208201905081810360008301526133a381613367565b9050919050565b7f696e73756666696369656e742062616c616e6365000000000000000000000000600082015250565b60006133e06014836128eb565b91506133eb826133aa565b602082019050919050565b6000602082019050818103600083015261340f816133d3565b9050919050565b7f4e487b7100000000000000000000000000000000000000000000000000000000600052601160045260246000fd5b60006134508261299b565b915061345b8361299b565b92508282101561346e5761346d613416565b5b828203905092915050565b7f4552433732313a207472616e736665722063616c6c6572206973206e6f74206f60008201527f776e6572206e6f7220617070726f766564000000000000000000000000000000602082015250565b60006134d56031836128eb565b91506134e082613479565b604082019050919050565b60006020820190508181036000830152613504816134c8565b9050919050565b7f455243373231456e756d657261626c653a206f776e657220696e646578206f7560008201527f74206f6620626f756e6473000000000000000000000000000000000000000000602082015250565b6000613567602b836128eb565b91506135728261350b565b604082019050919050565b600060208201905081810360008301526135968161355a565b9050919050565b7f455243373231456e756d657261626c653a20676c6f62616c20696e646578206f60008201527f7574206f6620626f756e64730000000000000000000000000000000000000000602082015250565b60006135f9602c836128eb565b91506136048261359d565b604082019050919050565b60006020820190508181036000830152613628816135ec565b9050919050565b7f4e487b7100000000000000000000000000000000000000000000000000000000600052603260045260246000fd5b7f4552433732313a206f776e657220717565727920666f72206e6f6e657869737460008201527f656e7420746f6b656e0000000000000000000000000000000000000000000000602082015250565b60006136ba6029836128eb565b91506136c58261365e565b604082019050919050565b600060208201905081810360008301526136e9816136ad565b9050919050565b7f4552433732313a2062616c616e636520717565727920666f7220746865207a6560008201527f726f206164647265737300000000000000000000000000000000000000000000602082015250565b600061374c602a836128eb565b9150613757826136f0565b604082019050919050565b6000602082019050818103600083015261377b8161373f565b9050919050565b7f4552433732314d657461646174613a2055524920717565727920666f72206e6f60008201527f6e6578697374656e7420746f6b656e0000000000000000000000000000000000602082015250565b60006137de602f836128eb565b91506137e982613782565b604082019050919050565b6000602082019050818103600083015261380d816137d1565b9050919050565b600081905092915050565b600061382a826128e0565b6138348185613814565b93506138448185602086016128fc565b80840191505092915050565b600061385c828561381f565b9150613868828461381f565b91508190509392505050565b600061387f8261299b565b915061388a8361299b565b9250827fffffffffffffffffffffffffffffffffffffffffffffffffffffffffffffffff038211156138bf576138be613416565b5b828201905092915050565b7f4f776e61626c653a206e6577206f776e657220697320746865207a65726f206160008201527f6464726573730000000000000000000000000000000000000000000000000000602082015250565b60006139266026836128eb565b9150613931826138ca565b604082019050919050565b6000602082019050818103600083015261395581613919565b9050919050565b7f6469766973696f6e206279203000000000000000000000000000000000000000600082015250565b6000613992600d836128eb565b915061399d8261395c565b602082019050919050565b600060208201905081810360008301526139c181613985565b9050919050565b7f4e487b7100000000000000000000000000000000000000000000000000000000600052601260045260246000fd5b6000613a028261299b565b9150613a0d8361299b565b925082613a1d57613a1c6139c8565b5b828204905092915050565b7f6d756c7469706c69636174696f6e206f766572666c6f77000000000000000000600082015250565b6000613a5e6017836128eb565b9150613a6982613a28565b602082019050919050565b60006020820190508181036000830152613a8d81613a51565b9050919050565b6000613a9f8261299b565b9150613aaa8361299b565b9250817fffffffffffffffffffffffffffffffffffffffffffffffffffffffffffffffff0483118215151615613ae357613ae2613416565b5b828202905092915050565b7f4552433732313a206f70657261746f7220717565727920666f72206e6f6e657860008201527f697374656e7420746f6b656e0000000000000000000000000000000000000000602082015250565b6000613b4a602c836128eb565b9150613b5582613aee565b604082019050919050565b60006020820190508181036000830152613b7981613b3d565b9050919050565b7f4552433732313a207472616e73666572206f6620746f6b656e2074686174206960008201527f73206e6f74206f776e0000000000000000000000000000000000000000000000602082015250565b6000613bdc6029836128eb565b9150613be782613b80565b604082019050919050565b60006020820190508181036000830152613c0b81613bcf565b9050919050565b7f4552433732313a207472616e7366657220746f20746865207a65726f2061646460008201527f7265737300000000000000000000000000000000000000000000000000000000602082015250565b6000613c6e6024836128eb565b9150613c7982613c12565b604082019050919050565b60006020820190508181036000830152613c9d81613c61565b9050919050565b7f4552433732313a20617070726f766520746f2063616c6c657200000000000000600082015250565b6000613cda6019836128eb565b9150613ce582613ca4565b602082019050919050565b60006020820190508181036000830152613d0981613ccd565b9050919050565b7f4552433732313a207472616e7366657220746f206e6f6e20455243373231526560008201527f63656976657220696d706c656d656e7465720000000000000000000000000000602082015250565b6000613d6c6032836128eb565b9150613d7782613d10565b604082019050919050565b60006020820190508181036000830152613d9b81613d5f565b9050919050565b6000613dad8261299b565b91507fffffffffffffffffffffffffffffffffffffffffffffffffffffffffffffffff821415613de057613ddf613416565b5b600182019050919050565b6000613df68261299b565b9150613e018361299b565b925082613e1157613e106139c8565b5b828206905092915050565b7f4552433732313a206d696e7420746f20746865207a65726f2061646472657373600082015250565b6000613e526020836128eb565b9150613e5d82613e1c565b602082019050919050565b60006020820190508181036000830152613e8181613e45565b9050919050565b7f4552433732313a20746f6b656e20616c7265616479206d696e74656400000000600082015250565b6000613ebe601c836128eb565b9150613ec982613e88565b602082019050919050565b60006020820190508181036000830152613eed81613eb1565b9050919050565b600081519050919050565b600082825260208201905092915050565b6000613f1b82613ef4565b613f258185613eff565b9350613f358185602086016128fc565b613f3e8161292f565b840191505092915050565b6000608082019050613f5e6000830187612a30565b613f6b6020830186612a30565b613f786040830185612ac6565b8181036060830152613f8a8184613f10565b905095945050505050565b600081519050613fa481612851565b92915050565b600060208284031215613fc057613fbf61281b565b5b6000613fce84828501613f95565b91505092915050565b7f4e487b7100000000000000000000000000000000000000000000000000000000600052603160045260246000fdfea26469706673582212203f9df27aea069c0935f294e920878cff94d96ba65f867d8b79f48307a557b41464736f6c6343000809003360806040523480156200001157600080fd5b506040518060400160405280600f81526020017f4a4350204f776e657220546f6b656e00000000000000000000000000000000008152506040518060400160405280600c81526020017f4a4350545f544553545f4f310000000000000000000000000000000000000000815250816000908051906020019062000096929190620001a6565b508060019080519060200190620000af929190620001a6565b505050620000d2620000c6620000d860201b60201c565b620000e060201b60201c565b620002bb565b600033905090565b6000600a60009054906101000a900473ffffffffffffffffffffffffffffffffffffffff16905081600a60006101000a81548173ffffffffffffffffffffffffffffffffffffffff021916908373ffffffffffffffffffffffffffffffffffffffff1602179055508173ffffffffffffffffffffffffffffffffffffffff168173ffffffffffffffffffffffffffffffffffffffff167f8be0079c531659141344cd1fd0a4f28419497f9722a3daafe3b4186f6b6457e060405160405180910390a35050565b828054620001b49062000285565b90600052602060002090601f016020900481019282620001d8576000855562000224565b82601f10620001f357805160ff191683800117855562000224565b8280016001018555821562000224579182015b828111156200022357825182559160200191906001019062000206565b5b50905062000233919062000237565b5090565b5b808211156200025257600081600090555060010162000238565b5090565b7f4e487b7100000000000000000000000000000000000000000000000000000000600052602260045260246000fd5b600060028204905060018216806200029e57607f821691505b60208210811415620002b557620002b462000256565b5b50919050565b61354f80620002cb6000396000f3fe608060405234801561001057600080fd5b50600436106101375760003560e01c80636352211e116100b8578063a22cb4651161007c578063a22cb46514610362578063b88d4fde1461037e578063c6fdbc901461039a578063c87b56dd146103ca578063e985e9c5146103fa578063f2fde38b1461042a57610137565b80636352211e146102bc57806370a08231146102ec578063715018a61461031c5780638da5cb5b1461032657806395d89b411461034457610137565b806323579ba1116100ff57806323579ba1146101f457806323b872dd146102245780632f745c591461024057806342842e0e146102705780634f6ccce71461028c57610137565b806301ffc9a71461013c57806306fdde031461016c578063081812fc1461018a578063095ea7b3146101ba57806318160ddd146101d6575b600080fd5b610156600480360381019061015191906121c6565b610446565b604051610163919061220e565b60405180910390f35b6101746104c0565b60405161018191906122c2565b60405180910390f35b6101a4600480360381019061019f919061231a565b610552565b6040516101b19190612388565b60405180910390f35b6101d460048036038101906101cf91906123cf565b6105d7565b005b6101de6106ef565b6040516101eb919061241e565b60405180910390f35b61020e60048036038101906102099190612439565b6106fc565b60405161021b919061241e565b60405180910390f35b61023e6004803603810190610239919061248c565b610839565b005b61025a600480360381019061025591906123cf565b610899565b604051610267919061241e565b60405180910390f35b61028a6004803603810190610285919061248c565b61093e565b005b6102a660048036038101906102a1919061231a565b61095e565b6040516102b3919061241e565b60405180910390f35b6102d660048036038101906102d1919061231a565b6109cf565b6040516102e39190612388565b60405180910390f35b610306600480360381019061030191906124df565b610a81565b604051610313919061241e565b60405180910390f35b610324610b39565b005b61032e610bc1565b60405161033b9190612388565b60405180910390f35b61034c610beb565b60405161035991906122c2565b60405180910390f35b61037c60048036038101906103779190612538565b610c7d565b005b610398600480360381019061039391906126ad565b610c93565b005b6103b460048036038101906103af919061231a565b610cf5565b6040516103c1919061277d565b60405180910390f35b6103e460048036038101906103df919061231a565b610d82565b6040516103f191906122c2565b60405180910390f35b610414600480360381019061040f9190612798565b610e29565b604051610421919061220e565b60405180910390f35b610444600480360381019061043f91906124df565b610ebd565b005b60007f780e9d63000000000000000000000000000000000000000000000000000000007bffffffffffffffffffffffffffffffffffffffffffffffffffffffff1916827bffffffffffffffffffffffffffffffffffffffffffffffffffffffff191614806104b957506104b882610fb5565b5b9050919050565b6060600080546104cf90612807565b80601f01602080910402602001604051908101604052809291908181526020018280546104fb90612807565b80156105485780601f1061051d57610100808354040283529160200191610548565b820191906000526020600020905b81548152906001019060200180831161052b57829003601f168201915b5050505050905090565b600061055d82611097565b61059c576040517f08c379a0000000000000000000000000000000000000000000000000000000008152600401610593906128ab565b60405180910390fd5b6004600083815260200190815260200160002060009054906101000a900473ffffffffffffffffffffffffffffffffffffffff169050919050565b60006105e2826109cf565b90508073ffffffffffffffffffffffffffffffffffffffff168373ffffffffffffffffffffffffffffffffffffffff161415610653576040517f08c379a000000000000000000000000000000000000000000000000000000000815260040161064a9061293d565b60405180910390fd5b8073ffffffffffffffffffffffffffffffffffffffff16610672611103565b73ffffffffffffffffffffffffffffffffffffffff1614806106a157506106a08161069b611103565b610e29565b5b6106e0576040517f08c379a00000000000000000000000000000000000000000000000000000000081526004016106d7906129cf565b60405180910390fd5b6106ea838361110b565b505050565b6000600880549050905090565b6000610706611103565b73ffffffffffffffffffffffffffffffffffffffff16610724610bc1565b73ffffffffffffffffffffffffffffffffffffffff161461077a576040517f08c379a000000000000000000000000000000000000000000000000000000000815260040161077190612a3b565b60405180910390fd5b610784600b6111c4565b6000610790600b6111da565b905060405180604001604052808581526020018473ffffffffffffffffffffffffffffffffffffffff16815250600c60008381526020019081526020016000206000820151816000015560208201518160010160006101000a81548173ffffffffffffffffffffffffffffffffffffffff021916908373ffffffffffffffffffffffffffffffffffffffff16021790555090505061082e85826111e8565b809150509392505050565b61084a610844611103565b826113b6565b610889576040517f08c379a000000000000000000000000000000000000000000000000000000000815260040161088090612acd565b60405180910390fd5b610894838383611494565b505050565b60006108a483610a81565b82106108e5576040517f08c379a00000000000000000000000000000000000000000000000000000000081526004016108dc90612b5f565b60405180910390fd5b600660008473ffffffffffffffffffffffffffffffffffffffff1673ffffffffffffffffffffffffffffffffffffffff168152602001908152602001600020600083815260200190815260200160002054905092915050565b61095983838360405180602001604052806000815250610c93565b505050565b60006109686106ef565b82106109a9576040517f08c379a00000000000000000000000000000000000000000000000000000000081526004016109a090612bf1565b60405180910390fd5b600882815481106109bd576109bc612c11565b5b90600052602060002001549050919050565b6000806002600084815260200190815260200160002060009054906101000a900473ffffffffffffffffffffffffffffffffffffffff169050600073ffffffffffffffffffffffffffffffffffffffff168173ffffffffffffffffffffffffffffffffffffffff161415610a78576040517f08c379a0000000000000000000000000000000000000000000000000000000008152600401610a6f90612cb2565b60405180910390fd5b80915050919050565b60008073ffffffffffffffffffffffffffffffffffffffff168273ffffffffffffffffffffffffffffffffffffffff161415610af2576040517f08c379a0000000000000000000000000000000000000000000000000000000008152600401610ae990612d44565b60405180910390fd5b600360008373ffffffffffffffffffffffffffffffffffffffff1673ffffffffffffffffffffffffffffffffffffffff168152602001908152602001600020549050919050565b610b41611103565b73ffffffffffffffffffffffffffffffffffffffff16610b5f610bc1565b73ffffffffffffffffffffffffffffffffffffffff1614610bb5576040517f08c379a0000000000000000000000000000000000000000000000000000000008152600401610bac90612a3b565b60405180910390fd5b610bbf60006116f0565b565b6000600a60009054906101000a900473ffffffffffffffffffffffffffffffffffffffff16905090565b606060018054610bfa90612807565b80601f0160208091040260200160405190810160405280929190818152602001828054610c2690612807565b8015610c735780601f10610c4857610100808354040283529160200191610c73565b820191906000526020600020905b815481529060010190602001808311610c5657829003601f168201915b5050505050905090565b610c8f610c88611103565b83836117b6565b5050565b610ca4610c9e611103565b836113b6565b610ce3576040517f08c379a0000000000000000000000000000000000000000000000000000000008152600401610cda90612acd565b60405180910390fd5b610cef84848484611923565b50505050565b610cfd61212a565b600c6000838152602001908152602001600020604051806040016040529081600082015481526020016001820160009054906101000a900473ffffffffffffffffffffffffffffffffffffffff1673ffffffffffffffffffffffffffffffffffffffff1673ffffffffffffffffffffffffffffffffffffffff16815250509050919050565b6060610d8d82611097565b610dcc576040517f08c379a0000000000000000000000000000000000000000000000000000000008152600401610dc390612dd6565b60405180910390fd5b6000610dd661197f565b90506000815111610df65760405180602001604052806000815250610e21565b80610e0084611996565b604051602001610e11929190612e32565b6040516020818303038152906040525b915050919050565b6000600560008473ffffffffffffffffffffffffffffffffffffffff1673ffffffffffffffffffffffffffffffffffffffff16815260200190815260200160002060008373ffffffffffffffffffffffffffffffffffffffff1673ffffffffffffffffffffffffffffffffffffffff16815260200190815260200160002060009054906101000a900460ff16905092915050565b610ec5611103565b73ffffffffffffffffffffffffffffffffffffffff16610ee3610bc1565b73ffffffffffffffffffffffffffffffffffffffff1614610f39576040517f08c379a0000000000000000000000000000000000000000000000000000000008152600401610f3090612a3b565b60405180910390fd5b600073ffffffffffffffffffffffffffffffffffffffff168173ffffffffffffffffffffffffffffffffffffffff161415610fa9576040517f08c379a0000000000000000000000000000000000000000000000000000000008152600401610fa090612ec8565b60405180910390fd5b610fb2816116f0565b50565b60007f80ac58cd000000000000000000000000000000000000000000000000000000007bffffffffffffffffffffffffffffffffffffffffffffffffffffffff1916827bffffffffffffffffffffffffffffffffffffffffffffffffffffffff1916148061108057507f5b5e139f000000000000000000000000000000000000000000000000000000007bffffffffffffffffffffffffffffffffffffffffffffffffffffffff1916827bffffffffffffffffffffffffffffffffffffffffffffffffffffffff1916145b80611090575061108f82611af7565b5b9050919050565b60008073ffffffffffffffffffffffffffffffffffffffff166002600084815260200190815260200160002060009054906101000a900473ffffffffffffffffffffffffffffffffffffffff1673ffffffffffffffffffffffffffffffffffffffff1614159050919050565b600033905090565b816004600083815260200190815260200160002060006101000a81548173ffffffffffffffffffffffffffffffffffffffff021916908373ffffffffffffffffffffffffffffffffffffffff160217905550808273ffffffffffffffffffffffffffffffffffffffff1661117e836109cf565b73ffffffffffffffffffffffffffffffffffffffff167f8c5be1e5ebec7d5bd14f71427d1e84f3dd0314c0f7b2291e5b200ac8c7c3b92560405160405180910390a45050565b6001816000016000828254019250508190555050565b600081600001549050919050565b600073ffffffffffffffffffffffffffffffffffffffff168273ffffffffffffffffffffffffffffffffffffffff161415611258576040517f08c379a000000000000000000000000000000000000000000000000000000000815260040161124f90612f34565b60405180910390fd5b61126181611097565b156112a1576040517f08c379a000000000000000000000000000000000000000000000000000000000815260040161129890612fa0565b60405180910390fd5b6112ad60008383611b61565b6001600360008473ffffffffffffffffffffffffffffffffffffffff1673ffffffffffffffffffffffffffffffffffffffff16815260200190815260200160002060008282546112fd9190612fef565b92505081905550816002600083815260200190815260200160002060006101000a81548173ffffffffffffffffffffffffffffffffffffffff021916908373ffffffffffffffffffffffffffffffffffffffff160217905550808273ffffffffffffffffffffffffffffffffffffffff16600073ffffffffffffffffffffffffffffffffffffffff167fddf252ad1be2c89b69c2b068fc378daa952ba7f163c4a11628f55a4df523b3ef60405160405180910390a45050565b60006113c182611097565b611400576040517f08c379a00000000000000000000000000000000000000000000000000000000081526004016113f7906130b7565b60405180910390fd5b600061140b836109cf565b90508073ffffffffffffffffffffffffffffffffffffffff168473ffffffffffffffffffffffffffffffffffffffff16148061147a57508373ffffffffffffffffffffffffffffffffffffffff1661146284610552565b73ffffffffffffffffffffffffffffffffffffffff16145b8061148b575061148a8185610e29565b5b91505092915050565b8273ffffffffffffffffffffffffffffffffffffffff166114b4826109cf565b73ffffffffffffffffffffffffffffffffffffffff161461150a576040517f08c379a000000000000000000000000000000000000000000000000000000000815260040161150190613149565b60405180910390fd5b600073ffffffffffffffffffffffffffffffffffffffff168273ffffffffffffffffffffffffffffffffffffffff16141561157a576040517f08c379a0000000000000000000000000000000000000000000000000000000008152600401611571906131db565b60405180910390fd5b611585838383611b61565b61159060008261110b565b6001600360008573ffffffffffffffffffffffffffffffffffffffff1673ffffffffffffffffffffffffffffffffffffffff16815260200190815260200160002060008282546115e091906131fb565b925050819055506001600360008473ffffffffffffffffffffffffffffffffffffffff1673ffffffffffffffffffffffffffffffffffffffff16815260200190815260200160002060008282546116379190612fef565b92505081905550816002600083815260200190815260200160002060006101000a81548173ffffffffffffffffffffffffffffffffffffffff021916908373ffffffffffffffffffffffffffffffffffffffff160217905550808273ffffffffffffffffffffffffffffffffffffffff168473ffffffffffffffffffffffffffffffffffffffff167fddf252ad1be2c89b69c2b068fc378daa952ba7f163c4a11628f55a4df523b3ef60405160405180910390a4505050565b6000600a60009054906101000a900473ffffffffffffffffffffffffffffffffffffffff16905081600a60006101000a81548173ffffffffffffffffffffffffffffffffffffffff021916908373ffffffffffffffffffffffffffffffffffffffff1602179055508173ffffffffffffffffffffffffffffffffffffffff168173ffffffffffffffffffffffffffffffffffffffff167f8be0079c531659141344cd1fd0a4f28419497f9722a3daafe3b4186f6b6457e060405160405180910390a35050565b8173ffffffffffffffffffffffffffffffffffffffff168373ffffffffffffffffffffffffffffffffffffffff161415611825576040517f08c379a000000000000000000000000000000000000000000000000000000000815260040161181c9061327b565b60405180910390fd5b80600560008573ffffffffffffffffffffffffffffffffffffffff1673ffffffffffffffffffffffffffffffffffffffff16815260200190815260200160002060008473ffffffffffffffffffffffffffffffffffffffff1673ffffffffffffffffffffffffffffffffffffffff16815260200190815260200160002060006101000a81548160ff0219169083151502179055508173ffffffffffffffffffffffffffffffffffffffff168373ffffffffffffffffffffffffffffffffffffffff167f17307eab39ab6107e8899845ad3d59bd9653f200f220920489ca2b5937696c3183604051611916919061220e565b60405180910390a3505050565b61192e848484611494565b61193a84848484611c75565b611979576040517f08c379a00000000000000000000000000000000000000000000000000000000081526004016119709061330d565b60405180910390fd5b50505050565b606060405180602001604052806000815250905090565b606060008214156119de576040518060400160405280600181526020017f30000000000000000000000000000000000000000000000000000000000000008152509050611af2565b600082905060005b60008214611a105780806119f99061332d565b915050600a82611a0991906133a5565b91506119e6565b60008167ffffffffffffffff811115611a2c57611a2b612582565b5b6040519080825280601f01601f191660200182016040528015611a5e5781602001600182028036833780820191505090505b5090505b60008514611aeb57600182611a7791906131fb565b9150600a85611a8691906133d6565b6030611a929190612fef565b60f81b818381518110611aa857611aa7612c11565b5b60200101907effffffffffffffffffffffffffffffffffffffffffffffffffffffffffffff1916908160001a905350600a85611ae491906133a5565b9450611a62565b8093505050505b919050565b60007f01ffc9a7000000000000000000000000000000000000000000000000000000007bffffffffffffffffffffffffffffffffffffffffffffffffffffffff1916827bffffffffffffffffffffffffffffffffffffffffffffffffffffffff1916149050919050565b611b6c838383611e0c565b600073ffffffffffffffffffffffffffffffffffffffff168373ffffffffffffffffffffffffffffffffffffffff161415611baf57611baa81611e11565b611bee565b8173ffffffffffffffffffffffffffffffffffffffff168373ffffffffffffffffffffffffffffffffffffffff1614611bed57611bec8382611e5a565b5b5b600073ffffffffffffffffffffffffffffffffffffffff168273ffffffffffffffffffffffffffffffffffffffff161415611c3157611c2c81611fc7565b611c70565b8273ffffffffffffffffffffffffffffffffffffffff168273ffffffffffffffffffffffffffffffffffffffff1614611c6f57611c6e8282612098565b5b5b505050565b6000611c968473ffffffffffffffffffffffffffffffffffffffff16612117565b15611dff578373ffffffffffffffffffffffffffffffffffffffff1663150b7a02611cbf611103565b8786866040518563ffffffff1660e01b8152600401611ce1949392919061345c565b602060405180830381600087803b158015611cfb57600080fd5b505af1925050508015611d2c57506040513d601f19601f82011682018060405250810190611d2991906134bd565b60015b611daf573d8060008114611d5c576040519150601f19603f3d011682016040523d82523d6000602084013e611d61565b606091505b50600081511415611da7576040517f08c379a0000000000000000000000000000000000000000000000000000000008152600401611d9e9061330d565b60405180910390fd5b805181602001fd5b63150b7a0260e01b7bffffffffffffffffffffffffffffffffffffffffffffffffffffffff1916817bffffffffffffffffffffffffffffffffffffffffffffffffffffffff191614915050611e04565b600190505b949350505050565b505050565b6008805490506009600083815260200190815260200160002081905550600881908060018154018082558091505060019003906000526020600020016000909190919091505550565b60006001611e6784610a81565b611e7191906131fb565b9050600060076000848152602001908152602001600020549050818114611f56576000600660008673ffffffffffffffffffffffffffffffffffffffff1673ffffffffffffffffffffffffffffffffffffffff168152602001908152602001600020600084815260200190815260200160002054905080600660008773ffffffffffffffffffffffffffffffffffffffff1673ffffffffffffffffffffffffffffffffffffffff168152602001908152602001600020600084815260200190815260200160002081905550816007600083815260200190815260200160002081905550505b6007600084815260200190815260200160002060009055600660008573ffffffffffffffffffffffffffffffffffffffff1673ffffffffffffffffffffffffffffffffffffffff16815260200190815260200160002060008381526020019081526020016000206000905550505050565b60006001600880549050611fdb91906131fb565b905060006009600084815260200190815260200160002054905060006008838154811061200b5761200a612c11565b5b90600052602060002001549050806008838154811061202d5761202c612c11565b5b90600052602060002001819055508160096000838152602001908152602001600020819055506009600085815260200190815260200160002060009055600880548061207c5761207b6134ea565b5b6001900381819060005260206000200160009055905550505050565b60006120a383610a81565b905081600660008573ffffffffffffffffffffffffffffffffffffffff1673ffffffffffffffffffffffffffffffffffffffff168152602001908152602001600020600083815260200190815260200160002081905550806007600084815260200190815260200160002081905550505050565b600080823b905060008111915050919050565b604051806040016040528060008152602001600073ffffffffffffffffffffffffffffffffffffffff1681525090565b6000604051905090565b600080fd5b600080fd5b60007fffffffff0000000000000000000000000000000000000000000000000000000082169050919050565b6121a38161216e565b81146121ae57600080fd5b50565b6000813590506121c08161219a565b92915050565b6000602082840312156121dc576121db612164565b5b60006121ea848285016121b1565b91505092915050565b60008115159050919050565b612208816121f3565b82525050565b600060208201905061222360008301846121ff565b92915050565b600081519050919050565b600082825260208201905092915050565b60005b83811015612263578082015181840152602081019050612248565b83811115612272576000848401525b50505050565b6000601f19601f8301169050919050565b600061229482612229565b61229e8185612234565b93506122ae818560208601612245565b6122b781612278565b840191505092915050565b600060208201905081810360008301526122dc8184612289565b905092915050565b6000819050919050565b6122f7816122e4565b811461230257600080fd5b50565b600081359050612314816122ee565b92915050565b6000602082840312156123305761232f612164565b5b600061233e84828501612305565b91505092915050565b600073ffffffffffffffffffffffffffffffffffffffff82169050919050565b600061237282612347565b9050919050565b61238281612367565b82525050565b600060208201905061239d6000830184612379565b92915050565b6123ac81612367565b81146123b757600080fd5b50565b6000813590506123c9816123a3565b92915050565b600080604083850312156123e6576123e5612164565b5b60006123f4858286016123ba565b925050602061240585828601612305565b9150509250929050565b612418816122e4565b82525050565b6000602082019050612433600083018461240f565b92915050565b60008060006060848603121561245257612451612164565b5b6000612460868287016123ba565b935050602061247186828701612305565b9250506040612482868287016123ba565b9150509250925092565b6000806000606084860312156124a5576124a4612164565b5b60006124b3868287016123ba565b93505060206124c4868287016123ba565b92505060406124d586828701612305565b9150509250925092565b6000602082840312156124f5576124f4612164565b5b6000612503848285016123ba565b91505092915050565b612515816121f3565b811461252057600080fd5b50565b6000813590506125328161250c565b92915050565b6000806040838503121561254f5761254e612164565b5b600061255d858286016123ba565b925050602061256e85828601612523565b9150509250929050565b600080fd5b600080fd5b7f4e487b7100000000000000000000000000000000000000000000000000000000600052604160045260246000fd5b6125ba82612278565b810181811067ffffffffffffffff821117156125d9576125d8612582565b5b80604052505050565b60006125ec61215a565b90506125f882826125b1565b919050565b600067ffffffffffffffff82111561261857612617612582565b5b61262182612278565b9050602081019050919050565b82818337600083830152505050565b600061265061264b846125fd565b6125e2565b90508281526020810184848401111561266c5761266b61257d565b5b61267784828561262e565b509392505050565b600082601f83011261269457612693612578565b5b81356126a484826020860161263d565b91505092915050565b600080600080608085870312156126c7576126c6612164565b5b60006126d5878288016123ba565b94505060206126e6878288016123ba565b93505060406126f787828801612305565b925050606085013567ffffffffffffffff81111561271857612717612169565b5b6127248782880161267f565b91505092959194509250565b612739816122e4565b82525050565b61274881612367565b82525050565b6040820160008201516127646000850182612730565b506020820151612777602085018261273f565b50505050565b6000604082019050612792600083018461274e565b92915050565b600080604083850312156127af576127ae612164565b5b60006127bd858286016123ba565b92505060206127ce858286016123ba565b9150509250929050565b7f4e487b7100000000000000000000000000000000000000000000000000000000600052602260045260246000fd5b6000600282049050600182168061281f57607f821691505b60208210811415612833576128326127d8565b5b50919050565b7f4552433732313a20617070726f76656420717565727920666f72206e6f6e657860008201527f697374656e7420746f6b656e0000000000000000000000000000000000000000602082015250565b6000612895602c83612234565b91506128a082612839565b604082019050919050565b600060208201905081810360008301526128c481612888565b9050919050565b7f4552433732313a20617070726f76616c20746f2063757272656e74206f776e6560008201527f7200000000000000000000000000000000000000000000000000000000000000602082015250565b6000612927602183612234565b9150612932826128cb565b604082019050919050565b600060208201905081810360008301526129568161291a565b9050919050565b7f4552433732313a20617070726f76652063616c6c6572206973206e6f74206f7760008201527f6e6572206e6f7220617070726f76656420666f7220616c6c0000000000000000602082015250565b60006129b9603883612234565b91506129c48261295d565b604082019050919050565b600060208201905081810360008301526129e8816129ac565b9050919050565b7f4f776e61626c653a2063616c6c6572206973206e6f7420746865206f776e6572600082015250565b6000612a25602083612234565b9150612a30826129ef565b602082019050919050565b60006020820190508181036000830152612a5481612a18565b9050919050565b7f4552433732313a207472616e736665722063616c6c6572206973206e6f74206f60008201527f776e6572206e6f7220617070726f766564000000000000000000000000000000602082015250565b6000612ab7603183612234565b9150612ac282612a5b565b604082019050919050565b60006020820190508181036000830152612ae681612aaa565b9050919050565b7f455243373231456e756d657261626c653a206f776e657220696e646578206f7560008201527f74206f6620626f756e6473000000000000000000000000000000000000000000602082015250565b6000612b49602b83612234565b9150612b5482612aed565b604082019050919050565b60006020820190508181036000830152612b7881612b3c565b9050919050565b7f455243373231456e756d657261626c653a20676c6f62616c20696e646578206f60008201527f7574206f6620626f756e64730000000000000000000000000000000000000000602082015250565b6000612bdb602c83612234565b9150612be682612b7f565b604082019050919050565b60006020820190508181036000830152612c0a81612bce565b9050919050565b7f4e487b7100000000000000000000000000000000000000000000000000000000600052603260045260246000fd5b7f4552433732313a206f776e657220717565727920666f72206e6f6e657869737460008201527f656e7420746f6b656e0000000000000000000000000000000000000000000000602082015250565b6000612c9c602983612234565b9150612ca782612c40565b604082019050919050565b60006020820190508181036000830152612ccb81612c8f565b9050919050565b7f4552433732313a2062616c616e636520717565727920666f7220746865207a6560008201527f726f206164647265737300000000000000000000000000000000000000000000602082015250565b6000612d2e602a83612234565b9150612d3982612cd2565b604082019050919050565b60006020820190508181036000830152612d5d81612d21565b9050919050565b7f4552433732314d657461646174613a2055524920717565727920666f72206e6f60008201527f6e6578697374656e7420746f6b656e0000000000000000000000000000000000602082015250565b6000612dc0602f83612234565b9150612dcb82612d64565b604082019050919050565b60006020820190508181036000830152612def81612db3565b9050919050565b600081905092915050565b6000612e0c82612229565b612e168185612df6565b9350612e26818560208601612245565b80840191505092915050565b6000612e3e8285612e01565b9150612e4a8284612e01565b91508190509392505050565b7f4f776e61626c653a206e6577206f776e657220697320746865207a65726f206160008201527f6464726573730000000000000000000000000000000000000000000000000000602082015250565b6000612eb2602683612234565b9150612ebd82612e56565b604082019050919050565b60006020820190508181036000830152612ee181612ea5565b9050919050565b7f4552433732313a206d696e7420746f20746865207a65726f2061646472657373600082015250565b6000612f1e602083612234565b9150612f2982612ee8565b602082019050919050565b60006020820190508181036000830152612f4d81612f11565b9050919050565b7f4552433732313a20746f6b656e20616c7265616479206d696e74656400000000600082015250565b6000612f8a601c83612234565b9150612f9582612f54565b602082019050919050565b60006020820190508181036000830152612fb981612f7d565b9050919050565b7f4e487b7100000000000000000000000000000000000000000000000000000000600052601160045260246000fd5b6000612ffa826122e4565b9150613005836122e4565b9250827fffffffffffffffffffffffffffffffffffffffffffffffffffffffffffffffff0382111561303a57613039612fc0565b5b828201905092915050565b7f4552433732313a206f70657261746f7220717565727920666f72206e6f6e657860008201527f697374656e7420746f6b656e0000000000000000000000000000000000000000602082015250565b60006130a1602c83612234565b91506130ac82613045565b604082019050919050565b600060208201905081810360008301526130d081613094565b9050919050565b7f4552433732313a207472616e73666572206f6620746f6b656e2074686174206960008201527f73206e6f74206f776e0000000000000000000000000000000000000000000000602082015250565b6000613133602983612234565b915061313e826130d7565b604082019050919050565b6000602082019050818103600083015261316281613126565b9050919050565b7f4552433732313a207472616e7366657220746f20746865207a65726f2061646460008201527f7265737300000000000000000000000000000000000000000000000000000000602082015250565b60006131c5602483612234565b91506131d082613169565b604082019050919050565b600060208201905081810360008301526131f4816131b8565b9050919050565b6000613206826122e4565b9150613211836122e4565b92508282101561322457613223612fc0565b5b828203905092915050565b7f4552433732313a20617070726f766520746f2063616c6c657200000000000000600082015250565b6000613265601983612234565b91506132708261322f565b602082019050919050565b6000602082019050818103600083015261329481613258565b9050919050565b7f4552433732313a207472616e7366657220746f206e6f6e20455243373231526560008201527f63656976657220696d706c656d656e7465720000000000000000000000000000602082015250565b60006132f7603283612234565b91506133028261329b565b604082019050919050565b60006020820190508181036000830152613326816132ea565b9050919050565b6000613338826122e4565b91507fffffffffffffffffffffffffffffffffffffffffffffffffffffffffffffffff82141561336b5761336a612fc0565b5b600182019050919050565b7f4e487b7100000000000000000000000000000000000000000000000000000000600052601260045260246000fd5b60006133b0826122e4565b91506133bb836122e4565b9250826133cb576133ca613376565b5b828204905092915050565b60006133e1826122e4565b91506133ec836122e4565b9250826133fc576133fb613376565b5b828206905092915050565b600081519050919050565b600082825260208201905092915050565b600061342e82613407565b6134388185613412565b9350613448818560208601612245565b61345181612278565b840191505092915050565b60006080820190506134716000830187612379565b61347e6020830186612379565b61348b604083018561240f565b818103606083015261349d8184613423565b905095945050505050565b6000815190506134b78161219a565b92915050565b6000602082840312156134d3576134d2612164565b5b60006134e1848285016134a8565b91505092915050565b7f4e487b7100000000000000000000000000000000000000000000000000000000600052603160045260246000fdfea26469706673582212204fceb336f0ca11da15448ca07ea0fdf350768364f49739bcc628c577608957b664736f6c63430008090033608060405234801561001057600080fd5b506001600360006101000a81548160ff02191690831515021790555061302b8061003b6000396000f3fe6080604052600436106101145760003560e01c806350d02d71116100a05780637f80069a116100645780637f80069a146103ba5780638aebe8d6146103e5578063a56f5b5314610422578063d15e00531461044b578063f45346dc1461048857610114565b806350d02d71146102c357806357ac6566146102ec5780635ff189b91461031757806369328dec14610354578063711cc0051461037d57610114565b80631b88094d116100e75780631b88094d146101e95780632d2da806146102145780632f75700614610230578063343d693b1461025b5780633735ef881461028657610114565b80630251cfa1146101195780630712f6b3146101565780630835d21a1461019357806317d7de7c146101be575b600080fd5b34801561012557600080fd5b50610140600480360381019061013b919061200a565b6104b1565b60405161014d9190612050565b60405180910390f35b34801561016257600080fd5b5061017d6004803603810190610178919061200a565b6104fa565b60405161018a9190612050565b60405180910390f35b34801561019f57600080fd5b506101a861062f565b6040516101b59190612084565b60405180910390f35b3480156101ca57600080fd5b506101d361068f565b6040516101e09190612138565b60405180910390f35b3480156101f557600080fd5b506101fe610721565b60405161020b9190612169565b60405180910390f35b61022e6004803603810190610229919061200a565b61074b565b005b34801561023c57600080fd5b506102456108e3565b6040516102529190612242565b60405180910390f35b34801561026757600080fd5b50610270610971565b60405161027d9190612138565b60405180910390f35b34801561029257600080fd5b506102ad60048036038101906102a8919061200a565b610a03565b6040516102ba9190612050565b60405180910390f35b3480156102cf57600080fd5b506102ea60048036038101906102e59190612461565b610b88565b005b3480156102f857600080fd5b50610301610ffb565b60405161030e9190612571565b60405180910390f35b34801561032357600080fd5b5061033e6004803603810190610339919061200a565b611035565b60405161034b9190612050565b60405180910390f35b34801561036057600080fd5b5061037b600480360381019061037691906125bf565b61107e565b005b34801561038957600080fd5b506103a4600480360381019061039f919061200a565b6112a1565b6040516103b19190612169565b60405180910390f35b3480156103c657600080fd5b506103cf61134e565b6040516103dc919061262d565b60405180910390f35b3480156103f157600080fd5b5061040c6004803603810190610407919061200a565b611361565b6040516104199190612050565b60405180910390f35b34801561042e57600080fd5b506104496004803603810190610444919061200a565b61143e565b005b34801561045757600080fd5b50610472600480360381019061046d919061200a565b61190c565b60405161047f9190612050565b60405180910390f35b34801561049457600080fd5b506104af60048036038101906104aa91906125bf565b6119c0565b005b6000600160008373ffffffffffffffffffffffffffffffffffffffff1673ffffffffffffffffffffffffffffffffffffffff168152602001908152602001600020549050919050565b600080733c73a5e5785cac854d468f727c606c07488a29d673ffffffffffffffffffffffffffffffffffffffff1663d2493b6c846040518263ffffffff1660e01b815260040161054a9190612169565b60606040518083038186803b15801561056257600080fd5b505afa158015610576573d6000803e3d6000fd5b505050506040513d601f19601f8201168201806040525081019061059a919061265d565b505090508073ffffffffffffffffffffffffffffffffffffffff166370a08231306040518263ffffffff1660e01b81526004016105d79190612169565b60206040518083038186803b1580156105ef57600080fd5b505afa158015610603573d6000803e3d6000fd5b505050506040513d601f19601f8201168201806040525081019061062791906126c5565b915050919050565b60003073ffffffffffffffffffffffffffffffffffffffff16803b806020016040519081016040528181526000908060200190933c604051602001610674919061272e565b60405160208183030381529060405280519060200120905090565b60606008805461069e90612774565b80601f01602080910402602001604051908101604052809291908181526020018280546106ca90612774565b80156107175780601f106106ec57610100808354040283529160200191610717565b820191906000526020600020905b8154815290600101906020018083116106fa57829003601f168201915b5050505050905090565b6000600660009054906101000a900473ffffffffffffffffffffffffffffffffffffffff16905090565b338073ffffffffffffffffffffffffffffffffffffffff16600760009054906101000a900473ffffffffffffffffffffffffffffffffffffffff1673ffffffffffffffffffffffffffffffffffffffff16146107dc576040517f08c379a00000000000000000000000000000000000000000000000000000000081526004016107d3906127f2565b60405180910390fd5b6000600460009054906101000a900473ffffffffffffffffffffffffffffffffffffffff16905073a61ca04df33b72b235a8a28cfb535bb7a5271b7073ffffffffffffffffffffffffffffffffffffffff1663474cf53d34833060006040518563ffffffff1660e01b815260040161085693929190612865565b6000604051808303818588803b15801561086f57600080fd5b505af1158015610883573d6000803e3d6000fd5b505050505034600160008573ffffffffffffffffffffffffffffffffffffffff1673ffffffffffffffffffffffffffffffffffffffff16815260200190815260200160002060008282546108d791906128cb565b92505081905550505050565b6060600580548060200260200160405190810160405280929190818152602001828054801561096757602002820191906000526020600020905b8160009054906101000a900473ffffffffffffffffffffffffffffffffffffffff1673ffffffffffffffffffffffffffffffffffffffff168152602001906001019080831161091d575b5050505050905090565b60606009805461098090612774565b80601f01602080910402602001604051908101604052809291908181526020018280546109ac90612774565b80156109f95780601f106109ce576101008083540402835291602001916109f9565b820191906000526020600020905b8154815290600101906020018083116109dc57829003601f168201915b5050505050905090565b600080733c73a5e5785cac854d468f727c606c07488a29d673ffffffffffffffffffffffffffffffffffffffff1663d2493b6c846040518263ffffffff1660e01b8152600401610a539190612169565b60606040518083038186803b158015610a6b57600080fd5b505afa158015610a7f573d6000803e3d6000fd5b505050506040513d601f19601f82011682018060405250810190610aa3919061265d565b5050905060008173ffffffffffffffffffffffffffffffffffffffff166370a08231306040518263ffffffff1660e01b8152600401610ae29190612169565b60206040518083038186803b158015610afa57600080fd5b505afa158015610b0e573d6000803e3d6000fd5b505050506040513d601f19601f82011682018060405250810190610b3291906126c5565b9050600160008573ffffffffffffffffffffffffffffffffffffffff1673ffffffffffffffffffffffffffffffffffffffff1681526020019081526020016000205481610b7f9190612921565b92505050919050565b82601e60008290508160ff16815110610bd6576040517f08c379a0000000000000000000000000000000000000000000000000000000008152600401610bcd906129a1565b60405180910390fd5b8460c860008290508160ff16815110610c24576040517f08c379a0000000000000000000000000000000000000000000000000000000008152600401610c1b906129a1565b60405180910390fd5b600060019054906101000a900460ff16610c4c5760008054906101000a900460ff1615610c55565b610c54611e47565b5b610c94576040517f08c379a0000000000000000000000000000000000000000000000000000000008152600401610c8b90612a33565b60405180910390fd5b60008060019054906101000a900460ff161590508015610ce4576001600060016101000a81548160ff02191690831515021790555060016000806101000a81548160ff0219169083151502179055505b60001515600360009054906101000a900460ff16151514610d3a576040517f08c379a0000000000000000000000000000000000000000000000000000000008152600401610d3190612a9f565b60405180910390fd5b600073ffffffffffffffffffffffffffffffffffffffff16600660009054906101000a900473ffffffffffffffffffffffffffffffffffffffff1673ffffffffffffffffffffffffffffffffffffffff1614610dcb576040517f08c379a0000000000000000000000000000000000000000000000000000000008152600401610dc290612b0b565b60405180910390fd5b87600660006101000a81548173ffffffffffffffffffffffffffffffffffffffff021916908373ffffffffffffffffffffffffffffffffffffffff16021790555033600760006101000a81548173ffffffffffffffffffffffffffffffffffffffff021916908373ffffffffffffffffffffffffffffffffffffffff1602179055508960089080519060200190610e63929190611e6b565b508860099080519060200190610e7a929190611e6b565b507388757f2f99175387ab4c6a4b3067c77a695b0349600360016101000a81548173ffffffffffffffffffffffffffffffffffffffff021916908373ffffffffffffffffffffffffffffffffffffffff1602179055506000600360019054906101000a900473ffffffffffffffffffffffffffffffffffffffff1673ffffffffffffffffffffffffffffffffffffffff16630261bf8b6040518163ffffffff1660e01b815260040160206040518083038186803b158015610f3a57600080fd5b505afa158015610f4e573d6000803e3d6000fd5b505050506040513d601f19601f82011682018060405250810190610f729190612b2b565b905080600460006101000a81548173ffffffffffffffffffffffffffffffffffffffff021916908373ffffffffffffffffffffffffffffffffffffffff1602179055508b60059080519060200190610fcb929190611ef1565b50508015610fee5760008060016101000a81548160ff0219169083151502179055505b5050505050505050505050565b60603073ffffffffffffffffffffffffffffffffffffffff16803b806020016040519081016040528181526000908060200190933c905090565b6000600260008373ffffffffffffffffffffffffffffffffffffffff1673ffffffffffffffffffffffffffffffffffffffff168152602001908152602001600020549050919050565b338073ffffffffffffffffffffffffffffffffffffffff16600760009054906101000a900473ffffffffffffffffffffffffffffffffffffffff1673ffffffffffffffffffffffffffffffffffffffff161461110f576040517f08c379a0000000000000000000000000000000000000000000000000000000008152600401611106906127f2565b60405180910390fd5b81848460008111611155576040517f08c379a000000000000000000000000000000000000000000000000000000000815260040161114c90612ba4565b60405180910390fd5b600460009054906101000a900473ffffffffffffffffffffffffffffffffffffffff1673ffffffffffffffffffffffffffffffffffffffff166369328dec8888886040518463ffffffff1660e01b81526004016111b493929190612bc4565b602060405180830381600087803b1580156111ce57600080fd5b505af11580156111e2573d6000803e3d6000fd5b505050506040513d601f19601f8201168201806040525081019061120691906126c5565b5085600160008973ffffffffffffffffffffffffffffffffffffffff1673ffffffffffffffffffffffffffffffffffffffff16815260200190815260200160002060008282546112569190612921565b925050819055507f9b1bfa7fa9ee420a16e124f794c35ac9f90472acc99140eb2f6447c714cad8eb87868860405161129093929190612bfb565b60405180910390a150505050505050565b600080733c73a5e5785cac854d468f727c606c07488a29d673ffffffffffffffffffffffffffffffffffffffff1663d2493b6c846040518263ffffffff1660e01b81526004016112f19190612169565b60606040518083038186803b15801561130957600080fd5b505afa15801561131d573d6000803e3d6000fd5b505050506040513d601f19601f82011682018060405250810190611341919061265d565b5050905080915050919050565b600360009054906101000a900460ff1681565b6000733c73a5e5785cac854d468f727c606c07488a29d673ffffffffffffffffffffffffffffffffffffffff166335ea6a75836040518263ffffffff1660e01b81526004016113b09190612169565b6101406040518083038186803b1580156113c957600080fd5b505afa1580156113dd573d6000803e3d6000fd5b505050506040513d601f19601f820116820180604052508101906114019190612c6f565b9091929394959697985090919293949596975090919293949596509091929394955090919293945090919293509091925090505080915050919050565b338073ffffffffffffffffffffffffffffffffffffffff16600760009054906101000a900473ffffffffffffffffffffffffffffffffffffffff1673ffffffffffffffffffffffffffffffffffffffff16146114cf576040517f08c379a00000000000000000000000000000000000000000000000000000000081526004016114c6906127f2565b60405180910390fd5b81600080600090505b6005805490508160ff1610156115795760058160ff16815481106114ff576114fe612d4e565b5b9060005260206000200160009054906101000a900473ffffffffffffffffffffffffffffffffffffffff1673ffffffffffffffffffffffffffffffffffffffff168373ffffffffffffffffffffffffffffffffffffffff1614156115665760019150611579565b808061157190612d8a565b9150506114d8565b50806115ba576040517f08c379a00000000000000000000000000000000000000000000000000000000081526004016115b190612e26565b60405180910390fd5b6000733c73a5e5785cac854d468f727c606c07488a29d673ffffffffffffffffffffffffffffffffffffffff1663d2493b6c866040518263ffffffff1660e01b81526004016116099190612169565b60606040518083038186803b15801561162157600080fd5b505afa158015611635573d6000803e3d6000fd5b505050506040513d601f19601f82011682018060405250810190611659919061265d565b5050905060008173ffffffffffffffffffffffffffffffffffffffff166370a08231306040518263ffffffff1660e01b81526004016116989190612169565b60206040518083038186803b1580156116b057600080fd5b505afa1580156116c4573d6000803e3d6000fd5b505050506040513d601f19601f820116820180604052508101906116e891906126c5565b90506000600160008873ffffffffffffffffffffffffffffffffffffffff1673ffffffffffffffffffffffffffffffffffffffff16815260200190815260200160002054826117379190612921565b905080600260008973ffffffffffffffffffffffffffffffffffffffff1673ffffffffffffffffffffffffffffffffffffffff168152602001908152602001600020600082825461178891906128cb565b92505081905550600460009054906101000a900473ffffffffffffffffffffffffffffffffffffffff1673ffffffffffffffffffffffffffffffffffffffff166369328dec8883600660009054906101000a900473ffffffffffffffffffffffffffffffffffffffff166040518463ffffffff1660e01b815260040161181093929190612bc4565b602060405180830381600087803b15801561182a57600080fd5b505af115801561183e573d6000803e3d6000fd5b505050506040513d601f19601f8201168201806040525081019061186291906126c5565b507ffb42c6fc06609281806d5b0ad4bd7b7bb222a7ac7fa9e5211fa7ac032fa491ae87600660009054906101000a900473ffffffffffffffffffffffffffffffffffffffff1683600160008c73ffffffffffffffffffffffffffffffffffffffff1673ffffffffffffffffffffffffffffffffffffffff16815260200190815260200160002054876040516118fb959493929190612e46565b60405180910390a150505050505050565b6000600460009054906101000a900473ffffffffffffffffffffffffffffffffffffffff1673ffffffffffffffffffffffffffffffffffffffff1663d15e0053836040518263ffffffff1660e01b81526004016119699190612169565b60206040518083038186803b15801561198157600080fd5b505afa158015611995573d6000803e3d6000fd5b505050506040513d601f19601f820116820180604052508101906119b991906126c5565b9050919050565b338073ffffffffffffffffffffffffffffffffffffffff16600760009054906101000a900473ffffffffffffffffffffffffffffffffffffffff1673ffffffffffffffffffffffffffffffffffffffff1614611a51576040517f08c379a0000000000000000000000000000000000000000000000000000000008152600401611a48906127f2565b60405180910390fd5b83600080600090505b6005805490508160ff161015611afb5760058160ff1681548110611a8157611a80612d4e565b5b9060005260206000200160009054906101000a900473ffffffffffffffffffffffffffffffffffffffff1673ffffffffffffffffffffffffffffffffffffffff168373ffffffffffffffffffffffffffffffffffffffff161415611ae85760019150611afb565b8080611af390612d8a565b915050611a5a565b5080611b3c576040517f08c379a0000000000000000000000000000000000000000000000000000000008152600401611b3390612e26565b60405180910390fd5b6000869050858173ffffffffffffffffffffffffffffffffffffffff1663dd62ed3e87306040518363ffffffff1660e01b8152600401611b7d929190612e99565b60206040518083038186803b158015611b9557600080fd5b505afa158015611ba9573d6000803e3d6000fd5b505050506040513d601f19601f82011682018060405250810190611bcd91906126c5565b1015611c0e576040517f08c379a0000000000000000000000000000000000000000000000000000000008152600401611c0590612f0e565b60405180910390fd5b8073ffffffffffffffffffffffffffffffffffffffff166323b872dd8630896040518463ffffffff1660e01b8152600401611c4b93929190612bfb565b602060405180830381600087803b158015611c6557600080fd5b505af1158015611c79573d6000803e3d6000fd5b505050506040513d601f19601f82011682018060405250810190611c9d9190612f5a565b506000600460009054906101000a900473ffffffffffffffffffffffffffffffffffffffff1690508173ffffffffffffffffffffffffffffffffffffffff1663095ea7b382896040518363ffffffff1660e01b8152600401611d00929190612f87565b602060405180830381600087803b158015611d1a57600080fd5b505af1158015611d2e573d6000803e3d6000fd5b505050506040513d601f19601f82011682018060405250810190611d529190612f5a565b50600460009054906101000a900473ffffffffffffffffffffffffffffffffffffffff1673ffffffffffffffffffffffffffffffffffffffff1663e8eda9df83893060006040518563ffffffff1660e01b8152600401611db59493929190612fb0565b600060405180830381600087803b158015611dcf57600080fd5b505af1158015611de3573d6000803e3d6000fd5b5050505086600160008a73ffffffffffffffffffffffffffffffffffffffff1673ffffffffffffffffffffffffffffffffffffffff1681526020019081526020016000206000828254611e3691906128cb565b925050819055505050505050505050565b6000611e5230611e58565b15905090565b600080823b905060008111915050919050565b828054611e7790612774565b90600052602060002090601f016020900481019282611e995760008555611ee0565b82601f10611eb257805160ff1916838001178555611ee0565b82800160010185558215611ee0579182015b82811115611edf578251825591602001919060010190611ec4565b5b509050611eed9190611f7b565b5090565b828054828255906000526020600020908101928215611f6a579160200282015b82811115611f695782518260006101000a81548173ffffffffffffffffffffffffffffffffffffffff021916908373ffffffffffffffffffffffffffffffffffffffff16021790555091602001919060010190611f11565b5b509050611f779190611f7b565b5090565b5b80821115611f94576000816000905550600101611f7c565b5090565b6000604051905090565b600080fd5b600080fd5b600073ffffffffffffffffffffffffffffffffffffffff82169050919050565b6000611fd782611fac565b9050919050565b611fe781611fcc565b8114611ff257600080fd5b50565b60008135905061200481611fde565b92915050565b6000602082840312156120205761201f611fa2565b5b600061202e84828501611ff5565b91505092915050565b6000819050919050565b61204a81612037565b82525050565b60006020820190506120656000830184612041565b92915050565b6000819050919050565b61207e8161206b565b82525050565b60006020820190506120996000830184612075565b92915050565b600081519050919050565b600082825260208201905092915050565b60005b838110156120d95780820151818401526020810190506120be565b838111156120e8576000848401525b50505050565b6000601f19601f8301169050919050565b600061210a8261209f565b61211481856120aa565b93506121248185602086016120bb565b61212d816120ee565b840191505092915050565b6000602082019050818103600083015261215281846120ff565b905092915050565b61216381611fcc565b82525050565b600060208201905061217e600083018461215a565b92915050565b600081519050919050565b600082825260208201905092915050565b6000819050602082019050919050565b6121b981611fcc565b82525050565b60006121cb83836121b0565b60208301905092915050565b6000602082019050919050565b60006121ef82612184565b6121f9818561218f565b9350612204836121a0565b8060005b8381101561223557815161221c88826121bf565b9750612227836121d7565b925050600181019050612208565b5085935050505092915050565b6000602082019050818103600083015261225c81846121e4565b905092915050565b600080fd5b7f4e487b7100000000000000000000000000000000000000000000000000000000600052604160045260246000fd5b6122a1826120ee565b810181811067ffffffffffffffff821117156122c0576122bf612269565b5b80604052505050565b60006122d3611f98565b90506122df8282612298565b919050565b600067ffffffffffffffff8211156122ff576122fe612269565b5b602082029050602081019050919050565b600080fd5b6000612328612323846122e4565b6122c9565b9050808382526020820190506020840283018581111561234b5761234a612310565b5b835b8181101561237457806123608882611ff5565b84526020840193505060208101905061234d565b5050509392505050565b600082601f83011261239357612392612264565b5b81356123a3848260208601612315565b91505092915050565b600080fd5b600067ffffffffffffffff8211156123cc576123cb612269565b5b6123d5826120ee565b9050602081019050919050565b82818337600083830152505050565b60006124046123ff846123b1565b6122c9565b9050828152602081018484840111156124205761241f6123ac565b5b61242b8482856123e2565b509392505050565b600082601f83011261244857612447612264565b5b81356124588482602086016123f1565b91505092915050565b6000806000806080858703121561247b5761247a611fa2565b5b600085013567ffffffffffffffff81111561249957612498611fa7565b5b6124a58782880161237e565b945050602085013567ffffffffffffffff8111156124c6576124c5611fa7565b5b6124d287828801612433565b935050604085013567ffffffffffffffff8111156124f3576124f2611fa7565b5b6124ff87828801612433565b925050606061251087828801611ff5565b91505092959194509250565b600081519050919050565b600082825260208201905092915050565b60006125438261251c565b61254d8185612527565b935061255d8185602086016120bb565b612566816120ee565b840191505092915050565b6000602082019050818103600083015261258b8184612538565b905092915050565b61259c81612037565b81146125a757600080fd5b50565b6000813590506125b981612593565b92915050565b6000806000606084860312156125d8576125d7611fa2565b5b60006125e686828701611ff5565b93505060206125f7868287016125aa565b925050604061260886828701611ff5565b9150509250925092565b60008115159050919050565b61262781612612565b82525050565b6000602082019050612642600083018461261e565b92915050565b60008151905061265781611fde565b92915050565b60008060006060848603121561267657612675611fa2565b5b600061268486828701612648565b935050602061269586828701612648565b92505060406126a686828701612648565b9150509250925092565b6000815190506126bf81612593565b92915050565b6000602082840312156126db576126da611fa2565b5b60006126e9848285016126b0565b91505092915050565b600081905092915050565b60006127088261251c565b61271281856126f2565b93506127228185602086016120bb565b80840191505092915050565b600061273a82846126fd565b915081905092915050565b7f4e487b7100000000000000000000000000000000000000000000000000000000600052602260045260246000fd5b6000600282049050600182168061278c57607f821691505b602082108114156127a05761279f612745565b5b50919050565b7f796f7520617265206e6f7420746865206f776e65720000000000000000000000600082015250565b60006127dc6015836120aa565b91506127e7826127a6565b602082019050919050565b6000602082019050818103600083015261280b816127cf565b9050919050565b6000819050919050565b600061ffff82169050919050565b6000819050919050565b600061284f61284a61284584612812565b61282a565b61281c565b9050919050565b61285f81612834565b82525050565b600060608201905061287a600083018661215a565b612887602083018561215a565b6128946040830184612856565b949350505050565b7f4e487b7100000000000000000000000000000000000000000000000000000000600052601160045260246000fd5b60006128d682612037565b91506128e183612037565b9250827fffffffffffffffffffffffffffffffffffffffffffffffffffffffffffffffff038211156129165761291561289c565b5b828201905092915050565b600061292c82612037565b915061293783612037565b92508282101561294a5761294961289c565b5b828203905092915050565b7f737472696e67206f76657220636861726163746572206c696d69740000000000600082015250565b600061298b601b836120aa565b915061299682612955565b602082019050919050565b600060208201905081810360008301526129ba8161297e565b9050919050565b7f496e697469616c697a61626c653a20636f6e747261637420697320616c72656160008201527f647920696e697469616c697a6564000000000000000000000000000000000000602082015250565b6000612a1d602e836120aa565b9150612a28826129c1565b604082019050919050565b60006020820190508181036000830152612a4c81612a10565b9050919050565b7f43616e6e6f7420696e697469616c697a65206261736500000000000000000000600082015250565b6000612a896016836120aa565b9150612a9482612a53565b602082019050919050565b60006020820190508181036000830152612ab881612a7c565b9050919050565b7f496e697469616c697a6520616c72656164792063616c6c656400000000000000600082015250565b6000612af56019836120aa565b9150612b0082612abf565b602082019050919050565b60006020820190508181036000830152612b2481612ae8565b9050919050565b600060208284031215612b4157612b40611fa2565b5b6000612b4f84828501612648565b91505092915050565b7f616d6f756e74206d757374206578636565642030000000000000000000000000600082015250565b6000612b8e6014836120aa565b9150612b9982612b58565b602082019050919050565b60006020820190508181036000830152612bbd81612b81565b9050919050565b6000606082019050612bd9600083018661215a565b612be66020830185612041565b612bf3604083018461215a565b949350505050565b6000606082019050612c10600083018661215a565b612c1d602083018561215a565b612c2a6040830184612041565b949350505050565b600064ffffffffff82169050919050565b612c4c81612c32565b8114612c5757600080fd5b50565b600081519050612c6981612c43565b92915050565b6000806000806000806000806000806101408b8d031215612c9357612c92611fa2565b5b6000612ca18d828e016126b0565b9a50506020612cb28d828e016126b0565b9950506040612cc38d828e016126b0565b9850506060612cd48d828e016126b0565b9750506080612ce58d828e016126b0565b96505060a0612cf68d828e016126b0565b95505060c0612d078d828e016126b0565b94505060e0612d188d828e016126b0565b935050610100612d2a8d828e016126b0565b925050610120612d3c8d828e01612c5a565b9150509295989b9194979a5092959850565b7f4e487b7100000000000000000000000000000000000000000000000000000000600052603260045260246000fd5b600060ff82169050919050565b6000612d9582612d7d565b915060ff821415612da957612da861289c565b5b600182019050919050565b7f7375626d697474656420746f6b656e2061646472657373206973206e6f74206160008201527f6363657074656420627920706f6f6c0000000000000000000000000000000000602082015250565b6000612e10602f836120aa565b9150612e1b82612db4565b604082019050919050565b60006020820190508181036000830152612e3f81612e03565b9050919050565b600060a082019050612e5b600083018861215a565b612e68602083018761215a565b612e756040830186612041565b612e826060830185612041565b612e8f608083018461215a565b9695505050505050565b6000604082019050612eae600083018561215a565b612ebb602083018461215a565b9392505050565b7f73656e646572206e6f7420617070726f76656400000000000000000000000000600082015250565b6000612ef86013836120aa565b9150612f0382612ec2565b602082019050919050565b60006020820190508181036000830152612f2781612eeb565b9050919050565b612f3781612612565b8114612f4257600080fd5b50565b600081519050612f5481612f2e565b92915050565b600060208284031215612f7057612f6f611fa2565b5b6000612f7e84828501612f45565b91505092915050565b6000604082019050612f9c600083018561215a565b612fa96020830184612041565b9392505050565b6000608082019050612fc5600083018761215a565b612fd26020830186612041565b612fdf604083018561215a565b612fec6060830184612856565b9594505050505056fea26469706673582212202746ba150cbc15ca16e933e46573c7341e16e66ba0f90e123d050bcc180d985a64736f6c63430008090033",
  "immutableReferences": {},
  "source": "// SPDX-License-Identifier: agpl-3.0\npragma solidity 0.8.9;\n\nimport { IJustCausePool } from './Interfaces.sol';\nimport { JCDepositorERC721 } from './JCDepositorERC721.sol';\nimport { JCOwnerERC721 } from './JCOwnerERC721.sol';\nimport { JustCausePool } from './JustCausePool.sol';\n\ncontract PoolTracker {\n\n    address baseJCPoolAddr;\n    JustCausePool baseJCPool;\n    JCDepositorERC721 jCDepositorERC721;\n    JCOwnerERC721 jCOwnerERC721;\n\n    //contract addresses will point to bool if they exist\n    mapping(address => bool) private isPool;\n    //mapping(address => address[]) private depositors;\n    //mapping(address => address[]) private owners;\n    mapping(string => address) private names;\n    address[] private verifiedPools;\n    bytes32[] validByteCodeHashes;\n\n    event AddVerifiedPools(address addressToAdd);\n    event AddDeposit(address _userAddr, address _pool);\n    event WithdrawDeposit(address _userAddr, address _pool, uint256 amount, uint256 oldAmountScaled, uint256 newAmountScaled, uint256 oldLiquidityIndex, uint256 liquidityIndex);\n    event OwnerAddress(address _owner, address _pool);\n\n    modifier onlyVerifiedByteCode(address pool) {\n        bytes32 v1ByteCodeHash = 0x69e8ff0e7c2b29468c452ea99c81161f9d6137447623140dc2714549e6014d96;\n        require(keccak256(abi.encodePacked(pool.code)) == v1ByteCodeHash, \"byteCode not recognized\");\n        _;\n    }\n\n    modifier onlyPools(address _pool){\n        require(isPool[_pool], \"this function must be called from a pool\");\n        _;\n    }\n\n    constructor () {\n        jCDepositorERC721 = new JCDepositorERC721();\n        jCOwnerERC721 = new JCOwnerERC721();\n        baseJCPool = new JustCausePool();\n    }\n\n    function addValidByteCodeHash(bytes32 _hash) public {\n        validByteCodeHashes.push(_hash);\n    }\n\n    function addDeposit(uint256 _amount, address _asset, address _pool, bool isETH) onlyPools(_pool) external payable {\n\n        /*\n        NEED TO CHECK IF FIRST DEPOSIT BEFORE ADDING TO DEPOSITORS\n        */\n        //depositors[msg.sender].push(_pool);\n\n        if(isETH) IJustCausePool(_pool).depositETH{value: msg.value}(_asset);\n        else IJustCausePool(_pool).deposit(_asset, _amount , msg.sender);\n\n        uint256 _liquidityIndex = IJustCausePool(_pool).getAaveLiquidityIndex(_asset);\n        jCDepositorERC721.addFunds(msg.sender, _amount, _liquidityIndex, block.timestamp,  _pool, _asset);\n\n        emit AddDeposit(msg.sender, _pool);\n    }\n\n    function withdrawDeposit(uint256 _amount, address _asset, address _pool) onlyPools(_pool) external {\n\n        /*\n        NEED TO CHECK IF BALANCE IS 0 BEFORE REMOVAL\n        */\n        /*for(uint8 i = 0; i < depositors[msg.sender].length -1; i++){\n            if(depositors[msg.sender][i] == _pool){\n                depositors[msg.sender][i] = depositors[msg.sender][depositors[msg.sender].length - 1];\n                break;\n            }\n        }\n        depositors[msg.sender].pop();*/\n\n        IJustCausePool(_pool).withdraw(_asset, _amount, msg.sender);\n        uint256 _liquidityIndex = IJustCausePool(_pool).getAaveLiquidityIndex(_asset);\n        (uint256 amount, uint256 oldAmountScaled, uint256 newAmountScaled, uint256 oldLiquidityIndex, uint256 liquidityIndex) = jCDepositorERC721.withdrawFunds(msg.sender, _amount, _liquidityIndex, _pool, _asset);\n\n        emit WithdrawDeposit(msg.sender, _pool, amount, oldAmountScaled, newAmountScaled, oldLiquidityIndex, liquidityIndex);\n    }\n\n    function claimInterest(address _asset, address _pool) onlyPools(_pool) external {\n        IJustCausePool(_pool).withdrawDonations(_asset);\n    }\n\n    /**\n     * @dev Deploys and returns the address of a clone that mimics the behaviour of `implementation`.\n     *\n     * This function uses the create opcode, which should never revert.\n     */\n    function clone(address basePool) internal returns (address instance) {\n        assembly {\n            let ptr := mload(0x40)\n            mstore(ptr, 0x3d602d80600a3d3981f3363d3d373d3d3d363d73000000000000000000000000)\n            mstore(add(ptr, 0x14), shl(0x60, basePool))\n            mstore(add(ptr, 0x28), 0x5af43d82803e903d91602b57fd5bf30000000000000000000000000000000000)\n            instance := create(0, ptr, 0x37)\n        }\n        require(instance != address(0), \"ERC1167: create failed\");\n    }\n\n    function createJCPoolClone(address[] memory _acceptedTokens, string memory _name, string memory _about, address _receiver) external {\n        require(names[_name] == address(0), \"pool with name already exists\");\n        address child = clone(address(baseJCPool));\n        IJustCausePool(child).initialize(_acceptedTokens, _name, _about, _receiver);\n        jCOwnerERC721.createReceiverToken(_receiver, block.timestamp, child);\n        names[_name] =  child;\n        verifiedPools.push(child);\n        //owners[msg.sender].push(child);\n        isPool[child] = true;\n    }\n\n    function getReserveNormalizedIncome(address _asset, address _pool) external view returns(uint256){\n        return IJustCausePool(_pool).getReserveNormalizedIncome(_asset);\n    }\n\n    function getDepositorERC721Address() public view returns(address){\n        return address(jCDepositorERC721);\n    }\n\n    function getOwnerERC721Address() public view returns(address){\n        return address(jCOwnerERC721);\n    }\n\n    function getBaseJCPoolAddress() public view returns(address){\n        return address(baseJCPool);\n    }\n\n    function getVerifiedPools() public view returns(address [] memory){\n        return verifiedPools;\n    }\n\n    function checkPool(address _pool) public view returns(bool){\n        return isPool[_pool];\n    }\n\n    /*function getUserDeposits(address _userAddr) external view returns(address[] memory){\n        return depositors[_userAddr];\n    }*/\n\n    /*function getUserDeposits(address _userAddr) external view returns(address[] memory){\n        uint256 numDeposits = jCDepositorERC721.balanceOf(_userAddr);\n        address[] memory poolList;\n        for(uint8 i = 0; i < numDeposits; i++){\n            uint256 tokenId = jCDepositorERC721.tokenOfOwnerByIndex(_userAddr, i);\n            (,,,, address pool,) = jCDepositorERC721.getDeposit(tokenId);\n            poolList[i] = pool;\n        }\n        return poolList;\n    }*/\n\n    /*function getUserOwned(address _userAddr) external view returns(address[] memory){\n        return owners[_userAddr];\n    }*/\n\n    function getAddressFromName(string memory _name) external view returns(address){\n        return names[_name];\n    }\n\n    function checkByteCode(address _pool) external view returns(bool) {\n        bool hashMatch = false;\n        bytes32 hashOfPoolCode = keccak256(abi.encodePacked(_pool.code));\n        bytes32[] memory validHashes = validByteCodeHashes;\n\n        for(uint8 i = 0; i < validHashes.length; i++){\n            if(hashOfPoolCode == validHashes[i]){\n                hashMatch = true;\n                break;\n            }\n        }\n        return hashMatch;\n    }\n}",
  "sourcePath": "/home/smeee/just_cause/contracts/PoolTracker.sol",
  "compiler": {
    "name": "solc",
    "version": "0.8.9+commit.e5eed63a.Emscripten.clang"
  },
  "schemaVersion": "3.4.3",
  "updatedAt": "2022-02-09T19:17:36.597Z",
  "networkType": "ethereum",
  "devdoc": {
    "kind": "dev",
    "methods": {},
    "version": 1
  },
  "userdoc": {
    "kind": "user",
    "methods": {},
    "version": 1
  }
}