{
  "contractName": "PoolTracker",
  "abi": [
    {
      "inputs": [],
      "stateMutability": "nonpayable",
      "type": "constructor"
    },
    {
      "anonymous": false,
      "inputs": [
        {
          "indexed": false,
          "internalType": "address",
          "name": "_userAddr",
          "type": "address"
        },
        {
          "indexed": false,
          "internalType": "address",
          "name": "_pool",
          "type": "address"
        }
      ],
      "name": "AddDeposit",
      "type": "event"
    },
    {
      "anonymous": false,
      "inputs": [
        {
          "indexed": false,
          "internalType": "address",
          "name": "addressToAdd",
          "type": "address"
        }
      ],
      "name": "AddVerifiedPools",
      "type": "event"
    },
    {
      "anonymous": false,
      "inputs": [
        {
          "indexed": false,
          "internalType": "address",
          "name": "sentBy",
          "type": "address"
        }
      ],
      "name": "MessageSentBy",
      "type": "event"
    },
    {
      "anonymous": false,
      "inputs": [
        {
          "indexed": false,
          "internalType": "address",
          "name": "_owner",
          "type": "address"
        },
        {
          "indexed": false,
          "internalType": "address",
          "name": "_pool",
          "type": "address"
        }
      ],
      "name": "OwnerAddress",
      "type": "event"
    },
    {
      "anonymous": false,
      "inputs": [
        {
          "indexed": false,
          "internalType": "address",
          "name": "_userAddr",
          "type": "address"
        },
        {
          "indexed": false,
          "internalType": "address",
          "name": "_pool",
          "type": "address"
        }
      ],
      "name": "WithdrawDeposit",
      "type": "event"
    },
    {
      "inputs": [
        {
          "internalType": "bytes32",
          "name": "_hash",
          "type": "bytes32"
        }
      ],
      "name": "addValidByteCodeHash",
      "outputs": [],
      "stateMutability": "nonpayable",
      "type": "function"
    },
    {
      "inputs": [
        {
          "internalType": "address",
          "name": "_userAddr",
          "type": "address"
        },
        {
          "internalType": "uint256",
          "name": "_amount",
          "type": "uint256"
        },
        {
          "internalType": "uint256",
          "name": "_liquidityIndex",
          "type": "uint256"
        },
        {
          "internalType": "uint256",
          "name": "_timeStamp",
          "type": "uint256"
        },
        {
          "internalType": "address",
          "name": "_asset",
          "type": "address"
        }
      ],
      "name": "addDeposit",
      "outputs": [],
      "stateMutability": "nonpayable",
      "type": "function"
    },
    {
      "inputs": [
        {
          "internalType": "address",
          "name": "_userAddr",
          "type": "address"
        },
        {
          "internalType": "uint256",
          "name": "_amount",
          "type": "uint256"
        },
        {
          "internalType": "uint256",
          "name": "_timeStamp",
          "type": "uint256"
        },
        {
          "internalType": "address",
          "name": "_asset",
          "type": "address"
        }
      ],
      "name": "withdrawDeposit",
      "outputs": [],
      "stateMutability": "nonpayable",
      "type": "function"
    },
    {
      "inputs": [
        {
          "internalType": "address",
          "name": "_pool",
          "type": "address"
        },
        {
          "internalType": "address",
          "name": "_owner",
          "type": "address"
        },
        {
          "internalType": "string",
          "name": "_name",
          "type": "string"
        }
      ],
      "name": "addVerifiedPools",
      "outputs": [],
      "stateMutability": "nonpayable",
      "type": "function"
    },
    {
      "inputs": [],
      "name": "getERC721Address",
      "outputs": [
        {
          "internalType": "address",
          "name": "",
          "type": "address"
        }
      ],
      "stateMutability": "view",
      "type": "function",
      "constant": true
    },
    {
      "inputs": [],
      "name": "getVerifiedPools",
      "outputs": [
        {
          "internalType": "address[]",
          "name": "",
          "type": "address[]"
        }
      ],
      "stateMutability": "view",
      "type": "function",
      "constant": true
    },
    {
      "inputs": [
        {
          "internalType": "address",
          "name": "_userAddr",
          "type": "address"
        }
      ],
      "name": "getUserDeposits",
      "outputs": [
        {
          "internalType": "address[]",
          "name": "",
          "type": "address[]"
        }
      ],
      "stateMutability": "view",
      "type": "function",
      "constant": true
    },
    {
      "inputs": [
        {
          "internalType": "address",
          "name": "_userAddr",
          "type": "address"
        }
      ],
      "name": "getUserOwned",
      "outputs": [
        {
          "internalType": "address[]",
          "name": "",
          "type": "address[]"
        }
      ],
      "stateMutability": "view",
      "type": "function",
      "constant": true
    },
    {
      "inputs": [
        {
          "internalType": "string",
          "name": "name",
          "type": "string"
        }
      ],
      "name": "getAddressFromName",
      "outputs": [
        {
          "internalType": "address",
          "name": "",
          "type": "address"
        }
      ],
      "stateMutability": "view",
      "type": "function",
      "constant": true
    },
    {
      "inputs": [
        {
          "internalType": "address",
          "name": "_pool",
          "type": "address"
        }
      ],
      "name": "checkByteCode",
      "outputs": [
        {
          "internalType": "bool",
          "name": "",
          "type": "bool"
        }
      ],
      "stateMutability": "view",
      "type": "function",
      "constant": true
    }
  ],
  "bytecode": "0x608060405234801561001057600080fd5b5060405161001d9061007e565b604051809103906000f080158015610039573d6000803e3d6000fd5b506000806101000a81548173ffffffffffffffffffffffffffffffffffffffff021916908373ffffffffffffffffffffffffffffffffffffffff16021790555061008c565b613df4806200198583390190565b6118e9806200009c6000396000f3fe608060405234801561001057600080fd5b506004361061009d5760003560e01c80634e1a58a8116100665780634e1a58a814610158578063748d6829146101745780637af5bcb8146101a45780638e61514e146101c0578063b63ae6ee146101f05761009d565b80627ffb78146100a25780631c1f905f146100c057806326132eb2146100f05780632a5bf6d21461010c57806345cdf6421461013c575b600080fd5b6100aa61020e565b6040516100b79190610f78565b60405180910390f35b6100da60048036038101906100d59190610fd3565b610237565b6040516100e791906110be565b60405180910390f35b61010a60048036038101906101059190611116565b610304565b005b61012660048036038101906101219190610fd3565b6107cd565b60405161013391906110be565b60405180910390f35b610156600480360381019061015191906112c3565b61089a565b005b610172600480360381019061016d9190611368565b610b03565b005b61018e60048036038101906101899190610fd3565b610b2f565b60405161019b91906113b0565b60405180910390f35b6101be60048036038101906101b991906113cb565b610c44565b005b6101da60048036038101906101d59190611446565b610e9f565b6040516101e79190610f78565b60405180910390f35b6101f8610ea9565b60405161020591906110be565b60405180910390f35b60008060009054906101000a900473ffffffffffffffffffffffffffffffffffffffff16905090565b6060600360008373ffffffffffffffffffffffffffffffffffffffff1673ffffffffffffffffffffffffffffffffffffffff1681526020019081526020016000208054806020026020016040519081016040528092919081815260200182805480156102f857602002820191906000526020600020905b8160009054906101000a900473ffffffffffffffffffffffffffffffffffffffff1673ffffffffffffffffffffffffffffffffffffffff16815260200190600101908083116102ae575b50505050509050919050565b33600160008273ffffffffffffffffffffffffffffffffffffffff1673ffffffffffffffffffffffffffffffffffffffff16815260200190815260200160002060009054906101000a900460ff16610391576040517f08c379a000000000000000000000000000000000000000000000000000000000815260040161038890611512565b60405180910390fd5b60005b6001600260008873ffffffffffffffffffffffffffffffffffffffff1673ffffffffffffffffffffffffffffffffffffffff168152602001908152602001600020805490506103e39190611561565b8160ff16101561061d573373ffffffffffffffffffffffffffffffffffffffff16600260008873ffffffffffffffffffffffffffffffffffffffff1673ffffffffffffffffffffffffffffffffffffffff1681526020019081526020016000208260ff168154811061045857610457611595565b5b9060005260206000200160009054906101000a900473ffffffffffffffffffffffffffffffffffffffff1673ffffffffffffffffffffffffffffffffffffffff16141561060a57600260008773ffffffffffffffffffffffffffffffffffffffff1673ffffffffffffffffffffffffffffffffffffffff1681526020019081526020016000206001600260008973ffffffffffffffffffffffffffffffffffffffff1673ffffffffffffffffffffffffffffffffffffffff1681526020019081526020016000208054905061052d9190611561565b8154811061053e5761053d611595565b5b9060005260206000200160009054906101000a900473ffffffffffffffffffffffffffffffffffffffff16600260008873ffffffffffffffffffffffffffffffffffffffff1673ffffffffffffffffffffffffffffffffffffffff1681526020019081526020016000208260ff16815481106105bd576105bc611595565b5b9060005260206000200160006101000a81548173ffffffffffffffffffffffffffffffffffffffff021916908373ffffffffffffffffffffffffffffffffffffffff16021790555061061d565b8080610615906115d1565b915050610394565b50600260008673ffffffffffffffffffffffffffffffffffffffff1673ffffffffffffffffffffffffffffffffffffffff16815260200190815260200160002080548061066d5761066c6115fb565b5b6001900381819060005260206000200160006101000a81549073ffffffffffffffffffffffffffffffffffffffff0219169055905560008054906101000a900473ffffffffffffffffffffffffffffffffffffffff1673ffffffffffffffffffffffffffffffffffffffff1663236e9c9986868633876040518663ffffffff1660e01b8152600401610703959493929190611639565b602060405180830381600087803b15801561071d57600080fd5b505af1158015610731573d6000803e3d6000fd5b505050506040513d601f19601f8201168201806040525081019061075591906116a1565b507f96d37d4b9d9073b00191d43144d238a504757ba440e7708b7bad98762e32d40c85336040516107879291906116ce565b60405180910390a17f274a386c22eb451962fea0499160d84da47852595d890c0d38b3e63fdd3867c0336040516107be9190610f78565b60405180910390a15050505050565b6060600260008373ffffffffffffffffffffffffffffffffffffffff1673ffffffffffffffffffffffffffffffffffffffff16815260200190815260200160002080548060200260200160405190810160405280929190818152602001828054801561088e57602002820191906000526020600020905b8160009054906101000a900473ffffffffffffffffffffffffffffffffffffffff1673ffffffffffffffffffffffffffffffffffffffff1681526020019060010190808311610844575b50505050509050919050565b600073ffffffffffffffffffffffffffffffffffffffff166004826040516108c29190611771565b908152602001604051809103902060009054906101000a900473ffffffffffffffffffffffffffffffffffffffff1673ffffffffffffffffffffffffffffffffffffffff1614610947576040517f08c379a000000000000000000000000000000000000000000000000000000000815260040161093e906117d4565b60405180910390fd5b826004826040516109589190611771565b908152602001604051809103902060006101000a81548173ffffffffffffffffffffffffffffffffffffffff021916908373ffffffffffffffffffffffffffffffffffffffff1602179055506005839080600181540180825580915050600190039060005260206000200160009091909190916101000a81548173ffffffffffffffffffffffffffffffffffffffff021916908373ffffffffffffffffffffffffffffffffffffffff160217905550600360008373ffffffffffffffffffffffffffffffffffffffff1673ffffffffffffffffffffffffffffffffffffffff168152602001908152602001600020839080600181540180825580915050600190039060005260206000200160009091909190916101000a81548173ffffffffffffffffffffffffffffffffffffffff021916908373ffffffffffffffffffffffffffffffffffffffff16021790555060018060008573ffffffffffffffffffffffffffffffffffffffff1673ffffffffffffffffffffffffffffffffffffffff16815260200190815260200160002060006101000a81548160ff021916908315150217905550505050565b600681908060018154018082558091505060019003906000526020600020016000909190919091505550565b6000806000905060008373ffffffffffffffffffffffffffffffffffffffff16803b806020016040519081016040528181526000908060200190933c604051602001610b7b919061183b565b60405160208183030381529060405280519060200120905060006006805480602002602001604051908101604052809291908181526020018280548015610be157602002820191906000526020600020905b815481526020019060010190808311610bcd575b5050505050905060005b81518160ff161015610c3857818160ff1681518110610c0d57610c0c611595565b5b6020026020010151831415610c255760019350610c38565b8080610c30906115d1565b915050610beb565b50829350505050919050565b33600160008273ffffffffffffffffffffffffffffffffffffffff1673ffffffffffffffffffffffffffffffffffffffff16815260200190815260200160002060009054906101000a900460ff16610cd1576040517f08c379a0000000000000000000000000000000000000000000000000000000008152600401610cc890611512565b60405180910390fd5b600260008773ffffffffffffffffffffffffffffffffffffffff1673ffffffffffffffffffffffffffffffffffffffff168152602001908152602001600020339080600181540180825580915050600190039060005260206000200160009091909190916101000a81548173ffffffffffffffffffffffffffffffffffffffff021916908373ffffffffffffffffffffffffffffffffffffffff16021790555060008054906101000a900473ffffffffffffffffffffffffffffffffffffffff1673ffffffffffffffffffffffffffffffffffffffff1663ecd8d0548787878733886040518763ffffffff1660e01b8152600401610dd496959493929190611852565b602060405180830381600087803b158015610dee57600080fd5b505af1158015610e02573d6000803e3d6000fd5b505050506040513d601f19601f82011682018060405250810190610e2691906116a1565b507f81ba5b8ff9dd8503225df558117e2e7640a87c53418ab08237ad375c563a0dc38633604051610e589291906116ce565b60405180910390a17f274a386c22eb451962fea0499160d84da47852595d890c0d38b3e63fdd3867c033604051610e8f9190610f78565b60405180910390a1505050505050565b6000309050919050565b60606005805480602002602001604051908101604052809291908181526020018280548015610f2d57602002820191906000526020600020905b8160009054906101000a900473ffffffffffffffffffffffffffffffffffffffff1673ffffffffffffffffffffffffffffffffffffffff1681526020019060010190808311610ee3575b5050505050905090565b600073ffffffffffffffffffffffffffffffffffffffff82169050919050565b6000610f6282610f37565b9050919050565b610f7281610f57565b82525050565b6000602082019050610f8d6000830184610f69565b92915050565b6000604051905090565b600080fd5b600080fd5b610fb081610f57565b8114610fbb57600080fd5b50565b600081359050610fcd81610fa7565b92915050565b600060208284031215610fe957610fe8610f9d565b5b6000610ff784828501610fbe565b91505092915050565b600081519050919050565b600082825260208201905092915050565b6000819050602082019050919050565b61103581610f57565b82525050565b6000611047838361102c565b60208301905092915050565b6000602082019050919050565b600061106b82611000565b611075818561100b565b93506110808361101c565b8060005b838110156110b1578151611098888261103b565b97506110a383611053565b925050600181019050611084565b5085935050505092915050565b600060208201905081810360008301526110d88184611060565b905092915050565b6000819050919050565b6110f3816110e0565b81146110fe57600080fd5b50565b600081359050611110816110ea565b92915050565b600080600080608085870312156111305761112f610f9d565b5b600061113e87828801610fbe565b945050602061114f87828801611101565b935050604061116087828801611101565b925050606061117187828801610fbe565b91505092959194509250565b600080fd5b600080fd5b6000601f19601f8301169050919050565b7f4e487b7100000000000000000000000000000000000000000000000000000000600052604160045260246000fd5b6111d082611187565b810181811067ffffffffffffffff821117156111ef576111ee611198565b5b80604052505050565b6000611202610f93565b905061120e82826111c7565b919050565b600067ffffffffffffffff82111561122e5761122d611198565b5b61123782611187565b9050602081019050919050565b82818337600083830152505050565b600061126661126184611213565b6111f8565b90508281526020810184848401111561128257611281611182565b5b61128d848285611244565b509392505050565b600082601f8301126112aa576112a961117d565b5b81356112ba848260208601611253565b91505092915050565b6000806000606084860312156112dc576112db610f9d565b5b60006112ea86828701610fbe565b93505060206112fb86828701610fbe565b925050604084013567ffffffffffffffff81111561131c5761131b610fa2565b5b61132886828701611295565b9150509250925092565b6000819050919050565b61134581611332565b811461135057600080fd5b50565b6000813590506113628161133c565b92915050565b60006020828403121561137e5761137d610f9d565b5b600061138c84828501611353565b91505092915050565b60008115159050919050565b6113aa81611395565b82525050565b60006020820190506113c560008301846113a1565b92915050565b600080600080600060a086880312156113e7576113e6610f9d565b5b60006113f588828901610fbe565b955050602061140688828901611101565b945050604061141788828901611101565b935050606061142888828901611101565b925050608061143988828901610fbe565b9150509295509295909350565b60006020828403121561145c5761145b610f9d565b5b600082013567ffffffffffffffff81111561147a57611479610fa2565b5b61148684828501611295565b91505092915050565b600082825260208201905092915050565b7f746869732066756e6374696f6e206d7573742062652063616c6c65642066726f60008201527f6d206120706f6f6c000000000000000000000000000000000000000000000000602082015250565b60006114fc60288361148f565b9150611507826114a0565b604082019050919050565b6000602082019050818103600083015261152b816114ef565b9050919050565b7f4e487b7100000000000000000000000000000000000000000000000000000000600052601160045260246000fd5b600061156c826110e0565b9150611577836110e0565b92508282101561158a57611589611532565b5b828203905092915050565b7f4e487b7100000000000000000000000000000000000000000000000000000000600052603260045260246000fd5b600060ff82169050919050565b60006115dc826115c4565b915060ff8214156115f0576115ef611532565b5b600182019050919050565b7f4e487b7100000000000000000000000000000000000000000000000000000000600052603160045260246000fd5b611633816110e0565b82525050565b600060a08201905061164e6000830188610f69565b61165b602083018761162a565b611668604083018661162a565b6116756060830185610f69565b6116826080830184610f69565b9695505050505050565b60008151905061169b816110ea565b92915050565b6000602082840312156116b7576116b6610f9d565b5b60006116c58482850161168c565b91505092915050565b60006040820190506116e36000830185610f69565b6116f06020830184610f69565b9392505050565b600081519050919050565b600081905092915050565b60005b8381101561172b578082015181840152602081019050611710565b8381111561173a576000848401525b50505050565b600061174b826116f7565b6117558185611702565b935061176581856020860161170d565b80840191505092915050565b600061177d8284611740565b915081905092915050565b7f706f6f6c2077697468206e616d6520616c726561647920657869737473000000600082015250565b60006117be601d8361148f565b91506117c982611788565b602082019050919050565b600060208201905081810360008301526117ed816117b1565b9050919050565b600081519050919050565b600081905092915050565b6000611815826117f4565b61181f81856117ff565b935061182f81856020860161170d565b80840191505092915050565b6000611847828461180a565b915081905092915050565b600060c0820190506118676000830189610f69565b611874602083018861162a565b611881604083018761162a565b61188e606083018661162a565b61189b6080830185610f69565b6118a860a0830184610f69565b97965050505050505056fea2646970667358221220ab8093f6ec5092b653b18b067d638fd8542a9586dcaea999a41b18f5f16d2e6164736f6c6343000809003360806040523480156200001157600080fd5b506040518060400160405280601481526020017f4a757374436175736520506f6f6c20546f6b656e0000000000000000000000008152506040518060400160405280600a81526020017f4a4350545f544553543100000000000000000000000000000000000000000000815250816000908051906020019062000096929190620001a6565b508060019080519060200190620000af929190620001a6565b505050620000d2620000c6620000d860201b60201c565b620000e060201b60201c565b620002bb565b600033905090565b6000600a60009054906101000a900473ffffffffffffffffffffffffffffffffffffffff16905081600a60006101000a81548173ffffffffffffffffffffffffffffffffffffffff021916908373ffffffffffffffffffffffffffffffffffffffff1602179055508173ffffffffffffffffffffffffffffffffffffffff168173ffffffffffffffffffffffffffffffffffffffff167f8be0079c531659141344cd1fd0a4f28419497f9722a3daafe3b4186f6b6457e060405160405180910390a35050565b828054620001b49062000285565b90600052602060002090601f016020900481019282620001d8576000855562000224565b82601f10620001f357805160ff191683800117855562000224565b8280016001018555821562000224579182015b828111156200022357825182559160200191906001019062000206565b5b50905062000233919062000237565b5090565b5b808211156200025257600081600090555060010162000238565b5090565b7f4e487b7100000000000000000000000000000000000000000000000000000000600052602260045260246000fd5b600060028204905060018216806200029e57607f821691505b60208210811415620002b557620002b462000256565b5b50919050565b613b2980620002cb6000396000f3fe608060405234801561001057600080fd5b50600436106101425760003560e01c806370a08231116100b8578063a22cb4651161007c578063a22cb465146103a1578063b88d4fde146103bd578063c87b56dd146103d9578063e985e9c514610409578063ecd8d05414610439578063f2fde38b1461046957610142565b806370a08231146102f7578063715018a6146103275780638da5cb5b1461033157806395d89b411461034f5780639f9fb9681461036d57610142565b8063236e9c991161010a578063236e9c99146101ff57806323b872dd1461022f5780632f745c591461024b57806342842e0e1461027b5780634f6ccce7146102975780636352211e146102c757610142565b806301ffc9a71461014757806306fdde0314610177578063081812fc14610195578063095ea7b3146101c557806318160ddd146101e1575b600080fd5b610161600480360381019061015c919061260f565b610485565b60405161016e9190612657565b60405180910390f35b61017f6104ff565b60405161018c919061270b565b60405180910390f35b6101af60048036038101906101aa9190612763565b610591565b6040516101bc91906127d1565b60405180910390f35b6101df60048036038101906101da9190612818565b610616565b005b6101e961072e565b6040516101f69190612867565b60405180910390f35b61021960048036038101906102149190612882565b61073b565b6040516102269190612867565b60405180910390f35b610249600480360381019061024491906128fd565b610914565b005b61026560048036038101906102609190612818565b610974565b6040516102729190612867565b60405180910390f35b610295600480360381019061029091906128fd565b610a19565b005b6102b160048036038101906102ac9190612763565b610a39565b6040516102be9190612867565b60405180910390f35b6102e160048036038101906102dc9190612763565b610aaa565b6040516102ee91906127d1565b60405180910390f35b610311600480360381019061030c9190612950565b610b5c565b60405161031e9190612867565b60405180910390f35b61032f610c14565b005b610339610c9c565b60405161034691906127d1565b60405180910390f35b610357610cc6565b604051610364919061270b565b60405180910390f35b61038760048036038101906103829190612763565b610d58565b60405161039895949392919061297d565b60405180910390f35b6103bb60048036038101906103b691906129fc565b610e78565b005b6103d760048036038101906103d29190612b71565b610e8e565b005b6103f360048036038101906103ee9190612763565b610ef0565b604051610400919061270b565b60405180910390f35b610423600480360381019061041e9190612bf4565b610f97565b6040516104309190612657565b60405180910390f35b610453600480360381019061044e9190612c34565b61102b565b6040516104609190612867565b60405180910390f35b610483600480360381019061047e9190612950565b611249565b005b60007f780e9d63000000000000000000000000000000000000000000000000000000007bffffffffffffffffffffffffffffffffffffffffffffffffffffffff1916827bffffffffffffffffffffffffffffffffffffffffffffffffffffffff191614806104f857506104f782611341565b5b9050919050565b60606000805461050e90612cf0565b80601f016020809104026020016040519081016040528092919081815260200182805461053a90612cf0565b80156105875780601f1061055c57610100808354040283529160200191610587565b820191906000526020600020905b81548152906001019060200180831161056a57829003601f168201915b5050505050905090565b600061059c82611423565b6105db576040517f08c379a00000000000000000000000000000000000000000000000000000000081526004016105d290612d94565b60405180910390fd5b6004600083815260200190815260200160002060009054906101000a900473ffffffffffffffffffffffffffffffffffffffff169050919050565b600061062182610aaa565b90508073ffffffffffffffffffffffffffffffffffffffff168373ffffffffffffffffffffffffffffffffffffffff161415610692576040517f08c379a000000000000000000000000000000000000000000000000000000000815260040161068990612e26565b60405180910390fd5b8073ffffffffffffffffffffffffffffffffffffffff166106b161148f565b73ffffffffffffffffffffffffffffffffffffffff1614806106e057506106df816106da61148f565b610f97565b5b61071f576040517f08c379a000000000000000000000000000000000000000000000000000000000815260040161071690612eb8565b60405180910390fd5b6107298383611497565b505050565b6000600880549050905090565b600061074561148f565b73ffffffffffffffffffffffffffffffffffffffff16610763610c9c565b73ffffffffffffffffffffffffffffffffffffffff16146107b9576040517f08c379a00000000000000000000000000000000000000000000000000000000081526004016107b090612f24565b60405180910390fd5b60008684846040516020016107d093929190612f8c565b6040516020818303038152906040528051906020012060001c90506107f481611423565b610833576040517f08c379a000000000000000000000000000000000000000000000000000000000815260040161082a90613015565b60405180910390fd5b6000600b6000838152602001908152602001600020600001549050868161085a9190613064565b905060008114156108eb57600b6000838152602001908152602001600020600080820160009055600182016000905560028201600090556003820160006101000a81549073ffffffffffffffffffffffffffffffffffffffff02191690556004820160006101000a81549073ffffffffffffffffffffffffffffffffffffffff021916905550506108ea82611550565b5b80600b600084815260200190815260200160002060000181905550819250505095945050505050565b61092561091f61148f565b82611661565b610964576040517f08c379a000000000000000000000000000000000000000000000000000000000815260040161095b9061310a565b60405180910390fd5b61096f83838361173f565b505050565b600061097f83610b5c565b82106109c0576040517f08c379a00000000000000000000000000000000000000000000000000000000081526004016109b79061319c565b60405180910390fd5b600660008473ffffffffffffffffffffffffffffffffffffffff1673ffffffffffffffffffffffffffffffffffffffff168152602001908152602001600020600083815260200190815260200160002054905092915050565b610a3483838360405180602001604052806000815250610e8e565b505050565b6000610a4361072e565b8210610a84576040517f08c379a0000000000000000000000000000000000000000000000000000000008152600401610a7b9061322e565b60405180910390fd5b60088281548110610a9857610a9761324e565b5b90600052602060002001549050919050565b6000806002600084815260200190815260200160002060009054906101000a900473ffffffffffffffffffffffffffffffffffffffff169050600073ffffffffffffffffffffffffffffffffffffffff168173ffffffffffffffffffffffffffffffffffffffff161415610b53576040517f08c379a0000000000000000000000000000000000000000000000000000000008152600401610b4a906132ef565b60405180910390fd5b80915050919050565b60008073ffffffffffffffffffffffffffffffffffffffff168273ffffffffffffffffffffffffffffffffffffffff161415610bcd576040517f08c379a0000000000000000000000000000000000000000000000000000000008152600401610bc490613381565b60405180910390fd5b600360008373ffffffffffffffffffffffffffffffffffffffff1673ffffffffffffffffffffffffffffffffffffffff168152602001908152602001600020549050919050565b610c1c61148f565b73ffffffffffffffffffffffffffffffffffffffff16610c3a610c9c565b73ffffffffffffffffffffffffffffffffffffffff1614610c90576040517f08c379a0000000000000000000000000000000000000000000000000000000008152600401610c8790612f24565b60405180910390fd5b610c9a600061199b565b565b6000600a60009054906101000a900473ffffffffffffffffffffffffffffffffffffffff16905090565b606060018054610cd590612cf0565b80601f0160208091040260200160405190810160405280929190818152602001828054610d0190612cf0565b8015610d4e5780601f10610d2357610100808354040283529160200191610d4e565b820191906000526020600020905b815481529060010190602001808311610d3157829003601f168201915b5050505050905090565b600080600080600080600b60008881526020019081526020016000206040518060a00160405290816000820154815260200160018201548152602001600282015481526020016003820160009054906101000a900473ffffffffffffffffffffffffffffffffffffffff1673ffffffffffffffffffffffffffffffffffffffff1673ffffffffffffffffffffffffffffffffffffffff1681526020016004820160009054906101000a900473ffffffffffffffffffffffffffffffffffffffff1673ffffffffffffffffffffffffffffffffffffffff1673ffffffffffffffffffffffffffffffffffffffff1681525050905080600001519550806020015194508060400151935080606001519250806080015191505091939590929450565b610e8a610e8361148f565b8383611a61565b5050565b610e9f610e9961148f565b83611661565b610ede576040517f08c379a0000000000000000000000000000000000000000000000000000000008152600401610ed59061310a565b60405180910390fd5b610eea84848484611bce565b50505050565b6060610efb82611423565b610f3a576040517f08c379a0000000000000000000000000000000000000000000000000000000008152600401610f3190613413565b60405180910390fd5b6000610f44611c2a565b90506000815111610f645760405180602001604052806000815250610f8f565b80610f6e84611c41565b604051602001610f7f92919061346f565b6040516020818303038152906040525b915050919050565b6000600560008473ffffffffffffffffffffffffffffffffffffffff1673ffffffffffffffffffffffffffffffffffffffff16815260200190815260200160002060008373ffffffffffffffffffffffffffffffffffffffff1673ffffffffffffffffffffffffffffffffffffffff16815260200190815260200160002060009054906101000a900460ff16905092915050565b600061103561148f565b73ffffffffffffffffffffffffffffffffffffffff16611053610c9c565b73ffffffffffffffffffffffffffffffffffffffff16146110a9576040517f08c379a00000000000000000000000000000000000000000000000000000000081526004016110a090612f24565b60405180910390fd5b60008784846040516020016110c093929190612f8c565b6040516020818303038152906040528051906020012060001c90506110e481611423565b1561111b5786600b6000838152602001908152602001600020600001600082825461110f9190613493565b9250508190555061123b565b6040518060a001604052808881526020018781526020018681526020018573ffffffffffffffffffffffffffffffffffffffff1681526020018473ffffffffffffffffffffffffffffffffffffffff16815250600b600083815260200190815260200160002060008201518160000155602082015181600101556040820151816002015560608201518160030160006101000a81548173ffffffffffffffffffffffffffffffffffffffff021916908373ffffffffffffffffffffffffffffffffffffffff16021790555060808201518160040160006101000a81548173ffffffffffffffffffffffffffffffffffffffff021916908373ffffffffffffffffffffffffffffffffffffffff16021790555090505061123a8882611da2565b5b809150509695505050505050565b61125161148f565b73ffffffffffffffffffffffffffffffffffffffff1661126f610c9c565b73ffffffffffffffffffffffffffffffffffffffff16146112c5576040517f08c379a00000000000000000000000000000000000000000000000000000000081526004016112bc90612f24565b60405180910390fd5b600073ffffffffffffffffffffffffffffffffffffffff168173ffffffffffffffffffffffffffffffffffffffff161415611335576040517f08c379a000000000000000000000000000000000000000000000000000000000815260040161132c9061355b565b60405180910390fd5b61133e8161199b565b50565b60007f80ac58cd000000000000000000000000000000000000000000000000000000007bffffffffffffffffffffffffffffffffffffffffffffffffffffffff1916827bffffffffffffffffffffffffffffffffffffffffffffffffffffffff1916148061140c57507f5b5e139f000000000000000000000000000000000000000000000000000000007bffffffffffffffffffffffffffffffffffffffffffffffffffffffff1916827bffffffffffffffffffffffffffffffffffffffffffffffffffffffff1916145b8061141c575061141b82611f70565b5b9050919050565b60008073ffffffffffffffffffffffffffffffffffffffff166002600084815260200190815260200160002060009054906101000a900473ffffffffffffffffffffffffffffffffffffffff1673ffffffffffffffffffffffffffffffffffffffff1614159050919050565b600033905090565b816004600083815260200190815260200160002060006101000a81548173ffffffffffffffffffffffffffffffffffffffff021916908373ffffffffffffffffffffffffffffffffffffffff160217905550808273ffffffffffffffffffffffffffffffffffffffff1661150a83610aaa565b73ffffffffffffffffffffffffffffffffffffffff167f8c5be1e5ebec7d5bd14f71427d1e84f3dd0314c0f7b2291e5b200ac8c7c3b92560405160405180910390a45050565b600061155b82610aaa565b905061156981600084611fda565b611574600083611497565b6001600360008373ffffffffffffffffffffffffffffffffffffffff1673ffffffffffffffffffffffffffffffffffffffff16815260200190815260200160002060008282546115c49190613064565b925050819055506002600083815260200190815260200160002060006101000a81549073ffffffffffffffffffffffffffffffffffffffff021916905581600073ffffffffffffffffffffffffffffffffffffffff168273ffffffffffffffffffffffffffffffffffffffff167fddf252ad1be2c89b69c2b068fc378daa952ba7f163c4a11628f55a4df523b3ef60405160405180910390a45050565b600061166c82611423565b6116ab576040517f08c379a00000000000000000000000000000000000000000000000000000000081526004016116a2906135ed565b60405180910390fd5b60006116b683610aaa565b90508073ffffffffffffffffffffffffffffffffffffffff168473ffffffffffffffffffffffffffffffffffffffff16148061172557508373ffffffffffffffffffffffffffffffffffffffff1661170d84610591565b73ffffffffffffffffffffffffffffffffffffffff16145b8061173657506117358185610f97565b5b91505092915050565b8273ffffffffffffffffffffffffffffffffffffffff1661175f82610aaa565b73ffffffffffffffffffffffffffffffffffffffff16146117b5576040517f08c379a00000000000000000000000000000000000000000000000000000000081526004016117ac9061367f565b60405180910390fd5b600073ffffffffffffffffffffffffffffffffffffffff168273ffffffffffffffffffffffffffffffffffffffff161415611825576040517f08c379a000000000000000000000000000000000000000000000000000000000815260040161181c90613711565b60405180910390fd5b611830838383611fda565b61183b600082611497565b6001600360008573ffffffffffffffffffffffffffffffffffffffff1673ffffffffffffffffffffffffffffffffffffffff168152602001908152602001600020600082825461188b9190613064565b925050819055506001600360008473ffffffffffffffffffffffffffffffffffffffff1673ffffffffffffffffffffffffffffffffffffffff16815260200190815260200160002060008282546118e29190613493565b92505081905550816002600083815260200190815260200160002060006101000a81548173ffffffffffffffffffffffffffffffffffffffff021916908373ffffffffffffffffffffffffffffffffffffffff160217905550808273ffffffffffffffffffffffffffffffffffffffff168473ffffffffffffffffffffffffffffffffffffffff167fddf252ad1be2c89b69c2b068fc378daa952ba7f163c4a11628f55a4df523b3ef60405160405180910390a4505050565b6000600a60009054906101000a900473ffffffffffffffffffffffffffffffffffffffff16905081600a60006101000a81548173ffffffffffffffffffffffffffffffffffffffff021916908373ffffffffffffffffffffffffffffffffffffffff1602179055508173ffffffffffffffffffffffffffffffffffffffff168173ffffffffffffffffffffffffffffffffffffffff167f8be0079c531659141344cd1fd0a4f28419497f9722a3daafe3b4186f6b6457e060405160405180910390a35050565b8173ffffffffffffffffffffffffffffffffffffffff168373ffffffffffffffffffffffffffffffffffffffff161415611ad0576040517f08c379a0000000000000000000000000000000000000000000000000000000008152600401611ac79061377d565b60405180910390fd5b80600560008573ffffffffffffffffffffffffffffffffffffffff1673ffffffffffffffffffffffffffffffffffffffff16815260200190815260200160002060008473ffffffffffffffffffffffffffffffffffffffff1673ffffffffffffffffffffffffffffffffffffffff16815260200190815260200160002060006101000a81548160ff0219169083151502179055508173ffffffffffffffffffffffffffffffffffffffff168373ffffffffffffffffffffffffffffffffffffffff167f17307eab39ab6107e8899845ad3d59bd9653f200f220920489ca2b5937696c3183604051611bc19190612657565b60405180910390a3505050565b611bd984848461173f565b611be5848484846120ee565b611c24576040517f08c379a0000000000000000000000000000000000000000000000000000000008152600401611c1b9061380f565b60405180910390fd5b50505050565b606060405180602001604052806000815250905090565b60606000821415611c89576040518060400160405280600181526020017f30000000000000000000000000000000000000000000000000000000000000008152509050611d9d565b600082905060005b60008214611cbb578080611ca49061382f565b915050600a82611cb491906138a7565b9150611c91565b60008167ffffffffffffffff811115611cd757611cd6612a46565b5b6040519080825280601f01601f191660200182016040528015611d095781602001600182028036833780820191505090505b5090505b60008514611d9657600182611d229190613064565b9150600a85611d3191906138d8565b6030611d3d9190613493565b60f81b818381518110611d5357611d5261324e565b5b60200101907effffffffffffffffffffffffffffffffffffffffffffffffffffffffffffff1916908160001a905350600a85611d8f91906138a7565b9450611d0d565b8093505050505b919050565b600073ffffffffffffffffffffffffffffffffffffffff168273ffffffffffffffffffffffffffffffffffffffff161415611e12576040517f08c379a0000000000000000000000000000000000000000000000000000000008152600401611e0990613955565b60405180910390fd5b611e1b81611423565b15611e5b576040517f08c379a0000000000000000000000000000000000000000000000000000000008152600401611e52906139c1565b60405180910390fd5b611e6760008383611fda565b6001600360008473ffffffffffffffffffffffffffffffffffffffff1673ffffffffffffffffffffffffffffffffffffffff1681526020019081526020016000206000828254611eb79190613493565b92505081905550816002600083815260200190815260200160002060006101000a81548173ffffffffffffffffffffffffffffffffffffffff021916908373ffffffffffffffffffffffffffffffffffffffff160217905550808273ffffffffffffffffffffffffffffffffffffffff16600073ffffffffffffffffffffffffffffffffffffffff167fddf252ad1be2c89b69c2b068fc378daa952ba7f163c4a11628f55a4df523b3ef60405160405180910390a45050565b60007f01ffc9a7000000000000000000000000000000000000000000000000000000007bffffffffffffffffffffffffffffffffffffffffffffffffffffffff1916827bffffffffffffffffffffffffffffffffffffffffffffffffffffffff1916149050919050565b611fe5838383612285565b600073ffffffffffffffffffffffffffffffffffffffff168373ffffffffffffffffffffffffffffffffffffffff161415612028576120238161228a565b612067565b8173ffffffffffffffffffffffffffffffffffffffff168373ffffffffffffffffffffffffffffffffffffffff16146120665761206583826122d3565b5b5b600073ffffffffffffffffffffffffffffffffffffffff168273ffffffffffffffffffffffffffffffffffffffff1614156120aa576120a581612440565b6120e9565b8273ffffffffffffffffffffffffffffffffffffffff168273ffffffffffffffffffffffffffffffffffffffff16146120e8576120e78282612511565b5b5b505050565b600061210f8473ffffffffffffffffffffffffffffffffffffffff16612590565b15612278578373ffffffffffffffffffffffffffffffffffffffff1663150b7a0261213861148f565b8786866040518563ffffffff1660e01b815260040161215a9493929190613a36565b602060405180830381600087803b15801561217457600080fd5b505af19250505080156121a557506040513d601f19601f820116820180604052508101906121a29190613a97565b60015b612228573d80600081146121d5576040519150601f19603f3d011682016040523d82523d6000602084013e6121da565b606091505b50600081511415612220576040517f08c379a00000000000000000000000000000000000000000000000000000000081526004016122179061380f565b60405180910390fd5b805181602001fd5b63150b7a0260e01b7bffffffffffffffffffffffffffffffffffffffffffffffffffffffff1916817bffffffffffffffffffffffffffffffffffffffffffffffffffffffff19161491505061227d565b600190505b949350505050565b505050565b6008805490506009600083815260200190815260200160002081905550600881908060018154018082558091505060019003906000526020600020016000909190919091505550565b600060016122e084610b5c565b6122ea9190613064565b90506000600760008481526020019081526020016000205490508181146123cf576000600660008673ffffffffffffffffffffffffffffffffffffffff1673ffffffffffffffffffffffffffffffffffffffff168152602001908152602001600020600084815260200190815260200160002054905080600660008773ffffffffffffffffffffffffffffffffffffffff1673ffffffffffffffffffffffffffffffffffffffff168152602001908152602001600020600084815260200190815260200160002081905550816007600083815260200190815260200160002081905550505b6007600084815260200190815260200160002060009055600660008573ffffffffffffffffffffffffffffffffffffffff1673ffffffffffffffffffffffffffffffffffffffff16815260200190815260200160002060008381526020019081526020016000206000905550505050565b600060016008805490506124549190613064565b90506000600960008481526020019081526020016000205490506000600883815481106124845761248361324e565b5b9060005260206000200154905080600883815481106124a6576124a561324e565b5b9060005260206000200181905550816009600083815260200190815260200160002081905550600960008581526020019081526020016000206000905560088054806124f5576124f4613ac4565b5b6001900381819060005260206000200160009055905550505050565b600061251c83610b5c565b905081600660008573ffffffffffffffffffffffffffffffffffffffff1673ffffffffffffffffffffffffffffffffffffffff168152602001908152602001600020600083815260200190815260200160002081905550806007600084815260200190815260200160002081905550505050565b600080823b905060008111915050919050565b6000604051905090565b600080fd5b600080fd5b60007fffffffff0000000000000000000000000000000000000000000000000000000082169050919050565b6125ec816125b7565b81146125f757600080fd5b50565b600081359050612609816125e3565b92915050565b600060208284031215612625576126246125ad565b5b6000612633848285016125fa565b91505092915050565b60008115159050919050565b6126518161263c565b82525050565b600060208201905061266c6000830184612648565b92915050565b600081519050919050565b600082825260208201905092915050565b60005b838110156126ac578082015181840152602081019050612691565b838111156126bb576000848401525b50505050565b6000601f19601f8301169050919050565b60006126dd82612672565b6126e7818561267d565b93506126f781856020860161268e565b612700816126c1565b840191505092915050565b6000602082019050818103600083015261272581846126d2565b905092915050565b6000819050919050565b6127408161272d565b811461274b57600080fd5b50565b60008135905061275d81612737565b92915050565b600060208284031215612779576127786125ad565b5b60006127878482850161274e565b91505092915050565b600073ffffffffffffffffffffffffffffffffffffffff82169050919050565b60006127bb82612790565b9050919050565b6127cb816127b0565b82525050565b60006020820190506127e660008301846127c2565b92915050565b6127f5816127b0565b811461280057600080fd5b50565b600081359050612812816127ec565b92915050565b6000806040838503121561282f5761282e6125ad565b5b600061283d85828601612803565b925050602061284e8582860161274e565b9150509250929050565b6128618161272d565b82525050565b600060208201905061287c6000830184612858565b92915050565b600080600080600060a0868803121561289e5761289d6125ad565b5b60006128ac88828901612803565b95505060206128bd8882890161274e565b94505060406128ce8882890161274e565b93505060606128df88828901612803565b92505060806128f088828901612803565b9150509295509295909350565b600080600060608486031215612916576129156125ad565b5b600061292486828701612803565b935050602061293586828701612803565b92505060406129468682870161274e565b9150509250925092565b600060208284031215612966576129656125ad565b5b600061297484828501612803565b91505092915050565b600060a0820190506129926000830188612858565b61299f6020830187612858565b6129ac6040830186612858565b6129b960608301856127c2565b6129c660808301846127c2565b9695505050505050565b6129d98161263c565b81146129e457600080fd5b50565b6000813590506129f6816129d0565b92915050565b60008060408385031215612a1357612a126125ad565b5b6000612a2185828601612803565b9250506020612a32858286016129e7565b9150509250929050565b600080fd5b600080fd5b7f4e487b7100000000000000000000000000000000000000000000000000000000600052604160045260246000fd5b612a7e826126c1565b810181811067ffffffffffffffff82111715612a9d57612a9c612a46565b5b80604052505050565b6000612ab06125a3565b9050612abc8282612a75565b919050565b600067ffffffffffffffff821115612adc57612adb612a46565b5b612ae5826126c1565b9050602081019050919050565b82818337600083830152505050565b6000612b14612b0f84612ac1565b612aa6565b905082815260208101848484011115612b3057612b2f612a41565b5b612b3b848285612af2565b509392505050565b600082601f830112612b5857612b57612a3c565b5b8135612b68848260208601612b01565b91505092915050565b60008060008060808587031215612b8b57612b8a6125ad565b5b6000612b9987828801612803565b9450506020612baa87828801612803565b9350506040612bbb8782880161274e565b925050606085013567ffffffffffffffff811115612bdc57612bdb6125b2565b5b612be887828801612b43565b91505092959194509250565b60008060408385031215612c0b57612c0a6125ad565b5b6000612c1985828601612803565b9250506020612c2a85828601612803565b9150509250929050565b60008060008060008060c08789031215612c5157612c506125ad565b5b6000612c5f89828a01612803565b9650506020612c7089828a0161274e565b9550506040612c8189828a0161274e565b9450506060612c9289828a0161274e565b9350506080612ca389828a01612803565b92505060a0612cb489828a01612803565b9150509295509295509295565b7f4e487b7100000000000000000000000000000000000000000000000000000000600052602260045260246000fd5b60006002820490506001821680612d0857607f821691505b60208210811415612d1c57612d1b612cc1565b5b50919050565b7f4552433732313a20617070726f76656420717565727920666f72206e6f6e657860008201527f697374656e7420746f6b656e0000000000000000000000000000000000000000602082015250565b6000612d7e602c8361267d565b9150612d8982612d22565b604082019050919050565b60006020820190508181036000830152612dad81612d71565b9050919050565b7f4552433732313a20617070726f76616c20746f2063757272656e74206f776e6560008201527f7200000000000000000000000000000000000000000000000000000000000000602082015250565b6000612e1060218361267d565b9150612e1b82612db4565b604082019050919050565b60006020820190508181036000830152612e3f81612e03565b9050919050565b7f4552433732313a20617070726f76652063616c6c6572206973206e6f74206f7760008201527f6e6572206e6f7220617070726f76656420666f7220616c6c0000000000000000602082015250565b6000612ea260388361267d565b9150612ead82612e46565b604082019050919050565b60006020820190508181036000830152612ed181612e95565b9050919050565b7f4f776e61626c653a2063616c6c6572206973206e6f7420746865206f776e6572600082015250565b6000612f0e60208361267d565b9150612f1982612ed8565b602082019050919050565b60006020820190508181036000830152612f3d81612f01565b9050919050565b60008160601b9050919050565b6000612f5c82612f44565b9050919050565b6000612f6e82612f51565b9050919050565b612f86612f81826127b0565b612f63565b82525050565b6000612f988286612f75565b601482019150612fa88285612f75565b601482019150612fb88284612f75565b601482019150819050949350505050565b7f746f6b656e496420646f65736e27742065786973740000000000000000000000600082015250565b6000612fff60158361267d565b915061300a82612fc9565b602082019050919050565b6000602082019050818103600083015261302e81612ff2565b9050919050565b7f4e487b7100000000000000000000000000000000000000000000000000000000600052601160045260246000fd5b600061306f8261272d565b915061307a8361272d565b92508282101561308d5761308c613035565b5b828203905092915050565b7f4552433732313a207472616e736665722063616c6c6572206973206e6f74206f60008201527f776e6572206e6f7220617070726f766564000000000000000000000000000000602082015250565b60006130f460318361267d565b91506130ff82613098565b604082019050919050565b60006020820190508181036000830152613123816130e7565b9050919050565b7f455243373231456e756d657261626c653a206f776e657220696e646578206f7560008201527f74206f6620626f756e6473000000000000000000000000000000000000000000602082015250565b6000613186602b8361267d565b91506131918261312a565b604082019050919050565b600060208201905081810360008301526131b581613179565b9050919050565b7f455243373231456e756d657261626c653a20676c6f62616c20696e646578206f60008201527f7574206f6620626f756e64730000000000000000000000000000000000000000602082015250565b6000613218602c8361267d565b9150613223826131bc565b604082019050919050565b600060208201905081810360008301526132478161320b565b9050919050565b7f4e487b7100000000000000000000000000000000000000000000000000000000600052603260045260246000fd5b7f4552433732313a206f776e657220717565727920666f72206e6f6e657869737460008201527f656e7420746f6b656e0000000000000000000000000000000000000000000000602082015250565b60006132d960298361267d565b91506132e48261327d565b604082019050919050565b60006020820190508181036000830152613308816132cc565b9050919050565b7f4552433732313a2062616c616e636520717565727920666f7220746865207a6560008201527f726f206164647265737300000000000000000000000000000000000000000000602082015250565b600061336b602a8361267d565b91506133768261330f565b604082019050919050565b6000602082019050818103600083015261339a8161335e565b9050919050565b7f4552433732314d657461646174613a2055524920717565727920666f72206e6f60008201527f6e6578697374656e7420746f6b656e0000000000000000000000000000000000602082015250565b60006133fd602f8361267d565b9150613408826133a1565b604082019050919050565b6000602082019050818103600083015261342c816133f0565b9050919050565b600081905092915050565b600061344982612672565b6134538185613433565b935061346381856020860161268e565b80840191505092915050565b600061347b828561343e565b9150613487828461343e565b91508190509392505050565b600061349e8261272d565b91506134a98361272d565b9250827fffffffffffffffffffffffffffffffffffffffffffffffffffffffffffffffff038211156134de576134dd613035565b5b828201905092915050565b7f4f776e61626c653a206e6577206f776e657220697320746865207a65726f206160008201527f6464726573730000000000000000000000000000000000000000000000000000602082015250565b600061354560268361267d565b9150613550826134e9565b604082019050919050565b6000602082019050818103600083015261357481613538565b9050919050565b7f4552433732313a206f70657261746f7220717565727920666f72206e6f6e657860008201527f697374656e7420746f6b656e0000000000000000000000000000000000000000602082015250565b60006135d7602c8361267d565b91506135e28261357b565b604082019050919050565b60006020820190508181036000830152613606816135ca565b9050919050565b7f4552433732313a207472616e73666572206f6620746f6b656e2074686174206960008201527f73206e6f74206f776e0000000000000000000000000000000000000000000000602082015250565b600061366960298361267d565b91506136748261360d565b604082019050919050565b600060208201905081810360008301526136988161365c565b9050919050565b7f4552433732313a207472616e7366657220746f20746865207a65726f2061646460008201527f7265737300000000000000000000000000000000000000000000000000000000602082015250565b60006136fb60248361267d565b91506137068261369f565b604082019050919050565b6000602082019050818103600083015261372a816136ee565b9050919050565b7f4552433732313a20617070726f766520746f2063616c6c657200000000000000600082015250565b600061376760198361267d565b915061377282613731565b602082019050919050565b600060208201905081810360008301526137968161375a565b9050919050565b7f4552433732313a207472616e7366657220746f206e6f6e20455243373231526560008201527f63656976657220696d706c656d656e7465720000000000000000000000000000602082015250565b60006137f960328361267d565b91506138048261379d565b604082019050919050565b60006020820190508181036000830152613828816137ec565b9050919050565b600061383a8261272d565b91507fffffffffffffffffffffffffffffffffffffffffffffffffffffffffffffffff82141561386d5761386c613035565b5b600182019050919050565b7f4e487b7100000000000000000000000000000000000000000000000000000000600052601260045260246000fd5b60006138b28261272d565b91506138bd8361272d565b9250826138cd576138cc613878565b5b828204905092915050565b60006138e38261272d565b91506138ee8361272d565b9250826138fe576138fd613878565b5b828206905092915050565b7f4552433732313a206d696e7420746f20746865207a65726f2061646472657373600082015250565b600061393f60208361267d565b915061394a82613909565b602082019050919050565b6000602082019050818103600083015261396e81613932565b9050919050565b7f4552433732313a20746f6b656e20616c7265616479206d696e74656400000000600082015250565b60006139ab601c8361267d565b91506139b682613975565b602082019050919050565b600060208201905081810360008301526139da8161399e565b9050919050565b600081519050919050565b600082825260208201905092915050565b6000613a08826139e1565b613a1281856139ec565b9350613a2281856020860161268e565b613a2b816126c1565b840191505092915050565b6000608082019050613a4b60008301876127c2565b613a5860208301866127c2565b613a656040830185612858565b8181036060830152613a7781846139fd565b905095945050505050565b600081519050613a91816125e3565b92915050565b600060208284031215613aad57613aac6125ad565b5b6000613abb84828501613a82565b91505092915050565b7f4e487b7100000000000000000000000000000000000000000000000000000000600052603160045260246000fdfea2646970667358221220716337671bfc1a12d9da37b6407190f922b0b2af9eed9274ef8d3c488648a7be64736f6c63430008090033",
  "immutableReferences": {},
  "source": "// SPDX-License-Identifier: agpl-3.0\npragma solidity 0.8.9;\n\nimport { IJustCauseERC721 } from './Interfaces.sol';\nimport { JustCauseERC721 } from './JustCauseERC721.sol';\n\ncontract PoolTracker {\n\n    //IJustCauseERC721 constant justCauseERC721 = IJustCauseERC721(address(0x92C20FD55EA32d98EAfE443ee82bf861988e299B)); //kovan\n    JustCauseERC721 justCauseERC721;\n\n    //contract addresses will point to bool if they exist\n    mapping(address => bool) private isPool;\n    mapping(address => address[]) private depositors;\n    mapping(address => address[]) private owners;\n    mapping(string => address) private names;\n    address[] private verifiedPools;\n    bytes32[] validByteCodeHashes;\n\n    event AddVerifiedPools(address addressToAdd);\n    event AddDeposit(address _userAddr, address _pool);\n    event WithdrawDeposit(address _userAddr, address _pool);\n    event OwnerAddress(address _owner, address _pool);\n\n    event MessageSentBy(address sentBy);\n\n    modifier onlyVerifiedByteCode(address pool) {\n        bytes32 v1ByteCodeHash = 0x69e8ff0e7c2b29468c452ea99c81161f9d6137447623140dc2714549e6014d96;\n        require(keccak256(abi.encodePacked(pool.code)) == v1ByteCodeHash, \"byteCode not recognized\");\n        _;\n    }\n\n    modifier onlyPools(address _pool){\n        require(isPool[_pool], \"this function must be called from a pool\");\n        _;\n    }\n\n    constructor () {\n        justCauseERC721 = new JustCauseERC721();\n    }\n\n    function addValidByteCodeHash(bytes32 _hash) public {\n        validByteCodeHashes.push(_hash);\n    }\n\n    function addDeposit(address _userAddr, uint256 _amount, uint256 _liquidityIndex, uint256 _timeStamp, address _asset) onlyPools(msg.sender) external {\n        depositors[_userAddr].push(msg.sender);\n        justCauseERC721.addFunds(_userAddr, _amount, _liquidityIndex, _timeStamp,  msg.sender, _asset);\n        emit AddDeposit(_userAddr, msg.sender);\n        emit MessageSentBy(msg.sender);\n    }\n\n    function withdrawDeposit(address _userAddr,  uint256 _amount, uint256 _timeStamp, address _asset) onlyPools(msg.sender) external {\n        for(uint8 i = 0; i < depositors[_userAddr].length -1; i++){\n            if(depositors[_userAddr][i] == msg.sender){\n                depositors[_userAddr][i] = depositors[_userAddr][depositors[_userAddr].length - 1];\n                break;\n            }\n        }\n        depositors[_userAddr].pop();\n        justCauseERC721.withdrawFunds(_userAddr, _amount, _timeStamp, msg.sender, _asset);\n        emit WithdrawDeposit(_userAddr, msg.sender);\n        emit MessageSentBy(msg.sender);\n    }\n\n    function addVerifiedPools(address _pool, address _owner, string memory _name) external {\n        require(names[_name] == address(0), \"pool with name already exists\");\n        names[_name] =  _pool;\n        verifiedPools.push( _pool);\n        owners[_owner].push( _pool);\n        isPool[_pool] = true;\n        //emit AddVerifiedPools(_pool);\n        //emit MessageSentBy(msg.sender);\n    }\n\n    function getERC721Address() public view returns(address){\n        return address(justCauseERC721);\n    }\n    function getVerifiedPools() public view returns(address [] memory){\n        return verifiedPools;\n    }\n\n    function getUserDeposits(address _userAddr) external view returns(address[] memory){\n        return depositors[_userAddr];\n    }\n\n    function getUserOwned(address _userAddr) external view returns(address[] memory){\n        return owners[_userAddr];\n    }\n\n    function getAddressFromName(string memory name) external view returns(address){\n        return address(this);//names[name];\n    }\n\n    function checkByteCode(address _pool) external view returns(bool) {\n        bool hashMatch = false;\n        bytes32 hashOfPoolCode = keccak256(abi.encodePacked(_pool.code));\n        bytes32[] memory validHashes = validByteCodeHashes;\n\n        for(uint8 i = 0; i < validHashes.length; i++){\n            if(hashOfPoolCode == validHashes[i]){\n                hashMatch = true;\n                break;\n            }\n        }\n        return hashMatch;\n    }\n}",
  "sourcePath": "/home/smeee/just_cause/contracts/PoolTracker.sol",
  "compiler": {
    "name": "solc",
    "version": "0.8.9+commit.e5eed63a.Emscripten.clang"
  },
  "schemaVersion": "3.4.3",
  "updatedAt": "2022-01-25T19:51:49.557Z",
  "networkType": "ethereum",
  "devdoc": {
    "kind": "dev",
    "methods": {},
    "version": 1
  },
  "userdoc": {
    "kind": "user",
    "methods": {},
    "version": 1
  }
}