{
  "contractName": "PoolAddressesProviderMock",
  "abi": [
    {
      "inputs": [],
      "name": "getPool",
      "outputs": [
        {
          "internalType": "address",
          "name": "",
          "type": "address"
        }
      ],
      "stateMutability": "view",
      "type": "function",
      "constant": true
    },
    {
      "inputs": [
        {
          "internalType": "address",
          "name": "newPoolImpl",
          "type": "address"
        }
      ],
      "name": "setPoolImpl",
      "outputs": [],
      "stateMutability": "nonpayable",
      "type": "function"
    }
  ],
  "bytecode": "0x608060405234801561001057600080fd5b506101d1806100206000396000f3fe608060405234801561001057600080fd5b50600436106100365760003560e01c8063026b1d5f1461003b578063a156440614610059575b600080fd5b610043610075565b6040516100509190610122565b60405180910390f35b610073600480360381019061006e919061016e565b61009e565b005b60008060009054906101000a900473ffffffffffffffffffffffffffffffffffffffff16905090565b806000806101000a81548173ffffffffffffffffffffffffffffffffffffffff021916908373ffffffffffffffffffffffffffffffffffffffff16021790555050565b600073ffffffffffffffffffffffffffffffffffffffff82169050919050565b600061010c826100e1565b9050919050565b61011c81610101565b82525050565b60006020820190506101376000830184610113565b92915050565b600080fd5b61014b81610101565b811461015657600080fd5b50565b60008135905061016881610142565b92915050565b6000602082840312156101845761018361013d565b5b600061019284828501610159565b9150509291505056fea2646970667358221220927b3aec7d3435f7d0d46914d38e80b7c67e6ae3ebdd33005546855b77b6daab64736f6c63430008090033",
  "immutableReferences": {},
  "source": "// SPDX-License-Identifier: AGPL-3.0\npragma solidity 0.8.9;\n\ncontract PoolAddressesProviderMock {\n\n    address poolAddr;\n\n     /**\n   * @notice Returns the address of the Pool proxy.\n   * @return The Pool proxy address\n   **/\n  function getPool()\n    external\n    view returns (address){\n      return poolAddr;\n  }\n\n  /**\n   * @notice Updates the implementation of the Pool, or creates a proxy\n   * setting the new `pool` implementation when the function is called for the first time.\n   * @param newPoolImpl The new Pool implementation\n   **/\n  function setPoolImpl(address newPoolImpl)\n    external {\n      poolAddr = newPoolImpl;\n  }\n\n\n}\n\n",
  "sourcePath": "/home/smeee/projects/just_cause/contracts/test/PoolAddressesProviderMock.sol",
  "compiler": {
    "name": "solc",
    "version": "0.8.9+commit.e5eed63a.Emscripten.clang"
  },
  "schemaVersion": "3.4.7",
  "updatedAt": "2022-06-24T15:37:41.147Z",
  "networkType": "ethereum",
  "devdoc": {
    "kind": "dev",
    "methods": {
      "getPool()": {
        "returns": {
          "_0": "The Pool proxy address*"
        }
      },
      "setPoolImpl(address)": {
        "params": {
          "newPoolImpl": "The new Pool implementation*"
        }
      }
    },
    "version": 1
  },
  "userdoc": {
    "kind": "user",
    "methods": {
      "getPool()": {
        "notice": "Returns the address of the Pool proxy."
      },
      "setPoolImpl(address)": {
        "notice": "Updates the implementation of the Pool, or creates a proxy setting the new `pool` implementation when the function is called for the first time."
      }
    },
    "version": 1
  }
}