{
  "contractName": "PoolTracker",
  "abi": [
    {
      "inputs": [
        {
          "internalType": "address",
          "name": "_poolAddressesProviderAddr",
          "type": "address"
        },
        {
          "internalType": "address",
          "name": "_wethGatewayAddr",
          "type": "address"
        }
      ],
      "stateMutability": "nonpayable",
      "type": "constructor"
    },
    {
      "anonymous": false,
      "inputs": [
        {
          "indexed": false,
          "internalType": "address",
          "name": "userAddr",
          "type": "address"
        },
        {
          "indexed": false,
          "internalType": "address",
          "name": "pool",
          "type": "address"
        },
        {
          "indexed": false,
          "internalType": "address",
          "name": "asset",
          "type": "address"
        },
        {
          "indexed": false,
          "internalType": "uint256",
          "name": "amount",
          "type": "uint256"
        }
      ],
      "name": "AddDeposit",
      "type": "event"
    },
    {
      "anonymous": false,
      "inputs": [
        {
          "indexed": false,
          "internalType": "address",
          "name": "pool",
          "type": "address"
        },
        {
          "indexed": false,
          "internalType": "string",
          "name": "name",
          "type": "string"
        },
        {
          "indexed": false,
          "internalType": "address",
          "name": "receiver",
          "type": "address"
        }
      ],
      "name": "AddPool",
      "type": "event"
    },
    {
      "anonymous": false,
      "inputs": [
        {
          "indexed": false,
          "internalType": "address",
          "name": "userAddr",
          "type": "address"
        },
        {
          "indexed": false,
          "internalType": "address",
          "name": "receiver",
          "type": "address"
        },
        {
          "indexed": false,
          "internalType": "address",
          "name": "pool",
          "type": "address"
        },
        {
          "indexed": false,
          "internalType": "address",
          "name": "asset",
          "type": "address"
        },
        {
          "indexed": false,
          "internalType": "uint256",
          "name": "amount",
          "type": "uint256"
        }
      ],
      "name": "Claim",
      "type": "event"
    },
    {
      "anonymous": false,
      "inputs": [
        {
          "indexed": false,
          "internalType": "address[]",
          "name": "aaveAccepted",
          "type": "address[]"
        },
        {
          "indexed": false,
          "internalType": "address[]",
          "name": "causeAccepted",
          "type": "address[]"
        }
      ],
      "name": "Test",
      "type": "event"
    },
    {
      "anonymous": false,
      "inputs": [
        {
          "indexed": false,
          "internalType": "address",
          "name": "userAddr",
          "type": "address"
        },
        {
          "indexed": false,
          "internalType": "address",
          "name": "pool",
          "type": "address"
        },
        {
          "indexed": false,
          "internalType": "address",
          "name": "asset",
          "type": "address"
        },
        {
          "indexed": false,
          "internalType": "uint256",
          "name": "amount",
          "type": "uint256"
        }
      ],
      "name": "WithdrawDeposit",
      "type": "event"
    },
    {
      "inputs": [
        {
          "internalType": "uint256",
          "name": "_amount",
          "type": "uint256"
        },
        {
          "internalType": "address",
          "name": "_asset",
          "type": "address"
        },
        {
          "internalType": "address",
          "name": "_pool",
          "type": "address"
        },
        {
          "internalType": "bool",
          "name": "_isETH",
          "type": "bool"
        }
      ],
      "name": "addDeposit",
      "outputs": [],
      "stateMutability": "payable",
      "type": "function",
      "payable": true
    },
    {
      "inputs": [
        {
          "internalType": "uint256",
          "name": "_amount",
          "type": "uint256"
        },
        {
          "internalType": "address",
          "name": "_asset",
          "type": "address"
        },
        {
          "internalType": "address",
          "name": "_pool",
          "type": "address"
        },
        {
          "internalType": "bool",
          "name": "_isETH",
          "type": "bool"
        }
      ],
      "name": "withdrawDeposit",
      "outputs": [],
      "stateMutability": "nonpayable",
      "type": "function"
    },
    {
      "inputs": [
        {
          "internalType": "address",
          "name": "_asset",
          "type": "address"
        },
        {
          "internalType": "address",
          "name": "_pool",
          "type": "address"
        },
        {
          "internalType": "bool",
          "name": "_isETH",
          "type": "bool"
        }
      ],
      "name": "claimInterest",
      "outputs": [],
      "stateMutability": "nonpayable",
      "type": "function"
    },
    {
      "inputs": [
        {
          "internalType": "address[]",
          "name": "_acceptedTokens",
          "type": "address[]"
        },
        {
          "internalType": "string",
          "name": "_name",
          "type": "string"
        },
        {
          "internalType": "string",
          "name": "_about",
          "type": "string"
        },
        {
          "internalType": "string",
          "name": "_picHash",
          "type": "string"
        },
        {
          "internalType": "string",
          "name": "_metaUri",
          "type": "string"
        },
        {
          "internalType": "address",
          "name": "_receiver",
          "type": "address"
        }
      ],
      "name": "createJCPoolClone",
      "outputs": [],
      "stateMutability": "nonpayable",
      "type": "function"
    },
    {
      "inputs": [
        {
          "internalType": "address",
          "name": "_asset",
          "type": "address"
        }
      ],
      "name": "getTVL",
      "outputs": [
        {
          "internalType": "uint256",
          "name": "",
          "type": "uint256"
        }
      ],
      "stateMutability": "view",
      "type": "function",
      "constant": true
    },
    {
      "inputs": [
        {
          "internalType": "address",
          "name": "_asset",
          "type": "address"
        }
      ],
      "name": "getTotalDonated",
      "outputs": [
        {
          "internalType": "uint256",
          "name": "",
          "type": "uint256"
        }
      ],
      "stateMutability": "view",
      "type": "function",
      "constant": true
    },
    {
      "inputs": [],
      "name": "getDepositorERC721Address",
      "outputs": [
        {
          "internalType": "address",
          "name": "",
          "type": "address"
        }
      ],
      "stateMutability": "view",
      "type": "function",
      "constant": true
    },
    {
      "inputs": [],
      "name": "getOwnerERC721Address",
      "outputs": [
        {
          "internalType": "address",
          "name": "",
          "type": "address"
        }
      ],
      "stateMutability": "view",
      "type": "function",
      "constant": true
    },
    {
      "inputs": [],
      "name": "getValidator",
      "outputs": [
        {
          "internalType": "address",
          "name": "",
          "type": "address"
        }
      ],
      "stateMutability": "view",
      "type": "function",
      "constant": true
    },
    {
      "inputs": [],
      "name": "getPoolAddr",
      "outputs": [
        {
          "internalType": "address",
          "name": "",
          "type": "address"
        }
      ],
      "stateMutability": "view",
      "type": "function",
      "constant": true
    },
    {
      "inputs": [],
      "name": "getReservesList",
      "outputs": [
        {
          "internalType": "address[]",
          "name": "",
          "type": "address[]"
        }
      ],
      "stateMutability": "view",
      "type": "function",
      "constant": true
    },
    {
      "inputs": [],
      "name": "getBaseJCPoolAddress",
      "outputs": [
        {
          "internalType": "address",
          "name": "",
          "type": "address"
        }
      ],
      "stateMutability": "view",
      "type": "function",
      "constant": true
    },
    {
      "inputs": [],
      "name": "getVerifiedPools",
      "outputs": [
        {
          "internalType": "address[]",
          "name": "",
          "type": "address[]"
        }
      ],
      "stateMutability": "view",
      "type": "function",
      "constant": true
    },
    {
      "inputs": [
        {
          "internalType": "address",
          "name": "_pool",
          "type": "address"
        }
      ],
      "name": "checkPool",
      "outputs": [
        {
          "internalType": "bool",
          "name": "",
          "type": "bool"
        }
      ],
      "stateMutability": "view",
      "type": "function",
      "constant": true
    },
    {
      "inputs": [
        {
          "internalType": "string",
          "name": "_name",
          "type": "string"
        }
      ],
      "name": "getAddressFromName",
      "outputs": [
        {
          "internalType": "address",
          "name": "",
          "type": "address"
        }
      ],
      "stateMutability": "view",
      "type": "function",
      "constant": true
    }
  ],
  "bytecode": "0x60806040523480156200001157600080fd5b506040516200ea043803806200ea04833981810160405281019062000037919062000370565b600160008190555033600b60006101000a81548173ffffffffffffffffffffffffffffffffffffffff021916908373ffffffffffffffffffffffffffffffffffffffff160217905550816040516200008f90620002dc565b6200009b9190620003c8565b604051809103906000f080158015620000b8573d6000803e3d6000fd5b50600260006101000a81548173ffffffffffffffffffffffffffffffffffffffff021916908373ffffffffffffffffffffffffffffffffffffffff1602179055506040516200010790620002ea565b604051809103906000f08015801562000124573d6000803e3d6000fd5b50600360006101000a81548173ffffffffffffffffffffffffffffffffffffffff021916908373ffffffffffffffffffffffffffffffffffffffff1602179055506040516200017390620002f8565b604051809103906000f08015801562000190573d6000803e3d6000fd5b50600160006101000a81548173ffffffffffffffffffffffffffffffffffffffff021916908373ffffffffffffffffffffffffffffffffffffffff1602179055508173ffffffffffffffffffffffffffffffffffffffff1663026b1d5f6040518163ffffffff1660e01b815260040160206040518083038186803b1580156200021857600080fd5b505afa1580156200022d573d6000803e3d6000fd5b505050506040513d601f19601f82011682018060405250810190620002539190620003e5565b600960006101000a81548173ffffffffffffffffffffffffffffffffffffffff021916908373ffffffffffffffffffffffffffffffffffffffff16021790555080600a60006101000a81548173ffffffffffffffffffffffffffffffffffffffff021916908373ffffffffffffffffffffffffffffffffffffffff160217905550505062000417565b614d0d806200325a83390190565b613cb78062007f6783390190565b612de6806200bc1e83390190565b600080fd5b600073ffffffffffffffffffffffffffffffffffffffff82169050919050565b600062000338826200030b565b9050919050565b6200034a816200032b565b81146200035657600080fd5b50565b6000815190506200036a816200033f565b92915050565b600080604083850312156200038a576200038962000306565b5b60006200039a8582860162000359565b9250506020620003ad8582860162000359565b9150509250929050565b620003c2816200032b565b82525050565b6000602082019050620003df6000830184620003b7565b92915050565b600060208284031215620003fe57620003fd62000306565b5b60006200040e8482850162000359565b91505092915050565b612e3380620004276000396000f3fe6080604052600436106100e85760003560e01c80635aa388681161008a578063b63ae6ee11610059578063b63ae6ee146102e7578063d1946dbc14610312578063d1df6d4d1461033d578063de2592421461037a576100e8565b80635aa388681461022d5780638e61514e1461025857806390f2bb1614610295578063b47dcb66146102be576100e8565b80631195e07e116100c65780631195e07e146101715780632f28012a1461019c57806330b9d2a7146101c55780633989a67114610202576100e8565b806308f52b3c146100ed5780630c1a4477146101095780630f40517a14610134575b600080fd5b61010760048036038101906101029190611c24565b6103a5565b005b34801561011557600080fd5b5061011e610b06565b60405161012b9190611c9a565b60405180910390f35b34801561014057600080fd5b5061015b60048036038101906101569190611cb5565b610b30565b6040516101689190611cf1565b60405180910390f35b34801561017d57600080fd5b50610186610b79565b6040516101939190611c9a565b60405180910390f35b3480156101a857600080fd5b506101c360048036038101906101be9190611c24565b610ba3565b005b3480156101d157600080fd5b506101ec60048036038101906101e79190611cb5565b610e24565b6040516101f99190611d1b565b60405180910390f35b34801561020e57600080fd5b50610217610e7a565b6040516102249190611c9a565b60405180910390f35b34801561023957600080fd5b50610242610ea4565b60405161024f9190611c9a565b60405180910390f35b34801561026457600080fd5b5061027f600480360381019061027a9190611e7c565b610ece565b60405161028c9190611c9a565b60405180910390f35b3480156102a157600080fd5b506102bc60048036038101906102b79190611ec5565b610f16565b005b3480156102ca57600080fd5b506102e560048036038101906102e09190611fe0565b61130e565b005b3480156102f357600080fd5b506102fc6118c2565b60405161030991906121b7565b60405180910390f35b34801561031e57600080fd5b50610327611950565b60405161033491906121b7565b60405180910390f35b34801561034957600080fd5b50610364600480360381019061035f9190611cb5565b6119fc565b6040516103719190611cf1565b60405180910390f35b34801561038657600080fd5b5061038f611a45565b60405161039c9190611c9a565b60405180910390f35b81600460008273ffffffffffffffffffffffffffffffffffffffff1673ffffffffffffffffffffffffffffffffffffffff16815260200190815260200160002060009054906101000a900460ff16610432576040517f08c379a000000000000000000000000000000000000000000000000000000000815260040161042990612236565b60405180910390fd5b60026000541415610478576040517f08c379a000000000000000000000000000000000000000000000000000000000815260040161046f906122a2565b60405180910390fd5b600260008190555084600660008673ffffffffffffffffffffffffffffffffffffffff1673ffffffffffffffffffffffffffffffffffffffff16815260200190815260200160002060008282546104cf91906122f1565b9250508190555060008373ffffffffffffffffffffffffffffffffffffffff1663373d7c3f6040518163ffffffff1660e01b815260040160006040518083038186803b15801561051e57600080fd5b505afa158015610532573d6000803e3d6000fd5b505050506040513d6000823e3d601f19601f8201168201806040525081019061055b91906123ea565b90506000600960009054906101000a900473ffffffffffffffffffffffffffffffffffffffff169050831561072f578573ffffffffffffffffffffffffffffffffffffffff16600a60009054906101000a900473ffffffffffffffffffffffffffffffffffffffff1673ffffffffffffffffffffffffffffffffffffffff1663affa88176040518163ffffffff1660e01b815260040160206040518083038186803b15801561060957600080fd5b505afa15801561061d573d6000803e3d6000fd5b505050506040513d601f19601f820116820180604052508101906106419190612448565b73ffffffffffffffffffffffffffffffffffffffff1614610697576040517f08c379a000000000000000000000000000000000000000000000000000000000815260040161068e906124e7565b60405180910390fd5b600a60009054906101000a900473ffffffffffffffffffffffffffffffffffffffff1673ffffffffffffffffffffffffffffffffffffffff1663474cf53d34838860006040518563ffffffff1660e01b81526004016106f89392919061255a565b6000604051808303818588803b15801561071157600080fd5b505af1158015610725573d6000803e3d6000fd5b5050505050610993565b6000869050878173ffffffffffffffffffffffffffffffffffffffff1663dd62ed3e33306040518363ffffffff1660e01b8152600401610770929190612591565b60206040518083038186803b15801561078857600080fd5b505afa15801561079c573d6000803e3d6000fd5b505050506040513d601f19601f820116820180604052508101906107c091906125cf565b1015610801576040517f08c379a00000000000000000000000000000000000000000000000000000000081526004016107f890612648565b60405180910390fd5b8073ffffffffffffffffffffffffffffffffffffffff166323b872dd33308b6040518463ffffffff1660e01b815260040161083e93929190612668565b602060405180830381600087803b15801561085857600080fd5b505af115801561086c573d6000803e3d6000fd5b505050506040513d601f19601f8201168201806040525081019061089091906126b4565b508073ffffffffffffffffffffffffffffffffffffffff1663095ea7b3838a6040518363ffffffff1660e01b81526004016108cc9291906126e1565b602060405180830381600087803b1580156108e657600080fd5b505af11580156108fa573d6000803e3d6000fd5b505050506040513d601f19601f8201168201806040525081019061091e91906126b4565b508173ffffffffffffffffffffffffffffffffffffffff1663e8eda9df828a8960006040518563ffffffff1660e01b815260040161095f949392919061270a565b600060405180830381600087803b15801561097957600080fd5b505af115801561098d573d6000803e3d6000fd5b50505050505b8473ffffffffffffffffffffffffffffffffffffffff166347e7ef2487896040518363ffffffff1660e01b81526004016109ce9291906126e1565b600060405180830381600087803b1580156109e857600080fd5b505af11580156109fc573d6000803e3d6000fd5b50505050600260009054906101000a900473ffffffffffffffffffffffffffffffffffffffff1673ffffffffffffffffffffffffffffffffffffffff16631310fef7338942898b886040518763ffffffff1660e01b8152600401610a6596959493929190612793565b602060405180830381600087803b158015610a7f57600080fd5b505af1158015610a93573d6000803e3d6000fd5b505050506040513d601f19601f82011682018060405250810190610ab791906125cf565b507f20ca885e6c573d69bc931b3787127868f5b90568509fb8d4ff6f7102b8d0cd253386888a604051610aed94939291906127fb565b60405180910390a1505060016000819055505050505050565b6000600360009054906101000a900473ffffffffffffffffffffffffffffffffffffffff16905090565b6000600660008373ffffffffffffffffffffffffffffffffffffffff1673ffffffffffffffffffffffffffffffffffffffff168152602001908152602001600020549050919050565b6000600b60009054906101000a900473ffffffffffffffffffffffffffffffffffffffff16905090565b81600460008273ffffffffffffffffffffffffffffffffffffffff1673ffffffffffffffffffffffffffffffffffffffff16815260200190815260200160002060009054906101000a900460ff16610c30576040517f08c379a0000000000000000000000000000000000000000000000000000000008152600401610c2790612236565b60405180910390fd5b60026000541415610c76576040517f08c379a0000000000000000000000000000000000000000000000000000000008152600401610c6d906122a2565b60405180910390fd5b600260008190555084600660008673ffffffffffffffffffffffffffffffffffffffff1673ffffffffffffffffffffffffffffffffffffffff1681526020019081526020016000206000828254610ccd9190612840565b92505081905550600260009054906101000a900473ffffffffffffffffffffffffffffffffffffffff1673ffffffffffffffffffffffffffffffffffffffff16636ba3fef2338786886040518563ffffffff1660e01b8152600401610d359493929190612874565b600060405180830381600087803b158015610d4f57600080fd5b505af1158015610d63573d6000803e3d6000fd5b505050508273ffffffffffffffffffffffffffffffffffffffff166312eeff7e858733866040518563ffffffff1660e01b8152600401610da694939291906128b9565b600060405180830381600087803b158015610dc057600080fd5b505af1158015610dd4573d6000803e3d6000fd5b505050507fa657ed79c074c3489591adb7ba850f38c009bd846e47f2ffe3edc1d06f48a5a433848688604051610e0d94939291906127fb565b60405180910390a160016000819055505050505050565b6000600460008373ffffffffffffffffffffffffffffffffffffffff1673ffffffffffffffffffffffffffffffffffffffff16815260200190815260200160002060009054906101000a900460ff169050919050565b6000600260009054906101000a900473ffffffffffffffffffffffffffffffffffffffff16905090565b6000600160009054906101000a900473ffffffffffffffffffffffffffffffffffffffff16905090565b6000600582604051610ee0919061293a565b908152602001604051809103902060009054906101000a900473ffffffffffffffffffffffffffffffffffffffff169050919050565b81600460008273ffffffffffffffffffffffffffffffffffffffff1673ffffffffffffffffffffffffffffffffffffffff16815260200190815260200160002060009054906101000a900460ff16610fa3576040517f08c379a0000000000000000000000000000000000000000000000000000000008152600401610f9a90612236565b60405180910390fd5b60026000541415610fe9576040517f08c379a0000000000000000000000000000000000000000000000000000000008152600401610fe0906122a2565b60405180910390fd5b6002600081905550836000600960009054906101000a900473ffffffffffffffffffffffffffffffffffffffff1673ffffffffffffffffffffffffffffffffffffffff1663d1946dbc6040518163ffffffff1660e01b815260040160006040518083038186803b15801561105c57600080fd5b505afa158015611070573d6000803e3d6000fd5b505050506040513d6000823e3d601f19601f8201168201806040525081019061109991906129e8565b9050600080600090505b82518160ff16101561111857828160ff16815181106110c5576110c4612a31565b5b602002602001015173ffffffffffffffffffffffffffffffffffffffff168473ffffffffffffffffffffffffffffffffffffffff16141561110557600191505b808061111090612a6d565b9150506110a3565b5080611159576040517f08c379a000000000000000000000000000000000000000000000000000000000815260040161115090612ae3565b60405180910390fd5b60008673ffffffffffffffffffffffffffffffffffffffff1663322ce09e89886040518363ffffffff1660e01b8152600401611196929190612b03565b602060405180830381600087803b1580156111b057600080fd5b505af11580156111c4573d6000803e3d6000fd5b505050506040513d601f19601f820116820180604052508101906111e891906125cf565b905080600760008a73ffffffffffffffffffffffffffffffffffffffff1673ffffffffffffffffffffffffffffffffffffffff168152602001908152602001600020600082825461123991906122f1565b925050819055507f7276c0285f260d667df9ded71ca6a988145d36de1d14252710532b9de5f089fe338873ffffffffffffffffffffffffffffffffffffffff16631b88094d6040518163ffffffff1660e01b815260040160206040518083038186803b1580156112a857600080fd5b505afa1580156112bc573d6000803e3d6000fd5b505050506040513d601f19601f820116820180604052508101906112e09190612448565b898b856040516112f4959493929190612b2c565b60405180910390a150505050600160008190555050505050565b856000600960009054906101000a900473ffffffffffffffffffffffffffffffffffffffff1673ffffffffffffffffffffffffffffffffffffffff1663d1946dbc6040518163ffffffff1660e01b815260040160006040518083038186803b15801561137957600080fd5b505afa15801561138d573d6000803e3d6000fd5b505050506040513d6000823e3d601f19601f820116820180604052508101906113b691906129e8565b905060005b82518160ff1610156114b657600080600090505b83518160ff16101561146157838160ff16815181106113f1576113f0612a31565b5b602002602001015173ffffffffffffffffffffffffffffffffffffffff16858460ff168151811061142557611424612a31565b5b602002602001015173ffffffffffffffffffffffffffffffffffffffff16141561144e57600191505b808061145990612a6d565b9150506113cf565b50806114a2576040517f08c379a000000000000000000000000000000000000000000000000000000000815260040161149990612bcb565b60405180910390fd5b5080806114ae90612a6d565b9150506113bb565b50600073ffffffffffffffffffffffffffffffffffffffff166005886040516114df919061293a565b908152602001604051809103902060009054906101000a900473ffffffffffffffffffffffffffffffffffffffff1673ffffffffffffffffffffffffffffffffffffffff1614611564576040517f08c379a000000000000000000000000000000000000000000000000000000000815260040161155b90612c37565b60405180910390fd5b6000611591600160009054906101000a900473ffffffffffffffffffffffffffffffffffffffff16611a6f565b90506000600b60009054906101000a900473ffffffffffffffffffffffffffffffffffffffff1673ffffffffffffffffffffffffffffffffffffffff163373ffffffffffffffffffffffffffffffffffffffff161415611653576008829080600181540180825580915050600190039060005260206000200160009091909190916101000a81548173ffffffffffffffffffffffffffffffffffffffff021916908373ffffffffffffffffffffffffffffffffffffffff160217905550600190505b8173ffffffffffffffffffffffffffffffffffffffff1663150aefee8b8b8b8b8b8b600960009054906101000a900473ffffffffffffffffffffffffffffffffffffffff16600a60009054906101000a900473ffffffffffffffffffffffffffffffffffffffff168a6040518a63ffffffff1660e01b81526004016116e099989796959493929190612c57565b600060405180830381600087803b1580156116fa57600080fd5b505af115801561170e573d6000803e3d6000fd5b50505050600360009054906101000a900473ffffffffffffffffffffffffffffffffffffffff1673ffffffffffffffffffffffffffffffffffffffff16630c3715558642858a6040518563ffffffff1660e01b81526004016117739493929190612d07565b602060405180830381600087803b15801561178d57600080fd5b505af11580156117a1573d6000803e3d6000fd5b505050506040513d601f19601f820116820180604052508101906117c591906125cf565b508160058a6040516117d7919061293a565b908152602001604051809103902060006101000a81548173ffffffffffffffffffffffffffffffffffffffff021916908373ffffffffffffffffffffffffffffffffffffffff1602179055506001600460008473ffffffffffffffffffffffffffffffffffffffff1673ffffffffffffffffffffffffffffffffffffffff16815260200190815260200160002060006101000a81548160ff0219169083151502179055507f373adb264e07592e89e672b780912566106b06a5f7a7787e63a47ca627e915af828a876040516118ae93929190612d53565b60405180910390a150505050505050505050565b6060600880548060200260200160405190810160405280929190818152602001828054801561194657602002820191906000526020600020905b8160009054906101000a900473ffffffffffffffffffffffffffffffffffffffff1673ffffffffffffffffffffffffffffffffffffffff16815260200190600101908083116118fc575b5050505050905090565b6060600960009054906101000a900473ffffffffffffffffffffffffffffffffffffffff1673ffffffffffffffffffffffffffffffffffffffff1663d1946dbc6040518163ffffffff1660e01b815260040160006040518083038186803b1580156119ba57600080fd5b505afa1580156119ce573d6000803e3d6000fd5b505050506040513d6000823e3d601f19601f820116820180604052508101906119f791906129e8565b905090565b6000600760008373ffffffffffffffffffffffffffffffffffffffff1673ffffffffffffffffffffffffffffffffffffffff168152602001908152602001600020549050919050565b6000600960009054906101000a900473ffffffffffffffffffffffffffffffffffffffff16905090565b60006040517f3d602d80600a3d3981f3363d3d373d3d3d363d7300000000000000000000000081528260601b60148201527f5af43d82803e903d91602b57fd5bf3000000000000000000000000000000000060288201526037816000f0915050600073ffffffffffffffffffffffffffffffffffffffff168173ffffffffffffffffffffffffffffffffffffffff161415611b3f576040517f08c379a0000000000000000000000000000000000000000000000000000000008152600401611b3690612ddd565b60405180910390fd5b919050565b6000604051905090565b600080fd5b600080fd5b6000819050919050565b611b6b81611b58565b8114611b7657600080fd5b50565b600081359050611b8881611b62565b92915050565b600073ffffffffffffffffffffffffffffffffffffffff82169050919050565b6000611bb982611b8e565b9050919050565b611bc981611bae565b8114611bd457600080fd5b50565b600081359050611be681611bc0565b92915050565b60008115159050919050565b611c0181611bec565b8114611c0c57600080fd5b50565b600081359050611c1e81611bf8565b92915050565b60008060008060808587031215611c3e57611c3d611b4e565b5b6000611c4c87828801611b79565b9450506020611c5d87828801611bd7565b9350506040611c6e87828801611bd7565b9250506060611c7f87828801611c0f565b91505092959194509250565b611c9481611bae565b82525050565b6000602082019050611caf6000830184611c8b565b92915050565b600060208284031215611ccb57611cca611b4e565b5b6000611cd984828501611bd7565b91505092915050565b611ceb81611b58565b82525050565b6000602082019050611d066000830184611ce2565b92915050565b611d1581611bec565b82525050565b6000602082019050611d306000830184611d0c565b92915050565b600080fd5b600080fd5b6000601f19601f8301169050919050565b7f4e487b7100000000000000000000000000000000000000000000000000000000600052604160045260246000fd5b611d8982611d40565b810181811067ffffffffffffffff82111715611da857611da7611d51565b5b80604052505050565b6000611dbb611b44565b9050611dc78282611d80565b919050565b600067ffffffffffffffff821115611de757611de6611d51565b5b611df082611d40565b9050602081019050919050565b82818337600083830152505050565b6000611e1f611e1a84611dcc565b611db1565b905082815260208101848484011115611e3b57611e3a611d3b565b5b611e46848285611dfd565b509392505050565b600082601f830112611e6357611e62611d36565b5b8135611e73848260208601611e0c565b91505092915050565b600060208284031215611e9257611e91611b4e565b5b600082013567ffffffffffffffff811115611eb057611eaf611b53565b5b611ebc84828501611e4e565b91505092915050565b600080600060608486031215611ede57611edd611b4e565b5b6000611eec86828701611bd7565b9350506020611efd86828701611bd7565b9250506040611f0e86828701611c0f565b9150509250925092565b600067ffffffffffffffff821115611f3357611f32611d51565b5b602082029050602081019050919050565b600080fd5b6000611f5c611f5784611f18565b611db1565b90508083825260208201905060208402830185811115611f7f57611f7e611f44565b5b835b81811015611fa85780611f948882611bd7565b845260208401935050602081019050611f81565b5050509392505050565b600082601f830112611fc757611fc6611d36565b5b8135611fd7848260208601611f49565b91505092915050565b60008060008060008060c08789031215611ffd57611ffc611b4e565b5b600087013567ffffffffffffffff81111561201b5761201a611b53565b5b61202789828a01611fb2565b965050602087013567ffffffffffffffff81111561204857612047611b53565b5b61205489828a01611e4e565b955050604087013567ffffffffffffffff81111561207557612074611b53565b5b61208189828a01611e4e565b945050606087013567ffffffffffffffff8111156120a2576120a1611b53565b5b6120ae89828a01611e4e565b935050608087013567ffffffffffffffff8111156120cf576120ce611b53565b5b6120db89828a01611e4e565b92505060a06120ec89828a01611bd7565b9150509295509295509295565b600081519050919050565b600082825260208201905092915050565b6000819050602082019050919050565b61212e81611bae565b82525050565b60006121408383612125565b60208301905092915050565b6000602082019050919050565b6000612164826120f9565b61216e8185612104565b935061217983612115565b8060005b838110156121aa5781516121918882612134565b975061219c8361214c565b92505060018101905061217d565b5085935050505092915050565b600060208201905081810360008301526121d18184612159565b905092915050565b600082825260208201905092915050565b7f6e6f7420706f6f6c000000000000000000000000000000000000000000000000600082015250565b60006122206008836121d9565b915061222b826121ea565b602082019050919050565b6000602082019050818103600083015261224f81612213565b9050919050565b7f5265656e7472616e637947756172643a207265656e7472616e742063616c6c00600082015250565b600061228c601f836121d9565b915061229782612256565b602082019050919050565b600060208201905081810360008301526122bb8161227f565b9050919050565b7f4e487b7100000000000000000000000000000000000000000000000000000000600052601160045260246000fd5b60006122fc82611b58565b915061230783611b58565b9250827fffffffffffffffffffffffffffffffffffffffffffffffffffffffffffffffff0382111561233c5761233b6122c2565b5b828201905092915050565b60005b8381101561236557808201518184015260208101905061234a565b83811115612374576000848401525b50505050565b600061238d61238884611dcc565b611db1565b9050828152602081018484840111156123a9576123a8611d3b565b5b6123b4848285612347565b509392505050565b600082601f8301126123d1576123d0611d36565b5b81516123e184826020860161237a565b91505092915050565b600060208284031215612400576123ff611b4e565b5b600082015167ffffffffffffffff81111561241e5761241d611b53565b5b61242a848285016123bc565b91505092915050565b60008151905061244281611bc0565b92915050565b60006020828403121561245e5761245d611b4e565b5b600061246c84828501612433565b91505092915050565b7f5f617373657420646f6573206e6f74206d61746368205745544847617465776160008201527f7900000000000000000000000000000000000000000000000000000000000000602082015250565b60006124d16021836121d9565b91506124dc82612475565b604082019050919050565b60006020820190508181036000830152612500816124c4565b9050919050565b6000819050919050565b600061ffff82169050919050565b6000819050919050565b600061254461253f61253a84612507565b61251f565b612511565b9050919050565b61255481612529565b82525050565b600060608201905061256f6000830186611c8b565b61257c6020830185611c8b565b612589604083018461254b565b949350505050565b60006040820190506125a66000830185611c8b565b6125b36020830184611c8b565b9392505050565b6000815190506125c981611b62565b92915050565b6000602082840312156125e5576125e4611b4e565b5b60006125f3848285016125ba565b91505092915050565b7f73656e646572206e6f7420617070726f76656400000000000000000000000000600082015250565b60006126326013836121d9565b915061263d826125fc565b602082019050919050565b6000602082019050818103600083015261266181612625565b9050919050565b600060608201905061267d6000830186611c8b565b61268a6020830185611c8b565b6126976040830184611ce2565b949350505050565b6000815190506126ae81611bf8565b92915050565b6000602082840312156126ca576126c9611b4e565b5b60006126d88482850161269f565b91505092915050565b60006040820190506126f66000830185611c8b565b6127036020830184611ce2565b9392505050565b600060808201905061271f6000830187611c8b565b61272c6020830186611ce2565b6127396040830185611c8b565b612746606083018461254b565b95945050505050565b600081519050919050565b60006127658261274f565b61276f81856121d9565b935061277f818560208601612347565b61278881611d40565b840191505092915050565b600060c0820190506127a86000830189611c8b565b6127b56020830188611ce2565b6127c26040830187611ce2565b6127cf6060830186611c8b565b6127dc6080830185611c8b565b81810360a08301526127ee818461275a565b9050979650505050505050565b60006080820190506128106000830187611c8b565b61281d6020830186611c8b565b61282a6040830185611c8b565b6128376060830184611ce2565b95945050505050565b600061284b82611b58565b915061285683611b58565b925082821015612869576128686122c2565b5b828203905092915050565b60006080820190506128896000830187611c8b565b6128966020830186611ce2565b6128a36040830185611c8b565b6128b06060830184611c8b565b95945050505050565b60006080820190506128ce6000830187611c8b565b6128db6020830186611ce2565b6128e86040830185611c8b565b6128f56060830184611d0c565b95945050505050565b600081905092915050565b60006129148261274f565b61291e81856128fe565b935061292e818560208601612347565b80840191505092915050565b60006129468284612909565b915081905092915050565b600061296461295f84611f18565b611db1565b9050808382526020820190506020840283018581111561298757612986611f44565b5b835b818110156129b0578061299c8882612433565b845260208401935050602081019050612989565b5050509392505050565b600082601f8301126129cf576129ce611d36565b5b81516129df848260208601612951565b91505092915050565b6000602082840312156129fe576129fd611b4e565b5b600082015167ffffffffffffffff811115612a1c57612a1b611b53565b5b612a28848285016129ba565b91505092915050565b7f4e487b7100000000000000000000000000000000000000000000000000000000600052603260045260246000fd5b600060ff82169050919050565b6000612a7882612a60565b915060ff821415612a8c57612a8b6122c2565b5b600182019050919050565b7f746f6b656e206e6f7420617070726f7665640000000000000000000000000000600082015250565b6000612acd6012836121d9565b9150612ad882612a97565b602082019050919050565b60006020820190508181036000830152612afc81612ac0565b9050919050565b6000604082019050612b186000830185611c8b565b612b256020830184611d0c565b9392505050565b600060a082019050612b416000830188611c8b565b612b4e6020830187611c8b565b612b5b6040830186611c8b565b612b686060830185611c8b565b612b756080830184611ce2565b9695505050505050565b7f746f6b656e73206e6f7420617070726f76656400000000000000000000000000600082015250565b6000612bb56013836121d9565b9150612bc082612b7f565b602082019050919050565b60006020820190508181036000830152612be481612ba8565b9050919050565b7f706f6f6c2077697468206e616d6520616c726561647920657869737473000000600082015250565b6000612c21601d836121d9565b9150612c2c82612beb565b602082019050919050565b60006020820190508181036000830152612c5081612c14565b9050919050565b6000610120820190508181036000830152612c72818c612159565b90508181036020830152612c86818b61275a565b90508181036040830152612c9a818a61275a565b90508181036060830152612cae818961275a565b90508181036080830152612cc2818861275a565b9050612cd160a0830187611c8b565b612cde60c0830186611c8b565b612ceb60e0830185611c8b565b612cf9610100830184611d0c565b9a9950505050505050505050565b6000608082019050612d1c6000830187611c8b565b612d296020830186611ce2565b612d366040830185611c8b565b8181036060830152612d48818461275a565b905095945050505050565b6000606082019050612d686000830186611c8b565b8181036020830152612d7a818561275a565b9050612d896040830184611c8b565b949350505050565b7f455243313136373a20637265617465206661696c656400000000000000000000600082015250565b6000612dc76016836121d9565b9150612dd282612d91565b602082019050919050565b60006020820190508181036000830152612df681612dba565b905091905056fea26469706673582212200e05c62d2df1231916133b1b2dc334704086bb41b4ea9f93a564b989a87531dc64736f6c6343000809003360806040523480156200001157600080fd5b5060405162004d0d38038062004d0d83398181016040528101906200003791906200040b565b6040518060400160405280601581526020017f4a435020436f6e7472696275746f7220546f6b656e00000000000000000000008152506040518060400160405280600481526020017f4a435043000000000000000000000000000000000000000000000000000000008152508160009080519060200190620000bb929190620002f1565b508060019080519060200190620000d4929190620002f1565b505050620000f7620000eb6200022360201b60201c565b6200022b60201b60201c565b80600c60006101000a81548173ffffffffffffffffffffffffffffffffffffffff021916908373ffffffffffffffffffffffffffffffffffffffff160217905550600c60009054906101000a900473ffffffffffffffffffffffffffffffffffffffff1673ffffffffffffffffffffffffffffffffffffffff1663026b1d5f6040518163ffffffff1660e01b815260040160206040518083038186803b158015620001a157600080fd5b505afa158015620001b6573d6000803e3d6000fd5b505050506040513d601f19601f82011682018060405250810190620001dc91906200040b565b600d60006101000a81548173ffffffffffffffffffffffffffffffffffffffff021916908373ffffffffffffffffffffffffffffffffffffffff16021790555050620004a2565b600033905090565b6000600b60009054906101000a900473ffffffffffffffffffffffffffffffffffffffff16905081600b60006101000a81548173ffffffffffffffffffffffffffffffffffffffff021916908373ffffffffffffffffffffffffffffffffffffffff1602179055508173ffffffffffffffffffffffffffffffffffffffff168173ffffffffffffffffffffffffffffffffffffffff167f8be0079c531659141344cd1fd0a4f28419497f9722a3daafe3b4186f6b6457e060405160405180910390a35050565b828054620002ff906200046c565b90600052602060002090601f0160209004810192826200032357600085556200036f565b82601f106200033e57805160ff19168380011785556200036f565b828001600101855582156200036f579182015b828111156200036e57825182559160200191906001019062000351565b5b5090506200037e919062000382565b5090565b5b808211156200039d57600081600090555060010162000383565b5090565b600080fd5b600073ffffffffffffffffffffffffffffffffffffffff82169050919050565b6000620003d382620003a6565b9050919050565b620003e581620003c6565b8114620003f157600080fd5b50565b6000815190506200040581620003da565b92915050565b600060208284031215620004245762000423620003a1565b5b60006200043484828501620003f4565b91505092915050565b7f4e487b7100000000000000000000000000000000000000000000000000000000600052602260045260246000fd5b600060028204905060018216806200048557607f821691505b602082108114156200049c576200049b6200043d565b5b50919050565b61485b80620004b26000396000f3fe608060405234801561001057600080fd5b50600436106101735760003560e01c80636352211e116100de57806395d89b4111610097578063c87b56dd11610071578063c87b56dd14610482578063d15e0053146104b2578063e985e9c5146104e2578063f2fde38b1461051257610173565b806395d89b411461042c578063a22cb4651461044a578063b88d4fde1461046657610173565b80636352211e146103585780636ba3fef21461038857806370a08231146103a4578063715018a6146103d45780638aebe8d6146103de5780638da5cb5b1461040e57610173565b806323b872dd1161013057806323b872dd146102605780632e0c3f3c1461027c5780632f745c59146102ac57806342842e0e146102dc5780634f6ccce7146102f85780635328c2bf1461032857610173565b806301ffc9a71461017857806306fdde03146101a8578063081812fc146101c6578063095ea7b3146101f65780631310fef71461021257806318160ddd14610242575b600080fd5b610192600480360381019061018d9190612c33565b61052e565b60405161019f9190612c7b565b60405180910390f35b6101b0610540565b6040516101bd9190612d2f565b60405180910390f35b6101e060048036038101906101db9190612d87565b6105d2565b6040516101ed9190612df5565b60405180910390f35b610210600480360381019061020b9190612e3c565b610657565b005b61022c60048036038101906102279190612fb1565b61076f565b6040516102399190613069565b60405180910390f35b61024a6109ff565b6040516102579190613069565b60405180910390f35b61027a60048036038101906102759190613084565b610a0c565b005b61029660048036038101906102919190612d87565b610a6c565b6040516102a39190613069565b60405180910390f35b6102c660048036038101906102c19190612e3c565b610a8c565b6040516102d39190613069565b60405180910390f35b6102f660048036038101906102f19190613084565b610b31565b005b610312600480360381019061030d9190612d87565b610b51565b60405161031f9190613069565b60405180910390f35b610342600480360381019061033d9190612d87565b610bc2565b60405161034f919061315d565b60405180910390f35b610372600480360381019061036d9190612d87565b610cb9565b60405161037f9190612df5565b60405180910390f35b6103a2600480360381019061039d9190613178565b610d6b565b005b6103be60048036038101906103b991906131df565b610f75565b6040516103cb9190613069565b60405180910390f35b6103dc61102d565b005b6103f860048036038101906103f391906131df565b6110b5565b6040516104059190613069565b60405180910390f35b610416611180565b6040516104239190612df5565b60405180910390f35b6104346111aa565b6040516104419190612d2f565b60405180910390f35b610464600480360381019061045f9190613238565b61123c565b005b610480600480360381019061047b9190613319565b611252565b005b61049c60048036038101906104979190612d87565b6112b4565b6040516104a99190612d2f565b60405180910390f35b6104cc60048036038101906104c791906131df565b6112c6565b6040516104d99190613069565b60405180910390f35b6104fc60048036038101906104f7919061339c565b61137a565b6040516105099190612c7b565b60405180910390f35b61052c600480360381019061052791906131df565b61140e565b005b600061053982611506565b9050919050565b60606000805461054f9061340b565b80601f016020809104026020016040519081016040528092919081815260200182805461057b9061340b565b80156105c85780601f1061059d576101008083540402835291602001916105c8565b820191906000526020600020905b8154815290600101906020018083116105ab57829003601f168201915b5050505050905090565b60006105dd82611580565b61061c576040517f08c379a0000000000000000000000000000000000000000000000000000000008152600401610613906134af565b60405180910390fd5b6004600083815260200190815260200160002060009054906101000a900473ffffffffffffffffffffffffffffffffffffffff169050919050565b600061066282610cb9565b90508073ffffffffffffffffffffffffffffffffffffffff168373ffffffffffffffffffffffffffffffffffffffff1614156106d3576040517f08c379a00000000000000000000000000000000000000000000000000000000081526004016106ca90613541565b60405180910390fd5b8073ffffffffffffffffffffffffffffffffffffffff166106f26115ec565b73ffffffffffffffffffffffffffffffffffffffff16148061072157506107208161071b6115ec565b61137a565b5b610760576040517f08c379a0000000000000000000000000000000000000000000000000000000008152600401610757906135d3565b60405180910390fd5b61076a83836115f4565b505050565b60006107796115ec565b73ffffffffffffffffffffffffffffffffffffffff16610797611180565b73ffffffffffffffffffffffffffffffffffffffff16146107ed576040517f08c379a00000000000000000000000000000000000000000000000000000000081526004016107e49061363f565b60405180910390fd5b6000878585604051602001610804939291906136a7565b6040516020818303038152906040528051906020012060001c9050600061082a856110b5565b905061083582611580565b156108bd5786600e60008481526020019081526020016000206001018190555087600e6000848152602001908152602001600020600001600082825461087b9190613713565b9250508190555061088c88826116ad565b600e600084815260200190815260200160002060020160008282546108b19190613713565b925050819055506109f0565b6040518060a001604052808981526020018881526020016108de8a846116ad565b81526020018773ffffffffffffffffffffffffffffffffffffffff1681526020018673ffffffffffffffffffffffffffffffffffffffff16815250600e600084815260200190815260200160002060008201518160000155602082015181600101556040820151816002015560608201518160030160006101000a81548173ffffffffffffffffffffffffffffffffffffffff021916908373ffffffffffffffffffffffffffffffffffffffff16021790555060808201518160040160006101000a81548173ffffffffffffffffffffffffffffffffffffffff021916908373ffffffffffffffffffffffffffffffffffffffff1602179055509050506109e589836117b9565b6109ef8285611987565b5b81925050509695505050505050565b6000600880549050905090565b610a1d610a176115ec565b826119fb565b610a5c576040517f08c379a0000000000000000000000000000000000000000000000000000000008152600401610a53906137db565b60405180910390fd5b610a67838383611ad9565b505050565b6000600e6000838152602001908152602001600020600001549050919050565b6000610a9783610f75565b8210610ad8576040517f08c379a0000000000000000000000000000000000000000000000000000000008152600401610acf9061386d565b60405180910390fd5b600660008473ffffffffffffffffffffffffffffffffffffffff1673ffffffffffffffffffffffffffffffffffffffff168152602001908152602001600020600083815260200190815260200160002054905092915050565b610b4c83838360405180602001604052806000815250611252565b505050565b6000610b5b6109ff565b8210610b9c576040517f08c379a0000000000000000000000000000000000000000000000000000000008152600401610b93906138ff565b60405180910390fd5b60088281548110610bb057610baf61391f565b5b90600052602060002001549050919050565b610bca612ac9565b600e60008381526020019081526020016000206040518060a00160405290816000820154815260200160018201548152602001600282015481526020016003820160009054906101000a900473ffffffffffffffffffffffffffffffffffffffff1673ffffffffffffffffffffffffffffffffffffffff1673ffffffffffffffffffffffffffffffffffffffff1681526020016004820160009054906101000a900473ffffffffffffffffffffffffffffffffffffffff1673ffffffffffffffffffffffffffffffffffffffff1673ffffffffffffffffffffffffffffffffffffffff16815250509050919050565b6000806002600084815260200190815260200160002060009054906101000a900473ffffffffffffffffffffffffffffffffffffffff169050600073ffffffffffffffffffffffffffffffffffffffff168173ffffffffffffffffffffffffffffffffffffffff161415610d62576040517f08c379a0000000000000000000000000000000000000000000000000000000008152600401610d59906139c0565b60405180910390fd5b80915050919050565b610d736115ec565b73ffffffffffffffffffffffffffffffffffffffff16610d91611180565b73ffffffffffffffffffffffffffffffffffffffff1614610de7576040517f08c379a0000000000000000000000000000000000000000000000000000000008152600401610dde9061363f565b60405180910390fd5b6000848383604051602001610dfe939291906136a7565b6040516020818303038152906040528051906020012060001c9050610e2281611580565b610e61576040517f08c379a0000000000000000000000000000000000000000000000000000000008152600401610e5890613a2c565b60405180910390fd5b6000600e600083815260200190815260200160002060000154905084811015610ebf576040517f08c379a0000000000000000000000000000000000000000000000000000000008152600401610eb690613a98565b60405180910390fd5b8481610ecb9190613ab8565b90506000811415610f13576000600e6000848152602001908152602001600020600101819055506000600e600084815260200190815260200160002060020181905550610f52565b610f2585610f20856110b5565b6116ad565b600e60008481526020019081526020016000206002016000828254610f4a9190613ab8565b925050819055505b80600e600084815260200190815260200160002060000181905550505050505050565b60008073ffffffffffffffffffffffffffffffffffffffff168273ffffffffffffffffffffffffffffffffffffffff161415610fe6576040517f08c379a0000000000000000000000000000000000000000000000000000000008152600401610fdd90613b5e565b60405180910390fd5b600360008373ffffffffffffffffffffffffffffffffffffffff1673ffffffffffffffffffffffffffffffffffffffff168152602001908152602001600020549050919050565b6110356115ec565b73ffffffffffffffffffffffffffffffffffffffff16611053611180565b73ffffffffffffffffffffffffffffffffffffffff16146110a9576040517f08c379a00000000000000000000000000000000000000000000000000000000081526004016110a09061363f565b60405180910390fd5b6110b36000611d35565b565b6000600d60009054906101000a900473ffffffffffffffffffffffffffffffffffffffff1673ffffffffffffffffffffffffffffffffffffffff166335ea6a75836040518263ffffffff1660e01b81526004016111129190612df5565b6101e06040518083038186803b15801561112b57600080fd5b505afa15801561113f573d6000803e3d6000fd5b505050506040513d601f19601f820116820180604052508101906111639190613e0c565b602001516fffffffffffffffffffffffffffffffff169050919050565b6000600b60009054906101000a900473ffffffffffffffffffffffffffffffffffffffff16905090565b6060600180546111b99061340b565b80601f01602080910402602001604051908101604052809291908181526020018280546111e59061340b565b80156112325780601f1061120757610100808354040283529160200191611232565b820191906000526020600020905b81548152906001019060200180831161121557829003601f168201915b5050505050905090565b61124e6112476115ec565b8383611dfb565b5050565b61126361125d6115ec565b836119fb565b6112a2576040517f08c379a0000000000000000000000000000000000000000000000000000000008152600401611299906137db565b60405180910390fd5b6112ae84848484611f68565b50505050565b60606112bf82611fc4565b9050919050565b6000600d60009054906101000a900473ffffffffffffffffffffffffffffffffffffffff1673ffffffffffffffffffffffffffffffffffffffff1663d15e0053836040518263ffffffff1660e01b81526004016113239190612df5565b60206040518083038186803b15801561133b57600080fd5b505afa15801561134f573d6000803e3d6000fd5b505050506040513d601f19601f820116820180604052508101906113739190613e3a565b9050919050565b6000600560008473ffffffffffffffffffffffffffffffffffffffff1673ffffffffffffffffffffffffffffffffffffffff16815260200190815260200160002060008373ffffffffffffffffffffffffffffffffffffffff1673ffffffffffffffffffffffffffffffffffffffff16815260200190815260200160002060009054906101000a900460ff16905092915050565b6114166115ec565b73ffffffffffffffffffffffffffffffffffffffff16611434611180565b73ffffffffffffffffffffffffffffffffffffffff161461148a576040517f08c379a00000000000000000000000000000000000000000000000000000000081526004016114819061363f565b60405180910390fd5b600073ffffffffffffffffffffffffffffffffffffffff168173ffffffffffffffffffffffffffffffffffffffff1614156114fa576040517f08c379a00000000000000000000000000000000000000000000000000000000081526004016114f190613ed9565b60405180910390fd5b61150381611d35565b50565b60007f780e9d63000000000000000000000000000000000000000000000000000000007bffffffffffffffffffffffffffffffffffffffffffffffffffffffff1916827bffffffffffffffffffffffffffffffffffffffffffffffffffffffff19161480611579575061157882612116565b5b9050919050565b60008073ffffffffffffffffffffffffffffffffffffffff166002600084815260200190815260200160002060009054906101000a900473ffffffffffffffffffffffffffffffffffffffff1673ffffffffffffffffffffffffffffffffffffffff1614159050919050565b600033905090565b816004600083815260200190815260200160002060006101000a81548173ffffffffffffffffffffffffffffffffffffffff021916908373ffffffffffffffffffffffffffffffffffffffff160217905550808273ffffffffffffffffffffffffffffffffffffffff1661166783610cb9565b73ffffffffffffffffffffffffffffffffffffffff167f8c5be1e5ebec7d5bd14f71427d1e84f3dd0314c0f7b2291e5b200ac8c7c3b92560405160405180910390a45050565b6000808214156116f2576040517f08c379a00000000000000000000000000000000000000000000000000000000081526004016116e990613f45565b60405180910390fd5b60006002836117019190613f94565b905060006b033b2e3c9fd0803ce8000000905080827fffffffffffffffffffffffffffffffffffffffffffffffffffffffffffffffff6117419190613ab8565b61174b9190613f94565b85111561178d576040517f08c379a000000000000000000000000000000000000000000000000000000000815260040161178490614011565b60405180910390fd5b8382828761179b9190614031565b6117a59190613713565b6117af9190613f94565b9250505092915050565b600073ffffffffffffffffffffffffffffffffffffffff168273ffffffffffffffffffffffffffffffffffffffff161415611829576040517f08c379a0000000000000000000000000000000000000000000000000000000008152600401611820906140d7565b60405180910390fd5b61183281611580565b15611872576040517f08c379a000000000000000000000000000000000000000000000000000000000815260040161186990614143565b60405180910390fd5b61187e600083836121f8565b6001600360008473ffffffffffffffffffffffffffffffffffffffff1673ffffffffffffffffffffffffffffffffffffffff16815260200190815260200160002060008282546118ce9190613713565b92505081905550816002600083815260200190815260200160002060006101000a81548173ffffffffffffffffffffffffffffffffffffffff021916908373ffffffffffffffffffffffffffffffffffffffff160217905550808273ffffffffffffffffffffffffffffffffffffffff16600073ffffffffffffffffffffffffffffffffffffffff167fddf252ad1be2c89b69c2b068fc378daa952ba7f163c4a11628f55a4df523b3ef60405160405180910390a45050565b61199082611580565b6119cf576040517f08c379a00000000000000000000000000000000000000000000000000000000081526004016119c6906141d5565b60405180910390fd5b80600a600084815260200190815260200160002090805190602001906119f6929190612b24565b505050565b6000611a0682611580565b611a45576040517f08c379a0000000000000000000000000000000000000000000000000000000008152600401611a3c90614267565b60405180910390fd5b6000611a5083610cb9565b90508073ffffffffffffffffffffffffffffffffffffffff168473ffffffffffffffffffffffffffffffffffffffff161480611abf57508373ffffffffffffffffffffffffffffffffffffffff16611aa7846105d2565b73ffffffffffffffffffffffffffffffffffffffff16145b80611ad05750611acf818561137a565b5b91505092915050565b8273ffffffffffffffffffffffffffffffffffffffff16611af982610cb9565b73ffffffffffffffffffffffffffffffffffffffff1614611b4f576040517f08c379a0000000000000000000000000000000000000000000000000000000008152600401611b46906142f9565b60405180910390fd5b600073ffffffffffffffffffffffffffffffffffffffff168273ffffffffffffffffffffffffffffffffffffffff161415611bbf576040517f08c379a0000000000000000000000000000000000000000000000000000000008152600401611bb69061438b565b60405180910390fd5b611bca8383836121f8565b611bd56000826115f4565b6001600360008573ffffffffffffffffffffffffffffffffffffffff1673ffffffffffffffffffffffffffffffffffffffff1681526020019081526020016000206000828254611c259190613ab8565b925050819055506001600360008473ffffffffffffffffffffffffffffffffffffffff1673ffffffffffffffffffffffffffffffffffffffff1681526020019081526020016000206000828254611c7c9190613713565b92505081905550816002600083815260200190815260200160002060006101000a81548173ffffffffffffffffffffffffffffffffffffffff021916908373ffffffffffffffffffffffffffffffffffffffff160217905550808273ffffffffffffffffffffffffffffffffffffffff168473ffffffffffffffffffffffffffffffffffffffff167fddf252ad1be2c89b69c2b068fc378daa952ba7f163c4a11628f55a4df523b3ef60405160405180910390a4505050565b6000600b60009054906101000a900473ffffffffffffffffffffffffffffffffffffffff16905081600b60006101000a81548173ffffffffffffffffffffffffffffffffffffffff021916908373ffffffffffffffffffffffffffffffffffffffff1602179055508173ffffffffffffffffffffffffffffffffffffffff168173ffffffffffffffffffffffffffffffffffffffff167f8be0079c531659141344cd1fd0a4f28419497f9722a3daafe3b4186f6b6457e060405160405180910390a35050565b8173ffffffffffffffffffffffffffffffffffffffff168373ffffffffffffffffffffffffffffffffffffffff161415611e6a576040517f08c379a0000000000000000000000000000000000000000000000000000000008152600401611e61906143f7565b60405180910390fd5b80600560008573ffffffffffffffffffffffffffffffffffffffff1673ffffffffffffffffffffffffffffffffffffffff16815260200190815260200160002060008473ffffffffffffffffffffffffffffffffffffffff1673ffffffffffffffffffffffffffffffffffffffff16815260200190815260200160002060006101000a81548160ff0219169083151502179055508173ffffffffffffffffffffffffffffffffffffffff168373ffffffffffffffffffffffffffffffffffffffff167f17307eab39ab6107e8899845ad3d59bd9653f200f220920489ca2b5937696c3183604051611f5b9190612c7b565b60405180910390a3505050565b611f73848484611ad9565b611f7f84848484612277565b611fbe576040517f08c379a0000000000000000000000000000000000000000000000000000000008152600401611fb590614489565b60405180910390fd5b50505050565b6060611fcf82611580565b61200e576040517f08c379a00000000000000000000000000000000000000000000000000000000081526004016120059061451b565b60405180910390fd5b6000600a6000848152602001908152602001600020805461202e9061340b565b80601f016020809104026020016040519081016040528092919081815260200182805461205a9061340b565b80156120a75780601f1061207c576101008083540402835291602001916120a7565b820191906000526020600020905b81548152906001019060200180831161208a57829003601f168201915b5050505050905060006120b861240e565b90506000815114156120ce578192505050612111565b6000825111156121035780826040516020016120eb929190614577565b60405160208183030381529060405292505050612111565b61210c84612425565b925050505b919050565b60007f80ac58cd000000000000000000000000000000000000000000000000000000007bffffffffffffffffffffffffffffffffffffffffffffffffffffffff1916827bffffffffffffffffffffffffffffffffffffffffffffffffffffffff191614806121e157507f5b5e139f000000000000000000000000000000000000000000000000000000007bffffffffffffffffffffffffffffffffffffffffffffffffffffffff1916827bffffffffffffffffffffffffffffffffffffffffffffffffffffffff1916145b806121f157506121f0826124cc565b5b9050919050565b600073ffffffffffffffffffffffffffffffffffffffff168373ffffffffffffffffffffffffffffffffffffffff1614612267576040517f08c379a000000000000000000000000000000000000000000000000000000000815260040161225e906145e7565b60405180910390fd5b612272838383612536565b505050565b60006122988473ffffffffffffffffffffffffffffffffffffffff1661264a565b15612401578373ffffffffffffffffffffffffffffffffffffffff1663150b7a026122c16115ec565b8786866040518563ffffffff1660e01b81526004016122e3949392919061465c565b602060405180830381600087803b1580156122fd57600080fd5b505af192505050801561232e57506040513d601f19601f8201168201806040525081019061232b91906146bd565b60015b6123b1573d806000811461235e576040519150601f19603f3d011682016040523d82523d6000602084013e612363565b606091505b506000815114156123a9576040517f08c379a00000000000000000000000000000000000000000000000000000000081526004016123a090614489565b60405180910390fd5b805181602001fd5b63150b7a0260e01b7bffffffffffffffffffffffffffffffffffffffffffffffffffffffff1916817bffffffffffffffffffffffffffffffffffffffffffffffffffffffff191614915050612406565b600190505b949350505050565b606060405180602001604052806000815250905090565b606061243082611580565b61246f576040517f08c379a00000000000000000000000000000000000000000000000000000000081526004016124669061475c565b60405180910390fd5b600061247961240e565b9050600081511161249957604051806020016040528060008152506124c4565b806124a38461265d565b6040516020016124b4929190614577565b6040516020818303038152906040525b915050919050565b60007f01ffc9a7000000000000000000000000000000000000000000000000000000007bffffffffffffffffffffffffffffffffffffffffffffffffffffffff1916827bffffffffffffffffffffffffffffffffffffffffffffffffffffffff1916149050919050565b6125418383836127be565b600073ffffffffffffffffffffffffffffffffffffffff168373ffffffffffffffffffffffffffffffffffffffff1614156125845761257f816127c3565b6125c3565b8173ffffffffffffffffffffffffffffffffffffffff168373ffffffffffffffffffffffffffffffffffffffff16146125c2576125c1838261280c565b5b5b600073ffffffffffffffffffffffffffffffffffffffff168273ffffffffffffffffffffffffffffffffffffffff1614156126065761260181612979565b612645565b8273ffffffffffffffffffffffffffffffffffffffff168273ffffffffffffffffffffffffffffffffffffffff1614612644576126438282612a4a565b5b5b505050565b600080823b905060008111915050919050565b606060008214156126a5576040518060400160405280600181526020017f300000000000000000000000000000000000000000000000000000000000000081525090506127b9565b600082905060005b600082146126d75780806126c09061477c565b915050600a826126d09190613f94565b91506126ad565b60008167ffffffffffffffff8111156126f3576126f2612e86565b5b6040519080825280601f01601f1916602001820160405280156127255781602001600182028036833780820191505090505b5090505b600085146127b25760018261273e9190613ab8565b9150600a8561274d91906147c5565b60306127599190613713565b60f81b81838151811061276f5761276e61391f565b5b60200101907effffffffffffffffffffffffffffffffffffffffffffffffffffffffffffff1916908160001a905350600a856127ab9190613f94565b9450612729565b8093505050505b919050565b505050565b6008805490506009600083815260200190815260200160002081905550600881908060018154018082558091505060019003906000526020600020016000909190919091505550565b6000600161281984610f75565b6128239190613ab8565b9050600060076000848152602001908152602001600020549050818114612908576000600660008673ffffffffffffffffffffffffffffffffffffffff1673ffffffffffffffffffffffffffffffffffffffff168152602001908152602001600020600084815260200190815260200160002054905080600660008773ffffffffffffffffffffffffffffffffffffffff1673ffffffffffffffffffffffffffffffffffffffff168152602001908152602001600020600084815260200190815260200160002081905550816007600083815260200190815260200160002081905550505b6007600084815260200190815260200160002060009055600660008573ffffffffffffffffffffffffffffffffffffffff1673ffffffffffffffffffffffffffffffffffffffff16815260200190815260200160002060008381526020019081526020016000206000905550505050565b6000600160088054905061298d9190613ab8565b90506000600960008481526020019081526020016000205490506000600883815481106129bd576129bc61391f565b5b9060005260206000200154905080600883815481106129df576129de61391f565b5b906000526020600020018190555081600960008381526020019081526020016000208190555060096000858152602001908152602001600020600090556008805480612a2e57612a2d6147f6565b5b6001900381819060005260206000200160009055905550505050565b6000612a5583610f75565b905081600660008573ffffffffffffffffffffffffffffffffffffffff1673ffffffffffffffffffffffffffffffffffffffff168152602001908152602001600020600083815260200190815260200160002081905550806007600084815260200190815260200160002081905550505050565b6040518060a00160405280600081526020016000815260200160008152602001600073ffffffffffffffffffffffffffffffffffffffff168152602001600073ffffffffffffffffffffffffffffffffffffffff1681525090565b828054612b309061340b565b90600052602060002090601f016020900481019282612b525760008555612b99565b82601f10612b6b57805160ff1916838001178555612b99565b82800160010185558215612b99579182015b82811115612b98578251825591602001919060010190612b7d565b5b509050612ba69190612baa565b5090565b5b80821115612bc3576000816000905550600101612bab565b5090565b6000604051905090565b600080fd5b600080fd5b60007fffffffff0000000000000000000000000000000000000000000000000000000082169050919050565b612c1081612bdb565b8114612c1b57600080fd5b50565b600081359050612c2d81612c07565b92915050565b600060208284031215612c4957612c48612bd1565b5b6000612c5784828501612c1e565b91505092915050565b60008115159050919050565b612c7581612c60565b82525050565b6000602082019050612c906000830184612c6c565b92915050565b600081519050919050565b600082825260208201905092915050565b60005b83811015612cd0578082015181840152602081019050612cb5565b83811115612cdf576000848401525b50505050565b6000601f19601f8301169050919050565b6000612d0182612c96565b612d0b8185612ca1565b9350612d1b818560208601612cb2565b612d2481612ce5565b840191505092915050565b60006020820190508181036000830152612d498184612cf6565b905092915050565b6000819050919050565b612d6481612d51565b8114612d6f57600080fd5b50565b600081359050612d8181612d5b565b92915050565b600060208284031215612d9d57612d9c612bd1565b5b6000612dab84828501612d72565b91505092915050565b600073ffffffffffffffffffffffffffffffffffffffff82169050919050565b6000612ddf82612db4565b9050919050565b612def81612dd4565b82525050565b6000602082019050612e0a6000830184612de6565b92915050565b612e1981612dd4565b8114612e2457600080fd5b50565b600081359050612e3681612e10565b92915050565b60008060408385031215612e5357612e52612bd1565b5b6000612e6185828601612e27565b9250506020612e7285828601612d72565b9150509250929050565b600080fd5b600080fd5b7f4e487b7100000000000000000000000000000000000000000000000000000000600052604160045260246000fd5b612ebe82612ce5565b810181811067ffffffffffffffff82111715612edd57612edc612e86565b5b80604052505050565b6000612ef0612bc7565b9050612efc8282612eb5565b919050565b600067ffffffffffffffff821115612f1c57612f1b612e86565b5b612f2582612ce5565b9050602081019050919050565b82818337600083830152505050565b6000612f54612f4f84612f01565b612ee6565b905082815260208101848484011115612f7057612f6f612e81565b5b612f7b848285612f32565b509392505050565b600082601f830112612f9857612f97612e7c565b5b8135612fa8848260208601612f41565b91505092915050565b60008060008060008060c08789031215612fce57612fcd612bd1565b5b6000612fdc89828a01612e27565b9650506020612fed89828a01612d72565b9550506040612ffe89828a01612d72565b945050606061300f89828a01612e27565b935050608061302089828a01612e27565b92505060a087013567ffffffffffffffff81111561304157613040612bd6565b5b61304d89828a01612f83565b9150509295509295509295565b61306381612d51565b82525050565b600060208201905061307e600083018461305a565b92915050565b60008060006060848603121561309d5761309c612bd1565b5b60006130ab86828701612e27565b93505060206130bc86828701612e27565b92505060406130cd86828701612d72565b9150509250925092565b6130e081612d51565b82525050565b6130ef81612dd4565b82525050565b60a08201600082015161310b60008501826130d7565b50602082015161311e60208501826130d7565b50604082015161313160408501826130d7565b50606082015161314460608501826130e6565b50608082015161315760808501826130e6565b50505050565b600060a08201905061317260008301846130f5565b92915050565b6000806000806080858703121561319257613191612bd1565b5b60006131a087828801612e27565b94505060206131b187828801612d72565b93505060406131c287828801612e27565b92505060606131d387828801612e27565b91505092959194509250565b6000602082840312156131f5576131f4612bd1565b5b600061320384828501612e27565b91505092915050565b61321581612c60565b811461322057600080fd5b50565b6000813590506132328161320c565b92915050565b6000806040838503121561324f5761324e612bd1565b5b600061325d85828601612e27565b925050602061326e85828601613223565b9150509250929050565b600067ffffffffffffffff82111561329357613292612e86565b5b61329c82612ce5565b9050602081019050919050565b60006132bc6132b784613278565b612ee6565b9050828152602081018484840111156132d8576132d7612e81565b5b6132e3848285612f32565b509392505050565b600082601f830112613300576132ff612e7c565b5b81356133108482602086016132a9565b91505092915050565b6000806000806080858703121561333357613332612bd1565b5b600061334187828801612e27565b945050602061335287828801612e27565b935050604061336387828801612d72565b925050606085013567ffffffffffffffff81111561338457613383612bd6565b5b613390878288016132eb565b91505092959194509250565b600080604083850312156133b3576133b2612bd1565b5b60006133c185828601612e27565b92505060206133d285828601612e27565b9150509250929050565b7f4e487b7100000000000000000000000000000000000000000000000000000000600052602260045260246000fd5b6000600282049050600182168061342357607f821691505b60208210811415613437576134366133dc565b5b50919050565b7f4552433732313a20617070726f76656420717565727920666f72206e6f6e657860008201527f697374656e7420746f6b656e0000000000000000000000000000000000000000602082015250565b6000613499602c83612ca1565b91506134a48261343d565b604082019050919050565b600060208201905081810360008301526134c88161348c565b9050919050565b7f4552433732313a20617070726f76616c20746f2063757272656e74206f776e6560008201527f7200000000000000000000000000000000000000000000000000000000000000602082015250565b600061352b602183612ca1565b9150613536826134cf565b604082019050919050565b6000602082019050818103600083015261355a8161351e565b9050919050565b7f4552433732313a20617070726f76652063616c6c6572206973206e6f74206f7760008201527f6e6572206e6f7220617070726f76656420666f7220616c6c0000000000000000602082015250565b60006135bd603883612ca1565b91506135c882613561565b604082019050919050565b600060208201905081810360008301526135ec816135b0565b9050919050565b7f4f776e61626c653a2063616c6c6572206973206e6f7420746865206f776e6572600082015250565b6000613629602083612ca1565b9150613634826135f3565b602082019050919050565b600060208201905081810360008301526136588161361c565b9050919050565b60008160601b9050919050565b60006136778261365f565b9050919050565b60006136898261366c565b9050919050565b6136a161369c82612dd4565b61367e565b82525050565b60006136b38286613690565b6014820191506136c38285613690565b6014820191506136d38284613690565b601482019150819050949350505050565b7f4e487b7100000000000000000000000000000000000000000000000000000000600052601160045260246000fd5b600061371e82612d51565b915061372983612d51565b9250827fffffffffffffffffffffffffffffffffffffffffffffffffffffffffffffffff0382111561375e5761375d6136e4565b5b828201905092915050565b7f4552433732313a207472616e736665722063616c6c6572206973206e6f74206f60008201527f776e6572206e6f7220617070726f766564000000000000000000000000000000602082015250565b60006137c5603183612ca1565b91506137d082613769565b604082019050919050565b600060208201905081810360008301526137f4816137b8565b9050919050565b7f455243373231456e756d657261626c653a206f776e657220696e646578206f7560008201527f74206f6620626f756e6473000000000000000000000000000000000000000000602082015250565b6000613857602b83612ca1565b9150613862826137fb565b604082019050919050565b600060208201905081810360008301526138868161384a565b9050919050565b7f455243373231456e756d657261626c653a20676c6f62616c20696e646578206f60008201527f7574206f6620626f756e64730000000000000000000000000000000000000000602082015250565b60006138e9602c83612ca1565b91506138f48261388d565b604082019050919050565b60006020820190508181036000830152613918816138dc565b9050919050565b7f4e487b7100000000000000000000000000000000000000000000000000000000600052603260045260246000fd5b7f4552433732313a206f776e657220717565727920666f72206e6f6e657869737460008201527f656e7420746f6b656e0000000000000000000000000000000000000000000000602082015250565b60006139aa602983612ca1565b91506139b58261394e565b604082019050919050565b600060208201905081810360008301526139d98161399d565b9050919050565b7f746f6b656e496420646f65736e27742065786973740000000000000000000000600082015250565b6000613a16601583612ca1565b9150613a21826139e0565b602082019050919050565b60006020820190508181036000830152613a4581613a09565b9050919050565b7f696e73756666696369656e742062616c616e6365000000000000000000000000600082015250565b6000613a82601483612ca1565b9150613a8d82613a4c565b602082019050919050565b60006020820190508181036000830152613ab181613a75565b9050919050565b6000613ac382612d51565b9150613ace83612d51565b925082821015613ae157613ae06136e4565b5b828203905092915050565b7f4552433732313a2062616c616e636520717565727920666f7220746865207a6560008201527f726f206164647265737300000000000000000000000000000000000000000000602082015250565b6000613b48602a83612ca1565b9150613b5382613aec565b604082019050919050565b60006020820190508181036000830152613b7781613b3b565b9050919050565b600080fd5b600081519050613b9281612d5b565b92915050565b600060208284031215613bae57613bad613b7e565b5b613bb86020612ee6565b90506000613bc884828501613b83565b60008301525092915050565b60006fffffffffffffffffffffffffffffffff82169050919050565b613bf981613bd4565b8114613c0457600080fd5b50565b600081519050613c1681613bf0565b92915050565b600064ffffffffff82169050919050565b613c3681613c1c565b8114613c4157600080fd5b50565b600081519050613c5381613c2d565b92915050565b600061ffff82169050919050565b613c7081613c59565b8114613c7b57600080fd5b50565b600081519050613c8d81613c67565b92915050565b600081519050613ca281612e10565b92915050565b60006101e08284031215613cbf57613cbe613b7e565b5b613cca6101e0612ee6565b90506000613cda84828501613b98565b6000830152506020613cee84828501613c07565b6020830152506040613d0284828501613c07565b6040830152506060613d1684828501613c07565b6060830152506080613d2a84828501613c07565b60808301525060a0613d3e84828501613c07565b60a08301525060c0613d5284828501613c44565b60c08301525060e0613d6684828501613c7e565b60e083015250610100613d7b84828501613c93565b61010083015250610120613d9184828501613c93565b61012083015250610140613da784828501613c93565b61014083015250610160613dbd84828501613c93565b61016083015250610180613dd384828501613c07565b610180830152506101a0613de984828501613c07565b6101a0830152506101c0613dff84828501613c07565b6101c08301525092915050565b60006101e08284031215613e2357613e22612bd1565b5b6000613e3184828501613ca8565b91505092915050565b600060208284031215613e5057613e4f612bd1565b5b6000613e5e84828501613b83565b91505092915050565b7f4f776e61626c653a206e6577206f776e657220697320746865207a65726f206160008201527f6464726573730000000000000000000000000000000000000000000000000000602082015250565b6000613ec3602683612ca1565b9150613ece82613e67565b604082019050919050565b60006020820190508181036000830152613ef281613eb6565b9050919050565b7f6469766973696f6e206279203000000000000000000000000000000000000000600082015250565b6000613f2f600d83612ca1565b9150613f3a82613ef9565b602082019050919050565b60006020820190508181036000830152613f5e81613f22565b9050919050565b7f4e487b7100000000000000000000000000000000000000000000000000000000600052601260045260246000fd5b6000613f9f82612d51565b9150613faa83612d51565b925082613fba57613fb9613f65565b5b828204905092915050565b7f6d756c7469706c69636174696f6e206f766572666c6f77000000000000000000600082015250565b6000613ffb601783612ca1565b915061400682613fc5565b602082019050919050565b6000602082019050818103600083015261402a81613fee565b9050919050565b600061403c82612d51565b915061404783612d51565b9250817fffffffffffffffffffffffffffffffffffffffffffffffffffffffffffffffff04831182151516156140805761407f6136e4565b5b828202905092915050565b7f4552433732313a206d696e7420746f20746865207a65726f2061646472657373600082015250565b60006140c1602083612ca1565b91506140cc8261408b565b602082019050919050565b600060208201905081810360008301526140f0816140b4565b9050919050565b7f4552433732313a20746f6b656e20616c7265616479206d696e74656400000000600082015250565b600061412d601c83612ca1565b9150614138826140f7565b602082019050919050565b6000602082019050818103600083015261415c81614120565b9050919050565b7f45524337323155524953746f726167653a2055524920736574206f66206e6f6e60008201527f6578697374656e7420746f6b656e000000000000000000000000000000000000602082015250565b60006141bf602e83612ca1565b91506141ca82614163565b604082019050919050565b600060208201905081810360008301526141ee816141b2565b9050919050565b7f4552433732313a206f70657261746f7220717565727920666f72206e6f6e657860008201527f697374656e7420746f6b656e0000000000000000000000000000000000000000602082015250565b6000614251602c83612ca1565b915061425c826141f5565b604082019050919050565b6000602082019050818103600083015261428081614244565b9050919050565b7f4552433732313a207472616e73666572206f6620746f6b656e2074686174206960008201527f73206e6f74206f776e0000000000000000000000000000000000000000000000602082015250565b60006142e3602983612ca1565b91506142ee82614287565b604082019050919050565b60006020820190508181036000830152614312816142d6565b9050919050565b7f4552433732313a207472616e7366657220746f20746865207a65726f2061646460008201527f7265737300000000000000000000000000000000000000000000000000000000602082015250565b6000614375602483612ca1565b915061438082614319565b604082019050919050565b600060208201905081810360008301526143a481614368565b9050919050565b7f4552433732313a20617070726f766520746f2063616c6c657200000000000000600082015250565b60006143e1601983612ca1565b91506143ec826143ab565b602082019050919050565b60006020820190508181036000830152614410816143d4565b9050919050565b7f4552433732313a207472616e7366657220746f206e6f6e20455243373231526560008201527f63656976657220696d706c656d656e7465720000000000000000000000000000602082015250565b6000614473603283612ca1565b915061447e82614417565b604082019050919050565b600060208201905081810360008301526144a281614466565b9050919050565b7f45524337323155524953746f726167653a2055524920717565727920666f722060008201527f6e6f6e6578697374656e7420746f6b656e000000000000000000000000000000602082015250565b6000614505603183612ca1565b9150614510826144a9565b604082019050919050565b60006020820190508181036000830152614534816144f8565b9050919050565b600081905092915050565b600061455182612c96565b61455b818561453b565b935061456b818560208601612cb2565b80840191505092915050565b60006145838285614546565b915061458f8284614546565b91508190509392505050565b7f6e6f6e2d7472616e736665727261626c65000000000000000000000000000000600082015250565b60006145d1601183612ca1565b91506145dc8261459b565b602082019050919050565b60006020820190508181036000830152614600816145c4565b9050919050565b600081519050919050565b600082825260208201905092915050565b600061462e82614607565b6146388185614612565b9350614648818560208601612cb2565b61465181612ce5565b840191505092915050565b60006080820190506146716000830187612de6565b61467e6020830186612de6565b61468b604083018561305a565b818103606083015261469d8184614623565b905095945050505050565b6000815190506146b781612c07565b92915050565b6000602082840312156146d3576146d2612bd1565b5b60006146e1848285016146a8565b91505092915050565b7f4552433732314d657461646174613a2055524920717565727920666f72206e6f60008201527f6e6578697374656e7420746f6b656e0000000000000000000000000000000000602082015250565b6000614746602f83612ca1565b9150614751826146ea565b604082019050919050565b6000602082019050818103600083015261477581614739565b9050919050565b600061478782612d51565b91507fffffffffffffffffffffffffffffffffffffffffffffffffffffffffffffffff8214156147ba576147b96136e4565b5b600182019050919050565b60006147d082612d51565b91506147db83612d51565b9250826147eb576147ea613f65565b5b828206905092915050565b7f4e487b7100000000000000000000000000000000000000000000000000000000600052603160045260246000fdfea264697066735822122077ca9d13ad91233bb7d6292e089f72a1f65a3ad555c57145e41df6564394cd2764736f6c6343000809003360806040523480156200001157600080fd5b506040518060400160405280600f81526020017f4a4350204f776e657220546f6b656e00000000000000000000000000000000008152506040518060400160405280600c81526020017f4a4350545f544553545f4f310000000000000000000000000000000000000000815250816000908051906020019062000096929190620001a6565b508060019080519060200190620000af929190620001a6565b505050620000d2620000c6620000d860201b60201c565b620000e060201b60201c565b620002bb565b600033905090565b6000600b60009054906101000a900473ffffffffffffffffffffffffffffffffffffffff16905081600b60006101000a81548173ffffffffffffffffffffffffffffffffffffffff021916908373ffffffffffffffffffffffffffffffffffffffff1602179055508173ffffffffffffffffffffffffffffffffffffffff168173ffffffffffffffffffffffffffffffffffffffff167f8be0079c531659141344cd1fd0a4f28419497f9722a3daafe3b4186f6b6457e060405160405180910390a35050565b828054620001b49062000285565b90600052602060002090601f016020900481019282620001d8576000855562000224565b82601f10620001f357805160ff191683800117855562000224565b8280016001018555821562000224579182015b828111156200022357825182559160200191906001019062000206565b5b50905062000233919062000237565b5090565b5b808211156200025257600081600090555060010162000238565b5090565b7f4e487b7100000000000000000000000000000000000000000000000000000000600052602260045260246000fd5b600060028204905060018216806200029e57607f821691505b60208210811415620002b557620002b462000256565b5b50919050565b6139ec80620002cb6000396000f3fe608060405234801561001057600080fd5b50600436106101375760003560e01c80636352211e116100b8578063a22cb4651161007c578063a22cb46514610362578063b88d4fde1461037e578063c6fdbc901461039a578063c87b56dd146103ca578063e985e9c5146103fa578063f2fde38b1461042a57610137565b80636352211e146102bc57806370a08231146102ec578063715018a61461031c5780638da5cb5b1461032657806395d89b411461034457610137565b806318160ddd116100ff57806318160ddd1461020657806323b872dd146102245780632f745c591461024057806342842e0e146102705780634f6ccce71461028c57610137565b806301ffc9a71461013c57806306fdde031461016c578063081812fc1461018a578063095ea7b3146101ba5780630c371555146101d6575b600080fd5b6101566004803603810190610151919061246e565b610446565b60405161016391906124b6565b60405180910390f35b610174610458565b604051610181919061256a565b60405180910390f35b6101a4600480360381019061019f91906125c2565b6104ea565b6040516101b19190612630565b60405180910390f35b6101d460048036038101906101cf9190612677565b61056f565b005b6101f060048036038101906101eb91906127ec565b610687565b6040516101fd919061287e565b60405180910390f35b61020e6107cf565b60405161021b919061287e565b60405180910390f35b61023e60048036038101906102399190612899565b6107dc565b005b61025a60048036038101906102559190612677565b61083c565b604051610267919061287e565b60405180910390f35b61028a60048036038101906102859190612899565b6108e1565b005b6102a660048036038101906102a191906125c2565b610901565b6040516102b3919061287e565b60405180910390f35b6102d660048036038101906102d191906125c2565b610972565b6040516102e39190612630565b60405180910390f35b610306600480360381019061030191906128ec565b610a24565b604051610313919061287e565b60405180910390f35b610324610adc565b005b61032e610b64565b60405161033b9190612630565b60405180910390f35b61034c610b8e565b604051610359919061256a565b60405180910390f35b61037c60048036038101906103779190612945565b610c20565b005b61039860048036038101906103939190612a26565b610c36565b005b6103b460048036038101906103af91906125c2565b610c98565b6040516103c19190612af6565b60405180910390f35b6103e460048036038101906103df91906125c2565b610d25565b6040516103f1919061256a565b60405180910390f35b610414600480360381019061040f9190612b11565b610d37565b60405161042191906124b6565b60405180910390f35b610444600480360381019061043f91906128ec565b610dcb565b005b600061045182610ec3565b9050919050565b60606000805461046790612b80565b80601f016020809104026020016040519081016040528092919081815260200182805461049390612b80565b80156104e05780601f106104b5576101008083540402835291602001916104e0565b820191906000526020600020905b8154815290600101906020018083116104c357829003601f168201915b5050505050905090565b60006104f582610f3d565b610534576040517f08c379a000000000000000000000000000000000000000000000000000000000815260040161052b90612c24565b60405180910390fd5b6004600083815260200190815260200160002060009054906101000a900473ffffffffffffffffffffffffffffffffffffffff169050919050565b600061057a82610972565b90508073ffffffffffffffffffffffffffffffffffffffff168373ffffffffffffffffffffffffffffffffffffffff1614156105eb576040517f08c379a00000000000000000000000000000000000000000000000000000000081526004016105e290612cb6565b60405180910390fd5b8073ffffffffffffffffffffffffffffffffffffffff1661060a610fa9565b73ffffffffffffffffffffffffffffffffffffffff161480610639575061063881610633610fa9565b610d37565b5b610678576040517f08c379a000000000000000000000000000000000000000000000000000000000815260040161066f90612d48565b60405180910390fd5b6106828383610fb1565b505050565b6000610691610fa9565b73ffffffffffffffffffffffffffffffffffffffff166106af610b64565b73ffffffffffffffffffffffffffffffffffffffff1614610705576040517f08c379a00000000000000000000000000000000000000000000000000000000081526004016106fc90612db4565b60405180910390fd5b61070f600c61106a565b600061071b600c611080565b905060405180604001604052808681526020018573ffffffffffffffffffffffffffffffffffffffff16815250600d60008381526020019081526020016000206000820151816000015560208201518160010160006101000a81548173ffffffffffffffffffffffffffffffffffffffff021916908373ffffffffffffffffffffffffffffffffffffffff1602179055509050506107b9868261108e565b6107c3818461125c565b80915050949350505050565b6000600880549050905090565b6107ed6107e7610fa9565b826112d0565b61082c576040517f08c379a000000000000000000000000000000000000000000000000000000000815260040161082390612e46565b60405180910390fd5b6108378383836113ae565b505050565b600061084783610a24565b8210610888576040517f08c379a000000000000000000000000000000000000000000000000000000000815260040161087f90612ed8565b60405180910390fd5b600660008473ffffffffffffffffffffffffffffffffffffffff1673ffffffffffffffffffffffffffffffffffffffff168152602001908152602001600020600083815260200190815260200160002054905092915050565b6108fc83838360405180602001604052806000815250610c36565b505050565b600061090b6107cf565b821061094c576040517f08c379a000000000000000000000000000000000000000000000000000000000815260040161094390612f6a565b60405180910390fd5b600882815481106109605761095f612f8a565b5b90600052602060002001549050919050565b6000806002600084815260200190815260200160002060009054906101000a900473ffffffffffffffffffffffffffffffffffffffff169050600073ffffffffffffffffffffffffffffffffffffffff168173ffffffffffffffffffffffffffffffffffffffff161415610a1b576040517f08c379a0000000000000000000000000000000000000000000000000000000008152600401610a129061302b565b60405180910390fd5b80915050919050565b60008073ffffffffffffffffffffffffffffffffffffffff168273ffffffffffffffffffffffffffffffffffffffff161415610a95576040517f08c379a0000000000000000000000000000000000000000000000000000000008152600401610a8c906130bd565b60405180910390fd5b600360008373ffffffffffffffffffffffffffffffffffffffff1673ffffffffffffffffffffffffffffffffffffffff168152602001908152602001600020549050919050565b610ae4610fa9565b73ffffffffffffffffffffffffffffffffffffffff16610b02610b64565b73ffffffffffffffffffffffffffffffffffffffff1614610b58576040517f08c379a0000000000000000000000000000000000000000000000000000000008152600401610b4f90612db4565b60405180910390fd5b610b62600061160a565b565b6000600b60009054906101000a900473ffffffffffffffffffffffffffffffffffffffff16905090565b606060018054610b9d90612b80565b80601f0160208091040260200160405190810160405280929190818152602001828054610bc990612b80565b8015610c165780601f10610beb57610100808354040283529160200191610c16565b820191906000526020600020905b815481529060010190602001808311610bf957829003601f168201915b5050505050905090565b610c32610c2b610fa9565b83836116d0565b5050565b610c47610c41610fa9565b836112d0565b610c86576040517f08c379a0000000000000000000000000000000000000000000000000000000008152600401610c7d90612e46565b60405180910390fd5b610c928484848461183d565b50505050565b610ca061232f565b600d6000838152602001908152602001600020604051806040016040529081600082015481526020016001820160009054906101000a900473ffffffffffffffffffffffffffffffffffffffff1673ffffffffffffffffffffffffffffffffffffffff1673ffffffffffffffffffffffffffffffffffffffff16815250509050919050565b6060610d3082611899565b9050919050565b6000600560008473ffffffffffffffffffffffffffffffffffffffff1673ffffffffffffffffffffffffffffffffffffffff16815260200190815260200160002060008373ffffffffffffffffffffffffffffffffffffffff1673ffffffffffffffffffffffffffffffffffffffff16815260200190815260200160002060009054906101000a900460ff16905092915050565b610dd3610fa9565b73ffffffffffffffffffffffffffffffffffffffff16610df1610b64565b73ffffffffffffffffffffffffffffffffffffffff1614610e47576040517f08c379a0000000000000000000000000000000000000000000000000000000008152600401610e3e90612db4565b60405180910390fd5b600073ffffffffffffffffffffffffffffffffffffffff168173ffffffffffffffffffffffffffffffffffffffff161415610eb7576040517f08c379a0000000000000000000000000000000000000000000000000000000008152600401610eae9061314f565b60405180910390fd5b610ec08161160a565b50565b60007f780e9d63000000000000000000000000000000000000000000000000000000007bffffffffffffffffffffffffffffffffffffffffffffffffffffffff1916827bffffffffffffffffffffffffffffffffffffffffffffffffffffffff19161480610f365750610f35826119eb565b5b9050919050565b60008073ffffffffffffffffffffffffffffffffffffffff166002600084815260200190815260200160002060009054906101000a900473ffffffffffffffffffffffffffffffffffffffff1673ffffffffffffffffffffffffffffffffffffffff1614159050919050565b600033905090565b816004600083815260200190815260200160002060006101000a81548173ffffffffffffffffffffffffffffffffffffffff021916908373ffffffffffffffffffffffffffffffffffffffff160217905550808273ffffffffffffffffffffffffffffffffffffffff1661102483610972565b73ffffffffffffffffffffffffffffffffffffffff167f8c5be1e5ebec7d5bd14f71427d1e84f3dd0314c0f7b2291e5b200ac8c7c3b92560405160405180910390a45050565b6001816000016000828254019250508190555050565b600081600001549050919050565b600073ffffffffffffffffffffffffffffffffffffffff168273ffffffffffffffffffffffffffffffffffffffff1614156110fe576040517f08c379a00000000000000000000000000000000000000000000000000000000081526004016110f5906131bb565b60405180910390fd5b61110781610f3d565b15611147576040517f08c379a000000000000000000000000000000000000000000000000000000000815260040161113e90613227565b60405180910390fd5b61115360008383611acd565b6001600360008473ffffffffffffffffffffffffffffffffffffffff1673ffffffffffffffffffffffffffffffffffffffff16815260200190815260200160002060008282546111a39190613276565b92505081905550816002600083815260200190815260200160002060006101000a81548173ffffffffffffffffffffffffffffffffffffffff021916908373ffffffffffffffffffffffffffffffffffffffff160217905550808273ffffffffffffffffffffffffffffffffffffffff16600073ffffffffffffffffffffffffffffffffffffffff167fddf252ad1be2c89b69c2b068fc378daa952ba7f163c4a11628f55a4df523b3ef60405160405180910390a45050565b61126582610f3d565b6112a4576040517f08c379a000000000000000000000000000000000000000000000000000000000815260040161129b9061333e565b60405180910390fd5b80600a600084815260200190815260200160002090805190602001906112cb92919061235f565b505050565b60006112db82610f3d565b61131a576040517f08c379a0000000000000000000000000000000000000000000000000000000008152600401611311906133d0565b60405180910390fd5b600061132583610972565b90508073ffffffffffffffffffffffffffffffffffffffff168473ffffffffffffffffffffffffffffffffffffffff16148061139457508373ffffffffffffffffffffffffffffffffffffffff1661137c846104ea565b73ffffffffffffffffffffffffffffffffffffffff16145b806113a557506113a48185610d37565b5b91505092915050565b8273ffffffffffffffffffffffffffffffffffffffff166113ce82610972565b73ffffffffffffffffffffffffffffffffffffffff1614611424576040517f08c379a000000000000000000000000000000000000000000000000000000000815260040161141b90613462565b60405180910390fd5b600073ffffffffffffffffffffffffffffffffffffffff168273ffffffffffffffffffffffffffffffffffffffff161415611494576040517f08c379a000000000000000000000000000000000000000000000000000000000815260040161148b906134f4565b60405180910390fd5b61149f838383611acd565b6114aa600082610fb1565b6001600360008573ffffffffffffffffffffffffffffffffffffffff1673ffffffffffffffffffffffffffffffffffffffff16815260200190815260200160002060008282546114fa9190613514565b925050819055506001600360008473ffffffffffffffffffffffffffffffffffffffff1673ffffffffffffffffffffffffffffffffffffffff16815260200190815260200160002060008282546115519190613276565b92505081905550816002600083815260200190815260200160002060006101000a81548173ffffffffffffffffffffffffffffffffffffffff021916908373ffffffffffffffffffffffffffffffffffffffff160217905550808273ffffffffffffffffffffffffffffffffffffffff168473ffffffffffffffffffffffffffffffffffffffff167fddf252ad1be2c89b69c2b068fc378daa952ba7f163c4a11628f55a4df523b3ef60405160405180910390a4505050565b6000600b60009054906101000a900473ffffffffffffffffffffffffffffffffffffffff16905081600b60006101000a81548173ffffffffffffffffffffffffffffffffffffffff021916908373ffffffffffffffffffffffffffffffffffffffff1602179055508173ffffffffffffffffffffffffffffffffffffffff168173ffffffffffffffffffffffffffffffffffffffff167f8be0079c531659141344cd1fd0a4f28419497f9722a3daafe3b4186f6b6457e060405160405180910390a35050565b8173ffffffffffffffffffffffffffffffffffffffff168373ffffffffffffffffffffffffffffffffffffffff16141561173f576040517f08c379a000000000000000000000000000000000000000000000000000000000815260040161173690613594565b60405180910390fd5b80600560008573ffffffffffffffffffffffffffffffffffffffff1673ffffffffffffffffffffffffffffffffffffffff16815260200190815260200160002060008473ffffffffffffffffffffffffffffffffffffffff1673ffffffffffffffffffffffffffffffffffffffff16815260200190815260200160002060006101000a81548160ff0219169083151502179055508173ffffffffffffffffffffffffffffffffffffffff168373ffffffffffffffffffffffffffffffffffffffff167f17307eab39ab6107e8899845ad3d59bd9653f200f220920489ca2b5937696c318360405161183091906124b6565b60405180910390a3505050565b6118488484846113ae565b61185484848484611add565b611893576040517f08c379a000000000000000000000000000000000000000000000000000000000815260040161188a90613626565b60405180910390fd5b50505050565b60606118a482610f3d565b6118e3576040517f08c379a00000000000000000000000000000000000000000000000000000000081526004016118da906136b8565b60405180910390fd5b6000600a6000848152602001908152602001600020805461190390612b80565b80601f016020809104026020016040519081016040528092919081815260200182805461192f90612b80565b801561197c5780601f106119515761010080835404028352916020019161197c565b820191906000526020600020905b81548152906001019060200180831161195f57829003601f168201915b50505050509050600061198d611c74565b90506000815114156119a35781925050506119e6565b6000825111156119d85780826040516020016119c0929190613714565b604051602081830303815290604052925050506119e6565b6119e184611c8b565b925050505b919050565b60007f80ac58cd000000000000000000000000000000000000000000000000000000007bffffffffffffffffffffffffffffffffffffffffffffffffffffffff1916827bffffffffffffffffffffffffffffffffffffffffffffffffffffffff19161480611ab657507f5b5e139f000000000000000000000000000000000000000000000000000000007bffffffffffffffffffffffffffffffffffffffffffffffffffffffff1916827bffffffffffffffffffffffffffffffffffffffffffffffffffffffff1916145b80611ac65750611ac582611d32565b5b9050919050565b611ad8838383611d9c565b505050565b6000611afe8473ffffffffffffffffffffffffffffffffffffffff16611eb0565b15611c67578373ffffffffffffffffffffffffffffffffffffffff1663150b7a02611b27610fa9565b8786866040518563ffffffff1660e01b8152600401611b49949392919061378d565b602060405180830381600087803b158015611b6357600080fd5b505af1925050508015611b9457506040513d601f19601f82011682018060405250810190611b9191906137ee565b60015b611c17573d8060008114611bc4576040519150601f19603f3d011682016040523d82523d6000602084013e611bc9565b606091505b50600081511415611c0f576040517f08c379a0000000000000000000000000000000000000000000000000000000008152600401611c0690613626565b60405180910390fd5b805181602001fd5b63150b7a0260e01b7bffffffffffffffffffffffffffffffffffffffffffffffffffffffff1916817bffffffffffffffffffffffffffffffffffffffffffffffffffffffff191614915050611c6c565b600190505b949350505050565b606060405180602001604052806000815250905090565b6060611c9682610f3d565b611cd5576040517f08c379a0000000000000000000000000000000000000000000000000000000008152600401611ccc9061388d565b60405180910390fd5b6000611cdf611c74565b90506000815111611cff5760405180602001604052806000815250611d2a565b80611d0984611ec3565b604051602001611d1a929190613714565b6040516020818303038152906040525b915050919050565b60007f01ffc9a7000000000000000000000000000000000000000000000000000000007bffffffffffffffffffffffffffffffffffffffffffffffffffffffff1916827bffffffffffffffffffffffffffffffffffffffffffffffffffffffff1916149050919050565b611da7838383612024565b600073ffffffffffffffffffffffffffffffffffffffff168373ffffffffffffffffffffffffffffffffffffffff161415611dea57611de581612029565b611e29565b8173ffffffffffffffffffffffffffffffffffffffff168373ffffffffffffffffffffffffffffffffffffffff1614611e2857611e278382612072565b5b5b600073ffffffffffffffffffffffffffffffffffffffff168273ffffffffffffffffffffffffffffffffffffffff161415611e6c57611e67816121df565b611eab565b8273ffffffffffffffffffffffffffffffffffffffff168273ffffffffffffffffffffffffffffffffffffffff1614611eaa57611ea982826122b0565b5b5b505050565b600080823b905060008111915050919050565b60606000821415611f0b576040518060400160405280600181526020017f3000000000000000000000000000000000000000000000000000000000000000815250905061201f565b600082905060005b60008214611f3d578080611f26906138ad565b915050600a82611f369190613925565b9150611f13565b60008167ffffffffffffffff811115611f5957611f586126c1565b5b6040519080825280601f01601f191660200182016040528015611f8b5781602001600182028036833780820191505090505b5090505b6000851461201857600182611fa49190613514565b9150600a85611fb39190613956565b6030611fbf9190613276565b60f81b818381518110611fd557611fd4612f8a565b5b60200101907effffffffffffffffffffffffffffffffffffffffffffffffffffffffffffff1916908160001a905350600a856120119190613925565b9450611f8f565b8093505050505b919050565b505050565b6008805490506009600083815260200190815260200160002081905550600881908060018154018082558091505060019003906000526020600020016000909190919091505550565b6000600161207f84610a24565b6120899190613514565b905060006007600084815260200190815260200160002054905081811461216e576000600660008673ffffffffffffffffffffffffffffffffffffffff1673ffffffffffffffffffffffffffffffffffffffff168152602001908152602001600020600084815260200190815260200160002054905080600660008773ffffffffffffffffffffffffffffffffffffffff1673ffffffffffffffffffffffffffffffffffffffff168152602001908152602001600020600084815260200190815260200160002081905550816007600083815260200190815260200160002081905550505b6007600084815260200190815260200160002060009055600660008573ffffffffffffffffffffffffffffffffffffffff1673ffffffffffffffffffffffffffffffffffffffff16815260200190815260200160002060008381526020019081526020016000206000905550505050565b600060016008805490506121f39190613514565b905060006009600084815260200190815260200160002054905060006008838154811061222357612222612f8a565b5b90600052602060002001549050806008838154811061224557612244612f8a565b5b90600052602060002001819055508160096000838152602001908152602001600020819055506009600085815260200190815260200160002060009055600880548061229457612293613987565b5b6001900381819060005260206000200160009055905550505050565b60006122bb83610a24565b905081600660008573ffffffffffffffffffffffffffffffffffffffff1673ffffffffffffffffffffffffffffffffffffffff168152602001908152602001600020600083815260200190815260200160002081905550806007600084815260200190815260200160002081905550505050565b604051806040016040528060008152602001600073ffffffffffffffffffffffffffffffffffffffff1681525090565b82805461236b90612b80565b90600052602060002090601f01602090048101928261238d57600085556123d4565b82601f106123a657805160ff19168380011785556123d4565b828001600101855582156123d4579182015b828111156123d35782518255916020019190600101906123b8565b5b5090506123e191906123e5565b5090565b5b808211156123fe5760008160009055506001016123e6565b5090565b6000604051905090565b600080fd5b600080fd5b60007fffffffff0000000000000000000000000000000000000000000000000000000082169050919050565b61244b81612416565b811461245657600080fd5b50565b60008135905061246881612442565b92915050565b6000602082840312156124845761248361240c565b5b600061249284828501612459565b91505092915050565b60008115159050919050565b6124b08161249b565b82525050565b60006020820190506124cb60008301846124a7565b92915050565b600081519050919050565b600082825260208201905092915050565b60005b8381101561250b5780820151818401526020810190506124f0565b8381111561251a576000848401525b50505050565b6000601f19601f8301169050919050565b600061253c826124d1565b61254681856124dc565b93506125568185602086016124ed565b61255f81612520565b840191505092915050565b600060208201905081810360008301526125848184612531565b905092915050565b6000819050919050565b61259f8161258c565b81146125aa57600080fd5b50565b6000813590506125bc81612596565b92915050565b6000602082840312156125d8576125d761240c565b5b60006125e6848285016125ad565b91505092915050565b600073ffffffffffffffffffffffffffffffffffffffff82169050919050565b600061261a826125ef565b9050919050565b61262a8161260f565b82525050565b60006020820190506126456000830184612621565b92915050565b6126548161260f565b811461265f57600080fd5b50565b6000813590506126718161264b565b92915050565b6000806040838503121561268e5761268d61240c565b5b600061269c85828601612662565b92505060206126ad858286016125ad565b9150509250929050565b600080fd5b600080fd5b7f4e487b7100000000000000000000000000000000000000000000000000000000600052604160045260246000fd5b6126f982612520565b810181811067ffffffffffffffff82111715612718576127176126c1565b5b80604052505050565b600061272b612402565b905061273782826126f0565b919050565b600067ffffffffffffffff821115612757576127566126c1565b5b61276082612520565b9050602081019050919050565b82818337600083830152505050565b600061278f61278a8461273c565b612721565b9050828152602081018484840111156127ab576127aa6126bc565b5b6127b684828561276d565b509392505050565b600082601f8301126127d3576127d26126b7565b5b81356127e384826020860161277c565b91505092915050565b600080600080608085870312156128065761280561240c565b5b600061281487828801612662565b9450506020612825878288016125ad565b935050604061283687828801612662565b925050606085013567ffffffffffffffff81111561285757612856612411565b5b612863878288016127be565b91505092959194509250565b6128788161258c565b82525050565b6000602082019050612893600083018461286f565b92915050565b6000806000606084860312156128b2576128b161240c565b5b60006128c086828701612662565b93505060206128d186828701612662565b92505060406128e2868287016125ad565b9150509250925092565b6000602082840312156129025761290161240c565b5b600061291084828501612662565b91505092915050565b6129228161249b565b811461292d57600080fd5b50565b60008135905061293f81612919565b92915050565b6000806040838503121561295c5761295b61240c565b5b600061296a85828601612662565b925050602061297b85828601612930565b9150509250929050565b600067ffffffffffffffff8211156129a05761299f6126c1565b5b6129a982612520565b9050602081019050919050565b60006129c96129c484612985565b612721565b9050828152602081018484840111156129e5576129e46126bc565b5b6129f084828561276d565b509392505050565b600082601f830112612a0d57612a0c6126b7565b5b8135612a1d8482602086016129b6565b91505092915050565b60008060008060808587031215612a4057612a3f61240c565b5b6000612a4e87828801612662565b9450506020612a5f87828801612662565b9350506040612a70878288016125ad565b925050606085013567ffffffffffffffff811115612a9157612a90612411565b5b612a9d878288016129f8565b91505092959194509250565b612ab28161258c565b82525050565b612ac18161260f565b82525050565b604082016000820151612add6000850182612aa9565b506020820151612af06020850182612ab8565b50505050565b6000604082019050612b0b6000830184612ac7565b92915050565b60008060408385031215612b2857612b2761240c565b5b6000612b3685828601612662565b9250506020612b4785828601612662565b9150509250929050565b7f4e487b7100000000000000000000000000000000000000000000000000000000600052602260045260246000fd5b60006002820490506001821680612b9857607f821691505b60208210811415612bac57612bab612b51565b5b50919050565b7f4552433732313a20617070726f76656420717565727920666f72206e6f6e657860008201527f697374656e7420746f6b656e0000000000000000000000000000000000000000602082015250565b6000612c0e602c836124dc565b9150612c1982612bb2565b604082019050919050565b60006020820190508181036000830152612c3d81612c01565b9050919050565b7f4552433732313a20617070726f76616c20746f2063757272656e74206f776e6560008201527f7200000000000000000000000000000000000000000000000000000000000000602082015250565b6000612ca06021836124dc565b9150612cab82612c44565b604082019050919050565b60006020820190508181036000830152612ccf81612c93565b9050919050565b7f4552433732313a20617070726f76652063616c6c6572206973206e6f74206f7760008201527f6e6572206e6f7220617070726f76656420666f7220616c6c0000000000000000602082015250565b6000612d326038836124dc565b9150612d3d82612cd6565b604082019050919050565b60006020820190508181036000830152612d6181612d25565b9050919050565b7f4f776e61626c653a2063616c6c6572206973206e6f7420746865206f776e6572600082015250565b6000612d9e6020836124dc565b9150612da982612d68565b602082019050919050565b60006020820190508181036000830152612dcd81612d91565b9050919050565b7f4552433732313a207472616e736665722063616c6c6572206973206e6f74206f60008201527f776e6572206e6f7220617070726f766564000000000000000000000000000000602082015250565b6000612e306031836124dc565b9150612e3b82612dd4565b604082019050919050565b60006020820190508181036000830152612e5f81612e23565b9050919050565b7f455243373231456e756d657261626c653a206f776e657220696e646578206f7560008201527f74206f6620626f756e6473000000000000000000000000000000000000000000602082015250565b6000612ec2602b836124dc565b9150612ecd82612e66565b604082019050919050565b60006020820190508181036000830152612ef181612eb5565b9050919050565b7f455243373231456e756d657261626c653a20676c6f62616c20696e646578206f60008201527f7574206f6620626f756e64730000000000000000000000000000000000000000602082015250565b6000612f54602c836124dc565b9150612f5f82612ef8565b604082019050919050565b60006020820190508181036000830152612f8381612f47565b9050919050565b7f4e487b7100000000000000000000000000000000000000000000000000000000600052603260045260246000fd5b7f4552433732313a206f776e657220717565727920666f72206e6f6e657869737460008201527f656e7420746f6b656e0000000000000000000000000000000000000000000000602082015250565b60006130156029836124dc565b915061302082612fb9565b604082019050919050565b6000602082019050818103600083015261304481613008565b9050919050565b7f4552433732313a2062616c616e636520717565727920666f7220746865207a6560008201527f726f206164647265737300000000000000000000000000000000000000000000602082015250565b60006130a7602a836124dc565b91506130b28261304b565b604082019050919050565b600060208201905081810360008301526130d68161309a565b9050919050565b7f4f776e61626c653a206e6577206f776e657220697320746865207a65726f206160008201527f6464726573730000000000000000000000000000000000000000000000000000602082015250565b60006131396026836124dc565b9150613144826130dd565b604082019050919050565b600060208201905081810360008301526131688161312c565b9050919050565b7f4552433732313a206d696e7420746f20746865207a65726f2061646472657373600082015250565b60006131a56020836124dc565b91506131b08261316f565b602082019050919050565b600060208201905081810360008301526131d481613198565b9050919050565b7f4552433732313a20746f6b656e20616c7265616479206d696e74656400000000600082015250565b6000613211601c836124dc565b915061321c826131db565b602082019050919050565b6000602082019050818103600083015261324081613204565b9050919050565b7f4e487b7100000000000000000000000000000000000000000000000000000000600052601160045260246000fd5b60006132818261258c565b915061328c8361258c565b9250827fffffffffffffffffffffffffffffffffffffffffffffffffffffffffffffffff038211156132c1576132c0613247565b5b828201905092915050565b7f45524337323155524953746f726167653a2055524920736574206f66206e6f6e60008201527f6578697374656e7420746f6b656e000000000000000000000000000000000000602082015250565b6000613328602e836124dc565b9150613333826132cc565b604082019050919050565b600060208201905081810360008301526133578161331b565b9050919050565b7f4552433732313a206f70657261746f7220717565727920666f72206e6f6e657860008201527f697374656e7420746f6b656e0000000000000000000000000000000000000000602082015250565b60006133ba602c836124dc565b91506133c58261335e565b604082019050919050565b600060208201905081810360008301526133e9816133ad565b9050919050565b7f4552433732313a207472616e73666572206f6620746f6b656e2074686174206960008201527f73206e6f74206f776e0000000000000000000000000000000000000000000000602082015250565b600061344c6029836124dc565b9150613457826133f0565b604082019050919050565b6000602082019050818103600083015261347b8161343f565b9050919050565b7f4552433732313a207472616e7366657220746f20746865207a65726f2061646460008201527f7265737300000000000000000000000000000000000000000000000000000000602082015250565b60006134de6024836124dc565b91506134e982613482565b604082019050919050565b6000602082019050818103600083015261350d816134d1565b9050919050565b600061351f8261258c565b915061352a8361258c565b92508282101561353d5761353c613247565b5b828203905092915050565b7f4552433732313a20617070726f766520746f2063616c6c657200000000000000600082015250565b600061357e6019836124dc565b915061358982613548565b602082019050919050565b600060208201905081810360008301526135ad81613571565b9050919050565b7f4552433732313a207472616e7366657220746f206e6f6e20455243373231526560008201527f63656976657220696d706c656d656e7465720000000000000000000000000000602082015250565b60006136106032836124dc565b915061361b826135b4565b604082019050919050565b6000602082019050818103600083015261363f81613603565b9050919050565b7f45524337323155524953746f726167653a2055524920717565727920666f722060008201527f6e6f6e6578697374656e7420746f6b656e000000000000000000000000000000602082015250565b60006136a26031836124dc565b91506136ad82613646565b604082019050919050565b600060208201905081810360008301526136d181613695565b9050919050565b600081905092915050565b60006136ee826124d1565b6136f881856136d8565b93506137088185602086016124ed565b80840191505092915050565b600061372082856136e3565b915061372c82846136e3565b91508190509392505050565b600081519050919050565b600082825260208201905092915050565b600061375f82613738565b6137698185613743565b93506137798185602086016124ed565b61378281612520565b840191505092915050565b60006080820190506137a26000830187612621565b6137af6020830186612621565b6137bc604083018561286f565b81810360608301526137ce8184613754565b905095945050505050565b6000815190506137e881612442565b92915050565b6000602082840312156138045761380361240c565b5b6000613812848285016137d9565b91505092915050565b7f4552433732314d657461646174613a2055524920717565727920666f72206e6f60008201527f6e6578697374656e7420746f6b656e0000000000000000000000000000000000602082015250565b6000613877602f836124dc565b91506138828261381b565b604082019050919050565b600060208201905081810360008301526138a68161386a565b9050919050565b60006138b88261258c565b91507fffffffffffffffffffffffffffffffffffffffffffffffffffffffffffffffff8214156138eb576138ea613247565b5b600182019050919050565b7f4e487b7100000000000000000000000000000000000000000000000000000000600052601260045260246000fd5b60006139308261258c565b915061393b8361258c565b92508261394b5761394a6138f6565b5b828204905092915050565b60006139618261258c565b915061396c8361258c565b92508261397c5761397b6138f6565b5b828206905092915050565b7f4e487b7100000000000000000000000000000000000000000000000000000000600052603160045260246000fdfea2646970667358221220fce6f03dce40189d3eab224ceeff8f80708d5321cfda7070766807013010840764736f6c63430008090033608060405234801561001057600080fd5b506001600360006101000a81548160ff021916908315150217905550612dab8061003b6000396000f3fe608060405234801561001057600080fd5b506004361061012c5760003560e01c8063357286d7116100ad57806360246c881161007157806360246c881461034757806367e0e0761461036b578063711cc005146103a15780638aebe8d6146103d1578063d15e0053146104015761012c565b8063357286d71461028f5780633735ef88146102ad578063373d7c3f146102dd57806347e7ef24146102fb5780635ff189b9146103175761012c565b806317d7de7c116100f457806317d7de7c146101e75780631b88094d146102055780632f75700614610223578063322ce09e14610241578063343d693b146102715761012c565b80630251cfa1146101315780630712f6b31461016157806312eeff7e14610191578063150aefee146101ad578063155d8e9c146101c9575b600080fd5b61014b60048036038101906101469190611dcd565b610431565b6040516101589190611e13565b60405180910390f35b61017b60048036038101906101769190611dcd565b61047a565b6040516101889190611e13565b60405180910390f35b6101ab60048036038101906101a69190611e92565b610519565b005b6101c760048036038101906101c29190612107565b610835565b005b6101d1610bec565b6040516101de91906122e5565b60405180910390f35b6101ef610c7e565b6040516101fc91906122e5565b60405180910390f35b61020d610d10565b60405161021a9190612316565b60405180910390f35b61022b610d3a565b60405161023891906123ef565b60405180910390f35b61025b60048036038101906102569190612411565b610dc8565b6040516102689190611e13565b60405180910390f35b61027961120b565b60405161028691906122e5565b60405180910390f35b61029761129d565b6040516102a49190612460565b60405180910390f35b6102c760048036038101906102c29190611dcd565b6112b4565b6040516102d49190611e13565b60405180910390f35b6102e56113a3565b6040516102f291906122e5565b60405180910390f35b6103156004803603810190610310919061247b565b611435565b005b610331600480360381019061032c9190611dcd565b61160e565b60405161033e9190611e13565b60405180910390f35b61034f611657565b60405161036297969594939291906124bb565b60405180910390f35b61038560048036038101906103809190611dcd565b61196e565b604051610398979695949392919061254d565b60405180910390f35b6103bb60048036038101906103b69190611dcd565b6119d1565b6040516103c89190612316565b60405180910390f35b6103eb60048036038101906103e69190611dcd565b611a8b565b6040516103f89190611e13565b60405180910390f35b61041b60048036038101906104169190611dcd565b611b56565b6040516104289190611e13565b60405180910390f35b6000600160008373ffffffffffffffffffffffffffffffffffffffff1673ffffffffffffffffffffffffffffffffffffffff168152602001908152602001600020549050919050565b600080610486836119d1565b90508073ffffffffffffffffffffffffffffffffffffffff166370a08231306040518263ffffffff1660e01b81526004016104c19190612316565b60206040518083038186803b1580156104d957600080fd5b505afa1580156104ed573d6000803e3d6000fd5b505050506040513d601f19601f8201168201806040525081019061051191906125d1565b915050919050565b338073ffffffffffffffffffffffffffffffffffffffff16600860009054906101000a900473ffffffffffffffffffffffffffffffffffffffff1673ffffffffffffffffffffffffffffffffffffffff16146105aa576040517f08c379a00000000000000000000000000000000000000000000000000000000081526004016105a19061264a565b60405180910390fd5b83600160008773ffffffffffffffffffffffffffffffffffffffff1673ffffffffffffffffffffffffffffffffffffffff16815260200190815260200160002060008282546105f99190612699565b92505081905550816106bc57600460009054906101000a900473ffffffffffffffffffffffffffffffffffffffff1673ffffffffffffffffffffffffffffffffffffffff166369328dec8686866040518463ffffffff1660e01b8152600401610664939291906126cd565b602060405180830381600087803b15801561067e57600080fd5b505af1158015610692573d6000803e3d6000fd5b505050506040513d601f19601f820116820180604052508101906106b691906125d1565b5061082e565b60006106c7866119d1565b90508073ffffffffffffffffffffffffffffffffffffffff1663095ea7b3600560009054906101000a900473ffffffffffffffffffffffffffffffffffffffff16876040518363ffffffff1660e01b8152600401610726929190612704565b602060405180830381600087803b15801561074057600080fd5b505af1158015610754573d6000803e3d6000fd5b505050506040513d601f19601f820116820180604052508101906107789190612742565b50600560009054906101000a900473ffffffffffffffffffffffffffffffffffffffff1673ffffffffffffffffffffffffffffffffffffffff166380500d20600460009054906101000a900473ffffffffffffffffffffffffffffffffffffffff1687876040518463ffffffff1660e01b81526004016107fa939291906126cd565b600060405180830381600087803b15801561081457600080fd5b505af1158015610828573d6000803e3d6000fd5b50505050505b5050505050565b87601e60008290508160ff1681511115610884576040517f08c379a000000000000000000000000000000000000000000000000000000000815260040161087b906127bb565b60405180910390fd5b600060019054906101000a900460ff166108ac5760008054906101000a900460ff16156108b5565b6108b4611c0a565b5b6108f4576040517f08c379a00000000000000000000000000000000000000000000000000000000081526004016108eb9061284d565b60405180910390fd5b60008060019054906101000a900460ff161590508015610944576001600060016101000a81548160ff02191690831515021790555060016000806101000a81548160ff0219169083151502179055505b60001515600360009054906101000a900460ff1615151461099a576040517f08c379a0000000000000000000000000000000000000000000000000000000008152600401610991906128b9565b60405180910390fd5b600073ffffffffffffffffffffffffffffffffffffffff16600760009054906101000a900473ffffffffffffffffffffffffffffffffffffffff1673ffffffffffffffffffffffffffffffffffffffff1614610a2b576040517f08c379a0000000000000000000000000000000000000000000000000000000008152600401610a2290612925565b60405180910390fd5b87600760006101000a81548173ffffffffffffffffffffffffffffffffffffffff021916908373ffffffffffffffffffffffffffffffffffffffff16021790555033600860006101000a81548173ffffffffffffffffffffffffffffffffffffffff021916908373ffffffffffffffffffffffffffffffffffffffff1602179055508b60099080519060200190610ac3929190611c2e565b508a600a9080519060200190610ada929190611c2e565b5089600b9080519060200190610af1929190611c2e565b5088600c9080519060200190610b08929190611c2e565b5084600d60006101000a81548160ff02191690831515021790555086600460006101000a81548173ffffffffffffffffffffffffffffffffffffffff021916908373ffffffffffffffffffffffffffffffffffffffff16021790555085600560006101000a81548173ffffffffffffffffffffffffffffffffffffffff021916908373ffffffffffffffffffffffffffffffffffffffff1602179055508c60069080519060200190610bbb929190611cb4565b508015610bdd5760008060016101000a81548160ff0219169083151502179055505b50505050505050505050505050565b6060600b8054610bfb90612974565b80601f0160208091040260200160405190810160405280929190818152602001828054610c2790612974565b8015610c745780601f10610c4957610100808354040283529160200191610c74565b820191906000526020600020905b815481529060010190602001808311610c5757829003601f168201915b5050505050905090565b606060098054610c8d90612974565b80601f0160208091040260200160405190810160405280929190818152602001828054610cb990612974565b8015610d065780601f10610cdb57610100808354040283529160200191610d06565b820191906000526020600020905b815481529060010190602001808311610ce957829003601f168201915b5050505050905090565b6000600760009054906101000a900473ffffffffffffffffffffffffffffffffffffffff16905090565b60606006805480602002602001604051908101604052809291908181526020018280548015610dbe57602002820191906000526020600020905b8160009054906101000a900473ffffffffffffffffffffffffffffffffffffffff1673ffffffffffffffffffffffffffffffffffffffff1681526020019060010190808311610d74575b5050505050905090565b6000338073ffffffffffffffffffffffffffffffffffffffff16600860009054906101000a900473ffffffffffffffffffffffffffffffffffffffff1673ffffffffffffffffffffffffffffffffffffffff1614610e5b576040517f08c379a0000000000000000000000000000000000000000000000000000000008152600401610e529061264a565b60405180910390fd5b6000610e66856119d1565b905060008173ffffffffffffffffffffffffffffffffffffffff166370a08231306040518263ffffffff1660e01b8152600401610ea39190612316565b60206040518083038186803b158015610ebb57600080fd5b505afa158015610ecf573d6000803e3d6000fd5b505050506040513d601f19601f82011682018060405250810190610ef391906125d1565b90506000600160008873ffffffffffffffffffffffffffffffffffffffff1673ffffffffffffffffffffffffffffffffffffffff1681526020019081526020016000205482610f429190612699565b905080600260008973ffffffffffffffffffffffffffffffffffffffff1673ffffffffffffffffffffffffffffffffffffffff1681526020019081526020016000206000828254610f9391906129a6565b925050819055508561107857600460009054906101000a900473ffffffffffffffffffffffffffffffffffffffff1673ffffffffffffffffffffffffffffffffffffffff166369328dec8883600760009054906101000a900473ffffffffffffffffffffffffffffffffffffffff166040518463ffffffff1660e01b8152600401611020939291906126cd565b602060405180830381600087803b15801561103a57600080fd5b505af115801561104e573d6000803e3d6000fd5b505050506040513d601f19601f8201168201806040525081019061107291906125d1565b506111fe565b8273ffffffffffffffffffffffffffffffffffffffff1663095ea7b3600560009054906101000a900473ffffffffffffffffffffffffffffffffffffffff16836040518363ffffffff1660e01b81526004016110d5929190612704565b602060405180830381600087803b1580156110ef57600080fd5b505af1158015611103573d6000803e3d6000fd5b505050506040513d601f19601f820116820180604052508101906111279190612742565b50600560009054906101000a900473ffffffffffffffffffffffffffffffffffffffff1673ffffffffffffffffffffffffffffffffffffffff166380500d20600460009054906101000a900473ffffffffffffffffffffffffffffffffffffffff1683600760009054906101000a900473ffffffffffffffffffffffffffffffffffffffff166040518463ffffffff1660e01b81526004016111cb939291906126cd565b600060405180830381600087803b1580156111e557600080fd5b505af11580156111f9573d6000803e3d6000fd5b505050505b8094505050505092915050565b6060600a805461121a90612974565b80601f016020809104026020016040519081016040528092919081815260200182805461124690612974565b80156112935780601f1061126857610100808354040283529160200191611293565b820191906000526020600020905b81548152906001019060200180831161127657829003601f168201915b5050505050905090565b6000600d60009054906101000a900460ff16905090565b6000806112c0836119d1565b905060008173ffffffffffffffffffffffffffffffffffffffff166370a08231306040518263ffffffff1660e01b81526004016112fd9190612316565b60206040518083038186803b15801561131557600080fd5b505afa158015611329573d6000803e3d6000fd5b505050506040513d601f19601f8201168201806040525081019061134d91906125d1565b9050600160008573ffffffffffffffffffffffffffffffffffffffff1673ffffffffffffffffffffffffffffffffffffffff168152602001908152602001600020548161139a9190612699565b92505050919050565b6060600c80546113b290612974565b80601f01602080910402602001604051908101604052809291908181526020018280546113de90612974565b801561142b5780601f106114005761010080835404028352916020019161142b565b820191906000526020600020905b81548152906001019060200180831161140e57829003601f168201915b5050505050905090565b338073ffffffffffffffffffffffffffffffffffffffff16600860009054906101000a900473ffffffffffffffffffffffffffffffffffffffff1673ffffffffffffffffffffffffffffffffffffffff16146114c6576040517f08c379a00000000000000000000000000000000000000000000000000000000081526004016114bd9061264a565b60405180910390fd5b82600080600090505b6006805490508160ff1610156115705760068160ff16815481106114f6576114f56129fc565b5b9060005260206000200160009054906101000a900473ffffffffffffffffffffffffffffffffffffffff1673ffffffffffffffffffffffffffffffffffffffff168373ffffffffffffffffffffffffffffffffffffffff16141561155d5760019150611570565b808061156890612a38565b9150506114cf565b50806115b1576040517f08c379a00000000000000000000000000000000000000000000000000000000081526004016115a890612aae565b60405180910390fd5b83600160008773ffffffffffffffffffffffffffffffffffffffff1673ffffffffffffffffffffffffffffffffffffffff168152602001908152602001600020600082825461160091906129a6565b925050819055505050505050565b6000600260008373ffffffffffffffffffffffffffffffffffffffff1673ffffffffffffffffffffffffffffffffffffffff168152602001908152602001600020549050919050565b60606000806060806060806006600760009054906101000a900473ffffffffffffffffffffffffffffffffffffffff16600d60009054906101000a900460ff16600c600b600a60098680548060200260200160405190810160405280929190818152602001828054801561172057602002820191906000526020600020905b8160009054906101000a900473ffffffffffffffffffffffffffffffffffffffff1673ffffffffffffffffffffffffffffffffffffffff16815260200190600101908083116116d6575b5050505050965083805461173390612974565b80601f016020809104026020016040519081016040528092919081815260200182805461175f90612974565b80156117ac5780601f10611781576101008083540402835291602001916117ac565b820191906000526020600020905b81548152906001019060200180831161178f57829003601f168201915b505050505093508280546117bf90612974565b80601f01602080910402602001604051908101604052809291908181526020018280546117eb90612974565b80156118385780601f1061180d57610100808354040283529160200191611838565b820191906000526020600020905b81548152906001019060200180831161181b57829003601f168201915b5050505050925081805461184b90612974565b80601f016020809104026020016040519081016040528092919081815260200182805461187790612974565b80156118c45780601f10611899576101008083540402835291602001916118c4565b820191906000526020600020905b8154815290600101906020018083116118a757829003601f168201915b505050505091508080546118d790612974565b80601f016020809104026020016040519081016040528092919081815260200182805461190390612974565b80156119505780601f1061192557610100808354040283529160200191611950565b820191906000526020600020905b81548152906001019060200180831161193357829003601f168201915b50505050509050965096509650965096509650965090919293949596565b600080600080600080600061198288611a8b565b61198b89611b56565b6119948a61047a565b61199d8b61160e565b6119a68c6112b4565b6119af8d610431565b6119b88e6119d1565b9650965096509650965096509650919395979092949650565b6000600460009054906101000a900473ffffffffffffffffffffffffffffffffffffffff1673ffffffffffffffffffffffffffffffffffffffff166335ea6a75836040518263ffffffff1660e01b8152600401611a2e9190612316565b6101e06040518083038186803b158015611a4757600080fd5b505afa158015611a5b573d6000803e3d6000fd5b505050506040513d601f19601f82011682018060405250810190611a7f9190612d47565b61010001519050919050565b6000600460009054906101000a900473ffffffffffffffffffffffffffffffffffffffff1673ffffffffffffffffffffffffffffffffffffffff166335ea6a75836040518263ffffffff1660e01b8152600401611ae89190612316565b6101e06040518083038186803b158015611b0157600080fd5b505afa158015611b15573d6000803e3d6000fd5b505050506040513d601f19601f82011682018060405250810190611b399190612d47565b602001516fffffffffffffffffffffffffffffffff169050919050565b6000600460009054906101000a900473ffffffffffffffffffffffffffffffffffffffff1673ffffffffffffffffffffffffffffffffffffffff1663d15e0053836040518263ffffffff1660e01b8152600401611bb39190612316565b60206040518083038186803b158015611bcb57600080fd5b505afa158015611bdf573d6000803e3d6000fd5b505050506040513d601f19601f82011682018060405250810190611c0391906125d1565b9050919050565b6000611c1530611c1b565b15905090565b600080823b905060008111915050919050565b828054611c3a90612974565b90600052602060002090601f016020900481019282611c5c5760008555611ca3565b82601f10611c7557805160ff1916838001178555611ca3565b82800160010185558215611ca3579182015b82811115611ca2578251825591602001919060010190611c87565b5b509050611cb09190611d3e565b5090565b828054828255906000526020600020908101928215611d2d579160200282015b82811115611d2c5782518260006101000a81548173ffffffffffffffffffffffffffffffffffffffff021916908373ffffffffffffffffffffffffffffffffffffffff16021790555091602001919060010190611cd4565b5b509050611d3a9190611d3e565b5090565b5b80821115611d57576000816000905550600101611d3f565b5090565b6000604051905090565b600080fd5b600080fd5b600073ffffffffffffffffffffffffffffffffffffffff82169050919050565b6000611d9a82611d6f565b9050919050565b611daa81611d8f565b8114611db557600080fd5b50565b600081359050611dc781611da1565b92915050565b600060208284031215611de357611de2611d65565b5b6000611df184828501611db8565b91505092915050565b6000819050919050565b611e0d81611dfa565b82525050565b6000602082019050611e286000830184611e04565b92915050565b611e3781611dfa565b8114611e4257600080fd5b50565b600081359050611e5481611e2e565b92915050565b60008115159050919050565b611e6f81611e5a565b8114611e7a57600080fd5b50565b600081359050611e8c81611e66565b92915050565b60008060008060808587031215611eac57611eab611d65565b5b6000611eba87828801611db8565b9450506020611ecb87828801611e45565b9350506040611edc87828801611db8565b9250506060611eed87828801611e7d565b91505092959194509250565b600080fd5b6000601f19601f8301169050919050565b7f4e487b7100000000000000000000000000000000000000000000000000000000600052604160045260246000fd5b611f4782611efe565b810181811067ffffffffffffffff82111715611f6657611f65611f0f565b5b80604052505050565b6000611f79611d5b565b9050611f858282611f3e565b919050565b600067ffffffffffffffff821115611fa557611fa4611f0f565b5b602082029050602081019050919050565b600080fd5b6000611fce611fc984611f8a565b611f6f565b90508083825260208201905060208402830185811115611ff157611ff0611fb6565b5b835b8181101561201a57806120068882611db8565b845260208401935050602081019050611ff3565b5050509392505050565b600082601f83011261203957612038611ef9565b5b8135612049848260208601611fbb565b91505092915050565b600080fd5b600067ffffffffffffffff82111561207257612071611f0f565b5b61207b82611efe565b9050602081019050919050565b82818337600083830152505050565b60006120aa6120a584612057565b611f6f565b9050828152602081018484840111156120c6576120c5612052565b5b6120d1848285612088565b509392505050565b600082601f8301126120ee576120ed611ef9565b5b81356120fe848260208601612097565b91505092915050565b60008060008060008060008060006101208a8c03121561212a57612129611d65565b5b60008a013567ffffffffffffffff81111561214857612147611d6a565b5b6121548c828d01612024565b99505060208a013567ffffffffffffffff81111561217557612174611d6a565b5b6121818c828d016120d9565b98505060408a013567ffffffffffffffff8111156121a2576121a1611d6a565b5b6121ae8c828d016120d9565b97505060608a013567ffffffffffffffff8111156121cf576121ce611d6a565b5b6121db8c828d016120d9565b96505060808a013567ffffffffffffffff8111156121fc576121fb611d6a565b5b6122088c828d016120d9565b95505060a06122198c828d01611db8565b94505060c061222a8c828d01611db8565b93505060e061223b8c828d01611db8565b92505061010061224d8c828d01611e7d565b9150509295985092959850929598565b600081519050919050565b600082825260208201905092915050565b60005b8381101561229757808201518184015260208101905061227c565b838111156122a6576000848401525b50505050565b60006122b78261225d565b6122c18185612268565b93506122d1818560208601612279565b6122da81611efe565b840191505092915050565b600060208201905081810360008301526122ff81846122ac565b905092915050565b61231081611d8f565b82525050565b600060208201905061232b6000830184612307565b92915050565b600081519050919050565b600082825260208201905092915050565b6000819050602082019050919050565b61236681611d8f565b82525050565b6000612378838361235d565b60208301905092915050565b6000602082019050919050565b600061239c82612331565b6123a6818561233c565b93506123b18361234d565b8060005b838110156123e25781516123c9888261236c565b97506123d483612384565b9250506001810190506123b5565b5085935050505092915050565b600060208201905081810360008301526124098184612391565b905092915050565b6000806040838503121561242857612427611d65565b5b600061243685828601611db8565b925050602061244785828601611e7d565b9150509250929050565b61245a81611e5a565b82525050565b60006020820190506124756000830184612451565b92915050565b6000806040838503121561249257612491611d65565b5b60006124a085828601611db8565b92505060206124b185828601611e45565b9150509250929050565b600060e08201905081810360008301526124d5818a612391565b90506124e46020830189612307565b6124f16040830188612451565b818103606083015261250381876122ac565b9050818103608083015261251781866122ac565b905081810360a083015261252b81856122ac565b905081810360c083015261253f81846122ac565b905098975050505050505050565b600060e082019050612562600083018a611e04565b61256f6020830189611e04565b61257c6040830188611e04565b6125896060830187611e04565b6125966080830186611e04565b6125a360a0830185611e04565b6125b060c0830184612307565b98975050505050505050565b6000815190506125cb81611e2e565b92915050565b6000602082840312156125e7576125e6611d65565b5b60006125f5848285016125bc565b91505092915050565b7f6e6f7420746865206f776e657200000000000000000000000000000000000000600082015250565b6000612634600d83612268565b915061263f826125fe565b602082019050919050565b6000602082019050818103600083015261266381612627565b9050919050565b7f4e487b7100000000000000000000000000000000000000000000000000000000600052601160045260246000fd5b60006126a482611dfa565b91506126af83611dfa565b9250828210156126c2576126c161266a565b5b828203905092915050565b60006060820190506126e26000830186612307565b6126ef6020830185611e04565b6126fc6040830184612307565b949350505050565b60006040820190506127196000830185612307565b6127266020830184611e04565b9392505050565b60008151905061273c81611e66565b92915050565b60006020828403121561275857612757611d65565b5b60006127668482850161272d565b91505092915050565b7f737472696e67206f76657220636861726163746572206c696d69740000000000600082015250565b60006127a5601b83612268565b91506127b08261276f565b602082019050919050565b600060208201905081810360008301526127d481612798565b9050919050565b7f496e697469616c697a61626c653a20636f6e747261637420697320616c72656160008201527f647920696e697469616c697a6564000000000000000000000000000000000000602082015250565b6000612837602e83612268565b9150612842826127db565b604082019050919050565b600060208201905081810360008301526128668161282a565b9050919050565b7f43616e6e6f7420696e697469616c697a65206261736500000000000000000000600082015250565b60006128a3601683612268565b91506128ae8261286d565b602082019050919050565b600060208201905081810360008301526128d281612896565b9050919050565b7f496e697469616c697a6520616c72656164792063616c6c656400000000000000600082015250565b600061290f601983612268565b915061291a826128d9565b602082019050919050565b6000602082019050818103600083015261293e81612902565b9050919050565b7f4e487b7100000000000000000000000000000000000000000000000000000000600052602260045260246000fd5b6000600282049050600182168061298c57607f821691505b602082108114156129a05761299f612945565b5b50919050565b60006129b182611dfa565b91506129bc83611dfa565b9250827fffffffffffffffffffffffffffffffffffffffffffffffffffffffffffffffff038211156129f1576129f061266a565b5b828201905092915050565b7f4e487b7100000000000000000000000000000000000000000000000000000000600052603260045260246000fd5b600060ff82169050919050565b6000612a4382612a2b565b915060ff821415612a5757612a5661266a565b5b600182019050919050565b7f746f6b656e206e6f74206163636570746564206279206a63706f6f6c00000000600082015250565b6000612a98601c83612268565b9150612aa382612a62565b602082019050919050565b60006020820190508181036000830152612ac781612a8b565b9050919050565b600080fd5b600060208284031215612ae957612ae8612ace565b5b612af36020611f6f565b90506000612b03848285016125bc565b60008301525092915050565b60006fffffffffffffffffffffffffffffffff82169050919050565b612b3481612b0f565b8114612b3f57600080fd5b50565b600081519050612b5181612b2b565b92915050565b600064ffffffffff82169050919050565b612b7181612b57565b8114612b7c57600080fd5b50565b600081519050612b8e81612b68565b92915050565b600061ffff82169050919050565b612bab81612b94565b8114612bb657600080fd5b50565b600081519050612bc881612ba2565b92915050565b600081519050612bdd81611da1565b92915050565b60006101e08284031215612bfa57612bf9612ace565b5b612c056101e0611f6f565b90506000612c1584828501612ad3565b6000830152506020612c2984828501612b42565b6020830152506040612c3d84828501612b42565b6040830152506060612c5184828501612b42565b6060830152506080612c6584828501612b42565b60808301525060a0612c7984828501612b42565b60a08301525060c0612c8d84828501612b7f565b60c08301525060e0612ca184828501612bb9565b60e083015250610100612cb684828501612bce565b61010083015250610120612ccc84828501612bce565b61012083015250610140612ce284828501612bce565b61014083015250610160612cf884828501612bce565b61016083015250610180612d0e84828501612b42565b610180830152506101a0612d2484828501612b42565b6101a0830152506101c0612d3a84828501612b42565b6101c08301525092915050565b60006101e08284031215612d5e57612d5d611d65565b5b6000612d6c84828501612be3565b9150509291505056fea2646970667358221220fe53b86b1199a43eddf5017a77909e5e4e2cecd5b6cea1fe08088f8d4892d57064736f6c63430008090033",
  "immutableReferences": {},
  "source": "// SPDX-License-Identifier: AGPL-3.0\npragma solidity 0.8.9;\n\nimport { IJustCausePool, IERC20, IPool, IPoolAddressesProvider, IWETHGateway } from './Interfaces.sol';\nimport { JCDepositorERC721 } from './JCDepositorERC721.sol';\nimport { JCOwnerERC721 } from './JCOwnerERC721.sol';\nimport { JustCausePoolAaveV3 } from './JustCausePoolAaveV3.sol';\n\nimport \"@openzeppelin/contracts/security/ReentrancyGuard.sol\";\n\n/**\n * @title PoolTracker contract\n * @author JustCause\n * @notice Main point of interaction with JustCause Protocol\n * This is a proof of concept starter contract for lossless donations\n *\n * Aave v3 is used to generate interest for crowdfunding\n *\n * PoolTracker contract controls deposit calls to Aave to make\n * approvals needed only once per token. Calls JustCause Pools for\n * withdrawals and claims\n *\n * Controls Owner/Contributor NFT creation and updates for deposits/withdrawals\n *\n * Controls JustCause Pool creation with proxy contracts\n *\n * @dev Deposits, withdraws, and claims for Aave Pools\n * @dev Generate ERC721 token\n **/\n\ncontract PoolTracker is ReentrancyGuard {\n\n    JustCausePoolAaveV3 baseJCPool;\n    JCDepositorERC721 jCDepositorERC721;\n    JCOwnerERC721 jCOwnerERC721;\n\n    //contract addresses will point to bool if they exist\n    mapping(address => bool) private isPool;\n    mapping(string => address) private names;\n    mapping(address => uint256) private tvl;\n    mapping(address => uint256) private totalDonated;\n    address[] private verifiedPools;\n\n    address poolAddr;\n    address wethGatewayAddr;\n    address validator;\n\n    event AddPool(address pool, string name, address receiver);\n    event AddDeposit(address userAddr, address pool, address asset, uint256 amount);\n    event WithdrawDeposit(address userAddr, address pool, address asset, uint256 amount);\n    event Claim(address userAddr, address receiver, address pool, address asset, uint256 amount);\n    event Test(address[] aaveAccepted, address[] causeAccepted );\n    /**\n    * @dev Only address that are a pool can be passed to functions marked by this modifier.\n    **/\n    modifier onlyPools(address _pool){\n        require(isPool[_pool], \"not pool\");\n        _;\n    }\n\n    /**\n    * @dev Only tokens that are accepted by Aave can be used in JCP creation\n    **/\n    modifier onlyAcceptedTokens(address[] memory causeAcceptedTokens){\n        address[] memory aaveAcceptedTokens = IPool(poolAddr).getReservesList();\n        for(uint8 i = 0; i < causeAcceptedTokens.length; i++){\n            bool found;\n            for(uint8 j = 0; j < aaveAcceptedTokens.length; j++){\n                if(causeAcceptedTokens[i] == aaveAcceptedTokens[j]){\n                    found = true;\n                }\n            }\n            require(found, \"tokens not approved\");\n        }\n        _;\n    }\n\n    /**\n    * @dev Only tokens that are accepted by Aave can be passed to functions marked by this modifier.\n    **/\n    modifier onlyAcceptedToken(address _asset){\n        address[] memory aaveAcceptedTokens = IPool(poolAddr).getReservesList();\n        bool found;\n        for(uint8 j = 0; j < aaveAcceptedTokens.length; j++){\n            if(_asset == aaveAcceptedTokens[j]){\n                found = true;\n            }\n        }\n        require(found, \"token not approved\");\n        _;\n    }\n\n    /**\n    * @dev Constructor.\n    */\n    constructor (address _poolAddressesProviderAddr, address _wethGatewayAddr) {\n        validator = msg.sender;\n        jCDepositorERC721 = new JCDepositorERC721(_poolAddressesProviderAddr);\n        jCOwnerERC721 = new JCOwnerERC721();\n        baseJCPool = new JustCausePoolAaveV3();\n\n        poolAddr = IPoolAddressesProvider(_poolAddressesProviderAddr).getPool();\n        wethGatewayAddr = address(_wethGatewayAddr);\n    }\n\n    /**\n    * @dev Emit AddDeposit\n    * @param _asset The address of the underlying asset of the reserve\n    * @param _amount The amount of supplied assets\n    * @param _pool address of JCP\n    * @param _isETH bool indicating if asset is the base token of network (eth/matic/...)\n    **/\n    function addDeposit(uint256 _amount, address _asset, address _pool, bool _isETH) onlyPools(_pool) nonReentrant() external payable {\n        tvl[_asset] += _amount;\n        string memory _metaHash = IJustCausePool(_pool).getMetaUri();\n        address _poolAddr = poolAddr;\n        if(_isETH){\n            require(IWETHGateway(wethGatewayAddr).getWETHAddress() == _asset, \"_asset does not match WETHGateway\");\n            IWETHGateway(wethGatewayAddr).depositETH{value: msg.value}(_poolAddr, _pool, 0);\n        }\n        else {\n            IERC20 token = IERC20(_asset);\n            require(token.allowance(msg.sender, address(this)) >= _amount, \"sender not approved\");\n            token.transferFrom(msg.sender, address(this), _amount);\n            token.approve(_poolAddr, _amount);\n            IPool(_poolAddr).deposit(address(token), _amount, _pool, 0);\n        }\n        IJustCausePool(_pool).deposit(_asset, _amount);\n        jCDepositorERC721.addFunds(msg.sender, _amount, block.timestamp,  _pool, _asset, _metaHash);\n        emit AddDeposit(msg.sender, _pool, _asset, _amount);\n    }\n\n    /**\n    * @dev Emit WithdrawDeposit\n    * @param _asset The address of the underlying asset of the reserve\n    * @param _amount The amount of withdraw assets\n    * @param _pool address of JCP\n    * @param _isETH bool indicating if asset is the base token of network (eth/matic/...)\n    **/\n    function withdrawDeposit(uint256 _amount, address _asset, address _pool, bool _isETH) external  onlyPools(_pool) nonReentrant(){\n        tvl[_asset] -= _amount;\n        jCDepositorERC721.withdrawFunds(msg.sender, _amount, _pool, _asset);\n        IJustCausePool(_pool).withdraw(_asset, _amount, msg.sender, _isETH);\n        emit WithdrawDeposit(msg.sender, _pool, _asset, _amount);\n    }\n\n    /**\n    * @dev Emit Claim\n    * @param _asset The address of the underlying asset of the reserve\n    * @param _pool address of JCP\n    * @param _isETH bool indicating if asset is the base token of network (eth/matic/...)\n    **/\n    function claimInterest(address _asset, address _pool, bool _isETH) external onlyPools(_pool) nonReentrant() onlyAcceptedToken(_asset){\n        uint256 amount = IJustCausePool(_pool).withdrawDonations(_asset, _isETH);\n        totalDonated[_asset] += amount;\n        emit Claim(msg.sender, IJustCausePool(_pool).getRecipient(), _pool, _asset, amount);\n    }\n\n    /**\n     * @param basePool address of base JCP\n     * @return instance proxy instance of JCP\n     * @dev Deploys and returns the address of a clone that mimics the behaviour of `implementation`.\n     *\n     * This function uses the create opcode, which should never revert.\n     **/\n    function clone(address basePool) internal returns (address instance) {\n        assembly {\n            let ptr := mload(0x40)\n            mstore(ptr, 0x3d602d80600a3d3981f3363d3d373d3d3d363d73000000000000000000000000)\n            mstore(add(ptr, 0x14), shl(0x60, basePool))\n            mstore(add(ptr, 0x28), 0x5af43d82803e903d91602b57fd5bf30000000000000000000000000000000000)\n            instance := create(0, ptr, 0x37)\n        }\n        require(instance != address(0), \"ERC1167: create failed\");\n    }\n\n    /**\n    * @dev Emit AddPool\n    * @notice Creates JCP proxy\n    * @param _acceptedTokens List of tokens to be accepted by JCP.\n    * @param _name String name of JCP.\n    * @param _about ipfs hash of pool description of JCP.\n    * @param _picHash ipfs hash of pic of JCP.\n    * @param _metaUri meta info uri for nft of JCP.\n    * @param _receiver address of receiver of JCP donations.\n    **/\n    function createJCPoolClone(\n        address[] memory _acceptedTokens,\n        string memory _name,\n        string memory _about,\n        string memory _picHash,\n        string memory _metaUri,\n        address _receiver\n    ) external onlyAcceptedTokens(_acceptedTokens){\n\n        require(names[_name] == address(0), \"pool with name already exists\");\n        address child = clone(address(baseJCPool));\n        bool isVerified;\n        if(msg.sender == validator){\n            verifiedPools.push(child);\n            isVerified = true;\n        }\n\n        IJustCausePool(child).initialize(_acceptedTokens, _name, _about, _picHash, _metaUri, _receiver, poolAddr, wethGatewayAddr, isVerified);\n        jCOwnerERC721.createReceiverToken(_receiver, block.timestamp, child, _metaUri);\n        names[_name] =  child;\n\n        isPool[child] = true;\n        emit AddPool(child, _name, _receiver);\n    }\n\n    /**\n    * @param _asset The address of the underlying asset of the reserve\n    * @return tvl of the protocol for a given asset\n    **/\n    function getTVL(address _asset) public view returns(uint256){\n        return tvl[_asset];\n    }\n\n    /**\n    * @param _asset The address of the underlying asset of the reserve\n    * @return total claimed donation for a given asset\n    **/\n    function getTotalDonated(address _asset) public view returns(uint256){\n        return totalDonated[_asset];\n    }\n\n    /**\n    * @return address of ERC721 for depositors, created on deployment\n    **/\n    function getDepositorERC721Address() public view returns(address){\n        return address(jCDepositorERC721);\n    }\n\n    /**\n    * @return address of ERC721 for owners, created on deployment\n    **/\n    function getOwnerERC721Address() public view returns(address){\n        return address(jCOwnerERC721);\n    }\n\n    /**\n    * @return address of validator\n    **/\n    function getValidator() public view returns(address){\n        return validator;\n    }\n\n    /**\n    * @return address of aave pool\n    **/\n    function getPoolAddr() public view returns(address){\n        return poolAddr;\n    }\n\n    /**\n    * @return address array of aave reserve list\n    **/\n    function getReservesList() public view returns(address[] memory){\n        return IPool(poolAddr).getReservesList();\n    }\n\n    /**\n    * @return address of base JCP, created on deployment\n    **/\n    function getBaseJCPoolAddress() public view returns(address){\n        return address(baseJCPool);\n    }\n\n    /**\n    * @return list of verified pools\n    **/\n    function getVerifiedPools() public view returns(address [] memory){\n        return verifiedPools;\n    }\n\n    /**\n    * @param _pool address of pool\n    * @return true if pool address exists\n    **/\n    function checkPool(address _pool) public view returns(bool){\n        return isPool[_pool];\n    }\n\n    /**\n    * @param _name string name of pool\n    * @return pool address of a given pool name\n    **/\n    function getAddressFromName(string memory _name) external view returns(address){\n        return names[_name];\n    }\n}",
  "sourcePath": "/home/smeee/just_cause/contracts/polygon/PoolTracker.sol",
  "compiler": {
    "name": "solc",
    "version": "0.8.9+commit.e5eed63a.Emscripten.clang"
  },
  "schemaVersion": "3.4.7",
  "updatedAt": "2022-05-17T01:09:34.867Z",
  "networkType": "ethereum",
  "devdoc": {
    "author": "JustCause",
    "details": "Deposits, withdraws, and claims for Aave PoolsGenerate ERC721 token*",
    "kind": "dev",
    "methods": {
      "addDeposit(uint256,address,address,bool)": {
        "details": "Emit AddDeposit",
        "params": {
          "_amount": "The amount of supplied assets",
          "_asset": "The address of the underlying asset of the reserve",
          "_isETH": "bool indicating if asset is the base token of network (eth/matic/...)*",
          "_pool": "address of JCP"
        }
      },
      "checkPool(address)": {
        "params": {
          "_pool": "address of pool"
        },
        "returns": {
          "_0": "true if pool address exists*"
        }
      },
      "claimInterest(address,address,bool)": {
        "details": "Emit Claim",
        "params": {
          "_asset": "The address of the underlying asset of the reserve",
          "_isETH": "bool indicating if asset is the base token of network (eth/matic/...)*",
          "_pool": "address of JCP"
        }
      },
      "constructor": {
        "details": "Constructor."
      },
      "createJCPoolClone(address[],string,string,string,string,address)": {
        "details": "Emit AddPool",
        "params": {
          "_about": "ipfs hash of pool description of JCP.",
          "_acceptedTokens": "List of tokens to be accepted by JCP.",
          "_metaUri": "meta info uri for nft of JCP.",
          "_name": "String name of JCP.",
          "_picHash": "ipfs hash of pic of JCP.",
          "_receiver": "address of receiver of JCP donations.*"
        }
      },
      "getAddressFromName(string)": {
        "params": {
          "_name": "string name of pool"
        },
        "returns": {
          "_0": "pool address of a given pool name*"
        }
      },
      "getBaseJCPoolAddress()": {
        "returns": {
          "_0": "address of base JCP, created on deployment*"
        }
      },
      "getDepositorERC721Address()": {
        "returns": {
          "_0": "address of ERC721 for depositors, created on deployment*"
        }
      },
      "getOwnerERC721Address()": {
        "returns": {
          "_0": "address of ERC721 for owners, created on deployment*"
        }
      },
      "getPoolAddr()": {
        "returns": {
          "_0": "address of aave pool*"
        }
      },
      "getReservesList()": {
        "returns": {
          "_0": "address array of aave reserve list*"
        }
      },
      "getTVL(address)": {
        "params": {
          "_asset": "The address of the underlying asset of the reserve"
        },
        "returns": {
          "_0": "tvl of the protocol for a given asset*"
        }
      },
      "getTotalDonated(address)": {
        "params": {
          "_asset": "The address of the underlying asset of the reserve"
        },
        "returns": {
          "_0": "total claimed donation for a given asset*"
        }
      },
      "getValidator()": {
        "returns": {
          "_0": "address of validator*"
        }
      },
      "getVerifiedPools()": {
        "returns": {
          "_0": "list of verified pools*"
        }
      },
      "withdrawDeposit(uint256,address,address,bool)": {
        "details": "Emit WithdrawDeposit",
        "params": {
          "_amount": "The amount of withdraw assets",
          "_asset": "The address of the underlying asset of the reserve",
          "_isETH": "bool indicating if asset is the base token of network (eth/matic/...)*",
          "_pool": "address of JCP"
        }
      }
    },
    "title": "PoolTracker contract",
    "version": 1
  },
  "userdoc": {
    "kind": "user",
    "methods": {
      "createJCPoolClone(address[],string,string,string,string,address)": {
        "notice": "Creates JCP proxy"
      }
    },
    "notice": "Main point of interaction with JustCause Protocol This is a proof of concept starter contract for lossless donations Aave v3 is used to generate interest for crowdfunding PoolTracker contract controls deposit calls to Aave to make approvals needed only once per token. Calls JustCause Pools for withdrawals and claims Controls Owner/Contributor NFT creation and updates for deposits/withdrawals Controls JustCause Pool creation with proxy contracts",
    "version": 1
  }
}