{
  "contractName": "RandomNumberConsumer",
  "abi": [
    {
      "inputs": [],
      "stateMutability": "nonpayable",
      "type": "constructor"
    },
    {
      "anonymous": false,
      "inputs": [
        {
          "indexed": false,
          "internalType": "uint256[]",
          "name": "values",
          "type": "uint256[]"
        }
      ],
      "name": "RandomArray",
      "type": "event"
    },
    {
      "inputs": [],
      "name": "randomResult",
      "outputs": [
        {
          "internalType": "uint256",
          "name": "",
          "type": "uint256"
        }
      ],
      "stateMutability": "view",
      "type": "function",
      "constant": true
    },
    {
      "inputs": [
        {
          "internalType": "bytes32",
          "name": "requestId",
          "type": "bytes32"
        },
        {
          "internalType": "uint256",
          "name": "randomness",
          "type": "uint256"
        }
      ],
      "name": "rawFulfillRandomness",
      "outputs": [],
      "stateMutability": "nonpayable",
      "type": "function"
    },
    {
      "inputs": [
        {
          "internalType": "uint256",
          "name": "userProvidedSeed",
          "type": "uint256"
        },
        {
          "internalType": "uint256",
          "name": "n",
          "type": "uint256"
        }
      ],
      "name": "getRandomNumber",
      "outputs": [
        {
          "internalType": "bytes32",
          "name": "requestId",
          "type": "bytes32"
        }
      ],
      "stateMutability": "nonpayable",
      "type": "function"
    },
    {
      "inputs": [],
      "name": "withdrawLink",
      "outputs": [],
      "stateMutability": "nonpayable",
      "type": "function"
    },
    {
      "inputs": [],
      "name": "expand",
      "outputs": [],
      "stateMutability": "nonpayable",
      "type": "function"
    }
  ],
  "bytecode": "0x60c060405234801561001057600080fd5b5073dd3782915140c8f3b190b5d67eac6dc5760c46e973a36085f69e2889c224210f603d836748e7dc00888173ffffffffffffffffffffffffffffffffffffffff1660a08173ffffffffffffffffffffffffffffffffffffffff1660601b815250508073ffffffffffffffffffffffffffffffffffffffff1660808173ffffffffffffffffffffffffffffffffffffffff1660601b8152505050507f6c3699283bda56ad74f6b855546325b68d482e983852a7a82979cc4807b641f460001b60018190555067016345785d8a0000600281905550600160038190555060805160601c60a05160601c611107610133600039600081816104f60152610678015260008181610250015281816103600152818161039d015261063c01526111076000f3fe608060405234801561001057600080fd5b50600436106100575760003560e01c80631cf28a651461005c57806342619f66146100665780636e68fc0a146100845780638dc654a2146100b457806394985ddd146100be575b600080fd5b6100646100da565b005b61006e610243565b60405161007b9190610dff565b60405180910390f35b61009e60048036038101906100999190610950565b610249565b6040516100ab9190610cd4565b60405180910390f35b6100bc61035e565b005b6100d860048036038101906100d391906108eb565b6104f4565b005b600060035467ffffffffffffffff81111561011e577f4e487b7100000000000000000000000000000000000000000000000000000000600052604160045260246000fd5b60405190808252806020026020018201604052801561014c5781602001602082028036833780820191505090505b50905060005b600354811015610208576101b060016101a260066004548560405160200161017b929190610e1a565b6040516020818303038152906040528051906020012060001c61059090919063ffffffff16565b6105da90919063ffffffff16565b8282815181106101e9577f4e487b7100000000000000000000000000000000000000000000000000000000600052603260045260246000fd5b602002602001018181525050808061020090610f8f565b915050610152565b507fb2cdd2af4a227b00ac780e0a9c0092828c5ab4ac482816cc14e2e7467b753a31816040516102389190610cb2565b60405180910390a150565b60045481565b60006002547f000000000000000000000000000000000000000000000000000000000000000073ffffffffffffffffffffffffffffffffffffffff166370a08231306040518263ffffffff1660e01b81526004016102a79190610c30565b60206040518083038186803b1580156102bf57600080fd5b505afa1580156102d3573d6000803e3d6000fd5b505050506040513d601f19601f820116820180604052508101906102f79190610927565b1015610338576040517f08c379a000000000000000000000000000000000000000000000000000000000815260040161032f90610d9f565b60405180910390fd5b61034760015460025485610638565b9050816003819055506103586100da565b92915050565b7f000000000000000000000000000000000000000000000000000000000000000073ffffffffffffffffffffffffffffffffffffffff1663a9059cbb337f000000000000000000000000000000000000000000000000000000000000000073ffffffffffffffffffffffffffffffffffffffff166370a08231306040518263ffffffff1660e01b81526004016103f49190610c30565b60206040518083038186803b15801561040c57600080fd5b505afa158015610420573d6000803e3d6000fd5b505050506040513d601f19601f820116820180604052508101906104449190610927565b6040518363ffffffff1660e01b8152600401610461929190610c4b565b602060405180830381600087803b15801561047b57600080fd5b505af115801561048f573d6000803e3d6000fd5b505050506040513d601f19601f820116820180604052508101906104b391906108c2565b6104f2576040517f08c379a00000000000000000000000000000000000000000000000000000000081526004016104e990610dbf565b60405180910390fd5b565b7f000000000000000000000000000000000000000000000000000000000000000073ffffffffffffffffffffffffffffffffffffffff163373ffffffffffffffffffffffffffffffffffffffff1614610582576040517f08c379a000000000000000000000000000000000000000000000000000000000815260040161057990610ddf565b60405180910390fd5b61058c8282610796565b5050565b60006105d283836040518060400160405280601881526020017f536166654d6174683a206d6f64756c6f206279207a65726f00000000000000008152506107a1565b905092915050565b60008082846105e99190610eb4565b90508381101561062e576040517f08c379a000000000000000000000000000000000000000000000000000000000815260040161062590610d7f565b60405180910390fd5b8091505092915050565b60007f000000000000000000000000000000000000000000000000000000000000000073ffffffffffffffffffffffffffffffffffffffff16634000aea07f00000000000000000000000000000000000000000000000000000000000000008587866040516020016106ab929190610cef565b6040516020818303038152906040526040518463ffffffff1660e01b81526004016106d893929190610c74565b602060405180830381600087803b1580156106f257600080fd5b505af1158015610706573d6000803e3d6000fd5b505050506040513d601f19601f8201168201806040525081019061072a91906108c2565b50600061074b8584306000808a8152602001908152602001600020546107ff565b905060016000808781526020019081526020016000205461076c9190610eb4565b6000808781526020019081526020016000208190555061078c858261083b565b9150509392505050565b806004819055505050565b60008083141582906107e9576040517f08c379a00000000000000000000000000000000000000000000000000000000081526004016107e09190610d5d565b60405180910390fd5b5082846107f69190610fec565b90509392505050565b6000848484846040516020016108189493929190610d18565b6040516020818303038152906040528051906020012060001c9050949350505050565b60008282604051602001610850929190610c04565b60405160208183030381529060405280519060200120905092915050565b60008151905061087d8161108c565b92915050565b600081359050610892816110a3565b92915050565b6000813590506108a7816110ba565b92915050565b6000815190506108bc816110ba565b92915050565b6000602082840312156108d457600080fd5b60006108e28482850161086e565b91505092915050565b600080604083850312156108fe57600080fd5b600061090c85828601610883565b925050602061091d85828601610898565b9150509250929050565b60006020828403121561093957600080fd5b6000610947848285016108ad565b91505092915050565b6000806040838503121561096357600080fd5b600061097185828601610898565b925050602061098285828601610898565b9150509250929050565b60006109988383610bcf565b60208301905092915050565b6109ad81610f0a565b82525050565b60006109be82610e53565b6109c88185610e81565b93506109d383610e43565b8060005b83811015610a045781516109eb888261098c565b97506109f683610e74565b9250506001810190506109d7565b5085935050505092915050565b610a1a81610f28565b82525050565b610a31610a2c82610f28565b610fd8565b82525050565b6000610a4282610e5e565b610a4c8185610e92565b9350610a5c818560208601610f5c565b610a658161107b565b840191505092915050565b6000610a7b82610e69565b610a858185610ea3565b9350610a95818560208601610f5c565b610a9e8161107b565b840191505092915050565b6000610ab6601b83610ea3565b91507f536166654d6174683a206164646974696f6e206f766572666c6f7700000000006000830152602082019050919050565b6000610af6602b83610ea3565b91507f4e6f7420656e6f756768204c494e4b202d2066696c6c20636f6e74726163742060008301527f77697468206661756365740000000000000000000000000000000000000000006020830152604082019050919050565b6000610b5c601283610ea3565b91507f556e61626c6520746f207472616e7366657200000000000000000000000000006000830152602082019050919050565b6000610b9c601f83610ea3565b91507f4f6e6c7920565246436f6f7264696e61746f722063616e2066756c66696c6c006000830152602082019050919050565b610bd881610f52565b82525050565b610be781610f52565b82525050565b610bfe610bf982610f52565b610fe2565b82525050565b6000610c108285610a20565b602082019150610c208284610bed565b6020820191508190509392505050565b6000602082019050610c4560008301846109a4565b92915050565b6000604082019050610c6060008301856109a4565b610c6d6020830184610bde565b9392505050565b6000606082019050610c8960008301866109a4565b610c966020830185610bde565b8181036040830152610ca88184610a37565b9050949350505050565b60006020820190508181036000830152610ccc81846109b3565b905092915050565b6000602082019050610ce96000830184610a11565b92915050565b6000604082019050610d046000830185610a11565b610d116020830184610bde565b9392505050565b6000608082019050610d2d6000830187610a11565b610d3a6020830186610bde565b610d4760408301856109a4565b610d546060830184610bde565b95945050505050565b60006020820190508181036000830152610d778184610a70565b905092915050565b60006020820190508181036000830152610d9881610aa9565b9050919050565b60006020820190508181036000830152610db881610ae9565b9050919050565b60006020820190508181036000830152610dd881610b4f565b9050919050565b60006020820190508181036000830152610df881610b8f565b9050919050565b6000602082019050610e146000830184610bde565b92915050565b6000604082019050610e2f6000830185610bde565b610e3c6020830184610bde565b9392505050565b6000819050602082019050919050565b600081519050919050565b600081519050919050565b600081519050919050565b6000602082019050919050565b600082825260208201905092915050565b600082825260208201905092915050565b600082825260208201905092915050565b6000610ebf82610f52565b9150610eca83610f52565b9250827fffffffffffffffffffffffffffffffffffffffffffffffffffffffffffffffff03821115610eff57610efe61101d565b5b828201905092915050565b6000610f1582610f32565b9050919050565b60008115159050919050565b6000819050919050565b600073ffffffffffffffffffffffffffffffffffffffff82169050919050565b6000819050919050565b60005b83811015610f7a578082015181840152602081019050610f5f565b83811115610f89576000848401525b50505050565b6000610f9a82610f52565b91507fffffffffffffffffffffffffffffffffffffffffffffffffffffffffffffffff821415610fcd57610fcc61101d565b5b600182019050919050565b6000819050919050565b6000819050919050565b6000610ff782610f52565b915061100283610f52565b9250826110125761101161104c565b5b828206905092915050565b7f4e487b7100000000000000000000000000000000000000000000000000000000600052601160045260246000fd5b7f4e487b7100000000000000000000000000000000000000000000000000000000600052601260045260246000fd5b6000601f19601f8301169050919050565b61109581610f1c565b81146110a057600080fd5b50565b6110ac81610f28565b81146110b757600080fd5b50565b6110c381610f52565b81146110ce57600080fd5b5056fea2646970667358221220b3d9b981ba38eeb4f49ba5e6362797b57c5a3cceeb1598630ef9f94de83229a464736f6c63430008000033",
  "immutableReferences": {
    "443": [
      {
        "length": 32,
        "start": 592
      },
      {
        "length": 32,
        "start": 864
      },
      {
        "length": 32,
        "start": 925
      },
      {
        "length": 32,
        "start": 1596
      }
    ],
    "445": [
      {
        "length": 32,
        "start": 1270
      },
      {
        "length": 32,
        "start": 1656
      }
    ]
  },
  "source": "// SPDX-License-Identifier: MIT\npragma solidity ^0.8.0;\n\nimport \"@chainlink/contracts/src/v0.8/dev/VRFConsumerBase.sol\";\nimport \"./SafeMath.sol\";\n\ncontract RandomNumberConsumer is VRFConsumerBase {\n    \n    using SafeMath for uint256;\n    bytes32 internal keyHash;\n    uint256 internal fee;\n    uint256 internal numRandoms;\n\n    uint256 public randomResult;\n    \n    event RandomArray(uint256[] values);\n    /**\n     * Constructor inherits VRFConsumerBase\n     * \n     * Network: Kovan\n     * Chainlink VRF Coordinator address: 0xdD3782915140c8f3b190B5D67eAc6dc5760C46E9\n     * LINK token address:                0xa36085F69e2889c224210F603D836748e7dC0088\n     * Key Hash: 0x6c3699283bda56ad74f6b855546325b68d482e983852a7a82979cc4807b641f4\n     */\n    constructor() \n        VRFConsumerBase(\n            0xdD3782915140c8f3b190B5D67eAc6dc5760C46E9, // VRF Coordinator\n            0xa36085F69e2889c224210F603D836748e7dC0088  // LINK Token\n        ) \n    {\n        keyHash = 0x6c3699283bda56ad74f6b855546325b68d482e983852a7a82979cc4807b641f4;\n        fee = 0.1 * 10 ** 18; // 0.1 LINK\n        numRandoms = 1;\n    }\n    \n    /** \n     * Requests randomness from a user-provided seed\n     ************************************************************************************\n     *                                    STOP!                                         * \n     *         THIS FUNCTION WILL FAIL IF THIS CONTRACT DOES NOT OWN LINK               *\n     *         ----------------------------------------------------------               *\n     *         Learn how to obtain testnet LINK and fund this contract:                 *\n     *         ------- https://docs.chain.link/docs/acquire-link --------               *\n     *         ---- https://docs.chain.link/docs/fund-your-contract -----               *\n     *                                                                                  *\n     ************************************************************************************/\n    function getRandomNumber(uint256 userProvidedSeed, uint256 n) public returns (bytes32 requestId) {\n        require(LINK.balanceOf(address(this)) >= fee, \"Not enough LINK - fill contract with faucet\");\n        requestId = requestRandomness(keyHash, fee, userProvidedSeed);\n        numRandoms = n;\n        expand();\n        return requestId;\n    }\n\n    /**\n     * Callback function used by VRF Coordinator\n     */\n    function fulfillRandomness(bytes32 requestId, uint256 randomness) internal override {\n        randomResult = randomness;\n        //expand();\n    }\n    \n    /**\n     * Withdraw LINK from this contract\n     * \n     * DO NOT USE THIS IN PRODUCTION AS IT CAN BE CALLED BY ANY ADDRESS.\n     * THIS IS PURELY FOR EXAMPLE PURPOSES.\n     */\n    function withdrawLink() external {\n        require(LINK.transfer(msg.sender, LINK.balanceOf(address(this))), \"Unable to transfer\");\n    }\n    \n    function expand() public {\n    uint256[] memory expandedValues = new uint256[](numRandoms);\n    for (uint256 i = 0; i < numRandoms; i++) {\n        expandedValues[i] = uint256(keccak256(abi.encode(randomResult, i))).mod(6).add(1);\n    }\n    emit RandomArray(expandedValues);\n}\n}",
  "sourcePath": "/home/smeee/dice/contracts/RandomNumberConsumer.sol",
  "compiler": {
    "name": "solc",
    "version": "0.8.0+commit.c7dfd78e.Emscripten.clang"
  },
  "schemaVersion": "3.4.1",
  "updatedAt": "2021-06-10T15:13:49.837Z",
  "networkType": "ethereum",
  "devdoc": {
    "kind": "dev",
    "methods": {},
    "version": 1
  },
  "userdoc": {
    "kind": "user",
    "methods": {
      "constructor": {
        "notice": "Constructor inherits VRFConsumerBase  Network: Kovan Chainlink VRF Coordinator address: 0xdD3782915140c8f3b190B5D67eAc6dc5760C46E9 LINK token address:                0xa36085F69e2889c224210F603D836748e7dC0088 Key Hash: 0x6c3699283bda56ad74f6b855546325b68d482e983852a7a82979cc4807b641f4"
      },
      "getRandomNumber(uint256,uint256)": {
        "notice": "Requests randomness from a user-provided seed************************************************************************************                                    STOP!                                         *          THIS FUNCTION WILL FAIL IF THIS CONTRACT DOES NOT OWN LINK               *         ----------------------------------------------------------               *         Learn how to obtain testnet LINK and fund this contract:                 *         ------- https://docs.chain.link/docs/acquire-link --------               *         ---- https://docs.chain.link/docs/fund-your-contract -----               *                                                                                  ************************************************************************************"
      },
      "withdrawLink()": {
        "notice": "Withdraw LINK from this contract  DO NOT USE THIS IN PRODUCTION AS IT CAN BE CALLED BY ANY ADDRESS. THIS IS PURELY FOR EXAMPLE PURPOSES."
      }
    },
    "version": 1
  }
}