{
  "contractName": "WethGatewayTest",
  "abi": [
    {
      "inputs": [
        {
          "internalType": "address",
          "name": "_wethAddress",
          "type": "address"
        },
        {
          "internalType": "address",
          "name": "_aWethAddress",
          "type": "address"
        }
      ],
      "name": "setValues",
      "outputs": [],
      "stateMutability": "nonpayable",
      "type": "function"
    },
    {
      "inputs": [
        {
          "internalType": "address",
          "name": "_pool",
          "type": "address"
        },
        {
          "internalType": "address",
          "name": "_onBehalfOf",
          "type": "address"
        },
        {
          "internalType": "uint16",
          "name": "_referralCode",
          "type": "uint16"
        }
      ],
      "name": "depositETH",
      "outputs": [],
      "stateMutability": "payable",
      "type": "function",
      "payable": true
    },
    {
      "inputs": [
        {
          "internalType": "address",
          "name": "_pool",
          "type": "address"
        },
        {
          "internalType": "uint256",
          "name": "_amount",
          "type": "uint256"
        },
        {
          "internalType": "address",
          "name": "_to",
          "type": "address"
        }
      ],
      "name": "withdrawETH",
      "outputs": [],
      "stateMutability": "nonpayable",
      "type": "function"
    },
    {
      "inputs": [],
      "name": "getWETHAddress",
      "outputs": [
        {
          "internalType": "address",
          "name": "",
          "type": "address"
        }
      ],
      "stateMutability": "view",
      "type": "function",
      "constant": true
    }
  ],
  "bytecode": "0x608060405234801561001057600080fd5b50610a1e806100206000396000f3fe60806040526004361061003f5760003560e01c8063474cf53d1461004457806380500d2014610060578063affa881714610089578063fe5f0178146100b4575b600080fd5b61005e600480360381019061005991906105c4565b6100dd565b005b34801561006c57600080fd5b506100876004803603810190610082919061064d565b610173565b005b34801561009557600080fd5b5061009e610379565b6040516100ab91906106af565b60405180910390f35b3480156100c057600080fd5b506100db60048036038101906100d691906106ca565b6103a2565b005b8273ffffffffffffffffffffffffffffffffffffffff1663e8eda9df60008054906101000a900473ffffffffffffffffffffffffffffffffffffffff163485856040518563ffffffff1660e01b815260040161013c9493929190610728565b600060405180830381600087803b15801561015657600080fd5b505af115801561016a573d6000803e3d6000fd5b50505050505050565b6000829050600160009054906101000a900473ffffffffffffffffffffffffffffffffffffffff1673ffffffffffffffffffffffffffffffffffffffff166323b872dd3330846040518463ffffffff1660e01b81526004016101d79392919061076d565b602060405180830381600087803b1580156101f157600080fd5b505af1158015610205573d6000803e3d6000fd5b505050506040513d601f19601f8201168201806040525081019061022991906107dc565b508373ffffffffffffffffffffffffffffffffffffffff166369328dec60008054906101000a900473ffffffffffffffffffffffffffffffffffffffff1683306040518463ffffffff1660e01b815260040161028793929190610809565b602060405180830381600087803b1580156102a157600080fd5b505af11580156102b5573d6000803e3d6000fd5b505050506040513d601f19601f820116820180604052508101906102d99190610855565b50600160009054906101000a900473ffffffffffffffffffffffffffffffffffffffff1673ffffffffffffffffffffffffffffffffffffffff16639dc29fac33856040518363ffffffff1660e01b8152600401610337929190610882565b600060405180830381600087803b15801561035157600080fd5b505af1158015610365573d6000803e3d6000fd5b505050506103738282610427565b50505050565b60008060009054906101000a900473ffffffffffffffffffffffffffffffffffffffff16905090565b816000806101000a81548173ffffffffffffffffffffffffffffffffffffffff021916908373ffffffffffffffffffffffffffffffffffffffff16021790555080600160006101000a81548173ffffffffffffffffffffffffffffffffffffffff021916908373ffffffffffffffffffffffffffffffffffffffff1602179055505050565b60008273ffffffffffffffffffffffffffffffffffffffff1682600067ffffffffffffffff81111561045c5761045b6108ab565b5b6040519080825280601f01601f19166020018201604052801561048e5781602001600182028036833780820191505090505b5060405161049c9190610954565b60006040518083038185875af1925050503d80600081146104d9576040519150601f19603f3d011682016040523d82523d6000602084013e6104de565b606091505b5050905080610522576040517f08c379a0000000000000000000000000000000000000000000000000000000008152600401610519906109c8565b60405180910390fd5b505050565b600080fd5b600073ffffffffffffffffffffffffffffffffffffffff82169050919050565b60006105578261052c565b9050919050565b6105678161054c565b811461057257600080fd5b50565b6000813590506105848161055e565b92915050565b600061ffff82169050919050565b6105a18161058a565b81146105ac57600080fd5b50565b6000813590506105be81610598565b92915050565b6000806000606084860312156105dd576105dc610527565b5b60006105eb86828701610575565b93505060206105fc86828701610575565b925050604061060d868287016105af565b9150509250925092565b6000819050919050565b61062a81610617565b811461063557600080fd5b50565b60008135905061064781610621565b92915050565b60008060006060848603121561066657610665610527565b5b600061067486828701610575565b935050602061068586828701610638565b925050604061069686828701610575565b9150509250925092565b6106a98161054c565b82525050565b60006020820190506106c460008301846106a0565b92915050565b600080604083850312156106e1576106e0610527565b5b60006106ef85828601610575565b925050602061070085828601610575565b9150509250929050565b61071381610617565b82525050565b6107228161058a565b82525050565b600060808201905061073d60008301876106a0565b61074a602083018661070a565b61075760408301856106a0565b6107646060830184610719565b95945050505050565b600060608201905061078260008301866106a0565b61078f60208301856106a0565b61079c604083018461070a565b949350505050565b60008115159050919050565b6107b9816107a4565b81146107c457600080fd5b50565b6000815190506107d6816107b0565b92915050565b6000602082840312156107f2576107f1610527565b5b6000610800848285016107c7565b91505092915050565b600060608201905061081e60008301866106a0565b61082b602083018561070a565b61083860408301846106a0565b949350505050565b60008151905061084f81610621565b92915050565b60006020828403121561086b5761086a610527565b5b600061087984828501610840565b91505092915050565b600060408201905061089760008301856106a0565b6108a4602083018461070a565b9392505050565b7f4e487b7100000000000000000000000000000000000000000000000000000000600052604160045260246000fd5b600081519050919050565b600081905092915050565b60005b8381101561090e5780820151818401526020810190506108f3565b8381111561091d576000848401525b50505050565b600061092e826108da565b61093881856108e5565b93506109488185602086016108f0565b80840191505092915050565b60006109608284610923565b915081905092915050565b600082825260208201905092915050565b7f4554485f5452414e534645525f4641494c454400000000000000000000000000600082015250565b60006109b260138361096b565b91506109bd8261097c565b602082019050919050565b600060208201905081810360008301526109e1816109a5565b905091905056fea26469706673582212205ef2ed91078a6d83a2efaa8b2b50a320ad5fba952bd197404191b8c565f5e84b64736f6c63430008090033",
  "immutableReferences": {},
  "source": "// SPDX-License-Identifier: AGPL-3.0\npragma solidity 0.8.9;\n\nimport { IPool, ITestToken, IERC20 } from '../polygon/Interfaces.sol';\n\ncontract WethGatewayTest {\n\n    address WETH;\n    address aWETH;\n    mapping(address => uint256) depositors;\n\n    function setValues(address _wethAddress, address _aWethAddress) external {\n        WETH = _wethAddress;\n        aWETH = _aWethAddress;\n    }\n\n    function depositETH(\n        address _pool,\n        address _onBehalfOf,\n        uint16 _referralCode\n    ) external payable {\n        //WETH.deposit{value: msg.value}();\n        IPool(_pool).deposit(address(WETH), msg.value, _onBehalfOf, _referralCode);\n    }\n\n    /**\n    * @dev withdraws the WETH _reserves of msg.sender.\n    * @param _pool address of the targeted underlying pool\n    * @param _amount amount of aWETH to withdraw and receive native ETH\n    * @param _to address of the user who will receive native ETH\n    */\n    function withdrawETH(\n    address _pool,\n    uint256 _amount,\n    address _to\n    ) external {\n\n        uint256 amountToWithdraw = _amount;\n        ITestToken(aWETH).transferFrom(msg.sender, address(this), amountToWithdraw);\n        IPool(_pool).withdraw(address(WETH), amountToWithdraw, address(this));\n        //WETH.withdraw(amountToWithdraw);\n        ITestToken(aWETH).burn(msg.sender, _amount);\n        _safeTransferETH(_to, amountToWithdraw);\n    }\n\n    function _safeTransferETH(address to, uint256 value) internal {\n        (bool success, ) = to.call{value: value}(new bytes(0));\n        require(success, 'ETH_TRANSFER_FAILED');\n    }\n\n    function getWETHAddress() external view returns (address) {\n        return address(WETH);\n    }\n}",
  "sourcePath": "/home/smeee/just_cause/contracts/test/WethGatewayTest.sol",
  "compiler": {
    "name": "solc",
    "version": "0.8.9+commit.e5eed63a.Emscripten.clang"
  },
  "schemaVersion": "3.4.7",
  "updatedAt": "2022-05-17T01:09:34.892Z",
  "networkType": "ethereum",
  "devdoc": {
    "kind": "dev",
    "methods": {
      "withdrawETH(address,uint256,address)": {
        "details": "withdraws the WETH _reserves of msg.sender.",
        "params": {
          "_amount": "amount of aWETH to withdraw and receive native ETH",
          "_pool": "address of the targeted underlying pool",
          "_to": "address of the user who will receive native ETH"
        }
      }
    },
    "version": 1
  },
  "userdoc": {
    "kind": "user",
    "methods": {},
    "version": 1
  }
}