{
  "contractName": "WethGatewayTest",
  "abi": [
    {
      "anonymous": false,
      "inputs": [
        {
          "indexed": false,
          "internalType": "address",
          "name": "_to",
          "type": "address"
        },
        {
          "indexed": false,
          "internalType": "uint256",
          "name": "amountToWithdraw",
          "type": "uint256"
        }
      ],
      "name": "Test",
      "type": "event"
    },
    {
      "inputs": [
        {
          "internalType": "address",
          "name": "_wethAddress",
          "type": "address"
        },
        {
          "internalType": "address",
          "name": "_aWethAddress",
          "type": "address"
        }
      ],
      "name": "setValues",
      "outputs": [],
      "stateMutability": "nonpayable",
      "type": "function"
    },
    {
      "inputs": [
        {
          "internalType": "address",
          "name": "_pool",
          "type": "address"
        },
        {
          "internalType": "address",
          "name": "_onBehalfOf",
          "type": "address"
        },
        {
          "internalType": "uint16",
          "name": "_referralCode",
          "type": "uint16"
        }
      ],
      "name": "depositETH",
      "outputs": [],
      "stateMutability": "payable",
      "type": "function",
      "payable": true
    },
    {
      "inputs": [
        {
          "internalType": "address",
          "name": "_pool",
          "type": "address"
        },
        {
          "internalType": "uint256",
          "name": "_amount",
          "type": "uint256"
        },
        {
          "internalType": "address",
          "name": "_to",
          "type": "address"
        }
      ],
      "name": "withdrawETH",
      "outputs": [],
      "stateMutability": "nonpayable",
      "type": "function"
    },
    {
      "inputs": [],
      "name": "getWETHAddress",
      "outputs": [
        {
          "internalType": "address",
          "name": "",
          "type": "address"
        }
      ],
      "stateMutability": "view",
      "type": "function",
      "constant": true
    }
  ],
  "bytecode": "0x608060405234801561001057600080fd5b50610a57806100206000396000f3fe60806040526004361061003f5760003560e01c8063474cf53d1461004457806380500d2014610060578063affa881714610089578063fe5f0178146100b4575b600080fd5b61005e600480360381019061005991906105fd565b6100dd565b005b34801561006c57600080fd5b5061008760048036038101906100829190610686565b610173565b005b34801561009557600080fd5b5061009e6103b2565b6040516100ab91906106e8565b60405180910390f35b3480156100c057600080fd5b506100db60048036038101906100d69190610703565b6103db565b005b8273ffffffffffffffffffffffffffffffffffffffff1663e8eda9df60008054906101000a900473ffffffffffffffffffffffffffffffffffffffff163485856040518563ffffffff1660e01b815260040161013c9493929190610761565b600060405180830381600087803b15801561015657600080fd5b505af115801561016a573d6000803e3d6000fd5b50505050505050565b6000829050600160009054906101000a900473ffffffffffffffffffffffffffffffffffffffff1673ffffffffffffffffffffffffffffffffffffffff166323b872dd3330846040518463ffffffff1660e01b81526004016101d7939291906107a6565b602060405180830381600087803b1580156101f157600080fd5b505af1158015610205573d6000803e3d6000fd5b505050506040513d601f19601f820116820180604052508101906102299190610815565b508373ffffffffffffffffffffffffffffffffffffffff166369328dec60008054906101000a900473ffffffffffffffffffffffffffffffffffffffff1683306040518463ffffffff1660e01b815260040161028793929190610842565b602060405180830381600087803b1580156102a157600080fd5b505af11580156102b5573d6000803e3d6000fd5b505050506040513d601f19601f820116820180604052508101906102d9919061088e565b50600160009054906101000a900473ffffffffffffffffffffffffffffffffffffffff1673ffffffffffffffffffffffffffffffffffffffff16639dc29fac33856040518363ffffffff1660e01b81526004016103379291906108bb565b600060405180830381600087803b15801561035157600080fd5b505af1158015610365573d6000803e3d6000fd5b505050506103738282610460565b7f4ba54330f8090ac87ed0a0b470fd9c8a6bbec84bfe94f4fa7776d1dc27da9f9c82826040516103a49291906108bb565b60405180910390a150505050565b60008060009054906101000a900473ffffffffffffffffffffffffffffffffffffffff16905090565b816000806101000a81548173ffffffffffffffffffffffffffffffffffffffff021916908373ffffffffffffffffffffffffffffffffffffffff16021790555080600160006101000a81548173ffffffffffffffffffffffffffffffffffffffff021916908373ffffffffffffffffffffffffffffffffffffffff1602179055505050565b60008273ffffffffffffffffffffffffffffffffffffffff1682600067ffffffffffffffff811115610495576104946108e4565b5b6040519080825280601f01601f1916602001820160405280156104c75781602001600182028036833780820191505090505b506040516104d5919061098d565b60006040518083038185875af1925050503d8060008114610512576040519150601f19603f3d011682016040523d82523d6000602084013e610517565b606091505b505090508061055b576040517f08c379a000000000000000000000000000000000000000000000000000000000815260040161055290610a01565b60405180910390fd5b505050565b600080fd5b600073ffffffffffffffffffffffffffffffffffffffff82169050919050565b600061059082610565565b9050919050565b6105a081610585565b81146105ab57600080fd5b50565b6000813590506105bd81610597565b92915050565b600061ffff82169050919050565b6105da816105c3565b81146105e557600080fd5b50565b6000813590506105f7816105d1565b92915050565b60008060006060848603121561061657610615610560565b5b6000610624868287016105ae565b9350506020610635868287016105ae565b9250506040610646868287016105e8565b9150509250925092565b6000819050919050565b61066381610650565b811461066e57600080fd5b50565b6000813590506106808161065a565b92915050565b60008060006060848603121561069f5761069e610560565b5b60006106ad868287016105ae565b93505060206106be86828701610671565b92505060406106cf868287016105ae565b9150509250925092565b6106e281610585565b82525050565b60006020820190506106fd60008301846106d9565b92915050565b6000806040838503121561071a57610719610560565b5b6000610728858286016105ae565b9250506020610739858286016105ae565b9150509250929050565b61074c81610650565b82525050565b61075b816105c3565b82525050565b600060808201905061077660008301876106d9565b6107836020830186610743565b61079060408301856106d9565b61079d6060830184610752565b95945050505050565b60006060820190506107bb60008301866106d9565b6107c860208301856106d9565b6107d56040830184610743565b949350505050565b60008115159050919050565b6107f2816107dd565b81146107fd57600080fd5b50565b60008151905061080f816107e9565b92915050565b60006020828403121561082b5761082a610560565b5b600061083984828501610800565b91505092915050565b600060608201905061085760008301866106d9565b6108646020830185610743565b61087160408301846106d9565b949350505050565b6000815190506108888161065a565b92915050565b6000602082840312156108a4576108a3610560565b5b60006108b284828501610879565b91505092915050565b60006040820190506108d060008301856106d9565b6108dd6020830184610743565b9392505050565b7f4e487b7100000000000000000000000000000000000000000000000000000000600052604160045260246000fd5b600081519050919050565b600081905092915050565b60005b8381101561094757808201518184015260208101905061092c565b83811115610956576000848401525b50505050565b600061096782610913565b610971818561091e565b9350610981818560208601610929565b80840191505092915050565b6000610999828461095c565b915081905092915050565b600082825260208201905092915050565b7f4554485f5452414e534645525f4641494c454400000000000000000000000000600082015250565b60006109eb6013836109a4565b91506109f6826109b5565b602082019050919050565b60006020820190508181036000830152610a1a816109de565b905091905056fea264697066735822122036df5069192e54878d5ac73767c099ff4d85dfa7c907607342e0f620c664650b64736f6c63430008090033",
  "immutableReferences": {},
  "source": "// SPDX-License-Identifier: AGPL-3.0\npragma solidity 0.8.9;\n\nimport { IERC20} from '../polygon/interfaces/other/IERC20.sol';\nimport { ITestToken } from '../polygon/interfaces/test/ITestToken.sol';\nimport { IPool } from '../polygon/interfaces/aave/IPool.sol';\n\ncontract WethGatewayTest {\n\n    address WETH;\n    address aWETH;\n    mapping(address => uint256) depositors;\n\n    event Test(address _to, uint256 amountToWithdraw);\n\n    function setValues(address _wethAddress, address _aWethAddress) external {\n        WETH = _wethAddress;\n        aWETH = _aWethAddress;\n    }\n\n    function depositETH(\n        address _pool,\n        address _onBehalfOf,\n        uint16 _referralCode\n    ) external payable {\n        //WETH.deposit{value: msg.value}();\n        IPool(_pool).deposit(address(WETH), msg.value, _onBehalfOf, _referralCode);\n    }\n\n    /**\n    * @dev withdraws the WETH _reserves of msg.sender.\n    * @param _pool address of the targeted underlying pool\n    * @param _amount amount of aWETH to withdraw and receive native ETH\n    * @param _to address of the user who will receive native ETH\n    */\n    function withdrawETH(\n    address _pool,\n    uint256 _amount,\n    address _to\n    ) external {\n\n        uint256 amountToWithdraw = _amount;\n        ITestToken(aWETH).transferFrom(msg.sender, address(this), amountToWithdraw);\n        IPool(_pool).withdraw(address(WETH), amountToWithdraw, address(this));\n        ITestToken(aWETH).burn(msg.sender, _amount);\n        _safeTransferETH(_to, amountToWithdraw);\n        emit Test(_to, amountToWithdraw);\n    }\n\n    function _safeTransferETH(address to, uint256 value) internal {\n        (bool success, ) = to.call{value: value}(new bytes(0));\n        require(success, 'ETH_TRANSFER_FAILED');\n    }\n\n    function getWETHAddress() external view returns (address) {\n        return address(WETH);\n    }\n}",
  "sourcePath": "/home/smeee/projects/just_cause/contracts/test/WethGatewayTest.sol",
  "compiler": {
    "name": "solc",
    "version": "0.8.9+commit.e5eed63a.Emscripten.clang"
  },
  "schemaVersion": "3.4.7",
  "updatedAt": "2022-06-24T15:37:41.155Z",
  "networkType": "ethereum",
  "devdoc": {
    "kind": "dev",
    "methods": {
      "withdrawETH(address,uint256,address)": {
        "details": "withdraws the WETH _reserves of msg.sender.",
        "params": {
          "_amount": "amount of aWETH to withdraw and receive native ETH",
          "_pool": "address of the targeted underlying pool",
          "_to": "address of the user who will receive native ETH"
        }
      }
    },
    "version": 1
  },
  "userdoc": {
    "kind": "user",
    "methods": {},
    "version": 1
  }
}